{
	"contracts/SwapCart.sol": {
		"SwapCart": {
			"abi": [
				{
					"inputs": [
						{
							"internalType": "address",
							"name": "_token",
							"type": "address"
						}
					],
					"stateMutability": "nonpayable",
					"type": "constructor"
				},
				{
					"anonymous": false,
					"inputs": [
						{
							"indexed": false,
							"internalType": "uint256",
							"name": "itmId",
							"type": "uint256"
						},
						{
							"indexed": false,
							"internalType": "uint256",
							"name": "itmStar",
							"type": "uint256"
						},
						{
							"indexed": true,
							"internalType": "address",
							"name": "caller",
							"type": "address"
						}
					],
					"name": "AddStar",
					"type": "event"
				},
				{
					"anonymous": false,
					"inputs": [
						{
							"indexed": false,
							"internalType": "uint256",
							"name": "itmId",
							"type": "uint256"
						},
						{
							"indexed": true,
							"internalType": "address",
							"name": "caller",
							"type": "address"
						}
					],
					"name": "CancelSaleAdvert",
					"type": "event"
				},
				{
					"anonymous": false,
					"inputs": [
						{
							"indexed": false,
							"internalType": "uint256",
							"name": "id",
							"type": "uint256"
						},
						{
							"indexed": false,
							"internalType": "uint256",
							"name": "price",
							"type": "uint256"
						},
						{
							"indexed": false,
							"internalType": "string",
							"name": "image",
							"type": "string"
						},
						{
							"indexed": false,
							"internalType": "uint32",
							"name": "dueDate",
							"type": "uint32"
						},
						{
							"indexed": false,
							"internalType": "uint256",
							"name": "star",
							"type": "uint256"
						},
						{
							"indexed": true,
							"internalType": "address",
							"name": "seller",
							"type": "address"
						}
					],
					"name": "CreateSaleAdvert",
					"type": "event"
				},
				{
					"anonymous": false,
					"inputs": [
						{
							"components": [
								{
									"internalType": "uint256",
									"name": "itemId",
									"type": "uint256"
								},
								{
									"internalType": "string",
									"name": "itemImage",
									"type": "string"
								},
								{
									"internalType": "uint256",
									"name": "star",
									"type": "uint256"
								},
								{
									"internalType": "address",
									"name": "seller",
									"type": "address"
								},
								{
									"internalType": "uint256",
									"name": "price",
									"type": "uint256"
								},
								{
									"internalType": "uint32",
									"name": "dueDate",
									"type": "uint32"
								}
							],
							"indexed": false,
							"internalType": "struct SwapCart.Item[]",
							"name": "listOfItems",
							"type": "tuple[]"
						},
						{
							"indexed": true,
							"internalType": "address",
							"name": "caller",
							"type": "address"
						}
					],
					"name": "GetEntireItems",
					"type": "event"
				},
				{
					"anonymous": false,
					"inputs": [
						{
							"indexed": false,
							"internalType": "uint256",
							"name": "itmId",
							"type": "uint256"
						},
						{
							"components": [
								{
									"internalType": "uint256",
									"name": "itemId",
									"type": "uint256"
								},
								{
									"internalType": "string",
									"name": "itemImage",
									"type": "string"
								},
								{
									"internalType": "uint256",
									"name": "star",
									"type": "uint256"
								},
								{
									"internalType": "address",
									"name": "seller",
									"type": "address"
								},
								{
									"internalType": "uint256",
									"name": "price",
									"type": "uint256"
								},
								{
									"internalType": "uint32",
									"name": "dueDate",
									"type": "uint32"
								}
							],
							"indexed": false,
							"internalType": "struct SwapCart.Item",
							"name": "item",
							"type": "tuple"
						},
						{
							"indexed": true,
							"internalType": "address",
							"name": "caller",
							"type": "address"
						}
					],
					"name": "GetItemById",
					"type": "event"
				},
				{
					"inputs": [
						{
							"internalType": "uint256",
							"name": "itmId",
							"type": "uint256"
						}
					],
					"name": "addStar",
					"outputs": [],
					"stateMutability": "nonpayable",
					"type": "function"
				},
				{
					"inputs": [
						{
							"internalType": "uint256",
							"name": "itmId",
							"type": "uint256"
						}
					],
					"name": "cancelSaleAdvert",
					"outputs": [],
					"stateMutability": "nonpayable",
					"type": "function"
				},
				{
					"inputs": [
						{
							"internalType": "uint256",
							"name": "itmPrice",
							"type": "uint256"
						},
						{
							"internalType": "string",
							"name": "itmImage",
							"type": "string"
						},
						{
							"internalType": "uint32",
							"name": "itmDueDate",
							"type": "uint32"
						}
					],
					"name": "createSaleAdvert",
					"outputs": [],
					"stateMutability": "nonpayable",
					"type": "function"
				},
				{
					"inputs": [],
					"name": "getEntireItems",
					"outputs": [
						{
							"components": [
								{
									"internalType": "uint256",
									"name": "itemId",
									"type": "uint256"
								},
								{
									"internalType": "string",
									"name": "itemImage",
									"type": "string"
								},
								{
									"internalType": "uint256",
									"name": "star",
									"type": "uint256"
								},
								{
									"internalType": "address",
									"name": "seller",
									"type": "address"
								},
								{
									"internalType": "uint256",
									"name": "price",
									"type": "uint256"
								},
								{
									"internalType": "uint32",
									"name": "dueDate",
									"type": "uint32"
								}
							],
							"internalType": "struct SwapCart.Item[]",
							"name": "",
							"type": "tuple[]"
						}
					],
					"stateMutability": "nonpayable",
					"type": "function"
				},
				{
					"inputs": [
						{
							"internalType": "uint256",
							"name": "itmId",
							"type": "uint256"
						}
					],
					"name": "getItemById",
					"outputs": [
						{
							"components": [
								{
									"internalType": "uint256",
									"name": "itemId",
									"type": "uint256"
								},
								{
									"internalType": "string",
									"name": "itemImage",
									"type": "string"
								},
								{
									"internalType": "uint256",
									"name": "star",
									"type": "uint256"
								},
								{
									"internalType": "address",
									"name": "seller",
									"type": "address"
								},
								{
									"internalType": "uint256",
									"name": "price",
									"type": "uint256"
								},
								{
									"internalType": "uint32",
									"name": "dueDate",
									"type": "uint32"
								}
							],
							"internalType": "struct SwapCart.Item",
							"name": "",
							"type": "tuple"
						}
					],
					"stateMutability": "nonpayable",
					"type": "function"
				},
				{
					"inputs": [
						{
							"internalType": "uint256",
							"name": "",
							"type": "uint256"
						}
					],
					"name": "itemList",
					"outputs": [
						{
							"internalType": "uint256",
							"name": "itemId",
							"type": "uint256"
						},
						{
							"internalType": "string",
							"name": "itemImage",
							"type": "string"
						},
						{
							"internalType": "uint256",
							"name": "star",
							"type": "uint256"
						},
						{
							"internalType": "address",
							"name": "seller",
							"type": "address"
						},
						{
							"internalType": "uint256",
							"name": "price",
							"type": "uint256"
						},
						{
							"internalType": "uint32",
							"name": "dueDate",
							"type": "uint32"
						}
					],
					"stateMutability": "view",
					"type": "function"
				},
				{
					"inputs": [
						{
							"internalType": "uint256",
							"name": "",
							"type": "uint256"
						}
					],
					"name": "items",
					"outputs": [
						{
							"internalType": "uint256",
							"name": "itemId",
							"type": "uint256"
						},
						{
							"internalType": "string",
							"name": "itemImage",
							"type": "string"
						},
						{
							"internalType": "uint256",
							"name": "star",
							"type": "uint256"
						},
						{
							"internalType": "address",
							"name": "seller",
							"type": "address"
						},
						{
							"internalType": "uint256",
							"name": "price",
							"type": "uint256"
						},
						{
							"internalType": "uint32",
							"name": "dueDate",
							"type": "uint32"
						}
					],
					"stateMutability": "view",
					"type": "function"
				},
				{
					"inputs": [
						{
							"internalType": "uint256",
							"name": "",
							"type": "uint256"
						},
						{
							"internalType": "address",
							"name": "",
							"type": "address"
						}
					],
					"name": "itemsOfUsers",
					"outputs": [
						{
							"internalType": "uint256",
							"name": "",
							"type": "uint256"
						}
					],
					"stateMutability": "view",
					"type": "function"
				},
				{
					"inputs": [],
					"name": "token",
					"outputs": [
						{
							"internalType": "contract IERC20",
							"name": "",
							"type": "address"
						}
					],
					"stateMutability": "view",
					"type": "function"
				},
				{
					"inputs": [
						{
							"internalType": "address",
							"name": "",
							"type": "address"
						}
					],
					"name": "users",
					"outputs": [
						{
							"internalType": "uint256",
							"name": "userID",
							"type": "uint256"
						},
						{
							"internalType": "string",
							"name": "userName",
							"type": "string"
						},
						{
							"internalType": "string",
							"name": "deliveryAddress",
							"type": "string"
						},
						{
							"internalType": "uint256",
							"name": "balance",
							"type": "uint256"
						}
					],
					"stateMutability": "view",
					"type": "function"
				}
			],
			"devdoc": {
				"kind": "dev",
				"methods": {},
				"version": 1
			},
			"evm": {
				"assembly": "    /* \"contracts/SwapCart.sol\":172:4806  contract SwapCart{\r... */\n  mstore(0x40, 0x80)\n    /* \"contracts/SwapCart.sol\":851:919  constructor(address _token){\r... */\n  callvalue\n  dup1\n  iszero\n  tag_1\n  jumpi\n  0x00\n  dup1\n  revert\ntag_1:\n  pop\n  mload(0x40)\n  sub(codesize, bytecodeSize)\n  dup1\n  bytecodeSize\n  dup4\n  codecopy\n  dup2\n  dup2\n  add\n  0x40\n  mstore\n  dup2\n  add\n  swap1\n  tag_2\n  swap2\n  swap1\n  tag_3\n  jump\t// in\ntag_2:\n    /* \"contracts/SwapCart.sol\":904:910  _token */\n  dup1\n    /* \"contracts/SwapCart.sol\":889:894  token */\n  0x00\n  dup1\n    /* \"contracts/SwapCart.sol\":889:911  token = IERC20(_token) */\n  0x0100\n  exp\n  dup2\n  sload\n  dup2\n  0xffffffffffffffffffffffffffffffffffffffff\n  mul\n  not\n  and\n  swap1\n  dup4\n  0xffffffffffffffffffffffffffffffffffffffff\n  and\n  mul\n  or\n  swap1\n  sstore\n  pop\n    /* \"contracts/SwapCart.sol\":851:919  constructor(address _token){\r... */\n  pop\n    /* \"contracts/SwapCart.sol\":172:4806  contract SwapCart{\r... */\n  jump(tag_6)\n    /* \"#utility.yul\":7:150   */\ntag_8:\n    /* \"#utility.yul\":64:69   */\n  0x00\n    /* \"#utility.yul\":95:101   */\n  dup2\n    /* \"#utility.yul\":89:102   */\n  mload\n    /* \"#utility.yul\":80:102   */\n  swap1\n  pop\n    /* \"#utility.yul\":111:144   */\n  tag_10\n    /* \"#utility.yul\":138:143   */\n  dup2\n    /* \"#utility.yul\":111:144   */\n  tag_11\n  jump\t// in\ntag_10:\n    /* \"#utility.yul\":7:150   */\n  swap3\n  swap2\n  pop\n  pop\n  jump\t// out\n    /* \"#utility.yul\":156:507   */\ntag_3:\n    /* \"#utility.yul\":226:232   */\n  0x00\n    /* \"#utility.yul\":275:277   */\n  0x20\n    /* \"#utility.yul\":263:272   */\n  dup3\n    /* \"#utility.yul\":254:261   */\n  dup5\n    /* \"#utility.yul\":250:273   */\n  sub\n    /* \"#utility.yul\":246:278   */\n  slt\n    /* \"#utility.yul\":243:362   */\n  iszero\n  tag_13\n  jumpi\n    /* \"#utility.yul\":281:360   */\n  tag_14\n  tag_15\n  jump\t// in\ntag_14:\n    /* \"#utility.yul\":243:362   */\ntag_13:\n    /* \"#utility.yul\":401:402   */\n  0x00\n    /* \"#utility.yul\":426:490   */\n  tag_16\n    /* \"#utility.yul\":482:489   */\n  dup5\n    /* \"#utility.yul\":473:479   */\n  dup3\n    /* \"#utility.yul\":462:471   */\n  dup6\n    /* \"#utility.yul\":458:480   */\n  add\n    /* \"#utility.yul\":426:490   */\n  tag_8\n  jump\t// in\ntag_16:\n    /* \"#utility.yul\":416:490   */\n  swap2\n  pop\n    /* \"#utility.yul\":372:500   */\n  pop\n    /* \"#utility.yul\":156:507   */\n  swap3\n  swap2\n  pop\n  pop\n  jump\t// out\n    /* \"#utility.yul\":594:690   */\ntag_19:\n    /* \"#utility.yul\":631:638   */\n  0x00\n    /* \"#utility.yul\":660:684   */\n  tag_21\n    /* \"#utility.yul\":678:683   */\n  dup3\n    /* \"#utility.yul\":660:684   */\n  tag_22\n  jump\t// in\ntag_21:\n    /* \"#utility.yul\":649:684   */\n  swap1\n  pop\n    /* \"#utility.yul\":594:690   */\n  swap2\n  swap1\n  pop\n  jump\t// out\n    /* \"#utility.yul\":696:822   */\ntag_22:\n    /* \"#utility.yul\":733:740   */\n  0x00\n    /* \"#utility.yul\":773:815   */\n  0xffffffffffffffffffffffffffffffffffffffff\n    /* \"#utility.yul\":766:771   */\n  dup3\n    /* \"#utility.yul\":762:816   */\n  and\n    /* \"#utility.yul\":751:816   */\n  swap1\n  pop\n    /* \"#utility.yul\":696:822   */\n  swap2\n  swap1\n  pop\n  jump\t// out\n    /* \"#utility.yul\":951:1068   */\ntag_15:\n    /* \"#utility.yul\":1060:1061   */\n  0x00\n    /* \"#utility.yul\":1057:1058   */\n  dup1\n    /* \"#utility.yul\":1050:1062   */\n  revert\n    /* \"#utility.yul\":1074:1196   */\ntag_11:\n    /* \"#utility.yul\":1147:1171   */\n  tag_28\n    /* \"#utility.yul\":1165:1170   */\n  dup2\n    /* \"#utility.yul\":1147:1171   */\n  tag_19\n  jump\t// in\ntag_28:\n    /* \"#utility.yul\":1140:1145   */\n  dup2\n    /* \"#utility.yul\":1137:1172   */\n  eq\n    /* \"#utility.yul\":1127:1190   */\n  tag_29\n  jumpi\n    /* \"#utility.yul\":1186:1187   */\n  0x00\n    /* \"#utility.yul\":1183:1184   */\n  dup1\n    /* \"#utility.yul\":1176:1188   */\n  revert\n    /* \"#utility.yul\":1127:1190   */\ntag_29:\n    /* \"#utility.yul\":1074:1196   */\n  pop\n  jump\t// out\n    /* \"contracts/SwapCart.sol\":172:4806  contract SwapCart{\r... */\ntag_6:\n  dataSize(sub_0)\n  dup1\n  dataOffset(sub_0)\n  0x00\n  codecopy\n  0x00\n  return\nstop\n\nsub_0: assembly {\n        /* \"contracts/SwapCart.sol\":172:4806  contract SwapCart{\r... */\n      mstore(0x40, 0x80)\n      callvalue\n      dup1\n      iszero\n      tag_1\n      jumpi\n      0x00\n      dup1\n      revert\n    tag_1:\n      pop\n      jumpi(tag_2, lt(calldatasize, 0x04))\n      shr(0xe0, calldataload(0x00))\n      dup1\n      0xbfb231d2\n      gt\n      tag_13\n      jumpi\n      dup1\n      0xbfb231d2\n      eq\n      tag_8\n      jumpi\n      dup1\n      0xca095a83\n      eq\n      tag_9\n      jumpi\n      dup1\n      0xcd2f0710\n      eq\n      tag_10\n      jumpi\n      dup1\n      0xe2870aa9\n      eq\n      tag_11\n      jumpi\n      dup1\n      0xfc0c546a\n      eq\n      tag_12\n      jumpi\n      jump(tag_2)\n    tag_13:\n      dup1\n      0x01750e74\n      eq\n      tag_3\n      jumpi\n      dup1\n      0x3d4d3600\n      eq\n      tag_4\n      jumpi\n      dup1\n      0x4efd1797\n      eq\n      tag_5\n      jumpi\n      dup1\n      0x5d9eb55c\n      eq\n      tag_6\n      jumpi\n      dup1\n      0xa87430ba\n      eq\n      tag_7\n      jumpi\n    tag_2:\n      0x00\n      dup1\n      revert\n        /* \"contracts/SwapCart.sol\":4458:4608  function addStar(uint itmId) public buyerCheck(itmId){\r... */\n    tag_3:\n      tag_14\n      0x04\n      dup1\n      calldatasize\n      sub\n      dup2\n      add\n      swap1\n      tag_15\n      swap2\n      swap1\n      tag_16\n      jump\t// in\n    tag_15:\n      tag_17\n      jump\t// in\n    tag_14:\n      stop\n        /* \"contracts/SwapCart.sol\":575:597  Item[] public itemList */\n    tag_4:\n      tag_18\n      0x04\n      dup1\n      calldatasize\n      sub\n      dup2\n      add\n      swap1\n      tag_19\n      swap2\n      swap1\n      tag_16\n      jump\t// in\n    tag_19:\n      tag_20\n      jump\t// in\n    tag_18:\n      mload(0x40)\n      tag_21\n      swap7\n      swap6\n      swap5\n      swap4\n      swap3\n      swap2\n      swap1\n      tag_22\n      jump\t// in\n    tag_21:\n      mload(0x40)\n      dup1\n      swap2\n      sub\n      swap1\n      return\n        /* \"contracts/SwapCart.sol\":3258:3904  function createSaleAdvert(uint itmPrice, string memory itmImage, uint32 itmDueDate) external{\r... */\n    tag_5:\n      tag_23\n      0x04\n      dup1\n      calldatasize\n      sub\n      dup2\n      add\n      swap1\n      tag_24\n      swap2\n      swap1\n      tag_25\n      jump\t// in\n    tag_24:\n      tag_26\n      jump\t// in\n    tag_23:\n      stop\n        /* \"contracts/SwapCart.sol\":4294:4450  function getEntireItems() public listSizeCheck returns (Item[] memory) {\r... */\n    tag_6:\n      tag_27\n      tag_28\n      jump\t// in\n    tag_27:\n      mload(0x40)\n      tag_29\n      swap2\n      swap1\n      tag_30\n      jump\t// in\n    tag_29:\n      mload(0x40)\n      dup1\n      swap2\n      sub\n      swap1\n      return\n        /* \"contracts/SwapCart.sol\":606:643  mapping(address => User) public users */\n    tag_7:\n      tag_31\n      0x04\n      dup1\n      calldatasize\n      sub\n      dup2\n      add\n      swap1\n      tag_32\n      swap2\n      swap1\n      tag_33\n      jump\t// in\n    tag_32:\n      tag_34\n      jump\t// in\n    tag_31:\n      mload(0x40)\n      tag_35\n      swap5\n      swap4\n      swap3\n      swap2\n      swap1\n      tag_36\n      jump\t// in\n    tag_35:\n      mload(0x40)\n      dup1\n      swap2\n      sub\n      swap1\n      return\n        /* \"contracts/SwapCart.sol\":650:687  mapping(uint256 => Item) public items */\n    tag_8:\n      tag_37\n      0x04\n      dup1\n      calldatasize\n      sub\n      dup2\n      add\n      swap1\n      tag_38\n      swap2\n      swap1\n      tag_16\n      jump\t// in\n    tag_38:\n      tag_39\n      jump\t// in\n    tag_37:\n      mload(0x40)\n      tag_40\n      swap7\n      swap6\n      swap5\n      swap4\n      swap3\n      swap2\n      swap1\n      tag_22\n      jump\t// in\n    tag_40:\n      mload(0x40)\n      dup1\n      swap2\n      sub\n      swap1\n      return\n        /* \"contracts/SwapCart.sol\":3971:4286  function cancelSaleAdvert(uint itmId) external expireCheck(itmId) {\r... */\n    tag_9:\n      tag_41\n      0x04\n      dup1\n      calldatasize\n      sub\n      dup2\n      add\n      swap1\n      tag_42\n      swap2\n      swap1\n      tag_16\n      jump\t// in\n    tag_42:\n      tag_43\n      jump\t// in\n    tag_41:\n      stop\n        /* \"contracts/SwapCart.sol\":4616:4803  function getItemById(uint itmId) public itemAvailabilityCheck(itmId) returns (Item memory) {\r... */\n    tag_10:\n      tag_44\n      0x04\n      dup1\n      calldatasize\n      sub\n      dup2\n      add\n      swap1\n      tag_45\n      swap2\n      swap1\n      tag_16\n      jump\t// in\n    tag_45:\n      tag_46\n      jump\t// in\n    tag_44:\n      mload(0x40)\n      tag_47\n      swap2\n      swap1\n      tag_48\n      jump\t// in\n    tag_47:\n      mload(0x40)\n      dup1\n      swap2\n      sub\n      swap1\n      return\n        /* \"contracts/SwapCart.sol\":694:755  mapping(uint => mapping(address => uint)) public itemsOfUsers */\n    tag_11:\n      tag_49\n      0x04\n      dup1\n      calldatasize\n      sub\n      dup2\n      add\n      swap1\n      tag_50\n      swap2\n      swap1\n      tag_51\n      jump\t// in\n    tag_50:\n      tag_52\n      jump\t// in\n    tag_49:\n      mload(0x40)\n      tag_53\n      swap2\n      swap1\n      tag_54\n      jump\t// in\n    tag_53:\n      mload(0x40)\n      dup1\n      swap2\n      sub\n      swap1\n      return\n        /* \"contracts/SwapCart.sol\":549:568  IERC20 public token */\n    tag_12:\n      tag_55\n      tag_56\n      jump\t// in\n    tag_55:\n      mload(0x40)\n      tag_57\n      swap2\n      swap1\n      tag_58\n      jump\t// in\n    tag_57:\n      mload(0x40)\n      dup1\n      swap2\n      sub\n      swap1\n      return\n        /* \"contracts/SwapCart.sol\":4458:4608  function addStar(uint itmId) public buyerCheck(itmId){\r... */\n    tag_17:\n        /* \"contracts/SwapCart.sol\":4505:4510  itmId */\n      dup1\n        /* \"contracts/SwapCart.sol\":1381:1397  Item memory item */\n      0x00\n        /* \"contracts/SwapCart.sol\":1400:1405  items */\n      0x03\n        /* \"contracts/SwapCart.sol\":1400:1412  items[itmId] */\n      0x00\n        /* \"contracts/SwapCart.sol\":1406:1411  itmId */\n      dup4\n        /* \"contracts/SwapCart.sol\":1400:1412  items[itmId] */\n      dup2\n      mstore\n      0x20\n      add\n      swap1\n      dup2\n      mstore\n      0x20\n      add\n      0x00\n      keccak256\n        /* \"contracts/SwapCart.sol\":1381:1412  Item memory item = items[itmId] */\n      mload(0x40)\n      dup1\n      0xc0\n      add\n      0x40\n      mstore\n      swap1\n      dup2\n      0x00\n      dup3\n      add\n      sload\n      dup2\n      mstore\n      0x20\n      add\n      0x01\n      dup3\n      add\n      dup1\n      sload\n      tag_60\n      swap1\n      tag_61\n      jump\t// in\n    tag_60:\n      dup1\n      0x1f\n      add\n      0x20\n      dup1\n      swap2\n      div\n      mul\n      0x20\n      add\n      mload(0x40)\n      swap1\n      dup2\n      add\n      0x40\n      mstore\n      dup1\n      swap3\n      swap2\n      swap1\n      dup2\n      dup2\n      mstore\n      0x20\n      add\n      dup3\n      dup1\n      sload\n      tag_62\n      swap1\n      tag_61\n      jump\t// in\n    tag_62:\n      dup1\n      iszero\n      tag_63\n      jumpi\n      dup1\n      0x1f\n      lt\n      tag_64\n      jumpi\n      0x0100\n      dup1\n      dup4\n      sload\n      div\n      mul\n      dup4\n      mstore\n      swap2\n      0x20\n      add\n      swap2\n      jump(tag_63)\n    tag_64:\n      dup3\n      add\n      swap2\n      swap1\n      0x00\n      mstore\n      keccak256(0x00, 0x20)\n      swap1\n    tag_65:\n      dup2\n      sload\n      dup2\n      mstore\n      swap1\n      0x01\n      add\n      swap1\n      0x20\n      add\n      dup1\n      dup4\n      gt\n      tag_65\n      jumpi\n      dup3\n      swap1\n      sub\n      0x1f\n      and\n      dup3\n      add\n      swap2\n    tag_63:\n      pop\n      pop\n      pop\n      pop\n      pop\n      dup2\n      mstore\n      0x20\n      add\n      0x02\n      dup3\n      add\n      sload\n      dup2\n      mstore\n      0x20\n      add\n      0x03\n      dup3\n      add\n      0x00\n      swap1\n      sload\n      swap1\n      0x0100\n      exp\n      swap1\n      div\n      0xffffffffffffffffffffffffffffffffffffffff\n      and\n      0xffffffffffffffffffffffffffffffffffffffff\n      and\n      0xffffffffffffffffffffffffffffffffffffffff\n      and\n      dup2\n      mstore\n      0x20\n      add\n      0x04\n      dup3\n      add\n      sload\n      dup2\n      mstore\n      0x20\n      add\n      0x05\n      dup3\n      add\n      0x00\n      swap1\n      sload\n      swap1\n      0x0100\n      exp\n      swap1\n      div\n      0xffffffff\n      and\n      0xffffffff\n      and\n      0xffffffff\n      and\n      dup2\n      mstore\n      pop\n      pop\n      swap1\n      pop\n        /* \"contracts/SwapCart.sol\":1445:1449  item */\n      dup1\n        /* \"contracts/SwapCart.sol\":1445:1456  item.seller */\n      0x60\n      add\n      mload\n        /* \"contracts/SwapCart.sol\":1431:1456  msg.sender != item.seller */\n      0xffffffffffffffffffffffffffffffffffffffff\n      and\n        /* \"contracts/SwapCart.sol\":1431:1441  msg.sender */\n      caller\n        /* \"contracts/SwapCart.sol\":1431:1456  msg.sender != item.seller */\n      0xffffffffffffffffffffffffffffffffffffffff\n      and\n      eq\n      iszero\n        /* \"contracts/SwapCart.sol\":1423:1457  require(msg.sender != item.seller) */\n      tag_66\n      jumpi\n      0x00\n      dup1\n      revert\n    tag_66:\n        /* \"contracts/SwapCart.sol\":4522:4527  items */\n      0x03\n        /* \"contracts/SwapCart.sol\":4522:4534  items[itmId] */\n      0x00\n        /* \"contracts/SwapCart.sol\":4528:4533  itmId */\n      dup5\n        /* \"contracts/SwapCart.sol\":4522:4534  items[itmId] */\n      dup2\n      mstore\n      0x20\n      add\n      swap1\n      dup2\n      mstore\n      0x20\n      add\n      0x00\n      keccak256\n        /* \"contracts/SwapCart.sol\":4522:4539  items[itmId].star */\n      0x02\n      add\n      0x00\n        /* \"contracts/SwapCart.sol\":4522:4541  items[itmId].star++ */\n      dup2\n      sload\n      dup1\n      swap3\n      swap2\n      swap1\n      tag_68\n      swap1\n      tag_69\n      jump\t// in\n    tag_68:\n      swap2\n      swap1\n      pop\n      sstore\n      pop\n        /* \"contracts/SwapCart.sol\":4589:4599  msg.sender */\n      caller\n        /* \"contracts/SwapCart.sol\":4557:4600  AddStar(itmId,items[itmId].star,msg.sender) */\n      0xffffffffffffffffffffffffffffffffffffffff\n      and\n      0x1ed364e6f46a455fac23816d3700669ff134c7a5fbe0240f52d932f834102462\n        /* \"contracts/SwapCart.sol\":4565:4570  itmId */\n      dup5\n        /* \"contracts/SwapCart.sol\":4571:4576  items */\n      0x03\n        /* \"contracts/SwapCart.sol\":4571:4583  items[itmId] */\n      0x00\n        /* \"contracts/SwapCart.sol\":4577:4582  itmId */\n      dup8\n        /* \"contracts/SwapCart.sol\":4571:4583  items[itmId] */\n      dup2\n      mstore\n      0x20\n      add\n      swap1\n      dup2\n      mstore\n      0x20\n      add\n      0x00\n      keccak256\n        /* \"contracts/SwapCart.sol\":4571:4588  items[itmId].star */\n      0x02\n      add\n      sload\n        /* \"contracts/SwapCart.sol\":4557:4600  AddStar(itmId,items[itmId].star,msg.sender) */\n      mload(0x40)\n      tag_70\n      swap3\n      swap2\n      swap1\n      tag_71\n      jump\t// in\n    tag_70:\n      mload(0x40)\n      dup1\n      swap2\n      sub\n      swap1\n      log2\n        /* \"contracts/SwapCart.sol\":1230:1477  {  // We check the message sender of transaction. Because, message sender must be a buyer to can give star for any item. (not seller of item)\r... */\n      pop\n        /* \"contracts/SwapCart.sol\":4458:4608  function addStar(uint itmId) public buyerCheck(itmId){\r... */\n      pop\n      pop\n      jump\t// out\n        /* \"contracts/SwapCart.sol\":575:597  Item[] public itemList */\n    tag_20:\n      0x01\n      dup2\n      dup2\n      sload\n      dup2\n      lt\n      tag_72\n      jumpi\n      0x00\n      dup1\n      revert\n    tag_72:\n      swap1\n      0x00\n      mstore\n      keccak256(0x00, 0x20)\n      swap1\n      0x06\n      mul\n      add\n      0x00\n      swap2\n      pop\n      swap1\n      pop\n      dup1\n      0x00\n      add\n      sload\n      swap1\n      dup1\n      0x01\n      add\n      dup1\n      sload\n      tag_74\n      swap1\n      tag_61\n      jump\t// in\n    tag_74:\n      dup1\n      0x1f\n      add\n      0x20\n      dup1\n      swap2\n      div\n      mul\n      0x20\n      add\n      mload(0x40)\n      swap1\n      dup2\n      add\n      0x40\n      mstore\n      dup1\n      swap3\n      swap2\n      swap1\n      dup2\n      dup2\n      mstore\n      0x20\n      add\n      dup3\n      dup1\n      sload\n      tag_75\n      swap1\n      tag_61\n      jump\t// in\n    tag_75:\n      dup1\n      iszero\n      tag_76\n      jumpi\n      dup1\n      0x1f\n      lt\n      tag_77\n      jumpi\n      0x0100\n      dup1\n      dup4\n      sload\n      div\n      mul\n      dup4\n      mstore\n      swap2\n      0x20\n      add\n      swap2\n      jump(tag_76)\n    tag_77:\n      dup3\n      add\n      swap2\n      swap1\n      0x00\n      mstore\n      keccak256(0x00, 0x20)\n      swap1\n    tag_78:\n      dup2\n      sload\n      dup2\n      mstore\n      swap1\n      0x01\n      add\n      swap1\n      0x20\n      add\n      dup1\n      dup4\n      gt\n      tag_78\n      jumpi\n      dup3\n      swap1\n      sub\n      0x1f\n      and\n      dup3\n      add\n      swap2\n    tag_76:\n      pop\n      pop\n      pop\n      pop\n      pop\n      swap1\n      dup1\n      0x02\n      add\n      sload\n      swap1\n      dup1\n      0x03\n      add\n      0x00\n      swap1\n      sload\n      swap1\n      0x0100\n      exp\n      swap1\n      div\n      0xffffffffffffffffffffffffffffffffffffffff\n      and\n      swap1\n      dup1\n      0x04\n      add\n      sload\n      swap1\n      dup1\n      0x05\n      add\n      0x00\n      swap1\n      sload\n      swap1\n      0x0100\n      exp\n      swap1\n      div\n      0xffffffff\n      and\n      swap1\n      pop\n      dup7\n      jump\t// out\n        /* \"contracts/SwapCart.sol\":3258:3904  function createSaleAdvert(uint itmPrice, string memory itmImage, uint32 itmDueDate) external{\r... */\n    tag_26:\n        /* \"contracts/SwapCart.sol\":3394:3602  Item({\r... */\n      mload(0x40)\n      dup1\n      0xc0\n      add\n      0x40\n      mstore\n      dup1\n        /* \"contracts/SwapCart.sol\":3421:3442  itemCounter.current() */\n      tag_80\n        /* \"contracts/SwapCart.sol\":3421:3432  itemCounter */\n      0x05\n        /* \"contracts/SwapCart.sol\":3421:3440  itemCounter.current */\n      tag_81\n        /* \"contracts/SwapCart.sol\":3421:3442  itemCounter.current() */\n      jump\t// in\n    tag_80:\n        /* \"contracts/SwapCart.sol\":3394:3602  Item({\r... */\n      dup2\n      mstore\n      0x20\n      add\n        /* \"contracts/SwapCart.sol\":3496:3504  itmImage */\n      dup4\n        /* \"contracts/SwapCart.sol\":3394:3602  Item({\r... */\n      dup2\n      mstore\n      0x20\n      add\n        /* \"contracts/SwapCart.sol\":3557:3558  0 */\n      0x00\n        /* \"contracts/SwapCart.sol\":3394:3602  Item({\r... */\n      dup2\n      mstore\n      0x20\n      add\n        /* \"contracts/SwapCart.sol\":3580:3590  msg.sender */\n      caller\n        /* \"contracts/SwapCart.sol\":3394:3602  Item({\r... */\n      0xffffffffffffffffffffffffffffffffffffffff\n      and\n      dup2\n      mstore\n      0x20\n      add\n        /* \"contracts/SwapCart.sol\":3463:3471  itmPrice */\n      dup5\n        /* \"contracts/SwapCart.sol\":3394:3602  Item({\r... */\n      dup2\n      mstore\n      0x20\n      add\n        /* \"contracts/SwapCart.sol\":3527:3537  itmDueDate */\n      dup3\n        /* \"contracts/SwapCart.sol\":3394:3602  Item({\r... */\n      0xffffffff\n      and\n      dup2\n      mstore\n      pop\n        /* \"contracts/SwapCart.sol\":3363:3368  items */\n      0x03\n        /* \"contracts/SwapCart.sol\":3363:3391  items[itemCounter.current()] */\n      0x00\n        /* \"contracts/SwapCart.sol\":3369:3390  itemCounter.current() */\n      tag_82\n        /* \"contracts/SwapCart.sol\":3369:3380  itemCounter */\n      0x05\n        /* \"contracts/SwapCart.sol\":3369:3388  itemCounter.current */\n      tag_81\n        /* \"contracts/SwapCart.sol\":3369:3390  itemCounter.current() */\n      jump\t// in\n    tag_82:\n        /* \"contracts/SwapCart.sol\":3363:3391  items[itemCounter.current()] */\n      dup2\n      mstore\n      0x20\n      add\n      swap1\n      dup2\n      mstore\n      0x20\n      add\n      0x00\n      keccak256\n        /* \"contracts/SwapCart.sol\":3363:3602  items[itemCounter.current()] = Item({\r... */\n      0x00\n      dup3\n      add\n      mload\n      dup2\n      0x00\n      add\n      sstore\n      0x20\n      dup3\n      add\n      mload\n      dup2\n      0x01\n      add\n      swap1\n      dup1\n      mload\n      swap1\n      0x20\n      add\n      swap1\n      tag_83\n      swap3\n      swap2\n      swap1\n      tag_84\n      jump\t// in\n    tag_83:\n      pop\n      0x40\n      dup3\n      add\n      mload\n      dup2\n      0x02\n      add\n      sstore\n      0x60\n      dup3\n      add\n      mload\n      dup2\n      0x03\n      add\n      exp(0x0100, 0x00)\n      dup2\n      sload\n      dup2\n      0xffffffffffffffffffffffffffffffffffffffff\n      mul\n      not\n      and\n      swap1\n      dup4\n      0xffffffffffffffffffffffffffffffffffffffff\n      and\n      mul\n      or\n      swap1\n      sstore\n      pop\n      0x80\n      dup3\n      add\n      mload\n      dup2\n      0x04\n      add\n      sstore\n      0xa0\n      dup3\n      add\n      mload\n      dup2\n      0x05\n      add\n      exp(0x0100, 0x00)\n      dup2\n      sload\n      dup2\n      0xffffffff\n      mul\n      not\n      and\n      swap1\n      dup4\n      0xffffffff\n      and\n      mul\n      or\n      swap1\n      sstore\n      pop\n      swap1\n      pop\n      pop\n        /* \"contracts/SwapCart.sol\":3615:3620  users */\n      0x02\n        /* \"contracts/SwapCart.sol\":3615:3632  users[msg.sender] */\n      0x00\n        /* \"contracts/SwapCart.sol\":3621:3631  msg.sender */\n      caller\n        /* \"contracts/SwapCart.sol\":3615:3632  users[msg.sender] */\n      0xffffffffffffffffffffffffffffffffffffffff\n      and\n      0xffffffffffffffffffffffffffffffffffffffff\n      and\n      dup2\n      mstore\n      0x20\n      add\n      swap1\n      dup2\n      mstore\n      0x20\n      add\n      0x00\n      keccak256\n        /* \"contracts/SwapCart.sol\":3615:3642  users[msg.sender].inventory */\n      0x04\n      add\n        /* \"contracts/SwapCart.sol\":3648:3653  items */\n      0x03\n        /* \"contracts/SwapCart.sol\":3648:3676  items[itemCounter.current()] */\n      0x00\n        /* \"contracts/SwapCart.sol\":3654:3675  itemCounter.current() */\n      tag_85\n        /* \"contracts/SwapCart.sol\":3654:3665  itemCounter */\n      0x05\n        /* \"contracts/SwapCart.sol\":3654:3673  itemCounter.current */\n      tag_81\n        /* \"contracts/SwapCart.sol\":3654:3675  itemCounter.current() */\n      jump\t// in\n    tag_85:\n        /* \"contracts/SwapCart.sol\":3648:3676  items[itemCounter.current()] */\n      dup2\n      mstore\n      0x20\n      add\n      swap1\n      dup2\n      mstore\n      0x20\n      add\n      0x00\n      keccak256\n        /* \"contracts/SwapCart.sol\":3615:3677  users[msg.sender].inventory.push(items[itemCounter.current()]) */\n      swap1\n      dup1\n      0x01\n      dup2\n      sload\n      add\n      dup1\n      dup3\n      sstore\n      dup1\n      swap2\n      pop\n      pop\n      0x01\n      swap1\n      sub\n      swap1\n      0x00\n      mstore\n      keccak256(0x00, 0x20)\n      swap1\n      0x06\n      mul\n      add\n      0x00\n      swap1\n      swap2\n      swap1\n      swap2\n      swap1\n      swap2\n      pop\n      0x00\n      dup3\n      add\n      sload\n      dup2\n      0x00\n      add\n      sstore\n      0x01\n      dup3\n      add\n      dup2\n      0x01\n      add\n      swap1\n      dup1\n      sload\n      tag_87\n      swap1\n      tag_61\n      jump\t// in\n    tag_87:\n      tag_88\n      swap3\n      swap2\n      swap1\n      tag_89\n      jump\t// in\n    tag_88:\n      pop\n      0x02\n      dup3\n      add\n      sload\n      dup2\n      0x02\n      add\n      sstore\n      0x03\n      dup3\n      add\n      0x00\n      swap1\n      sload\n      swap1\n      0x0100\n      exp\n      swap1\n      div\n      0xffffffffffffffffffffffffffffffffffffffff\n      and\n      dup2\n      0x03\n      add\n      exp(0x0100, 0x00)\n      dup2\n      sload\n      dup2\n      0xffffffffffffffffffffffffffffffffffffffff\n      mul\n      not\n      and\n      swap1\n      dup4\n      0xffffffffffffffffffffffffffffffffffffffff\n      and\n      mul\n      or\n      swap1\n      sstore\n      pop\n      0x04\n      dup3\n      add\n      sload\n      dup2\n      0x04\n      add\n      sstore\n      0x05\n      dup3\n      add\n      0x00\n      swap1\n      sload\n      swap1\n      0x0100\n      exp\n      swap1\n      div\n      0xffffffff\n      and\n      dup2\n      0x05\n      add\n      exp(0x0100, 0x00)\n      dup2\n      sload\n      dup2\n      0xffffffff\n      mul\n      not\n      and\n      swap1\n      dup4\n      0xffffffff\n      and\n      mul\n      or\n      swap1\n      sstore\n      pop\n      pop\n      pop\n        /* \"contracts/SwapCart.sol\":3688:3696  itemList */\n      0x01\n        /* \"contracts/SwapCart.sol\":3702:3707  items */\n      0x03\n        /* \"contracts/SwapCart.sol\":3702:3730  items[itemCounter.current()] */\n      0x00\n        /* \"contracts/SwapCart.sol\":3708:3729  itemCounter.current() */\n      tag_90\n        /* \"contracts/SwapCart.sol\":3708:3719  itemCounter */\n      0x05\n        /* \"contracts/SwapCart.sol\":3708:3727  itemCounter.current */\n      tag_81\n        /* \"contracts/SwapCart.sol\":3708:3729  itemCounter.current() */\n      jump\t// in\n    tag_90:\n        /* \"contracts/SwapCart.sol\":3702:3730  items[itemCounter.current()] */\n      dup2\n      mstore\n      0x20\n      add\n      swap1\n      dup2\n      mstore\n      0x20\n      add\n      0x00\n      keccak256\n        /* \"contracts/SwapCart.sol\":3688:3731  itemList.push(items[itemCounter.current()]) */\n      swap1\n      dup1\n      0x01\n      dup2\n      sload\n      add\n      dup1\n      dup3\n      sstore\n      dup1\n      swap2\n      pop\n      pop\n      0x01\n      swap1\n      sub\n      swap1\n      0x00\n      mstore\n      keccak256(0x00, 0x20)\n      swap1\n      0x06\n      mul\n      add\n      0x00\n      swap1\n      swap2\n      swap1\n      swap2\n      swap1\n      swap2\n      pop\n      0x00\n      dup3\n      add\n      sload\n      dup2\n      0x00\n      add\n      sstore\n      0x01\n      dup3\n      add\n      dup2\n      0x01\n      add\n      swap1\n      dup1\n      sload\n      tag_92\n      swap1\n      tag_61\n      jump\t// in\n    tag_92:\n      tag_93\n      swap3\n      swap2\n      swap1\n      tag_89\n      jump\t// in\n    tag_93:\n      pop\n      0x02\n      dup3\n      add\n      sload\n      dup2\n      0x02\n      add\n      sstore\n      0x03\n      dup3\n      add\n      0x00\n      swap1\n      sload\n      swap1\n      0x0100\n      exp\n      swap1\n      div\n      0xffffffffffffffffffffffffffffffffffffffff\n      and\n      dup2\n      0x03\n      add\n      exp(0x0100, 0x00)\n      dup2\n      sload\n      dup2\n      0xffffffffffffffffffffffffffffffffffffffff\n      mul\n      not\n      and\n      swap1\n      dup4\n      0xffffffffffffffffffffffffffffffffffffffff\n      and\n      mul\n      or\n      swap1\n      sstore\n      pop\n      0x04\n      dup3\n      add\n      sload\n      dup2\n      0x04\n      add\n      sstore\n      0x05\n      dup3\n      add\n      0x00\n      swap1\n      sload\n      swap1\n      0x0100\n      exp\n      swap1\n      div\n      0xffffffff\n      and\n      dup2\n      0x05\n      add\n      exp(0x0100, 0x00)\n      dup2\n      sload\n      dup2\n      0xffffffff\n      mul\n      not\n      and\n      swap1\n      dup4\n      0xffffffff\n      and\n      mul\n      or\n      swap1\n      sstore\n      pop\n      pop\n      pop\n        /* \"contracts/SwapCart.sol\":3742:3765  itemCounter.increment() */\n      tag_94\n        /* \"contracts/SwapCart.sol\":3742:3753  itemCounter */\n      0x05\n        /* \"contracts/SwapCart.sol\":3742:3763  itemCounter.increment */\n      tag_95\n        /* \"contracts/SwapCart.sol\":3742:3765  itemCounter.increment() */\n      jump\t// in\n    tag_94:\n        /* \"contracts/SwapCart.sol\":3885:3895  msg.sender */\n      caller\n        /* \"contracts/SwapCart.sol\":3783:3896  CreateSaleAdvert(itemCounter.current(),itmPrice,itmImage,itmDueDate,items[itemCounter.current()].star,msg.sender) */\n      0xffffffffffffffffffffffffffffffffffffffff\n      and\n      0x9a5b8b5cb7f9c536ea5db1a94142c9f716fb3a8698a9c70a5b8bfad3922cb06c\n        /* \"contracts/SwapCart.sol\":3800:3821  itemCounter.current() */\n      tag_96\n        /* \"contracts/SwapCart.sol\":3800:3811  itemCounter */\n      0x05\n        /* \"contracts/SwapCart.sol\":3800:3819  itemCounter.current */\n      tag_81\n        /* \"contracts/SwapCart.sol\":3800:3821  itemCounter.current() */\n      jump\t// in\n    tag_96:\n        /* \"contracts/SwapCart.sol\":3822:3830  itmPrice */\n      dup6\n        /* \"contracts/SwapCart.sol\":3831:3839  itmImage */\n      dup6\n        /* \"contracts/SwapCart.sol\":3840:3850  itmDueDate */\n      dup6\n        /* \"contracts/SwapCart.sol\":3851:3856  items */\n      0x03\n        /* \"contracts/SwapCart.sol\":3851:3879  items[itemCounter.current()] */\n      0x00\n        /* \"contracts/SwapCart.sol\":3857:3878  itemCounter.current() */\n      tag_97\n        /* \"contracts/SwapCart.sol\":3857:3868  itemCounter */\n      0x05\n        /* \"contracts/SwapCart.sol\":3857:3876  itemCounter.current */\n      tag_81\n        /* \"contracts/SwapCart.sol\":3857:3878  itemCounter.current() */\n      jump\t// in\n    tag_97:\n        /* \"contracts/SwapCart.sol\":3851:3879  items[itemCounter.current()] */\n      dup2\n      mstore\n      0x20\n      add\n      swap1\n      dup2\n      mstore\n      0x20\n      add\n      0x00\n      keccak256\n        /* \"contracts/SwapCart.sol\":3851:3884  items[itemCounter.current()].star */\n      0x02\n      add\n      sload\n        /* \"contracts/SwapCart.sol\":3783:3896  CreateSaleAdvert(itemCounter.current(),itmPrice,itmImage,itmDueDate,items[itemCounter.current()].star,msg.sender) */\n      mload(0x40)\n      tag_98\n      swap6\n      swap5\n      swap4\n      swap3\n      swap2\n      swap1\n      tag_99\n      jump\t// in\n    tag_98:\n      mload(0x40)\n      dup1\n      swap2\n      sub\n      swap1\n      log2\n        /* \"contracts/SwapCart.sol\":3258:3904  function createSaleAdvert(uint itmPrice, string memory itmImage, uint32 itmDueDate) external{\r... */\n      pop\n      pop\n      pop\n      jump\t// out\n        /* \"contracts/SwapCart.sol\":4294:4450  function getEntireItems() public listSizeCheck returns (Item[] memory) {\r... */\n    tag_28:\n        /* \"contracts/SwapCart.sol\":4350:4363  Item[] memory */\n      0x60\n        /* \"contracts/SwapCart.sol\":2090:2091  0 */\n      0x00\n        /* \"contracts/SwapCart.sol\":2066:2087  itemCounter.current() */\n      tag_101\n        /* \"contracts/SwapCart.sol\":2066:2077  itemCounter */\n      0x05\n        /* \"contracts/SwapCart.sol\":2066:2085  itemCounter.current */\n      tag_81\n        /* \"contracts/SwapCart.sol\":2066:2087  itemCounter.current() */\n      jump\t// in\n    tag_101:\n        /* \"contracts/SwapCart.sol\":2066:2091  itemCounter.current() > 0 */\n      gt\n        /* \"contracts/SwapCart.sol\":2058:2130  require(itemCounter.current() > 0, \"There are no products to list yet!\") */\n      tag_102\n      jumpi\n      mload(0x40)\n      0x08c379a000000000000000000000000000000000000000000000000000000000\n      dup2\n      mstore\n      0x04\n      add\n      tag_103\n      swap1\n      tag_104\n      jump\t// in\n    tag_103:\n      mload(0x40)\n      dup1\n      swap2\n      sub\n      swap1\n      revert\n    tag_102:\n        /* \"contracts/SwapCart.sol\":4405:4415  msg.sender */\n      caller\n        /* \"contracts/SwapCart.sol\":4381:4416  GetEntireItems(itemList,msg.sender) */\n      0xffffffffffffffffffffffffffffffffffffffff\n      and\n      0x440c078a5e11bff85c6b6d7c52f378c8220355bd3331ec889638c0eca883670c\n        /* \"contracts/SwapCart.sol\":4396:4404  itemList */\n      0x01\n        /* \"contracts/SwapCart.sol\":4381:4416  GetEntireItems(itemList,msg.sender) */\n      mload(0x40)\n      tag_106\n      swap2\n      swap1\n      tag_107\n      jump\t// in\n    tag_106:\n      mload(0x40)\n      dup1\n      swap2\n      sub\n      swap1\n      log2\n        /* \"contracts/SwapCart.sol\":4434:4442  itemList */\n      0x01\n        /* \"contracts/SwapCart.sol\":4427:4442  return itemList */\n      dup1\n      sload\n      dup1\n      0x20\n      mul\n      0x20\n      add\n      mload(0x40)\n      swap1\n      dup2\n      add\n      0x40\n      mstore\n      dup1\n      swap3\n      swap2\n      swap1\n      dup2\n      dup2\n      mstore\n      0x20\n      add\n      0x00\n      swap1\n    tag_108:\n      dup3\n      dup3\n      lt\n      iszero\n      tag_109\n      jumpi\n      dup4\n      dup3\n      swap1\n      0x00\n      mstore\n      keccak256(0x00, 0x20)\n      swap1\n      0x06\n      mul\n      add\n      mload(0x40)\n      dup1\n      0xc0\n      add\n      0x40\n      mstore\n      swap1\n      dup2\n      0x00\n      dup3\n      add\n      sload\n      dup2\n      mstore\n      0x20\n      add\n      0x01\n      dup3\n      add\n      dup1\n      sload\n      tag_111\n      swap1\n      tag_61\n      jump\t// in\n    tag_111:\n      dup1\n      0x1f\n      add\n      0x20\n      dup1\n      swap2\n      div\n      mul\n      0x20\n      add\n      mload(0x40)\n      swap1\n      dup2\n      add\n      0x40\n      mstore\n      dup1\n      swap3\n      swap2\n      swap1\n      dup2\n      dup2\n      mstore\n      0x20\n      add\n      dup3\n      dup1\n      sload\n      tag_112\n      swap1\n      tag_61\n      jump\t// in\n    tag_112:\n      dup1\n      iszero\n      tag_113\n      jumpi\n      dup1\n      0x1f\n      lt\n      tag_114\n      jumpi\n      0x0100\n      dup1\n      dup4\n      sload\n      div\n      mul\n      dup4\n      mstore\n      swap2\n      0x20\n      add\n      swap2\n      jump(tag_113)\n    tag_114:\n      dup3\n      add\n      swap2\n      swap1\n      0x00\n      mstore\n      keccak256(0x00, 0x20)\n      swap1\n    tag_115:\n      dup2\n      sload\n      dup2\n      mstore\n      swap1\n      0x01\n      add\n      swap1\n      0x20\n      add\n      dup1\n      dup4\n      gt\n      tag_115\n      jumpi\n      dup3\n      swap1\n      sub\n      0x1f\n      and\n      dup3\n      add\n      swap2\n    tag_113:\n      pop\n      pop\n      pop\n      pop\n      pop\n      dup2\n      mstore\n      0x20\n      add\n      0x02\n      dup3\n      add\n      sload\n      dup2\n      mstore\n      0x20\n      add\n      0x03\n      dup3\n      add\n      0x00\n      swap1\n      sload\n      swap1\n      0x0100\n      exp\n      swap1\n      div\n      0xffffffffffffffffffffffffffffffffffffffff\n      and\n      0xffffffffffffffffffffffffffffffffffffffff\n      and\n      0xffffffffffffffffffffffffffffffffffffffff\n      and\n      dup2\n      mstore\n      0x20\n      add\n      0x04\n      dup3\n      add\n      sload\n      dup2\n      mstore\n      0x20\n      add\n      0x05\n      dup3\n      add\n      0x00\n      swap1\n      sload\n      swap1\n      0x0100\n      exp\n      swap1\n      div\n      0xffffffff\n      and\n      0xffffffff\n      and\n      0xffffffff\n      and\n      dup2\n      mstore\n      pop\n      pop\n      dup2\n      mstore\n      0x20\n      add\n      swap1\n      0x01\n      add\n      swap1\n      jump(tag_108)\n    tag_109:\n      pop\n      pop\n      pop\n      pop\n      swap1\n      pop\n        /* \"contracts/SwapCart.sol\":4294:4450  function getEntireItems() public listSizeCheck returns (Item[] memory) {\r... */\n      swap1\n      jump\t// out\n        /* \"contracts/SwapCart.sol\":606:643  mapping(address => User) public users */\n    tag_34:\n      mstore(0x20, 0x02)\n      dup1\n      0x00\n      mstore\n      keccak256(0x00, 0x40)\n      0x00\n      swap2\n      pop\n      swap1\n      pop\n      dup1\n      0x00\n      add\n      sload\n      swap1\n      dup1\n      0x01\n      add\n      dup1\n      sload\n      tag_116\n      swap1\n      tag_61\n      jump\t// in\n    tag_116:\n      dup1\n      0x1f\n      add\n      0x20\n      dup1\n      swap2\n      div\n      mul\n      0x20\n      add\n      mload(0x40)\n      swap1\n      dup2\n      add\n      0x40\n      mstore\n      dup1\n      swap3\n      swap2\n      swap1\n      dup2\n      dup2\n      mstore\n      0x20\n      add\n      dup3\n      dup1\n      sload\n      tag_117\n      swap1\n      tag_61\n      jump\t// in\n    tag_117:\n      dup1\n      iszero\n      tag_118\n      jumpi\n      dup1\n      0x1f\n      lt\n      tag_119\n      jumpi\n      0x0100\n      dup1\n      dup4\n      sload\n      div\n      mul\n      dup4\n      mstore\n      swap2\n      0x20\n      add\n      swap2\n      jump(tag_118)\n    tag_119:\n      dup3\n      add\n      swap2\n      swap1\n      0x00\n      mstore\n      keccak256(0x00, 0x20)\n      swap1\n    tag_120:\n      dup2\n      sload\n      dup2\n      mstore\n      swap1\n      0x01\n      add\n      swap1\n      0x20\n      add\n      dup1\n      dup4\n      gt\n      tag_120\n      jumpi\n      dup3\n      swap1\n      sub\n      0x1f\n      and\n      dup3\n      add\n      swap2\n    tag_118:\n      pop\n      pop\n      pop\n      pop\n      pop\n      swap1\n      dup1\n      0x02\n      add\n      dup1\n      sload\n      tag_121\n      swap1\n      tag_61\n      jump\t// in\n    tag_121:\n      dup1\n      0x1f\n      add\n      0x20\n      dup1\n      swap2\n      div\n      mul\n      0x20\n      add\n      mload(0x40)\n      swap1\n      dup2\n      add\n      0x40\n      mstore\n      dup1\n      swap3\n      swap2\n      swap1\n      dup2\n      dup2\n      mstore\n      0x20\n      add\n      dup3\n      dup1\n      sload\n      tag_122\n      swap1\n      tag_61\n      jump\t// in\n    tag_122:\n      dup1\n      iszero\n      tag_123\n      jumpi\n      dup1\n      0x1f\n      lt\n      tag_124\n      jumpi\n      0x0100\n      dup1\n      dup4\n      sload\n      div\n      mul\n      dup4\n      mstore\n      swap2\n      0x20\n      add\n      swap2\n      jump(tag_123)\n    tag_124:\n      dup3\n      add\n      swap2\n      swap1\n      0x00\n      mstore\n      keccak256(0x00, 0x20)\n      swap1\n    tag_125:\n      dup2\n      sload\n      dup2\n      mstore\n      swap1\n      0x01\n      add\n      swap1\n      0x20\n      add\n      dup1\n      dup4\n      gt\n      tag_125\n      jumpi\n      dup3\n      swap1\n      sub\n      0x1f\n      and\n      dup3\n      add\n      swap2\n    tag_123:\n      pop\n      pop\n      pop\n      pop\n      pop\n      swap1\n      dup1\n      0x05\n      add\n      sload\n      swap1\n      pop\n      dup5\n      jump\t// out\n        /* \"contracts/SwapCart.sol\":650:687  mapping(uint256 => Item) public items */\n    tag_39:\n      mstore(0x20, 0x03)\n      dup1\n      0x00\n      mstore\n      keccak256(0x00, 0x40)\n      0x00\n      swap2\n      pop\n      swap1\n      pop\n      dup1\n      0x00\n      add\n      sload\n      swap1\n      dup1\n      0x01\n      add\n      dup1\n      sload\n      tag_126\n      swap1\n      tag_61\n      jump\t// in\n    tag_126:\n      dup1\n      0x1f\n      add\n      0x20\n      dup1\n      swap2\n      div\n      mul\n      0x20\n      add\n      mload(0x40)\n      swap1\n      dup2\n      add\n      0x40\n      mstore\n      dup1\n      swap3\n      swap2\n      swap1\n      dup2\n      dup2\n      mstore\n      0x20\n      add\n      dup3\n      dup1\n      sload\n      tag_127\n      swap1\n      tag_61\n      jump\t// in\n    tag_127:\n      dup1\n      iszero\n      tag_128\n      jumpi\n      dup1\n      0x1f\n      lt\n      tag_129\n      jumpi\n      0x0100\n      dup1\n      dup4\n      sload\n      div\n      mul\n      dup4\n      mstore\n      swap2\n      0x20\n      add\n      swap2\n      jump(tag_128)\n    tag_129:\n      dup3\n      add\n      swap2\n      swap1\n      0x00\n      mstore\n      keccak256(0x00, 0x20)\n      swap1\n    tag_130:\n      dup2\n      sload\n      dup2\n      mstore\n      swap1\n      0x01\n      add\n      swap1\n      0x20\n      add\n      dup1\n      dup4\n      gt\n      tag_130\n      jumpi\n      dup3\n      swap1\n      sub\n      0x1f\n      and\n      dup3\n      add\n      swap2\n    tag_128:\n      pop\n      pop\n      pop\n      pop\n      pop\n      swap1\n      dup1\n      0x02\n      add\n      sload\n      swap1\n      dup1\n      0x03\n      add\n      0x00\n      swap1\n      sload\n      swap1\n      0x0100\n      exp\n      swap1\n      div\n      0xffffffffffffffffffffffffffffffffffffffff\n      and\n      swap1\n      dup1\n      0x04\n      add\n      sload\n      swap1\n      dup1\n      0x05\n      add\n      0x00\n      swap1\n      sload\n      swap1\n      0x0100\n      exp\n      swap1\n      div\n      0xffffffff\n      and\n      swap1\n      pop\n      dup7\n      jump\t// out\n        /* \"contracts/SwapCart.sol\":3971:4286  function cancelSaleAdvert(uint itmId) external expireCheck(itmId) {\r... */\n    tag_43:\n        /* \"contracts/SwapCart.sol\":4030:4035  itmId */\n      dup1\n        /* \"contracts/SwapCart.sol\":1527:1543  Item memory item */\n      0x00\n        /* \"contracts/SwapCart.sol\":1546:1551  items */\n      0x03\n        /* \"contracts/SwapCart.sol\":1546:1558  items[itmId] */\n      0x00\n        /* \"contracts/SwapCart.sol\":1552:1557  itmId */\n      dup4\n        /* \"contracts/SwapCart.sol\":1546:1558  items[itmId] */\n      dup2\n      mstore\n      0x20\n      add\n      swap1\n      dup2\n      mstore\n      0x20\n      add\n      0x00\n      keccak256\n        /* \"contracts/SwapCart.sol\":1527:1558  Item memory item = items[itmId] */\n      mload(0x40)\n      dup1\n      0xc0\n      add\n      0x40\n      mstore\n      swap1\n      dup2\n      0x00\n      dup3\n      add\n      sload\n      dup2\n      mstore\n      0x20\n      add\n      0x01\n      dup3\n      add\n      dup1\n      sload\n      tag_132\n      swap1\n      tag_61\n      jump\t// in\n    tag_132:\n      dup1\n      0x1f\n      add\n      0x20\n      dup1\n      swap2\n      div\n      mul\n      0x20\n      add\n      mload(0x40)\n      swap1\n      dup2\n      add\n      0x40\n      mstore\n      dup1\n      swap3\n      swap2\n      swap1\n      dup2\n      dup2\n      mstore\n      0x20\n      add\n      dup3\n      dup1\n      sload\n      tag_133\n      swap1\n      tag_61\n      jump\t// in\n    tag_133:\n      dup1\n      iszero\n      tag_134\n      jumpi\n      dup1\n      0x1f\n      lt\n      tag_135\n      jumpi\n      0x0100\n      dup1\n      dup4\n      sload\n      div\n      mul\n      dup4\n      mstore\n      swap2\n      0x20\n      add\n      swap2\n      jump(tag_134)\n    tag_135:\n      dup3\n      add\n      swap2\n      swap1\n      0x00\n      mstore\n      keccak256(0x00, 0x20)\n      swap1\n    tag_136:\n      dup2\n      sload\n      dup2\n      mstore\n      swap1\n      0x01\n      add\n      swap1\n      0x20\n      add\n      dup1\n      dup4\n      gt\n      tag_136\n      jumpi\n      dup3\n      swap1\n      sub\n      0x1f\n      and\n      dup3\n      add\n      swap2\n    tag_134:\n      pop\n      pop\n      pop\n      pop\n      pop\n      dup2\n      mstore\n      0x20\n      add\n      0x02\n      dup3\n      add\n      sload\n      dup2\n      mstore\n      0x20\n      add\n      0x03\n      dup3\n      add\n      0x00\n      swap1\n      sload\n      swap1\n      0x0100\n      exp\n      swap1\n      div\n      0xffffffffffffffffffffffffffffffffffffffff\n      and\n      0xffffffffffffffffffffffffffffffffffffffff\n      and\n      0xffffffffffffffffffffffffffffffffffffffff\n      and\n      dup2\n      mstore\n      0x20\n      add\n      0x04\n      dup3\n      add\n      sload\n      dup2\n      mstore\n      0x20\n      add\n      0x05\n      dup3\n      add\n      0x00\n      swap1\n      sload\n      swap1\n      0x0100\n      exp\n      swap1\n      div\n      0xffffffff\n      and\n      0xffffffff\n      and\n      0xffffffff\n      and\n      dup2\n      mstore\n      pop\n      pop\n      swap1\n      pop\n        /* \"contracts/SwapCart.sol\":1593:1608  block.timestamp */\n      timestamp\n        /* \"contracts/SwapCart.sol\":1577:1581  item */\n      dup2\n        /* \"contracts/SwapCart.sol\":1577:1589  item.dueDate */\n      0xa0\n      add\n      mload\n        /* \"contracts/SwapCart.sol\":1577:1608  item.dueDate >= block.timestamp */\n      0xffffffff\n      and\n      lt\n      iszero\n        /* \"contracts/SwapCart.sol\":1569:1634  require(item.dueDate >= block.timestamp, \"The sale has expired!\") */\n      tag_137\n      jumpi\n      mload(0x40)\n      0x08c379a000000000000000000000000000000000000000000000000000000000\n      dup2\n      mstore\n      0x04\n      add\n      tag_138\n      swap1\n      tag_139\n      jump\t// in\n    tag_138:\n      mload(0x40)\n      dup1\n      swap2\n      sub\n      swap1\n      revert\n    tag_137:\n        /* \"contracts/SwapCart.sol\":4055:4060  items */\n      0x03\n        /* \"contracts/SwapCart.sol\":4055:4067  items[itmId] */\n      0x00\n        /* \"contracts/SwapCart.sol\":4061:4066  itmId */\n      dup5\n        /* \"contracts/SwapCart.sol\":4055:4067  items[itmId] */\n      dup2\n      mstore\n      0x20\n      add\n      swap1\n      dup2\n      mstore\n      0x20\n      add\n      0x00\n      keccak256\n      0x00\n        /* \"contracts/SwapCart.sol\":4048:4067  delete items[itmId] */\n      dup1\n      dup3\n      add\n      0x00\n      swap1\n      sstore\n      0x01\n      dup3\n      add\n      0x00\n      tag_141\n      swap2\n      swap1\n      tag_142\n      jump\t// in\n    tag_141:\n      0x02\n      dup3\n      add\n      0x00\n      swap1\n      sstore\n      0x03\n      dup3\n      add\n      exp(0x0100, 0x00)\n      dup2\n      sload\n      swap1\n      0xffffffffffffffffffffffffffffffffffffffff\n      mul\n      not\n      and\n      swap1\n      sstore\n      0x04\n      dup3\n      add\n      0x00\n      swap1\n      sstore\n      0x05\n      dup3\n      add\n      exp(0x0100, 0x00)\n      dup2\n      sload\n      swap1\n      0xffffffff\n      mul\n      not\n      and\n      swap1\n      sstore\n      pop\n      pop\n        /* \"contracts/SwapCart.sol\":4177:4187  msg.sender */\n      caller\n        /* \"contracts/SwapCart.sol\":4154:4188  CancelSaleAdvert(itmId,msg.sender) */\n      0xffffffffffffffffffffffffffffffffffffffff\n      and\n      0x45e4102cd0468b42f71c0179aa78051418c31c018e07a5091eb13b97fadbab5e\n        /* \"contracts/SwapCart.sol\":4171:4176  itmId */\n      dup5\n        /* \"contracts/SwapCart.sol\":4154:4188  CancelSaleAdvert(itmId,msg.sender) */\n      mload(0x40)\n      tag_143\n      swap2\n      swap1\n      tag_54\n      jump\t// in\n    tag_143:\n      mload(0x40)\n      dup1\n      swap2\n      sub\n      swap1\n      log2\n        /* \"contracts/SwapCart.sol\":1516:1758  {\r... */\n      pop\n        /* \"contracts/SwapCart.sol\":3971:4286  function cancelSaleAdvert(uint itmId) external expireCheck(itmId) {\r... */\n      pop\n      pop\n      jump\t// out\n        /* \"contracts/SwapCart.sol\":4616:4803  function getItemById(uint itmId) public itemAvailabilityCheck(itmId) returns (Item memory) {\r... */\n    tag_46:\n        /* \"contracts/SwapCart.sol\":4694:4705  Item memory */\n      tag_144\n      tag_145\n      jump\t// in\n    tag_144:\n        /* \"contracts/SwapCart.sol\":4678:4683  itmId */\n      dup2\n        /* \"contracts/SwapCart.sol\":2331:2352  itemCounter.current() */\n      tag_147\n        /* \"contracts/SwapCart.sol\":2331:2342  itemCounter */\n      0x05\n        /* \"contracts/SwapCart.sol\":2331:2350  itemCounter.current */\n      tag_81\n        /* \"contracts/SwapCart.sol\":2331:2352  itemCounter.current() */\n      jump\t// in\n    tag_147:\n        /* \"contracts/SwapCart.sol\":2322:2327  itmId */\n      dup2\n        /* \"contracts/SwapCart.sol\":2322:2352  itmId <= itemCounter.current() */\n      gt\n      iszero\n        /* \"contracts/SwapCart.sol\":2314:2386  require(itmId <= itemCounter.current(), \"There is no such item record!\") */\n      tag_148\n      jumpi\n      mload(0x40)\n      0x08c379a000000000000000000000000000000000000000000000000000000000\n      dup2\n      mstore\n      0x04\n      add\n      tag_149\n      swap1\n      tag_150\n      jump\t// in\n    tag_149:\n      mload(0x40)\n      dup1\n      swap2\n      sub\n      swap1\n      revert\n    tag_148:\n        /* \"contracts/SwapCart.sol\":4754:4764  msg.sender */\n      caller\n        /* \"contracts/SwapCart.sol\":4723:4765  GetItemById(itmId,items[itmId],msg.sender) */\n      0xffffffffffffffffffffffffffffffffffffffff\n      and\n      0xcb718ffb18411374498c1cd31cb4d4c8068af3c5b1546205f14c72bcd20f21ba\n        /* \"contracts/SwapCart.sol\":4735:4740  itmId */\n      dup5\n        /* \"contracts/SwapCart.sol\":4741:4746  items */\n      0x03\n        /* \"contracts/SwapCart.sol\":4741:4753  items[itmId] */\n      0x00\n        /* \"contracts/SwapCart.sol\":4747:4752  itmId */\n      dup8\n        /* \"contracts/SwapCart.sol\":4741:4753  items[itmId] */\n      dup2\n      mstore\n      0x20\n      add\n      swap1\n      dup2\n      mstore\n      0x20\n      add\n      0x00\n      keccak256\n        /* \"contracts/SwapCart.sol\":4723:4765  GetItemById(itmId,items[itmId],msg.sender) */\n      mload(0x40)\n      tag_152\n      swap3\n      swap2\n      swap1\n      tag_153\n      jump\t// in\n    tag_152:\n      mload(0x40)\n      dup1\n      swap2\n      sub\n      swap1\n      log2\n        /* \"contracts/SwapCart.sol\":4783:4788  items */\n      0x03\n        /* \"contracts/SwapCart.sol\":4783:4795  items[itmId] */\n      0x00\n        /* \"contracts/SwapCart.sol\":4789:4794  itmId */\n      dup5\n        /* \"contracts/SwapCart.sol\":4783:4795  items[itmId] */\n      dup2\n      mstore\n      0x20\n      add\n      swap1\n      dup2\n      mstore\n      0x20\n      add\n      0x00\n      keccak256\n        /* \"contracts/SwapCart.sol\":4776:4795  return items[itmId] */\n      mload(0x40)\n      dup1\n      0xc0\n      add\n      0x40\n      mstore\n      swap1\n      dup2\n      0x00\n      dup3\n      add\n      sload\n      dup2\n      mstore\n      0x20\n      add\n      0x01\n      dup3\n      add\n      dup1\n      sload\n      tag_154\n      swap1\n      tag_61\n      jump\t// in\n    tag_154:\n      dup1\n      0x1f\n      add\n      0x20\n      dup1\n      swap2\n      div\n      mul\n      0x20\n      add\n      mload(0x40)\n      swap1\n      dup2\n      add\n      0x40\n      mstore\n      dup1\n      swap3\n      swap2\n      swap1\n      dup2\n      dup2\n      mstore\n      0x20\n      add\n      dup3\n      dup1\n      sload\n      tag_155\n      swap1\n      tag_61\n      jump\t// in\n    tag_155:\n      dup1\n      iszero\n      tag_156\n      jumpi\n      dup1\n      0x1f\n      lt\n      tag_157\n      jumpi\n      0x0100\n      dup1\n      dup4\n      sload\n      div\n      mul\n      dup4\n      mstore\n      swap2\n      0x20\n      add\n      swap2\n      jump(tag_156)\n    tag_157:\n      dup3\n      add\n      swap2\n      swap1\n      0x00\n      mstore\n      keccak256(0x00, 0x20)\n      swap1\n    tag_158:\n      dup2\n      sload\n      dup2\n      mstore\n      swap1\n      0x01\n      add\n      swap1\n      0x20\n      add\n      dup1\n      dup4\n      gt\n      tag_158\n      jumpi\n      dup3\n      swap1\n      sub\n      0x1f\n      and\n      dup3\n      add\n      swap2\n    tag_156:\n      pop\n      pop\n      pop\n      pop\n      pop\n      dup2\n      mstore\n      0x20\n      add\n      0x02\n      dup3\n      add\n      sload\n      dup2\n      mstore\n      0x20\n      add\n      0x03\n      dup3\n      add\n      0x00\n      swap1\n      sload\n      swap1\n      0x0100\n      exp\n      swap1\n      div\n      0xffffffffffffffffffffffffffffffffffffffff\n      and\n      0xffffffffffffffffffffffffffffffffffffffff\n      and\n      0xffffffffffffffffffffffffffffffffffffffff\n      and\n      dup2\n      mstore\n      0x20\n      add\n      0x04\n      dup3\n      add\n      sload\n      dup2\n      mstore\n      0x20\n      add\n      0x05\n      dup3\n      add\n      0x00\n      swap1\n      sload\n      swap1\n      0x0100\n      exp\n      swap1\n      div\n      0xffffffff\n      and\n      0xffffffff\n      and\n      0xffffffff\n      and\n      dup2\n      mstore\n      pop\n      pop\n      swap2\n      pop\n        /* \"contracts/SwapCart.sol\":4616:4803  function getItemById(uint itmId) public itemAvailabilityCheck(itmId) returns (Item memory) {\r... */\n      pop\n      swap2\n      swap1\n      pop\n      jump\t// out\n        /* \"contracts/SwapCart.sol\":694:755  mapping(uint => mapping(address => uint)) public itemsOfUsers */\n    tag_52:\n      mstore(0x20, 0x04)\n      dup2\n      0x00\n      mstore\n      mstore(0x20, keccak256(0x00, 0x40))\n      dup1\n      0x00\n      mstore\n      keccak256(0x00, 0x40)\n      0x00\n      swap2\n      pop\n      swap2\n      pop\n      pop\n      sload\n      dup2\n      jump\t// out\n        /* \"contracts/SwapCart.sol\":549:568  IERC20 public token */\n    tag_56:\n      0x00\n      dup1\n      sload\n      swap1\n      0x0100\n      exp\n      swap1\n      div\n      0xffffffffffffffffffffffffffffffffffffffff\n      and\n      dup2\n      jump\t// out\n        /* \"@openzeppelin/contracts/utils/Counters.sol\":827:939  function current(Counter storage counter) internal view returns (uint256) {... */\n    tag_81:\n        /* \"@openzeppelin/contracts/utils/Counters.sol\":892:899  uint256 */\n      0x00\n        /* \"@openzeppelin/contracts/utils/Counters.sol\":918:925  counter */\n      dup2\n        /* \"@openzeppelin/contracts/utils/Counters.sol\":918:932  counter._value */\n      0x00\n      add\n      sload\n        /* \"@openzeppelin/contracts/utils/Counters.sol\":911:932  return counter._value */\n      swap1\n      pop\n        /* \"@openzeppelin/contracts/utils/Counters.sol\":827:939  function current(Counter storage counter) internal view returns (uint256) {... */\n      swap2\n      swap1\n      pop\n      jump\t// out\n        /* \"@openzeppelin/contracts/utils/Counters.sol\":945:1068  function increment(Counter storage counter) internal {... */\n    tag_95:\n        /* \"@openzeppelin/contracts/utils/Counters.sol\":1050:1051  1 */\n      0x01\n        /* \"@openzeppelin/contracts/utils/Counters.sol\":1032:1039  counter */\n      dup2\n        /* \"@openzeppelin/contracts/utils/Counters.sol\":1032:1046  counter._value */\n      0x00\n      add\n      0x00\n        /* \"@openzeppelin/contracts/utils/Counters.sol\":1032:1051  counter._value += 1 */\n      dup3\n      dup3\n      sload\n      add\n      swap3\n      pop\n      pop\n      dup2\n      swap1\n      sstore\n      pop\n        /* \"@openzeppelin/contracts/utils/Counters.sol\":945:1068  function increment(Counter storage counter) internal {... */\n      pop\n      jump\t// out\n    tag_84:\n      dup3\n      dup1\n      sload\n      tag_161\n      swap1\n      tag_61\n      jump\t// in\n    tag_161:\n      swap1\n      0x00\n      mstore\n      keccak256(0x00, 0x20)\n      swap1\n      0x1f\n      add\n      0x20\n      swap1\n      div\n      dup2\n      add\n      swap3\n      dup3\n      tag_163\n      jumpi\n      0x00\n      dup6\n      sstore\n      jump(tag_162)\n    tag_163:\n      dup3\n      0x1f\n      lt\n      tag_164\n      jumpi\n      dup1\n      mload\n      not(0xff)\n      and\n      dup4\n      dup1\n      add\n      or\n      dup6\n      sstore\n      jump(tag_162)\n    tag_164:\n      dup3\n      dup1\n      add\n      0x01\n      add\n      dup6\n      sstore\n      dup3\n      iszero\n      tag_162\n      jumpi\n      swap2\n      dup3\n      add\n    tag_165:\n      dup3\n      dup2\n      gt\n      iszero\n      tag_166\n      jumpi\n      dup3\n      mload\n      dup3\n      sstore\n      swap2\n      0x20\n      add\n      swap2\n      swap1\n      0x01\n      add\n      swap1\n      jump(tag_165)\n    tag_166:\n    tag_162:\n      pop\n      swap1\n      pop\n      tag_167\n      swap2\n      swap1\n      tag_168\n      jump\t// in\n    tag_167:\n      pop\n      swap1\n      jump\t// out\n    tag_89:\n      dup3\n      dup1\n      sload\n      tag_169\n      swap1\n      tag_61\n      jump\t// in\n    tag_169:\n      swap1\n      0x00\n      mstore\n      keccak256(0x00, 0x20)\n      swap1\n      0x1f\n      add\n      0x20\n      swap1\n      div\n      dup2\n      add\n      swap3\n      dup3\n      tag_171\n      jumpi\n      0x00\n      dup6\n      sstore\n      jump(tag_170)\n    tag_171:\n      dup3\n      0x1f\n      lt\n      tag_172\n      jumpi\n      dup1\n      sload\n      dup6\n      sstore\n      jump(tag_170)\n    tag_172:\n      dup3\n      dup1\n      add\n      0x01\n      add\n      dup6\n      sstore\n      dup3\n      iszero\n      tag_170\n      jumpi\n      0x00\n      mstore\n      keccak256(0x00, 0x20)\n      swap2\n      0x1f\n      add\n      0x20\n      swap1\n      div\n      dup3\n      add\n    tag_173:\n      dup3\n      dup2\n      gt\n      iszero\n      tag_174\n      jumpi\n      dup3\n      sload\n      dup3\n      sstore\n      swap2\n      0x01\n      add\n      swap2\n      swap1\n      0x01\n      add\n      swap1\n      jump(tag_173)\n    tag_174:\n    tag_170:\n      pop\n      swap1\n      pop\n      tag_175\n      swap2\n      swap1\n      tag_168\n      jump\t// in\n    tag_175:\n      pop\n      swap1\n      jump\t// out\n    tag_142:\n      pop\n      dup1\n      sload\n      tag_176\n      swap1\n      tag_61\n      jump\t// in\n    tag_176:\n      0x00\n      dup3\n      sstore\n      dup1\n      0x1f\n      lt\n      tag_178\n      jumpi\n      pop\n      jump(tag_177)\n    tag_178:\n      0x1f\n      add\n      0x20\n      swap1\n      div\n      swap1\n      0x00\n      mstore\n      keccak256(0x00, 0x20)\n      swap1\n      dup2\n      add\n      swap1\n      tag_179\n      swap2\n      swap1\n      tag_168\n      jump\t// in\n    tag_179:\n    tag_177:\n      pop\n      jump\t// out\n    tag_145:\n      mload(0x40)\n      dup1\n      0xc0\n      add\n      0x40\n      mstore\n      dup1\n      0x00\n      dup2\n      mstore\n      0x20\n      add\n      0x60\n      dup2\n      mstore\n      0x20\n      add\n      0x00\n      dup2\n      mstore\n      0x20\n      add\n      and(0xffffffffffffffffffffffffffffffffffffffff, 0x00)\n      dup2\n      mstore\n      0x20\n      add\n      0x00\n      dup2\n      mstore\n      0x20\n      add\n      and(0xffffffff, 0x00)\n      dup2\n      mstore\n      pop\n      swap1\n      jump\t// out\n    tag_168:\n    tag_180:\n      dup1\n      dup3\n      gt\n      iszero\n      tag_181\n      jumpi\n      0x00\n      dup2\n      0x00\n      swap1\n      sstore\n      pop\n      0x01\n      add\n      jump(tag_180)\n    tag_181:\n      pop\n      swap1\n      jump\t// out\n        /* \"#utility.yul\":7:419   */\n    tag_183:\n        /* \"#utility.yul\":85:90   */\n      0x00\n        /* \"#utility.yul\":110:176   */\n      tag_185\n        /* \"#utility.yul\":126:175   */\n      tag_186\n        /* \"#utility.yul\":168:174   */\n      dup5\n        /* \"#utility.yul\":126:175   */\n      tag_187\n      jump\t// in\n    tag_186:\n        /* \"#utility.yul\":110:176   */\n      tag_188\n      jump\t// in\n    tag_185:\n        /* \"#utility.yul\":101:176   */\n      swap1\n      pop\n        /* \"#utility.yul\":199:205   */\n      dup3\n        /* \"#utility.yul\":192:197   */\n      dup2\n        /* \"#utility.yul\":185:206   */\n      mstore\n        /* \"#utility.yul\":237:241   */\n      0x20\n        /* \"#utility.yul\":230:235   */\n      dup2\n        /* \"#utility.yul\":226:242   */\n      add\n        /* \"#utility.yul\":275:278   */\n      dup5\n        /* \"#utility.yul\":266:272   */\n      dup5\n        /* \"#utility.yul\":261:264   */\n      dup5\n        /* \"#utility.yul\":257:273   */\n      add\n        /* \"#utility.yul\":254:279   */\n      gt\n        /* \"#utility.yul\":251:363   */\n      iszero\n      tag_189\n      jumpi\n        /* \"#utility.yul\":282:361   */\n      tag_190\n      tag_191\n      jump\t// in\n    tag_190:\n        /* \"#utility.yul\":251:363   */\n    tag_189:\n        /* \"#utility.yul\":372:413   */\n      tag_192\n        /* \"#utility.yul\":406:412   */\n      dup5\n        /* \"#utility.yul\":401:404   */\n      dup3\n        /* \"#utility.yul\":396:399   */\n      dup6\n        /* \"#utility.yul\":372:413   */\n      tag_193\n      jump\t// in\n    tag_192:\n        /* \"#utility.yul\":91:419   */\n      pop\n        /* \"#utility.yul\":7:419   */\n      swap4\n      swap3\n      pop\n      pop\n      pop\n      jump\t// out\n        /* \"#utility.yul\":425:564   */\n    tag_194:\n        /* \"#utility.yul\":471:476   */\n      0x00\n        /* \"#utility.yul\":509:515   */\n      dup2\n        /* \"#utility.yul\":496:516   */\n      calldataload\n        /* \"#utility.yul\":487:516   */\n      swap1\n      pop\n        /* \"#utility.yul\":525:558   */\n      tag_196\n        /* \"#utility.yul\":552:557   */\n      dup2\n        /* \"#utility.yul\":525:558   */\n      tag_197\n      jump\t// in\n    tag_196:\n        /* \"#utility.yul\":425:564   */\n      swap3\n      swap2\n      pop\n      pop\n      jump\t// out\n        /* \"#utility.yul\":584:924   */\n    tag_198:\n        /* \"#utility.yul\":640:645   */\n      0x00\n        /* \"#utility.yul\":689:692   */\n      dup3\n        /* \"#utility.yul\":682:686   */\n      0x1f\n        /* \"#utility.yul\":674:680   */\n      dup4\n        /* \"#utility.yul\":670:687   */\n      add\n        /* \"#utility.yul\":666:693   */\n      slt\n        /* \"#utility.yul\":656:778   */\n      tag_200\n      jumpi\n        /* \"#utility.yul\":697:776   */\n      tag_201\n      tag_202\n      jump\t// in\n    tag_201:\n        /* \"#utility.yul\":656:778   */\n    tag_200:\n        /* \"#utility.yul\":814:820   */\n      dup2\n        /* \"#utility.yul\":801:821   */\n      calldataload\n        /* \"#utility.yul\":839:918   */\n      tag_203\n        /* \"#utility.yul\":914:917   */\n      dup5\n        /* \"#utility.yul\":906:912   */\n      dup3\n        /* \"#utility.yul\":899:903   */\n      0x20\n        /* \"#utility.yul\":891:897   */\n      dup7\n        /* \"#utility.yul\":887:904   */\n      add\n        /* \"#utility.yul\":839:918   */\n      tag_183\n      jump\t// in\n    tag_203:\n        /* \"#utility.yul\":830:918   */\n      swap2\n      pop\n        /* \"#utility.yul\":646:924   */\n      pop\n        /* \"#utility.yul\":584:924   */\n      swap3\n      swap2\n      pop\n      pop\n      jump\t// out\n        /* \"#utility.yul\":930:1069   */\n    tag_204:\n        /* \"#utility.yul\":976:981   */\n      0x00\n        /* \"#utility.yul\":1014:1020   */\n      dup2\n        /* \"#utility.yul\":1001:1021   */\n      calldataload\n        /* \"#utility.yul\":992:1021   */\n      swap1\n      pop\n        /* \"#utility.yul\":1030:1063   */\n      tag_206\n        /* \"#utility.yul\":1057:1062   */\n      dup2\n        /* \"#utility.yul\":1030:1063   */\n      tag_207\n      jump\t// in\n    tag_206:\n        /* \"#utility.yul\":930:1069   */\n      swap3\n      swap2\n      pop\n      pop\n      jump\t// out\n        /* \"#utility.yul\":1075:1212   */\n    tag_208:\n        /* \"#utility.yul\":1120:1125   */\n      0x00\n        /* \"#utility.yul\":1158:1164   */\n      dup2\n        /* \"#utility.yul\":1145:1165   */\n      calldataload\n        /* \"#utility.yul\":1136:1165   */\n      swap1\n      pop\n        /* \"#utility.yul\":1174:1206   */\n      tag_210\n        /* \"#utility.yul\":1200:1205   */\n      dup2\n        /* \"#utility.yul\":1174:1206   */\n      tag_211\n      jump\t// in\n    tag_210:\n        /* \"#utility.yul\":1075:1212   */\n      swap3\n      swap2\n      pop\n      pop\n      jump\t// out\n        /* \"#utility.yul\":1218:1547   */\n    tag_33:\n        /* \"#utility.yul\":1277:1283   */\n      0x00\n        /* \"#utility.yul\":1326:1328   */\n      0x20\n        /* \"#utility.yul\":1314:1323   */\n      dup3\n        /* \"#utility.yul\":1305:1312   */\n      dup5\n        /* \"#utility.yul\":1301:1324   */\n      sub\n        /* \"#utility.yul\":1297:1329   */\n      slt\n        /* \"#utility.yul\":1294:1413   */\n      iszero\n      tag_213\n      jumpi\n        /* \"#utility.yul\":1332:1411   */\n      tag_214\n      tag_215\n      jump\t// in\n    tag_214:\n        /* \"#utility.yul\":1294:1413   */\n    tag_213:\n        /* \"#utility.yul\":1452:1453   */\n      0x00\n        /* \"#utility.yul\":1477:1530   */\n      tag_216\n        /* \"#utility.yul\":1522:1529   */\n      dup5\n        /* \"#utility.yul\":1513:1519   */\n      dup3\n        /* \"#utility.yul\":1502:1511   */\n      dup6\n        /* \"#utility.yul\":1498:1520   */\n      add\n        /* \"#utility.yul\":1477:1530   */\n      tag_194\n      jump\t// in\n    tag_216:\n        /* \"#utility.yul\":1467:1530   */\n      swap2\n      pop\n        /* \"#utility.yul\":1423:1540   */\n      pop\n        /* \"#utility.yul\":1218:1547   */\n      swap3\n      swap2\n      pop\n      pop\n      jump\t// out\n        /* \"#utility.yul\":1553:1882   */\n    tag_16:\n        /* \"#utility.yul\":1612:1618   */\n      0x00\n        /* \"#utility.yul\":1661:1663   */\n      0x20\n        /* \"#utility.yul\":1649:1658   */\n      dup3\n        /* \"#utility.yul\":1640:1647   */\n      dup5\n        /* \"#utility.yul\":1636:1659   */\n      sub\n        /* \"#utility.yul\":1632:1664   */\n      slt\n        /* \"#utility.yul\":1629:1748   */\n      iszero\n      tag_218\n      jumpi\n        /* \"#utility.yul\":1667:1746   */\n      tag_219\n      tag_215\n      jump\t// in\n    tag_219:\n        /* \"#utility.yul\":1629:1748   */\n    tag_218:\n        /* \"#utility.yul\":1787:1788   */\n      0x00\n        /* \"#utility.yul\":1812:1865   */\n      tag_220\n        /* \"#utility.yul\":1857:1864   */\n      dup5\n        /* \"#utility.yul\":1848:1854   */\n      dup3\n        /* \"#utility.yul\":1837:1846   */\n      dup6\n        /* \"#utility.yul\":1833:1855   */\n      add\n        /* \"#utility.yul\":1812:1865   */\n      tag_204\n      jump\t// in\n    tag_220:\n        /* \"#utility.yul\":1802:1865   */\n      swap2\n      pop\n        /* \"#utility.yul\":1758:1875   */\n      pop\n        /* \"#utility.yul\":1553:1882   */\n      swap3\n      swap2\n      pop\n      pop\n      jump\t// out\n        /* \"#utility.yul\":1888:2362   */\n    tag_51:\n        /* \"#utility.yul\":1956:1962   */\n      0x00\n        /* \"#utility.yul\":1964:1970   */\n      dup1\n        /* \"#utility.yul\":2013:2015   */\n      0x40\n        /* \"#utility.yul\":2001:2010   */\n      dup4\n        /* \"#utility.yul\":1992:1999   */\n      dup6\n        /* \"#utility.yul\":1988:2011   */\n      sub\n        /* \"#utility.yul\":1984:2016   */\n      slt\n        /* \"#utility.yul\":1981:2100   */\n      iszero\n      tag_222\n      jumpi\n        /* \"#utility.yul\":2019:2098   */\n      tag_223\n      tag_215\n      jump\t// in\n    tag_223:\n        /* \"#utility.yul\":1981:2100   */\n    tag_222:\n        /* \"#utility.yul\":2139:2140   */\n      0x00\n        /* \"#utility.yul\":2164:2217   */\n      tag_224\n        /* \"#utility.yul\":2209:2216   */\n      dup6\n        /* \"#utility.yul\":2200:2206   */\n      dup3\n        /* \"#utility.yul\":2189:2198   */\n      dup7\n        /* \"#utility.yul\":2185:2207   */\n      add\n        /* \"#utility.yul\":2164:2217   */\n      tag_204\n      jump\t// in\n    tag_224:\n        /* \"#utility.yul\":2154:2217   */\n      swap3\n      pop\n        /* \"#utility.yul\":2110:2227   */\n      pop\n        /* \"#utility.yul\":2266:2268   */\n      0x20\n        /* \"#utility.yul\":2292:2345   */\n      tag_225\n        /* \"#utility.yul\":2337:2344   */\n      dup6\n        /* \"#utility.yul\":2328:2334   */\n      dup3\n        /* \"#utility.yul\":2317:2326   */\n      dup7\n        /* \"#utility.yul\":2313:2335   */\n      add\n        /* \"#utility.yul\":2292:2345   */\n      tag_194\n      jump\t// in\n    tag_225:\n        /* \"#utility.yul\":2282:2345   */\n      swap2\n      pop\n        /* \"#utility.yul\":2237:2355   */\n      pop\n        /* \"#utility.yul\":1888:2362   */\n      swap3\n      pop\n      swap3\n      swap1\n      pop\n      jump\t// out\n        /* \"#utility.yul\":2368:3165   */\n    tag_25:\n        /* \"#utility.yul\":2454:2460   */\n      0x00\n        /* \"#utility.yul\":2462:2468   */\n      dup1\n        /* \"#utility.yul\":2470:2476   */\n      0x00\n        /* \"#utility.yul\":2519:2521   */\n      0x60\n        /* \"#utility.yul\":2507:2516   */\n      dup5\n        /* \"#utility.yul\":2498:2505   */\n      dup7\n        /* \"#utility.yul\":2494:2517   */\n      sub\n        /* \"#utility.yul\":2490:2522   */\n      slt\n        /* \"#utility.yul\":2487:2606   */\n      iszero\n      tag_227\n      jumpi\n        /* \"#utility.yul\":2525:2604   */\n      tag_228\n      tag_215\n      jump\t// in\n    tag_228:\n        /* \"#utility.yul\":2487:2606   */\n    tag_227:\n        /* \"#utility.yul\":2645:2646   */\n      0x00\n        /* \"#utility.yul\":2670:2723   */\n      tag_229\n        /* \"#utility.yul\":2715:2722   */\n      dup7\n        /* \"#utility.yul\":2706:2712   */\n      dup3\n        /* \"#utility.yul\":2695:2704   */\n      dup8\n        /* \"#utility.yul\":2691:2713   */\n      add\n        /* \"#utility.yul\":2670:2723   */\n      tag_204\n      jump\t// in\n    tag_229:\n        /* \"#utility.yul\":2660:2723   */\n      swap4\n      pop\n        /* \"#utility.yul\":2616:2733   */\n      pop\n        /* \"#utility.yul\":2800:2802   */\n      0x20\n        /* \"#utility.yul\":2789:2798   */\n      dup5\n        /* \"#utility.yul\":2785:2803   */\n      add\n        /* \"#utility.yul\":2772:2804   */\n      calldataload\n        /* \"#utility.yul\":2831:2849   */\n      0xffffffffffffffff\n        /* \"#utility.yul\":2823:2829   */\n      dup2\n        /* \"#utility.yul\":2820:2850   */\n      gt\n        /* \"#utility.yul\":2817:2934   */\n      iszero\n      tag_230\n      jumpi\n        /* \"#utility.yul\":2853:2932   */\n      tag_231\n      tag_232\n      jump\t// in\n    tag_231:\n        /* \"#utility.yul\":2817:2934   */\n    tag_230:\n        /* \"#utility.yul\":2958:3021   */\n      tag_233\n        /* \"#utility.yul\":3013:3020   */\n      dup7\n        /* \"#utility.yul\":3004:3010   */\n      dup3\n        /* \"#utility.yul\":2993:3002   */\n      dup8\n        /* \"#utility.yul\":2989:3011   */\n      add\n        /* \"#utility.yul\":2958:3021   */\n      tag_198\n      jump\t// in\n    tag_233:\n        /* \"#utility.yul\":2948:3021   */\n      swap3\n      pop\n        /* \"#utility.yul\":2743:3031   */\n      pop\n        /* \"#utility.yul\":3070:3072   */\n      0x40\n        /* \"#utility.yul\":3096:3148   */\n      tag_234\n        /* \"#utility.yul\":3140:3147   */\n      dup7\n        /* \"#utility.yul\":3131:3137   */\n      dup3\n        /* \"#utility.yul\":3120:3129   */\n      dup8\n        /* \"#utility.yul\":3116:3138   */\n      add\n        /* \"#utility.yul\":3096:3148   */\n      tag_208\n      jump\t// in\n    tag_234:\n        /* \"#utility.yul\":3086:3148   */\n      swap2\n      pop\n        /* \"#utility.yul\":3041:3158   */\n      pop\n        /* \"#utility.yul\":2368:3165   */\n      swap3\n      pop\n      swap3\n      pop\n      swap3\n      jump\t// out\n        /* \"#utility.yul\":3171:3411   */\n    tag_235:\n        /* \"#utility.yul\":3282:3292   */\n      0x00\n        /* \"#utility.yul\":3317:3405   */\n      tag_237\n        /* \"#utility.yul\":3401:3404   */\n      dup4\n        /* \"#utility.yul\":3393:3399   */\n      dup4\n        /* \"#utility.yul\":3317:3405   */\n      tag_238\n      jump\t// in\n    tag_237:\n        /* \"#utility.yul\":3303:3405   */\n      swap1\n      pop\n        /* \"#utility.yul\":3171:3411   */\n      swap3\n      swap2\n      pop\n      pop\n      jump\t// out\n        /* \"#utility.yul\":3417:3651   */\n    tag_239:\n        /* \"#utility.yul\":3525:3535   */\n      0x00\n        /* \"#utility.yul\":3560:3645   */\n      tag_241\n        /* \"#utility.yul\":3641:3644   */\n      dup4\n        /* \"#utility.yul\":3633:3639   */\n      dup4\n        /* \"#utility.yul\":3560:3645   */\n      tag_242\n      jump\t// in\n    tag_241:\n        /* \"#utility.yul\":3546:3645   */\n      swap1\n      pop\n        /* \"#utility.yul\":3417:3651   */\n      swap3\n      swap2\n      pop\n      pop\n      jump\t// out\n        /* \"#utility.yul\":3657:3765   */\n    tag_243:\n        /* \"#utility.yul\":3734:3758   */\n      tag_245\n        /* \"#utility.yul\":3752:3757   */\n      dup2\n        /* \"#utility.yul\":3734:3758   */\n      tag_246\n      jump\t// in\n    tag_245:\n        /* \"#utility.yul\":3729:3732   */\n      dup3\n        /* \"#utility.yul\":3722:3759   */\n      mstore\n        /* \"#utility.yul\":3657:3765   */\n      pop\n      pop\n      jump\t// out\n        /* \"#utility.yul\":3771:3889   */\n    tag_247:\n        /* \"#utility.yul\":3858:3882   */\n      tag_249\n        /* \"#utility.yul\":3876:3881   */\n      dup2\n        /* \"#utility.yul\":3858:3882   */\n      tag_246\n      jump\t// in\n    tag_249:\n        /* \"#utility.yul\":3853:3856   */\n      dup3\n        /* \"#utility.yul\":3846:3883   */\n      mstore\n        /* \"#utility.yul\":3771:3889   */\n      pop\n      pop\n      jump\t// out\n        /* \"#utility.yul\":3951:5030   */\n    tag_250:\n        /* \"#utility.yul\":4112:4115   */\n      0x00\n        /* \"#utility.yul\":4141:4216   */\n      tag_252\n        /* \"#utility.yul\":4210:4215   */\n      dup3\n        /* \"#utility.yul\":4141:4216   */\n      tag_253\n      jump\t// in\n    tag_252:\n        /* \"#utility.yul\":4232:4339   */\n      tag_254\n        /* \"#utility.yul\":4332:4338   */\n      dup2\n        /* \"#utility.yul\":4327:4330   */\n      dup6\n        /* \"#utility.yul\":4232:4339   */\n      tag_255\n      jump\t// in\n    tag_254:\n        /* \"#utility.yul\":4225:4339   */\n      swap4\n      pop\n        /* \"#utility.yul\":4365:4368   */\n      dup4\n        /* \"#utility.yul\":4410:4414   */\n      0x20\n        /* \"#utility.yul\":4402:4408   */\n      dup3\n        /* \"#utility.yul\":4398:4415   */\n      mul\n        /* \"#utility.yul\":4393:4396   */\n      dup6\n        /* \"#utility.yul\":4389:4416   */\n      add\n        /* \"#utility.yul\":4440:4517   */\n      tag_256\n        /* \"#utility.yul\":4511:4516   */\n      dup6\n        /* \"#utility.yul\":4440:4517   */\n      tag_257\n      jump\t// in\n    tag_256:\n        /* \"#utility.yul\":4540:4547   */\n      dup1\n        /* \"#utility.yul\":4571:4572   */\n      0x00\n        /* \"#utility.yul\":4556:4985   */\n    tag_258:\n        /* \"#utility.yul\":4581:4587   */\n      dup6\n        /* \"#utility.yul\":4578:4579   */\n      dup2\n        /* \"#utility.yul\":4575:4588   */\n      lt\n        /* \"#utility.yul\":4556:4985   */\n      iszero\n      tag_260\n      jumpi\n        /* \"#utility.yul\":4652:4661   */\n      dup5\n        /* \"#utility.yul\":4646:4650   */\n      dup5\n        /* \"#utility.yul\":4642:4662   */\n      sub\n        /* \"#utility.yul\":4637:4640   */\n      dup10\n        /* \"#utility.yul\":4630:4663   */\n      mstore\n        /* \"#utility.yul\":4703:4709   */\n      dup2\n        /* \"#utility.yul\":4697:4710   */\n      mload\n        /* \"#utility.yul\":4731:4837   */\n      tag_261\n        /* \"#utility.yul\":4832:4836   */\n      dup6\n        /* \"#utility.yul\":4817:4830   */\n      dup3\n        /* \"#utility.yul\":4731:4837   */\n      tag_235\n      jump\t// in\n    tag_261:\n        /* \"#utility.yul\":4723:4837   */\n      swap5\n      pop\n        /* \"#utility.yul\":4860:4941   */\n      tag_262\n        /* \"#utility.yul\":4934:4940   */\n      dup4\n        /* \"#utility.yul\":4860:4941   */\n      tag_263\n      jump\t// in\n    tag_262:\n        /* \"#utility.yul\":4850:4941   */\n      swap3\n      pop\n        /* \"#utility.yul\":4970:4974   */\n      0x20\n        /* \"#utility.yul\":4965:4968   */\n      dup11\n        /* \"#utility.yul\":4961:4975   */\n      add\n        /* \"#utility.yul\":4954:4975   */\n      swap10\n      pop\n        /* \"#utility.yul\":4616:4985   */\n      pop\n        /* \"#utility.yul\":4603:4604   */\n      0x01\n        /* \"#utility.yul\":4600:4601   */\n      dup2\n        /* \"#utility.yul\":4596:4605   */\n      add\n        /* \"#utility.yul\":4591:4605   */\n      swap1\n      pop\n        /* \"#utility.yul\":4556:4985   */\n      jump(tag_258)\n    tag_260:\n        /* \"#utility.yul\":4560:4574   */\n      pop\n        /* \"#utility.yul\":5001:5005   */\n      dup3\n        /* \"#utility.yul\":4994:5005   */\n      swap8\n      pop\n        /* \"#utility.yul\":5021:5024   */\n      dup8\n        /* \"#utility.yul\":5014:5024   */\n      swap6\n      pop\n        /* \"#utility.yul\":4117:5030   */\n      pop\n      pop\n      pop\n      pop\n      pop\n        /* \"#utility.yul\":3951:5030   */\n      swap3\n      swap2\n      pop\n      pop\n      jump\t// out\n        /* \"#utility.yul\":5092:6137   */\n    tag_264:\n        /* \"#utility.yul\":5247:5250   */\n      0x00\n        /* \"#utility.yul\":5276:5345   */\n      tag_266\n        /* \"#utility.yul\":5339:5344   */\n      dup3\n        /* \"#utility.yul\":5276:5345   */\n      tag_267\n      jump\t// in\n    tag_266:\n        /* \"#utility.yul\":5361:5468   */\n      tag_268\n        /* \"#utility.yul\":5461:5467   */\n      dup2\n        /* \"#utility.yul\":5456:5459   */\n      dup6\n        /* \"#utility.yul\":5361:5468   */\n      tag_255\n      jump\t// in\n    tag_268:\n        /* \"#utility.yul\":5354:5468   */\n      swap4\n      pop\n        /* \"#utility.yul\":5494:5497   */\n      dup4\n        /* \"#utility.yul\":5539:5543   */\n      0x20\n        /* \"#utility.yul\":5531:5537   */\n      dup3\n        /* \"#utility.yul\":5527:5544   */\n      mul\n        /* \"#utility.yul\":5522:5525   */\n      dup6\n        /* \"#utility.yul\":5518:5545   */\n      add\n        /* \"#utility.yul\":5569:5640   */\n      tag_269\n        /* \"#utility.yul\":5634:5639   */\n      dup6\n        /* \"#utility.yul\":5569:5640   */\n      tag_270\n      jump\t// in\n    tag_269:\n        /* \"#utility.yul\":5663:5670   */\n      dup1\n        /* \"#utility.yul\":5694:5695   */\n      0x00\n        /* \"#utility.yul\":5679:6092   */\n    tag_271:\n        /* \"#utility.yul\":5704:5710   */\n      dup6\n        /* \"#utility.yul\":5701:5702   */\n      dup2\n        /* \"#utility.yul\":5698:5711   */\n      lt\n        /* \"#utility.yul\":5679:6092   */\n      iszero\n      tag_273\n      jumpi\n        /* \"#utility.yul\":5775:5784   */\n      dup5\n        /* \"#utility.yul\":5769:5773   */\n      dup5\n        /* \"#utility.yul\":5765:5785   */\n      sub\n        /* \"#utility.yul\":5760:5763   */\n      dup10\n        /* \"#utility.yul\":5753:5786   */\n      mstore\n        /* \"#utility.yul\":5820:5826   */\n      dup2\n        /* \"#utility.yul\":5847:5950   */\n      tag_274\n        /* \"#utility.yul\":5945:5949   */\n      dup6\n        /* \"#utility.yul\":5930:5943   */\n      dup3\n        /* \"#utility.yul\":5847:5950   */\n      tag_239\n      jump\t// in\n    tag_274:\n        /* \"#utility.yul\":5839:5950   */\n      swap5\n      pop\n        /* \"#utility.yul\":5973:6048   */\n      tag_275\n        /* \"#utility.yul\":6041:6047   */\n      dup4\n        /* \"#utility.yul\":5973:6048   */\n      tag_276\n      jump\t// in\n    tag_275:\n        /* \"#utility.yul\":5963:6048   */\n      swap3\n      pop\n        /* \"#utility.yul\":6077:6081   */\n      0x20\n        /* \"#utility.yul\":6072:6075   */\n      dup11\n        /* \"#utility.yul\":6068:6082   */\n      add\n        /* \"#utility.yul\":6061:6082   */\n      swap10\n      pop\n        /* \"#utility.yul\":5739:6092   */\n      pop\n        /* \"#utility.yul\":5726:5727   */\n      0x01\n        /* \"#utility.yul\":5723:5724   */\n      dup2\n        /* \"#utility.yul\":5719:5728   */\n      add\n        /* \"#utility.yul\":5714:5728   */\n      swap1\n      pop\n        /* \"#utility.yul\":5679:6092   */\n      jump(tag_271)\n    tag_273:\n        /* \"#utility.yul\":5683:5697   */\n      pop\n        /* \"#utility.yul\":6108:6112   */\n      dup3\n        /* \"#utility.yul\":6101:6112   */\n      swap8\n      pop\n        /* \"#utility.yul\":6128:6131   */\n      dup8\n        /* \"#utility.yul\":6121:6131   */\n      swap6\n      pop\n        /* \"#utility.yul\":5252:6137   */\n      pop\n      pop\n      pop\n      pop\n      pop\n        /* \"#utility.yul\":5092:6137   */\n      swap3\n      swap2\n      pop\n      pop\n      jump\t// out\n        /* \"#utility.yul\":6143:6302   */\n    tag_277:\n        /* \"#utility.yul\":6244:6295   */\n      tag_279\n        /* \"#utility.yul\":6289:6294   */\n      dup2\n        /* \"#utility.yul\":6244:6295   */\n      tag_280\n      jump\t// in\n    tag_279:\n        /* \"#utility.yul\":6239:6242   */\n      dup3\n        /* \"#utility.yul\":6232:6296   */\n      mstore\n        /* \"#utility.yul\":6143:6302   */\n      pop\n      pop\n      jump\t// out\n        /* \"#utility.yul\":6308:6652   */\n    tag_281:\n        /* \"#utility.yul\":6386:6389   */\n      0x00\n        /* \"#utility.yul\":6414:6453   */\n      tag_283\n        /* \"#utility.yul\":6447:6452   */\n      dup3\n        /* \"#utility.yul\":6414:6453   */\n      tag_284\n      jump\t// in\n    tag_283:\n        /* \"#utility.yul\":6469:6530   */\n      tag_285\n        /* \"#utility.yul\":6523:6529   */\n      dup2\n        /* \"#utility.yul\":6518:6521   */\n      dup6\n        /* \"#utility.yul\":6469:6530   */\n      tag_286\n      jump\t// in\n    tag_285:\n        /* \"#utility.yul\":6462:6530   */\n      swap4\n      pop\n        /* \"#utility.yul\":6539:6591   */\n      tag_287\n        /* \"#utility.yul\":6584:6590   */\n      dup2\n        /* \"#utility.yul\":6579:6582   */\n      dup6\n        /* \"#utility.yul\":6572:6576   */\n      0x20\n        /* \"#utility.yul\":6565:6570   */\n      dup7\n        /* \"#utility.yul\":6561:6577   */\n      add\n        /* \"#utility.yul\":6539:6591   */\n      tag_288\n      jump\t// in\n    tag_287:\n        /* \"#utility.yul\":6616:6645   */\n      tag_289\n        /* \"#utility.yul\":6638:6644   */\n      dup2\n        /* \"#utility.yul\":6616:6645   */\n      tag_290\n      jump\t// in\n    tag_289:\n        /* \"#utility.yul\":6611:6614   */\n      dup5\n        /* \"#utility.yul\":6607:6646   */\n      add\n        /* \"#utility.yul\":6600:6646   */\n      swap2\n      pop\n        /* \"#utility.yul\":6390:6652   */\n      pop\n        /* \"#utility.yul\":6308:6652   */\n      swap3\n      swap2\n      pop\n      pop\n      jump\t// out\n        /* \"#utility.yul\":6658:7022   */\n    tag_291:\n        /* \"#utility.yul\":6746:6749   */\n      0x00\n        /* \"#utility.yul\":6774:6813   */\n      tag_293\n        /* \"#utility.yul\":6807:6812   */\n      dup3\n        /* \"#utility.yul\":6774:6813   */\n      tag_284\n      jump\t// in\n    tag_293:\n        /* \"#utility.yul\":6829:6900   */\n      tag_294\n        /* \"#utility.yul\":6893:6899   */\n      dup2\n        /* \"#utility.yul\":6888:6891   */\n      dup6\n        /* \"#utility.yul\":6829:6900   */\n      tag_295\n      jump\t// in\n    tag_294:\n        /* \"#utility.yul\":6822:6900   */\n      swap4\n      pop\n        /* \"#utility.yul\":6909:6961   */\n      tag_296\n        /* \"#utility.yul\":6954:6960   */\n      dup2\n        /* \"#utility.yul\":6949:6952   */\n      dup6\n        /* \"#utility.yul\":6942:6946   */\n      0x20\n        /* \"#utility.yul\":6935:6940   */\n      dup7\n        /* \"#utility.yul\":6931:6947   */\n      add\n        /* \"#utility.yul\":6909:6961   */\n      tag_288\n      jump\t// in\n    tag_296:\n        /* \"#utility.yul\":6986:7015   */\n      tag_297\n        /* \"#utility.yul\":7008:7014   */\n      dup2\n        /* \"#utility.yul\":6986:7015   */\n      tag_290\n      jump\t// in\n    tag_297:\n        /* \"#utility.yul\":6981:6984   */\n      dup5\n        /* \"#utility.yul\":6977:7016   */\n      add\n        /* \"#utility.yul\":6970:7016   */\n      swap2\n      pop\n        /* \"#utility.yul\":6750:7022   */\n      pop\n        /* \"#utility.yul\":6658:7022   */\n      swap3\n      swap2\n      pop\n      pop\n      jump\t// out\n        /* \"#utility.yul\":7052:7834   */\n    tag_298:\n        /* \"#utility.yul\":7127:7130   */\n      0x00\n        /* \"#utility.yul\":7164:7169   */\n      dup2\n        /* \"#utility.yul\":7158:7170   */\n      sload\n        /* \"#utility.yul\":7193:7229   */\n      tag_300\n        /* \"#utility.yul\":7219:7228   */\n      dup2\n        /* \"#utility.yul\":7193:7229   */\n      tag_61\n      jump\t// in\n    tag_300:\n        /* \"#utility.yul\":7245:7306   */\n      tag_301\n        /* \"#utility.yul\":7299:7305   */\n      dup2\n        /* \"#utility.yul\":7294:7297   */\n      dup7\n        /* \"#utility.yul\":7245:7306   */\n      tag_286\n      jump\t// in\n    tag_301:\n        /* \"#utility.yul\":7238:7306   */\n      swap5\n      pop\n        /* \"#utility.yul\":7337:7338   */\n      0x01\n        /* \"#utility.yul\":7326:7335   */\n      dup3\n        /* \"#utility.yul\":7322:7339   */\n      and\n        /* \"#utility.yul\":7353:7354   */\n      0x00\n        /* \"#utility.yul\":7348:7483   */\n      dup2\n      eq\n      tag_303\n      jumpi\n        /* \"#utility.yul\":7497:7498   */\n      0x01\n        /* \"#utility.yul\":7492:7828   */\n      dup2\n      eq\n      tag_304\n      jumpi\n        /* \"#utility.yul\":7315:7828   */\n      jump(tag_302)\n        /* \"#utility.yul\":7348:7483   */\n    tag_303:\n        /* \"#utility.yul\":7432:7436   */\n      0xff\n        /* \"#utility.yul\":7428:7437   */\n      not\n        /* \"#utility.yul\":7417:7426   */\n      dup4\n        /* \"#utility.yul\":7413:7438   */\n      and\n        /* \"#utility.yul\":7408:7411   */\n      dup7\n        /* \"#utility.yul\":7401:7439   */\n      mstore\n        /* \"#utility.yul\":7468:7472   */\n      0x20\n        /* \"#utility.yul\":7463:7466   */\n      dup7\n        /* \"#utility.yul\":7459:7473   */\n      add\n        /* \"#utility.yul\":7452:7473   */\n      swap4\n      pop\n        /* \"#utility.yul\":7348:7483   */\n      jump(tag_302)\n        /* \"#utility.yul\":7492:7828   */\n    tag_304:\n        /* \"#utility.yul\":7559:7597   */\n      tag_305\n        /* \"#utility.yul\":7591:7596   */\n      dup6\n        /* \"#utility.yul\":7559:7597   */\n      tag_306\n      jump\t// in\n    tag_305:\n        /* \"#utility.yul\":7619:7620   */\n      0x00\n        /* \"#utility.yul\":7633:7787   */\n    tag_307:\n        /* \"#utility.yul\":7647:7653   */\n      dup4\n        /* \"#utility.yul\":7644:7645   */\n      dup2\n        /* \"#utility.yul\":7641:7654   */\n      lt\n        /* \"#utility.yul\":7633:7787   */\n      iszero\n      tag_309\n      jumpi\n        /* \"#utility.yul\":7721:7728   */\n      dup2\n        /* \"#utility.yul\":7715:7729   */\n      sload\n        /* \"#utility.yul\":7711:7712   */\n      dup2\n        /* \"#utility.yul\":7706:7709   */\n      dup10\n        /* \"#utility.yul\":7702:7713   */\n      add\n        /* \"#utility.yul\":7695:7730   */\n      mstore\n        /* \"#utility.yul\":7771:7772   */\n      0x01\n        /* \"#utility.yul\":7762:7769   */\n      dup3\n        /* \"#utility.yul\":7758:7773   */\n      add\n        /* \"#utility.yul\":7747:7773   */\n      swap2\n      pop\n        /* \"#utility.yul\":7669:7673   */\n      0x20\n        /* \"#utility.yul\":7666:7667   */\n      dup2\n        /* \"#utility.yul\":7662:7674   */\n      add\n        /* \"#utility.yul\":7657:7674   */\n      swap1\n      pop\n        /* \"#utility.yul\":7633:7787   */\n      jump(tag_307)\n    tag_309:\n        /* \"#utility.yul\":7816:7817   */\n      dup1\n        /* \"#utility.yul\":7811:7814   */\n      dup9\n        /* \"#utility.yul\":7807:7818   */\n      add\n        /* \"#utility.yul\":7800:7818   */\n      swap6\n      pop\n        /* \"#utility.yul\":7499:7828   */\n      pop\n      pop\n        /* \"#utility.yul\":7315:7828   */\n    tag_302:\n      pop\n        /* \"#utility.yul\":7131:7834   */\n      pop\n      pop\n        /* \"#utility.yul\":7052:7834   */\n      swap3\n      swap2\n      pop\n      pop\n      jump\t// out\n        /* \"#utility.yul\":7840:8206   */\n    tag_310:\n        /* \"#utility.yul\":7982:7985   */\n      0x00\n        /* \"#utility.yul\":8003:8070   */\n      tag_312\n        /* \"#utility.yul\":8067:8069   */\n      0x22\n        /* \"#utility.yul\":8062:8065   */\n      dup4\n        /* \"#utility.yul\":8003:8070   */\n      tag_295\n      jump\t// in\n    tag_312:\n        /* \"#utility.yul\":7996:8070   */\n      swap2\n      pop\n        /* \"#utility.yul\":8079:8172   */\n      tag_313\n        /* \"#utility.yul\":8168:8171   */\n      dup3\n        /* \"#utility.yul\":8079:8172   */\n      tag_314\n      jump\t// in\n    tag_313:\n        /* \"#utility.yul\":8197:8199   */\n      0x40\n        /* \"#utility.yul\":8192:8195   */\n      dup3\n        /* \"#utility.yul\":8188:8200   */\n      add\n        /* \"#utility.yul\":8181:8200   */\n      swap1\n      pop\n        /* \"#utility.yul\":7840:8206   */\n      swap2\n      swap1\n      pop\n      jump\t// out\n        /* \"#utility.yul\":8212:8578   */\n    tag_315:\n        /* \"#utility.yul\":8354:8357   */\n      0x00\n        /* \"#utility.yul\":8375:8442   */\n      tag_317\n        /* \"#utility.yul\":8439:8441   */\n      0x1d\n        /* \"#utility.yul\":8434:8437   */\n      dup4\n        /* \"#utility.yul\":8375:8442   */\n      tag_295\n      jump\t// in\n    tag_317:\n        /* \"#utility.yul\":8368:8442   */\n      swap2\n      pop\n        /* \"#utility.yul\":8451:8544   */\n      tag_318\n        /* \"#utility.yul\":8540:8543   */\n      dup3\n        /* \"#utility.yul\":8451:8544   */\n      tag_319\n      jump\t// in\n    tag_318:\n        /* \"#utility.yul\":8569:8571   */\n      0x20\n        /* \"#utility.yul\":8564:8567   */\n      dup3\n        /* \"#utility.yul\":8560:8572   */\n      add\n        /* \"#utility.yul\":8553:8572   */\n      swap1\n      pop\n        /* \"#utility.yul\":8212:8578   */\n      swap2\n      swap1\n      pop\n      jump\t// out\n        /* \"#utility.yul\":8584:8950   */\n    tag_320:\n        /* \"#utility.yul\":8726:8729   */\n      0x00\n        /* \"#utility.yul\":8747:8814   */\n      tag_322\n        /* \"#utility.yul\":8811:8813   */\n      0x15\n        /* \"#utility.yul\":8806:8809   */\n      dup4\n        /* \"#utility.yul\":8747:8814   */\n      tag_295\n      jump\t// in\n    tag_322:\n        /* \"#utility.yul\":8740:8814   */\n      swap2\n      pop\n        /* \"#utility.yul\":8823:8916   */\n      tag_323\n        /* \"#utility.yul\":8912:8915   */\n      dup3\n        /* \"#utility.yul\":8823:8916   */\n      tag_324\n      jump\t// in\n    tag_323:\n        /* \"#utility.yul\":8941:8943   */\n      0x20\n        /* \"#utility.yul\":8936:8939   */\n      dup3\n        /* \"#utility.yul\":8932:8944   */\n      add\n        /* \"#utility.yul\":8925:8944   */\n      swap1\n      pop\n        /* \"#utility.yul\":8584:8950   */\n      swap2\n      swap1\n      pop\n      jump\t// out\n        /* \"#utility.yul\":9008:10303   */\n    tag_238:\n        /* \"#utility.yul\":9109:9112   */\n      0x00\n        /* \"#utility.yul\":9145:9149   */\n      0xc0\n        /* \"#utility.yul\":9140:9143   */\n      dup4\n        /* \"#utility.yul\":9136:9150   */\n      add\n        /* \"#utility.yul\":9234:9238   */\n      0x00\n        /* \"#utility.yul\":9227:9232   */\n      dup4\n        /* \"#utility.yul\":9223:9239   */\n      add\n        /* \"#utility.yul\":9217:9240   */\n      mload\n        /* \"#utility.yul\":9253:9316   */\n      tag_326\n        /* \"#utility.yul\":9310:9314   */\n      0x00\n        /* \"#utility.yul\":9305:9308   */\n      dup7\n        /* \"#utility.yul\":9301:9315   */\n      add\n        /* \"#utility.yul\":9287:9299   */\n      dup3\n        /* \"#utility.yul\":9253:9316   */\n      tag_327\n      jump\t// in\n    tag_326:\n        /* \"#utility.yul\":9160:9326   */\n      pop\n        /* \"#utility.yul\":9413:9417   */\n      0x20\n        /* \"#utility.yul\":9406:9411   */\n      dup4\n        /* \"#utility.yul\":9402:9418   */\n      add\n        /* \"#utility.yul\":9396:9419   */\n      mload\n        /* \"#utility.yul\":9466:9469   */\n      dup5\n        /* \"#utility.yul\":9460:9464   */\n      dup3\n        /* \"#utility.yul\":9456:9470   */\n      sub\n        /* \"#utility.yul\":9449:9453   */\n      0x20\n        /* \"#utility.yul\":9444:9447   */\n      dup7\n        /* \"#utility.yul\":9440:9454   */\n      add\n        /* \"#utility.yul\":9433:9471   */\n      mstore\n        /* \"#utility.yul\":9492:9565   */\n      tag_328\n        /* \"#utility.yul\":9560:9564   */\n      dup3\n        /* \"#utility.yul\":9546:9558   */\n      dup3\n        /* \"#utility.yul\":9492:9565   */\n      tag_281\n      jump\t// in\n    tag_328:\n        /* \"#utility.yul\":9484:9565   */\n      swap2\n      pop\n        /* \"#utility.yul\":9336:9576   */\n      pop\n        /* \"#utility.yul\":9658:9662   */\n      0x40\n        /* \"#utility.yul\":9651:9656   */\n      dup4\n        /* \"#utility.yul\":9647:9663   */\n      add\n        /* \"#utility.yul\":9641:9664   */\n      mload\n        /* \"#utility.yul\":9677:9740   */\n      tag_329\n        /* \"#utility.yul\":9734:9738   */\n      0x40\n        /* \"#utility.yul\":9729:9732   */\n      dup7\n        /* \"#utility.yul\":9725:9739   */\n      add\n        /* \"#utility.yul\":9711:9723   */\n      dup3\n        /* \"#utility.yul\":9677:9740   */\n      tag_327\n      jump\t// in\n    tag_329:\n        /* \"#utility.yul\":9586:9750   */\n      pop\n        /* \"#utility.yul\":9834:9838   */\n      0x60\n        /* \"#utility.yul\":9827:9832   */\n      dup4\n        /* \"#utility.yul\":9823:9839   */\n      add\n        /* \"#utility.yul\":9817:9840   */\n      mload\n        /* \"#utility.yul\":9853:9916   */\n      tag_330\n        /* \"#utility.yul\":9910:9914   */\n      0x60\n        /* \"#utility.yul\":9905:9908   */\n      dup7\n        /* \"#utility.yul\":9901:9915   */\n      add\n        /* \"#utility.yul\":9887:9899   */\n      dup3\n        /* \"#utility.yul\":9853:9916   */\n      tag_243\n      jump\t// in\n    tag_330:\n        /* \"#utility.yul\":9760:9926   */\n      pop\n        /* \"#utility.yul\":10009:10013   */\n      0x80\n        /* \"#utility.yul\":10002:10007   */\n      dup4\n        /* \"#utility.yul\":9998:10014   */\n      add\n        /* \"#utility.yul\":9992:10015   */\n      mload\n        /* \"#utility.yul\":10028:10091   */\n      tag_331\n        /* \"#utility.yul\":10085:10089   */\n      0x80\n        /* \"#utility.yul\":10080:10083   */\n      dup7\n        /* \"#utility.yul\":10076:10090   */\n      add\n        /* \"#utility.yul\":10062:10074   */\n      dup3\n        /* \"#utility.yul\":10028:10091   */\n      tag_327\n      jump\t// in\n    tag_331:\n        /* \"#utility.yul\":9936:10101   */\n      pop\n        /* \"#utility.yul\":10186:10190   */\n      0xa0\n        /* \"#utility.yul\":10179:10184   */\n      dup4\n        /* \"#utility.yul\":10175:10191   */\n      add\n        /* \"#utility.yul\":10169:10192   */\n      mload\n        /* \"#utility.yul\":10205:10266   */\n      tag_332\n        /* \"#utility.yul\":10260:10264   */\n      0xa0\n        /* \"#utility.yul\":10255:10258   */\n      dup7\n        /* \"#utility.yul\":10251:10265   */\n      add\n        /* \"#utility.yul\":10237:10249   */\n      dup3\n        /* \"#utility.yul\":10205:10266   */\n      tag_333\n      jump\t// in\n    tag_332:\n        /* \"#utility.yul\":10111:10276   */\n      pop\n        /* \"#utility.yul\":10293:10297   */\n      dup1\n        /* \"#utility.yul\":10286:10297   */\n      swap2\n      pop\n        /* \"#utility.yul\":9114:10303   */\n      pop\n        /* \"#utility.yul\":9008:10303   */\n      swap3\n      swap2\n      pop\n      pop\n      jump\t// out\n        /* \"#utility.yul\":10361:11666   */\n    tag_334:\n        /* \"#utility.yul\":10472:10475   */\n      0x00\n        /* \"#utility.yul\":10508:10512   */\n      0xc0\n        /* \"#utility.yul\":10503:10506   */\n      dup4\n        /* \"#utility.yul\":10499:10513   */\n      add\n        /* \"#utility.yul\":10597:10601   */\n      0x00\n        /* \"#utility.yul\":10590:10595   */\n      dup4\n        /* \"#utility.yul\":10586:10602   */\n      add\n        /* \"#utility.yul\":10580:10603   */\n      mload\n        /* \"#utility.yul\":10616:10679   */\n      tag_336\n        /* \"#utility.yul\":10673:10677   */\n      0x00\n        /* \"#utility.yul\":10668:10671   */\n      dup7\n        /* \"#utility.yul\":10664:10678   */\n      add\n        /* \"#utility.yul\":10650:10662   */\n      dup3\n        /* \"#utility.yul\":10616:10679   */\n      tag_327\n      jump\t// in\n    tag_336:\n        /* \"#utility.yul\":10523:10689   */\n      pop\n        /* \"#utility.yul\":10776:10780   */\n      0x20\n        /* \"#utility.yul\":10769:10774   */\n      dup4\n        /* \"#utility.yul\":10765:10781   */\n      add\n        /* \"#utility.yul\":10759:10782   */\n      mload\n        /* \"#utility.yul\":10829:10832   */\n      dup5\n        /* \"#utility.yul\":10823:10827   */\n      dup3\n        /* \"#utility.yul\":10819:10833   */\n      sub\n        /* \"#utility.yul\":10812:10816   */\n      0x20\n        /* \"#utility.yul\":10807:10810   */\n      dup7\n        /* \"#utility.yul\":10803:10817   */\n      add\n        /* \"#utility.yul\":10796:10834   */\n      mstore\n        /* \"#utility.yul\":10855:10928   */\n      tag_337\n        /* \"#utility.yul\":10923:10927   */\n      dup3\n        /* \"#utility.yul\":10909:10921   */\n      dup3\n        /* \"#utility.yul\":10855:10928   */\n      tag_281\n      jump\t// in\n    tag_337:\n        /* \"#utility.yul\":10847:10928   */\n      swap2\n      pop\n        /* \"#utility.yul\":10699:10939   */\n      pop\n        /* \"#utility.yul\":11021:11025   */\n      0x40\n        /* \"#utility.yul\":11014:11019   */\n      dup4\n        /* \"#utility.yul\":11010:11026   */\n      add\n        /* \"#utility.yul\":11004:11027   */\n      mload\n        /* \"#utility.yul\":11040:11103   */\n      tag_338\n        /* \"#utility.yul\":11097:11101   */\n      0x40\n        /* \"#utility.yul\":11092:11095   */\n      dup7\n        /* \"#utility.yul\":11088:11102   */\n      add\n        /* \"#utility.yul\":11074:11086   */\n      dup3\n        /* \"#utility.yul\":11040:11103   */\n      tag_327\n      jump\t// in\n    tag_338:\n        /* \"#utility.yul\":10949:11113   */\n      pop\n        /* \"#utility.yul\":11197:11201   */\n      0x60\n        /* \"#utility.yul\":11190:11195   */\n      dup4\n        /* \"#utility.yul\":11186:11202   */\n      add\n        /* \"#utility.yul\":11180:11203   */\n      mload\n        /* \"#utility.yul\":11216:11279   */\n      tag_339\n        /* \"#utility.yul\":11273:11277   */\n      0x60\n        /* \"#utility.yul\":11268:11271   */\n      dup7\n        /* \"#utility.yul\":11264:11278   */\n      add\n        /* \"#utility.yul\":11250:11262   */\n      dup3\n        /* \"#utility.yul\":11216:11279   */\n      tag_243\n      jump\t// in\n    tag_339:\n        /* \"#utility.yul\":11123:11289   */\n      pop\n        /* \"#utility.yul\":11372:11376   */\n      0x80\n        /* \"#utility.yul\":11365:11370   */\n      dup4\n        /* \"#utility.yul\":11361:11377   */\n      add\n        /* \"#utility.yul\":11355:11378   */\n      mload\n        /* \"#utility.yul\":11391:11454   */\n      tag_340\n        /* \"#utility.yul\":11448:11452   */\n      0x80\n        /* \"#utility.yul\":11443:11446   */\n      dup7\n        /* \"#utility.yul\":11439:11453   */\n      add\n        /* \"#utility.yul\":11425:11437   */\n      dup3\n        /* \"#utility.yul\":11391:11454   */\n      tag_327\n      jump\t// in\n    tag_340:\n        /* \"#utility.yul\":11299:11464   */\n      pop\n        /* \"#utility.yul\":11549:11553   */\n      0xa0\n        /* \"#utility.yul\":11542:11547   */\n      dup4\n        /* \"#utility.yul\":11538:11554   */\n      add\n        /* \"#utility.yul\":11532:11555   */\n      mload\n        /* \"#utility.yul\":11568:11629   */\n      tag_341\n        /* \"#utility.yul\":11623:11627   */\n      0xa0\n        /* \"#utility.yul\":11618:11621   */\n      dup7\n        /* \"#utility.yul\":11614:11628   */\n      add\n        /* \"#utility.yul\":11600:11612   */\n      dup3\n        /* \"#utility.yul\":11568:11629   */\n      tag_333\n      jump\t// in\n    tag_341:\n        /* \"#utility.yul\":11474:11639   */\n      pop\n        /* \"#utility.yul\":11656:11660   */\n      dup1\n        /* \"#utility.yul\":11649:11660   */\n      swap2\n      pop\n        /* \"#utility.yul\":10477:11666   */\n      pop\n        /* \"#utility.yul\":10361:11666   */\n      swap3\n      swap2\n      pop\n      pop\n      jump\t// out\n        /* \"#utility.yul\":11724:13432   */\n    tag_242:\n        /* \"#utility.yul\":11822:11825   */\n      0x00\n        /* \"#utility.yul\":11858:11862   */\n      0xc0\n        /* \"#utility.yul\":11853:11856   */\n      dup4\n        /* \"#utility.yul\":11849:11863   */\n      add\n        /* \"#utility.yul\":11889:11890   */\n      0x00\n        /* \"#utility.yul\":11966:11970   */\n      dup1\n        /* \"#utility.yul\":11959:11964   */\n      dup5\n        /* \"#utility.yul\":11955:11971   */\n      add\n        /* \"#utility.yul\":11949:11972   */\n      sload\n        /* \"#utility.yul\":11936:11972   */\n      swap1\n      pop\n        /* \"#utility.yul\":12005:12060   */\n      tag_343\n        /* \"#utility.yul\":12050:12059   */\n      dup2\n        /* \"#utility.yul\":12005:12060   */\n      tag_344\n      jump\t// in\n    tag_343:\n        /* \"#utility.yul\":12073:12136   */\n      tag_345\n        /* \"#utility.yul\":12130:12134   */\n      0x00\n        /* \"#utility.yul\":12125:12128   */\n      dup8\n        /* \"#utility.yul\":12121:12135   */\n      add\n        /* \"#utility.yul\":12107:12119   */\n      dup3\n        /* \"#utility.yul\":12073:12136   */\n      tag_327\n      jump\t// in\n    tag_345:\n        /* \"#utility.yul\":11900:12146   */\n      pop\n        /* \"#utility.yul\":12227:12231   */\n      0x01\n        /* \"#utility.yul\":12220:12225   */\n      dup5\n        /* \"#utility.yul\":12216:12232   */\n      add\n        /* \"#utility.yul\":12279:12282   */\n      dup6\n        /* \"#utility.yul\":12273:12277   */\n      dup4\n        /* \"#utility.yul\":12269:12283   */\n      sub\n        /* \"#utility.yul\":12262:12266   */\n      0x20\n        /* \"#utility.yul\":12257:12260   */\n      dup8\n        /* \"#utility.yul\":12253:12267   */\n      add\n        /* \"#utility.yul\":12246:12284   */\n      mstore\n        /* \"#utility.yul\":12305:12375   */\n      tag_346\n        /* \"#utility.yul\":12370:12374   */\n      dup4\n        /* \"#utility.yul\":12356:12368   */\n      dup3\n        /* \"#utility.yul\":12305:12375   */\n      tag_298\n      jump\t// in\n    tag_346:\n        /* \"#utility.yul\":12297:12375   */\n      swap3\n      pop\n        /* \"#utility.yul\":12156:12386   */\n      pop\n        /* \"#utility.yul\":12460:12464   */\n      0x02\n        /* \"#utility.yul\":12453:12458   */\n      dup5\n        /* \"#utility.yul\":12449:12465   */\n      add\n        /* \"#utility.yul\":12443:12466   */\n      sload\n        /* \"#utility.yul\":12430:12466   */\n      swap1\n      pop\n        /* \"#utility.yul\":12499:12554   */\n      tag_347\n        /* \"#utility.yul\":12544:12553   */\n      dup2\n        /* \"#utility.yul\":12499:12554   */\n      tag_344\n      jump\t// in\n    tag_347:\n        /* \"#utility.yul\":12567:12630   */\n      tag_348\n        /* \"#utility.yul\":12624:12628   */\n      0x40\n        /* \"#utility.yul\":12619:12622   */\n      dup8\n        /* \"#utility.yul\":12615:12629   */\n      add\n        /* \"#utility.yul\":12601:12613   */\n      dup3\n        /* \"#utility.yul\":12567:12630   */\n      tag_327\n      jump\t// in\n    tag_348:\n        /* \"#utility.yul\":12396:12640   */\n      pop\n        /* \"#utility.yul\":12716:12720   */\n      0x03\n        /* \"#utility.yul\":12709:12714   */\n      dup5\n        /* \"#utility.yul\":12705:12721   */\n      add\n        /* \"#utility.yul\":12699:12722   */\n      sload\n        /* \"#utility.yul\":12686:12722   */\n      swap1\n      pop\n        /* \"#utility.yul\":12755:12810   */\n      tag_349\n        /* \"#utility.yul\":12800:12809   */\n      dup2\n        /* \"#utility.yul\":12755:12810   */\n      tag_350\n      jump\t// in\n    tag_349:\n        /* \"#utility.yul\":12823:12886   */\n      tag_351\n        /* \"#utility.yul\":12880:12884   */\n      0x60\n        /* \"#utility.yul\":12875:12878   */\n      dup8\n        /* \"#utility.yul\":12871:12885   */\n      add\n        /* \"#utility.yul\":12857:12869   */\n      dup3\n        /* \"#utility.yul\":12823:12886   */\n      tag_243\n      jump\t// in\n    tag_351:\n        /* \"#utility.yul\":12650:12896   */\n      pop\n        /* \"#utility.yul\":12971:12975   */\n      0x04\n        /* \"#utility.yul\":12964:12969   */\n      dup5\n        /* \"#utility.yul\":12960:12976   */\n      add\n        /* \"#utility.yul\":12954:12977   */\n      sload\n        /* \"#utility.yul\":12941:12977   */\n      swap1\n      pop\n        /* \"#utility.yul\":13010:13065   */\n      tag_352\n        /* \"#utility.yul\":13055:13064   */\n      dup2\n        /* \"#utility.yul\":13010:13065   */\n      tag_344\n      jump\t// in\n    tag_352:\n        /* \"#utility.yul\":13078:13141   */\n      tag_353\n        /* \"#utility.yul\":13135:13139   */\n      0x80\n        /* \"#utility.yul\":13130:13133   */\n      dup8\n        /* \"#utility.yul\":13126:13140   */\n      add\n        /* \"#utility.yul\":13112:13124   */\n      dup3\n        /* \"#utility.yul\":13078:13141   */\n      tag_327\n      jump\t// in\n    tag_353:\n        /* \"#utility.yul\":12906:13151   */\n      pop\n        /* \"#utility.yul\":13228:13232   */\n      0x05\n        /* \"#utility.yul\":13221:13226   */\n      dup5\n        /* \"#utility.yul\":13217:13233   */\n      add\n        /* \"#utility.yul\":13211:13234   */\n      sload\n        /* \"#utility.yul\":13198:13234   */\n      swap1\n      pop\n        /* \"#utility.yul\":13267:13321   */\n      tag_354\n        /* \"#utility.yul\":13311:13320   */\n      dup2\n        /* \"#utility.yul\":13267:13321   */\n      tag_355\n      jump\t// in\n    tag_354:\n        /* \"#utility.yul\":13334:13395   */\n      tag_356\n        /* \"#utility.yul\":13389:13393   */\n      0xa0\n        /* \"#utility.yul\":13384:13387   */\n      dup8\n        /* \"#utility.yul\":13380:13394   */\n      add\n        /* \"#utility.yul\":13366:13378   */\n      dup3\n        /* \"#utility.yul\":13334:13395   */\n      tag_333\n      jump\t// in\n    tag_356:\n        /* \"#utility.yul\":13161:13405   */\n      pop\n        /* \"#utility.yul\":13422:13426   */\n      dup2\n        /* \"#utility.yul\":13415:13426   */\n      swap3\n      pop\n        /* \"#utility.yul\":11827:13432   */\n      pop\n      pop\n        /* \"#utility.yul\":11724:13432   */\n      swap3\n      swap2\n      pop\n      pop\n      jump\t// out\n        /* \"#utility.yul\":13490:15208   */\n    tag_357:\n        /* \"#utility.yul\":13598:13601   */\n      0x00\n        /* \"#utility.yul\":13634:13638   */\n      0xc0\n        /* \"#utility.yul\":13629:13632   */\n      dup4\n        /* \"#utility.yul\":13625:13639   */\n      add\n        /* \"#utility.yul\":13665:13666   */\n      0x00\n        /* \"#utility.yul\":13742:13746   */\n      dup1\n        /* \"#utility.yul\":13735:13740   */\n      dup5\n        /* \"#utility.yul\":13731:13747   */\n      add\n        /* \"#utility.yul\":13725:13748   */\n      sload\n        /* \"#utility.yul\":13712:13748   */\n      swap1\n      pop\n        /* \"#utility.yul\":13781:13836   */\n      tag_359\n        /* \"#utility.yul\":13826:13835   */\n      dup2\n        /* \"#utility.yul\":13781:13836   */\n      tag_344\n      jump\t// in\n    tag_359:\n        /* \"#utility.yul\":13849:13912   */\n      tag_360\n        /* \"#utility.yul\":13906:13910   */\n      0x00\n        /* \"#utility.yul\":13901:13904   */\n      dup8\n        /* \"#utility.yul\":13897:13911   */\n      add\n        /* \"#utility.yul\":13883:13895   */\n      dup3\n        /* \"#utility.yul\":13849:13912   */\n      tag_327\n      jump\t// in\n    tag_360:\n        /* \"#utility.yul\":13676:13922   */\n      pop\n        /* \"#utility.yul\":14003:14007   */\n      0x01\n        /* \"#utility.yul\":13996:14001   */\n      dup5\n        /* \"#utility.yul\":13992:14008   */\n      add\n        /* \"#utility.yul\":14055:14058   */\n      dup6\n        /* \"#utility.yul\":14049:14053   */\n      dup4\n        /* \"#utility.yul\":14045:14059   */\n      sub\n        /* \"#utility.yul\":14038:14042   */\n      0x20\n        /* \"#utility.yul\":14033:14036   */\n      dup8\n        /* \"#utility.yul\":14029:14043   */\n      add\n        /* \"#utility.yul\":14022:14060   */\n      mstore\n        /* \"#utility.yul\":14081:14151   */\n      tag_361\n        /* \"#utility.yul\":14146:14150   */\n      dup4\n        /* \"#utility.yul\":14132:14144   */\n      dup3\n        /* \"#utility.yul\":14081:14151   */\n      tag_298\n      jump\t// in\n    tag_361:\n        /* \"#utility.yul\":14073:14151   */\n      swap3\n      pop\n        /* \"#utility.yul\":13932:14162   */\n      pop\n        /* \"#utility.yul\":14236:14240   */\n      0x02\n        /* \"#utility.yul\":14229:14234   */\n      dup5\n        /* \"#utility.yul\":14225:14241   */\n      add\n        /* \"#utility.yul\":14219:14242   */\n      sload\n        /* \"#utility.yul\":14206:14242   */\n      swap1\n      pop\n        /* \"#utility.yul\":14275:14330   */\n      tag_362\n        /* \"#utility.yul\":14320:14329   */\n      dup2\n        /* \"#utility.yul\":14275:14330   */\n      tag_344\n      jump\t// in\n    tag_362:\n        /* \"#utility.yul\":14343:14406   */\n      tag_363\n        /* \"#utility.yul\":14400:14404   */\n      0x40\n        /* \"#utility.yul\":14395:14398   */\n      dup8\n        /* \"#utility.yul\":14391:14405   */\n      add\n        /* \"#utility.yul\":14377:14389   */\n      dup3\n        /* \"#utility.yul\":14343:14406   */\n      tag_327\n      jump\t// in\n    tag_363:\n        /* \"#utility.yul\":14172:14416   */\n      pop\n        /* \"#utility.yul\":14492:14496   */\n      0x03\n        /* \"#utility.yul\":14485:14490   */\n      dup5\n        /* \"#utility.yul\":14481:14497   */\n      add\n        /* \"#utility.yul\":14475:14498   */\n      sload\n        /* \"#utility.yul\":14462:14498   */\n      swap1\n      pop\n        /* \"#utility.yul\":14531:14586   */\n      tag_364\n        /* \"#utility.yul\":14576:14585   */\n      dup2\n        /* \"#utility.yul\":14531:14586   */\n      tag_350\n      jump\t// in\n    tag_364:\n        /* \"#utility.yul\":14599:14662   */\n      tag_365\n        /* \"#utility.yul\":14656:14660   */\n      0x60\n        /* \"#utility.yul\":14651:14654   */\n      dup8\n        /* \"#utility.yul\":14647:14661   */\n      add\n        /* \"#utility.yul\":14633:14645   */\n      dup3\n        /* \"#utility.yul\":14599:14662   */\n      tag_243\n      jump\t// in\n    tag_365:\n        /* \"#utility.yul\":14426:14672   */\n      pop\n        /* \"#utility.yul\":14747:14751   */\n      0x04\n        /* \"#utility.yul\":14740:14745   */\n      dup5\n        /* \"#utility.yul\":14736:14752   */\n      add\n        /* \"#utility.yul\":14730:14753   */\n      sload\n        /* \"#utility.yul\":14717:14753   */\n      swap1\n      pop\n        /* \"#utility.yul\":14786:14841   */\n      tag_366\n        /* \"#utility.yul\":14831:14840   */\n      dup2\n        /* \"#utility.yul\":14786:14841   */\n      tag_344\n      jump\t// in\n    tag_366:\n        /* \"#utility.yul\":14854:14917   */\n      tag_367\n        /* \"#utility.yul\":14911:14915   */\n      0x80\n        /* \"#utility.yul\":14906:14909   */\n      dup8\n        /* \"#utility.yul\":14902:14916   */\n      add\n        /* \"#utility.yul\":14888:14900   */\n      dup3\n        /* \"#utility.yul\":14854:14917   */\n      tag_327\n      jump\t// in\n    tag_367:\n        /* \"#utility.yul\":14682:14927   */\n      pop\n        /* \"#utility.yul\":15004:15008   */\n      0x05\n        /* \"#utility.yul\":14997:15002   */\n      dup5\n        /* \"#utility.yul\":14993:15009   */\n      add\n        /* \"#utility.yul\":14987:15010   */\n      sload\n        /* \"#utility.yul\":14974:15010   */\n      swap1\n      pop\n        /* \"#utility.yul\":15043:15097   */\n      tag_368\n        /* \"#utility.yul\":15087:15096   */\n      dup2\n        /* \"#utility.yul\":15043:15097   */\n      tag_355\n      jump\t// in\n    tag_368:\n        /* \"#utility.yul\":15110:15171   */\n      tag_369\n        /* \"#utility.yul\":15165:15169   */\n      0xa0\n        /* \"#utility.yul\":15160:15163   */\n      dup8\n        /* \"#utility.yul\":15156:15170   */\n      add\n        /* \"#utility.yul\":15142:15154   */\n      dup3\n        /* \"#utility.yul\":15110:15171   */\n      tag_333\n      jump\t// in\n    tag_369:\n        /* \"#utility.yul\":14937:15181   */\n      pop\n        /* \"#utility.yul\":15198:15202   */\n      dup2\n        /* \"#utility.yul\":15191:15202   */\n      swap3\n      pop\n        /* \"#utility.yul\":13603:15208   */\n      pop\n      pop\n        /* \"#utility.yul\":13490:15208   */\n      swap3\n      swap2\n      pop\n      pop\n      jump\t// out\n        /* \"#utility.yul\":15214:15322   */\n    tag_327:\n        /* \"#utility.yul\":15291:15315   */\n      tag_371\n        /* \"#utility.yul\":15309:15314   */\n      dup2\n        /* \"#utility.yul\":15291:15315   */\n      tag_372\n      jump\t// in\n    tag_371:\n        /* \"#utility.yul\":15286:15289   */\n      dup3\n        /* \"#utility.yul\":15279:15316   */\n      mstore\n        /* \"#utility.yul\":15214:15322   */\n      pop\n      pop\n      jump\t// out\n        /* \"#utility.yul\":15328:15446   */\n    tag_373:\n        /* \"#utility.yul\":15415:15439   */\n      tag_375\n        /* \"#utility.yul\":15433:15438   */\n      dup2\n        /* \"#utility.yul\":15415:15439   */\n      tag_372\n      jump\t// in\n    tag_375:\n        /* \"#utility.yul\":15410:15413   */\n      dup3\n        /* \"#utility.yul\":15403:15440   */\n      mstore\n        /* \"#utility.yul\":15328:15446   */\n      pop\n      pop\n      jump\t// out\n        /* \"#utility.yul\":15452:15557   */\n    tag_333:\n        /* \"#utility.yul\":15527:15550   */\n      tag_377\n        /* \"#utility.yul\":15544:15549   */\n      dup2\n        /* \"#utility.yul\":15527:15550   */\n      tag_378\n      jump\t// in\n    tag_377:\n        /* \"#utility.yul\":15522:15525   */\n      dup3\n        /* \"#utility.yul\":15515:15551   */\n      mstore\n        /* \"#utility.yul\":15452:15557   */\n      pop\n      pop\n      jump\t// out\n        /* \"#utility.yul\":15563:15678   */\n    tag_379:\n        /* \"#utility.yul\":15648:15671   */\n      tag_381\n        /* \"#utility.yul\":15665:15670   */\n      dup2\n        /* \"#utility.yul\":15648:15671   */\n      tag_378\n      jump\t// in\n    tag_381:\n        /* \"#utility.yul\":15643:15646   */\n      dup3\n        /* \"#utility.yul\":15636:15672   */\n      mstore\n        /* \"#utility.yul\":15563:15678   */\n      pop\n      pop\n      jump\t// out\n        /* \"#utility.yul\":15684:16141   */\n    tag_30:\n        /* \"#utility.yul\":15869:15873   */\n      0x00\n        /* \"#utility.yul\":15907:15909   */\n      0x20\n        /* \"#utility.yul\":15896:15905   */\n      dup3\n        /* \"#utility.yul\":15892:15910   */\n      add\n        /* \"#utility.yul\":15884:15910   */\n      swap1\n      pop\n        /* \"#utility.yul\":15956:15965   */\n      dup2\n        /* \"#utility.yul\":15950:15954   */\n      dup2\n        /* \"#utility.yul\":15946:15966   */\n      sub\n        /* \"#utility.yul\":15942:15943   */\n      0x00\n        /* \"#utility.yul\":15931:15940   */\n      dup4\n        /* \"#utility.yul\":15927:15944   */\n      add\n        /* \"#utility.yul\":15920:15967   */\n      mstore\n        /* \"#utility.yul\":15984:16134   */\n      tag_383\n        /* \"#utility.yul\":16129:16133   */\n      dup2\n        /* \"#utility.yul\":16120:16126   */\n      dup5\n        /* \"#utility.yul\":15984:16134   */\n      tag_250\n      jump\t// in\n    tag_383:\n        /* \"#utility.yul\":15976:16134   */\n      swap1\n      pop\n        /* \"#utility.yul\":15684:16141   */\n      swap3\n      swap2\n      pop\n      pop\n      jump\t// out\n        /* \"#utility.yul\":16147:16592   */\n    tag_107:\n        /* \"#utility.yul\":16326:16330   */\n      0x00\n        /* \"#utility.yul\":16364:16366   */\n      0x20\n        /* \"#utility.yul\":16353:16362   */\n      dup3\n        /* \"#utility.yul\":16349:16367   */\n      add\n        /* \"#utility.yul\":16341:16367   */\n      swap1\n      pop\n        /* \"#utility.yul\":16413:16422   */\n      dup2\n        /* \"#utility.yul\":16407:16411   */\n      dup2\n        /* \"#utility.yul\":16403:16423   */\n      sub\n        /* \"#utility.yul\":16399:16400   */\n      0x00\n        /* \"#utility.yul\":16388:16397   */\n      dup4\n        /* \"#utility.yul\":16384:16401   */\n      add\n        /* \"#utility.yul\":16377:16424   */\n      mstore\n        /* \"#utility.yul\":16441:16585   */\n      tag_385\n        /* \"#utility.yul\":16580:16584   */\n      dup2\n        /* \"#utility.yul\":16571:16577   */\n      dup5\n        /* \"#utility.yul\":16441:16585   */\n      tag_264\n      jump\t// in\n    tag_385:\n        /* \"#utility.yul\":16433:16585   */\n      swap1\n      pop\n        /* \"#utility.yul\":16147:16592   */\n      swap3\n      swap2\n      pop\n      pop\n      jump\t// out\n        /* \"#utility.yul\":16598:16848   */\n    tag_58:\n        /* \"#utility.yul\":16705:16709   */\n      0x00\n        /* \"#utility.yul\":16743:16745   */\n      0x20\n        /* \"#utility.yul\":16732:16741   */\n      dup3\n        /* \"#utility.yul\":16728:16746   */\n      add\n        /* \"#utility.yul\":16720:16746   */\n      swap1\n      pop\n        /* \"#utility.yul\":16756:16841   */\n      tag_387\n        /* \"#utility.yul\":16838:16839   */\n      0x00\n        /* \"#utility.yul\":16827:16836   */\n      dup4\n        /* \"#utility.yul\":16823:16840   */\n      add\n        /* \"#utility.yul\":16814:16820   */\n      dup5\n        /* \"#utility.yul\":16756:16841   */\n      tag_277\n      jump\t// in\n    tag_387:\n        /* \"#utility.yul\":16598:16848   */\n      swap3\n      swap2\n      pop\n      pop\n      jump\t// out\n        /* \"#utility.yul\":16854:17273   */\n    tag_104:\n        /* \"#utility.yul\":17020:17024   */\n      0x00\n        /* \"#utility.yul\":17058:17060   */\n      0x20\n        /* \"#utility.yul\":17047:17056   */\n      dup3\n        /* \"#utility.yul\":17043:17061   */\n      add\n        /* \"#utility.yul\":17035:17061   */\n      swap1\n      pop\n        /* \"#utility.yul\":17107:17116   */\n      dup2\n        /* \"#utility.yul\":17101:17105   */\n      dup2\n        /* \"#utility.yul\":17097:17117   */\n      sub\n        /* \"#utility.yul\":17093:17094   */\n      0x00\n        /* \"#utility.yul\":17082:17091   */\n      dup4\n        /* \"#utility.yul\":17078:17095   */\n      add\n        /* \"#utility.yul\":17071:17118   */\n      mstore\n        /* \"#utility.yul\":17135:17266   */\n      tag_389\n        /* \"#utility.yul\":17261:17265   */\n      dup2\n        /* \"#utility.yul\":17135:17266   */\n      tag_310\n      jump\t// in\n    tag_389:\n        /* \"#utility.yul\":17127:17266   */\n      swap1\n      pop\n        /* \"#utility.yul\":16854:17273   */\n      swap2\n      swap1\n      pop\n      jump\t// out\n        /* \"#utility.yul\":17279:17698   */\n    tag_150:\n        /* \"#utility.yul\":17445:17449   */\n      0x00\n        /* \"#utility.yul\":17483:17485   */\n      0x20\n        /* \"#utility.yul\":17472:17481   */\n      dup3\n        /* \"#utility.yul\":17468:17486   */\n      add\n        /* \"#utility.yul\":17460:17486   */\n      swap1\n      pop\n        /* \"#utility.yul\":17532:17541   */\n      dup2\n        /* \"#utility.yul\":17526:17530   */\n      dup2\n        /* \"#utility.yul\":17522:17542   */\n      sub\n        /* \"#utility.yul\":17518:17519   */\n      0x00\n        /* \"#utility.yul\":17507:17516   */\n      dup4\n        /* \"#utility.yul\":17503:17520   */\n      add\n        /* \"#utility.yul\":17496:17543   */\n      mstore\n        /* \"#utility.yul\":17560:17691   */\n      tag_391\n        /* \"#utility.yul\":17686:17690   */\n      dup2\n        /* \"#utility.yul\":17560:17691   */\n      tag_315\n      jump\t// in\n    tag_391:\n        /* \"#utility.yul\":17552:17691   */\n      swap1\n      pop\n        /* \"#utility.yul\":17279:17698   */\n      swap2\n      swap1\n      pop\n      jump\t// out\n        /* \"#utility.yul\":17704:18123   */\n    tag_139:\n        /* \"#utility.yul\":17870:17874   */\n      0x00\n        /* \"#utility.yul\":17908:17910   */\n      0x20\n        /* \"#utility.yul\":17897:17906   */\n      dup3\n        /* \"#utility.yul\":17893:17911   */\n      add\n        /* \"#utility.yul\":17885:17911   */\n      swap1\n      pop\n        /* \"#utility.yul\":17957:17966   */\n      dup2\n        /* \"#utility.yul\":17951:17955   */\n      dup2\n        /* \"#utility.yul\":17947:17967   */\n      sub\n        /* \"#utility.yul\":17943:17944   */\n      0x00\n        /* \"#utility.yul\":17932:17941   */\n      dup4\n        /* \"#utility.yul\":17928:17945   */\n      add\n        /* \"#utility.yul\":17921:17968   */\n      mstore\n        /* \"#utility.yul\":17985:18116   */\n      tag_393\n        /* \"#utility.yul\":18111:18115   */\n      dup2\n        /* \"#utility.yul\":17985:18116   */\n      tag_320\n      jump\t// in\n    tag_393:\n        /* \"#utility.yul\":17977:18116   */\n      swap1\n      pop\n        /* \"#utility.yul\":17704:18123   */\n      swap2\n      swap1\n      pop\n      jump\t// out\n        /* \"#utility.yul\":18129:18486   */\n    tag_48:\n        /* \"#utility.yul\":18264:18268   */\n      0x00\n        /* \"#utility.yul\":18302:18304   */\n      0x20\n        /* \"#utility.yul\":18291:18300   */\n      dup3\n        /* \"#utility.yul\":18287:18305   */\n      add\n        /* \"#utility.yul\":18279:18305   */\n      swap1\n      pop\n        /* \"#utility.yul\":18351:18360   */\n      dup2\n        /* \"#utility.yul\":18345:18349   */\n      dup2\n        /* \"#utility.yul\":18341:18361   */\n      sub\n        /* \"#utility.yul\":18337:18338   */\n      0x00\n        /* \"#utility.yul\":18326:18335   */\n      dup4\n        /* \"#utility.yul\":18322:18339   */\n      add\n        /* \"#utility.yul\":18315:18362   */\n      mstore\n        /* \"#utility.yul\":18379:18479   */\n      tag_395\n        /* \"#utility.yul\":18474:18478   */\n      dup2\n        /* \"#utility.yul\":18465:18471   */\n      dup5\n        /* \"#utility.yul\":18379:18479   */\n      tag_334\n      jump\t// in\n    tag_395:\n        /* \"#utility.yul\":18371:18479   */\n      swap1\n      pop\n        /* \"#utility.yul\":18129:18486   */\n      swap3\n      swap2\n      pop\n      pop\n      jump\t// out\n        /* \"#utility.yul\":18492:18714   */\n    tag_54:\n        /* \"#utility.yul\":18585:18589   */\n      0x00\n        /* \"#utility.yul\":18623:18625   */\n      0x20\n        /* \"#utility.yul\":18612:18621   */\n      dup3\n        /* \"#utility.yul\":18608:18626   */\n      add\n        /* \"#utility.yul\":18600:18626   */\n      swap1\n      pop\n        /* \"#utility.yul\":18636:18707   */\n      tag_397\n        /* \"#utility.yul\":18704:18705   */\n      0x00\n        /* \"#utility.yul\":18693:18702   */\n      dup4\n        /* \"#utility.yul\":18689:18706   */\n      add\n        /* \"#utility.yul\":18680:18686   */\n      dup5\n        /* \"#utility.yul\":18636:18707   */\n      tag_373\n      jump\t// in\n    tag_397:\n        /* \"#utility.yul\":18492:18714   */\n      swap3\n      swap2\n      pop\n      pop\n      jump\t// out\n        /* \"#utility.yul\":18720:19455   */\n    tag_36:\n        /* \"#utility.yul\":18937:18941   */\n      0x00\n        /* \"#utility.yul\":18975:18978   */\n      0x80\n        /* \"#utility.yul\":18964:18973   */\n      dup3\n        /* \"#utility.yul\":18960:18979   */\n      add\n        /* \"#utility.yul\":18952:18979   */\n      swap1\n      pop\n        /* \"#utility.yul\":18989:19060   */\n      tag_399\n        /* \"#utility.yul\":19057:19058   */\n      0x00\n        /* \"#utility.yul\":19046:19055   */\n      dup4\n        /* \"#utility.yul\":19042:19059   */\n      add\n        /* \"#utility.yul\":19033:19039   */\n      dup8\n        /* \"#utility.yul\":18989:19060   */\n      tag_373\n      jump\t// in\n    tag_399:\n        /* \"#utility.yul\":19107:19116   */\n      dup2\n        /* \"#utility.yul\":19101:19105   */\n      dup2\n        /* \"#utility.yul\":19097:19117   */\n      sub\n        /* \"#utility.yul\":19092:19094   */\n      0x20\n        /* \"#utility.yul\":19081:19090   */\n      dup4\n        /* \"#utility.yul\":19077:19095   */\n      add\n        /* \"#utility.yul\":19070:19118   */\n      mstore\n        /* \"#utility.yul\":19135:19213   */\n      tag_400\n        /* \"#utility.yul\":19208:19212   */\n      dup2\n        /* \"#utility.yul\":19199:19205   */\n      dup7\n        /* \"#utility.yul\":19135:19213   */\n      tag_291\n      jump\t// in\n    tag_400:\n        /* \"#utility.yul\":19127:19213   */\n      swap1\n      pop\n        /* \"#utility.yul\":19260:19269   */\n      dup2\n        /* \"#utility.yul\":19254:19258   */\n      dup2\n        /* \"#utility.yul\":19250:19270   */\n      sub\n        /* \"#utility.yul\":19245:19247   */\n      0x40\n        /* \"#utility.yul\":19234:19243   */\n      dup4\n        /* \"#utility.yul\":19230:19248   */\n      add\n        /* \"#utility.yul\":19223:19271   */\n      mstore\n        /* \"#utility.yul\":19288:19366   */\n      tag_401\n        /* \"#utility.yul\":19361:19365   */\n      dup2\n        /* \"#utility.yul\":19352:19358   */\n      dup6\n        /* \"#utility.yul\":19288:19366   */\n      tag_291\n      jump\t// in\n    tag_401:\n        /* \"#utility.yul\":19280:19366   */\n      swap1\n      pop\n        /* \"#utility.yul\":19376:19448   */\n      tag_402\n        /* \"#utility.yul\":19444:19446   */\n      0x60\n        /* \"#utility.yul\":19433:19442   */\n      dup4\n        /* \"#utility.yul\":19429:19447   */\n      add\n        /* \"#utility.yul\":19420:19426   */\n      dup5\n        /* \"#utility.yul\":19376:19448   */\n      tag_373\n      jump\t// in\n    tag_402:\n        /* \"#utility.yul\":18720:19455   */\n      swap6\n      swap5\n      pop\n      pop\n      pop\n      pop\n      pop\n      jump\t// out\n        /* \"#utility.yul\":19461:20323   */\n    tag_22:\n        /* \"#utility.yul\":19712:19716   */\n      0x00\n        /* \"#utility.yul\":19750:19753   */\n      0xc0\n        /* \"#utility.yul\":19739:19748   */\n      dup3\n        /* \"#utility.yul\":19735:19754   */\n      add\n        /* \"#utility.yul\":19727:19754   */\n      swap1\n      pop\n        /* \"#utility.yul\":19764:19835   */\n      tag_404\n        /* \"#utility.yul\":19832:19833   */\n      0x00\n        /* \"#utility.yul\":19821:19830   */\n      dup4\n        /* \"#utility.yul\":19817:19834   */\n      add\n        /* \"#utility.yul\":19808:19814   */\n      dup10\n        /* \"#utility.yul\":19764:19835   */\n      tag_373\n      jump\t// in\n    tag_404:\n        /* \"#utility.yul\":19882:19891   */\n      dup2\n        /* \"#utility.yul\":19876:19880   */\n      dup2\n        /* \"#utility.yul\":19872:19892   */\n      sub\n        /* \"#utility.yul\":19867:19869   */\n      0x20\n        /* \"#utility.yul\":19856:19865   */\n      dup4\n        /* \"#utility.yul\":19852:19870   */\n      add\n        /* \"#utility.yul\":19845:19893   */\n      mstore\n        /* \"#utility.yul\":19910:19988   */\n      tag_405\n        /* \"#utility.yul\":19983:19987   */\n      dup2\n        /* \"#utility.yul\":19974:19980   */\n      dup9\n        /* \"#utility.yul\":19910:19988   */\n      tag_291\n      jump\t// in\n    tag_405:\n        /* \"#utility.yul\":19902:19988   */\n      swap1\n      pop\n        /* \"#utility.yul\":19998:20070   */\n      tag_406\n        /* \"#utility.yul\":20066:20068   */\n      0x40\n        /* \"#utility.yul\":20055:20064   */\n      dup4\n        /* \"#utility.yul\":20051:20069   */\n      add\n        /* \"#utility.yul\":20042:20048   */\n      dup8\n        /* \"#utility.yul\":19998:20070   */\n      tag_373\n      jump\t// in\n    tag_406:\n        /* \"#utility.yul\":20080:20152   */\n      tag_407\n        /* \"#utility.yul\":20148:20150   */\n      0x60\n        /* \"#utility.yul\":20137:20146   */\n      dup4\n        /* \"#utility.yul\":20133:20151   */\n      add\n        /* \"#utility.yul\":20124:20130   */\n      dup7\n        /* \"#utility.yul\":20080:20152   */\n      tag_247\n      jump\t// in\n    tag_407:\n        /* \"#utility.yul\":20162:20235   */\n      tag_408\n        /* \"#utility.yul\":20230:20233   */\n      0x80\n        /* \"#utility.yul\":20219:20228   */\n      dup4\n        /* \"#utility.yul\":20215:20234   */\n      add\n        /* \"#utility.yul\":20206:20212   */\n      dup6\n        /* \"#utility.yul\":20162:20235   */\n      tag_373\n      jump\t// in\n    tag_408:\n        /* \"#utility.yul\":20245:20316   */\n      tag_409\n        /* \"#utility.yul\":20311:20314   */\n      0xa0\n        /* \"#utility.yul\":20300:20309   */\n      dup4\n        /* \"#utility.yul\":20296:20315   */\n      add\n        /* \"#utility.yul\":20287:20293   */\n      dup5\n        /* \"#utility.yul\":20245:20316   */\n      tag_379\n      jump\t// in\n    tag_409:\n        /* \"#utility.yul\":19461:20323   */\n      swap8\n      swap7\n      pop\n      pop\n      pop\n      pop\n      pop\n      pop\n      pop\n      jump\t// out\n        /* \"#utility.yul\":20329:20790   */\n    tag_153:\n        /* \"#utility.yul\":20489:20493   */\n      0x00\n        /* \"#utility.yul\":20527:20529   */\n      0x40\n        /* \"#utility.yul\":20516:20525   */\n      dup3\n        /* \"#utility.yul\":20512:20530   */\n      add\n        /* \"#utility.yul\":20504:20530   */\n      swap1\n      pop\n        /* \"#utility.yul\":20540:20611   */\n      tag_411\n        /* \"#utility.yul\":20608:20609   */\n      0x00\n        /* \"#utility.yul\":20597:20606   */\n      dup4\n        /* \"#utility.yul\":20593:20610   */\n      add\n        /* \"#utility.yul\":20584:20590   */\n      dup6\n        /* \"#utility.yul\":20540:20611   */\n      tag_373\n      jump\t// in\n    tag_411:\n        /* \"#utility.yul\":20658:20667   */\n      dup2\n        /* \"#utility.yul\":20652:20656   */\n      dup2\n        /* \"#utility.yul\":20648:20668   */\n      sub\n        /* \"#utility.yul\":20643:20645   */\n      0x20\n        /* \"#utility.yul\":20632:20641   */\n      dup4\n        /* \"#utility.yul\":20628:20646   */\n      add\n        /* \"#utility.yul\":20621:20669   */\n      mstore\n        /* \"#utility.yul\":20686:20783   */\n      tag_412\n        /* \"#utility.yul\":20778:20782   */\n      dup2\n        /* \"#utility.yul\":20769:20775   */\n      dup5\n        /* \"#utility.yul\":20686:20783   */\n      tag_357\n      jump\t// in\n    tag_412:\n        /* \"#utility.yul\":20678:20783   */\n      swap1\n      pop\n        /* \"#utility.yul\":20329:20790   */\n      swap4\n      swap3\n      pop\n      pop\n      pop\n      jump\t// out\n        /* \"#utility.yul\":20796:21128   */\n    tag_71:\n        /* \"#utility.yul\":20917:20921   */\n      0x00\n        /* \"#utility.yul\":20955:20957   */\n      0x40\n        /* \"#utility.yul\":20944:20953   */\n      dup3\n        /* \"#utility.yul\":20940:20958   */\n      add\n        /* \"#utility.yul\":20932:20958   */\n      swap1\n      pop\n        /* \"#utility.yul\":20968:21039   */\n      tag_414\n        /* \"#utility.yul\":21036:21037   */\n      0x00\n        /* \"#utility.yul\":21025:21034   */\n      dup4\n        /* \"#utility.yul\":21021:21038   */\n      add\n        /* \"#utility.yul\":21012:21018   */\n      dup6\n        /* \"#utility.yul\":20968:21039   */\n      tag_373\n      jump\t// in\n    tag_414:\n        /* \"#utility.yul\":21049:21121   */\n      tag_415\n        /* \"#utility.yul\":21117:21119   */\n      0x20\n        /* \"#utility.yul\":21106:21115   */\n      dup4\n        /* \"#utility.yul\":21102:21120   */\n      add\n        /* \"#utility.yul\":21093:21099   */\n      dup5\n        /* \"#utility.yul\":21049:21121   */\n      tag_373\n      jump\t// in\n    tag_415:\n        /* \"#utility.yul\":20796:21128   */\n      swap4\n      swap3\n      pop\n      pop\n      pop\n      jump\t// out\n        /* \"#utility.yul\":21134:21885   */\n    tag_99:\n        /* \"#utility.yul\":21357:21361   */\n      0x00\n        /* \"#utility.yul\":21395:21398   */\n      0xa0\n        /* \"#utility.yul\":21384:21393   */\n      dup3\n        /* \"#utility.yul\":21380:21399   */\n      add\n        /* \"#utility.yul\":21372:21399   */\n      swap1\n      pop\n        /* \"#utility.yul\":21409:21480   */\n      tag_417\n        /* \"#utility.yul\":21477:21478   */\n      0x00\n        /* \"#utility.yul\":21466:21475   */\n      dup4\n        /* \"#utility.yul\":21462:21479   */\n      add\n        /* \"#utility.yul\":21453:21459   */\n      dup9\n        /* \"#utility.yul\":21409:21480   */\n      tag_373\n      jump\t// in\n    tag_417:\n        /* \"#utility.yul\":21490:21562   */\n      tag_418\n        /* \"#utility.yul\":21558:21560   */\n      0x20\n        /* \"#utility.yul\":21547:21556   */\n      dup4\n        /* \"#utility.yul\":21543:21561   */\n      add\n        /* \"#utility.yul\":21534:21540   */\n      dup8\n        /* \"#utility.yul\":21490:21562   */\n      tag_373\n      jump\t// in\n    tag_418:\n        /* \"#utility.yul\":21609:21618   */\n      dup2\n        /* \"#utility.yul\":21603:21607   */\n      dup2\n        /* \"#utility.yul\":21599:21619   */\n      sub\n        /* \"#utility.yul\":21594:21596   */\n      0x40\n        /* \"#utility.yul\":21583:21592   */\n      dup4\n        /* \"#utility.yul\":21579:21597   */\n      add\n        /* \"#utility.yul\":21572:21620   */\n      mstore\n        /* \"#utility.yul\":21637:21715   */\n      tag_419\n        /* \"#utility.yul\":21710:21714   */\n      dup2\n        /* \"#utility.yul\":21701:21707   */\n      dup7\n        /* \"#utility.yul\":21637:21715   */\n      tag_291\n      jump\t// in\n    tag_419:\n        /* \"#utility.yul\":21629:21715   */\n      swap1\n      pop\n        /* \"#utility.yul\":21725:21795   */\n      tag_420\n        /* \"#utility.yul\":21791:21793   */\n      0x60\n        /* \"#utility.yul\":21780:21789   */\n      dup4\n        /* \"#utility.yul\":21776:21794   */\n      add\n        /* \"#utility.yul\":21767:21773   */\n      dup6\n        /* \"#utility.yul\":21725:21795   */\n      tag_379\n      jump\t// in\n    tag_420:\n        /* \"#utility.yul\":21805:21878   */\n      tag_421\n        /* \"#utility.yul\":21873:21876   */\n      0x80\n        /* \"#utility.yul\":21862:21871   */\n      dup4\n        /* \"#utility.yul\":21858:21877   */\n      add\n        /* \"#utility.yul\":21849:21855   */\n      dup5\n        /* \"#utility.yul\":21805:21878   */\n      tag_373\n      jump\t// in\n    tag_421:\n        /* \"#utility.yul\":21134:21885   */\n      swap7\n      swap6\n      pop\n      pop\n      pop\n      pop\n      pop\n      pop\n      jump\t// out\n        /* \"#utility.yul\":21891:22020   */\n    tag_188:\n        /* \"#utility.yul\":21925:21931   */\n      0x00\n        /* \"#utility.yul\":21952:21972   */\n      tag_423\n      tag_424\n      jump\t// in\n    tag_423:\n        /* \"#utility.yul\":21942:21972   */\n      swap1\n      pop\n        /* \"#utility.yul\":21981:22014   */\n      tag_425\n        /* \"#utility.yul\":22009:22013   */\n      dup3\n        /* \"#utility.yul\":22001:22007   */\n      dup3\n        /* \"#utility.yul\":21981:22014   */\n      tag_426\n      jump\t// in\n    tag_425:\n        /* \"#utility.yul\":21891:22020   */\n      swap2\n      swap1\n      pop\n      jump\t// out\n        /* \"#utility.yul\":22026:22101   */\n    tag_424:\n        /* \"#utility.yul\":22059:22065   */\n      0x00\n        /* \"#utility.yul\":22092:22094   */\n      0x40\n        /* \"#utility.yul\":22086:22095   */\n      mload\n        /* \"#utility.yul\":22076:22095   */\n      swap1\n      pop\n        /* \"#utility.yul\":22026:22101   */\n      swap1\n      jump\t// out\n        /* \"#utility.yul\":22107:22415   */\n    tag_187:\n        /* \"#utility.yul\":22169:22173   */\n      0x00\n        /* \"#utility.yul\":22259:22277   */\n      0xffffffffffffffff\n        /* \"#utility.yul\":22251:22257   */\n      dup3\n        /* \"#utility.yul\":22248:22278   */\n      gt\n        /* \"#utility.yul\":22245:22301   */\n      iszero\n      tag_429\n      jumpi\n        /* \"#utility.yul\":22281:22299   */\n      tag_430\n      tag_431\n      jump\t// in\n    tag_430:\n        /* \"#utility.yul\":22245:22301   */\n    tag_429:\n        /* \"#utility.yul\":22319:22348   */\n      tag_432\n        /* \"#utility.yul\":22341:22347   */\n      dup3\n        /* \"#utility.yul\":22319:22348   */\n      tag_290\n      jump\t// in\n    tag_432:\n        /* \"#utility.yul\":22311:22348   */\n      swap1\n      pop\n        /* \"#utility.yul\":22403:22407   */\n      0x20\n        /* \"#utility.yul\":22397:22401   */\n      dup2\n        /* \"#utility.yul\":22393:22408   */\n      add\n        /* \"#utility.yul\":22385:22408   */\n      swap1\n      pop\n        /* \"#utility.yul\":22107:22415   */\n      swap2\n      swap1\n      pop\n      jump\t// out\n        /* \"#utility.yul\":22421:22574   */\n    tag_257:\n        /* \"#utility.yul\":22509:22513   */\n      0x00\n        /* \"#utility.yul\":22532:22535   */\n      dup2\n        /* \"#utility.yul\":22524:22535   */\n      swap1\n      pop\n        /* \"#utility.yul\":22562:22566   */\n      0x20\n        /* \"#utility.yul\":22557:22560   */\n      dup3\n        /* \"#utility.yul\":22553:22567   */\n      add\n        /* \"#utility.yul\":22545:22567   */\n      swap1\n      pop\n        /* \"#utility.yul\":22421:22574   */\n      swap2\n      swap1\n      pop\n      jump\t// out\n        /* \"#utility.yul\":22580:22754   */\n    tag_270:\n        /* \"#utility.yul\":22662:22666   */\n      0x00\n        /* \"#utility.yul\":22685:22688   */\n      dup2\n        /* \"#utility.yul\":22677:22688   */\n      swap1\n      pop\n        /* \"#utility.yul\":22708:22711   */\n      dup2\n        /* \"#utility.yul\":22705:22706   */\n      0x00\n        /* \"#utility.yul\":22698:22712   */\n      mstore\n        /* \"#utility.yul\":22742:22746   */\n      0x20\n        /* \"#utility.yul\":22739:22740   */\n      0x00\n        /* \"#utility.yul\":22729:22747   */\n      keccak256\n        /* \"#utility.yul\":22721:22747   */\n      swap1\n      pop\n        /* \"#utility.yul\":22580:22754   */\n      swap2\n      swap1\n      pop\n      jump\t// out\n        /* \"#utility.yul\":22760:22901   */\n    tag_306:\n        /* \"#utility.yul\":22809:22813   */\n      0x00\n        /* \"#utility.yul\":22832:22835   */\n      dup2\n        /* \"#utility.yul\":22824:22835   */\n      swap1\n      pop\n        /* \"#utility.yul\":22855:22858   */\n      dup2\n        /* \"#utility.yul\":22852:22853   */\n      0x00\n        /* \"#utility.yul\":22845:22859   */\n      mstore\n        /* \"#utility.yul\":22889:22893   */\n      0x20\n        /* \"#utility.yul\":22886:22887   */\n      0x00\n        /* \"#utility.yul\":22876:22894   */\n      keccak256\n        /* \"#utility.yul\":22868:22894   */\n      swap1\n      pop\n        /* \"#utility.yul\":22760:22901   */\n      swap2\n      swap1\n      pop\n      jump\t// out\n        /* \"#utility.yul\":22907:23042   */\n    tag_253:\n        /* \"#utility.yul\":22995:23001   */\n      0x00\n        /* \"#utility.yul\":23029:23034   */\n      dup2\n        /* \"#utility.yul\":23023:23035   */\n      mload\n        /* \"#utility.yul\":23013:23035   */\n      swap1\n      pop\n        /* \"#utility.yul\":22907:23042   */\n      swap2\n      swap1\n      pop\n      jump\t// out\n        /* \"#utility.yul\":23048:23177   */\n    tag_267:\n        /* \"#utility.yul\":23130:23136   */\n      0x00\n        /* \"#utility.yul\":23164:23169   */\n      dup2\n        /* \"#utility.yul\":23158:23170   */\n      sload\n        /* \"#utility.yul\":23148:23170   */\n      swap1\n      pop\n        /* \"#utility.yul\":23048:23177   */\n      swap2\n      swap1\n      pop\n      jump\t// out\n        /* \"#utility.yul\":23183:23282   */\n    tag_284:\n        /* \"#utility.yul\":23235:23241   */\n      0x00\n        /* \"#utility.yul\":23269:23274   */\n      dup2\n        /* \"#utility.yul\":23263:23275   */\n      mload\n        /* \"#utility.yul\":23253:23275   */\n      swap1\n      pop\n        /* \"#utility.yul\":23183:23282   */\n      swap2\n      swap1\n      pop\n      jump\t// out\n        /* \"#utility.yul\":23288:23422   */\n    tag_263:\n        /* \"#utility.yul\":23379:23383   */\n      0x00\n        /* \"#utility.yul\":23411:23415   */\n      0x20\n        /* \"#utility.yul\":23406:23409   */\n      dup3\n        /* \"#utility.yul\":23402:23416   */\n      add\n        /* \"#utility.yul\":23394:23416   */\n      swap1\n      pop\n        /* \"#utility.yul\":23288:23422   */\n      swap2\n      swap1\n      pop\n      jump\t// out\n        /* \"#utility.yul\":23428:23556   */\n    tag_276:\n        /* \"#utility.yul\":23513:23517   */\n      0x00\n        /* \"#utility.yul\":23545:23549   */\n      0x06\n        /* \"#utility.yul\":23540:23543   */\n      dup3\n        /* \"#utility.yul\":23536:23550   */\n      add\n        /* \"#utility.yul\":23528:23550   */\n      swap1\n      pop\n        /* \"#utility.yul\":23428:23556   */\n      swap2\n      swap1\n      pop\n      jump\t// out\n        /* \"#utility.yul\":23562:23767   */\n    tag_255:\n        /* \"#utility.yul\":23682:23693   */\n      0x00\n        /* \"#utility.yul\":23716:23722   */\n      dup3\n        /* \"#utility.yul\":23711:23714   */\n      dup3\n        /* \"#utility.yul\":23704:23723   */\n      mstore\n        /* \"#utility.yul\":23756:23760   */\n      0x20\n        /* \"#utility.yul\":23751:23754   */\n      dup3\n        /* \"#utility.yul\":23747:23761   */\n      add\n        /* \"#utility.yul\":23732:23761   */\n      swap1\n      pop\n        /* \"#utility.yul\":23562:23767   */\n      swap3\n      swap2\n      pop\n      pop\n      jump\t// out\n        /* \"#utility.yul\":23773:23932   */\n    tag_286:\n        /* \"#utility.yul\":23847:23858   */\n      0x00\n        /* \"#utility.yul\":23881:23887   */\n      dup3\n        /* \"#utility.yul\":23876:23879   */\n      dup3\n        /* \"#utility.yul\":23869:23888   */\n      mstore\n        /* \"#utility.yul\":23921:23925   */\n      0x20\n        /* \"#utility.yul\":23916:23919   */\n      dup3\n        /* \"#utility.yul\":23912:23926   */\n      add\n        /* \"#utility.yul\":23897:23926   */\n      swap1\n      pop\n        /* \"#utility.yul\":23773:23932   */\n      swap3\n      swap2\n      pop\n      pop\n      jump\t// out\n        /* \"#utility.yul\":23938:24107   */\n    tag_295:\n        /* \"#utility.yul\":24022:24033   */\n      0x00\n        /* \"#utility.yul\":24056:24062   */\n      dup3\n        /* \"#utility.yul\":24051:24054   */\n      dup3\n        /* \"#utility.yul\":24044:24063   */\n      mstore\n        /* \"#utility.yul\":24096:24100   */\n      0x20\n        /* \"#utility.yul\":24091:24094   */\n      dup3\n        /* \"#utility.yul\":24087:24101   */\n      add\n        /* \"#utility.yul\":24072:24101   */\n      swap1\n      pop\n        /* \"#utility.yul\":23938:24107   */\n      swap3\n      swap2\n      pop\n      pop\n      jump\t// out\n        /* \"#utility.yul\":24113:24252   */\n    tag_444:\n        /* \"#utility.yul\":24163:24170   */\n      0x00\n        /* \"#utility.yul\":24203:24245   */\n      0xffffffffffffffffffffffffffffffffffffffff\n        /* \"#utility.yul\":24196:24201   */\n      dup3\n        /* \"#utility.yul\":24192:24246   */\n      and\n        /* \"#utility.yul\":24181:24246   */\n      swap1\n      pop\n        /* \"#utility.yul\":24113:24252   */\n      swap2\n      swap1\n      pop\n      jump\t// out\n        /* \"#utility.yul\":24258:24348   */\n    tag_446:\n        /* \"#utility.yul\":24308:24315   */\n      0x00\n        /* \"#utility.yul\":24337:24342   */\n      dup2\n        /* \"#utility.yul\":24326:24342   */\n      swap1\n      pop\n        /* \"#utility.yul\":24258:24348   */\n      swap2\n      swap1\n      pop\n      jump\t// out\n        /* \"#utility.yul\":24354:24460   */\n    tag_448:\n        /* \"#utility.yul\":24403:24410   */\n      0x00\n        /* \"#utility.yul\":24443:24453   */\n      0xffffffff\n        /* \"#utility.yul\":24436:24441   */\n      dup3\n        /* \"#utility.yul\":24432:24454   */\n      and\n        /* \"#utility.yul\":24421:24454   */\n      swap1\n      pop\n        /* \"#utility.yul\":24354:24460   */\n      swap2\n      swap1\n      pop\n      jump\t// out\n        /* \"#utility.yul\":24466:24562   */\n    tag_246:\n        /* \"#utility.yul\":24503:24510   */\n      0x00\n        /* \"#utility.yul\":24532:24556   */\n      tag_451\n        /* \"#utility.yul\":24550:24555   */\n      dup3\n        /* \"#utility.yul\":24532:24556   */\n      tag_452\n      jump\t// in\n    tag_451:\n        /* \"#utility.yul\":24521:24556   */\n      swap1\n      pop\n        /* \"#utility.yul\":24466:24562   */\n      swap2\n      swap1\n      pop\n      jump\t// out\n        /* \"#utility.yul\":24568:24694   */\n    tag_452:\n        /* \"#utility.yul\":24605:24612   */\n      0x00\n        /* \"#utility.yul\":24645:24687   */\n      0xffffffffffffffffffffffffffffffffffffffff\n        /* \"#utility.yul\":24638:24643   */\n      dup3\n        /* \"#utility.yul\":24634:24688   */\n      and\n        /* \"#utility.yul\":24623:24688   */\n      swap1\n      pop\n        /* \"#utility.yul\":24568:24694   */\n      swap2\n      swap1\n      pop\n      jump\t// out\n        /* \"#utility.yul\":24700:24777   */\n    tag_372:\n        /* \"#utility.yul\":24737:24744   */\n      0x00\n        /* \"#utility.yul\":24766:24771   */\n      dup2\n        /* \"#utility.yul\":24755:24771   */\n      swap1\n      pop\n        /* \"#utility.yul\":24700:24777   */\n      swap2\n      swap1\n      pop\n      jump\t// out\n        /* \"#utility.yul\":24783:24876   */\n    tag_378:\n        /* \"#utility.yul\":24819:24826   */\n      0x00\n        /* \"#utility.yul\":24859:24869   */\n      0xffffffff\n        /* \"#utility.yul\":24852:24857   */\n      dup3\n        /* \"#utility.yul\":24848:24870   */\n      and\n        /* \"#utility.yul\":24837:24870   */\n      swap1\n      pop\n        /* \"#utility.yul\":24783:24876   */\n      swap2\n      swap1\n      pop\n      jump\t// out\n        /* \"#utility.yul\":24882:25022   */\n    tag_280:\n        /* \"#utility.yul\":24946:24955   */\n      0x00\n        /* \"#utility.yul\":24979:25016   */\n      tag_457\n        /* \"#utility.yul\":25010:25015   */\n      dup3\n        /* \"#utility.yul\":24979:25016   */\n      tag_458\n      jump\t// in\n    tag_457:\n        /* \"#utility.yul\":24966:25016   */\n      swap1\n      pop\n        /* \"#utility.yul\":24882:25022   */\n      swap2\n      swap1\n      pop\n      jump\t// out\n        /* \"#utility.yul\":25028:25154   */\n    tag_458:\n        /* \"#utility.yul\":25078:25087   */\n      0x00\n        /* \"#utility.yul\":25111:25148   */\n      tag_460\n        /* \"#utility.yul\":25142:25147   */\n      dup3\n        /* \"#utility.yul\":25111:25148   */\n      tag_461\n      jump\t// in\n    tag_460:\n        /* \"#utility.yul\":25098:25148   */\n      swap1\n      pop\n        /* \"#utility.yul\":25028:25154   */\n      swap2\n      swap1\n      pop\n      jump\t// out\n        /* \"#utility.yul\":25160:25273   */\n    tag_461:\n        /* \"#utility.yul\":25210:25219   */\n      0x00\n        /* \"#utility.yul\":25243:25267   */\n      tag_463\n        /* \"#utility.yul\":25261:25266   */\n      dup3\n        /* \"#utility.yul\":25243:25267   */\n      tag_452\n      jump\t// in\n    tag_463:\n        /* \"#utility.yul\":25230:25267   */\n      swap1\n      pop\n        /* \"#utility.yul\":25160:25273   */\n      swap2\n      swap1\n      pop\n      jump\t// out\n        /* \"#utility.yul\":25279:25433   */\n    tag_193:\n        /* \"#utility.yul\":25363:25369   */\n      dup3\n        /* \"#utility.yul\":25358:25361   */\n      dup2\n        /* \"#utility.yul\":25353:25356   */\n      dup4\n        /* \"#utility.yul\":25340:25370   */\n      calldatacopy\n        /* \"#utility.yul\":25425:25426   */\n      0x00\n        /* \"#utility.yul\":25416:25422   */\n      dup4\n        /* \"#utility.yul\":25411:25414   */\n      dup4\n        /* \"#utility.yul\":25407:25423   */\n      add\n        /* \"#utility.yul\":25400:25427   */\n      mstore\n        /* \"#utility.yul\":25279:25433   */\n      pop\n      pop\n      pop\n      jump\t// out\n        /* \"#utility.yul\":25439:25746   */\n    tag_288:\n        /* \"#utility.yul\":25507:25508   */\n      0x00\n        /* \"#utility.yul\":25517:25630   */\n    tag_466:\n        /* \"#utility.yul\":25531:25537   */\n      dup4\n        /* \"#utility.yul\":25528:25529   */\n      dup2\n        /* \"#utility.yul\":25525:25538   */\n      lt\n        /* \"#utility.yul\":25517:25630   */\n      iszero\n      tag_468\n      jumpi\n        /* \"#utility.yul\":25616:25617   */\n      dup1\n        /* \"#utility.yul\":25611:25614   */\n      dup3\n        /* \"#utility.yul\":25607:25618   */\n      add\n        /* \"#utility.yul\":25601:25619   */\n      mload\n        /* \"#utility.yul\":25597:25598   */\n      dup2\n        /* \"#utility.yul\":25592:25595   */\n      dup5\n        /* \"#utility.yul\":25588:25599   */\n      add\n        /* \"#utility.yul\":25581:25620   */\n      mstore\n        /* \"#utility.yul\":25553:25555   */\n      0x20\n        /* \"#utility.yul\":25550:25551   */\n      dup2\n        /* \"#utility.yul\":25546:25556   */\n      add\n        /* \"#utility.yul\":25541:25556   */\n      swap1\n      pop\n        /* \"#utility.yul\":25517:25630   */\n      jump(tag_466)\n    tag_468:\n        /* \"#utility.yul\":25648:25654   */\n      dup4\n        /* \"#utility.yul\":25645:25646   */\n      dup2\n        /* \"#utility.yul\":25642:25655   */\n      gt\n        /* \"#utility.yul\":25639:25740   */\n      iszero\n      tag_469\n      jumpi\n        /* \"#utility.yul\":25728:25729   */\n      0x00\n        /* \"#utility.yul\":25719:25725   */\n      dup5\n        /* \"#utility.yul\":25714:25717   */\n      dup5\n        /* \"#utility.yul\":25710:25726   */\n      add\n        /* \"#utility.yul\":25703:25730   */\n      mstore\n        /* \"#utility.yul\":25639:25740   */\n    tag_469:\n        /* \"#utility.yul\":25488:25746   */\n      pop\n        /* \"#utility.yul\":25439:25746   */\n      pop\n      pop\n      pop\n      jump\t// out\n        /* \"#utility.yul\":25752:26072   */\n    tag_61:\n        /* \"#utility.yul\":25796:25802   */\n      0x00\n        /* \"#utility.yul\":25833:25834   */\n      0x02\n        /* \"#utility.yul\":25827:25831   */\n      dup3\n        /* \"#utility.yul\":25823:25835   */\n      div\n        /* \"#utility.yul\":25813:25835   */\n      swap1\n      pop\n        /* \"#utility.yul\":25880:25881   */\n      0x01\n        /* \"#utility.yul\":25874:25878   */\n      dup3\n        /* \"#utility.yul\":25870:25882   */\n      and\n        /* \"#utility.yul\":25901:25919   */\n      dup1\n        /* \"#utility.yul\":25891:25972   */\n      tag_471\n      jumpi\n        /* \"#utility.yul\":25957:25961   */\n      0x7f\n        /* \"#utility.yul\":25949:25955   */\n      dup3\n        /* \"#utility.yul\":25945:25962   */\n      and\n        /* \"#utility.yul\":25935:25962   */\n      swap2\n      pop\n        /* \"#utility.yul\":25891:25972   */\n    tag_471:\n        /* \"#utility.yul\":26019:26021   */\n      0x20\n        /* \"#utility.yul\":26011:26017   */\n      dup3\n        /* \"#utility.yul\":26008:26022   */\n      lt\n        /* \"#utility.yul\":25988:26006   */\n      dup2\n        /* \"#utility.yul\":25985:26023   */\n      eq\n        /* \"#utility.yul\":25982:26066   */\n      iszero\n      tag_472\n      jumpi\n        /* \"#utility.yul\":26038:26056   */\n      tag_473\n      tag_474\n      jump\t// in\n    tag_473:\n        /* \"#utility.yul\":25982:26066   */\n    tag_472:\n        /* \"#utility.yul\":25803:26072   */\n      pop\n        /* \"#utility.yul\":25752:26072   */\n      swap2\n      swap1\n      pop\n      jump\t// out\n        /* \"#utility.yul\":26078:26244   */\n    tag_350:\n        /* \"#utility.yul\":26147:26152   */\n      0x00\n        /* \"#utility.yul\":26172:26238   */\n      tag_476\n        /* \"#utility.yul\":26203:26237   */\n      tag_477\n        /* \"#utility.yul\":26226:26236   */\n      dup4\n        /* \"#utility.yul\":26203:26237   */\n      tag_478\n      jump\t// in\n    tag_477:\n        /* \"#utility.yul\":26172:26238   */\n      tag_444\n      jump\t// in\n    tag_476:\n        /* \"#utility.yul\":26163:26238   */\n      swap1\n      pop\n        /* \"#utility.yul\":26078:26244   */\n      swap2\n      swap1\n      pop\n      jump\t// out\n        /* \"#utility.yul\":26250:26416   */\n    tag_344:\n        /* \"#utility.yul\":26319:26324   */\n      0x00\n        /* \"#utility.yul\":26344:26410   */\n      tag_480\n        /* \"#utility.yul\":26375:26409   */\n      tag_481\n        /* \"#utility.yul\":26398:26408   */\n      dup4\n        /* \"#utility.yul\":26375:26409   */\n      tag_478\n      jump\t// in\n    tag_481:\n        /* \"#utility.yul\":26344:26410   */\n      tag_446\n      jump\t// in\n    tag_480:\n        /* \"#utility.yul\":26335:26410   */\n      swap1\n      pop\n        /* \"#utility.yul\":26250:26416   */\n      swap2\n      swap1\n      pop\n      jump\t// out\n        /* \"#utility.yul\":26422:26586   */\n    tag_355:\n        /* \"#utility.yul\":26490:26495   */\n      0x00\n        /* \"#utility.yul\":26515:26580   */\n      tag_483\n        /* \"#utility.yul\":26545:26579   */\n      tag_484\n        /* \"#utility.yul\":26568:26578   */\n      dup4\n        /* \"#utility.yul\":26545:26579   */\n      tag_478\n      jump\t// in\n    tag_484:\n        /* \"#utility.yul\":26515:26580   */\n      tag_448\n      jump\t// in\n    tag_483:\n        /* \"#utility.yul\":26506:26580   */\n      swap1\n      pop\n        /* \"#utility.yul\":26422:26586   */\n      swap2\n      swap1\n      pop\n      jump\t// out\n        /* \"#utility.yul\":26592:26873   */\n    tag_426:\n        /* \"#utility.yul\":26675:26702   */\n      tag_486\n        /* \"#utility.yul\":26697:26701   */\n      dup3\n        /* \"#utility.yul\":26675:26702   */\n      tag_290\n      jump\t// in\n    tag_486:\n        /* \"#utility.yul\":26667:26673   */\n      dup2\n        /* \"#utility.yul\":26663:26703   */\n      add\n        /* \"#utility.yul\":26805:26811   */\n      dup2\n        /* \"#utility.yul\":26793:26803   */\n      dup2\n        /* \"#utility.yul\":26790:26812   */\n      lt\n        /* \"#utility.yul\":26769:26787   */\n      0xffffffffffffffff\n        /* \"#utility.yul\":26757:26767   */\n      dup3\n        /* \"#utility.yul\":26754:26788   */\n      gt\n        /* \"#utility.yul\":26751:26813   */\n      or\n        /* \"#utility.yul\":26748:26836   */\n      iszero\n      tag_487\n      jumpi\n        /* \"#utility.yul\":26816:26834   */\n      tag_488\n      tag_431\n      jump\t// in\n    tag_488:\n        /* \"#utility.yul\":26748:26836   */\n    tag_487:\n        /* \"#utility.yul\":26856:26866   */\n      dup1\n        /* \"#utility.yul\":26852:26854   */\n      0x40\n        /* \"#utility.yul\":26845:26867   */\n      mstore\n        /* \"#utility.yul\":26635:26873   */\n      pop\n        /* \"#utility.yul\":26592:26873   */\n      pop\n      pop\n      jump\t// out\n        /* \"#utility.yul\":26879:27112   */\n    tag_69:\n        /* \"#utility.yul\":26918:26921   */\n      0x00\n        /* \"#utility.yul\":26941:26965   */\n      tag_490\n        /* \"#utility.yul\":26959:26964   */\n      dup3\n        /* \"#utility.yul\":26941:26965   */\n      tag_372\n      jump\t// in\n    tag_490:\n        /* \"#utility.yul\":26932:26965   */\n      swap2\n      pop\n        /* \"#utility.yul\":26987:27053   */\n      0xffffffffffffffffffffffffffffffffffffffffffffffffffffffffffffffff\n        /* \"#utility.yul\":26980:26985   */\n      dup3\n        /* \"#utility.yul\":26977:27054   */\n      eq\n        /* \"#utility.yul\":26974:27077   */\n      iszero\n      tag_491\n      jumpi\n        /* \"#utility.yul\":27057:27075   */\n      tag_492\n      tag_493\n      jump\t// in\n    tag_492:\n        /* \"#utility.yul\":26974:27077   */\n    tag_491:\n        /* \"#utility.yul\":27104:27105   */\n      0x01\n        /* \"#utility.yul\":27097:27102   */\n      dup3\n        /* \"#utility.yul\":27093:27106   */\n      add\n        /* \"#utility.yul\":27086:27106   */\n      swap1\n      pop\n        /* \"#utility.yul\":26879:27112   */\n      swap2\n      swap1\n      pop\n      jump\t// out\n        /* \"#utility.yul\":27118:27298   */\n    tag_493:\n        /* \"#utility.yul\":27166:27243   */\n      0x4e487b7100000000000000000000000000000000000000000000000000000000\n        /* \"#utility.yul\":27163:27164   */\n      0x00\n        /* \"#utility.yul\":27156:27244   */\n      mstore\n        /* \"#utility.yul\":27263:27267   */\n      0x11\n        /* \"#utility.yul\":27260:27261   */\n      0x04\n        /* \"#utility.yul\":27253:27268   */\n      mstore\n        /* \"#utility.yul\":27287:27291   */\n      0x24\n        /* \"#utility.yul\":27284:27285   */\n      0x00\n        /* \"#utility.yul\":27277:27292   */\n      revert\n        /* \"#utility.yul\":27304:27484   */\n    tag_474:\n        /* \"#utility.yul\":27352:27429   */\n      0x4e487b7100000000000000000000000000000000000000000000000000000000\n        /* \"#utility.yul\":27349:27350   */\n      0x00\n        /* \"#utility.yul\":27342:27430   */\n      mstore\n        /* \"#utility.yul\":27449:27453   */\n      0x22\n        /* \"#utility.yul\":27446:27447   */\n      0x04\n        /* \"#utility.yul\":27439:27454   */\n      mstore\n        /* \"#utility.yul\":27473:27477   */\n      0x24\n        /* \"#utility.yul\":27470:27471   */\n      0x00\n        /* \"#utility.yul\":27463:27478   */\n      revert\n        /* \"#utility.yul\":27490:27670   */\n    tag_431:\n        /* \"#utility.yul\":27538:27615   */\n      0x4e487b7100000000000000000000000000000000000000000000000000000000\n        /* \"#utility.yul\":27535:27536   */\n      0x00\n        /* \"#utility.yul\":27528:27616   */\n      mstore\n        /* \"#utility.yul\":27635:27639   */\n      0x41\n        /* \"#utility.yul\":27632:27633   */\n      0x04\n        /* \"#utility.yul\":27625:27640   */\n      mstore\n        /* \"#utility.yul\":27659:27663   */\n      0x24\n        /* \"#utility.yul\":27656:27657   */\n      0x00\n        /* \"#utility.yul\":27649:27664   */\n      revert\n        /* \"#utility.yul\":27676:27793   */\n    tag_202:\n        /* \"#utility.yul\":27785:27786   */\n      0x00\n        /* \"#utility.yul\":27782:27783   */\n      dup1\n        /* \"#utility.yul\":27775:27787   */\n      revert\n        /* \"#utility.yul\":27799:27916   */\n    tag_191:\n        /* \"#utility.yul\":27908:27909   */\n      0x00\n        /* \"#utility.yul\":27905:27906   */\n      dup1\n        /* \"#utility.yul\":27898:27910   */\n      revert\n        /* \"#utility.yul\":27922:28039   */\n    tag_232:\n        /* \"#utility.yul\":28031:28032   */\n      0x00\n        /* \"#utility.yul\":28028:28029   */\n      dup1\n        /* \"#utility.yul\":28021:28033   */\n      revert\n        /* \"#utility.yul\":28045:28162   */\n    tag_215:\n        /* \"#utility.yul\":28154:28155   */\n      0x00\n        /* \"#utility.yul\":28151:28152   */\n      dup1\n        /* \"#utility.yul\":28144:28156   */\n      revert\n        /* \"#utility.yul\":28168:28270   */\n    tag_290:\n        /* \"#utility.yul\":28209:28215   */\n      0x00\n        /* \"#utility.yul\":28260:28262   */\n      0x1f\n        /* \"#utility.yul\":28256:28263   */\n      not\n        /* \"#utility.yul\":28251:28253   */\n      0x1f\n        /* \"#utility.yul\":28244:28249   */\n      dup4\n        /* \"#utility.yul\":28240:28254   */\n      add\n        /* \"#utility.yul\":28236:28264   */\n      and\n        /* \"#utility.yul\":28226:28264   */\n      swap1\n      pop\n        /* \"#utility.yul\":28168:28270   */\n      swap2\n      swap1\n      pop\n      jump\t// out\n        /* \"#utility.yul\":28276:28378   */\n    tag_478:\n        /* \"#utility.yul\":28318:28326   */\n      0x00\n        /* \"#utility.yul\":28365:28370   */\n      dup2\n        /* \"#utility.yul\":28362:28363   */\n      0x00\n        /* \"#utility.yul\":28358:28371   */\n      shr\n        /* \"#utility.yul\":28337:28371   */\n      swap1\n      pop\n        /* \"#utility.yul\":28276:28378   */\n      swap2\n      swap1\n      pop\n      jump\t// out\n        /* \"#utility.yul\":28384:28605   */\n    tag_314:\n        /* \"#utility.yul\":28524:28558   */\n      0x546865726520617265206e6f2070726f647563747320746f206c697374207965\n        /* \"#utility.yul\":28520:28521   */\n      0x00\n        /* \"#utility.yul\":28512:28518   */\n      dup3\n        /* \"#utility.yul\":28508:28522   */\n      add\n        /* \"#utility.yul\":28501:28559   */\n      mstore\n        /* \"#utility.yul\":28593:28597   */\n      0x7421000000000000000000000000000000000000000000000000000000000000\n        /* \"#utility.yul\":28588:28590   */\n      0x20\n        /* \"#utility.yul\":28580:28586   */\n      dup3\n        /* \"#utility.yul\":28576:28591   */\n      add\n        /* \"#utility.yul\":28569:28598   */\n      mstore\n        /* \"#utility.yul\":28384:28605   */\n      pop\n      jump\t// out\n        /* \"#utility.yul\":28611:28790   */\n    tag_319:\n        /* \"#utility.yul\":28751:28782   */\n      0x5468657265206973206e6f2073756368206974656d207265636f726421000000\n        /* \"#utility.yul\":28747:28748   */\n      0x00\n        /* \"#utility.yul\":28739:28745   */\n      dup3\n        /* \"#utility.yul\":28735:28749   */\n      add\n        /* \"#utility.yul\":28728:28783   */\n      mstore\n        /* \"#utility.yul\":28611:28790   */\n      pop\n      jump\t// out\n        /* \"#utility.yul\":28796:28967   */\n    tag_324:\n        /* \"#utility.yul\":28936:28959   */\n      0x5468652073616c65206861732065787069726564210000000000000000000000\n        /* \"#utility.yul\":28932:28933   */\n      0x00\n        /* \"#utility.yul\":28924:28930   */\n      dup3\n        /* \"#utility.yul\":28920:28934   */\n      add\n        /* \"#utility.yul\":28913:28960   */\n      mstore\n        /* \"#utility.yul\":28796:28967   */\n      pop\n      jump\t// out\n        /* \"#utility.yul\":28973:29095   */\n    tag_197:\n        /* \"#utility.yul\":29046:29070   */\n      tag_507\n        /* \"#utility.yul\":29064:29069   */\n      dup2\n        /* \"#utility.yul\":29046:29070   */\n      tag_246\n      jump\t// in\n    tag_507:\n        /* \"#utility.yul\":29039:29044   */\n      dup2\n        /* \"#utility.yul\":29036:29071   */\n      eq\n        /* \"#utility.yul\":29026:29089   */\n      tag_508\n      jumpi\n        /* \"#utility.yul\":29085:29086   */\n      0x00\n        /* \"#utility.yul\":29082:29083   */\n      dup1\n        /* \"#utility.yul\":29075:29087   */\n      revert\n        /* \"#utility.yul\":29026:29089   */\n    tag_508:\n        /* \"#utility.yul\":28973:29095   */\n      pop\n      jump\t// out\n        /* \"#utility.yul\":29101:29223   */\n    tag_207:\n        /* \"#utility.yul\":29174:29198   */\n      tag_510\n        /* \"#utility.yul\":29192:29197   */\n      dup2\n        /* \"#utility.yul\":29174:29198   */\n      tag_372\n      jump\t// in\n    tag_510:\n        /* \"#utility.yul\":29167:29172   */\n      dup2\n        /* \"#utility.yul\":29164:29199   */\n      eq\n        /* \"#utility.yul\":29154:29217   */\n      tag_511\n      jumpi\n        /* \"#utility.yul\":29213:29214   */\n      0x00\n        /* \"#utility.yul\":29210:29211   */\n      dup1\n        /* \"#utility.yul\":29203:29215   */\n      revert\n        /* \"#utility.yul\":29154:29217   */\n    tag_511:\n        /* \"#utility.yul\":29101:29223   */\n      pop\n      jump\t// out\n        /* \"#utility.yul\":29229:29349   */\n    tag_211:\n        /* \"#utility.yul\":29301:29324   */\n      tag_513\n        /* \"#utility.yul\":29318:29323   */\n      dup2\n        /* \"#utility.yul\":29301:29324   */\n      tag_378\n      jump\t// in\n    tag_513:\n        /* \"#utility.yul\":29294:29299   */\n      dup2\n        /* \"#utility.yul\":29291:29325   */\n      eq\n        /* \"#utility.yul\":29281:29343   */\n      tag_514\n      jumpi\n        /* \"#utility.yul\":29339:29340   */\n      0x00\n        /* \"#utility.yul\":29336:29337   */\n      dup1\n        /* \"#utility.yul\":29329:29341   */\n      revert\n        /* \"#utility.yul\":29281:29343   */\n    tag_514:\n        /* \"#utility.yul\":29229:29349   */\n      pop\n      jump\t// out\n\n    auxdata: 0xa26469706673582212202952b3b02239e79ea6d635ae879cb2729e99503782690e9cca7a4f4e431a7e3564736f6c63430008070033\n}\n",
				"bytecode": {
					"linkReferences": {},
					"object": "60806040523480156200001157600080fd5b506040516200240c3803806200240c833981810160405281019062000037919062000095565b806000806101000a81548173ffffffffffffffffffffffffffffffffffffffff021916908373ffffffffffffffffffffffffffffffffffffffff160217905550506200011a565b6000815190506200008f8162000100565b92915050565b600060208284031215620000ae57620000ad620000fb565b5b6000620000be848285016200007e565b91505092915050565b6000620000d482620000db565b9050919050565b600073ffffffffffffffffffffffffffffffffffffffff82169050919050565b600080fd5b6200010b81620000c7565b81146200011757600080fd5b50565b6122e2806200012a6000396000f3fe608060405234801561001057600080fd5b506004361061009e5760003560e01c8063bfb231d211610066578063bfb231d214610161578063ca095a8314610196578063cd2f0710146101b2578063e2870aa9146101e2578063fc0c546a146102125761009e565b806301750e74146100a35780633d4d3600146100bf5780634efd1797146100f45780635d9eb55c14610110578063a87430ba1461012e575b600080fd5b6100bd60048036038101906100b89190611562565b610230565b005b6100d960048036038101906100d49190611562565b610453565b6040516100eb96959493929190611cf6565b60405180910390f35b61010e600480360381019061010991906115cf565b610557565b005b610118610989565b6040516101259190611ba7565b60405180910390f35b61014860048036038101906101439190611535565b610baf565b6040516101589493929190611ca3565b60405180910390f35b61017b60048036038101906101769190611562565b610cef565b60405161018d96959493929190611cf6565b60405180910390f35b6101b060048036038101906101ab9190611562565b610de3565b005b6101cc60048036038101906101c79190611562565b61104e565b6040516101d99190611c66565b60405180910390f35b6101fc60048036038101906101f7919061158f565b611257565b6040516102099190611c88565b60405180910390f35b61021a61127c565b6040516102279190611beb565b60405180910390f35b806000600360008381526020019081526020016000206040518060c00160405290816000820154815260200160018201805461026b9061200d565b80601f01602080910402602001604051908101604052809291908181526020018280546102979061200d565b80156102e45780601f106102b9576101008083540402835291602001916102e4565b820191906000526020600020905b8154815290600101906020018083116102c757829003601f168201915b50505050508152602001600282015481526020016003820160009054906101000a900473ffffffffffffffffffffffffffffffffffffffff1673ffffffffffffffffffffffffffffffffffffffff1673ffffffffffffffffffffffffffffffffffffffff168152602001600482015481526020016005820160009054906101000a900463ffffffff1663ffffffff1663ffffffff16815250509050806060015173ffffffffffffffffffffffffffffffffffffffff163373ffffffffffffffffffffffffffffffffffffffff1614156103bc57600080fd5b6003600084815260200190815260200160002060020160008154809291906103e3906120be565b91905055503373ffffffffffffffffffffffffffffffffffffffff167f1ed364e6f46a455fac23816d3700669ff134c7a5fbe0240f52d932f834102462846003600087815260200190815260200160002060020154604051610446929190611d8e565b60405180910390a2505050565b6001818154811061046357600080fd5b906000526020600020906006020160009150905080600001549080600101805461048c9061200d565b80601f01602080910402602001604051908101604052809291908181526020018280546104b89061200d565b80156105055780601f106104da57610100808354040283529160200191610505565b820191906000526020600020905b8154815290600101906020018083116104e857829003601f168201915b5050505050908060020154908060030160009054906101000a900473ffffffffffffffffffffffffffffffffffffffff16908060040154908060050160009054906101000a900463ffffffff16905086565b6040518060c0016040528061056c60056112a0565b8152602001838152602001600081526020013373ffffffffffffffffffffffffffffffffffffffff1681526020018481526020018263ffffffff16815250600360006105b860056112a0565b81526020019081526020016000206000820151816000015560208201518160010190805190602001906105ec9291906112c4565b506040820151816002015560608201518160030160006101000a81548173ffffffffffffffffffffffffffffffffffffffff021916908373ffffffffffffffffffffffffffffffffffffffff1602179055506080820151816004015560a08201518160050160006101000a81548163ffffffff021916908363ffffffff160217905550905050600260003373ffffffffffffffffffffffffffffffffffffffff1673ffffffffffffffffffffffffffffffffffffffff168152602001908152602001600020600401600360006106c260056112a0565b815260200190815260200160002090806001815401808255809150506001900390600052602060002090600602016000909190919091506000820154816000015560018201816001019080546107179061200d565b61072292919061134a565b50600282015481600201556003820160009054906101000a900473ffffffffffffffffffffffffffffffffffffffff168160030160006101000a81548173ffffffffffffffffffffffffffffffffffffffff021916908373ffffffffffffffffffffffffffffffffffffffff160217905550600482015481600401556005820160009054906101000a900463ffffffff168160050160006101000a81548163ffffffff021916908363ffffffff16021790555050506001600360006107e760056112a0565b8152602001908152602001600020908060018154018082558091505060019003906000526020600020906006020160009091909190915060008201548160000155600182018160010190805461083c9061200d565b61084792919061134a565b50600282015481600201556003820160009054906101000a900473ffffffffffffffffffffffffffffffffffffffff168160030160006101000a81548173ffffffffffffffffffffffffffffffffffffffff021916908373ffffffffffffffffffffffffffffffffffffffff160217905550600482015481600401556005820160009054906101000a900463ffffffff168160050160006101000a81548163ffffffff021916908363ffffffff160217905550505061090660056112ae565b3373ffffffffffffffffffffffffffffffffffffffff167f9a5b8b5cb7f9c536ea5db1a94142c9f716fb3a8698a9c70a5b8bfad3922cb06c61094860056112a0565b8585856003600061095960056112a0565b81526020019081526020016000206002015460405161097c959493929190611db7565b60405180910390a2505050565b6060600061099760056112a0565b116109d7576040517f08c379a00000000000000000000000000000000000000000000000000000000081526004016109ce90611c06565b60405180910390fd5b3373ffffffffffffffffffffffffffffffffffffffff167f440c078a5e11bff85c6b6d7c52f378c8220355bd3331ec889638c0eca883670c6001604051610a1e9190611bc9565b60405180910390a26001805480602002602001604051908101604052809291908181526020016000905b82821015610ba657838290600052602060002090600602016040518060c001604052908160008201548152602001600182018054610a859061200d565b80601f0160208091040260200160405190810160405280929190818152602001828054610ab19061200d565b8015610afe5780601f10610ad357610100808354040283529160200191610afe565b820191906000526020600020905b815481529060010190602001808311610ae157829003601f168201915b50505050508152602001600282015481526020016003820160009054906101000a900473ffffffffffffffffffffffffffffffffffffffff1673ffffffffffffffffffffffffffffffffffffffff1673ffffffffffffffffffffffffffffffffffffffff168152602001600482015481526020016005820160009054906101000a900463ffffffff1663ffffffff1663ffffffff168152505081526020019060010190610a48565b50505050905090565b6002602052806000526040600020600091509050806000015490806001018054610bd89061200d565b80601f0160208091040260200160405190810160405280929190818152602001828054610c049061200d565b8015610c515780601f10610c2657610100808354040283529160200191610c51565b820191906000526020600020905b815481529060010190602001808311610c3457829003601f168201915b505050505090806002018054610c669061200d565b80601f0160208091040260200160405190810160405280929190818152602001828054610c929061200d565b8015610cdf5780601f10610cb457610100808354040283529160200191610cdf565b820191906000526020600020905b815481529060010190602001808311610cc257829003601f168201915b5050505050908060050154905084565b6003602052806000526040600020600091509050806000015490806001018054610d189061200d565b80601f0160208091040260200160405190810160405280929190818152602001828054610d449061200d565b8015610d915780601f10610d6657610100808354040283529160200191610d91565b820191906000526020600020905b815481529060010190602001808311610d7457829003601f168201915b5050505050908060020154908060030160009054906101000a900473ffffffffffffffffffffffffffffffffffffffff16908060040154908060050160009054906101000a900463ffffffff16905086565b806000600360008381526020019081526020016000206040518060c001604052908160008201548152602001600182018054610e1e9061200d565b80601f0160208091040260200160405190810160405280929190818152602001828054610e4a9061200d565b8015610e975780601f10610e6c57610100808354040283529160200191610e97565b820191906000526020600020905b815481529060010190602001808311610e7a57829003601f168201915b50505050508152602001600282015481526020016003820160009054906101000a900473ffffffffffffffffffffffffffffffffffffffff1673ffffffffffffffffffffffffffffffffffffffff1673ffffffffffffffffffffffffffffffffffffffff168152602001600482015481526020016005820160009054906101000a900463ffffffff1663ffffffff1663ffffffff16815250509050428160a0015163ffffffff161015610f7f576040517f08c379a0000000000000000000000000000000000000000000000000000000008152600401610f7690611c46565b60405180910390fd5b60036000848152602001908152602001600020600080820160009055600182016000610fab91906113d7565b60028201600090556003820160006101000a81549073ffffffffffffffffffffffffffffffffffffffff021916905560048201600090556005820160006101000a81549063ffffffff021916905550503373ffffffffffffffffffffffffffffffffffffffff167f45e4102cd0468b42f71c0179aa78051418c31c018e07a5091eb13b97fadbab5e846040516110419190611c88565b60405180910390a2505050565b611056611417565b8161106160056112a0565b8111156110a3576040517f08c379a000000000000000000000000000000000000000000000000000000000815260040161109a90611c26565b60405180910390fd5b3373ffffffffffffffffffffffffffffffffffffffff167fcb718ffb18411374498c1cd31cb4d4c8068af3c5b1546205f14c72bcd20f21ba84600360008781526020019081526020016000206040516110fd929190611d5e565b60405180910390a2600360008481526020019081526020016000206040518060c00160405290816000820154815260200160018201805461113d9061200d565b80601f01602080910402602001604051908101604052809291908181526020018280546111699061200d565b80156111b65780601f1061118b576101008083540402835291602001916111b6565b820191906000526020600020905b81548152906001019060200180831161119957829003601f168201915b50505050508152602001600282015481526020016003820160009054906101000a900473ffffffffffffffffffffffffffffffffffffffff1673ffffffffffffffffffffffffffffffffffffffff1673ffffffffffffffffffffffffffffffffffffffff168152602001600482015481526020016005820160009054906101000a900463ffffffff1663ffffffff1663ffffffff1681525050915050919050565b6004602052816000526040600020602052806000526040600020600091509150505481565b60008054906101000a900473ffffffffffffffffffffffffffffffffffffffff1681565b600081600001549050919050565b6001816000016000828254019250508190555050565b8280546112d09061200d565b90600052602060002090601f0160209004810192826112f25760008555611339565b82601f1061130b57805160ff1916838001178555611339565b82800160010185558215611339579182015b8281111561133857825182559160200191906001019061131d565b5b5090506113469190611469565b5090565b8280546113569061200d565b90600052602060002090601f01602090048101928261137857600085556113c6565b82601f1061138957805485556113c6565b828001600101855582156113c657600052602060002091601f016020900482015b828111156113c55782548255916001019190600101906113aa565b5b5090506113d39190611469565b5090565b5080546113e39061200d565b6000825580601f106113f55750611414565b601f0160209004906000526020600020908101906114139190611469565b5b50565b6040518060c00160405280600081526020016060815260200160008152602001600073ffffffffffffffffffffffffffffffffffffffff16815260200160008152602001600063ffffffff1681525090565b5b8082111561148257600081600090555060010161146a565b5090565b600061149961149484611e36565b611e11565b9050828152602081018484840111156114b5576114b4612199565b5b6114c0848285611fcb565b509392505050565b6000813590506114d781612267565b92915050565b600082601f8301126114f2576114f1612194565b5b8135611502848260208601611486565b91505092915050565b60008135905061151a8161227e565b92915050565b60008135905061152f81612295565b92915050565b60006020828403121561154b5761154a6121a3565b5b6000611559848285016114c8565b91505092915050565b600060208284031215611578576115776121a3565b5b60006115868482850161150b565b91505092915050565b600080604083850312156115a6576115a56121a3565b5b60006115b48582860161150b565b92505060206115c5858286016114c8565b9150509250929050565b6000806000606084860312156115e8576115e76121a3565b5b60006115f68682870161150b565b935050602084013567ffffffffffffffff8111156116175761161661219e565b5b611623868287016114dd565b925050604061163486828701611520565b9150509250925092565b600061164a83836118d7565b905092915050565b600061165e83836119e9565b905092915050565b61166f81611f49565b82525050565b61167e81611f49565b82525050565b600061168f82611ea1565b6116998185611edc565b9350836020820285016116ab85611e67565b8060005b858110156116e757848403895281516116c8858261163e565b94506116d383611ec2565b925060208a019950506001810190506116af565b50829750879550505050505092915050565b600061170482611eac565b61170e8185611edc565b93508360208202850161172085611e77565b8060005b8581101561175b5784840389528161173c8582611652565b945061174783611ecf565b925060208a01995050600181019050611724565b50829750879550505050505092915050565b61177681611f95565b82525050565b600061178782611eb7565b6117918185611eed565b93506117a1818560208601611fda565b6117aa816121a8565b840191505092915050565b60006117c082611eb7565b6117ca8185611efe565b93506117da818560208601611fda565b6117e3816121a8565b840191505092915050565b600081546117fb8161200d565b6118058186611eed565b94506001821660008114611820576001811461183257611865565b60ff1983168652602086019350611865565b61183b85611e8c565b60005b8381101561185d5781548189015260018201915060208101905061183e565b808801955050505b50505092915050565b600061187b602283611efe565b9150611886826121c6565b604082019050919050565b600061189e601d83611efe565b91506118a982612215565b602082019050919050565b60006118c1601583611efe565b91506118cc8261223e565b602082019050919050565b600060c0830160008301516118ef6000860182611b6b565b5060208301518482036020860152611907828261177c565b915050604083015161191c6040860182611b6b565b50606083015161192f6060860182611666565b5060808301516119426080860182611b6b565b5060a083015161195560a0860182611b89565b508091505092915050565b600060c0830160008301516119786000860182611b6b565b5060208301518482036020860152611990828261177c565b91505060408301516119a56040860182611b6b565b5060608301516119b86060860182611666565b5060808301516119cb6080860182611b6b565b5060a08301516119de60a0860182611b89565b508091505092915050565b600060c083016000808401549050611a0081612059565b611a0d6000870182611b6b565b50600184018583036020870152611a2483826117ee565b92505060028401549050611a3781612059565b611a446040870182611b6b565b5060038401549050611a558161203f565b611a626060870182611666565b5060048401549050611a7381612059565b611a806080870182611b6b565b5060058401549050611a9181612073565b611a9e60a0870182611b89565b50819250505092915050565b600060c083016000808401549050611ac181612059565b611ace6000870182611b6b565b50600184018583036020870152611ae583826117ee565b92505060028401549050611af881612059565b611b056040870182611b6b565b5060038401549050611b168161203f565b611b236060870182611666565b5060048401549050611b3481612059565b611b416080870182611b6b565b5060058401549050611b5281612073565b611b5f60a0870182611b89565b50819250505092915050565b611b7481611f7b565b82525050565b611b8381611f7b565b82525050565b611b9281611f85565b82525050565b611ba181611f85565b82525050565b60006020820190508181036000830152611bc18184611684565b905092915050565b60006020820190508181036000830152611be381846116f9565b905092915050565b6000602082019050611c00600083018461176d565b92915050565b60006020820190508181036000830152611c1f8161186e565b9050919050565b60006020820190508181036000830152611c3f81611891565b9050919050565b60006020820190508181036000830152611c5f816118b4565b9050919050565b60006020820190508181036000830152611c808184611960565b905092915050565b6000602082019050611c9d6000830184611b7a565b92915050565b6000608082019050611cb86000830187611b7a565b8181036020830152611cca81866117b5565b90508181036040830152611cde81856117b5565b9050611ced6060830184611b7a565b95945050505050565b600060c082019050611d0b6000830189611b7a565b8181036020830152611d1d81886117b5565b9050611d2c6040830187611b7a565b611d396060830186611675565b611d466080830185611b7a565b611d5360a0830184611b98565b979650505050505050565b6000604082019050611d736000830185611b7a565b8181036020830152611d858184611aaa565b90509392505050565b6000604082019050611da36000830185611b7a565b611db06020830184611b7a565b9392505050565b600060a082019050611dcc6000830188611b7a565b611dd96020830187611b7a565b8181036040830152611deb81866117b5565b9050611dfa6060830185611b98565b611e076080830184611b7a565b9695505050505050565b6000611e1b611e2c565b9050611e27828261208d565b919050565b6000604051905090565b600067ffffffffffffffff821115611e5157611e50612165565b5b611e5a826121a8565b9050602081019050919050565b6000819050602082019050919050565b60008190508160005260206000209050919050565b60008190508160005260206000209050919050565b600081519050919050565b600081549050919050565b600081519050919050565b6000602082019050919050565b6000600682019050919050565b600082825260208201905092915050565b600082825260208201905092915050565b600082825260208201905092915050565b600073ffffffffffffffffffffffffffffffffffffffff82169050919050565b6000819050919050565b600063ffffffff82169050919050565b6000611f5482611f5b565b9050919050565b600073ffffffffffffffffffffffffffffffffffffffff82169050919050565b6000819050919050565b600063ffffffff82169050919050565b6000611fa082611fa7565b9050919050565b6000611fb282611fb9565b9050919050565b6000611fc482611f5b565b9050919050565b82818337600083830152505050565b60005b83811015611ff8578082015181840152602081019050611fdd565b83811115612007576000848401525b50505050565b6000600282049050600182168061202557607f821691505b6020821081141561203957612038612136565b5b50919050565b600061205261204d836121b9565b611f0f565b9050919050565b600061206c612067836121b9565b611f2f565b9050919050565b6000612086612081836121b9565b611f39565b9050919050565b612096826121a8565b810181811067ffffffffffffffff821117156120b5576120b4612165565b5b80604052505050565b60006120c982611f7b565b91507fffffffffffffffffffffffffffffffffffffffffffffffffffffffffffffffff8214156120fc576120fb612107565b5b600182019050919050565b7f4e487b7100000000000000000000000000000000000000000000000000000000600052601160045260246000fd5b7f4e487b7100000000000000000000000000000000000000000000000000000000600052602260045260246000fd5b7f4e487b7100000000000000000000000000000000000000000000000000000000600052604160045260246000fd5b600080fd5b600080fd5b600080fd5b600080fd5b6000601f19601f8301169050919050565b60008160001c9050919050565b7f546865726520617265206e6f2070726f647563747320746f206c69737420796560008201527f7421000000000000000000000000000000000000000000000000000000000000602082015250565b7f5468657265206973206e6f2073756368206974656d207265636f726421000000600082015250565b7f5468652073616c65206861732065787069726564210000000000000000000000600082015250565b61227081611f49565b811461227b57600080fd5b50565b61228781611f7b565b811461229257600080fd5b50565b61229e81611f85565b81146122a957600080fd5b5056fea26469706673582212202952b3b02239e79ea6d635ae879cb2729e99503782690e9cca7a4f4e431a7e3564736f6c63430008070033",
					"opcodes": "PUSH1 0x80 PUSH1 0x40 MSTORE CALLVALUE DUP1 ISZERO PUSH3 0x11 JUMPI PUSH1 0x0 DUP1 REVERT JUMPDEST POP PUSH1 0x40 MLOAD PUSH3 0x240C CODESIZE SUB DUP1 PUSH3 0x240C DUP4 CODECOPY DUP2 DUP2 ADD PUSH1 0x40 MSTORE DUP2 ADD SWAP1 PUSH3 0x37 SWAP2 SWAP1 PUSH3 0x95 JUMP JUMPDEST DUP1 PUSH1 0x0 DUP1 PUSH2 0x100 EXP DUP2 SLOAD DUP2 PUSH20 0xFFFFFFFFFFFFFFFFFFFFFFFFFFFFFFFFFFFFFFFF MUL NOT AND SWAP1 DUP4 PUSH20 0xFFFFFFFFFFFFFFFFFFFFFFFFFFFFFFFFFFFFFFFF AND MUL OR SWAP1 SSTORE POP POP PUSH3 0x11A JUMP JUMPDEST PUSH1 0x0 DUP2 MLOAD SWAP1 POP PUSH3 0x8F DUP2 PUSH3 0x100 JUMP JUMPDEST SWAP3 SWAP2 POP POP JUMP JUMPDEST PUSH1 0x0 PUSH1 0x20 DUP3 DUP5 SUB SLT ISZERO PUSH3 0xAE JUMPI PUSH3 0xAD PUSH3 0xFB JUMP JUMPDEST JUMPDEST PUSH1 0x0 PUSH3 0xBE DUP5 DUP3 DUP6 ADD PUSH3 0x7E JUMP JUMPDEST SWAP2 POP POP SWAP3 SWAP2 POP POP JUMP JUMPDEST PUSH1 0x0 PUSH3 0xD4 DUP3 PUSH3 0xDB JUMP JUMPDEST SWAP1 POP SWAP2 SWAP1 POP JUMP JUMPDEST PUSH1 0x0 PUSH20 0xFFFFFFFFFFFFFFFFFFFFFFFFFFFFFFFFFFFFFFFF DUP3 AND SWAP1 POP SWAP2 SWAP1 POP JUMP JUMPDEST PUSH1 0x0 DUP1 REVERT JUMPDEST PUSH3 0x10B DUP2 PUSH3 0xC7 JUMP JUMPDEST DUP2 EQ PUSH3 0x117 JUMPI PUSH1 0x0 DUP1 REVERT JUMPDEST POP JUMP JUMPDEST PUSH2 0x22E2 DUP1 PUSH3 0x12A PUSH1 0x0 CODECOPY PUSH1 0x0 RETURN INVALID PUSH1 0x80 PUSH1 0x40 MSTORE CALLVALUE DUP1 ISZERO PUSH2 0x10 JUMPI PUSH1 0x0 DUP1 REVERT JUMPDEST POP PUSH1 0x4 CALLDATASIZE LT PUSH2 0x9E JUMPI PUSH1 0x0 CALLDATALOAD PUSH1 0xE0 SHR DUP1 PUSH4 0xBFB231D2 GT PUSH2 0x66 JUMPI DUP1 PUSH4 0xBFB231D2 EQ PUSH2 0x161 JUMPI DUP1 PUSH4 0xCA095A83 EQ PUSH2 0x196 JUMPI DUP1 PUSH4 0xCD2F0710 EQ PUSH2 0x1B2 JUMPI DUP1 PUSH4 0xE2870AA9 EQ PUSH2 0x1E2 JUMPI DUP1 PUSH4 0xFC0C546A EQ PUSH2 0x212 JUMPI PUSH2 0x9E JUMP JUMPDEST DUP1 PUSH4 0x1750E74 EQ PUSH2 0xA3 JUMPI DUP1 PUSH4 0x3D4D3600 EQ PUSH2 0xBF JUMPI DUP1 PUSH4 0x4EFD1797 EQ PUSH2 0xF4 JUMPI DUP1 PUSH4 0x5D9EB55C EQ PUSH2 0x110 JUMPI DUP1 PUSH4 0xA87430BA EQ PUSH2 0x12E JUMPI JUMPDEST PUSH1 0x0 DUP1 REVERT JUMPDEST PUSH2 0xBD PUSH1 0x4 DUP1 CALLDATASIZE SUB DUP2 ADD SWAP1 PUSH2 0xB8 SWAP2 SWAP1 PUSH2 0x1562 JUMP JUMPDEST PUSH2 0x230 JUMP JUMPDEST STOP JUMPDEST PUSH2 0xD9 PUSH1 0x4 DUP1 CALLDATASIZE SUB DUP2 ADD SWAP1 PUSH2 0xD4 SWAP2 SWAP1 PUSH2 0x1562 JUMP JUMPDEST PUSH2 0x453 JUMP JUMPDEST PUSH1 0x40 MLOAD PUSH2 0xEB SWAP7 SWAP6 SWAP5 SWAP4 SWAP3 SWAP2 SWAP1 PUSH2 0x1CF6 JUMP JUMPDEST PUSH1 0x40 MLOAD DUP1 SWAP2 SUB SWAP1 RETURN JUMPDEST PUSH2 0x10E PUSH1 0x4 DUP1 CALLDATASIZE SUB DUP2 ADD SWAP1 PUSH2 0x109 SWAP2 SWAP1 PUSH2 0x15CF JUMP JUMPDEST PUSH2 0x557 JUMP JUMPDEST STOP JUMPDEST PUSH2 0x118 PUSH2 0x989 JUMP JUMPDEST PUSH1 0x40 MLOAD PUSH2 0x125 SWAP2 SWAP1 PUSH2 0x1BA7 JUMP JUMPDEST PUSH1 0x40 MLOAD DUP1 SWAP2 SUB SWAP1 RETURN JUMPDEST PUSH2 0x148 PUSH1 0x4 DUP1 CALLDATASIZE SUB DUP2 ADD SWAP1 PUSH2 0x143 SWAP2 SWAP1 PUSH2 0x1535 JUMP JUMPDEST PUSH2 0xBAF JUMP JUMPDEST PUSH1 0x40 MLOAD PUSH2 0x158 SWAP5 SWAP4 SWAP3 SWAP2 SWAP1 PUSH2 0x1CA3 JUMP JUMPDEST PUSH1 0x40 MLOAD DUP1 SWAP2 SUB SWAP1 RETURN JUMPDEST PUSH2 0x17B PUSH1 0x4 DUP1 CALLDATASIZE SUB DUP2 ADD SWAP1 PUSH2 0x176 SWAP2 SWAP1 PUSH2 0x1562 JUMP JUMPDEST PUSH2 0xCEF JUMP JUMPDEST PUSH1 0x40 MLOAD PUSH2 0x18D SWAP7 SWAP6 SWAP5 SWAP4 SWAP3 SWAP2 SWAP1 PUSH2 0x1CF6 JUMP JUMPDEST PUSH1 0x40 MLOAD DUP1 SWAP2 SUB SWAP1 RETURN JUMPDEST PUSH2 0x1B0 PUSH1 0x4 DUP1 CALLDATASIZE SUB DUP2 ADD SWAP1 PUSH2 0x1AB SWAP2 SWAP1 PUSH2 0x1562 JUMP JUMPDEST PUSH2 0xDE3 JUMP JUMPDEST STOP JUMPDEST PUSH2 0x1CC PUSH1 0x4 DUP1 CALLDATASIZE SUB DUP2 ADD SWAP1 PUSH2 0x1C7 SWAP2 SWAP1 PUSH2 0x1562 JUMP JUMPDEST PUSH2 0x104E JUMP JUMPDEST PUSH1 0x40 MLOAD PUSH2 0x1D9 SWAP2 SWAP1 PUSH2 0x1C66 JUMP JUMPDEST PUSH1 0x40 MLOAD DUP1 SWAP2 SUB SWAP1 RETURN JUMPDEST PUSH2 0x1FC PUSH1 0x4 DUP1 CALLDATASIZE SUB DUP2 ADD SWAP1 PUSH2 0x1F7 SWAP2 SWAP1 PUSH2 0x158F JUMP JUMPDEST PUSH2 0x1257 JUMP JUMPDEST PUSH1 0x40 MLOAD PUSH2 0x209 SWAP2 SWAP1 PUSH2 0x1C88 JUMP JUMPDEST PUSH1 0x40 MLOAD DUP1 SWAP2 SUB SWAP1 RETURN JUMPDEST PUSH2 0x21A PUSH2 0x127C JUMP JUMPDEST PUSH1 0x40 MLOAD PUSH2 0x227 SWAP2 SWAP1 PUSH2 0x1BEB JUMP JUMPDEST PUSH1 0x40 MLOAD DUP1 SWAP2 SUB SWAP1 RETURN JUMPDEST DUP1 PUSH1 0x0 PUSH1 0x3 PUSH1 0x0 DUP4 DUP2 MSTORE PUSH1 0x20 ADD SWAP1 DUP2 MSTORE PUSH1 0x20 ADD PUSH1 0x0 KECCAK256 PUSH1 0x40 MLOAD DUP1 PUSH1 0xC0 ADD PUSH1 0x40 MSTORE SWAP1 DUP2 PUSH1 0x0 DUP3 ADD SLOAD DUP2 MSTORE PUSH1 0x20 ADD PUSH1 0x1 DUP3 ADD DUP1 SLOAD PUSH2 0x26B SWAP1 PUSH2 0x200D JUMP JUMPDEST DUP1 PUSH1 0x1F ADD PUSH1 0x20 DUP1 SWAP2 DIV MUL PUSH1 0x20 ADD PUSH1 0x40 MLOAD SWAP1 DUP2 ADD PUSH1 0x40 MSTORE DUP1 SWAP3 SWAP2 SWAP1 DUP2 DUP2 MSTORE PUSH1 0x20 ADD DUP3 DUP1 SLOAD PUSH2 0x297 SWAP1 PUSH2 0x200D JUMP JUMPDEST DUP1 ISZERO PUSH2 0x2E4 JUMPI DUP1 PUSH1 0x1F LT PUSH2 0x2B9 JUMPI PUSH2 0x100 DUP1 DUP4 SLOAD DIV MUL DUP4 MSTORE SWAP2 PUSH1 0x20 ADD SWAP2 PUSH2 0x2E4 JUMP JUMPDEST DUP3 ADD SWAP2 SWAP1 PUSH1 0x0 MSTORE PUSH1 0x20 PUSH1 0x0 KECCAK256 SWAP1 JUMPDEST DUP2 SLOAD DUP2 MSTORE SWAP1 PUSH1 0x1 ADD SWAP1 PUSH1 0x20 ADD DUP1 DUP4 GT PUSH2 0x2C7 JUMPI DUP3 SWAP1 SUB PUSH1 0x1F AND DUP3 ADD SWAP2 JUMPDEST POP POP POP POP POP DUP2 MSTORE PUSH1 0x20 ADD PUSH1 0x2 DUP3 ADD SLOAD DUP2 MSTORE PUSH1 0x20 ADD PUSH1 0x3 DUP3 ADD PUSH1 0x0 SWAP1 SLOAD SWAP1 PUSH2 0x100 EXP SWAP1 DIV PUSH20 0xFFFFFFFFFFFFFFFFFFFFFFFFFFFFFFFFFFFFFFFF AND PUSH20 0xFFFFFFFFFFFFFFFFFFFFFFFFFFFFFFFFFFFFFFFF AND PUSH20 0xFFFFFFFFFFFFFFFFFFFFFFFFFFFFFFFFFFFFFFFF AND DUP2 MSTORE PUSH1 0x20 ADD PUSH1 0x4 DUP3 ADD SLOAD DUP2 MSTORE PUSH1 0x20 ADD PUSH1 0x5 DUP3 ADD PUSH1 0x0 SWAP1 SLOAD SWAP1 PUSH2 0x100 EXP SWAP1 DIV PUSH4 0xFFFFFFFF AND PUSH4 0xFFFFFFFF AND PUSH4 0xFFFFFFFF AND DUP2 MSTORE POP POP SWAP1 POP DUP1 PUSH1 0x60 ADD MLOAD PUSH20 0xFFFFFFFFFFFFFFFFFFFFFFFFFFFFFFFFFFFFFFFF AND CALLER PUSH20 0xFFFFFFFFFFFFFFFFFFFFFFFFFFFFFFFFFFFFFFFF AND EQ ISZERO PUSH2 0x3BC JUMPI PUSH1 0x0 DUP1 REVERT JUMPDEST PUSH1 0x3 PUSH1 0x0 DUP5 DUP2 MSTORE PUSH1 0x20 ADD SWAP1 DUP2 MSTORE PUSH1 0x20 ADD PUSH1 0x0 KECCAK256 PUSH1 0x2 ADD PUSH1 0x0 DUP2 SLOAD DUP1 SWAP3 SWAP2 SWAP1 PUSH2 0x3E3 SWAP1 PUSH2 0x20BE JUMP JUMPDEST SWAP2 SWAP1 POP SSTORE POP CALLER PUSH20 0xFFFFFFFFFFFFFFFFFFFFFFFFFFFFFFFFFFFFFFFF AND PUSH32 0x1ED364E6F46A455FAC23816D3700669FF134C7A5FBE0240F52D932F834102462 DUP5 PUSH1 0x3 PUSH1 0x0 DUP8 DUP2 MSTORE PUSH1 0x20 ADD SWAP1 DUP2 MSTORE PUSH1 0x20 ADD PUSH1 0x0 KECCAK256 PUSH1 0x2 ADD SLOAD PUSH1 0x40 MLOAD PUSH2 0x446 SWAP3 SWAP2 SWAP1 PUSH2 0x1D8E JUMP JUMPDEST PUSH1 0x40 MLOAD DUP1 SWAP2 SUB SWAP1 LOG2 POP POP POP JUMP JUMPDEST PUSH1 0x1 DUP2 DUP2 SLOAD DUP2 LT PUSH2 0x463 JUMPI PUSH1 0x0 DUP1 REVERT JUMPDEST SWAP1 PUSH1 0x0 MSTORE PUSH1 0x20 PUSH1 0x0 KECCAK256 SWAP1 PUSH1 0x6 MUL ADD PUSH1 0x0 SWAP2 POP SWAP1 POP DUP1 PUSH1 0x0 ADD SLOAD SWAP1 DUP1 PUSH1 0x1 ADD DUP1 SLOAD PUSH2 0x48C SWAP1 PUSH2 0x200D JUMP JUMPDEST DUP1 PUSH1 0x1F ADD PUSH1 0x20 DUP1 SWAP2 DIV MUL PUSH1 0x20 ADD PUSH1 0x40 MLOAD SWAP1 DUP2 ADD PUSH1 0x40 MSTORE DUP1 SWAP3 SWAP2 SWAP1 DUP2 DUP2 MSTORE PUSH1 0x20 ADD DUP3 DUP1 SLOAD PUSH2 0x4B8 SWAP1 PUSH2 0x200D JUMP JUMPDEST DUP1 ISZERO PUSH2 0x505 JUMPI DUP1 PUSH1 0x1F LT PUSH2 0x4DA JUMPI PUSH2 0x100 DUP1 DUP4 SLOAD DIV MUL DUP4 MSTORE SWAP2 PUSH1 0x20 ADD SWAP2 PUSH2 0x505 JUMP JUMPDEST DUP3 ADD SWAP2 SWAP1 PUSH1 0x0 MSTORE PUSH1 0x20 PUSH1 0x0 KECCAK256 SWAP1 JUMPDEST DUP2 SLOAD DUP2 MSTORE SWAP1 PUSH1 0x1 ADD SWAP1 PUSH1 0x20 ADD DUP1 DUP4 GT PUSH2 0x4E8 JUMPI DUP3 SWAP1 SUB PUSH1 0x1F AND DUP3 ADD SWAP2 JUMPDEST POP POP POP POP POP SWAP1 DUP1 PUSH1 0x2 ADD SLOAD SWAP1 DUP1 PUSH1 0x3 ADD PUSH1 0x0 SWAP1 SLOAD SWAP1 PUSH2 0x100 EXP SWAP1 DIV PUSH20 0xFFFFFFFFFFFFFFFFFFFFFFFFFFFFFFFFFFFFFFFF AND SWAP1 DUP1 PUSH1 0x4 ADD SLOAD SWAP1 DUP1 PUSH1 0x5 ADD PUSH1 0x0 SWAP1 SLOAD SWAP1 PUSH2 0x100 EXP SWAP1 DIV PUSH4 0xFFFFFFFF AND SWAP1 POP DUP7 JUMP JUMPDEST PUSH1 0x40 MLOAD DUP1 PUSH1 0xC0 ADD PUSH1 0x40 MSTORE DUP1 PUSH2 0x56C PUSH1 0x5 PUSH2 0x12A0 JUMP JUMPDEST DUP2 MSTORE PUSH1 0x20 ADD DUP4 DUP2 MSTORE PUSH1 0x20 ADD PUSH1 0x0 DUP2 MSTORE PUSH1 0x20 ADD CALLER PUSH20 0xFFFFFFFFFFFFFFFFFFFFFFFFFFFFFFFFFFFFFFFF AND DUP2 MSTORE PUSH1 0x20 ADD DUP5 DUP2 MSTORE PUSH1 0x20 ADD DUP3 PUSH4 0xFFFFFFFF AND DUP2 MSTORE POP PUSH1 0x3 PUSH1 0x0 PUSH2 0x5B8 PUSH1 0x5 PUSH2 0x12A0 JUMP JUMPDEST DUP2 MSTORE PUSH1 0x20 ADD SWAP1 DUP2 MSTORE PUSH1 0x20 ADD PUSH1 0x0 KECCAK256 PUSH1 0x0 DUP3 ADD MLOAD DUP2 PUSH1 0x0 ADD SSTORE PUSH1 0x20 DUP3 ADD MLOAD DUP2 PUSH1 0x1 ADD SWAP1 DUP1 MLOAD SWAP1 PUSH1 0x20 ADD SWAP1 PUSH2 0x5EC SWAP3 SWAP2 SWAP1 PUSH2 0x12C4 JUMP JUMPDEST POP PUSH1 0x40 DUP3 ADD MLOAD DUP2 PUSH1 0x2 ADD SSTORE PUSH1 0x60 DUP3 ADD MLOAD DUP2 PUSH1 0x3 ADD PUSH1 0x0 PUSH2 0x100 EXP DUP2 SLOAD DUP2 PUSH20 0xFFFFFFFFFFFFFFFFFFFFFFFFFFFFFFFFFFFFFFFF MUL NOT AND SWAP1 DUP4 PUSH20 0xFFFFFFFFFFFFFFFFFFFFFFFFFFFFFFFFFFFFFFFF AND MUL OR SWAP1 SSTORE POP PUSH1 0x80 DUP3 ADD MLOAD DUP2 PUSH1 0x4 ADD SSTORE PUSH1 0xA0 DUP3 ADD MLOAD DUP2 PUSH1 0x5 ADD PUSH1 0x0 PUSH2 0x100 EXP DUP2 SLOAD DUP2 PUSH4 0xFFFFFFFF MUL NOT AND SWAP1 DUP4 PUSH4 0xFFFFFFFF AND MUL OR SWAP1 SSTORE POP SWAP1 POP POP PUSH1 0x2 PUSH1 0x0 CALLER PUSH20 0xFFFFFFFFFFFFFFFFFFFFFFFFFFFFFFFFFFFFFFFF AND PUSH20 0xFFFFFFFFFFFFFFFFFFFFFFFFFFFFFFFFFFFFFFFF AND DUP2 MSTORE PUSH1 0x20 ADD SWAP1 DUP2 MSTORE PUSH1 0x20 ADD PUSH1 0x0 KECCAK256 PUSH1 0x4 ADD PUSH1 0x3 PUSH1 0x0 PUSH2 0x6C2 PUSH1 0x5 PUSH2 0x12A0 JUMP JUMPDEST DUP2 MSTORE PUSH1 0x20 ADD SWAP1 DUP2 MSTORE PUSH1 0x20 ADD PUSH1 0x0 KECCAK256 SWAP1 DUP1 PUSH1 0x1 DUP2 SLOAD ADD DUP1 DUP3 SSTORE DUP1 SWAP2 POP POP PUSH1 0x1 SWAP1 SUB SWAP1 PUSH1 0x0 MSTORE PUSH1 0x20 PUSH1 0x0 KECCAK256 SWAP1 PUSH1 0x6 MUL ADD PUSH1 0x0 SWAP1 SWAP2 SWAP1 SWAP2 SWAP1 SWAP2 POP PUSH1 0x0 DUP3 ADD SLOAD DUP2 PUSH1 0x0 ADD SSTORE PUSH1 0x1 DUP3 ADD DUP2 PUSH1 0x1 ADD SWAP1 DUP1 SLOAD PUSH2 0x717 SWAP1 PUSH2 0x200D JUMP JUMPDEST PUSH2 0x722 SWAP3 SWAP2 SWAP1 PUSH2 0x134A JUMP JUMPDEST POP PUSH1 0x2 DUP3 ADD SLOAD DUP2 PUSH1 0x2 ADD SSTORE PUSH1 0x3 DUP3 ADD PUSH1 0x0 SWAP1 SLOAD SWAP1 PUSH2 0x100 EXP SWAP1 DIV PUSH20 0xFFFFFFFFFFFFFFFFFFFFFFFFFFFFFFFFFFFFFFFF AND DUP2 PUSH1 0x3 ADD PUSH1 0x0 PUSH2 0x100 EXP DUP2 SLOAD DUP2 PUSH20 0xFFFFFFFFFFFFFFFFFFFFFFFFFFFFFFFFFFFFFFFF MUL NOT AND SWAP1 DUP4 PUSH20 0xFFFFFFFFFFFFFFFFFFFFFFFFFFFFFFFFFFFFFFFF AND MUL OR SWAP1 SSTORE POP PUSH1 0x4 DUP3 ADD SLOAD DUP2 PUSH1 0x4 ADD SSTORE PUSH1 0x5 DUP3 ADD PUSH1 0x0 SWAP1 SLOAD SWAP1 PUSH2 0x100 EXP SWAP1 DIV PUSH4 0xFFFFFFFF AND DUP2 PUSH1 0x5 ADD PUSH1 0x0 PUSH2 0x100 EXP DUP2 SLOAD DUP2 PUSH4 0xFFFFFFFF MUL NOT AND SWAP1 DUP4 PUSH4 0xFFFFFFFF AND MUL OR SWAP1 SSTORE POP POP POP PUSH1 0x1 PUSH1 0x3 PUSH1 0x0 PUSH2 0x7E7 PUSH1 0x5 PUSH2 0x12A0 JUMP JUMPDEST DUP2 MSTORE PUSH1 0x20 ADD SWAP1 DUP2 MSTORE PUSH1 0x20 ADD PUSH1 0x0 KECCAK256 SWAP1 DUP1 PUSH1 0x1 DUP2 SLOAD ADD DUP1 DUP3 SSTORE DUP1 SWAP2 POP POP PUSH1 0x1 SWAP1 SUB SWAP1 PUSH1 0x0 MSTORE PUSH1 0x20 PUSH1 0x0 KECCAK256 SWAP1 PUSH1 0x6 MUL ADD PUSH1 0x0 SWAP1 SWAP2 SWAP1 SWAP2 SWAP1 SWAP2 POP PUSH1 0x0 DUP3 ADD SLOAD DUP2 PUSH1 0x0 ADD SSTORE PUSH1 0x1 DUP3 ADD DUP2 PUSH1 0x1 ADD SWAP1 DUP1 SLOAD PUSH2 0x83C SWAP1 PUSH2 0x200D JUMP JUMPDEST PUSH2 0x847 SWAP3 SWAP2 SWAP1 PUSH2 0x134A JUMP JUMPDEST POP PUSH1 0x2 DUP3 ADD SLOAD DUP2 PUSH1 0x2 ADD SSTORE PUSH1 0x3 DUP3 ADD PUSH1 0x0 SWAP1 SLOAD SWAP1 PUSH2 0x100 EXP SWAP1 DIV PUSH20 0xFFFFFFFFFFFFFFFFFFFFFFFFFFFFFFFFFFFFFFFF AND DUP2 PUSH1 0x3 ADD PUSH1 0x0 PUSH2 0x100 EXP DUP2 SLOAD DUP2 PUSH20 0xFFFFFFFFFFFFFFFFFFFFFFFFFFFFFFFFFFFFFFFF MUL NOT AND SWAP1 DUP4 PUSH20 0xFFFFFFFFFFFFFFFFFFFFFFFFFFFFFFFFFFFFFFFF AND MUL OR SWAP1 SSTORE POP PUSH1 0x4 DUP3 ADD SLOAD DUP2 PUSH1 0x4 ADD SSTORE PUSH1 0x5 DUP3 ADD PUSH1 0x0 SWAP1 SLOAD SWAP1 PUSH2 0x100 EXP SWAP1 DIV PUSH4 0xFFFFFFFF AND DUP2 PUSH1 0x5 ADD PUSH1 0x0 PUSH2 0x100 EXP DUP2 SLOAD DUP2 PUSH4 0xFFFFFFFF MUL NOT AND SWAP1 DUP4 PUSH4 0xFFFFFFFF AND MUL OR SWAP1 SSTORE POP POP POP PUSH2 0x906 PUSH1 0x5 PUSH2 0x12AE JUMP JUMPDEST CALLER PUSH20 0xFFFFFFFFFFFFFFFFFFFFFFFFFFFFFFFFFFFFFFFF AND PUSH32 0x9A5B8B5CB7F9C536EA5DB1A94142C9F716FB3A8698A9C70A5B8BFAD3922CB06C PUSH2 0x948 PUSH1 0x5 PUSH2 0x12A0 JUMP JUMPDEST DUP6 DUP6 DUP6 PUSH1 0x3 PUSH1 0x0 PUSH2 0x959 PUSH1 0x5 PUSH2 0x12A0 JUMP JUMPDEST DUP2 MSTORE PUSH1 0x20 ADD SWAP1 DUP2 MSTORE PUSH1 0x20 ADD PUSH1 0x0 KECCAK256 PUSH1 0x2 ADD SLOAD PUSH1 0x40 MLOAD PUSH2 0x97C SWAP6 SWAP5 SWAP4 SWAP3 SWAP2 SWAP1 PUSH2 0x1DB7 JUMP JUMPDEST PUSH1 0x40 MLOAD DUP1 SWAP2 SUB SWAP1 LOG2 POP POP POP JUMP JUMPDEST PUSH1 0x60 PUSH1 0x0 PUSH2 0x997 PUSH1 0x5 PUSH2 0x12A0 JUMP JUMPDEST GT PUSH2 0x9D7 JUMPI PUSH1 0x40 MLOAD PUSH32 0x8C379A000000000000000000000000000000000000000000000000000000000 DUP2 MSTORE PUSH1 0x4 ADD PUSH2 0x9CE SWAP1 PUSH2 0x1C06 JUMP JUMPDEST PUSH1 0x40 MLOAD DUP1 SWAP2 SUB SWAP1 REVERT JUMPDEST CALLER PUSH20 0xFFFFFFFFFFFFFFFFFFFFFFFFFFFFFFFFFFFFFFFF AND PUSH32 0x440C078A5E11BFF85C6B6D7C52F378C8220355BD3331EC889638C0ECA883670C PUSH1 0x1 PUSH1 0x40 MLOAD PUSH2 0xA1E SWAP2 SWAP1 PUSH2 0x1BC9 JUMP JUMPDEST PUSH1 0x40 MLOAD DUP1 SWAP2 SUB SWAP1 LOG2 PUSH1 0x1 DUP1 SLOAD DUP1 PUSH1 0x20 MUL PUSH1 0x20 ADD PUSH1 0x40 MLOAD SWAP1 DUP2 ADD PUSH1 0x40 MSTORE DUP1 SWAP3 SWAP2 SWAP1 DUP2 DUP2 MSTORE PUSH1 0x20 ADD PUSH1 0x0 SWAP1 JUMPDEST DUP3 DUP3 LT ISZERO PUSH2 0xBA6 JUMPI DUP4 DUP3 SWAP1 PUSH1 0x0 MSTORE PUSH1 0x20 PUSH1 0x0 KECCAK256 SWAP1 PUSH1 0x6 MUL ADD PUSH1 0x40 MLOAD DUP1 PUSH1 0xC0 ADD PUSH1 0x40 MSTORE SWAP1 DUP2 PUSH1 0x0 DUP3 ADD SLOAD DUP2 MSTORE PUSH1 0x20 ADD PUSH1 0x1 DUP3 ADD DUP1 SLOAD PUSH2 0xA85 SWAP1 PUSH2 0x200D JUMP JUMPDEST DUP1 PUSH1 0x1F ADD PUSH1 0x20 DUP1 SWAP2 DIV MUL PUSH1 0x20 ADD PUSH1 0x40 MLOAD SWAP1 DUP2 ADD PUSH1 0x40 MSTORE DUP1 SWAP3 SWAP2 SWAP1 DUP2 DUP2 MSTORE PUSH1 0x20 ADD DUP3 DUP1 SLOAD PUSH2 0xAB1 SWAP1 PUSH2 0x200D JUMP JUMPDEST DUP1 ISZERO PUSH2 0xAFE JUMPI DUP1 PUSH1 0x1F LT PUSH2 0xAD3 JUMPI PUSH2 0x100 DUP1 DUP4 SLOAD DIV MUL DUP4 MSTORE SWAP2 PUSH1 0x20 ADD SWAP2 PUSH2 0xAFE JUMP JUMPDEST DUP3 ADD SWAP2 SWAP1 PUSH1 0x0 MSTORE PUSH1 0x20 PUSH1 0x0 KECCAK256 SWAP1 JUMPDEST DUP2 SLOAD DUP2 MSTORE SWAP1 PUSH1 0x1 ADD SWAP1 PUSH1 0x20 ADD DUP1 DUP4 GT PUSH2 0xAE1 JUMPI DUP3 SWAP1 SUB PUSH1 0x1F AND DUP3 ADD SWAP2 JUMPDEST POP POP POP POP POP DUP2 MSTORE PUSH1 0x20 ADD PUSH1 0x2 DUP3 ADD SLOAD DUP2 MSTORE PUSH1 0x20 ADD PUSH1 0x3 DUP3 ADD PUSH1 0x0 SWAP1 SLOAD SWAP1 PUSH2 0x100 EXP SWAP1 DIV PUSH20 0xFFFFFFFFFFFFFFFFFFFFFFFFFFFFFFFFFFFFFFFF AND PUSH20 0xFFFFFFFFFFFFFFFFFFFFFFFFFFFFFFFFFFFFFFFF AND PUSH20 0xFFFFFFFFFFFFFFFFFFFFFFFFFFFFFFFFFFFFFFFF AND DUP2 MSTORE PUSH1 0x20 ADD PUSH1 0x4 DUP3 ADD SLOAD DUP2 MSTORE PUSH1 0x20 ADD PUSH1 0x5 DUP3 ADD PUSH1 0x0 SWAP1 SLOAD SWAP1 PUSH2 0x100 EXP SWAP1 DIV PUSH4 0xFFFFFFFF AND PUSH4 0xFFFFFFFF AND PUSH4 0xFFFFFFFF AND DUP2 MSTORE POP POP DUP2 MSTORE PUSH1 0x20 ADD SWAP1 PUSH1 0x1 ADD SWAP1 PUSH2 0xA48 JUMP JUMPDEST POP POP POP POP SWAP1 POP SWAP1 JUMP JUMPDEST PUSH1 0x2 PUSH1 0x20 MSTORE DUP1 PUSH1 0x0 MSTORE PUSH1 0x40 PUSH1 0x0 KECCAK256 PUSH1 0x0 SWAP2 POP SWAP1 POP DUP1 PUSH1 0x0 ADD SLOAD SWAP1 DUP1 PUSH1 0x1 ADD DUP1 SLOAD PUSH2 0xBD8 SWAP1 PUSH2 0x200D JUMP JUMPDEST DUP1 PUSH1 0x1F ADD PUSH1 0x20 DUP1 SWAP2 DIV MUL PUSH1 0x20 ADD PUSH1 0x40 MLOAD SWAP1 DUP2 ADD PUSH1 0x40 MSTORE DUP1 SWAP3 SWAP2 SWAP1 DUP2 DUP2 MSTORE PUSH1 0x20 ADD DUP3 DUP1 SLOAD PUSH2 0xC04 SWAP1 PUSH2 0x200D JUMP JUMPDEST DUP1 ISZERO PUSH2 0xC51 JUMPI DUP1 PUSH1 0x1F LT PUSH2 0xC26 JUMPI PUSH2 0x100 DUP1 DUP4 SLOAD DIV MUL DUP4 MSTORE SWAP2 PUSH1 0x20 ADD SWAP2 PUSH2 0xC51 JUMP JUMPDEST DUP3 ADD SWAP2 SWAP1 PUSH1 0x0 MSTORE PUSH1 0x20 PUSH1 0x0 KECCAK256 SWAP1 JUMPDEST DUP2 SLOAD DUP2 MSTORE SWAP1 PUSH1 0x1 ADD SWAP1 PUSH1 0x20 ADD DUP1 DUP4 GT PUSH2 0xC34 JUMPI DUP3 SWAP1 SUB PUSH1 0x1F AND DUP3 ADD SWAP2 JUMPDEST POP POP POP POP POP SWAP1 DUP1 PUSH1 0x2 ADD DUP1 SLOAD PUSH2 0xC66 SWAP1 PUSH2 0x200D JUMP JUMPDEST DUP1 PUSH1 0x1F ADD PUSH1 0x20 DUP1 SWAP2 DIV MUL PUSH1 0x20 ADD PUSH1 0x40 MLOAD SWAP1 DUP2 ADD PUSH1 0x40 MSTORE DUP1 SWAP3 SWAP2 SWAP1 DUP2 DUP2 MSTORE PUSH1 0x20 ADD DUP3 DUP1 SLOAD PUSH2 0xC92 SWAP1 PUSH2 0x200D JUMP JUMPDEST DUP1 ISZERO PUSH2 0xCDF JUMPI DUP1 PUSH1 0x1F LT PUSH2 0xCB4 JUMPI PUSH2 0x100 DUP1 DUP4 SLOAD DIV MUL DUP4 MSTORE SWAP2 PUSH1 0x20 ADD SWAP2 PUSH2 0xCDF JUMP JUMPDEST DUP3 ADD SWAP2 SWAP1 PUSH1 0x0 MSTORE PUSH1 0x20 PUSH1 0x0 KECCAK256 SWAP1 JUMPDEST DUP2 SLOAD DUP2 MSTORE SWAP1 PUSH1 0x1 ADD SWAP1 PUSH1 0x20 ADD DUP1 DUP4 GT PUSH2 0xCC2 JUMPI DUP3 SWAP1 SUB PUSH1 0x1F AND DUP3 ADD SWAP2 JUMPDEST POP POP POP POP POP SWAP1 DUP1 PUSH1 0x5 ADD SLOAD SWAP1 POP DUP5 JUMP JUMPDEST PUSH1 0x3 PUSH1 0x20 MSTORE DUP1 PUSH1 0x0 MSTORE PUSH1 0x40 PUSH1 0x0 KECCAK256 PUSH1 0x0 SWAP2 POP SWAP1 POP DUP1 PUSH1 0x0 ADD SLOAD SWAP1 DUP1 PUSH1 0x1 ADD DUP1 SLOAD PUSH2 0xD18 SWAP1 PUSH2 0x200D JUMP JUMPDEST DUP1 PUSH1 0x1F ADD PUSH1 0x20 DUP1 SWAP2 DIV MUL PUSH1 0x20 ADD PUSH1 0x40 MLOAD SWAP1 DUP2 ADD PUSH1 0x40 MSTORE DUP1 SWAP3 SWAP2 SWAP1 DUP2 DUP2 MSTORE PUSH1 0x20 ADD DUP3 DUP1 SLOAD PUSH2 0xD44 SWAP1 PUSH2 0x200D JUMP JUMPDEST DUP1 ISZERO PUSH2 0xD91 JUMPI DUP1 PUSH1 0x1F LT PUSH2 0xD66 JUMPI PUSH2 0x100 DUP1 DUP4 SLOAD DIV MUL DUP4 MSTORE SWAP2 PUSH1 0x20 ADD SWAP2 PUSH2 0xD91 JUMP JUMPDEST DUP3 ADD SWAP2 SWAP1 PUSH1 0x0 MSTORE PUSH1 0x20 PUSH1 0x0 KECCAK256 SWAP1 JUMPDEST DUP2 SLOAD DUP2 MSTORE SWAP1 PUSH1 0x1 ADD SWAP1 PUSH1 0x20 ADD DUP1 DUP4 GT PUSH2 0xD74 JUMPI DUP3 SWAP1 SUB PUSH1 0x1F AND DUP3 ADD SWAP2 JUMPDEST POP POP POP POP POP SWAP1 DUP1 PUSH1 0x2 ADD SLOAD SWAP1 DUP1 PUSH1 0x3 ADD PUSH1 0x0 SWAP1 SLOAD SWAP1 PUSH2 0x100 EXP SWAP1 DIV PUSH20 0xFFFFFFFFFFFFFFFFFFFFFFFFFFFFFFFFFFFFFFFF AND SWAP1 DUP1 PUSH1 0x4 ADD SLOAD SWAP1 DUP1 PUSH1 0x5 ADD PUSH1 0x0 SWAP1 SLOAD SWAP1 PUSH2 0x100 EXP SWAP1 DIV PUSH4 0xFFFFFFFF AND SWAP1 POP DUP7 JUMP JUMPDEST DUP1 PUSH1 0x0 PUSH1 0x3 PUSH1 0x0 DUP4 DUP2 MSTORE PUSH1 0x20 ADD SWAP1 DUP2 MSTORE PUSH1 0x20 ADD PUSH1 0x0 KECCAK256 PUSH1 0x40 MLOAD DUP1 PUSH1 0xC0 ADD PUSH1 0x40 MSTORE SWAP1 DUP2 PUSH1 0x0 DUP3 ADD SLOAD DUP2 MSTORE PUSH1 0x20 ADD PUSH1 0x1 DUP3 ADD DUP1 SLOAD PUSH2 0xE1E SWAP1 PUSH2 0x200D JUMP JUMPDEST DUP1 PUSH1 0x1F ADD PUSH1 0x20 DUP1 SWAP2 DIV MUL PUSH1 0x20 ADD PUSH1 0x40 MLOAD SWAP1 DUP2 ADD PUSH1 0x40 MSTORE DUP1 SWAP3 SWAP2 SWAP1 DUP2 DUP2 MSTORE PUSH1 0x20 ADD DUP3 DUP1 SLOAD PUSH2 0xE4A SWAP1 PUSH2 0x200D JUMP JUMPDEST DUP1 ISZERO PUSH2 0xE97 JUMPI DUP1 PUSH1 0x1F LT PUSH2 0xE6C JUMPI PUSH2 0x100 DUP1 DUP4 SLOAD DIV MUL DUP4 MSTORE SWAP2 PUSH1 0x20 ADD SWAP2 PUSH2 0xE97 JUMP JUMPDEST DUP3 ADD SWAP2 SWAP1 PUSH1 0x0 MSTORE PUSH1 0x20 PUSH1 0x0 KECCAK256 SWAP1 JUMPDEST DUP2 SLOAD DUP2 MSTORE SWAP1 PUSH1 0x1 ADD SWAP1 PUSH1 0x20 ADD DUP1 DUP4 GT PUSH2 0xE7A JUMPI DUP3 SWAP1 SUB PUSH1 0x1F AND DUP3 ADD SWAP2 JUMPDEST POP POP POP POP POP DUP2 MSTORE PUSH1 0x20 ADD PUSH1 0x2 DUP3 ADD SLOAD DUP2 MSTORE PUSH1 0x20 ADD PUSH1 0x3 DUP3 ADD PUSH1 0x0 SWAP1 SLOAD SWAP1 PUSH2 0x100 EXP SWAP1 DIV PUSH20 0xFFFFFFFFFFFFFFFFFFFFFFFFFFFFFFFFFFFFFFFF AND PUSH20 0xFFFFFFFFFFFFFFFFFFFFFFFFFFFFFFFFFFFFFFFF AND PUSH20 0xFFFFFFFFFFFFFFFFFFFFFFFFFFFFFFFFFFFFFFFF AND DUP2 MSTORE PUSH1 0x20 ADD PUSH1 0x4 DUP3 ADD SLOAD DUP2 MSTORE PUSH1 0x20 ADD PUSH1 0x5 DUP3 ADD PUSH1 0x0 SWAP1 SLOAD SWAP1 PUSH2 0x100 EXP SWAP1 DIV PUSH4 0xFFFFFFFF AND PUSH4 0xFFFFFFFF AND PUSH4 0xFFFFFFFF AND DUP2 MSTORE POP POP SWAP1 POP TIMESTAMP DUP2 PUSH1 0xA0 ADD MLOAD PUSH4 0xFFFFFFFF AND LT ISZERO PUSH2 0xF7F JUMPI PUSH1 0x40 MLOAD PUSH32 0x8C379A000000000000000000000000000000000000000000000000000000000 DUP2 MSTORE PUSH1 0x4 ADD PUSH2 0xF76 SWAP1 PUSH2 0x1C46 JUMP JUMPDEST PUSH1 0x40 MLOAD DUP1 SWAP2 SUB SWAP1 REVERT JUMPDEST PUSH1 0x3 PUSH1 0x0 DUP5 DUP2 MSTORE PUSH1 0x20 ADD SWAP1 DUP2 MSTORE PUSH1 0x20 ADD PUSH1 0x0 KECCAK256 PUSH1 0x0 DUP1 DUP3 ADD PUSH1 0x0 SWAP1 SSTORE PUSH1 0x1 DUP3 ADD PUSH1 0x0 PUSH2 0xFAB SWAP2 SWAP1 PUSH2 0x13D7 JUMP JUMPDEST PUSH1 0x2 DUP3 ADD PUSH1 0x0 SWAP1 SSTORE PUSH1 0x3 DUP3 ADD PUSH1 0x0 PUSH2 0x100 EXP DUP2 SLOAD SWAP1 PUSH20 0xFFFFFFFFFFFFFFFFFFFFFFFFFFFFFFFFFFFFFFFF MUL NOT AND SWAP1 SSTORE PUSH1 0x4 DUP3 ADD PUSH1 0x0 SWAP1 SSTORE PUSH1 0x5 DUP3 ADD PUSH1 0x0 PUSH2 0x100 EXP DUP2 SLOAD SWAP1 PUSH4 0xFFFFFFFF MUL NOT AND SWAP1 SSTORE POP POP CALLER PUSH20 0xFFFFFFFFFFFFFFFFFFFFFFFFFFFFFFFFFFFFFFFF AND PUSH32 0x45E4102CD0468B42F71C0179AA78051418C31C018E07A5091EB13B97FADBAB5E DUP5 PUSH1 0x40 MLOAD PUSH2 0x1041 SWAP2 SWAP1 PUSH2 0x1C88 JUMP JUMPDEST PUSH1 0x40 MLOAD DUP1 SWAP2 SUB SWAP1 LOG2 POP POP POP JUMP JUMPDEST PUSH2 0x1056 PUSH2 0x1417 JUMP JUMPDEST DUP2 PUSH2 0x1061 PUSH1 0x5 PUSH2 0x12A0 JUMP JUMPDEST DUP2 GT ISZERO PUSH2 0x10A3 JUMPI PUSH1 0x40 MLOAD PUSH32 0x8C379A000000000000000000000000000000000000000000000000000000000 DUP2 MSTORE PUSH1 0x4 ADD PUSH2 0x109A SWAP1 PUSH2 0x1C26 JUMP JUMPDEST PUSH1 0x40 MLOAD DUP1 SWAP2 SUB SWAP1 REVERT JUMPDEST CALLER PUSH20 0xFFFFFFFFFFFFFFFFFFFFFFFFFFFFFFFFFFFFFFFF AND PUSH32 0xCB718FFB18411374498C1CD31CB4D4C8068AF3C5B1546205F14C72BCD20F21BA DUP5 PUSH1 0x3 PUSH1 0x0 DUP8 DUP2 MSTORE PUSH1 0x20 ADD SWAP1 DUP2 MSTORE PUSH1 0x20 ADD PUSH1 0x0 KECCAK256 PUSH1 0x40 MLOAD PUSH2 0x10FD SWAP3 SWAP2 SWAP1 PUSH2 0x1D5E JUMP JUMPDEST PUSH1 0x40 MLOAD DUP1 SWAP2 SUB SWAP1 LOG2 PUSH1 0x3 PUSH1 0x0 DUP5 DUP2 MSTORE PUSH1 0x20 ADD SWAP1 DUP2 MSTORE PUSH1 0x20 ADD PUSH1 0x0 KECCAK256 PUSH1 0x40 MLOAD DUP1 PUSH1 0xC0 ADD PUSH1 0x40 MSTORE SWAP1 DUP2 PUSH1 0x0 DUP3 ADD SLOAD DUP2 MSTORE PUSH1 0x20 ADD PUSH1 0x1 DUP3 ADD DUP1 SLOAD PUSH2 0x113D SWAP1 PUSH2 0x200D JUMP JUMPDEST DUP1 PUSH1 0x1F ADD PUSH1 0x20 DUP1 SWAP2 DIV MUL PUSH1 0x20 ADD PUSH1 0x40 MLOAD SWAP1 DUP2 ADD PUSH1 0x40 MSTORE DUP1 SWAP3 SWAP2 SWAP1 DUP2 DUP2 MSTORE PUSH1 0x20 ADD DUP3 DUP1 SLOAD PUSH2 0x1169 SWAP1 PUSH2 0x200D JUMP JUMPDEST DUP1 ISZERO PUSH2 0x11B6 JUMPI DUP1 PUSH1 0x1F LT PUSH2 0x118B JUMPI PUSH2 0x100 DUP1 DUP4 SLOAD DIV MUL DUP4 MSTORE SWAP2 PUSH1 0x20 ADD SWAP2 PUSH2 0x11B6 JUMP JUMPDEST DUP3 ADD SWAP2 SWAP1 PUSH1 0x0 MSTORE PUSH1 0x20 PUSH1 0x0 KECCAK256 SWAP1 JUMPDEST DUP2 SLOAD DUP2 MSTORE SWAP1 PUSH1 0x1 ADD SWAP1 PUSH1 0x20 ADD DUP1 DUP4 GT PUSH2 0x1199 JUMPI DUP3 SWAP1 SUB PUSH1 0x1F AND DUP3 ADD SWAP2 JUMPDEST POP POP POP POP POP DUP2 MSTORE PUSH1 0x20 ADD PUSH1 0x2 DUP3 ADD SLOAD DUP2 MSTORE PUSH1 0x20 ADD PUSH1 0x3 DUP3 ADD PUSH1 0x0 SWAP1 SLOAD SWAP1 PUSH2 0x100 EXP SWAP1 DIV PUSH20 0xFFFFFFFFFFFFFFFFFFFFFFFFFFFFFFFFFFFFFFFF AND PUSH20 0xFFFFFFFFFFFFFFFFFFFFFFFFFFFFFFFFFFFFFFFF AND PUSH20 0xFFFFFFFFFFFFFFFFFFFFFFFFFFFFFFFFFFFFFFFF AND DUP2 MSTORE PUSH1 0x20 ADD PUSH1 0x4 DUP3 ADD SLOAD DUP2 MSTORE PUSH1 0x20 ADD PUSH1 0x5 DUP3 ADD PUSH1 0x0 SWAP1 SLOAD SWAP1 PUSH2 0x100 EXP SWAP1 DIV PUSH4 0xFFFFFFFF AND PUSH4 0xFFFFFFFF AND PUSH4 0xFFFFFFFF AND DUP2 MSTORE POP POP SWAP2 POP POP SWAP2 SWAP1 POP JUMP JUMPDEST PUSH1 0x4 PUSH1 0x20 MSTORE DUP2 PUSH1 0x0 MSTORE PUSH1 0x40 PUSH1 0x0 KECCAK256 PUSH1 0x20 MSTORE DUP1 PUSH1 0x0 MSTORE PUSH1 0x40 PUSH1 0x0 KECCAK256 PUSH1 0x0 SWAP2 POP SWAP2 POP POP SLOAD DUP2 JUMP JUMPDEST PUSH1 0x0 DUP1 SLOAD SWAP1 PUSH2 0x100 EXP SWAP1 DIV PUSH20 0xFFFFFFFFFFFFFFFFFFFFFFFFFFFFFFFFFFFFFFFF AND DUP2 JUMP JUMPDEST PUSH1 0x0 DUP2 PUSH1 0x0 ADD SLOAD SWAP1 POP SWAP2 SWAP1 POP JUMP JUMPDEST PUSH1 0x1 DUP2 PUSH1 0x0 ADD PUSH1 0x0 DUP3 DUP3 SLOAD ADD SWAP3 POP POP DUP2 SWAP1 SSTORE POP POP JUMP JUMPDEST DUP3 DUP1 SLOAD PUSH2 0x12D0 SWAP1 PUSH2 0x200D JUMP JUMPDEST SWAP1 PUSH1 0x0 MSTORE PUSH1 0x20 PUSH1 0x0 KECCAK256 SWAP1 PUSH1 0x1F ADD PUSH1 0x20 SWAP1 DIV DUP2 ADD SWAP3 DUP3 PUSH2 0x12F2 JUMPI PUSH1 0x0 DUP6 SSTORE PUSH2 0x1339 JUMP JUMPDEST DUP3 PUSH1 0x1F LT PUSH2 0x130B JUMPI DUP1 MLOAD PUSH1 0xFF NOT AND DUP4 DUP1 ADD OR DUP6 SSTORE PUSH2 0x1339 JUMP JUMPDEST DUP3 DUP1 ADD PUSH1 0x1 ADD DUP6 SSTORE DUP3 ISZERO PUSH2 0x1339 JUMPI SWAP2 DUP3 ADD JUMPDEST DUP3 DUP2 GT ISZERO PUSH2 0x1338 JUMPI DUP3 MLOAD DUP3 SSTORE SWAP2 PUSH1 0x20 ADD SWAP2 SWAP1 PUSH1 0x1 ADD SWAP1 PUSH2 0x131D JUMP JUMPDEST JUMPDEST POP SWAP1 POP PUSH2 0x1346 SWAP2 SWAP1 PUSH2 0x1469 JUMP JUMPDEST POP SWAP1 JUMP JUMPDEST DUP3 DUP1 SLOAD PUSH2 0x1356 SWAP1 PUSH2 0x200D JUMP JUMPDEST SWAP1 PUSH1 0x0 MSTORE PUSH1 0x20 PUSH1 0x0 KECCAK256 SWAP1 PUSH1 0x1F ADD PUSH1 0x20 SWAP1 DIV DUP2 ADD SWAP3 DUP3 PUSH2 0x1378 JUMPI PUSH1 0x0 DUP6 SSTORE PUSH2 0x13C6 JUMP JUMPDEST DUP3 PUSH1 0x1F LT PUSH2 0x1389 JUMPI DUP1 SLOAD DUP6 SSTORE PUSH2 0x13C6 JUMP JUMPDEST DUP3 DUP1 ADD PUSH1 0x1 ADD DUP6 SSTORE DUP3 ISZERO PUSH2 0x13C6 JUMPI PUSH1 0x0 MSTORE PUSH1 0x20 PUSH1 0x0 KECCAK256 SWAP2 PUSH1 0x1F ADD PUSH1 0x20 SWAP1 DIV DUP3 ADD JUMPDEST DUP3 DUP2 GT ISZERO PUSH2 0x13C5 JUMPI DUP3 SLOAD DUP3 SSTORE SWAP2 PUSH1 0x1 ADD SWAP2 SWAP1 PUSH1 0x1 ADD SWAP1 PUSH2 0x13AA JUMP JUMPDEST JUMPDEST POP SWAP1 POP PUSH2 0x13D3 SWAP2 SWAP1 PUSH2 0x1469 JUMP JUMPDEST POP SWAP1 JUMP JUMPDEST POP DUP1 SLOAD PUSH2 0x13E3 SWAP1 PUSH2 0x200D JUMP JUMPDEST PUSH1 0x0 DUP3 SSTORE DUP1 PUSH1 0x1F LT PUSH2 0x13F5 JUMPI POP PUSH2 0x1414 JUMP JUMPDEST PUSH1 0x1F ADD PUSH1 0x20 SWAP1 DIV SWAP1 PUSH1 0x0 MSTORE PUSH1 0x20 PUSH1 0x0 KECCAK256 SWAP1 DUP2 ADD SWAP1 PUSH2 0x1413 SWAP2 SWAP1 PUSH2 0x1469 JUMP JUMPDEST JUMPDEST POP JUMP JUMPDEST PUSH1 0x40 MLOAD DUP1 PUSH1 0xC0 ADD PUSH1 0x40 MSTORE DUP1 PUSH1 0x0 DUP2 MSTORE PUSH1 0x20 ADD PUSH1 0x60 DUP2 MSTORE PUSH1 0x20 ADD PUSH1 0x0 DUP2 MSTORE PUSH1 0x20 ADD PUSH1 0x0 PUSH20 0xFFFFFFFFFFFFFFFFFFFFFFFFFFFFFFFFFFFFFFFF AND DUP2 MSTORE PUSH1 0x20 ADD PUSH1 0x0 DUP2 MSTORE PUSH1 0x20 ADD PUSH1 0x0 PUSH4 0xFFFFFFFF AND DUP2 MSTORE POP SWAP1 JUMP JUMPDEST JUMPDEST DUP1 DUP3 GT ISZERO PUSH2 0x1482 JUMPI PUSH1 0x0 DUP2 PUSH1 0x0 SWAP1 SSTORE POP PUSH1 0x1 ADD PUSH2 0x146A JUMP JUMPDEST POP SWAP1 JUMP JUMPDEST PUSH1 0x0 PUSH2 0x1499 PUSH2 0x1494 DUP5 PUSH2 0x1E36 JUMP JUMPDEST PUSH2 0x1E11 JUMP JUMPDEST SWAP1 POP DUP3 DUP2 MSTORE PUSH1 0x20 DUP2 ADD DUP5 DUP5 DUP5 ADD GT ISZERO PUSH2 0x14B5 JUMPI PUSH2 0x14B4 PUSH2 0x2199 JUMP JUMPDEST JUMPDEST PUSH2 0x14C0 DUP5 DUP3 DUP6 PUSH2 0x1FCB JUMP JUMPDEST POP SWAP4 SWAP3 POP POP POP JUMP JUMPDEST PUSH1 0x0 DUP2 CALLDATALOAD SWAP1 POP PUSH2 0x14D7 DUP2 PUSH2 0x2267 JUMP JUMPDEST SWAP3 SWAP2 POP POP JUMP JUMPDEST PUSH1 0x0 DUP3 PUSH1 0x1F DUP4 ADD SLT PUSH2 0x14F2 JUMPI PUSH2 0x14F1 PUSH2 0x2194 JUMP JUMPDEST JUMPDEST DUP2 CALLDATALOAD PUSH2 0x1502 DUP5 DUP3 PUSH1 0x20 DUP7 ADD PUSH2 0x1486 JUMP JUMPDEST SWAP2 POP POP SWAP3 SWAP2 POP POP JUMP JUMPDEST PUSH1 0x0 DUP2 CALLDATALOAD SWAP1 POP PUSH2 0x151A DUP2 PUSH2 0x227E JUMP JUMPDEST SWAP3 SWAP2 POP POP JUMP JUMPDEST PUSH1 0x0 DUP2 CALLDATALOAD SWAP1 POP PUSH2 0x152F DUP2 PUSH2 0x2295 JUMP JUMPDEST SWAP3 SWAP2 POP POP JUMP JUMPDEST PUSH1 0x0 PUSH1 0x20 DUP3 DUP5 SUB SLT ISZERO PUSH2 0x154B JUMPI PUSH2 0x154A PUSH2 0x21A3 JUMP JUMPDEST JUMPDEST PUSH1 0x0 PUSH2 0x1559 DUP5 DUP3 DUP6 ADD PUSH2 0x14C8 JUMP JUMPDEST SWAP2 POP POP SWAP3 SWAP2 POP POP JUMP JUMPDEST PUSH1 0x0 PUSH1 0x20 DUP3 DUP5 SUB SLT ISZERO PUSH2 0x1578 JUMPI PUSH2 0x1577 PUSH2 0x21A3 JUMP JUMPDEST JUMPDEST PUSH1 0x0 PUSH2 0x1586 DUP5 DUP3 DUP6 ADD PUSH2 0x150B JUMP JUMPDEST SWAP2 POP POP SWAP3 SWAP2 POP POP JUMP JUMPDEST PUSH1 0x0 DUP1 PUSH1 0x40 DUP4 DUP6 SUB SLT ISZERO PUSH2 0x15A6 JUMPI PUSH2 0x15A5 PUSH2 0x21A3 JUMP JUMPDEST JUMPDEST PUSH1 0x0 PUSH2 0x15B4 DUP6 DUP3 DUP7 ADD PUSH2 0x150B JUMP JUMPDEST SWAP3 POP POP PUSH1 0x20 PUSH2 0x15C5 DUP6 DUP3 DUP7 ADD PUSH2 0x14C8 JUMP JUMPDEST SWAP2 POP POP SWAP3 POP SWAP3 SWAP1 POP JUMP JUMPDEST PUSH1 0x0 DUP1 PUSH1 0x0 PUSH1 0x60 DUP5 DUP7 SUB SLT ISZERO PUSH2 0x15E8 JUMPI PUSH2 0x15E7 PUSH2 0x21A3 JUMP JUMPDEST JUMPDEST PUSH1 0x0 PUSH2 0x15F6 DUP7 DUP3 DUP8 ADD PUSH2 0x150B JUMP JUMPDEST SWAP4 POP POP PUSH1 0x20 DUP5 ADD CALLDATALOAD PUSH8 0xFFFFFFFFFFFFFFFF DUP2 GT ISZERO PUSH2 0x1617 JUMPI PUSH2 0x1616 PUSH2 0x219E JUMP JUMPDEST JUMPDEST PUSH2 0x1623 DUP7 DUP3 DUP8 ADD PUSH2 0x14DD JUMP JUMPDEST SWAP3 POP POP PUSH1 0x40 PUSH2 0x1634 DUP7 DUP3 DUP8 ADD PUSH2 0x1520 JUMP JUMPDEST SWAP2 POP POP SWAP3 POP SWAP3 POP SWAP3 JUMP JUMPDEST PUSH1 0x0 PUSH2 0x164A DUP4 DUP4 PUSH2 0x18D7 JUMP JUMPDEST SWAP1 POP SWAP3 SWAP2 POP POP JUMP JUMPDEST PUSH1 0x0 PUSH2 0x165E DUP4 DUP4 PUSH2 0x19E9 JUMP JUMPDEST SWAP1 POP SWAP3 SWAP2 POP POP JUMP JUMPDEST PUSH2 0x166F DUP2 PUSH2 0x1F49 JUMP JUMPDEST DUP3 MSTORE POP POP JUMP JUMPDEST PUSH2 0x167E DUP2 PUSH2 0x1F49 JUMP JUMPDEST DUP3 MSTORE POP POP JUMP JUMPDEST PUSH1 0x0 PUSH2 0x168F DUP3 PUSH2 0x1EA1 JUMP JUMPDEST PUSH2 0x1699 DUP2 DUP6 PUSH2 0x1EDC JUMP JUMPDEST SWAP4 POP DUP4 PUSH1 0x20 DUP3 MUL DUP6 ADD PUSH2 0x16AB DUP6 PUSH2 0x1E67 JUMP JUMPDEST DUP1 PUSH1 0x0 JUMPDEST DUP6 DUP2 LT ISZERO PUSH2 0x16E7 JUMPI DUP5 DUP5 SUB DUP10 MSTORE DUP2 MLOAD PUSH2 0x16C8 DUP6 DUP3 PUSH2 0x163E JUMP JUMPDEST SWAP5 POP PUSH2 0x16D3 DUP4 PUSH2 0x1EC2 JUMP JUMPDEST SWAP3 POP PUSH1 0x20 DUP11 ADD SWAP10 POP POP PUSH1 0x1 DUP2 ADD SWAP1 POP PUSH2 0x16AF JUMP JUMPDEST POP DUP3 SWAP8 POP DUP8 SWAP6 POP POP POP POP POP POP SWAP3 SWAP2 POP POP JUMP JUMPDEST PUSH1 0x0 PUSH2 0x1704 DUP3 PUSH2 0x1EAC JUMP JUMPDEST PUSH2 0x170E DUP2 DUP6 PUSH2 0x1EDC JUMP JUMPDEST SWAP4 POP DUP4 PUSH1 0x20 DUP3 MUL DUP6 ADD PUSH2 0x1720 DUP6 PUSH2 0x1E77 JUMP JUMPDEST DUP1 PUSH1 0x0 JUMPDEST DUP6 DUP2 LT ISZERO PUSH2 0x175B JUMPI DUP5 DUP5 SUB DUP10 MSTORE DUP2 PUSH2 0x173C DUP6 DUP3 PUSH2 0x1652 JUMP JUMPDEST SWAP5 POP PUSH2 0x1747 DUP4 PUSH2 0x1ECF JUMP JUMPDEST SWAP3 POP PUSH1 0x20 DUP11 ADD SWAP10 POP POP PUSH1 0x1 DUP2 ADD SWAP1 POP PUSH2 0x1724 JUMP JUMPDEST POP DUP3 SWAP8 POP DUP8 SWAP6 POP POP POP POP POP POP SWAP3 SWAP2 POP POP JUMP JUMPDEST PUSH2 0x1776 DUP2 PUSH2 0x1F95 JUMP JUMPDEST DUP3 MSTORE POP POP JUMP JUMPDEST PUSH1 0x0 PUSH2 0x1787 DUP3 PUSH2 0x1EB7 JUMP JUMPDEST PUSH2 0x1791 DUP2 DUP6 PUSH2 0x1EED JUMP JUMPDEST SWAP4 POP PUSH2 0x17A1 DUP2 DUP6 PUSH1 0x20 DUP7 ADD PUSH2 0x1FDA JUMP JUMPDEST PUSH2 0x17AA DUP2 PUSH2 0x21A8 JUMP JUMPDEST DUP5 ADD SWAP2 POP POP SWAP3 SWAP2 POP POP JUMP JUMPDEST PUSH1 0x0 PUSH2 0x17C0 DUP3 PUSH2 0x1EB7 JUMP JUMPDEST PUSH2 0x17CA DUP2 DUP6 PUSH2 0x1EFE JUMP JUMPDEST SWAP4 POP PUSH2 0x17DA DUP2 DUP6 PUSH1 0x20 DUP7 ADD PUSH2 0x1FDA JUMP JUMPDEST PUSH2 0x17E3 DUP2 PUSH2 0x21A8 JUMP JUMPDEST DUP5 ADD SWAP2 POP POP SWAP3 SWAP2 POP POP JUMP JUMPDEST PUSH1 0x0 DUP2 SLOAD PUSH2 0x17FB DUP2 PUSH2 0x200D JUMP JUMPDEST PUSH2 0x1805 DUP2 DUP7 PUSH2 0x1EED JUMP JUMPDEST SWAP5 POP PUSH1 0x1 DUP3 AND PUSH1 0x0 DUP2 EQ PUSH2 0x1820 JUMPI PUSH1 0x1 DUP2 EQ PUSH2 0x1832 JUMPI PUSH2 0x1865 JUMP JUMPDEST PUSH1 0xFF NOT DUP4 AND DUP7 MSTORE PUSH1 0x20 DUP7 ADD SWAP4 POP PUSH2 0x1865 JUMP JUMPDEST PUSH2 0x183B DUP6 PUSH2 0x1E8C JUMP JUMPDEST PUSH1 0x0 JUMPDEST DUP4 DUP2 LT ISZERO PUSH2 0x185D JUMPI DUP2 SLOAD DUP2 DUP10 ADD MSTORE PUSH1 0x1 DUP3 ADD SWAP2 POP PUSH1 0x20 DUP2 ADD SWAP1 POP PUSH2 0x183E JUMP JUMPDEST DUP1 DUP9 ADD SWAP6 POP POP POP JUMPDEST POP POP POP SWAP3 SWAP2 POP POP JUMP JUMPDEST PUSH1 0x0 PUSH2 0x187B PUSH1 0x22 DUP4 PUSH2 0x1EFE JUMP JUMPDEST SWAP2 POP PUSH2 0x1886 DUP3 PUSH2 0x21C6 JUMP JUMPDEST PUSH1 0x40 DUP3 ADD SWAP1 POP SWAP2 SWAP1 POP JUMP JUMPDEST PUSH1 0x0 PUSH2 0x189E PUSH1 0x1D DUP4 PUSH2 0x1EFE JUMP JUMPDEST SWAP2 POP PUSH2 0x18A9 DUP3 PUSH2 0x2215 JUMP JUMPDEST PUSH1 0x20 DUP3 ADD SWAP1 POP SWAP2 SWAP1 POP JUMP JUMPDEST PUSH1 0x0 PUSH2 0x18C1 PUSH1 0x15 DUP4 PUSH2 0x1EFE JUMP JUMPDEST SWAP2 POP PUSH2 0x18CC DUP3 PUSH2 0x223E JUMP JUMPDEST PUSH1 0x20 DUP3 ADD SWAP1 POP SWAP2 SWAP1 POP JUMP JUMPDEST PUSH1 0x0 PUSH1 0xC0 DUP4 ADD PUSH1 0x0 DUP4 ADD MLOAD PUSH2 0x18EF PUSH1 0x0 DUP7 ADD DUP3 PUSH2 0x1B6B JUMP JUMPDEST POP PUSH1 0x20 DUP4 ADD MLOAD DUP5 DUP3 SUB PUSH1 0x20 DUP7 ADD MSTORE PUSH2 0x1907 DUP3 DUP3 PUSH2 0x177C JUMP JUMPDEST SWAP2 POP POP PUSH1 0x40 DUP4 ADD MLOAD PUSH2 0x191C PUSH1 0x40 DUP7 ADD DUP3 PUSH2 0x1B6B JUMP JUMPDEST POP PUSH1 0x60 DUP4 ADD MLOAD PUSH2 0x192F PUSH1 0x60 DUP7 ADD DUP3 PUSH2 0x1666 JUMP JUMPDEST POP PUSH1 0x80 DUP4 ADD MLOAD PUSH2 0x1942 PUSH1 0x80 DUP7 ADD DUP3 PUSH2 0x1B6B JUMP JUMPDEST POP PUSH1 0xA0 DUP4 ADD MLOAD PUSH2 0x1955 PUSH1 0xA0 DUP7 ADD DUP3 PUSH2 0x1B89 JUMP JUMPDEST POP DUP1 SWAP2 POP POP SWAP3 SWAP2 POP POP JUMP JUMPDEST PUSH1 0x0 PUSH1 0xC0 DUP4 ADD PUSH1 0x0 DUP4 ADD MLOAD PUSH2 0x1978 PUSH1 0x0 DUP7 ADD DUP3 PUSH2 0x1B6B JUMP JUMPDEST POP PUSH1 0x20 DUP4 ADD MLOAD DUP5 DUP3 SUB PUSH1 0x20 DUP7 ADD MSTORE PUSH2 0x1990 DUP3 DUP3 PUSH2 0x177C JUMP JUMPDEST SWAP2 POP POP PUSH1 0x40 DUP4 ADD MLOAD PUSH2 0x19A5 PUSH1 0x40 DUP7 ADD DUP3 PUSH2 0x1B6B JUMP JUMPDEST POP PUSH1 0x60 DUP4 ADD MLOAD PUSH2 0x19B8 PUSH1 0x60 DUP7 ADD DUP3 PUSH2 0x1666 JUMP JUMPDEST POP PUSH1 0x80 DUP4 ADD MLOAD PUSH2 0x19CB PUSH1 0x80 DUP7 ADD DUP3 PUSH2 0x1B6B JUMP JUMPDEST POP PUSH1 0xA0 DUP4 ADD MLOAD PUSH2 0x19DE PUSH1 0xA0 DUP7 ADD DUP3 PUSH2 0x1B89 JUMP JUMPDEST POP DUP1 SWAP2 POP POP SWAP3 SWAP2 POP POP JUMP JUMPDEST PUSH1 0x0 PUSH1 0xC0 DUP4 ADD PUSH1 0x0 DUP1 DUP5 ADD SLOAD SWAP1 POP PUSH2 0x1A00 DUP2 PUSH2 0x2059 JUMP JUMPDEST PUSH2 0x1A0D PUSH1 0x0 DUP8 ADD DUP3 PUSH2 0x1B6B JUMP JUMPDEST POP PUSH1 0x1 DUP5 ADD DUP6 DUP4 SUB PUSH1 0x20 DUP8 ADD MSTORE PUSH2 0x1A24 DUP4 DUP3 PUSH2 0x17EE JUMP JUMPDEST SWAP3 POP POP PUSH1 0x2 DUP5 ADD SLOAD SWAP1 POP PUSH2 0x1A37 DUP2 PUSH2 0x2059 JUMP JUMPDEST PUSH2 0x1A44 PUSH1 0x40 DUP8 ADD DUP3 PUSH2 0x1B6B JUMP JUMPDEST POP PUSH1 0x3 DUP5 ADD SLOAD SWAP1 POP PUSH2 0x1A55 DUP2 PUSH2 0x203F JUMP JUMPDEST PUSH2 0x1A62 PUSH1 0x60 DUP8 ADD DUP3 PUSH2 0x1666 JUMP JUMPDEST POP PUSH1 0x4 DUP5 ADD SLOAD SWAP1 POP PUSH2 0x1A73 DUP2 PUSH2 0x2059 JUMP JUMPDEST PUSH2 0x1A80 PUSH1 0x80 DUP8 ADD DUP3 PUSH2 0x1B6B JUMP JUMPDEST POP PUSH1 0x5 DUP5 ADD SLOAD SWAP1 POP PUSH2 0x1A91 DUP2 PUSH2 0x2073 JUMP JUMPDEST PUSH2 0x1A9E PUSH1 0xA0 DUP8 ADD DUP3 PUSH2 0x1B89 JUMP JUMPDEST POP DUP2 SWAP3 POP POP POP SWAP3 SWAP2 POP POP JUMP JUMPDEST PUSH1 0x0 PUSH1 0xC0 DUP4 ADD PUSH1 0x0 DUP1 DUP5 ADD SLOAD SWAP1 POP PUSH2 0x1AC1 DUP2 PUSH2 0x2059 JUMP JUMPDEST PUSH2 0x1ACE PUSH1 0x0 DUP8 ADD DUP3 PUSH2 0x1B6B JUMP JUMPDEST POP PUSH1 0x1 DUP5 ADD DUP6 DUP4 SUB PUSH1 0x20 DUP8 ADD MSTORE PUSH2 0x1AE5 DUP4 DUP3 PUSH2 0x17EE JUMP JUMPDEST SWAP3 POP POP PUSH1 0x2 DUP5 ADD SLOAD SWAP1 POP PUSH2 0x1AF8 DUP2 PUSH2 0x2059 JUMP JUMPDEST PUSH2 0x1B05 PUSH1 0x40 DUP8 ADD DUP3 PUSH2 0x1B6B JUMP JUMPDEST POP PUSH1 0x3 DUP5 ADD SLOAD SWAP1 POP PUSH2 0x1B16 DUP2 PUSH2 0x203F JUMP JUMPDEST PUSH2 0x1B23 PUSH1 0x60 DUP8 ADD DUP3 PUSH2 0x1666 JUMP JUMPDEST POP PUSH1 0x4 DUP5 ADD SLOAD SWAP1 POP PUSH2 0x1B34 DUP2 PUSH2 0x2059 JUMP JUMPDEST PUSH2 0x1B41 PUSH1 0x80 DUP8 ADD DUP3 PUSH2 0x1B6B JUMP JUMPDEST POP PUSH1 0x5 DUP5 ADD SLOAD SWAP1 POP PUSH2 0x1B52 DUP2 PUSH2 0x2073 JUMP JUMPDEST PUSH2 0x1B5F PUSH1 0xA0 DUP8 ADD DUP3 PUSH2 0x1B89 JUMP JUMPDEST POP DUP2 SWAP3 POP POP POP SWAP3 SWAP2 POP POP JUMP JUMPDEST PUSH2 0x1B74 DUP2 PUSH2 0x1F7B JUMP JUMPDEST DUP3 MSTORE POP POP JUMP JUMPDEST PUSH2 0x1B83 DUP2 PUSH2 0x1F7B JUMP JUMPDEST DUP3 MSTORE POP POP JUMP JUMPDEST PUSH2 0x1B92 DUP2 PUSH2 0x1F85 JUMP JUMPDEST DUP3 MSTORE POP POP JUMP JUMPDEST PUSH2 0x1BA1 DUP2 PUSH2 0x1F85 JUMP JUMPDEST DUP3 MSTORE POP POP JUMP JUMPDEST PUSH1 0x0 PUSH1 0x20 DUP3 ADD SWAP1 POP DUP2 DUP2 SUB PUSH1 0x0 DUP4 ADD MSTORE PUSH2 0x1BC1 DUP2 DUP5 PUSH2 0x1684 JUMP JUMPDEST SWAP1 POP SWAP3 SWAP2 POP POP JUMP JUMPDEST PUSH1 0x0 PUSH1 0x20 DUP3 ADD SWAP1 POP DUP2 DUP2 SUB PUSH1 0x0 DUP4 ADD MSTORE PUSH2 0x1BE3 DUP2 DUP5 PUSH2 0x16F9 JUMP JUMPDEST SWAP1 POP SWAP3 SWAP2 POP POP JUMP JUMPDEST PUSH1 0x0 PUSH1 0x20 DUP3 ADD SWAP1 POP PUSH2 0x1C00 PUSH1 0x0 DUP4 ADD DUP5 PUSH2 0x176D JUMP JUMPDEST SWAP3 SWAP2 POP POP JUMP JUMPDEST PUSH1 0x0 PUSH1 0x20 DUP3 ADD SWAP1 POP DUP2 DUP2 SUB PUSH1 0x0 DUP4 ADD MSTORE PUSH2 0x1C1F DUP2 PUSH2 0x186E JUMP JUMPDEST SWAP1 POP SWAP2 SWAP1 POP JUMP JUMPDEST PUSH1 0x0 PUSH1 0x20 DUP3 ADD SWAP1 POP DUP2 DUP2 SUB PUSH1 0x0 DUP4 ADD MSTORE PUSH2 0x1C3F DUP2 PUSH2 0x1891 JUMP JUMPDEST SWAP1 POP SWAP2 SWAP1 POP JUMP JUMPDEST PUSH1 0x0 PUSH1 0x20 DUP3 ADD SWAP1 POP DUP2 DUP2 SUB PUSH1 0x0 DUP4 ADD MSTORE PUSH2 0x1C5F DUP2 PUSH2 0x18B4 JUMP JUMPDEST SWAP1 POP SWAP2 SWAP1 POP JUMP JUMPDEST PUSH1 0x0 PUSH1 0x20 DUP3 ADD SWAP1 POP DUP2 DUP2 SUB PUSH1 0x0 DUP4 ADD MSTORE PUSH2 0x1C80 DUP2 DUP5 PUSH2 0x1960 JUMP JUMPDEST SWAP1 POP SWAP3 SWAP2 POP POP JUMP JUMPDEST PUSH1 0x0 PUSH1 0x20 DUP3 ADD SWAP1 POP PUSH2 0x1C9D PUSH1 0x0 DUP4 ADD DUP5 PUSH2 0x1B7A JUMP JUMPDEST SWAP3 SWAP2 POP POP JUMP JUMPDEST PUSH1 0x0 PUSH1 0x80 DUP3 ADD SWAP1 POP PUSH2 0x1CB8 PUSH1 0x0 DUP4 ADD DUP8 PUSH2 0x1B7A JUMP JUMPDEST DUP2 DUP2 SUB PUSH1 0x20 DUP4 ADD MSTORE PUSH2 0x1CCA DUP2 DUP7 PUSH2 0x17B5 JUMP JUMPDEST SWAP1 POP DUP2 DUP2 SUB PUSH1 0x40 DUP4 ADD MSTORE PUSH2 0x1CDE DUP2 DUP6 PUSH2 0x17B5 JUMP JUMPDEST SWAP1 POP PUSH2 0x1CED PUSH1 0x60 DUP4 ADD DUP5 PUSH2 0x1B7A JUMP JUMPDEST SWAP6 SWAP5 POP POP POP POP POP JUMP JUMPDEST PUSH1 0x0 PUSH1 0xC0 DUP3 ADD SWAP1 POP PUSH2 0x1D0B PUSH1 0x0 DUP4 ADD DUP10 PUSH2 0x1B7A JUMP JUMPDEST DUP2 DUP2 SUB PUSH1 0x20 DUP4 ADD MSTORE PUSH2 0x1D1D DUP2 DUP9 PUSH2 0x17B5 JUMP JUMPDEST SWAP1 POP PUSH2 0x1D2C PUSH1 0x40 DUP4 ADD DUP8 PUSH2 0x1B7A JUMP JUMPDEST PUSH2 0x1D39 PUSH1 0x60 DUP4 ADD DUP7 PUSH2 0x1675 JUMP JUMPDEST PUSH2 0x1D46 PUSH1 0x80 DUP4 ADD DUP6 PUSH2 0x1B7A JUMP JUMPDEST PUSH2 0x1D53 PUSH1 0xA0 DUP4 ADD DUP5 PUSH2 0x1B98 JUMP JUMPDEST SWAP8 SWAP7 POP POP POP POP POP POP POP JUMP JUMPDEST PUSH1 0x0 PUSH1 0x40 DUP3 ADD SWAP1 POP PUSH2 0x1D73 PUSH1 0x0 DUP4 ADD DUP6 PUSH2 0x1B7A JUMP JUMPDEST DUP2 DUP2 SUB PUSH1 0x20 DUP4 ADD MSTORE PUSH2 0x1D85 DUP2 DUP5 PUSH2 0x1AAA JUMP JUMPDEST SWAP1 POP SWAP4 SWAP3 POP POP POP JUMP JUMPDEST PUSH1 0x0 PUSH1 0x40 DUP3 ADD SWAP1 POP PUSH2 0x1DA3 PUSH1 0x0 DUP4 ADD DUP6 PUSH2 0x1B7A JUMP JUMPDEST PUSH2 0x1DB0 PUSH1 0x20 DUP4 ADD DUP5 PUSH2 0x1B7A JUMP JUMPDEST SWAP4 SWAP3 POP POP POP JUMP JUMPDEST PUSH1 0x0 PUSH1 0xA0 DUP3 ADD SWAP1 POP PUSH2 0x1DCC PUSH1 0x0 DUP4 ADD DUP9 PUSH2 0x1B7A JUMP JUMPDEST PUSH2 0x1DD9 PUSH1 0x20 DUP4 ADD DUP8 PUSH2 0x1B7A JUMP JUMPDEST DUP2 DUP2 SUB PUSH1 0x40 DUP4 ADD MSTORE PUSH2 0x1DEB DUP2 DUP7 PUSH2 0x17B5 JUMP JUMPDEST SWAP1 POP PUSH2 0x1DFA PUSH1 0x60 DUP4 ADD DUP6 PUSH2 0x1B98 JUMP JUMPDEST PUSH2 0x1E07 PUSH1 0x80 DUP4 ADD DUP5 PUSH2 0x1B7A JUMP JUMPDEST SWAP7 SWAP6 POP POP POP POP POP POP JUMP JUMPDEST PUSH1 0x0 PUSH2 0x1E1B PUSH2 0x1E2C JUMP JUMPDEST SWAP1 POP PUSH2 0x1E27 DUP3 DUP3 PUSH2 0x208D JUMP JUMPDEST SWAP2 SWAP1 POP JUMP JUMPDEST PUSH1 0x0 PUSH1 0x40 MLOAD SWAP1 POP SWAP1 JUMP JUMPDEST PUSH1 0x0 PUSH8 0xFFFFFFFFFFFFFFFF DUP3 GT ISZERO PUSH2 0x1E51 JUMPI PUSH2 0x1E50 PUSH2 0x2165 JUMP JUMPDEST JUMPDEST PUSH2 0x1E5A DUP3 PUSH2 0x21A8 JUMP JUMPDEST SWAP1 POP PUSH1 0x20 DUP2 ADD SWAP1 POP SWAP2 SWAP1 POP JUMP JUMPDEST PUSH1 0x0 DUP2 SWAP1 POP PUSH1 0x20 DUP3 ADD SWAP1 POP SWAP2 SWAP1 POP JUMP JUMPDEST PUSH1 0x0 DUP2 SWAP1 POP DUP2 PUSH1 0x0 MSTORE PUSH1 0x20 PUSH1 0x0 KECCAK256 SWAP1 POP SWAP2 SWAP1 POP JUMP JUMPDEST PUSH1 0x0 DUP2 SWAP1 POP DUP2 PUSH1 0x0 MSTORE PUSH1 0x20 PUSH1 0x0 KECCAK256 SWAP1 POP SWAP2 SWAP1 POP JUMP JUMPDEST PUSH1 0x0 DUP2 MLOAD SWAP1 POP SWAP2 SWAP1 POP JUMP JUMPDEST PUSH1 0x0 DUP2 SLOAD SWAP1 POP SWAP2 SWAP1 POP JUMP JUMPDEST PUSH1 0x0 DUP2 MLOAD SWAP1 POP SWAP2 SWAP1 POP JUMP JUMPDEST PUSH1 0x0 PUSH1 0x20 DUP3 ADD SWAP1 POP SWAP2 SWAP1 POP JUMP JUMPDEST PUSH1 0x0 PUSH1 0x6 DUP3 ADD SWAP1 POP SWAP2 SWAP1 POP JUMP JUMPDEST PUSH1 0x0 DUP3 DUP3 MSTORE PUSH1 0x20 DUP3 ADD SWAP1 POP SWAP3 SWAP2 POP POP JUMP JUMPDEST PUSH1 0x0 DUP3 DUP3 MSTORE PUSH1 0x20 DUP3 ADD SWAP1 POP SWAP3 SWAP2 POP POP JUMP JUMPDEST PUSH1 0x0 DUP3 DUP3 MSTORE PUSH1 0x20 DUP3 ADD SWAP1 POP SWAP3 SWAP2 POP POP JUMP JUMPDEST PUSH1 0x0 PUSH20 0xFFFFFFFFFFFFFFFFFFFFFFFFFFFFFFFFFFFFFFFF DUP3 AND SWAP1 POP SWAP2 SWAP1 POP JUMP JUMPDEST PUSH1 0x0 DUP2 SWAP1 POP SWAP2 SWAP1 POP JUMP JUMPDEST PUSH1 0x0 PUSH4 0xFFFFFFFF DUP3 AND SWAP1 POP SWAP2 SWAP1 POP JUMP JUMPDEST PUSH1 0x0 PUSH2 0x1F54 DUP3 PUSH2 0x1F5B JUMP JUMPDEST SWAP1 POP SWAP2 SWAP1 POP JUMP JUMPDEST PUSH1 0x0 PUSH20 0xFFFFFFFFFFFFFFFFFFFFFFFFFFFFFFFFFFFFFFFF DUP3 AND SWAP1 POP SWAP2 SWAP1 POP JUMP JUMPDEST PUSH1 0x0 DUP2 SWAP1 POP SWAP2 SWAP1 POP JUMP JUMPDEST PUSH1 0x0 PUSH4 0xFFFFFFFF DUP3 AND SWAP1 POP SWAP2 SWAP1 POP JUMP JUMPDEST PUSH1 0x0 PUSH2 0x1FA0 DUP3 PUSH2 0x1FA7 JUMP JUMPDEST SWAP1 POP SWAP2 SWAP1 POP JUMP JUMPDEST PUSH1 0x0 PUSH2 0x1FB2 DUP3 PUSH2 0x1FB9 JUMP JUMPDEST SWAP1 POP SWAP2 SWAP1 POP JUMP JUMPDEST PUSH1 0x0 PUSH2 0x1FC4 DUP3 PUSH2 0x1F5B JUMP JUMPDEST SWAP1 POP SWAP2 SWAP1 POP JUMP JUMPDEST DUP3 DUP2 DUP4 CALLDATACOPY PUSH1 0x0 DUP4 DUP4 ADD MSTORE POP POP POP JUMP JUMPDEST PUSH1 0x0 JUMPDEST DUP4 DUP2 LT ISZERO PUSH2 0x1FF8 JUMPI DUP1 DUP3 ADD MLOAD DUP2 DUP5 ADD MSTORE PUSH1 0x20 DUP2 ADD SWAP1 POP PUSH2 0x1FDD JUMP JUMPDEST DUP4 DUP2 GT ISZERO PUSH2 0x2007 JUMPI PUSH1 0x0 DUP5 DUP5 ADD MSTORE JUMPDEST POP POP POP POP JUMP JUMPDEST PUSH1 0x0 PUSH1 0x2 DUP3 DIV SWAP1 POP PUSH1 0x1 DUP3 AND DUP1 PUSH2 0x2025 JUMPI PUSH1 0x7F DUP3 AND SWAP2 POP JUMPDEST PUSH1 0x20 DUP3 LT DUP2 EQ ISZERO PUSH2 0x2039 JUMPI PUSH2 0x2038 PUSH2 0x2136 JUMP JUMPDEST JUMPDEST POP SWAP2 SWAP1 POP JUMP JUMPDEST PUSH1 0x0 PUSH2 0x2052 PUSH2 0x204D DUP4 PUSH2 0x21B9 JUMP JUMPDEST PUSH2 0x1F0F JUMP JUMPDEST SWAP1 POP SWAP2 SWAP1 POP JUMP JUMPDEST PUSH1 0x0 PUSH2 0x206C PUSH2 0x2067 DUP4 PUSH2 0x21B9 JUMP JUMPDEST PUSH2 0x1F2F JUMP JUMPDEST SWAP1 POP SWAP2 SWAP1 POP JUMP JUMPDEST PUSH1 0x0 PUSH2 0x2086 PUSH2 0x2081 DUP4 PUSH2 0x21B9 JUMP JUMPDEST PUSH2 0x1F39 JUMP JUMPDEST SWAP1 POP SWAP2 SWAP1 POP JUMP JUMPDEST PUSH2 0x2096 DUP3 PUSH2 0x21A8 JUMP JUMPDEST DUP2 ADD DUP2 DUP2 LT PUSH8 0xFFFFFFFFFFFFFFFF DUP3 GT OR ISZERO PUSH2 0x20B5 JUMPI PUSH2 0x20B4 PUSH2 0x2165 JUMP JUMPDEST JUMPDEST DUP1 PUSH1 0x40 MSTORE POP POP POP JUMP JUMPDEST PUSH1 0x0 PUSH2 0x20C9 DUP3 PUSH2 0x1F7B JUMP JUMPDEST SWAP2 POP PUSH32 0xFFFFFFFFFFFFFFFFFFFFFFFFFFFFFFFFFFFFFFFFFFFFFFFFFFFFFFFFFFFFFFFF DUP3 EQ ISZERO PUSH2 0x20FC JUMPI PUSH2 0x20FB PUSH2 0x2107 JUMP JUMPDEST JUMPDEST PUSH1 0x1 DUP3 ADD SWAP1 POP SWAP2 SWAP1 POP JUMP JUMPDEST PUSH32 0x4E487B7100000000000000000000000000000000000000000000000000000000 PUSH1 0x0 MSTORE PUSH1 0x11 PUSH1 0x4 MSTORE PUSH1 0x24 PUSH1 0x0 REVERT JUMPDEST PUSH32 0x4E487B7100000000000000000000000000000000000000000000000000000000 PUSH1 0x0 MSTORE PUSH1 0x22 PUSH1 0x4 MSTORE PUSH1 0x24 PUSH1 0x0 REVERT JUMPDEST PUSH32 0x4E487B7100000000000000000000000000000000000000000000000000000000 PUSH1 0x0 MSTORE PUSH1 0x41 PUSH1 0x4 MSTORE PUSH1 0x24 PUSH1 0x0 REVERT JUMPDEST PUSH1 0x0 DUP1 REVERT JUMPDEST PUSH1 0x0 DUP1 REVERT JUMPDEST PUSH1 0x0 DUP1 REVERT JUMPDEST PUSH1 0x0 DUP1 REVERT JUMPDEST PUSH1 0x0 PUSH1 0x1F NOT PUSH1 0x1F DUP4 ADD AND SWAP1 POP SWAP2 SWAP1 POP JUMP JUMPDEST PUSH1 0x0 DUP2 PUSH1 0x0 SHR SWAP1 POP SWAP2 SWAP1 POP JUMP JUMPDEST PUSH32 0x546865726520617265206E6F2070726F647563747320746F206C697374207965 PUSH1 0x0 DUP3 ADD MSTORE PUSH32 0x7421000000000000000000000000000000000000000000000000000000000000 PUSH1 0x20 DUP3 ADD MSTORE POP JUMP JUMPDEST PUSH32 0x5468657265206973206E6F2073756368206974656D207265636F726421000000 PUSH1 0x0 DUP3 ADD MSTORE POP JUMP JUMPDEST PUSH32 0x5468652073616C65206861732065787069726564210000000000000000000000 PUSH1 0x0 DUP3 ADD MSTORE POP JUMP JUMPDEST PUSH2 0x2270 DUP2 PUSH2 0x1F49 JUMP JUMPDEST DUP2 EQ PUSH2 0x227B JUMPI PUSH1 0x0 DUP1 REVERT JUMPDEST POP JUMP JUMPDEST PUSH2 0x2287 DUP2 PUSH2 0x1F7B JUMP JUMPDEST DUP2 EQ PUSH2 0x2292 JUMPI PUSH1 0x0 DUP1 REVERT JUMPDEST POP JUMP JUMPDEST PUSH2 0x229E DUP2 PUSH2 0x1F85 JUMP JUMPDEST DUP2 EQ PUSH2 0x22A9 JUMPI PUSH1 0x0 DUP1 REVERT JUMPDEST POP JUMP INVALID LOG2 PUSH5 0x6970667358 0x22 SLT KECCAK256 0x29 MSTORE 0xB3 0xB0 0x22 CODECOPY 0xE7 SWAP15 0xA6 0xD6 CALLDATALOAD 0xAE DUP8 SWAP13 0xB2 PUSH19 0x9E99503782690E9CCA7A4F4E431A7E3564736F PUSH13 0x63430008070033000000000000 "
				},
				"gasEstimates": {
					"creation": {
						"codeDepositCost": "1786000",
						"executionCost": "infinite",
						"totalCost": "infinite"
					},
					"external": {
						"addStar(uint256)": "infinite",
						"cancelSaleAdvert(uint256)": "infinite",
						"createSaleAdvert(uint256,string,uint32)": "infinite",
						"getEntireItems()": "infinite",
						"getItemById(uint256)": "infinite",
						"itemList(uint256)": "infinite",
						"items(uint256)": "infinite",
						"itemsOfUsers(uint256,address)": "infinite",
						"token()": "2685",
						"users(address)": "infinite"
					}
				},
				"methodIdentifiers": {
					"addStar(uint256)": "01750e74",
					"cancelSaleAdvert(uint256)": "ca095a83",
					"createSaleAdvert(uint256,string,uint32)": "4efd1797",
					"getEntireItems()": "5d9eb55c",
					"getItemById(uint256)": "cd2f0710",
					"itemList(uint256)": "3d4d3600",
					"items(uint256)": "bfb231d2",
					"itemsOfUsers(uint256,address)": "e2870aa9",
					"token()": "fc0c546a",
					"users(address)": "a87430ba"
				}
			},
			"storageLayout": {
				"storage": [
					{
						"astId": 821,
						"contract": "contracts/SwapCart.sol:SwapCart",
						"label": "token",
						"offset": 0,
						"slot": "0",
						"type": "t_contract(IERC20)663"
					},
					{
						"astId": 825,
						"contract": "contracts/SwapCart.sol:SwapCart",
						"label": "itemList",
						"offset": 0,
						"slot": "1",
						"type": "t_array(t_struct(Item)801_storage)dyn_storage"
					},
					{
						"astId": 830,
						"contract": "contracts/SwapCart.sol:SwapCart",
						"label": "users",
						"offset": 0,
						"slot": "2",
						"type": "t_mapping(t_address,t_struct(User)818_storage)"
					},
					{
						"astId": 835,
						"contract": "contracts/SwapCart.sol:SwapCart",
						"label": "items",
						"offset": 0,
						"slot": "3",
						"type": "t_mapping(t_uint256,t_struct(Item)801_storage)"
					},
					{
						"astId": 841,
						"contract": "contracts/SwapCart.sol:SwapCart",
						"label": "itemsOfUsers",
						"offset": 0,
						"slot": "4",
						"type": "t_mapping(t_uint256,t_mapping(t_address,t_uint256))"
					},
					{
						"astId": 848,
						"contract": "contracts/SwapCart.sol:SwapCart",
						"label": "itemCounter",
						"offset": 0,
						"slot": "5",
						"type": "t_struct(Counter)716_storage"
					}
				],
				"types": {
					"t_address": {
						"encoding": "inplace",
						"label": "address",
						"numberOfBytes": "20"
					},
					"t_array(t_struct(Item)801_storage)dyn_storage": {
						"base": "t_struct(Item)801_storage",
						"encoding": "dynamic_array",
						"label": "struct SwapCart.Item[]",
						"numberOfBytes": "32"
					},
					"t_contract(IERC20)663": {
						"encoding": "inplace",
						"label": "contract IERC20",
						"numberOfBytes": "20"
					},
					"t_mapping(t_address,t_struct(User)818_storage)": {
						"encoding": "mapping",
						"key": "t_address",
						"label": "mapping(address => struct SwapCart.User)",
						"numberOfBytes": "32",
						"value": "t_struct(User)818_storage"
					},
					"t_mapping(t_address,t_uint256)": {
						"encoding": "mapping",
						"key": "t_address",
						"label": "mapping(address => uint256)",
						"numberOfBytes": "32",
						"value": "t_uint256"
					},
					"t_mapping(t_uint256,t_mapping(t_address,t_uint256))": {
						"encoding": "mapping",
						"key": "t_uint256",
						"label": "mapping(uint256 => mapping(address => uint256))",
						"numberOfBytes": "32",
						"value": "t_mapping(t_address,t_uint256)"
					},
					"t_mapping(t_uint256,t_struct(Item)801_storage)": {
						"encoding": "mapping",
						"key": "t_uint256",
						"label": "mapping(uint256 => struct SwapCart.Item)",
						"numberOfBytes": "32",
						"value": "t_struct(Item)801_storage"
					},
					"t_string_storage": {
						"encoding": "bytes",
						"label": "string",
						"numberOfBytes": "32"
					},
					"t_struct(Counter)716_storage": {
						"encoding": "inplace",
						"label": "struct Counters.Counter",
						"members": [
							{
								"astId": 715,
								"contract": "contracts/SwapCart.sol:SwapCart",
								"label": "_value",
								"offset": 0,
								"slot": "0",
								"type": "t_uint256"
							}
						],
						"numberOfBytes": "32"
					},
					"t_struct(Item)801_storage": {
						"encoding": "inplace",
						"label": "struct SwapCart.Item",
						"members": [
							{
								"astId": 790,
								"contract": "contracts/SwapCart.sol:SwapCart",
								"label": "itemId",
								"offset": 0,
								"slot": "0",
								"type": "t_uint256"
							},
							{
								"astId": 792,
								"contract": "contracts/SwapCart.sol:SwapCart",
								"label": "itemImage",
								"offset": 0,
								"slot": "1",
								"type": "t_string_storage"
							},
							{
								"astId": 794,
								"contract": "contracts/SwapCart.sol:SwapCart",
								"label": "star",
								"offset": 0,
								"slot": "2",
								"type": "t_uint256"
							},
							{
								"astId": 796,
								"contract": "contracts/SwapCart.sol:SwapCart",
								"label": "seller",
								"offset": 0,
								"slot": "3",
								"type": "t_address"
							},
							{
								"astId": 798,
								"contract": "contracts/SwapCart.sol:SwapCart",
								"label": "price",
								"offset": 0,
								"slot": "4",
								"type": "t_uint256"
							},
							{
								"astId": 800,
								"contract": "contracts/SwapCart.sol:SwapCart",
								"label": "dueDate",
								"offset": 0,
								"slot": "5",
								"type": "t_uint32"
							}
						],
						"numberOfBytes": "192"
					},
					"t_struct(User)818_storage": {
						"encoding": "inplace",
						"label": "struct SwapCart.User",
						"members": [
							{
								"astId": 803,
								"contract": "contracts/SwapCart.sol:SwapCart",
								"label": "userID",
								"offset": 0,
								"slot": "0",
								"type": "t_uint256"
							},
							{
								"astId": 805,
								"contract": "contracts/SwapCart.sol:SwapCart",
								"label": "userName",
								"offset": 0,
								"slot": "1",
								"type": "t_string_storage"
							},
							{
								"astId": 807,
								"contract": "contracts/SwapCart.sol:SwapCart",
								"label": "deliveryAddress",
								"offset": 0,
								"slot": "2",
								"type": "t_string_storage"
							},
							{
								"astId": 811,
								"contract": "contracts/SwapCart.sol:SwapCart",
								"label": "cart",
								"offset": 0,
								"slot": "3",
								"type": "t_array(t_struct(Item)801_storage)dyn_storage"
							},
							{
								"astId": 815,
								"contract": "contracts/SwapCart.sol:SwapCart",
								"label": "inventory",
								"offset": 0,
								"slot": "4",
								"type": "t_array(t_struct(Item)801_storage)dyn_storage"
							},
							{
								"astId": 817,
								"contract": "contracts/SwapCart.sol:SwapCart",
								"label": "balance",
								"offset": 0,
								"slot": "5",
								"type": "t_uint256"
							}
						],
						"numberOfBytes": "192"
					},
					"t_uint256": {
						"encoding": "inplace",
						"label": "uint256",
						"numberOfBytes": "32"
					},
					"t_uint32": {
						"encoding": "inplace",
						"label": "uint32",
						"numberOfBytes": "4"
					}
				}
			},
			"userdoc": {
				"kind": "user",
				"methods": {},
				"version": 1
			}
		}
	}
}