{
	"contracts/SwapCart.sol": {
		"SwapCart": {
			"abi": [
				{
					"inputs": [
						{
							"internalType": "address",
							"name": "_token",
							"type": "address"
						}
					],
					"stateMutability": "nonpayable",
					"type": "constructor"
				},
				{
					"anonymous": false,
					"inputs": [
						{
							"indexed": false,
							"internalType": "uint256",
							"name": "itmId",
							"type": "uint256"
						},
						{
							"indexed": false,
							"internalType": "uint256",
							"name": "itmStar",
							"type": "uint256"
						},
						{
							"indexed": true,
							"internalType": "address",
							"name": "caller",
							"type": "address"
						}
					],
					"name": "AddStar",
					"type": "event"
				},
				{
					"anonymous": false,
					"inputs": [
						{
							"indexed": false,
							"internalType": "uint256",
							"name": "itmId",
							"type": "uint256"
						},
						{
							"indexed": true,
							"internalType": "address",
							"name": "caller",
							"type": "address"
						}
					],
					"name": "CancelSaleAdvert",
					"type": "event"
				},
				{
					"anonymous": false,
					"inputs": [
						{
							"indexed": false,
							"internalType": "uint256",
							"name": "id",
							"type": "uint256"
						},
						{
							"indexed": false,
							"internalType": "uint256",
							"name": "price",
							"type": "uint256"
						},
						{
							"indexed": false,
							"internalType": "string",
							"name": "image",
							"type": "string"
						},
						{
							"indexed": false,
							"internalType": "uint32",
							"name": "dueDate",
							"type": "uint32"
						},
						{
							"indexed": false,
							"internalType": "uint256",
							"name": "star",
							"type": "uint256"
						},
						{
							"indexed": true,
							"internalType": "address",
							"name": "seller",
							"type": "address"
						}
					],
					"name": "CreateSaleAdvert",
					"type": "event"
				},
				{
					"anonymous": false,
					"inputs": [
						{
							"components": [
								{
									"internalType": "uint256",
									"name": "itemId",
									"type": "uint256"
								},
								{
									"internalType": "string",
									"name": "itemImage",
									"type": "string"
								},
								{
									"internalType": "uint256",
									"name": "star",
									"type": "uint256"
								},
								{
									"internalType": "address",
									"name": "seller",
									"type": "address"
								},
								{
									"internalType": "uint256",
									"name": "price",
									"type": "uint256"
								},
								{
									"internalType": "uint32",
									"name": "dueDate",
									"type": "uint32"
								}
							],
							"indexed": false,
							"internalType": "struct SwapCart.Item[]",
							"name": "listOfItems",
							"type": "tuple[]"
						},
						{
							"indexed": true,
							"internalType": "address",
							"name": "caller",
							"type": "address"
						}
					],
					"name": "GetEntireItems",
					"type": "event"
				},
				{
					"anonymous": false,
					"inputs": [
						{
							"indexed": false,
							"internalType": "uint256",
							"name": "itmId",
							"type": "uint256"
						},
						{
							"components": [
								{
									"internalType": "uint256",
									"name": "itemId",
									"type": "uint256"
								},
								{
									"internalType": "string",
									"name": "itemImage",
									"type": "string"
								},
								{
									"internalType": "uint256",
									"name": "star",
									"type": "uint256"
								},
								{
									"internalType": "address",
									"name": "seller",
									"type": "address"
								},
								{
									"internalType": "uint256",
									"name": "price",
									"type": "uint256"
								},
								{
									"internalType": "uint32",
									"name": "dueDate",
									"type": "uint32"
								}
							],
							"indexed": false,
							"internalType": "struct SwapCart.Item",
							"name": "item",
							"type": "tuple"
						},
						{
							"indexed": true,
							"internalType": "address",
							"name": "caller",
							"type": "address"
						}
					],
					"name": "GetItemById",
					"type": "event"
				},
				{
					"inputs": [
						{
							"internalType": "uint256",
							"name": "itmId",
							"type": "uint256"
						}
					],
					"name": "addStar",
					"outputs": [],
					"stateMutability": "nonpayable",
					"type": "function"
				},
				{
					"inputs": [
						{
							"internalType": "uint256",
							"name": "itmId",
							"type": "uint256"
						}
					],
					"name": "cancelSaleAdvert",
					"outputs": [],
					"stateMutability": "nonpayable",
					"type": "function"
				},
				{
					"inputs": [
						{
							"internalType": "uint256",
							"name": "itmPrice",
							"type": "uint256"
						},
						{
							"internalType": "string",
							"name": "itmImage",
							"type": "string"
						},
						{
							"internalType": "uint32",
							"name": "itmDueDate",
							"type": "uint32"
						}
					],
					"name": "createSaleAdvert",
					"outputs": [],
					"stateMutability": "nonpayable",
					"type": "function"
				},
				{
					"inputs": [],
					"name": "getEntireItems",
					"outputs": [
						{
							"components": [
								{
									"internalType": "uint256",
									"name": "itemId",
									"type": "uint256"
								},
								{
									"internalType": "string",
									"name": "itemImage",
									"type": "string"
								},
								{
									"internalType": "uint256",
									"name": "star",
									"type": "uint256"
								},
								{
									"internalType": "address",
									"name": "seller",
									"type": "address"
								},
								{
									"internalType": "uint256",
									"name": "price",
									"type": "uint256"
								},
								{
									"internalType": "uint32",
									"name": "dueDate",
									"type": "uint32"
								}
							],
							"internalType": "struct SwapCart.Item[]",
							"name": "",
							"type": "tuple[]"
						}
					],
					"stateMutability": "nonpayable",
					"type": "function"
				},
				{
					"inputs": [
						{
							"internalType": "uint256",
							"name": "itmId",
							"type": "uint256"
						}
					],
					"name": "getItemById",
					"outputs": [
						{
							"components": [
								{
									"internalType": "uint256",
									"name": "itemId",
									"type": "uint256"
								},
								{
									"internalType": "string",
									"name": "itemImage",
									"type": "string"
								},
								{
									"internalType": "uint256",
									"name": "star",
									"type": "uint256"
								},
								{
									"internalType": "address",
									"name": "seller",
									"type": "address"
								},
								{
									"internalType": "uint256",
									"name": "price",
									"type": "uint256"
								},
								{
									"internalType": "uint32",
									"name": "dueDate",
									"type": "uint32"
								}
							],
							"internalType": "struct SwapCart.Item",
							"name": "",
							"type": "tuple"
						}
					],
					"stateMutability": "nonpayable",
					"type": "function"
				},
				{
					"inputs": [
						{
							"internalType": "uint256",
							"name": "",
							"type": "uint256"
						}
					],
					"name": "itemList",
					"outputs": [
						{
							"internalType": "uint256",
							"name": "itemId",
							"type": "uint256"
						},
						{
							"internalType": "string",
							"name": "itemImage",
							"type": "string"
						},
						{
							"internalType": "uint256",
							"name": "star",
							"type": "uint256"
						},
						{
							"internalType": "address",
							"name": "seller",
							"type": "address"
						},
						{
							"internalType": "uint256",
							"name": "price",
							"type": "uint256"
						},
						{
							"internalType": "uint32",
							"name": "dueDate",
							"type": "uint32"
						}
					],
					"stateMutability": "view",
					"type": "function"
				},
				{
					"inputs": [
						{
							"internalType": "uint256",
							"name": "",
							"type": "uint256"
						}
					],
					"name": "items",
					"outputs": [
						{
							"internalType": "uint256",
							"name": "itemId",
							"type": "uint256"
						},
						{
							"internalType": "string",
							"name": "itemImage",
							"type": "string"
						},
						{
							"internalType": "uint256",
							"name": "star",
							"type": "uint256"
						},
						{
							"internalType": "address",
							"name": "seller",
							"type": "address"
						},
						{
							"internalType": "uint256",
							"name": "price",
							"type": "uint256"
						},
						{
							"internalType": "uint32",
							"name": "dueDate",
							"type": "uint32"
						}
					],
					"stateMutability": "view",
					"type": "function"
				},
				{
					"inputs": [],
					"name": "token",
					"outputs": [
						{
							"internalType": "contract IERC20",
							"name": "",
							"type": "address"
						}
					],
					"stateMutability": "view",
					"type": "function"
				},
				{
					"inputs": [
						{
							"internalType": "address",
							"name": "",
							"type": "address"
						}
					],
					"name": "users",
					"outputs": [
						{
							"internalType": "uint256",
							"name": "userID",
							"type": "uint256"
						},
						{
							"internalType": "string",
							"name": "userName",
							"type": "string"
						},
						{
							"internalType": "string",
							"name": "deliveryAddress",
							"type": "string"
						},
						{
							"internalType": "uint256",
							"name": "balance",
							"type": "uint256"
						}
					],
					"stateMutability": "view",
					"type": "function"
				}
			],
			"devdoc": {
				"kind": "dev",
				"methods": {},
				"version": 1
			},
			"evm": {
				"assembly": "    /* \"contracts/SwapCart.sol\":172:4738  contract SwapCart{\r... */\n  mstore(0x40, 0x80)\n    /* \"contracts/SwapCart.sol\":783:851  constructor(address _token){\r... */\n  callvalue\n  dup1\n  iszero\n  tag_1\n  jumpi\n  0x00\n  dup1\n  revert\ntag_1:\n  pop\n  mload(0x40)\n  sub(codesize, bytecodeSize)\n  dup1\n  bytecodeSize\n  dup4\n  codecopy\n  dup2\n  dup2\n  add\n  0x40\n  mstore\n  dup2\n  add\n  swap1\n  tag_2\n  swap2\n  swap1\n  tag_3\n  jump\t// in\ntag_2:\n    /* \"contracts/SwapCart.sol\":836:842  _token */\n  dup1\n    /* \"contracts/SwapCart.sol\":821:826  token */\n  0x00\n  dup1\n    /* \"contracts/SwapCart.sol\":821:843  token = IERC20(_token) */\n  0x0100\n  exp\n  dup2\n  sload\n  dup2\n  0xffffffffffffffffffffffffffffffffffffffff\n  mul\n  not\n  and\n  swap1\n  dup4\n  0xffffffffffffffffffffffffffffffffffffffff\n  and\n  mul\n  or\n  swap1\n  sstore\n  pop\n    /* \"contracts/SwapCart.sol\":783:851  constructor(address _token){\r... */\n  pop\n    /* \"contracts/SwapCart.sol\":172:4738  contract SwapCart{\r... */\n  jump(tag_6)\n    /* \"#utility.yul\":7:150   */\ntag_8:\n    /* \"#utility.yul\":64:69   */\n  0x00\n    /* \"#utility.yul\":95:101   */\n  dup2\n    /* \"#utility.yul\":89:102   */\n  mload\n    /* \"#utility.yul\":80:102   */\n  swap1\n  pop\n    /* \"#utility.yul\":111:144   */\n  tag_10\n    /* \"#utility.yul\":138:143   */\n  dup2\n    /* \"#utility.yul\":111:144   */\n  tag_11\n  jump\t// in\ntag_10:\n    /* \"#utility.yul\":7:150   */\n  swap3\n  swap2\n  pop\n  pop\n  jump\t// out\n    /* \"#utility.yul\":156:507   */\ntag_3:\n    /* \"#utility.yul\":226:232   */\n  0x00\n    /* \"#utility.yul\":275:277   */\n  0x20\n    /* \"#utility.yul\":263:272   */\n  dup3\n    /* \"#utility.yul\":254:261   */\n  dup5\n    /* \"#utility.yul\":250:273   */\n  sub\n    /* \"#utility.yul\":246:278   */\n  slt\n    /* \"#utility.yul\":243:362   */\n  iszero\n  tag_13\n  jumpi\n    /* \"#utility.yul\":281:360   */\n  tag_14\n  tag_15\n  jump\t// in\ntag_14:\n    /* \"#utility.yul\":243:362   */\ntag_13:\n    /* \"#utility.yul\":401:402   */\n  0x00\n    /* \"#utility.yul\":426:490   */\n  tag_16\n    /* \"#utility.yul\":482:489   */\n  dup5\n    /* \"#utility.yul\":473:479   */\n  dup3\n    /* \"#utility.yul\":462:471   */\n  dup6\n    /* \"#utility.yul\":458:480   */\n  add\n    /* \"#utility.yul\":426:490   */\n  tag_8\n  jump\t// in\ntag_16:\n    /* \"#utility.yul\":416:490   */\n  swap2\n  pop\n    /* \"#utility.yul\":372:500   */\n  pop\n    /* \"#utility.yul\":156:507   */\n  swap3\n  swap2\n  pop\n  pop\n  jump\t// out\n    /* \"#utility.yul\":594:690   */\ntag_19:\n    /* \"#utility.yul\":631:638   */\n  0x00\n    /* \"#utility.yul\":660:684   */\n  tag_21\n    /* \"#utility.yul\":678:683   */\n  dup3\n    /* \"#utility.yul\":660:684   */\n  tag_22\n  jump\t// in\ntag_21:\n    /* \"#utility.yul\":649:684   */\n  swap1\n  pop\n    /* \"#utility.yul\":594:690   */\n  swap2\n  swap1\n  pop\n  jump\t// out\n    /* \"#utility.yul\":696:822   */\ntag_22:\n    /* \"#utility.yul\":733:740   */\n  0x00\n    /* \"#utility.yul\":773:815   */\n  0xffffffffffffffffffffffffffffffffffffffff\n    /* \"#utility.yul\":766:771   */\n  dup3\n    /* \"#utility.yul\":762:816   */\n  and\n    /* \"#utility.yul\":751:816   */\n  swap1\n  pop\n    /* \"#utility.yul\":696:822   */\n  swap2\n  swap1\n  pop\n  jump\t// out\n    /* \"#utility.yul\":951:1068   */\ntag_15:\n    /* \"#utility.yul\":1060:1061   */\n  0x00\n    /* \"#utility.yul\":1057:1058   */\n  dup1\n    /* \"#utility.yul\":1050:1062   */\n  revert\n    /* \"#utility.yul\":1074:1196   */\ntag_11:\n    /* \"#utility.yul\":1147:1171   */\n  tag_28\n    /* \"#utility.yul\":1165:1170   */\n  dup2\n    /* \"#utility.yul\":1147:1171   */\n  tag_19\n  jump\t// in\ntag_28:\n    /* \"#utility.yul\":1140:1145   */\n  dup2\n    /* \"#utility.yul\":1137:1172   */\n  eq\n    /* \"#utility.yul\":1127:1190   */\n  tag_29\n  jumpi\n    /* \"#utility.yul\":1186:1187   */\n  0x00\n    /* \"#utility.yul\":1183:1184   */\n  dup1\n    /* \"#utility.yul\":1176:1188   */\n  revert\n    /* \"#utility.yul\":1127:1190   */\ntag_29:\n    /* \"#utility.yul\":1074:1196   */\n  pop\n  jump\t// out\n    /* \"contracts/SwapCart.sol\":172:4738  contract SwapCart{\r... */\ntag_6:\n  dataSize(sub_0)\n  dup1\n  dataOffset(sub_0)\n  0x00\n  codecopy\n  0x00\n  return\nstop\n\nsub_0: assembly {\n        /* \"contracts/SwapCart.sol\":172:4738  contract SwapCart{\r... */\n      mstore(0x40, 0x80)\n      callvalue\n      dup1\n      iszero\n      tag_1\n      jumpi\n      0x00\n      dup1\n      revert\n    tag_1:\n      pop\n      jumpi(tag_2, lt(calldatasize, 0x04))\n      shr(0xe0, calldataload(0x00))\n      dup1\n      0xa87430ba\n      gt\n      tag_12\n      jumpi\n      dup1\n      0xa87430ba\n      eq\n      tag_7\n      jumpi\n      dup1\n      0xbfb231d2\n      eq\n      tag_8\n      jumpi\n      dup1\n      0xca095a83\n      eq\n      tag_9\n      jumpi\n      dup1\n      0xcd2f0710\n      eq\n      tag_10\n      jumpi\n      dup1\n      0xfc0c546a\n      eq\n      tag_11\n      jumpi\n      jump(tag_2)\n    tag_12:\n      dup1\n      0x01750e74\n      eq\n      tag_3\n      jumpi\n      dup1\n      0x3d4d3600\n      eq\n      tag_4\n      jumpi\n      dup1\n      0x4efd1797\n      eq\n      tag_5\n      jumpi\n      dup1\n      0x5d9eb55c\n      eq\n      tag_6\n      jumpi\n    tag_2:\n      0x00\n      dup1\n      revert\n        /* \"contracts/SwapCart.sol\":4390:4540  function addStar(uint itmId) public buyerCheck(itmId){\r... */\n    tag_3:\n      tag_13\n      0x04\n      dup1\n      calldatasize\n      sub\n      dup2\n      add\n      swap1\n      tag_14\n      swap2\n      swap1\n      tag_15\n      jump\t// in\n    tag_14:\n      tag_16\n      jump\t// in\n    tag_13:\n      stop\n        /* \"contracts/SwapCart.sol\":575:597  Item[] public itemList */\n    tag_4:\n      tag_17\n      0x04\n      dup1\n      calldatasize\n      sub\n      dup2\n      add\n      swap1\n      tag_18\n      swap2\n      swap1\n      tag_15\n      jump\t// in\n    tag_18:\n      tag_19\n      jump\t// in\n    tag_17:\n      mload(0x40)\n      tag_20\n      swap7\n      swap6\n      swap5\n      swap4\n      swap3\n      swap2\n      swap1\n      tag_21\n      jump\t// in\n    tag_20:\n      mload(0x40)\n      dup1\n      swap2\n      sub\n      swap1\n      return\n        /* \"contracts/SwapCart.sol\":3190:3836  function createSaleAdvert(uint itmPrice, string memory itmImage, uint32 itmDueDate) external{\r... */\n    tag_5:\n      tag_22\n      0x04\n      dup1\n      calldatasize\n      sub\n      dup2\n      add\n      swap1\n      tag_23\n      swap2\n      swap1\n      tag_24\n      jump\t// in\n    tag_23:\n      tag_25\n      jump\t// in\n    tag_22:\n      stop\n        /* \"contracts/SwapCart.sol\":4226:4382  function getEntireItems() public listSizeCheck returns (Item[] memory) {\r... */\n    tag_6:\n      tag_26\n      tag_27\n      jump\t// in\n    tag_26:\n      mload(0x40)\n      tag_28\n      swap2\n      swap1\n      tag_29\n      jump\t// in\n    tag_28:\n      mload(0x40)\n      dup1\n      swap2\n      sub\n      swap1\n      return\n        /* \"contracts/SwapCart.sol\":606:643  mapping(address => User) public users */\n    tag_7:\n      tag_30\n      0x04\n      dup1\n      calldatasize\n      sub\n      dup2\n      add\n      swap1\n      tag_31\n      swap2\n      swap1\n      tag_32\n      jump\t// in\n    tag_31:\n      tag_33\n      jump\t// in\n    tag_30:\n      mload(0x40)\n      tag_34\n      swap5\n      swap4\n      swap3\n      swap2\n      swap1\n      tag_35\n      jump\t// in\n    tag_34:\n      mload(0x40)\n      dup1\n      swap2\n      sub\n      swap1\n      return\n        /* \"contracts/SwapCart.sol\":650:687  mapping(uint256 => Item) public items */\n    tag_8:\n      tag_36\n      0x04\n      dup1\n      calldatasize\n      sub\n      dup2\n      add\n      swap1\n      tag_37\n      swap2\n      swap1\n      tag_15\n      jump\t// in\n    tag_37:\n      tag_38\n      jump\t// in\n    tag_36:\n      mload(0x40)\n      tag_39\n      swap7\n      swap6\n      swap5\n      swap4\n      swap3\n      swap2\n      swap1\n      tag_21\n      jump\t// in\n    tag_39:\n      mload(0x40)\n      dup1\n      swap2\n      sub\n      swap1\n      return\n        /* \"contracts/SwapCart.sol\":3903:4218  function cancelSaleAdvert(uint itmId) external expireCheck(itmId) {\r... */\n    tag_9:\n      tag_40\n      0x04\n      dup1\n      calldatasize\n      sub\n      dup2\n      add\n      swap1\n      tag_41\n      swap2\n      swap1\n      tag_15\n      jump\t// in\n    tag_41:\n      tag_42\n      jump\t// in\n    tag_40:\n      stop\n        /* \"contracts/SwapCart.sol\":4548:4735  function getItemById(uint itmId) public itemAvailabilityCheck(itmId) returns (Item memory) {\r... */\n    tag_10:\n      tag_43\n      0x04\n      dup1\n      calldatasize\n      sub\n      dup2\n      add\n      swap1\n      tag_44\n      swap2\n      swap1\n      tag_15\n      jump\t// in\n    tag_44:\n      tag_45\n      jump\t// in\n    tag_43:\n      mload(0x40)\n      tag_46\n      swap2\n      swap1\n      tag_47\n      jump\t// in\n    tag_46:\n      mload(0x40)\n      dup1\n      swap2\n      sub\n      swap1\n      return\n        /* \"contracts/SwapCart.sol\":549:568  IERC20 public token */\n    tag_11:\n      tag_48\n      tag_49\n      jump\t// in\n    tag_48:\n      mload(0x40)\n      tag_50\n      swap2\n      swap1\n      tag_51\n      jump\t// in\n    tag_50:\n      mload(0x40)\n      dup1\n      swap2\n      sub\n      swap1\n      return\n        /* \"contracts/SwapCart.sol\":4390:4540  function addStar(uint itmId) public buyerCheck(itmId){\r... */\n    tag_16:\n        /* \"contracts/SwapCart.sol\":4437:4442  itmId */\n      dup1\n        /* \"contracts/SwapCart.sol\":1313:1329  Item memory item */\n      0x00\n        /* \"contracts/SwapCart.sol\":1332:1337  items */\n      0x03\n        /* \"contracts/SwapCart.sol\":1332:1344  items[itmId] */\n      0x00\n        /* \"contracts/SwapCart.sol\":1338:1343  itmId */\n      dup4\n        /* \"contracts/SwapCart.sol\":1332:1344  items[itmId] */\n      dup2\n      mstore\n      0x20\n      add\n      swap1\n      dup2\n      mstore\n      0x20\n      add\n      0x00\n      keccak256\n        /* \"contracts/SwapCart.sol\":1313:1344  Item memory item = items[itmId] */\n      mload(0x40)\n      dup1\n      0xc0\n      add\n      0x40\n      mstore\n      swap1\n      dup2\n      0x00\n      dup3\n      add\n      sload\n      dup2\n      mstore\n      0x20\n      add\n      0x01\n      dup3\n      add\n      dup1\n      sload\n      tag_53\n      swap1\n      tag_54\n      jump\t// in\n    tag_53:\n      dup1\n      0x1f\n      add\n      0x20\n      dup1\n      swap2\n      div\n      mul\n      0x20\n      add\n      mload(0x40)\n      swap1\n      dup2\n      add\n      0x40\n      mstore\n      dup1\n      swap3\n      swap2\n      swap1\n      dup2\n      dup2\n      mstore\n      0x20\n      add\n      dup3\n      dup1\n      sload\n      tag_55\n      swap1\n      tag_54\n      jump\t// in\n    tag_55:\n      dup1\n      iszero\n      tag_56\n      jumpi\n      dup1\n      0x1f\n      lt\n      tag_57\n      jumpi\n      0x0100\n      dup1\n      dup4\n      sload\n      div\n      mul\n      dup4\n      mstore\n      swap2\n      0x20\n      add\n      swap2\n      jump(tag_56)\n    tag_57:\n      dup3\n      add\n      swap2\n      swap1\n      0x00\n      mstore\n      keccak256(0x00, 0x20)\n      swap1\n    tag_58:\n      dup2\n      sload\n      dup2\n      mstore\n      swap1\n      0x01\n      add\n      swap1\n      0x20\n      add\n      dup1\n      dup4\n      gt\n      tag_58\n      jumpi\n      dup3\n      swap1\n      sub\n      0x1f\n      and\n      dup3\n      add\n      swap2\n    tag_56:\n      pop\n      pop\n      pop\n      pop\n      pop\n      dup2\n      mstore\n      0x20\n      add\n      0x02\n      dup3\n      add\n      sload\n      dup2\n      mstore\n      0x20\n      add\n      0x03\n      dup3\n      add\n      0x00\n      swap1\n      sload\n      swap1\n      0x0100\n      exp\n      swap1\n      div\n      0xffffffffffffffffffffffffffffffffffffffff\n      and\n      0xffffffffffffffffffffffffffffffffffffffff\n      and\n      0xffffffffffffffffffffffffffffffffffffffff\n      and\n      dup2\n      mstore\n      0x20\n      add\n      0x04\n      dup3\n      add\n      sload\n      dup2\n      mstore\n      0x20\n      add\n      0x05\n      dup3\n      add\n      0x00\n      swap1\n      sload\n      swap1\n      0x0100\n      exp\n      swap1\n      div\n      0xffffffff\n      and\n      0xffffffff\n      and\n      0xffffffff\n      and\n      dup2\n      mstore\n      pop\n      pop\n      swap1\n      pop\n        /* \"contracts/SwapCart.sol\":1377:1381  item */\n      dup1\n        /* \"contracts/SwapCart.sol\":1377:1388  item.seller */\n      0x60\n      add\n      mload\n        /* \"contracts/SwapCart.sol\":1363:1388  msg.sender != item.seller */\n      0xffffffffffffffffffffffffffffffffffffffff\n      and\n        /* \"contracts/SwapCart.sol\":1363:1373  msg.sender */\n      caller\n        /* \"contracts/SwapCart.sol\":1363:1388  msg.sender != item.seller */\n      0xffffffffffffffffffffffffffffffffffffffff\n      and\n      eq\n      iszero\n        /* \"contracts/SwapCart.sol\":1355:1389  require(msg.sender != item.seller) */\n      tag_59\n      jumpi\n      0x00\n      dup1\n      revert\n    tag_59:\n        /* \"contracts/SwapCart.sol\":4454:4459  items */\n      0x03\n        /* \"contracts/SwapCart.sol\":4454:4466  items[itmId] */\n      0x00\n        /* \"contracts/SwapCart.sol\":4460:4465  itmId */\n      dup5\n        /* \"contracts/SwapCart.sol\":4454:4466  items[itmId] */\n      dup2\n      mstore\n      0x20\n      add\n      swap1\n      dup2\n      mstore\n      0x20\n      add\n      0x00\n      keccak256\n        /* \"contracts/SwapCart.sol\":4454:4471  items[itmId].star */\n      0x02\n      add\n      0x00\n        /* \"contracts/SwapCart.sol\":4454:4473  items[itmId].star++ */\n      dup2\n      sload\n      dup1\n      swap3\n      swap2\n      swap1\n      tag_61\n      swap1\n      tag_62\n      jump\t// in\n    tag_61:\n      swap2\n      swap1\n      pop\n      sstore\n      pop\n        /* \"contracts/SwapCart.sol\":4521:4531  msg.sender */\n      caller\n        /* \"contracts/SwapCart.sol\":4489:4532  AddStar(itmId,items[itmId].star,msg.sender) */\n      0xffffffffffffffffffffffffffffffffffffffff\n      and\n      0x1ed364e6f46a455fac23816d3700669ff134c7a5fbe0240f52d932f834102462\n        /* \"contracts/SwapCart.sol\":4497:4502  itmId */\n      dup5\n        /* \"contracts/SwapCart.sol\":4503:4508  items */\n      0x03\n        /* \"contracts/SwapCart.sol\":4503:4515  items[itmId] */\n      0x00\n        /* \"contracts/SwapCart.sol\":4509:4514  itmId */\n      dup8\n        /* \"contracts/SwapCart.sol\":4503:4515  items[itmId] */\n      dup2\n      mstore\n      0x20\n      add\n      swap1\n      dup2\n      mstore\n      0x20\n      add\n      0x00\n      keccak256\n        /* \"contracts/SwapCart.sol\":4503:4520  items[itmId].star */\n      0x02\n      add\n      sload\n        /* \"contracts/SwapCart.sol\":4489:4532  AddStar(itmId,items[itmId].star,msg.sender) */\n      mload(0x40)\n      tag_63\n      swap3\n      swap2\n      swap1\n      tag_64\n      jump\t// in\n    tag_63:\n      mload(0x40)\n      dup1\n      swap2\n      sub\n      swap1\n      log2\n        /* \"contracts/SwapCart.sol\":1162:1409  {  // We check the message sender of transaction. Because, message sender must be a buyer to can give star for any item. (not seller of item)\r... */\n      pop\n        /* \"contracts/SwapCart.sol\":4390:4540  function addStar(uint itmId) public buyerCheck(itmId){\r... */\n      pop\n      pop\n      jump\t// out\n        /* \"contracts/SwapCart.sol\":575:597  Item[] public itemList */\n    tag_19:\n      0x01\n      dup2\n      dup2\n      sload\n      dup2\n      lt\n      tag_65\n      jumpi\n      0x00\n      dup1\n      revert\n    tag_65:\n      swap1\n      0x00\n      mstore\n      keccak256(0x00, 0x20)\n      swap1\n      0x06\n      mul\n      add\n      0x00\n      swap2\n      pop\n      swap1\n      pop\n      dup1\n      0x00\n      add\n      sload\n      swap1\n      dup1\n      0x01\n      add\n      dup1\n      sload\n      tag_67\n      swap1\n      tag_54\n      jump\t// in\n    tag_67:\n      dup1\n      0x1f\n      add\n      0x20\n      dup1\n      swap2\n      div\n      mul\n      0x20\n      add\n      mload(0x40)\n      swap1\n      dup2\n      add\n      0x40\n      mstore\n      dup1\n      swap3\n      swap2\n      swap1\n      dup2\n      dup2\n      mstore\n      0x20\n      add\n      dup3\n      dup1\n      sload\n      tag_68\n      swap1\n      tag_54\n      jump\t// in\n    tag_68:\n      dup1\n      iszero\n      tag_69\n      jumpi\n      dup1\n      0x1f\n      lt\n      tag_70\n      jumpi\n      0x0100\n      dup1\n      dup4\n      sload\n      div\n      mul\n      dup4\n      mstore\n      swap2\n      0x20\n      add\n      swap2\n      jump(tag_69)\n    tag_70:\n      dup3\n      add\n      swap2\n      swap1\n      0x00\n      mstore\n      keccak256(0x00, 0x20)\n      swap1\n    tag_71:\n      dup2\n      sload\n      dup2\n      mstore\n      swap1\n      0x01\n      add\n      swap1\n      0x20\n      add\n      dup1\n      dup4\n      gt\n      tag_71\n      jumpi\n      dup3\n      swap1\n      sub\n      0x1f\n      and\n      dup3\n      add\n      swap2\n    tag_69:\n      pop\n      pop\n      pop\n      pop\n      pop\n      swap1\n      dup1\n      0x02\n      add\n      sload\n      swap1\n      dup1\n      0x03\n      add\n      0x00\n      swap1\n      sload\n      swap1\n      0x0100\n      exp\n      swap1\n      div\n      0xffffffffffffffffffffffffffffffffffffffff\n      and\n      swap1\n      dup1\n      0x04\n      add\n      sload\n      swap1\n      dup1\n      0x05\n      add\n      0x00\n      swap1\n      sload\n      swap1\n      0x0100\n      exp\n      swap1\n      div\n      0xffffffff\n      and\n      swap1\n      pop\n      dup7\n      jump\t// out\n        /* \"contracts/SwapCart.sol\":3190:3836  function createSaleAdvert(uint itmPrice, string memory itmImage, uint32 itmDueDate) external{\r... */\n    tag_25:\n        /* \"contracts/SwapCart.sol\":3326:3534  Item({\r... */\n      mload(0x40)\n      dup1\n      0xc0\n      add\n      0x40\n      mstore\n      dup1\n        /* \"contracts/SwapCart.sol\":3353:3374  itemCounter.current() */\n      tag_73\n        /* \"contracts/SwapCart.sol\":3353:3364  itemCounter */\n      0x04\n        /* \"contracts/SwapCart.sol\":3353:3372  itemCounter.current */\n      tag_74\n        /* \"contracts/SwapCart.sol\":3353:3374  itemCounter.current() */\n      jump\t// in\n    tag_73:\n        /* \"contracts/SwapCart.sol\":3326:3534  Item({\r... */\n      dup2\n      mstore\n      0x20\n      add\n        /* \"contracts/SwapCart.sol\":3428:3436  itmImage */\n      dup4\n        /* \"contracts/SwapCart.sol\":3326:3534  Item({\r... */\n      dup2\n      mstore\n      0x20\n      add\n        /* \"contracts/SwapCart.sol\":3489:3490  0 */\n      0x00\n        /* \"contracts/SwapCart.sol\":3326:3534  Item({\r... */\n      dup2\n      mstore\n      0x20\n      add\n        /* \"contracts/SwapCart.sol\":3512:3522  msg.sender */\n      caller\n        /* \"contracts/SwapCart.sol\":3326:3534  Item({\r... */\n      0xffffffffffffffffffffffffffffffffffffffff\n      and\n      dup2\n      mstore\n      0x20\n      add\n        /* \"contracts/SwapCart.sol\":3395:3403  itmPrice */\n      dup5\n        /* \"contracts/SwapCart.sol\":3326:3534  Item({\r... */\n      dup2\n      mstore\n      0x20\n      add\n        /* \"contracts/SwapCart.sol\":3459:3469  itmDueDate */\n      dup3\n        /* \"contracts/SwapCart.sol\":3326:3534  Item({\r... */\n      0xffffffff\n      and\n      dup2\n      mstore\n      pop\n        /* \"contracts/SwapCart.sol\":3295:3300  items */\n      0x03\n        /* \"contracts/SwapCart.sol\":3295:3323  items[itemCounter.current()] */\n      0x00\n        /* \"contracts/SwapCart.sol\":3301:3322  itemCounter.current() */\n      tag_75\n        /* \"contracts/SwapCart.sol\":3301:3312  itemCounter */\n      0x04\n        /* \"contracts/SwapCart.sol\":3301:3320  itemCounter.current */\n      tag_74\n        /* \"contracts/SwapCart.sol\":3301:3322  itemCounter.current() */\n      jump\t// in\n    tag_75:\n        /* \"contracts/SwapCart.sol\":3295:3323  items[itemCounter.current()] */\n      dup2\n      mstore\n      0x20\n      add\n      swap1\n      dup2\n      mstore\n      0x20\n      add\n      0x00\n      keccak256\n        /* \"contracts/SwapCart.sol\":3295:3534  items[itemCounter.current()] = Item({\r... */\n      0x00\n      dup3\n      add\n      mload\n      dup2\n      0x00\n      add\n      sstore\n      0x20\n      dup3\n      add\n      mload\n      dup2\n      0x01\n      add\n      swap1\n      dup1\n      mload\n      swap1\n      0x20\n      add\n      swap1\n      tag_76\n      swap3\n      swap2\n      swap1\n      tag_77\n      jump\t// in\n    tag_76:\n      pop\n      0x40\n      dup3\n      add\n      mload\n      dup2\n      0x02\n      add\n      sstore\n      0x60\n      dup3\n      add\n      mload\n      dup2\n      0x03\n      add\n      exp(0x0100, 0x00)\n      dup2\n      sload\n      dup2\n      0xffffffffffffffffffffffffffffffffffffffff\n      mul\n      not\n      and\n      swap1\n      dup4\n      0xffffffffffffffffffffffffffffffffffffffff\n      and\n      mul\n      or\n      swap1\n      sstore\n      pop\n      0x80\n      dup3\n      add\n      mload\n      dup2\n      0x04\n      add\n      sstore\n      0xa0\n      dup3\n      add\n      mload\n      dup2\n      0x05\n      add\n      exp(0x0100, 0x00)\n      dup2\n      sload\n      dup2\n      0xffffffff\n      mul\n      not\n      and\n      swap1\n      dup4\n      0xffffffff\n      and\n      mul\n      or\n      swap1\n      sstore\n      pop\n      swap1\n      pop\n      pop\n        /* \"contracts/SwapCart.sol\":3547:3552  users */\n      0x02\n        /* \"contracts/SwapCart.sol\":3547:3564  users[msg.sender] */\n      0x00\n        /* \"contracts/SwapCart.sol\":3553:3563  msg.sender */\n      caller\n        /* \"contracts/SwapCart.sol\":3547:3564  users[msg.sender] */\n      0xffffffffffffffffffffffffffffffffffffffff\n      and\n      0xffffffffffffffffffffffffffffffffffffffff\n      and\n      dup2\n      mstore\n      0x20\n      add\n      swap1\n      dup2\n      mstore\n      0x20\n      add\n      0x00\n      keccak256\n        /* \"contracts/SwapCart.sol\":3547:3574  users[msg.sender].inventory */\n      0x04\n      add\n        /* \"contracts/SwapCart.sol\":3580:3585  items */\n      0x03\n        /* \"contracts/SwapCart.sol\":3580:3608  items[itemCounter.current()] */\n      0x00\n        /* \"contracts/SwapCart.sol\":3586:3607  itemCounter.current() */\n      tag_78\n        /* \"contracts/SwapCart.sol\":3586:3597  itemCounter */\n      0x04\n        /* \"contracts/SwapCart.sol\":3586:3605  itemCounter.current */\n      tag_74\n        /* \"contracts/SwapCart.sol\":3586:3607  itemCounter.current() */\n      jump\t// in\n    tag_78:\n        /* \"contracts/SwapCart.sol\":3580:3608  items[itemCounter.current()] */\n      dup2\n      mstore\n      0x20\n      add\n      swap1\n      dup2\n      mstore\n      0x20\n      add\n      0x00\n      keccak256\n        /* \"contracts/SwapCart.sol\":3547:3609  users[msg.sender].inventory.push(items[itemCounter.current()]) */\n      swap1\n      dup1\n      0x01\n      dup2\n      sload\n      add\n      dup1\n      dup3\n      sstore\n      dup1\n      swap2\n      pop\n      pop\n      0x01\n      swap1\n      sub\n      swap1\n      0x00\n      mstore\n      keccak256(0x00, 0x20)\n      swap1\n      0x06\n      mul\n      add\n      0x00\n      swap1\n      swap2\n      swap1\n      swap2\n      swap1\n      swap2\n      pop\n      0x00\n      dup3\n      add\n      sload\n      dup2\n      0x00\n      add\n      sstore\n      0x01\n      dup3\n      add\n      dup2\n      0x01\n      add\n      swap1\n      dup1\n      sload\n      tag_80\n      swap1\n      tag_54\n      jump\t// in\n    tag_80:\n      tag_81\n      swap3\n      swap2\n      swap1\n      tag_82\n      jump\t// in\n    tag_81:\n      pop\n      0x02\n      dup3\n      add\n      sload\n      dup2\n      0x02\n      add\n      sstore\n      0x03\n      dup3\n      add\n      0x00\n      swap1\n      sload\n      swap1\n      0x0100\n      exp\n      swap1\n      div\n      0xffffffffffffffffffffffffffffffffffffffff\n      and\n      dup2\n      0x03\n      add\n      exp(0x0100, 0x00)\n      dup2\n      sload\n      dup2\n      0xffffffffffffffffffffffffffffffffffffffff\n      mul\n      not\n      and\n      swap1\n      dup4\n      0xffffffffffffffffffffffffffffffffffffffff\n      and\n      mul\n      or\n      swap1\n      sstore\n      pop\n      0x04\n      dup3\n      add\n      sload\n      dup2\n      0x04\n      add\n      sstore\n      0x05\n      dup3\n      add\n      0x00\n      swap1\n      sload\n      swap1\n      0x0100\n      exp\n      swap1\n      div\n      0xffffffff\n      and\n      dup2\n      0x05\n      add\n      exp(0x0100, 0x00)\n      dup2\n      sload\n      dup2\n      0xffffffff\n      mul\n      not\n      and\n      swap1\n      dup4\n      0xffffffff\n      and\n      mul\n      or\n      swap1\n      sstore\n      pop\n      pop\n      pop\n        /* \"contracts/SwapCart.sol\":3620:3628  itemList */\n      0x01\n        /* \"contracts/SwapCart.sol\":3634:3639  items */\n      0x03\n        /* \"contracts/SwapCart.sol\":3634:3662  items[itemCounter.current()] */\n      0x00\n        /* \"contracts/SwapCart.sol\":3640:3661  itemCounter.current() */\n      tag_83\n        /* \"contracts/SwapCart.sol\":3640:3651  itemCounter */\n      0x04\n        /* \"contracts/SwapCart.sol\":3640:3659  itemCounter.current */\n      tag_74\n        /* \"contracts/SwapCart.sol\":3640:3661  itemCounter.current() */\n      jump\t// in\n    tag_83:\n        /* \"contracts/SwapCart.sol\":3634:3662  items[itemCounter.current()] */\n      dup2\n      mstore\n      0x20\n      add\n      swap1\n      dup2\n      mstore\n      0x20\n      add\n      0x00\n      keccak256\n        /* \"contracts/SwapCart.sol\":3620:3663  itemList.push(items[itemCounter.current()]) */\n      swap1\n      dup1\n      0x01\n      dup2\n      sload\n      add\n      dup1\n      dup3\n      sstore\n      dup1\n      swap2\n      pop\n      pop\n      0x01\n      swap1\n      sub\n      swap1\n      0x00\n      mstore\n      keccak256(0x00, 0x20)\n      swap1\n      0x06\n      mul\n      add\n      0x00\n      swap1\n      swap2\n      swap1\n      swap2\n      swap1\n      swap2\n      pop\n      0x00\n      dup3\n      add\n      sload\n      dup2\n      0x00\n      add\n      sstore\n      0x01\n      dup3\n      add\n      dup2\n      0x01\n      add\n      swap1\n      dup1\n      sload\n      tag_85\n      swap1\n      tag_54\n      jump\t// in\n    tag_85:\n      tag_86\n      swap3\n      swap2\n      swap1\n      tag_82\n      jump\t// in\n    tag_86:\n      pop\n      0x02\n      dup3\n      add\n      sload\n      dup2\n      0x02\n      add\n      sstore\n      0x03\n      dup3\n      add\n      0x00\n      swap1\n      sload\n      swap1\n      0x0100\n      exp\n      swap1\n      div\n      0xffffffffffffffffffffffffffffffffffffffff\n      and\n      dup2\n      0x03\n      add\n      exp(0x0100, 0x00)\n      dup2\n      sload\n      dup2\n      0xffffffffffffffffffffffffffffffffffffffff\n      mul\n      not\n      and\n      swap1\n      dup4\n      0xffffffffffffffffffffffffffffffffffffffff\n      and\n      mul\n      or\n      swap1\n      sstore\n      pop\n      0x04\n      dup3\n      add\n      sload\n      dup2\n      0x04\n      add\n      sstore\n      0x05\n      dup3\n      add\n      0x00\n      swap1\n      sload\n      swap1\n      0x0100\n      exp\n      swap1\n      div\n      0xffffffff\n      and\n      dup2\n      0x05\n      add\n      exp(0x0100, 0x00)\n      dup2\n      sload\n      dup2\n      0xffffffff\n      mul\n      not\n      and\n      swap1\n      dup4\n      0xffffffff\n      and\n      mul\n      or\n      swap1\n      sstore\n      pop\n      pop\n      pop\n        /* \"contracts/SwapCart.sol\":3674:3697  itemCounter.increment() */\n      tag_87\n        /* \"contracts/SwapCart.sol\":3674:3685  itemCounter */\n      0x04\n        /* \"contracts/SwapCart.sol\":3674:3695  itemCounter.increment */\n      tag_88\n        /* \"contracts/SwapCart.sol\":3674:3697  itemCounter.increment() */\n      jump\t// in\n    tag_87:\n        /* \"contracts/SwapCart.sol\":3817:3827  msg.sender */\n      caller\n        /* \"contracts/SwapCart.sol\":3715:3828  CreateSaleAdvert(itemCounter.current(),itmPrice,itmImage,itmDueDate,items[itemCounter.current()].star,msg.sender) */\n      0xffffffffffffffffffffffffffffffffffffffff\n      and\n      0x9a5b8b5cb7f9c536ea5db1a94142c9f716fb3a8698a9c70a5b8bfad3922cb06c\n        /* \"contracts/SwapCart.sol\":3732:3753  itemCounter.current() */\n      tag_89\n        /* \"contracts/SwapCart.sol\":3732:3743  itemCounter */\n      0x04\n        /* \"contracts/SwapCart.sol\":3732:3751  itemCounter.current */\n      tag_74\n        /* \"contracts/SwapCart.sol\":3732:3753  itemCounter.current() */\n      jump\t// in\n    tag_89:\n        /* \"contracts/SwapCart.sol\":3754:3762  itmPrice */\n      dup6\n        /* \"contracts/SwapCart.sol\":3763:3771  itmImage */\n      dup6\n        /* \"contracts/SwapCart.sol\":3772:3782  itmDueDate */\n      dup6\n        /* \"contracts/SwapCart.sol\":3783:3788  items */\n      0x03\n        /* \"contracts/SwapCart.sol\":3783:3811  items[itemCounter.current()] */\n      0x00\n        /* \"contracts/SwapCart.sol\":3789:3810  itemCounter.current() */\n      tag_90\n        /* \"contracts/SwapCart.sol\":3789:3800  itemCounter */\n      0x04\n        /* \"contracts/SwapCart.sol\":3789:3808  itemCounter.current */\n      tag_74\n        /* \"contracts/SwapCart.sol\":3789:3810  itemCounter.current() */\n      jump\t// in\n    tag_90:\n        /* \"contracts/SwapCart.sol\":3783:3811  items[itemCounter.current()] */\n      dup2\n      mstore\n      0x20\n      add\n      swap1\n      dup2\n      mstore\n      0x20\n      add\n      0x00\n      keccak256\n        /* \"contracts/SwapCart.sol\":3783:3816  items[itemCounter.current()].star */\n      0x02\n      add\n      sload\n        /* \"contracts/SwapCart.sol\":3715:3828  CreateSaleAdvert(itemCounter.current(),itmPrice,itmImage,itmDueDate,items[itemCounter.current()].star,msg.sender) */\n      mload(0x40)\n      tag_91\n      swap6\n      swap5\n      swap4\n      swap3\n      swap2\n      swap1\n      tag_92\n      jump\t// in\n    tag_91:\n      mload(0x40)\n      dup1\n      swap2\n      sub\n      swap1\n      log2\n        /* \"contracts/SwapCart.sol\":3190:3836  function createSaleAdvert(uint itmPrice, string memory itmImage, uint32 itmDueDate) external{\r... */\n      pop\n      pop\n      pop\n      jump\t// out\n        /* \"contracts/SwapCart.sol\":4226:4382  function getEntireItems() public listSizeCheck returns (Item[] memory) {\r... */\n    tag_27:\n        /* \"contracts/SwapCart.sol\":4282:4295  Item[] memory */\n      0x60\n        /* \"contracts/SwapCart.sol\":2022:2023  0 */\n      0x00\n        /* \"contracts/SwapCart.sol\":1998:2019  itemCounter.current() */\n      tag_94\n        /* \"contracts/SwapCart.sol\":1998:2009  itemCounter */\n      0x04\n        /* \"contracts/SwapCart.sol\":1998:2017  itemCounter.current */\n      tag_74\n        /* \"contracts/SwapCart.sol\":1998:2019  itemCounter.current() */\n      jump\t// in\n    tag_94:\n        /* \"contracts/SwapCart.sol\":1998:2023  itemCounter.current() > 0 */\n      gt\n        /* \"contracts/SwapCart.sol\":1990:2062  require(itemCounter.current() > 0, \"There are no products to list yet!\") */\n      tag_95\n      jumpi\n      mload(0x40)\n      0x08c379a000000000000000000000000000000000000000000000000000000000\n      dup2\n      mstore\n      0x04\n      add\n      tag_96\n      swap1\n      tag_97\n      jump\t// in\n    tag_96:\n      mload(0x40)\n      dup1\n      swap2\n      sub\n      swap1\n      revert\n    tag_95:\n        /* \"contracts/SwapCart.sol\":4337:4347  msg.sender */\n      caller\n        /* \"contracts/SwapCart.sol\":4313:4348  GetEntireItems(itemList,msg.sender) */\n      0xffffffffffffffffffffffffffffffffffffffff\n      and\n      0x440c078a5e11bff85c6b6d7c52f378c8220355bd3331ec889638c0eca883670c\n        /* \"contracts/SwapCart.sol\":4328:4336  itemList */\n      0x01\n        /* \"contracts/SwapCart.sol\":4313:4348  GetEntireItems(itemList,msg.sender) */\n      mload(0x40)\n      tag_99\n      swap2\n      swap1\n      tag_100\n      jump\t// in\n    tag_99:\n      mload(0x40)\n      dup1\n      swap2\n      sub\n      swap1\n      log2\n        /* \"contracts/SwapCart.sol\":4366:4374  itemList */\n      0x01\n        /* \"contracts/SwapCart.sol\":4359:4374  return itemList */\n      dup1\n      sload\n      dup1\n      0x20\n      mul\n      0x20\n      add\n      mload(0x40)\n      swap1\n      dup2\n      add\n      0x40\n      mstore\n      dup1\n      swap3\n      swap2\n      swap1\n      dup2\n      dup2\n      mstore\n      0x20\n      add\n      0x00\n      swap1\n    tag_101:\n      dup3\n      dup3\n      lt\n      iszero\n      tag_102\n      jumpi\n      dup4\n      dup3\n      swap1\n      0x00\n      mstore\n      keccak256(0x00, 0x20)\n      swap1\n      0x06\n      mul\n      add\n      mload(0x40)\n      dup1\n      0xc0\n      add\n      0x40\n      mstore\n      swap1\n      dup2\n      0x00\n      dup3\n      add\n      sload\n      dup2\n      mstore\n      0x20\n      add\n      0x01\n      dup3\n      add\n      dup1\n      sload\n      tag_104\n      swap1\n      tag_54\n      jump\t// in\n    tag_104:\n      dup1\n      0x1f\n      add\n      0x20\n      dup1\n      swap2\n      div\n      mul\n      0x20\n      add\n      mload(0x40)\n      swap1\n      dup2\n      add\n      0x40\n      mstore\n      dup1\n      swap3\n      swap2\n      swap1\n      dup2\n      dup2\n      mstore\n      0x20\n      add\n      dup3\n      dup1\n      sload\n      tag_105\n      swap1\n      tag_54\n      jump\t// in\n    tag_105:\n      dup1\n      iszero\n      tag_106\n      jumpi\n      dup1\n      0x1f\n      lt\n      tag_107\n      jumpi\n      0x0100\n      dup1\n      dup4\n      sload\n      div\n      mul\n      dup4\n      mstore\n      swap2\n      0x20\n      add\n      swap2\n      jump(tag_106)\n    tag_107:\n      dup3\n      add\n      swap2\n      swap1\n      0x00\n      mstore\n      keccak256(0x00, 0x20)\n      swap1\n    tag_108:\n      dup2\n      sload\n      dup2\n      mstore\n      swap1\n      0x01\n      add\n      swap1\n      0x20\n      add\n      dup1\n      dup4\n      gt\n      tag_108\n      jumpi\n      dup3\n      swap1\n      sub\n      0x1f\n      and\n      dup3\n      add\n      swap2\n    tag_106:\n      pop\n      pop\n      pop\n      pop\n      pop\n      dup2\n      mstore\n      0x20\n      add\n      0x02\n      dup3\n      add\n      sload\n      dup2\n      mstore\n      0x20\n      add\n      0x03\n      dup3\n      add\n      0x00\n      swap1\n      sload\n      swap1\n      0x0100\n      exp\n      swap1\n      div\n      0xffffffffffffffffffffffffffffffffffffffff\n      and\n      0xffffffffffffffffffffffffffffffffffffffff\n      and\n      0xffffffffffffffffffffffffffffffffffffffff\n      and\n      dup2\n      mstore\n      0x20\n      add\n      0x04\n      dup3\n      add\n      sload\n      dup2\n      mstore\n      0x20\n      add\n      0x05\n      dup3\n      add\n      0x00\n      swap1\n      sload\n      swap1\n      0x0100\n      exp\n      swap1\n      div\n      0xffffffff\n      and\n      0xffffffff\n      and\n      0xffffffff\n      and\n      dup2\n      mstore\n      pop\n      pop\n      dup2\n      mstore\n      0x20\n      add\n      swap1\n      0x01\n      add\n      swap1\n      jump(tag_101)\n    tag_102:\n      pop\n      pop\n      pop\n      pop\n      swap1\n      pop\n        /* \"contracts/SwapCart.sol\":4226:4382  function getEntireItems() public listSizeCheck returns (Item[] memory) {\r... */\n      swap1\n      jump\t// out\n        /* \"contracts/SwapCart.sol\":606:643  mapping(address => User) public users */\n    tag_33:\n      mstore(0x20, 0x02)\n      dup1\n      0x00\n      mstore\n      keccak256(0x00, 0x40)\n      0x00\n      swap2\n      pop\n      swap1\n      pop\n      dup1\n      0x00\n      add\n      sload\n      swap1\n      dup1\n      0x01\n      add\n      dup1\n      sload\n      tag_109\n      swap1\n      tag_54\n      jump\t// in\n    tag_109:\n      dup1\n      0x1f\n      add\n      0x20\n      dup1\n      swap2\n      div\n      mul\n      0x20\n      add\n      mload(0x40)\n      swap1\n      dup2\n      add\n      0x40\n      mstore\n      dup1\n      swap3\n      swap2\n      swap1\n      dup2\n      dup2\n      mstore\n      0x20\n      add\n      dup3\n      dup1\n      sload\n      tag_110\n      swap1\n      tag_54\n      jump\t// in\n    tag_110:\n      dup1\n      iszero\n      tag_111\n      jumpi\n      dup1\n      0x1f\n      lt\n      tag_112\n      jumpi\n      0x0100\n      dup1\n      dup4\n      sload\n      div\n      mul\n      dup4\n      mstore\n      swap2\n      0x20\n      add\n      swap2\n      jump(tag_111)\n    tag_112:\n      dup3\n      add\n      swap2\n      swap1\n      0x00\n      mstore\n      keccak256(0x00, 0x20)\n      swap1\n    tag_113:\n      dup2\n      sload\n      dup2\n      mstore\n      swap1\n      0x01\n      add\n      swap1\n      0x20\n      add\n      dup1\n      dup4\n      gt\n      tag_113\n      jumpi\n      dup3\n      swap1\n      sub\n      0x1f\n      and\n      dup3\n      add\n      swap2\n    tag_111:\n      pop\n      pop\n      pop\n      pop\n      pop\n      swap1\n      dup1\n      0x02\n      add\n      dup1\n      sload\n      tag_114\n      swap1\n      tag_54\n      jump\t// in\n    tag_114:\n      dup1\n      0x1f\n      add\n      0x20\n      dup1\n      swap2\n      div\n      mul\n      0x20\n      add\n      mload(0x40)\n      swap1\n      dup2\n      add\n      0x40\n      mstore\n      dup1\n      swap3\n      swap2\n      swap1\n      dup2\n      dup2\n      mstore\n      0x20\n      add\n      dup3\n      dup1\n      sload\n      tag_115\n      swap1\n      tag_54\n      jump\t// in\n    tag_115:\n      dup1\n      iszero\n      tag_116\n      jumpi\n      dup1\n      0x1f\n      lt\n      tag_117\n      jumpi\n      0x0100\n      dup1\n      dup4\n      sload\n      div\n      mul\n      dup4\n      mstore\n      swap2\n      0x20\n      add\n      swap2\n      jump(tag_116)\n    tag_117:\n      dup3\n      add\n      swap2\n      swap1\n      0x00\n      mstore\n      keccak256(0x00, 0x20)\n      swap1\n    tag_118:\n      dup2\n      sload\n      dup2\n      mstore\n      swap1\n      0x01\n      add\n      swap1\n      0x20\n      add\n      dup1\n      dup4\n      gt\n      tag_118\n      jumpi\n      dup3\n      swap1\n      sub\n      0x1f\n      and\n      dup3\n      add\n      swap2\n    tag_116:\n      pop\n      pop\n      pop\n      pop\n      pop\n      swap1\n      dup1\n      0x05\n      add\n      sload\n      swap1\n      pop\n      dup5\n      jump\t// out\n        /* \"contracts/SwapCart.sol\":650:687  mapping(uint256 => Item) public items */\n    tag_38:\n      mstore(0x20, 0x03)\n      dup1\n      0x00\n      mstore\n      keccak256(0x00, 0x40)\n      0x00\n      swap2\n      pop\n      swap1\n      pop\n      dup1\n      0x00\n      add\n      sload\n      swap1\n      dup1\n      0x01\n      add\n      dup1\n      sload\n      tag_119\n      swap1\n      tag_54\n      jump\t// in\n    tag_119:\n      dup1\n      0x1f\n      add\n      0x20\n      dup1\n      swap2\n      div\n      mul\n      0x20\n      add\n      mload(0x40)\n      swap1\n      dup2\n      add\n      0x40\n      mstore\n      dup1\n      swap3\n      swap2\n      swap1\n      dup2\n      dup2\n      mstore\n      0x20\n      add\n      dup3\n      dup1\n      sload\n      tag_120\n      swap1\n      tag_54\n      jump\t// in\n    tag_120:\n      dup1\n      iszero\n      tag_121\n      jumpi\n      dup1\n      0x1f\n      lt\n      tag_122\n      jumpi\n      0x0100\n      dup1\n      dup4\n      sload\n      div\n      mul\n      dup4\n      mstore\n      swap2\n      0x20\n      add\n      swap2\n      jump(tag_121)\n    tag_122:\n      dup3\n      add\n      swap2\n      swap1\n      0x00\n      mstore\n      keccak256(0x00, 0x20)\n      swap1\n    tag_123:\n      dup2\n      sload\n      dup2\n      mstore\n      swap1\n      0x01\n      add\n      swap1\n      0x20\n      add\n      dup1\n      dup4\n      gt\n      tag_123\n      jumpi\n      dup3\n      swap1\n      sub\n      0x1f\n      and\n      dup3\n      add\n      swap2\n    tag_121:\n      pop\n      pop\n      pop\n      pop\n      pop\n      swap1\n      dup1\n      0x02\n      add\n      sload\n      swap1\n      dup1\n      0x03\n      add\n      0x00\n      swap1\n      sload\n      swap1\n      0x0100\n      exp\n      swap1\n      div\n      0xffffffffffffffffffffffffffffffffffffffff\n      and\n      swap1\n      dup1\n      0x04\n      add\n      sload\n      swap1\n      dup1\n      0x05\n      add\n      0x00\n      swap1\n      sload\n      swap1\n      0x0100\n      exp\n      swap1\n      div\n      0xffffffff\n      and\n      swap1\n      pop\n      dup7\n      jump\t// out\n        /* \"contracts/SwapCart.sol\":3903:4218  function cancelSaleAdvert(uint itmId) external expireCheck(itmId) {\r... */\n    tag_42:\n        /* \"contracts/SwapCart.sol\":3962:3967  itmId */\n      dup1\n        /* \"contracts/SwapCart.sol\":1459:1475  Item memory item */\n      0x00\n        /* \"contracts/SwapCart.sol\":1478:1483  items */\n      0x03\n        /* \"contracts/SwapCart.sol\":1478:1490  items[itmId] */\n      0x00\n        /* \"contracts/SwapCart.sol\":1484:1489  itmId */\n      dup4\n        /* \"contracts/SwapCart.sol\":1478:1490  items[itmId] */\n      dup2\n      mstore\n      0x20\n      add\n      swap1\n      dup2\n      mstore\n      0x20\n      add\n      0x00\n      keccak256\n        /* \"contracts/SwapCart.sol\":1459:1490  Item memory item = items[itmId] */\n      mload(0x40)\n      dup1\n      0xc0\n      add\n      0x40\n      mstore\n      swap1\n      dup2\n      0x00\n      dup3\n      add\n      sload\n      dup2\n      mstore\n      0x20\n      add\n      0x01\n      dup3\n      add\n      dup1\n      sload\n      tag_125\n      swap1\n      tag_54\n      jump\t// in\n    tag_125:\n      dup1\n      0x1f\n      add\n      0x20\n      dup1\n      swap2\n      div\n      mul\n      0x20\n      add\n      mload(0x40)\n      swap1\n      dup2\n      add\n      0x40\n      mstore\n      dup1\n      swap3\n      swap2\n      swap1\n      dup2\n      dup2\n      mstore\n      0x20\n      add\n      dup3\n      dup1\n      sload\n      tag_126\n      swap1\n      tag_54\n      jump\t// in\n    tag_126:\n      dup1\n      iszero\n      tag_127\n      jumpi\n      dup1\n      0x1f\n      lt\n      tag_128\n      jumpi\n      0x0100\n      dup1\n      dup4\n      sload\n      div\n      mul\n      dup4\n      mstore\n      swap2\n      0x20\n      add\n      swap2\n      jump(tag_127)\n    tag_128:\n      dup3\n      add\n      swap2\n      swap1\n      0x00\n      mstore\n      keccak256(0x00, 0x20)\n      swap1\n    tag_129:\n      dup2\n      sload\n      dup2\n      mstore\n      swap1\n      0x01\n      add\n      swap1\n      0x20\n      add\n      dup1\n      dup4\n      gt\n      tag_129\n      jumpi\n      dup3\n      swap1\n      sub\n      0x1f\n      and\n      dup3\n      add\n      swap2\n    tag_127:\n      pop\n      pop\n      pop\n      pop\n      pop\n      dup2\n      mstore\n      0x20\n      add\n      0x02\n      dup3\n      add\n      sload\n      dup2\n      mstore\n      0x20\n      add\n      0x03\n      dup3\n      add\n      0x00\n      swap1\n      sload\n      swap1\n      0x0100\n      exp\n      swap1\n      div\n      0xffffffffffffffffffffffffffffffffffffffff\n      and\n      0xffffffffffffffffffffffffffffffffffffffff\n      and\n      0xffffffffffffffffffffffffffffffffffffffff\n      and\n      dup2\n      mstore\n      0x20\n      add\n      0x04\n      dup3\n      add\n      sload\n      dup2\n      mstore\n      0x20\n      add\n      0x05\n      dup3\n      add\n      0x00\n      swap1\n      sload\n      swap1\n      0x0100\n      exp\n      swap1\n      div\n      0xffffffff\n      and\n      0xffffffff\n      and\n      0xffffffff\n      and\n      dup2\n      mstore\n      pop\n      pop\n      swap1\n      pop\n        /* \"contracts/SwapCart.sol\":1525:1540  block.timestamp */\n      timestamp\n        /* \"contracts/SwapCart.sol\":1509:1513  item */\n      dup2\n        /* \"contracts/SwapCart.sol\":1509:1521  item.dueDate */\n      0xa0\n      add\n      mload\n        /* \"contracts/SwapCart.sol\":1509:1540  item.dueDate >= block.timestamp */\n      0xffffffff\n      and\n      lt\n      iszero\n        /* \"contracts/SwapCart.sol\":1501:1566  require(item.dueDate >= block.timestamp, \"The sale has expired!\") */\n      tag_130\n      jumpi\n      mload(0x40)\n      0x08c379a000000000000000000000000000000000000000000000000000000000\n      dup2\n      mstore\n      0x04\n      add\n      tag_131\n      swap1\n      tag_132\n      jump\t// in\n    tag_131:\n      mload(0x40)\n      dup1\n      swap2\n      sub\n      swap1\n      revert\n    tag_130:\n        /* \"contracts/SwapCart.sol\":3987:3992  items */\n      0x03\n        /* \"contracts/SwapCart.sol\":3987:3999  items[itmId] */\n      0x00\n        /* \"contracts/SwapCart.sol\":3993:3998  itmId */\n      dup5\n        /* \"contracts/SwapCart.sol\":3987:3999  items[itmId] */\n      dup2\n      mstore\n      0x20\n      add\n      swap1\n      dup2\n      mstore\n      0x20\n      add\n      0x00\n      keccak256\n      0x00\n        /* \"contracts/SwapCart.sol\":3980:3999  delete items[itmId] */\n      dup1\n      dup3\n      add\n      0x00\n      swap1\n      sstore\n      0x01\n      dup3\n      add\n      0x00\n      tag_134\n      swap2\n      swap1\n      tag_135\n      jump\t// in\n    tag_134:\n      0x02\n      dup3\n      add\n      0x00\n      swap1\n      sstore\n      0x03\n      dup3\n      add\n      exp(0x0100, 0x00)\n      dup2\n      sload\n      swap1\n      0xffffffffffffffffffffffffffffffffffffffff\n      mul\n      not\n      and\n      swap1\n      sstore\n      0x04\n      dup3\n      add\n      0x00\n      swap1\n      sstore\n      0x05\n      dup3\n      add\n      exp(0x0100, 0x00)\n      dup2\n      sload\n      swap1\n      0xffffffff\n      mul\n      not\n      and\n      swap1\n      sstore\n      pop\n      pop\n        /* \"contracts/SwapCart.sol\":4109:4119  msg.sender */\n      caller\n        /* \"contracts/SwapCart.sol\":4086:4120  CancelSaleAdvert(itmId,msg.sender) */\n      0xffffffffffffffffffffffffffffffffffffffff\n      and\n      0x45e4102cd0468b42f71c0179aa78051418c31c018e07a5091eb13b97fadbab5e\n        /* \"contracts/SwapCart.sol\":4103:4108  itmId */\n      dup5\n        /* \"contracts/SwapCart.sol\":4086:4120  CancelSaleAdvert(itmId,msg.sender) */\n      mload(0x40)\n      tag_136\n      swap2\n      swap1\n      tag_137\n      jump\t// in\n    tag_136:\n      mload(0x40)\n      dup1\n      swap2\n      sub\n      swap1\n      log2\n        /* \"contracts/SwapCart.sol\":1448:1690  {\r... */\n      pop\n        /* \"contracts/SwapCart.sol\":3903:4218  function cancelSaleAdvert(uint itmId) external expireCheck(itmId) {\r... */\n      pop\n      pop\n      jump\t// out\n        /* \"contracts/SwapCart.sol\":4548:4735  function getItemById(uint itmId) public itemAvailabilityCheck(itmId) returns (Item memory) {\r... */\n    tag_45:\n        /* \"contracts/SwapCart.sol\":4626:4637  Item memory */\n      tag_138\n      tag_139\n      jump\t// in\n    tag_138:\n        /* \"contracts/SwapCart.sol\":4610:4615  itmId */\n      dup2\n        /* \"contracts/SwapCart.sol\":2263:2284  itemCounter.current() */\n      tag_141\n        /* \"contracts/SwapCart.sol\":2263:2274  itemCounter */\n      0x04\n        /* \"contracts/SwapCart.sol\":2263:2282  itemCounter.current */\n      tag_74\n        /* \"contracts/SwapCart.sol\":2263:2284  itemCounter.current() */\n      jump\t// in\n    tag_141:\n        /* \"contracts/SwapCart.sol\":2254:2259  itmId */\n      dup2\n        /* \"contracts/SwapCart.sol\":2254:2284  itmId <= itemCounter.current() */\n      gt\n      iszero\n        /* \"contracts/SwapCart.sol\":2246:2318  require(itmId <= itemCounter.current(), \"There is no such item record!\") */\n      tag_142\n      jumpi\n      mload(0x40)\n      0x08c379a000000000000000000000000000000000000000000000000000000000\n      dup2\n      mstore\n      0x04\n      add\n      tag_143\n      swap1\n      tag_144\n      jump\t// in\n    tag_143:\n      mload(0x40)\n      dup1\n      swap2\n      sub\n      swap1\n      revert\n    tag_142:\n        /* \"contracts/SwapCart.sol\":4686:4696  msg.sender */\n      caller\n        /* \"contracts/SwapCart.sol\":4655:4697  GetItemById(itmId,items[itmId],msg.sender) */\n      0xffffffffffffffffffffffffffffffffffffffff\n      and\n      0xcb718ffb18411374498c1cd31cb4d4c8068af3c5b1546205f14c72bcd20f21ba\n        /* \"contracts/SwapCart.sol\":4667:4672  itmId */\n      dup5\n        /* \"contracts/SwapCart.sol\":4673:4678  items */\n      0x03\n        /* \"contracts/SwapCart.sol\":4673:4685  items[itmId] */\n      0x00\n        /* \"contracts/SwapCart.sol\":4679:4684  itmId */\n      dup8\n        /* \"contracts/SwapCart.sol\":4673:4685  items[itmId] */\n      dup2\n      mstore\n      0x20\n      add\n      swap1\n      dup2\n      mstore\n      0x20\n      add\n      0x00\n      keccak256\n        /* \"contracts/SwapCart.sol\":4655:4697  GetItemById(itmId,items[itmId],msg.sender) */\n      mload(0x40)\n      tag_146\n      swap3\n      swap2\n      swap1\n      tag_147\n      jump\t// in\n    tag_146:\n      mload(0x40)\n      dup1\n      swap2\n      sub\n      swap1\n      log2\n        /* \"contracts/SwapCart.sol\":4715:4720  items */\n      0x03\n        /* \"contracts/SwapCart.sol\":4715:4727  items[itmId] */\n      0x00\n        /* \"contracts/SwapCart.sol\":4721:4726  itmId */\n      dup5\n        /* \"contracts/SwapCart.sol\":4715:4727  items[itmId] */\n      dup2\n      mstore\n      0x20\n      add\n      swap1\n      dup2\n      mstore\n      0x20\n      add\n      0x00\n      keccak256\n        /* \"contracts/SwapCart.sol\":4708:4727  return items[itmId] */\n      mload(0x40)\n      dup1\n      0xc0\n      add\n      0x40\n      mstore\n      swap1\n      dup2\n      0x00\n      dup3\n      add\n      sload\n      dup2\n      mstore\n      0x20\n      add\n      0x01\n      dup3\n      add\n      dup1\n      sload\n      tag_148\n      swap1\n      tag_54\n      jump\t// in\n    tag_148:\n      dup1\n      0x1f\n      add\n      0x20\n      dup1\n      swap2\n      div\n      mul\n      0x20\n      add\n      mload(0x40)\n      swap1\n      dup2\n      add\n      0x40\n      mstore\n      dup1\n      swap3\n      swap2\n      swap1\n      dup2\n      dup2\n      mstore\n      0x20\n      add\n      dup3\n      dup1\n      sload\n      tag_149\n      swap1\n      tag_54\n      jump\t// in\n    tag_149:\n      dup1\n      iszero\n      tag_150\n      jumpi\n      dup1\n      0x1f\n      lt\n      tag_151\n      jumpi\n      0x0100\n      dup1\n      dup4\n      sload\n      div\n      mul\n      dup4\n      mstore\n      swap2\n      0x20\n      add\n      swap2\n      jump(tag_150)\n    tag_151:\n      dup3\n      add\n      swap2\n      swap1\n      0x00\n      mstore\n      keccak256(0x00, 0x20)\n      swap1\n    tag_152:\n      dup2\n      sload\n      dup2\n      mstore\n      swap1\n      0x01\n      add\n      swap1\n      0x20\n      add\n      dup1\n      dup4\n      gt\n      tag_152\n      jumpi\n      dup3\n      swap1\n      sub\n      0x1f\n      and\n      dup3\n      add\n      swap2\n    tag_150:\n      pop\n      pop\n      pop\n      pop\n      pop\n      dup2\n      mstore\n      0x20\n      add\n      0x02\n      dup3\n      add\n      sload\n      dup2\n      mstore\n      0x20\n      add\n      0x03\n      dup3\n      add\n      0x00\n      swap1\n      sload\n      swap1\n      0x0100\n      exp\n      swap1\n      div\n      0xffffffffffffffffffffffffffffffffffffffff\n      and\n      0xffffffffffffffffffffffffffffffffffffffff\n      and\n      0xffffffffffffffffffffffffffffffffffffffff\n      and\n      dup2\n      mstore\n      0x20\n      add\n      0x04\n      dup3\n      add\n      sload\n      dup2\n      mstore\n      0x20\n      add\n      0x05\n      dup3\n      add\n      0x00\n      swap1\n      sload\n      swap1\n      0x0100\n      exp\n      swap1\n      div\n      0xffffffff\n      and\n      0xffffffff\n      and\n      0xffffffff\n      and\n      dup2\n      mstore\n      pop\n      pop\n      swap2\n      pop\n        /* \"contracts/SwapCart.sol\":4548:4735  function getItemById(uint itmId) public itemAvailabilityCheck(itmId) returns (Item memory) {\r... */\n      pop\n      swap2\n      swap1\n      pop\n      jump\t// out\n        /* \"contracts/SwapCart.sol\":549:568  IERC20 public token */\n    tag_49:\n      0x00\n      dup1\n      sload\n      swap1\n      0x0100\n      exp\n      swap1\n      div\n      0xffffffffffffffffffffffffffffffffffffffff\n      and\n      dup2\n      jump\t// out\n        /* \"@openzeppelin/contracts/utils/Counters.sol\":827:939  function current(Counter storage counter) internal view returns (uint256) {... */\n    tag_74:\n        /* \"@openzeppelin/contracts/utils/Counters.sol\":892:899  uint256 */\n      0x00\n        /* \"@openzeppelin/contracts/utils/Counters.sol\":918:925  counter */\n      dup2\n        /* \"@openzeppelin/contracts/utils/Counters.sol\":918:932  counter._value */\n      0x00\n      add\n      sload\n        /* \"@openzeppelin/contracts/utils/Counters.sol\":911:932  return counter._value */\n      swap1\n      pop\n        /* \"@openzeppelin/contracts/utils/Counters.sol\":827:939  function current(Counter storage counter) internal view returns (uint256) {... */\n      swap2\n      swap1\n      pop\n      jump\t// out\n        /* \"@openzeppelin/contracts/utils/Counters.sol\":945:1068  function increment(Counter storage counter) internal {... */\n    tag_88:\n        /* \"@openzeppelin/contracts/utils/Counters.sol\":1050:1051  1 */\n      0x01\n        /* \"@openzeppelin/contracts/utils/Counters.sol\":1032:1039  counter */\n      dup2\n        /* \"@openzeppelin/contracts/utils/Counters.sol\":1032:1046  counter._value */\n      0x00\n      add\n      0x00\n        /* \"@openzeppelin/contracts/utils/Counters.sol\":1032:1051  counter._value += 1 */\n      dup3\n      dup3\n      sload\n      add\n      swap3\n      pop\n      pop\n      dup2\n      swap1\n      sstore\n      pop\n        /* \"@openzeppelin/contracts/utils/Counters.sol\":945:1068  function increment(Counter storage counter) internal {... */\n      pop\n      jump\t// out\n    tag_77:\n      dup3\n      dup1\n      sload\n      tag_155\n      swap1\n      tag_54\n      jump\t// in\n    tag_155:\n      swap1\n      0x00\n      mstore\n      keccak256(0x00, 0x20)\n      swap1\n      0x1f\n      add\n      0x20\n      swap1\n      div\n      dup2\n      add\n      swap3\n      dup3\n      tag_157\n      jumpi\n      0x00\n      dup6\n      sstore\n      jump(tag_156)\n    tag_157:\n      dup3\n      0x1f\n      lt\n      tag_158\n      jumpi\n      dup1\n      mload\n      not(0xff)\n      and\n      dup4\n      dup1\n      add\n      or\n      dup6\n      sstore\n      jump(tag_156)\n    tag_158:\n      dup3\n      dup1\n      add\n      0x01\n      add\n      dup6\n      sstore\n      dup3\n      iszero\n      tag_156\n      jumpi\n      swap2\n      dup3\n      add\n    tag_159:\n      dup3\n      dup2\n      gt\n      iszero\n      tag_160\n      jumpi\n      dup3\n      mload\n      dup3\n      sstore\n      swap2\n      0x20\n      add\n      swap2\n      swap1\n      0x01\n      add\n      swap1\n      jump(tag_159)\n    tag_160:\n    tag_156:\n      pop\n      swap1\n      pop\n      tag_161\n      swap2\n      swap1\n      tag_162\n      jump\t// in\n    tag_161:\n      pop\n      swap1\n      jump\t// out\n    tag_82:\n      dup3\n      dup1\n      sload\n      tag_163\n      swap1\n      tag_54\n      jump\t// in\n    tag_163:\n      swap1\n      0x00\n      mstore\n      keccak256(0x00, 0x20)\n      swap1\n      0x1f\n      add\n      0x20\n      swap1\n      div\n      dup2\n      add\n      swap3\n      dup3\n      tag_165\n      jumpi\n      0x00\n      dup6\n      sstore\n      jump(tag_164)\n    tag_165:\n      dup3\n      0x1f\n      lt\n      tag_166\n      jumpi\n      dup1\n      sload\n      dup6\n      sstore\n      jump(tag_164)\n    tag_166:\n      dup3\n      dup1\n      add\n      0x01\n      add\n      dup6\n      sstore\n      dup3\n      iszero\n      tag_164\n      jumpi\n      0x00\n      mstore\n      keccak256(0x00, 0x20)\n      swap2\n      0x1f\n      add\n      0x20\n      swap1\n      div\n      dup3\n      add\n    tag_167:\n      dup3\n      dup2\n      gt\n      iszero\n      tag_168\n      jumpi\n      dup3\n      sload\n      dup3\n      sstore\n      swap2\n      0x01\n      add\n      swap2\n      swap1\n      0x01\n      add\n      swap1\n      jump(tag_167)\n    tag_168:\n    tag_164:\n      pop\n      swap1\n      pop\n      tag_169\n      swap2\n      swap1\n      tag_162\n      jump\t// in\n    tag_169:\n      pop\n      swap1\n      jump\t// out\n    tag_135:\n      pop\n      dup1\n      sload\n      tag_170\n      swap1\n      tag_54\n      jump\t// in\n    tag_170:\n      0x00\n      dup3\n      sstore\n      dup1\n      0x1f\n      lt\n      tag_172\n      jumpi\n      pop\n      jump(tag_171)\n    tag_172:\n      0x1f\n      add\n      0x20\n      swap1\n      div\n      swap1\n      0x00\n      mstore\n      keccak256(0x00, 0x20)\n      swap1\n      dup2\n      add\n      swap1\n      tag_173\n      swap2\n      swap1\n      tag_162\n      jump\t// in\n    tag_173:\n    tag_171:\n      pop\n      jump\t// out\n    tag_139:\n      mload(0x40)\n      dup1\n      0xc0\n      add\n      0x40\n      mstore\n      dup1\n      0x00\n      dup2\n      mstore\n      0x20\n      add\n      0x60\n      dup2\n      mstore\n      0x20\n      add\n      0x00\n      dup2\n      mstore\n      0x20\n      add\n      and(0xffffffffffffffffffffffffffffffffffffffff, 0x00)\n      dup2\n      mstore\n      0x20\n      add\n      0x00\n      dup2\n      mstore\n      0x20\n      add\n      and(0xffffffff, 0x00)\n      dup2\n      mstore\n      pop\n      swap1\n      jump\t// out\n    tag_162:\n    tag_174:\n      dup1\n      dup3\n      gt\n      iszero\n      tag_175\n      jumpi\n      0x00\n      dup2\n      0x00\n      swap1\n      sstore\n      pop\n      0x01\n      add\n      jump(tag_174)\n    tag_175:\n      pop\n      swap1\n      jump\t// out\n        /* \"#utility.yul\":7:419   */\n    tag_177:\n        /* \"#utility.yul\":85:90   */\n      0x00\n        /* \"#utility.yul\":110:176   */\n      tag_179\n        /* \"#utility.yul\":126:175   */\n      tag_180\n        /* \"#utility.yul\":168:174   */\n      dup5\n        /* \"#utility.yul\":126:175   */\n      tag_181\n      jump\t// in\n    tag_180:\n        /* \"#utility.yul\":110:176   */\n      tag_182\n      jump\t// in\n    tag_179:\n        /* \"#utility.yul\":101:176   */\n      swap1\n      pop\n        /* \"#utility.yul\":199:205   */\n      dup3\n        /* \"#utility.yul\":192:197   */\n      dup2\n        /* \"#utility.yul\":185:206   */\n      mstore\n        /* \"#utility.yul\":237:241   */\n      0x20\n        /* \"#utility.yul\":230:235   */\n      dup2\n        /* \"#utility.yul\":226:242   */\n      add\n        /* \"#utility.yul\":275:278   */\n      dup5\n        /* \"#utility.yul\":266:272   */\n      dup5\n        /* \"#utility.yul\":261:264   */\n      dup5\n        /* \"#utility.yul\":257:273   */\n      add\n        /* \"#utility.yul\":254:279   */\n      gt\n        /* \"#utility.yul\":251:363   */\n      iszero\n      tag_183\n      jumpi\n        /* \"#utility.yul\":282:361   */\n      tag_184\n      tag_185\n      jump\t// in\n    tag_184:\n        /* \"#utility.yul\":251:363   */\n    tag_183:\n        /* \"#utility.yul\":372:413   */\n      tag_186\n        /* \"#utility.yul\":406:412   */\n      dup5\n        /* \"#utility.yul\":401:404   */\n      dup3\n        /* \"#utility.yul\":396:399   */\n      dup6\n        /* \"#utility.yul\":372:413   */\n      tag_187\n      jump\t// in\n    tag_186:\n        /* \"#utility.yul\":91:419   */\n      pop\n        /* \"#utility.yul\":7:419   */\n      swap4\n      swap3\n      pop\n      pop\n      pop\n      jump\t// out\n        /* \"#utility.yul\":425:564   */\n    tag_188:\n        /* \"#utility.yul\":471:476   */\n      0x00\n        /* \"#utility.yul\":509:515   */\n      dup2\n        /* \"#utility.yul\":496:516   */\n      calldataload\n        /* \"#utility.yul\":487:516   */\n      swap1\n      pop\n        /* \"#utility.yul\":525:558   */\n      tag_190\n        /* \"#utility.yul\":552:557   */\n      dup2\n        /* \"#utility.yul\":525:558   */\n      tag_191\n      jump\t// in\n    tag_190:\n        /* \"#utility.yul\":425:564   */\n      swap3\n      swap2\n      pop\n      pop\n      jump\t// out\n        /* \"#utility.yul\":584:924   */\n    tag_192:\n        /* \"#utility.yul\":640:645   */\n      0x00\n        /* \"#utility.yul\":689:692   */\n      dup3\n        /* \"#utility.yul\":682:686   */\n      0x1f\n        /* \"#utility.yul\":674:680   */\n      dup4\n        /* \"#utility.yul\":670:687   */\n      add\n        /* \"#utility.yul\":666:693   */\n      slt\n        /* \"#utility.yul\":656:778   */\n      tag_194\n      jumpi\n        /* \"#utility.yul\":697:776   */\n      tag_195\n      tag_196\n      jump\t// in\n    tag_195:\n        /* \"#utility.yul\":656:778   */\n    tag_194:\n        /* \"#utility.yul\":814:820   */\n      dup2\n        /* \"#utility.yul\":801:821   */\n      calldataload\n        /* \"#utility.yul\":839:918   */\n      tag_197\n        /* \"#utility.yul\":914:917   */\n      dup5\n        /* \"#utility.yul\":906:912   */\n      dup3\n        /* \"#utility.yul\":899:903   */\n      0x20\n        /* \"#utility.yul\":891:897   */\n      dup7\n        /* \"#utility.yul\":887:904   */\n      add\n        /* \"#utility.yul\":839:918   */\n      tag_177\n      jump\t// in\n    tag_197:\n        /* \"#utility.yul\":830:918   */\n      swap2\n      pop\n        /* \"#utility.yul\":646:924   */\n      pop\n        /* \"#utility.yul\":584:924   */\n      swap3\n      swap2\n      pop\n      pop\n      jump\t// out\n        /* \"#utility.yul\":930:1069   */\n    tag_198:\n        /* \"#utility.yul\":976:981   */\n      0x00\n        /* \"#utility.yul\":1014:1020   */\n      dup2\n        /* \"#utility.yul\":1001:1021   */\n      calldataload\n        /* \"#utility.yul\":992:1021   */\n      swap1\n      pop\n        /* \"#utility.yul\":1030:1063   */\n      tag_200\n        /* \"#utility.yul\":1057:1062   */\n      dup2\n        /* \"#utility.yul\":1030:1063   */\n      tag_201\n      jump\t// in\n    tag_200:\n        /* \"#utility.yul\":930:1069   */\n      swap3\n      swap2\n      pop\n      pop\n      jump\t// out\n        /* \"#utility.yul\":1075:1212   */\n    tag_202:\n        /* \"#utility.yul\":1120:1125   */\n      0x00\n        /* \"#utility.yul\":1158:1164   */\n      dup2\n        /* \"#utility.yul\":1145:1165   */\n      calldataload\n        /* \"#utility.yul\":1136:1165   */\n      swap1\n      pop\n        /* \"#utility.yul\":1174:1206   */\n      tag_204\n        /* \"#utility.yul\":1200:1205   */\n      dup2\n        /* \"#utility.yul\":1174:1206   */\n      tag_205\n      jump\t// in\n    tag_204:\n        /* \"#utility.yul\":1075:1212   */\n      swap3\n      swap2\n      pop\n      pop\n      jump\t// out\n        /* \"#utility.yul\":1218:1547   */\n    tag_32:\n        /* \"#utility.yul\":1277:1283   */\n      0x00\n        /* \"#utility.yul\":1326:1328   */\n      0x20\n        /* \"#utility.yul\":1314:1323   */\n      dup3\n        /* \"#utility.yul\":1305:1312   */\n      dup5\n        /* \"#utility.yul\":1301:1324   */\n      sub\n        /* \"#utility.yul\":1297:1329   */\n      slt\n        /* \"#utility.yul\":1294:1413   */\n      iszero\n      tag_207\n      jumpi\n        /* \"#utility.yul\":1332:1411   */\n      tag_208\n      tag_209\n      jump\t// in\n    tag_208:\n        /* \"#utility.yul\":1294:1413   */\n    tag_207:\n        /* \"#utility.yul\":1452:1453   */\n      0x00\n        /* \"#utility.yul\":1477:1530   */\n      tag_210\n        /* \"#utility.yul\":1522:1529   */\n      dup5\n        /* \"#utility.yul\":1513:1519   */\n      dup3\n        /* \"#utility.yul\":1502:1511   */\n      dup6\n        /* \"#utility.yul\":1498:1520   */\n      add\n        /* \"#utility.yul\":1477:1530   */\n      tag_188\n      jump\t// in\n    tag_210:\n        /* \"#utility.yul\":1467:1530   */\n      swap2\n      pop\n        /* \"#utility.yul\":1423:1540   */\n      pop\n        /* \"#utility.yul\":1218:1547   */\n      swap3\n      swap2\n      pop\n      pop\n      jump\t// out\n        /* \"#utility.yul\":1553:1882   */\n    tag_15:\n        /* \"#utility.yul\":1612:1618   */\n      0x00\n        /* \"#utility.yul\":1661:1663   */\n      0x20\n        /* \"#utility.yul\":1649:1658   */\n      dup3\n        /* \"#utility.yul\":1640:1647   */\n      dup5\n        /* \"#utility.yul\":1636:1659   */\n      sub\n        /* \"#utility.yul\":1632:1664   */\n      slt\n        /* \"#utility.yul\":1629:1748   */\n      iszero\n      tag_212\n      jumpi\n        /* \"#utility.yul\":1667:1746   */\n      tag_213\n      tag_209\n      jump\t// in\n    tag_213:\n        /* \"#utility.yul\":1629:1748   */\n    tag_212:\n        /* \"#utility.yul\":1787:1788   */\n      0x00\n        /* \"#utility.yul\":1812:1865   */\n      tag_214\n        /* \"#utility.yul\":1857:1864   */\n      dup5\n        /* \"#utility.yul\":1848:1854   */\n      dup3\n        /* \"#utility.yul\":1837:1846   */\n      dup6\n        /* \"#utility.yul\":1833:1855   */\n      add\n        /* \"#utility.yul\":1812:1865   */\n      tag_198\n      jump\t// in\n    tag_214:\n        /* \"#utility.yul\":1802:1865   */\n      swap2\n      pop\n        /* \"#utility.yul\":1758:1875   */\n      pop\n        /* \"#utility.yul\":1553:1882   */\n      swap3\n      swap2\n      pop\n      pop\n      jump\t// out\n        /* \"#utility.yul\":1888:2685   */\n    tag_24:\n        /* \"#utility.yul\":1974:1980   */\n      0x00\n        /* \"#utility.yul\":1982:1988   */\n      dup1\n        /* \"#utility.yul\":1990:1996   */\n      0x00\n        /* \"#utility.yul\":2039:2041   */\n      0x60\n        /* \"#utility.yul\":2027:2036   */\n      dup5\n        /* \"#utility.yul\":2018:2025   */\n      dup7\n        /* \"#utility.yul\":2014:2037   */\n      sub\n        /* \"#utility.yul\":2010:2042   */\n      slt\n        /* \"#utility.yul\":2007:2126   */\n      iszero\n      tag_216\n      jumpi\n        /* \"#utility.yul\":2045:2124   */\n      tag_217\n      tag_209\n      jump\t// in\n    tag_217:\n        /* \"#utility.yul\":2007:2126   */\n    tag_216:\n        /* \"#utility.yul\":2165:2166   */\n      0x00\n        /* \"#utility.yul\":2190:2243   */\n      tag_218\n        /* \"#utility.yul\":2235:2242   */\n      dup7\n        /* \"#utility.yul\":2226:2232   */\n      dup3\n        /* \"#utility.yul\":2215:2224   */\n      dup8\n        /* \"#utility.yul\":2211:2233   */\n      add\n        /* \"#utility.yul\":2190:2243   */\n      tag_198\n      jump\t// in\n    tag_218:\n        /* \"#utility.yul\":2180:2243   */\n      swap4\n      pop\n        /* \"#utility.yul\":2136:2253   */\n      pop\n        /* \"#utility.yul\":2320:2322   */\n      0x20\n        /* \"#utility.yul\":2309:2318   */\n      dup5\n        /* \"#utility.yul\":2305:2323   */\n      add\n        /* \"#utility.yul\":2292:2324   */\n      calldataload\n        /* \"#utility.yul\":2351:2369   */\n      0xffffffffffffffff\n        /* \"#utility.yul\":2343:2349   */\n      dup2\n        /* \"#utility.yul\":2340:2370   */\n      gt\n        /* \"#utility.yul\":2337:2454   */\n      iszero\n      tag_219\n      jumpi\n        /* \"#utility.yul\":2373:2452   */\n      tag_220\n      tag_221\n      jump\t// in\n    tag_220:\n        /* \"#utility.yul\":2337:2454   */\n    tag_219:\n        /* \"#utility.yul\":2478:2541   */\n      tag_222\n        /* \"#utility.yul\":2533:2540   */\n      dup7\n        /* \"#utility.yul\":2524:2530   */\n      dup3\n        /* \"#utility.yul\":2513:2522   */\n      dup8\n        /* \"#utility.yul\":2509:2531   */\n      add\n        /* \"#utility.yul\":2478:2541   */\n      tag_192\n      jump\t// in\n    tag_222:\n        /* \"#utility.yul\":2468:2541   */\n      swap3\n      pop\n        /* \"#utility.yul\":2263:2551   */\n      pop\n        /* \"#utility.yul\":2590:2592   */\n      0x40\n        /* \"#utility.yul\":2616:2668   */\n      tag_223\n        /* \"#utility.yul\":2660:2667   */\n      dup7\n        /* \"#utility.yul\":2651:2657   */\n      dup3\n        /* \"#utility.yul\":2640:2649   */\n      dup8\n        /* \"#utility.yul\":2636:2658   */\n      add\n        /* \"#utility.yul\":2616:2668   */\n      tag_202\n      jump\t// in\n    tag_223:\n        /* \"#utility.yul\":2606:2668   */\n      swap2\n      pop\n        /* \"#utility.yul\":2561:2678   */\n      pop\n        /* \"#utility.yul\":1888:2685   */\n      swap3\n      pop\n      swap3\n      pop\n      swap3\n      jump\t// out\n        /* \"#utility.yul\":2691:2931   */\n    tag_224:\n        /* \"#utility.yul\":2802:2812   */\n      0x00\n        /* \"#utility.yul\":2837:2925   */\n      tag_226\n        /* \"#utility.yul\":2921:2924   */\n      dup4\n        /* \"#utility.yul\":2913:2919   */\n      dup4\n        /* \"#utility.yul\":2837:2925   */\n      tag_227\n      jump\t// in\n    tag_226:\n        /* \"#utility.yul\":2823:2925   */\n      swap1\n      pop\n        /* \"#utility.yul\":2691:2931   */\n      swap3\n      swap2\n      pop\n      pop\n      jump\t// out\n        /* \"#utility.yul\":2937:3171   */\n    tag_228:\n        /* \"#utility.yul\":3045:3055   */\n      0x00\n        /* \"#utility.yul\":3080:3165   */\n      tag_230\n        /* \"#utility.yul\":3161:3164   */\n      dup4\n        /* \"#utility.yul\":3153:3159   */\n      dup4\n        /* \"#utility.yul\":3080:3165   */\n      tag_231\n      jump\t// in\n    tag_230:\n        /* \"#utility.yul\":3066:3165   */\n      swap1\n      pop\n        /* \"#utility.yul\":2937:3171   */\n      swap3\n      swap2\n      pop\n      pop\n      jump\t// out\n        /* \"#utility.yul\":3177:3285   */\n    tag_232:\n        /* \"#utility.yul\":3254:3278   */\n      tag_234\n        /* \"#utility.yul\":3272:3277   */\n      dup2\n        /* \"#utility.yul\":3254:3278   */\n      tag_235\n      jump\t// in\n    tag_234:\n        /* \"#utility.yul\":3249:3252   */\n      dup3\n        /* \"#utility.yul\":3242:3279   */\n      mstore\n        /* \"#utility.yul\":3177:3285   */\n      pop\n      pop\n      jump\t// out\n        /* \"#utility.yul\":3291:3409   */\n    tag_236:\n        /* \"#utility.yul\":3378:3402   */\n      tag_238\n        /* \"#utility.yul\":3396:3401   */\n      dup2\n        /* \"#utility.yul\":3378:3402   */\n      tag_235\n      jump\t// in\n    tag_238:\n        /* \"#utility.yul\":3373:3376   */\n      dup3\n        /* \"#utility.yul\":3366:3403   */\n      mstore\n        /* \"#utility.yul\":3291:3409   */\n      pop\n      pop\n      jump\t// out\n        /* \"#utility.yul\":3471:4550   */\n    tag_239:\n        /* \"#utility.yul\":3632:3635   */\n      0x00\n        /* \"#utility.yul\":3661:3736   */\n      tag_241\n        /* \"#utility.yul\":3730:3735   */\n      dup3\n        /* \"#utility.yul\":3661:3736   */\n      tag_242\n      jump\t// in\n    tag_241:\n        /* \"#utility.yul\":3752:3859   */\n      tag_243\n        /* \"#utility.yul\":3852:3858   */\n      dup2\n        /* \"#utility.yul\":3847:3850   */\n      dup6\n        /* \"#utility.yul\":3752:3859   */\n      tag_244\n      jump\t// in\n    tag_243:\n        /* \"#utility.yul\":3745:3859   */\n      swap4\n      pop\n        /* \"#utility.yul\":3885:3888   */\n      dup4\n        /* \"#utility.yul\":3930:3934   */\n      0x20\n        /* \"#utility.yul\":3922:3928   */\n      dup3\n        /* \"#utility.yul\":3918:3935   */\n      mul\n        /* \"#utility.yul\":3913:3916   */\n      dup6\n        /* \"#utility.yul\":3909:3936   */\n      add\n        /* \"#utility.yul\":3960:4037   */\n      tag_245\n        /* \"#utility.yul\":4031:4036   */\n      dup6\n        /* \"#utility.yul\":3960:4037   */\n      tag_246\n      jump\t// in\n    tag_245:\n        /* \"#utility.yul\":4060:4067   */\n      dup1\n        /* \"#utility.yul\":4091:4092   */\n      0x00\n        /* \"#utility.yul\":4076:4505   */\n    tag_247:\n        /* \"#utility.yul\":4101:4107   */\n      dup6\n        /* \"#utility.yul\":4098:4099   */\n      dup2\n        /* \"#utility.yul\":4095:4108   */\n      lt\n        /* \"#utility.yul\":4076:4505   */\n      iszero\n      tag_249\n      jumpi\n        /* \"#utility.yul\":4172:4181   */\n      dup5\n        /* \"#utility.yul\":4166:4170   */\n      dup5\n        /* \"#utility.yul\":4162:4182   */\n      sub\n        /* \"#utility.yul\":4157:4160   */\n      dup10\n        /* \"#utility.yul\":4150:4183   */\n      mstore\n        /* \"#utility.yul\":4223:4229   */\n      dup2\n        /* \"#utility.yul\":4217:4230   */\n      mload\n        /* \"#utility.yul\":4251:4357   */\n      tag_250\n        /* \"#utility.yul\":4352:4356   */\n      dup6\n        /* \"#utility.yul\":4337:4350   */\n      dup3\n        /* \"#utility.yul\":4251:4357   */\n      tag_224\n      jump\t// in\n    tag_250:\n        /* \"#utility.yul\":4243:4357   */\n      swap5\n      pop\n        /* \"#utility.yul\":4380:4461   */\n      tag_251\n        /* \"#utility.yul\":4454:4460   */\n      dup4\n        /* \"#utility.yul\":4380:4461   */\n      tag_252\n      jump\t// in\n    tag_251:\n        /* \"#utility.yul\":4370:4461   */\n      swap3\n      pop\n        /* \"#utility.yul\":4490:4494   */\n      0x20\n        /* \"#utility.yul\":4485:4488   */\n      dup11\n        /* \"#utility.yul\":4481:4495   */\n      add\n        /* \"#utility.yul\":4474:4495   */\n      swap10\n      pop\n        /* \"#utility.yul\":4136:4505   */\n      pop\n        /* \"#utility.yul\":4123:4124   */\n      0x01\n        /* \"#utility.yul\":4120:4121   */\n      dup2\n        /* \"#utility.yul\":4116:4125   */\n      add\n        /* \"#utility.yul\":4111:4125   */\n      swap1\n      pop\n        /* \"#utility.yul\":4076:4505   */\n      jump(tag_247)\n    tag_249:\n        /* \"#utility.yul\":4080:4094   */\n      pop\n        /* \"#utility.yul\":4521:4525   */\n      dup3\n        /* \"#utility.yul\":4514:4525   */\n      swap8\n      pop\n        /* \"#utility.yul\":4541:4544   */\n      dup8\n        /* \"#utility.yul\":4534:4544   */\n      swap6\n      pop\n        /* \"#utility.yul\":3637:4550   */\n      pop\n      pop\n      pop\n      pop\n      pop\n        /* \"#utility.yul\":3471:4550   */\n      swap3\n      swap2\n      pop\n      pop\n      jump\t// out\n        /* \"#utility.yul\":4612:5657   */\n    tag_253:\n        /* \"#utility.yul\":4767:4770   */\n      0x00\n        /* \"#utility.yul\":4796:4865   */\n      tag_255\n        /* \"#utility.yul\":4859:4864   */\n      dup3\n        /* \"#utility.yul\":4796:4865   */\n      tag_256\n      jump\t// in\n    tag_255:\n        /* \"#utility.yul\":4881:4988   */\n      tag_257\n        /* \"#utility.yul\":4981:4987   */\n      dup2\n        /* \"#utility.yul\":4976:4979   */\n      dup6\n        /* \"#utility.yul\":4881:4988   */\n      tag_244\n      jump\t// in\n    tag_257:\n        /* \"#utility.yul\":4874:4988   */\n      swap4\n      pop\n        /* \"#utility.yul\":5014:5017   */\n      dup4\n        /* \"#utility.yul\":5059:5063   */\n      0x20\n        /* \"#utility.yul\":5051:5057   */\n      dup3\n        /* \"#utility.yul\":5047:5064   */\n      mul\n        /* \"#utility.yul\":5042:5045   */\n      dup6\n        /* \"#utility.yul\":5038:5065   */\n      add\n        /* \"#utility.yul\":5089:5160   */\n      tag_258\n        /* \"#utility.yul\":5154:5159   */\n      dup6\n        /* \"#utility.yul\":5089:5160   */\n      tag_259\n      jump\t// in\n    tag_258:\n        /* \"#utility.yul\":5183:5190   */\n      dup1\n        /* \"#utility.yul\":5214:5215   */\n      0x00\n        /* \"#utility.yul\":5199:5612   */\n    tag_260:\n        /* \"#utility.yul\":5224:5230   */\n      dup6\n        /* \"#utility.yul\":5221:5222   */\n      dup2\n        /* \"#utility.yul\":5218:5231   */\n      lt\n        /* \"#utility.yul\":5199:5612   */\n      iszero\n      tag_262\n      jumpi\n        /* \"#utility.yul\":5295:5304   */\n      dup5\n        /* \"#utility.yul\":5289:5293   */\n      dup5\n        /* \"#utility.yul\":5285:5305   */\n      sub\n        /* \"#utility.yul\":5280:5283   */\n      dup10\n        /* \"#utility.yul\":5273:5306   */\n      mstore\n        /* \"#utility.yul\":5340:5346   */\n      dup2\n        /* \"#utility.yul\":5367:5470   */\n      tag_263\n        /* \"#utility.yul\":5465:5469   */\n      dup6\n        /* \"#utility.yul\":5450:5463   */\n      dup3\n        /* \"#utility.yul\":5367:5470   */\n      tag_228\n      jump\t// in\n    tag_263:\n        /* \"#utility.yul\":5359:5470   */\n      swap5\n      pop\n        /* \"#utility.yul\":5493:5568   */\n      tag_264\n        /* \"#utility.yul\":5561:5567   */\n      dup4\n        /* \"#utility.yul\":5493:5568   */\n      tag_265\n      jump\t// in\n    tag_264:\n        /* \"#utility.yul\":5483:5568   */\n      swap3\n      pop\n        /* \"#utility.yul\":5597:5601   */\n      0x20\n        /* \"#utility.yul\":5592:5595   */\n      dup11\n        /* \"#utility.yul\":5588:5602   */\n      add\n        /* \"#utility.yul\":5581:5602   */\n      swap10\n      pop\n        /* \"#utility.yul\":5259:5612   */\n      pop\n        /* \"#utility.yul\":5246:5247   */\n      0x01\n        /* \"#utility.yul\":5243:5244   */\n      dup2\n        /* \"#utility.yul\":5239:5248   */\n      add\n        /* \"#utility.yul\":5234:5248   */\n      swap1\n      pop\n        /* \"#utility.yul\":5199:5612   */\n      jump(tag_260)\n    tag_262:\n        /* \"#utility.yul\":5203:5217   */\n      pop\n        /* \"#utility.yul\":5628:5632   */\n      dup3\n        /* \"#utility.yul\":5621:5632   */\n      swap8\n      pop\n        /* \"#utility.yul\":5648:5651   */\n      dup8\n        /* \"#utility.yul\":5641:5651   */\n      swap6\n      pop\n        /* \"#utility.yul\":4772:5657   */\n      pop\n      pop\n      pop\n      pop\n      pop\n        /* \"#utility.yul\":4612:5657   */\n      swap3\n      swap2\n      pop\n      pop\n      jump\t// out\n        /* \"#utility.yul\":5663:5822   */\n    tag_266:\n        /* \"#utility.yul\":5764:5815   */\n      tag_268\n        /* \"#utility.yul\":5809:5814   */\n      dup2\n        /* \"#utility.yul\":5764:5815   */\n      tag_269\n      jump\t// in\n    tag_268:\n        /* \"#utility.yul\":5759:5762   */\n      dup3\n        /* \"#utility.yul\":5752:5816   */\n      mstore\n        /* \"#utility.yul\":5663:5822   */\n      pop\n      pop\n      jump\t// out\n        /* \"#utility.yul\":5828:6172   */\n    tag_270:\n        /* \"#utility.yul\":5906:5909   */\n      0x00\n        /* \"#utility.yul\":5934:5973   */\n      tag_272\n        /* \"#utility.yul\":5967:5972   */\n      dup3\n        /* \"#utility.yul\":5934:5973   */\n      tag_273\n      jump\t// in\n    tag_272:\n        /* \"#utility.yul\":5989:6050   */\n      tag_274\n        /* \"#utility.yul\":6043:6049   */\n      dup2\n        /* \"#utility.yul\":6038:6041   */\n      dup6\n        /* \"#utility.yul\":5989:6050   */\n      tag_275\n      jump\t// in\n    tag_274:\n        /* \"#utility.yul\":5982:6050   */\n      swap4\n      pop\n        /* \"#utility.yul\":6059:6111   */\n      tag_276\n        /* \"#utility.yul\":6104:6110   */\n      dup2\n        /* \"#utility.yul\":6099:6102   */\n      dup6\n        /* \"#utility.yul\":6092:6096   */\n      0x20\n        /* \"#utility.yul\":6085:6090   */\n      dup7\n        /* \"#utility.yul\":6081:6097   */\n      add\n        /* \"#utility.yul\":6059:6111   */\n      tag_277\n      jump\t// in\n    tag_276:\n        /* \"#utility.yul\":6136:6165   */\n      tag_278\n        /* \"#utility.yul\":6158:6164   */\n      dup2\n        /* \"#utility.yul\":6136:6165   */\n      tag_279\n      jump\t// in\n    tag_278:\n        /* \"#utility.yul\":6131:6134   */\n      dup5\n        /* \"#utility.yul\":6127:6166   */\n      add\n        /* \"#utility.yul\":6120:6166   */\n      swap2\n      pop\n        /* \"#utility.yul\":5910:6172   */\n      pop\n        /* \"#utility.yul\":5828:6172   */\n      swap3\n      swap2\n      pop\n      pop\n      jump\t// out\n        /* \"#utility.yul\":6178:6542   */\n    tag_280:\n        /* \"#utility.yul\":6266:6269   */\n      0x00\n        /* \"#utility.yul\":6294:6333   */\n      tag_282\n        /* \"#utility.yul\":6327:6332   */\n      dup3\n        /* \"#utility.yul\":6294:6333   */\n      tag_273\n      jump\t// in\n    tag_282:\n        /* \"#utility.yul\":6349:6420   */\n      tag_283\n        /* \"#utility.yul\":6413:6419   */\n      dup2\n        /* \"#utility.yul\":6408:6411   */\n      dup6\n        /* \"#utility.yul\":6349:6420   */\n      tag_284\n      jump\t// in\n    tag_283:\n        /* \"#utility.yul\":6342:6420   */\n      swap4\n      pop\n        /* \"#utility.yul\":6429:6481   */\n      tag_285\n        /* \"#utility.yul\":6474:6480   */\n      dup2\n        /* \"#utility.yul\":6469:6472   */\n      dup6\n        /* \"#utility.yul\":6462:6466   */\n      0x20\n        /* \"#utility.yul\":6455:6460   */\n      dup7\n        /* \"#utility.yul\":6451:6467   */\n      add\n        /* \"#utility.yul\":6429:6481   */\n      tag_277\n      jump\t// in\n    tag_285:\n        /* \"#utility.yul\":6506:6535   */\n      tag_286\n        /* \"#utility.yul\":6528:6534   */\n      dup2\n        /* \"#utility.yul\":6506:6535   */\n      tag_279\n      jump\t// in\n    tag_286:\n        /* \"#utility.yul\":6501:6504   */\n      dup5\n        /* \"#utility.yul\":6497:6536   */\n      add\n        /* \"#utility.yul\":6490:6536   */\n      swap2\n      pop\n        /* \"#utility.yul\":6270:6542   */\n      pop\n        /* \"#utility.yul\":6178:6542   */\n      swap3\n      swap2\n      pop\n      pop\n      jump\t// out\n        /* \"#utility.yul\":6572:7354   */\n    tag_287:\n        /* \"#utility.yul\":6647:6650   */\n      0x00\n        /* \"#utility.yul\":6684:6689   */\n      dup2\n        /* \"#utility.yul\":6678:6690   */\n      sload\n        /* \"#utility.yul\":6713:6749   */\n      tag_289\n        /* \"#utility.yul\":6739:6748   */\n      dup2\n        /* \"#utility.yul\":6713:6749   */\n      tag_54\n      jump\t// in\n    tag_289:\n        /* \"#utility.yul\":6765:6826   */\n      tag_290\n        /* \"#utility.yul\":6819:6825   */\n      dup2\n        /* \"#utility.yul\":6814:6817   */\n      dup7\n        /* \"#utility.yul\":6765:6826   */\n      tag_275\n      jump\t// in\n    tag_290:\n        /* \"#utility.yul\":6758:6826   */\n      swap5\n      pop\n        /* \"#utility.yul\":6857:6858   */\n      0x01\n        /* \"#utility.yul\":6846:6855   */\n      dup3\n        /* \"#utility.yul\":6842:6859   */\n      and\n        /* \"#utility.yul\":6873:6874   */\n      0x00\n        /* \"#utility.yul\":6868:7003   */\n      dup2\n      eq\n      tag_292\n      jumpi\n        /* \"#utility.yul\":7017:7018   */\n      0x01\n        /* \"#utility.yul\":7012:7348   */\n      dup2\n      eq\n      tag_293\n      jumpi\n        /* \"#utility.yul\":6835:7348   */\n      jump(tag_291)\n        /* \"#utility.yul\":6868:7003   */\n    tag_292:\n        /* \"#utility.yul\":6952:6956   */\n      0xff\n        /* \"#utility.yul\":6948:6957   */\n      not\n        /* \"#utility.yul\":6937:6946   */\n      dup4\n        /* \"#utility.yul\":6933:6958   */\n      and\n        /* \"#utility.yul\":6928:6931   */\n      dup7\n        /* \"#utility.yul\":6921:6959   */\n      mstore\n        /* \"#utility.yul\":6988:6992   */\n      0x20\n        /* \"#utility.yul\":6983:6986   */\n      dup7\n        /* \"#utility.yul\":6979:6993   */\n      add\n        /* \"#utility.yul\":6972:6993   */\n      swap4\n      pop\n        /* \"#utility.yul\":6868:7003   */\n      jump(tag_291)\n        /* \"#utility.yul\":7012:7348   */\n    tag_293:\n        /* \"#utility.yul\":7079:7117   */\n      tag_294\n        /* \"#utility.yul\":7111:7116   */\n      dup6\n        /* \"#utility.yul\":7079:7117   */\n      tag_295\n      jump\t// in\n    tag_294:\n        /* \"#utility.yul\":7139:7140   */\n      0x00\n        /* \"#utility.yul\":7153:7307   */\n    tag_296:\n        /* \"#utility.yul\":7167:7173   */\n      dup4\n        /* \"#utility.yul\":7164:7165   */\n      dup2\n        /* \"#utility.yul\":7161:7174   */\n      lt\n        /* \"#utility.yul\":7153:7307   */\n      iszero\n      tag_298\n      jumpi\n        /* \"#utility.yul\":7241:7248   */\n      dup2\n        /* \"#utility.yul\":7235:7249   */\n      sload\n        /* \"#utility.yul\":7231:7232   */\n      dup2\n        /* \"#utility.yul\":7226:7229   */\n      dup10\n        /* \"#utility.yul\":7222:7233   */\n      add\n        /* \"#utility.yul\":7215:7250   */\n      mstore\n        /* \"#utility.yul\":7291:7292   */\n      0x01\n        /* \"#utility.yul\":7282:7289   */\n      dup3\n        /* \"#utility.yul\":7278:7293   */\n      add\n        /* \"#utility.yul\":7267:7293   */\n      swap2\n      pop\n        /* \"#utility.yul\":7189:7193   */\n      0x20\n        /* \"#utility.yul\":7186:7187   */\n      dup2\n        /* \"#utility.yul\":7182:7194   */\n      add\n        /* \"#utility.yul\":7177:7194   */\n      swap1\n      pop\n        /* \"#utility.yul\":7153:7307   */\n      jump(tag_296)\n    tag_298:\n        /* \"#utility.yul\":7336:7337   */\n      dup1\n        /* \"#utility.yul\":7331:7334   */\n      dup9\n        /* \"#utility.yul\":7327:7338   */\n      add\n        /* \"#utility.yul\":7320:7338   */\n      swap6\n      pop\n        /* \"#utility.yul\":7019:7348   */\n      pop\n      pop\n        /* \"#utility.yul\":6835:7348   */\n    tag_291:\n      pop\n        /* \"#utility.yul\":6651:7354   */\n      pop\n      pop\n        /* \"#utility.yul\":6572:7354   */\n      swap3\n      swap2\n      pop\n      pop\n      jump\t// out\n        /* \"#utility.yul\":7360:7726   */\n    tag_299:\n        /* \"#utility.yul\":7502:7505   */\n      0x00\n        /* \"#utility.yul\":7523:7590   */\n      tag_301\n        /* \"#utility.yul\":7587:7589   */\n      0x22\n        /* \"#utility.yul\":7582:7585   */\n      dup4\n        /* \"#utility.yul\":7523:7590   */\n      tag_284\n      jump\t// in\n    tag_301:\n        /* \"#utility.yul\":7516:7590   */\n      swap2\n      pop\n        /* \"#utility.yul\":7599:7692   */\n      tag_302\n        /* \"#utility.yul\":7688:7691   */\n      dup3\n        /* \"#utility.yul\":7599:7692   */\n      tag_303\n      jump\t// in\n    tag_302:\n        /* \"#utility.yul\":7717:7719   */\n      0x40\n        /* \"#utility.yul\":7712:7715   */\n      dup3\n        /* \"#utility.yul\":7708:7720   */\n      add\n        /* \"#utility.yul\":7701:7720   */\n      swap1\n      pop\n        /* \"#utility.yul\":7360:7726   */\n      swap2\n      swap1\n      pop\n      jump\t// out\n        /* \"#utility.yul\":7732:8098   */\n    tag_304:\n        /* \"#utility.yul\":7874:7877   */\n      0x00\n        /* \"#utility.yul\":7895:7962   */\n      tag_306\n        /* \"#utility.yul\":7959:7961   */\n      0x1d\n        /* \"#utility.yul\":7954:7957   */\n      dup4\n        /* \"#utility.yul\":7895:7962   */\n      tag_284\n      jump\t// in\n    tag_306:\n        /* \"#utility.yul\":7888:7962   */\n      swap2\n      pop\n        /* \"#utility.yul\":7971:8064   */\n      tag_307\n        /* \"#utility.yul\":8060:8063   */\n      dup3\n        /* \"#utility.yul\":7971:8064   */\n      tag_308\n      jump\t// in\n    tag_307:\n        /* \"#utility.yul\":8089:8091   */\n      0x20\n        /* \"#utility.yul\":8084:8087   */\n      dup3\n        /* \"#utility.yul\":8080:8092   */\n      add\n        /* \"#utility.yul\":8073:8092   */\n      swap1\n      pop\n        /* \"#utility.yul\":7732:8098   */\n      swap2\n      swap1\n      pop\n      jump\t// out\n        /* \"#utility.yul\":8104:8470   */\n    tag_309:\n        /* \"#utility.yul\":8246:8249   */\n      0x00\n        /* \"#utility.yul\":8267:8334   */\n      tag_311\n        /* \"#utility.yul\":8331:8333   */\n      0x15\n        /* \"#utility.yul\":8326:8329   */\n      dup4\n        /* \"#utility.yul\":8267:8334   */\n      tag_284\n      jump\t// in\n    tag_311:\n        /* \"#utility.yul\":8260:8334   */\n      swap2\n      pop\n        /* \"#utility.yul\":8343:8436   */\n      tag_312\n        /* \"#utility.yul\":8432:8435   */\n      dup3\n        /* \"#utility.yul\":8343:8436   */\n      tag_313\n      jump\t// in\n    tag_312:\n        /* \"#utility.yul\":8461:8463   */\n      0x20\n        /* \"#utility.yul\":8456:8459   */\n      dup3\n        /* \"#utility.yul\":8452:8464   */\n      add\n        /* \"#utility.yul\":8445:8464   */\n      swap1\n      pop\n        /* \"#utility.yul\":8104:8470   */\n      swap2\n      swap1\n      pop\n      jump\t// out\n        /* \"#utility.yul\":8528:9823   */\n    tag_227:\n        /* \"#utility.yul\":8629:8632   */\n      0x00\n        /* \"#utility.yul\":8665:8669   */\n      0xc0\n        /* \"#utility.yul\":8660:8663   */\n      dup4\n        /* \"#utility.yul\":8656:8670   */\n      add\n        /* \"#utility.yul\":8754:8758   */\n      0x00\n        /* \"#utility.yul\":8747:8752   */\n      dup4\n        /* \"#utility.yul\":8743:8759   */\n      add\n        /* \"#utility.yul\":8737:8760   */\n      mload\n        /* \"#utility.yul\":8773:8836   */\n      tag_315\n        /* \"#utility.yul\":8830:8834   */\n      0x00\n        /* \"#utility.yul\":8825:8828   */\n      dup7\n        /* \"#utility.yul\":8821:8835   */\n      add\n        /* \"#utility.yul\":8807:8819   */\n      dup3\n        /* \"#utility.yul\":8773:8836   */\n      tag_316\n      jump\t// in\n    tag_315:\n        /* \"#utility.yul\":8680:8846   */\n      pop\n        /* \"#utility.yul\":8933:8937   */\n      0x20\n        /* \"#utility.yul\":8926:8931   */\n      dup4\n        /* \"#utility.yul\":8922:8938   */\n      add\n        /* \"#utility.yul\":8916:8939   */\n      mload\n        /* \"#utility.yul\":8986:8989   */\n      dup5\n        /* \"#utility.yul\":8980:8984   */\n      dup3\n        /* \"#utility.yul\":8976:8990   */\n      sub\n        /* \"#utility.yul\":8969:8973   */\n      0x20\n        /* \"#utility.yul\":8964:8967   */\n      dup7\n        /* \"#utility.yul\":8960:8974   */\n      add\n        /* \"#utility.yul\":8953:8991   */\n      mstore\n        /* \"#utility.yul\":9012:9085   */\n      tag_317\n        /* \"#utility.yul\":9080:9084   */\n      dup3\n        /* \"#utility.yul\":9066:9078   */\n      dup3\n        /* \"#utility.yul\":9012:9085   */\n      tag_270\n      jump\t// in\n    tag_317:\n        /* \"#utility.yul\":9004:9085   */\n      swap2\n      pop\n        /* \"#utility.yul\":8856:9096   */\n      pop\n        /* \"#utility.yul\":9178:9182   */\n      0x40\n        /* \"#utility.yul\":9171:9176   */\n      dup4\n        /* \"#utility.yul\":9167:9183   */\n      add\n        /* \"#utility.yul\":9161:9184   */\n      mload\n        /* \"#utility.yul\":9197:9260   */\n      tag_318\n        /* \"#utility.yul\":9254:9258   */\n      0x40\n        /* \"#utility.yul\":9249:9252   */\n      dup7\n        /* \"#utility.yul\":9245:9259   */\n      add\n        /* \"#utility.yul\":9231:9243   */\n      dup3\n        /* \"#utility.yul\":9197:9260   */\n      tag_316\n      jump\t// in\n    tag_318:\n        /* \"#utility.yul\":9106:9270   */\n      pop\n        /* \"#utility.yul\":9354:9358   */\n      0x60\n        /* \"#utility.yul\":9347:9352   */\n      dup4\n        /* \"#utility.yul\":9343:9359   */\n      add\n        /* \"#utility.yul\":9337:9360   */\n      mload\n        /* \"#utility.yul\":9373:9436   */\n      tag_319\n        /* \"#utility.yul\":9430:9434   */\n      0x60\n        /* \"#utility.yul\":9425:9428   */\n      dup7\n        /* \"#utility.yul\":9421:9435   */\n      add\n        /* \"#utility.yul\":9407:9419   */\n      dup3\n        /* \"#utility.yul\":9373:9436   */\n      tag_232\n      jump\t// in\n    tag_319:\n        /* \"#utility.yul\":9280:9446   */\n      pop\n        /* \"#utility.yul\":9529:9533   */\n      0x80\n        /* \"#utility.yul\":9522:9527   */\n      dup4\n        /* \"#utility.yul\":9518:9534   */\n      add\n        /* \"#utility.yul\":9512:9535   */\n      mload\n        /* \"#utility.yul\":9548:9611   */\n      tag_320\n        /* \"#utility.yul\":9605:9609   */\n      0x80\n        /* \"#utility.yul\":9600:9603   */\n      dup7\n        /* \"#utility.yul\":9596:9610   */\n      add\n        /* \"#utility.yul\":9582:9594   */\n      dup3\n        /* \"#utility.yul\":9548:9611   */\n      tag_316\n      jump\t// in\n    tag_320:\n        /* \"#utility.yul\":9456:9621   */\n      pop\n        /* \"#utility.yul\":9706:9710   */\n      0xa0\n        /* \"#utility.yul\":9699:9704   */\n      dup4\n        /* \"#utility.yul\":9695:9711   */\n      add\n        /* \"#utility.yul\":9689:9712   */\n      mload\n        /* \"#utility.yul\":9725:9786   */\n      tag_321\n        /* \"#utility.yul\":9780:9784   */\n      0xa0\n        /* \"#utility.yul\":9775:9778   */\n      dup7\n        /* \"#utility.yul\":9771:9785   */\n      add\n        /* \"#utility.yul\":9757:9769   */\n      dup3\n        /* \"#utility.yul\":9725:9786   */\n      tag_322\n      jump\t// in\n    tag_321:\n        /* \"#utility.yul\":9631:9796   */\n      pop\n        /* \"#utility.yul\":9813:9817   */\n      dup1\n        /* \"#utility.yul\":9806:9817   */\n      swap2\n      pop\n        /* \"#utility.yul\":8634:9823   */\n      pop\n        /* \"#utility.yul\":8528:9823   */\n      swap3\n      swap2\n      pop\n      pop\n      jump\t// out\n        /* \"#utility.yul\":9881:11186   */\n    tag_323:\n        /* \"#utility.yul\":9992:9995   */\n      0x00\n        /* \"#utility.yul\":10028:10032   */\n      0xc0\n        /* \"#utility.yul\":10023:10026   */\n      dup4\n        /* \"#utility.yul\":10019:10033   */\n      add\n        /* \"#utility.yul\":10117:10121   */\n      0x00\n        /* \"#utility.yul\":10110:10115   */\n      dup4\n        /* \"#utility.yul\":10106:10122   */\n      add\n        /* \"#utility.yul\":10100:10123   */\n      mload\n        /* \"#utility.yul\":10136:10199   */\n      tag_325\n        /* \"#utility.yul\":10193:10197   */\n      0x00\n        /* \"#utility.yul\":10188:10191   */\n      dup7\n        /* \"#utility.yul\":10184:10198   */\n      add\n        /* \"#utility.yul\":10170:10182   */\n      dup3\n        /* \"#utility.yul\":10136:10199   */\n      tag_316\n      jump\t// in\n    tag_325:\n        /* \"#utility.yul\":10043:10209   */\n      pop\n        /* \"#utility.yul\":10296:10300   */\n      0x20\n        /* \"#utility.yul\":10289:10294   */\n      dup4\n        /* \"#utility.yul\":10285:10301   */\n      add\n        /* \"#utility.yul\":10279:10302   */\n      mload\n        /* \"#utility.yul\":10349:10352   */\n      dup5\n        /* \"#utility.yul\":10343:10347   */\n      dup3\n        /* \"#utility.yul\":10339:10353   */\n      sub\n        /* \"#utility.yul\":10332:10336   */\n      0x20\n        /* \"#utility.yul\":10327:10330   */\n      dup7\n        /* \"#utility.yul\":10323:10337   */\n      add\n        /* \"#utility.yul\":10316:10354   */\n      mstore\n        /* \"#utility.yul\":10375:10448   */\n      tag_326\n        /* \"#utility.yul\":10443:10447   */\n      dup3\n        /* \"#utility.yul\":10429:10441   */\n      dup3\n        /* \"#utility.yul\":10375:10448   */\n      tag_270\n      jump\t// in\n    tag_326:\n        /* \"#utility.yul\":10367:10448   */\n      swap2\n      pop\n        /* \"#utility.yul\":10219:10459   */\n      pop\n        /* \"#utility.yul\":10541:10545   */\n      0x40\n        /* \"#utility.yul\":10534:10539   */\n      dup4\n        /* \"#utility.yul\":10530:10546   */\n      add\n        /* \"#utility.yul\":10524:10547   */\n      mload\n        /* \"#utility.yul\":10560:10623   */\n      tag_327\n        /* \"#utility.yul\":10617:10621   */\n      0x40\n        /* \"#utility.yul\":10612:10615   */\n      dup7\n        /* \"#utility.yul\":10608:10622   */\n      add\n        /* \"#utility.yul\":10594:10606   */\n      dup3\n        /* \"#utility.yul\":10560:10623   */\n      tag_316\n      jump\t// in\n    tag_327:\n        /* \"#utility.yul\":10469:10633   */\n      pop\n        /* \"#utility.yul\":10717:10721   */\n      0x60\n        /* \"#utility.yul\":10710:10715   */\n      dup4\n        /* \"#utility.yul\":10706:10722   */\n      add\n        /* \"#utility.yul\":10700:10723   */\n      mload\n        /* \"#utility.yul\":10736:10799   */\n      tag_328\n        /* \"#utility.yul\":10793:10797   */\n      0x60\n        /* \"#utility.yul\":10788:10791   */\n      dup7\n        /* \"#utility.yul\":10784:10798   */\n      add\n        /* \"#utility.yul\":10770:10782   */\n      dup3\n        /* \"#utility.yul\":10736:10799   */\n      tag_232\n      jump\t// in\n    tag_328:\n        /* \"#utility.yul\":10643:10809   */\n      pop\n        /* \"#utility.yul\":10892:10896   */\n      0x80\n        /* \"#utility.yul\":10885:10890   */\n      dup4\n        /* \"#utility.yul\":10881:10897   */\n      add\n        /* \"#utility.yul\":10875:10898   */\n      mload\n        /* \"#utility.yul\":10911:10974   */\n      tag_329\n        /* \"#utility.yul\":10968:10972   */\n      0x80\n        /* \"#utility.yul\":10963:10966   */\n      dup7\n        /* \"#utility.yul\":10959:10973   */\n      add\n        /* \"#utility.yul\":10945:10957   */\n      dup3\n        /* \"#utility.yul\":10911:10974   */\n      tag_316\n      jump\t// in\n    tag_329:\n        /* \"#utility.yul\":10819:10984   */\n      pop\n        /* \"#utility.yul\":11069:11073   */\n      0xa0\n        /* \"#utility.yul\":11062:11067   */\n      dup4\n        /* \"#utility.yul\":11058:11074   */\n      add\n        /* \"#utility.yul\":11052:11075   */\n      mload\n        /* \"#utility.yul\":11088:11149   */\n      tag_330\n        /* \"#utility.yul\":11143:11147   */\n      0xa0\n        /* \"#utility.yul\":11138:11141   */\n      dup7\n        /* \"#utility.yul\":11134:11148   */\n      add\n        /* \"#utility.yul\":11120:11132   */\n      dup3\n        /* \"#utility.yul\":11088:11149   */\n      tag_322\n      jump\t// in\n    tag_330:\n        /* \"#utility.yul\":10994:11159   */\n      pop\n        /* \"#utility.yul\":11176:11180   */\n      dup1\n        /* \"#utility.yul\":11169:11180   */\n      swap2\n      pop\n        /* \"#utility.yul\":9997:11186   */\n      pop\n        /* \"#utility.yul\":9881:11186   */\n      swap3\n      swap2\n      pop\n      pop\n      jump\t// out\n        /* \"#utility.yul\":11244:12952   */\n    tag_231:\n        /* \"#utility.yul\":11342:11345   */\n      0x00\n        /* \"#utility.yul\":11378:11382   */\n      0xc0\n        /* \"#utility.yul\":11373:11376   */\n      dup4\n        /* \"#utility.yul\":11369:11383   */\n      add\n        /* \"#utility.yul\":11409:11410   */\n      0x00\n        /* \"#utility.yul\":11486:11490   */\n      dup1\n        /* \"#utility.yul\":11479:11484   */\n      dup5\n        /* \"#utility.yul\":11475:11491   */\n      add\n        /* \"#utility.yul\":11469:11492   */\n      sload\n        /* \"#utility.yul\":11456:11492   */\n      swap1\n      pop\n        /* \"#utility.yul\":11525:11580   */\n      tag_332\n        /* \"#utility.yul\":11570:11579   */\n      dup2\n        /* \"#utility.yul\":11525:11580   */\n      tag_333\n      jump\t// in\n    tag_332:\n        /* \"#utility.yul\":11593:11656   */\n      tag_334\n        /* \"#utility.yul\":11650:11654   */\n      0x00\n        /* \"#utility.yul\":11645:11648   */\n      dup8\n        /* \"#utility.yul\":11641:11655   */\n      add\n        /* \"#utility.yul\":11627:11639   */\n      dup3\n        /* \"#utility.yul\":11593:11656   */\n      tag_316\n      jump\t// in\n    tag_334:\n        /* \"#utility.yul\":11420:11666   */\n      pop\n        /* \"#utility.yul\":11747:11751   */\n      0x01\n        /* \"#utility.yul\":11740:11745   */\n      dup5\n        /* \"#utility.yul\":11736:11752   */\n      add\n        /* \"#utility.yul\":11799:11802   */\n      dup6\n        /* \"#utility.yul\":11793:11797   */\n      dup4\n        /* \"#utility.yul\":11789:11803   */\n      sub\n        /* \"#utility.yul\":11782:11786   */\n      0x20\n        /* \"#utility.yul\":11777:11780   */\n      dup8\n        /* \"#utility.yul\":11773:11787   */\n      add\n        /* \"#utility.yul\":11766:11804   */\n      mstore\n        /* \"#utility.yul\":11825:11895   */\n      tag_335\n        /* \"#utility.yul\":11890:11894   */\n      dup4\n        /* \"#utility.yul\":11876:11888   */\n      dup3\n        /* \"#utility.yul\":11825:11895   */\n      tag_287\n      jump\t// in\n    tag_335:\n        /* \"#utility.yul\":11817:11895   */\n      swap3\n      pop\n        /* \"#utility.yul\":11676:11906   */\n      pop\n        /* \"#utility.yul\":11980:11984   */\n      0x02\n        /* \"#utility.yul\":11973:11978   */\n      dup5\n        /* \"#utility.yul\":11969:11985   */\n      add\n        /* \"#utility.yul\":11963:11986   */\n      sload\n        /* \"#utility.yul\":11950:11986   */\n      swap1\n      pop\n        /* \"#utility.yul\":12019:12074   */\n      tag_336\n        /* \"#utility.yul\":12064:12073   */\n      dup2\n        /* \"#utility.yul\":12019:12074   */\n      tag_333\n      jump\t// in\n    tag_336:\n        /* \"#utility.yul\":12087:12150   */\n      tag_337\n        /* \"#utility.yul\":12144:12148   */\n      0x40\n        /* \"#utility.yul\":12139:12142   */\n      dup8\n        /* \"#utility.yul\":12135:12149   */\n      add\n        /* \"#utility.yul\":12121:12133   */\n      dup3\n        /* \"#utility.yul\":12087:12150   */\n      tag_316\n      jump\t// in\n    tag_337:\n        /* \"#utility.yul\":11916:12160   */\n      pop\n        /* \"#utility.yul\":12236:12240   */\n      0x03\n        /* \"#utility.yul\":12229:12234   */\n      dup5\n        /* \"#utility.yul\":12225:12241   */\n      add\n        /* \"#utility.yul\":12219:12242   */\n      sload\n        /* \"#utility.yul\":12206:12242   */\n      swap1\n      pop\n        /* \"#utility.yul\":12275:12330   */\n      tag_338\n        /* \"#utility.yul\":12320:12329   */\n      dup2\n        /* \"#utility.yul\":12275:12330   */\n      tag_339\n      jump\t// in\n    tag_338:\n        /* \"#utility.yul\":12343:12406   */\n      tag_340\n        /* \"#utility.yul\":12400:12404   */\n      0x60\n        /* \"#utility.yul\":12395:12398   */\n      dup8\n        /* \"#utility.yul\":12391:12405   */\n      add\n        /* \"#utility.yul\":12377:12389   */\n      dup3\n        /* \"#utility.yul\":12343:12406   */\n      tag_232\n      jump\t// in\n    tag_340:\n        /* \"#utility.yul\":12170:12416   */\n      pop\n        /* \"#utility.yul\":12491:12495   */\n      0x04\n        /* \"#utility.yul\":12484:12489   */\n      dup5\n        /* \"#utility.yul\":12480:12496   */\n      add\n        /* \"#utility.yul\":12474:12497   */\n      sload\n        /* \"#utility.yul\":12461:12497   */\n      swap1\n      pop\n        /* \"#utility.yul\":12530:12585   */\n      tag_341\n        /* \"#utility.yul\":12575:12584   */\n      dup2\n        /* \"#utility.yul\":12530:12585   */\n      tag_333\n      jump\t// in\n    tag_341:\n        /* \"#utility.yul\":12598:12661   */\n      tag_342\n        /* \"#utility.yul\":12655:12659   */\n      0x80\n        /* \"#utility.yul\":12650:12653   */\n      dup8\n        /* \"#utility.yul\":12646:12660   */\n      add\n        /* \"#utility.yul\":12632:12644   */\n      dup3\n        /* \"#utility.yul\":12598:12661   */\n      tag_316\n      jump\t// in\n    tag_342:\n        /* \"#utility.yul\":12426:12671   */\n      pop\n        /* \"#utility.yul\":12748:12752   */\n      0x05\n        /* \"#utility.yul\":12741:12746   */\n      dup5\n        /* \"#utility.yul\":12737:12753   */\n      add\n        /* \"#utility.yul\":12731:12754   */\n      sload\n        /* \"#utility.yul\":12718:12754   */\n      swap1\n      pop\n        /* \"#utility.yul\":12787:12841   */\n      tag_343\n        /* \"#utility.yul\":12831:12840   */\n      dup2\n        /* \"#utility.yul\":12787:12841   */\n      tag_344\n      jump\t// in\n    tag_343:\n        /* \"#utility.yul\":12854:12915   */\n      tag_345\n        /* \"#utility.yul\":12909:12913   */\n      0xa0\n        /* \"#utility.yul\":12904:12907   */\n      dup8\n        /* \"#utility.yul\":12900:12914   */\n      add\n        /* \"#utility.yul\":12886:12898   */\n      dup3\n        /* \"#utility.yul\":12854:12915   */\n      tag_322\n      jump\t// in\n    tag_345:\n        /* \"#utility.yul\":12681:12925   */\n      pop\n        /* \"#utility.yul\":12942:12946   */\n      dup2\n        /* \"#utility.yul\":12935:12946   */\n      swap3\n      pop\n        /* \"#utility.yul\":11347:12952   */\n      pop\n      pop\n        /* \"#utility.yul\":11244:12952   */\n      swap3\n      swap2\n      pop\n      pop\n      jump\t// out\n        /* \"#utility.yul\":13010:14728   */\n    tag_346:\n        /* \"#utility.yul\":13118:13121   */\n      0x00\n        /* \"#utility.yul\":13154:13158   */\n      0xc0\n        /* \"#utility.yul\":13149:13152   */\n      dup4\n        /* \"#utility.yul\":13145:13159   */\n      add\n        /* \"#utility.yul\":13185:13186   */\n      0x00\n        /* \"#utility.yul\":13262:13266   */\n      dup1\n        /* \"#utility.yul\":13255:13260   */\n      dup5\n        /* \"#utility.yul\":13251:13267   */\n      add\n        /* \"#utility.yul\":13245:13268   */\n      sload\n        /* \"#utility.yul\":13232:13268   */\n      swap1\n      pop\n        /* \"#utility.yul\":13301:13356   */\n      tag_348\n        /* \"#utility.yul\":13346:13355   */\n      dup2\n        /* \"#utility.yul\":13301:13356   */\n      tag_333\n      jump\t// in\n    tag_348:\n        /* \"#utility.yul\":13369:13432   */\n      tag_349\n        /* \"#utility.yul\":13426:13430   */\n      0x00\n        /* \"#utility.yul\":13421:13424   */\n      dup8\n        /* \"#utility.yul\":13417:13431   */\n      add\n        /* \"#utility.yul\":13403:13415   */\n      dup3\n        /* \"#utility.yul\":13369:13432   */\n      tag_316\n      jump\t// in\n    tag_349:\n        /* \"#utility.yul\":13196:13442   */\n      pop\n        /* \"#utility.yul\":13523:13527   */\n      0x01\n        /* \"#utility.yul\":13516:13521   */\n      dup5\n        /* \"#utility.yul\":13512:13528   */\n      add\n        /* \"#utility.yul\":13575:13578   */\n      dup6\n        /* \"#utility.yul\":13569:13573   */\n      dup4\n        /* \"#utility.yul\":13565:13579   */\n      sub\n        /* \"#utility.yul\":13558:13562   */\n      0x20\n        /* \"#utility.yul\":13553:13556   */\n      dup8\n        /* \"#utility.yul\":13549:13563   */\n      add\n        /* \"#utility.yul\":13542:13580   */\n      mstore\n        /* \"#utility.yul\":13601:13671   */\n      tag_350\n        /* \"#utility.yul\":13666:13670   */\n      dup4\n        /* \"#utility.yul\":13652:13664   */\n      dup3\n        /* \"#utility.yul\":13601:13671   */\n      tag_287\n      jump\t// in\n    tag_350:\n        /* \"#utility.yul\":13593:13671   */\n      swap3\n      pop\n        /* \"#utility.yul\":13452:13682   */\n      pop\n        /* \"#utility.yul\":13756:13760   */\n      0x02\n        /* \"#utility.yul\":13749:13754   */\n      dup5\n        /* \"#utility.yul\":13745:13761   */\n      add\n        /* \"#utility.yul\":13739:13762   */\n      sload\n        /* \"#utility.yul\":13726:13762   */\n      swap1\n      pop\n        /* \"#utility.yul\":13795:13850   */\n      tag_351\n        /* \"#utility.yul\":13840:13849   */\n      dup2\n        /* \"#utility.yul\":13795:13850   */\n      tag_333\n      jump\t// in\n    tag_351:\n        /* \"#utility.yul\":13863:13926   */\n      tag_352\n        /* \"#utility.yul\":13920:13924   */\n      0x40\n        /* \"#utility.yul\":13915:13918   */\n      dup8\n        /* \"#utility.yul\":13911:13925   */\n      add\n        /* \"#utility.yul\":13897:13909   */\n      dup3\n        /* \"#utility.yul\":13863:13926   */\n      tag_316\n      jump\t// in\n    tag_352:\n        /* \"#utility.yul\":13692:13936   */\n      pop\n        /* \"#utility.yul\":14012:14016   */\n      0x03\n        /* \"#utility.yul\":14005:14010   */\n      dup5\n        /* \"#utility.yul\":14001:14017   */\n      add\n        /* \"#utility.yul\":13995:14018   */\n      sload\n        /* \"#utility.yul\":13982:14018   */\n      swap1\n      pop\n        /* \"#utility.yul\":14051:14106   */\n      tag_353\n        /* \"#utility.yul\":14096:14105   */\n      dup2\n        /* \"#utility.yul\":14051:14106   */\n      tag_339\n      jump\t// in\n    tag_353:\n        /* \"#utility.yul\":14119:14182   */\n      tag_354\n        /* \"#utility.yul\":14176:14180   */\n      0x60\n        /* \"#utility.yul\":14171:14174   */\n      dup8\n        /* \"#utility.yul\":14167:14181   */\n      add\n        /* \"#utility.yul\":14153:14165   */\n      dup3\n        /* \"#utility.yul\":14119:14182   */\n      tag_232\n      jump\t// in\n    tag_354:\n        /* \"#utility.yul\":13946:14192   */\n      pop\n        /* \"#utility.yul\":14267:14271   */\n      0x04\n        /* \"#utility.yul\":14260:14265   */\n      dup5\n        /* \"#utility.yul\":14256:14272   */\n      add\n        /* \"#utility.yul\":14250:14273   */\n      sload\n        /* \"#utility.yul\":14237:14273   */\n      swap1\n      pop\n        /* \"#utility.yul\":14306:14361   */\n      tag_355\n        /* \"#utility.yul\":14351:14360   */\n      dup2\n        /* \"#utility.yul\":14306:14361   */\n      tag_333\n      jump\t// in\n    tag_355:\n        /* \"#utility.yul\":14374:14437   */\n      tag_356\n        /* \"#utility.yul\":14431:14435   */\n      0x80\n        /* \"#utility.yul\":14426:14429   */\n      dup8\n        /* \"#utility.yul\":14422:14436   */\n      add\n        /* \"#utility.yul\":14408:14420   */\n      dup3\n        /* \"#utility.yul\":14374:14437   */\n      tag_316\n      jump\t// in\n    tag_356:\n        /* \"#utility.yul\":14202:14447   */\n      pop\n        /* \"#utility.yul\":14524:14528   */\n      0x05\n        /* \"#utility.yul\":14517:14522   */\n      dup5\n        /* \"#utility.yul\":14513:14529   */\n      add\n        /* \"#utility.yul\":14507:14530   */\n      sload\n        /* \"#utility.yul\":14494:14530   */\n      swap1\n      pop\n        /* \"#utility.yul\":14563:14617   */\n      tag_357\n        /* \"#utility.yul\":14607:14616   */\n      dup2\n        /* \"#utility.yul\":14563:14617   */\n      tag_344\n      jump\t// in\n    tag_357:\n        /* \"#utility.yul\":14630:14691   */\n      tag_358\n        /* \"#utility.yul\":14685:14689   */\n      0xa0\n        /* \"#utility.yul\":14680:14683   */\n      dup8\n        /* \"#utility.yul\":14676:14690   */\n      add\n        /* \"#utility.yul\":14662:14674   */\n      dup3\n        /* \"#utility.yul\":14630:14691   */\n      tag_322\n      jump\t// in\n    tag_358:\n        /* \"#utility.yul\":14457:14701   */\n      pop\n        /* \"#utility.yul\":14718:14722   */\n      dup2\n        /* \"#utility.yul\":14711:14722   */\n      swap3\n      pop\n        /* \"#utility.yul\":13123:14728   */\n      pop\n      pop\n        /* \"#utility.yul\":13010:14728   */\n      swap3\n      swap2\n      pop\n      pop\n      jump\t// out\n        /* \"#utility.yul\":14734:14842   */\n    tag_316:\n        /* \"#utility.yul\":14811:14835   */\n      tag_360\n        /* \"#utility.yul\":14829:14834   */\n      dup2\n        /* \"#utility.yul\":14811:14835   */\n      tag_361\n      jump\t// in\n    tag_360:\n        /* \"#utility.yul\":14806:14809   */\n      dup3\n        /* \"#utility.yul\":14799:14836   */\n      mstore\n        /* \"#utility.yul\":14734:14842   */\n      pop\n      pop\n      jump\t// out\n        /* \"#utility.yul\":14848:14966   */\n    tag_362:\n        /* \"#utility.yul\":14935:14959   */\n      tag_364\n        /* \"#utility.yul\":14953:14958   */\n      dup2\n        /* \"#utility.yul\":14935:14959   */\n      tag_361\n      jump\t// in\n    tag_364:\n        /* \"#utility.yul\":14930:14933   */\n      dup3\n        /* \"#utility.yul\":14923:14960   */\n      mstore\n        /* \"#utility.yul\":14848:14966   */\n      pop\n      pop\n      jump\t// out\n        /* \"#utility.yul\":14972:15077   */\n    tag_322:\n        /* \"#utility.yul\":15047:15070   */\n      tag_366\n        /* \"#utility.yul\":15064:15069   */\n      dup2\n        /* \"#utility.yul\":15047:15070   */\n      tag_367\n      jump\t// in\n    tag_366:\n        /* \"#utility.yul\":15042:15045   */\n      dup3\n        /* \"#utility.yul\":15035:15071   */\n      mstore\n        /* \"#utility.yul\":14972:15077   */\n      pop\n      pop\n      jump\t// out\n        /* \"#utility.yul\":15083:15198   */\n    tag_368:\n        /* \"#utility.yul\":15168:15191   */\n      tag_370\n        /* \"#utility.yul\":15185:15190   */\n      dup2\n        /* \"#utility.yul\":15168:15191   */\n      tag_367\n      jump\t// in\n    tag_370:\n        /* \"#utility.yul\":15163:15166   */\n      dup3\n        /* \"#utility.yul\":15156:15192   */\n      mstore\n        /* \"#utility.yul\":15083:15198   */\n      pop\n      pop\n      jump\t// out\n        /* \"#utility.yul\":15204:15661   */\n    tag_29:\n        /* \"#utility.yul\":15389:15393   */\n      0x00\n        /* \"#utility.yul\":15427:15429   */\n      0x20\n        /* \"#utility.yul\":15416:15425   */\n      dup3\n        /* \"#utility.yul\":15412:15430   */\n      add\n        /* \"#utility.yul\":15404:15430   */\n      swap1\n      pop\n        /* \"#utility.yul\":15476:15485   */\n      dup2\n        /* \"#utility.yul\":15470:15474   */\n      dup2\n        /* \"#utility.yul\":15466:15486   */\n      sub\n        /* \"#utility.yul\":15462:15463   */\n      0x00\n        /* \"#utility.yul\":15451:15460   */\n      dup4\n        /* \"#utility.yul\":15447:15464   */\n      add\n        /* \"#utility.yul\":15440:15487   */\n      mstore\n        /* \"#utility.yul\":15504:15654   */\n      tag_372\n        /* \"#utility.yul\":15649:15653   */\n      dup2\n        /* \"#utility.yul\":15640:15646   */\n      dup5\n        /* \"#utility.yul\":15504:15654   */\n      tag_239\n      jump\t// in\n    tag_372:\n        /* \"#utility.yul\":15496:15654   */\n      swap1\n      pop\n        /* \"#utility.yul\":15204:15661   */\n      swap3\n      swap2\n      pop\n      pop\n      jump\t// out\n        /* \"#utility.yul\":15667:16112   */\n    tag_100:\n        /* \"#utility.yul\":15846:15850   */\n      0x00\n        /* \"#utility.yul\":15884:15886   */\n      0x20\n        /* \"#utility.yul\":15873:15882   */\n      dup3\n        /* \"#utility.yul\":15869:15887   */\n      add\n        /* \"#utility.yul\":15861:15887   */\n      swap1\n      pop\n        /* \"#utility.yul\":15933:15942   */\n      dup2\n        /* \"#utility.yul\":15927:15931   */\n      dup2\n        /* \"#utility.yul\":15923:15943   */\n      sub\n        /* \"#utility.yul\":15919:15920   */\n      0x00\n        /* \"#utility.yul\":15908:15917   */\n      dup4\n        /* \"#utility.yul\":15904:15921   */\n      add\n        /* \"#utility.yul\":15897:15944   */\n      mstore\n        /* \"#utility.yul\":15961:16105   */\n      tag_374\n        /* \"#utility.yul\":16100:16104   */\n      dup2\n        /* \"#utility.yul\":16091:16097   */\n      dup5\n        /* \"#utility.yul\":15961:16105   */\n      tag_253\n      jump\t// in\n    tag_374:\n        /* \"#utility.yul\":15953:16105   */\n      swap1\n      pop\n        /* \"#utility.yul\":15667:16112   */\n      swap3\n      swap2\n      pop\n      pop\n      jump\t// out\n        /* \"#utility.yul\":16118:16368   */\n    tag_51:\n        /* \"#utility.yul\":16225:16229   */\n      0x00\n        /* \"#utility.yul\":16263:16265   */\n      0x20\n        /* \"#utility.yul\":16252:16261   */\n      dup3\n        /* \"#utility.yul\":16248:16266   */\n      add\n        /* \"#utility.yul\":16240:16266   */\n      swap1\n      pop\n        /* \"#utility.yul\":16276:16361   */\n      tag_376\n        /* \"#utility.yul\":16358:16359   */\n      0x00\n        /* \"#utility.yul\":16347:16356   */\n      dup4\n        /* \"#utility.yul\":16343:16360   */\n      add\n        /* \"#utility.yul\":16334:16340   */\n      dup5\n        /* \"#utility.yul\":16276:16361   */\n      tag_266\n      jump\t// in\n    tag_376:\n        /* \"#utility.yul\":16118:16368   */\n      swap3\n      swap2\n      pop\n      pop\n      jump\t// out\n        /* \"#utility.yul\":16374:16793   */\n    tag_97:\n        /* \"#utility.yul\":16540:16544   */\n      0x00\n        /* \"#utility.yul\":16578:16580   */\n      0x20\n        /* \"#utility.yul\":16567:16576   */\n      dup3\n        /* \"#utility.yul\":16563:16581   */\n      add\n        /* \"#utility.yul\":16555:16581   */\n      swap1\n      pop\n        /* \"#utility.yul\":16627:16636   */\n      dup2\n        /* \"#utility.yul\":16621:16625   */\n      dup2\n        /* \"#utility.yul\":16617:16637   */\n      sub\n        /* \"#utility.yul\":16613:16614   */\n      0x00\n        /* \"#utility.yul\":16602:16611   */\n      dup4\n        /* \"#utility.yul\":16598:16615   */\n      add\n        /* \"#utility.yul\":16591:16638   */\n      mstore\n        /* \"#utility.yul\":16655:16786   */\n      tag_378\n        /* \"#utility.yul\":16781:16785   */\n      dup2\n        /* \"#utility.yul\":16655:16786   */\n      tag_299\n      jump\t// in\n    tag_378:\n        /* \"#utility.yul\":16647:16786   */\n      swap1\n      pop\n        /* \"#utility.yul\":16374:16793   */\n      swap2\n      swap1\n      pop\n      jump\t// out\n        /* \"#utility.yul\":16799:17218   */\n    tag_144:\n        /* \"#utility.yul\":16965:16969   */\n      0x00\n        /* \"#utility.yul\":17003:17005   */\n      0x20\n        /* \"#utility.yul\":16992:17001   */\n      dup3\n        /* \"#utility.yul\":16988:17006   */\n      add\n        /* \"#utility.yul\":16980:17006   */\n      swap1\n      pop\n        /* \"#utility.yul\":17052:17061   */\n      dup2\n        /* \"#utility.yul\":17046:17050   */\n      dup2\n        /* \"#utility.yul\":17042:17062   */\n      sub\n        /* \"#utility.yul\":17038:17039   */\n      0x00\n        /* \"#utility.yul\":17027:17036   */\n      dup4\n        /* \"#utility.yul\":17023:17040   */\n      add\n        /* \"#utility.yul\":17016:17063   */\n      mstore\n        /* \"#utility.yul\":17080:17211   */\n      tag_380\n        /* \"#utility.yul\":17206:17210   */\n      dup2\n        /* \"#utility.yul\":17080:17211   */\n      tag_304\n      jump\t// in\n    tag_380:\n        /* \"#utility.yul\":17072:17211   */\n      swap1\n      pop\n        /* \"#utility.yul\":16799:17218   */\n      swap2\n      swap1\n      pop\n      jump\t// out\n        /* \"#utility.yul\":17224:17643   */\n    tag_132:\n        /* \"#utility.yul\":17390:17394   */\n      0x00\n        /* \"#utility.yul\":17428:17430   */\n      0x20\n        /* \"#utility.yul\":17417:17426   */\n      dup3\n        /* \"#utility.yul\":17413:17431   */\n      add\n        /* \"#utility.yul\":17405:17431   */\n      swap1\n      pop\n        /* \"#utility.yul\":17477:17486   */\n      dup2\n        /* \"#utility.yul\":17471:17475   */\n      dup2\n        /* \"#utility.yul\":17467:17487   */\n      sub\n        /* \"#utility.yul\":17463:17464   */\n      0x00\n        /* \"#utility.yul\":17452:17461   */\n      dup4\n        /* \"#utility.yul\":17448:17465   */\n      add\n        /* \"#utility.yul\":17441:17488   */\n      mstore\n        /* \"#utility.yul\":17505:17636   */\n      tag_382\n        /* \"#utility.yul\":17631:17635   */\n      dup2\n        /* \"#utility.yul\":17505:17636   */\n      tag_309\n      jump\t// in\n    tag_382:\n        /* \"#utility.yul\":17497:17636   */\n      swap1\n      pop\n        /* \"#utility.yul\":17224:17643   */\n      swap2\n      swap1\n      pop\n      jump\t// out\n        /* \"#utility.yul\":17649:18006   */\n    tag_47:\n        /* \"#utility.yul\":17784:17788   */\n      0x00\n        /* \"#utility.yul\":17822:17824   */\n      0x20\n        /* \"#utility.yul\":17811:17820   */\n      dup3\n        /* \"#utility.yul\":17807:17825   */\n      add\n        /* \"#utility.yul\":17799:17825   */\n      swap1\n      pop\n        /* \"#utility.yul\":17871:17880   */\n      dup2\n        /* \"#utility.yul\":17865:17869   */\n      dup2\n        /* \"#utility.yul\":17861:17881   */\n      sub\n        /* \"#utility.yul\":17857:17858   */\n      0x00\n        /* \"#utility.yul\":17846:17855   */\n      dup4\n        /* \"#utility.yul\":17842:17859   */\n      add\n        /* \"#utility.yul\":17835:17882   */\n      mstore\n        /* \"#utility.yul\":17899:17999   */\n      tag_384\n        /* \"#utility.yul\":17994:17998   */\n      dup2\n        /* \"#utility.yul\":17985:17991   */\n      dup5\n        /* \"#utility.yul\":17899:17999   */\n      tag_323\n      jump\t// in\n    tag_384:\n        /* \"#utility.yul\":17891:17999   */\n      swap1\n      pop\n        /* \"#utility.yul\":17649:18006   */\n      swap3\n      swap2\n      pop\n      pop\n      jump\t// out\n        /* \"#utility.yul\":18012:18234   */\n    tag_137:\n        /* \"#utility.yul\":18105:18109   */\n      0x00\n        /* \"#utility.yul\":18143:18145   */\n      0x20\n        /* \"#utility.yul\":18132:18141   */\n      dup3\n        /* \"#utility.yul\":18128:18146   */\n      add\n        /* \"#utility.yul\":18120:18146   */\n      swap1\n      pop\n        /* \"#utility.yul\":18156:18227   */\n      tag_386\n        /* \"#utility.yul\":18224:18225   */\n      0x00\n        /* \"#utility.yul\":18213:18222   */\n      dup4\n        /* \"#utility.yul\":18209:18226   */\n      add\n        /* \"#utility.yul\":18200:18206   */\n      dup5\n        /* \"#utility.yul\":18156:18227   */\n      tag_362\n      jump\t// in\n    tag_386:\n        /* \"#utility.yul\":18012:18234   */\n      swap3\n      swap2\n      pop\n      pop\n      jump\t// out\n        /* \"#utility.yul\":18240:18975   */\n    tag_35:\n        /* \"#utility.yul\":18457:18461   */\n      0x00\n        /* \"#utility.yul\":18495:18498   */\n      0x80\n        /* \"#utility.yul\":18484:18493   */\n      dup3\n        /* \"#utility.yul\":18480:18499   */\n      add\n        /* \"#utility.yul\":18472:18499   */\n      swap1\n      pop\n        /* \"#utility.yul\":18509:18580   */\n      tag_388\n        /* \"#utility.yul\":18577:18578   */\n      0x00\n        /* \"#utility.yul\":18566:18575   */\n      dup4\n        /* \"#utility.yul\":18562:18579   */\n      add\n        /* \"#utility.yul\":18553:18559   */\n      dup8\n        /* \"#utility.yul\":18509:18580   */\n      tag_362\n      jump\t// in\n    tag_388:\n        /* \"#utility.yul\":18627:18636   */\n      dup2\n        /* \"#utility.yul\":18621:18625   */\n      dup2\n        /* \"#utility.yul\":18617:18637   */\n      sub\n        /* \"#utility.yul\":18612:18614   */\n      0x20\n        /* \"#utility.yul\":18601:18610   */\n      dup4\n        /* \"#utility.yul\":18597:18615   */\n      add\n        /* \"#utility.yul\":18590:18638   */\n      mstore\n        /* \"#utility.yul\":18655:18733   */\n      tag_389\n        /* \"#utility.yul\":18728:18732   */\n      dup2\n        /* \"#utility.yul\":18719:18725   */\n      dup7\n        /* \"#utility.yul\":18655:18733   */\n      tag_280\n      jump\t// in\n    tag_389:\n        /* \"#utility.yul\":18647:18733   */\n      swap1\n      pop\n        /* \"#utility.yul\":18780:18789   */\n      dup2\n        /* \"#utility.yul\":18774:18778   */\n      dup2\n        /* \"#utility.yul\":18770:18790   */\n      sub\n        /* \"#utility.yul\":18765:18767   */\n      0x40\n        /* \"#utility.yul\":18754:18763   */\n      dup4\n        /* \"#utility.yul\":18750:18768   */\n      add\n        /* \"#utility.yul\":18743:18791   */\n      mstore\n        /* \"#utility.yul\":18808:18886   */\n      tag_390\n        /* \"#utility.yul\":18881:18885   */\n      dup2\n        /* \"#utility.yul\":18872:18878   */\n      dup6\n        /* \"#utility.yul\":18808:18886   */\n      tag_280\n      jump\t// in\n    tag_390:\n        /* \"#utility.yul\":18800:18886   */\n      swap1\n      pop\n        /* \"#utility.yul\":18896:18968   */\n      tag_391\n        /* \"#utility.yul\":18964:18966   */\n      0x60\n        /* \"#utility.yul\":18953:18962   */\n      dup4\n        /* \"#utility.yul\":18949:18967   */\n      add\n        /* \"#utility.yul\":18940:18946   */\n      dup5\n        /* \"#utility.yul\":18896:18968   */\n      tag_362\n      jump\t// in\n    tag_391:\n        /* \"#utility.yul\":18240:18975   */\n      swap6\n      swap5\n      pop\n      pop\n      pop\n      pop\n      pop\n      jump\t// out\n        /* \"#utility.yul\":18981:19843   */\n    tag_21:\n        /* \"#utility.yul\":19232:19236   */\n      0x00\n        /* \"#utility.yul\":19270:19273   */\n      0xc0\n        /* \"#utility.yul\":19259:19268   */\n      dup3\n        /* \"#utility.yul\":19255:19274   */\n      add\n        /* \"#utility.yul\":19247:19274   */\n      swap1\n      pop\n        /* \"#utility.yul\":19284:19355   */\n      tag_393\n        /* \"#utility.yul\":19352:19353   */\n      0x00\n        /* \"#utility.yul\":19341:19350   */\n      dup4\n        /* \"#utility.yul\":19337:19354   */\n      add\n        /* \"#utility.yul\":19328:19334   */\n      dup10\n        /* \"#utility.yul\":19284:19355   */\n      tag_362\n      jump\t// in\n    tag_393:\n        /* \"#utility.yul\":19402:19411   */\n      dup2\n        /* \"#utility.yul\":19396:19400   */\n      dup2\n        /* \"#utility.yul\":19392:19412   */\n      sub\n        /* \"#utility.yul\":19387:19389   */\n      0x20\n        /* \"#utility.yul\":19376:19385   */\n      dup4\n        /* \"#utility.yul\":19372:19390   */\n      add\n        /* \"#utility.yul\":19365:19413   */\n      mstore\n        /* \"#utility.yul\":19430:19508   */\n      tag_394\n        /* \"#utility.yul\":19503:19507   */\n      dup2\n        /* \"#utility.yul\":19494:19500   */\n      dup9\n        /* \"#utility.yul\":19430:19508   */\n      tag_280\n      jump\t// in\n    tag_394:\n        /* \"#utility.yul\":19422:19508   */\n      swap1\n      pop\n        /* \"#utility.yul\":19518:19590   */\n      tag_395\n        /* \"#utility.yul\":19586:19588   */\n      0x40\n        /* \"#utility.yul\":19575:19584   */\n      dup4\n        /* \"#utility.yul\":19571:19589   */\n      add\n        /* \"#utility.yul\":19562:19568   */\n      dup8\n        /* \"#utility.yul\":19518:19590   */\n      tag_362\n      jump\t// in\n    tag_395:\n        /* \"#utility.yul\":19600:19672   */\n      tag_396\n        /* \"#utility.yul\":19668:19670   */\n      0x60\n        /* \"#utility.yul\":19657:19666   */\n      dup4\n        /* \"#utility.yul\":19653:19671   */\n      add\n        /* \"#utility.yul\":19644:19650   */\n      dup7\n        /* \"#utility.yul\":19600:19672   */\n      tag_236\n      jump\t// in\n    tag_396:\n        /* \"#utility.yul\":19682:19755   */\n      tag_397\n        /* \"#utility.yul\":19750:19753   */\n      0x80\n        /* \"#utility.yul\":19739:19748   */\n      dup4\n        /* \"#utility.yul\":19735:19754   */\n      add\n        /* \"#utility.yul\":19726:19732   */\n      dup6\n        /* \"#utility.yul\":19682:19755   */\n      tag_362\n      jump\t// in\n    tag_397:\n        /* \"#utility.yul\":19765:19836   */\n      tag_398\n        /* \"#utility.yul\":19831:19834   */\n      0xa0\n        /* \"#utility.yul\":19820:19829   */\n      dup4\n        /* \"#utility.yul\":19816:19835   */\n      add\n        /* \"#utility.yul\":19807:19813   */\n      dup5\n        /* \"#utility.yul\":19765:19836   */\n      tag_368\n      jump\t// in\n    tag_398:\n        /* \"#utility.yul\":18981:19843   */\n      swap8\n      swap7\n      pop\n      pop\n      pop\n      pop\n      pop\n      pop\n      pop\n      jump\t// out\n        /* \"#utility.yul\":19849:20310   */\n    tag_147:\n        /* \"#utility.yul\":20009:20013   */\n      0x00\n        /* \"#utility.yul\":20047:20049   */\n      0x40\n        /* \"#utility.yul\":20036:20045   */\n      dup3\n        /* \"#utility.yul\":20032:20050   */\n      add\n        /* \"#utility.yul\":20024:20050   */\n      swap1\n      pop\n        /* \"#utility.yul\":20060:20131   */\n      tag_400\n        /* \"#utility.yul\":20128:20129   */\n      0x00\n        /* \"#utility.yul\":20117:20126   */\n      dup4\n        /* \"#utility.yul\":20113:20130   */\n      add\n        /* \"#utility.yul\":20104:20110   */\n      dup6\n        /* \"#utility.yul\":20060:20131   */\n      tag_362\n      jump\t// in\n    tag_400:\n        /* \"#utility.yul\":20178:20187   */\n      dup2\n        /* \"#utility.yul\":20172:20176   */\n      dup2\n        /* \"#utility.yul\":20168:20188   */\n      sub\n        /* \"#utility.yul\":20163:20165   */\n      0x20\n        /* \"#utility.yul\":20152:20161   */\n      dup4\n        /* \"#utility.yul\":20148:20166   */\n      add\n        /* \"#utility.yul\":20141:20189   */\n      mstore\n        /* \"#utility.yul\":20206:20303   */\n      tag_401\n        /* \"#utility.yul\":20298:20302   */\n      dup2\n        /* \"#utility.yul\":20289:20295   */\n      dup5\n        /* \"#utility.yul\":20206:20303   */\n      tag_346\n      jump\t// in\n    tag_401:\n        /* \"#utility.yul\":20198:20303   */\n      swap1\n      pop\n        /* \"#utility.yul\":19849:20310   */\n      swap4\n      swap3\n      pop\n      pop\n      pop\n      jump\t// out\n        /* \"#utility.yul\":20316:20648   */\n    tag_64:\n        /* \"#utility.yul\":20437:20441   */\n      0x00\n        /* \"#utility.yul\":20475:20477   */\n      0x40\n        /* \"#utility.yul\":20464:20473   */\n      dup3\n        /* \"#utility.yul\":20460:20478   */\n      add\n        /* \"#utility.yul\":20452:20478   */\n      swap1\n      pop\n        /* \"#utility.yul\":20488:20559   */\n      tag_403\n        /* \"#utility.yul\":20556:20557   */\n      0x00\n        /* \"#utility.yul\":20545:20554   */\n      dup4\n        /* \"#utility.yul\":20541:20558   */\n      add\n        /* \"#utility.yul\":20532:20538   */\n      dup6\n        /* \"#utility.yul\":20488:20559   */\n      tag_362\n      jump\t// in\n    tag_403:\n        /* \"#utility.yul\":20569:20641   */\n      tag_404\n        /* \"#utility.yul\":20637:20639   */\n      0x20\n        /* \"#utility.yul\":20626:20635   */\n      dup4\n        /* \"#utility.yul\":20622:20640   */\n      add\n        /* \"#utility.yul\":20613:20619   */\n      dup5\n        /* \"#utility.yul\":20569:20641   */\n      tag_362\n      jump\t// in\n    tag_404:\n        /* \"#utility.yul\":20316:20648   */\n      swap4\n      swap3\n      pop\n      pop\n      pop\n      jump\t// out\n        /* \"#utility.yul\":20654:21405   */\n    tag_92:\n        /* \"#utility.yul\":20877:20881   */\n      0x00\n        /* \"#utility.yul\":20915:20918   */\n      0xa0\n        /* \"#utility.yul\":20904:20913   */\n      dup3\n        /* \"#utility.yul\":20900:20919   */\n      add\n        /* \"#utility.yul\":20892:20919   */\n      swap1\n      pop\n        /* \"#utility.yul\":20929:21000   */\n      tag_406\n        /* \"#utility.yul\":20997:20998   */\n      0x00\n        /* \"#utility.yul\":20986:20995   */\n      dup4\n        /* \"#utility.yul\":20982:20999   */\n      add\n        /* \"#utility.yul\":20973:20979   */\n      dup9\n        /* \"#utility.yul\":20929:21000   */\n      tag_362\n      jump\t// in\n    tag_406:\n        /* \"#utility.yul\":21010:21082   */\n      tag_407\n        /* \"#utility.yul\":21078:21080   */\n      0x20\n        /* \"#utility.yul\":21067:21076   */\n      dup4\n        /* \"#utility.yul\":21063:21081   */\n      add\n        /* \"#utility.yul\":21054:21060   */\n      dup8\n        /* \"#utility.yul\":21010:21082   */\n      tag_362\n      jump\t// in\n    tag_407:\n        /* \"#utility.yul\":21129:21138   */\n      dup2\n        /* \"#utility.yul\":21123:21127   */\n      dup2\n        /* \"#utility.yul\":21119:21139   */\n      sub\n        /* \"#utility.yul\":21114:21116   */\n      0x40\n        /* \"#utility.yul\":21103:21112   */\n      dup4\n        /* \"#utility.yul\":21099:21117   */\n      add\n        /* \"#utility.yul\":21092:21140   */\n      mstore\n        /* \"#utility.yul\":21157:21235   */\n      tag_408\n        /* \"#utility.yul\":21230:21234   */\n      dup2\n        /* \"#utility.yul\":21221:21227   */\n      dup7\n        /* \"#utility.yul\":21157:21235   */\n      tag_280\n      jump\t// in\n    tag_408:\n        /* \"#utility.yul\":21149:21235   */\n      swap1\n      pop\n        /* \"#utility.yul\":21245:21315   */\n      tag_409\n        /* \"#utility.yul\":21311:21313   */\n      0x60\n        /* \"#utility.yul\":21300:21309   */\n      dup4\n        /* \"#utility.yul\":21296:21314   */\n      add\n        /* \"#utility.yul\":21287:21293   */\n      dup6\n        /* \"#utility.yul\":21245:21315   */\n      tag_368\n      jump\t// in\n    tag_409:\n        /* \"#utility.yul\":21325:21398   */\n      tag_410\n        /* \"#utility.yul\":21393:21396   */\n      0x80\n        /* \"#utility.yul\":21382:21391   */\n      dup4\n        /* \"#utility.yul\":21378:21397   */\n      add\n        /* \"#utility.yul\":21369:21375   */\n      dup5\n        /* \"#utility.yul\":21325:21398   */\n      tag_362\n      jump\t// in\n    tag_410:\n        /* \"#utility.yul\":20654:21405   */\n      swap7\n      swap6\n      pop\n      pop\n      pop\n      pop\n      pop\n      pop\n      jump\t// out\n        /* \"#utility.yul\":21411:21540   */\n    tag_182:\n        /* \"#utility.yul\":21445:21451   */\n      0x00\n        /* \"#utility.yul\":21472:21492   */\n      tag_412\n      tag_413\n      jump\t// in\n    tag_412:\n        /* \"#utility.yul\":21462:21492   */\n      swap1\n      pop\n        /* \"#utility.yul\":21501:21534   */\n      tag_414\n        /* \"#utility.yul\":21529:21533   */\n      dup3\n        /* \"#utility.yul\":21521:21527   */\n      dup3\n        /* \"#utility.yul\":21501:21534   */\n      tag_415\n      jump\t// in\n    tag_414:\n        /* \"#utility.yul\":21411:21540   */\n      swap2\n      swap1\n      pop\n      jump\t// out\n        /* \"#utility.yul\":21546:21621   */\n    tag_413:\n        /* \"#utility.yul\":21579:21585   */\n      0x00\n        /* \"#utility.yul\":21612:21614   */\n      0x40\n        /* \"#utility.yul\":21606:21615   */\n      mload\n        /* \"#utility.yul\":21596:21615   */\n      swap1\n      pop\n        /* \"#utility.yul\":21546:21621   */\n      swap1\n      jump\t// out\n        /* \"#utility.yul\":21627:21935   */\n    tag_181:\n        /* \"#utility.yul\":21689:21693   */\n      0x00\n        /* \"#utility.yul\":21779:21797   */\n      0xffffffffffffffff\n        /* \"#utility.yul\":21771:21777   */\n      dup3\n        /* \"#utility.yul\":21768:21798   */\n      gt\n        /* \"#utility.yul\":21765:21821   */\n      iszero\n      tag_418\n      jumpi\n        /* \"#utility.yul\":21801:21819   */\n      tag_419\n      tag_420\n      jump\t// in\n    tag_419:\n        /* \"#utility.yul\":21765:21821   */\n    tag_418:\n        /* \"#utility.yul\":21839:21868   */\n      tag_421\n        /* \"#utility.yul\":21861:21867   */\n      dup3\n        /* \"#utility.yul\":21839:21868   */\n      tag_279\n      jump\t// in\n    tag_421:\n        /* \"#utility.yul\":21831:21868   */\n      swap1\n      pop\n        /* \"#utility.yul\":21923:21927   */\n      0x20\n        /* \"#utility.yul\":21917:21921   */\n      dup2\n        /* \"#utility.yul\":21913:21928   */\n      add\n        /* \"#utility.yul\":21905:21928   */\n      swap1\n      pop\n        /* \"#utility.yul\":21627:21935   */\n      swap2\n      swap1\n      pop\n      jump\t// out\n        /* \"#utility.yul\":21941:22094   */\n    tag_246:\n        /* \"#utility.yul\":22029:22033   */\n      0x00\n        /* \"#utility.yul\":22052:22055   */\n      dup2\n        /* \"#utility.yul\":22044:22055   */\n      swap1\n      pop\n        /* \"#utility.yul\":22082:22086   */\n      0x20\n        /* \"#utility.yul\":22077:22080   */\n      dup3\n        /* \"#utility.yul\":22073:22087   */\n      add\n        /* \"#utility.yul\":22065:22087   */\n      swap1\n      pop\n        /* \"#utility.yul\":21941:22094   */\n      swap2\n      swap1\n      pop\n      jump\t// out\n        /* \"#utility.yul\":22100:22274   */\n    tag_259:\n        /* \"#utility.yul\":22182:22186   */\n      0x00\n        /* \"#utility.yul\":22205:22208   */\n      dup2\n        /* \"#utility.yul\":22197:22208   */\n      swap1\n      pop\n        /* \"#utility.yul\":22228:22231   */\n      dup2\n        /* \"#utility.yul\":22225:22226   */\n      0x00\n        /* \"#utility.yul\":22218:22232   */\n      mstore\n        /* \"#utility.yul\":22262:22266   */\n      0x20\n        /* \"#utility.yul\":22259:22260   */\n      0x00\n        /* \"#utility.yul\":22249:22267   */\n      keccak256\n        /* \"#utility.yul\":22241:22267   */\n      swap1\n      pop\n        /* \"#utility.yul\":22100:22274   */\n      swap2\n      swap1\n      pop\n      jump\t// out\n        /* \"#utility.yul\":22280:22421   */\n    tag_295:\n        /* \"#utility.yul\":22329:22333   */\n      0x00\n        /* \"#utility.yul\":22352:22355   */\n      dup2\n        /* \"#utility.yul\":22344:22355   */\n      swap1\n      pop\n        /* \"#utility.yul\":22375:22378   */\n      dup2\n        /* \"#utility.yul\":22372:22373   */\n      0x00\n        /* \"#utility.yul\":22365:22379   */\n      mstore\n        /* \"#utility.yul\":22409:22413   */\n      0x20\n        /* \"#utility.yul\":22406:22407   */\n      0x00\n        /* \"#utility.yul\":22396:22414   */\n      keccak256\n        /* \"#utility.yul\":22388:22414   */\n      swap1\n      pop\n        /* \"#utility.yul\":22280:22421   */\n      swap2\n      swap1\n      pop\n      jump\t// out\n        /* \"#utility.yul\":22427:22562   */\n    tag_242:\n        /* \"#utility.yul\":22515:22521   */\n      0x00\n        /* \"#utility.yul\":22549:22554   */\n      dup2\n        /* \"#utility.yul\":22543:22555   */\n      mload\n        /* \"#utility.yul\":22533:22555   */\n      swap1\n      pop\n        /* \"#utility.yul\":22427:22562   */\n      swap2\n      swap1\n      pop\n      jump\t// out\n        /* \"#utility.yul\":22568:22697   */\n    tag_256:\n        /* \"#utility.yul\":22650:22656   */\n      0x00\n        /* \"#utility.yul\":22684:22689   */\n      dup2\n        /* \"#utility.yul\":22678:22690   */\n      sload\n        /* \"#utility.yul\":22668:22690   */\n      swap1\n      pop\n        /* \"#utility.yul\":22568:22697   */\n      swap2\n      swap1\n      pop\n      jump\t// out\n        /* \"#utility.yul\":22703:22802   */\n    tag_273:\n        /* \"#utility.yul\":22755:22761   */\n      0x00\n        /* \"#utility.yul\":22789:22794   */\n      dup2\n        /* \"#utility.yul\":22783:22795   */\n      mload\n        /* \"#utility.yul\":22773:22795   */\n      swap1\n      pop\n        /* \"#utility.yul\":22703:22802   */\n      swap2\n      swap1\n      pop\n      jump\t// out\n        /* \"#utility.yul\":22808:22942   */\n    tag_252:\n        /* \"#utility.yul\":22899:22903   */\n      0x00\n        /* \"#utility.yul\":22931:22935   */\n      0x20\n        /* \"#utility.yul\":22926:22929   */\n      dup3\n        /* \"#utility.yul\":22922:22936   */\n      add\n        /* \"#utility.yul\":22914:22936   */\n      swap1\n      pop\n        /* \"#utility.yul\":22808:22942   */\n      swap2\n      swap1\n      pop\n      jump\t// out\n        /* \"#utility.yul\":22948:23076   */\n    tag_265:\n        /* \"#utility.yul\":23033:23037   */\n      0x00\n        /* \"#utility.yul\":23065:23069   */\n      0x06\n        /* \"#utility.yul\":23060:23063   */\n      dup3\n        /* \"#utility.yul\":23056:23070   */\n      add\n        /* \"#utility.yul\":23048:23070   */\n      swap1\n      pop\n        /* \"#utility.yul\":22948:23076   */\n      swap2\n      swap1\n      pop\n      jump\t// out\n        /* \"#utility.yul\":23082:23287   */\n    tag_244:\n        /* \"#utility.yul\":23202:23213   */\n      0x00\n        /* \"#utility.yul\":23236:23242   */\n      dup3\n        /* \"#utility.yul\":23231:23234   */\n      dup3\n        /* \"#utility.yul\":23224:23243   */\n      mstore\n        /* \"#utility.yul\":23276:23280   */\n      0x20\n        /* \"#utility.yul\":23271:23274   */\n      dup3\n        /* \"#utility.yul\":23267:23281   */\n      add\n        /* \"#utility.yul\":23252:23281   */\n      swap1\n      pop\n        /* \"#utility.yul\":23082:23287   */\n      swap3\n      swap2\n      pop\n      pop\n      jump\t// out\n        /* \"#utility.yul\":23293:23452   */\n    tag_275:\n        /* \"#utility.yul\":23367:23378   */\n      0x00\n        /* \"#utility.yul\":23401:23407   */\n      dup3\n        /* \"#utility.yul\":23396:23399   */\n      dup3\n        /* \"#utility.yul\":23389:23408   */\n      mstore\n        /* \"#utility.yul\":23441:23445   */\n      0x20\n        /* \"#utility.yul\":23436:23439   */\n      dup3\n        /* \"#utility.yul\":23432:23446   */\n      add\n        /* \"#utility.yul\":23417:23446   */\n      swap1\n      pop\n        /* \"#utility.yul\":23293:23452   */\n      swap3\n      swap2\n      pop\n      pop\n      jump\t// out\n        /* \"#utility.yul\":23458:23627   */\n    tag_284:\n        /* \"#utility.yul\":23542:23553   */\n      0x00\n        /* \"#utility.yul\":23576:23582   */\n      dup3\n        /* \"#utility.yul\":23571:23574   */\n      dup3\n        /* \"#utility.yul\":23564:23583   */\n      mstore\n        /* \"#utility.yul\":23616:23620   */\n      0x20\n        /* \"#utility.yul\":23611:23614   */\n      dup3\n        /* \"#utility.yul\":23607:23621   */\n      add\n        /* \"#utility.yul\":23592:23621   */\n      swap1\n      pop\n        /* \"#utility.yul\":23458:23627   */\n      swap3\n      swap2\n      pop\n      pop\n      jump\t// out\n        /* \"#utility.yul\":23633:23772   */\n    tag_433:\n        /* \"#utility.yul\":23683:23690   */\n      0x00\n        /* \"#utility.yul\":23723:23765   */\n      0xffffffffffffffffffffffffffffffffffffffff\n        /* \"#utility.yul\":23716:23721   */\n      dup3\n        /* \"#utility.yul\":23712:23766   */\n      and\n        /* \"#utility.yul\":23701:23766   */\n      swap1\n      pop\n        /* \"#utility.yul\":23633:23772   */\n      swap2\n      swap1\n      pop\n      jump\t// out\n        /* \"#utility.yul\":23778:23868   */\n    tag_435:\n        /* \"#utility.yul\":23828:23835   */\n      0x00\n        /* \"#utility.yul\":23857:23862   */\n      dup2\n        /* \"#utility.yul\":23846:23862   */\n      swap1\n      pop\n        /* \"#utility.yul\":23778:23868   */\n      swap2\n      swap1\n      pop\n      jump\t// out\n        /* \"#utility.yul\":23874:23980   */\n    tag_437:\n        /* \"#utility.yul\":23923:23930   */\n      0x00\n        /* \"#utility.yul\":23963:23973   */\n      0xffffffff\n        /* \"#utility.yul\":23956:23961   */\n      dup3\n        /* \"#utility.yul\":23952:23974   */\n      and\n        /* \"#utility.yul\":23941:23974   */\n      swap1\n      pop\n        /* \"#utility.yul\":23874:23980   */\n      swap2\n      swap1\n      pop\n      jump\t// out\n        /* \"#utility.yul\":23986:24082   */\n    tag_235:\n        /* \"#utility.yul\":24023:24030   */\n      0x00\n        /* \"#utility.yul\":24052:24076   */\n      tag_440\n        /* \"#utility.yul\":24070:24075   */\n      dup3\n        /* \"#utility.yul\":24052:24076   */\n      tag_441\n      jump\t// in\n    tag_440:\n        /* \"#utility.yul\":24041:24076   */\n      swap1\n      pop\n        /* \"#utility.yul\":23986:24082   */\n      swap2\n      swap1\n      pop\n      jump\t// out\n        /* \"#utility.yul\":24088:24214   */\n    tag_441:\n        /* \"#utility.yul\":24125:24132   */\n      0x00\n        /* \"#utility.yul\":24165:24207   */\n      0xffffffffffffffffffffffffffffffffffffffff\n        /* \"#utility.yul\":24158:24163   */\n      dup3\n        /* \"#utility.yul\":24154:24208   */\n      and\n        /* \"#utility.yul\":24143:24208   */\n      swap1\n      pop\n        /* \"#utility.yul\":24088:24214   */\n      swap2\n      swap1\n      pop\n      jump\t// out\n        /* \"#utility.yul\":24220:24297   */\n    tag_361:\n        /* \"#utility.yul\":24257:24264   */\n      0x00\n        /* \"#utility.yul\":24286:24291   */\n      dup2\n        /* \"#utility.yul\":24275:24291   */\n      swap1\n      pop\n        /* \"#utility.yul\":24220:24297   */\n      swap2\n      swap1\n      pop\n      jump\t// out\n        /* \"#utility.yul\":24303:24396   */\n    tag_367:\n        /* \"#utility.yul\":24339:24346   */\n      0x00\n        /* \"#utility.yul\":24379:24389   */\n      0xffffffff\n        /* \"#utility.yul\":24372:24377   */\n      dup3\n        /* \"#utility.yul\":24368:24390   */\n      and\n        /* \"#utility.yul\":24357:24390   */\n      swap1\n      pop\n        /* \"#utility.yul\":24303:24396   */\n      swap2\n      swap1\n      pop\n      jump\t// out\n        /* \"#utility.yul\":24402:24542   */\n    tag_269:\n        /* \"#utility.yul\":24466:24475   */\n      0x00\n        /* \"#utility.yul\":24499:24536   */\n      tag_446\n        /* \"#utility.yul\":24530:24535   */\n      dup3\n        /* \"#utility.yul\":24499:24536   */\n      tag_447\n      jump\t// in\n    tag_446:\n        /* \"#utility.yul\":24486:24536   */\n      swap1\n      pop\n        /* \"#utility.yul\":24402:24542   */\n      swap2\n      swap1\n      pop\n      jump\t// out\n        /* \"#utility.yul\":24548:24674   */\n    tag_447:\n        /* \"#utility.yul\":24598:24607   */\n      0x00\n        /* \"#utility.yul\":24631:24668   */\n      tag_449\n        /* \"#utility.yul\":24662:24667   */\n      dup3\n        /* \"#utility.yul\":24631:24668   */\n      tag_450\n      jump\t// in\n    tag_449:\n        /* \"#utility.yul\":24618:24668   */\n      swap1\n      pop\n        /* \"#utility.yul\":24548:24674   */\n      swap2\n      swap1\n      pop\n      jump\t// out\n        /* \"#utility.yul\":24680:24793   */\n    tag_450:\n        /* \"#utility.yul\":24730:24739   */\n      0x00\n        /* \"#utility.yul\":24763:24787   */\n      tag_452\n        /* \"#utility.yul\":24781:24786   */\n      dup3\n        /* \"#utility.yul\":24763:24787   */\n      tag_441\n      jump\t// in\n    tag_452:\n        /* \"#utility.yul\":24750:24787   */\n      swap1\n      pop\n        /* \"#utility.yul\":24680:24793   */\n      swap2\n      swap1\n      pop\n      jump\t// out\n        /* \"#utility.yul\":24799:24953   */\n    tag_187:\n        /* \"#utility.yul\":24883:24889   */\n      dup3\n        /* \"#utility.yul\":24878:24881   */\n      dup2\n        /* \"#utility.yul\":24873:24876   */\n      dup4\n        /* \"#utility.yul\":24860:24890   */\n      calldatacopy\n        /* \"#utility.yul\":24945:24946   */\n      0x00\n        /* \"#utility.yul\":24936:24942   */\n      dup4\n        /* \"#utility.yul\":24931:24934   */\n      dup4\n        /* \"#utility.yul\":24927:24943   */\n      add\n        /* \"#utility.yul\":24920:24947   */\n      mstore\n        /* \"#utility.yul\":24799:24953   */\n      pop\n      pop\n      pop\n      jump\t// out\n        /* \"#utility.yul\":24959:25266   */\n    tag_277:\n        /* \"#utility.yul\":25027:25028   */\n      0x00\n        /* \"#utility.yul\":25037:25150   */\n    tag_455:\n        /* \"#utility.yul\":25051:25057   */\n      dup4\n        /* \"#utility.yul\":25048:25049   */\n      dup2\n        /* \"#utility.yul\":25045:25058   */\n      lt\n        /* \"#utility.yul\":25037:25150   */\n      iszero\n      tag_457\n      jumpi\n        /* \"#utility.yul\":25136:25137   */\n      dup1\n        /* \"#utility.yul\":25131:25134   */\n      dup3\n        /* \"#utility.yul\":25127:25138   */\n      add\n        /* \"#utility.yul\":25121:25139   */\n      mload\n        /* \"#utility.yul\":25117:25118   */\n      dup2\n        /* \"#utility.yul\":25112:25115   */\n      dup5\n        /* \"#utility.yul\":25108:25119   */\n      add\n        /* \"#utility.yul\":25101:25140   */\n      mstore\n        /* \"#utility.yul\":25073:25075   */\n      0x20\n        /* \"#utility.yul\":25070:25071   */\n      dup2\n        /* \"#utility.yul\":25066:25076   */\n      add\n        /* \"#utility.yul\":25061:25076   */\n      swap1\n      pop\n        /* \"#utility.yul\":25037:25150   */\n      jump(tag_455)\n    tag_457:\n        /* \"#utility.yul\":25168:25174   */\n      dup4\n        /* \"#utility.yul\":25165:25166   */\n      dup2\n        /* \"#utility.yul\":25162:25175   */\n      gt\n        /* \"#utility.yul\":25159:25260   */\n      iszero\n      tag_458\n      jumpi\n        /* \"#utility.yul\":25248:25249   */\n      0x00\n        /* \"#utility.yul\":25239:25245   */\n      dup5\n        /* \"#utility.yul\":25234:25237   */\n      dup5\n        /* \"#utility.yul\":25230:25246   */\n      add\n        /* \"#utility.yul\":25223:25250   */\n      mstore\n        /* \"#utility.yul\":25159:25260   */\n    tag_458:\n        /* \"#utility.yul\":25008:25266   */\n      pop\n        /* \"#utility.yul\":24959:25266   */\n      pop\n      pop\n      pop\n      jump\t// out\n        /* \"#utility.yul\":25272:25592   */\n    tag_54:\n        /* \"#utility.yul\":25316:25322   */\n      0x00\n        /* \"#utility.yul\":25353:25354   */\n      0x02\n        /* \"#utility.yul\":25347:25351   */\n      dup3\n        /* \"#utility.yul\":25343:25355   */\n      div\n        /* \"#utility.yul\":25333:25355   */\n      swap1\n      pop\n        /* \"#utility.yul\":25400:25401   */\n      0x01\n        /* \"#utility.yul\":25394:25398   */\n      dup3\n        /* \"#utility.yul\":25390:25402   */\n      and\n        /* \"#utility.yul\":25421:25439   */\n      dup1\n        /* \"#utility.yul\":25411:25492   */\n      tag_460\n      jumpi\n        /* \"#utility.yul\":25477:25481   */\n      0x7f\n        /* \"#utility.yul\":25469:25475   */\n      dup3\n        /* \"#utility.yul\":25465:25482   */\n      and\n        /* \"#utility.yul\":25455:25482   */\n      swap2\n      pop\n        /* \"#utility.yul\":25411:25492   */\n    tag_460:\n        /* \"#utility.yul\":25539:25541   */\n      0x20\n        /* \"#utility.yul\":25531:25537   */\n      dup3\n        /* \"#utility.yul\":25528:25542   */\n      lt\n        /* \"#utility.yul\":25508:25526   */\n      dup2\n        /* \"#utility.yul\":25505:25543   */\n      eq\n        /* \"#utility.yul\":25502:25586   */\n      iszero\n      tag_461\n      jumpi\n        /* \"#utility.yul\":25558:25576   */\n      tag_462\n      tag_463\n      jump\t// in\n    tag_462:\n        /* \"#utility.yul\":25502:25586   */\n    tag_461:\n        /* \"#utility.yul\":25323:25592   */\n      pop\n        /* \"#utility.yul\":25272:25592   */\n      swap2\n      swap1\n      pop\n      jump\t// out\n        /* \"#utility.yul\":25598:25764   */\n    tag_339:\n        /* \"#utility.yul\":25667:25672   */\n      0x00\n        /* \"#utility.yul\":25692:25758   */\n      tag_465\n        /* \"#utility.yul\":25723:25757   */\n      tag_466\n        /* \"#utility.yul\":25746:25756   */\n      dup4\n        /* \"#utility.yul\":25723:25757   */\n      tag_467\n      jump\t// in\n    tag_466:\n        /* \"#utility.yul\":25692:25758   */\n      tag_433\n      jump\t// in\n    tag_465:\n        /* \"#utility.yul\":25683:25758   */\n      swap1\n      pop\n        /* \"#utility.yul\":25598:25764   */\n      swap2\n      swap1\n      pop\n      jump\t// out\n        /* \"#utility.yul\":25770:25936   */\n    tag_333:\n        /* \"#utility.yul\":25839:25844   */\n      0x00\n        /* \"#utility.yul\":25864:25930   */\n      tag_469\n        /* \"#utility.yul\":25895:25929   */\n      tag_470\n        /* \"#utility.yul\":25918:25928   */\n      dup4\n        /* \"#utility.yul\":25895:25929   */\n      tag_467\n      jump\t// in\n    tag_470:\n        /* \"#utility.yul\":25864:25930   */\n      tag_435\n      jump\t// in\n    tag_469:\n        /* \"#utility.yul\":25855:25930   */\n      swap1\n      pop\n        /* \"#utility.yul\":25770:25936   */\n      swap2\n      swap1\n      pop\n      jump\t// out\n        /* \"#utility.yul\":25942:26106   */\n    tag_344:\n        /* \"#utility.yul\":26010:26015   */\n      0x00\n        /* \"#utility.yul\":26035:26100   */\n      tag_472\n        /* \"#utility.yul\":26065:26099   */\n      tag_473\n        /* \"#utility.yul\":26088:26098   */\n      dup4\n        /* \"#utility.yul\":26065:26099   */\n      tag_467\n      jump\t// in\n    tag_473:\n        /* \"#utility.yul\":26035:26100   */\n      tag_437\n      jump\t// in\n    tag_472:\n        /* \"#utility.yul\":26026:26100   */\n      swap1\n      pop\n        /* \"#utility.yul\":25942:26106   */\n      swap2\n      swap1\n      pop\n      jump\t// out\n        /* \"#utility.yul\":26112:26393   */\n    tag_415:\n        /* \"#utility.yul\":26195:26222   */\n      tag_475\n        /* \"#utility.yul\":26217:26221   */\n      dup3\n        /* \"#utility.yul\":26195:26222   */\n      tag_279\n      jump\t// in\n    tag_475:\n        /* \"#utility.yul\":26187:26193   */\n      dup2\n        /* \"#utility.yul\":26183:26223   */\n      add\n        /* \"#utility.yul\":26325:26331   */\n      dup2\n        /* \"#utility.yul\":26313:26323   */\n      dup2\n        /* \"#utility.yul\":26310:26332   */\n      lt\n        /* \"#utility.yul\":26289:26307   */\n      0xffffffffffffffff\n        /* \"#utility.yul\":26277:26287   */\n      dup3\n        /* \"#utility.yul\":26274:26308   */\n      gt\n        /* \"#utility.yul\":26271:26333   */\n      or\n        /* \"#utility.yul\":26268:26356   */\n      iszero\n      tag_476\n      jumpi\n        /* \"#utility.yul\":26336:26354   */\n      tag_477\n      tag_420\n      jump\t// in\n    tag_477:\n        /* \"#utility.yul\":26268:26356   */\n    tag_476:\n        /* \"#utility.yul\":26376:26386   */\n      dup1\n        /* \"#utility.yul\":26372:26374   */\n      0x40\n        /* \"#utility.yul\":26365:26387   */\n      mstore\n        /* \"#utility.yul\":26155:26393   */\n      pop\n        /* \"#utility.yul\":26112:26393   */\n      pop\n      pop\n      jump\t// out\n        /* \"#utility.yul\":26399:26632   */\n    tag_62:\n        /* \"#utility.yul\":26438:26441   */\n      0x00\n        /* \"#utility.yul\":26461:26485   */\n      tag_479\n        /* \"#utility.yul\":26479:26484   */\n      dup3\n        /* \"#utility.yul\":26461:26485   */\n      tag_361\n      jump\t// in\n    tag_479:\n        /* \"#utility.yul\":26452:26485   */\n      swap2\n      pop\n        /* \"#utility.yul\":26507:26573   */\n      0xffffffffffffffffffffffffffffffffffffffffffffffffffffffffffffffff\n        /* \"#utility.yul\":26500:26505   */\n      dup3\n        /* \"#utility.yul\":26497:26574   */\n      eq\n        /* \"#utility.yul\":26494:26597   */\n      iszero\n      tag_480\n      jumpi\n        /* \"#utility.yul\":26577:26595   */\n      tag_481\n      tag_482\n      jump\t// in\n    tag_481:\n        /* \"#utility.yul\":26494:26597   */\n    tag_480:\n        /* \"#utility.yul\":26624:26625   */\n      0x01\n        /* \"#utility.yul\":26617:26622   */\n      dup3\n        /* \"#utility.yul\":26613:26626   */\n      add\n        /* \"#utility.yul\":26606:26626   */\n      swap1\n      pop\n        /* \"#utility.yul\":26399:26632   */\n      swap2\n      swap1\n      pop\n      jump\t// out\n        /* \"#utility.yul\":26638:26818   */\n    tag_482:\n        /* \"#utility.yul\":26686:26763   */\n      0x4e487b7100000000000000000000000000000000000000000000000000000000\n        /* \"#utility.yul\":26683:26684   */\n      0x00\n        /* \"#utility.yul\":26676:26764   */\n      mstore\n        /* \"#utility.yul\":26783:26787   */\n      0x11\n        /* \"#utility.yul\":26780:26781   */\n      0x04\n        /* \"#utility.yul\":26773:26788   */\n      mstore\n        /* \"#utility.yul\":26807:26811   */\n      0x24\n        /* \"#utility.yul\":26804:26805   */\n      0x00\n        /* \"#utility.yul\":26797:26812   */\n      revert\n        /* \"#utility.yul\":26824:27004   */\n    tag_463:\n        /* \"#utility.yul\":26872:26949   */\n      0x4e487b7100000000000000000000000000000000000000000000000000000000\n        /* \"#utility.yul\":26869:26870   */\n      0x00\n        /* \"#utility.yul\":26862:26950   */\n      mstore\n        /* \"#utility.yul\":26969:26973   */\n      0x22\n        /* \"#utility.yul\":26966:26967   */\n      0x04\n        /* \"#utility.yul\":26959:26974   */\n      mstore\n        /* \"#utility.yul\":26993:26997   */\n      0x24\n        /* \"#utility.yul\":26990:26991   */\n      0x00\n        /* \"#utility.yul\":26983:26998   */\n      revert\n        /* \"#utility.yul\":27010:27190   */\n    tag_420:\n        /* \"#utility.yul\":27058:27135   */\n      0x4e487b7100000000000000000000000000000000000000000000000000000000\n        /* \"#utility.yul\":27055:27056   */\n      0x00\n        /* \"#utility.yul\":27048:27136   */\n      mstore\n        /* \"#utility.yul\":27155:27159   */\n      0x41\n        /* \"#utility.yul\":27152:27153   */\n      0x04\n        /* \"#utility.yul\":27145:27160   */\n      mstore\n        /* \"#utility.yul\":27179:27183   */\n      0x24\n        /* \"#utility.yul\":27176:27177   */\n      0x00\n        /* \"#utility.yul\":27169:27184   */\n      revert\n        /* \"#utility.yul\":27196:27313   */\n    tag_196:\n        /* \"#utility.yul\":27305:27306   */\n      0x00\n        /* \"#utility.yul\":27302:27303   */\n      dup1\n        /* \"#utility.yul\":27295:27307   */\n      revert\n        /* \"#utility.yul\":27319:27436   */\n    tag_185:\n        /* \"#utility.yul\":27428:27429   */\n      0x00\n        /* \"#utility.yul\":27425:27426   */\n      dup1\n        /* \"#utility.yul\":27418:27430   */\n      revert\n        /* \"#utility.yul\":27442:27559   */\n    tag_221:\n        /* \"#utility.yul\":27551:27552   */\n      0x00\n        /* \"#utility.yul\":27548:27549   */\n      dup1\n        /* \"#utility.yul\":27541:27553   */\n      revert\n        /* \"#utility.yul\":27565:27682   */\n    tag_209:\n        /* \"#utility.yul\":27674:27675   */\n      0x00\n        /* \"#utility.yul\":27671:27672   */\n      dup1\n        /* \"#utility.yul\":27664:27676   */\n      revert\n        /* \"#utility.yul\":27688:27790   */\n    tag_279:\n        /* \"#utility.yul\":27729:27735   */\n      0x00\n        /* \"#utility.yul\":27780:27782   */\n      0x1f\n        /* \"#utility.yul\":27776:27783   */\n      not\n        /* \"#utility.yul\":27771:27773   */\n      0x1f\n        /* \"#utility.yul\":27764:27769   */\n      dup4\n        /* \"#utility.yul\":27760:27774   */\n      add\n        /* \"#utility.yul\":27756:27784   */\n      and\n        /* \"#utility.yul\":27746:27784   */\n      swap1\n      pop\n        /* \"#utility.yul\":27688:27790   */\n      swap2\n      swap1\n      pop\n      jump\t// out\n        /* \"#utility.yul\":27796:27898   */\n    tag_467:\n        /* \"#utility.yul\":27838:27846   */\n      0x00\n        /* \"#utility.yul\":27885:27890   */\n      dup2\n        /* \"#utility.yul\":27882:27883   */\n      0x00\n        /* \"#utility.yul\":27878:27891   */\n      shr\n        /* \"#utility.yul\":27857:27891   */\n      swap1\n      pop\n        /* \"#utility.yul\":27796:27898   */\n      swap2\n      swap1\n      pop\n      jump\t// out\n        /* \"#utility.yul\":27904:28125   */\n    tag_303:\n        /* \"#utility.yul\":28044:28078   */\n      0x546865726520617265206e6f2070726f647563747320746f206c697374207965\n        /* \"#utility.yul\":28040:28041   */\n      0x00\n        /* \"#utility.yul\":28032:28038   */\n      dup3\n        /* \"#utility.yul\":28028:28042   */\n      add\n        /* \"#utility.yul\":28021:28079   */\n      mstore\n        /* \"#utility.yul\":28113:28117   */\n      0x7421000000000000000000000000000000000000000000000000000000000000\n        /* \"#utility.yul\":28108:28110   */\n      0x20\n        /* \"#utility.yul\":28100:28106   */\n      dup3\n        /* \"#utility.yul\":28096:28111   */\n      add\n        /* \"#utility.yul\":28089:28118   */\n      mstore\n        /* \"#utility.yul\":27904:28125   */\n      pop\n      jump\t// out\n        /* \"#utility.yul\":28131:28310   */\n    tag_308:\n        /* \"#utility.yul\":28271:28302   */\n      0x5468657265206973206e6f2073756368206974656d207265636f726421000000\n        /* \"#utility.yul\":28267:28268   */\n      0x00\n        /* \"#utility.yul\":28259:28265   */\n      dup3\n        /* \"#utility.yul\":28255:28269   */\n      add\n        /* \"#utility.yul\":28248:28303   */\n      mstore\n        /* \"#utility.yul\":28131:28310   */\n      pop\n      jump\t// out\n        /* \"#utility.yul\":28316:28487   */\n    tag_313:\n        /* \"#utility.yul\":28456:28479   */\n      0x5468652073616c65206861732065787069726564210000000000000000000000\n        /* \"#utility.yul\":28452:28453   */\n      0x00\n        /* \"#utility.yul\":28444:28450   */\n      dup3\n        /* \"#utility.yul\":28440:28454   */\n      add\n        /* \"#utility.yul\":28433:28480   */\n      mstore\n        /* \"#utility.yul\":28316:28487   */\n      pop\n      jump\t// out\n        /* \"#utility.yul\":28493:28615   */\n    tag_191:\n        /* \"#utility.yul\":28566:28590   */\n      tag_496\n        /* \"#utility.yul\":28584:28589   */\n      dup2\n        /* \"#utility.yul\":28566:28590   */\n      tag_235\n      jump\t// in\n    tag_496:\n        /* \"#utility.yul\":28559:28564   */\n      dup2\n        /* \"#utility.yul\":28556:28591   */\n      eq\n        /* \"#utility.yul\":28546:28609   */\n      tag_497\n      jumpi\n        /* \"#utility.yul\":28605:28606   */\n      0x00\n        /* \"#utility.yul\":28602:28603   */\n      dup1\n        /* \"#utility.yul\":28595:28607   */\n      revert\n        /* \"#utility.yul\":28546:28609   */\n    tag_497:\n        /* \"#utility.yul\":28493:28615   */\n      pop\n      jump\t// out\n        /* \"#utility.yul\":28621:28743   */\n    tag_201:\n        /* \"#utility.yul\":28694:28718   */\n      tag_499\n        /* \"#utility.yul\":28712:28717   */\n      dup2\n        /* \"#utility.yul\":28694:28718   */\n      tag_361\n      jump\t// in\n    tag_499:\n        /* \"#utility.yul\":28687:28692   */\n      dup2\n        /* \"#utility.yul\":28684:28719   */\n      eq\n        /* \"#utility.yul\":28674:28737   */\n      tag_500\n      jumpi\n        /* \"#utility.yul\":28733:28734   */\n      0x00\n        /* \"#utility.yul\":28730:28731   */\n      dup1\n        /* \"#utility.yul\":28723:28735   */\n      revert\n        /* \"#utility.yul\":28674:28737   */\n    tag_500:\n        /* \"#utility.yul\":28621:28743   */\n      pop\n      jump\t// out\n        /* \"#utility.yul\":28749:28869   */\n    tag_205:\n        /* \"#utility.yul\":28821:28844   */\n      tag_502\n        /* \"#utility.yul\":28838:28843   */\n      dup2\n        /* \"#utility.yul\":28821:28844   */\n      tag_367\n      jump\t// in\n    tag_502:\n        /* \"#utility.yul\":28814:28819   */\n      dup2\n        /* \"#utility.yul\":28811:28845   */\n      eq\n        /* \"#utility.yul\":28801:28863   */\n      tag_503\n      jumpi\n        /* \"#utility.yul\":28859:28860   */\n      0x00\n        /* \"#utility.yul\":28856:28857   */\n      dup1\n        /* \"#utility.yul\":28849:28861   */\n      revert\n        /* \"#utility.yul\":28801:28863   */\n    tag_503:\n        /* \"#utility.yul\":28749:28869   */\n      pop\n      jump\t// out\n\n    auxdata: 0xa2646970667358221220b19c058c3f9a0dacb5947fda0c4345853bfeaf596b69ff58350019d7587c9f5c64736f6c63430008070033\n}\n",
				"bytecode": {
					"linkReferences": {},
					"object": "60806040523480156200001157600080fd5b506040516200236c3803806200236c833981810160405281019062000037919062000095565b806000806101000a81548173ffffffffffffffffffffffffffffffffffffffff021916908373ffffffffffffffffffffffffffffffffffffffff160217905550506200011a565b6000815190506200008f8162000100565b92915050565b600060208284031215620000ae57620000ad620000fb565b5b6000620000be848285016200007e565b91505092915050565b6000620000d482620000db565b9050919050565b600073ffffffffffffffffffffffffffffffffffffffff82169050919050565b600080fd5b6200010b81620000c7565b81146200011757600080fd5b50565b612242806200012a6000396000f3fe608060405234801561001057600080fd5b50600436106100935760003560e01c8063a87430ba11610066578063a87430ba14610123578063bfb231d214610156578063ca095a831461018b578063cd2f0710146101a7578063fc0c546a146101d757610093565b806301750e74146100985780633d4d3600146100b45780634efd1797146100e95780635d9eb55c14610105575b600080fd5b6100b260048036038101906100ad9190611502565b6101f5565b005b6100ce60048036038101906100c99190611502565b610418565b6040516100e096959493929190611c56565b60405180910390f35b61010360048036038101906100fe919061152f565b61051c565b005b61010d61094e565b60405161011a9190611b07565b60405180910390f35b61013d600480360381019061013891906114d5565b610b74565b60405161014d9493929190611c03565b60405180910390f35b610170600480360381019061016b9190611502565b610cb4565b60405161018296959493929190611c56565b60405180910390f35b6101a560048036038101906101a09190611502565b610da8565b005b6101c160048036038101906101bc9190611502565b611013565b6040516101ce9190611bc6565b60405180910390f35b6101df61121c565b6040516101ec9190611b4b565b60405180910390f35b806000600360008381526020019081526020016000206040518060c00160405290816000820154815260200160018201805461023090611f6d565b80601f016020809104026020016040519081016040528092919081815260200182805461025c90611f6d565b80156102a95780601f1061027e576101008083540402835291602001916102a9565b820191906000526020600020905b81548152906001019060200180831161028c57829003601f168201915b50505050508152602001600282015481526020016003820160009054906101000a900473ffffffffffffffffffffffffffffffffffffffff1673ffffffffffffffffffffffffffffffffffffffff1673ffffffffffffffffffffffffffffffffffffffff168152602001600482015481526020016005820160009054906101000a900463ffffffff1663ffffffff1663ffffffff16815250509050806060015173ffffffffffffffffffffffffffffffffffffffff163373ffffffffffffffffffffffffffffffffffffffff16141561038157600080fd5b6003600084815260200190815260200160002060020160008154809291906103a89061201e565b91905055503373ffffffffffffffffffffffffffffffffffffffff167f1ed364e6f46a455fac23816d3700669ff134c7a5fbe0240f52d932f83410246284600360008781526020019081526020016000206002015460405161040b929190611cee565b60405180910390a2505050565b6001818154811061042857600080fd5b906000526020600020906006020160009150905080600001549080600101805461045190611f6d565b80601f016020809104026020016040519081016040528092919081815260200182805461047d90611f6d565b80156104ca5780601f1061049f576101008083540402835291602001916104ca565b820191906000526020600020905b8154815290600101906020018083116104ad57829003601f168201915b5050505050908060020154908060030160009054906101000a900473ffffffffffffffffffffffffffffffffffffffff16908060040154908060050160009054906101000a900463ffffffff16905086565b6040518060c001604052806105316004611240565b8152602001838152602001600081526020013373ffffffffffffffffffffffffffffffffffffffff1681526020018481526020018263ffffffff168152506003600061057d6004611240565b81526020019081526020016000206000820151816000015560208201518160010190805190602001906105b1929190611264565b506040820151816002015560608201518160030160006101000a81548173ffffffffffffffffffffffffffffffffffffffff021916908373ffffffffffffffffffffffffffffffffffffffff1602179055506080820151816004015560a08201518160050160006101000a81548163ffffffff021916908363ffffffff160217905550905050600260003373ffffffffffffffffffffffffffffffffffffffff1673ffffffffffffffffffffffffffffffffffffffff168152602001908152602001600020600401600360006106876004611240565b815260200190815260200160002090806001815401808255809150506001900390600052602060002090600602016000909190919091506000820154816000015560018201816001019080546106dc90611f6d565b6106e79291906112ea565b50600282015481600201556003820160009054906101000a900473ffffffffffffffffffffffffffffffffffffffff168160030160006101000a81548173ffffffffffffffffffffffffffffffffffffffff021916908373ffffffffffffffffffffffffffffffffffffffff160217905550600482015481600401556005820160009054906101000a900463ffffffff168160050160006101000a81548163ffffffff021916908363ffffffff16021790555050506001600360006107ac6004611240565b8152602001908152602001600020908060018154018082558091505060019003906000526020600020906006020160009091909190915060008201548160000155600182018160010190805461080190611f6d565b61080c9291906112ea565b50600282015481600201556003820160009054906101000a900473ffffffffffffffffffffffffffffffffffffffff168160030160006101000a81548173ffffffffffffffffffffffffffffffffffffffff021916908373ffffffffffffffffffffffffffffffffffffffff160217905550600482015481600401556005820160009054906101000a900463ffffffff168160050160006101000a81548163ffffffff021916908363ffffffff16021790555050506108cb600461124e565b3373ffffffffffffffffffffffffffffffffffffffff167f9a5b8b5cb7f9c536ea5db1a94142c9f716fb3a8698a9c70a5b8bfad3922cb06c61090d6004611240565b8585856003600061091e6004611240565b815260200190815260200160002060020154604051610941959493929190611d17565b60405180910390a2505050565b6060600061095c6004611240565b1161099c576040517f08c379a000000000000000000000000000000000000000000000000000000000815260040161099390611b66565b60405180910390fd5b3373ffffffffffffffffffffffffffffffffffffffff167f440c078a5e11bff85c6b6d7c52f378c8220355bd3331ec889638c0eca883670c60016040516109e39190611b29565b60405180910390a26001805480602002602001604051908101604052809291908181526020016000905b82821015610b6b57838290600052602060002090600602016040518060c001604052908160008201548152602001600182018054610a4a90611f6d565b80601f0160208091040260200160405190810160405280929190818152602001828054610a7690611f6d565b8015610ac35780601f10610a9857610100808354040283529160200191610ac3565b820191906000526020600020905b815481529060010190602001808311610aa657829003601f168201915b50505050508152602001600282015481526020016003820160009054906101000a900473ffffffffffffffffffffffffffffffffffffffff1673ffffffffffffffffffffffffffffffffffffffff1673ffffffffffffffffffffffffffffffffffffffff168152602001600482015481526020016005820160009054906101000a900463ffffffff1663ffffffff1663ffffffff168152505081526020019060010190610a0d565b50505050905090565b6002602052806000526040600020600091509050806000015490806001018054610b9d90611f6d565b80601f0160208091040260200160405190810160405280929190818152602001828054610bc990611f6d565b8015610c165780601f10610beb57610100808354040283529160200191610c16565b820191906000526020600020905b815481529060010190602001808311610bf957829003601f168201915b505050505090806002018054610c2b90611f6d565b80601f0160208091040260200160405190810160405280929190818152602001828054610c5790611f6d565b8015610ca45780601f10610c7957610100808354040283529160200191610ca4565b820191906000526020600020905b815481529060010190602001808311610c8757829003601f168201915b5050505050908060050154905084565b6003602052806000526040600020600091509050806000015490806001018054610cdd90611f6d565b80601f0160208091040260200160405190810160405280929190818152602001828054610d0990611f6d565b8015610d565780601f10610d2b57610100808354040283529160200191610d56565b820191906000526020600020905b815481529060010190602001808311610d3957829003601f168201915b5050505050908060020154908060030160009054906101000a900473ffffffffffffffffffffffffffffffffffffffff16908060040154908060050160009054906101000a900463ffffffff16905086565b806000600360008381526020019081526020016000206040518060c001604052908160008201548152602001600182018054610de390611f6d565b80601f0160208091040260200160405190810160405280929190818152602001828054610e0f90611f6d565b8015610e5c5780601f10610e3157610100808354040283529160200191610e5c565b820191906000526020600020905b815481529060010190602001808311610e3f57829003601f168201915b50505050508152602001600282015481526020016003820160009054906101000a900473ffffffffffffffffffffffffffffffffffffffff1673ffffffffffffffffffffffffffffffffffffffff1673ffffffffffffffffffffffffffffffffffffffff168152602001600482015481526020016005820160009054906101000a900463ffffffff1663ffffffff1663ffffffff16815250509050428160a0015163ffffffff161015610f44576040517f08c379a0000000000000000000000000000000000000000000000000000000008152600401610f3b90611ba6565b60405180910390fd5b60036000848152602001908152602001600020600080820160009055600182016000610f709190611377565b60028201600090556003820160006101000a81549073ffffffffffffffffffffffffffffffffffffffff021916905560048201600090556005820160006101000a81549063ffffffff021916905550503373ffffffffffffffffffffffffffffffffffffffff167f45e4102cd0468b42f71c0179aa78051418c31c018e07a5091eb13b97fadbab5e846040516110069190611be8565b60405180910390a2505050565b61101b6113b7565b816110266004611240565b811115611068576040517f08c379a000000000000000000000000000000000000000000000000000000000815260040161105f90611b86565b60405180910390fd5b3373ffffffffffffffffffffffffffffffffffffffff167fcb718ffb18411374498c1cd31cb4d4c8068af3c5b1546205f14c72bcd20f21ba84600360008781526020019081526020016000206040516110c2929190611cbe565b60405180910390a2600360008481526020019081526020016000206040518060c00160405290816000820154815260200160018201805461110290611f6d565b80601f016020809104026020016040519081016040528092919081815260200182805461112e90611f6d565b801561117b5780601f106111505761010080835404028352916020019161117b565b820191906000526020600020905b81548152906001019060200180831161115e57829003601f168201915b50505050508152602001600282015481526020016003820160009054906101000a900473ffffffffffffffffffffffffffffffffffffffff1673ffffffffffffffffffffffffffffffffffffffff1673ffffffffffffffffffffffffffffffffffffffff168152602001600482015481526020016005820160009054906101000a900463ffffffff1663ffffffff1663ffffffff1681525050915050919050565b60008054906101000a900473ffffffffffffffffffffffffffffffffffffffff1681565b600081600001549050919050565b6001816000016000828254019250508190555050565b82805461127090611f6d565b90600052602060002090601f01602090048101928261129257600085556112d9565b82601f106112ab57805160ff19168380011785556112d9565b828001600101855582156112d9579182015b828111156112d85782518255916020019190600101906112bd565b5b5090506112e69190611409565b5090565b8280546112f690611f6d565b90600052602060002090601f0160209004810192826113185760008555611366565b82601f106113295780548555611366565b8280016001018555821561136657600052602060002091601f016020900482015b8281111561136557825482559160010191906001019061134a565b5b5090506113739190611409565b5090565b50805461138390611f6d565b6000825580601f1061139557506113b4565b601f0160209004906000526020600020908101906113b39190611409565b5b50565b6040518060c00160405280600081526020016060815260200160008152602001600073ffffffffffffffffffffffffffffffffffffffff16815260200160008152602001600063ffffffff1681525090565b5b8082111561142257600081600090555060010161140a565b5090565b600061143961143484611d96565b611d71565b905082815260208101848484011115611455576114546120f9565b5b611460848285611f2b565b509392505050565b600081359050611477816121c7565b92915050565b600082601f830112611492576114916120f4565b5b81356114a2848260208601611426565b91505092915050565b6000813590506114ba816121de565b92915050565b6000813590506114cf816121f5565b92915050565b6000602082840312156114eb576114ea612103565b5b60006114f984828501611468565b91505092915050565b60006020828403121561151857611517612103565b5b6000611526848285016114ab565b91505092915050565b60008060006060848603121561154857611547612103565b5b6000611556868287016114ab565b935050602084013567ffffffffffffffff811115611577576115766120fe565b5b6115838682870161147d565b9250506040611594868287016114c0565b9150509250925092565b60006115aa8383611837565b905092915050565b60006115be8383611949565b905092915050565b6115cf81611ea9565b82525050565b6115de81611ea9565b82525050565b60006115ef82611e01565b6115f98185611e3c565b93508360208202850161160b85611dc7565b8060005b858110156116475784840389528151611628858261159e565b945061163383611e22565b925060208a0199505060018101905061160f565b50829750879550505050505092915050565b600061166482611e0c565b61166e8185611e3c565b93508360208202850161168085611dd7565b8060005b858110156116bb5784840389528161169c85826115b2565b94506116a783611e2f565b925060208a01995050600181019050611684565b50829750879550505050505092915050565b6116d681611ef5565b82525050565b60006116e782611e17565b6116f18185611e4d565b9350611701818560208601611f3a565b61170a81612108565b840191505092915050565b600061172082611e17565b61172a8185611e5e565b935061173a818560208601611f3a565b61174381612108565b840191505092915050565b6000815461175b81611f6d565b6117658186611e4d565b945060018216600081146117805760018114611792576117c5565b60ff19831686526020860193506117c5565b61179b85611dec565b60005b838110156117bd5781548189015260018201915060208101905061179e565b808801955050505b50505092915050565b60006117db602283611e5e565b91506117e682612126565b604082019050919050565b60006117fe601d83611e5e565b915061180982612175565b602082019050919050565b6000611821601583611e5e565b915061182c8261219e565b602082019050919050565b600060c08301600083015161184f6000860182611acb565b506020830151848203602086015261186782826116dc565b915050604083015161187c6040860182611acb565b50606083015161188f60608601826115c6565b5060808301516118a26080860182611acb565b5060a08301516118b560a0860182611ae9565b508091505092915050565b600060c0830160008301516118d86000860182611acb565b50602083015184820360208601526118f082826116dc565b91505060408301516119056040860182611acb565b50606083015161191860608601826115c6565b50608083015161192b6080860182611acb565b5060a083015161193e60a0860182611ae9565b508091505092915050565b600060c08301600080840154905061196081611fb9565b61196d6000870182611acb565b50600184018583036020870152611984838261174e565b9250506002840154905061199781611fb9565b6119a46040870182611acb565b50600384015490506119b581611f9f565b6119c260608701826115c6565b50600484015490506119d381611fb9565b6119e06080870182611acb565b50600584015490506119f181611fd3565b6119fe60a0870182611ae9565b50819250505092915050565b600060c083016000808401549050611a2181611fb9565b611a2e6000870182611acb565b50600184018583036020870152611a45838261174e565b92505060028401549050611a5881611fb9565b611a656040870182611acb565b5060038401549050611a7681611f9f565b611a8360608701826115c6565b5060048401549050611a9481611fb9565b611aa16080870182611acb565b5060058401549050611ab281611fd3565b611abf60a0870182611ae9565b50819250505092915050565b611ad481611edb565b82525050565b611ae381611edb565b82525050565b611af281611ee5565b82525050565b611b0181611ee5565b82525050565b60006020820190508181036000830152611b2181846115e4565b905092915050565b60006020820190508181036000830152611b438184611659565b905092915050565b6000602082019050611b6060008301846116cd565b92915050565b60006020820190508181036000830152611b7f816117ce565b9050919050565b60006020820190508181036000830152611b9f816117f1565b9050919050565b60006020820190508181036000830152611bbf81611814565b9050919050565b60006020820190508181036000830152611be081846118c0565b905092915050565b6000602082019050611bfd6000830184611ada565b92915050565b6000608082019050611c186000830187611ada565b8181036020830152611c2a8186611715565b90508181036040830152611c3e8185611715565b9050611c4d6060830184611ada565b95945050505050565b600060c082019050611c6b6000830189611ada565b8181036020830152611c7d8188611715565b9050611c8c6040830187611ada565b611c9960608301866115d5565b611ca66080830185611ada565b611cb360a0830184611af8565b979650505050505050565b6000604082019050611cd36000830185611ada565b8181036020830152611ce58184611a0a565b90509392505050565b6000604082019050611d036000830185611ada565b611d106020830184611ada565b9392505050565b600060a082019050611d2c6000830188611ada565b611d396020830187611ada565b8181036040830152611d4b8186611715565b9050611d5a6060830185611af8565b611d676080830184611ada565b9695505050505050565b6000611d7b611d8c565b9050611d878282611fed565b919050565b6000604051905090565b600067ffffffffffffffff821115611db157611db06120c5565b5b611dba82612108565b9050602081019050919050565b6000819050602082019050919050565b60008190508160005260206000209050919050565b60008190508160005260206000209050919050565b600081519050919050565b600081549050919050565b600081519050919050565b6000602082019050919050565b6000600682019050919050565b600082825260208201905092915050565b600082825260208201905092915050565b600082825260208201905092915050565b600073ffffffffffffffffffffffffffffffffffffffff82169050919050565b6000819050919050565b600063ffffffff82169050919050565b6000611eb482611ebb565b9050919050565b600073ffffffffffffffffffffffffffffffffffffffff82169050919050565b6000819050919050565b600063ffffffff82169050919050565b6000611f0082611f07565b9050919050565b6000611f1282611f19565b9050919050565b6000611f2482611ebb565b9050919050565b82818337600083830152505050565b60005b83811015611f58578082015181840152602081019050611f3d565b83811115611f67576000848401525b50505050565b60006002820490506001821680611f8557607f821691505b60208210811415611f9957611f98612096565b5b50919050565b6000611fb2611fad83612119565b611e6f565b9050919050565b6000611fcc611fc783612119565b611e8f565b9050919050565b6000611fe6611fe183612119565b611e99565b9050919050565b611ff682612108565b810181811067ffffffffffffffff82111715612015576120146120c5565b5b80604052505050565b600061202982611edb565b91507fffffffffffffffffffffffffffffffffffffffffffffffffffffffffffffffff82141561205c5761205b612067565b5b600182019050919050565b7f4e487b7100000000000000000000000000000000000000000000000000000000600052601160045260246000fd5b7f4e487b7100000000000000000000000000000000000000000000000000000000600052602260045260246000fd5b7f4e487b7100000000000000000000000000000000000000000000000000000000600052604160045260246000fd5b600080fd5b600080fd5b600080fd5b600080fd5b6000601f19601f8301169050919050565b60008160001c9050919050565b7f546865726520617265206e6f2070726f647563747320746f206c69737420796560008201527f7421000000000000000000000000000000000000000000000000000000000000602082015250565b7f5468657265206973206e6f2073756368206974656d207265636f726421000000600082015250565b7f5468652073616c65206861732065787069726564210000000000000000000000600082015250565b6121d081611ea9565b81146121db57600080fd5b50565b6121e781611edb565b81146121f257600080fd5b50565b6121fe81611ee5565b811461220957600080fd5b5056fea2646970667358221220b19c058c3f9a0dacb5947fda0c4345853bfeaf596b69ff58350019d7587c9f5c64736f6c63430008070033",
					"opcodes": "PUSH1 0x80 PUSH1 0x40 MSTORE CALLVALUE DUP1 ISZERO PUSH3 0x11 JUMPI PUSH1 0x0 DUP1 REVERT JUMPDEST POP PUSH1 0x40 MLOAD PUSH3 0x236C CODESIZE SUB DUP1 PUSH3 0x236C DUP4 CODECOPY DUP2 DUP2 ADD PUSH1 0x40 MSTORE DUP2 ADD SWAP1 PUSH3 0x37 SWAP2 SWAP1 PUSH3 0x95 JUMP JUMPDEST DUP1 PUSH1 0x0 DUP1 PUSH2 0x100 EXP DUP2 SLOAD DUP2 PUSH20 0xFFFFFFFFFFFFFFFFFFFFFFFFFFFFFFFFFFFFFFFF MUL NOT AND SWAP1 DUP4 PUSH20 0xFFFFFFFFFFFFFFFFFFFFFFFFFFFFFFFFFFFFFFFF AND MUL OR SWAP1 SSTORE POP POP PUSH3 0x11A JUMP JUMPDEST PUSH1 0x0 DUP2 MLOAD SWAP1 POP PUSH3 0x8F DUP2 PUSH3 0x100 JUMP JUMPDEST SWAP3 SWAP2 POP POP JUMP JUMPDEST PUSH1 0x0 PUSH1 0x20 DUP3 DUP5 SUB SLT ISZERO PUSH3 0xAE JUMPI PUSH3 0xAD PUSH3 0xFB JUMP JUMPDEST JUMPDEST PUSH1 0x0 PUSH3 0xBE DUP5 DUP3 DUP6 ADD PUSH3 0x7E JUMP JUMPDEST SWAP2 POP POP SWAP3 SWAP2 POP POP JUMP JUMPDEST PUSH1 0x0 PUSH3 0xD4 DUP3 PUSH3 0xDB JUMP JUMPDEST SWAP1 POP SWAP2 SWAP1 POP JUMP JUMPDEST PUSH1 0x0 PUSH20 0xFFFFFFFFFFFFFFFFFFFFFFFFFFFFFFFFFFFFFFFF DUP3 AND SWAP1 POP SWAP2 SWAP1 POP JUMP JUMPDEST PUSH1 0x0 DUP1 REVERT JUMPDEST PUSH3 0x10B DUP2 PUSH3 0xC7 JUMP JUMPDEST DUP2 EQ PUSH3 0x117 JUMPI PUSH1 0x0 DUP1 REVERT JUMPDEST POP JUMP JUMPDEST PUSH2 0x2242 DUP1 PUSH3 0x12A PUSH1 0x0 CODECOPY PUSH1 0x0 RETURN INVALID PUSH1 0x80 PUSH1 0x40 MSTORE CALLVALUE DUP1 ISZERO PUSH2 0x10 JUMPI PUSH1 0x0 DUP1 REVERT JUMPDEST POP PUSH1 0x4 CALLDATASIZE LT PUSH2 0x93 JUMPI PUSH1 0x0 CALLDATALOAD PUSH1 0xE0 SHR DUP1 PUSH4 0xA87430BA GT PUSH2 0x66 JUMPI DUP1 PUSH4 0xA87430BA EQ PUSH2 0x123 JUMPI DUP1 PUSH4 0xBFB231D2 EQ PUSH2 0x156 JUMPI DUP1 PUSH4 0xCA095A83 EQ PUSH2 0x18B JUMPI DUP1 PUSH4 0xCD2F0710 EQ PUSH2 0x1A7 JUMPI DUP1 PUSH4 0xFC0C546A EQ PUSH2 0x1D7 JUMPI PUSH2 0x93 JUMP JUMPDEST DUP1 PUSH4 0x1750E74 EQ PUSH2 0x98 JUMPI DUP1 PUSH4 0x3D4D3600 EQ PUSH2 0xB4 JUMPI DUP1 PUSH4 0x4EFD1797 EQ PUSH2 0xE9 JUMPI DUP1 PUSH4 0x5D9EB55C EQ PUSH2 0x105 JUMPI JUMPDEST PUSH1 0x0 DUP1 REVERT JUMPDEST PUSH2 0xB2 PUSH1 0x4 DUP1 CALLDATASIZE SUB DUP2 ADD SWAP1 PUSH2 0xAD SWAP2 SWAP1 PUSH2 0x1502 JUMP JUMPDEST PUSH2 0x1F5 JUMP JUMPDEST STOP JUMPDEST PUSH2 0xCE PUSH1 0x4 DUP1 CALLDATASIZE SUB DUP2 ADD SWAP1 PUSH2 0xC9 SWAP2 SWAP1 PUSH2 0x1502 JUMP JUMPDEST PUSH2 0x418 JUMP JUMPDEST PUSH1 0x40 MLOAD PUSH2 0xE0 SWAP7 SWAP6 SWAP5 SWAP4 SWAP3 SWAP2 SWAP1 PUSH2 0x1C56 JUMP JUMPDEST PUSH1 0x40 MLOAD DUP1 SWAP2 SUB SWAP1 RETURN JUMPDEST PUSH2 0x103 PUSH1 0x4 DUP1 CALLDATASIZE SUB DUP2 ADD SWAP1 PUSH2 0xFE SWAP2 SWAP1 PUSH2 0x152F JUMP JUMPDEST PUSH2 0x51C JUMP JUMPDEST STOP JUMPDEST PUSH2 0x10D PUSH2 0x94E JUMP JUMPDEST PUSH1 0x40 MLOAD PUSH2 0x11A SWAP2 SWAP1 PUSH2 0x1B07 JUMP JUMPDEST PUSH1 0x40 MLOAD DUP1 SWAP2 SUB SWAP1 RETURN JUMPDEST PUSH2 0x13D PUSH1 0x4 DUP1 CALLDATASIZE SUB DUP2 ADD SWAP1 PUSH2 0x138 SWAP2 SWAP1 PUSH2 0x14D5 JUMP JUMPDEST PUSH2 0xB74 JUMP JUMPDEST PUSH1 0x40 MLOAD PUSH2 0x14D SWAP5 SWAP4 SWAP3 SWAP2 SWAP1 PUSH2 0x1C03 JUMP JUMPDEST PUSH1 0x40 MLOAD DUP1 SWAP2 SUB SWAP1 RETURN JUMPDEST PUSH2 0x170 PUSH1 0x4 DUP1 CALLDATASIZE SUB DUP2 ADD SWAP1 PUSH2 0x16B SWAP2 SWAP1 PUSH2 0x1502 JUMP JUMPDEST PUSH2 0xCB4 JUMP JUMPDEST PUSH1 0x40 MLOAD PUSH2 0x182 SWAP7 SWAP6 SWAP5 SWAP4 SWAP3 SWAP2 SWAP1 PUSH2 0x1C56 JUMP JUMPDEST PUSH1 0x40 MLOAD DUP1 SWAP2 SUB SWAP1 RETURN JUMPDEST PUSH2 0x1A5 PUSH1 0x4 DUP1 CALLDATASIZE SUB DUP2 ADD SWAP1 PUSH2 0x1A0 SWAP2 SWAP1 PUSH2 0x1502 JUMP JUMPDEST PUSH2 0xDA8 JUMP JUMPDEST STOP JUMPDEST PUSH2 0x1C1 PUSH1 0x4 DUP1 CALLDATASIZE SUB DUP2 ADD SWAP1 PUSH2 0x1BC SWAP2 SWAP1 PUSH2 0x1502 JUMP JUMPDEST PUSH2 0x1013 JUMP JUMPDEST PUSH1 0x40 MLOAD PUSH2 0x1CE SWAP2 SWAP1 PUSH2 0x1BC6 JUMP JUMPDEST PUSH1 0x40 MLOAD DUP1 SWAP2 SUB SWAP1 RETURN JUMPDEST PUSH2 0x1DF PUSH2 0x121C JUMP JUMPDEST PUSH1 0x40 MLOAD PUSH2 0x1EC SWAP2 SWAP1 PUSH2 0x1B4B JUMP JUMPDEST PUSH1 0x40 MLOAD DUP1 SWAP2 SUB SWAP1 RETURN JUMPDEST DUP1 PUSH1 0x0 PUSH1 0x3 PUSH1 0x0 DUP4 DUP2 MSTORE PUSH1 0x20 ADD SWAP1 DUP2 MSTORE PUSH1 0x20 ADD PUSH1 0x0 KECCAK256 PUSH1 0x40 MLOAD DUP1 PUSH1 0xC0 ADD PUSH1 0x40 MSTORE SWAP1 DUP2 PUSH1 0x0 DUP3 ADD SLOAD DUP2 MSTORE PUSH1 0x20 ADD PUSH1 0x1 DUP3 ADD DUP1 SLOAD PUSH2 0x230 SWAP1 PUSH2 0x1F6D JUMP JUMPDEST DUP1 PUSH1 0x1F ADD PUSH1 0x20 DUP1 SWAP2 DIV MUL PUSH1 0x20 ADD PUSH1 0x40 MLOAD SWAP1 DUP2 ADD PUSH1 0x40 MSTORE DUP1 SWAP3 SWAP2 SWAP1 DUP2 DUP2 MSTORE PUSH1 0x20 ADD DUP3 DUP1 SLOAD PUSH2 0x25C SWAP1 PUSH2 0x1F6D JUMP JUMPDEST DUP1 ISZERO PUSH2 0x2A9 JUMPI DUP1 PUSH1 0x1F LT PUSH2 0x27E JUMPI PUSH2 0x100 DUP1 DUP4 SLOAD DIV MUL DUP4 MSTORE SWAP2 PUSH1 0x20 ADD SWAP2 PUSH2 0x2A9 JUMP JUMPDEST DUP3 ADD SWAP2 SWAP1 PUSH1 0x0 MSTORE PUSH1 0x20 PUSH1 0x0 KECCAK256 SWAP1 JUMPDEST DUP2 SLOAD DUP2 MSTORE SWAP1 PUSH1 0x1 ADD SWAP1 PUSH1 0x20 ADD DUP1 DUP4 GT PUSH2 0x28C JUMPI DUP3 SWAP1 SUB PUSH1 0x1F AND DUP3 ADD SWAP2 JUMPDEST POP POP POP POP POP DUP2 MSTORE PUSH1 0x20 ADD PUSH1 0x2 DUP3 ADD SLOAD DUP2 MSTORE PUSH1 0x20 ADD PUSH1 0x3 DUP3 ADD PUSH1 0x0 SWAP1 SLOAD SWAP1 PUSH2 0x100 EXP SWAP1 DIV PUSH20 0xFFFFFFFFFFFFFFFFFFFFFFFFFFFFFFFFFFFFFFFF AND PUSH20 0xFFFFFFFFFFFFFFFFFFFFFFFFFFFFFFFFFFFFFFFF AND PUSH20 0xFFFFFFFFFFFFFFFFFFFFFFFFFFFFFFFFFFFFFFFF AND DUP2 MSTORE PUSH1 0x20 ADD PUSH1 0x4 DUP3 ADD SLOAD DUP2 MSTORE PUSH1 0x20 ADD PUSH1 0x5 DUP3 ADD PUSH1 0x0 SWAP1 SLOAD SWAP1 PUSH2 0x100 EXP SWAP1 DIV PUSH4 0xFFFFFFFF AND PUSH4 0xFFFFFFFF AND PUSH4 0xFFFFFFFF AND DUP2 MSTORE POP POP SWAP1 POP DUP1 PUSH1 0x60 ADD MLOAD PUSH20 0xFFFFFFFFFFFFFFFFFFFFFFFFFFFFFFFFFFFFFFFF AND CALLER PUSH20 0xFFFFFFFFFFFFFFFFFFFFFFFFFFFFFFFFFFFFFFFF AND EQ ISZERO PUSH2 0x381 JUMPI PUSH1 0x0 DUP1 REVERT JUMPDEST PUSH1 0x3 PUSH1 0x0 DUP5 DUP2 MSTORE PUSH1 0x20 ADD SWAP1 DUP2 MSTORE PUSH1 0x20 ADD PUSH1 0x0 KECCAK256 PUSH1 0x2 ADD PUSH1 0x0 DUP2 SLOAD DUP1 SWAP3 SWAP2 SWAP1 PUSH2 0x3A8 SWAP1 PUSH2 0x201E JUMP JUMPDEST SWAP2 SWAP1 POP SSTORE POP CALLER PUSH20 0xFFFFFFFFFFFFFFFFFFFFFFFFFFFFFFFFFFFFFFFF AND PUSH32 0x1ED364E6F46A455FAC23816D3700669FF134C7A5FBE0240F52D932F834102462 DUP5 PUSH1 0x3 PUSH1 0x0 DUP8 DUP2 MSTORE PUSH1 0x20 ADD SWAP1 DUP2 MSTORE PUSH1 0x20 ADD PUSH1 0x0 KECCAK256 PUSH1 0x2 ADD SLOAD PUSH1 0x40 MLOAD PUSH2 0x40B SWAP3 SWAP2 SWAP1 PUSH2 0x1CEE JUMP JUMPDEST PUSH1 0x40 MLOAD DUP1 SWAP2 SUB SWAP1 LOG2 POP POP POP JUMP JUMPDEST PUSH1 0x1 DUP2 DUP2 SLOAD DUP2 LT PUSH2 0x428 JUMPI PUSH1 0x0 DUP1 REVERT JUMPDEST SWAP1 PUSH1 0x0 MSTORE PUSH1 0x20 PUSH1 0x0 KECCAK256 SWAP1 PUSH1 0x6 MUL ADD PUSH1 0x0 SWAP2 POP SWAP1 POP DUP1 PUSH1 0x0 ADD SLOAD SWAP1 DUP1 PUSH1 0x1 ADD DUP1 SLOAD PUSH2 0x451 SWAP1 PUSH2 0x1F6D JUMP JUMPDEST DUP1 PUSH1 0x1F ADD PUSH1 0x20 DUP1 SWAP2 DIV MUL PUSH1 0x20 ADD PUSH1 0x40 MLOAD SWAP1 DUP2 ADD PUSH1 0x40 MSTORE DUP1 SWAP3 SWAP2 SWAP1 DUP2 DUP2 MSTORE PUSH1 0x20 ADD DUP3 DUP1 SLOAD PUSH2 0x47D SWAP1 PUSH2 0x1F6D JUMP JUMPDEST DUP1 ISZERO PUSH2 0x4CA JUMPI DUP1 PUSH1 0x1F LT PUSH2 0x49F JUMPI PUSH2 0x100 DUP1 DUP4 SLOAD DIV MUL DUP4 MSTORE SWAP2 PUSH1 0x20 ADD SWAP2 PUSH2 0x4CA JUMP JUMPDEST DUP3 ADD SWAP2 SWAP1 PUSH1 0x0 MSTORE PUSH1 0x20 PUSH1 0x0 KECCAK256 SWAP1 JUMPDEST DUP2 SLOAD DUP2 MSTORE SWAP1 PUSH1 0x1 ADD SWAP1 PUSH1 0x20 ADD DUP1 DUP4 GT PUSH2 0x4AD JUMPI DUP3 SWAP1 SUB PUSH1 0x1F AND DUP3 ADD SWAP2 JUMPDEST POP POP POP POP POP SWAP1 DUP1 PUSH1 0x2 ADD SLOAD SWAP1 DUP1 PUSH1 0x3 ADD PUSH1 0x0 SWAP1 SLOAD SWAP1 PUSH2 0x100 EXP SWAP1 DIV PUSH20 0xFFFFFFFFFFFFFFFFFFFFFFFFFFFFFFFFFFFFFFFF AND SWAP1 DUP1 PUSH1 0x4 ADD SLOAD SWAP1 DUP1 PUSH1 0x5 ADD PUSH1 0x0 SWAP1 SLOAD SWAP1 PUSH2 0x100 EXP SWAP1 DIV PUSH4 0xFFFFFFFF AND SWAP1 POP DUP7 JUMP JUMPDEST PUSH1 0x40 MLOAD DUP1 PUSH1 0xC0 ADD PUSH1 0x40 MSTORE DUP1 PUSH2 0x531 PUSH1 0x4 PUSH2 0x1240 JUMP JUMPDEST DUP2 MSTORE PUSH1 0x20 ADD DUP4 DUP2 MSTORE PUSH1 0x20 ADD PUSH1 0x0 DUP2 MSTORE PUSH1 0x20 ADD CALLER PUSH20 0xFFFFFFFFFFFFFFFFFFFFFFFFFFFFFFFFFFFFFFFF AND DUP2 MSTORE PUSH1 0x20 ADD DUP5 DUP2 MSTORE PUSH1 0x20 ADD DUP3 PUSH4 0xFFFFFFFF AND DUP2 MSTORE POP PUSH1 0x3 PUSH1 0x0 PUSH2 0x57D PUSH1 0x4 PUSH2 0x1240 JUMP JUMPDEST DUP2 MSTORE PUSH1 0x20 ADD SWAP1 DUP2 MSTORE PUSH1 0x20 ADD PUSH1 0x0 KECCAK256 PUSH1 0x0 DUP3 ADD MLOAD DUP2 PUSH1 0x0 ADD SSTORE PUSH1 0x20 DUP3 ADD MLOAD DUP2 PUSH1 0x1 ADD SWAP1 DUP1 MLOAD SWAP1 PUSH1 0x20 ADD SWAP1 PUSH2 0x5B1 SWAP3 SWAP2 SWAP1 PUSH2 0x1264 JUMP JUMPDEST POP PUSH1 0x40 DUP3 ADD MLOAD DUP2 PUSH1 0x2 ADD SSTORE PUSH1 0x60 DUP3 ADD MLOAD DUP2 PUSH1 0x3 ADD PUSH1 0x0 PUSH2 0x100 EXP DUP2 SLOAD DUP2 PUSH20 0xFFFFFFFFFFFFFFFFFFFFFFFFFFFFFFFFFFFFFFFF MUL NOT AND SWAP1 DUP4 PUSH20 0xFFFFFFFFFFFFFFFFFFFFFFFFFFFFFFFFFFFFFFFF AND MUL OR SWAP1 SSTORE POP PUSH1 0x80 DUP3 ADD MLOAD DUP2 PUSH1 0x4 ADD SSTORE PUSH1 0xA0 DUP3 ADD MLOAD DUP2 PUSH1 0x5 ADD PUSH1 0x0 PUSH2 0x100 EXP DUP2 SLOAD DUP2 PUSH4 0xFFFFFFFF MUL NOT AND SWAP1 DUP4 PUSH4 0xFFFFFFFF AND MUL OR SWAP1 SSTORE POP SWAP1 POP POP PUSH1 0x2 PUSH1 0x0 CALLER PUSH20 0xFFFFFFFFFFFFFFFFFFFFFFFFFFFFFFFFFFFFFFFF AND PUSH20 0xFFFFFFFFFFFFFFFFFFFFFFFFFFFFFFFFFFFFFFFF AND DUP2 MSTORE PUSH1 0x20 ADD SWAP1 DUP2 MSTORE PUSH1 0x20 ADD PUSH1 0x0 KECCAK256 PUSH1 0x4 ADD PUSH1 0x3 PUSH1 0x0 PUSH2 0x687 PUSH1 0x4 PUSH2 0x1240 JUMP JUMPDEST DUP2 MSTORE PUSH1 0x20 ADD SWAP1 DUP2 MSTORE PUSH1 0x20 ADD PUSH1 0x0 KECCAK256 SWAP1 DUP1 PUSH1 0x1 DUP2 SLOAD ADD DUP1 DUP3 SSTORE DUP1 SWAP2 POP POP PUSH1 0x1 SWAP1 SUB SWAP1 PUSH1 0x0 MSTORE PUSH1 0x20 PUSH1 0x0 KECCAK256 SWAP1 PUSH1 0x6 MUL ADD PUSH1 0x0 SWAP1 SWAP2 SWAP1 SWAP2 SWAP1 SWAP2 POP PUSH1 0x0 DUP3 ADD SLOAD DUP2 PUSH1 0x0 ADD SSTORE PUSH1 0x1 DUP3 ADD DUP2 PUSH1 0x1 ADD SWAP1 DUP1 SLOAD PUSH2 0x6DC SWAP1 PUSH2 0x1F6D JUMP JUMPDEST PUSH2 0x6E7 SWAP3 SWAP2 SWAP1 PUSH2 0x12EA JUMP JUMPDEST POP PUSH1 0x2 DUP3 ADD SLOAD DUP2 PUSH1 0x2 ADD SSTORE PUSH1 0x3 DUP3 ADD PUSH1 0x0 SWAP1 SLOAD SWAP1 PUSH2 0x100 EXP SWAP1 DIV PUSH20 0xFFFFFFFFFFFFFFFFFFFFFFFFFFFFFFFFFFFFFFFF AND DUP2 PUSH1 0x3 ADD PUSH1 0x0 PUSH2 0x100 EXP DUP2 SLOAD DUP2 PUSH20 0xFFFFFFFFFFFFFFFFFFFFFFFFFFFFFFFFFFFFFFFF MUL NOT AND SWAP1 DUP4 PUSH20 0xFFFFFFFFFFFFFFFFFFFFFFFFFFFFFFFFFFFFFFFF AND MUL OR SWAP1 SSTORE POP PUSH1 0x4 DUP3 ADD SLOAD DUP2 PUSH1 0x4 ADD SSTORE PUSH1 0x5 DUP3 ADD PUSH1 0x0 SWAP1 SLOAD SWAP1 PUSH2 0x100 EXP SWAP1 DIV PUSH4 0xFFFFFFFF AND DUP2 PUSH1 0x5 ADD PUSH1 0x0 PUSH2 0x100 EXP DUP2 SLOAD DUP2 PUSH4 0xFFFFFFFF MUL NOT AND SWAP1 DUP4 PUSH4 0xFFFFFFFF AND MUL OR SWAP1 SSTORE POP POP POP PUSH1 0x1 PUSH1 0x3 PUSH1 0x0 PUSH2 0x7AC PUSH1 0x4 PUSH2 0x1240 JUMP JUMPDEST DUP2 MSTORE PUSH1 0x20 ADD SWAP1 DUP2 MSTORE PUSH1 0x20 ADD PUSH1 0x0 KECCAK256 SWAP1 DUP1 PUSH1 0x1 DUP2 SLOAD ADD DUP1 DUP3 SSTORE DUP1 SWAP2 POP POP PUSH1 0x1 SWAP1 SUB SWAP1 PUSH1 0x0 MSTORE PUSH1 0x20 PUSH1 0x0 KECCAK256 SWAP1 PUSH1 0x6 MUL ADD PUSH1 0x0 SWAP1 SWAP2 SWAP1 SWAP2 SWAP1 SWAP2 POP PUSH1 0x0 DUP3 ADD SLOAD DUP2 PUSH1 0x0 ADD SSTORE PUSH1 0x1 DUP3 ADD DUP2 PUSH1 0x1 ADD SWAP1 DUP1 SLOAD PUSH2 0x801 SWAP1 PUSH2 0x1F6D JUMP JUMPDEST PUSH2 0x80C SWAP3 SWAP2 SWAP1 PUSH2 0x12EA JUMP JUMPDEST POP PUSH1 0x2 DUP3 ADD SLOAD DUP2 PUSH1 0x2 ADD SSTORE PUSH1 0x3 DUP3 ADD PUSH1 0x0 SWAP1 SLOAD SWAP1 PUSH2 0x100 EXP SWAP1 DIV PUSH20 0xFFFFFFFFFFFFFFFFFFFFFFFFFFFFFFFFFFFFFFFF AND DUP2 PUSH1 0x3 ADD PUSH1 0x0 PUSH2 0x100 EXP DUP2 SLOAD DUP2 PUSH20 0xFFFFFFFFFFFFFFFFFFFFFFFFFFFFFFFFFFFFFFFF MUL NOT AND SWAP1 DUP4 PUSH20 0xFFFFFFFFFFFFFFFFFFFFFFFFFFFFFFFFFFFFFFFF AND MUL OR SWAP1 SSTORE POP PUSH1 0x4 DUP3 ADD SLOAD DUP2 PUSH1 0x4 ADD SSTORE PUSH1 0x5 DUP3 ADD PUSH1 0x0 SWAP1 SLOAD SWAP1 PUSH2 0x100 EXP SWAP1 DIV PUSH4 0xFFFFFFFF AND DUP2 PUSH1 0x5 ADD PUSH1 0x0 PUSH2 0x100 EXP DUP2 SLOAD DUP2 PUSH4 0xFFFFFFFF MUL NOT AND SWAP1 DUP4 PUSH4 0xFFFFFFFF AND MUL OR SWAP1 SSTORE POP POP POP PUSH2 0x8CB PUSH1 0x4 PUSH2 0x124E JUMP JUMPDEST CALLER PUSH20 0xFFFFFFFFFFFFFFFFFFFFFFFFFFFFFFFFFFFFFFFF AND PUSH32 0x9A5B8B5CB7F9C536EA5DB1A94142C9F716FB3A8698A9C70A5B8BFAD3922CB06C PUSH2 0x90D PUSH1 0x4 PUSH2 0x1240 JUMP JUMPDEST DUP6 DUP6 DUP6 PUSH1 0x3 PUSH1 0x0 PUSH2 0x91E PUSH1 0x4 PUSH2 0x1240 JUMP JUMPDEST DUP2 MSTORE PUSH1 0x20 ADD SWAP1 DUP2 MSTORE PUSH1 0x20 ADD PUSH1 0x0 KECCAK256 PUSH1 0x2 ADD SLOAD PUSH1 0x40 MLOAD PUSH2 0x941 SWAP6 SWAP5 SWAP4 SWAP3 SWAP2 SWAP1 PUSH2 0x1D17 JUMP JUMPDEST PUSH1 0x40 MLOAD DUP1 SWAP2 SUB SWAP1 LOG2 POP POP POP JUMP JUMPDEST PUSH1 0x60 PUSH1 0x0 PUSH2 0x95C PUSH1 0x4 PUSH2 0x1240 JUMP JUMPDEST GT PUSH2 0x99C JUMPI PUSH1 0x40 MLOAD PUSH32 0x8C379A000000000000000000000000000000000000000000000000000000000 DUP2 MSTORE PUSH1 0x4 ADD PUSH2 0x993 SWAP1 PUSH2 0x1B66 JUMP JUMPDEST PUSH1 0x40 MLOAD DUP1 SWAP2 SUB SWAP1 REVERT JUMPDEST CALLER PUSH20 0xFFFFFFFFFFFFFFFFFFFFFFFFFFFFFFFFFFFFFFFF AND PUSH32 0x440C078A5E11BFF85C6B6D7C52F378C8220355BD3331EC889638C0ECA883670C PUSH1 0x1 PUSH1 0x40 MLOAD PUSH2 0x9E3 SWAP2 SWAP1 PUSH2 0x1B29 JUMP JUMPDEST PUSH1 0x40 MLOAD DUP1 SWAP2 SUB SWAP1 LOG2 PUSH1 0x1 DUP1 SLOAD DUP1 PUSH1 0x20 MUL PUSH1 0x20 ADD PUSH1 0x40 MLOAD SWAP1 DUP2 ADD PUSH1 0x40 MSTORE DUP1 SWAP3 SWAP2 SWAP1 DUP2 DUP2 MSTORE PUSH1 0x20 ADD PUSH1 0x0 SWAP1 JUMPDEST DUP3 DUP3 LT ISZERO PUSH2 0xB6B JUMPI DUP4 DUP3 SWAP1 PUSH1 0x0 MSTORE PUSH1 0x20 PUSH1 0x0 KECCAK256 SWAP1 PUSH1 0x6 MUL ADD PUSH1 0x40 MLOAD DUP1 PUSH1 0xC0 ADD PUSH1 0x40 MSTORE SWAP1 DUP2 PUSH1 0x0 DUP3 ADD SLOAD DUP2 MSTORE PUSH1 0x20 ADD PUSH1 0x1 DUP3 ADD DUP1 SLOAD PUSH2 0xA4A SWAP1 PUSH2 0x1F6D JUMP JUMPDEST DUP1 PUSH1 0x1F ADD PUSH1 0x20 DUP1 SWAP2 DIV MUL PUSH1 0x20 ADD PUSH1 0x40 MLOAD SWAP1 DUP2 ADD PUSH1 0x40 MSTORE DUP1 SWAP3 SWAP2 SWAP1 DUP2 DUP2 MSTORE PUSH1 0x20 ADD DUP3 DUP1 SLOAD PUSH2 0xA76 SWAP1 PUSH2 0x1F6D JUMP JUMPDEST DUP1 ISZERO PUSH2 0xAC3 JUMPI DUP1 PUSH1 0x1F LT PUSH2 0xA98 JUMPI PUSH2 0x100 DUP1 DUP4 SLOAD DIV MUL DUP4 MSTORE SWAP2 PUSH1 0x20 ADD SWAP2 PUSH2 0xAC3 JUMP JUMPDEST DUP3 ADD SWAP2 SWAP1 PUSH1 0x0 MSTORE PUSH1 0x20 PUSH1 0x0 KECCAK256 SWAP1 JUMPDEST DUP2 SLOAD DUP2 MSTORE SWAP1 PUSH1 0x1 ADD SWAP1 PUSH1 0x20 ADD DUP1 DUP4 GT PUSH2 0xAA6 JUMPI DUP3 SWAP1 SUB PUSH1 0x1F AND DUP3 ADD SWAP2 JUMPDEST POP POP POP POP POP DUP2 MSTORE PUSH1 0x20 ADD PUSH1 0x2 DUP3 ADD SLOAD DUP2 MSTORE PUSH1 0x20 ADD PUSH1 0x3 DUP3 ADD PUSH1 0x0 SWAP1 SLOAD SWAP1 PUSH2 0x100 EXP SWAP1 DIV PUSH20 0xFFFFFFFFFFFFFFFFFFFFFFFFFFFFFFFFFFFFFFFF AND PUSH20 0xFFFFFFFFFFFFFFFFFFFFFFFFFFFFFFFFFFFFFFFF AND PUSH20 0xFFFFFFFFFFFFFFFFFFFFFFFFFFFFFFFFFFFFFFFF AND DUP2 MSTORE PUSH1 0x20 ADD PUSH1 0x4 DUP3 ADD SLOAD DUP2 MSTORE PUSH1 0x20 ADD PUSH1 0x5 DUP3 ADD PUSH1 0x0 SWAP1 SLOAD SWAP1 PUSH2 0x100 EXP SWAP1 DIV PUSH4 0xFFFFFFFF AND PUSH4 0xFFFFFFFF AND PUSH4 0xFFFFFFFF AND DUP2 MSTORE POP POP DUP2 MSTORE PUSH1 0x20 ADD SWAP1 PUSH1 0x1 ADD SWAP1 PUSH2 0xA0D JUMP JUMPDEST POP POP POP POP SWAP1 POP SWAP1 JUMP JUMPDEST PUSH1 0x2 PUSH1 0x20 MSTORE DUP1 PUSH1 0x0 MSTORE PUSH1 0x40 PUSH1 0x0 KECCAK256 PUSH1 0x0 SWAP2 POP SWAP1 POP DUP1 PUSH1 0x0 ADD SLOAD SWAP1 DUP1 PUSH1 0x1 ADD DUP1 SLOAD PUSH2 0xB9D SWAP1 PUSH2 0x1F6D JUMP JUMPDEST DUP1 PUSH1 0x1F ADD PUSH1 0x20 DUP1 SWAP2 DIV MUL PUSH1 0x20 ADD PUSH1 0x40 MLOAD SWAP1 DUP2 ADD PUSH1 0x40 MSTORE DUP1 SWAP3 SWAP2 SWAP1 DUP2 DUP2 MSTORE PUSH1 0x20 ADD DUP3 DUP1 SLOAD PUSH2 0xBC9 SWAP1 PUSH2 0x1F6D JUMP JUMPDEST DUP1 ISZERO PUSH2 0xC16 JUMPI DUP1 PUSH1 0x1F LT PUSH2 0xBEB JUMPI PUSH2 0x100 DUP1 DUP4 SLOAD DIV MUL DUP4 MSTORE SWAP2 PUSH1 0x20 ADD SWAP2 PUSH2 0xC16 JUMP JUMPDEST DUP3 ADD SWAP2 SWAP1 PUSH1 0x0 MSTORE PUSH1 0x20 PUSH1 0x0 KECCAK256 SWAP1 JUMPDEST DUP2 SLOAD DUP2 MSTORE SWAP1 PUSH1 0x1 ADD SWAP1 PUSH1 0x20 ADD DUP1 DUP4 GT PUSH2 0xBF9 JUMPI DUP3 SWAP1 SUB PUSH1 0x1F AND DUP3 ADD SWAP2 JUMPDEST POP POP POP POP POP SWAP1 DUP1 PUSH1 0x2 ADD DUP1 SLOAD PUSH2 0xC2B SWAP1 PUSH2 0x1F6D JUMP JUMPDEST DUP1 PUSH1 0x1F ADD PUSH1 0x20 DUP1 SWAP2 DIV MUL PUSH1 0x20 ADD PUSH1 0x40 MLOAD SWAP1 DUP2 ADD PUSH1 0x40 MSTORE DUP1 SWAP3 SWAP2 SWAP1 DUP2 DUP2 MSTORE PUSH1 0x20 ADD DUP3 DUP1 SLOAD PUSH2 0xC57 SWAP1 PUSH2 0x1F6D JUMP JUMPDEST DUP1 ISZERO PUSH2 0xCA4 JUMPI DUP1 PUSH1 0x1F LT PUSH2 0xC79 JUMPI PUSH2 0x100 DUP1 DUP4 SLOAD DIV MUL DUP4 MSTORE SWAP2 PUSH1 0x20 ADD SWAP2 PUSH2 0xCA4 JUMP JUMPDEST DUP3 ADD SWAP2 SWAP1 PUSH1 0x0 MSTORE PUSH1 0x20 PUSH1 0x0 KECCAK256 SWAP1 JUMPDEST DUP2 SLOAD DUP2 MSTORE SWAP1 PUSH1 0x1 ADD SWAP1 PUSH1 0x20 ADD DUP1 DUP4 GT PUSH2 0xC87 JUMPI DUP3 SWAP1 SUB PUSH1 0x1F AND DUP3 ADD SWAP2 JUMPDEST POP POP POP POP POP SWAP1 DUP1 PUSH1 0x5 ADD SLOAD SWAP1 POP DUP5 JUMP JUMPDEST PUSH1 0x3 PUSH1 0x20 MSTORE DUP1 PUSH1 0x0 MSTORE PUSH1 0x40 PUSH1 0x0 KECCAK256 PUSH1 0x0 SWAP2 POP SWAP1 POP DUP1 PUSH1 0x0 ADD SLOAD SWAP1 DUP1 PUSH1 0x1 ADD DUP1 SLOAD PUSH2 0xCDD SWAP1 PUSH2 0x1F6D JUMP JUMPDEST DUP1 PUSH1 0x1F ADD PUSH1 0x20 DUP1 SWAP2 DIV MUL PUSH1 0x20 ADD PUSH1 0x40 MLOAD SWAP1 DUP2 ADD PUSH1 0x40 MSTORE DUP1 SWAP3 SWAP2 SWAP1 DUP2 DUP2 MSTORE PUSH1 0x20 ADD DUP3 DUP1 SLOAD PUSH2 0xD09 SWAP1 PUSH2 0x1F6D JUMP JUMPDEST DUP1 ISZERO PUSH2 0xD56 JUMPI DUP1 PUSH1 0x1F LT PUSH2 0xD2B JUMPI PUSH2 0x100 DUP1 DUP4 SLOAD DIV MUL DUP4 MSTORE SWAP2 PUSH1 0x20 ADD SWAP2 PUSH2 0xD56 JUMP JUMPDEST DUP3 ADD SWAP2 SWAP1 PUSH1 0x0 MSTORE PUSH1 0x20 PUSH1 0x0 KECCAK256 SWAP1 JUMPDEST DUP2 SLOAD DUP2 MSTORE SWAP1 PUSH1 0x1 ADD SWAP1 PUSH1 0x20 ADD DUP1 DUP4 GT PUSH2 0xD39 JUMPI DUP3 SWAP1 SUB PUSH1 0x1F AND DUP3 ADD SWAP2 JUMPDEST POP POP POP POP POP SWAP1 DUP1 PUSH1 0x2 ADD SLOAD SWAP1 DUP1 PUSH1 0x3 ADD PUSH1 0x0 SWAP1 SLOAD SWAP1 PUSH2 0x100 EXP SWAP1 DIV PUSH20 0xFFFFFFFFFFFFFFFFFFFFFFFFFFFFFFFFFFFFFFFF AND SWAP1 DUP1 PUSH1 0x4 ADD SLOAD SWAP1 DUP1 PUSH1 0x5 ADD PUSH1 0x0 SWAP1 SLOAD SWAP1 PUSH2 0x100 EXP SWAP1 DIV PUSH4 0xFFFFFFFF AND SWAP1 POP DUP7 JUMP JUMPDEST DUP1 PUSH1 0x0 PUSH1 0x3 PUSH1 0x0 DUP4 DUP2 MSTORE PUSH1 0x20 ADD SWAP1 DUP2 MSTORE PUSH1 0x20 ADD PUSH1 0x0 KECCAK256 PUSH1 0x40 MLOAD DUP1 PUSH1 0xC0 ADD PUSH1 0x40 MSTORE SWAP1 DUP2 PUSH1 0x0 DUP3 ADD SLOAD DUP2 MSTORE PUSH1 0x20 ADD PUSH1 0x1 DUP3 ADD DUP1 SLOAD PUSH2 0xDE3 SWAP1 PUSH2 0x1F6D JUMP JUMPDEST DUP1 PUSH1 0x1F ADD PUSH1 0x20 DUP1 SWAP2 DIV MUL PUSH1 0x20 ADD PUSH1 0x40 MLOAD SWAP1 DUP2 ADD PUSH1 0x40 MSTORE DUP1 SWAP3 SWAP2 SWAP1 DUP2 DUP2 MSTORE PUSH1 0x20 ADD DUP3 DUP1 SLOAD PUSH2 0xE0F SWAP1 PUSH2 0x1F6D JUMP JUMPDEST DUP1 ISZERO PUSH2 0xE5C JUMPI DUP1 PUSH1 0x1F LT PUSH2 0xE31 JUMPI PUSH2 0x100 DUP1 DUP4 SLOAD DIV MUL DUP4 MSTORE SWAP2 PUSH1 0x20 ADD SWAP2 PUSH2 0xE5C JUMP JUMPDEST DUP3 ADD SWAP2 SWAP1 PUSH1 0x0 MSTORE PUSH1 0x20 PUSH1 0x0 KECCAK256 SWAP1 JUMPDEST DUP2 SLOAD DUP2 MSTORE SWAP1 PUSH1 0x1 ADD SWAP1 PUSH1 0x20 ADD DUP1 DUP4 GT PUSH2 0xE3F JUMPI DUP3 SWAP1 SUB PUSH1 0x1F AND DUP3 ADD SWAP2 JUMPDEST POP POP POP POP POP DUP2 MSTORE PUSH1 0x20 ADD PUSH1 0x2 DUP3 ADD SLOAD DUP2 MSTORE PUSH1 0x20 ADD PUSH1 0x3 DUP3 ADD PUSH1 0x0 SWAP1 SLOAD SWAP1 PUSH2 0x100 EXP SWAP1 DIV PUSH20 0xFFFFFFFFFFFFFFFFFFFFFFFFFFFFFFFFFFFFFFFF AND PUSH20 0xFFFFFFFFFFFFFFFFFFFFFFFFFFFFFFFFFFFFFFFF AND PUSH20 0xFFFFFFFFFFFFFFFFFFFFFFFFFFFFFFFFFFFFFFFF AND DUP2 MSTORE PUSH1 0x20 ADD PUSH1 0x4 DUP3 ADD SLOAD DUP2 MSTORE PUSH1 0x20 ADD PUSH1 0x5 DUP3 ADD PUSH1 0x0 SWAP1 SLOAD SWAP1 PUSH2 0x100 EXP SWAP1 DIV PUSH4 0xFFFFFFFF AND PUSH4 0xFFFFFFFF AND PUSH4 0xFFFFFFFF AND DUP2 MSTORE POP POP SWAP1 POP TIMESTAMP DUP2 PUSH1 0xA0 ADD MLOAD PUSH4 0xFFFFFFFF AND LT ISZERO PUSH2 0xF44 JUMPI PUSH1 0x40 MLOAD PUSH32 0x8C379A000000000000000000000000000000000000000000000000000000000 DUP2 MSTORE PUSH1 0x4 ADD PUSH2 0xF3B SWAP1 PUSH2 0x1BA6 JUMP JUMPDEST PUSH1 0x40 MLOAD DUP1 SWAP2 SUB SWAP1 REVERT JUMPDEST PUSH1 0x3 PUSH1 0x0 DUP5 DUP2 MSTORE PUSH1 0x20 ADD SWAP1 DUP2 MSTORE PUSH1 0x20 ADD PUSH1 0x0 KECCAK256 PUSH1 0x0 DUP1 DUP3 ADD PUSH1 0x0 SWAP1 SSTORE PUSH1 0x1 DUP3 ADD PUSH1 0x0 PUSH2 0xF70 SWAP2 SWAP1 PUSH2 0x1377 JUMP JUMPDEST PUSH1 0x2 DUP3 ADD PUSH1 0x0 SWAP1 SSTORE PUSH1 0x3 DUP3 ADD PUSH1 0x0 PUSH2 0x100 EXP DUP2 SLOAD SWAP1 PUSH20 0xFFFFFFFFFFFFFFFFFFFFFFFFFFFFFFFFFFFFFFFF MUL NOT AND SWAP1 SSTORE PUSH1 0x4 DUP3 ADD PUSH1 0x0 SWAP1 SSTORE PUSH1 0x5 DUP3 ADD PUSH1 0x0 PUSH2 0x100 EXP DUP2 SLOAD SWAP1 PUSH4 0xFFFFFFFF MUL NOT AND SWAP1 SSTORE POP POP CALLER PUSH20 0xFFFFFFFFFFFFFFFFFFFFFFFFFFFFFFFFFFFFFFFF AND PUSH32 0x45E4102CD0468B42F71C0179AA78051418C31C018E07A5091EB13B97FADBAB5E DUP5 PUSH1 0x40 MLOAD PUSH2 0x1006 SWAP2 SWAP1 PUSH2 0x1BE8 JUMP JUMPDEST PUSH1 0x40 MLOAD DUP1 SWAP2 SUB SWAP1 LOG2 POP POP POP JUMP JUMPDEST PUSH2 0x101B PUSH2 0x13B7 JUMP JUMPDEST DUP2 PUSH2 0x1026 PUSH1 0x4 PUSH2 0x1240 JUMP JUMPDEST DUP2 GT ISZERO PUSH2 0x1068 JUMPI PUSH1 0x40 MLOAD PUSH32 0x8C379A000000000000000000000000000000000000000000000000000000000 DUP2 MSTORE PUSH1 0x4 ADD PUSH2 0x105F SWAP1 PUSH2 0x1B86 JUMP JUMPDEST PUSH1 0x40 MLOAD DUP1 SWAP2 SUB SWAP1 REVERT JUMPDEST CALLER PUSH20 0xFFFFFFFFFFFFFFFFFFFFFFFFFFFFFFFFFFFFFFFF AND PUSH32 0xCB718FFB18411374498C1CD31CB4D4C8068AF3C5B1546205F14C72BCD20F21BA DUP5 PUSH1 0x3 PUSH1 0x0 DUP8 DUP2 MSTORE PUSH1 0x20 ADD SWAP1 DUP2 MSTORE PUSH1 0x20 ADD PUSH1 0x0 KECCAK256 PUSH1 0x40 MLOAD PUSH2 0x10C2 SWAP3 SWAP2 SWAP1 PUSH2 0x1CBE JUMP JUMPDEST PUSH1 0x40 MLOAD DUP1 SWAP2 SUB SWAP1 LOG2 PUSH1 0x3 PUSH1 0x0 DUP5 DUP2 MSTORE PUSH1 0x20 ADD SWAP1 DUP2 MSTORE PUSH1 0x20 ADD PUSH1 0x0 KECCAK256 PUSH1 0x40 MLOAD DUP1 PUSH1 0xC0 ADD PUSH1 0x40 MSTORE SWAP1 DUP2 PUSH1 0x0 DUP3 ADD SLOAD DUP2 MSTORE PUSH1 0x20 ADD PUSH1 0x1 DUP3 ADD DUP1 SLOAD PUSH2 0x1102 SWAP1 PUSH2 0x1F6D JUMP JUMPDEST DUP1 PUSH1 0x1F ADD PUSH1 0x20 DUP1 SWAP2 DIV MUL PUSH1 0x20 ADD PUSH1 0x40 MLOAD SWAP1 DUP2 ADD PUSH1 0x40 MSTORE DUP1 SWAP3 SWAP2 SWAP1 DUP2 DUP2 MSTORE PUSH1 0x20 ADD DUP3 DUP1 SLOAD PUSH2 0x112E SWAP1 PUSH2 0x1F6D JUMP JUMPDEST DUP1 ISZERO PUSH2 0x117B JUMPI DUP1 PUSH1 0x1F LT PUSH2 0x1150 JUMPI PUSH2 0x100 DUP1 DUP4 SLOAD DIV MUL DUP4 MSTORE SWAP2 PUSH1 0x20 ADD SWAP2 PUSH2 0x117B JUMP JUMPDEST DUP3 ADD SWAP2 SWAP1 PUSH1 0x0 MSTORE PUSH1 0x20 PUSH1 0x0 KECCAK256 SWAP1 JUMPDEST DUP2 SLOAD DUP2 MSTORE SWAP1 PUSH1 0x1 ADD SWAP1 PUSH1 0x20 ADD DUP1 DUP4 GT PUSH2 0x115E JUMPI DUP3 SWAP1 SUB PUSH1 0x1F AND DUP3 ADD SWAP2 JUMPDEST POP POP POP POP POP DUP2 MSTORE PUSH1 0x20 ADD PUSH1 0x2 DUP3 ADD SLOAD DUP2 MSTORE PUSH1 0x20 ADD PUSH1 0x3 DUP3 ADD PUSH1 0x0 SWAP1 SLOAD SWAP1 PUSH2 0x100 EXP SWAP1 DIV PUSH20 0xFFFFFFFFFFFFFFFFFFFFFFFFFFFFFFFFFFFFFFFF AND PUSH20 0xFFFFFFFFFFFFFFFFFFFFFFFFFFFFFFFFFFFFFFFF AND PUSH20 0xFFFFFFFFFFFFFFFFFFFFFFFFFFFFFFFFFFFFFFFF AND DUP2 MSTORE PUSH1 0x20 ADD PUSH1 0x4 DUP3 ADD SLOAD DUP2 MSTORE PUSH1 0x20 ADD PUSH1 0x5 DUP3 ADD PUSH1 0x0 SWAP1 SLOAD SWAP1 PUSH2 0x100 EXP SWAP1 DIV PUSH4 0xFFFFFFFF AND PUSH4 0xFFFFFFFF AND PUSH4 0xFFFFFFFF AND DUP2 MSTORE POP POP SWAP2 POP POP SWAP2 SWAP1 POP JUMP JUMPDEST PUSH1 0x0 DUP1 SLOAD SWAP1 PUSH2 0x100 EXP SWAP1 DIV PUSH20 0xFFFFFFFFFFFFFFFFFFFFFFFFFFFFFFFFFFFFFFFF AND DUP2 JUMP JUMPDEST PUSH1 0x0 DUP2 PUSH1 0x0 ADD SLOAD SWAP1 POP SWAP2 SWAP1 POP JUMP JUMPDEST PUSH1 0x1 DUP2 PUSH1 0x0 ADD PUSH1 0x0 DUP3 DUP3 SLOAD ADD SWAP3 POP POP DUP2 SWAP1 SSTORE POP POP JUMP JUMPDEST DUP3 DUP1 SLOAD PUSH2 0x1270 SWAP1 PUSH2 0x1F6D JUMP JUMPDEST SWAP1 PUSH1 0x0 MSTORE PUSH1 0x20 PUSH1 0x0 KECCAK256 SWAP1 PUSH1 0x1F ADD PUSH1 0x20 SWAP1 DIV DUP2 ADD SWAP3 DUP3 PUSH2 0x1292 JUMPI PUSH1 0x0 DUP6 SSTORE PUSH2 0x12D9 JUMP JUMPDEST DUP3 PUSH1 0x1F LT PUSH2 0x12AB JUMPI DUP1 MLOAD PUSH1 0xFF NOT AND DUP4 DUP1 ADD OR DUP6 SSTORE PUSH2 0x12D9 JUMP JUMPDEST DUP3 DUP1 ADD PUSH1 0x1 ADD DUP6 SSTORE DUP3 ISZERO PUSH2 0x12D9 JUMPI SWAP2 DUP3 ADD JUMPDEST DUP3 DUP2 GT ISZERO PUSH2 0x12D8 JUMPI DUP3 MLOAD DUP3 SSTORE SWAP2 PUSH1 0x20 ADD SWAP2 SWAP1 PUSH1 0x1 ADD SWAP1 PUSH2 0x12BD JUMP JUMPDEST JUMPDEST POP SWAP1 POP PUSH2 0x12E6 SWAP2 SWAP1 PUSH2 0x1409 JUMP JUMPDEST POP SWAP1 JUMP JUMPDEST DUP3 DUP1 SLOAD PUSH2 0x12F6 SWAP1 PUSH2 0x1F6D JUMP JUMPDEST SWAP1 PUSH1 0x0 MSTORE PUSH1 0x20 PUSH1 0x0 KECCAK256 SWAP1 PUSH1 0x1F ADD PUSH1 0x20 SWAP1 DIV DUP2 ADD SWAP3 DUP3 PUSH2 0x1318 JUMPI PUSH1 0x0 DUP6 SSTORE PUSH2 0x1366 JUMP JUMPDEST DUP3 PUSH1 0x1F LT PUSH2 0x1329 JUMPI DUP1 SLOAD DUP6 SSTORE PUSH2 0x1366 JUMP JUMPDEST DUP3 DUP1 ADD PUSH1 0x1 ADD DUP6 SSTORE DUP3 ISZERO PUSH2 0x1366 JUMPI PUSH1 0x0 MSTORE PUSH1 0x20 PUSH1 0x0 KECCAK256 SWAP2 PUSH1 0x1F ADD PUSH1 0x20 SWAP1 DIV DUP3 ADD JUMPDEST DUP3 DUP2 GT ISZERO PUSH2 0x1365 JUMPI DUP3 SLOAD DUP3 SSTORE SWAP2 PUSH1 0x1 ADD SWAP2 SWAP1 PUSH1 0x1 ADD SWAP1 PUSH2 0x134A JUMP JUMPDEST JUMPDEST POP SWAP1 POP PUSH2 0x1373 SWAP2 SWAP1 PUSH2 0x1409 JUMP JUMPDEST POP SWAP1 JUMP JUMPDEST POP DUP1 SLOAD PUSH2 0x1383 SWAP1 PUSH2 0x1F6D JUMP JUMPDEST PUSH1 0x0 DUP3 SSTORE DUP1 PUSH1 0x1F LT PUSH2 0x1395 JUMPI POP PUSH2 0x13B4 JUMP JUMPDEST PUSH1 0x1F ADD PUSH1 0x20 SWAP1 DIV SWAP1 PUSH1 0x0 MSTORE PUSH1 0x20 PUSH1 0x0 KECCAK256 SWAP1 DUP2 ADD SWAP1 PUSH2 0x13B3 SWAP2 SWAP1 PUSH2 0x1409 JUMP JUMPDEST JUMPDEST POP JUMP JUMPDEST PUSH1 0x40 MLOAD DUP1 PUSH1 0xC0 ADD PUSH1 0x40 MSTORE DUP1 PUSH1 0x0 DUP2 MSTORE PUSH1 0x20 ADD PUSH1 0x60 DUP2 MSTORE PUSH1 0x20 ADD PUSH1 0x0 DUP2 MSTORE PUSH1 0x20 ADD PUSH1 0x0 PUSH20 0xFFFFFFFFFFFFFFFFFFFFFFFFFFFFFFFFFFFFFFFF AND DUP2 MSTORE PUSH1 0x20 ADD PUSH1 0x0 DUP2 MSTORE PUSH1 0x20 ADD PUSH1 0x0 PUSH4 0xFFFFFFFF AND DUP2 MSTORE POP SWAP1 JUMP JUMPDEST JUMPDEST DUP1 DUP3 GT ISZERO PUSH2 0x1422 JUMPI PUSH1 0x0 DUP2 PUSH1 0x0 SWAP1 SSTORE POP PUSH1 0x1 ADD PUSH2 0x140A JUMP JUMPDEST POP SWAP1 JUMP JUMPDEST PUSH1 0x0 PUSH2 0x1439 PUSH2 0x1434 DUP5 PUSH2 0x1D96 JUMP JUMPDEST PUSH2 0x1D71 JUMP JUMPDEST SWAP1 POP DUP3 DUP2 MSTORE PUSH1 0x20 DUP2 ADD DUP5 DUP5 DUP5 ADD GT ISZERO PUSH2 0x1455 JUMPI PUSH2 0x1454 PUSH2 0x20F9 JUMP JUMPDEST JUMPDEST PUSH2 0x1460 DUP5 DUP3 DUP6 PUSH2 0x1F2B JUMP JUMPDEST POP SWAP4 SWAP3 POP POP POP JUMP JUMPDEST PUSH1 0x0 DUP2 CALLDATALOAD SWAP1 POP PUSH2 0x1477 DUP2 PUSH2 0x21C7 JUMP JUMPDEST SWAP3 SWAP2 POP POP JUMP JUMPDEST PUSH1 0x0 DUP3 PUSH1 0x1F DUP4 ADD SLT PUSH2 0x1492 JUMPI PUSH2 0x1491 PUSH2 0x20F4 JUMP JUMPDEST JUMPDEST DUP2 CALLDATALOAD PUSH2 0x14A2 DUP5 DUP3 PUSH1 0x20 DUP7 ADD PUSH2 0x1426 JUMP JUMPDEST SWAP2 POP POP SWAP3 SWAP2 POP POP JUMP JUMPDEST PUSH1 0x0 DUP2 CALLDATALOAD SWAP1 POP PUSH2 0x14BA DUP2 PUSH2 0x21DE JUMP JUMPDEST SWAP3 SWAP2 POP POP JUMP JUMPDEST PUSH1 0x0 DUP2 CALLDATALOAD SWAP1 POP PUSH2 0x14CF DUP2 PUSH2 0x21F5 JUMP JUMPDEST SWAP3 SWAP2 POP POP JUMP JUMPDEST PUSH1 0x0 PUSH1 0x20 DUP3 DUP5 SUB SLT ISZERO PUSH2 0x14EB JUMPI PUSH2 0x14EA PUSH2 0x2103 JUMP JUMPDEST JUMPDEST PUSH1 0x0 PUSH2 0x14F9 DUP5 DUP3 DUP6 ADD PUSH2 0x1468 JUMP JUMPDEST SWAP2 POP POP SWAP3 SWAP2 POP POP JUMP JUMPDEST PUSH1 0x0 PUSH1 0x20 DUP3 DUP5 SUB SLT ISZERO PUSH2 0x1518 JUMPI PUSH2 0x1517 PUSH2 0x2103 JUMP JUMPDEST JUMPDEST PUSH1 0x0 PUSH2 0x1526 DUP5 DUP3 DUP6 ADD PUSH2 0x14AB JUMP JUMPDEST SWAP2 POP POP SWAP3 SWAP2 POP POP JUMP JUMPDEST PUSH1 0x0 DUP1 PUSH1 0x0 PUSH1 0x60 DUP5 DUP7 SUB SLT ISZERO PUSH2 0x1548 JUMPI PUSH2 0x1547 PUSH2 0x2103 JUMP JUMPDEST JUMPDEST PUSH1 0x0 PUSH2 0x1556 DUP7 DUP3 DUP8 ADD PUSH2 0x14AB JUMP JUMPDEST SWAP4 POP POP PUSH1 0x20 DUP5 ADD CALLDATALOAD PUSH8 0xFFFFFFFFFFFFFFFF DUP2 GT ISZERO PUSH2 0x1577 JUMPI PUSH2 0x1576 PUSH2 0x20FE JUMP JUMPDEST JUMPDEST PUSH2 0x1583 DUP7 DUP3 DUP8 ADD PUSH2 0x147D JUMP JUMPDEST SWAP3 POP POP PUSH1 0x40 PUSH2 0x1594 DUP7 DUP3 DUP8 ADD PUSH2 0x14C0 JUMP JUMPDEST SWAP2 POP POP SWAP3 POP SWAP3 POP SWAP3 JUMP JUMPDEST PUSH1 0x0 PUSH2 0x15AA DUP4 DUP4 PUSH2 0x1837 JUMP JUMPDEST SWAP1 POP SWAP3 SWAP2 POP POP JUMP JUMPDEST PUSH1 0x0 PUSH2 0x15BE DUP4 DUP4 PUSH2 0x1949 JUMP JUMPDEST SWAP1 POP SWAP3 SWAP2 POP POP JUMP JUMPDEST PUSH2 0x15CF DUP2 PUSH2 0x1EA9 JUMP JUMPDEST DUP3 MSTORE POP POP JUMP JUMPDEST PUSH2 0x15DE DUP2 PUSH2 0x1EA9 JUMP JUMPDEST DUP3 MSTORE POP POP JUMP JUMPDEST PUSH1 0x0 PUSH2 0x15EF DUP3 PUSH2 0x1E01 JUMP JUMPDEST PUSH2 0x15F9 DUP2 DUP6 PUSH2 0x1E3C JUMP JUMPDEST SWAP4 POP DUP4 PUSH1 0x20 DUP3 MUL DUP6 ADD PUSH2 0x160B DUP6 PUSH2 0x1DC7 JUMP JUMPDEST DUP1 PUSH1 0x0 JUMPDEST DUP6 DUP2 LT ISZERO PUSH2 0x1647 JUMPI DUP5 DUP5 SUB DUP10 MSTORE DUP2 MLOAD PUSH2 0x1628 DUP6 DUP3 PUSH2 0x159E JUMP JUMPDEST SWAP5 POP PUSH2 0x1633 DUP4 PUSH2 0x1E22 JUMP JUMPDEST SWAP3 POP PUSH1 0x20 DUP11 ADD SWAP10 POP POP PUSH1 0x1 DUP2 ADD SWAP1 POP PUSH2 0x160F JUMP JUMPDEST POP DUP3 SWAP8 POP DUP8 SWAP6 POP POP POP POP POP POP SWAP3 SWAP2 POP POP JUMP JUMPDEST PUSH1 0x0 PUSH2 0x1664 DUP3 PUSH2 0x1E0C JUMP JUMPDEST PUSH2 0x166E DUP2 DUP6 PUSH2 0x1E3C JUMP JUMPDEST SWAP4 POP DUP4 PUSH1 0x20 DUP3 MUL DUP6 ADD PUSH2 0x1680 DUP6 PUSH2 0x1DD7 JUMP JUMPDEST DUP1 PUSH1 0x0 JUMPDEST DUP6 DUP2 LT ISZERO PUSH2 0x16BB JUMPI DUP5 DUP5 SUB DUP10 MSTORE DUP2 PUSH2 0x169C DUP6 DUP3 PUSH2 0x15B2 JUMP JUMPDEST SWAP5 POP PUSH2 0x16A7 DUP4 PUSH2 0x1E2F JUMP JUMPDEST SWAP3 POP PUSH1 0x20 DUP11 ADD SWAP10 POP POP PUSH1 0x1 DUP2 ADD SWAP1 POP PUSH2 0x1684 JUMP JUMPDEST POP DUP3 SWAP8 POP DUP8 SWAP6 POP POP POP POP POP POP SWAP3 SWAP2 POP POP JUMP JUMPDEST PUSH2 0x16D6 DUP2 PUSH2 0x1EF5 JUMP JUMPDEST DUP3 MSTORE POP POP JUMP JUMPDEST PUSH1 0x0 PUSH2 0x16E7 DUP3 PUSH2 0x1E17 JUMP JUMPDEST PUSH2 0x16F1 DUP2 DUP6 PUSH2 0x1E4D JUMP JUMPDEST SWAP4 POP PUSH2 0x1701 DUP2 DUP6 PUSH1 0x20 DUP7 ADD PUSH2 0x1F3A JUMP JUMPDEST PUSH2 0x170A DUP2 PUSH2 0x2108 JUMP JUMPDEST DUP5 ADD SWAP2 POP POP SWAP3 SWAP2 POP POP JUMP JUMPDEST PUSH1 0x0 PUSH2 0x1720 DUP3 PUSH2 0x1E17 JUMP JUMPDEST PUSH2 0x172A DUP2 DUP6 PUSH2 0x1E5E JUMP JUMPDEST SWAP4 POP PUSH2 0x173A DUP2 DUP6 PUSH1 0x20 DUP7 ADD PUSH2 0x1F3A JUMP JUMPDEST PUSH2 0x1743 DUP2 PUSH2 0x2108 JUMP JUMPDEST DUP5 ADD SWAP2 POP POP SWAP3 SWAP2 POP POP JUMP JUMPDEST PUSH1 0x0 DUP2 SLOAD PUSH2 0x175B DUP2 PUSH2 0x1F6D JUMP JUMPDEST PUSH2 0x1765 DUP2 DUP7 PUSH2 0x1E4D JUMP JUMPDEST SWAP5 POP PUSH1 0x1 DUP3 AND PUSH1 0x0 DUP2 EQ PUSH2 0x1780 JUMPI PUSH1 0x1 DUP2 EQ PUSH2 0x1792 JUMPI PUSH2 0x17C5 JUMP JUMPDEST PUSH1 0xFF NOT DUP4 AND DUP7 MSTORE PUSH1 0x20 DUP7 ADD SWAP4 POP PUSH2 0x17C5 JUMP JUMPDEST PUSH2 0x179B DUP6 PUSH2 0x1DEC JUMP JUMPDEST PUSH1 0x0 JUMPDEST DUP4 DUP2 LT ISZERO PUSH2 0x17BD JUMPI DUP2 SLOAD DUP2 DUP10 ADD MSTORE PUSH1 0x1 DUP3 ADD SWAP2 POP PUSH1 0x20 DUP2 ADD SWAP1 POP PUSH2 0x179E JUMP JUMPDEST DUP1 DUP9 ADD SWAP6 POP POP POP JUMPDEST POP POP POP SWAP3 SWAP2 POP POP JUMP JUMPDEST PUSH1 0x0 PUSH2 0x17DB PUSH1 0x22 DUP4 PUSH2 0x1E5E JUMP JUMPDEST SWAP2 POP PUSH2 0x17E6 DUP3 PUSH2 0x2126 JUMP JUMPDEST PUSH1 0x40 DUP3 ADD SWAP1 POP SWAP2 SWAP1 POP JUMP JUMPDEST PUSH1 0x0 PUSH2 0x17FE PUSH1 0x1D DUP4 PUSH2 0x1E5E JUMP JUMPDEST SWAP2 POP PUSH2 0x1809 DUP3 PUSH2 0x2175 JUMP JUMPDEST PUSH1 0x20 DUP3 ADD SWAP1 POP SWAP2 SWAP1 POP JUMP JUMPDEST PUSH1 0x0 PUSH2 0x1821 PUSH1 0x15 DUP4 PUSH2 0x1E5E JUMP JUMPDEST SWAP2 POP PUSH2 0x182C DUP3 PUSH2 0x219E JUMP JUMPDEST PUSH1 0x20 DUP3 ADD SWAP1 POP SWAP2 SWAP1 POP JUMP JUMPDEST PUSH1 0x0 PUSH1 0xC0 DUP4 ADD PUSH1 0x0 DUP4 ADD MLOAD PUSH2 0x184F PUSH1 0x0 DUP7 ADD DUP3 PUSH2 0x1ACB JUMP JUMPDEST POP PUSH1 0x20 DUP4 ADD MLOAD DUP5 DUP3 SUB PUSH1 0x20 DUP7 ADD MSTORE PUSH2 0x1867 DUP3 DUP3 PUSH2 0x16DC JUMP JUMPDEST SWAP2 POP POP PUSH1 0x40 DUP4 ADD MLOAD PUSH2 0x187C PUSH1 0x40 DUP7 ADD DUP3 PUSH2 0x1ACB JUMP JUMPDEST POP PUSH1 0x60 DUP4 ADD MLOAD PUSH2 0x188F PUSH1 0x60 DUP7 ADD DUP3 PUSH2 0x15C6 JUMP JUMPDEST POP PUSH1 0x80 DUP4 ADD MLOAD PUSH2 0x18A2 PUSH1 0x80 DUP7 ADD DUP3 PUSH2 0x1ACB JUMP JUMPDEST POP PUSH1 0xA0 DUP4 ADD MLOAD PUSH2 0x18B5 PUSH1 0xA0 DUP7 ADD DUP3 PUSH2 0x1AE9 JUMP JUMPDEST POP DUP1 SWAP2 POP POP SWAP3 SWAP2 POP POP JUMP JUMPDEST PUSH1 0x0 PUSH1 0xC0 DUP4 ADD PUSH1 0x0 DUP4 ADD MLOAD PUSH2 0x18D8 PUSH1 0x0 DUP7 ADD DUP3 PUSH2 0x1ACB JUMP JUMPDEST POP PUSH1 0x20 DUP4 ADD MLOAD DUP5 DUP3 SUB PUSH1 0x20 DUP7 ADD MSTORE PUSH2 0x18F0 DUP3 DUP3 PUSH2 0x16DC JUMP JUMPDEST SWAP2 POP POP PUSH1 0x40 DUP4 ADD MLOAD PUSH2 0x1905 PUSH1 0x40 DUP7 ADD DUP3 PUSH2 0x1ACB JUMP JUMPDEST POP PUSH1 0x60 DUP4 ADD MLOAD PUSH2 0x1918 PUSH1 0x60 DUP7 ADD DUP3 PUSH2 0x15C6 JUMP JUMPDEST POP PUSH1 0x80 DUP4 ADD MLOAD PUSH2 0x192B PUSH1 0x80 DUP7 ADD DUP3 PUSH2 0x1ACB JUMP JUMPDEST POP PUSH1 0xA0 DUP4 ADD MLOAD PUSH2 0x193E PUSH1 0xA0 DUP7 ADD DUP3 PUSH2 0x1AE9 JUMP JUMPDEST POP DUP1 SWAP2 POP POP SWAP3 SWAP2 POP POP JUMP JUMPDEST PUSH1 0x0 PUSH1 0xC0 DUP4 ADD PUSH1 0x0 DUP1 DUP5 ADD SLOAD SWAP1 POP PUSH2 0x1960 DUP2 PUSH2 0x1FB9 JUMP JUMPDEST PUSH2 0x196D PUSH1 0x0 DUP8 ADD DUP3 PUSH2 0x1ACB JUMP JUMPDEST POP PUSH1 0x1 DUP5 ADD DUP6 DUP4 SUB PUSH1 0x20 DUP8 ADD MSTORE PUSH2 0x1984 DUP4 DUP3 PUSH2 0x174E JUMP JUMPDEST SWAP3 POP POP PUSH1 0x2 DUP5 ADD SLOAD SWAP1 POP PUSH2 0x1997 DUP2 PUSH2 0x1FB9 JUMP JUMPDEST PUSH2 0x19A4 PUSH1 0x40 DUP8 ADD DUP3 PUSH2 0x1ACB JUMP JUMPDEST POP PUSH1 0x3 DUP5 ADD SLOAD SWAP1 POP PUSH2 0x19B5 DUP2 PUSH2 0x1F9F JUMP JUMPDEST PUSH2 0x19C2 PUSH1 0x60 DUP8 ADD DUP3 PUSH2 0x15C6 JUMP JUMPDEST POP PUSH1 0x4 DUP5 ADD SLOAD SWAP1 POP PUSH2 0x19D3 DUP2 PUSH2 0x1FB9 JUMP JUMPDEST PUSH2 0x19E0 PUSH1 0x80 DUP8 ADD DUP3 PUSH2 0x1ACB JUMP JUMPDEST POP PUSH1 0x5 DUP5 ADD SLOAD SWAP1 POP PUSH2 0x19F1 DUP2 PUSH2 0x1FD3 JUMP JUMPDEST PUSH2 0x19FE PUSH1 0xA0 DUP8 ADD DUP3 PUSH2 0x1AE9 JUMP JUMPDEST POP DUP2 SWAP3 POP POP POP SWAP3 SWAP2 POP POP JUMP JUMPDEST PUSH1 0x0 PUSH1 0xC0 DUP4 ADD PUSH1 0x0 DUP1 DUP5 ADD SLOAD SWAP1 POP PUSH2 0x1A21 DUP2 PUSH2 0x1FB9 JUMP JUMPDEST PUSH2 0x1A2E PUSH1 0x0 DUP8 ADD DUP3 PUSH2 0x1ACB JUMP JUMPDEST POP PUSH1 0x1 DUP5 ADD DUP6 DUP4 SUB PUSH1 0x20 DUP8 ADD MSTORE PUSH2 0x1A45 DUP4 DUP3 PUSH2 0x174E JUMP JUMPDEST SWAP3 POP POP PUSH1 0x2 DUP5 ADD SLOAD SWAP1 POP PUSH2 0x1A58 DUP2 PUSH2 0x1FB9 JUMP JUMPDEST PUSH2 0x1A65 PUSH1 0x40 DUP8 ADD DUP3 PUSH2 0x1ACB JUMP JUMPDEST POP PUSH1 0x3 DUP5 ADD SLOAD SWAP1 POP PUSH2 0x1A76 DUP2 PUSH2 0x1F9F JUMP JUMPDEST PUSH2 0x1A83 PUSH1 0x60 DUP8 ADD DUP3 PUSH2 0x15C6 JUMP JUMPDEST POP PUSH1 0x4 DUP5 ADD SLOAD SWAP1 POP PUSH2 0x1A94 DUP2 PUSH2 0x1FB9 JUMP JUMPDEST PUSH2 0x1AA1 PUSH1 0x80 DUP8 ADD DUP3 PUSH2 0x1ACB JUMP JUMPDEST POP PUSH1 0x5 DUP5 ADD SLOAD SWAP1 POP PUSH2 0x1AB2 DUP2 PUSH2 0x1FD3 JUMP JUMPDEST PUSH2 0x1ABF PUSH1 0xA0 DUP8 ADD DUP3 PUSH2 0x1AE9 JUMP JUMPDEST POP DUP2 SWAP3 POP POP POP SWAP3 SWAP2 POP POP JUMP JUMPDEST PUSH2 0x1AD4 DUP2 PUSH2 0x1EDB JUMP JUMPDEST DUP3 MSTORE POP POP JUMP JUMPDEST PUSH2 0x1AE3 DUP2 PUSH2 0x1EDB JUMP JUMPDEST DUP3 MSTORE POP POP JUMP JUMPDEST PUSH2 0x1AF2 DUP2 PUSH2 0x1EE5 JUMP JUMPDEST DUP3 MSTORE POP POP JUMP JUMPDEST PUSH2 0x1B01 DUP2 PUSH2 0x1EE5 JUMP JUMPDEST DUP3 MSTORE POP POP JUMP JUMPDEST PUSH1 0x0 PUSH1 0x20 DUP3 ADD SWAP1 POP DUP2 DUP2 SUB PUSH1 0x0 DUP4 ADD MSTORE PUSH2 0x1B21 DUP2 DUP5 PUSH2 0x15E4 JUMP JUMPDEST SWAP1 POP SWAP3 SWAP2 POP POP JUMP JUMPDEST PUSH1 0x0 PUSH1 0x20 DUP3 ADD SWAP1 POP DUP2 DUP2 SUB PUSH1 0x0 DUP4 ADD MSTORE PUSH2 0x1B43 DUP2 DUP5 PUSH2 0x1659 JUMP JUMPDEST SWAP1 POP SWAP3 SWAP2 POP POP JUMP JUMPDEST PUSH1 0x0 PUSH1 0x20 DUP3 ADD SWAP1 POP PUSH2 0x1B60 PUSH1 0x0 DUP4 ADD DUP5 PUSH2 0x16CD JUMP JUMPDEST SWAP3 SWAP2 POP POP JUMP JUMPDEST PUSH1 0x0 PUSH1 0x20 DUP3 ADD SWAP1 POP DUP2 DUP2 SUB PUSH1 0x0 DUP4 ADD MSTORE PUSH2 0x1B7F DUP2 PUSH2 0x17CE JUMP JUMPDEST SWAP1 POP SWAP2 SWAP1 POP JUMP JUMPDEST PUSH1 0x0 PUSH1 0x20 DUP3 ADD SWAP1 POP DUP2 DUP2 SUB PUSH1 0x0 DUP4 ADD MSTORE PUSH2 0x1B9F DUP2 PUSH2 0x17F1 JUMP JUMPDEST SWAP1 POP SWAP2 SWAP1 POP JUMP JUMPDEST PUSH1 0x0 PUSH1 0x20 DUP3 ADD SWAP1 POP DUP2 DUP2 SUB PUSH1 0x0 DUP4 ADD MSTORE PUSH2 0x1BBF DUP2 PUSH2 0x1814 JUMP JUMPDEST SWAP1 POP SWAP2 SWAP1 POP JUMP JUMPDEST PUSH1 0x0 PUSH1 0x20 DUP3 ADD SWAP1 POP DUP2 DUP2 SUB PUSH1 0x0 DUP4 ADD MSTORE PUSH2 0x1BE0 DUP2 DUP5 PUSH2 0x18C0 JUMP JUMPDEST SWAP1 POP SWAP3 SWAP2 POP POP JUMP JUMPDEST PUSH1 0x0 PUSH1 0x20 DUP3 ADD SWAP1 POP PUSH2 0x1BFD PUSH1 0x0 DUP4 ADD DUP5 PUSH2 0x1ADA JUMP JUMPDEST SWAP3 SWAP2 POP POP JUMP JUMPDEST PUSH1 0x0 PUSH1 0x80 DUP3 ADD SWAP1 POP PUSH2 0x1C18 PUSH1 0x0 DUP4 ADD DUP8 PUSH2 0x1ADA JUMP JUMPDEST DUP2 DUP2 SUB PUSH1 0x20 DUP4 ADD MSTORE PUSH2 0x1C2A DUP2 DUP7 PUSH2 0x1715 JUMP JUMPDEST SWAP1 POP DUP2 DUP2 SUB PUSH1 0x40 DUP4 ADD MSTORE PUSH2 0x1C3E DUP2 DUP6 PUSH2 0x1715 JUMP JUMPDEST SWAP1 POP PUSH2 0x1C4D PUSH1 0x60 DUP4 ADD DUP5 PUSH2 0x1ADA JUMP JUMPDEST SWAP6 SWAP5 POP POP POP POP POP JUMP JUMPDEST PUSH1 0x0 PUSH1 0xC0 DUP3 ADD SWAP1 POP PUSH2 0x1C6B PUSH1 0x0 DUP4 ADD DUP10 PUSH2 0x1ADA JUMP JUMPDEST DUP2 DUP2 SUB PUSH1 0x20 DUP4 ADD MSTORE PUSH2 0x1C7D DUP2 DUP9 PUSH2 0x1715 JUMP JUMPDEST SWAP1 POP PUSH2 0x1C8C PUSH1 0x40 DUP4 ADD DUP8 PUSH2 0x1ADA JUMP JUMPDEST PUSH2 0x1C99 PUSH1 0x60 DUP4 ADD DUP7 PUSH2 0x15D5 JUMP JUMPDEST PUSH2 0x1CA6 PUSH1 0x80 DUP4 ADD DUP6 PUSH2 0x1ADA JUMP JUMPDEST PUSH2 0x1CB3 PUSH1 0xA0 DUP4 ADD DUP5 PUSH2 0x1AF8 JUMP JUMPDEST SWAP8 SWAP7 POP POP POP POP POP POP POP JUMP JUMPDEST PUSH1 0x0 PUSH1 0x40 DUP3 ADD SWAP1 POP PUSH2 0x1CD3 PUSH1 0x0 DUP4 ADD DUP6 PUSH2 0x1ADA JUMP JUMPDEST DUP2 DUP2 SUB PUSH1 0x20 DUP4 ADD MSTORE PUSH2 0x1CE5 DUP2 DUP5 PUSH2 0x1A0A JUMP JUMPDEST SWAP1 POP SWAP4 SWAP3 POP POP POP JUMP JUMPDEST PUSH1 0x0 PUSH1 0x40 DUP3 ADD SWAP1 POP PUSH2 0x1D03 PUSH1 0x0 DUP4 ADD DUP6 PUSH2 0x1ADA JUMP JUMPDEST PUSH2 0x1D10 PUSH1 0x20 DUP4 ADD DUP5 PUSH2 0x1ADA JUMP JUMPDEST SWAP4 SWAP3 POP POP POP JUMP JUMPDEST PUSH1 0x0 PUSH1 0xA0 DUP3 ADD SWAP1 POP PUSH2 0x1D2C PUSH1 0x0 DUP4 ADD DUP9 PUSH2 0x1ADA JUMP JUMPDEST PUSH2 0x1D39 PUSH1 0x20 DUP4 ADD DUP8 PUSH2 0x1ADA JUMP JUMPDEST DUP2 DUP2 SUB PUSH1 0x40 DUP4 ADD MSTORE PUSH2 0x1D4B DUP2 DUP7 PUSH2 0x1715 JUMP JUMPDEST SWAP1 POP PUSH2 0x1D5A PUSH1 0x60 DUP4 ADD DUP6 PUSH2 0x1AF8 JUMP JUMPDEST PUSH2 0x1D67 PUSH1 0x80 DUP4 ADD DUP5 PUSH2 0x1ADA JUMP JUMPDEST SWAP7 SWAP6 POP POP POP POP POP POP JUMP JUMPDEST PUSH1 0x0 PUSH2 0x1D7B PUSH2 0x1D8C JUMP JUMPDEST SWAP1 POP PUSH2 0x1D87 DUP3 DUP3 PUSH2 0x1FED JUMP JUMPDEST SWAP2 SWAP1 POP JUMP JUMPDEST PUSH1 0x0 PUSH1 0x40 MLOAD SWAP1 POP SWAP1 JUMP JUMPDEST PUSH1 0x0 PUSH8 0xFFFFFFFFFFFFFFFF DUP3 GT ISZERO PUSH2 0x1DB1 JUMPI PUSH2 0x1DB0 PUSH2 0x20C5 JUMP JUMPDEST JUMPDEST PUSH2 0x1DBA DUP3 PUSH2 0x2108 JUMP JUMPDEST SWAP1 POP PUSH1 0x20 DUP2 ADD SWAP1 POP SWAP2 SWAP1 POP JUMP JUMPDEST PUSH1 0x0 DUP2 SWAP1 POP PUSH1 0x20 DUP3 ADD SWAP1 POP SWAP2 SWAP1 POP JUMP JUMPDEST PUSH1 0x0 DUP2 SWAP1 POP DUP2 PUSH1 0x0 MSTORE PUSH1 0x20 PUSH1 0x0 KECCAK256 SWAP1 POP SWAP2 SWAP1 POP JUMP JUMPDEST PUSH1 0x0 DUP2 SWAP1 POP DUP2 PUSH1 0x0 MSTORE PUSH1 0x20 PUSH1 0x0 KECCAK256 SWAP1 POP SWAP2 SWAP1 POP JUMP JUMPDEST PUSH1 0x0 DUP2 MLOAD SWAP1 POP SWAP2 SWAP1 POP JUMP JUMPDEST PUSH1 0x0 DUP2 SLOAD SWAP1 POP SWAP2 SWAP1 POP JUMP JUMPDEST PUSH1 0x0 DUP2 MLOAD SWAP1 POP SWAP2 SWAP1 POP JUMP JUMPDEST PUSH1 0x0 PUSH1 0x20 DUP3 ADD SWAP1 POP SWAP2 SWAP1 POP JUMP JUMPDEST PUSH1 0x0 PUSH1 0x6 DUP3 ADD SWAP1 POP SWAP2 SWAP1 POP JUMP JUMPDEST PUSH1 0x0 DUP3 DUP3 MSTORE PUSH1 0x20 DUP3 ADD SWAP1 POP SWAP3 SWAP2 POP POP JUMP JUMPDEST PUSH1 0x0 DUP3 DUP3 MSTORE PUSH1 0x20 DUP3 ADD SWAP1 POP SWAP3 SWAP2 POP POP JUMP JUMPDEST PUSH1 0x0 DUP3 DUP3 MSTORE PUSH1 0x20 DUP3 ADD SWAP1 POP SWAP3 SWAP2 POP POP JUMP JUMPDEST PUSH1 0x0 PUSH20 0xFFFFFFFFFFFFFFFFFFFFFFFFFFFFFFFFFFFFFFFF DUP3 AND SWAP1 POP SWAP2 SWAP1 POP JUMP JUMPDEST PUSH1 0x0 DUP2 SWAP1 POP SWAP2 SWAP1 POP JUMP JUMPDEST PUSH1 0x0 PUSH4 0xFFFFFFFF DUP3 AND SWAP1 POP SWAP2 SWAP1 POP JUMP JUMPDEST PUSH1 0x0 PUSH2 0x1EB4 DUP3 PUSH2 0x1EBB JUMP JUMPDEST SWAP1 POP SWAP2 SWAP1 POP JUMP JUMPDEST PUSH1 0x0 PUSH20 0xFFFFFFFFFFFFFFFFFFFFFFFFFFFFFFFFFFFFFFFF DUP3 AND SWAP1 POP SWAP2 SWAP1 POP JUMP JUMPDEST PUSH1 0x0 DUP2 SWAP1 POP SWAP2 SWAP1 POP JUMP JUMPDEST PUSH1 0x0 PUSH4 0xFFFFFFFF DUP3 AND SWAP1 POP SWAP2 SWAP1 POP JUMP JUMPDEST PUSH1 0x0 PUSH2 0x1F00 DUP3 PUSH2 0x1F07 JUMP JUMPDEST SWAP1 POP SWAP2 SWAP1 POP JUMP JUMPDEST PUSH1 0x0 PUSH2 0x1F12 DUP3 PUSH2 0x1F19 JUMP JUMPDEST SWAP1 POP SWAP2 SWAP1 POP JUMP JUMPDEST PUSH1 0x0 PUSH2 0x1F24 DUP3 PUSH2 0x1EBB JUMP JUMPDEST SWAP1 POP SWAP2 SWAP1 POP JUMP JUMPDEST DUP3 DUP2 DUP4 CALLDATACOPY PUSH1 0x0 DUP4 DUP4 ADD MSTORE POP POP POP JUMP JUMPDEST PUSH1 0x0 JUMPDEST DUP4 DUP2 LT ISZERO PUSH2 0x1F58 JUMPI DUP1 DUP3 ADD MLOAD DUP2 DUP5 ADD MSTORE PUSH1 0x20 DUP2 ADD SWAP1 POP PUSH2 0x1F3D JUMP JUMPDEST DUP4 DUP2 GT ISZERO PUSH2 0x1F67 JUMPI PUSH1 0x0 DUP5 DUP5 ADD MSTORE JUMPDEST POP POP POP POP JUMP JUMPDEST PUSH1 0x0 PUSH1 0x2 DUP3 DIV SWAP1 POP PUSH1 0x1 DUP3 AND DUP1 PUSH2 0x1F85 JUMPI PUSH1 0x7F DUP3 AND SWAP2 POP JUMPDEST PUSH1 0x20 DUP3 LT DUP2 EQ ISZERO PUSH2 0x1F99 JUMPI PUSH2 0x1F98 PUSH2 0x2096 JUMP JUMPDEST JUMPDEST POP SWAP2 SWAP1 POP JUMP JUMPDEST PUSH1 0x0 PUSH2 0x1FB2 PUSH2 0x1FAD DUP4 PUSH2 0x2119 JUMP JUMPDEST PUSH2 0x1E6F JUMP JUMPDEST SWAP1 POP SWAP2 SWAP1 POP JUMP JUMPDEST PUSH1 0x0 PUSH2 0x1FCC PUSH2 0x1FC7 DUP4 PUSH2 0x2119 JUMP JUMPDEST PUSH2 0x1E8F JUMP JUMPDEST SWAP1 POP SWAP2 SWAP1 POP JUMP JUMPDEST PUSH1 0x0 PUSH2 0x1FE6 PUSH2 0x1FE1 DUP4 PUSH2 0x2119 JUMP JUMPDEST PUSH2 0x1E99 JUMP JUMPDEST SWAP1 POP SWAP2 SWAP1 POP JUMP JUMPDEST PUSH2 0x1FF6 DUP3 PUSH2 0x2108 JUMP JUMPDEST DUP2 ADD DUP2 DUP2 LT PUSH8 0xFFFFFFFFFFFFFFFF DUP3 GT OR ISZERO PUSH2 0x2015 JUMPI PUSH2 0x2014 PUSH2 0x20C5 JUMP JUMPDEST JUMPDEST DUP1 PUSH1 0x40 MSTORE POP POP POP JUMP JUMPDEST PUSH1 0x0 PUSH2 0x2029 DUP3 PUSH2 0x1EDB JUMP JUMPDEST SWAP2 POP PUSH32 0xFFFFFFFFFFFFFFFFFFFFFFFFFFFFFFFFFFFFFFFFFFFFFFFFFFFFFFFFFFFFFFFF DUP3 EQ ISZERO PUSH2 0x205C JUMPI PUSH2 0x205B PUSH2 0x2067 JUMP JUMPDEST JUMPDEST PUSH1 0x1 DUP3 ADD SWAP1 POP SWAP2 SWAP1 POP JUMP JUMPDEST PUSH32 0x4E487B7100000000000000000000000000000000000000000000000000000000 PUSH1 0x0 MSTORE PUSH1 0x11 PUSH1 0x4 MSTORE PUSH1 0x24 PUSH1 0x0 REVERT JUMPDEST PUSH32 0x4E487B7100000000000000000000000000000000000000000000000000000000 PUSH1 0x0 MSTORE PUSH1 0x22 PUSH1 0x4 MSTORE PUSH1 0x24 PUSH1 0x0 REVERT JUMPDEST PUSH32 0x4E487B7100000000000000000000000000000000000000000000000000000000 PUSH1 0x0 MSTORE PUSH1 0x41 PUSH1 0x4 MSTORE PUSH1 0x24 PUSH1 0x0 REVERT JUMPDEST PUSH1 0x0 DUP1 REVERT JUMPDEST PUSH1 0x0 DUP1 REVERT JUMPDEST PUSH1 0x0 DUP1 REVERT JUMPDEST PUSH1 0x0 DUP1 REVERT JUMPDEST PUSH1 0x0 PUSH1 0x1F NOT PUSH1 0x1F DUP4 ADD AND SWAP1 POP SWAP2 SWAP1 POP JUMP JUMPDEST PUSH1 0x0 DUP2 PUSH1 0x0 SHR SWAP1 POP SWAP2 SWAP1 POP JUMP JUMPDEST PUSH32 0x546865726520617265206E6F2070726F647563747320746F206C697374207965 PUSH1 0x0 DUP3 ADD MSTORE PUSH32 0x7421000000000000000000000000000000000000000000000000000000000000 PUSH1 0x20 DUP3 ADD MSTORE POP JUMP JUMPDEST PUSH32 0x5468657265206973206E6F2073756368206974656D207265636F726421000000 PUSH1 0x0 DUP3 ADD MSTORE POP JUMP JUMPDEST PUSH32 0x5468652073616C65206861732065787069726564210000000000000000000000 PUSH1 0x0 DUP3 ADD MSTORE POP JUMP JUMPDEST PUSH2 0x21D0 DUP2 PUSH2 0x1EA9 JUMP JUMPDEST DUP2 EQ PUSH2 0x21DB JUMPI PUSH1 0x0 DUP1 REVERT JUMPDEST POP JUMP JUMPDEST PUSH2 0x21E7 DUP2 PUSH2 0x1EDB JUMP JUMPDEST DUP2 EQ PUSH2 0x21F2 JUMPI PUSH1 0x0 DUP1 REVERT JUMPDEST POP JUMP JUMPDEST PUSH2 0x21FE DUP2 PUSH2 0x1EE5 JUMP JUMPDEST DUP2 EQ PUSH2 0x2209 JUMPI PUSH1 0x0 DUP1 REVERT JUMPDEST POP JUMP INVALID LOG2 PUSH5 0x6970667358 0x22 SLT KECCAK256 0xB1 SWAP13 SDIV DUP13 EXTCODEHASH SWAP11 0xD 0xAC 0xB5 SWAP5 PUSH32 0xDA0C4345853BFEAF596B69FF58350019D7587C9F5C64736F6C63430008070033 "
				},
				"gasEstimates": {
					"creation": {
						"codeDepositCost": "1754000",
						"executionCost": "infinite",
						"totalCost": "infinite"
					},
					"external": {
						"addStar(uint256)": "infinite",
						"cancelSaleAdvert(uint256)": "infinite",
						"createSaleAdvert(uint256,string,uint32)": "infinite",
						"getEntireItems()": "infinite",
						"getItemById(uint256)": "infinite",
						"itemList(uint256)": "infinite",
						"items(uint256)": "infinite",
						"token()": "2685",
						"users(address)": "infinite"
					}
				},
				"methodIdentifiers": {
					"addStar(uint256)": "01750e74",
					"cancelSaleAdvert(uint256)": "ca095a83",
					"createSaleAdvert(uint256,string,uint32)": "4efd1797",
					"getEntireItems()": "5d9eb55c",
					"getItemById(uint256)": "cd2f0710",
					"itemList(uint256)": "3d4d3600",
					"items(uint256)": "bfb231d2",
					"token()": "fc0c546a",
					"users(address)": "a87430ba"
				}
			},
			"storageLayout": {
				"storage": [
					{
						"astId": 821,
						"contract": "contracts/SwapCart.sol:SwapCart",
						"label": "token",
						"offset": 0,
						"slot": "0",
						"type": "t_contract(IERC20)663"
					},
					{
						"astId": 825,
						"contract": "contracts/SwapCart.sol:SwapCart",
						"label": "itemList",
						"offset": 0,
						"slot": "1",
						"type": "t_array(t_struct(Item)801_storage)dyn_storage"
					},
					{
						"astId": 830,
						"contract": "contracts/SwapCart.sol:SwapCart",
						"label": "users",
						"offset": 0,
						"slot": "2",
						"type": "t_mapping(t_address,t_struct(User)818_storage)"
					},
					{
						"astId": 835,
						"contract": "contracts/SwapCart.sol:SwapCart",
						"label": "items",
						"offset": 0,
						"slot": "3",
						"type": "t_mapping(t_uint256,t_struct(Item)801_storage)"
					},
					{
						"astId": 842,
						"contract": "contracts/SwapCart.sol:SwapCart",
						"label": "itemCounter",
						"offset": 0,
						"slot": "4",
						"type": "t_struct(Counter)716_storage"
					}
				],
				"types": {
					"t_address": {
						"encoding": "inplace",
						"label": "address",
						"numberOfBytes": "20"
					},
					"t_array(t_struct(Item)801_storage)dyn_storage": {
						"base": "t_struct(Item)801_storage",
						"encoding": "dynamic_array",
						"label": "struct SwapCart.Item[]",
						"numberOfBytes": "32"
					},
					"t_contract(IERC20)663": {
						"encoding": "inplace",
						"label": "contract IERC20",
						"numberOfBytes": "20"
					},
					"t_mapping(t_address,t_struct(User)818_storage)": {
						"encoding": "mapping",
						"key": "t_address",
						"label": "mapping(address => struct SwapCart.User)",
						"numberOfBytes": "32",
						"value": "t_struct(User)818_storage"
					},
					"t_mapping(t_uint256,t_struct(Item)801_storage)": {
						"encoding": "mapping",
						"key": "t_uint256",
						"label": "mapping(uint256 => struct SwapCart.Item)",
						"numberOfBytes": "32",
						"value": "t_struct(Item)801_storage"
					},
					"t_string_storage": {
						"encoding": "bytes",
						"label": "string",
						"numberOfBytes": "32"
					},
					"t_struct(Counter)716_storage": {
						"encoding": "inplace",
						"label": "struct Counters.Counter",
						"members": [
							{
								"astId": 715,
								"contract": "contracts/SwapCart.sol:SwapCart",
								"label": "_value",
								"offset": 0,
								"slot": "0",
								"type": "t_uint256"
							}
						],
						"numberOfBytes": "32"
					},
					"t_struct(Item)801_storage": {
						"encoding": "inplace",
						"label": "struct SwapCart.Item",
						"members": [
							{
								"astId": 790,
								"contract": "contracts/SwapCart.sol:SwapCart",
								"label": "itemId",
								"offset": 0,
								"slot": "0",
								"type": "t_uint256"
							},
							{
								"astId": 792,
								"contract": "contracts/SwapCart.sol:SwapCart",
								"label": "itemImage",
								"offset": 0,
								"slot": "1",
								"type": "t_string_storage"
							},
							{
								"astId": 794,
								"contract": "contracts/SwapCart.sol:SwapCart",
								"label": "star",
								"offset": 0,
								"slot": "2",
								"type": "t_uint256"
							},
							{
								"astId": 796,
								"contract": "contracts/SwapCart.sol:SwapCart",
								"label": "seller",
								"offset": 0,
								"slot": "3",
								"type": "t_address"
							},
							{
								"astId": 798,
								"contract": "contracts/SwapCart.sol:SwapCart",
								"label": "price",
								"offset": 0,
								"slot": "4",
								"type": "t_uint256"
							},
							{
								"astId": 800,
								"contract": "contracts/SwapCart.sol:SwapCart",
								"label": "dueDate",
								"offset": 0,
								"slot": "5",
								"type": "t_uint32"
							}
						],
						"numberOfBytes": "192"
					},
					"t_struct(User)818_storage": {
						"encoding": "inplace",
						"label": "struct SwapCart.User",
						"members": [
							{
								"astId": 803,
								"contract": "contracts/SwapCart.sol:SwapCart",
								"label": "userID",
								"offset": 0,
								"slot": "0",
								"type": "t_uint256"
							},
							{
								"astId": 805,
								"contract": "contracts/SwapCart.sol:SwapCart",
								"label": "userName",
								"offset": 0,
								"slot": "1",
								"type": "t_string_storage"
							},
							{
								"astId": 807,
								"contract": "contracts/SwapCart.sol:SwapCart",
								"label": "deliveryAddress",
								"offset": 0,
								"slot": "2",
								"type": "t_string_storage"
							},
							{
								"astId": 811,
								"contract": "contracts/SwapCart.sol:SwapCart",
								"label": "cart",
								"offset": 0,
								"slot": "3",
								"type": "t_array(t_struct(Item)801_storage)dyn_storage"
							},
							{
								"astId": 815,
								"contract": "contracts/SwapCart.sol:SwapCart",
								"label": "inventory",
								"offset": 0,
								"slot": "4",
								"type": "t_array(t_struct(Item)801_storage)dyn_storage"
							},
							{
								"astId": 817,
								"contract": "contracts/SwapCart.sol:SwapCart",
								"label": "balance",
								"offset": 0,
								"slot": "5",
								"type": "t_uint256"
							}
						],
						"numberOfBytes": "192"
					},
					"t_uint256": {
						"encoding": "inplace",
						"label": "uint256",
						"numberOfBytes": "32"
					},
					"t_uint32": {
						"encoding": "inplace",
						"label": "uint32",
						"numberOfBytes": "4"
					}
				}
			},
			"userdoc": {
				"kind": "user",
				"methods": {},
				"version": 1
			}
		}
	}
}