{
	"contracts/SwapCart.sol": {
		"SwapCart": {
			"abi": [
				{
					"inputs": [
						{
							"internalType": "address",
							"name": "_token",
							"type": "address"
						}
					],
					"stateMutability": "nonpayable",
					"type": "constructor"
				},
				{
					"anonymous": false,
					"inputs": [
						{
							"indexed": false,
							"internalType": "uint256",
							"name": "itmId",
							"type": "uint256"
						},
						{
							"indexed": false,
							"internalType": "uint256",
							"name": "itmStar",
							"type": "uint256"
						},
						{
							"indexed": true,
							"internalType": "address",
							"name": "caller",
							"type": "address"
						}
					],
					"name": "AddStar",
					"type": "event"
				},
				{
					"anonymous": false,
					"inputs": [
						{
							"indexed": false,
							"internalType": "uint256",
							"name": "itmId",
							"type": "uint256"
						},
						{
							"indexed": true,
							"internalType": "address",
							"name": "caller",
							"type": "address"
						}
					],
					"name": "CancelSaleAdvert",
					"type": "event"
				},
				{
					"anonymous": false,
					"inputs": [
						{
							"indexed": false,
							"internalType": "uint256",
							"name": "id",
							"type": "uint256"
						},
						{
							"indexed": false,
							"internalType": "uint256",
							"name": "price",
							"type": "uint256"
						},
						{
							"indexed": false,
							"internalType": "string",
							"name": "image",
							"type": "string"
						},
						{
							"indexed": false,
							"internalType": "uint32",
							"name": "dueDate",
							"type": "uint32"
						},
						{
							"indexed": false,
							"internalType": "uint256",
							"name": "star",
							"type": "uint256"
						},
						{
							"indexed": true,
							"internalType": "address",
							"name": "seller",
							"type": "address"
						}
					],
					"name": "CreateSaleAdvert",
					"type": "event"
				},
				{
					"anonymous": false,
					"inputs": [
						{
							"components": [
								{
									"internalType": "uint256",
									"name": "itemId",
									"type": "uint256"
								},
								{
									"internalType": "string",
									"name": "itemImage",
									"type": "string"
								},
								{
									"internalType": "uint256",
									"name": "star",
									"type": "uint256"
								},
								{
									"internalType": "address",
									"name": "seller",
									"type": "address"
								},
								{
									"internalType": "uint256",
									"name": "price",
									"type": "uint256"
								},
								{
									"internalType": "uint32",
									"name": "dueDate",
									"type": "uint32"
								}
							],
							"indexed": false,
							"internalType": "struct SwapCart.Item[]",
							"name": "listOfItems",
							"type": "tuple[]"
						},
						{
							"indexed": true,
							"internalType": "address",
							"name": "caller",
							"type": "address"
						}
					],
					"name": "GetEntireItems",
					"type": "event"
				},
				{
					"anonymous": false,
					"inputs": [
						{
							"indexed": false,
							"internalType": "uint256",
							"name": "itmId",
							"type": "uint256"
						},
						{
							"components": [
								{
									"internalType": "uint256",
									"name": "itemId",
									"type": "uint256"
								},
								{
									"internalType": "string",
									"name": "itemImage",
									"type": "string"
								},
								{
									"internalType": "uint256",
									"name": "star",
									"type": "uint256"
								},
								{
									"internalType": "address",
									"name": "seller",
									"type": "address"
								},
								{
									"internalType": "uint256",
									"name": "price",
									"type": "uint256"
								},
								{
									"internalType": "uint32",
									"name": "dueDate",
									"type": "uint32"
								}
							],
							"indexed": false,
							"internalType": "struct SwapCart.Item",
							"name": "item",
							"type": "tuple"
						},
						{
							"indexed": true,
							"internalType": "address",
							"name": "caller",
							"type": "address"
						}
					],
					"name": "GetItemById",
					"type": "event"
				},
				{
					"anonymous": false,
					"inputs": [
						{
							"indexed": false,
							"internalType": "uint256",
							"name": "itmId",
							"type": "uint256"
						},
						{
							"indexed": true,
							"internalType": "address",
							"name": "caller",
							"type": "address"
						},
						{
							"indexed": false,
							"internalType": "uint256",
							"name": "amount",
							"type": "uint256"
						}
					],
					"name": "Payment",
					"type": "event"
				},
				{
					"inputs": [
						{
							"internalType": "uint256",
							"name": "itmId",
							"type": "uint256"
						}
					],
					"name": "addStar",
					"outputs": [],
					"stateMutability": "nonpayable",
					"type": "function"
				},
				{
					"inputs": [
						{
							"internalType": "uint256",
							"name": "itmId",
							"type": "uint256"
						}
					],
					"name": "cancelSaleAdvert",
					"outputs": [],
					"stateMutability": "nonpayable",
					"type": "function"
				},
				{
					"inputs": [
						{
							"internalType": "uint256",
							"name": "itmPrice",
							"type": "uint256"
						},
						{
							"internalType": "string",
							"name": "itmImage",
							"type": "string"
						},
						{
							"internalType": "uint32",
							"name": "itmDueDate",
							"type": "uint32"
						}
					],
					"name": "createSaleAdvert",
					"outputs": [],
					"stateMutability": "nonpayable",
					"type": "function"
				},
				{
					"inputs": [],
					"name": "getEntireItems",
					"outputs": [
						{
							"components": [
								{
									"internalType": "uint256",
									"name": "itemId",
									"type": "uint256"
								},
								{
									"internalType": "string",
									"name": "itemImage",
									"type": "string"
								},
								{
									"internalType": "uint256",
									"name": "star",
									"type": "uint256"
								},
								{
									"internalType": "address",
									"name": "seller",
									"type": "address"
								},
								{
									"internalType": "uint256",
									"name": "price",
									"type": "uint256"
								},
								{
									"internalType": "uint32",
									"name": "dueDate",
									"type": "uint32"
								}
							],
							"internalType": "struct SwapCart.Item[]",
							"name": "",
							"type": "tuple[]"
						}
					],
					"stateMutability": "nonpayable",
					"type": "function"
				},
				{
					"inputs": [
						{
							"internalType": "uint256",
							"name": "itmId",
							"type": "uint256"
						}
					],
					"name": "getItemById",
					"outputs": [
						{
							"components": [
								{
									"internalType": "uint256",
									"name": "itemId",
									"type": "uint256"
								},
								{
									"internalType": "string",
									"name": "itemImage",
									"type": "string"
								},
								{
									"internalType": "uint256",
									"name": "star",
									"type": "uint256"
								},
								{
									"internalType": "address",
									"name": "seller",
									"type": "address"
								},
								{
									"internalType": "uint256",
									"name": "price",
									"type": "uint256"
								},
								{
									"internalType": "uint32",
									"name": "dueDate",
									"type": "uint32"
								}
							],
							"internalType": "struct SwapCart.Item",
							"name": "",
							"type": "tuple"
						}
					],
					"stateMutability": "nonpayable",
					"type": "function"
				},
				{
					"inputs": [
						{
							"internalType": "uint256",
							"name": "",
							"type": "uint256"
						}
					],
					"name": "itemList",
					"outputs": [
						{
							"internalType": "uint256",
							"name": "itemId",
							"type": "uint256"
						},
						{
							"internalType": "string",
							"name": "itemImage",
							"type": "string"
						},
						{
							"internalType": "uint256",
							"name": "star",
							"type": "uint256"
						},
						{
							"internalType": "address",
							"name": "seller",
							"type": "address"
						},
						{
							"internalType": "uint256",
							"name": "price",
							"type": "uint256"
						},
						{
							"internalType": "uint32",
							"name": "dueDate",
							"type": "uint32"
						}
					],
					"stateMutability": "view",
					"type": "function"
				},
				{
					"inputs": [
						{
							"internalType": "uint256",
							"name": "",
							"type": "uint256"
						}
					],
					"name": "items",
					"outputs": [
						{
							"internalType": "uint256",
							"name": "itemId",
							"type": "uint256"
						},
						{
							"internalType": "string",
							"name": "itemImage",
							"type": "string"
						},
						{
							"internalType": "uint256",
							"name": "star",
							"type": "uint256"
						},
						{
							"internalType": "address",
							"name": "seller",
							"type": "address"
						},
						{
							"internalType": "uint256",
							"name": "price",
							"type": "uint256"
						},
						{
							"internalType": "uint32",
							"name": "dueDate",
							"type": "uint32"
						}
					],
					"stateMutability": "view",
					"type": "function"
				},
				{
					"inputs": [
						{
							"internalType": "uint256",
							"name": "",
							"type": "uint256"
						},
						{
							"internalType": "address",
							"name": "",
							"type": "address"
						}
					],
					"name": "itemsOfUsers",
					"outputs": [
						{
							"internalType": "uint256",
							"name": "",
							"type": "uint256"
						}
					],
					"stateMutability": "view",
					"type": "function"
				},
				{
					"inputs": [
						{
							"internalType": "uint256",
							"name": "itmId",
							"type": "uint256"
						},
						{
							"internalType": "uint256",
							"name": "amount",
							"type": "uint256"
						}
					],
					"name": "payment",
					"outputs": [],
					"stateMutability": "nonpayable",
					"type": "function"
				},
				{
					"inputs": [],
					"name": "token",
					"outputs": [
						{
							"internalType": "contract IERC20",
							"name": "",
							"type": "address"
						}
					],
					"stateMutability": "view",
					"type": "function"
				},
				{
					"inputs": [
						{
							"internalType": "address",
							"name": "",
							"type": "address"
						}
					],
					"name": "users",
					"outputs": [
						{
							"internalType": "uint256",
							"name": "userID",
							"type": "uint256"
						},
						{
							"internalType": "string",
							"name": "userName",
							"type": "string"
						},
						{
							"internalType": "string",
							"name": "deliveryAddress",
							"type": "string"
						},
						{
							"internalType": "uint256",
							"name": "balance",
							"type": "uint256"
						}
					],
					"stateMutability": "view",
					"type": "function"
				}
			],
			"devdoc": {
				"kind": "dev",
				"methods": {},
				"version": 1
			},
			"evm": {
				"assembly": "    /* \"contracts/SwapCart.sol\":172:5606  contract SwapCart{\r... */\n  mstore(0x40, 0x80)\n    /* \"contracts/SwapCart.sol\":851:919  constructor(address _token){\r... */\n  callvalue\n  dup1\n  iszero\n  tag_1\n  jumpi\n  0x00\n  dup1\n  revert\ntag_1:\n  pop\n  mload(0x40)\n  sub(codesize, bytecodeSize)\n  dup1\n  bytecodeSize\n  dup4\n  codecopy\n  dup2\n  dup2\n  add\n  0x40\n  mstore\n  dup2\n  add\n  swap1\n  tag_2\n  swap2\n  swap1\n  tag_3\n  jump\t// in\ntag_2:\n    /* \"contracts/SwapCart.sol\":904:910  _token */\n  dup1\n    /* \"contracts/SwapCart.sol\":889:894  token */\n  0x00\n  dup1\n    /* \"contracts/SwapCart.sol\":889:911  token = IERC20(_token) */\n  0x0100\n  exp\n  dup2\n  sload\n  dup2\n  0xffffffffffffffffffffffffffffffffffffffff\n  mul\n  not\n  and\n  swap1\n  dup4\n  0xffffffffffffffffffffffffffffffffffffffff\n  and\n  mul\n  or\n  swap1\n  sstore\n  pop\n    /* \"contracts/SwapCart.sol\":851:919  constructor(address _token){\r... */\n  pop\n    /* \"contracts/SwapCart.sol\":172:5606  contract SwapCart{\r... */\n  jump(tag_6)\n    /* \"#utility.yul\":7:150   */\ntag_8:\n    /* \"#utility.yul\":64:69   */\n  0x00\n    /* \"#utility.yul\":95:101   */\n  dup2\n    /* \"#utility.yul\":89:102   */\n  mload\n    /* \"#utility.yul\":80:102   */\n  swap1\n  pop\n    /* \"#utility.yul\":111:144   */\n  tag_10\n    /* \"#utility.yul\":138:143   */\n  dup2\n    /* \"#utility.yul\":111:144   */\n  tag_11\n  jump\t// in\ntag_10:\n    /* \"#utility.yul\":7:150   */\n  swap3\n  swap2\n  pop\n  pop\n  jump\t// out\n    /* \"#utility.yul\":156:507   */\ntag_3:\n    /* \"#utility.yul\":226:232   */\n  0x00\n    /* \"#utility.yul\":275:277   */\n  0x20\n    /* \"#utility.yul\":263:272   */\n  dup3\n    /* \"#utility.yul\":254:261   */\n  dup5\n    /* \"#utility.yul\":250:273   */\n  sub\n    /* \"#utility.yul\":246:278   */\n  slt\n    /* \"#utility.yul\":243:362   */\n  iszero\n  tag_13\n  jumpi\n    /* \"#utility.yul\":281:360   */\n  tag_14\n  tag_15\n  jump\t// in\ntag_14:\n    /* \"#utility.yul\":243:362   */\ntag_13:\n    /* \"#utility.yul\":401:402   */\n  0x00\n    /* \"#utility.yul\":426:490   */\n  tag_16\n    /* \"#utility.yul\":482:489   */\n  dup5\n    /* \"#utility.yul\":473:479   */\n  dup3\n    /* \"#utility.yul\":462:471   */\n  dup6\n    /* \"#utility.yul\":458:480   */\n  add\n    /* \"#utility.yul\":426:490   */\n  tag_8\n  jump\t// in\ntag_16:\n    /* \"#utility.yul\":416:490   */\n  swap2\n  pop\n    /* \"#utility.yul\":372:500   */\n  pop\n    /* \"#utility.yul\":156:507   */\n  swap3\n  swap2\n  pop\n  pop\n  jump\t// out\n    /* \"#utility.yul\":594:690   */\ntag_19:\n    /* \"#utility.yul\":631:638   */\n  0x00\n    /* \"#utility.yul\":660:684   */\n  tag_21\n    /* \"#utility.yul\":678:683   */\n  dup3\n    /* \"#utility.yul\":660:684   */\n  tag_22\n  jump\t// in\ntag_21:\n    /* \"#utility.yul\":649:684   */\n  swap1\n  pop\n    /* \"#utility.yul\":594:690   */\n  swap2\n  swap1\n  pop\n  jump\t// out\n    /* \"#utility.yul\":696:822   */\ntag_22:\n    /* \"#utility.yul\":733:740   */\n  0x00\n    /* \"#utility.yul\":773:815   */\n  0xffffffffffffffffffffffffffffffffffffffff\n    /* \"#utility.yul\":766:771   */\n  dup3\n    /* \"#utility.yul\":762:816   */\n  and\n    /* \"#utility.yul\":751:816   */\n  swap1\n  pop\n    /* \"#utility.yul\":696:822   */\n  swap2\n  swap1\n  pop\n  jump\t// out\n    /* \"#utility.yul\":951:1068   */\ntag_15:\n    /* \"#utility.yul\":1060:1061   */\n  0x00\n    /* \"#utility.yul\":1057:1058   */\n  dup1\n    /* \"#utility.yul\":1050:1062   */\n  revert\n    /* \"#utility.yul\":1074:1196   */\ntag_11:\n    /* \"#utility.yul\":1147:1171   */\n  tag_28\n    /* \"#utility.yul\":1165:1170   */\n  dup2\n    /* \"#utility.yul\":1147:1171   */\n  tag_19\n  jump\t// in\ntag_28:\n    /* \"#utility.yul\":1140:1145   */\n  dup2\n    /* \"#utility.yul\":1137:1172   */\n  eq\n    /* \"#utility.yul\":1127:1190   */\n  tag_29\n  jumpi\n    /* \"#utility.yul\":1186:1187   */\n  0x00\n    /* \"#utility.yul\":1183:1184   */\n  dup1\n    /* \"#utility.yul\":1176:1188   */\n  revert\n    /* \"#utility.yul\":1127:1190   */\ntag_29:\n    /* \"#utility.yul\":1074:1196   */\n  pop\n  jump\t// out\n    /* \"contracts/SwapCart.sol\":172:5606  contract SwapCart{\r... */\ntag_6:\n  dataSize(sub_0)\n  dup1\n  dataOffset(sub_0)\n  0x00\n  codecopy\n  0x00\n  return\nstop\n\nsub_0: assembly {\n        /* \"contracts/SwapCart.sol\":172:5606  contract SwapCart{\r... */\n      mstore(0x40, 0x80)\n      callvalue\n      dup1\n      iszero\n      tag_1\n      jumpi\n      0x00\n      dup1\n      revert\n    tag_1:\n      pop\n      jumpi(tag_2, lt(calldatasize, 0x04))\n      shr(0xe0, calldataload(0x00))\n      dup1\n      0xa87430ba\n      gt\n      tag_14\n      jumpi\n      dup1\n      0xa87430ba\n      eq\n      tag_8\n      jumpi\n      dup1\n      0xbfb231d2\n      eq\n      tag_9\n      jumpi\n      dup1\n      0xca095a83\n      eq\n      tag_10\n      jumpi\n      dup1\n      0xcd2f0710\n      eq\n      tag_11\n      jumpi\n      dup1\n      0xe2870aa9\n      eq\n      tag_12\n      jumpi\n      dup1\n      0xfc0c546a\n      eq\n      tag_13\n      jumpi\n      jump(tag_2)\n    tag_14:\n      dup1\n      0x01750e74\n      eq\n      tag_3\n      jumpi\n      dup1\n      0x2f63147f\n      eq\n      tag_4\n      jumpi\n      dup1\n      0x3d4d3600\n      eq\n      tag_5\n      jumpi\n      dup1\n      0x4efd1797\n      eq\n      tag_6\n      jumpi\n      dup1\n      0x5d9eb55c\n      eq\n      tag_7\n      jumpi\n    tag_2:\n      0x00\n      dup1\n      revert\n        /* \"contracts/SwapCart.sol\":5258:5408  function addStar(uint itmId) public buyerCheck(itmId){\r... */\n    tag_3:\n      tag_15\n      0x04\n      dup1\n      calldatasize\n      sub\n      dup2\n      add\n      swap1\n      tag_16\n      swap2\n      swap1\n      tag_17\n      jump\t// in\n    tag_16:\n      tag_18\n      jump\t// in\n    tag_15:\n      stop\n        /* \"contracts/SwapCart.sol\":4440:5086  function payment(uint itmId, uint amount) external expireCheck(itmId) balanceCheck(itmId){\r... */\n    tag_4:\n      tag_19\n      0x04\n      dup1\n      calldatasize\n      sub\n      dup2\n      add\n      swap1\n      tag_20\n      swap2\n      swap1\n      tag_21\n      jump\t// in\n    tag_20:\n      tag_22\n      jump\t// in\n    tag_19:\n      stop\n        /* \"contracts/SwapCart.sol\":575:597  Item[] public itemList */\n    tag_5:\n      tag_23\n      0x04\n      dup1\n      calldatasize\n      sub\n      dup2\n      add\n      swap1\n      tag_24\n      swap2\n      swap1\n      tag_17\n      jump\t// in\n    tag_24:\n      tag_25\n      jump\t// in\n    tag_23:\n      mload(0x40)\n      tag_26\n      swap7\n      swap6\n      swap5\n      swap4\n      swap3\n      swap2\n      swap1\n      tag_27\n      jump\t// in\n    tag_26:\n      mload(0x40)\n      dup1\n      swap2\n      sub\n      swap1\n      return\n        /* \"contracts/SwapCart.sol\":3404:4050  function createSaleAdvert(uint itmPrice, string memory itmImage, uint32 itmDueDate) external{\r... */\n    tag_6:\n      tag_28\n      0x04\n      dup1\n      calldatasize\n      sub\n      dup2\n      add\n      swap1\n      tag_29\n      swap2\n      swap1\n      tag_30\n      jump\t// in\n    tag_29:\n      tag_31\n      jump\t// in\n    tag_28:\n      stop\n        /* \"contracts/SwapCart.sol\":5094:5250  function getEntireItems() public listSizeCheck returns (Item[] memory) {\r... */\n    tag_7:\n      tag_32\n      tag_33\n      jump\t// in\n    tag_32:\n      mload(0x40)\n      tag_34\n      swap2\n      swap1\n      tag_35\n      jump\t// in\n    tag_34:\n      mload(0x40)\n      dup1\n      swap2\n      sub\n      swap1\n      return\n        /* \"contracts/SwapCart.sol\":606:643  mapping(address => User) public users */\n    tag_8:\n      tag_36\n      0x04\n      dup1\n      calldatasize\n      sub\n      dup2\n      add\n      swap1\n      tag_37\n      swap2\n      swap1\n      tag_38\n      jump\t// in\n    tag_37:\n      tag_39\n      jump\t// in\n    tag_36:\n      mload(0x40)\n      tag_40\n      swap5\n      swap4\n      swap3\n      swap2\n      swap1\n      tag_41\n      jump\t// in\n    tag_40:\n      mload(0x40)\n      dup1\n      swap2\n      sub\n      swap1\n      return\n        /* \"contracts/SwapCart.sol\":650:687  mapping(uint256 => Item) public items */\n    tag_9:\n      tag_42\n      0x04\n      dup1\n      calldatasize\n      sub\n      dup2\n      add\n      swap1\n      tag_43\n      swap2\n      swap1\n      tag_17\n      jump\t// in\n    tag_43:\n      tag_44\n      jump\t// in\n    tag_42:\n      mload(0x40)\n      tag_45\n      swap7\n      swap6\n      swap5\n      swap4\n      swap3\n      swap2\n      swap1\n      tag_27\n      jump\t// in\n    tag_45:\n      mload(0x40)\n      dup1\n      swap2\n      sub\n      swap1\n      return\n        /* \"contracts/SwapCart.sol\":4117:4432  function cancelSaleAdvert(uint itmId) external expireCheck(itmId) {\r... */\n    tag_10:\n      tag_46\n      0x04\n      dup1\n      calldatasize\n      sub\n      dup2\n      add\n      swap1\n      tag_47\n      swap2\n      swap1\n      tag_17\n      jump\t// in\n    tag_47:\n      tag_48\n      jump\t// in\n    tag_46:\n      stop\n        /* \"contracts/SwapCart.sol\":5416:5603  function getItemById(uint itmId) public itemAvailabilityCheck(itmId) returns (Item memory) {\r... */\n    tag_11:\n      tag_49\n      0x04\n      dup1\n      calldatasize\n      sub\n      dup2\n      add\n      swap1\n      tag_50\n      swap2\n      swap1\n      tag_17\n      jump\t// in\n    tag_50:\n      tag_51\n      jump\t// in\n    tag_49:\n      mload(0x40)\n      tag_52\n      swap2\n      swap1\n      tag_53\n      jump\t// in\n    tag_52:\n      mload(0x40)\n      dup1\n      swap2\n      sub\n      swap1\n      return\n        /* \"contracts/SwapCart.sol\":694:755  mapping(uint => mapping(address => uint)) public itemsOfUsers */\n    tag_12:\n      tag_54\n      0x04\n      dup1\n      calldatasize\n      sub\n      dup2\n      add\n      swap1\n      tag_55\n      swap2\n      swap1\n      tag_56\n      jump\t// in\n    tag_55:\n      tag_57\n      jump\t// in\n    tag_54:\n      mload(0x40)\n      tag_58\n      swap2\n      swap1\n      tag_59\n      jump\t// in\n    tag_58:\n      mload(0x40)\n      dup1\n      swap2\n      sub\n      swap1\n      return\n        /* \"contracts/SwapCart.sol\":549:568  IERC20 public token */\n    tag_13:\n      tag_60\n      tag_61\n      jump\t// in\n    tag_60:\n      mload(0x40)\n      tag_62\n      swap2\n      swap1\n      tag_63\n      jump\t// in\n    tag_62:\n      mload(0x40)\n      dup1\n      swap2\n      sub\n      swap1\n      return\n        /* \"contracts/SwapCart.sol\":5258:5408  function addStar(uint itmId) public buyerCheck(itmId){\r... */\n    tag_18:\n        /* \"contracts/SwapCart.sol\":5305:5310  itmId */\n      dup1\n        /* \"contracts/SwapCart.sol\":1381:1397  Item memory item */\n      0x00\n        /* \"contracts/SwapCart.sol\":1400:1405  items */\n      0x03\n        /* \"contracts/SwapCart.sol\":1400:1412  items[itmId] */\n      0x00\n        /* \"contracts/SwapCart.sol\":1406:1411  itmId */\n      dup4\n        /* \"contracts/SwapCart.sol\":1400:1412  items[itmId] */\n      dup2\n      mstore\n      0x20\n      add\n      swap1\n      dup2\n      mstore\n      0x20\n      add\n      0x00\n      keccak256\n        /* \"contracts/SwapCart.sol\":1381:1412  Item memory item = items[itmId] */\n      mload(0x40)\n      dup1\n      0xc0\n      add\n      0x40\n      mstore\n      swap1\n      dup2\n      0x00\n      dup3\n      add\n      sload\n      dup2\n      mstore\n      0x20\n      add\n      0x01\n      dup3\n      add\n      dup1\n      sload\n      tag_65\n      swap1\n      tag_66\n      jump\t// in\n    tag_65:\n      dup1\n      0x1f\n      add\n      0x20\n      dup1\n      swap2\n      div\n      mul\n      0x20\n      add\n      mload(0x40)\n      swap1\n      dup2\n      add\n      0x40\n      mstore\n      dup1\n      swap3\n      swap2\n      swap1\n      dup2\n      dup2\n      mstore\n      0x20\n      add\n      dup3\n      dup1\n      sload\n      tag_67\n      swap1\n      tag_66\n      jump\t// in\n    tag_67:\n      dup1\n      iszero\n      tag_68\n      jumpi\n      dup1\n      0x1f\n      lt\n      tag_69\n      jumpi\n      0x0100\n      dup1\n      dup4\n      sload\n      div\n      mul\n      dup4\n      mstore\n      swap2\n      0x20\n      add\n      swap2\n      jump(tag_68)\n    tag_69:\n      dup3\n      add\n      swap2\n      swap1\n      0x00\n      mstore\n      keccak256(0x00, 0x20)\n      swap1\n    tag_70:\n      dup2\n      sload\n      dup2\n      mstore\n      swap1\n      0x01\n      add\n      swap1\n      0x20\n      add\n      dup1\n      dup4\n      gt\n      tag_70\n      jumpi\n      dup3\n      swap1\n      sub\n      0x1f\n      and\n      dup3\n      add\n      swap2\n    tag_68:\n      pop\n      pop\n      pop\n      pop\n      pop\n      dup2\n      mstore\n      0x20\n      add\n      0x02\n      dup3\n      add\n      sload\n      dup2\n      mstore\n      0x20\n      add\n      0x03\n      dup3\n      add\n      0x00\n      swap1\n      sload\n      swap1\n      0x0100\n      exp\n      swap1\n      div\n      0xffffffffffffffffffffffffffffffffffffffff\n      and\n      0xffffffffffffffffffffffffffffffffffffffff\n      and\n      0xffffffffffffffffffffffffffffffffffffffff\n      and\n      dup2\n      mstore\n      0x20\n      add\n      0x04\n      dup3\n      add\n      sload\n      dup2\n      mstore\n      0x20\n      add\n      0x05\n      dup3\n      add\n      0x00\n      swap1\n      sload\n      swap1\n      0x0100\n      exp\n      swap1\n      div\n      0xffffffff\n      and\n      0xffffffff\n      and\n      0xffffffff\n      and\n      dup2\n      mstore\n      pop\n      pop\n      swap1\n      pop\n        /* \"contracts/SwapCart.sol\":1445:1449  item */\n      dup1\n        /* \"contracts/SwapCart.sol\":1445:1456  item.seller */\n      0x60\n      add\n      mload\n        /* \"contracts/SwapCart.sol\":1431:1456  msg.sender != item.seller */\n      0xffffffffffffffffffffffffffffffffffffffff\n      and\n        /* \"contracts/SwapCart.sol\":1431:1441  msg.sender */\n      caller\n        /* \"contracts/SwapCart.sol\":1431:1456  msg.sender != item.seller */\n      0xffffffffffffffffffffffffffffffffffffffff\n      and\n      eq\n      iszero\n        /* \"contracts/SwapCart.sol\":1423:1457  require(msg.sender != item.seller) */\n      tag_71\n      jumpi\n      0x00\n      dup1\n      revert\n    tag_71:\n        /* \"contracts/SwapCart.sol\":5322:5327  items */\n      0x03\n        /* \"contracts/SwapCart.sol\":5322:5334  items[itmId] */\n      0x00\n        /* \"contracts/SwapCart.sol\":5328:5333  itmId */\n      dup5\n        /* \"contracts/SwapCart.sol\":5322:5334  items[itmId] */\n      dup2\n      mstore\n      0x20\n      add\n      swap1\n      dup2\n      mstore\n      0x20\n      add\n      0x00\n      keccak256\n        /* \"contracts/SwapCart.sol\":5322:5339  items[itmId].star */\n      0x02\n      add\n      0x00\n        /* \"contracts/SwapCart.sol\":5322:5341  items[itmId].star++ */\n      dup2\n      sload\n      dup1\n      swap3\n      swap2\n      swap1\n      tag_73\n      swap1\n      tag_74\n      jump\t// in\n    tag_73:\n      swap2\n      swap1\n      pop\n      sstore\n      pop\n        /* \"contracts/SwapCart.sol\":5389:5399  msg.sender */\n      caller\n        /* \"contracts/SwapCart.sol\":5357:5400  AddStar(itmId,items[itmId].star,msg.sender) */\n      0xffffffffffffffffffffffffffffffffffffffff\n      and\n      0x1ed364e6f46a455fac23816d3700669ff134c7a5fbe0240f52d932f834102462\n        /* \"contracts/SwapCart.sol\":5365:5370  itmId */\n      dup5\n        /* \"contracts/SwapCart.sol\":5371:5376  items */\n      0x03\n        /* \"contracts/SwapCart.sol\":5371:5383  items[itmId] */\n      0x00\n        /* \"contracts/SwapCart.sol\":5377:5382  itmId */\n      dup8\n        /* \"contracts/SwapCart.sol\":5371:5383  items[itmId] */\n      dup2\n      mstore\n      0x20\n      add\n      swap1\n      dup2\n      mstore\n      0x20\n      add\n      0x00\n      keccak256\n        /* \"contracts/SwapCart.sol\":5371:5388  items[itmId].star */\n      0x02\n      add\n      sload\n        /* \"contracts/SwapCart.sol\":5357:5400  AddStar(itmId,items[itmId].star,msg.sender) */\n      mload(0x40)\n      tag_75\n      swap3\n      swap2\n      swap1\n      tag_76\n      jump\t// in\n    tag_75:\n      mload(0x40)\n      dup1\n      swap2\n      sub\n      swap1\n      log2\n        /* \"contracts/SwapCart.sol\":1230:1477  {  // We check the message sender of transaction. Because, message sender must be a buyer to can give star for any item. (not seller of item)\r... */\n      pop\n        /* \"contracts/SwapCart.sol\":5258:5408  function addStar(uint itmId) public buyerCheck(itmId){\r... */\n      pop\n      pop\n      jump\t// out\n        /* \"contracts/SwapCart.sol\":4440:5086  function payment(uint itmId, uint amount) external expireCheck(itmId) balanceCheck(itmId){\r... */\n    tag_22:\n        /* \"contracts/SwapCart.sol\":4503:4508  itmId */\n      dup2\n        /* \"contracts/SwapCart.sol\":1527:1543  Item memory item */\n      0x00\n        /* \"contracts/SwapCart.sol\":1546:1551  items */\n      0x03\n        /* \"contracts/SwapCart.sol\":1546:1558  items[itmId] */\n      0x00\n        /* \"contracts/SwapCart.sol\":1552:1557  itmId */\n      dup4\n        /* \"contracts/SwapCart.sol\":1546:1558  items[itmId] */\n      dup2\n      mstore\n      0x20\n      add\n      swap1\n      dup2\n      mstore\n      0x20\n      add\n      0x00\n      keccak256\n        /* \"contracts/SwapCart.sol\":1527:1558  Item memory item = items[itmId] */\n      mload(0x40)\n      dup1\n      0xc0\n      add\n      0x40\n      mstore\n      swap1\n      dup2\n      0x00\n      dup3\n      add\n      sload\n      dup2\n      mstore\n      0x20\n      add\n      0x01\n      dup3\n      add\n      dup1\n      sload\n      tag_78\n      swap1\n      tag_66\n      jump\t// in\n    tag_78:\n      dup1\n      0x1f\n      add\n      0x20\n      dup1\n      swap2\n      div\n      mul\n      0x20\n      add\n      mload(0x40)\n      swap1\n      dup2\n      add\n      0x40\n      mstore\n      dup1\n      swap3\n      swap2\n      swap1\n      dup2\n      dup2\n      mstore\n      0x20\n      add\n      dup3\n      dup1\n      sload\n      tag_79\n      swap1\n      tag_66\n      jump\t// in\n    tag_79:\n      dup1\n      iszero\n      tag_80\n      jumpi\n      dup1\n      0x1f\n      lt\n      tag_81\n      jumpi\n      0x0100\n      dup1\n      dup4\n      sload\n      div\n      mul\n      dup4\n      mstore\n      swap2\n      0x20\n      add\n      swap2\n      jump(tag_80)\n    tag_81:\n      dup3\n      add\n      swap2\n      swap1\n      0x00\n      mstore\n      keccak256(0x00, 0x20)\n      swap1\n    tag_82:\n      dup2\n      sload\n      dup2\n      mstore\n      swap1\n      0x01\n      add\n      swap1\n      0x20\n      add\n      dup1\n      dup4\n      gt\n      tag_82\n      jumpi\n      dup3\n      swap1\n      sub\n      0x1f\n      and\n      dup3\n      add\n      swap2\n    tag_80:\n      pop\n      pop\n      pop\n      pop\n      pop\n      dup2\n      mstore\n      0x20\n      add\n      0x02\n      dup3\n      add\n      sload\n      dup2\n      mstore\n      0x20\n      add\n      0x03\n      dup3\n      add\n      0x00\n      swap1\n      sload\n      swap1\n      0x0100\n      exp\n      swap1\n      div\n      0xffffffffffffffffffffffffffffffffffffffff\n      and\n      0xffffffffffffffffffffffffffffffffffffffff\n      and\n      0xffffffffffffffffffffffffffffffffffffffff\n      and\n      dup2\n      mstore\n      0x20\n      add\n      0x04\n      dup3\n      add\n      sload\n      dup2\n      mstore\n      0x20\n      add\n      0x05\n      dup3\n      add\n      0x00\n      swap1\n      sload\n      swap1\n      0x0100\n      exp\n      swap1\n      div\n      0xffffffff\n      and\n      0xffffffff\n      and\n      0xffffffff\n      and\n      dup2\n      mstore\n      pop\n      pop\n      swap1\n      pop\n        /* \"contracts/SwapCart.sol\":1593:1608  block.timestamp */\n      timestamp\n        /* \"contracts/SwapCart.sol\":1577:1581  item */\n      dup2\n        /* \"contracts/SwapCart.sol\":1577:1589  item.dueDate */\n      0xa0\n      add\n      mload\n        /* \"contracts/SwapCart.sol\":1577:1608  item.dueDate >= block.timestamp */\n      0xffffffff\n      and\n      lt\n      iszero\n        /* \"contracts/SwapCart.sol\":1569:1634  require(item.dueDate >= block.timestamp, \"The sale has expired!\") */\n      tag_83\n      jumpi\n      mload(0x40)\n      0x08c379a000000000000000000000000000000000000000000000000000000000\n      dup2\n      mstore\n      0x04\n      add\n      tag_84\n      swap1\n      tag_85\n      jump\t// in\n    tag_84:\n      mload(0x40)\n      dup1\n      swap2\n      sub\n      swap1\n      revert\n    tag_83:\n        /* \"contracts/SwapCart.sol\":4523:4528  itmId */\n      dup4\n        /* \"contracts/SwapCart.sol\":1808:1824  Item memory item */\n      0x00\n        /* \"contracts/SwapCart.sol\":1827:1832  items */\n      0x03\n        /* \"contracts/SwapCart.sol\":1827:1839  items[itmId] */\n      0x00\n        /* \"contracts/SwapCart.sol\":1833:1838  itmId */\n      dup4\n        /* \"contracts/SwapCart.sol\":1827:1839  items[itmId] */\n      dup2\n      mstore\n      0x20\n      add\n      swap1\n      dup2\n      mstore\n      0x20\n      add\n      0x00\n      keccak256\n        /* \"contracts/SwapCart.sol\":1808:1839  Item memory item = items[itmId] */\n      mload(0x40)\n      dup1\n      0xc0\n      add\n      0x40\n      mstore\n      swap1\n      dup2\n      0x00\n      dup3\n      add\n      sload\n      dup2\n      mstore\n      0x20\n      add\n      0x01\n      dup3\n      add\n      dup1\n      sload\n      tag_87\n      swap1\n      tag_66\n      jump\t// in\n    tag_87:\n      dup1\n      0x1f\n      add\n      0x20\n      dup1\n      swap2\n      div\n      mul\n      0x20\n      add\n      mload(0x40)\n      swap1\n      dup2\n      add\n      0x40\n      mstore\n      dup1\n      swap3\n      swap2\n      swap1\n      dup2\n      dup2\n      mstore\n      0x20\n      add\n      dup3\n      dup1\n      sload\n      tag_88\n      swap1\n      tag_66\n      jump\t// in\n    tag_88:\n      dup1\n      iszero\n      tag_89\n      jumpi\n      dup1\n      0x1f\n      lt\n      tag_90\n      jumpi\n      0x0100\n      dup1\n      dup4\n      sload\n      div\n      mul\n      dup4\n      mstore\n      swap2\n      0x20\n      add\n      swap2\n      jump(tag_89)\n    tag_90:\n      dup3\n      add\n      swap2\n      swap1\n      0x00\n      mstore\n      keccak256(0x00, 0x20)\n      swap1\n    tag_91:\n      dup2\n      sload\n      dup2\n      mstore\n      swap1\n      0x01\n      add\n      swap1\n      0x20\n      add\n      dup1\n      dup4\n      gt\n      tag_91\n      jumpi\n      dup3\n      swap1\n      sub\n      0x1f\n      and\n      dup3\n      add\n      swap2\n    tag_89:\n      pop\n      pop\n      pop\n      pop\n      pop\n      dup2\n      mstore\n      0x20\n      add\n      0x02\n      dup3\n      add\n      sload\n      dup2\n      mstore\n      0x20\n      add\n      0x03\n      dup3\n      add\n      0x00\n      swap1\n      sload\n      swap1\n      0x0100\n      exp\n      swap1\n      div\n      0xffffffffffffffffffffffffffffffffffffffff\n      and\n      0xffffffffffffffffffffffffffffffffffffffff\n      and\n      0xffffffffffffffffffffffffffffffffffffffff\n      and\n      dup2\n      mstore\n      0x20\n      add\n      0x04\n      dup3\n      add\n      sload\n      dup2\n      mstore\n      0x20\n      add\n      0x05\n      dup3\n      add\n      0x00\n      swap1\n      sload\n      swap1\n      0x0100\n      exp\n      swap1\n      div\n      0xffffffff\n      and\n      0xffffffff\n      and\n      0xffffffff\n      and\n      dup2\n      mstore\n      pop\n      pop\n      swap1\n      pop\n        /* \"contracts/SwapCart.sol\":1872:1877  users */\n      0x02\n        /* \"contracts/SwapCart.sol\":1872:1889  users[msg.sender] */\n      0x00\n        /* \"contracts/SwapCart.sol\":1878:1888  msg.sender */\n      caller\n        /* \"contracts/SwapCart.sol\":1872:1889  users[msg.sender] */\n      0xffffffffffffffffffffffffffffffffffffffff\n      and\n      0xffffffffffffffffffffffffffffffffffffffff\n      and\n      dup2\n      mstore\n      0x20\n      add\n      swap1\n      dup2\n      mstore\n      0x20\n      add\n      0x00\n      keccak256\n        /* \"contracts/SwapCart.sol\":1872:1897  users[msg.sender].balance */\n      0x05\n      add\n      sload\n        /* \"contracts/SwapCart.sol\":1858:1862  item */\n      dup2\n        /* \"contracts/SwapCart.sol\":1858:1868  item.price */\n      0x80\n      add\n      mload\n        /* \"contracts/SwapCart.sol\":1858:1897  item.price <= users[msg.sender].balance */\n      gt\n      iszero\n        /* \"contracts/SwapCart.sol\":1850:1946  require(item.price <= users[msg.sender].balance, \"There is not enough balance in your account!\") */\n      tag_92\n      jumpi\n      mload(0x40)\n      0x08c379a000000000000000000000000000000000000000000000000000000000\n      dup2\n      mstore\n      0x04\n      add\n      tag_93\n      swap1\n      tag_94\n      jump\t// in\n    tag_93:\n      mload(0x40)\n      dup1\n      swap2\n      sub\n      swap1\n      revert\n    tag_92:\n        /* \"contracts/SwapCart.sol\":4540:4557  Item storage item */\n      0x00\n        /* \"contracts/SwapCart.sol\":4560:4565  items */\n      0x03\n        /* \"contracts/SwapCart.sol\":4560:4572  items[itmId] */\n      0x00\n        /* \"contracts/SwapCart.sol\":4566:4571  itmId */\n      dup9\n        /* \"contracts/SwapCart.sol\":4560:4572  items[itmId] */\n      dup2\n      mstore\n      0x20\n      add\n      swap1\n      dup2\n      mstore\n      0x20\n      add\n      0x00\n      keccak256\n        /* \"contracts/SwapCart.sol\":4540:4572  Item storage item = items[itmId] */\n      swap1\n      pop\n        /* \"contracts/SwapCart.sol\":4713:4714  1 */\n      0x01\n        /* \"contracts/SwapCart.sol\":4678:4690  itemsOfUsers */\n      0x04\n        /* \"contracts/SwapCart.sol\":4678:4697  itemsOfUsers[itmId] */\n      0x00\n        /* \"contracts/SwapCart.sol\":4691:4696  itmId */\n      dup10\n        /* \"contracts/SwapCart.sol\":4678:4697  itemsOfUsers[itmId] */\n      dup2\n      mstore\n      0x20\n      add\n      swap1\n      dup2\n      mstore\n      0x20\n      add\n      0x00\n      keccak256\n        /* \"contracts/SwapCart.sol\":4678:4709  itemsOfUsers[itmId][msg.sender] */\n      0x00\n        /* \"contracts/SwapCart.sol\":4698:4708  msg.sender */\n      caller\n        /* \"contracts/SwapCart.sol\":4678:4709  itemsOfUsers[itmId][msg.sender] */\n      0xffffffffffffffffffffffffffffffffffffffff\n      and\n      0xffffffffffffffffffffffffffffffffffffffff\n      and\n      dup2\n      mstore\n      0x20\n      add\n      swap1\n      dup2\n      mstore\n      0x20\n      add\n      0x00\n      keccak256\n      0x00\n        /* \"contracts/SwapCart.sol\":4678:4714  itemsOfUsers[itmId][msg.sender] += 1 */\n      dup3\n      dup3\n      sload\n      tag_96\n      swap2\n      swap1\n      tag_97\n      jump\t// in\n    tag_96:\n      swap3\n      pop\n      pop\n      dup2\n      swap1\n      sstore\n      pop\n        /* \"contracts/SwapCart.sol\":4810:4815  token */\n      0x00\n      dup1\n      sload\n      swap1\n      0x0100\n      exp\n      swap1\n      div\n      0xffffffffffffffffffffffffffffffffffffffff\n      and\n        /* \"contracts/SwapCart.sol\":4810:4828  token.transferFrom */\n      0xffffffffffffffffffffffffffffffffffffffff\n      and\n      0x23b872dd\n        /* \"contracts/SwapCart.sol\":4829:4839  msg.sender */\n      caller\n        /* \"contracts/SwapCart.sol\":4841:4845  item */\n      dup4\n        /* \"contracts/SwapCart.sol\":4841:4852  item.seller */\n      0x03\n      add\n      0x00\n      swap1\n      sload\n      swap1\n      0x0100\n      exp\n      swap1\n      div\n      0xffffffffffffffffffffffffffffffffffffffff\n      and\n        /* \"contracts/SwapCart.sol\":4854:4860  amount */\n      dup10\n        /* \"contracts/SwapCart.sol\":4810:4861  token.transferFrom(msg.sender, item.seller, amount) */\n      mload(0x40)\n      dup5\n      0xffffffff\n      and\n      0xe0\n      shl\n      dup2\n      mstore\n      0x04\n      add\n      tag_98\n      swap4\n      swap3\n      swap2\n      swap1\n      tag_99\n      jump\t// in\n    tag_98:\n      0x20\n      mload(0x40)\n      dup1\n      dup4\n      sub\n      dup2\n      0x00\n      dup8\n      dup1\n      extcodesize\n      iszero\n      dup1\n      iszero\n      tag_100\n      jumpi\n      0x00\n      dup1\n      revert\n    tag_100:\n      pop\n      gas\n      call\n      iszero\n      dup1\n      iszero\n      tag_102\n      jumpi\n      returndatasize\n      0x00\n      dup1\n      returndatacopy\n      revert(0x00, returndatasize)\n    tag_102:\n      pop\n      pop\n      pop\n      pop\n      mload(0x40)\n      returndatasize\n      not(0x1f)\n      0x1f\n      dup3\n      add\n      and\n      dup3\n      add\n      dup1\n      0x40\n      mstore\n      pop\n      dup2\n      add\n      swap1\n      tag_103\n      swap2\n      swap1\n      tag_104\n      jump\t// in\n    tag_103:\n      pop\n        /* \"contracts/SwapCart.sol\":4980:4990  msg.sender */\n      caller\n        /* \"contracts/SwapCart.sol\":4965:4999  Payment(itmId, msg.sender, amount) */\n      0xffffffffffffffffffffffffffffffffffffffff\n      and\n      0xdef0dd1961901757e759c1e3e1ced766d61d989aa5030414848dae6bac75cbdd\n        /* \"contracts/SwapCart.sol\":4973:4978  itmId */\n      dup9\n        /* \"contracts/SwapCart.sol\":4992:4998  amount */\n      dup9\n        /* \"contracts/SwapCart.sol\":4965:4999  Payment(itmId, msg.sender, amount) */\n      mload(0x40)\n      tag_105\n      swap3\n      swap2\n      swap1\n      tag_76\n      jump\t// in\n    tag_105:\n      mload(0x40)\n      dup1\n      swap2\n      sub\n      swap1\n      log2\n        /* \"contracts/SwapCart.sol\":4529:5086  {\r... */\n      pop\n        /* \"contracts/SwapCart.sol\":1797:2058  {\r... */\n      pop\n        /* \"contracts/SwapCart.sol\":1749:1750  _ */\n      pop\n        /* \"contracts/SwapCart.sol\":1516:1758  {\r... */\n      pop\n        /* \"contracts/SwapCart.sol\":4440:5086  function payment(uint itmId, uint amount) external expireCheck(itmId) balanceCheck(itmId){\r... */\n      pop\n      pop\n      pop\n      jump\t// out\n        /* \"contracts/SwapCart.sol\":575:597  Item[] public itemList */\n    tag_25:\n      0x01\n      dup2\n      dup2\n      sload\n      dup2\n      lt\n      tag_106\n      jumpi\n      0x00\n      dup1\n      revert\n    tag_106:\n      swap1\n      0x00\n      mstore\n      keccak256(0x00, 0x20)\n      swap1\n      0x06\n      mul\n      add\n      0x00\n      swap2\n      pop\n      swap1\n      pop\n      dup1\n      0x00\n      add\n      sload\n      swap1\n      dup1\n      0x01\n      add\n      dup1\n      sload\n      tag_108\n      swap1\n      tag_66\n      jump\t// in\n    tag_108:\n      dup1\n      0x1f\n      add\n      0x20\n      dup1\n      swap2\n      div\n      mul\n      0x20\n      add\n      mload(0x40)\n      swap1\n      dup2\n      add\n      0x40\n      mstore\n      dup1\n      swap3\n      swap2\n      swap1\n      dup2\n      dup2\n      mstore\n      0x20\n      add\n      dup3\n      dup1\n      sload\n      tag_109\n      swap1\n      tag_66\n      jump\t// in\n    tag_109:\n      dup1\n      iszero\n      tag_110\n      jumpi\n      dup1\n      0x1f\n      lt\n      tag_111\n      jumpi\n      0x0100\n      dup1\n      dup4\n      sload\n      div\n      mul\n      dup4\n      mstore\n      swap2\n      0x20\n      add\n      swap2\n      jump(tag_110)\n    tag_111:\n      dup3\n      add\n      swap2\n      swap1\n      0x00\n      mstore\n      keccak256(0x00, 0x20)\n      swap1\n    tag_112:\n      dup2\n      sload\n      dup2\n      mstore\n      swap1\n      0x01\n      add\n      swap1\n      0x20\n      add\n      dup1\n      dup4\n      gt\n      tag_112\n      jumpi\n      dup3\n      swap1\n      sub\n      0x1f\n      and\n      dup3\n      add\n      swap2\n    tag_110:\n      pop\n      pop\n      pop\n      pop\n      pop\n      swap1\n      dup1\n      0x02\n      add\n      sload\n      swap1\n      dup1\n      0x03\n      add\n      0x00\n      swap1\n      sload\n      swap1\n      0x0100\n      exp\n      swap1\n      div\n      0xffffffffffffffffffffffffffffffffffffffff\n      and\n      swap1\n      dup1\n      0x04\n      add\n      sload\n      swap1\n      dup1\n      0x05\n      add\n      0x00\n      swap1\n      sload\n      swap1\n      0x0100\n      exp\n      swap1\n      div\n      0xffffffff\n      and\n      swap1\n      pop\n      dup7\n      jump\t// out\n        /* \"contracts/SwapCart.sol\":3404:4050  function createSaleAdvert(uint itmPrice, string memory itmImage, uint32 itmDueDate) external{\r... */\n    tag_31:\n        /* \"contracts/SwapCart.sol\":3540:3748  Item({\r... */\n      mload(0x40)\n      dup1\n      0xc0\n      add\n      0x40\n      mstore\n      dup1\n        /* \"contracts/SwapCart.sol\":3567:3588  itemCounter.current() */\n      tag_114\n        /* \"contracts/SwapCart.sol\":3567:3578  itemCounter */\n      0x05\n        /* \"contracts/SwapCart.sol\":3567:3586  itemCounter.current */\n      tag_115\n        /* \"contracts/SwapCart.sol\":3567:3588  itemCounter.current() */\n      jump\t// in\n    tag_114:\n        /* \"contracts/SwapCart.sol\":3540:3748  Item({\r... */\n      dup2\n      mstore\n      0x20\n      add\n        /* \"contracts/SwapCart.sol\":3642:3650  itmImage */\n      dup4\n        /* \"contracts/SwapCart.sol\":3540:3748  Item({\r... */\n      dup2\n      mstore\n      0x20\n      add\n        /* \"contracts/SwapCart.sol\":3703:3704  0 */\n      0x00\n        /* \"contracts/SwapCart.sol\":3540:3748  Item({\r... */\n      dup2\n      mstore\n      0x20\n      add\n        /* \"contracts/SwapCart.sol\":3726:3736  msg.sender */\n      caller\n        /* \"contracts/SwapCart.sol\":3540:3748  Item({\r... */\n      0xffffffffffffffffffffffffffffffffffffffff\n      and\n      dup2\n      mstore\n      0x20\n      add\n        /* \"contracts/SwapCart.sol\":3609:3617  itmPrice */\n      dup5\n        /* \"contracts/SwapCart.sol\":3540:3748  Item({\r... */\n      dup2\n      mstore\n      0x20\n      add\n        /* \"contracts/SwapCart.sol\":3673:3683  itmDueDate */\n      dup3\n        /* \"contracts/SwapCart.sol\":3540:3748  Item({\r... */\n      0xffffffff\n      and\n      dup2\n      mstore\n      pop\n        /* \"contracts/SwapCart.sol\":3509:3514  items */\n      0x03\n        /* \"contracts/SwapCart.sol\":3509:3537  items[itemCounter.current()] */\n      0x00\n        /* \"contracts/SwapCart.sol\":3515:3536  itemCounter.current() */\n      tag_116\n        /* \"contracts/SwapCart.sol\":3515:3526  itemCounter */\n      0x05\n        /* \"contracts/SwapCart.sol\":3515:3534  itemCounter.current */\n      tag_115\n        /* \"contracts/SwapCart.sol\":3515:3536  itemCounter.current() */\n      jump\t// in\n    tag_116:\n        /* \"contracts/SwapCart.sol\":3509:3537  items[itemCounter.current()] */\n      dup2\n      mstore\n      0x20\n      add\n      swap1\n      dup2\n      mstore\n      0x20\n      add\n      0x00\n      keccak256\n        /* \"contracts/SwapCart.sol\":3509:3748  items[itemCounter.current()] = Item({\r... */\n      0x00\n      dup3\n      add\n      mload\n      dup2\n      0x00\n      add\n      sstore\n      0x20\n      dup3\n      add\n      mload\n      dup2\n      0x01\n      add\n      swap1\n      dup1\n      mload\n      swap1\n      0x20\n      add\n      swap1\n      tag_117\n      swap3\n      swap2\n      swap1\n      tag_118\n      jump\t// in\n    tag_117:\n      pop\n      0x40\n      dup3\n      add\n      mload\n      dup2\n      0x02\n      add\n      sstore\n      0x60\n      dup3\n      add\n      mload\n      dup2\n      0x03\n      add\n      exp(0x0100, 0x00)\n      dup2\n      sload\n      dup2\n      0xffffffffffffffffffffffffffffffffffffffff\n      mul\n      not\n      and\n      swap1\n      dup4\n      0xffffffffffffffffffffffffffffffffffffffff\n      and\n      mul\n      or\n      swap1\n      sstore\n      pop\n      0x80\n      dup3\n      add\n      mload\n      dup2\n      0x04\n      add\n      sstore\n      0xa0\n      dup3\n      add\n      mload\n      dup2\n      0x05\n      add\n      exp(0x0100, 0x00)\n      dup2\n      sload\n      dup2\n      0xffffffff\n      mul\n      not\n      and\n      swap1\n      dup4\n      0xffffffff\n      and\n      mul\n      or\n      swap1\n      sstore\n      pop\n      swap1\n      pop\n      pop\n        /* \"contracts/SwapCart.sol\":3761:3766  users */\n      0x02\n        /* \"contracts/SwapCart.sol\":3761:3778  users[msg.sender] */\n      0x00\n        /* \"contracts/SwapCart.sol\":3767:3777  msg.sender */\n      caller\n        /* \"contracts/SwapCart.sol\":3761:3778  users[msg.sender] */\n      0xffffffffffffffffffffffffffffffffffffffff\n      and\n      0xffffffffffffffffffffffffffffffffffffffff\n      and\n      dup2\n      mstore\n      0x20\n      add\n      swap1\n      dup2\n      mstore\n      0x20\n      add\n      0x00\n      keccak256\n        /* \"contracts/SwapCart.sol\":3761:3788  users[msg.sender].inventory */\n      0x04\n      add\n        /* \"contracts/SwapCart.sol\":3794:3799  items */\n      0x03\n        /* \"contracts/SwapCart.sol\":3794:3822  items[itemCounter.current()] */\n      0x00\n        /* \"contracts/SwapCart.sol\":3800:3821  itemCounter.current() */\n      tag_119\n        /* \"contracts/SwapCart.sol\":3800:3811  itemCounter */\n      0x05\n        /* \"contracts/SwapCart.sol\":3800:3819  itemCounter.current */\n      tag_115\n        /* \"contracts/SwapCart.sol\":3800:3821  itemCounter.current() */\n      jump\t// in\n    tag_119:\n        /* \"contracts/SwapCart.sol\":3794:3822  items[itemCounter.current()] */\n      dup2\n      mstore\n      0x20\n      add\n      swap1\n      dup2\n      mstore\n      0x20\n      add\n      0x00\n      keccak256\n        /* \"contracts/SwapCart.sol\":3761:3823  users[msg.sender].inventory.push(items[itemCounter.current()]) */\n      swap1\n      dup1\n      0x01\n      dup2\n      sload\n      add\n      dup1\n      dup3\n      sstore\n      dup1\n      swap2\n      pop\n      pop\n      0x01\n      swap1\n      sub\n      swap1\n      0x00\n      mstore\n      keccak256(0x00, 0x20)\n      swap1\n      0x06\n      mul\n      add\n      0x00\n      swap1\n      swap2\n      swap1\n      swap2\n      swap1\n      swap2\n      pop\n      0x00\n      dup3\n      add\n      sload\n      dup2\n      0x00\n      add\n      sstore\n      0x01\n      dup3\n      add\n      dup2\n      0x01\n      add\n      swap1\n      dup1\n      sload\n      tag_121\n      swap1\n      tag_66\n      jump\t// in\n    tag_121:\n      tag_122\n      swap3\n      swap2\n      swap1\n      tag_123\n      jump\t// in\n    tag_122:\n      pop\n      0x02\n      dup3\n      add\n      sload\n      dup2\n      0x02\n      add\n      sstore\n      0x03\n      dup3\n      add\n      0x00\n      swap1\n      sload\n      swap1\n      0x0100\n      exp\n      swap1\n      div\n      0xffffffffffffffffffffffffffffffffffffffff\n      and\n      dup2\n      0x03\n      add\n      exp(0x0100, 0x00)\n      dup2\n      sload\n      dup2\n      0xffffffffffffffffffffffffffffffffffffffff\n      mul\n      not\n      and\n      swap1\n      dup4\n      0xffffffffffffffffffffffffffffffffffffffff\n      and\n      mul\n      or\n      swap1\n      sstore\n      pop\n      0x04\n      dup3\n      add\n      sload\n      dup2\n      0x04\n      add\n      sstore\n      0x05\n      dup3\n      add\n      0x00\n      swap1\n      sload\n      swap1\n      0x0100\n      exp\n      swap1\n      div\n      0xffffffff\n      and\n      dup2\n      0x05\n      add\n      exp(0x0100, 0x00)\n      dup2\n      sload\n      dup2\n      0xffffffff\n      mul\n      not\n      and\n      swap1\n      dup4\n      0xffffffff\n      and\n      mul\n      or\n      swap1\n      sstore\n      pop\n      pop\n      pop\n        /* \"contracts/SwapCart.sol\":3834:3842  itemList */\n      0x01\n        /* \"contracts/SwapCart.sol\":3848:3853  items */\n      0x03\n        /* \"contracts/SwapCart.sol\":3848:3876  items[itemCounter.current()] */\n      0x00\n        /* \"contracts/SwapCart.sol\":3854:3875  itemCounter.current() */\n      tag_124\n        /* \"contracts/SwapCart.sol\":3854:3865  itemCounter */\n      0x05\n        /* \"contracts/SwapCart.sol\":3854:3873  itemCounter.current */\n      tag_115\n        /* \"contracts/SwapCart.sol\":3854:3875  itemCounter.current() */\n      jump\t// in\n    tag_124:\n        /* \"contracts/SwapCart.sol\":3848:3876  items[itemCounter.current()] */\n      dup2\n      mstore\n      0x20\n      add\n      swap1\n      dup2\n      mstore\n      0x20\n      add\n      0x00\n      keccak256\n        /* \"contracts/SwapCart.sol\":3834:3877  itemList.push(items[itemCounter.current()]) */\n      swap1\n      dup1\n      0x01\n      dup2\n      sload\n      add\n      dup1\n      dup3\n      sstore\n      dup1\n      swap2\n      pop\n      pop\n      0x01\n      swap1\n      sub\n      swap1\n      0x00\n      mstore\n      keccak256(0x00, 0x20)\n      swap1\n      0x06\n      mul\n      add\n      0x00\n      swap1\n      swap2\n      swap1\n      swap2\n      swap1\n      swap2\n      pop\n      0x00\n      dup3\n      add\n      sload\n      dup2\n      0x00\n      add\n      sstore\n      0x01\n      dup3\n      add\n      dup2\n      0x01\n      add\n      swap1\n      dup1\n      sload\n      tag_126\n      swap1\n      tag_66\n      jump\t// in\n    tag_126:\n      tag_127\n      swap3\n      swap2\n      swap1\n      tag_123\n      jump\t// in\n    tag_127:\n      pop\n      0x02\n      dup3\n      add\n      sload\n      dup2\n      0x02\n      add\n      sstore\n      0x03\n      dup3\n      add\n      0x00\n      swap1\n      sload\n      swap1\n      0x0100\n      exp\n      swap1\n      div\n      0xffffffffffffffffffffffffffffffffffffffff\n      and\n      dup2\n      0x03\n      add\n      exp(0x0100, 0x00)\n      dup2\n      sload\n      dup2\n      0xffffffffffffffffffffffffffffffffffffffff\n      mul\n      not\n      and\n      swap1\n      dup4\n      0xffffffffffffffffffffffffffffffffffffffff\n      and\n      mul\n      or\n      swap1\n      sstore\n      pop\n      0x04\n      dup3\n      add\n      sload\n      dup2\n      0x04\n      add\n      sstore\n      0x05\n      dup3\n      add\n      0x00\n      swap1\n      sload\n      swap1\n      0x0100\n      exp\n      swap1\n      div\n      0xffffffff\n      and\n      dup2\n      0x05\n      add\n      exp(0x0100, 0x00)\n      dup2\n      sload\n      dup2\n      0xffffffff\n      mul\n      not\n      and\n      swap1\n      dup4\n      0xffffffff\n      and\n      mul\n      or\n      swap1\n      sstore\n      pop\n      pop\n      pop\n        /* \"contracts/SwapCart.sol\":3888:3911  itemCounter.increment() */\n      tag_128\n        /* \"contracts/SwapCart.sol\":3888:3899  itemCounter */\n      0x05\n        /* \"contracts/SwapCart.sol\":3888:3909  itemCounter.increment */\n      tag_129\n        /* \"contracts/SwapCart.sol\":3888:3911  itemCounter.increment() */\n      jump\t// in\n    tag_128:\n        /* \"contracts/SwapCart.sol\":4031:4041  msg.sender */\n      caller\n        /* \"contracts/SwapCart.sol\":3929:4042  CreateSaleAdvert(itemCounter.current(),itmPrice,itmImage,itmDueDate,items[itemCounter.current()].star,msg.sender) */\n      0xffffffffffffffffffffffffffffffffffffffff\n      and\n      0x9a5b8b5cb7f9c536ea5db1a94142c9f716fb3a8698a9c70a5b8bfad3922cb06c\n        /* \"contracts/SwapCart.sol\":3946:3967  itemCounter.current() */\n      tag_130\n        /* \"contracts/SwapCart.sol\":3946:3957  itemCounter */\n      0x05\n        /* \"contracts/SwapCart.sol\":3946:3965  itemCounter.current */\n      tag_115\n        /* \"contracts/SwapCart.sol\":3946:3967  itemCounter.current() */\n      jump\t// in\n    tag_130:\n        /* \"contracts/SwapCart.sol\":3968:3976  itmPrice */\n      dup6\n        /* \"contracts/SwapCart.sol\":3977:3985  itmImage */\n      dup6\n        /* \"contracts/SwapCart.sol\":3986:3996  itmDueDate */\n      dup6\n        /* \"contracts/SwapCart.sol\":3997:4002  items */\n      0x03\n        /* \"contracts/SwapCart.sol\":3997:4025  items[itemCounter.current()] */\n      0x00\n        /* \"contracts/SwapCart.sol\":4003:4024  itemCounter.current() */\n      tag_131\n        /* \"contracts/SwapCart.sol\":4003:4014  itemCounter */\n      0x05\n        /* \"contracts/SwapCart.sol\":4003:4022  itemCounter.current */\n      tag_115\n        /* \"contracts/SwapCart.sol\":4003:4024  itemCounter.current() */\n      jump\t// in\n    tag_131:\n        /* \"contracts/SwapCart.sol\":3997:4025  items[itemCounter.current()] */\n      dup2\n      mstore\n      0x20\n      add\n      swap1\n      dup2\n      mstore\n      0x20\n      add\n      0x00\n      keccak256\n        /* \"contracts/SwapCart.sol\":3997:4030  items[itemCounter.current()].star */\n      0x02\n      add\n      sload\n        /* \"contracts/SwapCart.sol\":3929:4042  CreateSaleAdvert(itemCounter.current(),itmPrice,itmImage,itmDueDate,items[itemCounter.current()].star,msg.sender) */\n      mload(0x40)\n      tag_132\n      swap6\n      swap5\n      swap4\n      swap3\n      swap2\n      swap1\n      tag_133\n      jump\t// in\n    tag_132:\n      mload(0x40)\n      dup1\n      swap2\n      sub\n      swap1\n      log2\n        /* \"contracts/SwapCart.sol\":3404:4050  function createSaleAdvert(uint itmPrice, string memory itmImage, uint32 itmDueDate) external{\r... */\n      pop\n      pop\n      pop\n      jump\t// out\n        /* \"contracts/SwapCart.sol\":5094:5250  function getEntireItems() public listSizeCheck returns (Item[] memory) {\r... */\n    tag_33:\n        /* \"contracts/SwapCart.sol\":5150:5163  Item[] memory */\n      0x60\n        /* \"contracts/SwapCart.sol\":2131:2132  0 */\n      0x00\n        /* \"contracts/SwapCart.sol\":2107:2128  itemCounter.current() */\n      tag_135\n        /* \"contracts/SwapCart.sol\":2107:2118  itemCounter */\n      0x05\n        /* \"contracts/SwapCart.sol\":2107:2126  itemCounter.current */\n      tag_115\n        /* \"contracts/SwapCart.sol\":2107:2128  itemCounter.current() */\n      jump\t// in\n    tag_135:\n        /* \"contracts/SwapCart.sol\":2107:2132  itemCounter.current() > 0 */\n      gt\n        /* \"contracts/SwapCart.sol\":2099:2171  require(itemCounter.current() > 0, \"There are no products to list yet!\") */\n      tag_136\n      jumpi\n      mload(0x40)\n      0x08c379a000000000000000000000000000000000000000000000000000000000\n      dup2\n      mstore\n      0x04\n      add\n      tag_137\n      swap1\n      tag_138\n      jump\t// in\n    tag_137:\n      mload(0x40)\n      dup1\n      swap2\n      sub\n      swap1\n      revert\n    tag_136:\n        /* \"contracts/SwapCart.sol\":5205:5215  msg.sender */\n      caller\n        /* \"contracts/SwapCart.sol\":5181:5216  GetEntireItems(itemList,msg.sender) */\n      0xffffffffffffffffffffffffffffffffffffffff\n      and\n      0x440c078a5e11bff85c6b6d7c52f378c8220355bd3331ec889638c0eca883670c\n        /* \"contracts/SwapCart.sol\":5196:5204  itemList */\n      0x01\n        /* \"contracts/SwapCart.sol\":5181:5216  GetEntireItems(itemList,msg.sender) */\n      mload(0x40)\n      tag_140\n      swap2\n      swap1\n      tag_141\n      jump\t// in\n    tag_140:\n      mload(0x40)\n      dup1\n      swap2\n      sub\n      swap1\n      log2\n        /* \"contracts/SwapCart.sol\":5234:5242  itemList */\n      0x01\n        /* \"contracts/SwapCart.sol\":5227:5242  return itemList */\n      dup1\n      sload\n      dup1\n      0x20\n      mul\n      0x20\n      add\n      mload(0x40)\n      swap1\n      dup2\n      add\n      0x40\n      mstore\n      dup1\n      swap3\n      swap2\n      swap1\n      dup2\n      dup2\n      mstore\n      0x20\n      add\n      0x00\n      swap1\n    tag_142:\n      dup3\n      dup3\n      lt\n      iszero\n      tag_143\n      jumpi\n      dup4\n      dup3\n      swap1\n      0x00\n      mstore\n      keccak256(0x00, 0x20)\n      swap1\n      0x06\n      mul\n      add\n      mload(0x40)\n      dup1\n      0xc0\n      add\n      0x40\n      mstore\n      swap1\n      dup2\n      0x00\n      dup3\n      add\n      sload\n      dup2\n      mstore\n      0x20\n      add\n      0x01\n      dup3\n      add\n      dup1\n      sload\n      tag_145\n      swap1\n      tag_66\n      jump\t// in\n    tag_145:\n      dup1\n      0x1f\n      add\n      0x20\n      dup1\n      swap2\n      div\n      mul\n      0x20\n      add\n      mload(0x40)\n      swap1\n      dup2\n      add\n      0x40\n      mstore\n      dup1\n      swap3\n      swap2\n      swap1\n      dup2\n      dup2\n      mstore\n      0x20\n      add\n      dup3\n      dup1\n      sload\n      tag_146\n      swap1\n      tag_66\n      jump\t// in\n    tag_146:\n      dup1\n      iszero\n      tag_147\n      jumpi\n      dup1\n      0x1f\n      lt\n      tag_148\n      jumpi\n      0x0100\n      dup1\n      dup4\n      sload\n      div\n      mul\n      dup4\n      mstore\n      swap2\n      0x20\n      add\n      swap2\n      jump(tag_147)\n    tag_148:\n      dup3\n      add\n      swap2\n      swap1\n      0x00\n      mstore\n      keccak256(0x00, 0x20)\n      swap1\n    tag_149:\n      dup2\n      sload\n      dup2\n      mstore\n      swap1\n      0x01\n      add\n      swap1\n      0x20\n      add\n      dup1\n      dup4\n      gt\n      tag_149\n      jumpi\n      dup3\n      swap1\n      sub\n      0x1f\n      and\n      dup3\n      add\n      swap2\n    tag_147:\n      pop\n      pop\n      pop\n      pop\n      pop\n      dup2\n      mstore\n      0x20\n      add\n      0x02\n      dup3\n      add\n      sload\n      dup2\n      mstore\n      0x20\n      add\n      0x03\n      dup3\n      add\n      0x00\n      swap1\n      sload\n      swap1\n      0x0100\n      exp\n      swap1\n      div\n      0xffffffffffffffffffffffffffffffffffffffff\n      and\n      0xffffffffffffffffffffffffffffffffffffffff\n      and\n      0xffffffffffffffffffffffffffffffffffffffff\n      and\n      dup2\n      mstore\n      0x20\n      add\n      0x04\n      dup3\n      add\n      sload\n      dup2\n      mstore\n      0x20\n      add\n      0x05\n      dup3\n      add\n      0x00\n      swap1\n      sload\n      swap1\n      0x0100\n      exp\n      swap1\n      div\n      0xffffffff\n      and\n      0xffffffff\n      and\n      0xffffffff\n      and\n      dup2\n      mstore\n      pop\n      pop\n      dup2\n      mstore\n      0x20\n      add\n      swap1\n      0x01\n      add\n      swap1\n      jump(tag_142)\n    tag_143:\n      pop\n      pop\n      pop\n      pop\n      swap1\n      pop\n        /* \"contracts/SwapCart.sol\":5094:5250  function getEntireItems() public listSizeCheck returns (Item[] memory) {\r... */\n      swap1\n      jump\t// out\n        /* \"contracts/SwapCart.sol\":606:643  mapping(address => User) public users */\n    tag_39:\n      mstore(0x20, 0x02)\n      dup1\n      0x00\n      mstore\n      keccak256(0x00, 0x40)\n      0x00\n      swap2\n      pop\n      swap1\n      pop\n      dup1\n      0x00\n      add\n      sload\n      swap1\n      dup1\n      0x01\n      add\n      dup1\n      sload\n      tag_150\n      swap1\n      tag_66\n      jump\t// in\n    tag_150:\n      dup1\n      0x1f\n      add\n      0x20\n      dup1\n      swap2\n      div\n      mul\n      0x20\n      add\n      mload(0x40)\n      swap1\n      dup2\n      add\n      0x40\n      mstore\n      dup1\n      swap3\n      swap2\n      swap1\n      dup2\n      dup2\n      mstore\n      0x20\n      add\n      dup3\n      dup1\n      sload\n      tag_151\n      swap1\n      tag_66\n      jump\t// in\n    tag_151:\n      dup1\n      iszero\n      tag_152\n      jumpi\n      dup1\n      0x1f\n      lt\n      tag_153\n      jumpi\n      0x0100\n      dup1\n      dup4\n      sload\n      div\n      mul\n      dup4\n      mstore\n      swap2\n      0x20\n      add\n      swap2\n      jump(tag_152)\n    tag_153:\n      dup3\n      add\n      swap2\n      swap1\n      0x00\n      mstore\n      keccak256(0x00, 0x20)\n      swap1\n    tag_154:\n      dup2\n      sload\n      dup2\n      mstore\n      swap1\n      0x01\n      add\n      swap1\n      0x20\n      add\n      dup1\n      dup4\n      gt\n      tag_154\n      jumpi\n      dup3\n      swap1\n      sub\n      0x1f\n      and\n      dup3\n      add\n      swap2\n    tag_152:\n      pop\n      pop\n      pop\n      pop\n      pop\n      swap1\n      dup1\n      0x02\n      add\n      dup1\n      sload\n      tag_155\n      swap1\n      tag_66\n      jump\t// in\n    tag_155:\n      dup1\n      0x1f\n      add\n      0x20\n      dup1\n      swap2\n      div\n      mul\n      0x20\n      add\n      mload(0x40)\n      swap1\n      dup2\n      add\n      0x40\n      mstore\n      dup1\n      swap3\n      swap2\n      swap1\n      dup2\n      dup2\n      mstore\n      0x20\n      add\n      dup3\n      dup1\n      sload\n      tag_156\n      swap1\n      tag_66\n      jump\t// in\n    tag_156:\n      dup1\n      iszero\n      tag_157\n      jumpi\n      dup1\n      0x1f\n      lt\n      tag_158\n      jumpi\n      0x0100\n      dup1\n      dup4\n      sload\n      div\n      mul\n      dup4\n      mstore\n      swap2\n      0x20\n      add\n      swap2\n      jump(tag_157)\n    tag_158:\n      dup3\n      add\n      swap2\n      swap1\n      0x00\n      mstore\n      keccak256(0x00, 0x20)\n      swap1\n    tag_159:\n      dup2\n      sload\n      dup2\n      mstore\n      swap1\n      0x01\n      add\n      swap1\n      0x20\n      add\n      dup1\n      dup4\n      gt\n      tag_159\n      jumpi\n      dup3\n      swap1\n      sub\n      0x1f\n      and\n      dup3\n      add\n      swap2\n    tag_157:\n      pop\n      pop\n      pop\n      pop\n      pop\n      swap1\n      dup1\n      0x05\n      add\n      sload\n      swap1\n      pop\n      dup5\n      jump\t// out\n        /* \"contracts/SwapCart.sol\":650:687  mapping(uint256 => Item) public items */\n    tag_44:\n      mstore(0x20, 0x03)\n      dup1\n      0x00\n      mstore\n      keccak256(0x00, 0x40)\n      0x00\n      swap2\n      pop\n      swap1\n      pop\n      dup1\n      0x00\n      add\n      sload\n      swap1\n      dup1\n      0x01\n      add\n      dup1\n      sload\n      tag_160\n      swap1\n      tag_66\n      jump\t// in\n    tag_160:\n      dup1\n      0x1f\n      add\n      0x20\n      dup1\n      swap2\n      div\n      mul\n      0x20\n      add\n      mload(0x40)\n      swap1\n      dup2\n      add\n      0x40\n      mstore\n      dup1\n      swap3\n      swap2\n      swap1\n      dup2\n      dup2\n      mstore\n      0x20\n      add\n      dup3\n      dup1\n      sload\n      tag_161\n      swap1\n      tag_66\n      jump\t// in\n    tag_161:\n      dup1\n      iszero\n      tag_162\n      jumpi\n      dup1\n      0x1f\n      lt\n      tag_163\n      jumpi\n      0x0100\n      dup1\n      dup4\n      sload\n      div\n      mul\n      dup4\n      mstore\n      swap2\n      0x20\n      add\n      swap2\n      jump(tag_162)\n    tag_163:\n      dup3\n      add\n      swap2\n      swap1\n      0x00\n      mstore\n      keccak256(0x00, 0x20)\n      swap1\n    tag_164:\n      dup2\n      sload\n      dup2\n      mstore\n      swap1\n      0x01\n      add\n      swap1\n      0x20\n      add\n      dup1\n      dup4\n      gt\n      tag_164\n      jumpi\n      dup3\n      swap1\n      sub\n      0x1f\n      and\n      dup3\n      add\n      swap2\n    tag_162:\n      pop\n      pop\n      pop\n      pop\n      pop\n      swap1\n      dup1\n      0x02\n      add\n      sload\n      swap1\n      dup1\n      0x03\n      add\n      0x00\n      swap1\n      sload\n      swap1\n      0x0100\n      exp\n      swap1\n      div\n      0xffffffffffffffffffffffffffffffffffffffff\n      and\n      swap1\n      dup1\n      0x04\n      add\n      sload\n      swap1\n      dup1\n      0x05\n      add\n      0x00\n      swap1\n      sload\n      swap1\n      0x0100\n      exp\n      swap1\n      div\n      0xffffffff\n      and\n      swap1\n      pop\n      dup7\n      jump\t// out\n        /* \"contracts/SwapCart.sol\":4117:4432  function cancelSaleAdvert(uint itmId) external expireCheck(itmId) {\r... */\n    tag_48:\n        /* \"contracts/SwapCart.sol\":4176:4181  itmId */\n      dup1\n        /* \"contracts/SwapCart.sol\":1527:1543  Item memory item */\n      0x00\n        /* \"contracts/SwapCart.sol\":1546:1551  items */\n      0x03\n        /* \"contracts/SwapCart.sol\":1546:1558  items[itmId] */\n      0x00\n        /* \"contracts/SwapCart.sol\":1552:1557  itmId */\n      dup4\n        /* \"contracts/SwapCart.sol\":1546:1558  items[itmId] */\n      dup2\n      mstore\n      0x20\n      add\n      swap1\n      dup2\n      mstore\n      0x20\n      add\n      0x00\n      keccak256\n        /* \"contracts/SwapCart.sol\":1527:1558  Item memory item = items[itmId] */\n      mload(0x40)\n      dup1\n      0xc0\n      add\n      0x40\n      mstore\n      swap1\n      dup2\n      0x00\n      dup3\n      add\n      sload\n      dup2\n      mstore\n      0x20\n      add\n      0x01\n      dup3\n      add\n      dup1\n      sload\n      tag_166\n      swap1\n      tag_66\n      jump\t// in\n    tag_166:\n      dup1\n      0x1f\n      add\n      0x20\n      dup1\n      swap2\n      div\n      mul\n      0x20\n      add\n      mload(0x40)\n      swap1\n      dup2\n      add\n      0x40\n      mstore\n      dup1\n      swap3\n      swap2\n      swap1\n      dup2\n      dup2\n      mstore\n      0x20\n      add\n      dup3\n      dup1\n      sload\n      tag_167\n      swap1\n      tag_66\n      jump\t// in\n    tag_167:\n      dup1\n      iszero\n      tag_168\n      jumpi\n      dup1\n      0x1f\n      lt\n      tag_169\n      jumpi\n      0x0100\n      dup1\n      dup4\n      sload\n      div\n      mul\n      dup4\n      mstore\n      swap2\n      0x20\n      add\n      swap2\n      jump(tag_168)\n    tag_169:\n      dup3\n      add\n      swap2\n      swap1\n      0x00\n      mstore\n      keccak256(0x00, 0x20)\n      swap1\n    tag_170:\n      dup2\n      sload\n      dup2\n      mstore\n      swap1\n      0x01\n      add\n      swap1\n      0x20\n      add\n      dup1\n      dup4\n      gt\n      tag_170\n      jumpi\n      dup3\n      swap1\n      sub\n      0x1f\n      and\n      dup3\n      add\n      swap2\n    tag_168:\n      pop\n      pop\n      pop\n      pop\n      pop\n      dup2\n      mstore\n      0x20\n      add\n      0x02\n      dup3\n      add\n      sload\n      dup2\n      mstore\n      0x20\n      add\n      0x03\n      dup3\n      add\n      0x00\n      swap1\n      sload\n      swap1\n      0x0100\n      exp\n      swap1\n      div\n      0xffffffffffffffffffffffffffffffffffffffff\n      and\n      0xffffffffffffffffffffffffffffffffffffffff\n      and\n      0xffffffffffffffffffffffffffffffffffffffff\n      and\n      dup2\n      mstore\n      0x20\n      add\n      0x04\n      dup3\n      add\n      sload\n      dup2\n      mstore\n      0x20\n      add\n      0x05\n      dup3\n      add\n      0x00\n      swap1\n      sload\n      swap1\n      0x0100\n      exp\n      swap1\n      div\n      0xffffffff\n      and\n      0xffffffff\n      and\n      0xffffffff\n      and\n      dup2\n      mstore\n      pop\n      pop\n      swap1\n      pop\n        /* \"contracts/SwapCart.sol\":1593:1608  block.timestamp */\n      timestamp\n        /* \"contracts/SwapCart.sol\":1577:1581  item */\n      dup2\n        /* \"contracts/SwapCart.sol\":1577:1589  item.dueDate */\n      0xa0\n      add\n      mload\n        /* \"contracts/SwapCart.sol\":1577:1608  item.dueDate >= block.timestamp */\n      0xffffffff\n      and\n      lt\n      iszero\n        /* \"contracts/SwapCart.sol\":1569:1634  require(item.dueDate >= block.timestamp, \"The sale has expired!\") */\n      tag_171\n      jumpi\n      mload(0x40)\n      0x08c379a000000000000000000000000000000000000000000000000000000000\n      dup2\n      mstore\n      0x04\n      add\n      tag_172\n      swap1\n      tag_85\n      jump\t// in\n    tag_172:\n      mload(0x40)\n      dup1\n      swap2\n      sub\n      swap1\n      revert\n    tag_171:\n        /* \"contracts/SwapCart.sol\":4201:4206  items */\n      0x03\n        /* \"contracts/SwapCart.sol\":4201:4213  items[itmId] */\n      0x00\n        /* \"contracts/SwapCart.sol\":4207:4212  itmId */\n      dup5\n        /* \"contracts/SwapCart.sol\":4201:4213  items[itmId] */\n      dup2\n      mstore\n      0x20\n      add\n      swap1\n      dup2\n      mstore\n      0x20\n      add\n      0x00\n      keccak256\n      0x00\n        /* \"contracts/SwapCart.sol\":4194:4213  delete items[itmId] */\n      dup1\n      dup3\n      add\n      0x00\n      swap1\n      sstore\n      0x01\n      dup3\n      add\n      0x00\n      tag_174\n      swap2\n      swap1\n      tag_175\n      jump\t// in\n    tag_174:\n      0x02\n      dup3\n      add\n      0x00\n      swap1\n      sstore\n      0x03\n      dup3\n      add\n      exp(0x0100, 0x00)\n      dup2\n      sload\n      swap1\n      0xffffffffffffffffffffffffffffffffffffffff\n      mul\n      not\n      and\n      swap1\n      sstore\n      0x04\n      dup3\n      add\n      0x00\n      swap1\n      sstore\n      0x05\n      dup3\n      add\n      exp(0x0100, 0x00)\n      dup2\n      sload\n      swap1\n      0xffffffff\n      mul\n      not\n      and\n      swap1\n      sstore\n      pop\n      pop\n        /* \"contracts/SwapCart.sol\":4323:4333  msg.sender */\n      caller\n        /* \"contracts/SwapCart.sol\":4300:4334  CancelSaleAdvert(itmId,msg.sender) */\n      0xffffffffffffffffffffffffffffffffffffffff\n      and\n      0x45e4102cd0468b42f71c0179aa78051418c31c018e07a5091eb13b97fadbab5e\n        /* \"contracts/SwapCart.sol\":4317:4322  itmId */\n      dup5\n        /* \"contracts/SwapCart.sol\":4300:4334  CancelSaleAdvert(itmId,msg.sender) */\n      mload(0x40)\n      tag_176\n      swap2\n      swap1\n      tag_59\n      jump\t// in\n    tag_176:\n      mload(0x40)\n      dup1\n      swap2\n      sub\n      swap1\n      log2\n        /* \"contracts/SwapCart.sol\":1516:1758  {\r... */\n      pop\n        /* \"contracts/SwapCart.sol\":4117:4432  function cancelSaleAdvert(uint itmId) external expireCheck(itmId) {\r... */\n      pop\n      pop\n      jump\t// out\n        /* \"contracts/SwapCart.sol\":5416:5603  function getItemById(uint itmId) public itemAvailabilityCheck(itmId) returns (Item memory) {\r... */\n    tag_51:\n        /* \"contracts/SwapCart.sol\":5494:5505  Item memory */\n      tag_177\n      tag_178\n      jump\t// in\n    tag_177:\n        /* \"contracts/SwapCart.sol\":5478:5483  itmId */\n      dup2\n        /* \"contracts/SwapCart.sol\":2372:2393  itemCounter.current() */\n      tag_180\n        /* \"contracts/SwapCart.sol\":2372:2383  itemCounter */\n      0x05\n        /* \"contracts/SwapCart.sol\":2372:2391  itemCounter.current */\n      tag_115\n        /* \"contracts/SwapCart.sol\":2372:2393  itemCounter.current() */\n      jump\t// in\n    tag_180:\n        /* \"contracts/SwapCart.sol\":2363:2368  itmId */\n      dup2\n        /* \"contracts/SwapCart.sol\":2363:2393  itmId <= itemCounter.current() */\n      gt\n      iszero\n        /* \"contracts/SwapCart.sol\":2355:2427  require(itmId <= itemCounter.current(), \"There is no such item record!\") */\n      tag_181\n      jumpi\n      mload(0x40)\n      0x08c379a000000000000000000000000000000000000000000000000000000000\n      dup2\n      mstore\n      0x04\n      add\n      tag_182\n      swap1\n      tag_183\n      jump\t// in\n    tag_182:\n      mload(0x40)\n      dup1\n      swap2\n      sub\n      swap1\n      revert\n    tag_181:\n        /* \"contracts/SwapCart.sol\":5554:5564  msg.sender */\n      caller\n        /* \"contracts/SwapCart.sol\":5523:5565  GetItemById(itmId,items[itmId],msg.sender) */\n      0xffffffffffffffffffffffffffffffffffffffff\n      and\n      0xcb718ffb18411374498c1cd31cb4d4c8068af3c5b1546205f14c72bcd20f21ba\n        /* \"contracts/SwapCart.sol\":5535:5540  itmId */\n      dup5\n        /* \"contracts/SwapCart.sol\":5541:5546  items */\n      0x03\n        /* \"contracts/SwapCart.sol\":5541:5553  items[itmId] */\n      0x00\n        /* \"contracts/SwapCart.sol\":5547:5552  itmId */\n      dup8\n        /* \"contracts/SwapCart.sol\":5541:5553  items[itmId] */\n      dup2\n      mstore\n      0x20\n      add\n      swap1\n      dup2\n      mstore\n      0x20\n      add\n      0x00\n      keccak256\n        /* \"contracts/SwapCart.sol\":5523:5565  GetItemById(itmId,items[itmId],msg.sender) */\n      mload(0x40)\n      tag_185\n      swap3\n      swap2\n      swap1\n      tag_186\n      jump\t// in\n    tag_185:\n      mload(0x40)\n      dup1\n      swap2\n      sub\n      swap1\n      log2\n        /* \"contracts/SwapCart.sol\":5583:5588  items */\n      0x03\n        /* \"contracts/SwapCart.sol\":5583:5595  items[itmId] */\n      0x00\n        /* \"contracts/SwapCart.sol\":5589:5594  itmId */\n      dup5\n        /* \"contracts/SwapCart.sol\":5583:5595  items[itmId] */\n      dup2\n      mstore\n      0x20\n      add\n      swap1\n      dup2\n      mstore\n      0x20\n      add\n      0x00\n      keccak256\n        /* \"contracts/SwapCart.sol\":5576:5595  return items[itmId] */\n      mload(0x40)\n      dup1\n      0xc0\n      add\n      0x40\n      mstore\n      swap1\n      dup2\n      0x00\n      dup3\n      add\n      sload\n      dup2\n      mstore\n      0x20\n      add\n      0x01\n      dup3\n      add\n      dup1\n      sload\n      tag_187\n      swap1\n      tag_66\n      jump\t// in\n    tag_187:\n      dup1\n      0x1f\n      add\n      0x20\n      dup1\n      swap2\n      div\n      mul\n      0x20\n      add\n      mload(0x40)\n      swap1\n      dup2\n      add\n      0x40\n      mstore\n      dup1\n      swap3\n      swap2\n      swap1\n      dup2\n      dup2\n      mstore\n      0x20\n      add\n      dup3\n      dup1\n      sload\n      tag_188\n      swap1\n      tag_66\n      jump\t// in\n    tag_188:\n      dup1\n      iszero\n      tag_189\n      jumpi\n      dup1\n      0x1f\n      lt\n      tag_190\n      jumpi\n      0x0100\n      dup1\n      dup4\n      sload\n      div\n      mul\n      dup4\n      mstore\n      swap2\n      0x20\n      add\n      swap2\n      jump(tag_189)\n    tag_190:\n      dup3\n      add\n      swap2\n      swap1\n      0x00\n      mstore\n      keccak256(0x00, 0x20)\n      swap1\n    tag_191:\n      dup2\n      sload\n      dup2\n      mstore\n      swap1\n      0x01\n      add\n      swap1\n      0x20\n      add\n      dup1\n      dup4\n      gt\n      tag_191\n      jumpi\n      dup3\n      swap1\n      sub\n      0x1f\n      and\n      dup3\n      add\n      swap2\n    tag_189:\n      pop\n      pop\n      pop\n      pop\n      pop\n      dup2\n      mstore\n      0x20\n      add\n      0x02\n      dup3\n      add\n      sload\n      dup2\n      mstore\n      0x20\n      add\n      0x03\n      dup3\n      add\n      0x00\n      swap1\n      sload\n      swap1\n      0x0100\n      exp\n      swap1\n      div\n      0xffffffffffffffffffffffffffffffffffffffff\n      and\n      0xffffffffffffffffffffffffffffffffffffffff\n      and\n      0xffffffffffffffffffffffffffffffffffffffff\n      and\n      dup2\n      mstore\n      0x20\n      add\n      0x04\n      dup3\n      add\n      sload\n      dup2\n      mstore\n      0x20\n      add\n      0x05\n      dup3\n      add\n      0x00\n      swap1\n      sload\n      swap1\n      0x0100\n      exp\n      swap1\n      div\n      0xffffffff\n      and\n      0xffffffff\n      and\n      0xffffffff\n      and\n      dup2\n      mstore\n      pop\n      pop\n      swap2\n      pop\n        /* \"contracts/SwapCart.sol\":5416:5603  function getItemById(uint itmId) public itemAvailabilityCheck(itmId) returns (Item memory) {\r... */\n      pop\n      swap2\n      swap1\n      pop\n      jump\t// out\n        /* \"contracts/SwapCart.sol\":694:755  mapping(uint => mapping(address => uint)) public itemsOfUsers */\n    tag_57:\n      mstore(0x20, 0x04)\n      dup2\n      0x00\n      mstore\n      mstore(0x20, keccak256(0x00, 0x40))\n      dup1\n      0x00\n      mstore\n      keccak256(0x00, 0x40)\n      0x00\n      swap2\n      pop\n      swap2\n      pop\n      pop\n      sload\n      dup2\n      jump\t// out\n        /* \"contracts/SwapCart.sol\":549:568  IERC20 public token */\n    tag_61:\n      0x00\n      dup1\n      sload\n      swap1\n      0x0100\n      exp\n      swap1\n      div\n      0xffffffffffffffffffffffffffffffffffffffff\n      and\n      dup2\n      jump\t// out\n        /* \"@openzeppelin/contracts/utils/Counters.sol\":827:939  function current(Counter storage counter) internal view returns (uint256) {... */\n    tag_115:\n        /* \"@openzeppelin/contracts/utils/Counters.sol\":892:899  uint256 */\n      0x00\n        /* \"@openzeppelin/contracts/utils/Counters.sol\":918:925  counter */\n      dup2\n        /* \"@openzeppelin/contracts/utils/Counters.sol\":918:932  counter._value */\n      0x00\n      add\n      sload\n        /* \"@openzeppelin/contracts/utils/Counters.sol\":911:932  return counter._value */\n      swap1\n      pop\n        /* \"@openzeppelin/contracts/utils/Counters.sol\":827:939  function current(Counter storage counter) internal view returns (uint256) {... */\n      swap2\n      swap1\n      pop\n      jump\t// out\n        /* \"@openzeppelin/contracts/utils/Counters.sol\":945:1068  function increment(Counter storage counter) internal {... */\n    tag_129:\n        /* \"@openzeppelin/contracts/utils/Counters.sol\":1050:1051  1 */\n      0x01\n        /* \"@openzeppelin/contracts/utils/Counters.sol\":1032:1039  counter */\n      dup2\n        /* \"@openzeppelin/contracts/utils/Counters.sol\":1032:1046  counter._value */\n      0x00\n      add\n      0x00\n        /* \"@openzeppelin/contracts/utils/Counters.sol\":1032:1051  counter._value += 1 */\n      dup3\n      dup3\n      sload\n      add\n      swap3\n      pop\n      pop\n      dup2\n      swap1\n      sstore\n      pop\n        /* \"@openzeppelin/contracts/utils/Counters.sol\":945:1068  function increment(Counter storage counter) internal {... */\n      pop\n      jump\t// out\n    tag_118:\n      dup3\n      dup1\n      sload\n      tag_194\n      swap1\n      tag_66\n      jump\t// in\n    tag_194:\n      swap1\n      0x00\n      mstore\n      keccak256(0x00, 0x20)\n      swap1\n      0x1f\n      add\n      0x20\n      swap1\n      div\n      dup2\n      add\n      swap3\n      dup3\n      tag_196\n      jumpi\n      0x00\n      dup6\n      sstore\n      jump(tag_195)\n    tag_196:\n      dup3\n      0x1f\n      lt\n      tag_197\n      jumpi\n      dup1\n      mload\n      not(0xff)\n      and\n      dup4\n      dup1\n      add\n      or\n      dup6\n      sstore\n      jump(tag_195)\n    tag_197:\n      dup3\n      dup1\n      add\n      0x01\n      add\n      dup6\n      sstore\n      dup3\n      iszero\n      tag_195\n      jumpi\n      swap2\n      dup3\n      add\n    tag_198:\n      dup3\n      dup2\n      gt\n      iszero\n      tag_199\n      jumpi\n      dup3\n      mload\n      dup3\n      sstore\n      swap2\n      0x20\n      add\n      swap2\n      swap1\n      0x01\n      add\n      swap1\n      jump(tag_198)\n    tag_199:\n    tag_195:\n      pop\n      swap1\n      pop\n      tag_200\n      swap2\n      swap1\n      tag_201\n      jump\t// in\n    tag_200:\n      pop\n      swap1\n      jump\t// out\n    tag_123:\n      dup3\n      dup1\n      sload\n      tag_202\n      swap1\n      tag_66\n      jump\t// in\n    tag_202:\n      swap1\n      0x00\n      mstore\n      keccak256(0x00, 0x20)\n      swap1\n      0x1f\n      add\n      0x20\n      swap1\n      div\n      dup2\n      add\n      swap3\n      dup3\n      tag_204\n      jumpi\n      0x00\n      dup6\n      sstore\n      jump(tag_203)\n    tag_204:\n      dup3\n      0x1f\n      lt\n      tag_205\n      jumpi\n      dup1\n      sload\n      dup6\n      sstore\n      jump(tag_203)\n    tag_205:\n      dup3\n      dup1\n      add\n      0x01\n      add\n      dup6\n      sstore\n      dup3\n      iszero\n      tag_203\n      jumpi\n      0x00\n      mstore\n      keccak256(0x00, 0x20)\n      swap2\n      0x1f\n      add\n      0x20\n      swap1\n      div\n      dup3\n      add\n    tag_206:\n      dup3\n      dup2\n      gt\n      iszero\n      tag_207\n      jumpi\n      dup3\n      sload\n      dup3\n      sstore\n      swap2\n      0x01\n      add\n      swap2\n      swap1\n      0x01\n      add\n      swap1\n      jump(tag_206)\n    tag_207:\n    tag_203:\n      pop\n      swap1\n      pop\n      tag_208\n      swap2\n      swap1\n      tag_201\n      jump\t// in\n    tag_208:\n      pop\n      swap1\n      jump\t// out\n    tag_175:\n      pop\n      dup1\n      sload\n      tag_209\n      swap1\n      tag_66\n      jump\t// in\n    tag_209:\n      0x00\n      dup3\n      sstore\n      dup1\n      0x1f\n      lt\n      tag_211\n      jumpi\n      pop\n      jump(tag_210)\n    tag_211:\n      0x1f\n      add\n      0x20\n      swap1\n      div\n      swap1\n      0x00\n      mstore\n      keccak256(0x00, 0x20)\n      swap1\n      dup2\n      add\n      swap1\n      tag_212\n      swap2\n      swap1\n      tag_201\n      jump\t// in\n    tag_212:\n    tag_210:\n      pop\n      jump\t// out\n    tag_178:\n      mload(0x40)\n      dup1\n      0xc0\n      add\n      0x40\n      mstore\n      dup1\n      0x00\n      dup2\n      mstore\n      0x20\n      add\n      0x60\n      dup2\n      mstore\n      0x20\n      add\n      0x00\n      dup2\n      mstore\n      0x20\n      add\n      and(0xffffffffffffffffffffffffffffffffffffffff, 0x00)\n      dup2\n      mstore\n      0x20\n      add\n      0x00\n      dup2\n      mstore\n      0x20\n      add\n      and(0xffffffff, 0x00)\n      dup2\n      mstore\n      pop\n      swap1\n      jump\t// out\n    tag_201:\n    tag_213:\n      dup1\n      dup3\n      gt\n      iszero\n      tag_214\n      jumpi\n      0x00\n      dup2\n      0x00\n      swap1\n      sstore\n      pop\n      0x01\n      add\n      jump(tag_213)\n    tag_214:\n      pop\n      swap1\n      jump\t// out\n        /* \"#utility.yul\":7:419   */\n    tag_216:\n        /* \"#utility.yul\":85:90   */\n      0x00\n        /* \"#utility.yul\":110:176   */\n      tag_218\n        /* \"#utility.yul\":126:175   */\n      tag_219\n        /* \"#utility.yul\":168:174   */\n      dup5\n        /* \"#utility.yul\":126:175   */\n      tag_220\n      jump\t// in\n    tag_219:\n        /* \"#utility.yul\":110:176   */\n      tag_221\n      jump\t// in\n    tag_218:\n        /* \"#utility.yul\":101:176   */\n      swap1\n      pop\n        /* \"#utility.yul\":199:205   */\n      dup3\n        /* \"#utility.yul\":192:197   */\n      dup2\n        /* \"#utility.yul\":185:206   */\n      mstore\n        /* \"#utility.yul\":237:241   */\n      0x20\n        /* \"#utility.yul\":230:235   */\n      dup2\n        /* \"#utility.yul\":226:242   */\n      add\n        /* \"#utility.yul\":275:278   */\n      dup5\n        /* \"#utility.yul\":266:272   */\n      dup5\n        /* \"#utility.yul\":261:264   */\n      dup5\n        /* \"#utility.yul\":257:273   */\n      add\n        /* \"#utility.yul\":254:279   */\n      gt\n        /* \"#utility.yul\":251:363   */\n      iszero\n      tag_222\n      jumpi\n        /* \"#utility.yul\":282:361   */\n      tag_223\n      tag_224\n      jump\t// in\n    tag_223:\n        /* \"#utility.yul\":251:363   */\n    tag_222:\n        /* \"#utility.yul\":372:413   */\n      tag_225\n        /* \"#utility.yul\":406:412   */\n      dup5\n        /* \"#utility.yul\":401:404   */\n      dup3\n        /* \"#utility.yul\":396:399   */\n      dup6\n        /* \"#utility.yul\":372:413   */\n      tag_226\n      jump\t// in\n    tag_225:\n        /* \"#utility.yul\":91:419   */\n      pop\n        /* \"#utility.yul\":7:419   */\n      swap4\n      swap3\n      pop\n      pop\n      pop\n      jump\t// out\n        /* \"#utility.yul\":425:564   */\n    tag_227:\n        /* \"#utility.yul\":471:476   */\n      0x00\n        /* \"#utility.yul\":509:515   */\n      dup2\n        /* \"#utility.yul\":496:516   */\n      calldataload\n        /* \"#utility.yul\":487:516   */\n      swap1\n      pop\n        /* \"#utility.yul\":525:558   */\n      tag_229\n        /* \"#utility.yul\":552:557   */\n      dup2\n        /* \"#utility.yul\":525:558   */\n      tag_230\n      jump\t// in\n    tag_229:\n        /* \"#utility.yul\":425:564   */\n      swap3\n      swap2\n      pop\n      pop\n      jump\t// out\n        /* \"#utility.yul\":570:707   */\n    tag_231:\n        /* \"#utility.yul\":624:629   */\n      0x00\n        /* \"#utility.yul\":655:661   */\n      dup2\n        /* \"#utility.yul\":649:662   */\n      mload\n        /* \"#utility.yul\":640:662   */\n      swap1\n      pop\n        /* \"#utility.yul\":671:701   */\n      tag_233\n        /* \"#utility.yul\":695:700   */\n      dup2\n        /* \"#utility.yul\":671:701   */\n      tag_234\n      jump\t// in\n    tag_233:\n        /* \"#utility.yul\":570:707   */\n      swap3\n      swap2\n      pop\n      pop\n      jump\t// out\n        /* \"#utility.yul\":727:1067   */\n    tag_235:\n        /* \"#utility.yul\":783:788   */\n      0x00\n        /* \"#utility.yul\":832:835   */\n      dup3\n        /* \"#utility.yul\":825:829   */\n      0x1f\n        /* \"#utility.yul\":817:823   */\n      dup4\n        /* \"#utility.yul\":813:830   */\n      add\n        /* \"#utility.yul\":809:836   */\n      slt\n        /* \"#utility.yul\":799:921   */\n      tag_237\n      jumpi\n        /* \"#utility.yul\":840:919   */\n      tag_238\n      tag_239\n      jump\t// in\n    tag_238:\n        /* \"#utility.yul\":799:921   */\n    tag_237:\n        /* \"#utility.yul\":957:963   */\n      dup2\n        /* \"#utility.yul\":944:964   */\n      calldataload\n        /* \"#utility.yul\":982:1061   */\n      tag_240\n        /* \"#utility.yul\":1057:1060   */\n      dup5\n        /* \"#utility.yul\":1049:1055   */\n      dup3\n        /* \"#utility.yul\":1042:1046   */\n      0x20\n        /* \"#utility.yul\":1034:1040   */\n      dup7\n        /* \"#utility.yul\":1030:1047   */\n      add\n        /* \"#utility.yul\":982:1061   */\n      tag_216\n      jump\t// in\n    tag_240:\n        /* \"#utility.yul\":973:1061   */\n      swap2\n      pop\n        /* \"#utility.yul\":789:1067   */\n      pop\n        /* \"#utility.yul\":727:1067   */\n      swap3\n      swap2\n      pop\n      pop\n      jump\t// out\n        /* \"#utility.yul\":1073:1212   */\n    tag_241:\n        /* \"#utility.yul\":1119:1124   */\n      0x00\n        /* \"#utility.yul\":1157:1163   */\n      dup2\n        /* \"#utility.yul\":1144:1164   */\n      calldataload\n        /* \"#utility.yul\":1135:1164   */\n      swap1\n      pop\n        /* \"#utility.yul\":1173:1206   */\n      tag_243\n        /* \"#utility.yul\":1200:1205   */\n      dup2\n        /* \"#utility.yul\":1173:1206   */\n      tag_244\n      jump\t// in\n    tag_243:\n        /* \"#utility.yul\":1073:1212   */\n      swap3\n      swap2\n      pop\n      pop\n      jump\t// out\n        /* \"#utility.yul\":1218:1355   */\n    tag_245:\n        /* \"#utility.yul\":1263:1268   */\n      0x00\n        /* \"#utility.yul\":1301:1307   */\n      dup2\n        /* \"#utility.yul\":1288:1308   */\n      calldataload\n        /* \"#utility.yul\":1279:1308   */\n      swap1\n      pop\n        /* \"#utility.yul\":1317:1349   */\n      tag_247\n        /* \"#utility.yul\":1343:1348   */\n      dup2\n        /* \"#utility.yul\":1317:1349   */\n      tag_248\n      jump\t// in\n    tag_247:\n        /* \"#utility.yul\":1218:1355   */\n      swap3\n      swap2\n      pop\n      pop\n      jump\t// out\n        /* \"#utility.yul\":1361:1690   */\n    tag_38:\n        /* \"#utility.yul\":1420:1426   */\n      0x00\n        /* \"#utility.yul\":1469:1471   */\n      0x20\n        /* \"#utility.yul\":1457:1466   */\n      dup3\n        /* \"#utility.yul\":1448:1455   */\n      dup5\n        /* \"#utility.yul\":1444:1467   */\n      sub\n        /* \"#utility.yul\":1440:1472   */\n      slt\n        /* \"#utility.yul\":1437:1556   */\n      iszero\n      tag_250\n      jumpi\n        /* \"#utility.yul\":1475:1554   */\n      tag_251\n      tag_252\n      jump\t// in\n    tag_251:\n        /* \"#utility.yul\":1437:1556   */\n    tag_250:\n        /* \"#utility.yul\":1595:1596   */\n      0x00\n        /* \"#utility.yul\":1620:1673   */\n      tag_253\n        /* \"#utility.yul\":1665:1672   */\n      dup5\n        /* \"#utility.yul\":1656:1662   */\n      dup3\n        /* \"#utility.yul\":1645:1654   */\n      dup6\n        /* \"#utility.yul\":1641:1663   */\n      add\n        /* \"#utility.yul\":1620:1673   */\n      tag_227\n      jump\t// in\n    tag_253:\n        /* \"#utility.yul\":1610:1673   */\n      swap2\n      pop\n        /* \"#utility.yul\":1566:1683   */\n      pop\n        /* \"#utility.yul\":1361:1690   */\n      swap3\n      swap2\n      pop\n      pop\n      jump\t// out\n        /* \"#utility.yul\":1696:2041   */\n    tag_104:\n        /* \"#utility.yul\":1763:1769   */\n      0x00\n        /* \"#utility.yul\":1812:1814   */\n      0x20\n        /* \"#utility.yul\":1800:1809   */\n      dup3\n        /* \"#utility.yul\":1791:1798   */\n      dup5\n        /* \"#utility.yul\":1787:1810   */\n      sub\n        /* \"#utility.yul\":1783:1815   */\n      slt\n        /* \"#utility.yul\":1780:1899   */\n      iszero\n      tag_255\n      jumpi\n        /* \"#utility.yul\":1818:1897   */\n      tag_256\n      tag_252\n      jump\t// in\n    tag_256:\n        /* \"#utility.yul\":1780:1899   */\n    tag_255:\n        /* \"#utility.yul\":1938:1939   */\n      0x00\n        /* \"#utility.yul\":1963:2024   */\n      tag_257\n        /* \"#utility.yul\":2016:2023   */\n      dup5\n        /* \"#utility.yul\":2007:2013   */\n      dup3\n        /* \"#utility.yul\":1996:2005   */\n      dup6\n        /* \"#utility.yul\":1992:2014   */\n      add\n        /* \"#utility.yul\":1963:2024   */\n      tag_231\n      jump\t// in\n    tag_257:\n        /* \"#utility.yul\":1953:2024   */\n      swap2\n      pop\n        /* \"#utility.yul\":1909:2034   */\n      pop\n        /* \"#utility.yul\":1696:2041   */\n      swap3\n      swap2\n      pop\n      pop\n      jump\t// out\n        /* \"#utility.yul\":2047:2376   */\n    tag_17:\n        /* \"#utility.yul\":2106:2112   */\n      0x00\n        /* \"#utility.yul\":2155:2157   */\n      0x20\n        /* \"#utility.yul\":2143:2152   */\n      dup3\n        /* \"#utility.yul\":2134:2141   */\n      dup5\n        /* \"#utility.yul\":2130:2153   */\n      sub\n        /* \"#utility.yul\":2126:2158   */\n      slt\n        /* \"#utility.yul\":2123:2242   */\n      iszero\n      tag_259\n      jumpi\n        /* \"#utility.yul\":2161:2240   */\n      tag_260\n      tag_252\n      jump\t// in\n    tag_260:\n        /* \"#utility.yul\":2123:2242   */\n    tag_259:\n        /* \"#utility.yul\":2281:2282   */\n      0x00\n        /* \"#utility.yul\":2306:2359   */\n      tag_261\n        /* \"#utility.yul\":2351:2358   */\n      dup5\n        /* \"#utility.yul\":2342:2348   */\n      dup3\n        /* \"#utility.yul\":2331:2340   */\n      dup6\n        /* \"#utility.yul\":2327:2349   */\n      add\n        /* \"#utility.yul\":2306:2359   */\n      tag_241\n      jump\t// in\n    tag_261:\n        /* \"#utility.yul\":2296:2359   */\n      swap2\n      pop\n        /* \"#utility.yul\":2252:2369   */\n      pop\n        /* \"#utility.yul\":2047:2376   */\n      swap3\n      swap2\n      pop\n      pop\n      jump\t// out\n        /* \"#utility.yul\":2382:2856   */\n    tag_56:\n        /* \"#utility.yul\":2450:2456   */\n      0x00\n        /* \"#utility.yul\":2458:2464   */\n      dup1\n        /* \"#utility.yul\":2507:2509   */\n      0x40\n        /* \"#utility.yul\":2495:2504   */\n      dup4\n        /* \"#utility.yul\":2486:2493   */\n      dup6\n        /* \"#utility.yul\":2482:2505   */\n      sub\n        /* \"#utility.yul\":2478:2510   */\n      slt\n        /* \"#utility.yul\":2475:2594   */\n      iszero\n      tag_263\n      jumpi\n        /* \"#utility.yul\":2513:2592   */\n      tag_264\n      tag_252\n      jump\t// in\n    tag_264:\n        /* \"#utility.yul\":2475:2594   */\n    tag_263:\n        /* \"#utility.yul\":2633:2634   */\n      0x00\n        /* \"#utility.yul\":2658:2711   */\n      tag_265\n        /* \"#utility.yul\":2703:2710   */\n      dup6\n        /* \"#utility.yul\":2694:2700   */\n      dup3\n        /* \"#utility.yul\":2683:2692   */\n      dup7\n        /* \"#utility.yul\":2679:2701   */\n      add\n        /* \"#utility.yul\":2658:2711   */\n      tag_241\n      jump\t// in\n    tag_265:\n        /* \"#utility.yul\":2648:2711   */\n      swap3\n      pop\n        /* \"#utility.yul\":2604:2721   */\n      pop\n        /* \"#utility.yul\":2760:2762   */\n      0x20\n        /* \"#utility.yul\":2786:2839   */\n      tag_266\n        /* \"#utility.yul\":2831:2838   */\n      dup6\n        /* \"#utility.yul\":2822:2828   */\n      dup3\n        /* \"#utility.yul\":2811:2820   */\n      dup7\n        /* \"#utility.yul\":2807:2829   */\n      add\n        /* \"#utility.yul\":2786:2839   */\n      tag_227\n      jump\t// in\n    tag_266:\n        /* \"#utility.yul\":2776:2839   */\n      swap2\n      pop\n        /* \"#utility.yul\":2731:2849   */\n      pop\n        /* \"#utility.yul\":2382:2856   */\n      swap3\n      pop\n      swap3\n      swap1\n      pop\n      jump\t// out\n        /* \"#utility.yul\":2862:3659   */\n    tag_30:\n        /* \"#utility.yul\":2948:2954   */\n      0x00\n        /* \"#utility.yul\":2956:2962   */\n      dup1\n        /* \"#utility.yul\":2964:2970   */\n      0x00\n        /* \"#utility.yul\":3013:3015   */\n      0x60\n        /* \"#utility.yul\":3001:3010   */\n      dup5\n        /* \"#utility.yul\":2992:2999   */\n      dup7\n        /* \"#utility.yul\":2988:3011   */\n      sub\n        /* \"#utility.yul\":2984:3016   */\n      slt\n        /* \"#utility.yul\":2981:3100   */\n      iszero\n      tag_268\n      jumpi\n        /* \"#utility.yul\":3019:3098   */\n      tag_269\n      tag_252\n      jump\t// in\n    tag_269:\n        /* \"#utility.yul\":2981:3100   */\n    tag_268:\n        /* \"#utility.yul\":3139:3140   */\n      0x00\n        /* \"#utility.yul\":3164:3217   */\n      tag_270\n        /* \"#utility.yul\":3209:3216   */\n      dup7\n        /* \"#utility.yul\":3200:3206   */\n      dup3\n        /* \"#utility.yul\":3189:3198   */\n      dup8\n        /* \"#utility.yul\":3185:3207   */\n      add\n        /* \"#utility.yul\":3164:3217   */\n      tag_241\n      jump\t// in\n    tag_270:\n        /* \"#utility.yul\":3154:3217   */\n      swap4\n      pop\n        /* \"#utility.yul\":3110:3227   */\n      pop\n        /* \"#utility.yul\":3294:3296   */\n      0x20\n        /* \"#utility.yul\":3283:3292   */\n      dup5\n        /* \"#utility.yul\":3279:3297   */\n      add\n        /* \"#utility.yul\":3266:3298   */\n      calldataload\n        /* \"#utility.yul\":3325:3343   */\n      0xffffffffffffffff\n        /* \"#utility.yul\":3317:3323   */\n      dup2\n        /* \"#utility.yul\":3314:3344   */\n      gt\n        /* \"#utility.yul\":3311:3428   */\n      iszero\n      tag_271\n      jumpi\n        /* \"#utility.yul\":3347:3426   */\n      tag_272\n      tag_273\n      jump\t// in\n    tag_272:\n        /* \"#utility.yul\":3311:3428   */\n    tag_271:\n        /* \"#utility.yul\":3452:3515   */\n      tag_274\n        /* \"#utility.yul\":3507:3514   */\n      dup7\n        /* \"#utility.yul\":3498:3504   */\n      dup3\n        /* \"#utility.yul\":3487:3496   */\n      dup8\n        /* \"#utility.yul\":3483:3505   */\n      add\n        /* \"#utility.yul\":3452:3515   */\n      tag_235\n      jump\t// in\n    tag_274:\n        /* \"#utility.yul\":3442:3515   */\n      swap3\n      pop\n        /* \"#utility.yul\":3237:3525   */\n      pop\n        /* \"#utility.yul\":3564:3566   */\n      0x40\n        /* \"#utility.yul\":3590:3642   */\n      tag_275\n        /* \"#utility.yul\":3634:3641   */\n      dup7\n        /* \"#utility.yul\":3625:3631   */\n      dup3\n        /* \"#utility.yul\":3614:3623   */\n      dup8\n        /* \"#utility.yul\":3610:3632   */\n      add\n        /* \"#utility.yul\":3590:3642   */\n      tag_245\n      jump\t// in\n    tag_275:\n        /* \"#utility.yul\":3580:3642   */\n      swap2\n      pop\n        /* \"#utility.yul\":3535:3652   */\n      pop\n        /* \"#utility.yul\":2862:3659   */\n      swap3\n      pop\n      swap3\n      pop\n      swap3\n      jump\t// out\n        /* \"#utility.yul\":3665:4139   */\n    tag_21:\n        /* \"#utility.yul\":3733:3739   */\n      0x00\n        /* \"#utility.yul\":3741:3747   */\n      dup1\n        /* \"#utility.yul\":3790:3792   */\n      0x40\n        /* \"#utility.yul\":3778:3787   */\n      dup4\n        /* \"#utility.yul\":3769:3776   */\n      dup6\n        /* \"#utility.yul\":3765:3788   */\n      sub\n        /* \"#utility.yul\":3761:3793   */\n      slt\n        /* \"#utility.yul\":3758:3877   */\n      iszero\n      tag_277\n      jumpi\n        /* \"#utility.yul\":3796:3875   */\n      tag_278\n      tag_252\n      jump\t// in\n    tag_278:\n        /* \"#utility.yul\":3758:3877   */\n    tag_277:\n        /* \"#utility.yul\":3916:3917   */\n      0x00\n        /* \"#utility.yul\":3941:3994   */\n      tag_279\n        /* \"#utility.yul\":3986:3993   */\n      dup6\n        /* \"#utility.yul\":3977:3983   */\n      dup3\n        /* \"#utility.yul\":3966:3975   */\n      dup7\n        /* \"#utility.yul\":3962:3984   */\n      add\n        /* \"#utility.yul\":3941:3994   */\n      tag_241\n      jump\t// in\n    tag_279:\n        /* \"#utility.yul\":3931:3994   */\n      swap3\n      pop\n        /* \"#utility.yul\":3887:4004   */\n      pop\n        /* \"#utility.yul\":4043:4045   */\n      0x20\n        /* \"#utility.yul\":4069:4122   */\n      tag_280\n        /* \"#utility.yul\":4114:4121   */\n      dup6\n        /* \"#utility.yul\":4105:4111   */\n      dup3\n        /* \"#utility.yul\":4094:4103   */\n      dup7\n        /* \"#utility.yul\":4090:4112   */\n      add\n        /* \"#utility.yul\":4069:4122   */\n      tag_241\n      jump\t// in\n    tag_280:\n        /* \"#utility.yul\":4059:4122   */\n      swap2\n      pop\n        /* \"#utility.yul\":4014:4132   */\n      pop\n        /* \"#utility.yul\":3665:4139   */\n      swap3\n      pop\n      swap3\n      swap1\n      pop\n      jump\t// out\n        /* \"#utility.yul\":4145:4385   */\n    tag_281:\n        /* \"#utility.yul\":4256:4266   */\n      0x00\n        /* \"#utility.yul\":4291:4379   */\n      tag_283\n        /* \"#utility.yul\":4375:4378   */\n      dup4\n        /* \"#utility.yul\":4367:4373   */\n      dup4\n        /* \"#utility.yul\":4291:4379   */\n      tag_284\n      jump\t// in\n    tag_283:\n        /* \"#utility.yul\":4277:4379   */\n      swap1\n      pop\n        /* \"#utility.yul\":4145:4385   */\n      swap3\n      swap2\n      pop\n      pop\n      jump\t// out\n        /* \"#utility.yul\":4391:4625   */\n    tag_285:\n        /* \"#utility.yul\":4499:4509   */\n      0x00\n        /* \"#utility.yul\":4534:4619   */\n      tag_287\n        /* \"#utility.yul\":4615:4618   */\n      dup4\n        /* \"#utility.yul\":4607:4613   */\n      dup4\n        /* \"#utility.yul\":4534:4619   */\n      tag_288\n      jump\t// in\n    tag_287:\n        /* \"#utility.yul\":4520:4619   */\n      swap1\n      pop\n        /* \"#utility.yul\":4391:4625   */\n      swap3\n      swap2\n      pop\n      pop\n      jump\t// out\n        /* \"#utility.yul\":4631:4739   */\n    tag_289:\n        /* \"#utility.yul\":4708:4732   */\n      tag_291\n        /* \"#utility.yul\":4726:4731   */\n      dup2\n        /* \"#utility.yul\":4708:4732   */\n      tag_292\n      jump\t// in\n    tag_291:\n        /* \"#utility.yul\":4703:4706   */\n      dup3\n        /* \"#utility.yul\":4696:4733   */\n      mstore\n        /* \"#utility.yul\":4631:4739   */\n      pop\n      pop\n      jump\t// out\n        /* \"#utility.yul\":4745:4863   */\n    tag_293:\n        /* \"#utility.yul\":4832:4856   */\n      tag_295\n        /* \"#utility.yul\":4850:4855   */\n      dup2\n        /* \"#utility.yul\":4832:4856   */\n      tag_292\n      jump\t// in\n    tag_295:\n        /* \"#utility.yul\":4827:4830   */\n      dup3\n        /* \"#utility.yul\":4820:4857   */\n      mstore\n        /* \"#utility.yul\":4745:4863   */\n      pop\n      pop\n      jump\t// out\n        /* \"#utility.yul\":4925:6004   */\n    tag_296:\n        /* \"#utility.yul\":5086:5089   */\n      0x00\n        /* \"#utility.yul\":5115:5190   */\n      tag_298\n        /* \"#utility.yul\":5184:5189   */\n      dup3\n        /* \"#utility.yul\":5115:5190   */\n      tag_299\n      jump\t// in\n    tag_298:\n        /* \"#utility.yul\":5206:5313   */\n      tag_300\n        /* \"#utility.yul\":5306:5312   */\n      dup2\n        /* \"#utility.yul\":5301:5304   */\n      dup6\n        /* \"#utility.yul\":5206:5313   */\n      tag_301\n      jump\t// in\n    tag_300:\n        /* \"#utility.yul\":5199:5313   */\n      swap4\n      pop\n        /* \"#utility.yul\":5339:5342   */\n      dup4\n        /* \"#utility.yul\":5384:5388   */\n      0x20\n        /* \"#utility.yul\":5376:5382   */\n      dup3\n        /* \"#utility.yul\":5372:5389   */\n      mul\n        /* \"#utility.yul\":5367:5370   */\n      dup6\n        /* \"#utility.yul\":5363:5390   */\n      add\n        /* \"#utility.yul\":5414:5491   */\n      tag_302\n        /* \"#utility.yul\":5485:5490   */\n      dup6\n        /* \"#utility.yul\":5414:5491   */\n      tag_303\n      jump\t// in\n    tag_302:\n        /* \"#utility.yul\":5514:5521   */\n      dup1\n        /* \"#utility.yul\":5545:5546   */\n      0x00\n        /* \"#utility.yul\":5530:5959   */\n    tag_304:\n        /* \"#utility.yul\":5555:5561   */\n      dup6\n        /* \"#utility.yul\":5552:5553   */\n      dup2\n        /* \"#utility.yul\":5549:5562   */\n      lt\n        /* \"#utility.yul\":5530:5959   */\n      iszero\n      tag_306\n      jumpi\n        /* \"#utility.yul\":5626:5635   */\n      dup5\n        /* \"#utility.yul\":5620:5624   */\n      dup5\n        /* \"#utility.yul\":5616:5636   */\n      sub\n        /* \"#utility.yul\":5611:5614   */\n      dup10\n        /* \"#utility.yul\":5604:5637   */\n      mstore\n        /* \"#utility.yul\":5677:5683   */\n      dup2\n        /* \"#utility.yul\":5671:5684   */\n      mload\n        /* \"#utility.yul\":5705:5811   */\n      tag_307\n        /* \"#utility.yul\":5806:5810   */\n      dup6\n        /* \"#utility.yul\":5791:5804   */\n      dup3\n        /* \"#utility.yul\":5705:5811   */\n      tag_281\n      jump\t// in\n    tag_307:\n        /* \"#utility.yul\":5697:5811   */\n      swap5\n      pop\n        /* \"#utility.yul\":5834:5915   */\n      tag_308\n        /* \"#utility.yul\":5908:5914   */\n      dup4\n        /* \"#utility.yul\":5834:5915   */\n      tag_309\n      jump\t// in\n    tag_308:\n        /* \"#utility.yul\":5824:5915   */\n      swap3\n      pop\n        /* \"#utility.yul\":5944:5948   */\n      0x20\n        /* \"#utility.yul\":5939:5942   */\n      dup11\n        /* \"#utility.yul\":5935:5949   */\n      add\n        /* \"#utility.yul\":5928:5949   */\n      swap10\n      pop\n        /* \"#utility.yul\":5590:5959   */\n      pop\n        /* \"#utility.yul\":5577:5578   */\n      0x01\n        /* \"#utility.yul\":5574:5575   */\n      dup2\n        /* \"#utility.yul\":5570:5579   */\n      add\n        /* \"#utility.yul\":5565:5579   */\n      swap1\n      pop\n        /* \"#utility.yul\":5530:5959   */\n      jump(tag_304)\n    tag_306:\n        /* \"#utility.yul\":5534:5548   */\n      pop\n        /* \"#utility.yul\":5975:5979   */\n      dup3\n        /* \"#utility.yul\":5968:5979   */\n      swap8\n      pop\n        /* \"#utility.yul\":5995:5998   */\n      dup8\n        /* \"#utility.yul\":5988:5998   */\n      swap6\n      pop\n        /* \"#utility.yul\":5091:6004   */\n      pop\n      pop\n      pop\n      pop\n      pop\n        /* \"#utility.yul\":4925:6004   */\n      swap3\n      swap2\n      pop\n      pop\n      jump\t// out\n        /* \"#utility.yul\":6066:7111   */\n    tag_310:\n        /* \"#utility.yul\":6221:6224   */\n      0x00\n        /* \"#utility.yul\":6250:6319   */\n      tag_312\n        /* \"#utility.yul\":6313:6318   */\n      dup3\n        /* \"#utility.yul\":6250:6319   */\n      tag_313\n      jump\t// in\n    tag_312:\n        /* \"#utility.yul\":6335:6442   */\n      tag_314\n        /* \"#utility.yul\":6435:6441   */\n      dup2\n        /* \"#utility.yul\":6430:6433   */\n      dup6\n        /* \"#utility.yul\":6335:6442   */\n      tag_301\n      jump\t// in\n    tag_314:\n        /* \"#utility.yul\":6328:6442   */\n      swap4\n      pop\n        /* \"#utility.yul\":6468:6471   */\n      dup4\n        /* \"#utility.yul\":6513:6517   */\n      0x20\n        /* \"#utility.yul\":6505:6511   */\n      dup3\n        /* \"#utility.yul\":6501:6518   */\n      mul\n        /* \"#utility.yul\":6496:6499   */\n      dup6\n        /* \"#utility.yul\":6492:6519   */\n      add\n        /* \"#utility.yul\":6543:6614   */\n      tag_315\n        /* \"#utility.yul\":6608:6613   */\n      dup6\n        /* \"#utility.yul\":6543:6614   */\n      tag_316\n      jump\t// in\n    tag_315:\n        /* \"#utility.yul\":6637:6644   */\n      dup1\n        /* \"#utility.yul\":6668:6669   */\n      0x00\n        /* \"#utility.yul\":6653:7066   */\n    tag_317:\n        /* \"#utility.yul\":6678:6684   */\n      dup6\n        /* \"#utility.yul\":6675:6676   */\n      dup2\n        /* \"#utility.yul\":6672:6685   */\n      lt\n        /* \"#utility.yul\":6653:7066   */\n      iszero\n      tag_319\n      jumpi\n        /* \"#utility.yul\":6749:6758   */\n      dup5\n        /* \"#utility.yul\":6743:6747   */\n      dup5\n        /* \"#utility.yul\":6739:6759   */\n      sub\n        /* \"#utility.yul\":6734:6737   */\n      dup10\n        /* \"#utility.yul\":6727:6760   */\n      mstore\n        /* \"#utility.yul\":6794:6800   */\n      dup2\n        /* \"#utility.yul\":6821:6924   */\n      tag_320\n        /* \"#utility.yul\":6919:6923   */\n      dup6\n        /* \"#utility.yul\":6904:6917   */\n      dup3\n        /* \"#utility.yul\":6821:6924   */\n      tag_285\n      jump\t// in\n    tag_320:\n        /* \"#utility.yul\":6813:6924   */\n      swap5\n      pop\n        /* \"#utility.yul\":6947:7022   */\n      tag_321\n        /* \"#utility.yul\":7015:7021   */\n      dup4\n        /* \"#utility.yul\":6947:7022   */\n      tag_322\n      jump\t// in\n    tag_321:\n        /* \"#utility.yul\":6937:7022   */\n      swap3\n      pop\n        /* \"#utility.yul\":7051:7055   */\n      0x20\n        /* \"#utility.yul\":7046:7049   */\n      dup11\n        /* \"#utility.yul\":7042:7056   */\n      add\n        /* \"#utility.yul\":7035:7056   */\n      swap10\n      pop\n        /* \"#utility.yul\":6713:7066   */\n      pop\n        /* \"#utility.yul\":6700:6701   */\n      0x01\n        /* \"#utility.yul\":6697:6698   */\n      dup2\n        /* \"#utility.yul\":6693:6702   */\n      add\n        /* \"#utility.yul\":6688:6702   */\n      swap1\n      pop\n        /* \"#utility.yul\":6653:7066   */\n      jump(tag_317)\n    tag_319:\n        /* \"#utility.yul\":6657:6671   */\n      pop\n        /* \"#utility.yul\":7082:7086   */\n      dup3\n        /* \"#utility.yul\":7075:7086   */\n      swap8\n      pop\n        /* \"#utility.yul\":7102:7105   */\n      dup8\n        /* \"#utility.yul\":7095:7105   */\n      swap6\n      pop\n        /* \"#utility.yul\":6226:7111   */\n      pop\n      pop\n      pop\n      pop\n      pop\n        /* \"#utility.yul\":6066:7111   */\n      swap3\n      swap2\n      pop\n      pop\n      jump\t// out\n        /* \"#utility.yul\":7117:7276   */\n    tag_323:\n        /* \"#utility.yul\":7218:7269   */\n      tag_325\n        /* \"#utility.yul\":7263:7268   */\n      dup2\n        /* \"#utility.yul\":7218:7269   */\n      tag_326\n      jump\t// in\n    tag_325:\n        /* \"#utility.yul\":7213:7216   */\n      dup3\n        /* \"#utility.yul\":7206:7270   */\n      mstore\n        /* \"#utility.yul\":7117:7276   */\n      pop\n      pop\n      jump\t// out\n        /* \"#utility.yul\":7282:7626   */\n    tag_327:\n        /* \"#utility.yul\":7360:7363   */\n      0x00\n        /* \"#utility.yul\":7388:7427   */\n      tag_329\n        /* \"#utility.yul\":7421:7426   */\n      dup3\n        /* \"#utility.yul\":7388:7427   */\n      tag_330\n      jump\t// in\n    tag_329:\n        /* \"#utility.yul\":7443:7504   */\n      tag_331\n        /* \"#utility.yul\":7497:7503   */\n      dup2\n        /* \"#utility.yul\":7492:7495   */\n      dup6\n        /* \"#utility.yul\":7443:7504   */\n      tag_332\n      jump\t// in\n    tag_331:\n        /* \"#utility.yul\":7436:7504   */\n      swap4\n      pop\n        /* \"#utility.yul\":7513:7565   */\n      tag_333\n        /* \"#utility.yul\":7558:7564   */\n      dup2\n        /* \"#utility.yul\":7553:7556   */\n      dup6\n        /* \"#utility.yul\":7546:7550   */\n      0x20\n        /* \"#utility.yul\":7539:7544   */\n      dup7\n        /* \"#utility.yul\":7535:7551   */\n      add\n        /* \"#utility.yul\":7513:7565   */\n      tag_334\n      jump\t// in\n    tag_333:\n        /* \"#utility.yul\":7590:7619   */\n      tag_335\n        /* \"#utility.yul\":7612:7618   */\n      dup2\n        /* \"#utility.yul\":7590:7619   */\n      tag_336\n      jump\t// in\n    tag_335:\n        /* \"#utility.yul\":7585:7588   */\n      dup5\n        /* \"#utility.yul\":7581:7620   */\n      add\n        /* \"#utility.yul\":7574:7620   */\n      swap2\n      pop\n        /* \"#utility.yul\":7364:7626   */\n      pop\n        /* \"#utility.yul\":7282:7626   */\n      swap3\n      swap2\n      pop\n      pop\n      jump\t// out\n        /* \"#utility.yul\":7632:7996   */\n    tag_337:\n        /* \"#utility.yul\":7720:7723   */\n      0x00\n        /* \"#utility.yul\":7748:7787   */\n      tag_339\n        /* \"#utility.yul\":7781:7786   */\n      dup3\n        /* \"#utility.yul\":7748:7787   */\n      tag_330\n      jump\t// in\n    tag_339:\n        /* \"#utility.yul\":7803:7874   */\n      tag_340\n        /* \"#utility.yul\":7867:7873   */\n      dup2\n        /* \"#utility.yul\":7862:7865   */\n      dup6\n        /* \"#utility.yul\":7803:7874   */\n      tag_341\n      jump\t// in\n    tag_340:\n        /* \"#utility.yul\":7796:7874   */\n      swap4\n      pop\n        /* \"#utility.yul\":7883:7935   */\n      tag_342\n        /* \"#utility.yul\":7928:7934   */\n      dup2\n        /* \"#utility.yul\":7923:7926   */\n      dup6\n        /* \"#utility.yul\":7916:7920   */\n      0x20\n        /* \"#utility.yul\":7909:7914   */\n      dup7\n        /* \"#utility.yul\":7905:7921   */\n      add\n        /* \"#utility.yul\":7883:7935   */\n      tag_334\n      jump\t// in\n    tag_342:\n        /* \"#utility.yul\":7960:7989   */\n      tag_343\n        /* \"#utility.yul\":7982:7988   */\n      dup2\n        /* \"#utility.yul\":7960:7989   */\n      tag_336\n      jump\t// in\n    tag_343:\n        /* \"#utility.yul\":7955:7958   */\n      dup5\n        /* \"#utility.yul\":7951:7990   */\n      add\n        /* \"#utility.yul\":7944:7990   */\n      swap2\n      pop\n        /* \"#utility.yul\":7724:7996   */\n      pop\n        /* \"#utility.yul\":7632:7996   */\n      swap3\n      swap2\n      pop\n      pop\n      jump\t// out\n        /* \"#utility.yul\":8026:8808   */\n    tag_344:\n        /* \"#utility.yul\":8101:8104   */\n      0x00\n        /* \"#utility.yul\":8138:8143   */\n      dup2\n        /* \"#utility.yul\":8132:8144   */\n      sload\n        /* \"#utility.yul\":8167:8203   */\n      tag_346\n        /* \"#utility.yul\":8193:8202   */\n      dup2\n        /* \"#utility.yul\":8167:8203   */\n      tag_66\n      jump\t// in\n    tag_346:\n        /* \"#utility.yul\":8219:8280   */\n      tag_347\n        /* \"#utility.yul\":8273:8279   */\n      dup2\n        /* \"#utility.yul\":8268:8271   */\n      dup7\n        /* \"#utility.yul\":8219:8280   */\n      tag_332\n      jump\t// in\n    tag_347:\n        /* \"#utility.yul\":8212:8280   */\n      swap5\n      pop\n        /* \"#utility.yul\":8311:8312   */\n      0x01\n        /* \"#utility.yul\":8300:8309   */\n      dup3\n        /* \"#utility.yul\":8296:8313   */\n      and\n        /* \"#utility.yul\":8327:8328   */\n      0x00\n        /* \"#utility.yul\":8322:8457   */\n      dup2\n      eq\n      tag_349\n      jumpi\n        /* \"#utility.yul\":8471:8472   */\n      0x01\n        /* \"#utility.yul\":8466:8802   */\n      dup2\n      eq\n      tag_350\n      jumpi\n        /* \"#utility.yul\":8289:8802   */\n      jump(tag_348)\n        /* \"#utility.yul\":8322:8457   */\n    tag_349:\n        /* \"#utility.yul\":8406:8410   */\n      0xff\n        /* \"#utility.yul\":8402:8411   */\n      not\n        /* \"#utility.yul\":8391:8400   */\n      dup4\n        /* \"#utility.yul\":8387:8412   */\n      and\n        /* \"#utility.yul\":8382:8385   */\n      dup7\n        /* \"#utility.yul\":8375:8413   */\n      mstore\n        /* \"#utility.yul\":8442:8446   */\n      0x20\n        /* \"#utility.yul\":8437:8440   */\n      dup7\n        /* \"#utility.yul\":8433:8447   */\n      add\n        /* \"#utility.yul\":8426:8447   */\n      swap4\n      pop\n        /* \"#utility.yul\":8322:8457   */\n      jump(tag_348)\n        /* \"#utility.yul\":8466:8802   */\n    tag_350:\n        /* \"#utility.yul\":8533:8571   */\n      tag_351\n        /* \"#utility.yul\":8565:8570   */\n      dup6\n        /* \"#utility.yul\":8533:8571   */\n      tag_352\n      jump\t// in\n    tag_351:\n        /* \"#utility.yul\":8593:8594   */\n      0x00\n        /* \"#utility.yul\":8607:8761   */\n    tag_353:\n        /* \"#utility.yul\":8621:8627   */\n      dup4\n        /* \"#utility.yul\":8618:8619   */\n      dup2\n        /* \"#utility.yul\":8615:8628   */\n      lt\n        /* \"#utility.yul\":8607:8761   */\n      iszero\n      tag_355\n      jumpi\n        /* \"#utility.yul\":8695:8702   */\n      dup2\n        /* \"#utility.yul\":8689:8703   */\n      sload\n        /* \"#utility.yul\":8685:8686   */\n      dup2\n        /* \"#utility.yul\":8680:8683   */\n      dup10\n        /* \"#utility.yul\":8676:8687   */\n      add\n        /* \"#utility.yul\":8669:8704   */\n      mstore\n        /* \"#utility.yul\":8745:8746   */\n      0x01\n        /* \"#utility.yul\":8736:8743   */\n      dup3\n        /* \"#utility.yul\":8732:8747   */\n      add\n        /* \"#utility.yul\":8721:8747   */\n      swap2\n      pop\n        /* \"#utility.yul\":8643:8647   */\n      0x20\n        /* \"#utility.yul\":8640:8641   */\n      dup2\n        /* \"#utility.yul\":8636:8648   */\n      add\n        /* \"#utility.yul\":8631:8648   */\n      swap1\n      pop\n        /* \"#utility.yul\":8607:8761   */\n      jump(tag_353)\n    tag_355:\n        /* \"#utility.yul\":8790:8791   */\n      dup1\n        /* \"#utility.yul\":8785:8788   */\n      dup9\n        /* \"#utility.yul\":8781:8792   */\n      add\n        /* \"#utility.yul\":8774:8792   */\n      swap6\n      pop\n        /* \"#utility.yul\":8473:8802   */\n      pop\n      pop\n        /* \"#utility.yul\":8289:8802   */\n    tag_348:\n      pop\n        /* \"#utility.yul\":8105:8808   */\n      pop\n      pop\n        /* \"#utility.yul\":8026:8808   */\n      swap3\n      swap2\n      pop\n      pop\n      jump\t// out\n        /* \"#utility.yul\":8814:9180   */\n    tag_356:\n        /* \"#utility.yul\":8956:8959   */\n      0x00\n        /* \"#utility.yul\":8977:9044   */\n      tag_358\n        /* \"#utility.yul\":9041:9043   */\n      0x22\n        /* \"#utility.yul\":9036:9039   */\n      dup4\n        /* \"#utility.yul\":8977:9044   */\n      tag_341\n      jump\t// in\n    tag_358:\n        /* \"#utility.yul\":8970:9044   */\n      swap2\n      pop\n        /* \"#utility.yul\":9053:9146   */\n      tag_359\n        /* \"#utility.yul\":9142:9145   */\n      dup3\n        /* \"#utility.yul\":9053:9146   */\n      tag_360\n      jump\t// in\n    tag_359:\n        /* \"#utility.yul\":9171:9173   */\n      0x40\n        /* \"#utility.yul\":9166:9169   */\n      dup3\n        /* \"#utility.yul\":9162:9174   */\n      add\n        /* \"#utility.yul\":9155:9174   */\n      swap1\n      pop\n        /* \"#utility.yul\":8814:9180   */\n      swap2\n      swap1\n      pop\n      jump\t// out\n        /* \"#utility.yul\":9186:9552   */\n    tag_361:\n        /* \"#utility.yul\":9328:9331   */\n      0x00\n        /* \"#utility.yul\":9349:9416   */\n      tag_363\n        /* \"#utility.yul\":9413:9415   */\n      0x1d\n        /* \"#utility.yul\":9408:9411   */\n      dup4\n        /* \"#utility.yul\":9349:9416   */\n      tag_341\n      jump\t// in\n    tag_363:\n        /* \"#utility.yul\":9342:9416   */\n      swap2\n      pop\n        /* \"#utility.yul\":9425:9518   */\n      tag_364\n        /* \"#utility.yul\":9514:9517   */\n      dup3\n        /* \"#utility.yul\":9425:9518   */\n      tag_365\n      jump\t// in\n    tag_364:\n        /* \"#utility.yul\":9543:9545   */\n      0x20\n        /* \"#utility.yul\":9538:9541   */\n      dup3\n        /* \"#utility.yul\":9534:9546   */\n      add\n        /* \"#utility.yul\":9527:9546   */\n      swap1\n      pop\n        /* \"#utility.yul\":9186:9552   */\n      swap2\n      swap1\n      pop\n      jump\t// out\n        /* \"#utility.yul\":9558:9924   */\n    tag_366:\n        /* \"#utility.yul\":9700:9703   */\n      0x00\n        /* \"#utility.yul\":9721:9788   */\n      tag_368\n        /* \"#utility.yul\":9785:9787   */\n      0x15\n        /* \"#utility.yul\":9780:9783   */\n      dup4\n        /* \"#utility.yul\":9721:9788   */\n      tag_341\n      jump\t// in\n    tag_368:\n        /* \"#utility.yul\":9714:9788   */\n      swap2\n      pop\n        /* \"#utility.yul\":9797:9890   */\n      tag_369\n        /* \"#utility.yul\":9886:9889   */\n      dup3\n        /* \"#utility.yul\":9797:9890   */\n      tag_370\n      jump\t// in\n    tag_369:\n        /* \"#utility.yul\":9915:9917   */\n      0x20\n        /* \"#utility.yul\":9910:9913   */\n      dup3\n        /* \"#utility.yul\":9906:9918   */\n      add\n        /* \"#utility.yul\":9899:9918   */\n      swap1\n      pop\n        /* \"#utility.yul\":9558:9924   */\n      swap2\n      swap1\n      pop\n      jump\t// out\n        /* \"#utility.yul\":9930:10296   */\n    tag_371:\n        /* \"#utility.yul\":10072:10075   */\n      0x00\n        /* \"#utility.yul\":10093:10160   */\n      tag_373\n        /* \"#utility.yul\":10157:10159   */\n      0x2c\n        /* \"#utility.yul\":10152:10155   */\n      dup4\n        /* \"#utility.yul\":10093:10160   */\n      tag_341\n      jump\t// in\n    tag_373:\n        /* \"#utility.yul\":10086:10160   */\n      swap2\n      pop\n        /* \"#utility.yul\":10169:10262   */\n      tag_374\n        /* \"#utility.yul\":10258:10261   */\n      dup3\n        /* \"#utility.yul\":10169:10262   */\n      tag_375\n      jump\t// in\n    tag_374:\n        /* \"#utility.yul\":10287:10289   */\n      0x40\n        /* \"#utility.yul\":10282:10285   */\n      dup3\n        /* \"#utility.yul\":10278:10290   */\n      add\n        /* \"#utility.yul\":10271:10290   */\n      swap1\n      pop\n        /* \"#utility.yul\":9930:10296   */\n      swap2\n      swap1\n      pop\n      jump\t// out\n        /* \"#utility.yul\":10354:11649   */\n    tag_284:\n        /* \"#utility.yul\":10455:10458   */\n      0x00\n        /* \"#utility.yul\":10491:10495   */\n      0xc0\n        /* \"#utility.yul\":10486:10489   */\n      dup4\n        /* \"#utility.yul\":10482:10496   */\n      add\n        /* \"#utility.yul\":10580:10584   */\n      0x00\n        /* \"#utility.yul\":10573:10578   */\n      dup4\n        /* \"#utility.yul\":10569:10585   */\n      add\n        /* \"#utility.yul\":10563:10586   */\n      mload\n        /* \"#utility.yul\":10599:10662   */\n      tag_377\n        /* \"#utility.yul\":10656:10660   */\n      0x00\n        /* \"#utility.yul\":10651:10654   */\n      dup7\n        /* \"#utility.yul\":10647:10661   */\n      add\n        /* \"#utility.yul\":10633:10645   */\n      dup3\n        /* \"#utility.yul\":10599:10662   */\n      tag_378\n      jump\t// in\n    tag_377:\n        /* \"#utility.yul\":10506:10672   */\n      pop\n        /* \"#utility.yul\":10759:10763   */\n      0x20\n        /* \"#utility.yul\":10752:10757   */\n      dup4\n        /* \"#utility.yul\":10748:10764   */\n      add\n        /* \"#utility.yul\":10742:10765   */\n      mload\n        /* \"#utility.yul\":10812:10815   */\n      dup5\n        /* \"#utility.yul\":10806:10810   */\n      dup3\n        /* \"#utility.yul\":10802:10816   */\n      sub\n        /* \"#utility.yul\":10795:10799   */\n      0x20\n        /* \"#utility.yul\":10790:10793   */\n      dup7\n        /* \"#utility.yul\":10786:10800   */\n      add\n        /* \"#utility.yul\":10779:10817   */\n      mstore\n        /* \"#utility.yul\":10838:10911   */\n      tag_379\n        /* \"#utility.yul\":10906:10910   */\n      dup3\n        /* \"#utility.yul\":10892:10904   */\n      dup3\n        /* \"#utility.yul\":10838:10911   */\n      tag_327\n      jump\t// in\n    tag_379:\n        /* \"#utility.yul\":10830:10911   */\n      swap2\n      pop\n        /* \"#utility.yul\":10682:10922   */\n      pop\n        /* \"#utility.yul\":11004:11008   */\n      0x40\n        /* \"#utility.yul\":10997:11002   */\n      dup4\n        /* \"#utility.yul\":10993:11009   */\n      add\n        /* \"#utility.yul\":10987:11010   */\n      mload\n        /* \"#utility.yul\":11023:11086   */\n      tag_380\n        /* \"#utility.yul\":11080:11084   */\n      0x40\n        /* \"#utility.yul\":11075:11078   */\n      dup7\n        /* \"#utility.yul\":11071:11085   */\n      add\n        /* \"#utility.yul\":11057:11069   */\n      dup3\n        /* \"#utility.yul\":11023:11086   */\n      tag_378\n      jump\t// in\n    tag_380:\n        /* \"#utility.yul\":10932:11096   */\n      pop\n        /* \"#utility.yul\":11180:11184   */\n      0x60\n        /* \"#utility.yul\":11173:11178   */\n      dup4\n        /* \"#utility.yul\":11169:11185   */\n      add\n        /* \"#utility.yul\":11163:11186   */\n      mload\n        /* \"#utility.yul\":11199:11262   */\n      tag_381\n        /* \"#utility.yul\":11256:11260   */\n      0x60\n        /* \"#utility.yul\":11251:11254   */\n      dup7\n        /* \"#utility.yul\":11247:11261   */\n      add\n        /* \"#utility.yul\":11233:11245   */\n      dup3\n        /* \"#utility.yul\":11199:11262   */\n      tag_289\n      jump\t// in\n    tag_381:\n        /* \"#utility.yul\":11106:11272   */\n      pop\n        /* \"#utility.yul\":11355:11359   */\n      0x80\n        /* \"#utility.yul\":11348:11353   */\n      dup4\n        /* \"#utility.yul\":11344:11360   */\n      add\n        /* \"#utility.yul\":11338:11361   */\n      mload\n        /* \"#utility.yul\":11374:11437   */\n      tag_382\n        /* \"#utility.yul\":11431:11435   */\n      0x80\n        /* \"#utility.yul\":11426:11429   */\n      dup7\n        /* \"#utility.yul\":11422:11436   */\n      add\n        /* \"#utility.yul\":11408:11420   */\n      dup3\n        /* \"#utility.yul\":11374:11437   */\n      tag_378\n      jump\t// in\n    tag_382:\n        /* \"#utility.yul\":11282:11447   */\n      pop\n        /* \"#utility.yul\":11532:11536   */\n      0xa0\n        /* \"#utility.yul\":11525:11530   */\n      dup4\n        /* \"#utility.yul\":11521:11537   */\n      add\n        /* \"#utility.yul\":11515:11538   */\n      mload\n        /* \"#utility.yul\":11551:11612   */\n      tag_383\n        /* \"#utility.yul\":11606:11610   */\n      0xa0\n        /* \"#utility.yul\":11601:11604   */\n      dup7\n        /* \"#utility.yul\":11597:11611   */\n      add\n        /* \"#utility.yul\":11583:11595   */\n      dup3\n        /* \"#utility.yul\":11551:11612   */\n      tag_384\n      jump\t// in\n    tag_383:\n        /* \"#utility.yul\":11457:11622   */\n      pop\n        /* \"#utility.yul\":11639:11643   */\n      dup1\n        /* \"#utility.yul\":11632:11643   */\n      swap2\n      pop\n        /* \"#utility.yul\":10460:11649   */\n      pop\n        /* \"#utility.yul\":10354:11649   */\n      swap3\n      swap2\n      pop\n      pop\n      jump\t// out\n        /* \"#utility.yul\":11707:13012   */\n    tag_385:\n        /* \"#utility.yul\":11818:11821   */\n      0x00\n        /* \"#utility.yul\":11854:11858   */\n      0xc0\n        /* \"#utility.yul\":11849:11852   */\n      dup4\n        /* \"#utility.yul\":11845:11859   */\n      add\n        /* \"#utility.yul\":11943:11947   */\n      0x00\n        /* \"#utility.yul\":11936:11941   */\n      dup4\n        /* \"#utility.yul\":11932:11948   */\n      add\n        /* \"#utility.yul\":11926:11949   */\n      mload\n        /* \"#utility.yul\":11962:12025   */\n      tag_387\n        /* \"#utility.yul\":12019:12023   */\n      0x00\n        /* \"#utility.yul\":12014:12017   */\n      dup7\n        /* \"#utility.yul\":12010:12024   */\n      add\n        /* \"#utility.yul\":11996:12008   */\n      dup3\n        /* \"#utility.yul\":11962:12025   */\n      tag_378\n      jump\t// in\n    tag_387:\n        /* \"#utility.yul\":11869:12035   */\n      pop\n        /* \"#utility.yul\":12122:12126   */\n      0x20\n        /* \"#utility.yul\":12115:12120   */\n      dup4\n        /* \"#utility.yul\":12111:12127   */\n      add\n        /* \"#utility.yul\":12105:12128   */\n      mload\n        /* \"#utility.yul\":12175:12178   */\n      dup5\n        /* \"#utility.yul\":12169:12173   */\n      dup3\n        /* \"#utility.yul\":12165:12179   */\n      sub\n        /* \"#utility.yul\":12158:12162   */\n      0x20\n        /* \"#utility.yul\":12153:12156   */\n      dup7\n        /* \"#utility.yul\":12149:12163   */\n      add\n        /* \"#utility.yul\":12142:12180   */\n      mstore\n        /* \"#utility.yul\":12201:12274   */\n      tag_388\n        /* \"#utility.yul\":12269:12273   */\n      dup3\n        /* \"#utility.yul\":12255:12267   */\n      dup3\n        /* \"#utility.yul\":12201:12274   */\n      tag_327\n      jump\t// in\n    tag_388:\n        /* \"#utility.yul\":12193:12274   */\n      swap2\n      pop\n        /* \"#utility.yul\":12045:12285   */\n      pop\n        /* \"#utility.yul\":12367:12371   */\n      0x40\n        /* \"#utility.yul\":12360:12365   */\n      dup4\n        /* \"#utility.yul\":12356:12372   */\n      add\n        /* \"#utility.yul\":12350:12373   */\n      mload\n        /* \"#utility.yul\":12386:12449   */\n      tag_389\n        /* \"#utility.yul\":12443:12447   */\n      0x40\n        /* \"#utility.yul\":12438:12441   */\n      dup7\n        /* \"#utility.yul\":12434:12448   */\n      add\n        /* \"#utility.yul\":12420:12432   */\n      dup3\n        /* \"#utility.yul\":12386:12449   */\n      tag_378\n      jump\t// in\n    tag_389:\n        /* \"#utility.yul\":12295:12459   */\n      pop\n        /* \"#utility.yul\":12543:12547   */\n      0x60\n        /* \"#utility.yul\":12536:12541   */\n      dup4\n        /* \"#utility.yul\":12532:12548   */\n      add\n        /* \"#utility.yul\":12526:12549   */\n      mload\n        /* \"#utility.yul\":12562:12625   */\n      tag_390\n        /* \"#utility.yul\":12619:12623   */\n      0x60\n        /* \"#utility.yul\":12614:12617   */\n      dup7\n        /* \"#utility.yul\":12610:12624   */\n      add\n        /* \"#utility.yul\":12596:12608   */\n      dup3\n        /* \"#utility.yul\":12562:12625   */\n      tag_289\n      jump\t// in\n    tag_390:\n        /* \"#utility.yul\":12469:12635   */\n      pop\n        /* \"#utility.yul\":12718:12722   */\n      0x80\n        /* \"#utility.yul\":12711:12716   */\n      dup4\n        /* \"#utility.yul\":12707:12723   */\n      add\n        /* \"#utility.yul\":12701:12724   */\n      mload\n        /* \"#utility.yul\":12737:12800   */\n      tag_391\n        /* \"#utility.yul\":12794:12798   */\n      0x80\n        /* \"#utility.yul\":12789:12792   */\n      dup7\n        /* \"#utility.yul\":12785:12799   */\n      add\n        /* \"#utility.yul\":12771:12783   */\n      dup3\n        /* \"#utility.yul\":12737:12800   */\n      tag_378\n      jump\t// in\n    tag_391:\n        /* \"#utility.yul\":12645:12810   */\n      pop\n        /* \"#utility.yul\":12895:12899   */\n      0xa0\n        /* \"#utility.yul\":12888:12893   */\n      dup4\n        /* \"#utility.yul\":12884:12900   */\n      add\n        /* \"#utility.yul\":12878:12901   */\n      mload\n        /* \"#utility.yul\":12914:12975   */\n      tag_392\n        /* \"#utility.yul\":12969:12973   */\n      0xa0\n        /* \"#utility.yul\":12964:12967   */\n      dup7\n        /* \"#utility.yul\":12960:12974   */\n      add\n        /* \"#utility.yul\":12946:12958   */\n      dup3\n        /* \"#utility.yul\":12914:12975   */\n      tag_384\n      jump\t// in\n    tag_392:\n        /* \"#utility.yul\":12820:12985   */\n      pop\n        /* \"#utility.yul\":13002:13006   */\n      dup1\n        /* \"#utility.yul\":12995:13006   */\n      swap2\n      pop\n        /* \"#utility.yul\":11823:13012   */\n      pop\n        /* \"#utility.yul\":11707:13012   */\n      swap3\n      swap2\n      pop\n      pop\n      jump\t// out\n        /* \"#utility.yul\":13070:14778   */\n    tag_288:\n        /* \"#utility.yul\":13168:13171   */\n      0x00\n        /* \"#utility.yul\":13204:13208   */\n      0xc0\n        /* \"#utility.yul\":13199:13202   */\n      dup4\n        /* \"#utility.yul\":13195:13209   */\n      add\n        /* \"#utility.yul\":13235:13236   */\n      0x00\n        /* \"#utility.yul\":13312:13316   */\n      dup1\n        /* \"#utility.yul\":13305:13310   */\n      dup5\n        /* \"#utility.yul\":13301:13317   */\n      add\n        /* \"#utility.yul\":13295:13318   */\n      sload\n        /* \"#utility.yul\":13282:13318   */\n      swap1\n      pop\n        /* \"#utility.yul\":13351:13406   */\n      tag_394\n        /* \"#utility.yul\":13396:13405   */\n      dup2\n        /* \"#utility.yul\":13351:13406   */\n      tag_395\n      jump\t// in\n    tag_394:\n        /* \"#utility.yul\":13419:13482   */\n      tag_396\n        /* \"#utility.yul\":13476:13480   */\n      0x00\n        /* \"#utility.yul\":13471:13474   */\n      dup8\n        /* \"#utility.yul\":13467:13481   */\n      add\n        /* \"#utility.yul\":13453:13465   */\n      dup3\n        /* \"#utility.yul\":13419:13482   */\n      tag_378\n      jump\t// in\n    tag_396:\n        /* \"#utility.yul\":13246:13492   */\n      pop\n        /* \"#utility.yul\":13573:13577   */\n      0x01\n        /* \"#utility.yul\":13566:13571   */\n      dup5\n        /* \"#utility.yul\":13562:13578   */\n      add\n        /* \"#utility.yul\":13625:13628   */\n      dup6\n        /* \"#utility.yul\":13619:13623   */\n      dup4\n        /* \"#utility.yul\":13615:13629   */\n      sub\n        /* \"#utility.yul\":13608:13612   */\n      0x20\n        /* \"#utility.yul\":13603:13606   */\n      dup8\n        /* \"#utility.yul\":13599:13613   */\n      add\n        /* \"#utility.yul\":13592:13630   */\n      mstore\n        /* \"#utility.yul\":13651:13721   */\n      tag_397\n        /* \"#utility.yul\":13716:13720   */\n      dup4\n        /* \"#utility.yul\":13702:13714   */\n      dup3\n        /* \"#utility.yul\":13651:13721   */\n      tag_344\n      jump\t// in\n    tag_397:\n        /* \"#utility.yul\":13643:13721   */\n      swap3\n      pop\n        /* \"#utility.yul\":13502:13732   */\n      pop\n        /* \"#utility.yul\":13806:13810   */\n      0x02\n        /* \"#utility.yul\":13799:13804   */\n      dup5\n        /* \"#utility.yul\":13795:13811   */\n      add\n        /* \"#utility.yul\":13789:13812   */\n      sload\n        /* \"#utility.yul\":13776:13812   */\n      swap1\n      pop\n        /* \"#utility.yul\":13845:13900   */\n      tag_398\n        /* \"#utility.yul\":13890:13899   */\n      dup2\n        /* \"#utility.yul\":13845:13900   */\n      tag_395\n      jump\t// in\n    tag_398:\n        /* \"#utility.yul\":13913:13976   */\n      tag_399\n        /* \"#utility.yul\":13970:13974   */\n      0x40\n        /* \"#utility.yul\":13965:13968   */\n      dup8\n        /* \"#utility.yul\":13961:13975   */\n      add\n        /* \"#utility.yul\":13947:13959   */\n      dup3\n        /* \"#utility.yul\":13913:13976   */\n      tag_378\n      jump\t// in\n    tag_399:\n        /* \"#utility.yul\":13742:13986   */\n      pop\n        /* \"#utility.yul\":14062:14066   */\n      0x03\n        /* \"#utility.yul\":14055:14060   */\n      dup5\n        /* \"#utility.yul\":14051:14067   */\n      add\n        /* \"#utility.yul\":14045:14068   */\n      sload\n        /* \"#utility.yul\":14032:14068   */\n      swap1\n      pop\n        /* \"#utility.yul\":14101:14156   */\n      tag_400\n        /* \"#utility.yul\":14146:14155   */\n      dup2\n        /* \"#utility.yul\":14101:14156   */\n      tag_401\n      jump\t// in\n    tag_400:\n        /* \"#utility.yul\":14169:14232   */\n      tag_402\n        /* \"#utility.yul\":14226:14230   */\n      0x60\n        /* \"#utility.yul\":14221:14224   */\n      dup8\n        /* \"#utility.yul\":14217:14231   */\n      add\n        /* \"#utility.yul\":14203:14215   */\n      dup3\n        /* \"#utility.yul\":14169:14232   */\n      tag_289\n      jump\t// in\n    tag_402:\n        /* \"#utility.yul\":13996:14242   */\n      pop\n        /* \"#utility.yul\":14317:14321   */\n      0x04\n        /* \"#utility.yul\":14310:14315   */\n      dup5\n        /* \"#utility.yul\":14306:14322   */\n      add\n        /* \"#utility.yul\":14300:14323   */\n      sload\n        /* \"#utility.yul\":14287:14323   */\n      swap1\n      pop\n        /* \"#utility.yul\":14356:14411   */\n      tag_403\n        /* \"#utility.yul\":14401:14410   */\n      dup2\n        /* \"#utility.yul\":14356:14411   */\n      tag_395\n      jump\t// in\n    tag_403:\n        /* \"#utility.yul\":14424:14487   */\n      tag_404\n        /* \"#utility.yul\":14481:14485   */\n      0x80\n        /* \"#utility.yul\":14476:14479   */\n      dup8\n        /* \"#utility.yul\":14472:14486   */\n      add\n        /* \"#utility.yul\":14458:14470   */\n      dup3\n        /* \"#utility.yul\":14424:14487   */\n      tag_378\n      jump\t// in\n    tag_404:\n        /* \"#utility.yul\":14252:14497   */\n      pop\n        /* \"#utility.yul\":14574:14578   */\n      0x05\n        /* \"#utility.yul\":14567:14572   */\n      dup5\n        /* \"#utility.yul\":14563:14579   */\n      add\n        /* \"#utility.yul\":14557:14580   */\n      sload\n        /* \"#utility.yul\":14544:14580   */\n      swap1\n      pop\n        /* \"#utility.yul\":14613:14667   */\n      tag_405\n        /* \"#utility.yul\":14657:14666   */\n      dup2\n        /* \"#utility.yul\":14613:14667   */\n      tag_406\n      jump\t// in\n    tag_405:\n        /* \"#utility.yul\":14680:14741   */\n      tag_407\n        /* \"#utility.yul\":14735:14739   */\n      0xa0\n        /* \"#utility.yul\":14730:14733   */\n      dup8\n        /* \"#utility.yul\":14726:14740   */\n      add\n        /* \"#utility.yul\":14712:14724   */\n      dup3\n        /* \"#utility.yul\":14680:14741   */\n      tag_384\n      jump\t// in\n    tag_407:\n        /* \"#utility.yul\":14507:14751   */\n      pop\n        /* \"#utility.yul\":14768:14772   */\n      dup2\n        /* \"#utility.yul\":14761:14772   */\n      swap3\n      pop\n        /* \"#utility.yul\":13173:14778   */\n      pop\n      pop\n        /* \"#utility.yul\":13070:14778   */\n      swap3\n      swap2\n      pop\n      pop\n      jump\t// out\n        /* \"#utility.yul\":14836:16554   */\n    tag_408:\n        /* \"#utility.yul\":14944:14947   */\n      0x00\n        /* \"#utility.yul\":14980:14984   */\n      0xc0\n        /* \"#utility.yul\":14975:14978   */\n      dup4\n        /* \"#utility.yul\":14971:14985   */\n      add\n        /* \"#utility.yul\":15011:15012   */\n      0x00\n        /* \"#utility.yul\":15088:15092   */\n      dup1\n        /* \"#utility.yul\":15081:15086   */\n      dup5\n        /* \"#utility.yul\":15077:15093   */\n      add\n        /* \"#utility.yul\":15071:15094   */\n      sload\n        /* \"#utility.yul\":15058:15094   */\n      swap1\n      pop\n        /* \"#utility.yul\":15127:15182   */\n      tag_410\n        /* \"#utility.yul\":15172:15181   */\n      dup2\n        /* \"#utility.yul\":15127:15182   */\n      tag_395\n      jump\t// in\n    tag_410:\n        /* \"#utility.yul\":15195:15258   */\n      tag_411\n        /* \"#utility.yul\":15252:15256   */\n      0x00\n        /* \"#utility.yul\":15247:15250   */\n      dup8\n        /* \"#utility.yul\":15243:15257   */\n      add\n        /* \"#utility.yul\":15229:15241   */\n      dup3\n        /* \"#utility.yul\":15195:15258   */\n      tag_378\n      jump\t// in\n    tag_411:\n        /* \"#utility.yul\":15022:15268   */\n      pop\n        /* \"#utility.yul\":15349:15353   */\n      0x01\n        /* \"#utility.yul\":15342:15347   */\n      dup5\n        /* \"#utility.yul\":15338:15354   */\n      add\n        /* \"#utility.yul\":15401:15404   */\n      dup6\n        /* \"#utility.yul\":15395:15399   */\n      dup4\n        /* \"#utility.yul\":15391:15405   */\n      sub\n        /* \"#utility.yul\":15384:15388   */\n      0x20\n        /* \"#utility.yul\":15379:15382   */\n      dup8\n        /* \"#utility.yul\":15375:15389   */\n      add\n        /* \"#utility.yul\":15368:15406   */\n      mstore\n        /* \"#utility.yul\":15427:15497   */\n      tag_412\n        /* \"#utility.yul\":15492:15496   */\n      dup4\n        /* \"#utility.yul\":15478:15490   */\n      dup3\n        /* \"#utility.yul\":15427:15497   */\n      tag_344\n      jump\t// in\n    tag_412:\n        /* \"#utility.yul\":15419:15497   */\n      swap3\n      pop\n        /* \"#utility.yul\":15278:15508   */\n      pop\n        /* \"#utility.yul\":15582:15586   */\n      0x02\n        /* \"#utility.yul\":15575:15580   */\n      dup5\n        /* \"#utility.yul\":15571:15587   */\n      add\n        /* \"#utility.yul\":15565:15588   */\n      sload\n        /* \"#utility.yul\":15552:15588   */\n      swap1\n      pop\n        /* \"#utility.yul\":15621:15676   */\n      tag_413\n        /* \"#utility.yul\":15666:15675   */\n      dup2\n        /* \"#utility.yul\":15621:15676   */\n      tag_395\n      jump\t// in\n    tag_413:\n        /* \"#utility.yul\":15689:15752   */\n      tag_414\n        /* \"#utility.yul\":15746:15750   */\n      0x40\n        /* \"#utility.yul\":15741:15744   */\n      dup8\n        /* \"#utility.yul\":15737:15751   */\n      add\n        /* \"#utility.yul\":15723:15735   */\n      dup3\n        /* \"#utility.yul\":15689:15752   */\n      tag_378\n      jump\t// in\n    tag_414:\n        /* \"#utility.yul\":15518:15762   */\n      pop\n        /* \"#utility.yul\":15838:15842   */\n      0x03\n        /* \"#utility.yul\":15831:15836   */\n      dup5\n        /* \"#utility.yul\":15827:15843   */\n      add\n        /* \"#utility.yul\":15821:15844   */\n      sload\n        /* \"#utility.yul\":15808:15844   */\n      swap1\n      pop\n        /* \"#utility.yul\":15877:15932   */\n      tag_415\n        /* \"#utility.yul\":15922:15931   */\n      dup2\n        /* \"#utility.yul\":15877:15932   */\n      tag_401\n      jump\t// in\n    tag_415:\n        /* \"#utility.yul\":15945:16008   */\n      tag_416\n        /* \"#utility.yul\":16002:16006   */\n      0x60\n        /* \"#utility.yul\":15997:16000   */\n      dup8\n        /* \"#utility.yul\":15993:16007   */\n      add\n        /* \"#utility.yul\":15979:15991   */\n      dup3\n        /* \"#utility.yul\":15945:16008   */\n      tag_289\n      jump\t// in\n    tag_416:\n        /* \"#utility.yul\":15772:16018   */\n      pop\n        /* \"#utility.yul\":16093:16097   */\n      0x04\n        /* \"#utility.yul\":16086:16091   */\n      dup5\n        /* \"#utility.yul\":16082:16098   */\n      add\n        /* \"#utility.yul\":16076:16099   */\n      sload\n        /* \"#utility.yul\":16063:16099   */\n      swap1\n      pop\n        /* \"#utility.yul\":16132:16187   */\n      tag_417\n        /* \"#utility.yul\":16177:16186   */\n      dup2\n        /* \"#utility.yul\":16132:16187   */\n      tag_395\n      jump\t// in\n    tag_417:\n        /* \"#utility.yul\":16200:16263   */\n      tag_418\n        /* \"#utility.yul\":16257:16261   */\n      0x80\n        /* \"#utility.yul\":16252:16255   */\n      dup8\n        /* \"#utility.yul\":16248:16262   */\n      add\n        /* \"#utility.yul\":16234:16246   */\n      dup3\n        /* \"#utility.yul\":16200:16263   */\n      tag_378\n      jump\t// in\n    tag_418:\n        /* \"#utility.yul\":16028:16273   */\n      pop\n        /* \"#utility.yul\":16350:16354   */\n      0x05\n        /* \"#utility.yul\":16343:16348   */\n      dup5\n        /* \"#utility.yul\":16339:16355   */\n      add\n        /* \"#utility.yul\":16333:16356   */\n      sload\n        /* \"#utility.yul\":16320:16356   */\n      swap1\n      pop\n        /* \"#utility.yul\":16389:16443   */\n      tag_419\n        /* \"#utility.yul\":16433:16442   */\n      dup2\n        /* \"#utility.yul\":16389:16443   */\n      tag_406\n      jump\t// in\n    tag_419:\n        /* \"#utility.yul\":16456:16517   */\n      tag_420\n        /* \"#utility.yul\":16511:16515   */\n      0xa0\n        /* \"#utility.yul\":16506:16509   */\n      dup8\n        /* \"#utility.yul\":16502:16516   */\n      add\n        /* \"#utility.yul\":16488:16500   */\n      dup3\n        /* \"#utility.yul\":16456:16517   */\n      tag_384\n      jump\t// in\n    tag_420:\n        /* \"#utility.yul\":16283:16527   */\n      pop\n        /* \"#utility.yul\":16544:16548   */\n      dup2\n        /* \"#utility.yul\":16537:16548   */\n      swap3\n      pop\n        /* \"#utility.yul\":14949:16554   */\n      pop\n      pop\n        /* \"#utility.yul\":14836:16554   */\n      swap3\n      swap2\n      pop\n      pop\n      jump\t// out\n        /* \"#utility.yul\":16560:16668   */\n    tag_378:\n        /* \"#utility.yul\":16637:16661   */\n      tag_422\n        /* \"#utility.yul\":16655:16660   */\n      dup2\n        /* \"#utility.yul\":16637:16661   */\n      tag_423\n      jump\t// in\n    tag_422:\n        /* \"#utility.yul\":16632:16635   */\n      dup3\n        /* \"#utility.yul\":16625:16662   */\n      mstore\n        /* \"#utility.yul\":16560:16668   */\n      pop\n      pop\n      jump\t// out\n        /* \"#utility.yul\":16674:16792   */\n    tag_424:\n        /* \"#utility.yul\":16761:16785   */\n      tag_426\n        /* \"#utility.yul\":16779:16784   */\n      dup2\n        /* \"#utility.yul\":16761:16785   */\n      tag_423\n      jump\t// in\n    tag_426:\n        /* \"#utility.yul\":16756:16759   */\n      dup3\n        /* \"#utility.yul\":16749:16786   */\n      mstore\n        /* \"#utility.yul\":16674:16792   */\n      pop\n      pop\n      jump\t// out\n        /* \"#utility.yul\":16798:16903   */\n    tag_384:\n        /* \"#utility.yul\":16873:16896   */\n      tag_428\n        /* \"#utility.yul\":16890:16895   */\n      dup2\n        /* \"#utility.yul\":16873:16896   */\n      tag_429\n      jump\t// in\n    tag_428:\n        /* \"#utility.yul\":16868:16871   */\n      dup3\n        /* \"#utility.yul\":16861:16897   */\n      mstore\n        /* \"#utility.yul\":16798:16903   */\n      pop\n      pop\n      jump\t// out\n        /* \"#utility.yul\":16909:17024   */\n    tag_430:\n        /* \"#utility.yul\":16994:17017   */\n      tag_432\n        /* \"#utility.yul\":17011:17016   */\n      dup2\n        /* \"#utility.yul\":16994:17017   */\n      tag_429\n      jump\t// in\n    tag_432:\n        /* \"#utility.yul\":16989:16992   */\n      dup3\n        /* \"#utility.yul\":16982:17018   */\n      mstore\n        /* \"#utility.yul\":16909:17024   */\n      pop\n      pop\n      jump\t// out\n        /* \"#utility.yul\":17030:17472   */\n    tag_99:\n        /* \"#utility.yul\":17179:17183   */\n      0x00\n        /* \"#utility.yul\":17217:17219   */\n      0x60\n        /* \"#utility.yul\":17206:17215   */\n      dup3\n        /* \"#utility.yul\":17202:17220   */\n      add\n        /* \"#utility.yul\":17194:17220   */\n      swap1\n      pop\n        /* \"#utility.yul\":17230:17301   */\n      tag_434\n        /* \"#utility.yul\":17298:17299   */\n      0x00\n        /* \"#utility.yul\":17287:17296   */\n      dup4\n        /* \"#utility.yul\":17283:17300   */\n      add\n        /* \"#utility.yul\":17274:17280   */\n      dup7\n        /* \"#utility.yul\":17230:17301   */\n      tag_293\n      jump\t// in\n    tag_434:\n        /* \"#utility.yul\":17311:17383   */\n      tag_435\n        /* \"#utility.yul\":17379:17381   */\n      0x20\n        /* \"#utility.yul\":17368:17377   */\n      dup4\n        /* \"#utility.yul\":17364:17382   */\n      add\n        /* \"#utility.yul\":17355:17361   */\n      dup6\n        /* \"#utility.yul\":17311:17383   */\n      tag_293\n      jump\t// in\n    tag_435:\n        /* \"#utility.yul\":17393:17465   */\n      tag_436\n        /* \"#utility.yul\":17461:17463   */\n      0x40\n        /* \"#utility.yul\":17450:17459   */\n      dup4\n        /* \"#utility.yul\":17446:17464   */\n      add\n        /* \"#utility.yul\":17437:17443   */\n      dup5\n        /* \"#utility.yul\":17393:17465   */\n      tag_424\n      jump\t// in\n    tag_436:\n        /* \"#utility.yul\":17030:17472   */\n      swap5\n      swap4\n      pop\n      pop\n      pop\n      pop\n      jump\t// out\n        /* \"#utility.yul\":17478:17935   */\n    tag_35:\n        /* \"#utility.yul\":17663:17667   */\n      0x00\n        /* \"#utility.yul\":17701:17703   */\n      0x20\n        /* \"#utility.yul\":17690:17699   */\n      dup3\n        /* \"#utility.yul\":17686:17704   */\n      add\n        /* \"#utility.yul\":17678:17704   */\n      swap1\n      pop\n        /* \"#utility.yul\":17750:17759   */\n      dup2\n        /* \"#utility.yul\":17744:17748   */\n      dup2\n        /* \"#utility.yul\":17740:17760   */\n      sub\n        /* \"#utility.yul\":17736:17737   */\n      0x00\n        /* \"#utility.yul\":17725:17734   */\n      dup4\n        /* \"#utility.yul\":17721:17738   */\n      add\n        /* \"#utility.yul\":17714:17761   */\n      mstore\n        /* \"#utility.yul\":17778:17928   */\n      tag_438\n        /* \"#utility.yul\":17923:17927   */\n      dup2\n        /* \"#utility.yul\":17914:17920   */\n      dup5\n        /* \"#utility.yul\":17778:17928   */\n      tag_296\n      jump\t// in\n    tag_438:\n        /* \"#utility.yul\":17770:17928   */\n      swap1\n      pop\n        /* \"#utility.yul\":17478:17935   */\n      swap3\n      swap2\n      pop\n      pop\n      jump\t// out\n        /* \"#utility.yul\":17941:18386   */\n    tag_141:\n        /* \"#utility.yul\":18120:18124   */\n      0x00\n        /* \"#utility.yul\":18158:18160   */\n      0x20\n        /* \"#utility.yul\":18147:18156   */\n      dup3\n        /* \"#utility.yul\":18143:18161   */\n      add\n        /* \"#utility.yul\":18135:18161   */\n      swap1\n      pop\n        /* \"#utility.yul\":18207:18216   */\n      dup2\n        /* \"#utility.yul\":18201:18205   */\n      dup2\n        /* \"#utility.yul\":18197:18217   */\n      sub\n        /* \"#utility.yul\":18193:18194   */\n      0x00\n        /* \"#utility.yul\":18182:18191   */\n      dup4\n        /* \"#utility.yul\":18178:18195   */\n      add\n        /* \"#utility.yul\":18171:18218   */\n      mstore\n        /* \"#utility.yul\":18235:18379   */\n      tag_440\n        /* \"#utility.yul\":18374:18378   */\n      dup2\n        /* \"#utility.yul\":18365:18371   */\n      dup5\n        /* \"#utility.yul\":18235:18379   */\n      tag_310\n      jump\t// in\n    tag_440:\n        /* \"#utility.yul\":18227:18379   */\n      swap1\n      pop\n        /* \"#utility.yul\":17941:18386   */\n      swap3\n      swap2\n      pop\n      pop\n      jump\t// out\n        /* \"#utility.yul\":18392:18642   */\n    tag_63:\n        /* \"#utility.yul\":18499:18503   */\n      0x00\n        /* \"#utility.yul\":18537:18539   */\n      0x20\n        /* \"#utility.yul\":18526:18535   */\n      dup3\n        /* \"#utility.yul\":18522:18540   */\n      add\n        /* \"#utility.yul\":18514:18540   */\n      swap1\n      pop\n        /* \"#utility.yul\":18550:18635   */\n      tag_442\n        /* \"#utility.yul\":18632:18633   */\n      0x00\n        /* \"#utility.yul\":18621:18630   */\n      dup4\n        /* \"#utility.yul\":18617:18634   */\n      add\n        /* \"#utility.yul\":18608:18614   */\n      dup5\n        /* \"#utility.yul\":18550:18635   */\n      tag_323\n      jump\t// in\n    tag_442:\n        /* \"#utility.yul\":18392:18642   */\n      swap3\n      swap2\n      pop\n      pop\n      jump\t// out\n        /* \"#utility.yul\":18648:19067   */\n    tag_138:\n        /* \"#utility.yul\":18814:18818   */\n      0x00\n        /* \"#utility.yul\":18852:18854   */\n      0x20\n        /* \"#utility.yul\":18841:18850   */\n      dup3\n        /* \"#utility.yul\":18837:18855   */\n      add\n        /* \"#utility.yul\":18829:18855   */\n      swap1\n      pop\n        /* \"#utility.yul\":18901:18910   */\n      dup2\n        /* \"#utility.yul\":18895:18899   */\n      dup2\n        /* \"#utility.yul\":18891:18911   */\n      sub\n        /* \"#utility.yul\":18887:18888   */\n      0x00\n        /* \"#utility.yul\":18876:18885   */\n      dup4\n        /* \"#utility.yul\":18872:18889   */\n      add\n        /* \"#utility.yul\":18865:18912   */\n      mstore\n        /* \"#utility.yul\":18929:19060   */\n      tag_444\n        /* \"#utility.yul\":19055:19059   */\n      dup2\n        /* \"#utility.yul\":18929:19060   */\n      tag_356\n      jump\t// in\n    tag_444:\n        /* \"#utility.yul\":18921:19060   */\n      swap1\n      pop\n        /* \"#utility.yul\":18648:19067   */\n      swap2\n      swap1\n      pop\n      jump\t// out\n        /* \"#utility.yul\":19073:19492   */\n    tag_183:\n        /* \"#utility.yul\":19239:19243   */\n      0x00\n        /* \"#utility.yul\":19277:19279   */\n      0x20\n        /* \"#utility.yul\":19266:19275   */\n      dup3\n        /* \"#utility.yul\":19262:19280   */\n      add\n        /* \"#utility.yul\":19254:19280   */\n      swap1\n      pop\n        /* \"#utility.yul\":19326:19335   */\n      dup2\n        /* \"#utility.yul\":19320:19324   */\n      dup2\n        /* \"#utility.yul\":19316:19336   */\n      sub\n        /* \"#utility.yul\":19312:19313   */\n      0x00\n        /* \"#utility.yul\":19301:19310   */\n      dup4\n        /* \"#utility.yul\":19297:19314   */\n      add\n        /* \"#utility.yul\":19290:19337   */\n      mstore\n        /* \"#utility.yul\":19354:19485   */\n      tag_446\n        /* \"#utility.yul\":19480:19484   */\n      dup2\n        /* \"#utility.yul\":19354:19485   */\n      tag_361\n      jump\t// in\n    tag_446:\n        /* \"#utility.yul\":19346:19485   */\n      swap1\n      pop\n        /* \"#utility.yul\":19073:19492   */\n      swap2\n      swap1\n      pop\n      jump\t// out\n        /* \"#utility.yul\":19498:19917   */\n    tag_85:\n        /* \"#utility.yul\":19664:19668   */\n      0x00\n        /* \"#utility.yul\":19702:19704   */\n      0x20\n        /* \"#utility.yul\":19691:19700   */\n      dup3\n        /* \"#utility.yul\":19687:19705   */\n      add\n        /* \"#utility.yul\":19679:19705   */\n      swap1\n      pop\n        /* \"#utility.yul\":19751:19760   */\n      dup2\n        /* \"#utility.yul\":19745:19749   */\n      dup2\n        /* \"#utility.yul\":19741:19761   */\n      sub\n        /* \"#utility.yul\":19737:19738   */\n      0x00\n        /* \"#utility.yul\":19726:19735   */\n      dup4\n        /* \"#utility.yul\":19722:19739   */\n      add\n        /* \"#utility.yul\":19715:19762   */\n      mstore\n        /* \"#utility.yul\":19779:19910   */\n      tag_448\n        /* \"#utility.yul\":19905:19909   */\n      dup2\n        /* \"#utility.yul\":19779:19910   */\n      tag_366\n      jump\t// in\n    tag_448:\n        /* \"#utility.yul\":19771:19910   */\n      swap1\n      pop\n        /* \"#utility.yul\":19498:19917   */\n      swap2\n      swap1\n      pop\n      jump\t// out\n        /* \"#utility.yul\":19923:20342   */\n    tag_94:\n        /* \"#utility.yul\":20089:20093   */\n      0x00\n        /* \"#utility.yul\":20127:20129   */\n      0x20\n        /* \"#utility.yul\":20116:20125   */\n      dup3\n        /* \"#utility.yul\":20112:20130   */\n      add\n        /* \"#utility.yul\":20104:20130   */\n      swap1\n      pop\n        /* \"#utility.yul\":20176:20185   */\n      dup2\n        /* \"#utility.yul\":20170:20174   */\n      dup2\n        /* \"#utility.yul\":20166:20186   */\n      sub\n        /* \"#utility.yul\":20162:20163   */\n      0x00\n        /* \"#utility.yul\":20151:20160   */\n      dup4\n        /* \"#utility.yul\":20147:20164   */\n      add\n        /* \"#utility.yul\":20140:20187   */\n      mstore\n        /* \"#utility.yul\":20204:20335   */\n      tag_450\n        /* \"#utility.yul\":20330:20334   */\n      dup2\n        /* \"#utility.yul\":20204:20335   */\n      tag_371\n      jump\t// in\n    tag_450:\n        /* \"#utility.yul\":20196:20335   */\n      swap1\n      pop\n        /* \"#utility.yul\":19923:20342   */\n      swap2\n      swap1\n      pop\n      jump\t// out\n        /* \"#utility.yul\":20348:20705   */\n    tag_53:\n        /* \"#utility.yul\":20483:20487   */\n      0x00\n        /* \"#utility.yul\":20521:20523   */\n      0x20\n        /* \"#utility.yul\":20510:20519   */\n      dup3\n        /* \"#utility.yul\":20506:20524   */\n      add\n        /* \"#utility.yul\":20498:20524   */\n      swap1\n      pop\n        /* \"#utility.yul\":20570:20579   */\n      dup2\n        /* \"#utility.yul\":20564:20568   */\n      dup2\n        /* \"#utility.yul\":20560:20580   */\n      sub\n        /* \"#utility.yul\":20556:20557   */\n      0x00\n        /* \"#utility.yul\":20545:20554   */\n      dup4\n        /* \"#utility.yul\":20541:20558   */\n      add\n        /* \"#utility.yul\":20534:20581   */\n      mstore\n        /* \"#utility.yul\":20598:20698   */\n      tag_452\n        /* \"#utility.yul\":20693:20697   */\n      dup2\n        /* \"#utility.yul\":20684:20690   */\n      dup5\n        /* \"#utility.yul\":20598:20698   */\n      tag_385\n      jump\t// in\n    tag_452:\n        /* \"#utility.yul\":20590:20698   */\n      swap1\n      pop\n        /* \"#utility.yul\":20348:20705   */\n      swap3\n      swap2\n      pop\n      pop\n      jump\t// out\n        /* \"#utility.yul\":20711:20933   */\n    tag_59:\n        /* \"#utility.yul\":20804:20808   */\n      0x00\n        /* \"#utility.yul\":20842:20844   */\n      0x20\n        /* \"#utility.yul\":20831:20840   */\n      dup3\n        /* \"#utility.yul\":20827:20845   */\n      add\n        /* \"#utility.yul\":20819:20845   */\n      swap1\n      pop\n        /* \"#utility.yul\":20855:20926   */\n      tag_454\n        /* \"#utility.yul\":20923:20924   */\n      0x00\n        /* \"#utility.yul\":20912:20921   */\n      dup4\n        /* \"#utility.yul\":20908:20925   */\n      add\n        /* \"#utility.yul\":20899:20905   */\n      dup5\n        /* \"#utility.yul\":20855:20926   */\n      tag_424\n      jump\t// in\n    tag_454:\n        /* \"#utility.yul\":20711:20933   */\n      swap3\n      swap2\n      pop\n      pop\n      jump\t// out\n        /* \"#utility.yul\":20939:21674   */\n    tag_41:\n        /* \"#utility.yul\":21156:21160   */\n      0x00\n        /* \"#utility.yul\":21194:21197   */\n      0x80\n        /* \"#utility.yul\":21183:21192   */\n      dup3\n        /* \"#utility.yul\":21179:21198   */\n      add\n        /* \"#utility.yul\":21171:21198   */\n      swap1\n      pop\n        /* \"#utility.yul\":21208:21279   */\n      tag_456\n        /* \"#utility.yul\":21276:21277   */\n      0x00\n        /* \"#utility.yul\":21265:21274   */\n      dup4\n        /* \"#utility.yul\":21261:21278   */\n      add\n        /* \"#utility.yul\":21252:21258   */\n      dup8\n        /* \"#utility.yul\":21208:21279   */\n      tag_424\n      jump\t// in\n    tag_456:\n        /* \"#utility.yul\":21326:21335   */\n      dup2\n        /* \"#utility.yul\":21320:21324   */\n      dup2\n        /* \"#utility.yul\":21316:21336   */\n      sub\n        /* \"#utility.yul\":21311:21313   */\n      0x20\n        /* \"#utility.yul\":21300:21309   */\n      dup4\n        /* \"#utility.yul\":21296:21314   */\n      add\n        /* \"#utility.yul\":21289:21337   */\n      mstore\n        /* \"#utility.yul\":21354:21432   */\n      tag_457\n        /* \"#utility.yul\":21427:21431   */\n      dup2\n        /* \"#utility.yul\":21418:21424   */\n      dup7\n        /* \"#utility.yul\":21354:21432   */\n      tag_337\n      jump\t// in\n    tag_457:\n        /* \"#utility.yul\":21346:21432   */\n      swap1\n      pop\n        /* \"#utility.yul\":21479:21488   */\n      dup2\n        /* \"#utility.yul\":21473:21477   */\n      dup2\n        /* \"#utility.yul\":21469:21489   */\n      sub\n        /* \"#utility.yul\":21464:21466   */\n      0x40\n        /* \"#utility.yul\":21453:21462   */\n      dup4\n        /* \"#utility.yul\":21449:21467   */\n      add\n        /* \"#utility.yul\":21442:21490   */\n      mstore\n        /* \"#utility.yul\":21507:21585   */\n      tag_458\n        /* \"#utility.yul\":21580:21584   */\n      dup2\n        /* \"#utility.yul\":21571:21577   */\n      dup6\n        /* \"#utility.yul\":21507:21585   */\n      tag_337\n      jump\t// in\n    tag_458:\n        /* \"#utility.yul\":21499:21585   */\n      swap1\n      pop\n        /* \"#utility.yul\":21595:21667   */\n      tag_459\n        /* \"#utility.yul\":21663:21665   */\n      0x60\n        /* \"#utility.yul\":21652:21661   */\n      dup4\n        /* \"#utility.yul\":21648:21666   */\n      add\n        /* \"#utility.yul\":21639:21645   */\n      dup5\n        /* \"#utility.yul\":21595:21667   */\n      tag_424\n      jump\t// in\n    tag_459:\n        /* \"#utility.yul\":20939:21674   */\n      swap6\n      swap5\n      pop\n      pop\n      pop\n      pop\n      pop\n      jump\t// out\n        /* \"#utility.yul\":21680:22542   */\n    tag_27:\n        /* \"#utility.yul\":21931:21935   */\n      0x00\n        /* \"#utility.yul\":21969:21972   */\n      0xc0\n        /* \"#utility.yul\":21958:21967   */\n      dup3\n        /* \"#utility.yul\":21954:21973   */\n      add\n        /* \"#utility.yul\":21946:21973   */\n      swap1\n      pop\n        /* \"#utility.yul\":21983:22054   */\n      tag_461\n        /* \"#utility.yul\":22051:22052   */\n      0x00\n        /* \"#utility.yul\":22040:22049   */\n      dup4\n        /* \"#utility.yul\":22036:22053   */\n      add\n        /* \"#utility.yul\":22027:22033   */\n      dup10\n        /* \"#utility.yul\":21983:22054   */\n      tag_424\n      jump\t// in\n    tag_461:\n        /* \"#utility.yul\":22101:22110   */\n      dup2\n        /* \"#utility.yul\":22095:22099   */\n      dup2\n        /* \"#utility.yul\":22091:22111   */\n      sub\n        /* \"#utility.yul\":22086:22088   */\n      0x20\n        /* \"#utility.yul\":22075:22084   */\n      dup4\n        /* \"#utility.yul\":22071:22089   */\n      add\n        /* \"#utility.yul\":22064:22112   */\n      mstore\n        /* \"#utility.yul\":22129:22207   */\n      tag_462\n        /* \"#utility.yul\":22202:22206   */\n      dup2\n        /* \"#utility.yul\":22193:22199   */\n      dup9\n        /* \"#utility.yul\":22129:22207   */\n      tag_337\n      jump\t// in\n    tag_462:\n        /* \"#utility.yul\":22121:22207   */\n      swap1\n      pop\n        /* \"#utility.yul\":22217:22289   */\n      tag_463\n        /* \"#utility.yul\":22285:22287   */\n      0x40\n        /* \"#utility.yul\":22274:22283   */\n      dup4\n        /* \"#utility.yul\":22270:22288   */\n      add\n        /* \"#utility.yul\":22261:22267   */\n      dup8\n        /* \"#utility.yul\":22217:22289   */\n      tag_424\n      jump\t// in\n    tag_463:\n        /* \"#utility.yul\":22299:22371   */\n      tag_464\n        /* \"#utility.yul\":22367:22369   */\n      0x60\n        /* \"#utility.yul\":22356:22365   */\n      dup4\n        /* \"#utility.yul\":22352:22370   */\n      add\n        /* \"#utility.yul\":22343:22349   */\n      dup7\n        /* \"#utility.yul\":22299:22371   */\n      tag_293\n      jump\t// in\n    tag_464:\n        /* \"#utility.yul\":22381:22454   */\n      tag_465\n        /* \"#utility.yul\":22449:22452   */\n      0x80\n        /* \"#utility.yul\":22438:22447   */\n      dup4\n        /* \"#utility.yul\":22434:22453   */\n      add\n        /* \"#utility.yul\":22425:22431   */\n      dup6\n        /* \"#utility.yul\":22381:22454   */\n      tag_424\n      jump\t// in\n    tag_465:\n        /* \"#utility.yul\":22464:22535   */\n      tag_466\n        /* \"#utility.yul\":22530:22533   */\n      0xa0\n        /* \"#utility.yul\":22519:22528   */\n      dup4\n        /* \"#utility.yul\":22515:22534   */\n      add\n        /* \"#utility.yul\":22506:22512   */\n      dup5\n        /* \"#utility.yul\":22464:22535   */\n      tag_430\n      jump\t// in\n    tag_466:\n        /* \"#utility.yul\":21680:22542   */\n      swap8\n      swap7\n      pop\n      pop\n      pop\n      pop\n      pop\n      pop\n      pop\n      jump\t// out\n        /* \"#utility.yul\":22548:23009   */\n    tag_186:\n        /* \"#utility.yul\":22708:22712   */\n      0x00\n        /* \"#utility.yul\":22746:22748   */\n      0x40\n        /* \"#utility.yul\":22735:22744   */\n      dup3\n        /* \"#utility.yul\":22731:22749   */\n      add\n        /* \"#utility.yul\":22723:22749   */\n      swap1\n      pop\n        /* \"#utility.yul\":22759:22830   */\n      tag_468\n        /* \"#utility.yul\":22827:22828   */\n      0x00\n        /* \"#utility.yul\":22816:22825   */\n      dup4\n        /* \"#utility.yul\":22812:22829   */\n      add\n        /* \"#utility.yul\":22803:22809   */\n      dup6\n        /* \"#utility.yul\":22759:22830   */\n      tag_424\n      jump\t// in\n    tag_468:\n        /* \"#utility.yul\":22877:22886   */\n      dup2\n        /* \"#utility.yul\":22871:22875   */\n      dup2\n        /* \"#utility.yul\":22867:22887   */\n      sub\n        /* \"#utility.yul\":22862:22864   */\n      0x20\n        /* \"#utility.yul\":22851:22860   */\n      dup4\n        /* \"#utility.yul\":22847:22865   */\n      add\n        /* \"#utility.yul\":22840:22888   */\n      mstore\n        /* \"#utility.yul\":22905:23002   */\n      tag_469\n        /* \"#utility.yul\":22997:23001   */\n      dup2\n        /* \"#utility.yul\":22988:22994   */\n      dup5\n        /* \"#utility.yul\":22905:23002   */\n      tag_408\n      jump\t// in\n    tag_469:\n        /* \"#utility.yul\":22897:23002   */\n      swap1\n      pop\n        /* \"#utility.yul\":22548:23009   */\n      swap4\n      swap3\n      pop\n      pop\n      pop\n      jump\t// out\n        /* \"#utility.yul\":23015:23347   */\n    tag_76:\n        /* \"#utility.yul\":23136:23140   */\n      0x00\n        /* \"#utility.yul\":23174:23176   */\n      0x40\n        /* \"#utility.yul\":23163:23172   */\n      dup3\n        /* \"#utility.yul\":23159:23177   */\n      add\n        /* \"#utility.yul\":23151:23177   */\n      swap1\n      pop\n        /* \"#utility.yul\":23187:23258   */\n      tag_471\n        /* \"#utility.yul\":23255:23256   */\n      0x00\n        /* \"#utility.yul\":23244:23253   */\n      dup4\n        /* \"#utility.yul\":23240:23257   */\n      add\n        /* \"#utility.yul\":23231:23237   */\n      dup6\n        /* \"#utility.yul\":23187:23258   */\n      tag_424\n      jump\t// in\n    tag_471:\n        /* \"#utility.yul\":23268:23340   */\n      tag_472\n        /* \"#utility.yul\":23336:23338   */\n      0x20\n        /* \"#utility.yul\":23325:23334   */\n      dup4\n        /* \"#utility.yul\":23321:23339   */\n      add\n        /* \"#utility.yul\":23312:23318   */\n      dup5\n        /* \"#utility.yul\":23268:23340   */\n      tag_424\n      jump\t// in\n    tag_472:\n        /* \"#utility.yul\":23015:23347   */\n      swap4\n      swap3\n      pop\n      pop\n      pop\n      jump\t// out\n        /* \"#utility.yul\":23353:24104   */\n    tag_133:\n        /* \"#utility.yul\":23576:23580   */\n      0x00\n        /* \"#utility.yul\":23614:23617   */\n      0xa0\n        /* \"#utility.yul\":23603:23612   */\n      dup3\n        /* \"#utility.yul\":23599:23618   */\n      add\n        /* \"#utility.yul\":23591:23618   */\n      swap1\n      pop\n        /* \"#utility.yul\":23628:23699   */\n      tag_474\n        /* \"#utility.yul\":23696:23697   */\n      0x00\n        /* \"#utility.yul\":23685:23694   */\n      dup4\n        /* \"#utility.yul\":23681:23698   */\n      add\n        /* \"#utility.yul\":23672:23678   */\n      dup9\n        /* \"#utility.yul\":23628:23699   */\n      tag_424\n      jump\t// in\n    tag_474:\n        /* \"#utility.yul\":23709:23781   */\n      tag_475\n        /* \"#utility.yul\":23777:23779   */\n      0x20\n        /* \"#utility.yul\":23766:23775   */\n      dup4\n        /* \"#utility.yul\":23762:23780   */\n      add\n        /* \"#utility.yul\":23753:23759   */\n      dup8\n        /* \"#utility.yul\":23709:23781   */\n      tag_424\n      jump\t// in\n    tag_475:\n        /* \"#utility.yul\":23828:23837   */\n      dup2\n        /* \"#utility.yul\":23822:23826   */\n      dup2\n        /* \"#utility.yul\":23818:23838   */\n      sub\n        /* \"#utility.yul\":23813:23815   */\n      0x40\n        /* \"#utility.yul\":23802:23811   */\n      dup4\n        /* \"#utility.yul\":23798:23816   */\n      add\n        /* \"#utility.yul\":23791:23839   */\n      mstore\n        /* \"#utility.yul\":23856:23934   */\n      tag_476\n        /* \"#utility.yul\":23929:23933   */\n      dup2\n        /* \"#utility.yul\":23920:23926   */\n      dup7\n        /* \"#utility.yul\":23856:23934   */\n      tag_337\n      jump\t// in\n    tag_476:\n        /* \"#utility.yul\":23848:23934   */\n      swap1\n      pop\n        /* \"#utility.yul\":23944:24014   */\n      tag_477\n        /* \"#utility.yul\":24010:24012   */\n      0x60\n        /* \"#utility.yul\":23999:24008   */\n      dup4\n        /* \"#utility.yul\":23995:24013   */\n      add\n        /* \"#utility.yul\":23986:23992   */\n      dup6\n        /* \"#utility.yul\":23944:24014   */\n      tag_430\n      jump\t// in\n    tag_477:\n        /* \"#utility.yul\":24024:24097   */\n      tag_478\n        /* \"#utility.yul\":24092:24095   */\n      0x80\n        /* \"#utility.yul\":24081:24090   */\n      dup4\n        /* \"#utility.yul\":24077:24096   */\n      add\n        /* \"#utility.yul\":24068:24074   */\n      dup5\n        /* \"#utility.yul\":24024:24097   */\n      tag_424\n      jump\t// in\n    tag_478:\n        /* \"#utility.yul\":23353:24104   */\n      swap7\n      swap6\n      pop\n      pop\n      pop\n      pop\n      pop\n      pop\n      jump\t// out\n        /* \"#utility.yul\":24110:24239   */\n    tag_221:\n        /* \"#utility.yul\":24144:24150   */\n      0x00\n        /* \"#utility.yul\":24171:24191   */\n      tag_480\n      tag_481\n      jump\t// in\n    tag_480:\n        /* \"#utility.yul\":24161:24191   */\n      swap1\n      pop\n        /* \"#utility.yul\":24200:24233   */\n      tag_482\n        /* \"#utility.yul\":24228:24232   */\n      dup3\n        /* \"#utility.yul\":24220:24226   */\n      dup3\n        /* \"#utility.yul\":24200:24233   */\n      tag_483\n      jump\t// in\n    tag_482:\n        /* \"#utility.yul\":24110:24239   */\n      swap2\n      swap1\n      pop\n      jump\t// out\n        /* \"#utility.yul\":24245:24320   */\n    tag_481:\n        /* \"#utility.yul\":24278:24284   */\n      0x00\n        /* \"#utility.yul\":24311:24313   */\n      0x40\n        /* \"#utility.yul\":24305:24314   */\n      mload\n        /* \"#utility.yul\":24295:24314   */\n      swap1\n      pop\n        /* \"#utility.yul\":24245:24320   */\n      swap1\n      jump\t// out\n        /* \"#utility.yul\":24326:24634   */\n    tag_220:\n        /* \"#utility.yul\":24388:24392   */\n      0x00\n        /* \"#utility.yul\":24478:24496   */\n      0xffffffffffffffff\n        /* \"#utility.yul\":24470:24476   */\n      dup3\n        /* \"#utility.yul\":24467:24497   */\n      gt\n        /* \"#utility.yul\":24464:24520   */\n      iszero\n      tag_486\n      jumpi\n        /* \"#utility.yul\":24500:24518   */\n      tag_487\n      tag_488\n      jump\t// in\n    tag_487:\n        /* \"#utility.yul\":24464:24520   */\n    tag_486:\n        /* \"#utility.yul\":24538:24567   */\n      tag_489\n        /* \"#utility.yul\":24560:24566   */\n      dup3\n        /* \"#utility.yul\":24538:24567   */\n      tag_336\n      jump\t// in\n    tag_489:\n        /* \"#utility.yul\":24530:24567   */\n      swap1\n      pop\n        /* \"#utility.yul\":24622:24626   */\n      0x20\n        /* \"#utility.yul\":24616:24620   */\n      dup2\n        /* \"#utility.yul\":24612:24627   */\n      add\n        /* \"#utility.yul\":24604:24627   */\n      swap1\n      pop\n        /* \"#utility.yul\":24326:24634   */\n      swap2\n      swap1\n      pop\n      jump\t// out\n        /* \"#utility.yul\":24640:24793   */\n    tag_303:\n        /* \"#utility.yul\":24728:24732   */\n      0x00\n        /* \"#utility.yul\":24751:24754   */\n      dup2\n        /* \"#utility.yul\":24743:24754   */\n      swap1\n      pop\n        /* \"#utility.yul\":24781:24785   */\n      0x20\n        /* \"#utility.yul\":24776:24779   */\n      dup3\n        /* \"#utility.yul\":24772:24786   */\n      add\n        /* \"#utility.yul\":24764:24786   */\n      swap1\n      pop\n        /* \"#utility.yul\":24640:24793   */\n      swap2\n      swap1\n      pop\n      jump\t// out\n        /* \"#utility.yul\":24799:24973   */\n    tag_316:\n        /* \"#utility.yul\":24881:24885   */\n      0x00\n        /* \"#utility.yul\":24904:24907   */\n      dup2\n        /* \"#utility.yul\":24896:24907   */\n      swap1\n      pop\n        /* \"#utility.yul\":24927:24930   */\n      dup2\n        /* \"#utility.yul\":24924:24925   */\n      0x00\n        /* \"#utility.yul\":24917:24931   */\n      mstore\n        /* \"#utility.yul\":24961:24965   */\n      0x20\n        /* \"#utility.yul\":24958:24959   */\n      0x00\n        /* \"#utility.yul\":24948:24966   */\n      keccak256\n        /* \"#utility.yul\":24940:24966   */\n      swap1\n      pop\n        /* \"#utility.yul\":24799:24973   */\n      swap2\n      swap1\n      pop\n      jump\t// out\n        /* \"#utility.yul\":24979:25120   */\n    tag_352:\n        /* \"#utility.yul\":25028:25032   */\n      0x00\n        /* \"#utility.yul\":25051:25054   */\n      dup2\n        /* \"#utility.yul\":25043:25054   */\n      swap1\n      pop\n        /* \"#utility.yul\":25074:25077   */\n      dup2\n        /* \"#utility.yul\":25071:25072   */\n      0x00\n        /* \"#utility.yul\":25064:25078   */\n      mstore\n        /* \"#utility.yul\":25108:25112   */\n      0x20\n        /* \"#utility.yul\":25105:25106   */\n      0x00\n        /* \"#utility.yul\":25095:25113   */\n      keccak256\n        /* \"#utility.yul\":25087:25113   */\n      swap1\n      pop\n        /* \"#utility.yul\":24979:25120   */\n      swap2\n      swap1\n      pop\n      jump\t// out\n        /* \"#utility.yul\":25126:25261   */\n    tag_299:\n        /* \"#utility.yul\":25214:25220   */\n      0x00\n        /* \"#utility.yul\":25248:25253   */\n      dup2\n        /* \"#utility.yul\":25242:25254   */\n      mload\n        /* \"#utility.yul\":25232:25254   */\n      swap1\n      pop\n        /* \"#utility.yul\":25126:25261   */\n      swap2\n      swap1\n      pop\n      jump\t// out\n        /* \"#utility.yul\":25267:25396   */\n    tag_313:\n        /* \"#utility.yul\":25349:25355   */\n      0x00\n        /* \"#utility.yul\":25383:25388   */\n      dup2\n        /* \"#utility.yul\":25377:25389   */\n      sload\n        /* \"#utility.yul\":25367:25389   */\n      swap1\n      pop\n        /* \"#utility.yul\":25267:25396   */\n      swap2\n      swap1\n      pop\n      jump\t// out\n        /* \"#utility.yul\":25402:25501   */\n    tag_330:\n        /* \"#utility.yul\":25454:25460   */\n      0x00\n        /* \"#utility.yul\":25488:25493   */\n      dup2\n        /* \"#utility.yul\":25482:25494   */\n      mload\n        /* \"#utility.yul\":25472:25494   */\n      swap1\n      pop\n        /* \"#utility.yul\":25402:25501   */\n      swap2\n      swap1\n      pop\n      jump\t// out\n        /* \"#utility.yul\":25507:25641   */\n    tag_309:\n        /* \"#utility.yul\":25598:25602   */\n      0x00\n        /* \"#utility.yul\":25630:25634   */\n      0x20\n        /* \"#utility.yul\":25625:25628   */\n      dup3\n        /* \"#utility.yul\":25621:25635   */\n      add\n        /* \"#utility.yul\":25613:25635   */\n      swap1\n      pop\n        /* \"#utility.yul\":25507:25641   */\n      swap2\n      swap1\n      pop\n      jump\t// out\n        /* \"#utility.yul\":25647:25775   */\n    tag_322:\n        /* \"#utility.yul\":25732:25736   */\n      0x00\n        /* \"#utility.yul\":25764:25768   */\n      0x06\n        /* \"#utility.yul\":25759:25762   */\n      dup3\n        /* \"#utility.yul\":25755:25769   */\n      add\n        /* \"#utility.yul\":25747:25769   */\n      swap1\n      pop\n        /* \"#utility.yul\":25647:25775   */\n      swap2\n      swap1\n      pop\n      jump\t// out\n        /* \"#utility.yul\":25781:25986   */\n    tag_301:\n        /* \"#utility.yul\":25901:25912   */\n      0x00\n        /* \"#utility.yul\":25935:25941   */\n      dup3\n        /* \"#utility.yul\":25930:25933   */\n      dup3\n        /* \"#utility.yul\":25923:25942   */\n      mstore\n        /* \"#utility.yul\":25975:25979   */\n      0x20\n        /* \"#utility.yul\":25970:25973   */\n      dup3\n        /* \"#utility.yul\":25966:25980   */\n      add\n        /* \"#utility.yul\":25951:25980   */\n      swap1\n      pop\n        /* \"#utility.yul\":25781:25986   */\n      swap3\n      swap2\n      pop\n      pop\n      jump\t// out\n        /* \"#utility.yul\":25992:26151   */\n    tag_332:\n        /* \"#utility.yul\":26066:26077   */\n      0x00\n        /* \"#utility.yul\":26100:26106   */\n      dup3\n        /* \"#utility.yul\":26095:26098   */\n      dup3\n        /* \"#utility.yul\":26088:26107   */\n      mstore\n        /* \"#utility.yul\":26140:26144   */\n      0x20\n        /* \"#utility.yul\":26135:26138   */\n      dup3\n        /* \"#utility.yul\":26131:26145   */\n      add\n        /* \"#utility.yul\":26116:26145   */\n      swap1\n      pop\n        /* \"#utility.yul\":25992:26151   */\n      swap3\n      swap2\n      pop\n      pop\n      jump\t// out\n        /* \"#utility.yul\":26157:26326   */\n    tag_341:\n        /* \"#utility.yul\":26241:26252   */\n      0x00\n        /* \"#utility.yul\":26275:26281   */\n      dup3\n        /* \"#utility.yul\":26270:26273   */\n      dup3\n        /* \"#utility.yul\":26263:26282   */\n      mstore\n        /* \"#utility.yul\":26315:26319   */\n      0x20\n        /* \"#utility.yul\":26310:26313   */\n      dup3\n        /* \"#utility.yul\":26306:26320   */\n      add\n        /* \"#utility.yul\":26291:26320   */\n      swap1\n      pop\n        /* \"#utility.yul\":26157:26326   */\n      swap3\n      swap2\n      pop\n      pop\n      jump\t// out\n        /* \"#utility.yul\":26332:26637   */\n    tag_97:\n        /* \"#utility.yul\":26372:26375   */\n      0x00\n        /* \"#utility.yul\":26391:26411   */\n      tag_502\n        /* \"#utility.yul\":26409:26410   */\n      dup3\n        /* \"#utility.yul\":26391:26411   */\n      tag_423\n      jump\t// in\n    tag_502:\n        /* \"#utility.yul\":26386:26411   */\n      swap2\n      pop\n        /* \"#utility.yul\":26425:26445   */\n      tag_503\n        /* \"#utility.yul\":26443:26444   */\n      dup4\n        /* \"#utility.yul\":26425:26445   */\n      tag_423\n      jump\t// in\n    tag_503:\n        /* \"#utility.yul\":26420:26445   */\n      swap3\n      pop\n        /* \"#utility.yul\":26579:26580   */\n      dup3\n        /* \"#utility.yul\":26511:26577   */\n      0xffffffffffffffffffffffffffffffffffffffffffffffffffffffffffffffff\n        /* \"#utility.yul\":26507:26581   */\n      sub\n        /* \"#utility.yul\":26504:26505   */\n      dup3\n        /* \"#utility.yul\":26501:26582   */\n      gt\n        /* \"#utility.yul\":26498:26605   */\n      iszero\n      tag_504\n      jumpi\n        /* \"#utility.yul\":26585:26603   */\n      tag_505\n      tag_506\n      jump\t// in\n    tag_505:\n        /* \"#utility.yul\":26498:26605   */\n    tag_504:\n        /* \"#utility.yul\":26629:26630   */\n      dup3\n        /* \"#utility.yul\":26626:26627   */\n      dup3\n        /* \"#utility.yul\":26622:26631   */\n      add\n        /* \"#utility.yul\":26615:26631   */\n      swap1\n      pop\n        /* \"#utility.yul\":26332:26637   */\n      swap3\n      swap2\n      pop\n      pop\n      jump\t// out\n        /* \"#utility.yul\":26643:26782   */\n    tag_507:\n        /* \"#utility.yul\":26693:26700   */\n      0x00\n        /* \"#utility.yul\":26733:26775   */\n      0xffffffffffffffffffffffffffffffffffffffff\n        /* \"#utility.yul\":26726:26731   */\n      dup3\n        /* \"#utility.yul\":26722:26776   */\n      and\n        /* \"#utility.yul\":26711:26776   */\n      swap1\n      pop\n        /* \"#utility.yul\":26643:26782   */\n      swap2\n      swap1\n      pop\n      jump\t// out\n        /* \"#utility.yul\":26788:26878   */\n    tag_509:\n        /* \"#utility.yul\":26838:26845   */\n      0x00\n        /* \"#utility.yul\":26867:26872   */\n      dup2\n        /* \"#utility.yul\":26856:26872   */\n      swap1\n      pop\n        /* \"#utility.yul\":26788:26878   */\n      swap2\n      swap1\n      pop\n      jump\t// out\n        /* \"#utility.yul\":26884:26990   */\n    tag_511:\n        /* \"#utility.yul\":26933:26940   */\n      0x00\n        /* \"#utility.yul\":26973:26983   */\n      0xffffffff\n        /* \"#utility.yul\":26966:26971   */\n      dup3\n        /* \"#utility.yul\":26962:26984   */\n      and\n        /* \"#utility.yul\":26951:26984   */\n      swap1\n      pop\n        /* \"#utility.yul\":26884:26990   */\n      swap2\n      swap1\n      pop\n      jump\t// out\n        /* \"#utility.yul\":26996:27092   */\n    tag_292:\n        /* \"#utility.yul\":27033:27040   */\n      0x00\n        /* \"#utility.yul\":27062:27086   */\n      tag_514\n        /* \"#utility.yul\":27080:27085   */\n      dup3\n        /* \"#utility.yul\":27062:27086   */\n      tag_515\n      jump\t// in\n    tag_514:\n        /* \"#utility.yul\":27051:27086   */\n      swap1\n      pop\n        /* \"#utility.yul\":26996:27092   */\n      swap2\n      swap1\n      pop\n      jump\t// out\n        /* \"#utility.yul\":27098:27188   */\n    tag_516:\n        /* \"#utility.yul\":27132:27139   */\n      0x00\n        /* \"#utility.yul\":27175:27180   */\n      dup2\n        /* \"#utility.yul\":27168:27181   */\n      iszero\n        /* \"#utility.yul\":27161:27182   */\n      iszero\n        /* \"#utility.yul\":27150:27182   */\n      swap1\n      pop\n        /* \"#utility.yul\":27098:27188   */\n      swap2\n      swap1\n      pop\n      jump\t// out\n        /* \"#utility.yul\":27194:27320   */\n    tag_515:\n        /* \"#utility.yul\":27231:27238   */\n      0x00\n        /* \"#utility.yul\":27271:27313   */\n      0xffffffffffffffffffffffffffffffffffffffff\n        /* \"#utility.yul\":27264:27269   */\n      dup3\n        /* \"#utility.yul\":27260:27314   */\n      and\n        /* \"#utility.yul\":27249:27314   */\n      swap1\n      pop\n        /* \"#utility.yul\":27194:27320   */\n      swap2\n      swap1\n      pop\n      jump\t// out\n        /* \"#utility.yul\":27326:27403   */\n    tag_423:\n        /* \"#utility.yul\":27363:27370   */\n      0x00\n        /* \"#utility.yul\":27392:27397   */\n      dup2\n        /* \"#utility.yul\":27381:27397   */\n      swap1\n      pop\n        /* \"#utility.yul\":27326:27403   */\n      swap2\n      swap1\n      pop\n      jump\t// out\n        /* \"#utility.yul\":27409:27502   */\n    tag_429:\n        /* \"#utility.yul\":27445:27452   */\n      0x00\n        /* \"#utility.yul\":27485:27495   */\n      0xffffffff\n        /* \"#utility.yul\":27478:27483   */\n      dup3\n        /* \"#utility.yul\":27474:27496   */\n      and\n        /* \"#utility.yul\":27463:27496   */\n      swap1\n      pop\n        /* \"#utility.yul\":27409:27502   */\n      swap2\n      swap1\n      pop\n      jump\t// out\n        /* \"#utility.yul\":27508:27648   */\n    tag_326:\n        /* \"#utility.yul\":27572:27581   */\n      0x00\n        /* \"#utility.yul\":27605:27642   */\n      tag_522\n        /* \"#utility.yul\":27636:27641   */\n      dup3\n        /* \"#utility.yul\":27605:27642   */\n      tag_523\n      jump\t// in\n    tag_522:\n        /* \"#utility.yul\":27592:27642   */\n      swap1\n      pop\n        /* \"#utility.yul\":27508:27648   */\n      swap2\n      swap1\n      pop\n      jump\t// out\n        /* \"#utility.yul\":27654:27780   */\n    tag_523:\n        /* \"#utility.yul\":27704:27713   */\n      0x00\n        /* \"#utility.yul\":27737:27774   */\n      tag_525\n        /* \"#utility.yul\":27768:27773   */\n      dup3\n        /* \"#utility.yul\":27737:27774   */\n      tag_526\n      jump\t// in\n    tag_525:\n        /* \"#utility.yul\":27724:27774   */\n      swap1\n      pop\n        /* \"#utility.yul\":27654:27780   */\n      swap2\n      swap1\n      pop\n      jump\t// out\n        /* \"#utility.yul\":27786:27899   */\n    tag_526:\n        /* \"#utility.yul\":27836:27845   */\n      0x00\n        /* \"#utility.yul\":27869:27893   */\n      tag_528\n        /* \"#utility.yul\":27887:27892   */\n      dup3\n        /* \"#utility.yul\":27869:27893   */\n      tag_515\n      jump\t// in\n    tag_528:\n        /* \"#utility.yul\":27856:27893   */\n      swap1\n      pop\n        /* \"#utility.yul\":27786:27899   */\n      swap2\n      swap1\n      pop\n      jump\t// out\n        /* \"#utility.yul\":27905:28059   */\n    tag_226:\n        /* \"#utility.yul\":27989:27995   */\n      dup3\n        /* \"#utility.yul\":27984:27987   */\n      dup2\n        /* \"#utility.yul\":27979:27982   */\n      dup4\n        /* \"#utility.yul\":27966:27996   */\n      calldatacopy\n        /* \"#utility.yul\":28051:28052   */\n      0x00\n        /* \"#utility.yul\":28042:28048   */\n      dup4\n        /* \"#utility.yul\":28037:28040   */\n      dup4\n        /* \"#utility.yul\":28033:28049   */\n      add\n        /* \"#utility.yul\":28026:28053   */\n      mstore\n        /* \"#utility.yul\":27905:28059   */\n      pop\n      pop\n      pop\n      jump\t// out\n        /* \"#utility.yul\":28065:28372   */\n    tag_334:\n        /* \"#utility.yul\":28133:28134   */\n      0x00\n        /* \"#utility.yul\":28143:28256   */\n    tag_531:\n        /* \"#utility.yul\":28157:28163   */\n      dup4\n        /* \"#utility.yul\":28154:28155   */\n      dup2\n        /* \"#utility.yul\":28151:28164   */\n      lt\n        /* \"#utility.yul\":28143:28256   */\n      iszero\n      tag_533\n      jumpi\n        /* \"#utility.yul\":28242:28243   */\n      dup1\n        /* \"#utility.yul\":28237:28240   */\n      dup3\n        /* \"#utility.yul\":28233:28244   */\n      add\n        /* \"#utility.yul\":28227:28245   */\n      mload\n        /* \"#utility.yul\":28223:28224   */\n      dup2\n        /* \"#utility.yul\":28218:28221   */\n      dup5\n        /* \"#utility.yul\":28214:28225   */\n      add\n        /* \"#utility.yul\":28207:28246   */\n      mstore\n        /* \"#utility.yul\":28179:28181   */\n      0x20\n        /* \"#utility.yul\":28176:28177   */\n      dup2\n        /* \"#utility.yul\":28172:28182   */\n      add\n        /* \"#utility.yul\":28167:28182   */\n      swap1\n      pop\n        /* \"#utility.yul\":28143:28256   */\n      jump(tag_531)\n    tag_533:\n        /* \"#utility.yul\":28274:28280   */\n      dup4\n        /* \"#utility.yul\":28271:28272   */\n      dup2\n        /* \"#utility.yul\":28268:28281   */\n      gt\n        /* \"#utility.yul\":28265:28366   */\n      iszero\n      tag_534\n      jumpi\n        /* \"#utility.yul\":28354:28355   */\n      0x00\n        /* \"#utility.yul\":28345:28351   */\n      dup5\n        /* \"#utility.yul\":28340:28343   */\n      dup5\n        /* \"#utility.yul\":28336:28352   */\n      add\n        /* \"#utility.yul\":28329:28356   */\n      mstore\n        /* \"#utility.yul\":28265:28366   */\n    tag_534:\n        /* \"#utility.yul\":28114:28372   */\n      pop\n        /* \"#utility.yul\":28065:28372   */\n      pop\n      pop\n      pop\n      jump\t// out\n        /* \"#utility.yul\":28378:28698   */\n    tag_66:\n        /* \"#utility.yul\":28422:28428   */\n      0x00\n        /* \"#utility.yul\":28459:28460   */\n      0x02\n        /* \"#utility.yul\":28453:28457   */\n      dup3\n        /* \"#utility.yul\":28449:28461   */\n      div\n        /* \"#utility.yul\":28439:28461   */\n      swap1\n      pop\n        /* \"#utility.yul\":28506:28507   */\n      0x01\n        /* \"#utility.yul\":28500:28504   */\n      dup3\n        /* \"#utility.yul\":28496:28508   */\n      and\n        /* \"#utility.yul\":28527:28545   */\n      dup1\n        /* \"#utility.yul\":28517:28598   */\n      tag_536\n      jumpi\n        /* \"#utility.yul\":28583:28587   */\n      0x7f\n        /* \"#utility.yul\":28575:28581   */\n      dup3\n        /* \"#utility.yul\":28571:28588   */\n      and\n        /* \"#utility.yul\":28561:28588   */\n      swap2\n      pop\n        /* \"#utility.yul\":28517:28598   */\n    tag_536:\n        /* \"#utility.yul\":28645:28647   */\n      0x20\n        /* \"#utility.yul\":28637:28643   */\n      dup3\n        /* \"#utility.yul\":28634:28648   */\n      lt\n        /* \"#utility.yul\":28614:28632   */\n      dup2\n        /* \"#utility.yul\":28611:28649   */\n      eq\n        /* \"#utility.yul\":28608:28692   */\n      iszero\n      tag_537\n      jumpi\n        /* \"#utility.yul\":28664:28682   */\n      tag_538\n      tag_539\n      jump\t// in\n    tag_538:\n        /* \"#utility.yul\":28608:28692   */\n    tag_537:\n        /* \"#utility.yul\":28429:28698   */\n      pop\n        /* \"#utility.yul\":28378:28698   */\n      swap2\n      swap1\n      pop\n      jump\t// out\n        /* \"#utility.yul\":28704:28870   */\n    tag_401:\n        /* \"#utility.yul\":28773:28778   */\n      0x00\n        /* \"#utility.yul\":28798:28864   */\n      tag_541\n        /* \"#utility.yul\":28829:28863   */\n      tag_542\n        /* \"#utility.yul\":28852:28862   */\n      dup4\n        /* \"#utility.yul\":28829:28863   */\n      tag_543\n      jump\t// in\n    tag_542:\n        /* \"#utility.yul\":28798:28864   */\n      tag_507\n      jump\t// in\n    tag_541:\n        /* \"#utility.yul\":28789:28864   */\n      swap1\n      pop\n        /* \"#utility.yul\":28704:28870   */\n      swap2\n      swap1\n      pop\n      jump\t// out\n        /* \"#utility.yul\":28876:29042   */\n    tag_395:\n        /* \"#utility.yul\":28945:28950   */\n      0x00\n        /* \"#utility.yul\":28970:29036   */\n      tag_545\n        /* \"#utility.yul\":29001:29035   */\n      tag_546\n        /* \"#utility.yul\":29024:29034   */\n      dup4\n        /* \"#utility.yul\":29001:29035   */\n      tag_543\n      jump\t// in\n    tag_546:\n        /* \"#utility.yul\":28970:29036   */\n      tag_509\n      jump\t// in\n    tag_545:\n        /* \"#utility.yul\":28961:29036   */\n      swap1\n      pop\n        /* \"#utility.yul\":28876:29042   */\n      swap2\n      swap1\n      pop\n      jump\t// out\n        /* \"#utility.yul\":29048:29212   */\n    tag_406:\n        /* \"#utility.yul\":29116:29121   */\n      0x00\n        /* \"#utility.yul\":29141:29206   */\n      tag_548\n        /* \"#utility.yul\":29171:29205   */\n      tag_549\n        /* \"#utility.yul\":29194:29204   */\n      dup4\n        /* \"#utility.yul\":29171:29205   */\n      tag_543\n      jump\t// in\n    tag_549:\n        /* \"#utility.yul\":29141:29206   */\n      tag_511\n      jump\t// in\n    tag_548:\n        /* \"#utility.yul\":29132:29206   */\n      swap1\n      pop\n        /* \"#utility.yul\":29048:29212   */\n      swap2\n      swap1\n      pop\n      jump\t// out\n        /* \"#utility.yul\":29218:29499   */\n    tag_483:\n        /* \"#utility.yul\":29301:29328   */\n      tag_551\n        /* \"#utility.yul\":29323:29327   */\n      dup3\n        /* \"#utility.yul\":29301:29328   */\n      tag_336\n      jump\t// in\n    tag_551:\n        /* \"#utility.yul\":29293:29299   */\n      dup2\n        /* \"#utility.yul\":29289:29329   */\n      add\n        /* \"#utility.yul\":29431:29437   */\n      dup2\n        /* \"#utility.yul\":29419:29429   */\n      dup2\n        /* \"#utility.yul\":29416:29438   */\n      lt\n        /* \"#utility.yul\":29395:29413   */\n      0xffffffffffffffff\n        /* \"#utility.yul\":29383:29393   */\n      dup3\n        /* \"#utility.yul\":29380:29414   */\n      gt\n        /* \"#utility.yul\":29377:29439   */\n      or\n        /* \"#utility.yul\":29374:29462   */\n      iszero\n      tag_552\n      jumpi\n        /* \"#utility.yul\":29442:29460   */\n      tag_553\n      tag_488\n      jump\t// in\n    tag_553:\n        /* \"#utility.yul\":29374:29462   */\n    tag_552:\n        /* \"#utility.yul\":29482:29492   */\n      dup1\n        /* \"#utility.yul\":29478:29480   */\n      0x40\n        /* \"#utility.yul\":29471:29493   */\n      mstore\n        /* \"#utility.yul\":29261:29499   */\n      pop\n        /* \"#utility.yul\":29218:29499   */\n      pop\n      pop\n      jump\t// out\n        /* \"#utility.yul\":29505:29738   */\n    tag_74:\n        /* \"#utility.yul\":29544:29547   */\n      0x00\n        /* \"#utility.yul\":29567:29591   */\n      tag_555\n        /* \"#utility.yul\":29585:29590   */\n      dup3\n        /* \"#utility.yul\":29567:29591   */\n      tag_423\n      jump\t// in\n    tag_555:\n        /* \"#utility.yul\":29558:29591   */\n      swap2\n      pop\n        /* \"#utility.yul\":29613:29679   */\n      0xffffffffffffffffffffffffffffffffffffffffffffffffffffffffffffffff\n        /* \"#utility.yul\":29606:29611   */\n      dup3\n        /* \"#utility.yul\":29603:29680   */\n      eq\n        /* \"#utility.yul\":29600:29703   */\n      iszero\n      tag_556\n      jumpi\n        /* \"#utility.yul\":29683:29701   */\n      tag_557\n      tag_506\n      jump\t// in\n    tag_557:\n        /* \"#utility.yul\":29600:29703   */\n    tag_556:\n        /* \"#utility.yul\":29730:29731   */\n      0x01\n        /* \"#utility.yul\":29723:29728   */\n      dup3\n        /* \"#utility.yul\":29719:29732   */\n      add\n        /* \"#utility.yul\":29712:29732   */\n      swap1\n      pop\n        /* \"#utility.yul\":29505:29738   */\n      swap2\n      swap1\n      pop\n      jump\t// out\n        /* \"#utility.yul\":29744:29924   */\n    tag_506:\n        /* \"#utility.yul\":29792:29869   */\n      0x4e487b7100000000000000000000000000000000000000000000000000000000\n        /* \"#utility.yul\":29789:29790   */\n      0x00\n        /* \"#utility.yul\":29782:29870   */\n      mstore\n        /* \"#utility.yul\":29889:29893   */\n      0x11\n        /* \"#utility.yul\":29886:29887   */\n      0x04\n        /* \"#utility.yul\":29879:29894   */\n      mstore\n        /* \"#utility.yul\":29913:29917   */\n      0x24\n        /* \"#utility.yul\":29910:29911   */\n      0x00\n        /* \"#utility.yul\":29903:29918   */\n      revert\n        /* \"#utility.yul\":29930:30110   */\n    tag_539:\n        /* \"#utility.yul\":29978:30055   */\n      0x4e487b7100000000000000000000000000000000000000000000000000000000\n        /* \"#utility.yul\":29975:29976   */\n      0x00\n        /* \"#utility.yul\":29968:30056   */\n      mstore\n        /* \"#utility.yul\":30075:30079   */\n      0x22\n        /* \"#utility.yul\":30072:30073   */\n      0x04\n        /* \"#utility.yul\":30065:30080   */\n      mstore\n        /* \"#utility.yul\":30099:30103   */\n      0x24\n        /* \"#utility.yul\":30096:30097   */\n      0x00\n        /* \"#utility.yul\":30089:30104   */\n      revert\n        /* \"#utility.yul\":30116:30296   */\n    tag_488:\n        /* \"#utility.yul\":30164:30241   */\n      0x4e487b7100000000000000000000000000000000000000000000000000000000\n        /* \"#utility.yul\":30161:30162   */\n      0x00\n        /* \"#utility.yul\":30154:30242   */\n      mstore\n        /* \"#utility.yul\":30261:30265   */\n      0x41\n        /* \"#utility.yul\":30258:30259   */\n      0x04\n        /* \"#utility.yul\":30251:30266   */\n      mstore\n        /* \"#utility.yul\":30285:30289   */\n      0x24\n        /* \"#utility.yul\":30282:30283   */\n      0x00\n        /* \"#utility.yul\":30275:30290   */\n      revert\n        /* \"#utility.yul\":30302:30419   */\n    tag_239:\n        /* \"#utility.yul\":30411:30412   */\n      0x00\n        /* \"#utility.yul\":30408:30409   */\n      dup1\n        /* \"#utility.yul\":30401:30413   */\n      revert\n        /* \"#utility.yul\":30425:30542   */\n    tag_224:\n        /* \"#utility.yul\":30534:30535   */\n      0x00\n        /* \"#utility.yul\":30531:30532   */\n      dup1\n        /* \"#utility.yul\":30524:30536   */\n      revert\n        /* \"#utility.yul\":30548:30665   */\n    tag_273:\n        /* \"#utility.yul\":30657:30658   */\n      0x00\n        /* \"#utility.yul\":30654:30655   */\n      dup1\n        /* \"#utility.yul\":30647:30659   */\n      revert\n        /* \"#utility.yul\":30671:30788   */\n    tag_252:\n        /* \"#utility.yul\":30780:30781   */\n      0x00\n        /* \"#utility.yul\":30777:30778   */\n      dup1\n        /* \"#utility.yul\":30770:30782   */\n      revert\n        /* \"#utility.yul\":30794:30896   */\n    tag_336:\n        /* \"#utility.yul\":30835:30841   */\n      0x00\n        /* \"#utility.yul\":30886:30888   */\n      0x1f\n        /* \"#utility.yul\":30882:30889   */\n      not\n        /* \"#utility.yul\":30877:30879   */\n      0x1f\n        /* \"#utility.yul\":30870:30875   */\n      dup4\n        /* \"#utility.yul\":30866:30880   */\n      add\n        /* \"#utility.yul\":30862:30890   */\n      and\n        /* \"#utility.yul\":30852:30890   */\n      swap1\n      pop\n        /* \"#utility.yul\":30794:30896   */\n      swap2\n      swap1\n      pop\n      jump\t// out\n        /* \"#utility.yul\":30902:31004   */\n    tag_543:\n        /* \"#utility.yul\":30944:30952   */\n      0x00\n        /* \"#utility.yul\":30991:30996   */\n      dup2\n        /* \"#utility.yul\":30988:30989   */\n      0x00\n        /* \"#utility.yul\":30984:30997   */\n      shr\n        /* \"#utility.yul\":30963:30997   */\n      swap1\n      pop\n        /* \"#utility.yul\":30902:31004   */\n      swap2\n      swap1\n      pop\n      jump\t// out\n        /* \"#utility.yul\":31010:31231   */\n    tag_360:\n        /* \"#utility.yul\":31150:31184   */\n      0x546865726520617265206e6f2070726f647563747320746f206c697374207965\n        /* \"#utility.yul\":31146:31147   */\n      0x00\n        /* \"#utility.yul\":31138:31144   */\n      dup3\n        /* \"#utility.yul\":31134:31148   */\n      add\n        /* \"#utility.yul\":31127:31185   */\n      mstore\n        /* \"#utility.yul\":31219:31223   */\n      0x7421000000000000000000000000000000000000000000000000000000000000\n        /* \"#utility.yul\":31214:31216   */\n      0x20\n        /* \"#utility.yul\":31206:31212   */\n      dup3\n        /* \"#utility.yul\":31202:31217   */\n      add\n        /* \"#utility.yul\":31195:31224   */\n      mstore\n        /* \"#utility.yul\":31010:31231   */\n      pop\n      jump\t// out\n        /* \"#utility.yul\":31237:31416   */\n    tag_365:\n        /* \"#utility.yul\":31377:31408   */\n      0x5468657265206973206e6f2073756368206974656d207265636f726421000000\n        /* \"#utility.yul\":31373:31374   */\n      0x00\n        /* \"#utility.yul\":31365:31371   */\n      dup3\n        /* \"#utility.yul\":31361:31375   */\n      add\n        /* \"#utility.yul\":31354:31409   */\n      mstore\n        /* \"#utility.yul\":31237:31416   */\n      pop\n      jump\t// out\n        /* \"#utility.yul\":31422:31593   */\n    tag_370:\n        /* \"#utility.yul\":31562:31585   */\n      0x5468652073616c65206861732065787069726564210000000000000000000000\n        /* \"#utility.yul\":31558:31559   */\n      0x00\n        /* \"#utility.yul\":31550:31556   */\n      dup3\n        /* \"#utility.yul\":31546:31560   */\n      add\n        /* \"#utility.yul\":31539:31586   */\n      mstore\n        /* \"#utility.yul\":31422:31593   */\n      pop\n      jump\t// out\n        /* \"#utility.yul\":31599:31830   */\n    tag_375:\n        /* \"#utility.yul\":31739:31773   */\n      0x5468657265206973206e6f7420656e6f7567682062616c616e636520696e2079\n        /* \"#utility.yul\":31735:31736   */\n      0x00\n        /* \"#utility.yul\":31727:31733   */\n      dup3\n        /* \"#utility.yul\":31723:31737   */\n      add\n        /* \"#utility.yul\":31716:31774   */\n      mstore\n        /* \"#utility.yul\":31808:31822   */\n      0x6f7572206163636f756e74210000000000000000000000000000000000000000\n        /* \"#utility.yul\":31803:31805   */\n      0x20\n        /* \"#utility.yul\":31795:31801   */\n      dup3\n        /* \"#utility.yul\":31791:31806   */\n      add\n        /* \"#utility.yul\":31784:31823   */\n      mstore\n        /* \"#utility.yul\":31599:31830   */\n      pop\n      jump\t// out\n        /* \"#utility.yul\":31836:31958   */\n    tag_230:\n        /* \"#utility.yul\":31909:31933   */\n      tag_572\n        /* \"#utility.yul\":31927:31932   */\n      dup2\n        /* \"#utility.yul\":31909:31933   */\n      tag_292\n      jump\t// in\n    tag_572:\n        /* \"#utility.yul\":31902:31907   */\n      dup2\n        /* \"#utility.yul\":31899:31934   */\n      eq\n        /* \"#utility.yul\":31889:31952   */\n      tag_573\n      jumpi\n        /* \"#utility.yul\":31948:31949   */\n      0x00\n        /* \"#utility.yul\":31945:31946   */\n      dup1\n        /* \"#utility.yul\":31938:31950   */\n      revert\n        /* \"#utility.yul\":31889:31952   */\n    tag_573:\n        /* \"#utility.yul\":31836:31958   */\n      pop\n      jump\t// out\n        /* \"#utility.yul\":31964:32080   */\n    tag_234:\n        /* \"#utility.yul\":32034:32055   */\n      tag_575\n        /* \"#utility.yul\":32049:32054   */\n      dup2\n        /* \"#utility.yul\":32034:32055   */\n      tag_516\n      jump\t// in\n    tag_575:\n        /* \"#utility.yul\":32027:32032   */\n      dup2\n        /* \"#utility.yul\":32024:32056   */\n      eq\n        /* \"#utility.yul\":32014:32074   */\n      tag_576\n      jumpi\n        /* \"#utility.yul\":32070:32071   */\n      0x00\n        /* \"#utility.yul\":32067:32068   */\n      dup1\n        /* \"#utility.yul\":32060:32072   */\n      revert\n        /* \"#utility.yul\":32014:32074   */\n    tag_576:\n        /* \"#utility.yul\":31964:32080   */\n      pop\n      jump\t// out\n        /* \"#utility.yul\":32086:32208   */\n    tag_244:\n        /* \"#utility.yul\":32159:32183   */\n      tag_578\n        /* \"#utility.yul\":32177:32182   */\n      dup2\n        /* \"#utility.yul\":32159:32183   */\n      tag_423\n      jump\t// in\n    tag_578:\n        /* \"#utility.yul\":32152:32157   */\n      dup2\n        /* \"#utility.yul\":32149:32184   */\n      eq\n        /* \"#utility.yul\":32139:32202   */\n      tag_579\n      jumpi\n        /* \"#utility.yul\":32198:32199   */\n      0x00\n        /* \"#utility.yul\":32195:32196   */\n      dup1\n        /* \"#utility.yul\":32188:32200   */\n      revert\n        /* \"#utility.yul\":32139:32202   */\n    tag_579:\n        /* \"#utility.yul\":32086:32208   */\n      pop\n      jump\t// out\n        /* \"#utility.yul\":32214:32334   */\n    tag_248:\n        /* \"#utility.yul\":32286:32309   */\n      tag_581\n        /* \"#utility.yul\":32303:32308   */\n      dup2\n        /* \"#utility.yul\":32286:32309   */\n      tag_429\n      jump\t// in\n    tag_581:\n        /* \"#utility.yul\":32279:32284   */\n      dup2\n        /* \"#utility.yul\":32276:32310   */\n      eq\n        /* \"#utility.yul\":32266:32328   */\n      tag_582\n      jumpi\n        /* \"#utility.yul\":32324:32325   */\n      0x00\n        /* \"#utility.yul\":32321:32322   */\n      dup1\n        /* \"#utility.yul\":32314:32326   */\n      revert\n        /* \"#utility.yul\":32266:32328   */\n    tag_582:\n        /* \"#utility.yul\":32214:32334   */\n      pop\n      jump\t// out\n\n    auxdata: 0xa2646970667358221220b74c0602fbb5655f3414b536f3da3ee12b1cbe4647e0041086a0a2864f34a15264736f6c63430008070033\n}\n",
				"bytecode": {
					"linkReferences": {},
					"object": "60806040523480156200001157600080fd5b5060405162002b1738038062002b17833981810160405281019062000037919062000095565b806000806101000a81548173ffffffffffffffffffffffffffffffffffffffff021916908373ffffffffffffffffffffffffffffffffffffffff160217905550506200011a565b6000815190506200008f8162000100565b92915050565b600060208284031215620000ae57620000ad620000fb565b5b6000620000be848285016200007e565b91505092915050565b6000620000d482620000db565b9050919050565b600073ffffffffffffffffffffffffffffffffffffffff82169050919050565b600080fd5b6200010b81620000c7565b81146200011757600080fd5b50565b6129ed806200012a6000396000f3fe608060405234801561001057600080fd5b50600436106100a95760003560e01c8063a87430ba11610071578063a87430ba14610155578063bfb231d214610188578063ca095a83146101bd578063cd2f0710146101d9578063e2870aa914610209578063fc0c546a14610239576100a9565b806301750e74146100ae5780632f63147f146100ca5780633d4d3600146100e65780634efd17971461011b5780635d9eb55c14610137575b600080fd5b6100c860048036038101906100c39190611aeb565b610257565b005b6100e460048036038101906100df9190611bc7565b61047a565b005b61010060048036038101906100fb9190611aeb565b61099a565b60405161011296959493929190612339565b60405180910390f35b61013560048036038101906101309190611b58565b610a9e565b005b61013f610ed0565b60405161014c91906121ca565b60405180910390f35b61016f600480360381019061016a9190611a91565b6110f6565b60405161017f94939291906122e6565b60405180910390f35b6101a2600480360381019061019d9190611aeb565b611236565b6040516101b496959493929190612339565b60405180910390f35b6101d760048036038101906101d29190611aeb565b61132a565b005b6101f360048036038101906101ee9190611aeb565b611595565b60405161020091906122a9565b60405180910390f35b610223600480360381019061021e9190611b18565b61179e565b60405161023091906122cb565b60405180910390f35b6102416117c3565b60405161024e919061220e565b60405180910390f35b806000600360008381526020019081526020016000206040518060c001604052908160008201548152602001600182018054610292906126b2565b80601f01602080910402602001604051908101604052809291908181526020018280546102be906126b2565b801561030b5780601f106102e05761010080835404028352916020019161030b565b820191906000526020600020905b8154815290600101906020018083116102ee57829003601f168201915b50505050508152602001600282015481526020016003820160009054906101000a900473ffffffffffffffffffffffffffffffffffffffff1673ffffffffffffffffffffffffffffffffffffffff1673ffffffffffffffffffffffffffffffffffffffff168152602001600482015481526020016005820160009054906101000a900463ffffffff1663ffffffff1663ffffffff16815250509050806060015173ffffffffffffffffffffffffffffffffffffffff163373ffffffffffffffffffffffffffffffffffffffff1614156103e357600080fd5b60036000848152602001908152602001600020600201600081548092919061040a90612763565b91905055503373ffffffffffffffffffffffffffffffffffffffff167f1ed364e6f46a455fac23816d3700669ff134c7a5fbe0240f52d932f83410246284600360008781526020019081526020016000206002015460405161046d9291906123d1565b60405180910390a2505050565b816000600360008381526020019081526020016000206040518060c0016040529081600082015481526020016001820180546104b5906126b2565b80601f01602080910402602001604051908101604052809291908181526020018280546104e1906126b2565b801561052e5780601f106105035761010080835404028352916020019161052e565b820191906000526020600020905b81548152906001019060200180831161051157829003601f168201915b50505050508152602001600282015481526020016003820160009054906101000a900473ffffffffffffffffffffffffffffffffffffffff1673ffffffffffffffffffffffffffffffffffffffff1673ffffffffffffffffffffffffffffffffffffffff168152602001600482015481526020016005820160009054906101000a900463ffffffff1663ffffffff1663ffffffff16815250509050428160a0015163ffffffff161015610616576040517f08c379a000000000000000000000000000000000000000000000000000000000815260040161060d90612269565b60405180910390fd5b836000600360008381526020019081526020016000206040518060c001604052908160008201548152602001600182018054610651906126b2565b80601f016020809104026020016040519081016040528092919081815260200182805461067d906126b2565b80156106ca5780601f1061069f576101008083540402835291602001916106ca565b820191906000526020600020905b8154815290600101906020018083116106ad57829003601f168201915b50505050508152602001600282015481526020016003820160009054906101000a900473ffffffffffffffffffffffffffffffffffffffff1673ffffffffffffffffffffffffffffffffffffffff1673ffffffffffffffffffffffffffffffffffffffff168152602001600482015481526020016005820160009054906101000a900463ffffffff1663ffffffff1663ffffffff16815250509050600260003373ffffffffffffffffffffffffffffffffffffffff1673ffffffffffffffffffffffffffffffffffffffff16815260200190815260200160002060050154816080015111156107ee576040517f08c379a00000000000000000000000000000000000000000000000000000000081526004016107e590612289565b60405180910390fd5b600060036000888152602001908152602001600020905060016004600089815260200190815260200160002060003373ffffffffffffffffffffffffffffffffffffffff1673ffffffffffffffffffffffffffffffffffffffff16815260200190815260200160002060008282546108669190612552565b9250508190555060008054906101000a900473ffffffffffffffffffffffffffffffffffffffff1673ffffffffffffffffffffffffffffffffffffffff166323b872dd338360030160009054906101000a900473ffffffffffffffffffffffffffffffffffffffff16896040518463ffffffff1660e01b81526004016108ee93929190612193565b602060405180830381600087803b15801561090857600080fd5b505af115801561091c573d6000803e3d6000fd5b505050506040513d601f19601f820116820180604052508101906109409190611abe565b503373ffffffffffffffffffffffffffffffffffffffff167fdef0dd1961901757e759c1e3e1ced766d61d989aa5030414848dae6bac75cbdd88886040516109899291906123d1565b60405180910390a250505050505050565b600181815481106109aa57600080fd5b90600052602060002090600602016000915090508060000154908060010180546109d3906126b2565b80601f01602080910402602001604051908101604052809291908181526020018280546109ff906126b2565b8015610a4c5780601f10610a2157610100808354040283529160200191610a4c565b820191906000526020600020905b815481529060010190602001808311610a2f57829003601f168201915b5050505050908060020154908060030160009054906101000a900473ffffffffffffffffffffffffffffffffffffffff16908060040154908060050160009054906101000a900463ffffffff16905086565b6040518060c00160405280610ab360056117e7565b8152602001838152602001600081526020013373ffffffffffffffffffffffffffffffffffffffff1681526020018481526020018263ffffffff1681525060036000610aff60056117e7565b8152602001908152602001600020600082015181600001556020820151816001019080519060200190610b3392919061180b565b506040820151816002015560608201518160030160006101000a81548173ffffffffffffffffffffffffffffffffffffffff021916908373ffffffffffffffffffffffffffffffffffffffff1602179055506080820151816004015560a08201518160050160006101000a81548163ffffffff021916908363ffffffff160217905550905050600260003373ffffffffffffffffffffffffffffffffffffffff1673ffffffffffffffffffffffffffffffffffffffff16815260200190815260200160002060040160036000610c0960056117e7565b81526020019081526020016000209080600181540180825580915050600190039060005260206000209060060201600090919091909150600082015481600001556001820181600101908054610c5e906126b2565b610c69929190611891565b50600282015481600201556003820160009054906101000a900473ffffffffffffffffffffffffffffffffffffffff168160030160006101000a81548173ffffffffffffffffffffffffffffffffffffffff021916908373ffffffffffffffffffffffffffffffffffffffff160217905550600482015481600401556005820160009054906101000a900463ffffffff168160050160006101000a81548163ffffffff021916908363ffffffff1602179055505050600160036000610d2e60056117e7565b81526020019081526020016000209080600181540180825580915050600190039060005260206000209060060201600090919091909150600082015481600001556001820181600101908054610d83906126b2565b610d8e929190611891565b50600282015481600201556003820160009054906101000a900473ffffffffffffffffffffffffffffffffffffffff168160030160006101000a81548173ffffffffffffffffffffffffffffffffffffffff021916908373ffffffffffffffffffffffffffffffffffffffff160217905550600482015481600401556005820160009054906101000a900463ffffffff168160050160006101000a81548163ffffffff021916908363ffffffff1602179055505050610e4d60056117f5565b3373ffffffffffffffffffffffffffffffffffffffff167f9a5b8b5cb7f9c536ea5db1a94142c9f716fb3a8698a9c70a5b8bfad3922cb06c610e8f60056117e7565b85858560036000610ea060056117e7565b815260200190815260200160002060020154604051610ec39594939291906123fa565b60405180910390a2505050565b60606000610ede60056117e7565b11610f1e576040517f08c379a0000000000000000000000000000000000000000000000000000000008152600401610f1590612229565b60405180910390fd5b3373ffffffffffffffffffffffffffffffffffffffff167f440c078a5e11bff85c6b6d7c52f378c8220355bd3331ec889638c0eca883670c6001604051610f6591906121ec565b60405180910390a26001805480602002602001604051908101604052809291908181526020016000905b828210156110ed57838290600052602060002090600602016040518060c001604052908160008201548152602001600182018054610fcc906126b2565b80601f0160208091040260200160405190810160405280929190818152602001828054610ff8906126b2565b80156110455780601f1061101a57610100808354040283529160200191611045565b820191906000526020600020905b81548152906001019060200180831161102857829003601f168201915b50505050508152602001600282015481526020016003820160009054906101000a900473ffffffffffffffffffffffffffffffffffffffff1673ffffffffffffffffffffffffffffffffffffffff1673ffffffffffffffffffffffffffffffffffffffff168152602001600482015481526020016005820160009054906101000a900463ffffffff1663ffffffff1663ffffffff168152505081526020019060010190610f8f565b50505050905090565b600260205280600052604060002060009150905080600001549080600101805461111f906126b2565b80601f016020809104026020016040519081016040528092919081815260200182805461114b906126b2565b80156111985780601f1061116d57610100808354040283529160200191611198565b820191906000526020600020905b81548152906001019060200180831161117b57829003601f168201915b5050505050908060020180546111ad906126b2565b80601f01602080910402602001604051908101604052809291908181526020018280546111d9906126b2565b80156112265780601f106111fb57610100808354040283529160200191611226565b820191906000526020600020905b81548152906001019060200180831161120957829003601f168201915b5050505050908060050154905084565b600360205280600052604060002060009150905080600001549080600101805461125f906126b2565b80601f016020809104026020016040519081016040528092919081815260200182805461128b906126b2565b80156112d85780601f106112ad576101008083540402835291602001916112d8565b820191906000526020600020905b8154815290600101906020018083116112bb57829003601f168201915b5050505050908060020154908060030160009054906101000a900473ffffffffffffffffffffffffffffffffffffffff16908060040154908060050160009054906101000a900463ffffffff16905086565b806000600360008381526020019081526020016000206040518060c001604052908160008201548152602001600182018054611365906126b2565b80601f0160208091040260200160405190810160405280929190818152602001828054611391906126b2565b80156113de5780601f106113b3576101008083540402835291602001916113de565b820191906000526020600020905b8154815290600101906020018083116113c157829003601f168201915b50505050508152602001600282015481526020016003820160009054906101000a900473ffffffffffffffffffffffffffffffffffffffff1673ffffffffffffffffffffffffffffffffffffffff1673ffffffffffffffffffffffffffffffffffffffff168152602001600482015481526020016005820160009054906101000a900463ffffffff1663ffffffff1663ffffffff16815250509050428160a0015163ffffffff1610156114c6576040517f08c379a00000000000000000000000000000000000000000000000000000000081526004016114bd90612269565b60405180910390fd5b600360008481526020019081526020016000206000808201600090556001820160006114f2919061191e565b60028201600090556003820160006101000a81549073ffffffffffffffffffffffffffffffffffffffff021916905560048201600090556005820160006101000a81549063ffffffff021916905550503373ffffffffffffffffffffffffffffffffffffffff167f45e4102cd0468b42f71c0179aa78051418c31c018e07a5091eb13b97fadbab5e8460405161158891906122cb565b60405180910390a2505050565b61159d61195e565b816115a860056117e7565b8111156115ea576040517f08c379a00000000000000000000000000000000000000000000000000000000081526004016115e190612249565b60405180910390fd5b3373ffffffffffffffffffffffffffffffffffffffff167fcb718ffb18411374498c1cd31cb4d4c8068af3c5b1546205f14c72bcd20f21ba84600360008781526020019081526020016000206040516116449291906123a1565b60405180910390a2600360008481526020019081526020016000206040518060c001604052908160008201548152602001600182018054611684906126b2565b80601f01602080910402602001604051908101604052809291908181526020018280546116b0906126b2565b80156116fd5780601f106116d2576101008083540402835291602001916116fd565b820191906000526020600020905b8154815290600101906020018083116116e057829003601f168201915b50505050508152602001600282015481526020016003820160009054906101000a900473ffffffffffffffffffffffffffffffffffffffff1673ffffffffffffffffffffffffffffffffffffffff1673ffffffffffffffffffffffffffffffffffffffff168152602001600482015481526020016005820160009054906101000a900463ffffffff1663ffffffff1663ffffffff1681525050915050919050565b6004602052816000526040600020602052806000526040600020600091509150505481565b60008054906101000a900473ffffffffffffffffffffffffffffffffffffffff1681565b600081600001549050919050565b6001816000016000828254019250508190555050565b828054611817906126b2565b90600052602060002090601f0160209004810192826118395760008555611880565b82601f1061185257805160ff1916838001178555611880565b82800160010185558215611880579182015b8281111561187f578251825591602001919060010190611864565b5b50905061188d91906119b0565b5090565b82805461189d906126b2565b90600052602060002090601f0160209004810192826118bf576000855561190d565b82601f106118d0578054855561190d565b8280016001018555821561190d57600052602060002091601f016020900482015b8281111561190c5782548255916001019190600101906118f1565b5b50905061191a91906119b0565b5090565b50805461192a906126b2565b6000825580601f1061193c575061195b565b601f01602090049060005260206000209081019061195a91906119b0565b5b50565b6040518060c00160405280600081526020016060815260200160008152602001600073ffffffffffffffffffffffffffffffffffffffff16815260200160008152602001600063ffffffff1681525090565b5b808211156119c95760008160009055506001016119b1565b5090565b60006119e06119db84612479565b612454565b9050828152602081018484840111156119fc576119fb61283e565b5b611a07848285612670565b509392505050565b600081359050611a1e8161295b565b92915050565b600081519050611a3381612972565b92915050565b600082601f830112611a4e57611a4d612839565b5b8135611a5e8482602086016119cd565b91505092915050565b600081359050611a7681612989565b92915050565b600081359050611a8b816129a0565b92915050565b600060208284031215611aa757611aa6612848565b5b6000611ab584828501611a0f565b91505092915050565b600060208284031215611ad457611ad3612848565b5b6000611ae284828501611a24565b91505092915050565b600060208284031215611b0157611b00612848565b5b6000611b0f84828501611a67565b91505092915050565b60008060408385031215611b2f57611b2e612848565b5b6000611b3d85828601611a67565b9250506020611b4e85828601611a0f565b9150509250929050565b600080600060608486031215611b7157611b70612848565b5b6000611b7f86828701611a67565b935050602084013567ffffffffffffffff811115611ba057611b9f612843565b5b611bac86828701611a39565b9250506040611bbd86828701611a7c565b9150509250925092565b60008060408385031215611bde57611bdd612848565b5b6000611bec85828601611a67565b9250506020611bfd85828601611a67565b9150509250929050565b6000611c138383611ec3565b905092915050565b6000611c278383611fd5565b905092915050565b611c38816125e2565b82525050565b611c47816125e2565b82525050565b6000611c58826124e4565b611c62818561251f565b935083602082028501611c74856124aa565b8060005b85811015611cb05784840389528151611c918582611c07565b9450611c9c83612505565b925060208a01995050600181019050611c78565b50829750879550505050505092915050565b6000611ccd826124ef565b611cd7818561251f565b935083602082028501611ce9856124ba565b8060005b85811015611d2457848403895281611d058582611c1b565b9450611d1083612512565b925060208a01995050600181019050611ced565b50829750879550505050505092915050565b611d3f8161263a565b82525050565b6000611d50826124fa565b611d5a8185612530565b9350611d6a81856020860161267f565b611d738161284d565b840191505092915050565b6000611d89826124fa565b611d938185612541565b9350611da381856020860161267f565b611dac8161284d565b840191505092915050565b60008154611dc4816126b2565b611dce8186612530565b94506001821660008114611de95760018114611dfb57611e2e565b60ff1983168652602086019350611e2e565b611e04856124cf565b60005b83811015611e2657815481890152600182019150602081019050611e07565b808801955050505b50505092915050565b6000611e44602283612541565b9150611e4f8261286b565b604082019050919050565b6000611e67601d83612541565b9150611e72826128ba565b602082019050919050565b6000611e8a601583612541565b9150611e95826128e3565b602082019050919050565b6000611ead602c83612541565b9150611eb88261290c565b604082019050919050565b600060c083016000830151611edb6000860182612157565b5060208301518482036020860152611ef38282611d45565b9150506040830151611f086040860182612157565b506060830151611f1b6060860182611c2f565b506080830151611f2e6080860182612157565b5060a0830151611f4160a0860182612175565b508091505092915050565b600060c083016000830151611f646000860182612157565b5060208301518482036020860152611f7c8282611d45565b9150506040830151611f916040860182612157565b506060830151611fa46060860182611c2f565b506080830151611fb76080860182612157565b5060a0830151611fca60a0860182612175565b508091505092915050565b600060c083016000808401549050611fec816126fe565b611ff96000870182612157565b506001840185830360208701526120108382611db7565b92505060028401549050612023816126fe565b6120306040870182612157565b5060038401549050612041816126e4565b61204e6060870182611c2f565b506004840154905061205f816126fe565b61206c6080870182612157565b506005840154905061207d81612718565b61208a60a0870182612175565b50819250505092915050565b600060c0830160008084015490506120ad816126fe565b6120ba6000870182612157565b506001840185830360208701526120d18382611db7565b925050600284015490506120e4816126fe565b6120f16040870182612157565b5060038401549050612102816126e4565b61210f6060870182611c2f565b5060048401549050612120816126fe565b61212d6080870182612157565b506005840154905061213e81612718565b61214b60a0870182612175565b50819250505092915050565b61216081612620565b82525050565b61216f81612620565b82525050565b61217e8161262a565b82525050565b61218d8161262a565b82525050565b60006060820190506121a86000830186611c3e565b6121b56020830185611c3e565b6121c26040830184612166565b949350505050565b600060208201905081810360008301526121e48184611c4d565b905092915050565b600060208201905081810360008301526122068184611cc2565b905092915050565b60006020820190506122236000830184611d36565b92915050565b6000602082019050818103600083015261224281611e37565b9050919050565b6000602082019050818103600083015261226281611e5a565b9050919050565b6000602082019050818103600083015261228281611e7d565b9050919050565b600060208201905081810360008301526122a281611ea0565b9050919050565b600060208201905081810360008301526122c38184611f4c565b905092915050565b60006020820190506122e06000830184612166565b92915050565b60006080820190506122fb6000830187612166565b818103602083015261230d8186611d7e565b905081810360408301526123218185611d7e565b90506123306060830184612166565b95945050505050565b600060c08201905061234e6000830189612166565b81810360208301526123608188611d7e565b905061236f6040830187612166565b61237c6060830186611c3e565b6123896080830185612166565b61239660a0830184612184565b979650505050505050565b60006040820190506123b66000830185612166565b81810360208301526123c88184612096565b90509392505050565b60006040820190506123e66000830185612166565b6123f36020830184612166565b9392505050565b600060a08201905061240f6000830188612166565b61241c6020830187612166565b818103604083015261242e8186611d7e565b905061243d6060830185612184565b61244a6080830184612166565b9695505050505050565b600061245e61246f565b905061246a8282612732565b919050565b6000604051905090565b600067ffffffffffffffff8211156124945761249361280a565b5b61249d8261284d565b9050602081019050919050565b6000819050602082019050919050565b60008190508160005260206000209050919050565b60008190508160005260206000209050919050565b600081519050919050565b600081549050919050565b600081519050919050565b6000602082019050919050565b6000600682019050919050565b600082825260208201905092915050565b600082825260208201905092915050565b600082825260208201905092915050565b600061255d82612620565b915061256883612620565b9250827fffffffffffffffffffffffffffffffffffffffffffffffffffffffffffffffff0382111561259d5761259c6127ac565b5b828201905092915050565b600073ffffffffffffffffffffffffffffffffffffffff82169050919050565b6000819050919050565b600063ffffffff82169050919050565b60006125ed82612600565b9050919050565b60008115159050919050565b600073ffffffffffffffffffffffffffffffffffffffff82169050919050565b6000819050919050565b600063ffffffff82169050919050565b60006126458261264c565b9050919050565b60006126578261265e565b9050919050565b600061266982612600565b9050919050565b82818337600083830152505050565b60005b8381101561269d578082015181840152602081019050612682565b838111156126ac576000848401525b50505050565b600060028204905060018216806126ca57607f821691505b602082108114156126de576126dd6127db565b5b50919050565b60006126f76126f28361285e565b6125a8565b9050919050565b600061271161270c8361285e565b6125c8565b9050919050565b600061272b6127268361285e565b6125d2565b9050919050565b61273b8261284d565b810181811067ffffffffffffffff8211171561275a5761275961280a565b5b80604052505050565b600061276e82612620565b91507fffffffffffffffffffffffffffffffffffffffffffffffffffffffffffffffff8214156127a1576127a06127ac565b5b600182019050919050565b7f4e487b7100000000000000000000000000000000000000000000000000000000600052601160045260246000fd5b7f4e487b7100000000000000000000000000000000000000000000000000000000600052602260045260246000fd5b7f4e487b7100000000000000000000000000000000000000000000000000000000600052604160045260246000fd5b600080fd5b600080fd5b600080fd5b600080fd5b6000601f19601f8301169050919050565b60008160001c9050919050565b7f546865726520617265206e6f2070726f647563747320746f206c69737420796560008201527f7421000000000000000000000000000000000000000000000000000000000000602082015250565b7f5468657265206973206e6f2073756368206974656d207265636f726421000000600082015250565b7f5468652073616c65206861732065787069726564210000000000000000000000600082015250565b7f5468657265206973206e6f7420656e6f7567682062616c616e636520696e207960008201527f6f7572206163636f756e74210000000000000000000000000000000000000000602082015250565b612964816125e2565b811461296f57600080fd5b50565b61297b816125f4565b811461298657600080fd5b50565b61299281612620565b811461299d57600080fd5b50565b6129a98161262a565b81146129b457600080fd5b5056fea2646970667358221220b74c0602fbb5655f3414b536f3da3ee12b1cbe4647e0041086a0a2864f34a15264736f6c63430008070033",
					"opcodes": "PUSH1 0x80 PUSH1 0x40 MSTORE CALLVALUE DUP1 ISZERO PUSH3 0x11 JUMPI PUSH1 0x0 DUP1 REVERT JUMPDEST POP PUSH1 0x40 MLOAD PUSH3 0x2B17 CODESIZE SUB DUP1 PUSH3 0x2B17 DUP4 CODECOPY DUP2 DUP2 ADD PUSH1 0x40 MSTORE DUP2 ADD SWAP1 PUSH3 0x37 SWAP2 SWAP1 PUSH3 0x95 JUMP JUMPDEST DUP1 PUSH1 0x0 DUP1 PUSH2 0x100 EXP DUP2 SLOAD DUP2 PUSH20 0xFFFFFFFFFFFFFFFFFFFFFFFFFFFFFFFFFFFFFFFF MUL NOT AND SWAP1 DUP4 PUSH20 0xFFFFFFFFFFFFFFFFFFFFFFFFFFFFFFFFFFFFFFFF AND MUL OR SWAP1 SSTORE POP POP PUSH3 0x11A JUMP JUMPDEST PUSH1 0x0 DUP2 MLOAD SWAP1 POP PUSH3 0x8F DUP2 PUSH3 0x100 JUMP JUMPDEST SWAP3 SWAP2 POP POP JUMP JUMPDEST PUSH1 0x0 PUSH1 0x20 DUP3 DUP5 SUB SLT ISZERO PUSH3 0xAE JUMPI PUSH3 0xAD PUSH3 0xFB JUMP JUMPDEST JUMPDEST PUSH1 0x0 PUSH3 0xBE DUP5 DUP3 DUP6 ADD PUSH3 0x7E JUMP JUMPDEST SWAP2 POP POP SWAP3 SWAP2 POP POP JUMP JUMPDEST PUSH1 0x0 PUSH3 0xD4 DUP3 PUSH3 0xDB JUMP JUMPDEST SWAP1 POP SWAP2 SWAP1 POP JUMP JUMPDEST PUSH1 0x0 PUSH20 0xFFFFFFFFFFFFFFFFFFFFFFFFFFFFFFFFFFFFFFFF DUP3 AND SWAP1 POP SWAP2 SWAP1 POP JUMP JUMPDEST PUSH1 0x0 DUP1 REVERT JUMPDEST PUSH3 0x10B DUP2 PUSH3 0xC7 JUMP JUMPDEST DUP2 EQ PUSH3 0x117 JUMPI PUSH1 0x0 DUP1 REVERT JUMPDEST POP JUMP JUMPDEST PUSH2 0x29ED DUP1 PUSH3 0x12A PUSH1 0x0 CODECOPY PUSH1 0x0 RETURN INVALID PUSH1 0x80 PUSH1 0x40 MSTORE CALLVALUE DUP1 ISZERO PUSH2 0x10 JUMPI PUSH1 0x0 DUP1 REVERT JUMPDEST POP PUSH1 0x4 CALLDATASIZE LT PUSH2 0xA9 JUMPI PUSH1 0x0 CALLDATALOAD PUSH1 0xE0 SHR DUP1 PUSH4 0xA87430BA GT PUSH2 0x71 JUMPI DUP1 PUSH4 0xA87430BA EQ PUSH2 0x155 JUMPI DUP1 PUSH4 0xBFB231D2 EQ PUSH2 0x188 JUMPI DUP1 PUSH4 0xCA095A83 EQ PUSH2 0x1BD JUMPI DUP1 PUSH4 0xCD2F0710 EQ PUSH2 0x1D9 JUMPI DUP1 PUSH4 0xE2870AA9 EQ PUSH2 0x209 JUMPI DUP1 PUSH4 0xFC0C546A EQ PUSH2 0x239 JUMPI PUSH2 0xA9 JUMP JUMPDEST DUP1 PUSH4 0x1750E74 EQ PUSH2 0xAE JUMPI DUP1 PUSH4 0x2F63147F EQ PUSH2 0xCA JUMPI DUP1 PUSH4 0x3D4D3600 EQ PUSH2 0xE6 JUMPI DUP1 PUSH4 0x4EFD1797 EQ PUSH2 0x11B JUMPI DUP1 PUSH4 0x5D9EB55C EQ PUSH2 0x137 JUMPI JUMPDEST PUSH1 0x0 DUP1 REVERT JUMPDEST PUSH2 0xC8 PUSH1 0x4 DUP1 CALLDATASIZE SUB DUP2 ADD SWAP1 PUSH2 0xC3 SWAP2 SWAP1 PUSH2 0x1AEB JUMP JUMPDEST PUSH2 0x257 JUMP JUMPDEST STOP JUMPDEST PUSH2 0xE4 PUSH1 0x4 DUP1 CALLDATASIZE SUB DUP2 ADD SWAP1 PUSH2 0xDF SWAP2 SWAP1 PUSH2 0x1BC7 JUMP JUMPDEST PUSH2 0x47A JUMP JUMPDEST STOP JUMPDEST PUSH2 0x100 PUSH1 0x4 DUP1 CALLDATASIZE SUB DUP2 ADD SWAP1 PUSH2 0xFB SWAP2 SWAP1 PUSH2 0x1AEB JUMP JUMPDEST PUSH2 0x99A JUMP JUMPDEST PUSH1 0x40 MLOAD PUSH2 0x112 SWAP7 SWAP6 SWAP5 SWAP4 SWAP3 SWAP2 SWAP1 PUSH2 0x2339 JUMP JUMPDEST PUSH1 0x40 MLOAD DUP1 SWAP2 SUB SWAP1 RETURN JUMPDEST PUSH2 0x135 PUSH1 0x4 DUP1 CALLDATASIZE SUB DUP2 ADD SWAP1 PUSH2 0x130 SWAP2 SWAP1 PUSH2 0x1B58 JUMP JUMPDEST PUSH2 0xA9E JUMP JUMPDEST STOP JUMPDEST PUSH2 0x13F PUSH2 0xED0 JUMP JUMPDEST PUSH1 0x40 MLOAD PUSH2 0x14C SWAP2 SWAP1 PUSH2 0x21CA JUMP JUMPDEST PUSH1 0x40 MLOAD DUP1 SWAP2 SUB SWAP1 RETURN JUMPDEST PUSH2 0x16F PUSH1 0x4 DUP1 CALLDATASIZE SUB DUP2 ADD SWAP1 PUSH2 0x16A SWAP2 SWAP1 PUSH2 0x1A91 JUMP JUMPDEST PUSH2 0x10F6 JUMP JUMPDEST PUSH1 0x40 MLOAD PUSH2 0x17F SWAP5 SWAP4 SWAP3 SWAP2 SWAP1 PUSH2 0x22E6 JUMP JUMPDEST PUSH1 0x40 MLOAD DUP1 SWAP2 SUB SWAP1 RETURN JUMPDEST PUSH2 0x1A2 PUSH1 0x4 DUP1 CALLDATASIZE SUB DUP2 ADD SWAP1 PUSH2 0x19D SWAP2 SWAP1 PUSH2 0x1AEB JUMP JUMPDEST PUSH2 0x1236 JUMP JUMPDEST PUSH1 0x40 MLOAD PUSH2 0x1B4 SWAP7 SWAP6 SWAP5 SWAP4 SWAP3 SWAP2 SWAP1 PUSH2 0x2339 JUMP JUMPDEST PUSH1 0x40 MLOAD DUP1 SWAP2 SUB SWAP1 RETURN JUMPDEST PUSH2 0x1D7 PUSH1 0x4 DUP1 CALLDATASIZE SUB DUP2 ADD SWAP1 PUSH2 0x1D2 SWAP2 SWAP1 PUSH2 0x1AEB JUMP JUMPDEST PUSH2 0x132A JUMP JUMPDEST STOP JUMPDEST PUSH2 0x1F3 PUSH1 0x4 DUP1 CALLDATASIZE SUB DUP2 ADD SWAP1 PUSH2 0x1EE SWAP2 SWAP1 PUSH2 0x1AEB JUMP JUMPDEST PUSH2 0x1595 JUMP JUMPDEST PUSH1 0x40 MLOAD PUSH2 0x200 SWAP2 SWAP1 PUSH2 0x22A9 JUMP JUMPDEST PUSH1 0x40 MLOAD DUP1 SWAP2 SUB SWAP1 RETURN JUMPDEST PUSH2 0x223 PUSH1 0x4 DUP1 CALLDATASIZE SUB DUP2 ADD SWAP1 PUSH2 0x21E SWAP2 SWAP1 PUSH2 0x1B18 JUMP JUMPDEST PUSH2 0x179E JUMP JUMPDEST PUSH1 0x40 MLOAD PUSH2 0x230 SWAP2 SWAP1 PUSH2 0x22CB JUMP JUMPDEST PUSH1 0x40 MLOAD DUP1 SWAP2 SUB SWAP1 RETURN JUMPDEST PUSH2 0x241 PUSH2 0x17C3 JUMP JUMPDEST PUSH1 0x40 MLOAD PUSH2 0x24E SWAP2 SWAP1 PUSH2 0x220E JUMP JUMPDEST PUSH1 0x40 MLOAD DUP1 SWAP2 SUB SWAP1 RETURN JUMPDEST DUP1 PUSH1 0x0 PUSH1 0x3 PUSH1 0x0 DUP4 DUP2 MSTORE PUSH1 0x20 ADD SWAP1 DUP2 MSTORE PUSH1 0x20 ADD PUSH1 0x0 KECCAK256 PUSH1 0x40 MLOAD DUP1 PUSH1 0xC0 ADD PUSH1 0x40 MSTORE SWAP1 DUP2 PUSH1 0x0 DUP3 ADD SLOAD DUP2 MSTORE PUSH1 0x20 ADD PUSH1 0x1 DUP3 ADD DUP1 SLOAD PUSH2 0x292 SWAP1 PUSH2 0x26B2 JUMP JUMPDEST DUP1 PUSH1 0x1F ADD PUSH1 0x20 DUP1 SWAP2 DIV MUL PUSH1 0x20 ADD PUSH1 0x40 MLOAD SWAP1 DUP2 ADD PUSH1 0x40 MSTORE DUP1 SWAP3 SWAP2 SWAP1 DUP2 DUP2 MSTORE PUSH1 0x20 ADD DUP3 DUP1 SLOAD PUSH2 0x2BE SWAP1 PUSH2 0x26B2 JUMP JUMPDEST DUP1 ISZERO PUSH2 0x30B JUMPI DUP1 PUSH1 0x1F LT PUSH2 0x2E0 JUMPI PUSH2 0x100 DUP1 DUP4 SLOAD DIV MUL DUP4 MSTORE SWAP2 PUSH1 0x20 ADD SWAP2 PUSH2 0x30B JUMP JUMPDEST DUP3 ADD SWAP2 SWAP1 PUSH1 0x0 MSTORE PUSH1 0x20 PUSH1 0x0 KECCAK256 SWAP1 JUMPDEST DUP2 SLOAD DUP2 MSTORE SWAP1 PUSH1 0x1 ADD SWAP1 PUSH1 0x20 ADD DUP1 DUP4 GT PUSH2 0x2EE JUMPI DUP3 SWAP1 SUB PUSH1 0x1F AND DUP3 ADD SWAP2 JUMPDEST POP POP POP POP POP DUP2 MSTORE PUSH1 0x20 ADD PUSH1 0x2 DUP3 ADD SLOAD DUP2 MSTORE PUSH1 0x20 ADD PUSH1 0x3 DUP3 ADD PUSH1 0x0 SWAP1 SLOAD SWAP1 PUSH2 0x100 EXP SWAP1 DIV PUSH20 0xFFFFFFFFFFFFFFFFFFFFFFFFFFFFFFFFFFFFFFFF AND PUSH20 0xFFFFFFFFFFFFFFFFFFFFFFFFFFFFFFFFFFFFFFFF AND PUSH20 0xFFFFFFFFFFFFFFFFFFFFFFFFFFFFFFFFFFFFFFFF AND DUP2 MSTORE PUSH1 0x20 ADD PUSH1 0x4 DUP3 ADD SLOAD DUP2 MSTORE PUSH1 0x20 ADD PUSH1 0x5 DUP3 ADD PUSH1 0x0 SWAP1 SLOAD SWAP1 PUSH2 0x100 EXP SWAP1 DIV PUSH4 0xFFFFFFFF AND PUSH4 0xFFFFFFFF AND PUSH4 0xFFFFFFFF AND DUP2 MSTORE POP POP SWAP1 POP DUP1 PUSH1 0x60 ADD MLOAD PUSH20 0xFFFFFFFFFFFFFFFFFFFFFFFFFFFFFFFFFFFFFFFF AND CALLER PUSH20 0xFFFFFFFFFFFFFFFFFFFFFFFFFFFFFFFFFFFFFFFF AND EQ ISZERO PUSH2 0x3E3 JUMPI PUSH1 0x0 DUP1 REVERT JUMPDEST PUSH1 0x3 PUSH1 0x0 DUP5 DUP2 MSTORE PUSH1 0x20 ADD SWAP1 DUP2 MSTORE PUSH1 0x20 ADD PUSH1 0x0 KECCAK256 PUSH1 0x2 ADD PUSH1 0x0 DUP2 SLOAD DUP1 SWAP3 SWAP2 SWAP1 PUSH2 0x40A SWAP1 PUSH2 0x2763 JUMP JUMPDEST SWAP2 SWAP1 POP SSTORE POP CALLER PUSH20 0xFFFFFFFFFFFFFFFFFFFFFFFFFFFFFFFFFFFFFFFF AND PUSH32 0x1ED364E6F46A455FAC23816D3700669FF134C7A5FBE0240F52D932F834102462 DUP5 PUSH1 0x3 PUSH1 0x0 DUP8 DUP2 MSTORE PUSH1 0x20 ADD SWAP1 DUP2 MSTORE PUSH1 0x20 ADD PUSH1 0x0 KECCAK256 PUSH1 0x2 ADD SLOAD PUSH1 0x40 MLOAD PUSH2 0x46D SWAP3 SWAP2 SWAP1 PUSH2 0x23D1 JUMP JUMPDEST PUSH1 0x40 MLOAD DUP1 SWAP2 SUB SWAP1 LOG2 POP POP POP JUMP JUMPDEST DUP2 PUSH1 0x0 PUSH1 0x3 PUSH1 0x0 DUP4 DUP2 MSTORE PUSH1 0x20 ADD SWAP1 DUP2 MSTORE PUSH1 0x20 ADD PUSH1 0x0 KECCAK256 PUSH1 0x40 MLOAD DUP1 PUSH1 0xC0 ADD PUSH1 0x40 MSTORE SWAP1 DUP2 PUSH1 0x0 DUP3 ADD SLOAD DUP2 MSTORE PUSH1 0x20 ADD PUSH1 0x1 DUP3 ADD DUP1 SLOAD PUSH2 0x4B5 SWAP1 PUSH2 0x26B2 JUMP JUMPDEST DUP1 PUSH1 0x1F ADD PUSH1 0x20 DUP1 SWAP2 DIV MUL PUSH1 0x20 ADD PUSH1 0x40 MLOAD SWAP1 DUP2 ADD PUSH1 0x40 MSTORE DUP1 SWAP3 SWAP2 SWAP1 DUP2 DUP2 MSTORE PUSH1 0x20 ADD DUP3 DUP1 SLOAD PUSH2 0x4E1 SWAP1 PUSH2 0x26B2 JUMP JUMPDEST DUP1 ISZERO PUSH2 0x52E JUMPI DUP1 PUSH1 0x1F LT PUSH2 0x503 JUMPI PUSH2 0x100 DUP1 DUP4 SLOAD DIV MUL DUP4 MSTORE SWAP2 PUSH1 0x20 ADD SWAP2 PUSH2 0x52E JUMP JUMPDEST DUP3 ADD SWAP2 SWAP1 PUSH1 0x0 MSTORE PUSH1 0x20 PUSH1 0x0 KECCAK256 SWAP1 JUMPDEST DUP2 SLOAD DUP2 MSTORE SWAP1 PUSH1 0x1 ADD SWAP1 PUSH1 0x20 ADD DUP1 DUP4 GT PUSH2 0x511 JUMPI DUP3 SWAP1 SUB PUSH1 0x1F AND DUP3 ADD SWAP2 JUMPDEST POP POP POP POP POP DUP2 MSTORE PUSH1 0x20 ADD PUSH1 0x2 DUP3 ADD SLOAD DUP2 MSTORE PUSH1 0x20 ADD PUSH1 0x3 DUP3 ADD PUSH1 0x0 SWAP1 SLOAD SWAP1 PUSH2 0x100 EXP SWAP1 DIV PUSH20 0xFFFFFFFFFFFFFFFFFFFFFFFFFFFFFFFFFFFFFFFF AND PUSH20 0xFFFFFFFFFFFFFFFFFFFFFFFFFFFFFFFFFFFFFFFF AND PUSH20 0xFFFFFFFFFFFFFFFFFFFFFFFFFFFFFFFFFFFFFFFF AND DUP2 MSTORE PUSH1 0x20 ADD PUSH1 0x4 DUP3 ADD SLOAD DUP2 MSTORE PUSH1 0x20 ADD PUSH1 0x5 DUP3 ADD PUSH1 0x0 SWAP1 SLOAD SWAP1 PUSH2 0x100 EXP SWAP1 DIV PUSH4 0xFFFFFFFF AND PUSH4 0xFFFFFFFF AND PUSH4 0xFFFFFFFF AND DUP2 MSTORE POP POP SWAP1 POP TIMESTAMP DUP2 PUSH1 0xA0 ADD MLOAD PUSH4 0xFFFFFFFF AND LT ISZERO PUSH2 0x616 JUMPI PUSH1 0x40 MLOAD PUSH32 0x8C379A000000000000000000000000000000000000000000000000000000000 DUP2 MSTORE PUSH1 0x4 ADD PUSH2 0x60D SWAP1 PUSH2 0x2269 JUMP JUMPDEST PUSH1 0x40 MLOAD DUP1 SWAP2 SUB SWAP1 REVERT JUMPDEST DUP4 PUSH1 0x0 PUSH1 0x3 PUSH1 0x0 DUP4 DUP2 MSTORE PUSH1 0x20 ADD SWAP1 DUP2 MSTORE PUSH1 0x20 ADD PUSH1 0x0 KECCAK256 PUSH1 0x40 MLOAD DUP1 PUSH1 0xC0 ADD PUSH1 0x40 MSTORE SWAP1 DUP2 PUSH1 0x0 DUP3 ADD SLOAD DUP2 MSTORE PUSH1 0x20 ADD PUSH1 0x1 DUP3 ADD DUP1 SLOAD PUSH2 0x651 SWAP1 PUSH2 0x26B2 JUMP JUMPDEST DUP1 PUSH1 0x1F ADD PUSH1 0x20 DUP1 SWAP2 DIV MUL PUSH1 0x20 ADD PUSH1 0x40 MLOAD SWAP1 DUP2 ADD PUSH1 0x40 MSTORE DUP1 SWAP3 SWAP2 SWAP1 DUP2 DUP2 MSTORE PUSH1 0x20 ADD DUP3 DUP1 SLOAD PUSH2 0x67D SWAP1 PUSH2 0x26B2 JUMP JUMPDEST DUP1 ISZERO PUSH2 0x6CA JUMPI DUP1 PUSH1 0x1F LT PUSH2 0x69F JUMPI PUSH2 0x100 DUP1 DUP4 SLOAD DIV MUL DUP4 MSTORE SWAP2 PUSH1 0x20 ADD SWAP2 PUSH2 0x6CA JUMP JUMPDEST DUP3 ADD SWAP2 SWAP1 PUSH1 0x0 MSTORE PUSH1 0x20 PUSH1 0x0 KECCAK256 SWAP1 JUMPDEST DUP2 SLOAD DUP2 MSTORE SWAP1 PUSH1 0x1 ADD SWAP1 PUSH1 0x20 ADD DUP1 DUP4 GT PUSH2 0x6AD JUMPI DUP3 SWAP1 SUB PUSH1 0x1F AND DUP3 ADD SWAP2 JUMPDEST POP POP POP POP POP DUP2 MSTORE PUSH1 0x20 ADD PUSH1 0x2 DUP3 ADD SLOAD DUP2 MSTORE PUSH1 0x20 ADD PUSH1 0x3 DUP3 ADD PUSH1 0x0 SWAP1 SLOAD SWAP1 PUSH2 0x100 EXP SWAP1 DIV PUSH20 0xFFFFFFFFFFFFFFFFFFFFFFFFFFFFFFFFFFFFFFFF AND PUSH20 0xFFFFFFFFFFFFFFFFFFFFFFFFFFFFFFFFFFFFFFFF AND PUSH20 0xFFFFFFFFFFFFFFFFFFFFFFFFFFFFFFFFFFFFFFFF AND DUP2 MSTORE PUSH1 0x20 ADD PUSH1 0x4 DUP3 ADD SLOAD DUP2 MSTORE PUSH1 0x20 ADD PUSH1 0x5 DUP3 ADD PUSH1 0x0 SWAP1 SLOAD SWAP1 PUSH2 0x100 EXP SWAP1 DIV PUSH4 0xFFFFFFFF AND PUSH4 0xFFFFFFFF AND PUSH4 0xFFFFFFFF AND DUP2 MSTORE POP POP SWAP1 POP PUSH1 0x2 PUSH1 0x0 CALLER PUSH20 0xFFFFFFFFFFFFFFFFFFFFFFFFFFFFFFFFFFFFFFFF AND PUSH20 0xFFFFFFFFFFFFFFFFFFFFFFFFFFFFFFFFFFFFFFFF AND DUP2 MSTORE PUSH1 0x20 ADD SWAP1 DUP2 MSTORE PUSH1 0x20 ADD PUSH1 0x0 KECCAK256 PUSH1 0x5 ADD SLOAD DUP2 PUSH1 0x80 ADD MLOAD GT ISZERO PUSH2 0x7EE JUMPI PUSH1 0x40 MLOAD PUSH32 0x8C379A000000000000000000000000000000000000000000000000000000000 DUP2 MSTORE PUSH1 0x4 ADD PUSH2 0x7E5 SWAP1 PUSH2 0x2289 JUMP JUMPDEST PUSH1 0x40 MLOAD DUP1 SWAP2 SUB SWAP1 REVERT JUMPDEST PUSH1 0x0 PUSH1 0x3 PUSH1 0x0 DUP9 DUP2 MSTORE PUSH1 0x20 ADD SWAP1 DUP2 MSTORE PUSH1 0x20 ADD PUSH1 0x0 KECCAK256 SWAP1 POP PUSH1 0x1 PUSH1 0x4 PUSH1 0x0 DUP10 DUP2 MSTORE PUSH1 0x20 ADD SWAP1 DUP2 MSTORE PUSH1 0x20 ADD PUSH1 0x0 KECCAK256 PUSH1 0x0 CALLER PUSH20 0xFFFFFFFFFFFFFFFFFFFFFFFFFFFFFFFFFFFFFFFF AND PUSH20 0xFFFFFFFFFFFFFFFFFFFFFFFFFFFFFFFFFFFFFFFF AND DUP2 MSTORE PUSH1 0x20 ADD SWAP1 DUP2 MSTORE PUSH1 0x20 ADD PUSH1 0x0 KECCAK256 PUSH1 0x0 DUP3 DUP3 SLOAD PUSH2 0x866 SWAP2 SWAP1 PUSH2 0x2552 JUMP JUMPDEST SWAP3 POP POP DUP2 SWAP1 SSTORE POP PUSH1 0x0 DUP1 SLOAD SWAP1 PUSH2 0x100 EXP SWAP1 DIV PUSH20 0xFFFFFFFFFFFFFFFFFFFFFFFFFFFFFFFFFFFFFFFF AND PUSH20 0xFFFFFFFFFFFFFFFFFFFFFFFFFFFFFFFFFFFFFFFF AND PUSH4 0x23B872DD CALLER DUP4 PUSH1 0x3 ADD PUSH1 0x0 SWAP1 SLOAD SWAP1 PUSH2 0x100 EXP SWAP1 DIV PUSH20 0xFFFFFFFFFFFFFFFFFFFFFFFFFFFFFFFFFFFFFFFF AND DUP10 PUSH1 0x40 MLOAD DUP5 PUSH4 0xFFFFFFFF AND PUSH1 0xE0 SHL DUP2 MSTORE PUSH1 0x4 ADD PUSH2 0x8EE SWAP4 SWAP3 SWAP2 SWAP1 PUSH2 0x2193 JUMP JUMPDEST PUSH1 0x20 PUSH1 0x40 MLOAD DUP1 DUP4 SUB DUP2 PUSH1 0x0 DUP8 DUP1 EXTCODESIZE ISZERO DUP1 ISZERO PUSH2 0x908 JUMPI PUSH1 0x0 DUP1 REVERT JUMPDEST POP GAS CALL ISZERO DUP1 ISZERO PUSH2 0x91C JUMPI RETURNDATASIZE PUSH1 0x0 DUP1 RETURNDATACOPY RETURNDATASIZE PUSH1 0x0 REVERT JUMPDEST POP POP POP POP PUSH1 0x40 MLOAD RETURNDATASIZE PUSH1 0x1F NOT PUSH1 0x1F DUP3 ADD AND DUP3 ADD DUP1 PUSH1 0x40 MSTORE POP DUP2 ADD SWAP1 PUSH2 0x940 SWAP2 SWAP1 PUSH2 0x1ABE JUMP JUMPDEST POP CALLER PUSH20 0xFFFFFFFFFFFFFFFFFFFFFFFFFFFFFFFFFFFFFFFF AND PUSH32 0xDEF0DD1961901757E759C1E3E1CED766D61D989AA5030414848DAE6BAC75CBDD DUP9 DUP9 PUSH1 0x40 MLOAD PUSH2 0x989 SWAP3 SWAP2 SWAP1 PUSH2 0x23D1 JUMP JUMPDEST PUSH1 0x40 MLOAD DUP1 SWAP2 SUB SWAP1 LOG2 POP POP POP POP POP POP POP JUMP JUMPDEST PUSH1 0x1 DUP2 DUP2 SLOAD DUP2 LT PUSH2 0x9AA JUMPI PUSH1 0x0 DUP1 REVERT JUMPDEST SWAP1 PUSH1 0x0 MSTORE PUSH1 0x20 PUSH1 0x0 KECCAK256 SWAP1 PUSH1 0x6 MUL ADD PUSH1 0x0 SWAP2 POP SWAP1 POP DUP1 PUSH1 0x0 ADD SLOAD SWAP1 DUP1 PUSH1 0x1 ADD DUP1 SLOAD PUSH2 0x9D3 SWAP1 PUSH2 0x26B2 JUMP JUMPDEST DUP1 PUSH1 0x1F ADD PUSH1 0x20 DUP1 SWAP2 DIV MUL PUSH1 0x20 ADD PUSH1 0x40 MLOAD SWAP1 DUP2 ADD PUSH1 0x40 MSTORE DUP1 SWAP3 SWAP2 SWAP1 DUP2 DUP2 MSTORE PUSH1 0x20 ADD DUP3 DUP1 SLOAD PUSH2 0x9FF SWAP1 PUSH2 0x26B2 JUMP JUMPDEST DUP1 ISZERO PUSH2 0xA4C JUMPI DUP1 PUSH1 0x1F LT PUSH2 0xA21 JUMPI PUSH2 0x100 DUP1 DUP4 SLOAD DIV MUL DUP4 MSTORE SWAP2 PUSH1 0x20 ADD SWAP2 PUSH2 0xA4C JUMP JUMPDEST DUP3 ADD SWAP2 SWAP1 PUSH1 0x0 MSTORE PUSH1 0x20 PUSH1 0x0 KECCAK256 SWAP1 JUMPDEST DUP2 SLOAD DUP2 MSTORE SWAP1 PUSH1 0x1 ADD SWAP1 PUSH1 0x20 ADD DUP1 DUP4 GT PUSH2 0xA2F JUMPI DUP3 SWAP1 SUB PUSH1 0x1F AND DUP3 ADD SWAP2 JUMPDEST POP POP POP POP POP SWAP1 DUP1 PUSH1 0x2 ADD SLOAD SWAP1 DUP1 PUSH1 0x3 ADD PUSH1 0x0 SWAP1 SLOAD SWAP1 PUSH2 0x100 EXP SWAP1 DIV PUSH20 0xFFFFFFFFFFFFFFFFFFFFFFFFFFFFFFFFFFFFFFFF AND SWAP1 DUP1 PUSH1 0x4 ADD SLOAD SWAP1 DUP1 PUSH1 0x5 ADD PUSH1 0x0 SWAP1 SLOAD SWAP1 PUSH2 0x100 EXP SWAP1 DIV PUSH4 0xFFFFFFFF AND SWAP1 POP DUP7 JUMP JUMPDEST PUSH1 0x40 MLOAD DUP1 PUSH1 0xC0 ADD PUSH1 0x40 MSTORE DUP1 PUSH2 0xAB3 PUSH1 0x5 PUSH2 0x17E7 JUMP JUMPDEST DUP2 MSTORE PUSH1 0x20 ADD DUP4 DUP2 MSTORE PUSH1 0x20 ADD PUSH1 0x0 DUP2 MSTORE PUSH1 0x20 ADD CALLER PUSH20 0xFFFFFFFFFFFFFFFFFFFFFFFFFFFFFFFFFFFFFFFF AND DUP2 MSTORE PUSH1 0x20 ADD DUP5 DUP2 MSTORE PUSH1 0x20 ADD DUP3 PUSH4 0xFFFFFFFF AND DUP2 MSTORE POP PUSH1 0x3 PUSH1 0x0 PUSH2 0xAFF PUSH1 0x5 PUSH2 0x17E7 JUMP JUMPDEST DUP2 MSTORE PUSH1 0x20 ADD SWAP1 DUP2 MSTORE PUSH1 0x20 ADD PUSH1 0x0 KECCAK256 PUSH1 0x0 DUP3 ADD MLOAD DUP2 PUSH1 0x0 ADD SSTORE PUSH1 0x20 DUP3 ADD MLOAD DUP2 PUSH1 0x1 ADD SWAP1 DUP1 MLOAD SWAP1 PUSH1 0x20 ADD SWAP1 PUSH2 0xB33 SWAP3 SWAP2 SWAP1 PUSH2 0x180B JUMP JUMPDEST POP PUSH1 0x40 DUP3 ADD MLOAD DUP2 PUSH1 0x2 ADD SSTORE PUSH1 0x60 DUP3 ADD MLOAD DUP2 PUSH1 0x3 ADD PUSH1 0x0 PUSH2 0x100 EXP DUP2 SLOAD DUP2 PUSH20 0xFFFFFFFFFFFFFFFFFFFFFFFFFFFFFFFFFFFFFFFF MUL NOT AND SWAP1 DUP4 PUSH20 0xFFFFFFFFFFFFFFFFFFFFFFFFFFFFFFFFFFFFFFFF AND MUL OR SWAP1 SSTORE POP PUSH1 0x80 DUP3 ADD MLOAD DUP2 PUSH1 0x4 ADD SSTORE PUSH1 0xA0 DUP3 ADD MLOAD DUP2 PUSH1 0x5 ADD PUSH1 0x0 PUSH2 0x100 EXP DUP2 SLOAD DUP2 PUSH4 0xFFFFFFFF MUL NOT AND SWAP1 DUP4 PUSH4 0xFFFFFFFF AND MUL OR SWAP1 SSTORE POP SWAP1 POP POP PUSH1 0x2 PUSH1 0x0 CALLER PUSH20 0xFFFFFFFFFFFFFFFFFFFFFFFFFFFFFFFFFFFFFFFF AND PUSH20 0xFFFFFFFFFFFFFFFFFFFFFFFFFFFFFFFFFFFFFFFF AND DUP2 MSTORE PUSH1 0x20 ADD SWAP1 DUP2 MSTORE PUSH1 0x20 ADD PUSH1 0x0 KECCAK256 PUSH1 0x4 ADD PUSH1 0x3 PUSH1 0x0 PUSH2 0xC09 PUSH1 0x5 PUSH2 0x17E7 JUMP JUMPDEST DUP2 MSTORE PUSH1 0x20 ADD SWAP1 DUP2 MSTORE PUSH1 0x20 ADD PUSH1 0x0 KECCAK256 SWAP1 DUP1 PUSH1 0x1 DUP2 SLOAD ADD DUP1 DUP3 SSTORE DUP1 SWAP2 POP POP PUSH1 0x1 SWAP1 SUB SWAP1 PUSH1 0x0 MSTORE PUSH1 0x20 PUSH1 0x0 KECCAK256 SWAP1 PUSH1 0x6 MUL ADD PUSH1 0x0 SWAP1 SWAP2 SWAP1 SWAP2 SWAP1 SWAP2 POP PUSH1 0x0 DUP3 ADD SLOAD DUP2 PUSH1 0x0 ADD SSTORE PUSH1 0x1 DUP3 ADD DUP2 PUSH1 0x1 ADD SWAP1 DUP1 SLOAD PUSH2 0xC5E SWAP1 PUSH2 0x26B2 JUMP JUMPDEST PUSH2 0xC69 SWAP3 SWAP2 SWAP1 PUSH2 0x1891 JUMP JUMPDEST POP PUSH1 0x2 DUP3 ADD SLOAD DUP2 PUSH1 0x2 ADD SSTORE PUSH1 0x3 DUP3 ADD PUSH1 0x0 SWAP1 SLOAD SWAP1 PUSH2 0x100 EXP SWAP1 DIV PUSH20 0xFFFFFFFFFFFFFFFFFFFFFFFFFFFFFFFFFFFFFFFF AND DUP2 PUSH1 0x3 ADD PUSH1 0x0 PUSH2 0x100 EXP DUP2 SLOAD DUP2 PUSH20 0xFFFFFFFFFFFFFFFFFFFFFFFFFFFFFFFFFFFFFFFF MUL NOT AND SWAP1 DUP4 PUSH20 0xFFFFFFFFFFFFFFFFFFFFFFFFFFFFFFFFFFFFFFFF AND MUL OR SWAP1 SSTORE POP PUSH1 0x4 DUP3 ADD SLOAD DUP2 PUSH1 0x4 ADD SSTORE PUSH1 0x5 DUP3 ADD PUSH1 0x0 SWAP1 SLOAD SWAP1 PUSH2 0x100 EXP SWAP1 DIV PUSH4 0xFFFFFFFF AND DUP2 PUSH1 0x5 ADD PUSH1 0x0 PUSH2 0x100 EXP DUP2 SLOAD DUP2 PUSH4 0xFFFFFFFF MUL NOT AND SWAP1 DUP4 PUSH4 0xFFFFFFFF AND MUL OR SWAP1 SSTORE POP POP POP PUSH1 0x1 PUSH1 0x3 PUSH1 0x0 PUSH2 0xD2E PUSH1 0x5 PUSH2 0x17E7 JUMP JUMPDEST DUP2 MSTORE PUSH1 0x20 ADD SWAP1 DUP2 MSTORE PUSH1 0x20 ADD PUSH1 0x0 KECCAK256 SWAP1 DUP1 PUSH1 0x1 DUP2 SLOAD ADD DUP1 DUP3 SSTORE DUP1 SWAP2 POP POP PUSH1 0x1 SWAP1 SUB SWAP1 PUSH1 0x0 MSTORE PUSH1 0x20 PUSH1 0x0 KECCAK256 SWAP1 PUSH1 0x6 MUL ADD PUSH1 0x0 SWAP1 SWAP2 SWAP1 SWAP2 SWAP1 SWAP2 POP PUSH1 0x0 DUP3 ADD SLOAD DUP2 PUSH1 0x0 ADD SSTORE PUSH1 0x1 DUP3 ADD DUP2 PUSH1 0x1 ADD SWAP1 DUP1 SLOAD PUSH2 0xD83 SWAP1 PUSH2 0x26B2 JUMP JUMPDEST PUSH2 0xD8E SWAP3 SWAP2 SWAP1 PUSH2 0x1891 JUMP JUMPDEST POP PUSH1 0x2 DUP3 ADD SLOAD DUP2 PUSH1 0x2 ADD SSTORE PUSH1 0x3 DUP3 ADD PUSH1 0x0 SWAP1 SLOAD SWAP1 PUSH2 0x100 EXP SWAP1 DIV PUSH20 0xFFFFFFFFFFFFFFFFFFFFFFFFFFFFFFFFFFFFFFFF AND DUP2 PUSH1 0x3 ADD PUSH1 0x0 PUSH2 0x100 EXP DUP2 SLOAD DUP2 PUSH20 0xFFFFFFFFFFFFFFFFFFFFFFFFFFFFFFFFFFFFFFFF MUL NOT AND SWAP1 DUP4 PUSH20 0xFFFFFFFFFFFFFFFFFFFFFFFFFFFFFFFFFFFFFFFF AND MUL OR SWAP1 SSTORE POP PUSH1 0x4 DUP3 ADD SLOAD DUP2 PUSH1 0x4 ADD SSTORE PUSH1 0x5 DUP3 ADD PUSH1 0x0 SWAP1 SLOAD SWAP1 PUSH2 0x100 EXP SWAP1 DIV PUSH4 0xFFFFFFFF AND DUP2 PUSH1 0x5 ADD PUSH1 0x0 PUSH2 0x100 EXP DUP2 SLOAD DUP2 PUSH4 0xFFFFFFFF MUL NOT AND SWAP1 DUP4 PUSH4 0xFFFFFFFF AND MUL OR SWAP1 SSTORE POP POP POP PUSH2 0xE4D PUSH1 0x5 PUSH2 0x17F5 JUMP JUMPDEST CALLER PUSH20 0xFFFFFFFFFFFFFFFFFFFFFFFFFFFFFFFFFFFFFFFF AND PUSH32 0x9A5B8B5CB7F9C536EA5DB1A94142C9F716FB3A8698A9C70A5B8BFAD3922CB06C PUSH2 0xE8F PUSH1 0x5 PUSH2 0x17E7 JUMP JUMPDEST DUP6 DUP6 DUP6 PUSH1 0x3 PUSH1 0x0 PUSH2 0xEA0 PUSH1 0x5 PUSH2 0x17E7 JUMP JUMPDEST DUP2 MSTORE PUSH1 0x20 ADD SWAP1 DUP2 MSTORE PUSH1 0x20 ADD PUSH1 0x0 KECCAK256 PUSH1 0x2 ADD SLOAD PUSH1 0x40 MLOAD PUSH2 0xEC3 SWAP6 SWAP5 SWAP4 SWAP3 SWAP2 SWAP1 PUSH2 0x23FA JUMP JUMPDEST PUSH1 0x40 MLOAD DUP1 SWAP2 SUB SWAP1 LOG2 POP POP POP JUMP JUMPDEST PUSH1 0x60 PUSH1 0x0 PUSH2 0xEDE PUSH1 0x5 PUSH2 0x17E7 JUMP JUMPDEST GT PUSH2 0xF1E JUMPI PUSH1 0x40 MLOAD PUSH32 0x8C379A000000000000000000000000000000000000000000000000000000000 DUP2 MSTORE PUSH1 0x4 ADD PUSH2 0xF15 SWAP1 PUSH2 0x2229 JUMP JUMPDEST PUSH1 0x40 MLOAD DUP1 SWAP2 SUB SWAP1 REVERT JUMPDEST CALLER PUSH20 0xFFFFFFFFFFFFFFFFFFFFFFFFFFFFFFFFFFFFFFFF AND PUSH32 0x440C078A5E11BFF85C6B6D7C52F378C8220355BD3331EC889638C0ECA883670C PUSH1 0x1 PUSH1 0x40 MLOAD PUSH2 0xF65 SWAP2 SWAP1 PUSH2 0x21EC JUMP JUMPDEST PUSH1 0x40 MLOAD DUP1 SWAP2 SUB SWAP1 LOG2 PUSH1 0x1 DUP1 SLOAD DUP1 PUSH1 0x20 MUL PUSH1 0x20 ADD PUSH1 0x40 MLOAD SWAP1 DUP2 ADD PUSH1 0x40 MSTORE DUP1 SWAP3 SWAP2 SWAP1 DUP2 DUP2 MSTORE PUSH1 0x20 ADD PUSH1 0x0 SWAP1 JUMPDEST DUP3 DUP3 LT ISZERO PUSH2 0x10ED JUMPI DUP4 DUP3 SWAP1 PUSH1 0x0 MSTORE PUSH1 0x20 PUSH1 0x0 KECCAK256 SWAP1 PUSH1 0x6 MUL ADD PUSH1 0x40 MLOAD DUP1 PUSH1 0xC0 ADD PUSH1 0x40 MSTORE SWAP1 DUP2 PUSH1 0x0 DUP3 ADD SLOAD DUP2 MSTORE PUSH1 0x20 ADD PUSH1 0x1 DUP3 ADD DUP1 SLOAD PUSH2 0xFCC SWAP1 PUSH2 0x26B2 JUMP JUMPDEST DUP1 PUSH1 0x1F ADD PUSH1 0x20 DUP1 SWAP2 DIV MUL PUSH1 0x20 ADD PUSH1 0x40 MLOAD SWAP1 DUP2 ADD PUSH1 0x40 MSTORE DUP1 SWAP3 SWAP2 SWAP1 DUP2 DUP2 MSTORE PUSH1 0x20 ADD DUP3 DUP1 SLOAD PUSH2 0xFF8 SWAP1 PUSH2 0x26B2 JUMP JUMPDEST DUP1 ISZERO PUSH2 0x1045 JUMPI DUP1 PUSH1 0x1F LT PUSH2 0x101A JUMPI PUSH2 0x100 DUP1 DUP4 SLOAD DIV MUL DUP4 MSTORE SWAP2 PUSH1 0x20 ADD SWAP2 PUSH2 0x1045 JUMP JUMPDEST DUP3 ADD SWAP2 SWAP1 PUSH1 0x0 MSTORE PUSH1 0x20 PUSH1 0x0 KECCAK256 SWAP1 JUMPDEST DUP2 SLOAD DUP2 MSTORE SWAP1 PUSH1 0x1 ADD SWAP1 PUSH1 0x20 ADD DUP1 DUP4 GT PUSH2 0x1028 JUMPI DUP3 SWAP1 SUB PUSH1 0x1F AND DUP3 ADD SWAP2 JUMPDEST POP POP POP POP POP DUP2 MSTORE PUSH1 0x20 ADD PUSH1 0x2 DUP3 ADD SLOAD DUP2 MSTORE PUSH1 0x20 ADD PUSH1 0x3 DUP3 ADD PUSH1 0x0 SWAP1 SLOAD SWAP1 PUSH2 0x100 EXP SWAP1 DIV PUSH20 0xFFFFFFFFFFFFFFFFFFFFFFFFFFFFFFFFFFFFFFFF AND PUSH20 0xFFFFFFFFFFFFFFFFFFFFFFFFFFFFFFFFFFFFFFFF AND PUSH20 0xFFFFFFFFFFFFFFFFFFFFFFFFFFFFFFFFFFFFFFFF AND DUP2 MSTORE PUSH1 0x20 ADD PUSH1 0x4 DUP3 ADD SLOAD DUP2 MSTORE PUSH1 0x20 ADD PUSH1 0x5 DUP3 ADD PUSH1 0x0 SWAP1 SLOAD SWAP1 PUSH2 0x100 EXP SWAP1 DIV PUSH4 0xFFFFFFFF AND PUSH4 0xFFFFFFFF AND PUSH4 0xFFFFFFFF AND DUP2 MSTORE POP POP DUP2 MSTORE PUSH1 0x20 ADD SWAP1 PUSH1 0x1 ADD SWAP1 PUSH2 0xF8F JUMP JUMPDEST POP POP POP POP SWAP1 POP SWAP1 JUMP JUMPDEST PUSH1 0x2 PUSH1 0x20 MSTORE DUP1 PUSH1 0x0 MSTORE PUSH1 0x40 PUSH1 0x0 KECCAK256 PUSH1 0x0 SWAP2 POP SWAP1 POP DUP1 PUSH1 0x0 ADD SLOAD SWAP1 DUP1 PUSH1 0x1 ADD DUP1 SLOAD PUSH2 0x111F SWAP1 PUSH2 0x26B2 JUMP JUMPDEST DUP1 PUSH1 0x1F ADD PUSH1 0x20 DUP1 SWAP2 DIV MUL PUSH1 0x20 ADD PUSH1 0x40 MLOAD SWAP1 DUP2 ADD PUSH1 0x40 MSTORE DUP1 SWAP3 SWAP2 SWAP1 DUP2 DUP2 MSTORE PUSH1 0x20 ADD DUP3 DUP1 SLOAD PUSH2 0x114B SWAP1 PUSH2 0x26B2 JUMP JUMPDEST DUP1 ISZERO PUSH2 0x1198 JUMPI DUP1 PUSH1 0x1F LT PUSH2 0x116D JUMPI PUSH2 0x100 DUP1 DUP4 SLOAD DIV MUL DUP4 MSTORE SWAP2 PUSH1 0x20 ADD SWAP2 PUSH2 0x1198 JUMP JUMPDEST DUP3 ADD SWAP2 SWAP1 PUSH1 0x0 MSTORE PUSH1 0x20 PUSH1 0x0 KECCAK256 SWAP1 JUMPDEST DUP2 SLOAD DUP2 MSTORE SWAP1 PUSH1 0x1 ADD SWAP1 PUSH1 0x20 ADD DUP1 DUP4 GT PUSH2 0x117B JUMPI DUP3 SWAP1 SUB PUSH1 0x1F AND DUP3 ADD SWAP2 JUMPDEST POP POP POP POP POP SWAP1 DUP1 PUSH1 0x2 ADD DUP1 SLOAD PUSH2 0x11AD SWAP1 PUSH2 0x26B2 JUMP JUMPDEST DUP1 PUSH1 0x1F ADD PUSH1 0x20 DUP1 SWAP2 DIV MUL PUSH1 0x20 ADD PUSH1 0x40 MLOAD SWAP1 DUP2 ADD PUSH1 0x40 MSTORE DUP1 SWAP3 SWAP2 SWAP1 DUP2 DUP2 MSTORE PUSH1 0x20 ADD DUP3 DUP1 SLOAD PUSH2 0x11D9 SWAP1 PUSH2 0x26B2 JUMP JUMPDEST DUP1 ISZERO PUSH2 0x1226 JUMPI DUP1 PUSH1 0x1F LT PUSH2 0x11FB JUMPI PUSH2 0x100 DUP1 DUP4 SLOAD DIV MUL DUP4 MSTORE SWAP2 PUSH1 0x20 ADD SWAP2 PUSH2 0x1226 JUMP JUMPDEST DUP3 ADD SWAP2 SWAP1 PUSH1 0x0 MSTORE PUSH1 0x20 PUSH1 0x0 KECCAK256 SWAP1 JUMPDEST DUP2 SLOAD DUP2 MSTORE SWAP1 PUSH1 0x1 ADD SWAP1 PUSH1 0x20 ADD DUP1 DUP4 GT PUSH2 0x1209 JUMPI DUP3 SWAP1 SUB PUSH1 0x1F AND DUP3 ADD SWAP2 JUMPDEST POP POP POP POP POP SWAP1 DUP1 PUSH1 0x5 ADD SLOAD SWAP1 POP DUP5 JUMP JUMPDEST PUSH1 0x3 PUSH1 0x20 MSTORE DUP1 PUSH1 0x0 MSTORE PUSH1 0x40 PUSH1 0x0 KECCAK256 PUSH1 0x0 SWAP2 POP SWAP1 POP DUP1 PUSH1 0x0 ADD SLOAD SWAP1 DUP1 PUSH1 0x1 ADD DUP1 SLOAD PUSH2 0x125F SWAP1 PUSH2 0x26B2 JUMP JUMPDEST DUP1 PUSH1 0x1F ADD PUSH1 0x20 DUP1 SWAP2 DIV MUL PUSH1 0x20 ADD PUSH1 0x40 MLOAD SWAP1 DUP2 ADD PUSH1 0x40 MSTORE DUP1 SWAP3 SWAP2 SWAP1 DUP2 DUP2 MSTORE PUSH1 0x20 ADD DUP3 DUP1 SLOAD PUSH2 0x128B SWAP1 PUSH2 0x26B2 JUMP JUMPDEST DUP1 ISZERO PUSH2 0x12D8 JUMPI DUP1 PUSH1 0x1F LT PUSH2 0x12AD JUMPI PUSH2 0x100 DUP1 DUP4 SLOAD DIV MUL DUP4 MSTORE SWAP2 PUSH1 0x20 ADD SWAP2 PUSH2 0x12D8 JUMP JUMPDEST DUP3 ADD SWAP2 SWAP1 PUSH1 0x0 MSTORE PUSH1 0x20 PUSH1 0x0 KECCAK256 SWAP1 JUMPDEST DUP2 SLOAD DUP2 MSTORE SWAP1 PUSH1 0x1 ADD SWAP1 PUSH1 0x20 ADD DUP1 DUP4 GT PUSH2 0x12BB JUMPI DUP3 SWAP1 SUB PUSH1 0x1F AND DUP3 ADD SWAP2 JUMPDEST POP POP POP POP POP SWAP1 DUP1 PUSH1 0x2 ADD SLOAD SWAP1 DUP1 PUSH1 0x3 ADD PUSH1 0x0 SWAP1 SLOAD SWAP1 PUSH2 0x100 EXP SWAP1 DIV PUSH20 0xFFFFFFFFFFFFFFFFFFFFFFFFFFFFFFFFFFFFFFFF AND SWAP1 DUP1 PUSH1 0x4 ADD SLOAD SWAP1 DUP1 PUSH1 0x5 ADD PUSH1 0x0 SWAP1 SLOAD SWAP1 PUSH2 0x100 EXP SWAP1 DIV PUSH4 0xFFFFFFFF AND SWAP1 POP DUP7 JUMP JUMPDEST DUP1 PUSH1 0x0 PUSH1 0x3 PUSH1 0x0 DUP4 DUP2 MSTORE PUSH1 0x20 ADD SWAP1 DUP2 MSTORE PUSH1 0x20 ADD PUSH1 0x0 KECCAK256 PUSH1 0x40 MLOAD DUP1 PUSH1 0xC0 ADD PUSH1 0x40 MSTORE SWAP1 DUP2 PUSH1 0x0 DUP3 ADD SLOAD DUP2 MSTORE PUSH1 0x20 ADD PUSH1 0x1 DUP3 ADD DUP1 SLOAD PUSH2 0x1365 SWAP1 PUSH2 0x26B2 JUMP JUMPDEST DUP1 PUSH1 0x1F ADD PUSH1 0x20 DUP1 SWAP2 DIV MUL PUSH1 0x20 ADD PUSH1 0x40 MLOAD SWAP1 DUP2 ADD PUSH1 0x40 MSTORE DUP1 SWAP3 SWAP2 SWAP1 DUP2 DUP2 MSTORE PUSH1 0x20 ADD DUP3 DUP1 SLOAD PUSH2 0x1391 SWAP1 PUSH2 0x26B2 JUMP JUMPDEST DUP1 ISZERO PUSH2 0x13DE JUMPI DUP1 PUSH1 0x1F LT PUSH2 0x13B3 JUMPI PUSH2 0x100 DUP1 DUP4 SLOAD DIV MUL DUP4 MSTORE SWAP2 PUSH1 0x20 ADD SWAP2 PUSH2 0x13DE JUMP JUMPDEST DUP3 ADD SWAP2 SWAP1 PUSH1 0x0 MSTORE PUSH1 0x20 PUSH1 0x0 KECCAK256 SWAP1 JUMPDEST DUP2 SLOAD DUP2 MSTORE SWAP1 PUSH1 0x1 ADD SWAP1 PUSH1 0x20 ADD DUP1 DUP4 GT PUSH2 0x13C1 JUMPI DUP3 SWAP1 SUB PUSH1 0x1F AND DUP3 ADD SWAP2 JUMPDEST POP POP POP POP POP DUP2 MSTORE PUSH1 0x20 ADD PUSH1 0x2 DUP3 ADD SLOAD DUP2 MSTORE PUSH1 0x20 ADD PUSH1 0x3 DUP3 ADD PUSH1 0x0 SWAP1 SLOAD SWAP1 PUSH2 0x100 EXP SWAP1 DIV PUSH20 0xFFFFFFFFFFFFFFFFFFFFFFFFFFFFFFFFFFFFFFFF AND PUSH20 0xFFFFFFFFFFFFFFFFFFFFFFFFFFFFFFFFFFFFFFFF AND PUSH20 0xFFFFFFFFFFFFFFFFFFFFFFFFFFFFFFFFFFFFFFFF AND DUP2 MSTORE PUSH1 0x20 ADD PUSH1 0x4 DUP3 ADD SLOAD DUP2 MSTORE PUSH1 0x20 ADD PUSH1 0x5 DUP3 ADD PUSH1 0x0 SWAP1 SLOAD SWAP1 PUSH2 0x100 EXP SWAP1 DIV PUSH4 0xFFFFFFFF AND PUSH4 0xFFFFFFFF AND PUSH4 0xFFFFFFFF AND DUP2 MSTORE POP POP SWAP1 POP TIMESTAMP DUP2 PUSH1 0xA0 ADD MLOAD PUSH4 0xFFFFFFFF AND LT ISZERO PUSH2 0x14C6 JUMPI PUSH1 0x40 MLOAD PUSH32 0x8C379A000000000000000000000000000000000000000000000000000000000 DUP2 MSTORE PUSH1 0x4 ADD PUSH2 0x14BD SWAP1 PUSH2 0x2269 JUMP JUMPDEST PUSH1 0x40 MLOAD DUP1 SWAP2 SUB SWAP1 REVERT JUMPDEST PUSH1 0x3 PUSH1 0x0 DUP5 DUP2 MSTORE PUSH1 0x20 ADD SWAP1 DUP2 MSTORE PUSH1 0x20 ADD PUSH1 0x0 KECCAK256 PUSH1 0x0 DUP1 DUP3 ADD PUSH1 0x0 SWAP1 SSTORE PUSH1 0x1 DUP3 ADD PUSH1 0x0 PUSH2 0x14F2 SWAP2 SWAP1 PUSH2 0x191E JUMP JUMPDEST PUSH1 0x2 DUP3 ADD PUSH1 0x0 SWAP1 SSTORE PUSH1 0x3 DUP3 ADD PUSH1 0x0 PUSH2 0x100 EXP DUP2 SLOAD SWAP1 PUSH20 0xFFFFFFFFFFFFFFFFFFFFFFFFFFFFFFFFFFFFFFFF MUL NOT AND SWAP1 SSTORE PUSH1 0x4 DUP3 ADD PUSH1 0x0 SWAP1 SSTORE PUSH1 0x5 DUP3 ADD PUSH1 0x0 PUSH2 0x100 EXP DUP2 SLOAD SWAP1 PUSH4 0xFFFFFFFF MUL NOT AND SWAP1 SSTORE POP POP CALLER PUSH20 0xFFFFFFFFFFFFFFFFFFFFFFFFFFFFFFFFFFFFFFFF AND PUSH32 0x45E4102CD0468B42F71C0179AA78051418C31C018E07A5091EB13B97FADBAB5E DUP5 PUSH1 0x40 MLOAD PUSH2 0x1588 SWAP2 SWAP1 PUSH2 0x22CB JUMP JUMPDEST PUSH1 0x40 MLOAD DUP1 SWAP2 SUB SWAP1 LOG2 POP POP POP JUMP JUMPDEST PUSH2 0x159D PUSH2 0x195E JUMP JUMPDEST DUP2 PUSH2 0x15A8 PUSH1 0x5 PUSH2 0x17E7 JUMP JUMPDEST DUP2 GT ISZERO PUSH2 0x15EA JUMPI PUSH1 0x40 MLOAD PUSH32 0x8C379A000000000000000000000000000000000000000000000000000000000 DUP2 MSTORE PUSH1 0x4 ADD PUSH2 0x15E1 SWAP1 PUSH2 0x2249 JUMP JUMPDEST PUSH1 0x40 MLOAD DUP1 SWAP2 SUB SWAP1 REVERT JUMPDEST CALLER PUSH20 0xFFFFFFFFFFFFFFFFFFFFFFFFFFFFFFFFFFFFFFFF AND PUSH32 0xCB718FFB18411374498C1CD31CB4D4C8068AF3C5B1546205F14C72BCD20F21BA DUP5 PUSH1 0x3 PUSH1 0x0 DUP8 DUP2 MSTORE PUSH1 0x20 ADD SWAP1 DUP2 MSTORE PUSH1 0x20 ADD PUSH1 0x0 KECCAK256 PUSH1 0x40 MLOAD PUSH2 0x1644 SWAP3 SWAP2 SWAP1 PUSH2 0x23A1 JUMP JUMPDEST PUSH1 0x40 MLOAD DUP1 SWAP2 SUB SWAP1 LOG2 PUSH1 0x3 PUSH1 0x0 DUP5 DUP2 MSTORE PUSH1 0x20 ADD SWAP1 DUP2 MSTORE PUSH1 0x20 ADD PUSH1 0x0 KECCAK256 PUSH1 0x40 MLOAD DUP1 PUSH1 0xC0 ADD PUSH1 0x40 MSTORE SWAP1 DUP2 PUSH1 0x0 DUP3 ADD SLOAD DUP2 MSTORE PUSH1 0x20 ADD PUSH1 0x1 DUP3 ADD DUP1 SLOAD PUSH2 0x1684 SWAP1 PUSH2 0x26B2 JUMP JUMPDEST DUP1 PUSH1 0x1F ADD PUSH1 0x20 DUP1 SWAP2 DIV MUL PUSH1 0x20 ADD PUSH1 0x40 MLOAD SWAP1 DUP2 ADD PUSH1 0x40 MSTORE DUP1 SWAP3 SWAP2 SWAP1 DUP2 DUP2 MSTORE PUSH1 0x20 ADD DUP3 DUP1 SLOAD PUSH2 0x16B0 SWAP1 PUSH2 0x26B2 JUMP JUMPDEST DUP1 ISZERO PUSH2 0x16FD JUMPI DUP1 PUSH1 0x1F LT PUSH2 0x16D2 JUMPI PUSH2 0x100 DUP1 DUP4 SLOAD DIV MUL DUP4 MSTORE SWAP2 PUSH1 0x20 ADD SWAP2 PUSH2 0x16FD JUMP JUMPDEST DUP3 ADD SWAP2 SWAP1 PUSH1 0x0 MSTORE PUSH1 0x20 PUSH1 0x0 KECCAK256 SWAP1 JUMPDEST DUP2 SLOAD DUP2 MSTORE SWAP1 PUSH1 0x1 ADD SWAP1 PUSH1 0x20 ADD DUP1 DUP4 GT PUSH2 0x16E0 JUMPI DUP3 SWAP1 SUB PUSH1 0x1F AND DUP3 ADD SWAP2 JUMPDEST POP POP POP POP POP DUP2 MSTORE PUSH1 0x20 ADD PUSH1 0x2 DUP3 ADD SLOAD DUP2 MSTORE PUSH1 0x20 ADD PUSH1 0x3 DUP3 ADD PUSH1 0x0 SWAP1 SLOAD SWAP1 PUSH2 0x100 EXP SWAP1 DIV PUSH20 0xFFFFFFFFFFFFFFFFFFFFFFFFFFFFFFFFFFFFFFFF AND PUSH20 0xFFFFFFFFFFFFFFFFFFFFFFFFFFFFFFFFFFFFFFFF AND PUSH20 0xFFFFFFFFFFFFFFFFFFFFFFFFFFFFFFFFFFFFFFFF AND DUP2 MSTORE PUSH1 0x20 ADD PUSH1 0x4 DUP3 ADD SLOAD DUP2 MSTORE PUSH1 0x20 ADD PUSH1 0x5 DUP3 ADD PUSH1 0x0 SWAP1 SLOAD SWAP1 PUSH2 0x100 EXP SWAP1 DIV PUSH4 0xFFFFFFFF AND PUSH4 0xFFFFFFFF AND PUSH4 0xFFFFFFFF AND DUP2 MSTORE POP POP SWAP2 POP POP SWAP2 SWAP1 POP JUMP JUMPDEST PUSH1 0x4 PUSH1 0x20 MSTORE DUP2 PUSH1 0x0 MSTORE PUSH1 0x40 PUSH1 0x0 KECCAK256 PUSH1 0x20 MSTORE DUP1 PUSH1 0x0 MSTORE PUSH1 0x40 PUSH1 0x0 KECCAK256 PUSH1 0x0 SWAP2 POP SWAP2 POP POP SLOAD DUP2 JUMP JUMPDEST PUSH1 0x0 DUP1 SLOAD SWAP1 PUSH2 0x100 EXP SWAP1 DIV PUSH20 0xFFFFFFFFFFFFFFFFFFFFFFFFFFFFFFFFFFFFFFFF AND DUP2 JUMP JUMPDEST PUSH1 0x0 DUP2 PUSH1 0x0 ADD SLOAD SWAP1 POP SWAP2 SWAP1 POP JUMP JUMPDEST PUSH1 0x1 DUP2 PUSH1 0x0 ADD PUSH1 0x0 DUP3 DUP3 SLOAD ADD SWAP3 POP POP DUP2 SWAP1 SSTORE POP POP JUMP JUMPDEST DUP3 DUP1 SLOAD PUSH2 0x1817 SWAP1 PUSH2 0x26B2 JUMP JUMPDEST SWAP1 PUSH1 0x0 MSTORE PUSH1 0x20 PUSH1 0x0 KECCAK256 SWAP1 PUSH1 0x1F ADD PUSH1 0x20 SWAP1 DIV DUP2 ADD SWAP3 DUP3 PUSH2 0x1839 JUMPI PUSH1 0x0 DUP6 SSTORE PUSH2 0x1880 JUMP JUMPDEST DUP3 PUSH1 0x1F LT PUSH2 0x1852 JUMPI DUP1 MLOAD PUSH1 0xFF NOT AND DUP4 DUP1 ADD OR DUP6 SSTORE PUSH2 0x1880 JUMP JUMPDEST DUP3 DUP1 ADD PUSH1 0x1 ADD DUP6 SSTORE DUP3 ISZERO PUSH2 0x1880 JUMPI SWAP2 DUP3 ADD JUMPDEST DUP3 DUP2 GT ISZERO PUSH2 0x187F JUMPI DUP3 MLOAD DUP3 SSTORE SWAP2 PUSH1 0x20 ADD SWAP2 SWAP1 PUSH1 0x1 ADD SWAP1 PUSH2 0x1864 JUMP JUMPDEST JUMPDEST POP SWAP1 POP PUSH2 0x188D SWAP2 SWAP1 PUSH2 0x19B0 JUMP JUMPDEST POP SWAP1 JUMP JUMPDEST DUP3 DUP1 SLOAD PUSH2 0x189D SWAP1 PUSH2 0x26B2 JUMP JUMPDEST SWAP1 PUSH1 0x0 MSTORE PUSH1 0x20 PUSH1 0x0 KECCAK256 SWAP1 PUSH1 0x1F ADD PUSH1 0x20 SWAP1 DIV DUP2 ADD SWAP3 DUP3 PUSH2 0x18BF JUMPI PUSH1 0x0 DUP6 SSTORE PUSH2 0x190D JUMP JUMPDEST DUP3 PUSH1 0x1F LT PUSH2 0x18D0 JUMPI DUP1 SLOAD DUP6 SSTORE PUSH2 0x190D JUMP JUMPDEST DUP3 DUP1 ADD PUSH1 0x1 ADD DUP6 SSTORE DUP3 ISZERO PUSH2 0x190D JUMPI PUSH1 0x0 MSTORE PUSH1 0x20 PUSH1 0x0 KECCAK256 SWAP2 PUSH1 0x1F ADD PUSH1 0x20 SWAP1 DIV DUP3 ADD JUMPDEST DUP3 DUP2 GT ISZERO PUSH2 0x190C JUMPI DUP3 SLOAD DUP3 SSTORE SWAP2 PUSH1 0x1 ADD SWAP2 SWAP1 PUSH1 0x1 ADD SWAP1 PUSH2 0x18F1 JUMP JUMPDEST JUMPDEST POP SWAP1 POP PUSH2 0x191A SWAP2 SWAP1 PUSH2 0x19B0 JUMP JUMPDEST POP SWAP1 JUMP JUMPDEST POP DUP1 SLOAD PUSH2 0x192A SWAP1 PUSH2 0x26B2 JUMP JUMPDEST PUSH1 0x0 DUP3 SSTORE DUP1 PUSH1 0x1F LT PUSH2 0x193C JUMPI POP PUSH2 0x195B JUMP JUMPDEST PUSH1 0x1F ADD PUSH1 0x20 SWAP1 DIV SWAP1 PUSH1 0x0 MSTORE PUSH1 0x20 PUSH1 0x0 KECCAK256 SWAP1 DUP2 ADD SWAP1 PUSH2 0x195A SWAP2 SWAP1 PUSH2 0x19B0 JUMP JUMPDEST JUMPDEST POP JUMP JUMPDEST PUSH1 0x40 MLOAD DUP1 PUSH1 0xC0 ADD PUSH1 0x40 MSTORE DUP1 PUSH1 0x0 DUP2 MSTORE PUSH1 0x20 ADD PUSH1 0x60 DUP2 MSTORE PUSH1 0x20 ADD PUSH1 0x0 DUP2 MSTORE PUSH1 0x20 ADD PUSH1 0x0 PUSH20 0xFFFFFFFFFFFFFFFFFFFFFFFFFFFFFFFFFFFFFFFF AND DUP2 MSTORE PUSH1 0x20 ADD PUSH1 0x0 DUP2 MSTORE PUSH1 0x20 ADD PUSH1 0x0 PUSH4 0xFFFFFFFF AND DUP2 MSTORE POP SWAP1 JUMP JUMPDEST JUMPDEST DUP1 DUP3 GT ISZERO PUSH2 0x19C9 JUMPI PUSH1 0x0 DUP2 PUSH1 0x0 SWAP1 SSTORE POP PUSH1 0x1 ADD PUSH2 0x19B1 JUMP JUMPDEST POP SWAP1 JUMP JUMPDEST PUSH1 0x0 PUSH2 0x19E0 PUSH2 0x19DB DUP5 PUSH2 0x2479 JUMP JUMPDEST PUSH2 0x2454 JUMP JUMPDEST SWAP1 POP DUP3 DUP2 MSTORE PUSH1 0x20 DUP2 ADD DUP5 DUP5 DUP5 ADD GT ISZERO PUSH2 0x19FC JUMPI PUSH2 0x19FB PUSH2 0x283E JUMP JUMPDEST JUMPDEST PUSH2 0x1A07 DUP5 DUP3 DUP6 PUSH2 0x2670 JUMP JUMPDEST POP SWAP4 SWAP3 POP POP POP JUMP JUMPDEST PUSH1 0x0 DUP2 CALLDATALOAD SWAP1 POP PUSH2 0x1A1E DUP2 PUSH2 0x295B JUMP JUMPDEST SWAP3 SWAP2 POP POP JUMP JUMPDEST PUSH1 0x0 DUP2 MLOAD SWAP1 POP PUSH2 0x1A33 DUP2 PUSH2 0x2972 JUMP JUMPDEST SWAP3 SWAP2 POP POP JUMP JUMPDEST PUSH1 0x0 DUP3 PUSH1 0x1F DUP4 ADD SLT PUSH2 0x1A4E JUMPI PUSH2 0x1A4D PUSH2 0x2839 JUMP JUMPDEST JUMPDEST DUP2 CALLDATALOAD PUSH2 0x1A5E DUP5 DUP3 PUSH1 0x20 DUP7 ADD PUSH2 0x19CD JUMP JUMPDEST SWAP2 POP POP SWAP3 SWAP2 POP POP JUMP JUMPDEST PUSH1 0x0 DUP2 CALLDATALOAD SWAP1 POP PUSH2 0x1A76 DUP2 PUSH2 0x2989 JUMP JUMPDEST SWAP3 SWAP2 POP POP JUMP JUMPDEST PUSH1 0x0 DUP2 CALLDATALOAD SWAP1 POP PUSH2 0x1A8B DUP2 PUSH2 0x29A0 JUMP JUMPDEST SWAP3 SWAP2 POP POP JUMP JUMPDEST PUSH1 0x0 PUSH1 0x20 DUP3 DUP5 SUB SLT ISZERO PUSH2 0x1AA7 JUMPI PUSH2 0x1AA6 PUSH2 0x2848 JUMP JUMPDEST JUMPDEST PUSH1 0x0 PUSH2 0x1AB5 DUP5 DUP3 DUP6 ADD PUSH2 0x1A0F JUMP JUMPDEST SWAP2 POP POP SWAP3 SWAP2 POP POP JUMP JUMPDEST PUSH1 0x0 PUSH1 0x20 DUP3 DUP5 SUB SLT ISZERO PUSH2 0x1AD4 JUMPI PUSH2 0x1AD3 PUSH2 0x2848 JUMP JUMPDEST JUMPDEST PUSH1 0x0 PUSH2 0x1AE2 DUP5 DUP3 DUP6 ADD PUSH2 0x1A24 JUMP JUMPDEST SWAP2 POP POP SWAP3 SWAP2 POP POP JUMP JUMPDEST PUSH1 0x0 PUSH1 0x20 DUP3 DUP5 SUB SLT ISZERO PUSH2 0x1B01 JUMPI PUSH2 0x1B00 PUSH2 0x2848 JUMP JUMPDEST JUMPDEST PUSH1 0x0 PUSH2 0x1B0F DUP5 DUP3 DUP6 ADD PUSH2 0x1A67 JUMP JUMPDEST SWAP2 POP POP SWAP3 SWAP2 POP POP JUMP JUMPDEST PUSH1 0x0 DUP1 PUSH1 0x40 DUP4 DUP6 SUB SLT ISZERO PUSH2 0x1B2F JUMPI PUSH2 0x1B2E PUSH2 0x2848 JUMP JUMPDEST JUMPDEST PUSH1 0x0 PUSH2 0x1B3D DUP6 DUP3 DUP7 ADD PUSH2 0x1A67 JUMP JUMPDEST SWAP3 POP POP PUSH1 0x20 PUSH2 0x1B4E DUP6 DUP3 DUP7 ADD PUSH2 0x1A0F JUMP JUMPDEST SWAP2 POP POP SWAP3 POP SWAP3 SWAP1 POP JUMP JUMPDEST PUSH1 0x0 DUP1 PUSH1 0x0 PUSH1 0x60 DUP5 DUP7 SUB SLT ISZERO PUSH2 0x1B71 JUMPI PUSH2 0x1B70 PUSH2 0x2848 JUMP JUMPDEST JUMPDEST PUSH1 0x0 PUSH2 0x1B7F DUP7 DUP3 DUP8 ADD PUSH2 0x1A67 JUMP JUMPDEST SWAP4 POP POP PUSH1 0x20 DUP5 ADD CALLDATALOAD PUSH8 0xFFFFFFFFFFFFFFFF DUP2 GT ISZERO PUSH2 0x1BA0 JUMPI PUSH2 0x1B9F PUSH2 0x2843 JUMP JUMPDEST JUMPDEST PUSH2 0x1BAC DUP7 DUP3 DUP8 ADD PUSH2 0x1A39 JUMP JUMPDEST SWAP3 POP POP PUSH1 0x40 PUSH2 0x1BBD DUP7 DUP3 DUP8 ADD PUSH2 0x1A7C JUMP JUMPDEST SWAP2 POP POP SWAP3 POP SWAP3 POP SWAP3 JUMP JUMPDEST PUSH1 0x0 DUP1 PUSH1 0x40 DUP4 DUP6 SUB SLT ISZERO PUSH2 0x1BDE JUMPI PUSH2 0x1BDD PUSH2 0x2848 JUMP JUMPDEST JUMPDEST PUSH1 0x0 PUSH2 0x1BEC DUP6 DUP3 DUP7 ADD PUSH2 0x1A67 JUMP JUMPDEST SWAP3 POP POP PUSH1 0x20 PUSH2 0x1BFD DUP6 DUP3 DUP7 ADD PUSH2 0x1A67 JUMP JUMPDEST SWAP2 POP POP SWAP3 POP SWAP3 SWAP1 POP JUMP JUMPDEST PUSH1 0x0 PUSH2 0x1C13 DUP4 DUP4 PUSH2 0x1EC3 JUMP JUMPDEST SWAP1 POP SWAP3 SWAP2 POP POP JUMP JUMPDEST PUSH1 0x0 PUSH2 0x1C27 DUP4 DUP4 PUSH2 0x1FD5 JUMP JUMPDEST SWAP1 POP SWAP3 SWAP2 POP POP JUMP JUMPDEST PUSH2 0x1C38 DUP2 PUSH2 0x25E2 JUMP JUMPDEST DUP3 MSTORE POP POP JUMP JUMPDEST PUSH2 0x1C47 DUP2 PUSH2 0x25E2 JUMP JUMPDEST DUP3 MSTORE POP POP JUMP JUMPDEST PUSH1 0x0 PUSH2 0x1C58 DUP3 PUSH2 0x24E4 JUMP JUMPDEST PUSH2 0x1C62 DUP2 DUP6 PUSH2 0x251F JUMP JUMPDEST SWAP4 POP DUP4 PUSH1 0x20 DUP3 MUL DUP6 ADD PUSH2 0x1C74 DUP6 PUSH2 0x24AA JUMP JUMPDEST DUP1 PUSH1 0x0 JUMPDEST DUP6 DUP2 LT ISZERO PUSH2 0x1CB0 JUMPI DUP5 DUP5 SUB DUP10 MSTORE DUP2 MLOAD PUSH2 0x1C91 DUP6 DUP3 PUSH2 0x1C07 JUMP JUMPDEST SWAP5 POP PUSH2 0x1C9C DUP4 PUSH2 0x2505 JUMP JUMPDEST SWAP3 POP PUSH1 0x20 DUP11 ADD SWAP10 POP POP PUSH1 0x1 DUP2 ADD SWAP1 POP PUSH2 0x1C78 JUMP JUMPDEST POP DUP3 SWAP8 POP DUP8 SWAP6 POP POP POP POP POP POP SWAP3 SWAP2 POP POP JUMP JUMPDEST PUSH1 0x0 PUSH2 0x1CCD DUP3 PUSH2 0x24EF JUMP JUMPDEST PUSH2 0x1CD7 DUP2 DUP6 PUSH2 0x251F JUMP JUMPDEST SWAP4 POP DUP4 PUSH1 0x20 DUP3 MUL DUP6 ADD PUSH2 0x1CE9 DUP6 PUSH2 0x24BA JUMP JUMPDEST DUP1 PUSH1 0x0 JUMPDEST DUP6 DUP2 LT ISZERO PUSH2 0x1D24 JUMPI DUP5 DUP5 SUB DUP10 MSTORE DUP2 PUSH2 0x1D05 DUP6 DUP3 PUSH2 0x1C1B JUMP JUMPDEST SWAP5 POP PUSH2 0x1D10 DUP4 PUSH2 0x2512 JUMP JUMPDEST SWAP3 POP PUSH1 0x20 DUP11 ADD SWAP10 POP POP PUSH1 0x1 DUP2 ADD SWAP1 POP PUSH2 0x1CED JUMP JUMPDEST POP DUP3 SWAP8 POP DUP8 SWAP6 POP POP POP POP POP POP SWAP3 SWAP2 POP POP JUMP JUMPDEST PUSH2 0x1D3F DUP2 PUSH2 0x263A JUMP JUMPDEST DUP3 MSTORE POP POP JUMP JUMPDEST PUSH1 0x0 PUSH2 0x1D50 DUP3 PUSH2 0x24FA JUMP JUMPDEST PUSH2 0x1D5A DUP2 DUP6 PUSH2 0x2530 JUMP JUMPDEST SWAP4 POP PUSH2 0x1D6A DUP2 DUP6 PUSH1 0x20 DUP7 ADD PUSH2 0x267F JUMP JUMPDEST PUSH2 0x1D73 DUP2 PUSH2 0x284D JUMP JUMPDEST DUP5 ADD SWAP2 POP POP SWAP3 SWAP2 POP POP JUMP JUMPDEST PUSH1 0x0 PUSH2 0x1D89 DUP3 PUSH2 0x24FA JUMP JUMPDEST PUSH2 0x1D93 DUP2 DUP6 PUSH2 0x2541 JUMP JUMPDEST SWAP4 POP PUSH2 0x1DA3 DUP2 DUP6 PUSH1 0x20 DUP7 ADD PUSH2 0x267F JUMP JUMPDEST PUSH2 0x1DAC DUP2 PUSH2 0x284D JUMP JUMPDEST DUP5 ADD SWAP2 POP POP SWAP3 SWAP2 POP POP JUMP JUMPDEST PUSH1 0x0 DUP2 SLOAD PUSH2 0x1DC4 DUP2 PUSH2 0x26B2 JUMP JUMPDEST PUSH2 0x1DCE DUP2 DUP7 PUSH2 0x2530 JUMP JUMPDEST SWAP5 POP PUSH1 0x1 DUP3 AND PUSH1 0x0 DUP2 EQ PUSH2 0x1DE9 JUMPI PUSH1 0x1 DUP2 EQ PUSH2 0x1DFB JUMPI PUSH2 0x1E2E JUMP JUMPDEST PUSH1 0xFF NOT DUP4 AND DUP7 MSTORE PUSH1 0x20 DUP7 ADD SWAP4 POP PUSH2 0x1E2E JUMP JUMPDEST PUSH2 0x1E04 DUP6 PUSH2 0x24CF JUMP JUMPDEST PUSH1 0x0 JUMPDEST DUP4 DUP2 LT ISZERO PUSH2 0x1E26 JUMPI DUP2 SLOAD DUP2 DUP10 ADD MSTORE PUSH1 0x1 DUP3 ADD SWAP2 POP PUSH1 0x20 DUP2 ADD SWAP1 POP PUSH2 0x1E07 JUMP JUMPDEST DUP1 DUP9 ADD SWAP6 POP POP POP JUMPDEST POP POP POP SWAP3 SWAP2 POP POP JUMP JUMPDEST PUSH1 0x0 PUSH2 0x1E44 PUSH1 0x22 DUP4 PUSH2 0x2541 JUMP JUMPDEST SWAP2 POP PUSH2 0x1E4F DUP3 PUSH2 0x286B JUMP JUMPDEST PUSH1 0x40 DUP3 ADD SWAP1 POP SWAP2 SWAP1 POP JUMP JUMPDEST PUSH1 0x0 PUSH2 0x1E67 PUSH1 0x1D DUP4 PUSH2 0x2541 JUMP JUMPDEST SWAP2 POP PUSH2 0x1E72 DUP3 PUSH2 0x28BA JUMP JUMPDEST PUSH1 0x20 DUP3 ADD SWAP1 POP SWAP2 SWAP1 POP JUMP JUMPDEST PUSH1 0x0 PUSH2 0x1E8A PUSH1 0x15 DUP4 PUSH2 0x2541 JUMP JUMPDEST SWAP2 POP PUSH2 0x1E95 DUP3 PUSH2 0x28E3 JUMP JUMPDEST PUSH1 0x20 DUP3 ADD SWAP1 POP SWAP2 SWAP1 POP JUMP JUMPDEST PUSH1 0x0 PUSH2 0x1EAD PUSH1 0x2C DUP4 PUSH2 0x2541 JUMP JUMPDEST SWAP2 POP PUSH2 0x1EB8 DUP3 PUSH2 0x290C JUMP JUMPDEST PUSH1 0x40 DUP3 ADD SWAP1 POP SWAP2 SWAP1 POP JUMP JUMPDEST PUSH1 0x0 PUSH1 0xC0 DUP4 ADD PUSH1 0x0 DUP4 ADD MLOAD PUSH2 0x1EDB PUSH1 0x0 DUP7 ADD DUP3 PUSH2 0x2157 JUMP JUMPDEST POP PUSH1 0x20 DUP4 ADD MLOAD DUP5 DUP3 SUB PUSH1 0x20 DUP7 ADD MSTORE PUSH2 0x1EF3 DUP3 DUP3 PUSH2 0x1D45 JUMP JUMPDEST SWAP2 POP POP PUSH1 0x40 DUP4 ADD MLOAD PUSH2 0x1F08 PUSH1 0x40 DUP7 ADD DUP3 PUSH2 0x2157 JUMP JUMPDEST POP PUSH1 0x60 DUP4 ADD MLOAD PUSH2 0x1F1B PUSH1 0x60 DUP7 ADD DUP3 PUSH2 0x1C2F JUMP JUMPDEST POP PUSH1 0x80 DUP4 ADD MLOAD PUSH2 0x1F2E PUSH1 0x80 DUP7 ADD DUP3 PUSH2 0x2157 JUMP JUMPDEST POP PUSH1 0xA0 DUP4 ADD MLOAD PUSH2 0x1F41 PUSH1 0xA0 DUP7 ADD DUP3 PUSH2 0x2175 JUMP JUMPDEST POP DUP1 SWAP2 POP POP SWAP3 SWAP2 POP POP JUMP JUMPDEST PUSH1 0x0 PUSH1 0xC0 DUP4 ADD PUSH1 0x0 DUP4 ADD MLOAD PUSH2 0x1F64 PUSH1 0x0 DUP7 ADD DUP3 PUSH2 0x2157 JUMP JUMPDEST POP PUSH1 0x20 DUP4 ADD MLOAD DUP5 DUP3 SUB PUSH1 0x20 DUP7 ADD MSTORE PUSH2 0x1F7C DUP3 DUP3 PUSH2 0x1D45 JUMP JUMPDEST SWAP2 POP POP PUSH1 0x40 DUP4 ADD MLOAD PUSH2 0x1F91 PUSH1 0x40 DUP7 ADD DUP3 PUSH2 0x2157 JUMP JUMPDEST POP PUSH1 0x60 DUP4 ADD MLOAD PUSH2 0x1FA4 PUSH1 0x60 DUP7 ADD DUP3 PUSH2 0x1C2F JUMP JUMPDEST POP PUSH1 0x80 DUP4 ADD MLOAD PUSH2 0x1FB7 PUSH1 0x80 DUP7 ADD DUP3 PUSH2 0x2157 JUMP JUMPDEST POP PUSH1 0xA0 DUP4 ADD MLOAD PUSH2 0x1FCA PUSH1 0xA0 DUP7 ADD DUP3 PUSH2 0x2175 JUMP JUMPDEST POP DUP1 SWAP2 POP POP SWAP3 SWAP2 POP POP JUMP JUMPDEST PUSH1 0x0 PUSH1 0xC0 DUP4 ADD PUSH1 0x0 DUP1 DUP5 ADD SLOAD SWAP1 POP PUSH2 0x1FEC DUP2 PUSH2 0x26FE JUMP JUMPDEST PUSH2 0x1FF9 PUSH1 0x0 DUP8 ADD DUP3 PUSH2 0x2157 JUMP JUMPDEST POP PUSH1 0x1 DUP5 ADD DUP6 DUP4 SUB PUSH1 0x20 DUP8 ADD MSTORE PUSH2 0x2010 DUP4 DUP3 PUSH2 0x1DB7 JUMP JUMPDEST SWAP3 POP POP PUSH1 0x2 DUP5 ADD SLOAD SWAP1 POP PUSH2 0x2023 DUP2 PUSH2 0x26FE JUMP JUMPDEST PUSH2 0x2030 PUSH1 0x40 DUP8 ADD DUP3 PUSH2 0x2157 JUMP JUMPDEST POP PUSH1 0x3 DUP5 ADD SLOAD SWAP1 POP PUSH2 0x2041 DUP2 PUSH2 0x26E4 JUMP JUMPDEST PUSH2 0x204E PUSH1 0x60 DUP8 ADD DUP3 PUSH2 0x1C2F JUMP JUMPDEST POP PUSH1 0x4 DUP5 ADD SLOAD SWAP1 POP PUSH2 0x205F DUP2 PUSH2 0x26FE JUMP JUMPDEST PUSH2 0x206C PUSH1 0x80 DUP8 ADD DUP3 PUSH2 0x2157 JUMP JUMPDEST POP PUSH1 0x5 DUP5 ADD SLOAD SWAP1 POP PUSH2 0x207D DUP2 PUSH2 0x2718 JUMP JUMPDEST PUSH2 0x208A PUSH1 0xA0 DUP8 ADD DUP3 PUSH2 0x2175 JUMP JUMPDEST POP DUP2 SWAP3 POP POP POP SWAP3 SWAP2 POP POP JUMP JUMPDEST PUSH1 0x0 PUSH1 0xC0 DUP4 ADD PUSH1 0x0 DUP1 DUP5 ADD SLOAD SWAP1 POP PUSH2 0x20AD DUP2 PUSH2 0x26FE JUMP JUMPDEST PUSH2 0x20BA PUSH1 0x0 DUP8 ADD DUP3 PUSH2 0x2157 JUMP JUMPDEST POP PUSH1 0x1 DUP5 ADD DUP6 DUP4 SUB PUSH1 0x20 DUP8 ADD MSTORE PUSH2 0x20D1 DUP4 DUP3 PUSH2 0x1DB7 JUMP JUMPDEST SWAP3 POP POP PUSH1 0x2 DUP5 ADD SLOAD SWAP1 POP PUSH2 0x20E4 DUP2 PUSH2 0x26FE JUMP JUMPDEST PUSH2 0x20F1 PUSH1 0x40 DUP8 ADD DUP3 PUSH2 0x2157 JUMP JUMPDEST POP PUSH1 0x3 DUP5 ADD SLOAD SWAP1 POP PUSH2 0x2102 DUP2 PUSH2 0x26E4 JUMP JUMPDEST PUSH2 0x210F PUSH1 0x60 DUP8 ADD DUP3 PUSH2 0x1C2F JUMP JUMPDEST POP PUSH1 0x4 DUP5 ADD SLOAD SWAP1 POP PUSH2 0x2120 DUP2 PUSH2 0x26FE JUMP JUMPDEST PUSH2 0x212D PUSH1 0x80 DUP8 ADD DUP3 PUSH2 0x2157 JUMP JUMPDEST POP PUSH1 0x5 DUP5 ADD SLOAD SWAP1 POP PUSH2 0x213E DUP2 PUSH2 0x2718 JUMP JUMPDEST PUSH2 0x214B PUSH1 0xA0 DUP8 ADD DUP3 PUSH2 0x2175 JUMP JUMPDEST POP DUP2 SWAP3 POP POP POP SWAP3 SWAP2 POP POP JUMP JUMPDEST PUSH2 0x2160 DUP2 PUSH2 0x2620 JUMP JUMPDEST DUP3 MSTORE POP POP JUMP JUMPDEST PUSH2 0x216F DUP2 PUSH2 0x2620 JUMP JUMPDEST DUP3 MSTORE POP POP JUMP JUMPDEST PUSH2 0x217E DUP2 PUSH2 0x262A JUMP JUMPDEST DUP3 MSTORE POP POP JUMP JUMPDEST PUSH2 0x218D DUP2 PUSH2 0x262A JUMP JUMPDEST DUP3 MSTORE POP POP JUMP JUMPDEST PUSH1 0x0 PUSH1 0x60 DUP3 ADD SWAP1 POP PUSH2 0x21A8 PUSH1 0x0 DUP4 ADD DUP7 PUSH2 0x1C3E JUMP JUMPDEST PUSH2 0x21B5 PUSH1 0x20 DUP4 ADD DUP6 PUSH2 0x1C3E JUMP JUMPDEST PUSH2 0x21C2 PUSH1 0x40 DUP4 ADD DUP5 PUSH2 0x2166 JUMP JUMPDEST SWAP5 SWAP4 POP POP POP POP JUMP JUMPDEST PUSH1 0x0 PUSH1 0x20 DUP3 ADD SWAP1 POP DUP2 DUP2 SUB PUSH1 0x0 DUP4 ADD MSTORE PUSH2 0x21E4 DUP2 DUP5 PUSH2 0x1C4D JUMP JUMPDEST SWAP1 POP SWAP3 SWAP2 POP POP JUMP JUMPDEST PUSH1 0x0 PUSH1 0x20 DUP3 ADD SWAP1 POP DUP2 DUP2 SUB PUSH1 0x0 DUP4 ADD MSTORE PUSH2 0x2206 DUP2 DUP5 PUSH2 0x1CC2 JUMP JUMPDEST SWAP1 POP SWAP3 SWAP2 POP POP JUMP JUMPDEST PUSH1 0x0 PUSH1 0x20 DUP3 ADD SWAP1 POP PUSH2 0x2223 PUSH1 0x0 DUP4 ADD DUP5 PUSH2 0x1D36 JUMP JUMPDEST SWAP3 SWAP2 POP POP JUMP JUMPDEST PUSH1 0x0 PUSH1 0x20 DUP3 ADD SWAP1 POP DUP2 DUP2 SUB PUSH1 0x0 DUP4 ADD MSTORE PUSH2 0x2242 DUP2 PUSH2 0x1E37 JUMP JUMPDEST SWAP1 POP SWAP2 SWAP1 POP JUMP JUMPDEST PUSH1 0x0 PUSH1 0x20 DUP3 ADD SWAP1 POP DUP2 DUP2 SUB PUSH1 0x0 DUP4 ADD MSTORE PUSH2 0x2262 DUP2 PUSH2 0x1E5A JUMP JUMPDEST SWAP1 POP SWAP2 SWAP1 POP JUMP JUMPDEST PUSH1 0x0 PUSH1 0x20 DUP3 ADD SWAP1 POP DUP2 DUP2 SUB PUSH1 0x0 DUP4 ADD MSTORE PUSH2 0x2282 DUP2 PUSH2 0x1E7D JUMP JUMPDEST SWAP1 POP SWAP2 SWAP1 POP JUMP JUMPDEST PUSH1 0x0 PUSH1 0x20 DUP3 ADD SWAP1 POP DUP2 DUP2 SUB PUSH1 0x0 DUP4 ADD MSTORE PUSH2 0x22A2 DUP2 PUSH2 0x1EA0 JUMP JUMPDEST SWAP1 POP SWAP2 SWAP1 POP JUMP JUMPDEST PUSH1 0x0 PUSH1 0x20 DUP3 ADD SWAP1 POP DUP2 DUP2 SUB PUSH1 0x0 DUP4 ADD MSTORE PUSH2 0x22C3 DUP2 DUP5 PUSH2 0x1F4C JUMP JUMPDEST SWAP1 POP SWAP3 SWAP2 POP POP JUMP JUMPDEST PUSH1 0x0 PUSH1 0x20 DUP3 ADD SWAP1 POP PUSH2 0x22E0 PUSH1 0x0 DUP4 ADD DUP5 PUSH2 0x2166 JUMP JUMPDEST SWAP3 SWAP2 POP POP JUMP JUMPDEST PUSH1 0x0 PUSH1 0x80 DUP3 ADD SWAP1 POP PUSH2 0x22FB PUSH1 0x0 DUP4 ADD DUP8 PUSH2 0x2166 JUMP JUMPDEST DUP2 DUP2 SUB PUSH1 0x20 DUP4 ADD MSTORE PUSH2 0x230D DUP2 DUP7 PUSH2 0x1D7E JUMP JUMPDEST SWAP1 POP DUP2 DUP2 SUB PUSH1 0x40 DUP4 ADD MSTORE PUSH2 0x2321 DUP2 DUP6 PUSH2 0x1D7E JUMP JUMPDEST SWAP1 POP PUSH2 0x2330 PUSH1 0x60 DUP4 ADD DUP5 PUSH2 0x2166 JUMP JUMPDEST SWAP6 SWAP5 POP POP POP POP POP JUMP JUMPDEST PUSH1 0x0 PUSH1 0xC0 DUP3 ADD SWAP1 POP PUSH2 0x234E PUSH1 0x0 DUP4 ADD DUP10 PUSH2 0x2166 JUMP JUMPDEST DUP2 DUP2 SUB PUSH1 0x20 DUP4 ADD MSTORE PUSH2 0x2360 DUP2 DUP9 PUSH2 0x1D7E JUMP JUMPDEST SWAP1 POP PUSH2 0x236F PUSH1 0x40 DUP4 ADD DUP8 PUSH2 0x2166 JUMP JUMPDEST PUSH2 0x237C PUSH1 0x60 DUP4 ADD DUP7 PUSH2 0x1C3E JUMP JUMPDEST PUSH2 0x2389 PUSH1 0x80 DUP4 ADD DUP6 PUSH2 0x2166 JUMP JUMPDEST PUSH2 0x2396 PUSH1 0xA0 DUP4 ADD DUP5 PUSH2 0x2184 JUMP JUMPDEST SWAP8 SWAP7 POP POP POP POP POP POP POP JUMP JUMPDEST PUSH1 0x0 PUSH1 0x40 DUP3 ADD SWAP1 POP PUSH2 0x23B6 PUSH1 0x0 DUP4 ADD DUP6 PUSH2 0x2166 JUMP JUMPDEST DUP2 DUP2 SUB PUSH1 0x20 DUP4 ADD MSTORE PUSH2 0x23C8 DUP2 DUP5 PUSH2 0x2096 JUMP JUMPDEST SWAP1 POP SWAP4 SWAP3 POP POP POP JUMP JUMPDEST PUSH1 0x0 PUSH1 0x40 DUP3 ADD SWAP1 POP PUSH2 0x23E6 PUSH1 0x0 DUP4 ADD DUP6 PUSH2 0x2166 JUMP JUMPDEST PUSH2 0x23F3 PUSH1 0x20 DUP4 ADD DUP5 PUSH2 0x2166 JUMP JUMPDEST SWAP4 SWAP3 POP POP POP JUMP JUMPDEST PUSH1 0x0 PUSH1 0xA0 DUP3 ADD SWAP1 POP PUSH2 0x240F PUSH1 0x0 DUP4 ADD DUP9 PUSH2 0x2166 JUMP JUMPDEST PUSH2 0x241C PUSH1 0x20 DUP4 ADD DUP8 PUSH2 0x2166 JUMP JUMPDEST DUP2 DUP2 SUB PUSH1 0x40 DUP4 ADD MSTORE PUSH2 0x242E DUP2 DUP7 PUSH2 0x1D7E JUMP JUMPDEST SWAP1 POP PUSH2 0x243D PUSH1 0x60 DUP4 ADD DUP6 PUSH2 0x2184 JUMP JUMPDEST PUSH2 0x244A PUSH1 0x80 DUP4 ADD DUP5 PUSH2 0x2166 JUMP JUMPDEST SWAP7 SWAP6 POP POP POP POP POP POP JUMP JUMPDEST PUSH1 0x0 PUSH2 0x245E PUSH2 0x246F JUMP JUMPDEST SWAP1 POP PUSH2 0x246A DUP3 DUP3 PUSH2 0x2732 JUMP JUMPDEST SWAP2 SWAP1 POP JUMP JUMPDEST PUSH1 0x0 PUSH1 0x40 MLOAD SWAP1 POP SWAP1 JUMP JUMPDEST PUSH1 0x0 PUSH8 0xFFFFFFFFFFFFFFFF DUP3 GT ISZERO PUSH2 0x2494 JUMPI PUSH2 0x2493 PUSH2 0x280A JUMP JUMPDEST JUMPDEST PUSH2 0x249D DUP3 PUSH2 0x284D JUMP JUMPDEST SWAP1 POP PUSH1 0x20 DUP2 ADD SWAP1 POP SWAP2 SWAP1 POP JUMP JUMPDEST PUSH1 0x0 DUP2 SWAP1 POP PUSH1 0x20 DUP3 ADD SWAP1 POP SWAP2 SWAP1 POP JUMP JUMPDEST PUSH1 0x0 DUP2 SWAP1 POP DUP2 PUSH1 0x0 MSTORE PUSH1 0x20 PUSH1 0x0 KECCAK256 SWAP1 POP SWAP2 SWAP1 POP JUMP JUMPDEST PUSH1 0x0 DUP2 SWAP1 POP DUP2 PUSH1 0x0 MSTORE PUSH1 0x20 PUSH1 0x0 KECCAK256 SWAP1 POP SWAP2 SWAP1 POP JUMP JUMPDEST PUSH1 0x0 DUP2 MLOAD SWAP1 POP SWAP2 SWAP1 POP JUMP JUMPDEST PUSH1 0x0 DUP2 SLOAD SWAP1 POP SWAP2 SWAP1 POP JUMP JUMPDEST PUSH1 0x0 DUP2 MLOAD SWAP1 POP SWAP2 SWAP1 POP JUMP JUMPDEST PUSH1 0x0 PUSH1 0x20 DUP3 ADD SWAP1 POP SWAP2 SWAP1 POP JUMP JUMPDEST PUSH1 0x0 PUSH1 0x6 DUP3 ADD SWAP1 POP SWAP2 SWAP1 POP JUMP JUMPDEST PUSH1 0x0 DUP3 DUP3 MSTORE PUSH1 0x20 DUP3 ADD SWAP1 POP SWAP3 SWAP2 POP POP JUMP JUMPDEST PUSH1 0x0 DUP3 DUP3 MSTORE PUSH1 0x20 DUP3 ADD SWAP1 POP SWAP3 SWAP2 POP POP JUMP JUMPDEST PUSH1 0x0 DUP3 DUP3 MSTORE PUSH1 0x20 DUP3 ADD SWAP1 POP SWAP3 SWAP2 POP POP JUMP JUMPDEST PUSH1 0x0 PUSH2 0x255D DUP3 PUSH2 0x2620 JUMP JUMPDEST SWAP2 POP PUSH2 0x2568 DUP4 PUSH2 0x2620 JUMP JUMPDEST SWAP3 POP DUP3 PUSH32 0xFFFFFFFFFFFFFFFFFFFFFFFFFFFFFFFFFFFFFFFFFFFFFFFFFFFFFFFFFFFFFFFF SUB DUP3 GT ISZERO PUSH2 0x259D JUMPI PUSH2 0x259C PUSH2 0x27AC JUMP JUMPDEST JUMPDEST DUP3 DUP3 ADD SWAP1 POP SWAP3 SWAP2 POP POP JUMP JUMPDEST PUSH1 0x0 PUSH20 0xFFFFFFFFFFFFFFFFFFFFFFFFFFFFFFFFFFFFFFFF DUP3 AND SWAP1 POP SWAP2 SWAP1 POP JUMP JUMPDEST PUSH1 0x0 DUP2 SWAP1 POP SWAP2 SWAP1 POP JUMP JUMPDEST PUSH1 0x0 PUSH4 0xFFFFFFFF DUP3 AND SWAP1 POP SWAP2 SWAP1 POP JUMP JUMPDEST PUSH1 0x0 PUSH2 0x25ED DUP3 PUSH2 0x2600 JUMP JUMPDEST SWAP1 POP SWAP2 SWAP1 POP JUMP JUMPDEST PUSH1 0x0 DUP2 ISZERO ISZERO SWAP1 POP SWAP2 SWAP1 POP JUMP JUMPDEST PUSH1 0x0 PUSH20 0xFFFFFFFFFFFFFFFFFFFFFFFFFFFFFFFFFFFFFFFF DUP3 AND SWAP1 POP SWAP2 SWAP1 POP JUMP JUMPDEST PUSH1 0x0 DUP2 SWAP1 POP SWAP2 SWAP1 POP JUMP JUMPDEST PUSH1 0x0 PUSH4 0xFFFFFFFF DUP3 AND SWAP1 POP SWAP2 SWAP1 POP JUMP JUMPDEST PUSH1 0x0 PUSH2 0x2645 DUP3 PUSH2 0x264C JUMP JUMPDEST SWAP1 POP SWAP2 SWAP1 POP JUMP JUMPDEST PUSH1 0x0 PUSH2 0x2657 DUP3 PUSH2 0x265E JUMP JUMPDEST SWAP1 POP SWAP2 SWAP1 POP JUMP JUMPDEST PUSH1 0x0 PUSH2 0x2669 DUP3 PUSH2 0x2600 JUMP JUMPDEST SWAP1 POP SWAP2 SWAP1 POP JUMP JUMPDEST DUP3 DUP2 DUP4 CALLDATACOPY PUSH1 0x0 DUP4 DUP4 ADD MSTORE POP POP POP JUMP JUMPDEST PUSH1 0x0 JUMPDEST DUP4 DUP2 LT ISZERO PUSH2 0x269D JUMPI DUP1 DUP3 ADD MLOAD DUP2 DUP5 ADD MSTORE PUSH1 0x20 DUP2 ADD SWAP1 POP PUSH2 0x2682 JUMP JUMPDEST DUP4 DUP2 GT ISZERO PUSH2 0x26AC JUMPI PUSH1 0x0 DUP5 DUP5 ADD MSTORE JUMPDEST POP POP POP POP JUMP JUMPDEST PUSH1 0x0 PUSH1 0x2 DUP3 DIV SWAP1 POP PUSH1 0x1 DUP3 AND DUP1 PUSH2 0x26CA JUMPI PUSH1 0x7F DUP3 AND SWAP2 POP JUMPDEST PUSH1 0x20 DUP3 LT DUP2 EQ ISZERO PUSH2 0x26DE JUMPI PUSH2 0x26DD PUSH2 0x27DB JUMP JUMPDEST JUMPDEST POP SWAP2 SWAP1 POP JUMP JUMPDEST PUSH1 0x0 PUSH2 0x26F7 PUSH2 0x26F2 DUP4 PUSH2 0x285E JUMP JUMPDEST PUSH2 0x25A8 JUMP JUMPDEST SWAP1 POP SWAP2 SWAP1 POP JUMP JUMPDEST PUSH1 0x0 PUSH2 0x2711 PUSH2 0x270C DUP4 PUSH2 0x285E JUMP JUMPDEST PUSH2 0x25C8 JUMP JUMPDEST SWAP1 POP SWAP2 SWAP1 POP JUMP JUMPDEST PUSH1 0x0 PUSH2 0x272B PUSH2 0x2726 DUP4 PUSH2 0x285E JUMP JUMPDEST PUSH2 0x25D2 JUMP JUMPDEST SWAP1 POP SWAP2 SWAP1 POP JUMP JUMPDEST PUSH2 0x273B DUP3 PUSH2 0x284D JUMP JUMPDEST DUP2 ADD DUP2 DUP2 LT PUSH8 0xFFFFFFFFFFFFFFFF DUP3 GT OR ISZERO PUSH2 0x275A JUMPI PUSH2 0x2759 PUSH2 0x280A JUMP JUMPDEST JUMPDEST DUP1 PUSH1 0x40 MSTORE POP POP POP JUMP JUMPDEST PUSH1 0x0 PUSH2 0x276E DUP3 PUSH2 0x2620 JUMP JUMPDEST SWAP2 POP PUSH32 0xFFFFFFFFFFFFFFFFFFFFFFFFFFFFFFFFFFFFFFFFFFFFFFFFFFFFFFFFFFFFFFFF DUP3 EQ ISZERO PUSH2 0x27A1 JUMPI PUSH2 0x27A0 PUSH2 0x27AC JUMP JUMPDEST JUMPDEST PUSH1 0x1 DUP3 ADD SWAP1 POP SWAP2 SWAP1 POP JUMP JUMPDEST PUSH32 0x4E487B7100000000000000000000000000000000000000000000000000000000 PUSH1 0x0 MSTORE PUSH1 0x11 PUSH1 0x4 MSTORE PUSH1 0x24 PUSH1 0x0 REVERT JUMPDEST PUSH32 0x4E487B7100000000000000000000000000000000000000000000000000000000 PUSH1 0x0 MSTORE PUSH1 0x22 PUSH1 0x4 MSTORE PUSH1 0x24 PUSH1 0x0 REVERT JUMPDEST PUSH32 0x4E487B7100000000000000000000000000000000000000000000000000000000 PUSH1 0x0 MSTORE PUSH1 0x41 PUSH1 0x4 MSTORE PUSH1 0x24 PUSH1 0x0 REVERT JUMPDEST PUSH1 0x0 DUP1 REVERT JUMPDEST PUSH1 0x0 DUP1 REVERT JUMPDEST PUSH1 0x0 DUP1 REVERT JUMPDEST PUSH1 0x0 DUP1 REVERT JUMPDEST PUSH1 0x0 PUSH1 0x1F NOT PUSH1 0x1F DUP4 ADD AND SWAP1 POP SWAP2 SWAP1 POP JUMP JUMPDEST PUSH1 0x0 DUP2 PUSH1 0x0 SHR SWAP1 POP SWAP2 SWAP1 POP JUMP JUMPDEST PUSH32 0x546865726520617265206E6F2070726F647563747320746F206C697374207965 PUSH1 0x0 DUP3 ADD MSTORE PUSH32 0x7421000000000000000000000000000000000000000000000000000000000000 PUSH1 0x20 DUP3 ADD MSTORE POP JUMP JUMPDEST PUSH32 0x5468657265206973206E6F2073756368206974656D207265636F726421000000 PUSH1 0x0 DUP3 ADD MSTORE POP JUMP JUMPDEST PUSH32 0x5468652073616C65206861732065787069726564210000000000000000000000 PUSH1 0x0 DUP3 ADD MSTORE POP JUMP JUMPDEST PUSH32 0x5468657265206973206E6F7420656E6F7567682062616C616E636520696E2079 PUSH1 0x0 DUP3 ADD MSTORE PUSH32 0x6F7572206163636F756E74210000000000000000000000000000000000000000 PUSH1 0x20 DUP3 ADD MSTORE POP JUMP JUMPDEST PUSH2 0x2964 DUP2 PUSH2 0x25E2 JUMP JUMPDEST DUP2 EQ PUSH2 0x296F JUMPI PUSH1 0x0 DUP1 REVERT JUMPDEST POP JUMP JUMPDEST PUSH2 0x297B DUP2 PUSH2 0x25F4 JUMP JUMPDEST DUP2 EQ PUSH2 0x2986 JUMPI PUSH1 0x0 DUP1 REVERT JUMPDEST POP JUMP JUMPDEST PUSH2 0x2992 DUP2 PUSH2 0x2620 JUMP JUMPDEST DUP2 EQ PUSH2 0x299D JUMPI PUSH1 0x0 DUP1 REVERT JUMPDEST POP JUMP JUMPDEST PUSH2 0x29A9 DUP2 PUSH2 0x262A JUMP JUMPDEST DUP2 EQ PUSH2 0x29B4 JUMPI PUSH1 0x0 DUP1 REVERT JUMPDEST POP JUMP INVALID LOG2 PUSH5 0x6970667358 0x22 SLT KECCAK256 0xB7 0x4C MOD MUL 0xFB 0xB5 PUSH6 0x5F3414B536F3 0xDA RETURNDATACOPY 0xE1 0x2B SHR 0xBE CHAINID SELFBALANCE 0xE0 DIV LT DUP7 LOG0 LOG2 DUP7 0x4F CALLVALUE LOG1 MSTORE PUSH5 0x736F6C6343 STOP ADDMOD SMOD STOP CALLER "
				},
				"gasEstimates": {
					"creation": {
						"codeDepositCost": "2146600",
						"executionCost": "infinite",
						"totalCost": "infinite"
					},
					"external": {
						"addStar(uint256)": "infinite",
						"cancelSaleAdvert(uint256)": "infinite",
						"createSaleAdvert(uint256,string,uint32)": "infinite",
						"getEntireItems()": "infinite",
						"getItemById(uint256)": "infinite",
						"itemList(uint256)": "infinite",
						"items(uint256)": "infinite",
						"itemsOfUsers(uint256,address)": "infinite",
						"payment(uint256,uint256)": "infinite",
						"token()": "2707",
						"users(address)": "infinite"
					}
				},
				"methodIdentifiers": {
					"addStar(uint256)": "01750e74",
					"cancelSaleAdvert(uint256)": "ca095a83",
					"createSaleAdvert(uint256,string,uint32)": "4efd1797",
					"getEntireItems()": "5d9eb55c",
					"getItemById(uint256)": "cd2f0710",
					"itemList(uint256)": "3d4d3600",
					"items(uint256)": "bfb231d2",
					"itemsOfUsers(uint256,address)": "e2870aa9",
					"payment(uint256,uint256)": "2f63147f",
					"token()": "fc0c546a",
					"users(address)": "a87430ba"
				}
			},
			"storageLayout": {
				"storage": [
					{
						"astId": 821,
						"contract": "contracts/SwapCart.sol:SwapCart",
						"label": "token",
						"offset": 0,
						"slot": "0",
						"type": "t_contract(IERC20)663"
					},
					{
						"astId": 825,
						"contract": "contracts/SwapCart.sol:SwapCart",
						"label": "itemList",
						"offset": 0,
						"slot": "1",
						"type": "t_array(t_struct(Item)801_storage)dyn_storage"
					},
					{
						"astId": 830,
						"contract": "contracts/SwapCart.sol:SwapCart",
						"label": "users",
						"offset": 0,
						"slot": "2",
						"type": "t_mapping(t_address,t_struct(User)818_storage)"
					},
					{
						"astId": 835,
						"contract": "contracts/SwapCart.sol:SwapCart",
						"label": "items",
						"offset": 0,
						"slot": "3",
						"type": "t_mapping(t_uint256,t_struct(Item)801_storage)"
					},
					{
						"astId": 841,
						"contract": "contracts/SwapCart.sol:SwapCart",
						"label": "itemsOfUsers",
						"offset": 0,
						"slot": "4",
						"type": "t_mapping(t_uint256,t_mapping(t_address,t_uint256))"
					},
					{
						"astId": 848,
						"contract": "contracts/SwapCart.sol:SwapCart",
						"label": "itemCounter",
						"offset": 0,
						"slot": "5",
						"type": "t_struct(Counter)716_storage"
					}
				],
				"types": {
					"t_address": {
						"encoding": "inplace",
						"label": "address",
						"numberOfBytes": "20"
					},
					"t_array(t_struct(Item)801_storage)dyn_storage": {
						"base": "t_struct(Item)801_storage",
						"encoding": "dynamic_array",
						"label": "struct SwapCart.Item[]",
						"numberOfBytes": "32"
					},
					"t_contract(IERC20)663": {
						"encoding": "inplace",
						"label": "contract IERC20",
						"numberOfBytes": "20"
					},
					"t_mapping(t_address,t_struct(User)818_storage)": {
						"encoding": "mapping",
						"key": "t_address",
						"label": "mapping(address => struct SwapCart.User)",
						"numberOfBytes": "32",
						"value": "t_struct(User)818_storage"
					},
					"t_mapping(t_address,t_uint256)": {
						"encoding": "mapping",
						"key": "t_address",
						"label": "mapping(address => uint256)",
						"numberOfBytes": "32",
						"value": "t_uint256"
					},
					"t_mapping(t_uint256,t_mapping(t_address,t_uint256))": {
						"encoding": "mapping",
						"key": "t_uint256",
						"label": "mapping(uint256 => mapping(address => uint256))",
						"numberOfBytes": "32",
						"value": "t_mapping(t_address,t_uint256)"
					},
					"t_mapping(t_uint256,t_struct(Item)801_storage)": {
						"encoding": "mapping",
						"key": "t_uint256",
						"label": "mapping(uint256 => struct SwapCart.Item)",
						"numberOfBytes": "32",
						"value": "t_struct(Item)801_storage"
					},
					"t_string_storage": {
						"encoding": "bytes",
						"label": "string",
						"numberOfBytes": "32"
					},
					"t_struct(Counter)716_storage": {
						"encoding": "inplace",
						"label": "struct Counters.Counter",
						"members": [
							{
								"astId": 715,
								"contract": "contracts/SwapCart.sol:SwapCart",
								"label": "_value",
								"offset": 0,
								"slot": "0",
								"type": "t_uint256"
							}
						],
						"numberOfBytes": "32"
					},
					"t_struct(Item)801_storage": {
						"encoding": "inplace",
						"label": "struct SwapCart.Item",
						"members": [
							{
								"astId": 790,
								"contract": "contracts/SwapCart.sol:SwapCart",
								"label": "itemId",
								"offset": 0,
								"slot": "0",
								"type": "t_uint256"
							},
							{
								"astId": 792,
								"contract": "contracts/SwapCart.sol:SwapCart",
								"label": "itemImage",
								"offset": 0,
								"slot": "1",
								"type": "t_string_storage"
							},
							{
								"astId": 794,
								"contract": "contracts/SwapCart.sol:SwapCart",
								"label": "star",
								"offset": 0,
								"slot": "2",
								"type": "t_uint256"
							},
							{
								"astId": 796,
								"contract": "contracts/SwapCart.sol:SwapCart",
								"label": "seller",
								"offset": 0,
								"slot": "3",
								"type": "t_address"
							},
							{
								"astId": 798,
								"contract": "contracts/SwapCart.sol:SwapCart",
								"label": "price",
								"offset": 0,
								"slot": "4",
								"type": "t_uint256"
							},
							{
								"astId": 800,
								"contract": "contracts/SwapCart.sol:SwapCart",
								"label": "dueDate",
								"offset": 0,
								"slot": "5",
								"type": "t_uint32"
							}
						],
						"numberOfBytes": "192"
					},
					"t_struct(User)818_storage": {
						"encoding": "inplace",
						"label": "struct SwapCart.User",
						"members": [
							{
								"astId": 803,
								"contract": "contracts/SwapCart.sol:SwapCart",
								"label": "userID",
								"offset": 0,
								"slot": "0",
								"type": "t_uint256"
							},
							{
								"astId": 805,
								"contract": "contracts/SwapCart.sol:SwapCart",
								"label": "userName",
								"offset": 0,
								"slot": "1",
								"type": "t_string_storage"
							},
							{
								"astId": 807,
								"contract": "contracts/SwapCart.sol:SwapCart",
								"label": "deliveryAddress",
								"offset": 0,
								"slot": "2",
								"type": "t_string_storage"
							},
							{
								"astId": 811,
								"contract": "contracts/SwapCart.sol:SwapCart",
								"label": "cart",
								"offset": 0,
								"slot": "3",
								"type": "t_array(t_struct(Item)801_storage)dyn_storage"
							},
							{
								"astId": 815,
								"contract": "contracts/SwapCart.sol:SwapCart",
								"label": "inventory",
								"offset": 0,
								"slot": "4",
								"type": "t_array(t_struct(Item)801_storage)dyn_storage"
							},
							{
								"astId": 817,
								"contract": "contracts/SwapCart.sol:SwapCart",
								"label": "balance",
								"offset": 0,
								"slot": "5",
								"type": "t_uint256"
							}
						],
						"numberOfBytes": "192"
					},
					"t_uint256": {
						"encoding": "inplace",
						"label": "uint256",
						"numberOfBytes": "32"
					},
					"t_uint32": {
						"encoding": "inplace",
						"label": "uint32",
						"numberOfBytes": "4"
					}
				}
			},
			"userdoc": {
				"kind": "user",
				"methods": {},
				"version": 1
			}
		}
	}
}