{
	"contracts/SwapCart.sol": {
		"SwapCart": {
			"abi": [
				{
					"inputs": [
						{
							"internalType": "address",
							"name": "_token",
							"type": "address"
						}
					],
					"stateMutability": "nonpayable",
					"type": "constructor"
				},
				{
					"anonymous": false,
					"inputs": [
						{
							"indexed": false,
							"internalType": "uint256",
							"name": "itmId",
							"type": "uint256"
						},
						{
							"indexed": false,
							"internalType": "uint256",
							"name": "itmStar",
							"type": "uint256"
						},
						{
							"indexed": true,
							"internalType": "address",
							"name": "caller",
							"type": "address"
						}
					],
					"name": "AddStar",
					"type": "event"
				},
				{
					"anonymous": false,
					"inputs": [
						{
							"indexed": false,
							"internalType": "uint256",
							"name": "itmId",
							"type": "uint256"
						},
						{
							"indexed": true,
							"internalType": "address",
							"name": "caller",
							"type": "address"
						}
					],
					"name": "CancelSaleAdvert",
					"type": "event"
				},
				{
					"anonymous": false,
					"inputs": [
						{
							"indexed": false,
							"internalType": "uint256",
							"name": "id",
							"type": "uint256"
						},
						{
							"indexed": false,
							"internalType": "uint256",
							"name": "price",
							"type": "uint256"
						},
						{
							"indexed": false,
							"internalType": "string",
							"name": "image",
							"type": "string"
						},
						{
							"indexed": false,
							"internalType": "uint32",
							"name": "dueDate",
							"type": "uint32"
						},
						{
							"indexed": false,
							"internalType": "uint256",
							"name": "star",
							"type": "uint256"
						},
						{
							"indexed": true,
							"internalType": "address",
							"name": "seller",
							"type": "address"
						}
					],
					"name": "CreateSaleAdvert",
					"type": "event"
				},
				{
					"anonymous": false,
					"inputs": [
						{
							"components": [
								{
									"internalType": "uint256",
									"name": "itemId",
									"type": "uint256"
								},
								{
									"internalType": "string",
									"name": "itemImage",
									"type": "string"
								},
								{
									"internalType": "uint256",
									"name": "star",
									"type": "uint256"
								},
								{
									"internalType": "address",
									"name": "seller",
									"type": "address"
								},
								{
									"internalType": "uint256",
									"name": "price",
									"type": "uint256"
								},
								{
									"internalType": "uint32",
									"name": "dueDate",
									"type": "uint32"
								}
							],
							"indexed": false,
							"internalType": "struct SwapCart.Item[]",
							"name": "listOfItems",
							"type": "tuple[]"
						},
						{
							"indexed": true,
							"internalType": "address",
							"name": "caller",
							"type": "address"
						}
					],
					"name": "GetEntireItems",
					"type": "event"
				},
				{
					"anonymous": false,
					"inputs": [
						{
							"indexed": false,
							"internalType": "uint256",
							"name": "itmId",
							"type": "uint256"
						},
						{
							"components": [
								{
									"internalType": "uint256",
									"name": "itemId",
									"type": "uint256"
								},
								{
									"internalType": "string",
									"name": "itemImage",
									"type": "string"
								},
								{
									"internalType": "uint256",
									"name": "star",
									"type": "uint256"
								},
								{
									"internalType": "address",
									"name": "seller",
									"type": "address"
								},
								{
									"internalType": "uint256",
									"name": "price",
									"type": "uint256"
								},
								{
									"internalType": "uint32",
									"name": "dueDate",
									"type": "uint32"
								}
							],
							"indexed": false,
							"internalType": "struct SwapCart.Item",
							"name": "item",
							"type": "tuple"
						},
						{
							"indexed": true,
							"internalType": "address",
							"name": "caller",
							"type": "address"
						}
					],
					"name": "GetItemById",
					"type": "event"
				},
				{
					"anonymous": false,
					"inputs": [
						{
							"indexed": false,
							"internalType": "uint256",
							"name": "itmId",
							"type": "uint256"
						},
						{
							"indexed": true,
							"internalType": "address",
							"name": "caller",
							"type": "address"
						},
						{
							"indexed": false,
							"internalType": "uint256",
							"name": "amount",
							"type": "uint256"
						}
					],
					"name": "Payment",
					"type": "event"
				},
				{
					"inputs": [
						{
							"internalType": "uint256",
							"name": "itmId",
							"type": "uint256"
						}
					],
					"name": "addStar",
					"outputs": [],
					"stateMutability": "nonpayable",
					"type": "function"
				},
				{
					"inputs": [
						{
							"internalType": "uint256",
							"name": "itmId",
							"type": "uint256"
						}
					],
					"name": "cancelSaleAdvert",
					"outputs": [],
					"stateMutability": "nonpayable",
					"type": "function"
				},
				{
					"inputs": [
						{
							"internalType": "uint256",
							"name": "itmPrice",
							"type": "uint256"
						},
						{
							"internalType": "string",
							"name": "itmImage",
							"type": "string"
						},
						{
							"internalType": "uint32",
							"name": "itmDueDate",
							"type": "uint32"
						}
					],
					"name": "createSaleAdvert",
					"outputs": [],
					"stateMutability": "nonpayable",
					"type": "function"
				},
				{
					"inputs": [],
					"name": "getEntireItems",
					"outputs": [
						{
							"components": [
								{
									"internalType": "uint256",
									"name": "itemId",
									"type": "uint256"
								},
								{
									"internalType": "string",
									"name": "itemImage",
									"type": "string"
								},
								{
									"internalType": "uint256",
									"name": "star",
									"type": "uint256"
								},
								{
									"internalType": "address",
									"name": "seller",
									"type": "address"
								},
								{
									"internalType": "uint256",
									"name": "price",
									"type": "uint256"
								},
								{
									"internalType": "uint32",
									"name": "dueDate",
									"type": "uint32"
								}
							],
							"internalType": "struct SwapCart.Item[]",
							"name": "",
							"type": "tuple[]"
						}
					],
					"stateMutability": "nonpayable",
					"type": "function"
				},
				{
					"inputs": [
						{
							"internalType": "uint256",
							"name": "itmId",
							"type": "uint256"
						}
					],
					"name": "getItemById",
					"outputs": [
						{
							"components": [
								{
									"internalType": "uint256",
									"name": "itemId",
									"type": "uint256"
								},
								{
									"internalType": "string",
									"name": "itemImage",
									"type": "string"
								},
								{
									"internalType": "uint256",
									"name": "star",
									"type": "uint256"
								},
								{
									"internalType": "address",
									"name": "seller",
									"type": "address"
								},
								{
									"internalType": "uint256",
									"name": "price",
									"type": "uint256"
								},
								{
									"internalType": "uint32",
									"name": "dueDate",
									"type": "uint32"
								}
							],
							"internalType": "struct SwapCart.Item",
							"name": "",
							"type": "tuple"
						}
					],
					"stateMutability": "nonpayable",
					"type": "function"
				},
				{
					"inputs": [
						{
							"internalType": "uint256",
							"name": "",
							"type": "uint256"
						}
					],
					"name": "itemList",
					"outputs": [
						{
							"internalType": "uint256",
							"name": "itemId",
							"type": "uint256"
						},
						{
							"internalType": "string",
							"name": "itemImage",
							"type": "string"
						},
						{
							"internalType": "uint256",
							"name": "star",
							"type": "uint256"
						},
						{
							"internalType": "address",
							"name": "seller",
							"type": "address"
						},
						{
							"internalType": "uint256",
							"name": "price",
							"type": "uint256"
						},
						{
							"internalType": "uint32",
							"name": "dueDate",
							"type": "uint32"
						}
					],
					"stateMutability": "view",
					"type": "function"
				},
				{
					"inputs": [
						{
							"internalType": "uint256",
							"name": "",
							"type": "uint256"
						}
					],
					"name": "items",
					"outputs": [
						{
							"internalType": "uint256",
							"name": "itemId",
							"type": "uint256"
						},
						{
							"internalType": "string",
							"name": "itemImage",
							"type": "string"
						},
						{
							"internalType": "uint256",
							"name": "star",
							"type": "uint256"
						},
						{
							"internalType": "address",
							"name": "seller",
							"type": "address"
						},
						{
							"internalType": "uint256",
							"name": "price",
							"type": "uint256"
						},
						{
							"internalType": "uint32",
							"name": "dueDate",
							"type": "uint32"
						}
					],
					"stateMutability": "view",
					"type": "function"
				},
				{
					"inputs": [
						{
							"internalType": "uint256",
							"name": "",
							"type": "uint256"
						},
						{
							"internalType": "address",
							"name": "",
							"type": "address"
						}
					],
					"name": "itemsOfUsers",
					"outputs": [
						{
							"internalType": "uint256",
							"name": "",
							"type": "uint256"
						}
					],
					"stateMutability": "view",
					"type": "function"
				},
				{
					"inputs": [
						{
							"internalType": "uint256",
							"name": "itmId",
							"type": "uint256"
						},
						{
							"internalType": "uint256",
							"name": "amount",
							"type": "uint256"
						}
					],
					"name": "payment",
					"outputs": [],
					"stateMutability": "nonpayable",
					"type": "function"
				},
				{
					"inputs": [],
					"name": "token",
					"outputs": [
						{
							"internalType": "contract IERC20",
							"name": "",
							"type": "address"
						}
					],
					"stateMutability": "view",
					"type": "function"
				},
				{
					"inputs": [
						{
							"internalType": "address",
							"name": "",
							"type": "address"
						}
					],
					"name": "users",
					"outputs": [
						{
							"internalType": "uint256",
							"name": "userID",
							"type": "uint256"
						},
						{
							"internalType": "string",
							"name": "userName",
							"type": "string"
						},
						{
							"internalType": "string",
							"name": "deliveryAddress",
							"type": "string"
						},
						{
							"internalType": "uint256",
							"name": "balance",
							"type": "uint256"
						}
					],
					"stateMutability": "view",
					"type": "function"
				}
			],
			"devdoc": {
				"kind": "dev",
				"methods": {},
				"version": 1
			},
			"evm": {
				"assembly": "    /* \"contracts/SwapCart.sol\":172:5594  contract SwapCart{\r... */\n  mstore(0x40, 0x80)\n    /* \"contracts/SwapCart.sol\":851:919  constructor(address _token){\r... */\n  callvalue\n  dup1\n  iszero\n  tag_1\n  jumpi\n  0x00\n  dup1\n  revert\ntag_1:\n  pop\n  mload(0x40)\n  sub(codesize, bytecodeSize)\n  dup1\n  bytecodeSize\n  dup4\n  codecopy\n  dup2\n  dup2\n  add\n  0x40\n  mstore\n  dup2\n  add\n  swap1\n  tag_2\n  swap2\n  swap1\n  tag_3\n  jump\t// in\ntag_2:\n    /* \"contracts/SwapCart.sol\":904:910  _token */\n  dup1\n    /* \"contracts/SwapCart.sol\":889:894  token */\n  0x00\n  dup1\n    /* \"contracts/SwapCart.sol\":889:911  token = IERC20(_token) */\n  0x0100\n  exp\n  dup2\n  sload\n  dup2\n  0xffffffffffffffffffffffffffffffffffffffff\n  mul\n  not\n  and\n  swap1\n  dup4\n  0xffffffffffffffffffffffffffffffffffffffff\n  and\n  mul\n  or\n  swap1\n  sstore\n  pop\n    /* \"contracts/SwapCart.sol\":851:919  constructor(address _token){\r... */\n  pop\n    /* \"contracts/SwapCart.sol\":172:5594  contract SwapCart{\r... */\n  jump(tag_6)\n    /* \"#utility.yul\":7:150   */\ntag_8:\n    /* \"#utility.yul\":64:69   */\n  0x00\n    /* \"#utility.yul\":95:101   */\n  dup2\n    /* \"#utility.yul\":89:102   */\n  mload\n    /* \"#utility.yul\":80:102   */\n  swap1\n  pop\n    /* \"#utility.yul\":111:144   */\n  tag_10\n    /* \"#utility.yul\":138:143   */\n  dup2\n    /* \"#utility.yul\":111:144   */\n  tag_11\n  jump\t// in\ntag_10:\n    /* \"#utility.yul\":7:150   */\n  swap3\n  swap2\n  pop\n  pop\n  jump\t// out\n    /* \"#utility.yul\":156:507   */\ntag_3:\n    /* \"#utility.yul\":226:232   */\n  0x00\n    /* \"#utility.yul\":275:277   */\n  0x20\n    /* \"#utility.yul\":263:272   */\n  dup3\n    /* \"#utility.yul\":254:261   */\n  dup5\n    /* \"#utility.yul\":250:273   */\n  sub\n    /* \"#utility.yul\":246:278   */\n  slt\n    /* \"#utility.yul\":243:362   */\n  iszero\n  tag_13\n  jumpi\n    /* \"#utility.yul\":281:360   */\n  tag_14\n  tag_15\n  jump\t// in\ntag_14:\n    /* \"#utility.yul\":243:362   */\ntag_13:\n    /* \"#utility.yul\":401:402   */\n  0x00\n    /* \"#utility.yul\":426:490   */\n  tag_16\n    /* \"#utility.yul\":482:489   */\n  dup5\n    /* \"#utility.yul\":473:479   */\n  dup3\n    /* \"#utility.yul\":462:471   */\n  dup6\n    /* \"#utility.yul\":458:480   */\n  add\n    /* \"#utility.yul\":426:490   */\n  tag_8\n  jump\t// in\ntag_16:\n    /* \"#utility.yul\":416:490   */\n  swap2\n  pop\n    /* \"#utility.yul\":372:500   */\n  pop\n    /* \"#utility.yul\":156:507   */\n  swap3\n  swap2\n  pop\n  pop\n  jump\t// out\n    /* \"#utility.yul\":594:690   */\ntag_19:\n    /* \"#utility.yul\":631:638   */\n  0x00\n    /* \"#utility.yul\":660:684   */\n  tag_21\n    /* \"#utility.yul\":678:683   */\n  dup3\n    /* \"#utility.yul\":660:684   */\n  tag_22\n  jump\t// in\ntag_21:\n    /* \"#utility.yul\":649:684   */\n  swap1\n  pop\n    /* \"#utility.yul\":594:690   */\n  swap2\n  swap1\n  pop\n  jump\t// out\n    /* \"#utility.yul\":696:822   */\ntag_22:\n    /* \"#utility.yul\":733:740   */\n  0x00\n    /* \"#utility.yul\":773:815   */\n  0xffffffffffffffffffffffffffffffffffffffff\n    /* \"#utility.yul\":766:771   */\n  dup3\n    /* \"#utility.yul\":762:816   */\n  and\n    /* \"#utility.yul\":751:816   */\n  swap1\n  pop\n    /* \"#utility.yul\":696:822   */\n  swap2\n  swap1\n  pop\n  jump\t// out\n    /* \"#utility.yul\":951:1068   */\ntag_15:\n    /* \"#utility.yul\":1060:1061   */\n  0x00\n    /* \"#utility.yul\":1057:1058   */\n  dup1\n    /* \"#utility.yul\":1050:1062   */\n  revert\n    /* \"#utility.yul\":1074:1196   */\ntag_11:\n    /* \"#utility.yul\":1147:1171   */\n  tag_28\n    /* \"#utility.yul\":1165:1170   */\n  dup2\n    /* \"#utility.yul\":1147:1171   */\n  tag_19\n  jump\t// in\ntag_28:\n    /* \"#utility.yul\":1140:1145   */\n  dup2\n    /* \"#utility.yul\":1137:1172   */\n  eq\n    /* \"#utility.yul\":1127:1190   */\n  tag_29\n  jumpi\n    /* \"#utility.yul\":1186:1187   */\n  0x00\n    /* \"#utility.yul\":1183:1184   */\n  dup1\n    /* \"#utility.yul\":1176:1188   */\n  revert\n    /* \"#utility.yul\":1127:1190   */\ntag_29:\n    /* \"#utility.yul\":1074:1196   */\n  pop\n  jump\t// out\n    /* \"contracts/SwapCart.sol\":172:5594  contract SwapCart{\r... */\ntag_6:\n  dataSize(sub_0)\n  dup1\n  dataOffset(sub_0)\n  0x00\n  codecopy\n  0x00\n  return\nstop\n\nsub_0: assembly {\n        /* \"contracts/SwapCart.sol\":172:5594  contract SwapCart{\r... */\n      mstore(0x40, 0x80)\n      callvalue\n      dup1\n      iszero\n      tag_1\n      jumpi\n      0x00\n      dup1\n      revert\n    tag_1:\n      pop\n      jumpi(tag_2, lt(calldatasize, 0x04))\n      shr(0xe0, calldataload(0x00))\n      dup1\n      0xa87430ba\n      gt\n      tag_14\n      jumpi\n      dup1\n      0xa87430ba\n      eq\n      tag_8\n      jumpi\n      dup1\n      0xbfb231d2\n      eq\n      tag_9\n      jumpi\n      dup1\n      0xca095a83\n      eq\n      tag_10\n      jumpi\n      dup1\n      0xcd2f0710\n      eq\n      tag_11\n      jumpi\n      dup1\n      0xe2870aa9\n      eq\n      tag_12\n      jumpi\n      dup1\n      0xfc0c546a\n      eq\n      tag_13\n      jumpi\n      jump(tag_2)\n    tag_14:\n      dup1\n      0x01750e74\n      eq\n      tag_3\n      jumpi\n      dup1\n      0x2f63147f\n      eq\n      tag_4\n      jumpi\n      dup1\n      0x3d4d3600\n      eq\n      tag_5\n      jumpi\n      dup1\n      0x4efd1797\n      eq\n      tag_6\n      jumpi\n      dup1\n      0x5d9eb55c\n      eq\n      tag_7\n      jumpi\n    tag_2:\n      0x00\n      dup1\n      revert\n        /* \"contracts/SwapCart.sol\":5246:5396  function addStar(uint itmId) public buyerCheck(itmId){\r... */\n    tag_3:\n      tag_15\n      0x04\n      dup1\n      calldatasize\n      sub\n      dup2\n      add\n      swap1\n      tag_16\n      swap2\n      swap1\n      tag_17\n      jump\t// in\n    tag_16:\n      tag_18\n      jump\t// in\n    tag_15:\n      stop\n        /* \"contracts/SwapCart.sol\":4399:5074  function payment(uint itmId, uint amount) external expireCheck(itmId) {\r... */\n    tag_4:\n      tag_19\n      0x04\n      dup1\n      calldatasize\n      sub\n      dup2\n      add\n      swap1\n      tag_20\n      swap2\n      swap1\n      tag_21\n      jump\t// in\n    tag_20:\n      tag_22\n      jump\t// in\n    tag_19:\n      stop\n        /* \"contracts/SwapCart.sol\":575:597  Item[] public itemList */\n    tag_5:\n      tag_23\n      0x04\n      dup1\n      calldatasize\n      sub\n      dup2\n      add\n      swap1\n      tag_24\n      swap2\n      swap1\n      tag_17\n      jump\t// in\n    tag_24:\n      tag_25\n      jump\t// in\n    tag_23:\n      mload(0x40)\n      tag_26\n      swap7\n      swap6\n      swap5\n      swap4\n      swap3\n      swap2\n      swap1\n      tag_27\n      jump\t// in\n    tag_26:\n      mload(0x40)\n      dup1\n      swap2\n      sub\n      swap1\n      return\n        /* \"contracts/SwapCart.sol\":3363:4009  function createSaleAdvert(uint itmPrice, string memory itmImage, uint32 itmDueDate) external{\r... */\n    tag_6:\n      tag_28\n      0x04\n      dup1\n      calldatasize\n      sub\n      dup2\n      add\n      swap1\n      tag_29\n      swap2\n      swap1\n      tag_30\n      jump\t// in\n    tag_29:\n      tag_31\n      jump\t// in\n    tag_28:\n      stop\n        /* \"contracts/SwapCart.sol\":5082:5238  function getEntireItems() public listSizeCheck returns (Item[] memory) {\r... */\n    tag_7:\n      tag_32\n      tag_33\n      jump\t// in\n    tag_32:\n      mload(0x40)\n      tag_34\n      swap2\n      swap1\n      tag_35\n      jump\t// in\n    tag_34:\n      mload(0x40)\n      dup1\n      swap2\n      sub\n      swap1\n      return\n        /* \"contracts/SwapCart.sol\":606:643  mapping(address => User) public users */\n    tag_8:\n      tag_36\n      0x04\n      dup1\n      calldatasize\n      sub\n      dup2\n      add\n      swap1\n      tag_37\n      swap2\n      swap1\n      tag_38\n      jump\t// in\n    tag_37:\n      tag_39\n      jump\t// in\n    tag_36:\n      mload(0x40)\n      tag_40\n      swap5\n      swap4\n      swap3\n      swap2\n      swap1\n      tag_41\n      jump\t// in\n    tag_40:\n      mload(0x40)\n      dup1\n      swap2\n      sub\n      swap1\n      return\n        /* \"contracts/SwapCart.sol\":650:687  mapping(uint256 => Item) public items */\n    tag_9:\n      tag_42\n      0x04\n      dup1\n      calldatasize\n      sub\n      dup2\n      add\n      swap1\n      tag_43\n      swap2\n      swap1\n      tag_17\n      jump\t// in\n    tag_43:\n      tag_44\n      jump\t// in\n    tag_42:\n      mload(0x40)\n      tag_45\n      swap7\n      swap6\n      swap5\n      swap4\n      swap3\n      swap2\n      swap1\n      tag_27\n      jump\t// in\n    tag_45:\n      mload(0x40)\n      dup1\n      swap2\n      sub\n      swap1\n      return\n        /* \"contracts/SwapCart.sol\":4076:4391  function cancelSaleAdvert(uint itmId) external expireCheck(itmId) {\r... */\n    tag_10:\n      tag_46\n      0x04\n      dup1\n      calldatasize\n      sub\n      dup2\n      add\n      swap1\n      tag_47\n      swap2\n      swap1\n      tag_17\n      jump\t// in\n    tag_47:\n      tag_48\n      jump\t// in\n    tag_46:\n      stop\n        /* \"contracts/SwapCart.sol\":5404:5591  function getItemById(uint itmId) public itemAvailabilityCheck(itmId) returns (Item memory) {\r... */\n    tag_11:\n      tag_49\n      0x04\n      dup1\n      calldatasize\n      sub\n      dup2\n      add\n      swap1\n      tag_50\n      swap2\n      swap1\n      tag_17\n      jump\t// in\n    tag_50:\n      tag_51\n      jump\t// in\n    tag_49:\n      mload(0x40)\n      tag_52\n      swap2\n      swap1\n      tag_53\n      jump\t// in\n    tag_52:\n      mload(0x40)\n      dup1\n      swap2\n      sub\n      swap1\n      return\n        /* \"contracts/SwapCart.sol\":694:755  mapping(uint => mapping(address => uint)) public itemsOfUsers */\n    tag_12:\n      tag_54\n      0x04\n      dup1\n      calldatasize\n      sub\n      dup2\n      add\n      swap1\n      tag_55\n      swap2\n      swap1\n      tag_56\n      jump\t// in\n    tag_55:\n      tag_57\n      jump\t// in\n    tag_54:\n      mload(0x40)\n      tag_58\n      swap2\n      swap1\n      tag_59\n      jump\t// in\n    tag_58:\n      mload(0x40)\n      dup1\n      swap2\n      sub\n      swap1\n      return\n        /* \"contracts/SwapCart.sol\":549:568  IERC20 public token */\n    tag_13:\n      tag_60\n      tag_61\n      jump\t// in\n    tag_60:\n      mload(0x40)\n      tag_62\n      swap2\n      swap1\n      tag_63\n      jump\t// in\n    tag_62:\n      mload(0x40)\n      dup1\n      swap2\n      sub\n      swap1\n      return\n        /* \"contracts/SwapCart.sol\":5246:5396  function addStar(uint itmId) public buyerCheck(itmId){\r... */\n    tag_18:\n        /* \"contracts/SwapCart.sol\":5293:5298  itmId */\n      dup1\n        /* \"contracts/SwapCart.sol\":1381:1397  Item memory item */\n      0x00\n        /* \"contracts/SwapCart.sol\":1400:1405  items */\n      0x03\n        /* \"contracts/SwapCart.sol\":1400:1412  items[itmId] */\n      0x00\n        /* \"contracts/SwapCart.sol\":1406:1411  itmId */\n      dup4\n        /* \"contracts/SwapCart.sol\":1400:1412  items[itmId] */\n      dup2\n      mstore\n      0x20\n      add\n      swap1\n      dup2\n      mstore\n      0x20\n      add\n      0x00\n      keccak256\n        /* \"contracts/SwapCart.sol\":1381:1412  Item memory item = items[itmId] */\n      mload(0x40)\n      dup1\n      0xc0\n      add\n      0x40\n      mstore\n      swap1\n      dup2\n      0x00\n      dup3\n      add\n      sload\n      dup2\n      mstore\n      0x20\n      add\n      0x01\n      dup3\n      add\n      dup1\n      sload\n      tag_65\n      swap1\n      tag_66\n      jump\t// in\n    tag_65:\n      dup1\n      0x1f\n      add\n      0x20\n      dup1\n      swap2\n      div\n      mul\n      0x20\n      add\n      mload(0x40)\n      swap1\n      dup2\n      add\n      0x40\n      mstore\n      dup1\n      swap3\n      swap2\n      swap1\n      dup2\n      dup2\n      mstore\n      0x20\n      add\n      dup3\n      dup1\n      sload\n      tag_67\n      swap1\n      tag_66\n      jump\t// in\n    tag_67:\n      dup1\n      iszero\n      tag_68\n      jumpi\n      dup1\n      0x1f\n      lt\n      tag_69\n      jumpi\n      0x0100\n      dup1\n      dup4\n      sload\n      div\n      mul\n      dup4\n      mstore\n      swap2\n      0x20\n      add\n      swap2\n      jump(tag_68)\n    tag_69:\n      dup3\n      add\n      swap2\n      swap1\n      0x00\n      mstore\n      keccak256(0x00, 0x20)\n      swap1\n    tag_70:\n      dup2\n      sload\n      dup2\n      mstore\n      swap1\n      0x01\n      add\n      swap1\n      0x20\n      add\n      dup1\n      dup4\n      gt\n      tag_70\n      jumpi\n      dup3\n      swap1\n      sub\n      0x1f\n      and\n      dup3\n      add\n      swap2\n    tag_68:\n      pop\n      pop\n      pop\n      pop\n      pop\n      dup2\n      mstore\n      0x20\n      add\n      0x02\n      dup3\n      add\n      sload\n      dup2\n      mstore\n      0x20\n      add\n      0x03\n      dup3\n      add\n      0x00\n      swap1\n      sload\n      swap1\n      0x0100\n      exp\n      swap1\n      div\n      0xffffffffffffffffffffffffffffffffffffffff\n      and\n      0xffffffffffffffffffffffffffffffffffffffff\n      and\n      0xffffffffffffffffffffffffffffffffffffffff\n      and\n      dup2\n      mstore\n      0x20\n      add\n      0x04\n      dup3\n      add\n      sload\n      dup2\n      mstore\n      0x20\n      add\n      0x05\n      dup3\n      add\n      0x00\n      swap1\n      sload\n      swap1\n      0x0100\n      exp\n      swap1\n      div\n      0xffffffff\n      and\n      0xffffffff\n      and\n      0xffffffff\n      and\n      dup2\n      mstore\n      pop\n      pop\n      swap1\n      pop\n        /* \"contracts/SwapCart.sol\":1445:1449  item */\n      dup1\n        /* \"contracts/SwapCart.sol\":1445:1456  item.seller */\n      0x60\n      add\n      mload\n        /* \"contracts/SwapCart.sol\":1431:1456  msg.sender != item.seller */\n      0xffffffffffffffffffffffffffffffffffffffff\n      and\n        /* \"contracts/SwapCart.sol\":1431:1441  msg.sender */\n      caller\n        /* \"contracts/SwapCart.sol\":1431:1456  msg.sender != item.seller */\n      0xffffffffffffffffffffffffffffffffffffffff\n      and\n      eq\n      iszero\n        /* \"contracts/SwapCart.sol\":1423:1457  require(msg.sender != item.seller) */\n      tag_71\n      jumpi\n      0x00\n      dup1\n      revert\n    tag_71:\n        /* \"contracts/SwapCart.sol\":5310:5315  items */\n      0x03\n        /* \"contracts/SwapCart.sol\":5310:5322  items[itmId] */\n      0x00\n        /* \"contracts/SwapCart.sol\":5316:5321  itmId */\n      dup5\n        /* \"contracts/SwapCart.sol\":5310:5322  items[itmId] */\n      dup2\n      mstore\n      0x20\n      add\n      swap1\n      dup2\n      mstore\n      0x20\n      add\n      0x00\n      keccak256\n        /* \"contracts/SwapCart.sol\":5310:5327  items[itmId].star */\n      0x02\n      add\n      0x00\n        /* \"contracts/SwapCart.sol\":5310:5329  items[itmId].star++ */\n      dup2\n      sload\n      dup1\n      swap3\n      swap2\n      swap1\n      tag_73\n      swap1\n      tag_74\n      jump\t// in\n    tag_73:\n      swap2\n      swap1\n      pop\n      sstore\n      pop\n        /* \"contracts/SwapCart.sol\":5377:5387  msg.sender */\n      caller\n        /* \"contracts/SwapCart.sol\":5345:5388  AddStar(itmId,items[itmId].star,msg.sender) */\n      0xffffffffffffffffffffffffffffffffffffffff\n      and\n      0x1ed364e6f46a455fac23816d3700669ff134c7a5fbe0240f52d932f834102462\n        /* \"contracts/SwapCart.sol\":5353:5358  itmId */\n      dup5\n        /* \"contracts/SwapCart.sol\":5359:5364  items */\n      0x03\n        /* \"contracts/SwapCart.sol\":5359:5371  items[itmId] */\n      0x00\n        /* \"contracts/SwapCart.sol\":5365:5370  itmId */\n      dup8\n        /* \"contracts/SwapCart.sol\":5359:5371  items[itmId] */\n      dup2\n      mstore\n      0x20\n      add\n      swap1\n      dup2\n      mstore\n      0x20\n      add\n      0x00\n      keccak256\n        /* \"contracts/SwapCart.sol\":5359:5376  items[itmId].star */\n      0x02\n      add\n      sload\n        /* \"contracts/SwapCart.sol\":5345:5388  AddStar(itmId,items[itmId].star,msg.sender) */\n      mload(0x40)\n      tag_75\n      swap3\n      swap2\n      swap1\n      tag_76\n      jump\t// in\n    tag_75:\n      mload(0x40)\n      dup1\n      swap2\n      sub\n      swap1\n      log2\n        /* \"contracts/SwapCart.sol\":1230:1477  {  // We check the message sender of transaction. Because, message sender must be a buyer to can give star for any item. (not seller of item)\r... */\n      pop\n        /* \"contracts/SwapCart.sol\":5246:5396  function addStar(uint itmId) public buyerCheck(itmId){\r... */\n      pop\n      pop\n      jump\t// out\n        /* \"contracts/SwapCart.sol\":4399:5074  function payment(uint itmId, uint amount) external expireCheck(itmId) {\r... */\n    tag_22:\n        /* \"contracts/SwapCart.sol\":4462:4467  itmId */\n      dup2\n        /* \"contracts/SwapCart.sol\":1527:1543  Item memory item */\n      0x00\n        /* \"contracts/SwapCart.sol\":1546:1551  items */\n      0x03\n        /* \"contracts/SwapCart.sol\":1546:1558  items[itmId] */\n      0x00\n        /* \"contracts/SwapCart.sol\":1552:1557  itmId */\n      dup4\n        /* \"contracts/SwapCart.sol\":1546:1558  items[itmId] */\n      dup2\n      mstore\n      0x20\n      add\n      swap1\n      dup2\n      mstore\n      0x20\n      add\n      0x00\n      keccak256\n        /* \"contracts/SwapCart.sol\":1527:1558  Item memory item = items[itmId] */\n      mload(0x40)\n      dup1\n      0xc0\n      add\n      0x40\n      mstore\n      swap1\n      dup2\n      0x00\n      dup3\n      add\n      sload\n      dup2\n      mstore\n      0x20\n      add\n      0x01\n      dup3\n      add\n      dup1\n      sload\n      tag_78\n      swap1\n      tag_66\n      jump\t// in\n    tag_78:\n      dup1\n      0x1f\n      add\n      0x20\n      dup1\n      swap2\n      div\n      mul\n      0x20\n      add\n      mload(0x40)\n      swap1\n      dup2\n      add\n      0x40\n      mstore\n      dup1\n      swap3\n      swap2\n      swap1\n      dup2\n      dup2\n      mstore\n      0x20\n      add\n      dup3\n      dup1\n      sload\n      tag_79\n      swap1\n      tag_66\n      jump\t// in\n    tag_79:\n      dup1\n      iszero\n      tag_80\n      jumpi\n      dup1\n      0x1f\n      lt\n      tag_81\n      jumpi\n      0x0100\n      dup1\n      dup4\n      sload\n      div\n      mul\n      dup4\n      mstore\n      swap2\n      0x20\n      add\n      swap2\n      jump(tag_80)\n    tag_81:\n      dup3\n      add\n      swap2\n      swap1\n      0x00\n      mstore\n      keccak256(0x00, 0x20)\n      swap1\n    tag_82:\n      dup2\n      sload\n      dup2\n      mstore\n      swap1\n      0x01\n      add\n      swap1\n      0x20\n      add\n      dup1\n      dup4\n      gt\n      tag_82\n      jumpi\n      dup3\n      swap1\n      sub\n      0x1f\n      and\n      dup3\n      add\n      swap2\n    tag_80:\n      pop\n      pop\n      pop\n      pop\n      pop\n      dup2\n      mstore\n      0x20\n      add\n      0x02\n      dup3\n      add\n      sload\n      dup2\n      mstore\n      0x20\n      add\n      0x03\n      dup3\n      add\n      0x00\n      swap1\n      sload\n      swap1\n      0x0100\n      exp\n      swap1\n      div\n      0xffffffffffffffffffffffffffffffffffffffff\n      and\n      0xffffffffffffffffffffffffffffffffffffffff\n      and\n      0xffffffffffffffffffffffffffffffffffffffff\n      and\n      dup2\n      mstore\n      0x20\n      add\n      0x04\n      dup3\n      add\n      sload\n      dup2\n      mstore\n      0x20\n      add\n      0x05\n      dup3\n      add\n      0x00\n      swap1\n      sload\n      swap1\n      0x0100\n      exp\n      swap1\n      div\n      0xffffffff\n      and\n      0xffffffff\n      and\n      0xffffffff\n      and\n      dup2\n      mstore\n      pop\n      pop\n      swap1\n      pop\n        /* \"contracts/SwapCart.sol\":1593:1608  block.timestamp */\n      timestamp\n        /* \"contracts/SwapCart.sol\":1577:1581  item */\n      dup2\n        /* \"contracts/SwapCart.sol\":1577:1589  item.dueDate */\n      0xa0\n      add\n      mload\n        /* \"contracts/SwapCart.sol\":1577:1608  item.dueDate >= block.timestamp */\n      0xffffffff\n      and\n      lt\n      iszero\n        /* \"contracts/SwapCart.sol\":1569:1634  require(item.dueDate >= block.timestamp, \"The sale has expired!\") */\n      tag_83\n      jumpi\n      mload(0x40)\n      0x08c379a000000000000000000000000000000000000000000000000000000000\n      dup2\n      mstore\n      0x04\n      add\n      tag_84\n      swap1\n      tag_85\n      jump\t// in\n    tag_84:\n      mload(0x40)\n      dup1\n      swap2\n      sub\n      swap1\n      revert\n    tag_83:\n        /* \"contracts/SwapCart.sol\":4480:4497  Item storage item */\n      0x00\n        /* \"contracts/SwapCart.sol\":4500:4505  items */\n      0x03\n        /* \"contracts/SwapCart.sol\":4500:4512  items[itmId] */\n      0x00\n        /* \"contracts/SwapCart.sol\":4506:4511  itmId */\n      dup7\n        /* \"contracts/SwapCart.sol\":4500:4512  items[itmId] */\n      dup2\n      mstore\n      0x20\n      add\n      swap1\n      dup2\n      mstore\n      0x20\n      add\n      0x00\n      keccak256\n        /* \"contracts/SwapCart.sol\":4480:4512  Item storage item = items[itmId] */\n      swap1\n      pop\n        /* \"contracts/SwapCart.sol\":4633:4639  amount */\n      dup4\n        /* \"contracts/SwapCart.sol\":4621:4625  item */\n      dup2\n        /* \"contracts/SwapCart.sol\":4621:4631  item.price */\n      0x04\n      add\n      sload\n        /* \"contracts/SwapCart.sol\":4621:4639  item.price==amount */\n      eq\n        /* \"contracts/SwapCart.sol\":4618:4936  if(item.price==amount){\r... */\n      iszero\n      tag_87\n      jumpi\n        /* \"contracts/SwapCart.sol\":4690:4691  1 */\n      0x01\n        /* \"contracts/SwapCart.sol\":4655:4667  itemsOfUsers */\n      0x04\n        /* \"contracts/SwapCart.sol\":4655:4674  itemsOfUsers[itmId] */\n      0x00\n        /* \"contracts/SwapCart.sol\":4668:4673  itmId */\n      dup8\n        /* \"contracts/SwapCart.sol\":4655:4674  itemsOfUsers[itmId] */\n      dup2\n      mstore\n      0x20\n      add\n      swap1\n      dup2\n      mstore\n      0x20\n      add\n      0x00\n      keccak256\n        /* \"contracts/SwapCart.sol\":4655:4686  itemsOfUsers[itmId][msg.sender] */\n      0x00\n        /* \"contracts/SwapCart.sol\":4675:4685  msg.sender */\n      caller\n        /* \"contracts/SwapCart.sol\":4655:4686  itemsOfUsers[itmId][msg.sender] */\n      0xffffffffffffffffffffffffffffffffffffffff\n      and\n      0xffffffffffffffffffffffffffffffffffffffff\n      and\n      dup2\n      mstore\n      0x20\n      add\n      swap1\n      dup2\n      mstore\n      0x20\n      add\n      0x00\n      keccak256\n      0x00\n        /* \"contracts/SwapCart.sol\":4655:4691  itemsOfUsers[itmId][msg.sender] += 1 */\n      dup3\n      dup3\n      sload\n      tag_88\n      swap2\n      swap1\n      tag_89\n      jump\t// in\n    tag_88:\n      swap3\n      pop\n      pop\n      dup2\n      swap1\n      sstore\n      pop\n        /* \"contracts/SwapCart.sol\":4791:4796  token */\n      0x00\n      dup1\n      sload\n      swap1\n      0x0100\n      exp\n      swap1\n      div\n      0xffffffffffffffffffffffffffffffffffffffff\n      and\n        /* \"contracts/SwapCart.sol\":4791:4809  token.transferFrom */\n      0xffffffffffffffffffffffffffffffffffffffff\n      and\n      0x23b872dd\n        /* \"contracts/SwapCart.sol\":4810:4820  msg.sender */\n      caller\n        /* \"contracts/SwapCart.sol\":4822:4826  item */\n      dup4\n        /* \"contracts/SwapCart.sol\":4822:4833  item.seller */\n      0x03\n      add\n      0x00\n      swap1\n      sload\n      swap1\n      0x0100\n      exp\n      swap1\n      div\n      0xffffffffffffffffffffffffffffffffffffffff\n      and\n        /* \"contracts/SwapCart.sol\":4835:4841  amount */\n      dup8\n        /* \"contracts/SwapCart.sol\":4791:4842  token.transferFrom(msg.sender, item.seller, amount) */\n      mload(0x40)\n      dup5\n      0xffffffff\n      and\n      0xe0\n      shl\n      dup2\n      mstore\n      0x04\n      add\n      tag_90\n      swap4\n      swap3\n      swap2\n      swap1\n      tag_91\n      jump\t// in\n    tag_90:\n      0x20\n      mload(0x40)\n      dup1\n      dup4\n      sub\n      dup2\n      0x00\n      dup8\n      dup1\n      extcodesize\n      iszero\n      dup1\n      iszero\n      tag_92\n      jumpi\n      0x00\n      dup1\n      revert\n    tag_92:\n      pop\n      gas\n      call\n      iszero\n      dup1\n      iszero\n      tag_94\n      jumpi\n      returndatasize\n      0x00\n      dup1\n      returndatacopy\n      revert(0x00, returndatasize)\n    tag_94:\n      pop\n      pop\n      pop\n      pop\n      mload(0x40)\n      returndatasize\n      not(0x1f)\n      0x1f\n      dup3\n      add\n      and\n      dup3\n      add\n      dup1\n      0x40\n      mstore\n      pop\n      dup2\n      add\n      swap1\n      tag_95\n      swap2\n      swap1\n      tag_96\n      jump\t// in\n    tag_95:\n      pop\n        /* \"contracts/SwapCart.sol\":4618:4936  if(item.price==amount){\r... */\n    tag_87:\n        /* \"contracts/SwapCart.sol\":4968:4978  msg.sender */\n      caller\n        /* \"contracts/SwapCart.sol\":4953:4987  Payment(itmId, msg.sender, amount) */\n      0xffffffffffffffffffffffffffffffffffffffff\n      and\n      0xdef0dd1961901757e759c1e3e1ced766d61d989aa5030414848dae6bac75cbdd\n        /* \"contracts/SwapCart.sol\":4961:4966  itmId */\n      dup7\n        /* \"contracts/SwapCart.sol\":4980:4986  amount */\n      dup7\n        /* \"contracts/SwapCart.sol\":4953:4987  Payment(itmId, msg.sender, amount) */\n      mload(0x40)\n      tag_97\n      swap3\n      swap2\n      swap1\n      tag_76\n      jump\t// in\n    tag_97:\n      mload(0x40)\n      dup1\n      swap2\n      sub\n      swap1\n      log2\n        /* \"contracts/SwapCart.sol\":4469:5074  {\r... */\n      pop\n        /* \"contracts/SwapCart.sol\":1516:1758  {\r... */\n      pop\n        /* \"contracts/SwapCart.sol\":4399:5074  function payment(uint itmId, uint amount) external expireCheck(itmId) {\r... */\n      pop\n      pop\n      pop\n      jump\t// out\n        /* \"contracts/SwapCart.sol\":575:597  Item[] public itemList */\n    tag_25:\n      0x01\n      dup2\n      dup2\n      sload\n      dup2\n      lt\n      tag_98\n      jumpi\n      0x00\n      dup1\n      revert\n    tag_98:\n      swap1\n      0x00\n      mstore\n      keccak256(0x00, 0x20)\n      swap1\n      0x06\n      mul\n      add\n      0x00\n      swap2\n      pop\n      swap1\n      pop\n      dup1\n      0x00\n      add\n      sload\n      swap1\n      dup1\n      0x01\n      add\n      dup1\n      sload\n      tag_100\n      swap1\n      tag_66\n      jump\t// in\n    tag_100:\n      dup1\n      0x1f\n      add\n      0x20\n      dup1\n      swap2\n      div\n      mul\n      0x20\n      add\n      mload(0x40)\n      swap1\n      dup2\n      add\n      0x40\n      mstore\n      dup1\n      swap3\n      swap2\n      swap1\n      dup2\n      dup2\n      mstore\n      0x20\n      add\n      dup3\n      dup1\n      sload\n      tag_101\n      swap1\n      tag_66\n      jump\t// in\n    tag_101:\n      dup1\n      iszero\n      tag_102\n      jumpi\n      dup1\n      0x1f\n      lt\n      tag_103\n      jumpi\n      0x0100\n      dup1\n      dup4\n      sload\n      div\n      mul\n      dup4\n      mstore\n      swap2\n      0x20\n      add\n      swap2\n      jump(tag_102)\n    tag_103:\n      dup3\n      add\n      swap2\n      swap1\n      0x00\n      mstore\n      keccak256(0x00, 0x20)\n      swap1\n    tag_104:\n      dup2\n      sload\n      dup2\n      mstore\n      swap1\n      0x01\n      add\n      swap1\n      0x20\n      add\n      dup1\n      dup4\n      gt\n      tag_104\n      jumpi\n      dup3\n      swap1\n      sub\n      0x1f\n      and\n      dup3\n      add\n      swap2\n    tag_102:\n      pop\n      pop\n      pop\n      pop\n      pop\n      swap1\n      dup1\n      0x02\n      add\n      sload\n      swap1\n      dup1\n      0x03\n      add\n      0x00\n      swap1\n      sload\n      swap1\n      0x0100\n      exp\n      swap1\n      div\n      0xffffffffffffffffffffffffffffffffffffffff\n      and\n      swap1\n      dup1\n      0x04\n      add\n      sload\n      swap1\n      dup1\n      0x05\n      add\n      0x00\n      swap1\n      sload\n      swap1\n      0x0100\n      exp\n      swap1\n      div\n      0xffffffff\n      and\n      swap1\n      pop\n      dup7\n      jump\t// out\n        /* \"contracts/SwapCart.sol\":3363:4009  function createSaleAdvert(uint itmPrice, string memory itmImage, uint32 itmDueDate) external{\r... */\n    tag_31:\n        /* \"contracts/SwapCart.sol\":3499:3707  Item({\r... */\n      mload(0x40)\n      dup1\n      0xc0\n      add\n      0x40\n      mstore\n      dup1\n        /* \"contracts/SwapCart.sol\":3526:3547  itemCounter.current() */\n      tag_106\n        /* \"contracts/SwapCart.sol\":3526:3537  itemCounter */\n      0x05\n        /* \"contracts/SwapCart.sol\":3526:3545  itemCounter.current */\n      tag_107\n        /* \"contracts/SwapCart.sol\":3526:3547  itemCounter.current() */\n      jump\t// in\n    tag_106:\n        /* \"contracts/SwapCart.sol\":3499:3707  Item({\r... */\n      dup2\n      mstore\n      0x20\n      add\n        /* \"contracts/SwapCart.sol\":3601:3609  itmImage */\n      dup4\n        /* \"contracts/SwapCart.sol\":3499:3707  Item({\r... */\n      dup2\n      mstore\n      0x20\n      add\n        /* \"contracts/SwapCart.sol\":3662:3663  0 */\n      0x00\n        /* \"contracts/SwapCart.sol\":3499:3707  Item({\r... */\n      dup2\n      mstore\n      0x20\n      add\n        /* \"contracts/SwapCart.sol\":3685:3695  msg.sender */\n      caller\n        /* \"contracts/SwapCart.sol\":3499:3707  Item({\r... */\n      0xffffffffffffffffffffffffffffffffffffffff\n      and\n      dup2\n      mstore\n      0x20\n      add\n        /* \"contracts/SwapCart.sol\":3568:3576  itmPrice */\n      dup5\n        /* \"contracts/SwapCart.sol\":3499:3707  Item({\r... */\n      dup2\n      mstore\n      0x20\n      add\n        /* \"contracts/SwapCart.sol\":3632:3642  itmDueDate */\n      dup3\n        /* \"contracts/SwapCart.sol\":3499:3707  Item({\r... */\n      0xffffffff\n      and\n      dup2\n      mstore\n      pop\n        /* \"contracts/SwapCart.sol\":3468:3473  items */\n      0x03\n        /* \"contracts/SwapCart.sol\":3468:3496  items[itemCounter.current()] */\n      0x00\n        /* \"contracts/SwapCart.sol\":3474:3495  itemCounter.current() */\n      tag_108\n        /* \"contracts/SwapCart.sol\":3474:3485  itemCounter */\n      0x05\n        /* \"contracts/SwapCart.sol\":3474:3493  itemCounter.current */\n      tag_107\n        /* \"contracts/SwapCart.sol\":3474:3495  itemCounter.current() */\n      jump\t// in\n    tag_108:\n        /* \"contracts/SwapCart.sol\":3468:3496  items[itemCounter.current()] */\n      dup2\n      mstore\n      0x20\n      add\n      swap1\n      dup2\n      mstore\n      0x20\n      add\n      0x00\n      keccak256\n        /* \"contracts/SwapCart.sol\":3468:3707  items[itemCounter.current()] = Item({\r... */\n      0x00\n      dup3\n      add\n      mload\n      dup2\n      0x00\n      add\n      sstore\n      0x20\n      dup3\n      add\n      mload\n      dup2\n      0x01\n      add\n      swap1\n      dup1\n      mload\n      swap1\n      0x20\n      add\n      swap1\n      tag_109\n      swap3\n      swap2\n      swap1\n      tag_110\n      jump\t// in\n    tag_109:\n      pop\n      0x40\n      dup3\n      add\n      mload\n      dup2\n      0x02\n      add\n      sstore\n      0x60\n      dup3\n      add\n      mload\n      dup2\n      0x03\n      add\n      exp(0x0100, 0x00)\n      dup2\n      sload\n      dup2\n      0xffffffffffffffffffffffffffffffffffffffff\n      mul\n      not\n      and\n      swap1\n      dup4\n      0xffffffffffffffffffffffffffffffffffffffff\n      and\n      mul\n      or\n      swap1\n      sstore\n      pop\n      0x80\n      dup3\n      add\n      mload\n      dup2\n      0x04\n      add\n      sstore\n      0xa0\n      dup3\n      add\n      mload\n      dup2\n      0x05\n      add\n      exp(0x0100, 0x00)\n      dup2\n      sload\n      dup2\n      0xffffffff\n      mul\n      not\n      and\n      swap1\n      dup4\n      0xffffffff\n      and\n      mul\n      or\n      swap1\n      sstore\n      pop\n      swap1\n      pop\n      pop\n        /* \"contracts/SwapCart.sol\":3720:3725  users */\n      0x02\n        /* \"contracts/SwapCart.sol\":3720:3737  users[msg.sender] */\n      0x00\n        /* \"contracts/SwapCart.sol\":3726:3736  msg.sender */\n      caller\n        /* \"contracts/SwapCart.sol\":3720:3737  users[msg.sender] */\n      0xffffffffffffffffffffffffffffffffffffffff\n      and\n      0xffffffffffffffffffffffffffffffffffffffff\n      and\n      dup2\n      mstore\n      0x20\n      add\n      swap1\n      dup2\n      mstore\n      0x20\n      add\n      0x00\n      keccak256\n        /* \"contracts/SwapCart.sol\":3720:3747  users[msg.sender].inventory */\n      0x04\n      add\n        /* \"contracts/SwapCart.sol\":3753:3758  items */\n      0x03\n        /* \"contracts/SwapCart.sol\":3753:3781  items[itemCounter.current()] */\n      0x00\n        /* \"contracts/SwapCart.sol\":3759:3780  itemCounter.current() */\n      tag_111\n        /* \"contracts/SwapCart.sol\":3759:3770  itemCounter */\n      0x05\n        /* \"contracts/SwapCart.sol\":3759:3778  itemCounter.current */\n      tag_107\n        /* \"contracts/SwapCart.sol\":3759:3780  itemCounter.current() */\n      jump\t// in\n    tag_111:\n        /* \"contracts/SwapCart.sol\":3753:3781  items[itemCounter.current()] */\n      dup2\n      mstore\n      0x20\n      add\n      swap1\n      dup2\n      mstore\n      0x20\n      add\n      0x00\n      keccak256\n        /* \"contracts/SwapCart.sol\":3720:3782  users[msg.sender].inventory.push(items[itemCounter.current()]) */\n      swap1\n      dup1\n      0x01\n      dup2\n      sload\n      add\n      dup1\n      dup3\n      sstore\n      dup1\n      swap2\n      pop\n      pop\n      0x01\n      swap1\n      sub\n      swap1\n      0x00\n      mstore\n      keccak256(0x00, 0x20)\n      swap1\n      0x06\n      mul\n      add\n      0x00\n      swap1\n      swap2\n      swap1\n      swap2\n      swap1\n      swap2\n      pop\n      0x00\n      dup3\n      add\n      sload\n      dup2\n      0x00\n      add\n      sstore\n      0x01\n      dup3\n      add\n      dup2\n      0x01\n      add\n      swap1\n      dup1\n      sload\n      tag_113\n      swap1\n      tag_66\n      jump\t// in\n    tag_113:\n      tag_114\n      swap3\n      swap2\n      swap1\n      tag_115\n      jump\t// in\n    tag_114:\n      pop\n      0x02\n      dup3\n      add\n      sload\n      dup2\n      0x02\n      add\n      sstore\n      0x03\n      dup3\n      add\n      0x00\n      swap1\n      sload\n      swap1\n      0x0100\n      exp\n      swap1\n      div\n      0xffffffffffffffffffffffffffffffffffffffff\n      and\n      dup2\n      0x03\n      add\n      exp(0x0100, 0x00)\n      dup2\n      sload\n      dup2\n      0xffffffffffffffffffffffffffffffffffffffff\n      mul\n      not\n      and\n      swap1\n      dup4\n      0xffffffffffffffffffffffffffffffffffffffff\n      and\n      mul\n      or\n      swap1\n      sstore\n      pop\n      0x04\n      dup3\n      add\n      sload\n      dup2\n      0x04\n      add\n      sstore\n      0x05\n      dup3\n      add\n      0x00\n      swap1\n      sload\n      swap1\n      0x0100\n      exp\n      swap1\n      div\n      0xffffffff\n      and\n      dup2\n      0x05\n      add\n      exp(0x0100, 0x00)\n      dup2\n      sload\n      dup2\n      0xffffffff\n      mul\n      not\n      and\n      swap1\n      dup4\n      0xffffffff\n      and\n      mul\n      or\n      swap1\n      sstore\n      pop\n      pop\n      pop\n        /* \"contracts/SwapCart.sol\":3793:3801  itemList */\n      0x01\n        /* \"contracts/SwapCart.sol\":3807:3812  items */\n      0x03\n        /* \"contracts/SwapCart.sol\":3807:3835  items[itemCounter.current()] */\n      0x00\n        /* \"contracts/SwapCart.sol\":3813:3834  itemCounter.current() */\n      tag_116\n        /* \"contracts/SwapCart.sol\":3813:3824  itemCounter */\n      0x05\n        /* \"contracts/SwapCart.sol\":3813:3832  itemCounter.current */\n      tag_107\n        /* \"contracts/SwapCart.sol\":3813:3834  itemCounter.current() */\n      jump\t// in\n    tag_116:\n        /* \"contracts/SwapCart.sol\":3807:3835  items[itemCounter.current()] */\n      dup2\n      mstore\n      0x20\n      add\n      swap1\n      dup2\n      mstore\n      0x20\n      add\n      0x00\n      keccak256\n        /* \"contracts/SwapCart.sol\":3793:3836  itemList.push(items[itemCounter.current()]) */\n      swap1\n      dup1\n      0x01\n      dup2\n      sload\n      add\n      dup1\n      dup3\n      sstore\n      dup1\n      swap2\n      pop\n      pop\n      0x01\n      swap1\n      sub\n      swap1\n      0x00\n      mstore\n      keccak256(0x00, 0x20)\n      swap1\n      0x06\n      mul\n      add\n      0x00\n      swap1\n      swap2\n      swap1\n      swap2\n      swap1\n      swap2\n      pop\n      0x00\n      dup3\n      add\n      sload\n      dup2\n      0x00\n      add\n      sstore\n      0x01\n      dup3\n      add\n      dup2\n      0x01\n      add\n      swap1\n      dup1\n      sload\n      tag_118\n      swap1\n      tag_66\n      jump\t// in\n    tag_118:\n      tag_119\n      swap3\n      swap2\n      swap1\n      tag_115\n      jump\t// in\n    tag_119:\n      pop\n      0x02\n      dup3\n      add\n      sload\n      dup2\n      0x02\n      add\n      sstore\n      0x03\n      dup3\n      add\n      0x00\n      swap1\n      sload\n      swap1\n      0x0100\n      exp\n      swap1\n      div\n      0xffffffffffffffffffffffffffffffffffffffff\n      and\n      dup2\n      0x03\n      add\n      exp(0x0100, 0x00)\n      dup2\n      sload\n      dup2\n      0xffffffffffffffffffffffffffffffffffffffff\n      mul\n      not\n      and\n      swap1\n      dup4\n      0xffffffffffffffffffffffffffffffffffffffff\n      and\n      mul\n      or\n      swap1\n      sstore\n      pop\n      0x04\n      dup3\n      add\n      sload\n      dup2\n      0x04\n      add\n      sstore\n      0x05\n      dup3\n      add\n      0x00\n      swap1\n      sload\n      swap1\n      0x0100\n      exp\n      swap1\n      div\n      0xffffffff\n      and\n      dup2\n      0x05\n      add\n      exp(0x0100, 0x00)\n      dup2\n      sload\n      dup2\n      0xffffffff\n      mul\n      not\n      and\n      swap1\n      dup4\n      0xffffffff\n      and\n      mul\n      or\n      swap1\n      sstore\n      pop\n      pop\n      pop\n        /* \"contracts/SwapCart.sol\":3847:3870  itemCounter.increment() */\n      tag_120\n        /* \"contracts/SwapCart.sol\":3847:3858  itemCounter */\n      0x05\n        /* \"contracts/SwapCart.sol\":3847:3868  itemCounter.increment */\n      tag_121\n        /* \"contracts/SwapCart.sol\":3847:3870  itemCounter.increment() */\n      jump\t// in\n    tag_120:\n        /* \"contracts/SwapCart.sol\":3990:4000  msg.sender */\n      caller\n        /* \"contracts/SwapCart.sol\":3888:4001  CreateSaleAdvert(itemCounter.current(),itmPrice,itmImage,itmDueDate,items[itemCounter.current()].star,msg.sender) */\n      0xffffffffffffffffffffffffffffffffffffffff\n      and\n      0x9a5b8b5cb7f9c536ea5db1a94142c9f716fb3a8698a9c70a5b8bfad3922cb06c\n        /* \"contracts/SwapCart.sol\":3905:3926  itemCounter.current() */\n      tag_122\n        /* \"contracts/SwapCart.sol\":3905:3916  itemCounter */\n      0x05\n        /* \"contracts/SwapCart.sol\":3905:3924  itemCounter.current */\n      tag_107\n        /* \"contracts/SwapCart.sol\":3905:3926  itemCounter.current() */\n      jump\t// in\n    tag_122:\n        /* \"contracts/SwapCart.sol\":3927:3935  itmPrice */\n      dup6\n        /* \"contracts/SwapCart.sol\":3936:3944  itmImage */\n      dup6\n        /* \"contracts/SwapCart.sol\":3945:3955  itmDueDate */\n      dup6\n        /* \"contracts/SwapCart.sol\":3956:3961  items */\n      0x03\n        /* \"contracts/SwapCart.sol\":3956:3984  items[itemCounter.current()] */\n      0x00\n        /* \"contracts/SwapCart.sol\":3962:3983  itemCounter.current() */\n      tag_123\n        /* \"contracts/SwapCart.sol\":3962:3973  itemCounter */\n      0x05\n        /* \"contracts/SwapCart.sol\":3962:3981  itemCounter.current */\n      tag_107\n        /* \"contracts/SwapCart.sol\":3962:3983  itemCounter.current() */\n      jump\t// in\n    tag_123:\n        /* \"contracts/SwapCart.sol\":3956:3984  items[itemCounter.current()] */\n      dup2\n      mstore\n      0x20\n      add\n      swap1\n      dup2\n      mstore\n      0x20\n      add\n      0x00\n      keccak256\n        /* \"contracts/SwapCart.sol\":3956:3989  items[itemCounter.current()].star */\n      0x02\n      add\n      sload\n        /* \"contracts/SwapCart.sol\":3888:4001  CreateSaleAdvert(itemCounter.current(),itmPrice,itmImage,itmDueDate,items[itemCounter.current()].star,msg.sender) */\n      mload(0x40)\n      tag_124\n      swap6\n      swap5\n      swap4\n      swap3\n      swap2\n      swap1\n      tag_125\n      jump\t// in\n    tag_124:\n      mload(0x40)\n      dup1\n      swap2\n      sub\n      swap1\n      log2\n        /* \"contracts/SwapCart.sol\":3363:4009  function createSaleAdvert(uint itmPrice, string memory itmImage, uint32 itmDueDate) external{\r... */\n      pop\n      pop\n      pop\n      jump\t// out\n        /* \"contracts/SwapCart.sol\":5082:5238  function getEntireItems() public listSizeCheck returns (Item[] memory) {\r... */\n    tag_33:\n        /* \"contracts/SwapCart.sol\":5138:5151  Item[] memory */\n      0x60\n        /* \"contracts/SwapCart.sol\":2090:2091  0 */\n      0x00\n        /* \"contracts/SwapCart.sol\":2066:2087  itemCounter.current() */\n      tag_127\n        /* \"contracts/SwapCart.sol\":2066:2077  itemCounter */\n      0x05\n        /* \"contracts/SwapCart.sol\":2066:2085  itemCounter.current */\n      tag_107\n        /* \"contracts/SwapCart.sol\":2066:2087  itemCounter.current() */\n      jump\t// in\n    tag_127:\n        /* \"contracts/SwapCart.sol\":2066:2091  itemCounter.current() > 0 */\n      gt\n        /* \"contracts/SwapCart.sol\":2058:2130  require(itemCounter.current() > 0, \"There are no products to list yet!\") */\n      tag_128\n      jumpi\n      mload(0x40)\n      0x08c379a000000000000000000000000000000000000000000000000000000000\n      dup2\n      mstore\n      0x04\n      add\n      tag_129\n      swap1\n      tag_130\n      jump\t// in\n    tag_129:\n      mload(0x40)\n      dup1\n      swap2\n      sub\n      swap1\n      revert\n    tag_128:\n        /* \"contracts/SwapCart.sol\":5193:5203  msg.sender */\n      caller\n        /* \"contracts/SwapCart.sol\":5169:5204  GetEntireItems(itemList,msg.sender) */\n      0xffffffffffffffffffffffffffffffffffffffff\n      and\n      0x440c078a5e11bff85c6b6d7c52f378c8220355bd3331ec889638c0eca883670c\n        /* \"contracts/SwapCart.sol\":5184:5192  itemList */\n      0x01\n        /* \"contracts/SwapCart.sol\":5169:5204  GetEntireItems(itemList,msg.sender) */\n      mload(0x40)\n      tag_132\n      swap2\n      swap1\n      tag_133\n      jump\t// in\n    tag_132:\n      mload(0x40)\n      dup1\n      swap2\n      sub\n      swap1\n      log2\n        /* \"contracts/SwapCart.sol\":5222:5230  itemList */\n      0x01\n        /* \"contracts/SwapCart.sol\":5215:5230  return itemList */\n      dup1\n      sload\n      dup1\n      0x20\n      mul\n      0x20\n      add\n      mload(0x40)\n      swap1\n      dup2\n      add\n      0x40\n      mstore\n      dup1\n      swap3\n      swap2\n      swap1\n      dup2\n      dup2\n      mstore\n      0x20\n      add\n      0x00\n      swap1\n    tag_134:\n      dup3\n      dup3\n      lt\n      iszero\n      tag_135\n      jumpi\n      dup4\n      dup3\n      swap1\n      0x00\n      mstore\n      keccak256(0x00, 0x20)\n      swap1\n      0x06\n      mul\n      add\n      mload(0x40)\n      dup1\n      0xc0\n      add\n      0x40\n      mstore\n      swap1\n      dup2\n      0x00\n      dup3\n      add\n      sload\n      dup2\n      mstore\n      0x20\n      add\n      0x01\n      dup3\n      add\n      dup1\n      sload\n      tag_137\n      swap1\n      tag_66\n      jump\t// in\n    tag_137:\n      dup1\n      0x1f\n      add\n      0x20\n      dup1\n      swap2\n      div\n      mul\n      0x20\n      add\n      mload(0x40)\n      swap1\n      dup2\n      add\n      0x40\n      mstore\n      dup1\n      swap3\n      swap2\n      swap1\n      dup2\n      dup2\n      mstore\n      0x20\n      add\n      dup3\n      dup1\n      sload\n      tag_138\n      swap1\n      tag_66\n      jump\t// in\n    tag_138:\n      dup1\n      iszero\n      tag_139\n      jumpi\n      dup1\n      0x1f\n      lt\n      tag_140\n      jumpi\n      0x0100\n      dup1\n      dup4\n      sload\n      div\n      mul\n      dup4\n      mstore\n      swap2\n      0x20\n      add\n      swap2\n      jump(tag_139)\n    tag_140:\n      dup3\n      add\n      swap2\n      swap1\n      0x00\n      mstore\n      keccak256(0x00, 0x20)\n      swap1\n    tag_141:\n      dup2\n      sload\n      dup2\n      mstore\n      swap1\n      0x01\n      add\n      swap1\n      0x20\n      add\n      dup1\n      dup4\n      gt\n      tag_141\n      jumpi\n      dup3\n      swap1\n      sub\n      0x1f\n      and\n      dup3\n      add\n      swap2\n    tag_139:\n      pop\n      pop\n      pop\n      pop\n      pop\n      dup2\n      mstore\n      0x20\n      add\n      0x02\n      dup3\n      add\n      sload\n      dup2\n      mstore\n      0x20\n      add\n      0x03\n      dup3\n      add\n      0x00\n      swap1\n      sload\n      swap1\n      0x0100\n      exp\n      swap1\n      div\n      0xffffffffffffffffffffffffffffffffffffffff\n      and\n      0xffffffffffffffffffffffffffffffffffffffff\n      and\n      0xffffffffffffffffffffffffffffffffffffffff\n      and\n      dup2\n      mstore\n      0x20\n      add\n      0x04\n      dup3\n      add\n      sload\n      dup2\n      mstore\n      0x20\n      add\n      0x05\n      dup3\n      add\n      0x00\n      swap1\n      sload\n      swap1\n      0x0100\n      exp\n      swap1\n      div\n      0xffffffff\n      and\n      0xffffffff\n      and\n      0xffffffff\n      and\n      dup2\n      mstore\n      pop\n      pop\n      dup2\n      mstore\n      0x20\n      add\n      swap1\n      0x01\n      add\n      swap1\n      jump(tag_134)\n    tag_135:\n      pop\n      pop\n      pop\n      pop\n      swap1\n      pop\n        /* \"contracts/SwapCart.sol\":5082:5238  function getEntireItems() public listSizeCheck returns (Item[] memory) {\r... */\n      swap1\n      jump\t// out\n        /* \"contracts/SwapCart.sol\":606:643  mapping(address => User) public users */\n    tag_39:\n      mstore(0x20, 0x02)\n      dup1\n      0x00\n      mstore\n      keccak256(0x00, 0x40)\n      0x00\n      swap2\n      pop\n      swap1\n      pop\n      dup1\n      0x00\n      add\n      sload\n      swap1\n      dup1\n      0x01\n      add\n      dup1\n      sload\n      tag_142\n      swap1\n      tag_66\n      jump\t// in\n    tag_142:\n      dup1\n      0x1f\n      add\n      0x20\n      dup1\n      swap2\n      div\n      mul\n      0x20\n      add\n      mload(0x40)\n      swap1\n      dup2\n      add\n      0x40\n      mstore\n      dup1\n      swap3\n      swap2\n      swap1\n      dup2\n      dup2\n      mstore\n      0x20\n      add\n      dup3\n      dup1\n      sload\n      tag_143\n      swap1\n      tag_66\n      jump\t// in\n    tag_143:\n      dup1\n      iszero\n      tag_144\n      jumpi\n      dup1\n      0x1f\n      lt\n      tag_145\n      jumpi\n      0x0100\n      dup1\n      dup4\n      sload\n      div\n      mul\n      dup4\n      mstore\n      swap2\n      0x20\n      add\n      swap2\n      jump(tag_144)\n    tag_145:\n      dup3\n      add\n      swap2\n      swap1\n      0x00\n      mstore\n      keccak256(0x00, 0x20)\n      swap1\n    tag_146:\n      dup2\n      sload\n      dup2\n      mstore\n      swap1\n      0x01\n      add\n      swap1\n      0x20\n      add\n      dup1\n      dup4\n      gt\n      tag_146\n      jumpi\n      dup3\n      swap1\n      sub\n      0x1f\n      and\n      dup3\n      add\n      swap2\n    tag_144:\n      pop\n      pop\n      pop\n      pop\n      pop\n      swap1\n      dup1\n      0x02\n      add\n      dup1\n      sload\n      tag_147\n      swap1\n      tag_66\n      jump\t// in\n    tag_147:\n      dup1\n      0x1f\n      add\n      0x20\n      dup1\n      swap2\n      div\n      mul\n      0x20\n      add\n      mload(0x40)\n      swap1\n      dup2\n      add\n      0x40\n      mstore\n      dup1\n      swap3\n      swap2\n      swap1\n      dup2\n      dup2\n      mstore\n      0x20\n      add\n      dup3\n      dup1\n      sload\n      tag_148\n      swap1\n      tag_66\n      jump\t// in\n    tag_148:\n      dup1\n      iszero\n      tag_149\n      jumpi\n      dup1\n      0x1f\n      lt\n      tag_150\n      jumpi\n      0x0100\n      dup1\n      dup4\n      sload\n      div\n      mul\n      dup4\n      mstore\n      swap2\n      0x20\n      add\n      swap2\n      jump(tag_149)\n    tag_150:\n      dup3\n      add\n      swap2\n      swap1\n      0x00\n      mstore\n      keccak256(0x00, 0x20)\n      swap1\n    tag_151:\n      dup2\n      sload\n      dup2\n      mstore\n      swap1\n      0x01\n      add\n      swap1\n      0x20\n      add\n      dup1\n      dup4\n      gt\n      tag_151\n      jumpi\n      dup3\n      swap1\n      sub\n      0x1f\n      and\n      dup3\n      add\n      swap2\n    tag_149:\n      pop\n      pop\n      pop\n      pop\n      pop\n      swap1\n      dup1\n      0x05\n      add\n      sload\n      swap1\n      pop\n      dup5\n      jump\t// out\n        /* \"contracts/SwapCart.sol\":650:687  mapping(uint256 => Item) public items */\n    tag_44:\n      mstore(0x20, 0x03)\n      dup1\n      0x00\n      mstore\n      keccak256(0x00, 0x40)\n      0x00\n      swap2\n      pop\n      swap1\n      pop\n      dup1\n      0x00\n      add\n      sload\n      swap1\n      dup1\n      0x01\n      add\n      dup1\n      sload\n      tag_152\n      swap1\n      tag_66\n      jump\t// in\n    tag_152:\n      dup1\n      0x1f\n      add\n      0x20\n      dup1\n      swap2\n      div\n      mul\n      0x20\n      add\n      mload(0x40)\n      swap1\n      dup2\n      add\n      0x40\n      mstore\n      dup1\n      swap3\n      swap2\n      swap1\n      dup2\n      dup2\n      mstore\n      0x20\n      add\n      dup3\n      dup1\n      sload\n      tag_153\n      swap1\n      tag_66\n      jump\t// in\n    tag_153:\n      dup1\n      iszero\n      tag_154\n      jumpi\n      dup1\n      0x1f\n      lt\n      tag_155\n      jumpi\n      0x0100\n      dup1\n      dup4\n      sload\n      div\n      mul\n      dup4\n      mstore\n      swap2\n      0x20\n      add\n      swap2\n      jump(tag_154)\n    tag_155:\n      dup3\n      add\n      swap2\n      swap1\n      0x00\n      mstore\n      keccak256(0x00, 0x20)\n      swap1\n    tag_156:\n      dup2\n      sload\n      dup2\n      mstore\n      swap1\n      0x01\n      add\n      swap1\n      0x20\n      add\n      dup1\n      dup4\n      gt\n      tag_156\n      jumpi\n      dup3\n      swap1\n      sub\n      0x1f\n      and\n      dup3\n      add\n      swap2\n    tag_154:\n      pop\n      pop\n      pop\n      pop\n      pop\n      swap1\n      dup1\n      0x02\n      add\n      sload\n      swap1\n      dup1\n      0x03\n      add\n      0x00\n      swap1\n      sload\n      swap1\n      0x0100\n      exp\n      swap1\n      div\n      0xffffffffffffffffffffffffffffffffffffffff\n      and\n      swap1\n      dup1\n      0x04\n      add\n      sload\n      swap1\n      dup1\n      0x05\n      add\n      0x00\n      swap1\n      sload\n      swap1\n      0x0100\n      exp\n      swap1\n      div\n      0xffffffff\n      and\n      swap1\n      pop\n      dup7\n      jump\t// out\n        /* \"contracts/SwapCart.sol\":4076:4391  function cancelSaleAdvert(uint itmId) external expireCheck(itmId) {\r... */\n    tag_48:\n        /* \"contracts/SwapCart.sol\":4135:4140  itmId */\n      dup1\n        /* \"contracts/SwapCart.sol\":1527:1543  Item memory item */\n      0x00\n        /* \"contracts/SwapCart.sol\":1546:1551  items */\n      0x03\n        /* \"contracts/SwapCart.sol\":1546:1558  items[itmId] */\n      0x00\n        /* \"contracts/SwapCart.sol\":1552:1557  itmId */\n      dup4\n        /* \"contracts/SwapCart.sol\":1546:1558  items[itmId] */\n      dup2\n      mstore\n      0x20\n      add\n      swap1\n      dup2\n      mstore\n      0x20\n      add\n      0x00\n      keccak256\n        /* \"contracts/SwapCart.sol\":1527:1558  Item memory item = items[itmId] */\n      mload(0x40)\n      dup1\n      0xc0\n      add\n      0x40\n      mstore\n      swap1\n      dup2\n      0x00\n      dup3\n      add\n      sload\n      dup2\n      mstore\n      0x20\n      add\n      0x01\n      dup3\n      add\n      dup1\n      sload\n      tag_158\n      swap1\n      tag_66\n      jump\t// in\n    tag_158:\n      dup1\n      0x1f\n      add\n      0x20\n      dup1\n      swap2\n      div\n      mul\n      0x20\n      add\n      mload(0x40)\n      swap1\n      dup2\n      add\n      0x40\n      mstore\n      dup1\n      swap3\n      swap2\n      swap1\n      dup2\n      dup2\n      mstore\n      0x20\n      add\n      dup3\n      dup1\n      sload\n      tag_159\n      swap1\n      tag_66\n      jump\t// in\n    tag_159:\n      dup1\n      iszero\n      tag_160\n      jumpi\n      dup1\n      0x1f\n      lt\n      tag_161\n      jumpi\n      0x0100\n      dup1\n      dup4\n      sload\n      div\n      mul\n      dup4\n      mstore\n      swap2\n      0x20\n      add\n      swap2\n      jump(tag_160)\n    tag_161:\n      dup3\n      add\n      swap2\n      swap1\n      0x00\n      mstore\n      keccak256(0x00, 0x20)\n      swap1\n    tag_162:\n      dup2\n      sload\n      dup2\n      mstore\n      swap1\n      0x01\n      add\n      swap1\n      0x20\n      add\n      dup1\n      dup4\n      gt\n      tag_162\n      jumpi\n      dup3\n      swap1\n      sub\n      0x1f\n      and\n      dup3\n      add\n      swap2\n    tag_160:\n      pop\n      pop\n      pop\n      pop\n      pop\n      dup2\n      mstore\n      0x20\n      add\n      0x02\n      dup3\n      add\n      sload\n      dup2\n      mstore\n      0x20\n      add\n      0x03\n      dup3\n      add\n      0x00\n      swap1\n      sload\n      swap1\n      0x0100\n      exp\n      swap1\n      div\n      0xffffffffffffffffffffffffffffffffffffffff\n      and\n      0xffffffffffffffffffffffffffffffffffffffff\n      and\n      0xffffffffffffffffffffffffffffffffffffffff\n      and\n      dup2\n      mstore\n      0x20\n      add\n      0x04\n      dup3\n      add\n      sload\n      dup2\n      mstore\n      0x20\n      add\n      0x05\n      dup3\n      add\n      0x00\n      swap1\n      sload\n      swap1\n      0x0100\n      exp\n      swap1\n      div\n      0xffffffff\n      and\n      0xffffffff\n      and\n      0xffffffff\n      and\n      dup2\n      mstore\n      pop\n      pop\n      swap1\n      pop\n        /* \"contracts/SwapCart.sol\":1593:1608  block.timestamp */\n      timestamp\n        /* \"contracts/SwapCart.sol\":1577:1581  item */\n      dup2\n        /* \"contracts/SwapCart.sol\":1577:1589  item.dueDate */\n      0xa0\n      add\n      mload\n        /* \"contracts/SwapCart.sol\":1577:1608  item.dueDate >= block.timestamp */\n      0xffffffff\n      and\n      lt\n      iszero\n        /* \"contracts/SwapCart.sol\":1569:1634  require(item.dueDate >= block.timestamp, \"The sale has expired!\") */\n      tag_163\n      jumpi\n      mload(0x40)\n      0x08c379a000000000000000000000000000000000000000000000000000000000\n      dup2\n      mstore\n      0x04\n      add\n      tag_164\n      swap1\n      tag_85\n      jump\t// in\n    tag_164:\n      mload(0x40)\n      dup1\n      swap2\n      sub\n      swap1\n      revert\n    tag_163:\n        /* \"contracts/SwapCart.sol\":4160:4165  items */\n      0x03\n        /* \"contracts/SwapCart.sol\":4160:4172  items[itmId] */\n      0x00\n        /* \"contracts/SwapCart.sol\":4166:4171  itmId */\n      dup5\n        /* \"contracts/SwapCart.sol\":4160:4172  items[itmId] */\n      dup2\n      mstore\n      0x20\n      add\n      swap1\n      dup2\n      mstore\n      0x20\n      add\n      0x00\n      keccak256\n      0x00\n        /* \"contracts/SwapCart.sol\":4153:4172  delete items[itmId] */\n      dup1\n      dup3\n      add\n      0x00\n      swap1\n      sstore\n      0x01\n      dup3\n      add\n      0x00\n      tag_166\n      swap2\n      swap1\n      tag_167\n      jump\t// in\n    tag_166:\n      0x02\n      dup3\n      add\n      0x00\n      swap1\n      sstore\n      0x03\n      dup3\n      add\n      exp(0x0100, 0x00)\n      dup2\n      sload\n      swap1\n      0xffffffffffffffffffffffffffffffffffffffff\n      mul\n      not\n      and\n      swap1\n      sstore\n      0x04\n      dup3\n      add\n      0x00\n      swap1\n      sstore\n      0x05\n      dup3\n      add\n      exp(0x0100, 0x00)\n      dup2\n      sload\n      swap1\n      0xffffffff\n      mul\n      not\n      and\n      swap1\n      sstore\n      pop\n      pop\n        /* \"contracts/SwapCart.sol\":4282:4292  msg.sender */\n      caller\n        /* \"contracts/SwapCart.sol\":4259:4293  CancelSaleAdvert(itmId,msg.sender) */\n      0xffffffffffffffffffffffffffffffffffffffff\n      and\n      0x45e4102cd0468b42f71c0179aa78051418c31c018e07a5091eb13b97fadbab5e\n        /* \"contracts/SwapCart.sol\":4276:4281  itmId */\n      dup5\n        /* \"contracts/SwapCart.sol\":4259:4293  CancelSaleAdvert(itmId,msg.sender) */\n      mload(0x40)\n      tag_168\n      swap2\n      swap1\n      tag_59\n      jump\t// in\n    tag_168:\n      mload(0x40)\n      dup1\n      swap2\n      sub\n      swap1\n      log2\n        /* \"contracts/SwapCart.sol\":1516:1758  {\r... */\n      pop\n        /* \"contracts/SwapCart.sol\":4076:4391  function cancelSaleAdvert(uint itmId) external expireCheck(itmId) {\r... */\n      pop\n      pop\n      jump\t// out\n        /* \"contracts/SwapCart.sol\":5404:5591  function getItemById(uint itmId) public itemAvailabilityCheck(itmId) returns (Item memory) {\r... */\n    tag_51:\n        /* \"contracts/SwapCart.sol\":5482:5493  Item memory */\n      tag_169\n      tag_170\n      jump\t// in\n    tag_169:\n        /* \"contracts/SwapCart.sol\":5466:5471  itmId */\n      dup2\n        /* \"contracts/SwapCart.sol\":2331:2352  itemCounter.current() */\n      tag_172\n        /* \"contracts/SwapCart.sol\":2331:2342  itemCounter */\n      0x05\n        /* \"contracts/SwapCart.sol\":2331:2350  itemCounter.current */\n      tag_107\n        /* \"contracts/SwapCart.sol\":2331:2352  itemCounter.current() */\n      jump\t// in\n    tag_172:\n        /* \"contracts/SwapCart.sol\":2322:2327  itmId */\n      dup2\n        /* \"contracts/SwapCart.sol\":2322:2352  itmId <= itemCounter.current() */\n      gt\n      iszero\n        /* \"contracts/SwapCart.sol\":2314:2386  require(itmId <= itemCounter.current(), \"There is no such item record!\") */\n      tag_173\n      jumpi\n      mload(0x40)\n      0x08c379a000000000000000000000000000000000000000000000000000000000\n      dup2\n      mstore\n      0x04\n      add\n      tag_174\n      swap1\n      tag_175\n      jump\t// in\n    tag_174:\n      mload(0x40)\n      dup1\n      swap2\n      sub\n      swap1\n      revert\n    tag_173:\n        /* \"contracts/SwapCart.sol\":5542:5552  msg.sender */\n      caller\n        /* \"contracts/SwapCart.sol\":5511:5553  GetItemById(itmId,items[itmId],msg.sender) */\n      0xffffffffffffffffffffffffffffffffffffffff\n      and\n      0xcb718ffb18411374498c1cd31cb4d4c8068af3c5b1546205f14c72bcd20f21ba\n        /* \"contracts/SwapCart.sol\":5523:5528  itmId */\n      dup5\n        /* \"contracts/SwapCart.sol\":5529:5534  items */\n      0x03\n        /* \"contracts/SwapCart.sol\":5529:5541  items[itmId] */\n      0x00\n        /* \"contracts/SwapCart.sol\":5535:5540  itmId */\n      dup8\n        /* \"contracts/SwapCart.sol\":5529:5541  items[itmId] */\n      dup2\n      mstore\n      0x20\n      add\n      swap1\n      dup2\n      mstore\n      0x20\n      add\n      0x00\n      keccak256\n        /* \"contracts/SwapCart.sol\":5511:5553  GetItemById(itmId,items[itmId],msg.sender) */\n      mload(0x40)\n      tag_177\n      swap3\n      swap2\n      swap1\n      tag_178\n      jump\t// in\n    tag_177:\n      mload(0x40)\n      dup1\n      swap2\n      sub\n      swap1\n      log2\n        /* \"contracts/SwapCart.sol\":5571:5576  items */\n      0x03\n        /* \"contracts/SwapCart.sol\":5571:5583  items[itmId] */\n      0x00\n        /* \"contracts/SwapCart.sol\":5577:5582  itmId */\n      dup5\n        /* \"contracts/SwapCart.sol\":5571:5583  items[itmId] */\n      dup2\n      mstore\n      0x20\n      add\n      swap1\n      dup2\n      mstore\n      0x20\n      add\n      0x00\n      keccak256\n        /* \"contracts/SwapCart.sol\":5564:5583  return items[itmId] */\n      mload(0x40)\n      dup1\n      0xc0\n      add\n      0x40\n      mstore\n      swap1\n      dup2\n      0x00\n      dup3\n      add\n      sload\n      dup2\n      mstore\n      0x20\n      add\n      0x01\n      dup3\n      add\n      dup1\n      sload\n      tag_179\n      swap1\n      tag_66\n      jump\t// in\n    tag_179:\n      dup1\n      0x1f\n      add\n      0x20\n      dup1\n      swap2\n      div\n      mul\n      0x20\n      add\n      mload(0x40)\n      swap1\n      dup2\n      add\n      0x40\n      mstore\n      dup1\n      swap3\n      swap2\n      swap1\n      dup2\n      dup2\n      mstore\n      0x20\n      add\n      dup3\n      dup1\n      sload\n      tag_180\n      swap1\n      tag_66\n      jump\t// in\n    tag_180:\n      dup1\n      iszero\n      tag_181\n      jumpi\n      dup1\n      0x1f\n      lt\n      tag_182\n      jumpi\n      0x0100\n      dup1\n      dup4\n      sload\n      div\n      mul\n      dup4\n      mstore\n      swap2\n      0x20\n      add\n      swap2\n      jump(tag_181)\n    tag_182:\n      dup3\n      add\n      swap2\n      swap1\n      0x00\n      mstore\n      keccak256(0x00, 0x20)\n      swap1\n    tag_183:\n      dup2\n      sload\n      dup2\n      mstore\n      swap1\n      0x01\n      add\n      swap1\n      0x20\n      add\n      dup1\n      dup4\n      gt\n      tag_183\n      jumpi\n      dup3\n      swap1\n      sub\n      0x1f\n      and\n      dup3\n      add\n      swap2\n    tag_181:\n      pop\n      pop\n      pop\n      pop\n      pop\n      dup2\n      mstore\n      0x20\n      add\n      0x02\n      dup3\n      add\n      sload\n      dup2\n      mstore\n      0x20\n      add\n      0x03\n      dup3\n      add\n      0x00\n      swap1\n      sload\n      swap1\n      0x0100\n      exp\n      swap1\n      div\n      0xffffffffffffffffffffffffffffffffffffffff\n      and\n      0xffffffffffffffffffffffffffffffffffffffff\n      and\n      0xffffffffffffffffffffffffffffffffffffffff\n      and\n      dup2\n      mstore\n      0x20\n      add\n      0x04\n      dup3\n      add\n      sload\n      dup2\n      mstore\n      0x20\n      add\n      0x05\n      dup3\n      add\n      0x00\n      swap1\n      sload\n      swap1\n      0x0100\n      exp\n      swap1\n      div\n      0xffffffff\n      and\n      0xffffffff\n      and\n      0xffffffff\n      and\n      dup2\n      mstore\n      pop\n      pop\n      swap2\n      pop\n        /* \"contracts/SwapCart.sol\":5404:5591  function getItemById(uint itmId) public itemAvailabilityCheck(itmId) returns (Item memory) {\r... */\n      pop\n      swap2\n      swap1\n      pop\n      jump\t// out\n        /* \"contracts/SwapCart.sol\":694:755  mapping(uint => mapping(address => uint)) public itemsOfUsers */\n    tag_57:\n      mstore(0x20, 0x04)\n      dup2\n      0x00\n      mstore\n      mstore(0x20, keccak256(0x00, 0x40))\n      dup1\n      0x00\n      mstore\n      keccak256(0x00, 0x40)\n      0x00\n      swap2\n      pop\n      swap2\n      pop\n      pop\n      sload\n      dup2\n      jump\t// out\n        /* \"contracts/SwapCart.sol\":549:568  IERC20 public token */\n    tag_61:\n      0x00\n      dup1\n      sload\n      swap1\n      0x0100\n      exp\n      swap1\n      div\n      0xffffffffffffffffffffffffffffffffffffffff\n      and\n      dup2\n      jump\t// out\n        /* \"@openzeppelin/contracts/utils/Counters.sol\":827:939  function current(Counter storage counter) internal view returns (uint256) {... */\n    tag_107:\n        /* \"@openzeppelin/contracts/utils/Counters.sol\":892:899  uint256 */\n      0x00\n        /* \"@openzeppelin/contracts/utils/Counters.sol\":918:925  counter */\n      dup2\n        /* \"@openzeppelin/contracts/utils/Counters.sol\":918:932  counter._value */\n      0x00\n      add\n      sload\n        /* \"@openzeppelin/contracts/utils/Counters.sol\":911:932  return counter._value */\n      swap1\n      pop\n        /* \"@openzeppelin/contracts/utils/Counters.sol\":827:939  function current(Counter storage counter) internal view returns (uint256) {... */\n      swap2\n      swap1\n      pop\n      jump\t// out\n        /* \"@openzeppelin/contracts/utils/Counters.sol\":945:1068  function increment(Counter storage counter) internal {... */\n    tag_121:\n        /* \"@openzeppelin/contracts/utils/Counters.sol\":1050:1051  1 */\n      0x01\n        /* \"@openzeppelin/contracts/utils/Counters.sol\":1032:1039  counter */\n      dup2\n        /* \"@openzeppelin/contracts/utils/Counters.sol\":1032:1046  counter._value */\n      0x00\n      add\n      0x00\n        /* \"@openzeppelin/contracts/utils/Counters.sol\":1032:1051  counter._value += 1 */\n      dup3\n      dup3\n      sload\n      add\n      swap3\n      pop\n      pop\n      dup2\n      swap1\n      sstore\n      pop\n        /* \"@openzeppelin/contracts/utils/Counters.sol\":945:1068  function increment(Counter storage counter) internal {... */\n      pop\n      jump\t// out\n    tag_110:\n      dup3\n      dup1\n      sload\n      tag_186\n      swap1\n      tag_66\n      jump\t// in\n    tag_186:\n      swap1\n      0x00\n      mstore\n      keccak256(0x00, 0x20)\n      swap1\n      0x1f\n      add\n      0x20\n      swap1\n      div\n      dup2\n      add\n      swap3\n      dup3\n      tag_188\n      jumpi\n      0x00\n      dup6\n      sstore\n      jump(tag_187)\n    tag_188:\n      dup3\n      0x1f\n      lt\n      tag_189\n      jumpi\n      dup1\n      mload\n      not(0xff)\n      and\n      dup4\n      dup1\n      add\n      or\n      dup6\n      sstore\n      jump(tag_187)\n    tag_189:\n      dup3\n      dup1\n      add\n      0x01\n      add\n      dup6\n      sstore\n      dup3\n      iszero\n      tag_187\n      jumpi\n      swap2\n      dup3\n      add\n    tag_190:\n      dup3\n      dup2\n      gt\n      iszero\n      tag_191\n      jumpi\n      dup3\n      mload\n      dup3\n      sstore\n      swap2\n      0x20\n      add\n      swap2\n      swap1\n      0x01\n      add\n      swap1\n      jump(tag_190)\n    tag_191:\n    tag_187:\n      pop\n      swap1\n      pop\n      tag_192\n      swap2\n      swap1\n      tag_193\n      jump\t// in\n    tag_192:\n      pop\n      swap1\n      jump\t// out\n    tag_115:\n      dup3\n      dup1\n      sload\n      tag_194\n      swap1\n      tag_66\n      jump\t// in\n    tag_194:\n      swap1\n      0x00\n      mstore\n      keccak256(0x00, 0x20)\n      swap1\n      0x1f\n      add\n      0x20\n      swap1\n      div\n      dup2\n      add\n      swap3\n      dup3\n      tag_196\n      jumpi\n      0x00\n      dup6\n      sstore\n      jump(tag_195)\n    tag_196:\n      dup3\n      0x1f\n      lt\n      tag_197\n      jumpi\n      dup1\n      sload\n      dup6\n      sstore\n      jump(tag_195)\n    tag_197:\n      dup3\n      dup1\n      add\n      0x01\n      add\n      dup6\n      sstore\n      dup3\n      iszero\n      tag_195\n      jumpi\n      0x00\n      mstore\n      keccak256(0x00, 0x20)\n      swap2\n      0x1f\n      add\n      0x20\n      swap1\n      div\n      dup3\n      add\n    tag_198:\n      dup3\n      dup2\n      gt\n      iszero\n      tag_199\n      jumpi\n      dup3\n      sload\n      dup3\n      sstore\n      swap2\n      0x01\n      add\n      swap2\n      swap1\n      0x01\n      add\n      swap1\n      jump(tag_198)\n    tag_199:\n    tag_195:\n      pop\n      swap1\n      pop\n      tag_200\n      swap2\n      swap1\n      tag_193\n      jump\t// in\n    tag_200:\n      pop\n      swap1\n      jump\t// out\n    tag_167:\n      pop\n      dup1\n      sload\n      tag_201\n      swap1\n      tag_66\n      jump\t// in\n    tag_201:\n      0x00\n      dup3\n      sstore\n      dup1\n      0x1f\n      lt\n      tag_203\n      jumpi\n      pop\n      jump(tag_202)\n    tag_203:\n      0x1f\n      add\n      0x20\n      swap1\n      div\n      swap1\n      0x00\n      mstore\n      keccak256(0x00, 0x20)\n      swap1\n      dup2\n      add\n      swap1\n      tag_204\n      swap2\n      swap1\n      tag_193\n      jump\t// in\n    tag_204:\n    tag_202:\n      pop\n      jump\t// out\n    tag_170:\n      mload(0x40)\n      dup1\n      0xc0\n      add\n      0x40\n      mstore\n      dup1\n      0x00\n      dup2\n      mstore\n      0x20\n      add\n      0x60\n      dup2\n      mstore\n      0x20\n      add\n      0x00\n      dup2\n      mstore\n      0x20\n      add\n      and(0xffffffffffffffffffffffffffffffffffffffff, 0x00)\n      dup2\n      mstore\n      0x20\n      add\n      0x00\n      dup2\n      mstore\n      0x20\n      add\n      and(0xffffffff, 0x00)\n      dup2\n      mstore\n      pop\n      swap1\n      jump\t// out\n    tag_193:\n    tag_205:\n      dup1\n      dup3\n      gt\n      iszero\n      tag_206\n      jumpi\n      0x00\n      dup2\n      0x00\n      swap1\n      sstore\n      pop\n      0x01\n      add\n      jump(tag_205)\n    tag_206:\n      pop\n      swap1\n      jump\t// out\n        /* \"#utility.yul\":7:419   */\n    tag_208:\n        /* \"#utility.yul\":85:90   */\n      0x00\n        /* \"#utility.yul\":110:176   */\n      tag_210\n        /* \"#utility.yul\":126:175   */\n      tag_211\n        /* \"#utility.yul\":168:174   */\n      dup5\n        /* \"#utility.yul\":126:175   */\n      tag_212\n      jump\t// in\n    tag_211:\n        /* \"#utility.yul\":110:176   */\n      tag_213\n      jump\t// in\n    tag_210:\n        /* \"#utility.yul\":101:176   */\n      swap1\n      pop\n        /* \"#utility.yul\":199:205   */\n      dup3\n        /* \"#utility.yul\":192:197   */\n      dup2\n        /* \"#utility.yul\":185:206   */\n      mstore\n        /* \"#utility.yul\":237:241   */\n      0x20\n        /* \"#utility.yul\":230:235   */\n      dup2\n        /* \"#utility.yul\":226:242   */\n      add\n        /* \"#utility.yul\":275:278   */\n      dup5\n        /* \"#utility.yul\":266:272   */\n      dup5\n        /* \"#utility.yul\":261:264   */\n      dup5\n        /* \"#utility.yul\":257:273   */\n      add\n        /* \"#utility.yul\":254:279   */\n      gt\n        /* \"#utility.yul\":251:363   */\n      iszero\n      tag_214\n      jumpi\n        /* \"#utility.yul\":282:361   */\n      tag_215\n      tag_216\n      jump\t// in\n    tag_215:\n        /* \"#utility.yul\":251:363   */\n    tag_214:\n        /* \"#utility.yul\":372:413   */\n      tag_217\n        /* \"#utility.yul\":406:412   */\n      dup5\n        /* \"#utility.yul\":401:404   */\n      dup3\n        /* \"#utility.yul\":396:399   */\n      dup6\n        /* \"#utility.yul\":372:413   */\n      tag_218\n      jump\t// in\n    tag_217:\n        /* \"#utility.yul\":91:419   */\n      pop\n        /* \"#utility.yul\":7:419   */\n      swap4\n      swap3\n      pop\n      pop\n      pop\n      jump\t// out\n        /* \"#utility.yul\":425:564   */\n    tag_219:\n        /* \"#utility.yul\":471:476   */\n      0x00\n        /* \"#utility.yul\":509:515   */\n      dup2\n        /* \"#utility.yul\":496:516   */\n      calldataload\n        /* \"#utility.yul\":487:516   */\n      swap1\n      pop\n        /* \"#utility.yul\":525:558   */\n      tag_221\n        /* \"#utility.yul\":552:557   */\n      dup2\n        /* \"#utility.yul\":525:558   */\n      tag_222\n      jump\t// in\n    tag_221:\n        /* \"#utility.yul\":425:564   */\n      swap3\n      swap2\n      pop\n      pop\n      jump\t// out\n        /* \"#utility.yul\":570:707   */\n    tag_223:\n        /* \"#utility.yul\":624:629   */\n      0x00\n        /* \"#utility.yul\":655:661   */\n      dup2\n        /* \"#utility.yul\":649:662   */\n      mload\n        /* \"#utility.yul\":640:662   */\n      swap1\n      pop\n        /* \"#utility.yul\":671:701   */\n      tag_225\n        /* \"#utility.yul\":695:700   */\n      dup2\n        /* \"#utility.yul\":671:701   */\n      tag_226\n      jump\t// in\n    tag_225:\n        /* \"#utility.yul\":570:707   */\n      swap3\n      swap2\n      pop\n      pop\n      jump\t// out\n        /* \"#utility.yul\":727:1067   */\n    tag_227:\n        /* \"#utility.yul\":783:788   */\n      0x00\n        /* \"#utility.yul\":832:835   */\n      dup3\n        /* \"#utility.yul\":825:829   */\n      0x1f\n        /* \"#utility.yul\":817:823   */\n      dup4\n        /* \"#utility.yul\":813:830   */\n      add\n        /* \"#utility.yul\":809:836   */\n      slt\n        /* \"#utility.yul\":799:921   */\n      tag_229\n      jumpi\n        /* \"#utility.yul\":840:919   */\n      tag_230\n      tag_231\n      jump\t// in\n    tag_230:\n        /* \"#utility.yul\":799:921   */\n    tag_229:\n        /* \"#utility.yul\":957:963   */\n      dup2\n        /* \"#utility.yul\":944:964   */\n      calldataload\n        /* \"#utility.yul\":982:1061   */\n      tag_232\n        /* \"#utility.yul\":1057:1060   */\n      dup5\n        /* \"#utility.yul\":1049:1055   */\n      dup3\n        /* \"#utility.yul\":1042:1046   */\n      0x20\n        /* \"#utility.yul\":1034:1040   */\n      dup7\n        /* \"#utility.yul\":1030:1047   */\n      add\n        /* \"#utility.yul\":982:1061   */\n      tag_208\n      jump\t// in\n    tag_232:\n        /* \"#utility.yul\":973:1061   */\n      swap2\n      pop\n        /* \"#utility.yul\":789:1067   */\n      pop\n        /* \"#utility.yul\":727:1067   */\n      swap3\n      swap2\n      pop\n      pop\n      jump\t// out\n        /* \"#utility.yul\":1073:1212   */\n    tag_233:\n        /* \"#utility.yul\":1119:1124   */\n      0x00\n        /* \"#utility.yul\":1157:1163   */\n      dup2\n        /* \"#utility.yul\":1144:1164   */\n      calldataload\n        /* \"#utility.yul\":1135:1164   */\n      swap1\n      pop\n        /* \"#utility.yul\":1173:1206   */\n      tag_235\n        /* \"#utility.yul\":1200:1205   */\n      dup2\n        /* \"#utility.yul\":1173:1206   */\n      tag_236\n      jump\t// in\n    tag_235:\n        /* \"#utility.yul\":1073:1212   */\n      swap3\n      swap2\n      pop\n      pop\n      jump\t// out\n        /* \"#utility.yul\":1218:1355   */\n    tag_237:\n        /* \"#utility.yul\":1263:1268   */\n      0x00\n        /* \"#utility.yul\":1301:1307   */\n      dup2\n        /* \"#utility.yul\":1288:1308   */\n      calldataload\n        /* \"#utility.yul\":1279:1308   */\n      swap1\n      pop\n        /* \"#utility.yul\":1317:1349   */\n      tag_239\n        /* \"#utility.yul\":1343:1348   */\n      dup2\n        /* \"#utility.yul\":1317:1349   */\n      tag_240\n      jump\t// in\n    tag_239:\n        /* \"#utility.yul\":1218:1355   */\n      swap3\n      swap2\n      pop\n      pop\n      jump\t// out\n        /* \"#utility.yul\":1361:1690   */\n    tag_38:\n        /* \"#utility.yul\":1420:1426   */\n      0x00\n        /* \"#utility.yul\":1469:1471   */\n      0x20\n        /* \"#utility.yul\":1457:1466   */\n      dup3\n        /* \"#utility.yul\":1448:1455   */\n      dup5\n        /* \"#utility.yul\":1444:1467   */\n      sub\n        /* \"#utility.yul\":1440:1472   */\n      slt\n        /* \"#utility.yul\":1437:1556   */\n      iszero\n      tag_242\n      jumpi\n        /* \"#utility.yul\":1475:1554   */\n      tag_243\n      tag_244\n      jump\t// in\n    tag_243:\n        /* \"#utility.yul\":1437:1556   */\n    tag_242:\n        /* \"#utility.yul\":1595:1596   */\n      0x00\n        /* \"#utility.yul\":1620:1673   */\n      tag_245\n        /* \"#utility.yul\":1665:1672   */\n      dup5\n        /* \"#utility.yul\":1656:1662   */\n      dup3\n        /* \"#utility.yul\":1645:1654   */\n      dup6\n        /* \"#utility.yul\":1641:1663   */\n      add\n        /* \"#utility.yul\":1620:1673   */\n      tag_219\n      jump\t// in\n    tag_245:\n        /* \"#utility.yul\":1610:1673   */\n      swap2\n      pop\n        /* \"#utility.yul\":1566:1683   */\n      pop\n        /* \"#utility.yul\":1361:1690   */\n      swap3\n      swap2\n      pop\n      pop\n      jump\t// out\n        /* \"#utility.yul\":1696:2041   */\n    tag_96:\n        /* \"#utility.yul\":1763:1769   */\n      0x00\n        /* \"#utility.yul\":1812:1814   */\n      0x20\n        /* \"#utility.yul\":1800:1809   */\n      dup3\n        /* \"#utility.yul\":1791:1798   */\n      dup5\n        /* \"#utility.yul\":1787:1810   */\n      sub\n        /* \"#utility.yul\":1783:1815   */\n      slt\n        /* \"#utility.yul\":1780:1899   */\n      iszero\n      tag_247\n      jumpi\n        /* \"#utility.yul\":1818:1897   */\n      tag_248\n      tag_244\n      jump\t// in\n    tag_248:\n        /* \"#utility.yul\":1780:1899   */\n    tag_247:\n        /* \"#utility.yul\":1938:1939   */\n      0x00\n        /* \"#utility.yul\":1963:2024   */\n      tag_249\n        /* \"#utility.yul\":2016:2023   */\n      dup5\n        /* \"#utility.yul\":2007:2013   */\n      dup3\n        /* \"#utility.yul\":1996:2005   */\n      dup6\n        /* \"#utility.yul\":1992:2014   */\n      add\n        /* \"#utility.yul\":1963:2024   */\n      tag_223\n      jump\t// in\n    tag_249:\n        /* \"#utility.yul\":1953:2024   */\n      swap2\n      pop\n        /* \"#utility.yul\":1909:2034   */\n      pop\n        /* \"#utility.yul\":1696:2041   */\n      swap3\n      swap2\n      pop\n      pop\n      jump\t// out\n        /* \"#utility.yul\":2047:2376   */\n    tag_17:\n        /* \"#utility.yul\":2106:2112   */\n      0x00\n        /* \"#utility.yul\":2155:2157   */\n      0x20\n        /* \"#utility.yul\":2143:2152   */\n      dup3\n        /* \"#utility.yul\":2134:2141   */\n      dup5\n        /* \"#utility.yul\":2130:2153   */\n      sub\n        /* \"#utility.yul\":2126:2158   */\n      slt\n        /* \"#utility.yul\":2123:2242   */\n      iszero\n      tag_251\n      jumpi\n        /* \"#utility.yul\":2161:2240   */\n      tag_252\n      tag_244\n      jump\t// in\n    tag_252:\n        /* \"#utility.yul\":2123:2242   */\n    tag_251:\n        /* \"#utility.yul\":2281:2282   */\n      0x00\n        /* \"#utility.yul\":2306:2359   */\n      tag_253\n        /* \"#utility.yul\":2351:2358   */\n      dup5\n        /* \"#utility.yul\":2342:2348   */\n      dup3\n        /* \"#utility.yul\":2331:2340   */\n      dup6\n        /* \"#utility.yul\":2327:2349   */\n      add\n        /* \"#utility.yul\":2306:2359   */\n      tag_233\n      jump\t// in\n    tag_253:\n        /* \"#utility.yul\":2296:2359   */\n      swap2\n      pop\n        /* \"#utility.yul\":2252:2369   */\n      pop\n        /* \"#utility.yul\":2047:2376   */\n      swap3\n      swap2\n      pop\n      pop\n      jump\t// out\n        /* \"#utility.yul\":2382:2856   */\n    tag_56:\n        /* \"#utility.yul\":2450:2456   */\n      0x00\n        /* \"#utility.yul\":2458:2464   */\n      dup1\n        /* \"#utility.yul\":2507:2509   */\n      0x40\n        /* \"#utility.yul\":2495:2504   */\n      dup4\n        /* \"#utility.yul\":2486:2493   */\n      dup6\n        /* \"#utility.yul\":2482:2505   */\n      sub\n        /* \"#utility.yul\":2478:2510   */\n      slt\n        /* \"#utility.yul\":2475:2594   */\n      iszero\n      tag_255\n      jumpi\n        /* \"#utility.yul\":2513:2592   */\n      tag_256\n      tag_244\n      jump\t// in\n    tag_256:\n        /* \"#utility.yul\":2475:2594   */\n    tag_255:\n        /* \"#utility.yul\":2633:2634   */\n      0x00\n        /* \"#utility.yul\":2658:2711   */\n      tag_257\n        /* \"#utility.yul\":2703:2710   */\n      dup6\n        /* \"#utility.yul\":2694:2700   */\n      dup3\n        /* \"#utility.yul\":2683:2692   */\n      dup7\n        /* \"#utility.yul\":2679:2701   */\n      add\n        /* \"#utility.yul\":2658:2711   */\n      tag_233\n      jump\t// in\n    tag_257:\n        /* \"#utility.yul\":2648:2711   */\n      swap3\n      pop\n        /* \"#utility.yul\":2604:2721   */\n      pop\n        /* \"#utility.yul\":2760:2762   */\n      0x20\n        /* \"#utility.yul\":2786:2839   */\n      tag_258\n        /* \"#utility.yul\":2831:2838   */\n      dup6\n        /* \"#utility.yul\":2822:2828   */\n      dup3\n        /* \"#utility.yul\":2811:2820   */\n      dup7\n        /* \"#utility.yul\":2807:2829   */\n      add\n        /* \"#utility.yul\":2786:2839   */\n      tag_219\n      jump\t// in\n    tag_258:\n        /* \"#utility.yul\":2776:2839   */\n      swap2\n      pop\n        /* \"#utility.yul\":2731:2849   */\n      pop\n        /* \"#utility.yul\":2382:2856   */\n      swap3\n      pop\n      swap3\n      swap1\n      pop\n      jump\t// out\n        /* \"#utility.yul\":2862:3659   */\n    tag_30:\n        /* \"#utility.yul\":2948:2954   */\n      0x00\n        /* \"#utility.yul\":2956:2962   */\n      dup1\n        /* \"#utility.yul\":2964:2970   */\n      0x00\n        /* \"#utility.yul\":3013:3015   */\n      0x60\n        /* \"#utility.yul\":3001:3010   */\n      dup5\n        /* \"#utility.yul\":2992:2999   */\n      dup7\n        /* \"#utility.yul\":2988:3011   */\n      sub\n        /* \"#utility.yul\":2984:3016   */\n      slt\n        /* \"#utility.yul\":2981:3100   */\n      iszero\n      tag_260\n      jumpi\n        /* \"#utility.yul\":3019:3098   */\n      tag_261\n      tag_244\n      jump\t// in\n    tag_261:\n        /* \"#utility.yul\":2981:3100   */\n    tag_260:\n        /* \"#utility.yul\":3139:3140   */\n      0x00\n        /* \"#utility.yul\":3164:3217   */\n      tag_262\n        /* \"#utility.yul\":3209:3216   */\n      dup7\n        /* \"#utility.yul\":3200:3206   */\n      dup3\n        /* \"#utility.yul\":3189:3198   */\n      dup8\n        /* \"#utility.yul\":3185:3207   */\n      add\n        /* \"#utility.yul\":3164:3217   */\n      tag_233\n      jump\t// in\n    tag_262:\n        /* \"#utility.yul\":3154:3217   */\n      swap4\n      pop\n        /* \"#utility.yul\":3110:3227   */\n      pop\n        /* \"#utility.yul\":3294:3296   */\n      0x20\n        /* \"#utility.yul\":3283:3292   */\n      dup5\n        /* \"#utility.yul\":3279:3297   */\n      add\n        /* \"#utility.yul\":3266:3298   */\n      calldataload\n        /* \"#utility.yul\":3325:3343   */\n      0xffffffffffffffff\n        /* \"#utility.yul\":3317:3323   */\n      dup2\n        /* \"#utility.yul\":3314:3344   */\n      gt\n        /* \"#utility.yul\":3311:3428   */\n      iszero\n      tag_263\n      jumpi\n        /* \"#utility.yul\":3347:3426   */\n      tag_264\n      tag_265\n      jump\t// in\n    tag_264:\n        /* \"#utility.yul\":3311:3428   */\n    tag_263:\n        /* \"#utility.yul\":3452:3515   */\n      tag_266\n        /* \"#utility.yul\":3507:3514   */\n      dup7\n        /* \"#utility.yul\":3498:3504   */\n      dup3\n        /* \"#utility.yul\":3487:3496   */\n      dup8\n        /* \"#utility.yul\":3483:3505   */\n      add\n        /* \"#utility.yul\":3452:3515   */\n      tag_227\n      jump\t// in\n    tag_266:\n        /* \"#utility.yul\":3442:3515   */\n      swap3\n      pop\n        /* \"#utility.yul\":3237:3525   */\n      pop\n        /* \"#utility.yul\":3564:3566   */\n      0x40\n        /* \"#utility.yul\":3590:3642   */\n      tag_267\n        /* \"#utility.yul\":3634:3641   */\n      dup7\n        /* \"#utility.yul\":3625:3631   */\n      dup3\n        /* \"#utility.yul\":3614:3623   */\n      dup8\n        /* \"#utility.yul\":3610:3632   */\n      add\n        /* \"#utility.yul\":3590:3642   */\n      tag_237\n      jump\t// in\n    tag_267:\n        /* \"#utility.yul\":3580:3642   */\n      swap2\n      pop\n        /* \"#utility.yul\":3535:3652   */\n      pop\n        /* \"#utility.yul\":2862:3659   */\n      swap3\n      pop\n      swap3\n      pop\n      swap3\n      jump\t// out\n        /* \"#utility.yul\":3665:4139   */\n    tag_21:\n        /* \"#utility.yul\":3733:3739   */\n      0x00\n        /* \"#utility.yul\":3741:3747   */\n      dup1\n        /* \"#utility.yul\":3790:3792   */\n      0x40\n        /* \"#utility.yul\":3778:3787   */\n      dup4\n        /* \"#utility.yul\":3769:3776   */\n      dup6\n        /* \"#utility.yul\":3765:3788   */\n      sub\n        /* \"#utility.yul\":3761:3793   */\n      slt\n        /* \"#utility.yul\":3758:3877   */\n      iszero\n      tag_269\n      jumpi\n        /* \"#utility.yul\":3796:3875   */\n      tag_270\n      tag_244\n      jump\t// in\n    tag_270:\n        /* \"#utility.yul\":3758:3877   */\n    tag_269:\n        /* \"#utility.yul\":3916:3917   */\n      0x00\n        /* \"#utility.yul\":3941:3994   */\n      tag_271\n        /* \"#utility.yul\":3986:3993   */\n      dup6\n        /* \"#utility.yul\":3977:3983   */\n      dup3\n        /* \"#utility.yul\":3966:3975   */\n      dup7\n        /* \"#utility.yul\":3962:3984   */\n      add\n        /* \"#utility.yul\":3941:3994   */\n      tag_233\n      jump\t// in\n    tag_271:\n        /* \"#utility.yul\":3931:3994   */\n      swap3\n      pop\n        /* \"#utility.yul\":3887:4004   */\n      pop\n        /* \"#utility.yul\":4043:4045   */\n      0x20\n        /* \"#utility.yul\":4069:4122   */\n      tag_272\n        /* \"#utility.yul\":4114:4121   */\n      dup6\n        /* \"#utility.yul\":4105:4111   */\n      dup3\n        /* \"#utility.yul\":4094:4103   */\n      dup7\n        /* \"#utility.yul\":4090:4112   */\n      add\n        /* \"#utility.yul\":4069:4122   */\n      tag_233\n      jump\t// in\n    tag_272:\n        /* \"#utility.yul\":4059:4122   */\n      swap2\n      pop\n        /* \"#utility.yul\":4014:4132   */\n      pop\n        /* \"#utility.yul\":3665:4139   */\n      swap3\n      pop\n      swap3\n      swap1\n      pop\n      jump\t// out\n        /* \"#utility.yul\":4145:4385   */\n    tag_273:\n        /* \"#utility.yul\":4256:4266   */\n      0x00\n        /* \"#utility.yul\":4291:4379   */\n      tag_275\n        /* \"#utility.yul\":4375:4378   */\n      dup4\n        /* \"#utility.yul\":4367:4373   */\n      dup4\n        /* \"#utility.yul\":4291:4379   */\n      tag_276\n      jump\t// in\n    tag_275:\n        /* \"#utility.yul\":4277:4379   */\n      swap1\n      pop\n        /* \"#utility.yul\":4145:4385   */\n      swap3\n      swap2\n      pop\n      pop\n      jump\t// out\n        /* \"#utility.yul\":4391:4625   */\n    tag_277:\n        /* \"#utility.yul\":4499:4509   */\n      0x00\n        /* \"#utility.yul\":4534:4619   */\n      tag_279\n        /* \"#utility.yul\":4615:4618   */\n      dup4\n        /* \"#utility.yul\":4607:4613   */\n      dup4\n        /* \"#utility.yul\":4534:4619   */\n      tag_280\n      jump\t// in\n    tag_279:\n        /* \"#utility.yul\":4520:4619   */\n      swap1\n      pop\n        /* \"#utility.yul\":4391:4625   */\n      swap3\n      swap2\n      pop\n      pop\n      jump\t// out\n        /* \"#utility.yul\":4631:4739   */\n    tag_281:\n        /* \"#utility.yul\":4708:4732   */\n      tag_283\n        /* \"#utility.yul\":4726:4731   */\n      dup2\n        /* \"#utility.yul\":4708:4732   */\n      tag_284\n      jump\t// in\n    tag_283:\n        /* \"#utility.yul\":4703:4706   */\n      dup3\n        /* \"#utility.yul\":4696:4733   */\n      mstore\n        /* \"#utility.yul\":4631:4739   */\n      pop\n      pop\n      jump\t// out\n        /* \"#utility.yul\":4745:4863   */\n    tag_285:\n        /* \"#utility.yul\":4832:4856   */\n      tag_287\n        /* \"#utility.yul\":4850:4855   */\n      dup2\n        /* \"#utility.yul\":4832:4856   */\n      tag_284\n      jump\t// in\n    tag_287:\n        /* \"#utility.yul\":4827:4830   */\n      dup3\n        /* \"#utility.yul\":4820:4857   */\n      mstore\n        /* \"#utility.yul\":4745:4863   */\n      pop\n      pop\n      jump\t// out\n        /* \"#utility.yul\":4925:6004   */\n    tag_288:\n        /* \"#utility.yul\":5086:5089   */\n      0x00\n        /* \"#utility.yul\":5115:5190   */\n      tag_290\n        /* \"#utility.yul\":5184:5189   */\n      dup3\n        /* \"#utility.yul\":5115:5190   */\n      tag_291\n      jump\t// in\n    tag_290:\n        /* \"#utility.yul\":5206:5313   */\n      tag_292\n        /* \"#utility.yul\":5306:5312   */\n      dup2\n        /* \"#utility.yul\":5301:5304   */\n      dup6\n        /* \"#utility.yul\":5206:5313   */\n      tag_293\n      jump\t// in\n    tag_292:\n        /* \"#utility.yul\":5199:5313   */\n      swap4\n      pop\n        /* \"#utility.yul\":5339:5342   */\n      dup4\n        /* \"#utility.yul\":5384:5388   */\n      0x20\n        /* \"#utility.yul\":5376:5382   */\n      dup3\n        /* \"#utility.yul\":5372:5389   */\n      mul\n        /* \"#utility.yul\":5367:5370   */\n      dup6\n        /* \"#utility.yul\":5363:5390   */\n      add\n        /* \"#utility.yul\":5414:5491   */\n      tag_294\n        /* \"#utility.yul\":5485:5490   */\n      dup6\n        /* \"#utility.yul\":5414:5491   */\n      tag_295\n      jump\t// in\n    tag_294:\n        /* \"#utility.yul\":5514:5521   */\n      dup1\n        /* \"#utility.yul\":5545:5546   */\n      0x00\n        /* \"#utility.yul\":5530:5959   */\n    tag_296:\n        /* \"#utility.yul\":5555:5561   */\n      dup6\n        /* \"#utility.yul\":5552:5553   */\n      dup2\n        /* \"#utility.yul\":5549:5562   */\n      lt\n        /* \"#utility.yul\":5530:5959   */\n      iszero\n      tag_298\n      jumpi\n        /* \"#utility.yul\":5626:5635   */\n      dup5\n        /* \"#utility.yul\":5620:5624   */\n      dup5\n        /* \"#utility.yul\":5616:5636   */\n      sub\n        /* \"#utility.yul\":5611:5614   */\n      dup10\n        /* \"#utility.yul\":5604:5637   */\n      mstore\n        /* \"#utility.yul\":5677:5683   */\n      dup2\n        /* \"#utility.yul\":5671:5684   */\n      mload\n        /* \"#utility.yul\":5705:5811   */\n      tag_299\n        /* \"#utility.yul\":5806:5810   */\n      dup6\n        /* \"#utility.yul\":5791:5804   */\n      dup3\n        /* \"#utility.yul\":5705:5811   */\n      tag_273\n      jump\t// in\n    tag_299:\n        /* \"#utility.yul\":5697:5811   */\n      swap5\n      pop\n        /* \"#utility.yul\":5834:5915   */\n      tag_300\n        /* \"#utility.yul\":5908:5914   */\n      dup4\n        /* \"#utility.yul\":5834:5915   */\n      tag_301\n      jump\t// in\n    tag_300:\n        /* \"#utility.yul\":5824:5915   */\n      swap3\n      pop\n        /* \"#utility.yul\":5944:5948   */\n      0x20\n        /* \"#utility.yul\":5939:5942   */\n      dup11\n        /* \"#utility.yul\":5935:5949   */\n      add\n        /* \"#utility.yul\":5928:5949   */\n      swap10\n      pop\n        /* \"#utility.yul\":5590:5959   */\n      pop\n        /* \"#utility.yul\":5577:5578   */\n      0x01\n        /* \"#utility.yul\":5574:5575   */\n      dup2\n        /* \"#utility.yul\":5570:5579   */\n      add\n        /* \"#utility.yul\":5565:5579   */\n      swap1\n      pop\n        /* \"#utility.yul\":5530:5959   */\n      jump(tag_296)\n    tag_298:\n        /* \"#utility.yul\":5534:5548   */\n      pop\n        /* \"#utility.yul\":5975:5979   */\n      dup3\n        /* \"#utility.yul\":5968:5979   */\n      swap8\n      pop\n        /* \"#utility.yul\":5995:5998   */\n      dup8\n        /* \"#utility.yul\":5988:5998   */\n      swap6\n      pop\n        /* \"#utility.yul\":5091:6004   */\n      pop\n      pop\n      pop\n      pop\n      pop\n        /* \"#utility.yul\":4925:6004   */\n      swap3\n      swap2\n      pop\n      pop\n      jump\t// out\n        /* \"#utility.yul\":6066:7111   */\n    tag_302:\n        /* \"#utility.yul\":6221:6224   */\n      0x00\n        /* \"#utility.yul\":6250:6319   */\n      tag_304\n        /* \"#utility.yul\":6313:6318   */\n      dup3\n        /* \"#utility.yul\":6250:6319   */\n      tag_305\n      jump\t// in\n    tag_304:\n        /* \"#utility.yul\":6335:6442   */\n      tag_306\n        /* \"#utility.yul\":6435:6441   */\n      dup2\n        /* \"#utility.yul\":6430:6433   */\n      dup6\n        /* \"#utility.yul\":6335:6442   */\n      tag_293\n      jump\t// in\n    tag_306:\n        /* \"#utility.yul\":6328:6442   */\n      swap4\n      pop\n        /* \"#utility.yul\":6468:6471   */\n      dup4\n        /* \"#utility.yul\":6513:6517   */\n      0x20\n        /* \"#utility.yul\":6505:6511   */\n      dup3\n        /* \"#utility.yul\":6501:6518   */\n      mul\n        /* \"#utility.yul\":6496:6499   */\n      dup6\n        /* \"#utility.yul\":6492:6519   */\n      add\n        /* \"#utility.yul\":6543:6614   */\n      tag_307\n        /* \"#utility.yul\":6608:6613   */\n      dup6\n        /* \"#utility.yul\":6543:6614   */\n      tag_308\n      jump\t// in\n    tag_307:\n        /* \"#utility.yul\":6637:6644   */\n      dup1\n        /* \"#utility.yul\":6668:6669   */\n      0x00\n        /* \"#utility.yul\":6653:7066   */\n    tag_309:\n        /* \"#utility.yul\":6678:6684   */\n      dup6\n        /* \"#utility.yul\":6675:6676   */\n      dup2\n        /* \"#utility.yul\":6672:6685   */\n      lt\n        /* \"#utility.yul\":6653:7066   */\n      iszero\n      tag_311\n      jumpi\n        /* \"#utility.yul\":6749:6758   */\n      dup5\n        /* \"#utility.yul\":6743:6747   */\n      dup5\n        /* \"#utility.yul\":6739:6759   */\n      sub\n        /* \"#utility.yul\":6734:6737   */\n      dup10\n        /* \"#utility.yul\":6727:6760   */\n      mstore\n        /* \"#utility.yul\":6794:6800   */\n      dup2\n        /* \"#utility.yul\":6821:6924   */\n      tag_312\n        /* \"#utility.yul\":6919:6923   */\n      dup6\n        /* \"#utility.yul\":6904:6917   */\n      dup3\n        /* \"#utility.yul\":6821:6924   */\n      tag_277\n      jump\t// in\n    tag_312:\n        /* \"#utility.yul\":6813:6924   */\n      swap5\n      pop\n        /* \"#utility.yul\":6947:7022   */\n      tag_313\n        /* \"#utility.yul\":7015:7021   */\n      dup4\n        /* \"#utility.yul\":6947:7022   */\n      tag_314\n      jump\t// in\n    tag_313:\n        /* \"#utility.yul\":6937:7022   */\n      swap3\n      pop\n        /* \"#utility.yul\":7051:7055   */\n      0x20\n        /* \"#utility.yul\":7046:7049   */\n      dup11\n        /* \"#utility.yul\":7042:7056   */\n      add\n        /* \"#utility.yul\":7035:7056   */\n      swap10\n      pop\n        /* \"#utility.yul\":6713:7066   */\n      pop\n        /* \"#utility.yul\":6700:6701   */\n      0x01\n        /* \"#utility.yul\":6697:6698   */\n      dup2\n        /* \"#utility.yul\":6693:6702   */\n      add\n        /* \"#utility.yul\":6688:6702   */\n      swap1\n      pop\n        /* \"#utility.yul\":6653:7066   */\n      jump(tag_309)\n    tag_311:\n        /* \"#utility.yul\":6657:6671   */\n      pop\n        /* \"#utility.yul\":7082:7086   */\n      dup3\n        /* \"#utility.yul\":7075:7086   */\n      swap8\n      pop\n        /* \"#utility.yul\":7102:7105   */\n      dup8\n        /* \"#utility.yul\":7095:7105   */\n      swap6\n      pop\n        /* \"#utility.yul\":6226:7111   */\n      pop\n      pop\n      pop\n      pop\n      pop\n        /* \"#utility.yul\":6066:7111   */\n      swap3\n      swap2\n      pop\n      pop\n      jump\t// out\n        /* \"#utility.yul\":7117:7276   */\n    tag_315:\n        /* \"#utility.yul\":7218:7269   */\n      tag_317\n        /* \"#utility.yul\":7263:7268   */\n      dup2\n        /* \"#utility.yul\":7218:7269   */\n      tag_318\n      jump\t// in\n    tag_317:\n        /* \"#utility.yul\":7213:7216   */\n      dup3\n        /* \"#utility.yul\":7206:7270   */\n      mstore\n        /* \"#utility.yul\":7117:7276   */\n      pop\n      pop\n      jump\t// out\n        /* \"#utility.yul\":7282:7626   */\n    tag_319:\n        /* \"#utility.yul\":7360:7363   */\n      0x00\n        /* \"#utility.yul\":7388:7427   */\n      tag_321\n        /* \"#utility.yul\":7421:7426   */\n      dup3\n        /* \"#utility.yul\":7388:7427   */\n      tag_322\n      jump\t// in\n    tag_321:\n        /* \"#utility.yul\":7443:7504   */\n      tag_323\n        /* \"#utility.yul\":7497:7503   */\n      dup2\n        /* \"#utility.yul\":7492:7495   */\n      dup6\n        /* \"#utility.yul\":7443:7504   */\n      tag_324\n      jump\t// in\n    tag_323:\n        /* \"#utility.yul\":7436:7504   */\n      swap4\n      pop\n        /* \"#utility.yul\":7513:7565   */\n      tag_325\n        /* \"#utility.yul\":7558:7564   */\n      dup2\n        /* \"#utility.yul\":7553:7556   */\n      dup6\n        /* \"#utility.yul\":7546:7550   */\n      0x20\n        /* \"#utility.yul\":7539:7544   */\n      dup7\n        /* \"#utility.yul\":7535:7551   */\n      add\n        /* \"#utility.yul\":7513:7565   */\n      tag_326\n      jump\t// in\n    tag_325:\n        /* \"#utility.yul\":7590:7619   */\n      tag_327\n        /* \"#utility.yul\":7612:7618   */\n      dup2\n        /* \"#utility.yul\":7590:7619   */\n      tag_328\n      jump\t// in\n    tag_327:\n        /* \"#utility.yul\":7585:7588   */\n      dup5\n        /* \"#utility.yul\":7581:7620   */\n      add\n        /* \"#utility.yul\":7574:7620   */\n      swap2\n      pop\n        /* \"#utility.yul\":7364:7626   */\n      pop\n        /* \"#utility.yul\":7282:7626   */\n      swap3\n      swap2\n      pop\n      pop\n      jump\t// out\n        /* \"#utility.yul\":7632:7996   */\n    tag_329:\n        /* \"#utility.yul\":7720:7723   */\n      0x00\n        /* \"#utility.yul\":7748:7787   */\n      tag_331\n        /* \"#utility.yul\":7781:7786   */\n      dup3\n        /* \"#utility.yul\":7748:7787   */\n      tag_322\n      jump\t// in\n    tag_331:\n        /* \"#utility.yul\":7803:7874   */\n      tag_332\n        /* \"#utility.yul\":7867:7873   */\n      dup2\n        /* \"#utility.yul\":7862:7865   */\n      dup6\n        /* \"#utility.yul\":7803:7874   */\n      tag_333\n      jump\t// in\n    tag_332:\n        /* \"#utility.yul\":7796:7874   */\n      swap4\n      pop\n        /* \"#utility.yul\":7883:7935   */\n      tag_334\n        /* \"#utility.yul\":7928:7934   */\n      dup2\n        /* \"#utility.yul\":7923:7926   */\n      dup6\n        /* \"#utility.yul\":7916:7920   */\n      0x20\n        /* \"#utility.yul\":7909:7914   */\n      dup7\n        /* \"#utility.yul\":7905:7921   */\n      add\n        /* \"#utility.yul\":7883:7935   */\n      tag_326\n      jump\t// in\n    tag_334:\n        /* \"#utility.yul\":7960:7989   */\n      tag_335\n        /* \"#utility.yul\":7982:7988   */\n      dup2\n        /* \"#utility.yul\":7960:7989   */\n      tag_328\n      jump\t// in\n    tag_335:\n        /* \"#utility.yul\":7955:7958   */\n      dup5\n        /* \"#utility.yul\":7951:7990   */\n      add\n        /* \"#utility.yul\":7944:7990   */\n      swap2\n      pop\n        /* \"#utility.yul\":7724:7996   */\n      pop\n        /* \"#utility.yul\":7632:7996   */\n      swap3\n      swap2\n      pop\n      pop\n      jump\t// out\n        /* \"#utility.yul\":8026:8808   */\n    tag_336:\n        /* \"#utility.yul\":8101:8104   */\n      0x00\n        /* \"#utility.yul\":8138:8143   */\n      dup2\n        /* \"#utility.yul\":8132:8144   */\n      sload\n        /* \"#utility.yul\":8167:8203   */\n      tag_338\n        /* \"#utility.yul\":8193:8202   */\n      dup2\n        /* \"#utility.yul\":8167:8203   */\n      tag_66\n      jump\t// in\n    tag_338:\n        /* \"#utility.yul\":8219:8280   */\n      tag_339\n        /* \"#utility.yul\":8273:8279   */\n      dup2\n        /* \"#utility.yul\":8268:8271   */\n      dup7\n        /* \"#utility.yul\":8219:8280   */\n      tag_324\n      jump\t// in\n    tag_339:\n        /* \"#utility.yul\":8212:8280   */\n      swap5\n      pop\n        /* \"#utility.yul\":8311:8312   */\n      0x01\n        /* \"#utility.yul\":8300:8309   */\n      dup3\n        /* \"#utility.yul\":8296:8313   */\n      and\n        /* \"#utility.yul\":8327:8328   */\n      0x00\n        /* \"#utility.yul\":8322:8457   */\n      dup2\n      eq\n      tag_341\n      jumpi\n        /* \"#utility.yul\":8471:8472   */\n      0x01\n        /* \"#utility.yul\":8466:8802   */\n      dup2\n      eq\n      tag_342\n      jumpi\n        /* \"#utility.yul\":8289:8802   */\n      jump(tag_340)\n        /* \"#utility.yul\":8322:8457   */\n    tag_341:\n        /* \"#utility.yul\":8406:8410   */\n      0xff\n        /* \"#utility.yul\":8402:8411   */\n      not\n        /* \"#utility.yul\":8391:8400   */\n      dup4\n        /* \"#utility.yul\":8387:8412   */\n      and\n        /* \"#utility.yul\":8382:8385   */\n      dup7\n        /* \"#utility.yul\":8375:8413   */\n      mstore\n        /* \"#utility.yul\":8442:8446   */\n      0x20\n        /* \"#utility.yul\":8437:8440   */\n      dup7\n        /* \"#utility.yul\":8433:8447   */\n      add\n        /* \"#utility.yul\":8426:8447   */\n      swap4\n      pop\n        /* \"#utility.yul\":8322:8457   */\n      jump(tag_340)\n        /* \"#utility.yul\":8466:8802   */\n    tag_342:\n        /* \"#utility.yul\":8533:8571   */\n      tag_343\n        /* \"#utility.yul\":8565:8570   */\n      dup6\n        /* \"#utility.yul\":8533:8571   */\n      tag_344\n      jump\t// in\n    tag_343:\n        /* \"#utility.yul\":8593:8594   */\n      0x00\n        /* \"#utility.yul\":8607:8761   */\n    tag_345:\n        /* \"#utility.yul\":8621:8627   */\n      dup4\n        /* \"#utility.yul\":8618:8619   */\n      dup2\n        /* \"#utility.yul\":8615:8628   */\n      lt\n        /* \"#utility.yul\":8607:8761   */\n      iszero\n      tag_347\n      jumpi\n        /* \"#utility.yul\":8695:8702   */\n      dup2\n        /* \"#utility.yul\":8689:8703   */\n      sload\n        /* \"#utility.yul\":8685:8686   */\n      dup2\n        /* \"#utility.yul\":8680:8683   */\n      dup10\n        /* \"#utility.yul\":8676:8687   */\n      add\n        /* \"#utility.yul\":8669:8704   */\n      mstore\n        /* \"#utility.yul\":8745:8746   */\n      0x01\n        /* \"#utility.yul\":8736:8743   */\n      dup3\n        /* \"#utility.yul\":8732:8747   */\n      add\n        /* \"#utility.yul\":8721:8747   */\n      swap2\n      pop\n        /* \"#utility.yul\":8643:8647   */\n      0x20\n        /* \"#utility.yul\":8640:8641   */\n      dup2\n        /* \"#utility.yul\":8636:8648   */\n      add\n        /* \"#utility.yul\":8631:8648   */\n      swap1\n      pop\n        /* \"#utility.yul\":8607:8761   */\n      jump(tag_345)\n    tag_347:\n        /* \"#utility.yul\":8790:8791   */\n      dup1\n        /* \"#utility.yul\":8785:8788   */\n      dup9\n        /* \"#utility.yul\":8781:8792   */\n      add\n        /* \"#utility.yul\":8774:8792   */\n      swap6\n      pop\n        /* \"#utility.yul\":8473:8802   */\n      pop\n      pop\n        /* \"#utility.yul\":8289:8802   */\n    tag_340:\n      pop\n        /* \"#utility.yul\":8105:8808   */\n      pop\n      pop\n        /* \"#utility.yul\":8026:8808   */\n      swap3\n      swap2\n      pop\n      pop\n      jump\t// out\n        /* \"#utility.yul\":8814:9180   */\n    tag_348:\n        /* \"#utility.yul\":8956:8959   */\n      0x00\n        /* \"#utility.yul\":8977:9044   */\n      tag_350\n        /* \"#utility.yul\":9041:9043   */\n      0x22\n        /* \"#utility.yul\":9036:9039   */\n      dup4\n        /* \"#utility.yul\":8977:9044   */\n      tag_333\n      jump\t// in\n    tag_350:\n        /* \"#utility.yul\":8970:9044   */\n      swap2\n      pop\n        /* \"#utility.yul\":9053:9146   */\n      tag_351\n        /* \"#utility.yul\":9142:9145   */\n      dup3\n        /* \"#utility.yul\":9053:9146   */\n      tag_352\n      jump\t// in\n    tag_351:\n        /* \"#utility.yul\":9171:9173   */\n      0x40\n        /* \"#utility.yul\":9166:9169   */\n      dup3\n        /* \"#utility.yul\":9162:9174   */\n      add\n        /* \"#utility.yul\":9155:9174   */\n      swap1\n      pop\n        /* \"#utility.yul\":8814:9180   */\n      swap2\n      swap1\n      pop\n      jump\t// out\n        /* \"#utility.yul\":9186:9552   */\n    tag_353:\n        /* \"#utility.yul\":9328:9331   */\n      0x00\n        /* \"#utility.yul\":9349:9416   */\n      tag_355\n        /* \"#utility.yul\":9413:9415   */\n      0x1d\n        /* \"#utility.yul\":9408:9411   */\n      dup4\n        /* \"#utility.yul\":9349:9416   */\n      tag_333\n      jump\t// in\n    tag_355:\n        /* \"#utility.yul\":9342:9416   */\n      swap2\n      pop\n        /* \"#utility.yul\":9425:9518   */\n      tag_356\n        /* \"#utility.yul\":9514:9517   */\n      dup3\n        /* \"#utility.yul\":9425:9518   */\n      tag_357\n      jump\t// in\n    tag_356:\n        /* \"#utility.yul\":9543:9545   */\n      0x20\n        /* \"#utility.yul\":9538:9541   */\n      dup3\n        /* \"#utility.yul\":9534:9546   */\n      add\n        /* \"#utility.yul\":9527:9546   */\n      swap1\n      pop\n        /* \"#utility.yul\":9186:9552   */\n      swap2\n      swap1\n      pop\n      jump\t// out\n        /* \"#utility.yul\":9558:9924   */\n    tag_358:\n        /* \"#utility.yul\":9700:9703   */\n      0x00\n        /* \"#utility.yul\":9721:9788   */\n      tag_360\n        /* \"#utility.yul\":9785:9787   */\n      0x15\n        /* \"#utility.yul\":9780:9783   */\n      dup4\n        /* \"#utility.yul\":9721:9788   */\n      tag_333\n      jump\t// in\n    tag_360:\n        /* \"#utility.yul\":9714:9788   */\n      swap2\n      pop\n        /* \"#utility.yul\":9797:9890   */\n      tag_361\n        /* \"#utility.yul\":9886:9889   */\n      dup3\n        /* \"#utility.yul\":9797:9890   */\n      tag_362\n      jump\t// in\n    tag_361:\n        /* \"#utility.yul\":9915:9917   */\n      0x20\n        /* \"#utility.yul\":9910:9913   */\n      dup3\n        /* \"#utility.yul\":9906:9918   */\n      add\n        /* \"#utility.yul\":9899:9918   */\n      swap1\n      pop\n        /* \"#utility.yul\":9558:9924   */\n      swap2\n      swap1\n      pop\n      jump\t// out\n        /* \"#utility.yul\":9982:11277   */\n    tag_276:\n        /* \"#utility.yul\":10083:10086   */\n      0x00\n        /* \"#utility.yul\":10119:10123   */\n      0xc0\n        /* \"#utility.yul\":10114:10117   */\n      dup4\n        /* \"#utility.yul\":10110:10124   */\n      add\n        /* \"#utility.yul\":10208:10212   */\n      0x00\n        /* \"#utility.yul\":10201:10206   */\n      dup4\n        /* \"#utility.yul\":10197:10213   */\n      add\n        /* \"#utility.yul\":10191:10214   */\n      mload\n        /* \"#utility.yul\":10227:10290   */\n      tag_364\n        /* \"#utility.yul\":10284:10288   */\n      0x00\n        /* \"#utility.yul\":10279:10282   */\n      dup7\n        /* \"#utility.yul\":10275:10289   */\n      add\n        /* \"#utility.yul\":10261:10273   */\n      dup3\n        /* \"#utility.yul\":10227:10290   */\n      tag_365\n      jump\t// in\n    tag_364:\n        /* \"#utility.yul\":10134:10300   */\n      pop\n        /* \"#utility.yul\":10387:10391   */\n      0x20\n        /* \"#utility.yul\":10380:10385   */\n      dup4\n        /* \"#utility.yul\":10376:10392   */\n      add\n        /* \"#utility.yul\":10370:10393   */\n      mload\n        /* \"#utility.yul\":10440:10443   */\n      dup5\n        /* \"#utility.yul\":10434:10438   */\n      dup3\n        /* \"#utility.yul\":10430:10444   */\n      sub\n        /* \"#utility.yul\":10423:10427   */\n      0x20\n        /* \"#utility.yul\":10418:10421   */\n      dup7\n        /* \"#utility.yul\":10414:10428   */\n      add\n        /* \"#utility.yul\":10407:10445   */\n      mstore\n        /* \"#utility.yul\":10466:10539   */\n      tag_366\n        /* \"#utility.yul\":10534:10538   */\n      dup3\n        /* \"#utility.yul\":10520:10532   */\n      dup3\n        /* \"#utility.yul\":10466:10539   */\n      tag_319\n      jump\t// in\n    tag_366:\n        /* \"#utility.yul\":10458:10539   */\n      swap2\n      pop\n        /* \"#utility.yul\":10310:10550   */\n      pop\n        /* \"#utility.yul\":10632:10636   */\n      0x40\n        /* \"#utility.yul\":10625:10630   */\n      dup4\n        /* \"#utility.yul\":10621:10637   */\n      add\n        /* \"#utility.yul\":10615:10638   */\n      mload\n        /* \"#utility.yul\":10651:10714   */\n      tag_367\n        /* \"#utility.yul\":10708:10712   */\n      0x40\n        /* \"#utility.yul\":10703:10706   */\n      dup7\n        /* \"#utility.yul\":10699:10713   */\n      add\n        /* \"#utility.yul\":10685:10697   */\n      dup3\n        /* \"#utility.yul\":10651:10714   */\n      tag_365\n      jump\t// in\n    tag_367:\n        /* \"#utility.yul\":10560:10724   */\n      pop\n        /* \"#utility.yul\":10808:10812   */\n      0x60\n        /* \"#utility.yul\":10801:10806   */\n      dup4\n        /* \"#utility.yul\":10797:10813   */\n      add\n        /* \"#utility.yul\":10791:10814   */\n      mload\n        /* \"#utility.yul\":10827:10890   */\n      tag_368\n        /* \"#utility.yul\":10884:10888   */\n      0x60\n        /* \"#utility.yul\":10879:10882   */\n      dup7\n        /* \"#utility.yul\":10875:10889   */\n      add\n        /* \"#utility.yul\":10861:10873   */\n      dup3\n        /* \"#utility.yul\":10827:10890   */\n      tag_281\n      jump\t// in\n    tag_368:\n        /* \"#utility.yul\":10734:10900   */\n      pop\n        /* \"#utility.yul\":10983:10987   */\n      0x80\n        /* \"#utility.yul\":10976:10981   */\n      dup4\n        /* \"#utility.yul\":10972:10988   */\n      add\n        /* \"#utility.yul\":10966:10989   */\n      mload\n        /* \"#utility.yul\":11002:11065   */\n      tag_369\n        /* \"#utility.yul\":11059:11063   */\n      0x80\n        /* \"#utility.yul\":11054:11057   */\n      dup7\n        /* \"#utility.yul\":11050:11064   */\n      add\n        /* \"#utility.yul\":11036:11048   */\n      dup3\n        /* \"#utility.yul\":11002:11065   */\n      tag_365\n      jump\t// in\n    tag_369:\n        /* \"#utility.yul\":10910:11075   */\n      pop\n        /* \"#utility.yul\":11160:11164   */\n      0xa0\n        /* \"#utility.yul\":11153:11158   */\n      dup4\n        /* \"#utility.yul\":11149:11165   */\n      add\n        /* \"#utility.yul\":11143:11166   */\n      mload\n        /* \"#utility.yul\":11179:11240   */\n      tag_370\n        /* \"#utility.yul\":11234:11238   */\n      0xa0\n        /* \"#utility.yul\":11229:11232   */\n      dup7\n        /* \"#utility.yul\":11225:11239   */\n      add\n        /* \"#utility.yul\":11211:11223   */\n      dup3\n        /* \"#utility.yul\":11179:11240   */\n      tag_371\n      jump\t// in\n    tag_370:\n        /* \"#utility.yul\":11085:11250   */\n      pop\n        /* \"#utility.yul\":11267:11271   */\n      dup1\n        /* \"#utility.yul\":11260:11271   */\n      swap2\n      pop\n        /* \"#utility.yul\":10088:11277   */\n      pop\n        /* \"#utility.yul\":9982:11277   */\n      swap3\n      swap2\n      pop\n      pop\n      jump\t// out\n        /* \"#utility.yul\":11335:12640   */\n    tag_372:\n        /* \"#utility.yul\":11446:11449   */\n      0x00\n        /* \"#utility.yul\":11482:11486   */\n      0xc0\n        /* \"#utility.yul\":11477:11480   */\n      dup4\n        /* \"#utility.yul\":11473:11487   */\n      add\n        /* \"#utility.yul\":11571:11575   */\n      0x00\n        /* \"#utility.yul\":11564:11569   */\n      dup4\n        /* \"#utility.yul\":11560:11576   */\n      add\n        /* \"#utility.yul\":11554:11577   */\n      mload\n        /* \"#utility.yul\":11590:11653   */\n      tag_374\n        /* \"#utility.yul\":11647:11651   */\n      0x00\n        /* \"#utility.yul\":11642:11645   */\n      dup7\n        /* \"#utility.yul\":11638:11652   */\n      add\n        /* \"#utility.yul\":11624:11636   */\n      dup3\n        /* \"#utility.yul\":11590:11653   */\n      tag_365\n      jump\t// in\n    tag_374:\n        /* \"#utility.yul\":11497:11663   */\n      pop\n        /* \"#utility.yul\":11750:11754   */\n      0x20\n        /* \"#utility.yul\":11743:11748   */\n      dup4\n        /* \"#utility.yul\":11739:11755   */\n      add\n        /* \"#utility.yul\":11733:11756   */\n      mload\n        /* \"#utility.yul\":11803:11806   */\n      dup5\n        /* \"#utility.yul\":11797:11801   */\n      dup3\n        /* \"#utility.yul\":11793:11807   */\n      sub\n        /* \"#utility.yul\":11786:11790   */\n      0x20\n        /* \"#utility.yul\":11781:11784   */\n      dup7\n        /* \"#utility.yul\":11777:11791   */\n      add\n        /* \"#utility.yul\":11770:11808   */\n      mstore\n        /* \"#utility.yul\":11829:11902   */\n      tag_375\n        /* \"#utility.yul\":11897:11901   */\n      dup3\n        /* \"#utility.yul\":11883:11895   */\n      dup3\n        /* \"#utility.yul\":11829:11902   */\n      tag_319\n      jump\t// in\n    tag_375:\n        /* \"#utility.yul\":11821:11902   */\n      swap2\n      pop\n        /* \"#utility.yul\":11673:11913   */\n      pop\n        /* \"#utility.yul\":11995:11999   */\n      0x40\n        /* \"#utility.yul\":11988:11993   */\n      dup4\n        /* \"#utility.yul\":11984:12000   */\n      add\n        /* \"#utility.yul\":11978:12001   */\n      mload\n        /* \"#utility.yul\":12014:12077   */\n      tag_376\n        /* \"#utility.yul\":12071:12075   */\n      0x40\n        /* \"#utility.yul\":12066:12069   */\n      dup7\n        /* \"#utility.yul\":12062:12076   */\n      add\n        /* \"#utility.yul\":12048:12060   */\n      dup3\n        /* \"#utility.yul\":12014:12077   */\n      tag_365\n      jump\t// in\n    tag_376:\n        /* \"#utility.yul\":11923:12087   */\n      pop\n        /* \"#utility.yul\":12171:12175   */\n      0x60\n        /* \"#utility.yul\":12164:12169   */\n      dup4\n        /* \"#utility.yul\":12160:12176   */\n      add\n        /* \"#utility.yul\":12154:12177   */\n      mload\n        /* \"#utility.yul\":12190:12253   */\n      tag_377\n        /* \"#utility.yul\":12247:12251   */\n      0x60\n        /* \"#utility.yul\":12242:12245   */\n      dup7\n        /* \"#utility.yul\":12238:12252   */\n      add\n        /* \"#utility.yul\":12224:12236   */\n      dup3\n        /* \"#utility.yul\":12190:12253   */\n      tag_281\n      jump\t// in\n    tag_377:\n        /* \"#utility.yul\":12097:12263   */\n      pop\n        /* \"#utility.yul\":12346:12350   */\n      0x80\n        /* \"#utility.yul\":12339:12344   */\n      dup4\n        /* \"#utility.yul\":12335:12351   */\n      add\n        /* \"#utility.yul\":12329:12352   */\n      mload\n        /* \"#utility.yul\":12365:12428   */\n      tag_378\n        /* \"#utility.yul\":12422:12426   */\n      0x80\n        /* \"#utility.yul\":12417:12420   */\n      dup7\n        /* \"#utility.yul\":12413:12427   */\n      add\n        /* \"#utility.yul\":12399:12411   */\n      dup3\n        /* \"#utility.yul\":12365:12428   */\n      tag_365\n      jump\t// in\n    tag_378:\n        /* \"#utility.yul\":12273:12438   */\n      pop\n        /* \"#utility.yul\":12523:12527   */\n      0xa0\n        /* \"#utility.yul\":12516:12521   */\n      dup4\n        /* \"#utility.yul\":12512:12528   */\n      add\n        /* \"#utility.yul\":12506:12529   */\n      mload\n        /* \"#utility.yul\":12542:12603   */\n      tag_379\n        /* \"#utility.yul\":12597:12601   */\n      0xa0\n        /* \"#utility.yul\":12592:12595   */\n      dup7\n        /* \"#utility.yul\":12588:12602   */\n      add\n        /* \"#utility.yul\":12574:12586   */\n      dup3\n        /* \"#utility.yul\":12542:12603   */\n      tag_371\n      jump\t// in\n    tag_379:\n        /* \"#utility.yul\":12448:12613   */\n      pop\n        /* \"#utility.yul\":12630:12634   */\n      dup1\n        /* \"#utility.yul\":12623:12634   */\n      swap2\n      pop\n        /* \"#utility.yul\":11451:12640   */\n      pop\n        /* \"#utility.yul\":11335:12640   */\n      swap3\n      swap2\n      pop\n      pop\n      jump\t// out\n        /* \"#utility.yul\":12698:14406   */\n    tag_280:\n        /* \"#utility.yul\":12796:12799   */\n      0x00\n        /* \"#utility.yul\":12832:12836   */\n      0xc0\n        /* \"#utility.yul\":12827:12830   */\n      dup4\n        /* \"#utility.yul\":12823:12837   */\n      add\n        /* \"#utility.yul\":12863:12864   */\n      0x00\n        /* \"#utility.yul\":12940:12944   */\n      dup1\n        /* \"#utility.yul\":12933:12938   */\n      dup5\n        /* \"#utility.yul\":12929:12945   */\n      add\n        /* \"#utility.yul\":12923:12946   */\n      sload\n        /* \"#utility.yul\":12910:12946   */\n      swap1\n      pop\n        /* \"#utility.yul\":12979:13034   */\n      tag_381\n        /* \"#utility.yul\":13024:13033   */\n      dup2\n        /* \"#utility.yul\":12979:13034   */\n      tag_382\n      jump\t// in\n    tag_381:\n        /* \"#utility.yul\":13047:13110   */\n      tag_383\n        /* \"#utility.yul\":13104:13108   */\n      0x00\n        /* \"#utility.yul\":13099:13102   */\n      dup8\n        /* \"#utility.yul\":13095:13109   */\n      add\n        /* \"#utility.yul\":13081:13093   */\n      dup3\n        /* \"#utility.yul\":13047:13110   */\n      tag_365\n      jump\t// in\n    tag_383:\n        /* \"#utility.yul\":12874:13120   */\n      pop\n        /* \"#utility.yul\":13201:13205   */\n      0x01\n        /* \"#utility.yul\":13194:13199   */\n      dup5\n        /* \"#utility.yul\":13190:13206   */\n      add\n        /* \"#utility.yul\":13253:13256   */\n      dup6\n        /* \"#utility.yul\":13247:13251   */\n      dup4\n        /* \"#utility.yul\":13243:13257   */\n      sub\n        /* \"#utility.yul\":13236:13240   */\n      0x20\n        /* \"#utility.yul\":13231:13234   */\n      dup8\n        /* \"#utility.yul\":13227:13241   */\n      add\n        /* \"#utility.yul\":13220:13258   */\n      mstore\n        /* \"#utility.yul\":13279:13349   */\n      tag_384\n        /* \"#utility.yul\":13344:13348   */\n      dup4\n        /* \"#utility.yul\":13330:13342   */\n      dup3\n        /* \"#utility.yul\":13279:13349   */\n      tag_336\n      jump\t// in\n    tag_384:\n        /* \"#utility.yul\":13271:13349   */\n      swap3\n      pop\n        /* \"#utility.yul\":13130:13360   */\n      pop\n        /* \"#utility.yul\":13434:13438   */\n      0x02\n        /* \"#utility.yul\":13427:13432   */\n      dup5\n        /* \"#utility.yul\":13423:13439   */\n      add\n        /* \"#utility.yul\":13417:13440   */\n      sload\n        /* \"#utility.yul\":13404:13440   */\n      swap1\n      pop\n        /* \"#utility.yul\":13473:13528   */\n      tag_385\n        /* \"#utility.yul\":13518:13527   */\n      dup2\n        /* \"#utility.yul\":13473:13528   */\n      tag_382\n      jump\t// in\n    tag_385:\n        /* \"#utility.yul\":13541:13604   */\n      tag_386\n        /* \"#utility.yul\":13598:13602   */\n      0x40\n        /* \"#utility.yul\":13593:13596   */\n      dup8\n        /* \"#utility.yul\":13589:13603   */\n      add\n        /* \"#utility.yul\":13575:13587   */\n      dup3\n        /* \"#utility.yul\":13541:13604   */\n      tag_365\n      jump\t// in\n    tag_386:\n        /* \"#utility.yul\":13370:13614   */\n      pop\n        /* \"#utility.yul\":13690:13694   */\n      0x03\n        /* \"#utility.yul\":13683:13688   */\n      dup5\n        /* \"#utility.yul\":13679:13695   */\n      add\n        /* \"#utility.yul\":13673:13696   */\n      sload\n        /* \"#utility.yul\":13660:13696   */\n      swap1\n      pop\n        /* \"#utility.yul\":13729:13784   */\n      tag_387\n        /* \"#utility.yul\":13774:13783   */\n      dup2\n        /* \"#utility.yul\":13729:13784   */\n      tag_388\n      jump\t// in\n    tag_387:\n        /* \"#utility.yul\":13797:13860   */\n      tag_389\n        /* \"#utility.yul\":13854:13858   */\n      0x60\n        /* \"#utility.yul\":13849:13852   */\n      dup8\n        /* \"#utility.yul\":13845:13859   */\n      add\n        /* \"#utility.yul\":13831:13843   */\n      dup3\n        /* \"#utility.yul\":13797:13860   */\n      tag_281\n      jump\t// in\n    tag_389:\n        /* \"#utility.yul\":13624:13870   */\n      pop\n        /* \"#utility.yul\":13945:13949   */\n      0x04\n        /* \"#utility.yul\":13938:13943   */\n      dup5\n        /* \"#utility.yul\":13934:13950   */\n      add\n        /* \"#utility.yul\":13928:13951   */\n      sload\n        /* \"#utility.yul\":13915:13951   */\n      swap1\n      pop\n        /* \"#utility.yul\":13984:14039   */\n      tag_390\n        /* \"#utility.yul\":14029:14038   */\n      dup2\n        /* \"#utility.yul\":13984:14039   */\n      tag_382\n      jump\t// in\n    tag_390:\n        /* \"#utility.yul\":14052:14115   */\n      tag_391\n        /* \"#utility.yul\":14109:14113   */\n      0x80\n        /* \"#utility.yul\":14104:14107   */\n      dup8\n        /* \"#utility.yul\":14100:14114   */\n      add\n        /* \"#utility.yul\":14086:14098   */\n      dup3\n        /* \"#utility.yul\":14052:14115   */\n      tag_365\n      jump\t// in\n    tag_391:\n        /* \"#utility.yul\":13880:14125   */\n      pop\n        /* \"#utility.yul\":14202:14206   */\n      0x05\n        /* \"#utility.yul\":14195:14200   */\n      dup5\n        /* \"#utility.yul\":14191:14207   */\n      add\n        /* \"#utility.yul\":14185:14208   */\n      sload\n        /* \"#utility.yul\":14172:14208   */\n      swap1\n      pop\n        /* \"#utility.yul\":14241:14295   */\n      tag_392\n        /* \"#utility.yul\":14285:14294   */\n      dup2\n        /* \"#utility.yul\":14241:14295   */\n      tag_393\n      jump\t// in\n    tag_392:\n        /* \"#utility.yul\":14308:14369   */\n      tag_394\n        /* \"#utility.yul\":14363:14367   */\n      0xa0\n        /* \"#utility.yul\":14358:14361   */\n      dup8\n        /* \"#utility.yul\":14354:14368   */\n      add\n        /* \"#utility.yul\":14340:14352   */\n      dup3\n        /* \"#utility.yul\":14308:14369   */\n      tag_371\n      jump\t// in\n    tag_394:\n        /* \"#utility.yul\":14135:14379   */\n      pop\n        /* \"#utility.yul\":14396:14400   */\n      dup2\n        /* \"#utility.yul\":14389:14400   */\n      swap3\n      pop\n        /* \"#utility.yul\":12801:14406   */\n      pop\n      pop\n        /* \"#utility.yul\":12698:14406   */\n      swap3\n      swap2\n      pop\n      pop\n      jump\t// out\n        /* \"#utility.yul\":14464:16182   */\n    tag_395:\n        /* \"#utility.yul\":14572:14575   */\n      0x00\n        /* \"#utility.yul\":14608:14612   */\n      0xc0\n        /* \"#utility.yul\":14603:14606   */\n      dup4\n        /* \"#utility.yul\":14599:14613   */\n      add\n        /* \"#utility.yul\":14639:14640   */\n      0x00\n        /* \"#utility.yul\":14716:14720   */\n      dup1\n        /* \"#utility.yul\":14709:14714   */\n      dup5\n        /* \"#utility.yul\":14705:14721   */\n      add\n        /* \"#utility.yul\":14699:14722   */\n      sload\n        /* \"#utility.yul\":14686:14722   */\n      swap1\n      pop\n        /* \"#utility.yul\":14755:14810   */\n      tag_397\n        /* \"#utility.yul\":14800:14809   */\n      dup2\n        /* \"#utility.yul\":14755:14810   */\n      tag_382\n      jump\t// in\n    tag_397:\n        /* \"#utility.yul\":14823:14886   */\n      tag_398\n        /* \"#utility.yul\":14880:14884   */\n      0x00\n        /* \"#utility.yul\":14875:14878   */\n      dup8\n        /* \"#utility.yul\":14871:14885   */\n      add\n        /* \"#utility.yul\":14857:14869   */\n      dup3\n        /* \"#utility.yul\":14823:14886   */\n      tag_365\n      jump\t// in\n    tag_398:\n        /* \"#utility.yul\":14650:14896   */\n      pop\n        /* \"#utility.yul\":14977:14981   */\n      0x01\n        /* \"#utility.yul\":14970:14975   */\n      dup5\n        /* \"#utility.yul\":14966:14982   */\n      add\n        /* \"#utility.yul\":15029:15032   */\n      dup6\n        /* \"#utility.yul\":15023:15027   */\n      dup4\n        /* \"#utility.yul\":15019:15033   */\n      sub\n        /* \"#utility.yul\":15012:15016   */\n      0x20\n        /* \"#utility.yul\":15007:15010   */\n      dup8\n        /* \"#utility.yul\":15003:15017   */\n      add\n        /* \"#utility.yul\":14996:15034   */\n      mstore\n        /* \"#utility.yul\":15055:15125   */\n      tag_399\n        /* \"#utility.yul\":15120:15124   */\n      dup4\n        /* \"#utility.yul\":15106:15118   */\n      dup3\n        /* \"#utility.yul\":15055:15125   */\n      tag_336\n      jump\t// in\n    tag_399:\n        /* \"#utility.yul\":15047:15125   */\n      swap3\n      pop\n        /* \"#utility.yul\":14906:15136   */\n      pop\n        /* \"#utility.yul\":15210:15214   */\n      0x02\n        /* \"#utility.yul\":15203:15208   */\n      dup5\n        /* \"#utility.yul\":15199:15215   */\n      add\n        /* \"#utility.yul\":15193:15216   */\n      sload\n        /* \"#utility.yul\":15180:15216   */\n      swap1\n      pop\n        /* \"#utility.yul\":15249:15304   */\n      tag_400\n        /* \"#utility.yul\":15294:15303   */\n      dup2\n        /* \"#utility.yul\":15249:15304   */\n      tag_382\n      jump\t// in\n    tag_400:\n        /* \"#utility.yul\":15317:15380   */\n      tag_401\n        /* \"#utility.yul\":15374:15378   */\n      0x40\n        /* \"#utility.yul\":15369:15372   */\n      dup8\n        /* \"#utility.yul\":15365:15379   */\n      add\n        /* \"#utility.yul\":15351:15363   */\n      dup3\n        /* \"#utility.yul\":15317:15380   */\n      tag_365\n      jump\t// in\n    tag_401:\n        /* \"#utility.yul\":15146:15390   */\n      pop\n        /* \"#utility.yul\":15466:15470   */\n      0x03\n        /* \"#utility.yul\":15459:15464   */\n      dup5\n        /* \"#utility.yul\":15455:15471   */\n      add\n        /* \"#utility.yul\":15449:15472   */\n      sload\n        /* \"#utility.yul\":15436:15472   */\n      swap1\n      pop\n        /* \"#utility.yul\":15505:15560   */\n      tag_402\n        /* \"#utility.yul\":15550:15559   */\n      dup2\n        /* \"#utility.yul\":15505:15560   */\n      tag_388\n      jump\t// in\n    tag_402:\n        /* \"#utility.yul\":15573:15636   */\n      tag_403\n        /* \"#utility.yul\":15630:15634   */\n      0x60\n        /* \"#utility.yul\":15625:15628   */\n      dup8\n        /* \"#utility.yul\":15621:15635   */\n      add\n        /* \"#utility.yul\":15607:15619   */\n      dup3\n        /* \"#utility.yul\":15573:15636   */\n      tag_281\n      jump\t// in\n    tag_403:\n        /* \"#utility.yul\":15400:15646   */\n      pop\n        /* \"#utility.yul\":15721:15725   */\n      0x04\n        /* \"#utility.yul\":15714:15719   */\n      dup5\n        /* \"#utility.yul\":15710:15726   */\n      add\n        /* \"#utility.yul\":15704:15727   */\n      sload\n        /* \"#utility.yul\":15691:15727   */\n      swap1\n      pop\n        /* \"#utility.yul\":15760:15815   */\n      tag_404\n        /* \"#utility.yul\":15805:15814   */\n      dup2\n        /* \"#utility.yul\":15760:15815   */\n      tag_382\n      jump\t// in\n    tag_404:\n        /* \"#utility.yul\":15828:15891   */\n      tag_405\n        /* \"#utility.yul\":15885:15889   */\n      0x80\n        /* \"#utility.yul\":15880:15883   */\n      dup8\n        /* \"#utility.yul\":15876:15890   */\n      add\n        /* \"#utility.yul\":15862:15874   */\n      dup3\n        /* \"#utility.yul\":15828:15891   */\n      tag_365\n      jump\t// in\n    tag_405:\n        /* \"#utility.yul\":15656:15901   */\n      pop\n        /* \"#utility.yul\":15978:15982   */\n      0x05\n        /* \"#utility.yul\":15971:15976   */\n      dup5\n        /* \"#utility.yul\":15967:15983   */\n      add\n        /* \"#utility.yul\":15961:15984   */\n      sload\n        /* \"#utility.yul\":15948:15984   */\n      swap1\n      pop\n        /* \"#utility.yul\":16017:16071   */\n      tag_406\n        /* \"#utility.yul\":16061:16070   */\n      dup2\n        /* \"#utility.yul\":16017:16071   */\n      tag_393\n      jump\t// in\n    tag_406:\n        /* \"#utility.yul\":16084:16145   */\n      tag_407\n        /* \"#utility.yul\":16139:16143   */\n      0xa0\n        /* \"#utility.yul\":16134:16137   */\n      dup8\n        /* \"#utility.yul\":16130:16144   */\n      add\n        /* \"#utility.yul\":16116:16128   */\n      dup3\n        /* \"#utility.yul\":16084:16145   */\n      tag_371\n      jump\t// in\n    tag_407:\n        /* \"#utility.yul\":15911:16155   */\n      pop\n        /* \"#utility.yul\":16172:16176   */\n      dup2\n        /* \"#utility.yul\":16165:16176   */\n      swap3\n      pop\n        /* \"#utility.yul\":14577:16182   */\n      pop\n      pop\n        /* \"#utility.yul\":14464:16182   */\n      swap3\n      swap2\n      pop\n      pop\n      jump\t// out\n        /* \"#utility.yul\":16188:16296   */\n    tag_365:\n        /* \"#utility.yul\":16265:16289   */\n      tag_409\n        /* \"#utility.yul\":16283:16288   */\n      dup2\n        /* \"#utility.yul\":16265:16289   */\n      tag_410\n      jump\t// in\n    tag_409:\n        /* \"#utility.yul\":16260:16263   */\n      dup3\n        /* \"#utility.yul\":16253:16290   */\n      mstore\n        /* \"#utility.yul\":16188:16296   */\n      pop\n      pop\n      jump\t// out\n        /* \"#utility.yul\":16302:16420   */\n    tag_411:\n        /* \"#utility.yul\":16389:16413   */\n      tag_413\n        /* \"#utility.yul\":16407:16412   */\n      dup2\n        /* \"#utility.yul\":16389:16413   */\n      tag_410\n      jump\t// in\n    tag_413:\n        /* \"#utility.yul\":16384:16387   */\n      dup3\n        /* \"#utility.yul\":16377:16414   */\n      mstore\n        /* \"#utility.yul\":16302:16420   */\n      pop\n      pop\n      jump\t// out\n        /* \"#utility.yul\":16426:16531   */\n    tag_371:\n        /* \"#utility.yul\":16501:16524   */\n      tag_415\n        /* \"#utility.yul\":16518:16523   */\n      dup2\n        /* \"#utility.yul\":16501:16524   */\n      tag_416\n      jump\t// in\n    tag_415:\n        /* \"#utility.yul\":16496:16499   */\n      dup3\n        /* \"#utility.yul\":16489:16525   */\n      mstore\n        /* \"#utility.yul\":16426:16531   */\n      pop\n      pop\n      jump\t// out\n        /* \"#utility.yul\":16537:16652   */\n    tag_417:\n        /* \"#utility.yul\":16622:16645   */\n      tag_419\n        /* \"#utility.yul\":16639:16644   */\n      dup2\n        /* \"#utility.yul\":16622:16645   */\n      tag_416\n      jump\t// in\n    tag_419:\n        /* \"#utility.yul\":16617:16620   */\n      dup3\n        /* \"#utility.yul\":16610:16646   */\n      mstore\n        /* \"#utility.yul\":16537:16652   */\n      pop\n      pop\n      jump\t// out\n        /* \"#utility.yul\":16658:17100   */\n    tag_91:\n        /* \"#utility.yul\":16807:16811   */\n      0x00\n        /* \"#utility.yul\":16845:16847   */\n      0x60\n        /* \"#utility.yul\":16834:16843   */\n      dup3\n        /* \"#utility.yul\":16830:16848   */\n      add\n        /* \"#utility.yul\":16822:16848   */\n      swap1\n      pop\n        /* \"#utility.yul\":16858:16929   */\n      tag_421\n        /* \"#utility.yul\":16926:16927   */\n      0x00\n        /* \"#utility.yul\":16915:16924   */\n      dup4\n        /* \"#utility.yul\":16911:16928   */\n      add\n        /* \"#utility.yul\":16902:16908   */\n      dup7\n        /* \"#utility.yul\":16858:16929   */\n      tag_285\n      jump\t// in\n    tag_421:\n        /* \"#utility.yul\":16939:17011   */\n      tag_422\n        /* \"#utility.yul\":17007:17009   */\n      0x20\n        /* \"#utility.yul\":16996:17005   */\n      dup4\n        /* \"#utility.yul\":16992:17010   */\n      add\n        /* \"#utility.yul\":16983:16989   */\n      dup6\n        /* \"#utility.yul\":16939:17011   */\n      tag_285\n      jump\t// in\n    tag_422:\n        /* \"#utility.yul\":17021:17093   */\n      tag_423\n        /* \"#utility.yul\":17089:17091   */\n      0x40\n        /* \"#utility.yul\":17078:17087   */\n      dup4\n        /* \"#utility.yul\":17074:17092   */\n      add\n        /* \"#utility.yul\":17065:17071   */\n      dup5\n        /* \"#utility.yul\":17021:17093   */\n      tag_411\n      jump\t// in\n    tag_423:\n        /* \"#utility.yul\":16658:17100   */\n      swap5\n      swap4\n      pop\n      pop\n      pop\n      pop\n      jump\t// out\n        /* \"#utility.yul\":17106:17563   */\n    tag_35:\n        /* \"#utility.yul\":17291:17295   */\n      0x00\n        /* \"#utility.yul\":17329:17331   */\n      0x20\n        /* \"#utility.yul\":17318:17327   */\n      dup3\n        /* \"#utility.yul\":17314:17332   */\n      add\n        /* \"#utility.yul\":17306:17332   */\n      swap1\n      pop\n        /* \"#utility.yul\":17378:17387   */\n      dup2\n        /* \"#utility.yul\":17372:17376   */\n      dup2\n        /* \"#utility.yul\":17368:17388   */\n      sub\n        /* \"#utility.yul\":17364:17365   */\n      0x00\n        /* \"#utility.yul\":17353:17362   */\n      dup4\n        /* \"#utility.yul\":17349:17366   */\n      add\n        /* \"#utility.yul\":17342:17389   */\n      mstore\n        /* \"#utility.yul\":17406:17556   */\n      tag_425\n        /* \"#utility.yul\":17551:17555   */\n      dup2\n        /* \"#utility.yul\":17542:17548   */\n      dup5\n        /* \"#utility.yul\":17406:17556   */\n      tag_288\n      jump\t// in\n    tag_425:\n        /* \"#utility.yul\":17398:17556   */\n      swap1\n      pop\n        /* \"#utility.yul\":17106:17563   */\n      swap3\n      swap2\n      pop\n      pop\n      jump\t// out\n        /* \"#utility.yul\":17569:18014   */\n    tag_133:\n        /* \"#utility.yul\":17748:17752   */\n      0x00\n        /* \"#utility.yul\":17786:17788   */\n      0x20\n        /* \"#utility.yul\":17775:17784   */\n      dup3\n        /* \"#utility.yul\":17771:17789   */\n      add\n        /* \"#utility.yul\":17763:17789   */\n      swap1\n      pop\n        /* \"#utility.yul\":17835:17844   */\n      dup2\n        /* \"#utility.yul\":17829:17833   */\n      dup2\n        /* \"#utility.yul\":17825:17845   */\n      sub\n        /* \"#utility.yul\":17821:17822   */\n      0x00\n        /* \"#utility.yul\":17810:17819   */\n      dup4\n        /* \"#utility.yul\":17806:17823   */\n      add\n        /* \"#utility.yul\":17799:17846   */\n      mstore\n        /* \"#utility.yul\":17863:18007   */\n      tag_427\n        /* \"#utility.yul\":18002:18006   */\n      dup2\n        /* \"#utility.yul\":17993:17999   */\n      dup5\n        /* \"#utility.yul\":17863:18007   */\n      tag_302\n      jump\t// in\n    tag_427:\n        /* \"#utility.yul\":17855:18007   */\n      swap1\n      pop\n        /* \"#utility.yul\":17569:18014   */\n      swap3\n      swap2\n      pop\n      pop\n      jump\t// out\n        /* \"#utility.yul\":18020:18270   */\n    tag_63:\n        /* \"#utility.yul\":18127:18131   */\n      0x00\n        /* \"#utility.yul\":18165:18167   */\n      0x20\n        /* \"#utility.yul\":18154:18163   */\n      dup3\n        /* \"#utility.yul\":18150:18168   */\n      add\n        /* \"#utility.yul\":18142:18168   */\n      swap1\n      pop\n        /* \"#utility.yul\":18178:18263   */\n      tag_429\n        /* \"#utility.yul\":18260:18261   */\n      0x00\n        /* \"#utility.yul\":18249:18258   */\n      dup4\n        /* \"#utility.yul\":18245:18262   */\n      add\n        /* \"#utility.yul\":18236:18242   */\n      dup5\n        /* \"#utility.yul\":18178:18263   */\n      tag_315\n      jump\t// in\n    tag_429:\n        /* \"#utility.yul\":18020:18270   */\n      swap3\n      swap2\n      pop\n      pop\n      jump\t// out\n        /* \"#utility.yul\":18276:18695   */\n    tag_130:\n        /* \"#utility.yul\":18442:18446   */\n      0x00\n        /* \"#utility.yul\":18480:18482   */\n      0x20\n        /* \"#utility.yul\":18469:18478   */\n      dup3\n        /* \"#utility.yul\":18465:18483   */\n      add\n        /* \"#utility.yul\":18457:18483   */\n      swap1\n      pop\n        /* \"#utility.yul\":18529:18538   */\n      dup2\n        /* \"#utility.yul\":18523:18527   */\n      dup2\n        /* \"#utility.yul\":18519:18539   */\n      sub\n        /* \"#utility.yul\":18515:18516   */\n      0x00\n        /* \"#utility.yul\":18504:18513   */\n      dup4\n        /* \"#utility.yul\":18500:18517   */\n      add\n        /* \"#utility.yul\":18493:18540   */\n      mstore\n        /* \"#utility.yul\":18557:18688   */\n      tag_431\n        /* \"#utility.yul\":18683:18687   */\n      dup2\n        /* \"#utility.yul\":18557:18688   */\n      tag_348\n      jump\t// in\n    tag_431:\n        /* \"#utility.yul\":18549:18688   */\n      swap1\n      pop\n        /* \"#utility.yul\":18276:18695   */\n      swap2\n      swap1\n      pop\n      jump\t// out\n        /* \"#utility.yul\":18701:19120   */\n    tag_175:\n        /* \"#utility.yul\":18867:18871   */\n      0x00\n        /* \"#utility.yul\":18905:18907   */\n      0x20\n        /* \"#utility.yul\":18894:18903   */\n      dup3\n        /* \"#utility.yul\":18890:18908   */\n      add\n        /* \"#utility.yul\":18882:18908   */\n      swap1\n      pop\n        /* \"#utility.yul\":18954:18963   */\n      dup2\n        /* \"#utility.yul\":18948:18952   */\n      dup2\n        /* \"#utility.yul\":18944:18964   */\n      sub\n        /* \"#utility.yul\":18940:18941   */\n      0x00\n        /* \"#utility.yul\":18929:18938   */\n      dup4\n        /* \"#utility.yul\":18925:18942   */\n      add\n        /* \"#utility.yul\":18918:18965   */\n      mstore\n        /* \"#utility.yul\":18982:19113   */\n      tag_433\n        /* \"#utility.yul\":19108:19112   */\n      dup2\n        /* \"#utility.yul\":18982:19113   */\n      tag_353\n      jump\t// in\n    tag_433:\n        /* \"#utility.yul\":18974:19113   */\n      swap1\n      pop\n        /* \"#utility.yul\":18701:19120   */\n      swap2\n      swap1\n      pop\n      jump\t// out\n        /* \"#utility.yul\":19126:19545   */\n    tag_85:\n        /* \"#utility.yul\":19292:19296   */\n      0x00\n        /* \"#utility.yul\":19330:19332   */\n      0x20\n        /* \"#utility.yul\":19319:19328   */\n      dup3\n        /* \"#utility.yul\":19315:19333   */\n      add\n        /* \"#utility.yul\":19307:19333   */\n      swap1\n      pop\n        /* \"#utility.yul\":19379:19388   */\n      dup2\n        /* \"#utility.yul\":19373:19377   */\n      dup2\n        /* \"#utility.yul\":19369:19389   */\n      sub\n        /* \"#utility.yul\":19365:19366   */\n      0x00\n        /* \"#utility.yul\":19354:19363   */\n      dup4\n        /* \"#utility.yul\":19350:19367   */\n      add\n        /* \"#utility.yul\":19343:19390   */\n      mstore\n        /* \"#utility.yul\":19407:19538   */\n      tag_435\n        /* \"#utility.yul\":19533:19537   */\n      dup2\n        /* \"#utility.yul\":19407:19538   */\n      tag_358\n      jump\t// in\n    tag_435:\n        /* \"#utility.yul\":19399:19538   */\n      swap1\n      pop\n        /* \"#utility.yul\":19126:19545   */\n      swap2\n      swap1\n      pop\n      jump\t// out\n        /* \"#utility.yul\":19551:19908   */\n    tag_53:\n        /* \"#utility.yul\":19686:19690   */\n      0x00\n        /* \"#utility.yul\":19724:19726   */\n      0x20\n        /* \"#utility.yul\":19713:19722   */\n      dup3\n        /* \"#utility.yul\":19709:19727   */\n      add\n        /* \"#utility.yul\":19701:19727   */\n      swap1\n      pop\n        /* \"#utility.yul\":19773:19782   */\n      dup2\n        /* \"#utility.yul\":19767:19771   */\n      dup2\n        /* \"#utility.yul\":19763:19783   */\n      sub\n        /* \"#utility.yul\":19759:19760   */\n      0x00\n        /* \"#utility.yul\":19748:19757   */\n      dup4\n        /* \"#utility.yul\":19744:19761   */\n      add\n        /* \"#utility.yul\":19737:19784   */\n      mstore\n        /* \"#utility.yul\":19801:19901   */\n      tag_437\n        /* \"#utility.yul\":19896:19900   */\n      dup2\n        /* \"#utility.yul\":19887:19893   */\n      dup5\n        /* \"#utility.yul\":19801:19901   */\n      tag_372\n      jump\t// in\n    tag_437:\n        /* \"#utility.yul\":19793:19901   */\n      swap1\n      pop\n        /* \"#utility.yul\":19551:19908   */\n      swap3\n      swap2\n      pop\n      pop\n      jump\t// out\n        /* \"#utility.yul\":19914:20136   */\n    tag_59:\n        /* \"#utility.yul\":20007:20011   */\n      0x00\n        /* \"#utility.yul\":20045:20047   */\n      0x20\n        /* \"#utility.yul\":20034:20043   */\n      dup3\n        /* \"#utility.yul\":20030:20048   */\n      add\n        /* \"#utility.yul\":20022:20048   */\n      swap1\n      pop\n        /* \"#utility.yul\":20058:20129   */\n      tag_439\n        /* \"#utility.yul\":20126:20127   */\n      0x00\n        /* \"#utility.yul\":20115:20124   */\n      dup4\n        /* \"#utility.yul\":20111:20128   */\n      add\n        /* \"#utility.yul\":20102:20108   */\n      dup5\n        /* \"#utility.yul\":20058:20129   */\n      tag_411\n      jump\t// in\n    tag_439:\n        /* \"#utility.yul\":19914:20136   */\n      swap3\n      swap2\n      pop\n      pop\n      jump\t// out\n        /* \"#utility.yul\":20142:20877   */\n    tag_41:\n        /* \"#utility.yul\":20359:20363   */\n      0x00\n        /* \"#utility.yul\":20397:20400   */\n      0x80\n        /* \"#utility.yul\":20386:20395   */\n      dup3\n        /* \"#utility.yul\":20382:20401   */\n      add\n        /* \"#utility.yul\":20374:20401   */\n      swap1\n      pop\n        /* \"#utility.yul\":20411:20482   */\n      tag_441\n        /* \"#utility.yul\":20479:20480   */\n      0x00\n        /* \"#utility.yul\":20468:20477   */\n      dup4\n        /* \"#utility.yul\":20464:20481   */\n      add\n        /* \"#utility.yul\":20455:20461   */\n      dup8\n        /* \"#utility.yul\":20411:20482   */\n      tag_411\n      jump\t// in\n    tag_441:\n        /* \"#utility.yul\":20529:20538   */\n      dup2\n        /* \"#utility.yul\":20523:20527   */\n      dup2\n        /* \"#utility.yul\":20519:20539   */\n      sub\n        /* \"#utility.yul\":20514:20516   */\n      0x20\n        /* \"#utility.yul\":20503:20512   */\n      dup4\n        /* \"#utility.yul\":20499:20517   */\n      add\n        /* \"#utility.yul\":20492:20540   */\n      mstore\n        /* \"#utility.yul\":20557:20635   */\n      tag_442\n        /* \"#utility.yul\":20630:20634   */\n      dup2\n        /* \"#utility.yul\":20621:20627   */\n      dup7\n        /* \"#utility.yul\":20557:20635   */\n      tag_329\n      jump\t// in\n    tag_442:\n        /* \"#utility.yul\":20549:20635   */\n      swap1\n      pop\n        /* \"#utility.yul\":20682:20691   */\n      dup2\n        /* \"#utility.yul\":20676:20680   */\n      dup2\n        /* \"#utility.yul\":20672:20692   */\n      sub\n        /* \"#utility.yul\":20667:20669   */\n      0x40\n        /* \"#utility.yul\":20656:20665   */\n      dup4\n        /* \"#utility.yul\":20652:20670   */\n      add\n        /* \"#utility.yul\":20645:20693   */\n      mstore\n        /* \"#utility.yul\":20710:20788   */\n      tag_443\n        /* \"#utility.yul\":20783:20787   */\n      dup2\n        /* \"#utility.yul\":20774:20780   */\n      dup6\n        /* \"#utility.yul\":20710:20788   */\n      tag_329\n      jump\t// in\n    tag_443:\n        /* \"#utility.yul\":20702:20788   */\n      swap1\n      pop\n        /* \"#utility.yul\":20798:20870   */\n      tag_444\n        /* \"#utility.yul\":20866:20868   */\n      0x60\n        /* \"#utility.yul\":20855:20864   */\n      dup4\n        /* \"#utility.yul\":20851:20869   */\n      add\n        /* \"#utility.yul\":20842:20848   */\n      dup5\n        /* \"#utility.yul\":20798:20870   */\n      tag_411\n      jump\t// in\n    tag_444:\n        /* \"#utility.yul\":20142:20877   */\n      swap6\n      swap5\n      pop\n      pop\n      pop\n      pop\n      pop\n      jump\t// out\n        /* \"#utility.yul\":20883:21745   */\n    tag_27:\n        /* \"#utility.yul\":21134:21138   */\n      0x00\n        /* \"#utility.yul\":21172:21175   */\n      0xc0\n        /* \"#utility.yul\":21161:21170   */\n      dup3\n        /* \"#utility.yul\":21157:21176   */\n      add\n        /* \"#utility.yul\":21149:21176   */\n      swap1\n      pop\n        /* \"#utility.yul\":21186:21257   */\n      tag_446\n        /* \"#utility.yul\":21254:21255   */\n      0x00\n        /* \"#utility.yul\":21243:21252   */\n      dup4\n        /* \"#utility.yul\":21239:21256   */\n      add\n        /* \"#utility.yul\":21230:21236   */\n      dup10\n        /* \"#utility.yul\":21186:21257   */\n      tag_411\n      jump\t// in\n    tag_446:\n        /* \"#utility.yul\":21304:21313   */\n      dup2\n        /* \"#utility.yul\":21298:21302   */\n      dup2\n        /* \"#utility.yul\":21294:21314   */\n      sub\n        /* \"#utility.yul\":21289:21291   */\n      0x20\n        /* \"#utility.yul\":21278:21287   */\n      dup4\n        /* \"#utility.yul\":21274:21292   */\n      add\n        /* \"#utility.yul\":21267:21315   */\n      mstore\n        /* \"#utility.yul\":21332:21410   */\n      tag_447\n        /* \"#utility.yul\":21405:21409   */\n      dup2\n        /* \"#utility.yul\":21396:21402   */\n      dup9\n        /* \"#utility.yul\":21332:21410   */\n      tag_329\n      jump\t// in\n    tag_447:\n        /* \"#utility.yul\":21324:21410   */\n      swap1\n      pop\n        /* \"#utility.yul\":21420:21492   */\n      tag_448\n        /* \"#utility.yul\":21488:21490   */\n      0x40\n        /* \"#utility.yul\":21477:21486   */\n      dup4\n        /* \"#utility.yul\":21473:21491   */\n      add\n        /* \"#utility.yul\":21464:21470   */\n      dup8\n        /* \"#utility.yul\":21420:21492   */\n      tag_411\n      jump\t// in\n    tag_448:\n        /* \"#utility.yul\":21502:21574   */\n      tag_449\n        /* \"#utility.yul\":21570:21572   */\n      0x60\n        /* \"#utility.yul\":21559:21568   */\n      dup4\n        /* \"#utility.yul\":21555:21573   */\n      add\n        /* \"#utility.yul\":21546:21552   */\n      dup7\n        /* \"#utility.yul\":21502:21574   */\n      tag_285\n      jump\t// in\n    tag_449:\n        /* \"#utility.yul\":21584:21657   */\n      tag_450\n        /* \"#utility.yul\":21652:21655   */\n      0x80\n        /* \"#utility.yul\":21641:21650   */\n      dup4\n        /* \"#utility.yul\":21637:21656   */\n      add\n        /* \"#utility.yul\":21628:21634   */\n      dup6\n        /* \"#utility.yul\":21584:21657   */\n      tag_411\n      jump\t// in\n    tag_450:\n        /* \"#utility.yul\":21667:21738   */\n      tag_451\n        /* \"#utility.yul\":21733:21736   */\n      0xa0\n        /* \"#utility.yul\":21722:21731   */\n      dup4\n        /* \"#utility.yul\":21718:21737   */\n      add\n        /* \"#utility.yul\":21709:21715   */\n      dup5\n        /* \"#utility.yul\":21667:21738   */\n      tag_417\n      jump\t// in\n    tag_451:\n        /* \"#utility.yul\":20883:21745   */\n      swap8\n      swap7\n      pop\n      pop\n      pop\n      pop\n      pop\n      pop\n      pop\n      jump\t// out\n        /* \"#utility.yul\":21751:22212   */\n    tag_178:\n        /* \"#utility.yul\":21911:21915   */\n      0x00\n        /* \"#utility.yul\":21949:21951   */\n      0x40\n        /* \"#utility.yul\":21938:21947   */\n      dup3\n        /* \"#utility.yul\":21934:21952   */\n      add\n        /* \"#utility.yul\":21926:21952   */\n      swap1\n      pop\n        /* \"#utility.yul\":21962:22033   */\n      tag_453\n        /* \"#utility.yul\":22030:22031   */\n      0x00\n        /* \"#utility.yul\":22019:22028   */\n      dup4\n        /* \"#utility.yul\":22015:22032   */\n      add\n        /* \"#utility.yul\":22006:22012   */\n      dup6\n        /* \"#utility.yul\":21962:22033   */\n      tag_411\n      jump\t// in\n    tag_453:\n        /* \"#utility.yul\":22080:22089   */\n      dup2\n        /* \"#utility.yul\":22074:22078   */\n      dup2\n        /* \"#utility.yul\":22070:22090   */\n      sub\n        /* \"#utility.yul\":22065:22067   */\n      0x20\n        /* \"#utility.yul\":22054:22063   */\n      dup4\n        /* \"#utility.yul\":22050:22068   */\n      add\n        /* \"#utility.yul\":22043:22091   */\n      mstore\n        /* \"#utility.yul\":22108:22205   */\n      tag_454\n        /* \"#utility.yul\":22200:22204   */\n      dup2\n        /* \"#utility.yul\":22191:22197   */\n      dup5\n        /* \"#utility.yul\":22108:22205   */\n      tag_395\n      jump\t// in\n    tag_454:\n        /* \"#utility.yul\":22100:22205   */\n      swap1\n      pop\n        /* \"#utility.yul\":21751:22212   */\n      swap4\n      swap3\n      pop\n      pop\n      pop\n      jump\t// out\n        /* \"#utility.yul\":22218:22550   */\n    tag_76:\n        /* \"#utility.yul\":22339:22343   */\n      0x00\n        /* \"#utility.yul\":22377:22379   */\n      0x40\n        /* \"#utility.yul\":22366:22375   */\n      dup3\n        /* \"#utility.yul\":22362:22380   */\n      add\n        /* \"#utility.yul\":22354:22380   */\n      swap1\n      pop\n        /* \"#utility.yul\":22390:22461   */\n      tag_456\n        /* \"#utility.yul\":22458:22459   */\n      0x00\n        /* \"#utility.yul\":22447:22456   */\n      dup4\n        /* \"#utility.yul\":22443:22460   */\n      add\n        /* \"#utility.yul\":22434:22440   */\n      dup6\n        /* \"#utility.yul\":22390:22461   */\n      tag_411\n      jump\t// in\n    tag_456:\n        /* \"#utility.yul\":22471:22543   */\n      tag_457\n        /* \"#utility.yul\":22539:22541   */\n      0x20\n        /* \"#utility.yul\":22528:22537   */\n      dup4\n        /* \"#utility.yul\":22524:22542   */\n      add\n        /* \"#utility.yul\":22515:22521   */\n      dup5\n        /* \"#utility.yul\":22471:22543   */\n      tag_411\n      jump\t// in\n    tag_457:\n        /* \"#utility.yul\":22218:22550   */\n      swap4\n      swap3\n      pop\n      pop\n      pop\n      jump\t// out\n        /* \"#utility.yul\":22556:23307   */\n    tag_125:\n        /* \"#utility.yul\":22779:22783   */\n      0x00\n        /* \"#utility.yul\":22817:22820   */\n      0xa0\n        /* \"#utility.yul\":22806:22815   */\n      dup3\n        /* \"#utility.yul\":22802:22821   */\n      add\n        /* \"#utility.yul\":22794:22821   */\n      swap1\n      pop\n        /* \"#utility.yul\":22831:22902   */\n      tag_459\n        /* \"#utility.yul\":22899:22900   */\n      0x00\n        /* \"#utility.yul\":22888:22897   */\n      dup4\n        /* \"#utility.yul\":22884:22901   */\n      add\n        /* \"#utility.yul\":22875:22881   */\n      dup9\n        /* \"#utility.yul\":22831:22902   */\n      tag_411\n      jump\t// in\n    tag_459:\n        /* \"#utility.yul\":22912:22984   */\n      tag_460\n        /* \"#utility.yul\":22980:22982   */\n      0x20\n        /* \"#utility.yul\":22969:22978   */\n      dup4\n        /* \"#utility.yul\":22965:22983   */\n      add\n        /* \"#utility.yul\":22956:22962   */\n      dup8\n        /* \"#utility.yul\":22912:22984   */\n      tag_411\n      jump\t// in\n    tag_460:\n        /* \"#utility.yul\":23031:23040   */\n      dup2\n        /* \"#utility.yul\":23025:23029   */\n      dup2\n        /* \"#utility.yul\":23021:23041   */\n      sub\n        /* \"#utility.yul\":23016:23018   */\n      0x40\n        /* \"#utility.yul\":23005:23014   */\n      dup4\n        /* \"#utility.yul\":23001:23019   */\n      add\n        /* \"#utility.yul\":22994:23042   */\n      mstore\n        /* \"#utility.yul\":23059:23137   */\n      tag_461\n        /* \"#utility.yul\":23132:23136   */\n      dup2\n        /* \"#utility.yul\":23123:23129   */\n      dup7\n        /* \"#utility.yul\":23059:23137   */\n      tag_329\n      jump\t// in\n    tag_461:\n        /* \"#utility.yul\":23051:23137   */\n      swap1\n      pop\n        /* \"#utility.yul\":23147:23217   */\n      tag_462\n        /* \"#utility.yul\":23213:23215   */\n      0x60\n        /* \"#utility.yul\":23202:23211   */\n      dup4\n        /* \"#utility.yul\":23198:23216   */\n      add\n        /* \"#utility.yul\":23189:23195   */\n      dup6\n        /* \"#utility.yul\":23147:23217   */\n      tag_417\n      jump\t// in\n    tag_462:\n        /* \"#utility.yul\":23227:23300   */\n      tag_463\n        /* \"#utility.yul\":23295:23298   */\n      0x80\n        /* \"#utility.yul\":23284:23293   */\n      dup4\n        /* \"#utility.yul\":23280:23299   */\n      add\n        /* \"#utility.yul\":23271:23277   */\n      dup5\n        /* \"#utility.yul\":23227:23300   */\n      tag_411\n      jump\t// in\n    tag_463:\n        /* \"#utility.yul\":22556:23307   */\n      swap7\n      swap6\n      pop\n      pop\n      pop\n      pop\n      pop\n      pop\n      jump\t// out\n        /* \"#utility.yul\":23313:23442   */\n    tag_213:\n        /* \"#utility.yul\":23347:23353   */\n      0x00\n        /* \"#utility.yul\":23374:23394   */\n      tag_465\n      tag_466\n      jump\t// in\n    tag_465:\n        /* \"#utility.yul\":23364:23394   */\n      swap1\n      pop\n        /* \"#utility.yul\":23403:23436   */\n      tag_467\n        /* \"#utility.yul\":23431:23435   */\n      dup3\n        /* \"#utility.yul\":23423:23429   */\n      dup3\n        /* \"#utility.yul\":23403:23436   */\n      tag_468\n      jump\t// in\n    tag_467:\n        /* \"#utility.yul\":23313:23442   */\n      swap2\n      swap1\n      pop\n      jump\t// out\n        /* \"#utility.yul\":23448:23523   */\n    tag_466:\n        /* \"#utility.yul\":23481:23487   */\n      0x00\n        /* \"#utility.yul\":23514:23516   */\n      0x40\n        /* \"#utility.yul\":23508:23517   */\n      mload\n        /* \"#utility.yul\":23498:23517   */\n      swap1\n      pop\n        /* \"#utility.yul\":23448:23523   */\n      swap1\n      jump\t// out\n        /* \"#utility.yul\":23529:23837   */\n    tag_212:\n        /* \"#utility.yul\":23591:23595   */\n      0x00\n        /* \"#utility.yul\":23681:23699   */\n      0xffffffffffffffff\n        /* \"#utility.yul\":23673:23679   */\n      dup3\n        /* \"#utility.yul\":23670:23700   */\n      gt\n        /* \"#utility.yul\":23667:23723   */\n      iszero\n      tag_471\n      jumpi\n        /* \"#utility.yul\":23703:23721   */\n      tag_472\n      tag_473\n      jump\t// in\n    tag_472:\n        /* \"#utility.yul\":23667:23723   */\n    tag_471:\n        /* \"#utility.yul\":23741:23770   */\n      tag_474\n        /* \"#utility.yul\":23763:23769   */\n      dup3\n        /* \"#utility.yul\":23741:23770   */\n      tag_328\n      jump\t// in\n    tag_474:\n        /* \"#utility.yul\":23733:23770   */\n      swap1\n      pop\n        /* \"#utility.yul\":23825:23829   */\n      0x20\n        /* \"#utility.yul\":23819:23823   */\n      dup2\n        /* \"#utility.yul\":23815:23830   */\n      add\n        /* \"#utility.yul\":23807:23830   */\n      swap1\n      pop\n        /* \"#utility.yul\":23529:23837   */\n      swap2\n      swap1\n      pop\n      jump\t// out\n        /* \"#utility.yul\":23843:23996   */\n    tag_295:\n        /* \"#utility.yul\":23931:23935   */\n      0x00\n        /* \"#utility.yul\":23954:23957   */\n      dup2\n        /* \"#utility.yul\":23946:23957   */\n      swap1\n      pop\n        /* \"#utility.yul\":23984:23988   */\n      0x20\n        /* \"#utility.yul\":23979:23982   */\n      dup3\n        /* \"#utility.yul\":23975:23989   */\n      add\n        /* \"#utility.yul\":23967:23989   */\n      swap1\n      pop\n        /* \"#utility.yul\":23843:23996   */\n      swap2\n      swap1\n      pop\n      jump\t// out\n        /* \"#utility.yul\":24002:24176   */\n    tag_308:\n        /* \"#utility.yul\":24084:24088   */\n      0x00\n        /* \"#utility.yul\":24107:24110   */\n      dup2\n        /* \"#utility.yul\":24099:24110   */\n      swap1\n      pop\n        /* \"#utility.yul\":24130:24133   */\n      dup2\n        /* \"#utility.yul\":24127:24128   */\n      0x00\n        /* \"#utility.yul\":24120:24134   */\n      mstore\n        /* \"#utility.yul\":24164:24168   */\n      0x20\n        /* \"#utility.yul\":24161:24162   */\n      0x00\n        /* \"#utility.yul\":24151:24169   */\n      keccak256\n        /* \"#utility.yul\":24143:24169   */\n      swap1\n      pop\n        /* \"#utility.yul\":24002:24176   */\n      swap2\n      swap1\n      pop\n      jump\t// out\n        /* \"#utility.yul\":24182:24323   */\n    tag_344:\n        /* \"#utility.yul\":24231:24235   */\n      0x00\n        /* \"#utility.yul\":24254:24257   */\n      dup2\n        /* \"#utility.yul\":24246:24257   */\n      swap1\n      pop\n        /* \"#utility.yul\":24277:24280   */\n      dup2\n        /* \"#utility.yul\":24274:24275   */\n      0x00\n        /* \"#utility.yul\":24267:24281   */\n      mstore\n        /* \"#utility.yul\":24311:24315   */\n      0x20\n        /* \"#utility.yul\":24308:24309   */\n      0x00\n        /* \"#utility.yul\":24298:24316   */\n      keccak256\n        /* \"#utility.yul\":24290:24316   */\n      swap1\n      pop\n        /* \"#utility.yul\":24182:24323   */\n      swap2\n      swap1\n      pop\n      jump\t// out\n        /* \"#utility.yul\":24329:24464   */\n    tag_291:\n        /* \"#utility.yul\":24417:24423   */\n      0x00\n        /* \"#utility.yul\":24451:24456   */\n      dup2\n        /* \"#utility.yul\":24445:24457   */\n      mload\n        /* \"#utility.yul\":24435:24457   */\n      swap1\n      pop\n        /* \"#utility.yul\":24329:24464   */\n      swap2\n      swap1\n      pop\n      jump\t// out\n        /* \"#utility.yul\":24470:24599   */\n    tag_305:\n        /* \"#utility.yul\":24552:24558   */\n      0x00\n        /* \"#utility.yul\":24586:24591   */\n      dup2\n        /* \"#utility.yul\":24580:24592   */\n      sload\n        /* \"#utility.yul\":24570:24592   */\n      swap1\n      pop\n        /* \"#utility.yul\":24470:24599   */\n      swap2\n      swap1\n      pop\n      jump\t// out\n        /* \"#utility.yul\":24605:24704   */\n    tag_322:\n        /* \"#utility.yul\":24657:24663   */\n      0x00\n        /* \"#utility.yul\":24691:24696   */\n      dup2\n        /* \"#utility.yul\":24685:24697   */\n      mload\n        /* \"#utility.yul\":24675:24697   */\n      swap1\n      pop\n        /* \"#utility.yul\":24605:24704   */\n      swap2\n      swap1\n      pop\n      jump\t// out\n        /* \"#utility.yul\":24710:24844   */\n    tag_301:\n        /* \"#utility.yul\":24801:24805   */\n      0x00\n        /* \"#utility.yul\":24833:24837   */\n      0x20\n        /* \"#utility.yul\":24828:24831   */\n      dup3\n        /* \"#utility.yul\":24824:24838   */\n      add\n        /* \"#utility.yul\":24816:24838   */\n      swap1\n      pop\n        /* \"#utility.yul\":24710:24844   */\n      swap2\n      swap1\n      pop\n      jump\t// out\n        /* \"#utility.yul\":24850:24978   */\n    tag_314:\n        /* \"#utility.yul\":24935:24939   */\n      0x00\n        /* \"#utility.yul\":24967:24971   */\n      0x06\n        /* \"#utility.yul\":24962:24965   */\n      dup3\n        /* \"#utility.yul\":24958:24972   */\n      add\n        /* \"#utility.yul\":24950:24972   */\n      swap1\n      pop\n        /* \"#utility.yul\":24850:24978   */\n      swap2\n      swap1\n      pop\n      jump\t// out\n        /* \"#utility.yul\":24984:25189   */\n    tag_293:\n        /* \"#utility.yul\":25104:25115   */\n      0x00\n        /* \"#utility.yul\":25138:25144   */\n      dup3\n        /* \"#utility.yul\":25133:25136   */\n      dup3\n        /* \"#utility.yul\":25126:25145   */\n      mstore\n        /* \"#utility.yul\":25178:25182   */\n      0x20\n        /* \"#utility.yul\":25173:25176   */\n      dup3\n        /* \"#utility.yul\":25169:25183   */\n      add\n        /* \"#utility.yul\":25154:25183   */\n      swap1\n      pop\n        /* \"#utility.yul\":24984:25189   */\n      swap3\n      swap2\n      pop\n      pop\n      jump\t// out\n        /* \"#utility.yul\":25195:25354   */\n    tag_324:\n        /* \"#utility.yul\":25269:25280   */\n      0x00\n        /* \"#utility.yul\":25303:25309   */\n      dup3\n        /* \"#utility.yul\":25298:25301   */\n      dup3\n        /* \"#utility.yul\":25291:25310   */\n      mstore\n        /* \"#utility.yul\":25343:25347   */\n      0x20\n        /* \"#utility.yul\":25338:25341   */\n      dup3\n        /* \"#utility.yul\":25334:25348   */\n      add\n        /* \"#utility.yul\":25319:25348   */\n      swap1\n      pop\n        /* \"#utility.yul\":25195:25354   */\n      swap3\n      swap2\n      pop\n      pop\n      jump\t// out\n        /* \"#utility.yul\":25360:25529   */\n    tag_333:\n        /* \"#utility.yul\":25444:25455   */\n      0x00\n        /* \"#utility.yul\":25478:25484   */\n      dup3\n        /* \"#utility.yul\":25473:25476   */\n      dup3\n        /* \"#utility.yul\":25466:25485   */\n      mstore\n        /* \"#utility.yul\":25518:25522   */\n      0x20\n        /* \"#utility.yul\":25513:25516   */\n      dup3\n        /* \"#utility.yul\":25509:25523   */\n      add\n        /* \"#utility.yul\":25494:25523   */\n      swap1\n      pop\n        /* \"#utility.yul\":25360:25529   */\n      swap3\n      swap2\n      pop\n      pop\n      jump\t// out\n        /* \"#utility.yul\":25535:25840   */\n    tag_89:\n        /* \"#utility.yul\":25575:25578   */\n      0x00\n        /* \"#utility.yul\":25594:25614   */\n      tag_487\n        /* \"#utility.yul\":25612:25613   */\n      dup3\n        /* \"#utility.yul\":25594:25614   */\n      tag_410\n      jump\t// in\n    tag_487:\n        /* \"#utility.yul\":25589:25614   */\n      swap2\n      pop\n        /* \"#utility.yul\":25628:25648   */\n      tag_488\n        /* \"#utility.yul\":25646:25647   */\n      dup4\n        /* \"#utility.yul\":25628:25648   */\n      tag_410\n      jump\t// in\n    tag_488:\n        /* \"#utility.yul\":25623:25648   */\n      swap3\n      pop\n        /* \"#utility.yul\":25782:25783   */\n      dup3\n        /* \"#utility.yul\":25714:25780   */\n      0xffffffffffffffffffffffffffffffffffffffffffffffffffffffffffffffff\n        /* \"#utility.yul\":25710:25784   */\n      sub\n        /* \"#utility.yul\":25707:25708   */\n      dup3\n        /* \"#utility.yul\":25704:25785   */\n      gt\n        /* \"#utility.yul\":25701:25808   */\n      iszero\n      tag_489\n      jumpi\n        /* \"#utility.yul\":25788:25806   */\n      tag_490\n      tag_491\n      jump\t// in\n    tag_490:\n        /* \"#utility.yul\":25701:25808   */\n    tag_489:\n        /* \"#utility.yul\":25832:25833   */\n      dup3\n        /* \"#utility.yul\":25829:25830   */\n      dup3\n        /* \"#utility.yul\":25825:25834   */\n      add\n        /* \"#utility.yul\":25818:25834   */\n      swap1\n      pop\n        /* \"#utility.yul\":25535:25840   */\n      swap3\n      swap2\n      pop\n      pop\n      jump\t// out\n        /* \"#utility.yul\":25846:25985   */\n    tag_492:\n        /* \"#utility.yul\":25896:25903   */\n      0x00\n        /* \"#utility.yul\":25936:25978   */\n      0xffffffffffffffffffffffffffffffffffffffff\n        /* \"#utility.yul\":25929:25934   */\n      dup3\n        /* \"#utility.yul\":25925:25979   */\n      and\n        /* \"#utility.yul\":25914:25979   */\n      swap1\n      pop\n        /* \"#utility.yul\":25846:25985   */\n      swap2\n      swap1\n      pop\n      jump\t// out\n        /* \"#utility.yul\":25991:26081   */\n    tag_494:\n        /* \"#utility.yul\":26041:26048   */\n      0x00\n        /* \"#utility.yul\":26070:26075   */\n      dup2\n        /* \"#utility.yul\":26059:26075   */\n      swap1\n      pop\n        /* \"#utility.yul\":25991:26081   */\n      swap2\n      swap1\n      pop\n      jump\t// out\n        /* \"#utility.yul\":26087:26193   */\n    tag_496:\n        /* \"#utility.yul\":26136:26143   */\n      0x00\n        /* \"#utility.yul\":26176:26186   */\n      0xffffffff\n        /* \"#utility.yul\":26169:26174   */\n      dup3\n        /* \"#utility.yul\":26165:26187   */\n      and\n        /* \"#utility.yul\":26154:26187   */\n      swap1\n      pop\n        /* \"#utility.yul\":26087:26193   */\n      swap2\n      swap1\n      pop\n      jump\t// out\n        /* \"#utility.yul\":26199:26295   */\n    tag_284:\n        /* \"#utility.yul\":26236:26243   */\n      0x00\n        /* \"#utility.yul\":26265:26289   */\n      tag_499\n        /* \"#utility.yul\":26283:26288   */\n      dup3\n        /* \"#utility.yul\":26265:26289   */\n      tag_500\n      jump\t// in\n    tag_499:\n        /* \"#utility.yul\":26254:26289   */\n      swap1\n      pop\n        /* \"#utility.yul\":26199:26295   */\n      swap2\n      swap1\n      pop\n      jump\t// out\n        /* \"#utility.yul\":26301:26391   */\n    tag_501:\n        /* \"#utility.yul\":26335:26342   */\n      0x00\n        /* \"#utility.yul\":26378:26383   */\n      dup2\n        /* \"#utility.yul\":26371:26384   */\n      iszero\n        /* \"#utility.yul\":26364:26385   */\n      iszero\n        /* \"#utility.yul\":26353:26385   */\n      swap1\n      pop\n        /* \"#utility.yul\":26301:26391   */\n      swap2\n      swap1\n      pop\n      jump\t// out\n        /* \"#utility.yul\":26397:26523   */\n    tag_500:\n        /* \"#utility.yul\":26434:26441   */\n      0x00\n        /* \"#utility.yul\":26474:26516   */\n      0xffffffffffffffffffffffffffffffffffffffff\n        /* \"#utility.yul\":26467:26472   */\n      dup3\n        /* \"#utility.yul\":26463:26517   */\n      and\n        /* \"#utility.yul\":26452:26517   */\n      swap1\n      pop\n        /* \"#utility.yul\":26397:26523   */\n      swap2\n      swap1\n      pop\n      jump\t// out\n        /* \"#utility.yul\":26529:26606   */\n    tag_410:\n        /* \"#utility.yul\":26566:26573   */\n      0x00\n        /* \"#utility.yul\":26595:26600   */\n      dup2\n        /* \"#utility.yul\":26584:26600   */\n      swap1\n      pop\n        /* \"#utility.yul\":26529:26606   */\n      swap2\n      swap1\n      pop\n      jump\t// out\n        /* \"#utility.yul\":26612:26705   */\n    tag_416:\n        /* \"#utility.yul\":26648:26655   */\n      0x00\n        /* \"#utility.yul\":26688:26698   */\n      0xffffffff\n        /* \"#utility.yul\":26681:26686   */\n      dup3\n        /* \"#utility.yul\":26677:26699   */\n      and\n        /* \"#utility.yul\":26666:26699   */\n      swap1\n      pop\n        /* \"#utility.yul\":26612:26705   */\n      swap2\n      swap1\n      pop\n      jump\t// out\n        /* \"#utility.yul\":26711:26851   */\n    tag_318:\n        /* \"#utility.yul\":26775:26784   */\n      0x00\n        /* \"#utility.yul\":26808:26845   */\n      tag_507\n        /* \"#utility.yul\":26839:26844   */\n      dup3\n        /* \"#utility.yul\":26808:26845   */\n      tag_508\n      jump\t// in\n    tag_507:\n        /* \"#utility.yul\":26795:26845   */\n      swap1\n      pop\n        /* \"#utility.yul\":26711:26851   */\n      swap2\n      swap1\n      pop\n      jump\t// out\n        /* \"#utility.yul\":26857:26983   */\n    tag_508:\n        /* \"#utility.yul\":26907:26916   */\n      0x00\n        /* \"#utility.yul\":26940:26977   */\n      tag_510\n        /* \"#utility.yul\":26971:26976   */\n      dup3\n        /* \"#utility.yul\":26940:26977   */\n      tag_511\n      jump\t// in\n    tag_510:\n        /* \"#utility.yul\":26927:26977   */\n      swap1\n      pop\n        /* \"#utility.yul\":26857:26983   */\n      swap2\n      swap1\n      pop\n      jump\t// out\n        /* \"#utility.yul\":26989:27102   */\n    tag_511:\n        /* \"#utility.yul\":27039:27048   */\n      0x00\n        /* \"#utility.yul\":27072:27096   */\n      tag_513\n        /* \"#utility.yul\":27090:27095   */\n      dup3\n        /* \"#utility.yul\":27072:27096   */\n      tag_500\n      jump\t// in\n    tag_513:\n        /* \"#utility.yul\":27059:27096   */\n      swap1\n      pop\n        /* \"#utility.yul\":26989:27102   */\n      swap2\n      swap1\n      pop\n      jump\t// out\n        /* \"#utility.yul\":27108:27262   */\n    tag_218:\n        /* \"#utility.yul\":27192:27198   */\n      dup3\n        /* \"#utility.yul\":27187:27190   */\n      dup2\n        /* \"#utility.yul\":27182:27185   */\n      dup4\n        /* \"#utility.yul\":27169:27199   */\n      calldatacopy\n        /* \"#utility.yul\":27254:27255   */\n      0x00\n        /* \"#utility.yul\":27245:27251   */\n      dup4\n        /* \"#utility.yul\":27240:27243   */\n      dup4\n        /* \"#utility.yul\":27236:27252   */\n      add\n        /* \"#utility.yul\":27229:27256   */\n      mstore\n        /* \"#utility.yul\":27108:27262   */\n      pop\n      pop\n      pop\n      jump\t// out\n        /* \"#utility.yul\":27268:27575   */\n    tag_326:\n        /* \"#utility.yul\":27336:27337   */\n      0x00\n        /* \"#utility.yul\":27346:27459   */\n    tag_516:\n        /* \"#utility.yul\":27360:27366   */\n      dup4\n        /* \"#utility.yul\":27357:27358   */\n      dup2\n        /* \"#utility.yul\":27354:27367   */\n      lt\n        /* \"#utility.yul\":27346:27459   */\n      iszero\n      tag_518\n      jumpi\n        /* \"#utility.yul\":27445:27446   */\n      dup1\n        /* \"#utility.yul\":27440:27443   */\n      dup3\n        /* \"#utility.yul\":27436:27447   */\n      add\n        /* \"#utility.yul\":27430:27448   */\n      mload\n        /* \"#utility.yul\":27426:27427   */\n      dup2\n        /* \"#utility.yul\":27421:27424   */\n      dup5\n        /* \"#utility.yul\":27417:27428   */\n      add\n        /* \"#utility.yul\":27410:27449   */\n      mstore\n        /* \"#utility.yul\":27382:27384   */\n      0x20\n        /* \"#utility.yul\":27379:27380   */\n      dup2\n        /* \"#utility.yul\":27375:27385   */\n      add\n        /* \"#utility.yul\":27370:27385   */\n      swap1\n      pop\n        /* \"#utility.yul\":27346:27459   */\n      jump(tag_516)\n    tag_518:\n        /* \"#utility.yul\":27477:27483   */\n      dup4\n        /* \"#utility.yul\":27474:27475   */\n      dup2\n        /* \"#utility.yul\":27471:27484   */\n      gt\n        /* \"#utility.yul\":27468:27569   */\n      iszero\n      tag_519\n      jumpi\n        /* \"#utility.yul\":27557:27558   */\n      0x00\n        /* \"#utility.yul\":27548:27554   */\n      dup5\n        /* \"#utility.yul\":27543:27546   */\n      dup5\n        /* \"#utility.yul\":27539:27555   */\n      add\n        /* \"#utility.yul\":27532:27559   */\n      mstore\n        /* \"#utility.yul\":27468:27569   */\n    tag_519:\n        /* \"#utility.yul\":27317:27575   */\n      pop\n        /* \"#utility.yul\":27268:27575   */\n      pop\n      pop\n      pop\n      jump\t// out\n        /* \"#utility.yul\":27581:27901   */\n    tag_66:\n        /* \"#utility.yul\":27625:27631   */\n      0x00\n        /* \"#utility.yul\":27662:27663   */\n      0x02\n        /* \"#utility.yul\":27656:27660   */\n      dup3\n        /* \"#utility.yul\":27652:27664   */\n      div\n        /* \"#utility.yul\":27642:27664   */\n      swap1\n      pop\n        /* \"#utility.yul\":27709:27710   */\n      0x01\n        /* \"#utility.yul\":27703:27707   */\n      dup3\n        /* \"#utility.yul\":27699:27711   */\n      and\n        /* \"#utility.yul\":27730:27748   */\n      dup1\n        /* \"#utility.yul\":27720:27801   */\n      tag_521\n      jumpi\n        /* \"#utility.yul\":27786:27790   */\n      0x7f\n        /* \"#utility.yul\":27778:27784   */\n      dup3\n        /* \"#utility.yul\":27774:27791   */\n      and\n        /* \"#utility.yul\":27764:27791   */\n      swap2\n      pop\n        /* \"#utility.yul\":27720:27801   */\n    tag_521:\n        /* \"#utility.yul\":27848:27850   */\n      0x20\n        /* \"#utility.yul\":27840:27846   */\n      dup3\n        /* \"#utility.yul\":27837:27851   */\n      lt\n        /* \"#utility.yul\":27817:27835   */\n      dup2\n        /* \"#utility.yul\":27814:27852   */\n      eq\n        /* \"#utility.yul\":27811:27895   */\n      iszero\n      tag_522\n      jumpi\n        /* \"#utility.yul\":27867:27885   */\n      tag_523\n      tag_524\n      jump\t// in\n    tag_523:\n        /* \"#utility.yul\":27811:27895   */\n    tag_522:\n        /* \"#utility.yul\":27632:27901   */\n      pop\n        /* \"#utility.yul\":27581:27901   */\n      swap2\n      swap1\n      pop\n      jump\t// out\n        /* \"#utility.yul\":27907:28073   */\n    tag_388:\n        /* \"#utility.yul\":27976:27981   */\n      0x00\n        /* \"#utility.yul\":28001:28067   */\n      tag_526\n        /* \"#utility.yul\":28032:28066   */\n      tag_527\n        /* \"#utility.yul\":28055:28065   */\n      dup4\n        /* \"#utility.yul\":28032:28066   */\n      tag_528\n      jump\t// in\n    tag_527:\n        /* \"#utility.yul\":28001:28067   */\n      tag_492\n      jump\t// in\n    tag_526:\n        /* \"#utility.yul\":27992:28067   */\n      swap1\n      pop\n        /* \"#utility.yul\":27907:28073   */\n      swap2\n      swap1\n      pop\n      jump\t// out\n        /* \"#utility.yul\":28079:28245   */\n    tag_382:\n        /* \"#utility.yul\":28148:28153   */\n      0x00\n        /* \"#utility.yul\":28173:28239   */\n      tag_530\n        /* \"#utility.yul\":28204:28238   */\n      tag_531\n        /* \"#utility.yul\":28227:28237   */\n      dup4\n        /* \"#utility.yul\":28204:28238   */\n      tag_528\n      jump\t// in\n    tag_531:\n        /* \"#utility.yul\":28173:28239   */\n      tag_494\n      jump\t// in\n    tag_530:\n        /* \"#utility.yul\":28164:28239   */\n      swap1\n      pop\n        /* \"#utility.yul\":28079:28245   */\n      swap2\n      swap1\n      pop\n      jump\t// out\n        /* \"#utility.yul\":28251:28415   */\n    tag_393:\n        /* \"#utility.yul\":28319:28324   */\n      0x00\n        /* \"#utility.yul\":28344:28409   */\n      tag_533\n        /* \"#utility.yul\":28374:28408   */\n      tag_534\n        /* \"#utility.yul\":28397:28407   */\n      dup4\n        /* \"#utility.yul\":28374:28408   */\n      tag_528\n      jump\t// in\n    tag_534:\n        /* \"#utility.yul\":28344:28409   */\n      tag_496\n      jump\t// in\n    tag_533:\n        /* \"#utility.yul\":28335:28409   */\n      swap1\n      pop\n        /* \"#utility.yul\":28251:28415   */\n      swap2\n      swap1\n      pop\n      jump\t// out\n        /* \"#utility.yul\":28421:28702   */\n    tag_468:\n        /* \"#utility.yul\":28504:28531   */\n      tag_536\n        /* \"#utility.yul\":28526:28530   */\n      dup3\n        /* \"#utility.yul\":28504:28531   */\n      tag_328\n      jump\t// in\n    tag_536:\n        /* \"#utility.yul\":28496:28502   */\n      dup2\n        /* \"#utility.yul\":28492:28532   */\n      add\n        /* \"#utility.yul\":28634:28640   */\n      dup2\n        /* \"#utility.yul\":28622:28632   */\n      dup2\n        /* \"#utility.yul\":28619:28641   */\n      lt\n        /* \"#utility.yul\":28598:28616   */\n      0xffffffffffffffff\n        /* \"#utility.yul\":28586:28596   */\n      dup3\n        /* \"#utility.yul\":28583:28617   */\n      gt\n        /* \"#utility.yul\":28580:28642   */\n      or\n        /* \"#utility.yul\":28577:28665   */\n      iszero\n      tag_537\n      jumpi\n        /* \"#utility.yul\":28645:28663   */\n      tag_538\n      tag_473\n      jump\t// in\n    tag_538:\n        /* \"#utility.yul\":28577:28665   */\n    tag_537:\n        /* \"#utility.yul\":28685:28695   */\n      dup1\n        /* \"#utility.yul\":28681:28683   */\n      0x40\n        /* \"#utility.yul\":28674:28696   */\n      mstore\n        /* \"#utility.yul\":28464:28702   */\n      pop\n        /* \"#utility.yul\":28421:28702   */\n      pop\n      pop\n      jump\t// out\n        /* \"#utility.yul\":28708:28941   */\n    tag_74:\n        /* \"#utility.yul\":28747:28750   */\n      0x00\n        /* \"#utility.yul\":28770:28794   */\n      tag_540\n        /* \"#utility.yul\":28788:28793   */\n      dup3\n        /* \"#utility.yul\":28770:28794   */\n      tag_410\n      jump\t// in\n    tag_540:\n        /* \"#utility.yul\":28761:28794   */\n      swap2\n      pop\n        /* \"#utility.yul\":28816:28882   */\n      0xffffffffffffffffffffffffffffffffffffffffffffffffffffffffffffffff\n        /* \"#utility.yul\":28809:28814   */\n      dup3\n        /* \"#utility.yul\":28806:28883   */\n      eq\n        /* \"#utility.yul\":28803:28906   */\n      iszero\n      tag_541\n      jumpi\n        /* \"#utility.yul\":28886:28904   */\n      tag_542\n      tag_491\n      jump\t// in\n    tag_542:\n        /* \"#utility.yul\":28803:28906   */\n    tag_541:\n        /* \"#utility.yul\":28933:28934   */\n      0x01\n        /* \"#utility.yul\":28926:28931   */\n      dup3\n        /* \"#utility.yul\":28922:28935   */\n      add\n        /* \"#utility.yul\":28915:28935   */\n      swap1\n      pop\n        /* \"#utility.yul\":28708:28941   */\n      swap2\n      swap1\n      pop\n      jump\t// out\n        /* \"#utility.yul\":28947:29127   */\n    tag_491:\n        /* \"#utility.yul\":28995:29072   */\n      0x4e487b7100000000000000000000000000000000000000000000000000000000\n        /* \"#utility.yul\":28992:28993   */\n      0x00\n        /* \"#utility.yul\":28985:29073   */\n      mstore\n        /* \"#utility.yul\":29092:29096   */\n      0x11\n        /* \"#utility.yul\":29089:29090   */\n      0x04\n        /* \"#utility.yul\":29082:29097   */\n      mstore\n        /* \"#utility.yul\":29116:29120   */\n      0x24\n        /* \"#utility.yul\":29113:29114   */\n      0x00\n        /* \"#utility.yul\":29106:29121   */\n      revert\n        /* \"#utility.yul\":29133:29313   */\n    tag_524:\n        /* \"#utility.yul\":29181:29258   */\n      0x4e487b7100000000000000000000000000000000000000000000000000000000\n        /* \"#utility.yul\":29178:29179   */\n      0x00\n        /* \"#utility.yul\":29171:29259   */\n      mstore\n        /* \"#utility.yul\":29278:29282   */\n      0x22\n        /* \"#utility.yul\":29275:29276   */\n      0x04\n        /* \"#utility.yul\":29268:29283   */\n      mstore\n        /* \"#utility.yul\":29302:29306   */\n      0x24\n        /* \"#utility.yul\":29299:29300   */\n      0x00\n        /* \"#utility.yul\":29292:29307   */\n      revert\n        /* \"#utility.yul\":29319:29499   */\n    tag_473:\n        /* \"#utility.yul\":29367:29444   */\n      0x4e487b7100000000000000000000000000000000000000000000000000000000\n        /* \"#utility.yul\":29364:29365   */\n      0x00\n        /* \"#utility.yul\":29357:29445   */\n      mstore\n        /* \"#utility.yul\":29464:29468   */\n      0x41\n        /* \"#utility.yul\":29461:29462   */\n      0x04\n        /* \"#utility.yul\":29454:29469   */\n      mstore\n        /* \"#utility.yul\":29488:29492   */\n      0x24\n        /* \"#utility.yul\":29485:29486   */\n      0x00\n        /* \"#utility.yul\":29478:29493   */\n      revert\n        /* \"#utility.yul\":29505:29622   */\n    tag_231:\n        /* \"#utility.yul\":29614:29615   */\n      0x00\n        /* \"#utility.yul\":29611:29612   */\n      dup1\n        /* \"#utility.yul\":29604:29616   */\n      revert\n        /* \"#utility.yul\":29628:29745   */\n    tag_216:\n        /* \"#utility.yul\":29737:29738   */\n      0x00\n        /* \"#utility.yul\":29734:29735   */\n      dup1\n        /* \"#utility.yul\":29727:29739   */\n      revert\n        /* \"#utility.yul\":29751:29868   */\n    tag_265:\n        /* \"#utility.yul\":29860:29861   */\n      0x00\n        /* \"#utility.yul\":29857:29858   */\n      dup1\n        /* \"#utility.yul\":29850:29862   */\n      revert\n        /* \"#utility.yul\":29874:29991   */\n    tag_244:\n        /* \"#utility.yul\":29983:29984   */\n      0x00\n        /* \"#utility.yul\":29980:29981   */\n      dup1\n        /* \"#utility.yul\":29973:29985   */\n      revert\n        /* \"#utility.yul\":29997:30099   */\n    tag_328:\n        /* \"#utility.yul\":30038:30044   */\n      0x00\n        /* \"#utility.yul\":30089:30091   */\n      0x1f\n        /* \"#utility.yul\":30085:30092   */\n      not\n        /* \"#utility.yul\":30080:30082   */\n      0x1f\n        /* \"#utility.yul\":30073:30078   */\n      dup4\n        /* \"#utility.yul\":30069:30083   */\n      add\n        /* \"#utility.yul\":30065:30093   */\n      and\n        /* \"#utility.yul\":30055:30093   */\n      swap1\n      pop\n        /* \"#utility.yul\":29997:30099   */\n      swap2\n      swap1\n      pop\n      jump\t// out\n        /* \"#utility.yul\":30105:30207   */\n    tag_528:\n        /* \"#utility.yul\":30147:30155   */\n      0x00\n        /* \"#utility.yul\":30194:30199   */\n      dup2\n        /* \"#utility.yul\":30191:30192   */\n      0x00\n        /* \"#utility.yul\":30187:30200   */\n      shr\n        /* \"#utility.yul\":30166:30200   */\n      swap1\n      pop\n        /* \"#utility.yul\":30105:30207   */\n      swap2\n      swap1\n      pop\n      jump\t// out\n        /* \"#utility.yul\":30213:30434   */\n    tag_352:\n        /* \"#utility.yul\":30353:30387   */\n      0x546865726520617265206e6f2070726f647563747320746f206c697374207965\n        /* \"#utility.yul\":30349:30350   */\n      0x00\n        /* \"#utility.yul\":30341:30347   */\n      dup3\n        /* \"#utility.yul\":30337:30351   */\n      add\n        /* \"#utility.yul\":30330:30388   */\n      mstore\n        /* \"#utility.yul\":30422:30426   */\n      0x7421000000000000000000000000000000000000000000000000000000000000\n        /* \"#utility.yul\":30417:30419   */\n      0x20\n        /* \"#utility.yul\":30409:30415   */\n      dup3\n        /* \"#utility.yul\":30405:30420   */\n      add\n        /* \"#utility.yul\":30398:30427   */\n      mstore\n        /* \"#utility.yul\":30213:30434   */\n      pop\n      jump\t// out\n        /* \"#utility.yul\":30440:30619   */\n    tag_357:\n        /* \"#utility.yul\":30580:30611   */\n      0x5468657265206973206e6f2073756368206974656d207265636f726421000000\n        /* \"#utility.yul\":30576:30577   */\n      0x00\n        /* \"#utility.yul\":30568:30574   */\n      dup3\n        /* \"#utility.yul\":30564:30578   */\n      add\n        /* \"#utility.yul\":30557:30612   */\n      mstore\n        /* \"#utility.yul\":30440:30619   */\n      pop\n      jump\t// out\n        /* \"#utility.yul\":30625:30796   */\n    tag_362:\n        /* \"#utility.yul\":30765:30788   */\n      0x5468652073616c65206861732065787069726564210000000000000000000000\n        /* \"#utility.yul\":30761:30762   */\n      0x00\n        /* \"#utility.yul\":30753:30759   */\n      dup3\n        /* \"#utility.yul\":30749:30763   */\n      add\n        /* \"#utility.yul\":30742:30789   */\n      mstore\n        /* \"#utility.yul\":30625:30796   */\n      pop\n      jump\t// out\n        /* \"#utility.yul\":30802:30924   */\n    tag_222:\n        /* \"#utility.yul\":30875:30899   */\n      tag_556\n        /* \"#utility.yul\":30893:30898   */\n      dup2\n        /* \"#utility.yul\":30875:30899   */\n      tag_284\n      jump\t// in\n    tag_556:\n        /* \"#utility.yul\":30868:30873   */\n      dup2\n        /* \"#utility.yul\":30865:30900   */\n      eq\n        /* \"#utility.yul\":30855:30918   */\n      tag_557\n      jumpi\n        /* \"#utility.yul\":30914:30915   */\n      0x00\n        /* \"#utility.yul\":30911:30912   */\n      dup1\n        /* \"#utility.yul\":30904:30916   */\n      revert\n        /* \"#utility.yul\":30855:30918   */\n    tag_557:\n        /* \"#utility.yul\":30802:30924   */\n      pop\n      jump\t// out\n        /* \"#utility.yul\":30930:31046   */\n    tag_226:\n        /* \"#utility.yul\":31000:31021   */\n      tag_559\n        /* \"#utility.yul\":31015:31020   */\n      dup2\n        /* \"#utility.yul\":31000:31021   */\n      tag_501\n      jump\t// in\n    tag_559:\n        /* \"#utility.yul\":30993:30998   */\n      dup2\n        /* \"#utility.yul\":30990:31022   */\n      eq\n        /* \"#utility.yul\":30980:31040   */\n      tag_560\n      jumpi\n        /* \"#utility.yul\":31036:31037   */\n      0x00\n        /* \"#utility.yul\":31033:31034   */\n      dup1\n        /* \"#utility.yul\":31026:31038   */\n      revert\n        /* \"#utility.yul\":30980:31040   */\n    tag_560:\n        /* \"#utility.yul\":30930:31046   */\n      pop\n      jump\t// out\n        /* \"#utility.yul\":31052:31174   */\n    tag_236:\n        /* \"#utility.yul\":31125:31149   */\n      tag_562\n        /* \"#utility.yul\":31143:31148   */\n      dup2\n        /* \"#utility.yul\":31125:31149   */\n      tag_410\n      jump\t// in\n    tag_562:\n        /* \"#utility.yul\":31118:31123   */\n      dup2\n        /* \"#utility.yul\":31115:31150   */\n      eq\n        /* \"#utility.yul\":31105:31168   */\n      tag_563\n      jumpi\n        /* \"#utility.yul\":31164:31165   */\n      0x00\n        /* \"#utility.yul\":31161:31162   */\n      dup1\n        /* \"#utility.yul\":31154:31166   */\n      revert\n        /* \"#utility.yul\":31105:31168   */\n    tag_563:\n        /* \"#utility.yul\":31052:31174   */\n      pop\n      jump\t// out\n        /* \"#utility.yul\":31180:31300   */\n    tag_240:\n        /* \"#utility.yul\":31252:31275   */\n      tag_565\n        /* \"#utility.yul\":31269:31274   */\n      dup2\n        /* \"#utility.yul\":31252:31275   */\n      tag_416\n      jump\t// in\n    tag_565:\n        /* \"#utility.yul\":31245:31250   */\n      dup2\n        /* \"#utility.yul\":31242:31276   */\n      eq\n        /* \"#utility.yul\":31232:31294   */\n      tag_566\n      jumpi\n        /* \"#utility.yul\":31290:31291   */\n      0x00\n        /* \"#utility.yul\":31287:31288   */\n      dup1\n        /* \"#utility.yul\":31280:31292   */\n      revert\n        /* \"#utility.yul\":31232:31294   */\n    tag_566:\n        /* \"#utility.yul\":31180:31300   */\n      pop\n      jump\t// out\n\n    auxdata: 0xa2646970667358221220241001521aa6cc394737b7530f36caf16fb060b8a403e7199c2a71c9fa6941d764736f6c63430008070033\n}\n",
				"bytecode": {
					"linkReferences": {},
					"object": "60806040523480156200001157600080fd5b50604051620028b8380380620028b8833981810160405281019062000037919062000095565b806000806101000a81548173ffffffffffffffffffffffffffffffffffffffff021916908373ffffffffffffffffffffffffffffffffffffffff160217905550506200011a565b6000815190506200008f8162000100565b92915050565b600060208284031215620000ae57620000ad620000fb565b5b6000620000be848285016200007e565b91505092915050565b6000620000d482620000db565b9050919050565b600073ffffffffffffffffffffffffffffffffffffffff82169050919050565b600080fd5b6200010b81620000c7565b81146200011757600080fd5b50565b61278e806200012a6000396000f3fe608060405234801561001057600080fd5b50600436106100a95760003560e01c8063a87430ba11610071578063a87430ba14610155578063bfb231d214610188578063ca095a83146101bd578063cd2f0710146101d9578063e2870aa914610209578063fc0c546a14610239576100a9565b806301750e74146100ae5780632f63147f146100ca5780633d4d3600146100e65780634efd17971461011b5780635d9eb55c14610137575b600080fd5b6100c860048036038101906100c3919061191e565b610257565b005b6100e460048036038101906100df91906119fa565b61047a565b005b61010060048036038101906100fb919061191e565b6107cd565b60405161011296959493929190612129565b60405180910390f35b6101356004803603810190610130919061198b565b6108d1565b005b61013f610d03565b60405161014c9190611fda565b60405180910390f35b61016f600480360381019061016a91906118c4565b610f29565b60405161017f94939291906120d6565b60405180910390f35b6101a2600480360381019061019d919061191e565b611069565b6040516101b496959493929190612129565b60405180910390f35b6101d760048036038101906101d2919061191e565b61115d565b005b6101f360048036038101906101ee919061191e565b6113c8565b6040516102009190612099565b60405180910390f35b610223600480360381019061021e919061194b565b6115d1565b60405161023091906120bb565b60405180910390f35b6102416115f6565b60405161024e919061201e565b60405180910390f35b806000600360008381526020019081526020016000206040518060c001604052908160008201548152602001600182018054610292906124a2565b80601f01602080910402602001604051908101604052809291908181526020018280546102be906124a2565b801561030b5780601f106102e05761010080835404028352916020019161030b565b820191906000526020600020905b8154815290600101906020018083116102ee57829003601f168201915b50505050508152602001600282015481526020016003820160009054906101000a900473ffffffffffffffffffffffffffffffffffffffff1673ffffffffffffffffffffffffffffffffffffffff1673ffffffffffffffffffffffffffffffffffffffff168152602001600482015481526020016005820160009054906101000a900463ffffffff1663ffffffff1663ffffffff16815250509050806060015173ffffffffffffffffffffffffffffffffffffffff163373ffffffffffffffffffffffffffffffffffffffff1614156103e357600080fd5b60036000848152602001908152602001600020600201600081548092919061040a90612553565b91905055503373ffffffffffffffffffffffffffffffffffffffff167f1ed364e6f46a455fac23816d3700669ff134c7a5fbe0240f52d932f83410246284600360008781526020019081526020016000206002015460405161046d9291906121c1565b60405180910390a2505050565b816000600360008381526020019081526020016000206040518060c0016040529081600082015481526020016001820180546104b5906124a2565b80601f01602080910402602001604051908101604052809291908181526020018280546104e1906124a2565b801561052e5780601f106105035761010080835404028352916020019161052e565b820191906000526020600020905b81548152906001019060200180831161051157829003601f168201915b50505050508152602001600282015481526020016003820160009054906101000a900473ffffffffffffffffffffffffffffffffffffffff1673ffffffffffffffffffffffffffffffffffffffff1673ffffffffffffffffffffffffffffffffffffffff168152602001600482015481526020016005820160009054906101000a900463ffffffff1663ffffffff1663ffffffff16815250509050428160a0015163ffffffff161015610616576040517f08c379a000000000000000000000000000000000000000000000000000000000815260040161060d90612079565b60405180910390fd5b600060036000868152602001908152602001600020905083816004015414156107765760016004600087815260200190815260200160002060003373ffffffffffffffffffffffffffffffffffffffff1673ffffffffffffffffffffffffffffffffffffffff168152602001908152602001600020600082825461069a9190612342565b9250508190555060008054906101000a900473ffffffffffffffffffffffffffffffffffffffff1673ffffffffffffffffffffffffffffffffffffffff166323b872dd338360030160009054906101000a900473ffffffffffffffffffffffffffffffffffffffff16876040518463ffffffff1660e01b815260040161072293929190611fa3565b602060405180830381600087803b15801561073c57600080fd5b505af1158015610750573d6000803e3d6000fd5b505050506040513d601f19601f8201168201806040525081019061077491906118f1565b505b3373ffffffffffffffffffffffffffffffffffffffff167fdef0dd1961901757e759c1e3e1ced766d61d989aa5030414848dae6bac75cbdd86866040516107be9291906121c1565b60405180910390a25050505050565b600181815481106107dd57600080fd5b9060005260206000209060060201600091509050806000015490806001018054610806906124a2565b80601f0160208091040260200160405190810160405280929190818152602001828054610832906124a2565b801561087f5780601f106108545761010080835404028352916020019161087f565b820191906000526020600020905b81548152906001019060200180831161086257829003601f168201915b5050505050908060020154908060030160009054906101000a900473ffffffffffffffffffffffffffffffffffffffff16908060040154908060050160009054906101000a900463ffffffff16905086565b6040518060c001604052806108e6600561161a565b8152602001838152602001600081526020013373ffffffffffffffffffffffffffffffffffffffff1681526020018481526020018263ffffffff1681525060036000610932600561161a565b815260200190815260200160002060008201518160000155602082015181600101908051906020019061096692919061163e565b506040820151816002015560608201518160030160006101000a81548173ffffffffffffffffffffffffffffffffffffffff021916908373ffffffffffffffffffffffffffffffffffffffff1602179055506080820151816004015560a08201518160050160006101000a81548163ffffffff021916908363ffffffff160217905550905050600260003373ffffffffffffffffffffffffffffffffffffffff1673ffffffffffffffffffffffffffffffffffffffff16815260200190815260200160002060040160036000610a3c600561161a565b81526020019081526020016000209080600181540180825580915050600190039060005260206000209060060201600090919091909150600082015481600001556001820181600101908054610a91906124a2565b610a9c9291906116c4565b50600282015481600201556003820160009054906101000a900473ffffffffffffffffffffffffffffffffffffffff168160030160006101000a81548173ffffffffffffffffffffffffffffffffffffffff021916908373ffffffffffffffffffffffffffffffffffffffff160217905550600482015481600401556005820160009054906101000a900463ffffffff168160050160006101000a81548163ffffffff021916908363ffffffff1602179055505050600160036000610b61600561161a565b81526020019081526020016000209080600181540180825580915050600190039060005260206000209060060201600090919091909150600082015481600001556001820181600101908054610bb6906124a2565b610bc19291906116c4565b50600282015481600201556003820160009054906101000a900473ffffffffffffffffffffffffffffffffffffffff168160030160006101000a81548173ffffffffffffffffffffffffffffffffffffffff021916908373ffffffffffffffffffffffffffffffffffffffff160217905550600482015481600401556005820160009054906101000a900463ffffffff168160050160006101000a81548163ffffffff021916908363ffffffff1602179055505050610c806005611628565b3373ffffffffffffffffffffffffffffffffffffffff167f9a5b8b5cb7f9c536ea5db1a94142c9f716fb3a8698a9c70a5b8bfad3922cb06c610cc2600561161a565b85858560036000610cd3600561161a565b815260200190815260200160002060020154604051610cf69594939291906121ea565b60405180910390a2505050565b60606000610d11600561161a565b11610d51576040517f08c379a0000000000000000000000000000000000000000000000000000000008152600401610d4890612039565b60405180910390fd5b3373ffffffffffffffffffffffffffffffffffffffff167f440c078a5e11bff85c6b6d7c52f378c8220355bd3331ec889638c0eca883670c6001604051610d989190611ffc565b60405180910390a26001805480602002602001604051908101604052809291908181526020016000905b82821015610f2057838290600052602060002090600602016040518060c001604052908160008201548152602001600182018054610dff906124a2565b80601f0160208091040260200160405190810160405280929190818152602001828054610e2b906124a2565b8015610e785780601f10610e4d57610100808354040283529160200191610e78565b820191906000526020600020905b815481529060010190602001808311610e5b57829003601f168201915b50505050508152602001600282015481526020016003820160009054906101000a900473ffffffffffffffffffffffffffffffffffffffff1673ffffffffffffffffffffffffffffffffffffffff1673ffffffffffffffffffffffffffffffffffffffff168152602001600482015481526020016005820160009054906101000a900463ffffffff1663ffffffff1663ffffffff168152505081526020019060010190610dc2565b50505050905090565b6002602052806000526040600020600091509050806000015490806001018054610f52906124a2565b80601f0160208091040260200160405190810160405280929190818152602001828054610f7e906124a2565b8015610fcb5780601f10610fa057610100808354040283529160200191610fcb565b820191906000526020600020905b815481529060010190602001808311610fae57829003601f168201915b505050505090806002018054610fe0906124a2565b80601f016020809104026020016040519081016040528092919081815260200182805461100c906124a2565b80156110595780601f1061102e57610100808354040283529160200191611059565b820191906000526020600020905b81548152906001019060200180831161103c57829003601f168201915b5050505050908060050154905084565b6003602052806000526040600020600091509050806000015490806001018054611092906124a2565b80601f01602080910402602001604051908101604052809291908181526020018280546110be906124a2565b801561110b5780601f106110e05761010080835404028352916020019161110b565b820191906000526020600020905b8154815290600101906020018083116110ee57829003601f168201915b5050505050908060020154908060030160009054906101000a900473ffffffffffffffffffffffffffffffffffffffff16908060040154908060050160009054906101000a900463ffffffff16905086565b806000600360008381526020019081526020016000206040518060c001604052908160008201548152602001600182018054611198906124a2565b80601f01602080910402602001604051908101604052809291908181526020018280546111c4906124a2565b80156112115780601f106111e657610100808354040283529160200191611211565b820191906000526020600020905b8154815290600101906020018083116111f457829003601f168201915b50505050508152602001600282015481526020016003820160009054906101000a900473ffffffffffffffffffffffffffffffffffffffff1673ffffffffffffffffffffffffffffffffffffffff1673ffffffffffffffffffffffffffffffffffffffff168152602001600482015481526020016005820160009054906101000a900463ffffffff1663ffffffff1663ffffffff16815250509050428160a0015163ffffffff1610156112f9576040517f08c379a00000000000000000000000000000000000000000000000000000000081526004016112f090612079565b60405180910390fd5b600360008481526020019081526020016000206000808201600090556001820160006113259190611751565b60028201600090556003820160006101000a81549073ffffffffffffffffffffffffffffffffffffffff021916905560048201600090556005820160006101000a81549063ffffffff021916905550503373ffffffffffffffffffffffffffffffffffffffff167f45e4102cd0468b42f71c0179aa78051418c31c018e07a5091eb13b97fadbab5e846040516113bb91906120bb565b60405180910390a2505050565b6113d0611791565b816113db600561161a565b81111561141d576040517f08c379a000000000000000000000000000000000000000000000000000000000815260040161141490612059565b60405180910390fd5b3373ffffffffffffffffffffffffffffffffffffffff167fcb718ffb18411374498c1cd31cb4d4c8068af3c5b1546205f14c72bcd20f21ba8460036000878152602001908152602001600020604051611477929190612191565b60405180910390a2600360008481526020019081526020016000206040518060c0016040529081600082015481526020016001820180546114b7906124a2565b80601f01602080910402602001604051908101604052809291908181526020018280546114e3906124a2565b80156115305780601f1061150557610100808354040283529160200191611530565b820191906000526020600020905b81548152906001019060200180831161151357829003601f168201915b50505050508152602001600282015481526020016003820160009054906101000a900473ffffffffffffffffffffffffffffffffffffffff1673ffffffffffffffffffffffffffffffffffffffff1673ffffffffffffffffffffffffffffffffffffffff168152602001600482015481526020016005820160009054906101000a900463ffffffff1663ffffffff1663ffffffff1681525050915050919050565b6004602052816000526040600020602052806000526040600020600091509150505481565b60008054906101000a900473ffffffffffffffffffffffffffffffffffffffff1681565b600081600001549050919050565b6001816000016000828254019250508190555050565b82805461164a906124a2565b90600052602060002090601f01602090048101928261166c57600085556116b3565b82601f1061168557805160ff19168380011785556116b3565b828001600101855582156116b3579182015b828111156116b2578251825591602001919060010190611697565b5b5090506116c091906117e3565b5090565b8280546116d0906124a2565b90600052602060002090601f0160209004810192826116f25760008555611740565b82601f106117035780548555611740565b8280016001018555821561174057600052602060002091601f016020900482015b8281111561173f578254825591600101919060010190611724565b5b50905061174d91906117e3565b5090565b50805461175d906124a2565b6000825580601f1061176f575061178e565b601f01602090049060005260206000209081019061178d91906117e3565b5b50565b6040518060c00160405280600081526020016060815260200160008152602001600073ffffffffffffffffffffffffffffffffffffffff16815260200160008152602001600063ffffffff1681525090565b5b808211156117fc5760008160009055506001016117e4565b5090565b600061181361180e84612269565b612244565b90508281526020810184848401111561182f5761182e61262e565b5b61183a848285612460565b509392505050565b600081359050611851816126fc565b92915050565b60008151905061186681612713565b92915050565b600082601f83011261188157611880612629565b5b8135611891848260208601611800565b91505092915050565b6000813590506118a98161272a565b92915050565b6000813590506118be81612741565b92915050565b6000602082840312156118da576118d9612638565b5b60006118e884828501611842565b91505092915050565b60006020828403121561190757611906612638565b5b600061191584828501611857565b91505092915050565b60006020828403121561193457611933612638565b5b60006119428482850161189a565b91505092915050565b6000806040838503121561196257611961612638565b5b60006119708582860161189a565b925050602061198185828601611842565b9150509250929050565b6000806000606084860312156119a4576119a3612638565b5b60006119b28682870161189a565b935050602084013567ffffffffffffffff8111156119d3576119d2612633565b5b6119df8682870161186c565b92505060406119f0868287016118af565b9150509250925092565b60008060408385031215611a1157611a10612638565b5b6000611a1f8582860161189a565b9250506020611a308582860161189a565b9150509250929050565b6000611a468383611cd3565b905092915050565b6000611a5a8383611de5565b905092915050565b611a6b816123d2565b82525050565b611a7a816123d2565b82525050565b6000611a8b826122d4565b611a95818561230f565b935083602082028501611aa78561229a565b8060005b85811015611ae35784840389528151611ac48582611a3a565b9450611acf836122f5565b925060208a01995050600181019050611aab565b50829750879550505050505092915050565b6000611b00826122df565b611b0a818561230f565b935083602082028501611b1c856122aa565b8060005b85811015611b5757848403895281611b388582611a4e565b9450611b4383612302565b925060208a01995050600181019050611b20565b50829750879550505050505092915050565b611b728161242a565b82525050565b6000611b83826122ea565b611b8d8185612320565b9350611b9d81856020860161246f565b611ba68161263d565b840191505092915050565b6000611bbc826122ea565b611bc68185612331565b9350611bd681856020860161246f565b611bdf8161263d565b840191505092915050565b60008154611bf7816124a2565b611c018186612320565b94506001821660008114611c1c5760018114611c2e57611c61565b60ff1983168652602086019350611c61565b611c37856122bf565b60005b83811015611c5957815481890152600182019150602081019050611c3a565b808801955050505b50505092915050565b6000611c77602283612331565b9150611c828261265b565b604082019050919050565b6000611c9a601d83612331565b9150611ca5826126aa565b602082019050919050565b6000611cbd601583612331565b9150611cc8826126d3565b602082019050919050565b600060c083016000830151611ceb6000860182611f67565b5060208301518482036020860152611d038282611b78565b9150506040830151611d186040860182611f67565b506060830151611d2b6060860182611a62565b506080830151611d3e6080860182611f67565b5060a0830151611d5160a0860182611f85565b508091505092915050565b600060c083016000830151611d746000860182611f67565b5060208301518482036020860152611d8c8282611b78565b9150506040830151611da16040860182611f67565b506060830151611db46060860182611a62565b506080830151611dc76080860182611f67565b5060a0830151611dda60a0860182611f85565b508091505092915050565b600060c083016000808401549050611dfc816124ee565b611e096000870182611f67565b50600184018583036020870152611e208382611bea565b92505060028401549050611e33816124ee565b611e406040870182611f67565b5060038401549050611e51816124d4565b611e5e6060870182611a62565b5060048401549050611e6f816124ee565b611e7c6080870182611f67565b5060058401549050611e8d81612508565b611e9a60a0870182611f85565b50819250505092915050565b600060c083016000808401549050611ebd816124ee565b611eca6000870182611f67565b50600184018583036020870152611ee18382611bea565b92505060028401549050611ef4816124ee565b611f016040870182611f67565b5060038401549050611f12816124d4565b611f1f6060870182611a62565b5060048401549050611f30816124ee565b611f3d6080870182611f67565b5060058401549050611f4e81612508565b611f5b60a0870182611f85565b50819250505092915050565b611f7081612410565b82525050565b611f7f81612410565b82525050565b611f8e8161241a565b82525050565b611f9d8161241a565b82525050565b6000606082019050611fb86000830186611a71565b611fc56020830185611a71565b611fd26040830184611f76565b949350505050565b60006020820190508181036000830152611ff48184611a80565b905092915050565b600060208201905081810360008301526120168184611af5565b905092915050565b60006020820190506120336000830184611b69565b92915050565b6000602082019050818103600083015261205281611c6a565b9050919050565b6000602082019050818103600083015261207281611c8d565b9050919050565b6000602082019050818103600083015261209281611cb0565b9050919050565b600060208201905081810360008301526120b38184611d5c565b905092915050565b60006020820190506120d06000830184611f76565b92915050565b60006080820190506120eb6000830187611f76565b81810360208301526120fd8186611bb1565b905081810360408301526121118185611bb1565b90506121206060830184611f76565b95945050505050565b600060c08201905061213e6000830189611f76565b81810360208301526121508188611bb1565b905061215f6040830187611f76565b61216c6060830186611a71565b6121796080830185611f76565b61218660a0830184611f94565b979650505050505050565b60006040820190506121a66000830185611f76565b81810360208301526121b88184611ea6565b90509392505050565b60006040820190506121d66000830185611f76565b6121e36020830184611f76565b9392505050565b600060a0820190506121ff6000830188611f76565b61220c6020830187611f76565b818103604083015261221e8186611bb1565b905061222d6060830185611f94565b61223a6080830184611f76565b9695505050505050565b600061224e61225f565b905061225a8282612522565b919050565b6000604051905090565b600067ffffffffffffffff821115612284576122836125fa565b5b61228d8261263d565b9050602081019050919050565b6000819050602082019050919050565b60008190508160005260206000209050919050565b60008190508160005260206000209050919050565b600081519050919050565b600081549050919050565b600081519050919050565b6000602082019050919050565b6000600682019050919050565b600082825260208201905092915050565b600082825260208201905092915050565b600082825260208201905092915050565b600061234d82612410565b915061235883612410565b9250827fffffffffffffffffffffffffffffffffffffffffffffffffffffffffffffffff0382111561238d5761238c61259c565b5b828201905092915050565b600073ffffffffffffffffffffffffffffffffffffffff82169050919050565b6000819050919050565b600063ffffffff82169050919050565b60006123dd826123f0565b9050919050565b60008115159050919050565b600073ffffffffffffffffffffffffffffffffffffffff82169050919050565b6000819050919050565b600063ffffffff82169050919050565b60006124358261243c565b9050919050565b60006124478261244e565b9050919050565b6000612459826123f0565b9050919050565b82818337600083830152505050565b60005b8381101561248d578082015181840152602081019050612472565b8381111561249c576000848401525b50505050565b600060028204905060018216806124ba57607f821691505b602082108114156124ce576124cd6125cb565b5b50919050565b60006124e76124e28361264e565b612398565b9050919050565b60006125016124fc8361264e565b6123b8565b9050919050565b600061251b6125168361264e565b6123c2565b9050919050565b61252b8261263d565b810181811067ffffffffffffffff8211171561254a576125496125fa565b5b80604052505050565b600061255e82612410565b91507fffffffffffffffffffffffffffffffffffffffffffffffffffffffffffffffff8214156125915761259061259c565b5b600182019050919050565b7f4e487b7100000000000000000000000000000000000000000000000000000000600052601160045260246000fd5b7f4e487b7100000000000000000000000000000000000000000000000000000000600052602260045260246000fd5b7f4e487b7100000000000000000000000000000000000000000000000000000000600052604160045260246000fd5b600080fd5b600080fd5b600080fd5b600080fd5b6000601f19601f8301169050919050565b60008160001c9050919050565b7f546865726520617265206e6f2070726f647563747320746f206c69737420796560008201527f7421000000000000000000000000000000000000000000000000000000000000602082015250565b7f5468657265206973206e6f2073756368206974656d207265636f726421000000600082015250565b7f5468652073616c65206861732065787069726564210000000000000000000000600082015250565b612705816123d2565b811461271057600080fd5b50565b61271c816123e4565b811461272757600080fd5b50565b61273381612410565b811461273e57600080fd5b50565b61274a8161241a565b811461275557600080fd5b5056fea2646970667358221220241001521aa6cc394737b7530f36caf16fb060b8a403e7199c2a71c9fa6941d764736f6c63430008070033",
					"opcodes": "PUSH1 0x80 PUSH1 0x40 MSTORE CALLVALUE DUP1 ISZERO PUSH3 0x11 JUMPI PUSH1 0x0 DUP1 REVERT JUMPDEST POP PUSH1 0x40 MLOAD PUSH3 0x28B8 CODESIZE SUB DUP1 PUSH3 0x28B8 DUP4 CODECOPY DUP2 DUP2 ADD PUSH1 0x40 MSTORE DUP2 ADD SWAP1 PUSH3 0x37 SWAP2 SWAP1 PUSH3 0x95 JUMP JUMPDEST DUP1 PUSH1 0x0 DUP1 PUSH2 0x100 EXP DUP2 SLOAD DUP2 PUSH20 0xFFFFFFFFFFFFFFFFFFFFFFFFFFFFFFFFFFFFFFFF MUL NOT AND SWAP1 DUP4 PUSH20 0xFFFFFFFFFFFFFFFFFFFFFFFFFFFFFFFFFFFFFFFF AND MUL OR SWAP1 SSTORE POP POP PUSH3 0x11A JUMP JUMPDEST PUSH1 0x0 DUP2 MLOAD SWAP1 POP PUSH3 0x8F DUP2 PUSH3 0x100 JUMP JUMPDEST SWAP3 SWAP2 POP POP JUMP JUMPDEST PUSH1 0x0 PUSH1 0x20 DUP3 DUP5 SUB SLT ISZERO PUSH3 0xAE JUMPI PUSH3 0xAD PUSH3 0xFB JUMP JUMPDEST JUMPDEST PUSH1 0x0 PUSH3 0xBE DUP5 DUP3 DUP6 ADD PUSH3 0x7E JUMP JUMPDEST SWAP2 POP POP SWAP3 SWAP2 POP POP JUMP JUMPDEST PUSH1 0x0 PUSH3 0xD4 DUP3 PUSH3 0xDB JUMP JUMPDEST SWAP1 POP SWAP2 SWAP1 POP JUMP JUMPDEST PUSH1 0x0 PUSH20 0xFFFFFFFFFFFFFFFFFFFFFFFFFFFFFFFFFFFFFFFF DUP3 AND SWAP1 POP SWAP2 SWAP1 POP JUMP JUMPDEST PUSH1 0x0 DUP1 REVERT JUMPDEST PUSH3 0x10B DUP2 PUSH3 0xC7 JUMP JUMPDEST DUP2 EQ PUSH3 0x117 JUMPI PUSH1 0x0 DUP1 REVERT JUMPDEST POP JUMP JUMPDEST PUSH2 0x278E DUP1 PUSH3 0x12A PUSH1 0x0 CODECOPY PUSH1 0x0 RETURN INVALID PUSH1 0x80 PUSH1 0x40 MSTORE CALLVALUE DUP1 ISZERO PUSH2 0x10 JUMPI PUSH1 0x0 DUP1 REVERT JUMPDEST POP PUSH1 0x4 CALLDATASIZE LT PUSH2 0xA9 JUMPI PUSH1 0x0 CALLDATALOAD PUSH1 0xE0 SHR DUP1 PUSH4 0xA87430BA GT PUSH2 0x71 JUMPI DUP1 PUSH4 0xA87430BA EQ PUSH2 0x155 JUMPI DUP1 PUSH4 0xBFB231D2 EQ PUSH2 0x188 JUMPI DUP1 PUSH4 0xCA095A83 EQ PUSH2 0x1BD JUMPI DUP1 PUSH4 0xCD2F0710 EQ PUSH2 0x1D9 JUMPI DUP1 PUSH4 0xE2870AA9 EQ PUSH2 0x209 JUMPI DUP1 PUSH4 0xFC0C546A EQ PUSH2 0x239 JUMPI PUSH2 0xA9 JUMP JUMPDEST DUP1 PUSH4 0x1750E74 EQ PUSH2 0xAE JUMPI DUP1 PUSH4 0x2F63147F EQ PUSH2 0xCA JUMPI DUP1 PUSH4 0x3D4D3600 EQ PUSH2 0xE6 JUMPI DUP1 PUSH4 0x4EFD1797 EQ PUSH2 0x11B JUMPI DUP1 PUSH4 0x5D9EB55C EQ PUSH2 0x137 JUMPI JUMPDEST PUSH1 0x0 DUP1 REVERT JUMPDEST PUSH2 0xC8 PUSH1 0x4 DUP1 CALLDATASIZE SUB DUP2 ADD SWAP1 PUSH2 0xC3 SWAP2 SWAP1 PUSH2 0x191E JUMP JUMPDEST PUSH2 0x257 JUMP JUMPDEST STOP JUMPDEST PUSH2 0xE4 PUSH1 0x4 DUP1 CALLDATASIZE SUB DUP2 ADD SWAP1 PUSH2 0xDF SWAP2 SWAP1 PUSH2 0x19FA JUMP JUMPDEST PUSH2 0x47A JUMP JUMPDEST STOP JUMPDEST PUSH2 0x100 PUSH1 0x4 DUP1 CALLDATASIZE SUB DUP2 ADD SWAP1 PUSH2 0xFB SWAP2 SWAP1 PUSH2 0x191E JUMP JUMPDEST PUSH2 0x7CD JUMP JUMPDEST PUSH1 0x40 MLOAD PUSH2 0x112 SWAP7 SWAP6 SWAP5 SWAP4 SWAP3 SWAP2 SWAP1 PUSH2 0x2129 JUMP JUMPDEST PUSH1 0x40 MLOAD DUP1 SWAP2 SUB SWAP1 RETURN JUMPDEST PUSH2 0x135 PUSH1 0x4 DUP1 CALLDATASIZE SUB DUP2 ADD SWAP1 PUSH2 0x130 SWAP2 SWAP1 PUSH2 0x198B JUMP JUMPDEST PUSH2 0x8D1 JUMP JUMPDEST STOP JUMPDEST PUSH2 0x13F PUSH2 0xD03 JUMP JUMPDEST PUSH1 0x40 MLOAD PUSH2 0x14C SWAP2 SWAP1 PUSH2 0x1FDA JUMP JUMPDEST PUSH1 0x40 MLOAD DUP1 SWAP2 SUB SWAP1 RETURN JUMPDEST PUSH2 0x16F PUSH1 0x4 DUP1 CALLDATASIZE SUB DUP2 ADD SWAP1 PUSH2 0x16A SWAP2 SWAP1 PUSH2 0x18C4 JUMP JUMPDEST PUSH2 0xF29 JUMP JUMPDEST PUSH1 0x40 MLOAD PUSH2 0x17F SWAP5 SWAP4 SWAP3 SWAP2 SWAP1 PUSH2 0x20D6 JUMP JUMPDEST PUSH1 0x40 MLOAD DUP1 SWAP2 SUB SWAP1 RETURN JUMPDEST PUSH2 0x1A2 PUSH1 0x4 DUP1 CALLDATASIZE SUB DUP2 ADD SWAP1 PUSH2 0x19D SWAP2 SWAP1 PUSH2 0x191E JUMP JUMPDEST PUSH2 0x1069 JUMP JUMPDEST PUSH1 0x40 MLOAD PUSH2 0x1B4 SWAP7 SWAP6 SWAP5 SWAP4 SWAP3 SWAP2 SWAP1 PUSH2 0x2129 JUMP JUMPDEST PUSH1 0x40 MLOAD DUP1 SWAP2 SUB SWAP1 RETURN JUMPDEST PUSH2 0x1D7 PUSH1 0x4 DUP1 CALLDATASIZE SUB DUP2 ADD SWAP1 PUSH2 0x1D2 SWAP2 SWAP1 PUSH2 0x191E JUMP JUMPDEST PUSH2 0x115D JUMP JUMPDEST STOP JUMPDEST PUSH2 0x1F3 PUSH1 0x4 DUP1 CALLDATASIZE SUB DUP2 ADD SWAP1 PUSH2 0x1EE SWAP2 SWAP1 PUSH2 0x191E JUMP JUMPDEST PUSH2 0x13C8 JUMP JUMPDEST PUSH1 0x40 MLOAD PUSH2 0x200 SWAP2 SWAP1 PUSH2 0x2099 JUMP JUMPDEST PUSH1 0x40 MLOAD DUP1 SWAP2 SUB SWAP1 RETURN JUMPDEST PUSH2 0x223 PUSH1 0x4 DUP1 CALLDATASIZE SUB DUP2 ADD SWAP1 PUSH2 0x21E SWAP2 SWAP1 PUSH2 0x194B JUMP JUMPDEST PUSH2 0x15D1 JUMP JUMPDEST PUSH1 0x40 MLOAD PUSH2 0x230 SWAP2 SWAP1 PUSH2 0x20BB JUMP JUMPDEST PUSH1 0x40 MLOAD DUP1 SWAP2 SUB SWAP1 RETURN JUMPDEST PUSH2 0x241 PUSH2 0x15F6 JUMP JUMPDEST PUSH1 0x40 MLOAD PUSH2 0x24E SWAP2 SWAP1 PUSH2 0x201E JUMP JUMPDEST PUSH1 0x40 MLOAD DUP1 SWAP2 SUB SWAP1 RETURN JUMPDEST DUP1 PUSH1 0x0 PUSH1 0x3 PUSH1 0x0 DUP4 DUP2 MSTORE PUSH1 0x20 ADD SWAP1 DUP2 MSTORE PUSH1 0x20 ADD PUSH1 0x0 KECCAK256 PUSH1 0x40 MLOAD DUP1 PUSH1 0xC0 ADD PUSH1 0x40 MSTORE SWAP1 DUP2 PUSH1 0x0 DUP3 ADD SLOAD DUP2 MSTORE PUSH1 0x20 ADD PUSH1 0x1 DUP3 ADD DUP1 SLOAD PUSH2 0x292 SWAP1 PUSH2 0x24A2 JUMP JUMPDEST DUP1 PUSH1 0x1F ADD PUSH1 0x20 DUP1 SWAP2 DIV MUL PUSH1 0x20 ADD PUSH1 0x40 MLOAD SWAP1 DUP2 ADD PUSH1 0x40 MSTORE DUP1 SWAP3 SWAP2 SWAP1 DUP2 DUP2 MSTORE PUSH1 0x20 ADD DUP3 DUP1 SLOAD PUSH2 0x2BE SWAP1 PUSH2 0x24A2 JUMP JUMPDEST DUP1 ISZERO PUSH2 0x30B JUMPI DUP1 PUSH1 0x1F LT PUSH2 0x2E0 JUMPI PUSH2 0x100 DUP1 DUP4 SLOAD DIV MUL DUP4 MSTORE SWAP2 PUSH1 0x20 ADD SWAP2 PUSH2 0x30B JUMP JUMPDEST DUP3 ADD SWAP2 SWAP1 PUSH1 0x0 MSTORE PUSH1 0x20 PUSH1 0x0 KECCAK256 SWAP1 JUMPDEST DUP2 SLOAD DUP2 MSTORE SWAP1 PUSH1 0x1 ADD SWAP1 PUSH1 0x20 ADD DUP1 DUP4 GT PUSH2 0x2EE JUMPI DUP3 SWAP1 SUB PUSH1 0x1F AND DUP3 ADD SWAP2 JUMPDEST POP POP POP POP POP DUP2 MSTORE PUSH1 0x20 ADD PUSH1 0x2 DUP3 ADD SLOAD DUP2 MSTORE PUSH1 0x20 ADD PUSH1 0x3 DUP3 ADD PUSH1 0x0 SWAP1 SLOAD SWAP1 PUSH2 0x100 EXP SWAP1 DIV PUSH20 0xFFFFFFFFFFFFFFFFFFFFFFFFFFFFFFFFFFFFFFFF AND PUSH20 0xFFFFFFFFFFFFFFFFFFFFFFFFFFFFFFFFFFFFFFFF AND PUSH20 0xFFFFFFFFFFFFFFFFFFFFFFFFFFFFFFFFFFFFFFFF AND DUP2 MSTORE PUSH1 0x20 ADD PUSH1 0x4 DUP3 ADD SLOAD DUP2 MSTORE PUSH1 0x20 ADD PUSH1 0x5 DUP3 ADD PUSH1 0x0 SWAP1 SLOAD SWAP1 PUSH2 0x100 EXP SWAP1 DIV PUSH4 0xFFFFFFFF AND PUSH4 0xFFFFFFFF AND PUSH4 0xFFFFFFFF AND DUP2 MSTORE POP POP SWAP1 POP DUP1 PUSH1 0x60 ADD MLOAD PUSH20 0xFFFFFFFFFFFFFFFFFFFFFFFFFFFFFFFFFFFFFFFF AND CALLER PUSH20 0xFFFFFFFFFFFFFFFFFFFFFFFFFFFFFFFFFFFFFFFF AND EQ ISZERO PUSH2 0x3E3 JUMPI PUSH1 0x0 DUP1 REVERT JUMPDEST PUSH1 0x3 PUSH1 0x0 DUP5 DUP2 MSTORE PUSH1 0x20 ADD SWAP1 DUP2 MSTORE PUSH1 0x20 ADD PUSH1 0x0 KECCAK256 PUSH1 0x2 ADD PUSH1 0x0 DUP2 SLOAD DUP1 SWAP3 SWAP2 SWAP1 PUSH2 0x40A SWAP1 PUSH2 0x2553 JUMP JUMPDEST SWAP2 SWAP1 POP SSTORE POP CALLER PUSH20 0xFFFFFFFFFFFFFFFFFFFFFFFFFFFFFFFFFFFFFFFF AND PUSH32 0x1ED364E6F46A455FAC23816D3700669FF134C7A5FBE0240F52D932F834102462 DUP5 PUSH1 0x3 PUSH1 0x0 DUP8 DUP2 MSTORE PUSH1 0x20 ADD SWAP1 DUP2 MSTORE PUSH1 0x20 ADD PUSH1 0x0 KECCAK256 PUSH1 0x2 ADD SLOAD PUSH1 0x40 MLOAD PUSH2 0x46D SWAP3 SWAP2 SWAP1 PUSH2 0x21C1 JUMP JUMPDEST PUSH1 0x40 MLOAD DUP1 SWAP2 SUB SWAP1 LOG2 POP POP POP JUMP JUMPDEST DUP2 PUSH1 0x0 PUSH1 0x3 PUSH1 0x0 DUP4 DUP2 MSTORE PUSH1 0x20 ADD SWAP1 DUP2 MSTORE PUSH1 0x20 ADD PUSH1 0x0 KECCAK256 PUSH1 0x40 MLOAD DUP1 PUSH1 0xC0 ADD PUSH1 0x40 MSTORE SWAP1 DUP2 PUSH1 0x0 DUP3 ADD SLOAD DUP2 MSTORE PUSH1 0x20 ADD PUSH1 0x1 DUP3 ADD DUP1 SLOAD PUSH2 0x4B5 SWAP1 PUSH2 0x24A2 JUMP JUMPDEST DUP1 PUSH1 0x1F ADD PUSH1 0x20 DUP1 SWAP2 DIV MUL PUSH1 0x20 ADD PUSH1 0x40 MLOAD SWAP1 DUP2 ADD PUSH1 0x40 MSTORE DUP1 SWAP3 SWAP2 SWAP1 DUP2 DUP2 MSTORE PUSH1 0x20 ADD DUP3 DUP1 SLOAD PUSH2 0x4E1 SWAP1 PUSH2 0x24A2 JUMP JUMPDEST DUP1 ISZERO PUSH2 0x52E JUMPI DUP1 PUSH1 0x1F LT PUSH2 0x503 JUMPI PUSH2 0x100 DUP1 DUP4 SLOAD DIV MUL DUP4 MSTORE SWAP2 PUSH1 0x20 ADD SWAP2 PUSH2 0x52E JUMP JUMPDEST DUP3 ADD SWAP2 SWAP1 PUSH1 0x0 MSTORE PUSH1 0x20 PUSH1 0x0 KECCAK256 SWAP1 JUMPDEST DUP2 SLOAD DUP2 MSTORE SWAP1 PUSH1 0x1 ADD SWAP1 PUSH1 0x20 ADD DUP1 DUP4 GT PUSH2 0x511 JUMPI DUP3 SWAP1 SUB PUSH1 0x1F AND DUP3 ADD SWAP2 JUMPDEST POP POP POP POP POP DUP2 MSTORE PUSH1 0x20 ADD PUSH1 0x2 DUP3 ADD SLOAD DUP2 MSTORE PUSH1 0x20 ADD PUSH1 0x3 DUP3 ADD PUSH1 0x0 SWAP1 SLOAD SWAP1 PUSH2 0x100 EXP SWAP1 DIV PUSH20 0xFFFFFFFFFFFFFFFFFFFFFFFFFFFFFFFFFFFFFFFF AND PUSH20 0xFFFFFFFFFFFFFFFFFFFFFFFFFFFFFFFFFFFFFFFF AND PUSH20 0xFFFFFFFFFFFFFFFFFFFFFFFFFFFFFFFFFFFFFFFF AND DUP2 MSTORE PUSH1 0x20 ADD PUSH1 0x4 DUP3 ADD SLOAD DUP2 MSTORE PUSH1 0x20 ADD PUSH1 0x5 DUP3 ADD PUSH1 0x0 SWAP1 SLOAD SWAP1 PUSH2 0x100 EXP SWAP1 DIV PUSH4 0xFFFFFFFF AND PUSH4 0xFFFFFFFF AND PUSH4 0xFFFFFFFF AND DUP2 MSTORE POP POP SWAP1 POP TIMESTAMP DUP2 PUSH1 0xA0 ADD MLOAD PUSH4 0xFFFFFFFF AND LT ISZERO PUSH2 0x616 JUMPI PUSH1 0x40 MLOAD PUSH32 0x8C379A000000000000000000000000000000000000000000000000000000000 DUP2 MSTORE PUSH1 0x4 ADD PUSH2 0x60D SWAP1 PUSH2 0x2079 JUMP JUMPDEST PUSH1 0x40 MLOAD DUP1 SWAP2 SUB SWAP1 REVERT JUMPDEST PUSH1 0x0 PUSH1 0x3 PUSH1 0x0 DUP7 DUP2 MSTORE PUSH1 0x20 ADD SWAP1 DUP2 MSTORE PUSH1 0x20 ADD PUSH1 0x0 KECCAK256 SWAP1 POP DUP4 DUP2 PUSH1 0x4 ADD SLOAD EQ ISZERO PUSH2 0x776 JUMPI PUSH1 0x1 PUSH1 0x4 PUSH1 0x0 DUP8 DUP2 MSTORE PUSH1 0x20 ADD SWAP1 DUP2 MSTORE PUSH1 0x20 ADD PUSH1 0x0 KECCAK256 PUSH1 0x0 CALLER PUSH20 0xFFFFFFFFFFFFFFFFFFFFFFFFFFFFFFFFFFFFFFFF AND PUSH20 0xFFFFFFFFFFFFFFFFFFFFFFFFFFFFFFFFFFFFFFFF AND DUP2 MSTORE PUSH1 0x20 ADD SWAP1 DUP2 MSTORE PUSH1 0x20 ADD PUSH1 0x0 KECCAK256 PUSH1 0x0 DUP3 DUP3 SLOAD PUSH2 0x69A SWAP2 SWAP1 PUSH2 0x2342 JUMP JUMPDEST SWAP3 POP POP DUP2 SWAP1 SSTORE POP PUSH1 0x0 DUP1 SLOAD SWAP1 PUSH2 0x100 EXP SWAP1 DIV PUSH20 0xFFFFFFFFFFFFFFFFFFFFFFFFFFFFFFFFFFFFFFFF AND PUSH20 0xFFFFFFFFFFFFFFFFFFFFFFFFFFFFFFFFFFFFFFFF AND PUSH4 0x23B872DD CALLER DUP4 PUSH1 0x3 ADD PUSH1 0x0 SWAP1 SLOAD SWAP1 PUSH2 0x100 EXP SWAP1 DIV PUSH20 0xFFFFFFFFFFFFFFFFFFFFFFFFFFFFFFFFFFFFFFFF AND DUP8 PUSH1 0x40 MLOAD DUP5 PUSH4 0xFFFFFFFF AND PUSH1 0xE0 SHL DUP2 MSTORE PUSH1 0x4 ADD PUSH2 0x722 SWAP4 SWAP3 SWAP2 SWAP1 PUSH2 0x1FA3 JUMP JUMPDEST PUSH1 0x20 PUSH1 0x40 MLOAD DUP1 DUP4 SUB DUP2 PUSH1 0x0 DUP8 DUP1 EXTCODESIZE ISZERO DUP1 ISZERO PUSH2 0x73C JUMPI PUSH1 0x0 DUP1 REVERT JUMPDEST POP GAS CALL ISZERO DUP1 ISZERO PUSH2 0x750 JUMPI RETURNDATASIZE PUSH1 0x0 DUP1 RETURNDATACOPY RETURNDATASIZE PUSH1 0x0 REVERT JUMPDEST POP POP POP POP PUSH1 0x40 MLOAD RETURNDATASIZE PUSH1 0x1F NOT PUSH1 0x1F DUP3 ADD AND DUP3 ADD DUP1 PUSH1 0x40 MSTORE POP DUP2 ADD SWAP1 PUSH2 0x774 SWAP2 SWAP1 PUSH2 0x18F1 JUMP JUMPDEST POP JUMPDEST CALLER PUSH20 0xFFFFFFFFFFFFFFFFFFFFFFFFFFFFFFFFFFFFFFFF AND PUSH32 0xDEF0DD1961901757E759C1E3E1CED766D61D989AA5030414848DAE6BAC75CBDD DUP7 DUP7 PUSH1 0x40 MLOAD PUSH2 0x7BE SWAP3 SWAP2 SWAP1 PUSH2 0x21C1 JUMP JUMPDEST PUSH1 0x40 MLOAD DUP1 SWAP2 SUB SWAP1 LOG2 POP POP POP POP POP JUMP JUMPDEST PUSH1 0x1 DUP2 DUP2 SLOAD DUP2 LT PUSH2 0x7DD JUMPI PUSH1 0x0 DUP1 REVERT JUMPDEST SWAP1 PUSH1 0x0 MSTORE PUSH1 0x20 PUSH1 0x0 KECCAK256 SWAP1 PUSH1 0x6 MUL ADD PUSH1 0x0 SWAP2 POP SWAP1 POP DUP1 PUSH1 0x0 ADD SLOAD SWAP1 DUP1 PUSH1 0x1 ADD DUP1 SLOAD PUSH2 0x806 SWAP1 PUSH2 0x24A2 JUMP JUMPDEST DUP1 PUSH1 0x1F ADD PUSH1 0x20 DUP1 SWAP2 DIV MUL PUSH1 0x20 ADD PUSH1 0x40 MLOAD SWAP1 DUP2 ADD PUSH1 0x40 MSTORE DUP1 SWAP3 SWAP2 SWAP1 DUP2 DUP2 MSTORE PUSH1 0x20 ADD DUP3 DUP1 SLOAD PUSH2 0x832 SWAP1 PUSH2 0x24A2 JUMP JUMPDEST DUP1 ISZERO PUSH2 0x87F JUMPI DUP1 PUSH1 0x1F LT PUSH2 0x854 JUMPI PUSH2 0x100 DUP1 DUP4 SLOAD DIV MUL DUP4 MSTORE SWAP2 PUSH1 0x20 ADD SWAP2 PUSH2 0x87F JUMP JUMPDEST DUP3 ADD SWAP2 SWAP1 PUSH1 0x0 MSTORE PUSH1 0x20 PUSH1 0x0 KECCAK256 SWAP1 JUMPDEST DUP2 SLOAD DUP2 MSTORE SWAP1 PUSH1 0x1 ADD SWAP1 PUSH1 0x20 ADD DUP1 DUP4 GT PUSH2 0x862 JUMPI DUP3 SWAP1 SUB PUSH1 0x1F AND DUP3 ADD SWAP2 JUMPDEST POP POP POP POP POP SWAP1 DUP1 PUSH1 0x2 ADD SLOAD SWAP1 DUP1 PUSH1 0x3 ADD PUSH1 0x0 SWAP1 SLOAD SWAP1 PUSH2 0x100 EXP SWAP1 DIV PUSH20 0xFFFFFFFFFFFFFFFFFFFFFFFFFFFFFFFFFFFFFFFF AND SWAP1 DUP1 PUSH1 0x4 ADD SLOAD SWAP1 DUP1 PUSH1 0x5 ADD PUSH1 0x0 SWAP1 SLOAD SWAP1 PUSH2 0x100 EXP SWAP1 DIV PUSH4 0xFFFFFFFF AND SWAP1 POP DUP7 JUMP JUMPDEST PUSH1 0x40 MLOAD DUP1 PUSH1 0xC0 ADD PUSH1 0x40 MSTORE DUP1 PUSH2 0x8E6 PUSH1 0x5 PUSH2 0x161A JUMP JUMPDEST DUP2 MSTORE PUSH1 0x20 ADD DUP4 DUP2 MSTORE PUSH1 0x20 ADD PUSH1 0x0 DUP2 MSTORE PUSH1 0x20 ADD CALLER PUSH20 0xFFFFFFFFFFFFFFFFFFFFFFFFFFFFFFFFFFFFFFFF AND DUP2 MSTORE PUSH1 0x20 ADD DUP5 DUP2 MSTORE PUSH1 0x20 ADD DUP3 PUSH4 0xFFFFFFFF AND DUP2 MSTORE POP PUSH1 0x3 PUSH1 0x0 PUSH2 0x932 PUSH1 0x5 PUSH2 0x161A JUMP JUMPDEST DUP2 MSTORE PUSH1 0x20 ADD SWAP1 DUP2 MSTORE PUSH1 0x20 ADD PUSH1 0x0 KECCAK256 PUSH1 0x0 DUP3 ADD MLOAD DUP2 PUSH1 0x0 ADD SSTORE PUSH1 0x20 DUP3 ADD MLOAD DUP2 PUSH1 0x1 ADD SWAP1 DUP1 MLOAD SWAP1 PUSH1 0x20 ADD SWAP1 PUSH2 0x966 SWAP3 SWAP2 SWAP1 PUSH2 0x163E JUMP JUMPDEST POP PUSH1 0x40 DUP3 ADD MLOAD DUP2 PUSH1 0x2 ADD SSTORE PUSH1 0x60 DUP3 ADD MLOAD DUP2 PUSH1 0x3 ADD PUSH1 0x0 PUSH2 0x100 EXP DUP2 SLOAD DUP2 PUSH20 0xFFFFFFFFFFFFFFFFFFFFFFFFFFFFFFFFFFFFFFFF MUL NOT AND SWAP1 DUP4 PUSH20 0xFFFFFFFFFFFFFFFFFFFFFFFFFFFFFFFFFFFFFFFF AND MUL OR SWAP1 SSTORE POP PUSH1 0x80 DUP3 ADD MLOAD DUP2 PUSH1 0x4 ADD SSTORE PUSH1 0xA0 DUP3 ADD MLOAD DUP2 PUSH1 0x5 ADD PUSH1 0x0 PUSH2 0x100 EXP DUP2 SLOAD DUP2 PUSH4 0xFFFFFFFF MUL NOT AND SWAP1 DUP4 PUSH4 0xFFFFFFFF AND MUL OR SWAP1 SSTORE POP SWAP1 POP POP PUSH1 0x2 PUSH1 0x0 CALLER PUSH20 0xFFFFFFFFFFFFFFFFFFFFFFFFFFFFFFFFFFFFFFFF AND PUSH20 0xFFFFFFFFFFFFFFFFFFFFFFFFFFFFFFFFFFFFFFFF AND DUP2 MSTORE PUSH1 0x20 ADD SWAP1 DUP2 MSTORE PUSH1 0x20 ADD PUSH1 0x0 KECCAK256 PUSH1 0x4 ADD PUSH1 0x3 PUSH1 0x0 PUSH2 0xA3C PUSH1 0x5 PUSH2 0x161A JUMP JUMPDEST DUP2 MSTORE PUSH1 0x20 ADD SWAP1 DUP2 MSTORE PUSH1 0x20 ADD PUSH1 0x0 KECCAK256 SWAP1 DUP1 PUSH1 0x1 DUP2 SLOAD ADD DUP1 DUP3 SSTORE DUP1 SWAP2 POP POP PUSH1 0x1 SWAP1 SUB SWAP1 PUSH1 0x0 MSTORE PUSH1 0x20 PUSH1 0x0 KECCAK256 SWAP1 PUSH1 0x6 MUL ADD PUSH1 0x0 SWAP1 SWAP2 SWAP1 SWAP2 SWAP1 SWAP2 POP PUSH1 0x0 DUP3 ADD SLOAD DUP2 PUSH1 0x0 ADD SSTORE PUSH1 0x1 DUP3 ADD DUP2 PUSH1 0x1 ADD SWAP1 DUP1 SLOAD PUSH2 0xA91 SWAP1 PUSH2 0x24A2 JUMP JUMPDEST PUSH2 0xA9C SWAP3 SWAP2 SWAP1 PUSH2 0x16C4 JUMP JUMPDEST POP PUSH1 0x2 DUP3 ADD SLOAD DUP2 PUSH1 0x2 ADD SSTORE PUSH1 0x3 DUP3 ADD PUSH1 0x0 SWAP1 SLOAD SWAP1 PUSH2 0x100 EXP SWAP1 DIV PUSH20 0xFFFFFFFFFFFFFFFFFFFFFFFFFFFFFFFFFFFFFFFF AND DUP2 PUSH1 0x3 ADD PUSH1 0x0 PUSH2 0x100 EXP DUP2 SLOAD DUP2 PUSH20 0xFFFFFFFFFFFFFFFFFFFFFFFFFFFFFFFFFFFFFFFF MUL NOT AND SWAP1 DUP4 PUSH20 0xFFFFFFFFFFFFFFFFFFFFFFFFFFFFFFFFFFFFFFFF AND MUL OR SWAP1 SSTORE POP PUSH1 0x4 DUP3 ADD SLOAD DUP2 PUSH1 0x4 ADD SSTORE PUSH1 0x5 DUP3 ADD PUSH1 0x0 SWAP1 SLOAD SWAP1 PUSH2 0x100 EXP SWAP1 DIV PUSH4 0xFFFFFFFF AND DUP2 PUSH1 0x5 ADD PUSH1 0x0 PUSH2 0x100 EXP DUP2 SLOAD DUP2 PUSH4 0xFFFFFFFF MUL NOT AND SWAP1 DUP4 PUSH4 0xFFFFFFFF AND MUL OR SWAP1 SSTORE POP POP POP PUSH1 0x1 PUSH1 0x3 PUSH1 0x0 PUSH2 0xB61 PUSH1 0x5 PUSH2 0x161A JUMP JUMPDEST DUP2 MSTORE PUSH1 0x20 ADD SWAP1 DUP2 MSTORE PUSH1 0x20 ADD PUSH1 0x0 KECCAK256 SWAP1 DUP1 PUSH1 0x1 DUP2 SLOAD ADD DUP1 DUP3 SSTORE DUP1 SWAP2 POP POP PUSH1 0x1 SWAP1 SUB SWAP1 PUSH1 0x0 MSTORE PUSH1 0x20 PUSH1 0x0 KECCAK256 SWAP1 PUSH1 0x6 MUL ADD PUSH1 0x0 SWAP1 SWAP2 SWAP1 SWAP2 SWAP1 SWAP2 POP PUSH1 0x0 DUP3 ADD SLOAD DUP2 PUSH1 0x0 ADD SSTORE PUSH1 0x1 DUP3 ADD DUP2 PUSH1 0x1 ADD SWAP1 DUP1 SLOAD PUSH2 0xBB6 SWAP1 PUSH2 0x24A2 JUMP JUMPDEST PUSH2 0xBC1 SWAP3 SWAP2 SWAP1 PUSH2 0x16C4 JUMP JUMPDEST POP PUSH1 0x2 DUP3 ADD SLOAD DUP2 PUSH1 0x2 ADD SSTORE PUSH1 0x3 DUP3 ADD PUSH1 0x0 SWAP1 SLOAD SWAP1 PUSH2 0x100 EXP SWAP1 DIV PUSH20 0xFFFFFFFFFFFFFFFFFFFFFFFFFFFFFFFFFFFFFFFF AND DUP2 PUSH1 0x3 ADD PUSH1 0x0 PUSH2 0x100 EXP DUP2 SLOAD DUP2 PUSH20 0xFFFFFFFFFFFFFFFFFFFFFFFFFFFFFFFFFFFFFFFF MUL NOT AND SWAP1 DUP4 PUSH20 0xFFFFFFFFFFFFFFFFFFFFFFFFFFFFFFFFFFFFFFFF AND MUL OR SWAP1 SSTORE POP PUSH1 0x4 DUP3 ADD SLOAD DUP2 PUSH1 0x4 ADD SSTORE PUSH1 0x5 DUP3 ADD PUSH1 0x0 SWAP1 SLOAD SWAP1 PUSH2 0x100 EXP SWAP1 DIV PUSH4 0xFFFFFFFF AND DUP2 PUSH1 0x5 ADD PUSH1 0x0 PUSH2 0x100 EXP DUP2 SLOAD DUP2 PUSH4 0xFFFFFFFF MUL NOT AND SWAP1 DUP4 PUSH4 0xFFFFFFFF AND MUL OR SWAP1 SSTORE POP POP POP PUSH2 0xC80 PUSH1 0x5 PUSH2 0x1628 JUMP JUMPDEST CALLER PUSH20 0xFFFFFFFFFFFFFFFFFFFFFFFFFFFFFFFFFFFFFFFF AND PUSH32 0x9A5B8B5CB7F9C536EA5DB1A94142C9F716FB3A8698A9C70A5B8BFAD3922CB06C PUSH2 0xCC2 PUSH1 0x5 PUSH2 0x161A JUMP JUMPDEST DUP6 DUP6 DUP6 PUSH1 0x3 PUSH1 0x0 PUSH2 0xCD3 PUSH1 0x5 PUSH2 0x161A JUMP JUMPDEST DUP2 MSTORE PUSH1 0x20 ADD SWAP1 DUP2 MSTORE PUSH1 0x20 ADD PUSH1 0x0 KECCAK256 PUSH1 0x2 ADD SLOAD PUSH1 0x40 MLOAD PUSH2 0xCF6 SWAP6 SWAP5 SWAP4 SWAP3 SWAP2 SWAP1 PUSH2 0x21EA JUMP JUMPDEST PUSH1 0x40 MLOAD DUP1 SWAP2 SUB SWAP1 LOG2 POP POP POP JUMP JUMPDEST PUSH1 0x60 PUSH1 0x0 PUSH2 0xD11 PUSH1 0x5 PUSH2 0x161A JUMP JUMPDEST GT PUSH2 0xD51 JUMPI PUSH1 0x40 MLOAD PUSH32 0x8C379A000000000000000000000000000000000000000000000000000000000 DUP2 MSTORE PUSH1 0x4 ADD PUSH2 0xD48 SWAP1 PUSH2 0x2039 JUMP JUMPDEST PUSH1 0x40 MLOAD DUP1 SWAP2 SUB SWAP1 REVERT JUMPDEST CALLER PUSH20 0xFFFFFFFFFFFFFFFFFFFFFFFFFFFFFFFFFFFFFFFF AND PUSH32 0x440C078A5E11BFF85C6B6D7C52F378C8220355BD3331EC889638C0ECA883670C PUSH1 0x1 PUSH1 0x40 MLOAD PUSH2 0xD98 SWAP2 SWAP1 PUSH2 0x1FFC JUMP JUMPDEST PUSH1 0x40 MLOAD DUP1 SWAP2 SUB SWAP1 LOG2 PUSH1 0x1 DUP1 SLOAD DUP1 PUSH1 0x20 MUL PUSH1 0x20 ADD PUSH1 0x40 MLOAD SWAP1 DUP2 ADD PUSH1 0x40 MSTORE DUP1 SWAP3 SWAP2 SWAP1 DUP2 DUP2 MSTORE PUSH1 0x20 ADD PUSH1 0x0 SWAP1 JUMPDEST DUP3 DUP3 LT ISZERO PUSH2 0xF20 JUMPI DUP4 DUP3 SWAP1 PUSH1 0x0 MSTORE PUSH1 0x20 PUSH1 0x0 KECCAK256 SWAP1 PUSH1 0x6 MUL ADD PUSH1 0x40 MLOAD DUP1 PUSH1 0xC0 ADD PUSH1 0x40 MSTORE SWAP1 DUP2 PUSH1 0x0 DUP3 ADD SLOAD DUP2 MSTORE PUSH1 0x20 ADD PUSH1 0x1 DUP3 ADD DUP1 SLOAD PUSH2 0xDFF SWAP1 PUSH2 0x24A2 JUMP JUMPDEST DUP1 PUSH1 0x1F ADD PUSH1 0x20 DUP1 SWAP2 DIV MUL PUSH1 0x20 ADD PUSH1 0x40 MLOAD SWAP1 DUP2 ADD PUSH1 0x40 MSTORE DUP1 SWAP3 SWAP2 SWAP1 DUP2 DUP2 MSTORE PUSH1 0x20 ADD DUP3 DUP1 SLOAD PUSH2 0xE2B SWAP1 PUSH2 0x24A2 JUMP JUMPDEST DUP1 ISZERO PUSH2 0xE78 JUMPI DUP1 PUSH1 0x1F LT PUSH2 0xE4D JUMPI PUSH2 0x100 DUP1 DUP4 SLOAD DIV MUL DUP4 MSTORE SWAP2 PUSH1 0x20 ADD SWAP2 PUSH2 0xE78 JUMP JUMPDEST DUP3 ADD SWAP2 SWAP1 PUSH1 0x0 MSTORE PUSH1 0x20 PUSH1 0x0 KECCAK256 SWAP1 JUMPDEST DUP2 SLOAD DUP2 MSTORE SWAP1 PUSH1 0x1 ADD SWAP1 PUSH1 0x20 ADD DUP1 DUP4 GT PUSH2 0xE5B JUMPI DUP3 SWAP1 SUB PUSH1 0x1F AND DUP3 ADD SWAP2 JUMPDEST POP POP POP POP POP DUP2 MSTORE PUSH1 0x20 ADD PUSH1 0x2 DUP3 ADD SLOAD DUP2 MSTORE PUSH1 0x20 ADD PUSH1 0x3 DUP3 ADD PUSH1 0x0 SWAP1 SLOAD SWAP1 PUSH2 0x100 EXP SWAP1 DIV PUSH20 0xFFFFFFFFFFFFFFFFFFFFFFFFFFFFFFFFFFFFFFFF AND PUSH20 0xFFFFFFFFFFFFFFFFFFFFFFFFFFFFFFFFFFFFFFFF AND PUSH20 0xFFFFFFFFFFFFFFFFFFFFFFFFFFFFFFFFFFFFFFFF AND DUP2 MSTORE PUSH1 0x20 ADD PUSH1 0x4 DUP3 ADD SLOAD DUP2 MSTORE PUSH1 0x20 ADD PUSH1 0x5 DUP3 ADD PUSH1 0x0 SWAP1 SLOAD SWAP1 PUSH2 0x100 EXP SWAP1 DIV PUSH4 0xFFFFFFFF AND PUSH4 0xFFFFFFFF AND PUSH4 0xFFFFFFFF AND DUP2 MSTORE POP POP DUP2 MSTORE PUSH1 0x20 ADD SWAP1 PUSH1 0x1 ADD SWAP1 PUSH2 0xDC2 JUMP JUMPDEST POP POP POP POP SWAP1 POP SWAP1 JUMP JUMPDEST PUSH1 0x2 PUSH1 0x20 MSTORE DUP1 PUSH1 0x0 MSTORE PUSH1 0x40 PUSH1 0x0 KECCAK256 PUSH1 0x0 SWAP2 POP SWAP1 POP DUP1 PUSH1 0x0 ADD SLOAD SWAP1 DUP1 PUSH1 0x1 ADD DUP1 SLOAD PUSH2 0xF52 SWAP1 PUSH2 0x24A2 JUMP JUMPDEST DUP1 PUSH1 0x1F ADD PUSH1 0x20 DUP1 SWAP2 DIV MUL PUSH1 0x20 ADD PUSH1 0x40 MLOAD SWAP1 DUP2 ADD PUSH1 0x40 MSTORE DUP1 SWAP3 SWAP2 SWAP1 DUP2 DUP2 MSTORE PUSH1 0x20 ADD DUP3 DUP1 SLOAD PUSH2 0xF7E SWAP1 PUSH2 0x24A2 JUMP JUMPDEST DUP1 ISZERO PUSH2 0xFCB JUMPI DUP1 PUSH1 0x1F LT PUSH2 0xFA0 JUMPI PUSH2 0x100 DUP1 DUP4 SLOAD DIV MUL DUP4 MSTORE SWAP2 PUSH1 0x20 ADD SWAP2 PUSH2 0xFCB JUMP JUMPDEST DUP3 ADD SWAP2 SWAP1 PUSH1 0x0 MSTORE PUSH1 0x20 PUSH1 0x0 KECCAK256 SWAP1 JUMPDEST DUP2 SLOAD DUP2 MSTORE SWAP1 PUSH1 0x1 ADD SWAP1 PUSH1 0x20 ADD DUP1 DUP4 GT PUSH2 0xFAE JUMPI DUP3 SWAP1 SUB PUSH1 0x1F AND DUP3 ADD SWAP2 JUMPDEST POP POP POP POP POP SWAP1 DUP1 PUSH1 0x2 ADD DUP1 SLOAD PUSH2 0xFE0 SWAP1 PUSH2 0x24A2 JUMP JUMPDEST DUP1 PUSH1 0x1F ADD PUSH1 0x20 DUP1 SWAP2 DIV MUL PUSH1 0x20 ADD PUSH1 0x40 MLOAD SWAP1 DUP2 ADD PUSH1 0x40 MSTORE DUP1 SWAP3 SWAP2 SWAP1 DUP2 DUP2 MSTORE PUSH1 0x20 ADD DUP3 DUP1 SLOAD PUSH2 0x100C SWAP1 PUSH2 0x24A2 JUMP JUMPDEST DUP1 ISZERO PUSH2 0x1059 JUMPI DUP1 PUSH1 0x1F LT PUSH2 0x102E JUMPI PUSH2 0x100 DUP1 DUP4 SLOAD DIV MUL DUP4 MSTORE SWAP2 PUSH1 0x20 ADD SWAP2 PUSH2 0x1059 JUMP JUMPDEST DUP3 ADD SWAP2 SWAP1 PUSH1 0x0 MSTORE PUSH1 0x20 PUSH1 0x0 KECCAK256 SWAP1 JUMPDEST DUP2 SLOAD DUP2 MSTORE SWAP1 PUSH1 0x1 ADD SWAP1 PUSH1 0x20 ADD DUP1 DUP4 GT PUSH2 0x103C JUMPI DUP3 SWAP1 SUB PUSH1 0x1F AND DUP3 ADD SWAP2 JUMPDEST POP POP POP POP POP SWAP1 DUP1 PUSH1 0x5 ADD SLOAD SWAP1 POP DUP5 JUMP JUMPDEST PUSH1 0x3 PUSH1 0x20 MSTORE DUP1 PUSH1 0x0 MSTORE PUSH1 0x40 PUSH1 0x0 KECCAK256 PUSH1 0x0 SWAP2 POP SWAP1 POP DUP1 PUSH1 0x0 ADD SLOAD SWAP1 DUP1 PUSH1 0x1 ADD DUP1 SLOAD PUSH2 0x1092 SWAP1 PUSH2 0x24A2 JUMP JUMPDEST DUP1 PUSH1 0x1F ADD PUSH1 0x20 DUP1 SWAP2 DIV MUL PUSH1 0x20 ADD PUSH1 0x40 MLOAD SWAP1 DUP2 ADD PUSH1 0x40 MSTORE DUP1 SWAP3 SWAP2 SWAP1 DUP2 DUP2 MSTORE PUSH1 0x20 ADD DUP3 DUP1 SLOAD PUSH2 0x10BE SWAP1 PUSH2 0x24A2 JUMP JUMPDEST DUP1 ISZERO PUSH2 0x110B JUMPI DUP1 PUSH1 0x1F LT PUSH2 0x10E0 JUMPI PUSH2 0x100 DUP1 DUP4 SLOAD DIV MUL DUP4 MSTORE SWAP2 PUSH1 0x20 ADD SWAP2 PUSH2 0x110B JUMP JUMPDEST DUP3 ADD SWAP2 SWAP1 PUSH1 0x0 MSTORE PUSH1 0x20 PUSH1 0x0 KECCAK256 SWAP1 JUMPDEST DUP2 SLOAD DUP2 MSTORE SWAP1 PUSH1 0x1 ADD SWAP1 PUSH1 0x20 ADD DUP1 DUP4 GT PUSH2 0x10EE JUMPI DUP3 SWAP1 SUB PUSH1 0x1F AND DUP3 ADD SWAP2 JUMPDEST POP POP POP POP POP SWAP1 DUP1 PUSH1 0x2 ADD SLOAD SWAP1 DUP1 PUSH1 0x3 ADD PUSH1 0x0 SWAP1 SLOAD SWAP1 PUSH2 0x100 EXP SWAP1 DIV PUSH20 0xFFFFFFFFFFFFFFFFFFFFFFFFFFFFFFFFFFFFFFFF AND SWAP1 DUP1 PUSH1 0x4 ADD SLOAD SWAP1 DUP1 PUSH1 0x5 ADD PUSH1 0x0 SWAP1 SLOAD SWAP1 PUSH2 0x100 EXP SWAP1 DIV PUSH4 0xFFFFFFFF AND SWAP1 POP DUP7 JUMP JUMPDEST DUP1 PUSH1 0x0 PUSH1 0x3 PUSH1 0x0 DUP4 DUP2 MSTORE PUSH1 0x20 ADD SWAP1 DUP2 MSTORE PUSH1 0x20 ADD PUSH1 0x0 KECCAK256 PUSH1 0x40 MLOAD DUP1 PUSH1 0xC0 ADD PUSH1 0x40 MSTORE SWAP1 DUP2 PUSH1 0x0 DUP3 ADD SLOAD DUP2 MSTORE PUSH1 0x20 ADD PUSH1 0x1 DUP3 ADD DUP1 SLOAD PUSH2 0x1198 SWAP1 PUSH2 0x24A2 JUMP JUMPDEST DUP1 PUSH1 0x1F ADD PUSH1 0x20 DUP1 SWAP2 DIV MUL PUSH1 0x20 ADD PUSH1 0x40 MLOAD SWAP1 DUP2 ADD PUSH1 0x40 MSTORE DUP1 SWAP3 SWAP2 SWAP1 DUP2 DUP2 MSTORE PUSH1 0x20 ADD DUP3 DUP1 SLOAD PUSH2 0x11C4 SWAP1 PUSH2 0x24A2 JUMP JUMPDEST DUP1 ISZERO PUSH2 0x1211 JUMPI DUP1 PUSH1 0x1F LT PUSH2 0x11E6 JUMPI PUSH2 0x100 DUP1 DUP4 SLOAD DIV MUL DUP4 MSTORE SWAP2 PUSH1 0x20 ADD SWAP2 PUSH2 0x1211 JUMP JUMPDEST DUP3 ADD SWAP2 SWAP1 PUSH1 0x0 MSTORE PUSH1 0x20 PUSH1 0x0 KECCAK256 SWAP1 JUMPDEST DUP2 SLOAD DUP2 MSTORE SWAP1 PUSH1 0x1 ADD SWAP1 PUSH1 0x20 ADD DUP1 DUP4 GT PUSH2 0x11F4 JUMPI DUP3 SWAP1 SUB PUSH1 0x1F AND DUP3 ADD SWAP2 JUMPDEST POP POP POP POP POP DUP2 MSTORE PUSH1 0x20 ADD PUSH1 0x2 DUP3 ADD SLOAD DUP2 MSTORE PUSH1 0x20 ADD PUSH1 0x3 DUP3 ADD PUSH1 0x0 SWAP1 SLOAD SWAP1 PUSH2 0x100 EXP SWAP1 DIV PUSH20 0xFFFFFFFFFFFFFFFFFFFFFFFFFFFFFFFFFFFFFFFF AND PUSH20 0xFFFFFFFFFFFFFFFFFFFFFFFFFFFFFFFFFFFFFFFF AND PUSH20 0xFFFFFFFFFFFFFFFFFFFFFFFFFFFFFFFFFFFFFFFF AND DUP2 MSTORE PUSH1 0x20 ADD PUSH1 0x4 DUP3 ADD SLOAD DUP2 MSTORE PUSH1 0x20 ADD PUSH1 0x5 DUP3 ADD PUSH1 0x0 SWAP1 SLOAD SWAP1 PUSH2 0x100 EXP SWAP1 DIV PUSH4 0xFFFFFFFF AND PUSH4 0xFFFFFFFF AND PUSH4 0xFFFFFFFF AND DUP2 MSTORE POP POP SWAP1 POP TIMESTAMP DUP2 PUSH1 0xA0 ADD MLOAD PUSH4 0xFFFFFFFF AND LT ISZERO PUSH2 0x12F9 JUMPI PUSH1 0x40 MLOAD PUSH32 0x8C379A000000000000000000000000000000000000000000000000000000000 DUP2 MSTORE PUSH1 0x4 ADD PUSH2 0x12F0 SWAP1 PUSH2 0x2079 JUMP JUMPDEST PUSH1 0x40 MLOAD DUP1 SWAP2 SUB SWAP1 REVERT JUMPDEST PUSH1 0x3 PUSH1 0x0 DUP5 DUP2 MSTORE PUSH1 0x20 ADD SWAP1 DUP2 MSTORE PUSH1 0x20 ADD PUSH1 0x0 KECCAK256 PUSH1 0x0 DUP1 DUP3 ADD PUSH1 0x0 SWAP1 SSTORE PUSH1 0x1 DUP3 ADD PUSH1 0x0 PUSH2 0x1325 SWAP2 SWAP1 PUSH2 0x1751 JUMP JUMPDEST PUSH1 0x2 DUP3 ADD PUSH1 0x0 SWAP1 SSTORE PUSH1 0x3 DUP3 ADD PUSH1 0x0 PUSH2 0x100 EXP DUP2 SLOAD SWAP1 PUSH20 0xFFFFFFFFFFFFFFFFFFFFFFFFFFFFFFFFFFFFFFFF MUL NOT AND SWAP1 SSTORE PUSH1 0x4 DUP3 ADD PUSH1 0x0 SWAP1 SSTORE PUSH1 0x5 DUP3 ADD PUSH1 0x0 PUSH2 0x100 EXP DUP2 SLOAD SWAP1 PUSH4 0xFFFFFFFF MUL NOT AND SWAP1 SSTORE POP POP CALLER PUSH20 0xFFFFFFFFFFFFFFFFFFFFFFFFFFFFFFFFFFFFFFFF AND PUSH32 0x45E4102CD0468B42F71C0179AA78051418C31C018E07A5091EB13B97FADBAB5E DUP5 PUSH1 0x40 MLOAD PUSH2 0x13BB SWAP2 SWAP1 PUSH2 0x20BB JUMP JUMPDEST PUSH1 0x40 MLOAD DUP1 SWAP2 SUB SWAP1 LOG2 POP POP POP JUMP JUMPDEST PUSH2 0x13D0 PUSH2 0x1791 JUMP JUMPDEST DUP2 PUSH2 0x13DB PUSH1 0x5 PUSH2 0x161A JUMP JUMPDEST DUP2 GT ISZERO PUSH2 0x141D JUMPI PUSH1 0x40 MLOAD PUSH32 0x8C379A000000000000000000000000000000000000000000000000000000000 DUP2 MSTORE PUSH1 0x4 ADD PUSH2 0x1414 SWAP1 PUSH2 0x2059 JUMP JUMPDEST PUSH1 0x40 MLOAD DUP1 SWAP2 SUB SWAP1 REVERT JUMPDEST CALLER PUSH20 0xFFFFFFFFFFFFFFFFFFFFFFFFFFFFFFFFFFFFFFFF AND PUSH32 0xCB718FFB18411374498C1CD31CB4D4C8068AF3C5B1546205F14C72BCD20F21BA DUP5 PUSH1 0x3 PUSH1 0x0 DUP8 DUP2 MSTORE PUSH1 0x20 ADD SWAP1 DUP2 MSTORE PUSH1 0x20 ADD PUSH1 0x0 KECCAK256 PUSH1 0x40 MLOAD PUSH2 0x1477 SWAP3 SWAP2 SWAP1 PUSH2 0x2191 JUMP JUMPDEST PUSH1 0x40 MLOAD DUP1 SWAP2 SUB SWAP1 LOG2 PUSH1 0x3 PUSH1 0x0 DUP5 DUP2 MSTORE PUSH1 0x20 ADD SWAP1 DUP2 MSTORE PUSH1 0x20 ADD PUSH1 0x0 KECCAK256 PUSH1 0x40 MLOAD DUP1 PUSH1 0xC0 ADD PUSH1 0x40 MSTORE SWAP1 DUP2 PUSH1 0x0 DUP3 ADD SLOAD DUP2 MSTORE PUSH1 0x20 ADD PUSH1 0x1 DUP3 ADD DUP1 SLOAD PUSH2 0x14B7 SWAP1 PUSH2 0x24A2 JUMP JUMPDEST DUP1 PUSH1 0x1F ADD PUSH1 0x20 DUP1 SWAP2 DIV MUL PUSH1 0x20 ADD PUSH1 0x40 MLOAD SWAP1 DUP2 ADD PUSH1 0x40 MSTORE DUP1 SWAP3 SWAP2 SWAP1 DUP2 DUP2 MSTORE PUSH1 0x20 ADD DUP3 DUP1 SLOAD PUSH2 0x14E3 SWAP1 PUSH2 0x24A2 JUMP JUMPDEST DUP1 ISZERO PUSH2 0x1530 JUMPI DUP1 PUSH1 0x1F LT PUSH2 0x1505 JUMPI PUSH2 0x100 DUP1 DUP4 SLOAD DIV MUL DUP4 MSTORE SWAP2 PUSH1 0x20 ADD SWAP2 PUSH2 0x1530 JUMP JUMPDEST DUP3 ADD SWAP2 SWAP1 PUSH1 0x0 MSTORE PUSH1 0x20 PUSH1 0x0 KECCAK256 SWAP1 JUMPDEST DUP2 SLOAD DUP2 MSTORE SWAP1 PUSH1 0x1 ADD SWAP1 PUSH1 0x20 ADD DUP1 DUP4 GT PUSH2 0x1513 JUMPI DUP3 SWAP1 SUB PUSH1 0x1F AND DUP3 ADD SWAP2 JUMPDEST POP POP POP POP POP DUP2 MSTORE PUSH1 0x20 ADD PUSH1 0x2 DUP3 ADD SLOAD DUP2 MSTORE PUSH1 0x20 ADD PUSH1 0x3 DUP3 ADD PUSH1 0x0 SWAP1 SLOAD SWAP1 PUSH2 0x100 EXP SWAP1 DIV PUSH20 0xFFFFFFFFFFFFFFFFFFFFFFFFFFFFFFFFFFFFFFFF AND PUSH20 0xFFFFFFFFFFFFFFFFFFFFFFFFFFFFFFFFFFFFFFFF AND PUSH20 0xFFFFFFFFFFFFFFFFFFFFFFFFFFFFFFFFFFFFFFFF AND DUP2 MSTORE PUSH1 0x20 ADD PUSH1 0x4 DUP3 ADD SLOAD DUP2 MSTORE PUSH1 0x20 ADD PUSH1 0x5 DUP3 ADD PUSH1 0x0 SWAP1 SLOAD SWAP1 PUSH2 0x100 EXP SWAP1 DIV PUSH4 0xFFFFFFFF AND PUSH4 0xFFFFFFFF AND PUSH4 0xFFFFFFFF AND DUP2 MSTORE POP POP SWAP2 POP POP SWAP2 SWAP1 POP JUMP JUMPDEST PUSH1 0x4 PUSH1 0x20 MSTORE DUP2 PUSH1 0x0 MSTORE PUSH1 0x40 PUSH1 0x0 KECCAK256 PUSH1 0x20 MSTORE DUP1 PUSH1 0x0 MSTORE PUSH1 0x40 PUSH1 0x0 KECCAK256 PUSH1 0x0 SWAP2 POP SWAP2 POP POP SLOAD DUP2 JUMP JUMPDEST PUSH1 0x0 DUP1 SLOAD SWAP1 PUSH2 0x100 EXP SWAP1 DIV PUSH20 0xFFFFFFFFFFFFFFFFFFFFFFFFFFFFFFFFFFFFFFFF AND DUP2 JUMP JUMPDEST PUSH1 0x0 DUP2 PUSH1 0x0 ADD SLOAD SWAP1 POP SWAP2 SWAP1 POP JUMP JUMPDEST PUSH1 0x1 DUP2 PUSH1 0x0 ADD PUSH1 0x0 DUP3 DUP3 SLOAD ADD SWAP3 POP POP DUP2 SWAP1 SSTORE POP POP JUMP JUMPDEST DUP3 DUP1 SLOAD PUSH2 0x164A SWAP1 PUSH2 0x24A2 JUMP JUMPDEST SWAP1 PUSH1 0x0 MSTORE PUSH1 0x20 PUSH1 0x0 KECCAK256 SWAP1 PUSH1 0x1F ADD PUSH1 0x20 SWAP1 DIV DUP2 ADD SWAP3 DUP3 PUSH2 0x166C JUMPI PUSH1 0x0 DUP6 SSTORE PUSH2 0x16B3 JUMP JUMPDEST DUP3 PUSH1 0x1F LT PUSH2 0x1685 JUMPI DUP1 MLOAD PUSH1 0xFF NOT AND DUP4 DUP1 ADD OR DUP6 SSTORE PUSH2 0x16B3 JUMP JUMPDEST DUP3 DUP1 ADD PUSH1 0x1 ADD DUP6 SSTORE DUP3 ISZERO PUSH2 0x16B3 JUMPI SWAP2 DUP3 ADD JUMPDEST DUP3 DUP2 GT ISZERO PUSH2 0x16B2 JUMPI DUP3 MLOAD DUP3 SSTORE SWAP2 PUSH1 0x20 ADD SWAP2 SWAP1 PUSH1 0x1 ADD SWAP1 PUSH2 0x1697 JUMP JUMPDEST JUMPDEST POP SWAP1 POP PUSH2 0x16C0 SWAP2 SWAP1 PUSH2 0x17E3 JUMP JUMPDEST POP SWAP1 JUMP JUMPDEST DUP3 DUP1 SLOAD PUSH2 0x16D0 SWAP1 PUSH2 0x24A2 JUMP JUMPDEST SWAP1 PUSH1 0x0 MSTORE PUSH1 0x20 PUSH1 0x0 KECCAK256 SWAP1 PUSH1 0x1F ADD PUSH1 0x20 SWAP1 DIV DUP2 ADD SWAP3 DUP3 PUSH2 0x16F2 JUMPI PUSH1 0x0 DUP6 SSTORE PUSH2 0x1740 JUMP JUMPDEST DUP3 PUSH1 0x1F LT PUSH2 0x1703 JUMPI DUP1 SLOAD DUP6 SSTORE PUSH2 0x1740 JUMP JUMPDEST DUP3 DUP1 ADD PUSH1 0x1 ADD DUP6 SSTORE DUP3 ISZERO PUSH2 0x1740 JUMPI PUSH1 0x0 MSTORE PUSH1 0x20 PUSH1 0x0 KECCAK256 SWAP2 PUSH1 0x1F ADD PUSH1 0x20 SWAP1 DIV DUP3 ADD JUMPDEST DUP3 DUP2 GT ISZERO PUSH2 0x173F JUMPI DUP3 SLOAD DUP3 SSTORE SWAP2 PUSH1 0x1 ADD SWAP2 SWAP1 PUSH1 0x1 ADD SWAP1 PUSH2 0x1724 JUMP JUMPDEST JUMPDEST POP SWAP1 POP PUSH2 0x174D SWAP2 SWAP1 PUSH2 0x17E3 JUMP JUMPDEST POP SWAP1 JUMP JUMPDEST POP DUP1 SLOAD PUSH2 0x175D SWAP1 PUSH2 0x24A2 JUMP JUMPDEST PUSH1 0x0 DUP3 SSTORE DUP1 PUSH1 0x1F LT PUSH2 0x176F JUMPI POP PUSH2 0x178E JUMP JUMPDEST PUSH1 0x1F ADD PUSH1 0x20 SWAP1 DIV SWAP1 PUSH1 0x0 MSTORE PUSH1 0x20 PUSH1 0x0 KECCAK256 SWAP1 DUP2 ADD SWAP1 PUSH2 0x178D SWAP2 SWAP1 PUSH2 0x17E3 JUMP JUMPDEST JUMPDEST POP JUMP JUMPDEST PUSH1 0x40 MLOAD DUP1 PUSH1 0xC0 ADD PUSH1 0x40 MSTORE DUP1 PUSH1 0x0 DUP2 MSTORE PUSH1 0x20 ADD PUSH1 0x60 DUP2 MSTORE PUSH1 0x20 ADD PUSH1 0x0 DUP2 MSTORE PUSH1 0x20 ADD PUSH1 0x0 PUSH20 0xFFFFFFFFFFFFFFFFFFFFFFFFFFFFFFFFFFFFFFFF AND DUP2 MSTORE PUSH1 0x20 ADD PUSH1 0x0 DUP2 MSTORE PUSH1 0x20 ADD PUSH1 0x0 PUSH4 0xFFFFFFFF AND DUP2 MSTORE POP SWAP1 JUMP JUMPDEST JUMPDEST DUP1 DUP3 GT ISZERO PUSH2 0x17FC JUMPI PUSH1 0x0 DUP2 PUSH1 0x0 SWAP1 SSTORE POP PUSH1 0x1 ADD PUSH2 0x17E4 JUMP JUMPDEST POP SWAP1 JUMP JUMPDEST PUSH1 0x0 PUSH2 0x1813 PUSH2 0x180E DUP5 PUSH2 0x2269 JUMP JUMPDEST PUSH2 0x2244 JUMP JUMPDEST SWAP1 POP DUP3 DUP2 MSTORE PUSH1 0x20 DUP2 ADD DUP5 DUP5 DUP5 ADD GT ISZERO PUSH2 0x182F JUMPI PUSH2 0x182E PUSH2 0x262E JUMP JUMPDEST JUMPDEST PUSH2 0x183A DUP5 DUP3 DUP6 PUSH2 0x2460 JUMP JUMPDEST POP SWAP4 SWAP3 POP POP POP JUMP JUMPDEST PUSH1 0x0 DUP2 CALLDATALOAD SWAP1 POP PUSH2 0x1851 DUP2 PUSH2 0x26FC JUMP JUMPDEST SWAP3 SWAP2 POP POP JUMP JUMPDEST PUSH1 0x0 DUP2 MLOAD SWAP1 POP PUSH2 0x1866 DUP2 PUSH2 0x2713 JUMP JUMPDEST SWAP3 SWAP2 POP POP JUMP JUMPDEST PUSH1 0x0 DUP3 PUSH1 0x1F DUP4 ADD SLT PUSH2 0x1881 JUMPI PUSH2 0x1880 PUSH2 0x2629 JUMP JUMPDEST JUMPDEST DUP2 CALLDATALOAD PUSH2 0x1891 DUP5 DUP3 PUSH1 0x20 DUP7 ADD PUSH2 0x1800 JUMP JUMPDEST SWAP2 POP POP SWAP3 SWAP2 POP POP JUMP JUMPDEST PUSH1 0x0 DUP2 CALLDATALOAD SWAP1 POP PUSH2 0x18A9 DUP2 PUSH2 0x272A JUMP JUMPDEST SWAP3 SWAP2 POP POP JUMP JUMPDEST PUSH1 0x0 DUP2 CALLDATALOAD SWAP1 POP PUSH2 0x18BE DUP2 PUSH2 0x2741 JUMP JUMPDEST SWAP3 SWAP2 POP POP JUMP JUMPDEST PUSH1 0x0 PUSH1 0x20 DUP3 DUP5 SUB SLT ISZERO PUSH2 0x18DA JUMPI PUSH2 0x18D9 PUSH2 0x2638 JUMP JUMPDEST JUMPDEST PUSH1 0x0 PUSH2 0x18E8 DUP5 DUP3 DUP6 ADD PUSH2 0x1842 JUMP JUMPDEST SWAP2 POP POP SWAP3 SWAP2 POP POP JUMP JUMPDEST PUSH1 0x0 PUSH1 0x20 DUP3 DUP5 SUB SLT ISZERO PUSH2 0x1907 JUMPI PUSH2 0x1906 PUSH2 0x2638 JUMP JUMPDEST JUMPDEST PUSH1 0x0 PUSH2 0x1915 DUP5 DUP3 DUP6 ADD PUSH2 0x1857 JUMP JUMPDEST SWAP2 POP POP SWAP3 SWAP2 POP POP JUMP JUMPDEST PUSH1 0x0 PUSH1 0x20 DUP3 DUP5 SUB SLT ISZERO PUSH2 0x1934 JUMPI PUSH2 0x1933 PUSH2 0x2638 JUMP JUMPDEST JUMPDEST PUSH1 0x0 PUSH2 0x1942 DUP5 DUP3 DUP6 ADD PUSH2 0x189A JUMP JUMPDEST SWAP2 POP POP SWAP3 SWAP2 POP POP JUMP JUMPDEST PUSH1 0x0 DUP1 PUSH1 0x40 DUP4 DUP6 SUB SLT ISZERO PUSH2 0x1962 JUMPI PUSH2 0x1961 PUSH2 0x2638 JUMP JUMPDEST JUMPDEST PUSH1 0x0 PUSH2 0x1970 DUP6 DUP3 DUP7 ADD PUSH2 0x189A JUMP JUMPDEST SWAP3 POP POP PUSH1 0x20 PUSH2 0x1981 DUP6 DUP3 DUP7 ADD PUSH2 0x1842 JUMP JUMPDEST SWAP2 POP POP SWAP3 POP SWAP3 SWAP1 POP JUMP JUMPDEST PUSH1 0x0 DUP1 PUSH1 0x0 PUSH1 0x60 DUP5 DUP7 SUB SLT ISZERO PUSH2 0x19A4 JUMPI PUSH2 0x19A3 PUSH2 0x2638 JUMP JUMPDEST JUMPDEST PUSH1 0x0 PUSH2 0x19B2 DUP7 DUP3 DUP8 ADD PUSH2 0x189A JUMP JUMPDEST SWAP4 POP POP PUSH1 0x20 DUP5 ADD CALLDATALOAD PUSH8 0xFFFFFFFFFFFFFFFF DUP2 GT ISZERO PUSH2 0x19D3 JUMPI PUSH2 0x19D2 PUSH2 0x2633 JUMP JUMPDEST JUMPDEST PUSH2 0x19DF DUP7 DUP3 DUP8 ADD PUSH2 0x186C JUMP JUMPDEST SWAP3 POP POP PUSH1 0x40 PUSH2 0x19F0 DUP7 DUP3 DUP8 ADD PUSH2 0x18AF JUMP JUMPDEST SWAP2 POP POP SWAP3 POP SWAP3 POP SWAP3 JUMP JUMPDEST PUSH1 0x0 DUP1 PUSH1 0x40 DUP4 DUP6 SUB SLT ISZERO PUSH2 0x1A11 JUMPI PUSH2 0x1A10 PUSH2 0x2638 JUMP JUMPDEST JUMPDEST PUSH1 0x0 PUSH2 0x1A1F DUP6 DUP3 DUP7 ADD PUSH2 0x189A JUMP JUMPDEST SWAP3 POP POP PUSH1 0x20 PUSH2 0x1A30 DUP6 DUP3 DUP7 ADD PUSH2 0x189A JUMP JUMPDEST SWAP2 POP POP SWAP3 POP SWAP3 SWAP1 POP JUMP JUMPDEST PUSH1 0x0 PUSH2 0x1A46 DUP4 DUP4 PUSH2 0x1CD3 JUMP JUMPDEST SWAP1 POP SWAP3 SWAP2 POP POP JUMP JUMPDEST PUSH1 0x0 PUSH2 0x1A5A DUP4 DUP4 PUSH2 0x1DE5 JUMP JUMPDEST SWAP1 POP SWAP3 SWAP2 POP POP JUMP JUMPDEST PUSH2 0x1A6B DUP2 PUSH2 0x23D2 JUMP JUMPDEST DUP3 MSTORE POP POP JUMP JUMPDEST PUSH2 0x1A7A DUP2 PUSH2 0x23D2 JUMP JUMPDEST DUP3 MSTORE POP POP JUMP JUMPDEST PUSH1 0x0 PUSH2 0x1A8B DUP3 PUSH2 0x22D4 JUMP JUMPDEST PUSH2 0x1A95 DUP2 DUP6 PUSH2 0x230F JUMP JUMPDEST SWAP4 POP DUP4 PUSH1 0x20 DUP3 MUL DUP6 ADD PUSH2 0x1AA7 DUP6 PUSH2 0x229A JUMP JUMPDEST DUP1 PUSH1 0x0 JUMPDEST DUP6 DUP2 LT ISZERO PUSH2 0x1AE3 JUMPI DUP5 DUP5 SUB DUP10 MSTORE DUP2 MLOAD PUSH2 0x1AC4 DUP6 DUP3 PUSH2 0x1A3A JUMP JUMPDEST SWAP5 POP PUSH2 0x1ACF DUP4 PUSH2 0x22F5 JUMP JUMPDEST SWAP3 POP PUSH1 0x20 DUP11 ADD SWAP10 POP POP PUSH1 0x1 DUP2 ADD SWAP1 POP PUSH2 0x1AAB JUMP JUMPDEST POP DUP3 SWAP8 POP DUP8 SWAP6 POP POP POP POP POP POP SWAP3 SWAP2 POP POP JUMP JUMPDEST PUSH1 0x0 PUSH2 0x1B00 DUP3 PUSH2 0x22DF JUMP JUMPDEST PUSH2 0x1B0A DUP2 DUP6 PUSH2 0x230F JUMP JUMPDEST SWAP4 POP DUP4 PUSH1 0x20 DUP3 MUL DUP6 ADD PUSH2 0x1B1C DUP6 PUSH2 0x22AA JUMP JUMPDEST DUP1 PUSH1 0x0 JUMPDEST DUP6 DUP2 LT ISZERO PUSH2 0x1B57 JUMPI DUP5 DUP5 SUB DUP10 MSTORE DUP2 PUSH2 0x1B38 DUP6 DUP3 PUSH2 0x1A4E JUMP JUMPDEST SWAP5 POP PUSH2 0x1B43 DUP4 PUSH2 0x2302 JUMP JUMPDEST SWAP3 POP PUSH1 0x20 DUP11 ADD SWAP10 POP POP PUSH1 0x1 DUP2 ADD SWAP1 POP PUSH2 0x1B20 JUMP JUMPDEST POP DUP3 SWAP8 POP DUP8 SWAP6 POP POP POP POP POP POP SWAP3 SWAP2 POP POP JUMP JUMPDEST PUSH2 0x1B72 DUP2 PUSH2 0x242A JUMP JUMPDEST DUP3 MSTORE POP POP JUMP JUMPDEST PUSH1 0x0 PUSH2 0x1B83 DUP3 PUSH2 0x22EA JUMP JUMPDEST PUSH2 0x1B8D DUP2 DUP6 PUSH2 0x2320 JUMP JUMPDEST SWAP4 POP PUSH2 0x1B9D DUP2 DUP6 PUSH1 0x20 DUP7 ADD PUSH2 0x246F JUMP JUMPDEST PUSH2 0x1BA6 DUP2 PUSH2 0x263D JUMP JUMPDEST DUP5 ADD SWAP2 POP POP SWAP3 SWAP2 POP POP JUMP JUMPDEST PUSH1 0x0 PUSH2 0x1BBC DUP3 PUSH2 0x22EA JUMP JUMPDEST PUSH2 0x1BC6 DUP2 DUP6 PUSH2 0x2331 JUMP JUMPDEST SWAP4 POP PUSH2 0x1BD6 DUP2 DUP6 PUSH1 0x20 DUP7 ADD PUSH2 0x246F JUMP JUMPDEST PUSH2 0x1BDF DUP2 PUSH2 0x263D JUMP JUMPDEST DUP5 ADD SWAP2 POP POP SWAP3 SWAP2 POP POP JUMP JUMPDEST PUSH1 0x0 DUP2 SLOAD PUSH2 0x1BF7 DUP2 PUSH2 0x24A2 JUMP JUMPDEST PUSH2 0x1C01 DUP2 DUP7 PUSH2 0x2320 JUMP JUMPDEST SWAP5 POP PUSH1 0x1 DUP3 AND PUSH1 0x0 DUP2 EQ PUSH2 0x1C1C JUMPI PUSH1 0x1 DUP2 EQ PUSH2 0x1C2E JUMPI PUSH2 0x1C61 JUMP JUMPDEST PUSH1 0xFF NOT DUP4 AND DUP7 MSTORE PUSH1 0x20 DUP7 ADD SWAP4 POP PUSH2 0x1C61 JUMP JUMPDEST PUSH2 0x1C37 DUP6 PUSH2 0x22BF JUMP JUMPDEST PUSH1 0x0 JUMPDEST DUP4 DUP2 LT ISZERO PUSH2 0x1C59 JUMPI DUP2 SLOAD DUP2 DUP10 ADD MSTORE PUSH1 0x1 DUP3 ADD SWAP2 POP PUSH1 0x20 DUP2 ADD SWAP1 POP PUSH2 0x1C3A JUMP JUMPDEST DUP1 DUP9 ADD SWAP6 POP POP POP JUMPDEST POP POP POP SWAP3 SWAP2 POP POP JUMP JUMPDEST PUSH1 0x0 PUSH2 0x1C77 PUSH1 0x22 DUP4 PUSH2 0x2331 JUMP JUMPDEST SWAP2 POP PUSH2 0x1C82 DUP3 PUSH2 0x265B JUMP JUMPDEST PUSH1 0x40 DUP3 ADD SWAP1 POP SWAP2 SWAP1 POP JUMP JUMPDEST PUSH1 0x0 PUSH2 0x1C9A PUSH1 0x1D DUP4 PUSH2 0x2331 JUMP JUMPDEST SWAP2 POP PUSH2 0x1CA5 DUP3 PUSH2 0x26AA JUMP JUMPDEST PUSH1 0x20 DUP3 ADD SWAP1 POP SWAP2 SWAP1 POP JUMP JUMPDEST PUSH1 0x0 PUSH2 0x1CBD PUSH1 0x15 DUP4 PUSH2 0x2331 JUMP JUMPDEST SWAP2 POP PUSH2 0x1CC8 DUP3 PUSH2 0x26D3 JUMP JUMPDEST PUSH1 0x20 DUP3 ADD SWAP1 POP SWAP2 SWAP1 POP JUMP JUMPDEST PUSH1 0x0 PUSH1 0xC0 DUP4 ADD PUSH1 0x0 DUP4 ADD MLOAD PUSH2 0x1CEB PUSH1 0x0 DUP7 ADD DUP3 PUSH2 0x1F67 JUMP JUMPDEST POP PUSH1 0x20 DUP4 ADD MLOAD DUP5 DUP3 SUB PUSH1 0x20 DUP7 ADD MSTORE PUSH2 0x1D03 DUP3 DUP3 PUSH2 0x1B78 JUMP JUMPDEST SWAP2 POP POP PUSH1 0x40 DUP4 ADD MLOAD PUSH2 0x1D18 PUSH1 0x40 DUP7 ADD DUP3 PUSH2 0x1F67 JUMP JUMPDEST POP PUSH1 0x60 DUP4 ADD MLOAD PUSH2 0x1D2B PUSH1 0x60 DUP7 ADD DUP3 PUSH2 0x1A62 JUMP JUMPDEST POP PUSH1 0x80 DUP4 ADD MLOAD PUSH2 0x1D3E PUSH1 0x80 DUP7 ADD DUP3 PUSH2 0x1F67 JUMP JUMPDEST POP PUSH1 0xA0 DUP4 ADD MLOAD PUSH2 0x1D51 PUSH1 0xA0 DUP7 ADD DUP3 PUSH2 0x1F85 JUMP JUMPDEST POP DUP1 SWAP2 POP POP SWAP3 SWAP2 POP POP JUMP JUMPDEST PUSH1 0x0 PUSH1 0xC0 DUP4 ADD PUSH1 0x0 DUP4 ADD MLOAD PUSH2 0x1D74 PUSH1 0x0 DUP7 ADD DUP3 PUSH2 0x1F67 JUMP JUMPDEST POP PUSH1 0x20 DUP4 ADD MLOAD DUP5 DUP3 SUB PUSH1 0x20 DUP7 ADD MSTORE PUSH2 0x1D8C DUP3 DUP3 PUSH2 0x1B78 JUMP JUMPDEST SWAP2 POP POP PUSH1 0x40 DUP4 ADD MLOAD PUSH2 0x1DA1 PUSH1 0x40 DUP7 ADD DUP3 PUSH2 0x1F67 JUMP JUMPDEST POP PUSH1 0x60 DUP4 ADD MLOAD PUSH2 0x1DB4 PUSH1 0x60 DUP7 ADD DUP3 PUSH2 0x1A62 JUMP JUMPDEST POP PUSH1 0x80 DUP4 ADD MLOAD PUSH2 0x1DC7 PUSH1 0x80 DUP7 ADD DUP3 PUSH2 0x1F67 JUMP JUMPDEST POP PUSH1 0xA0 DUP4 ADD MLOAD PUSH2 0x1DDA PUSH1 0xA0 DUP7 ADD DUP3 PUSH2 0x1F85 JUMP JUMPDEST POP DUP1 SWAP2 POP POP SWAP3 SWAP2 POP POP JUMP JUMPDEST PUSH1 0x0 PUSH1 0xC0 DUP4 ADD PUSH1 0x0 DUP1 DUP5 ADD SLOAD SWAP1 POP PUSH2 0x1DFC DUP2 PUSH2 0x24EE JUMP JUMPDEST PUSH2 0x1E09 PUSH1 0x0 DUP8 ADD DUP3 PUSH2 0x1F67 JUMP JUMPDEST POP PUSH1 0x1 DUP5 ADD DUP6 DUP4 SUB PUSH1 0x20 DUP8 ADD MSTORE PUSH2 0x1E20 DUP4 DUP3 PUSH2 0x1BEA JUMP JUMPDEST SWAP3 POP POP PUSH1 0x2 DUP5 ADD SLOAD SWAP1 POP PUSH2 0x1E33 DUP2 PUSH2 0x24EE JUMP JUMPDEST PUSH2 0x1E40 PUSH1 0x40 DUP8 ADD DUP3 PUSH2 0x1F67 JUMP JUMPDEST POP PUSH1 0x3 DUP5 ADD SLOAD SWAP1 POP PUSH2 0x1E51 DUP2 PUSH2 0x24D4 JUMP JUMPDEST PUSH2 0x1E5E PUSH1 0x60 DUP8 ADD DUP3 PUSH2 0x1A62 JUMP JUMPDEST POP PUSH1 0x4 DUP5 ADD SLOAD SWAP1 POP PUSH2 0x1E6F DUP2 PUSH2 0x24EE JUMP JUMPDEST PUSH2 0x1E7C PUSH1 0x80 DUP8 ADD DUP3 PUSH2 0x1F67 JUMP JUMPDEST POP PUSH1 0x5 DUP5 ADD SLOAD SWAP1 POP PUSH2 0x1E8D DUP2 PUSH2 0x2508 JUMP JUMPDEST PUSH2 0x1E9A PUSH1 0xA0 DUP8 ADD DUP3 PUSH2 0x1F85 JUMP JUMPDEST POP DUP2 SWAP3 POP POP POP SWAP3 SWAP2 POP POP JUMP JUMPDEST PUSH1 0x0 PUSH1 0xC0 DUP4 ADD PUSH1 0x0 DUP1 DUP5 ADD SLOAD SWAP1 POP PUSH2 0x1EBD DUP2 PUSH2 0x24EE JUMP JUMPDEST PUSH2 0x1ECA PUSH1 0x0 DUP8 ADD DUP3 PUSH2 0x1F67 JUMP JUMPDEST POP PUSH1 0x1 DUP5 ADD DUP6 DUP4 SUB PUSH1 0x20 DUP8 ADD MSTORE PUSH2 0x1EE1 DUP4 DUP3 PUSH2 0x1BEA JUMP JUMPDEST SWAP3 POP POP PUSH1 0x2 DUP5 ADD SLOAD SWAP1 POP PUSH2 0x1EF4 DUP2 PUSH2 0x24EE JUMP JUMPDEST PUSH2 0x1F01 PUSH1 0x40 DUP8 ADD DUP3 PUSH2 0x1F67 JUMP JUMPDEST POP PUSH1 0x3 DUP5 ADD SLOAD SWAP1 POP PUSH2 0x1F12 DUP2 PUSH2 0x24D4 JUMP JUMPDEST PUSH2 0x1F1F PUSH1 0x60 DUP8 ADD DUP3 PUSH2 0x1A62 JUMP JUMPDEST POP PUSH1 0x4 DUP5 ADD SLOAD SWAP1 POP PUSH2 0x1F30 DUP2 PUSH2 0x24EE JUMP JUMPDEST PUSH2 0x1F3D PUSH1 0x80 DUP8 ADD DUP3 PUSH2 0x1F67 JUMP JUMPDEST POP PUSH1 0x5 DUP5 ADD SLOAD SWAP1 POP PUSH2 0x1F4E DUP2 PUSH2 0x2508 JUMP JUMPDEST PUSH2 0x1F5B PUSH1 0xA0 DUP8 ADD DUP3 PUSH2 0x1F85 JUMP JUMPDEST POP DUP2 SWAP3 POP POP POP SWAP3 SWAP2 POP POP JUMP JUMPDEST PUSH2 0x1F70 DUP2 PUSH2 0x2410 JUMP JUMPDEST DUP3 MSTORE POP POP JUMP JUMPDEST PUSH2 0x1F7F DUP2 PUSH2 0x2410 JUMP JUMPDEST DUP3 MSTORE POP POP JUMP JUMPDEST PUSH2 0x1F8E DUP2 PUSH2 0x241A JUMP JUMPDEST DUP3 MSTORE POP POP JUMP JUMPDEST PUSH2 0x1F9D DUP2 PUSH2 0x241A JUMP JUMPDEST DUP3 MSTORE POP POP JUMP JUMPDEST PUSH1 0x0 PUSH1 0x60 DUP3 ADD SWAP1 POP PUSH2 0x1FB8 PUSH1 0x0 DUP4 ADD DUP7 PUSH2 0x1A71 JUMP JUMPDEST PUSH2 0x1FC5 PUSH1 0x20 DUP4 ADD DUP6 PUSH2 0x1A71 JUMP JUMPDEST PUSH2 0x1FD2 PUSH1 0x40 DUP4 ADD DUP5 PUSH2 0x1F76 JUMP JUMPDEST SWAP5 SWAP4 POP POP POP POP JUMP JUMPDEST PUSH1 0x0 PUSH1 0x20 DUP3 ADD SWAP1 POP DUP2 DUP2 SUB PUSH1 0x0 DUP4 ADD MSTORE PUSH2 0x1FF4 DUP2 DUP5 PUSH2 0x1A80 JUMP JUMPDEST SWAP1 POP SWAP3 SWAP2 POP POP JUMP JUMPDEST PUSH1 0x0 PUSH1 0x20 DUP3 ADD SWAP1 POP DUP2 DUP2 SUB PUSH1 0x0 DUP4 ADD MSTORE PUSH2 0x2016 DUP2 DUP5 PUSH2 0x1AF5 JUMP JUMPDEST SWAP1 POP SWAP3 SWAP2 POP POP JUMP JUMPDEST PUSH1 0x0 PUSH1 0x20 DUP3 ADD SWAP1 POP PUSH2 0x2033 PUSH1 0x0 DUP4 ADD DUP5 PUSH2 0x1B69 JUMP JUMPDEST SWAP3 SWAP2 POP POP JUMP JUMPDEST PUSH1 0x0 PUSH1 0x20 DUP3 ADD SWAP1 POP DUP2 DUP2 SUB PUSH1 0x0 DUP4 ADD MSTORE PUSH2 0x2052 DUP2 PUSH2 0x1C6A JUMP JUMPDEST SWAP1 POP SWAP2 SWAP1 POP JUMP JUMPDEST PUSH1 0x0 PUSH1 0x20 DUP3 ADD SWAP1 POP DUP2 DUP2 SUB PUSH1 0x0 DUP4 ADD MSTORE PUSH2 0x2072 DUP2 PUSH2 0x1C8D JUMP JUMPDEST SWAP1 POP SWAP2 SWAP1 POP JUMP JUMPDEST PUSH1 0x0 PUSH1 0x20 DUP3 ADD SWAP1 POP DUP2 DUP2 SUB PUSH1 0x0 DUP4 ADD MSTORE PUSH2 0x2092 DUP2 PUSH2 0x1CB0 JUMP JUMPDEST SWAP1 POP SWAP2 SWAP1 POP JUMP JUMPDEST PUSH1 0x0 PUSH1 0x20 DUP3 ADD SWAP1 POP DUP2 DUP2 SUB PUSH1 0x0 DUP4 ADD MSTORE PUSH2 0x20B3 DUP2 DUP5 PUSH2 0x1D5C JUMP JUMPDEST SWAP1 POP SWAP3 SWAP2 POP POP JUMP JUMPDEST PUSH1 0x0 PUSH1 0x20 DUP3 ADD SWAP1 POP PUSH2 0x20D0 PUSH1 0x0 DUP4 ADD DUP5 PUSH2 0x1F76 JUMP JUMPDEST SWAP3 SWAP2 POP POP JUMP JUMPDEST PUSH1 0x0 PUSH1 0x80 DUP3 ADD SWAP1 POP PUSH2 0x20EB PUSH1 0x0 DUP4 ADD DUP8 PUSH2 0x1F76 JUMP JUMPDEST DUP2 DUP2 SUB PUSH1 0x20 DUP4 ADD MSTORE PUSH2 0x20FD DUP2 DUP7 PUSH2 0x1BB1 JUMP JUMPDEST SWAP1 POP DUP2 DUP2 SUB PUSH1 0x40 DUP4 ADD MSTORE PUSH2 0x2111 DUP2 DUP6 PUSH2 0x1BB1 JUMP JUMPDEST SWAP1 POP PUSH2 0x2120 PUSH1 0x60 DUP4 ADD DUP5 PUSH2 0x1F76 JUMP JUMPDEST SWAP6 SWAP5 POP POP POP POP POP JUMP JUMPDEST PUSH1 0x0 PUSH1 0xC0 DUP3 ADD SWAP1 POP PUSH2 0x213E PUSH1 0x0 DUP4 ADD DUP10 PUSH2 0x1F76 JUMP JUMPDEST DUP2 DUP2 SUB PUSH1 0x20 DUP4 ADD MSTORE PUSH2 0x2150 DUP2 DUP9 PUSH2 0x1BB1 JUMP JUMPDEST SWAP1 POP PUSH2 0x215F PUSH1 0x40 DUP4 ADD DUP8 PUSH2 0x1F76 JUMP JUMPDEST PUSH2 0x216C PUSH1 0x60 DUP4 ADD DUP7 PUSH2 0x1A71 JUMP JUMPDEST PUSH2 0x2179 PUSH1 0x80 DUP4 ADD DUP6 PUSH2 0x1F76 JUMP JUMPDEST PUSH2 0x2186 PUSH1 0xA0 DUP4 ADD DUP5 PUSH2 0x1F94 JUMP JUMPDEST SWAP8 SWAP7 POP POP POP POP POP POP POP JUMP JUMPDEST PUSH1 0x0 PUSH1 0x40 DUP3 ADD SWAP1 POP PUSH2 0x21A6 PUSH1 0x0 DUP4 ADD DUP6 PUSH2 0x1F76 JUMP JUMPDEST DUP2 DUP2 SUB PUSH1 0x20 DUP4 ADD MSTORE PUSH2 0x21B8 DUP2 DUP5 PUSH2 0x1EA6 JUMP JUMPDEST SWAP1 POP SWAP4 SWAP3 POP POP POP JUMP JUMPDEST PUSH1 0x0 PUSH1 0x40 DUP3 ADD SWAP1 POP PUSH2 0x21D6 PUSH1 0x0 DUP4 ADD DUP6 PUSH2 0x1F76 JUMP JUMPDEST PUSH2 0x21E3 PUSH1 0x20 DUP4 ADD DUP5 PUSH2 0x1F76 JUMP JUMPDEST SWAP4 SWAP3 POP POP POP JUMP JUMPDEST PUSH1 0x0 PUSH1 0xA0 DUP3 ADD SWAP1 POP PUSH2 0x21FF PUSH1 0x0 DUP4 ADD DUP9 PUSH2 0x1F76 JUMP JUMPDEST PUSH2 0x220C PUSH1 0x20 DUP4 ADD DUP8 PUSH2 0x1F76 JUMP JUMPDEST DUP2 DUP2 SUB PUSH1 0x40 DUP4 ADD MSTORE PUSH2 0x221E DUP2 DUP7 PUSH2 0x1BB1 JUMP JUMPDEST SWAP1 POP PUSH2 0x222D PUSH1 0x60 DUP4 ADD DUP6 PUSH2 0x1F94 JUMP JUMPDEST PUSH2 0x223A PUSH1 0x80 DUP4 ADD DUP5 PUSH2 0x1F76 JUMP JUMPDEST SWAP7 SWAP6 POP POP POP POP POP POP JUMP JUMPDEST PUSH1 0x0 PUSH2 0x224E PUSH2 0x225F JUMP JUMPDEST SWAP1 POP PUSH2 0x225A DUP3 DUP3 PUSH2 0x2522 JUMP JUMPDEST SWAP2 SWAP1 POP JUMP JUMPDEST PUSH1 0x0 PUSH1 0x40 MLOAD SWAP1 POP SWAP1 JUMP JUMPDEST PUSH1 0x0 PUSH8 0xFFFFFFFFFFFFFFFF DUP3 GT ISZERO PUSH2 0x2284 JUMPI PUSH2 0x2283 PUSH2 0x25FA JUMP JUMPDEST JUMPDEST PUSH2 0x228D DUP3 PUSH2 0x263D JUMP JUMPDEST SWAP1 POP PUSH1 0x20 DUP2 ADD SWAP1 POP SWAP2 SWAP1 POP JUMP JUMPDEST PUSH1 0x0 DUP2 SWAP1 POP PUSH1 0x20 DUP3 ADD SWAP1 POP SWAP2 SWAP1 POP JUMP JUMPDEST PUSH1 0x0 DUP2 SWAP1 POP DUP2 PUSH1 0x0 MSTORE PUSH1 0x20 PUSH1 0x0 KECCAK256 SWAP1 POP SWAP2 SWAP1 POP JUMP JUMPDEST PUSH1 0x0 DUP2 SWAP1 POP DUP2 PUSH1 0x0 MSTORE PUSH1 0x20 PUSH1 0x0 KECCAK256 SWAP1 POP SWAP2 SWAP1 POP JUMP JUMPDEST PUSH1 0x0 DUP2 MLOAD SWAP1 POP SWAP2 SWAP1 POP JUMP JUMPDEST PUSH1 0x0 DUP2 SLOAD SWAP1 POP SWAP2 SWAP1 POP JUMP JUMPDEST PUSH1 0x0 DUP2 MLOAD SWAP1 POP SWAP2 SWAP1 POP JUMP JUMPDEST PUSH1 0x0 PUSH1 0x20 DUP3 ADD SWAP1 POP SWAP2 SWAP1 POP JUMP JUMPDEST PUSH1 0x0 PUSH1 0x6 DUP3 ADD SWAP1 POP SWAP2 SWAP1 POP JUMP JUMPDEST PUSH1 0x0 DUP3 DUP3 MSTORE PUSH1 0x20 DUP3 ADD SWAP1 POP SWAP3 SWAP2 POP POP JUMP JUMPDEST PUSH1 0x0 DUP3 DUP3 MSTORE PUSH1 0x20 DUP3 ADD SWAP1 POP SWAP3 SWAP2 POP POP JUMP JUMPDEST PUSH1 0x0 DUP3 DUP3 MSTORE PUSH1 0x20 DUP3 ADD SWAP1 POP SWAP3 SWAP2 POP POP JUMP JUMPDEST PUSH1 0x0 PUSH2 0x234D DUP3 PUSH2 0x2410 JUMP JUMPDEST SWAP2 POP PUSH2 0x2358 DUP4 PUSH2 0x2410 JUMP JUMPDEST SWAP3 POP DUP3 PUSH32 0xFFFFFFFFFFFFFFFFFFFFFFFFFFFFFFFFFFFFFFFFFFFFFFFFFFFFFFFFFFFFFFFF SUB DUP3 GT ISZERO PUSH2 0x238D JUMPI PUSH2 0x238C PUSH2 0x259C JUMP JUMPDEST JUMPDEST DUP3 DUP3 ADD SWAP1 POP SWAP3 SWAP2 POP POP JUMP JUMPDEST PUSH1 0x0 PUSH20 0xFFFFFFFFFFFFFFFFFFFFFFFFFFFFFFFFFFFFFFFF DUP3 AND SWAP1 POP SWAP2 SWAP1 POP JUMP JUMPDEST PUSH1 0x0 DUP2 SWAP1 POP SWAP2 SWAP1 POP JUMP JUMPDEST PUSH1 0x0 PUSH4 0xFFFFFFFF DUP3 AND SWAP1 POP SWAP2 SWAP1 POP JUMP JUMPDEST PUSH1 0x0 PUSH2 0x23DD DUP3 PUSH2 0x23F0 JUMP JUMPDEST SWAP1 POP SWAP2 SWAP1 POP JUMP JUMPDEST PUSH1 0x0 DUP2 ISZERO ISZERO SWAP1 POP SWAP2 SWAP1 POP JUMP JUMPDEST PUSH1 0x0 PUSH20 0xFFFFFFFFFFFFFFFFFFFFFFFFFFFFFFFFFFFFFFFF DUP3 AND SWAP1 POP SWAP2 SWAP1 POP JUMP JUMPDEST PUSH1 0x0 DUP2 SWAP1 POP SWAP2 SWAP1 POP JUMP JUMPDEST PUSH1 0x0 PUSH4 0xFFFFFFFF DUP3 AND SWAP1 POP SWAP2 SWAP1 POP JUMP JUMPDEST PUSH1 0x0 PUSH2 0x2435 DUP3 PUSH2 0x243C JUMP JUMPDEST SWAP1 POP SWAP2 SWAP1 POP JUMP JUMPDEST PUSH1 0x0 PUSH2 0x2447 DUP3 PUSH2 0x244E JUMP JUMPDEST SWAP1 POP SWAP2 SWAP1 POP JUMP JUMPDEST PUSH1 0x0 PUSH2 0x2459 DUP3 PUSH2 0x23F0 JUMP JUMPDEST SWAP1 POP SWAP2 SWAP1 POP JUMP JUMPDEST DUP3 DUP2 DUP4 CALLDATACOPY PUSH1 0x0 DUP4 DUP4 ADD MSTORE POP POP POP JUMP JUMPDEST PUSH1 0x0 JUMPDEST DUP4 DUP2 LT ISZERO PUSH2 0x248D JUMPI DUP1 DUP3 ADD MLOAD DUP2 DUP5 ADD MSTORE PUSH1 0x20 DUP2 ADD SWAP1 POP PUSH2 0x2472 JUMP JUMPDEST DUP4 DUP2 GT ISZERO PUSH2 0x249C JUMPI PUSH1 0x0 DUP5 DUP5 ADD MSTORE JUMPDEST POP POP POP POP JUMP JUMPDEST PUSH1 0x0 PUSH1 0x2 DUP3 DIV SWAP1 POP PUSH1 0x1 DUP3 AND DUP1 PUSH2 0x24BA JUMPI PUSH1 0x7F DUP3 AND SWAP2 POP JUMPDEST PUSH1 0x20 DUP3 LT DUP2 EQ ISZERO PUSH2 0x24CE JUMPI PUSH2 0x24CD PUSH2 0x25CB JUMP JUMPDEST JUMPDEST POP SWAP2 SWAP1 POP JUMP JUMPDEST PUSH1 0x0 PUSH2 0x24E7 PUSH2 0x24E2 DUP4 PUSH2 0x264E JUMP JUMPDEST PUSH2 0x2398 JUMP JUMPDEST SWAP1 POP SWAP2 SWAP1 POP JUMP JUMPDEST PUSH1 0x0 PUSH2 0x2501 PUSH2 0x24FC DUP4 PUSH2 0x264E JUMP JUMPDEST PUSH2 0x23B8 JUMP JUMPDEST SWAP1 POP SWAP2 SWAP1 POP JUMP JUMPDEST PUSH1 0x0 PUSH2 0x251B PUSH2 0x2516 DUP4 PUSH2 0x264E JUMP JUMPDEST PUSH2 0x23C2 JUMP JUMPDEST SWAP1 POP SWAP2 SWAP1 POP JUMP JUMPDEST PUSH2 0x252B DUP3 PUSH2 0x263D JUMP JUMPDEST DUP2 ADD DUP2 DUP2 LT PUSH8 0xFFFFFFFFFFFFFFFF DUP3 GT OR ISZERO PUSH2 0x254A JUMPI PUSH2 0x2549 PUSH2 0x25FA JUMP JUMPDEST JUMPDEST DUP1 PUSH1 0x40 MSTORE POP POP POP JUMP JUMPDEST PUSH1 0x0 PUSH2 0x255E DUP3 PUSH2 0x2410 JUMP JUMPDEST SWAP2 POP PUSH32 0xFFFFFFFFFFFFFFFFFFFFFFFFFFFFFFFFFFFFFFFFFFFFFFFFFFFFFFFFFFFFFFFF DUP3 EQ ISZERO PUSH2 0x2591 JUMPI PUSH2 0x2590 PUSH2 0x259C JUMP JUMPDEST JUMPDEST PUSH1 0x1 DUP3 ADD SWAP1 POP SWAP2 SWAP1 POP JUMP JUMPDEST PUSH32 0x4E487B7100000000000000000000000000000000000000000000000000000000 PUSH1 0x0 MSTORE PUSH1 0x11 PUSH1 0x4 MSTORE PUSH1 0x24 PUSH1 0x0 REVERT JUMPDEST PUSH32 0x4E487B7100000000000000000000000000000000000000000000000000000000 PUSH1 0x0 MSTORE PUSH1 0x22 PUSH1 0x4 MSTORE PUSH1 0x24 PUSH1 0x0 REVERT JUMPDEST PUSH32 0x4E487B7100000000000000000000000000000000000000000000000000000000 PUSH1 0x0 MSTORE PUSH1 0x41 PUSH1 0x4 MSTORE PUSH1 0x24 PUSH1 0x0 REVERT JUMPDEST PUSH1 0x0 DUP1 REVERT JUMPDEST PUSH1 0x0 DUP1 REVERT JUMPDEST PUSH1 0x0 DUP1 REVERT JUMPDEST PUSH1 0x0 DUP1 REVERT JUMPDEST PUSH1 0x0 PUSH1 0x1F NOT PUSH1 0x1F DUP4 ADD AND SWAP1 POP SWAP2 SWAP1 POP JUMP JUMPDEST PUSH1 0x0 DUP2 PUSH1 0x0 SHR SWAP1 POP SWAP2 SWAP1 POP JUMP JUMPDEST PUSH32 0x546865726520617265206E6F2070726F647563747320746F206C697374207965 PUSH1 0x0 DUP3 ADD MSTORE PUSH32 0x7421000000000000000000000000000000000000000000000000000000000000 PUSH1 0x20 DUP3 ADD MSTORE POP JUMP JUMPDEST PUSH32 0x5468657265206973206E6F2073756368206974656D207265636F726421000000 PUSH1 0x0 DUP3 ADD MSTORE POP JUMP JUMPDEST PUSH32 0x5468652073616C65206861732065787069726564210000000000000000000000 PUSH1 0x0 DUP3 ADD MSTORE POP JUMP JUMPDEST PUSH2 0x2705 DUP2 PUSH2 0x23D2 JUMP JUMPDEST DUP2 EQ PUSH2 0x2710 JUMPI PUSH1 0x0 DUP1 REVERT JUMPDEST POP JUMP JUMPDEST PUSH2 0x271C DUP2 PUSH2 0x23E4 JUMP JUMPDEST DUP2 EQ PUSH2 0x2727 JUMPI PUSH1 0x0 DUP1 REVERT JUMPDEST POP JUMP JUMPDEST PUSH2 0x2733 DUP2 PUSH2 0x2410 JUMP JUMPDEST DUP2 EQ PUSH2 0x273E JUMPI PUSH1 0x0 DUP1 REVERT JUMPDEST POP JUMP JUMPDEST PUSH2 0x274A DUP2 PUSH2 0x241A JUMP JUMPDEST DUP2 EQ PUSH2 0x2755 JUMPI PUSH1 0x0 DUP1 REVERT JUMPDEST POP JUMP INVALID LOG2 PUSH5 0x6970667358 0x22 SLT KECCAK256 0x24 LT ADD MSTORE BYTE 0xA6 0xCC CODECOPY SELFBALANCE CALLDATACOPY 0xB7 MSTORE8 0xF CALLDATASIZE 0xCA CALL PUSH16 0xB060B8A403E7199C2A71C9FA6941D764 PUSH20 0x6F6C634300080700330000000000000000000000 "
				},
				"gasEstimates": {
					"creation": {
						"codeDepositCost": "2025200",
						"executionCost": "infinite",
						"totalCost": "infinite"
					},
					"external": {
						"addStar(uint256)": "infinite",
						"cancelSaleAdvert(uint256)": "infinite",
						"createSaleAdvert(uint256,string,uint32)": "infinite",
						"getEntireItems()": "infinite",
						"getItemById(uint256)": "infinite",
						"itemList(uint256)": "infinite",
						"items(uint256)": "infinite",
						"itemsOfUsers(uint256,address)": "infinite",
						"payment(uint256,uint256)": "infinite",
						"token()": "2707",
						"users(address)": "infinite"
					}
				},
				"methodIdentifiers": {
					"addStar(uint256)": "01750e74",
					"cancelSaleAdvert(uint256)": "ca095a83",
					"createSaleAdvert(uint256,string,uint32)": "4efd1797",
					"getEntireItems()": "5d9eb55c",
					"getItemById(uint256)": "cd2f0710",
					"itemList(uint256)": "3d4d3600",
					"items(uint256)": "bfb231d2",
					"itemsOfUsers(uint256,address)": "e2870aa9",
					"payment(uint256,uint256)": "2f63147f",
					"token()": "fc0c546a",
					"users(address)": "a87430ba"
				}
			},
			"storageLayout": {
				"storage": [
					{
						"astId": 821,
						"contract": "contracts/SwapCart.sol:SwapCart",
						"label": "token",
						"offset": 0,
						"slot": "0",
						"type": "t_contract(IERC20)663"
					},
					{
						"astId": 825,
						"contract": "contracts/SwapCart.sol:SwapCart",
						"label": "itemList",
						"offset": 0,
						"slot": "1",
						"type": "t_array(t_struct(Item)801_storage)dyn_storage"
					},
					{
						"astId": 830,
						"contract": "contracts/SwapCart.sol:SwapCart",
						"label": "users",
						"offset": 0,
						"slot": "2",
						"type": "t_mapping(t_address,t_struct(User)818_storage)"
					},
					{
						"astId": 835,
						"contract": "contracts/SwapCart.sol:SwapCart",
						"label": "items",
						"offset": 0,
						"slot": "3",
						"type": "t_mapping(t_uint256,t_struct(Item)801_storage)"
					},
					{
						"astId": 841,
						"contract": "contracts/SwapCart.sol:SwapCart",
						"label": "itemsOfUsers",
						"offset": 0,
						"slot": "4",
						"type": "t_mapping(t_uint256,t_mapping(t_address,t_uint256))"
					},
					{
						"astId": 848,
						"contract": "contracts/SwapCart.sol:SwapCart",
						"label": "itemCounter",
						"offset": 0,
						"slot": "5",
						"type": "t_struct(Counter)716_storage"
					}
				],
				"types": {
					"t_address": {
						"encoding": "inplace",
						"label": "address",
						"numberOfBytes": "20"
					},
					"t_array(t_struct(Item)801_storage)dyn_storage": {
						"base": "t_struct(Item)801_storage",
						"encoding": "dynamic_array",
						"label": "struct SwapCart.Item[]",
						"numberOfBytes": "32"
					},
					"t_contract(IERC20)663": {
						"encoding": "inplace",
						"label": "contract IERC20",
						"numberOfBytes": "20"
					},
					"t_mapping(t_address,t_struct(User)818_storage)": {
						"encoding": "mapping",
						"key": "t_address",
						"label": "mapping(address => struct SwapCart.User)",
						"numberOfBytes": "32",
						"value": "t_struct(User)818_storage"
					},
					"t_mapping(t_address,t_uint256)": {
						"encoding": "mapping",
						"key": "t_address",
						"label": "mapping(address => uint256)",
						"numberOfBytes": "32",
						"value": "t_uint256"
					},
					"t_mapping(t_uint256,t_mapping(t_address,t_uint256))": {
						"encoding": "mapping",
						"key": "t_uint256",
						"label": "mapping(uint256 => mapping(address => uint256))",
						"numberOfBytes": "32",
						"value": "t_mapping(t_address,t_uint256)"
					},
					"t_mapping(t_uint256,t_struct(Item)801_storage)": {
						"encoding": "mapping",
						"key": "t_uint256",
						"label": "mapping(uint256 => struct SwapCart.Item)",
						"numberOfBytes": "32",
						"value": "t_struct(Item)801_storage"
					},
					"t_string_storage": {
						"encoding": "bytes",
						"label": "string",
						"numberOfBytes": "32"
					},
					"t_struct(Counter)716_storage": {
						"encoding": "inplace",
						"label": "struct Counters.Counter",
						"members": [
							{
								"astId": 715,
								"contract": "contracts/SwapCart.sol:SwapCart",
								"label": "_value",
								"offset": 0,
								"slot": "0",
								"type": "t_uint256"
							}
						],
						"numberOfBytes": "32"
					},
					"t_struct(Item)801_storage": {
						"encoding": "inplace",
						"label": "struct SwapCart.Item",
						"members": [
							{
								"astId": 790,
								"contract": "contracts/SwapCart.sol:SwapCart",
								"label": "itemId",
								"offset": 0,
								"slot": "0",
								"type": "t_uint256"
							},
							{
								"astId": 792,
								"contract": "contracts/SwapCart.sol:SwapCart",
								"label": "itemImage",
								"offset": 0,
								"slot": "1",
								"type": "t_string_storage"
							},
							{
								"astId": 794,
								"contract": "contracts/SwapCart.sol:SwapCart",
								"label": "star",
								"offset": 0,
								"slot": "2",
								"type": "t_uint256"
							},
							{
								"astId": 796,
								"contract": "contracts/SwapCart.sol:SwapCart",
								"label": "seller",
								"offset": 0,
								"slot": "3",
								"type": "t_address"
							},
							{
								"astId": 798,
								"contract": "contracts/SwapCart.sol:SwapCart",
								"label": "price",
								"offset": 0,
								"slot": "4",
								"type": "t_uint256"
							},
							{
								"astId": 800,
								"contract": "contracts/SwapCart.sol:SwapCart",
								"label": "dueDate",
								"offset": 0,
								"slot": "5",
								"type": "t_uint32"
							}
						],
						"numberOfBytes": "192"
					},
					"t_struct(User)818_storage": {
						"encoding": "inplace",
						"label": "struct SwapCart.User",
						"members": [
							{
								"astId": 803,
								"contract": "contracts/SwapCart.sol:SwapCart",
								"label": "userID",
								"offset": 0,
								"slot": "0",
								"type": "t_uint256"
							},
							{
								"astId": 805,
								"contract": "contracts/SwapCart.sol:SwapCart",
								"label": "userName",
								"offset": 0,
								"slot": "1",
								"type": "t_string_storage"
							},
							{
								"astId": 807,
								"contract": "contracts/SwapCart.sol:SwapCart",
								"label": "deliveryAddress",
								"offset": 0,
								"slot": "2",
								"type": "t_string_storage"
							},
							{
								"astId": 811,
								"contract": "contracts/SwapCart.sol:SwapCart",
								"label": "cart",
								"offset": 0,
								"slot": "3",
								"type": "t_array(t_struct(Item)801_storage)dyn_storage"
							},
							{
								"astId": 815,
								"contract": "contracts/SwapCart.sol:SwapCart",
								"label": "inventory",
								"offset": 0,
								"slot": "4",
								"type": "t_array(t_struct(Item)801_storage)dyn_storage"
							},
							{
								"astId": 817,
								"contract": "contracts/SwapCart.sol:SwapCart",
								"label": "balance",
								"offset": 0,
								"slot": "5",
								"type": "t_uint256"
							}
						],
						"numberOfBytes": "192"
					},
					"t_uint256": {
						"encoding": "inplace",
						"label": "uint256",
						"numberOfBytes": "32"
					},
					"t_uint32": {
						"encoding": "inplace",
						"label": "uint32",
						"numberOfBytes": "4"
					}
				}
			},
			"userdoc": {
				"kind": "user",
				"methods": {},
				"version": 1
			}
		}
	}
}