{
	"contracts/SwapCart.sol": {
		"SwapCart": {
			"abi": [
				{
					"inputs": [
						{
							"internalType": "address",
							"name": "_token",
							"type": "address"
						}
					],
					"stateMutability": "nonpayable",
					"type": "constructor"
				},
				{
					"anonymous": false,
					"inputs": [
						{
							"indexed": false,
							"internalType": "uint256",
							"name": "itmId",
							"type": "uint256"
						},
						{
							"indexed": false,
							"internalType": "uint256",
							"name": "itmStar",
							"type": "uint256"
						},
						{
							"indexed": true,
							"internalType": "address",
							"name": "caller",
							"type": "address"
						}
					],
					"name": "AddStar",
					"type": "event"
				},
				{
					"anonymous": false,
					"inputs": [
						{
							"indexed": false,
							"internalType": "uint256",
							"name": "id",
							"type": "uint256"
						},
						{
							"indexed": false,
							"internalType": "uint256",
							"name": "price",
							"type": "uint256"
						},
						{
							"indexed": false,
							"internalType": "string",
							"name": "image",
							"type": "string"
						},
						{
							"indexed": false,
							"internalType": "uint32",
							"name": "dueDate",
							"type": "uint32"
						},
						{
							"indexed": false,
							"internalType": "uint256",
							"name": "star",
							"type": "uint256"
						},
						{
							"indexed": true,
							"internalType": "address",
							"name": "seller",
							"type": "address"
						}
					],
					"name": "CreateSaleAdvert",
					"type": "event"
				},
				{
					"anonymous": false,
					"inputs": [
						{
							"components": [
								{
									"internalType": "uint256",
									"name": "itemId",
									"type": "uint256"
								},
								{
									"internalType": "string",
									"name": "itemImage",
									"type": "string"
								},
								{
									"internalType": "uint256",
									"name": "star",
									"type": "uint256"
								},
								{
									"internalType": "address",
									"name": "seller",
									"type": "address"
								},
								{
									"internalType": "uint256",
									"name": "price",
									"type": "uint256"
								},
								{
									"internalType": "uint32",
									"name": "dueDate",
									"type": "uint32"
								}
							],
							"indexed": false,
							"internalType": "struct SwapCart.Item[]",
							"name": "listOfItems",
							"type": "tuple[]"
						},
						{
							"indexed": true,
							"internalType": "address",
							"name": "caller",
							"type": "address"
						}
					],
					"name": "GetEntireItems",
					"type": "event"
				},
				{
					"inputs": [
						{
							"internalType": "uint256",
							"name": "itmId",
							"type": "uint256"
						}
					],
					"name": "addStar",
					"outputs": [],
					"stateMutability": "nonpayable",
					"type": "function"
				},
				{
					"inputs": [
						{
							"internalType": "uint256",
							"name": "itmPrice",
							"type": "uint256"
						},
						{
							"internalType": "string",
							"name": "itmImage",
							"type": "string"
						},
						{
							"internalType": "uint32",
							"name": "itmDueDate",
							"type": "uint32"
						}
					],
					"name": "createSaleAdvert",
					"outputs": [],
					"stateMutability": "nonpayable",
					"type": "function"
				},
				{
					"inputs": [],
					"name": "getEntireItems",
					"outputs": [
						{
							"components": [
								{
									"internalType": "uint256",
									"name": "itemId",
									"type": "uint256"
								},
								{
									"internalType": "string",
									"name": "itemImage",
									"type": "string"
								},
								{
									"internalType": "uint256",
									"name": "star",
									"type": "uint256"
								},
								{
									"internalType": "address",
									"name": "seller",
									"type": "address"
								},
								{
									"internalType": "uint256",
									"name": "price",
									"type": "uint256"
								},
								{
									"internalType": "uint32",
									"name": "dueDate",
									"type": "uint32"
								}
							],
							"internalType": "struct SwapCart.Item[]",
							"name": "",
							"type": "tuple[]"
						}
					],
					"stateMutability": "nonpayable",
					"type": "function"
				},
				{
					"inputs": [
						{
							"internalType": "uint256",
							"name": "itmId",
							"type": "uint256"
						}
					],
					"name": "getItemById",
					"outputs": [
						{
							"components": [
								{
									"internalType": "uint256",
									"name": "itemId",
									"type": "uint256"
								},
								{
									"internalType": "string",
									"name": "itemImage",
									"type": "string"
								},
								{
									"internalType": "uint256",
									"name": "star",
									"type": "uint256"
								},
								{
									"internalType": "address",
									"name": "seller",
									"type": "address"
								},
								{
									"internalType": "uint256",
									"name": "price",
									"type": "uint256"
								},
								{
									"internalType": "uint32",
									"name": "dueDate",
									"type": "uint32"
								}
							],
							"internalType": "struct SwapCart.Item",
							"name": "",
							"type": "tuple"
						}
					],
					"stateMutability": "view",
					"type": "function"
				},
				{
					"inputs": [
						{
							"internalType": "uint256",
							"name": "",
							"type": "uint256"
						}
					],
					"name": "itemList",
					"outputs": [
						{
							"internalType": "uint256",
							"name": "itemId",
							"type": "uint256"
						},
						{
							"internalType": "string",
							"name": "itemImage",
							"type": "string"
						},
						{
							"internalType": "uint256",
							"name": "star",
							"type": "uint256"
						},
						{
							"internalType": "address",
							"name": "seller",
							"type": "address"
						},
						{
							"internalType": "uint256",
							"name": "price",
							"type": "uint256"
						},
						{
							"internalType": "uint32",
							"name": "dueDate",
							"type": "uint32"
						}
					],
					"stateMutability": "view",
					"type": "function"
				},
				{
					"inputs": [
						{
							"internalType": "uint256",
							"name": "",
							"type": "uint256"
						}
					],
					"name": "items",
					"outputs": [
						{
							"internalType": "uint256",
							"name": "itemId",
							"type": "uint256"
						},
						{
							"internalType": "string",
							"name": "itemImage",
							"type": "string"
						},
						{
							"internalType": "uint256",
							"name": "star",
							"type": "uint256"
						},
						{
							"internalType": "address",
							"name": "seller",
							"type": "address"
						},
						{
							"internalType": "uint256",
							"name": "price",
							"type": "uint256"
						},
						{
							"internalType": "uint32",
							"name": "dueDate",
							"type": "uint32"
						}
					],
					"stateMutability": "view",
					"type": "function"
				},
				{
					"inputs": [],
					"name": "token",
					"outputs": [
						{
							"internalType": "contract IERC20",
							"name": "",
							"type": "address"
						}
					],
					"stateMutability": "view",
					"type": "function"
				},
				{
					"inputs": [
						{
							"internalType": "address",
							"name": "",
							"type": "address"
						}
					],
					"name": "users",
					"outputs": [
						{
							"internalType": "uint256",
							"name": "userID",
							"type": "uint256"
						},
						{
							"internalType": "string",
							"name": "userName",
							"type": "string"
						},
						{
							"internalType": "string",
							"name": "deliveryAddress",
							"type": "string"
						},
						{
							"internalType": "uint256",
							"name": "balance",
							"type": "uint256"
						}
					],
					"stateMutability": "view",
					"type": "function"
				}
			],
			"devdoc": {
				"kind": "dev",
				"methods": {},
				"version": 1
			},
			"evm": {
				"assembly": "    /* \"contracts/SwapCart.sol\":172:4020  contract SwapCart{\r... */\n  mstore(0x40, 0x80)\n    /* \"contracts/SwapCart.sol\":783:851  constructor(address _token){\r... */\n  callvalue\n  dup1\n  iszero\n  tag_1\n  jumpi\n  0x00\n  dup1\n  revert\ntag_1:\n  pop\n  mload(0x40)\n  sub(codesize, bytecodeSize)\n  dup1\n  bytecodeSize\n  dup4\n  codecopy\n  dup2\n  dup2\n  add\n  0x40\n  mstore\n  dup2\n  add\n  swap1\n  tag_2\n  swap2\n  swap1\n  tag_3\n  jump\t// in\ntag_2:\n    /* \"contracts/SwapCart.sol\":836:842  _token */\n  dup1\n    /* \"contracts/SwapCart.sol\":821:826  token */\n  0x00\n  dup1\n    /* \"contracts/SwapCart.sol\":821:843  token = IERC20(_token) */\n  0x0100\n  exp\n  dup2\n  sload\n  dup2\n  0xffffffffffffffffffffffffffffffffffffffff\n  mul\n  not\n  and\n  swap1\n  dup4\n  0xffffffffffffffffffffffffffffffffffffffff\n  and\n  mul\n  or\n  swap1\n  sstore\n  pop\n    /* \"contracts/SwapCart.sol\":783:851  constructor(address _token){\r... */\n  pop\n    /* \"contracts/SwapCart.sol\":172:4020  contract SwapCart{\r... */\n  jump(tag_6)\n    /* \"#utility.yul\":7:150   */\ntag_8:\n    /* \"#utility.yul\":64:69   */\n  0x00\n    /* \"#utility.yul\":95:101   */\n  dup2\n    /* \"#utility.yul\":89:102   */\n  mload\n    /* \"#utility.yul\":80:102   */\n  swap1\n  pop\n    /* \"#utility.yul\":111:144   */\n  tag_10\n    /* \"#utility.yul\":138:143   */\n  dup2\n    /* \"#utility.yul\":111:144   */\n  tag_11\n  jump\t// in\ntag_10:\n    /* \"#utility.yul\":7:150   */\n  swap3\n  swap2\n  pop\n  pop\n  jump\t// out\n    /* \"#utility.yul\":156:507   */\ntag_3:\n    /* \"#utility.yul\":226:232   */\n  0x00\n    /* \"#utility.yul\":275:277   */\n  0x20\n    /* \"#utility.yul\":263:272   */\n  dup3\n    /* \"#utility.yul\":254:261   */\n  dup5\n    /* \"#utility.yul\":250:273   */\n  sub\n    /* \"#utility.yul\":246:278   */\n  slt\n    /* \"#utility.yul\":243:362   */\n  iszero\n  tag_13\n  jumpi\n    /* \"#utility.yul\":281:360   */\n  tag_14\n  tag_15\n  jump\t// in\ntag_14:\n    /* \"#utility.yul\":243:362   */\ntag_13:\n    /* \"#utility.yul\":401:402   */\n  0x00\n    /* \"#utility.yul\":426:490   */\n  tag_16\n    /* \"#utility.yul\":482:489   */\n  dup5\n    /* \"#utility.yul\":473:479   */\n  dup3\n    /* \"#utility.yul\":462:471   */\n  dup6\n    /* \"#utility.yul\":458:480   */\n  add\n    /* \"#utility.yul\":426:490   */\n  tag_8\n  jump\t// in\ntag_16:\n    /* \"#utility.yul\":416:490   */\n  swap2\n  pop\n    /* \"#utility.yul\":372:500   */\n  pop\n    /* \"#utility.yul\":156:507   */\n  swap3\n  swap2\n  pop\n  pop\n  jump\t// out\n    /* \"#utility.yul\":594:690   */\ntag_19:\n    /* \"#utility.yul\":631:638   */\n  0x00\n    /* \"#utility.yul\":660:684   */\n  tag_21\n    /* \"#utility.yul\":678:683   */\n  dup3\n    /* \"#utility.yul\":660:684   */\n  tag_22\n  jump\t// in\ntag_21:\n    /* \"#utility.yul\":649:684   */\n  swap1\n  pop\n    /* \"#utility.yul\":594:690   */\n  swap2\n  swap1\n  pop\n  jump\t// out\n    /* \"#utility.yul\":696:822   */\ntag_22:\n    /* \"#utility.yul\":733:740   */\n  0x00\n    /* \"#utility.yul\":773:815   */\n  0xffffffffffffffffffffffffffffffffffffffff\n    /* \"#utility.yul\":766:771   */\n  dup3\n    /* \"#utility.yul\":762:816   */\n  and\n    /* \"#utility.yul\":751:816   */\n  swap1\n  pop\n    /* \"#utility.yul\":696:822   */\n  swap2\n  swap1\n  pop\n  jump\t// out\n    /* \"#utility.yul\":951:1068   */\ntag_15:\n    /* \"#utility.yul\":1060:1061   */\n  0x00\n    /* \"#utility.yul\":1057:1058   */\n  dup1\n    /* \"#utility.yul\":1050:1062   */\n  revert\n    /* \"#utility.yul\":1074:1196   */\ntag_11:\n    /* \"#utility.yul\":1147:1171   */\n  tag_28\n    /* \"#utility.yul\":1165:1170   */\n  dup2\n    /* \"#utility.yul\":1147:1171   */\n  tag_19\n  jump\t// in\ntag_28:\n    /* \"#utility.yul\":1140:1145   */\n  dup2\n    /* \"#utility.yul\":1137:1172   */\n  eq\n    /* \"#utility.yul\":1127:1190   */\n  tag_29\n  jumpi\n    /* \"#utility.yul\":1186:1187   */\n  0x00\n    /* \"#utility.yul\":1183:1184   */\n  dup1\n    /* \"#utility.yul\":1176:1188   */\n  revert\n    /* \"#utility.yul\":1127:1190   */\ntag_29:\n    /* \"#utility.yul\":1074:1196   */\n  pop\n  jump\t// out\n    /* \"contracts/SwapCart.sol\":172:4020  contract SwapCart{\r... */\ntag_6:\n  dataSize(sub_0)\n  dup1\n  dataOffset(sub_0)\n  0x00\n  codecopy\n  0x00\n  return\nstop\n\nsub_0: assembly {\n        /* \"contracts/SwapCart.sol\":172:4020  contract SwapCart{\r... */\n      mstore(0x40, 0x80)\n      callvalue\n      dup1\n      iszero\n      tag_1\n      jumpi\n      0x00\n      dup1\n      revert\n    tag_1:\n      pop\n      jumpi(tag_2, lt(calldatasize, 0x04))\n      shr(0xe0, calldataload(0x00))\n      dup1\n      0xa87430ba\n      gt\n      tag_11\n      jumpi\n      dup1\n      0xa87430ba\n      eq\n      tag_7\n      jumpi\n      dup1\n      0xbfb231d2\n      eq\n      tag_8\n      jumpi\n      dup1\n      0xcd2f0710\n      eq\n      tag_9\n      jumpi\n      dup1\n      0xfc0c546a\n      eq\n      tag_10\n      jumpi\n      jump(tag_2)\n    tag_11:\n      dup1\n      0x01750e74\n      eq\n      tag_3\n      jumpi\n      dup1\n      0x3d4d3600\n      eq\n      tag_4\n      jumpi\n      dup1\n      0x4efd1797\n      eq\n      tag_5\n      jumpi\n      dup1\n      0x5d9eb55c\n      eq\n      tag_6\n      jumpi\n    tag_2:\n      0x00\n      dup1\n      revert\n        /* \"contracts/SwapCart.sol\":3711:3875  function addStar(uint itmId) public buyerCheck(items[itmId].seller){\r... */\n    tag_3:\n      tag_12\n      0x04\n      dup1\n      calldatasize\n      sub\n      dup2\n      add\n      swap1\n      tag_13\n      swap2\n      swap1\n      tag_14\n      jump\t// in\n    tag_13:\n      tag_15\n      jump\t// in\n    tag_12:\n      stop\n        /* \"contracts/SwapCart.sol\":575:597  Item[] public itemList */\n    tag_4:\n      tag_16\n      0x04\n      dup1\n      calldatasize\n      sub\n      dup2\n      add\n      swap1\n      tag_17\n      swap2\n      swap1\n      tag_14\n      jump\t// in\n    tag_17:\n      tag_18\n      jump\t// in\n    tag_16:\n      mload(0x40)\n      tag_19\n      swap7\n      swap6\n      swap5\n      swap4\n      swap3\n      swap2\n      swap1\n      tag_20\n      jump\t// in\n    tag_19:\n      mload(0x40)\n      dup1\n      swap2\n      sub\n      swap1\n      return\n        /* \"contracts/SwapCart.sol\":2870:3539  function createSaleAdvert(uint itmPrice, string memory itmImage, uint32 itmDueDate) external ownerCheck(msg.sender){\r... */\n    tag_5:\n      tag_21\n      0x04\n      dup1\n      calldatasize\n      sub\n      dup2\n      add\n      swap1\n      tag_22\n      swap2\n      swap1\n      tag_23\n      jump\t// in\n    tag_22:\n      tag_24\n      jump\t// in\n    tag_21:\n      stop\n        /* \"contracts/SwapCart.sol\":3547:3703  function getEntireItems() public listSizeCheck returns (Item[] memory) {\r... */\n    tag_6:\n      tag_25\n      tag_26\n      jump\t// in\n    tag_25:\n      mload(0x40)\n      tag_27\n      swap2\n      swap1\n      tag_28\n      jump\t// in\n    tag_27:\n      mload(0x40)\n      dup1\n      swap2\n      sub\n      swap1\n      return\n        /* \"contracts/SwapCart.sol\":606:643  mapping(address => User) public users */\n    tag_7:\n      tag_29\n      0x04\n      dup1\n      calldatasize\n      sub\n      dup2\n      add\n      swap1\n      tag_30\n      swap2\n      swap1\n      tag_31\n      jump\t// in\n    tag_30:\n      tag_32\n      jump\t// in\n    tag_29:\n      mload(0x40)\n      tag_33\n      swap5\n      swap4\n      swap3\n      swap2\n      swap1\n      tag_34\n      jump\t// in\n    tag_33:\n      mload(0x40)\n      dup1\n      swap2\n      sub\n      swap1\n      return\n        /* \"contracts/SwapCart.sol\":650:687  mapping(uint256 => Item) public items */\n    tag_8:\n      tag_35\n      0x04\n      dup1\n      calldatasize\n      sub\n      dup2\n      add\n      swap1\n      tag_36\n      swap2\n      swap1\n      tag_14\n      jump\t// in\n    tag_36:\n      tag_37\n      jump\t// in\n    tag_35:\n      mload(0x40)\n      tag_38\n      swap7\n      swap6\n      swap5\n      swap4\n      swap3\n      swap2\n      swap1\n      tag_20\n      jump\t// in\n    tag_38:\n      mload(0x40)\n      dup1\n      swap2\n      sub\n      swap1\n      return\n        /* \"contracts/SwapCart.sol\":3883:4017  function getItemById(uint itmId) public view itemAvailabilityCheck(itmId) returns (Item memory) {\r... */\n    tag_9:\n      tag_39\n      0x04\n      dup1\n      calldatasize\n      sub\n      dup2\n      add\n      swap1\n      tag_40\n      swap2\n      swap1\n      tag_14\n      jump\t// in\n    tag_40:\n      tag_41\n      jump\t// in\n    tag_39:\n      mload(0x40)\n      tag_42\n      swap2\n      swap1\n      tag_43\n      jump\t// in\n    tag_42:\n      mload(0x40)\n      dup1\n      swap2\n      sub\n      swap1\n      return\n        /* \"contracts/SwapCart.sol\":549:568  IERC20 public token */\n    tag_10:\n      tag_44\n      tag_45\n      jump\t// in\n    tag_44:\n      mload(0x40)\n      tag_46\n      swap2\n      swap1\n      tag_47\n      jump\t// in\n    tag_46:\n      mload(0x40)\n      dup1\n      swap2\n      sub\n      swap1\n      return\n        /* \"contracts/SwapCart.sol\":3711:3875  function addStar(uint itmId) public buyerCheck(items[itmId].seller){\r... */\n    tag_15:\n        /* \"contracts/SwapCart.sol\":3758:3763  items */\n      0x03\n        /* \"contracts/SwapCart.sol\":3758:3770  items[itmId] */\n      0x00\n        /* \"contracts/SwapCart.sol\":3764:3769  itmId */\n      dup3\n        /* \"contracts/SwapCart.sol\":3758:3770  items[itmId] */\n      dup2\n      mstore\n      0x20\n      add\n      swap1\n      dup2\n      mstore\n      0x20\n      add\n      0x00\n      keccak256\n        /* \"contracts/SwapCart.sol\":3758:3777  items[itmId].seller */\n      0x03\n      add\n      0x00\n      swap1\n      sload\n      swap1\n      0x0100\n      exp\n      swap1\n      div\n      0xffffffffffffffffffffffffffffffffffffffff\n      and\n        /* \"contracts/SwapCart.sol\":1305:1314  itmSeller */\n      dup1\n        /* \"contracts/SwapCart.sol\":1291:1314  msg.sender != itmSeller */\n      0xffffffffffffffffffffffffffffffffffffffff\n      and\n        /* \"contracts/SwapCart.sol\":1291:1301  msg.sender */\n      caller\n        /* \"contracts/SwapCart.sol\":1291:1314  msg.sender != itmSeller */\n      0xffffffffffffffffffffffffffffffffffffffff\n      and\n      eq\n      iszero\n        /* \"contracts/SwapCart.sol\":1283:1315  require(msg.sender != itmSeller) */\n      tag_49\n      jumpi\n      0x00\n      dup1\n      revert\n    tag_49:\n        /* \"contracts/SwapCart.sol\":3789:3794  items */\n      0x03\n        /* \"contracts/SwapCart.sol\":3789:3801  items[itmId] */\n      0x00\n        /* \"contracts/SwapCart.sol\":3795:3800  itmId */\n      dup4\n        /* \"contracts/SwapCart.sol\":3789:3801  items[itmId] */\n      dup2\n      mstore\n      0x20\n      add\n      swap1\n      dup2\n      mstore\n      0x20\n      add\n      0x00\n      keccak256\n        /* \"contracts/SwapCart.sol\":3789:3806  items[itmId].star */\n      0x02\n      add\n      0x00\n        /* \"contracts/SwapCart.sol\":3789:3808  items[itmId].star++ */\n      dup2\n      sload\n      dup1\n      swap3\n      swap2\n      swap1\n      tag_51\n      swap1\n      tag_52\n      jump\t// in\n    tag_51:\n      swap2\n      swap1\n      pop\n      sstore\n      pop\n        /* \"contracts/SwapCart.sol\":3856:3866  msg.sender */\n      caller\n        /* \"contracts/SwapCart.sol\":3824:3867  AddStar(itmId,items[itmId].star,msg.sender) */\n      0xffffffffffffffffffffffffffffffffffffffff\n      and\n      0x1ed364e6f46a455fac23816d3700669ff134c7a5fbe0240f52d932f834102462\n        /* \"contracts/SwapCart.sol\":3832:3837  itmId */\n      dup4\n        /* \"contracts/SwapCart.sol\":3838:3843  items */\n      0x03\n        /* \"contracts/SwapCart.sol\":3838:3850  items[itmId] */\n      0x00\n        /* \"contracts/SwapCart.sol\":3844:3849  itmId */\n      dup7\n        /* \"contracts/SwapCart.sol\":3838:3850  items[itmId] */\n      dup2\n      mstore\n      0x20\n      add\n      swap1\n      dup2\n      mstore\n      0x20\n      add\n      0x00\n      keccak256\n        /* \"contracts/SwapCart.sol\":3838:3855  items[itmId].star */\n      0x02\n      add\n      sload\n        /* \"contracts/SwapCart.sol\":3824:3867  AddStar(itmId,items[itmId].star,msg.sender) */\n      mload(0x40)\n      tag_53\n      swap3\n      swap2\n      swap1\n      tag_54\n      jump\t// in\n    tag_53:\n      mload(0x40)\n      dup1\n      swap2\n      sub\n      swap1\n      log2\n        /* \"contracts/SwapCart.sol\":3711:3875  function addStar(uint itmId) public buyerCheck(items[itmId].seller){\r... */\n      pop\n      pop\n      jump\t// out\n        /* \"contracts/SwapCart.sol\":575:597  Item[] public itemList */\n    tag_18:\n      0x01\n      dup2\n      dup2\n      sload\n      dup2\n      lt\n      tag_55\n      jumpi\n      0x00\n      dup1\n      revert\n    tag_55:\n      swap1\n      0x00\n      mstore\n      keccak256(0x00, 0x20)\n      swap1\n      0x06\n      mul\n      add\n      0x00\n      swap2\n      pop\n      swap1\n      pop\n      dup1\n      0x00\n      add\n      sload\n      swap1\n      dup1\n      0x01\n      add\n      dup1\n      sload\n      tag_57\n      swap1\n      tag_58\n      jump\t// in\n    tag_57:\n      dup1\n      0x1f\n      add\n      0x20\n      dup1\n      swap2\n      div\n      mul\n      0x20\n      add\n      mload(0x40)\n      swap1\n      dup2\n      add\n      0x40\n      mstore\n      dup1\n      swap3\n      swap2\n      swap1\n      dup2\n      dup2\n      mstore\n      0x20\n      add\n      dup3\n      dup1\n      sload\n      tag_59\n      swap1\n      tag_58\n      jump\t// in\n    tag_59:\n      dup1\n      iszero\n      tag_60\n      jumpi\n      dup1\n      0x1f\n      lt\n      tag_61\n      jumpi\n      0x0100\n      dup1\n      dup4\n      sload\n      div\n      mul\n      dup4\n      mstore\n      swap2\n      0x20\n      add\n      swap2\n      jump(tag_60)\n    tag_61:\n      dup3\n      add\n      swap2\n      swap1\n      0x00\n      mstore\n      keccak256(0x00, 0x20)\n      swap1\n    tag_62:\n      dup2\n      sload\n      dup2\n      mstore\n      swap1\n      0x01\n      add\n      swap1\n      0x20\n      add\n      dup1\n      dup4\n      gt\n      tag_62\n      jumpi\n      dup3\n      swap1\n      sub\n      0x1f\n      and\n      dup3\n      add\n      swap2\n    tag_60:\n      pop\n      pop\n      pop\n      pop\n      pop\n      swap1\n      dup1\n      0x02\n      add\n      sload\n      swap1\n      dup1\n      0x03\n      add\n      0x00\n      swap1\n      sload\n      swap1\n      0x0100\n      exp\n      swap1\n      div\n      0xffffffffffffffffffffffffffffffffffffffff\n      and\n      swap1\n      dup1\n      0x04\n      add\n      sload\n      swap1\n      dup1\n      0x05\n      add\n      0x00\n      swap1\n      sload\n      swap1\n      0x0100\n      exp\n      swap1\n      div\n      0xffffffff\n      and\n      swap1\n      pop\n      dup7\n      jump\t// out\n        /* \"contracts/SwapCart.sol\":2870:3539  function createSaleAdvert(uint itmPrice, string memory itmImage, uint32 itmDueDate) external ownerCheck(msg.sender){\r... */\n    tag_24:\n        /* \"contracts/SwapCart.sol\":2974:2984  msg.sender */\n      caller\n        /* \"contracts/SwapCart.sol\":1057:1066  itmSeller */\n      dup1\n        /* \"contracts/SwapCart.sol\":1043:1066  msg.sender == itmSeller */\n      0xffffffffffffffffffffffffffffffffffffffff\n      and\n        /* \"contracts/SwapCart.sol\":1043:1053  msg.sender */\n      caller\n        /* \"contracts/SwapCart.sol\":1043:1066  msg.sender == itmSeller */\n      0xffffffffffffffffffffffffffffffffffffffff\n      and\n      eq\n        /* \"contracts/SwapCart.sol\":1035:1067  require(msg.sender == itmSeller) */\n      tag_64\n      jumpi\n      0x00\n      dup1\n      revert\n    tag_64:\n        /* \"contracts/SwapCart.sol\":3029:3237  Item({\r... */\n      mload(0x40)\n      dup1\n      0xc0\n      add\n      0x40\n      mstore\n      dup1\n        /* \"contracts/SwapCart.sol\":3056:3077  itemCounter.current() */\n      tag_66\n        /* \"contracts/SwapCart.sol\":3056:3067  itemCounter */\n      0x04\n        /* \"contracts/SwapCart.sol\":3056:3075  itemCounter.current */\n      tag_67\n        /* \"contracts/SwapCart.sol\":3056:3077  itemCounter.current() */\n      jump\t// in\n    tag_66:\n        /* \"contracts/SwapCart.sol\":3029:3237  Item({\r... */\n      dup2\n      mstore\n      0x20\n      add\n        /* \"contracts/SwapCart.sol\":3131:3139  itmImage */\n      dup5\n        /* \"contracts/SwapCart.sol\":3029:3237  Item({\r... */\n      dup2\n      mstore\n      0x20\n      add\n        /* \"contracts/SwapCart.sol\":3192:3193  0 */\n      0x00\n        /* \"contracts/SwapCart.sol\":3029:3237  Item({\r... */\n      dup2\n      mstore\n      0x20\n      add\n        /* \"contracts/SwapCart.sol\":3215:3225  msg.sender */\n      caller\n        /* \"contracts/SwapCart.sol\":3029:3237  Item({\r... */\n      0xffffffffffffffffffffffffffffffffffffffff\n      and\n      dup2\n      mstore\n      0x20\n      add\n        /* \"contracts/SwapCart.sol\":3098:3106  itmPrice */\n      dup6\n        /* \"contracts/SwapCart.sol\":3029:3237  Item({\r... */\n      dup2\n      mstore\n      0x20\n      add\n        /* \"contracts/SwapCart.sol\":3162:3172  itmDueDate */\n      dup4\n        /* \"contracts/SwapCart.sol\":3029:3237  Item({\r... */\n      0xffffffff\n      and\n      dup2\n      mstore\n      pop\n        /* \"contracts/SwapCart.sol\":2998:3003  items */\n      0x03\n        /* \"contracts/SwapCart.sol\":2998:3026  items[itemCounter.current()] */\n      0x00\n        /* \"contracts/SwapCart.sol\":3004:3025  itemCounter.current() */\n      tag_68\n        /* \"contracts/SwapCart.sol\":3004:3015  itemCounter */\n      0x04\n        /* \"contracts/SwapCart.sol\":3004:3023  itemCounter.current */\n      tag_67\n        /* \"contracts/SwapCart.sol\":3004:3025  itemCounter.current() */\n      jump\t// in\n    tag_68:\n        /* \"contracts/SwapCart.sol\":2998:3026  items[itemCounter.current()] */\n      dup2\n      mstore\n      0x20\n      add\n      swap1\n      dup2\n      mstore\n      0x20\n      add\n      0x00\n      keccak256\n        /* \"contracts/SwapCart.sol\":2998:3237  items[itemCounter.current()] = Item({\r... */\n      0x00\n      dup3\n      add\n      mload\n      dup2\n      0x00\n      add\n      sstore\n      0x20\n      dup3\n      add\n      mload\n      dup2\n      0x01\n      add\n      swap1\n      dup1\n      mload\n      swap1\n      0x20\n      add\n      swap1\n      tag_69\n      swap3\n      swap2\n      swap1\n      tag_70\n      jump\t// in\n    tag_69:\n      pop\n      0x40\n      dup3\n      add\n      mload\n      dup2\n      0x02\n      add\n      sstore\n      0x60\n      dup3\n      add\n      mload\n      dup2\n      0x03\n      add\n      exp(0x0100, 0x00)\n      dup2\n      sload\n      dup2\n      0xffffffffffffffffffffffffffffffffffffffff\n      mul\n      not\n      and\n      swap1\n      dup4\n      0xffffffffffffffffffffffffffffffffffffffff\n      and\n      mul\n      or\n      swap1\n      sstore\n      pop\n      0x80\n      dup3\n      add\n      mload\n      dup2\n      0x04\n      add\n      sstore\n      0xa0\n      dup3\n      add\n      mload\n      dup2\n      0x05\n      add\n      exp(0x0100, 0x00)\n      dup2\n      sload\n      dup2\n      0xffffffff\n      mul\n      not\n      and\n      swap1\n      dup4\n      0xffffffff\n      and\n      mul\n      or\n      swap1\n      sstore\n      pop\n      swap1\n      pop\n      pop\n        /* \"contracts/SwapCart.sol\":3250:3255  users */\n      0x02\n        /* \"contracts/SwapCart.sol\":3250:3267  users[msg.sender] */\n      0x00\n        /* \"contracts/SwapCart.sol\":3256:3266  msg.sender */\n      caller\n        /* \"contracts/SwapCart.sol\":3250:3267  users[msg.sender] */\n      0xffffffffffffffffffffffffffffffffffffffff\n      and\n      0xffffffffffffffffffffffffffffffffffffffff\n      and\n      dup2\n      mstore\n      0x20\n      add\n      swap1\n      dup2\n      mstore\n      0x20\n      add\n      0x00\n      keccak256\n        /* \"contracts/SwapCart.sol\":3250:3277  users[msg.sender].inventory */\n      0x04\n      add\n        /* \"contracts/SwapCart.sol\":3283:3288  items */\n      0x03\n        /* \"contracts/SwapCart.sol\":3283:3311  items[itemCounter.current()] */\n      0x00\n        /* \"contracts/SwapCart.sol\":3289:3310  itemCounter.current() */\n      tag_71\n        /* \"contracts/SwapCart.sol\":3289:3300  itemCounter */\n      0x04\n        /* \"contracts/SwapCart.sol\":3289:3308  itemCounter.current */\n      tag_67\n        /* \"contracts/SwapCart.sol\":3289:3310  itemCounter.current() */\n      jump\t// in\n    tag_71:\n        /* \"contracts/SwapCart.sol\":3283:3311  items[itemCounter.current()] */\n      dup2\n      mstore\n      0x20\n      add\n      swap1\n      dup2\n      mstore\n      0x20\n      add\n      0x00\n      keccak256\n        /* \"contracts/SwapCart.sol\":3250:3312  users[msg.sender].inventory.push(items[itemCounter.current()]) */\n      swap1\n      dup1\n      0x01\n      dup2\n      sload\n      add\n      dup1\n      dup3\n      sstore\n      dup1\n      swap2\n      pop\n      pop\n      0x01\n      swap1\n      sub\n      swap1\n      0x00\n      mstore\n      keccak256(0x00, 0x20)\n      swap1\n      0x06\n      mul\n      add\n      0x00\n      swap1\n      swap2\n      swap1\n      swap2\n      swap1\n      swap2\n      pop\n      0x00\n      dup3\n      add\n      sload\n      dup2\n      0x00\n      add\n      sstore\n      0x01\n      dup3\n      add\n      dup2\n      0x01\n      add\n      swap1\n      dup1\n      sload\n      tag_73\n      swap1\n      tag_58\n      jump\t// in\n    tag_73:\n      tag_74\n      swap3\n      swap2\n      swap1\n      tag_75\n      jump\t// in\n    tag_74:\n      pop\n      0x02\n      dup3\n      add\n      sload\n      dup2\n      0x02\n      add\n      sstore\n      0x03\n      dup3\n      add\n      0x00\n      swap1\n      sload\n      swap1\n      0x0100\n      exp\n      swap1\n      div\n      0xffffffffffffffffffffffffffffffffffffffff\n      and\n      dup2\n      0x03\n      add\n      exp(0x0100, 0x00)\n      dup2\n      sload\n      dup2\n      0xffffffffffffffffffffffffffffffffffffffff\n      mul\n      not\n      and\n      swap1\n      dup4\n      0xffffffffffffffffffffffffffffffffffffffff\n      and\n      mul\n      or\n      swap1\n      sstore\n      pop\n      0x04\n      dup3\n      add\n      sload\n      dup2\n      0x04\n      add\n      sstore\n      0x05\n      dup3\n      add\n      0x00\n      swap1\n      sload\n      swap1\n      0x0100\n      exp\n      swap1\n      div\n      0xffffffff\n      and\n      dup2\n      0x05\n      add\n      exp(0x0100, 0x00)\n      dup2\n      sload\n      dup2\n      0xffffffff\n      mul\n      not\n      and\n      swap1\n      dup4\n      0xffffffff\n      and\n      mul\n      or\n      swap1\n      sstore\n      pop\n      pop\n      pop\n        /* \"contracts/SwapCart.sol\":3323:3331  itemList */\n      0x01\n        /* \"contracts/SwapCart.sol\":3337:3342  items */\n      0x03\n        /* \"contracts/SwapCart.sol\":3337:3365  items[itemCounter.current()] */\n      0x00\n        /* \"contracts/SwapCart.sol\":3343:3364  itemCounter.current() */\n      tag_76\n        /* \"contracts/SwapCart.sol\":3343:3354  itemCounter */\n      0x04\n        /* \"contracts/SwapCart.sol\":3343:3362  itemCounter.current */\n      tag_67\n        /* \"contracts/SwapCart.sol\":3343:3364  itemCounter.current() */\n      jump\t// in\n    tag_76:\n        /* \"contracts/SwapCart.sol\":3337:3365  items[itemCounter.current()] */\n      dup2\n      mstore\n      0x20\n      add\n      swap1\n      dup2\n      mstore\n      0x20\n      add\n      0x00\n      keccak256\n        /* \"contracts/SwapCart.sol\":3323:3366  itemList.push(items[itemCounter.current()]) */\n      swap1\n      dup1\n      0x01\n      dup2\n      sload\n      add\n      dup1\n      dup3\n      sstore\n      dup1\n      swap2\n      pop\n      pop\n      0x01\n      swap1\n      sub\n      swap1\n      0x00\n      mstore\n      keccak256(0x00, 0x20)\n      swap1\n      0x06\n      mul\n      add\n      0x00\n      swap1\n      swap2\n      swap1\n      swap2\n      swap1\n      swap2\n      pop\n      0x00\n      dup3\n      add\n      sload\n      dup2\n      0x00\n      add\n      sstore\n      0x01\n      dup3\n      add\n      dup2\n      0x01\n      add\n      swap1\n      dup1\n      sload\n      tag_78\n      swap1\n      tag_58\n      jump\t// in\n    tag_78:\n      tag_79\n      swap3\n      swap2\n      swap1\n      tag_75\n      jump\t// in\n    tag_79:\n      pop\n      0x02\n      dup3\n      add\n      sload\n      dup2\n      0x02\n      add\n      sstore\n      0x03\n      dup3\n      add\n      0x00\n      swap1\n      sload\n      swap1\n      0x0100\n      exp\n      swap1\n      div\n      0xffffffffffffffffffffffffffffffffffffffff\n      and\n      dup2\n      0x03\n      add\n      exp(0x0100, 0x00)\n      dup2\n      sload\n      dup2\n      0xffffffffffffffffffffffffffffffffffffffff\n      mul\n      not\n      and\n      swap1\n      dup4\n      0xffffffffffffffffffffffffffffffffffffffff\n      and\n      mul\n      or\n      swap1\n      sstore\n      pop\n      0x04\n      dup3\n      add\n      sload\n      dup2\n      0x04\n      add\n      sstore\n      0x05\n      dup3\n      add\n      0x00\n      swap1\n      sload\n      swap1\n      0x0100\n      exp\n      swap1\n      div\n      0xffffffff\n      and\n      dup2\n      0x05\n      add\n      exp(0x0100, 0x00)\n      dup2\n      sload\n      dup2\n      0xffffffff\n      mul\n      not\n      and\n      swap1\n      dup4\n      0xffffffff\n      and\n      mul\n      or\n      swap1\n      sstore\n      pop\n      pop\n      pop\n        /* \"contracts/SwapCart.sol\":3377:3400  itemCounter.increment() */\n      tag_80\n        /* \"contracts/SwapCart.sol\":3377:3388  itemCounter */\n      0x04\n        /* \"contracts/SwapCart.sol\":3377:3398  itemCounter.increment */\n      tag_81\n        /* \"contracts/SwapCart.sol\":3377:3400  itemCounter.increment() */\n      jump\t// in\n    tag_80:\n        /* \"contracts/SwapCart.sol\":3520:3530  msg.sender */\n      caller\n        /* \"contracts/SwapCart.sol\":3418:3531  CreateSaleAdvert(itemCounter.current(),itmPrice,itmImage,itmDueDate,items[itemCounter.current()].star,msg.sender) */\n      0xffffffffffffffffffffffffffffffffffffffff\n      and\n      0x9a5b8b5cb7f9c536ea5db1a94142c9f716fb3a8698a9c70a5b8bfad3922cb06c\n        /* \"contracts/SwapCart.sol\":3435:3456  itemCounter.current() */\n      tag_82\n        /* \"contracts/SwapCart.sol\":3435:3446  itemCounter */\n      0x04\n        /* \"contracts/SwapCart.sol\":3435:3454  itemCounter.current */\n      tag_67\n        /* \"contracts/SwapCart.sol\":3435:3456  itemCounter.current() */\n      jump\t// in\n    tag_82:\n        /* \"contracts/SwapCart.sol\":3457:3465  itmPrice */\n      dup7\n        /* \"contracts/SwapCart.sol\":3466:3474  itmImage */\n      dup7\n        /* \"contracts/SwapCart.sol\":3475:3485  itmDueDate */\n      dup7\n        /* \"contracts/SwapCart.sol\":3486:3491  items */\n      0x03\n        /* \"contracts/SwapCart.sol\":3486:3514  items[itemCounter.current()] */\n      0x00\n        /* \"contracts/SwapCart.sol\":3492:3513  itemCounter.current() */\n      tag_83\n        /* \"contracts/SwapCart.sol\":3492:3503  itemCounter */\n      0x04\n        /* \"contracts/SwapCart.sol\":3492:3511  itemCounter.current */\n      tag_67\n        /* \"contracts/SwapCart.sol\":3492:3513  itemCounter.current() */\n      jump\t// in\n    tag_83:\n        /* \"contracts/SwapCart.sol\":3486:3514  items[itemCounter.current()] */\n      dup2\n      mstore\n      0x20\n      add\n      swap1\n      dup2\n      mstore\n      0x20\n      add\n      0x00\n      keccak256\n        /* \"contracts/SwapCart.sol\":3486:3519  items[itemCounter.current()].star */\n      0x02\n      add\n      sload\n        /* \"contracts/SwapCart.sol\":3418:3531  CreateSaleAdvert(itemCounter.current(),itmPrice,itmImage,itmDueDate,items[itemCounter.current()].star,msg.sender) */\n      mload(0x40)\n      tag_84\n      swap6\n      swap5\n      swap4\n      swap3\n      swap2\n      swap1\n      tag_85\n      jump\t// in\n    tag_84:\n      mload(0x40)\n      dup1\n      swap2\n      sub\n      swap1\n      log2\n        /* \"contracts/SwapCart.sol\":2870:3539  function createSaleAdvert(uint itmPrice, string memory itmImage, uint32 itmDueDate) external ownerCheck(msg.sender){\r... */\n      pop\n      pop\n      pop\n      pop\n      jump\t// out\n        /* \"contracts/SwapCart.sol\":3547:3703  function getEntireItems() public listSizeCheck returns (Item[] memory) {\r... */\n    tag_26:\n        /* \"contracts/SwapCart.sol\":3603:3616  Item[] memory */\n      0x60\n        /* \"contracts/SwapCart.sol\":1901:1902  0 */\n      0x00\n        /* \"contracts/SwapCart.sol\":1877:1898  itemCounter.current() */\n      tag_87\n        /* \"contracts/SwapCart.sol\":1877:1888  itemCounter */\n      0x04\n        /* \"contracts/SwapCart.sol\":1877:1896  itemCounter.current */\n      tag_67\n        /* \"contracts/SwapCart.sol\":1877:1898  itemCounter.current() */\n      jump\t// in\n    tag_87:\n        /* \"contracts/SwapCart.sol\":1877:1902  itemCounter.current() > 0 */\n      gt\n        /* \"contracts/SwapCart.sol\":1869:1941  require(itemCounter.current() > 0, \"There are no products to list yet!\") */\n      tag_88\n      jumpi\n      mload(0x40)\n      0x08c379a000000000000000000000000000000000000000000000000000000000\n      dup2\n      mstore\n      0x04\n      add\n      tag_89\n      swap1\n      tag_90\n      jump\t// in\n    tag_89:\n      mload(0x40)\n      dup1\n      swap2\n      sub\n      swap1\n      revert\n    tag_88:\n        /* \"contracts/SwapCart.sol\":3658:3668  msg.sender */\n      caller\n        /* \"contracts/SwapCart.sol\":3634:3669  GetEntireItems(itemList,msg.sender) */\n      0xffffffffffffffffffffffffffffffffffffffff\n      and\n      0x440c078a5e11bff85c6b6d7c52f378c8220355bd3331ec889638c0eca883670c\n        /* \"contracts/SwapCart.sol\":3649:3657  itemList */\n      0x01\n        /* \"contracts/SwapCart.sol\":3634:3669  GetEntireItems(itemList,msg.sender) */\n      mload(0x40)\n      tag_92\n      swap2\n      swap1\n      tag_93\n      jump\t// in\n    tag_92:\n      mload(0x40)\n      dup1\n      swap2\n      sub\n      swap1\n      log2\n        /* \"contracts/SwapCart.sol\":3687:3695  itemList */\n      0x01\n        /* \"contracts/SwapCart.sol\":3680:3695  return itemList */\n      dup1\n      sload\n      dup1\n      0x20\n      mul\n      0x20\n      add\n      mload(0x40)\n      swap1\n      dup2\n      add\n      0x40\n      mstore\n      dup1\n      swap3\n      swap2\n      swap1\n      dup2\n      dup2\n      mstore\n      0x20\n      add\n      0x00\n      swap1\n    tag_94:\n      dup3\n      dup3\n      lt\n      iszero\n      tag_95\n      jumpi\n      dup4\n      dup3\n      swap1\n      0x00\n      mstore\n      keccak256(0x00, 0x20)\n      swap1\n      0x06\n      mul\n      add\n      mload(0x40)\n      dup1\n      0xc0\n      add\n      0x40\n      mstore\n      swap1\n      dup2\n      0x00\n      dup3\n      add\n      sload\n      dup2\n      mstore\n      0x20\n      add\n      0x01\n      dup3\n      add\n      dup1\n      sload\n      tag_97\n      swap1\n      tag_58\n      jump\t// in\n    tag_97:\n      dup1\n      0x1f\n      add\n      0x20\n      dup1\n      swap2\n      div\n      mul\n      0x20\n      add\n      mload(0x40)\n      swap1\n      dup2\n      add\n      0x40\n      mstore\n      dup1\n      swap3\n      swap2\n      swap1\n      dup2\n      dup2\n      mstore\n      0x20\n      add\n      dup3\n      dup1\n      sload\n      tag_98\n      swap1\n      tag_58\n      jump\t// in\n    tag_98:\n      dup1\n      iszero\n      tag_99\n      jumpi\n      dup1\n      0x1f\n      lt\n      tag_100\n      jumpi\n      0x0100\n      dup1\n      dup4\n      sload\n      div\n      mul\n      dup4\n      mstore\n      swap2\n      0x20\n      add\n      swap2\n      jump(tag_99)\n    tag_100:\n      dup3\n      add\n      swap2\n      swap1\n      0x00\n      mstore\n      keccak256(0x00, 0x20)\n      swap1\n    tag_101:\n      dup2\n      sload\n      dup2\n      mstore\n      swap1\n      0x01\n      add\n      swap1\n      0x20\n      add\n      dup1\n      dup4\n      gt\n      tag_101\n      jumpi\n      dup3\n      swap1\n      sub\n      0x1f\n      and\n      dup3\n      add\n      swap2\n    tag_99:\n      pop\n      pop\n      pop\n      pop\n      pop\n      dup2\n      mstore\n      0x20\n      add\n      0x02\n      dup3\n      add\n      sload\n      dup2\n      mstore\n      0x20\n      add\n      0x03\n      dup3\n      add\n      0x00\n      swap1\n      sload\n      swap1\n      0x0100\n      exp\n      swap1\n      div\n      0xffffffffffffffffffffffffffffffffffffffff\n      and\n      0xffffffffffffffffffffffffffffffffffffffff\n      and\n      0xffffffffffffffffffffffffffffffffffffffff\n      and\n      dup2\n      mstore\n      0x20\n      add\n      0x04\n      dup3\n      add\n      sload\n      dup2\n      mstore\n      0x20\n      add\n      0x05\n      dup3\n      add\n      0x00\n      swap1\n      sload\n      swap1\n      0x0100\n      exp\n      swap1\n      div\n      0xffffffff\n      and\n      0xffffffff\n      and\n      0xffffffff\n      and\n      dup2\n      mstore\n      pop\n      pop\n      dup2\n      mstore\n      0x20\n      add\n      swap1\n      0x01\n      add\n      swap1\n      jump(tag_94)\n    tag_95:\n      pop\n      pop\n      pop\n      pop\n      swap1\n      pop\n        /* \"contracts/SwapCart.sol\":3547:3703  function getEntireItems() public listSizeCheck returns (Item[] memory) {\r... */\n      swap1\n      jump\t// out\n        /* \"contracts/SwapCart.sol\":606:643  mapping(address => User) public users */\n    tag_32:\n      mstore(0x20, 0x02)\n      dup1\n      0x00\n      mstore\n      keccak256(0x00, 0x40)\n      0x00\n      swap2\n      pop\n      swap1\n      pop\n      dup1\n      0x00\n      add\n      sload\n      swap1\n      dup1\n      0x01\n      add\n      dup1\n      sload\n      tag_102\n      swap1\n      tag_58\n      jump\t// in\n    tag_102:\n      dup1\n      0x1f\n      add\n      0x20\n      dup1\n      swap2\n      div\n      mul\n      0x20\n      add\n      mload(0x40)\n      swap1\n      dup2\n      add\n      0x40\n      mstore\n      dup1\n      swap3\n      swap2\n      swap1\n      dup2\n      dup2\n      mstore\n      0x20\n      add\n      dup3\n      dup1\n      sload\n      tag_103\n      swap1\n      tag_58\n      jump\t// in\n    tag_103:\n      dup1\n      iszero\n      tag_104\n      jumpi\n      dup1\n      0x1f\n      lt\n      tag_105\n      jumpi\n      0x0100\n      dup1\n      dup4\n      sload\n      div\n      mul\n      dup4\n      mstore\n      swap2\n      0x20\n      add\n      swap2\n      jump(tag_104)\n    tag_105:\n      dup3\n      add\n      swap2\n      swap1\n      0x00\n      mstore\n      keccak256(0x00, 0x20)\n      swap1\n    tag_106:\n      dup2\n      sload\n      dup2\n      mstore\n      swap1\n      0x01\n      add\n      swap1\n      0x20\n      add\n      dup1\n      dup4\n      gt\n      tag_106\n      jumpi\n      dup3\n      swap1\n      sub\n      0x1f\n      and\n      dup3\n      add\n      swap2\n    tag_104:\n      pop\n      pop\n      pop\n      pop\n      pop\n      swap1\n      dup1\n      0x02\n      add\n      dup1\n      sload\n      tag_107\n      swap1\n      tag_58\n      jump\t// in\n    tag_107:\n      dup1\n      0x1f\n      add\n      0x20\n      dup1\n      swap2\n      div\n      mul\n      0x20\n      add\n      mload(0x40)\n      swap1\n      dup2\n      add\n      0x40\n      mstore\n      dup1\n      swap3\n      swap2\n      swap1\n      dup2\n      dup2\n      mstore\n      0x20\n      add\n      dup3\n      dup1\n      sload\n      tag_108\n      swap1\n      tag_58\n      jump\t// in\n    tag_108:\n      dup1\n      iszero\n      tag_109\n      jumpi\n      dup1\n      0x1f\n      lt\n      tag_110\n      jumpi\n      0x0100\n      dup1\n      dup4\n      sload\n      div\n      mul\n      dup4\n      mstore\n      swap2\n      0x20\n      add\n      swap2\n      jump(tag_109)\n    tag_110:\n      dup3\n      add\n      swap2\n      swap1\n      0x00\n      mstore\n      keccak256(0x00, 0x20)\n      swap1\n    tag_111:\n      dup2\n      sload\n      dup2\n      mstore\n      swap1\n      0x01\n      add\n      swap1\n      0x20\n      add\n      dup1\n      dup4\n      gt\n      tag_111\n      jumpi\n      dup3\n      swap1\n      sub\n      0x1f\n      and\n      dup3\n      add\n      swap2\n    tag_109:\n      pop\n      pop\n      pop\n      pop\n      pop\n      swap1\n      dup1\n      0x05\n      add\n      sload\n      swap1\n      pop\n      dup5\n      jump\t// out\n        /* \"contracts/SwapCart.sol\":650:687  mapping(uint256 => Item) public items */\n    tag_37:\n      mstore(0x20, 0x03)\n      dup1\n      0x00\n      mstore\n      keccak256(0x00, 0x40)\n      0x00\n      swap2\n      pop\n      swap1\n      pop\n      dup1\n      0x00\n      add\n      sload\n      swap1\n      dup1\n      0x01\n      add\n      dup1\n      sload\n      tag_112\n      swap1\n      tag_58\n      jump\t// in\n    tag_112:\n      dup1\n      0x1f\n      add\n      0x20\n      dup1\n      swap2\n      div\n      mul\n      0x20\n      add\n      mload(0x40)\n      swap1\n      dup2\n      add\n      0x40\n      mstore\n      dup1\n      swap3\n      swap2\n      swap1\n      dup2\n      dup2\n      mstore\n      0x20\n      add\n      dup3\n      dup1\n      sload\n      tag_113\n      swap1\n      tag_58\n      jump\t// in\n    tag_113:\n      dup1\n      iszero\n      tag_114\n      jumpi\n      dup1\n      0x1f\n      lt\n      tag_115\n      jumpi\n      0x0100\n      dup1\n      dup4\n      sload\n      div\n      mul\n      dup4\n      mstore\n      swap2\n      0x20\n      add\n      swap2\n      jump(tag_114)\n    tag_115:\n      dup3\n      add\n      swap2\n      swap1\n      0x00\n      mstore\n      keccak256(0x00, 0x20)\n      swap1\n    tag_116:\n      dup2\n      sload\n      dup2\n      mstore\n      swap1\n      0x01\n      add\n      swap1\n      0x20\n      add\n      dup1\n      dup4\n      gt\n      tag_116\n      jumpi\n      dup3\n      swap1\n      sub\n      0x1f\n      and\n      dup3\n      add\n      swap2\n    tag_114:\n      pop\n      pop\n      pop\n      pop\n      pop\n      swap1\n      dup1\n      0x02\n      add\n      sload\n      swap1\n      dup1\n      0x03\n      add\n      0x00\n      swap1\n      sload\n      swap1\n      0x0100\n      exp\n      swap1\n      div\n      0xffffffffffffffffffffffffffffffffffffffff\n      and\n      swap1\n      dup1\n      0x04\n      add\n      sload\n      swap1\n      dup1\n      0x05\n      add\n      0x00\n      swap1\n      sload\n      swap1\n      0x0100\n      exp\n      swap1\n      div\n      0xffffffff\n      and\n      swap1\n      pop\n      dup7\n      jump\t// out\n        /* \"contracts/SwapCart.sol\":3883:4017  function getItemById(uint itmId) public view itemAvailabilityCheck(itmId) returns (Item memory) {\r... */\n    tag_41:\n        /* \"contracts/SwapCart.sol\":3966:3977  Item memory */\n      tag_117\n      tag_118\n      jump\t// in\n    tag_117:\n        /* \"contracts/SwapCart.sol\":3950:3955  itmId */\n      dup2\n        /* \"contracts/SwapCart.sol\":2142:2163  itemCounter.current() */\n      tag_120\n        /* \"contracts/SwapCart.sol\":2142:2153  itemCounter */\n      0x04\n        /* \"contracts/SwapCart.sol\":2142:2161  itemCounter.current */\n      tag_67\n        /* \"contracts/SwapCart.sol\":2142:2163  itemCounter.current() */\n      jump\t// in\n    tag_120:\n        /* \"contracts/SwapCart.sol\":2133:2138  itmId */\n      dup2\n        /* \"contracts/SwapCart.sol\":2133:2163  itmId <= itemCounter.current() */\n      gt\n      iszero\n        /* \"contracts/SwapCart.sol\":2125:2197  require(itmId <= itemCounter.current(), \"There is no such item record!\") */\n      tag_121\n      jumpi\n      mload(0x40)\n      0x08c379a000000000000000000000000000000000000000000000000000000000\n      dup2\n      mstore\n      0x04\n      add\n      tag_122\n      swap1\n      tag_123\n      jump\t// in\n    tag_122:\n      mload(0x40)\n      dup1\n      swap2\n      sub\n      swap1\n      revert\n    tag_121:\n        /* \"contracts/SwapCart.sol\":3997:4002  items */\n      0x03\n        /* \"contracts/SwapCart.sol\":3997:4009  items[itmId] */\n      0x00\n        /* \"contracts/SwapCart.sol\":4003:4008  itmId */\n      dup5\n        /* \"contracts/SwapCart.sol\":3997:4009  items[itmId] */\n      dup2\n      mstore\n      0x20\n      add\n      swap1\n      dup2\n      mstore\n      0x20\n      add\n      0x00\n      keccak256\n        /* \"contracts/SwapCart.sol\":3990:4009  return items[itmId] */\n      mload(0x40)\n      dup1\n      0xc0\n      add\n      0x40\n      mstore\n      swap1\n      dup2\n      0x00\n      dup3\n      add\n      sload\n      dup2\n      mstore\n      0x20\n      add\n      0x01\n      dup3\n      add\n      dup1\n      sload\n      tag_125\n      swap1\n      tag_58\n      jump\t// in\n    tag_125:\n      dup1\n      0x1f\n      add\n      0x20\n      dup1\n      swap2\n      div\n      mul\n      0x20\n      add\n      mload(0x40)\n      swap1\n      dup2\n      add\n      0x40\n      mstore\n      dup1\n      swap3\n      swap2\n      swap1\n      dup2\n      dup2\n      mstore\n      0x20\n      add\n      dup3\n      dup1\n      sload\n      tag_126\n      swap1\n      tag_58\n      jump\t// in\n    tag_126:\n      dup1\n      iszero\n      tag_127\n      jumpi\n      dup1\n      0x1f\n      lt\n      tag_128\n      jumpi\n      0x0100\n      dup1\n      dup4\n      sload\n      div\n      mul\n      dup4\n      mstore\n      swap2\n      0x20\n      add\n      swap2\n      jump(tag_127)\n    tag_128:\n      dup3\n      add\n      swap2\n      swap1\n      0x00\n      mstore\n      keccak256(0x00, 0x20)\n      swap1\n    tag_129:\n      dup2\n      sload\n      dup2\n      mstore\n      swap1\n      0x01\n      add\n      swap1\n      0x20\n      add\n      dup1\n      dup4\n      gt\n      tag_129\n      jumpi\n      dup3\n      swap1\n      sub\n      0x1f\n      and\n      dup3\n      add\n      swap2\n    tag_127:\n      pop\n      pop\n      pop\n      pop\n      pop\n      dup2\n      mstore\n      0x20\n      add\n      0x02\n      dup3\n      add\n      sload\n      dup2\n      mstore\n      0x20\n      add\n      0x03\n      dup3\n      add\n      0x00\n      swap1\n      sload\n      swap1\n      0x0100\n      exp\n      swap1\n      div\n      0xffffffffffffffffffffffffffffffffffffffff\n      and\n      0xffffffffffffffffffffffffffffffffffffffff\n      and\n      0xffffffffffffffffffffffffffffffffffffffff\n      and\n      dup2\n      mstore\n      0x20\n      add\n      0x04\n      dup3\n      add\n      sload\n      dup2\n      mstore\n      0x20\n      add\n      0x05\n      dup3\n      add\n      0x00\n      swap1\n      sload\n      swap1\n      0x0100\n      exp\n      swap1\n      div\n      0xffffffff\n      and\n      0xffffffff\n      and\n      0xffffffff\n      and\n      dup2\n      mstore\n      pop\n      pop\n      swap2\n      pop\n        /* \"contracts/SwapCart.sol\":3883:4017  function getItemById(uint itmId) public view itemAvailabilityCheck(itmId) returns (Item memory) {\r... */\n      pop\n      swap2\n      swap1\n      pop\n      jump\t// out\n        /* \"contracts/SwapCart.sol\":549:568  IERC20 public token */\n    tag_45:\n      0x00\n      dup1\n      sload\n      swap1\n      0x0100\n      exp\n      swap1\n      div\n      0xffffffffffffffffffffffffffffffffffffffff\n      and\n      dup2\n      jump\t// out\n        /* \"@openzeppelin/contracts/utils/Counters.sol\":827:939  function current(Counter storage counter) internal view returns (uint256) {... */\n    tag_67:\n        /* \"@openzeppelin/contracts/utils/Counters.sol\":892:899  uint256 */\n      0x00\n        /* \"@openzeppelin/contracts/utils/Counters.sol\":918:925  counter */\n      dup2\n        /* \"@openzeppelin/contracts/utils/Counters.sol\":918:932  counter._value */\n      0x00\n      add\n      sload\n        /* \"@openzeppelin/contracts/utils/Counters.sol\":911:932  return counter._value */\n      swap1\n      pop\n        /* \"@openzeppelin/contracts/utils/Counters.sol\":827:939  function current(Counter storage counter) internal view returns (uint256) {... */\n      swap2\n      swap1\n      pop\n      jump\t// out\n        /* \"@openzeppelin/contracts/utils/Counters.sol\":945:1068  function increment(Counter storage counter) internal {... */\n    tag_81:\n        /* \"@openzeppelin/contracts/utils/Counters.sol\":1050:1051  1 */\n      0x01\n        /* \"@openzeppelin/contracts/utils/Counters.sol\":1032:1039  counter */\n      dup2\n        /* \"@openzeppelin/contracts/utils/Counters.sol\":1032:1046  counter._value */\n      0x00\n      add\n      0x00\n        /* \"@openzeppelin/contracts/utils/Counters.sol\":1032:1051  counter._value += 1 */\n      dup3\n      dup3\n      sload\n      add\n      swap3\n      pop\n      pop\n      dup2\n      swap1\n      sstore\n      pop\n        /* \"@openzeppelin/contracts/utils/Counters.sol\":945:1068  function increment(Counter storage counter) internal {... */\n      pop\n      jump\t// out\n    tag_70:\n      dup3\n      dup1\n      sload\n      tag_132\n      swap1\n      tag_58\n      jump\t// in\n    tag_132:\n      swap1\n      0x00\n      mstore\n      keccak256(0x00, 0x20)\n      swap1\n      0x1f\n      add\n      0x20\n      swap1\n      div\n      dup2\n      add\n      swap3\n      dup3\n      tag_134\n      jumpi\n      0x00\n      dup6\n      sstore\n      jump(tag_133)\n    tag_134:\n      dup3\n      0x1f\n      lt\n      tag_135\n      jumpi\n      dup1\n      mload\n      not(0xff)\n      and\n      dup4\n      dup1\n      add\n      or\n      dup6\n      sstore\n      jump(tag_133)\n    tag_135:\n      dup3\n      dup1\n      add\n      0x01\n      add\n      dup6\n      sstore\n      dup3\n      iszero\n      tag_133\n      jumpi\n      swap2\n      dup3\n      add\n    tag_136:\n      dup3\n      dup2\n      gt\n      iszero\n      tag_137\n      jumpi\n      dup3\n      mload\n      dup3\n      sstore\n      swap2\n      0x20\n      add\n      swap2\n      swap1\n      0x01\n      add\n      swap1\n      jump(tag_136)\n    tag_137:\n    tag_133:\n      pop\n      swap1\n      pop\n      tag_138\n      swap2\n      swap1\n      tag_139\n      jump\t// in\n    tag_138:\n      pop\n      swap1\n      jump\t// out\n    tag_75:\n      dup3\n      dup1\n      sload\n      tag_140\n      swap1\n      tag_58\n      jump\t// in\n    tag_140:\n      swap1\n      0x00\n      mstore\n      keccak256(0x00, 0x20)\n      swap1\n      0x1f\n      add\n      0x20\n      swap1\n      div\n      dup2\n      add\n      swap3\n      dup3\n      tag_142\n      jumpi\n      0x00\n      dup6\n      sstore\n      jump(tag_141)\n    tag_142:\n      dup3\n      0x1f\n      lt\n      tag_143\n      jumpi\n      dup1\n      sload\n      dup6\n      sstore\n      jump(tag_141)\n    tag_143:\n      dup3\n      dup1\n      add\n      0x01\n      add\n      dup6\n      sstore\n      dup3\n      iszero\n      tag_141\n      jumpi\n      0x00\n      mstore\n      keccak256(0x00, 0x20)\n      swap2\n      0x1f\n      add\n      0x20\n      swap1\n      div\n      dup3\n      add\n    tag_144:\n      dup3\n      dup2\n      gt\n      iszero\n      tag_145\n      jumpi\n      dup3\n      sload\n      dup3\n      sstore\n      swap2\n      0x01\n      add\n      swap2\n      swap1\n      0x01\n      add\n      swap1\n      jump(tag_144)\n    tag_145:\n    tag_141:\n      pop\n      swap1\n      pop\n      tag_146\n      swap2\n      swap1\n      tag_139\n      jump\t// in\n    tag_146:\n      pop\n      swap1\n      jump\t// out\n    tag_118:\n      mload(0x40)\n      dup1\n      0xc0\n      add\n      0x40\n      mstore\n      dup1\n      0x00\n      dup2\n      mstore\n      0x20\n      add\n      0x60\n      dup2\n      mstore\n      0x20\n      add\n      0x00\n      dup2\n      mstore\n      0x20\n      add\n      and(0xffffffffffffffffffffffffffffffffffffffff, 0x00)\n      dup2\n      mstore\n      0x20\n      add\n      0x00\n      dup2\n      mstore\n      0x20\n      add\n      and(0xffffffff, 0x00)\n      dup2\n      mstore\n      pop\n      swap1\n      jump\t// out\n    tag_139:\n    tag_147:\n      dup1\n      dup3\n      gt\n      iszero\n      tag_148\n      jumpi\n      0x00\n      dup2\n      0x00\n      swap1\n      sstore\n      pop\n      0x01\n      add\n      jump(tag_147)\n    tag_148:\n      pop\n      swap1\n      jump\t// out\n        /* \"#utility.yul\":7:419   */\n    tag_150:\n        /* \"#utility.yul\":85:90   */\n      0x00\n        /* \"#utility.yul\":110:176   */\n      tag_152\n        /* \"#utility.yul\":126:175   */\n      tag_153\n        /* \"#utility.yul\":168:174   */\n      dup5\n        /* \"#utility.yul\":126:175   */\n      tag_154\n      jump\t// in\n    tag_153:\n        /* \"#utility.yul\":110:176   */\n      tag_155\n      jump\t// in\n    tag_152:\n        /* \"#utility.yul\":101:176   */\n      swap1\n      pop\n        /* \"#utility.yul\":199:205   */\n      dup3\n        /* \"#utility.yul\":192:197   */\n      dup2\n        /* \"#utility.yul\":185:206   */\n      mstore\n        /* \"#utility.yul\":237:241   */\n      0x20\n        /* \"#utility.yul\":230:235   */\n      dup2\n        /* \"#utility.yul\":226:242   */\n      add\n        /* \"#utility.yul\":275:278   */\n      dup5\n        /* \"#utility.yul\":266:272   */\n      dup5\n        /* \"#utility.yul\":261:264   */\n      dup5\n        /* \"#utility.yul\":257:273   */\n      add\n        /* \"#utility.yul\":254:279   */\n      gt\n        /* \"#utility.yul\":251:363   */\n      iszero\n      tag_156\n      jumpi\n        /* \"#utility.yul\":282:361   */\n      tag_157\n      tag_158\n      jump\t// in\n    tag_157:\n        /* \"#utility.yul\":251:363   */\n    tag_156:\n        /* \"#utility.yul\":372:413   */\n      tag_159\n        /* \"#utility.yul\":406:412   */\n      dup5\n        /* \"#utility.yul\":401:404   */\n      dup3\n        /* \"#utility.yul\":396:399   */\n      dup6\n        /* \"#utility.yul\":372:413   */\n      tag_160\n      jump\t// in\n    tag_159:\n        /* \"#utility.yul\":91:419   */\n      pop\n        /* \"#utility.yul\":7:419   */\n      swap4\n      swap3\n      pop\n      pop\n      pop\n      jump\t// out\n        /* \"#utility.yul\":425:564   */\n    tag_161:\n        /* \"#utility.yul\":471:476   */\n      0x00\n        /* \"#utility.yul\":509:515   */\n      dup2\n        /* \"#utility.yul\":496:516   */\n      calldataload\n        /* \"#utility.yul\":487:516   */\n      swap1\n      pop\n        /* \"#utility.yul\":525:558   */\n      tag_163\n        /* \"#utility.yul\":552:557   */\n      dup2\n        /* \"#utility.yul\":525:558   */\n      tag_164\n      jump\t// in\n    tag_163:\n        /* \"#utility.yul\":425:564   */\n      swap3\n      swap2\n      pop\n      pop\n      jump\t// out\n        /* \"#utility.yul\":584:924   */\n    tag_165:\n        /* \"#utility.yul\":640:645   */\n      0x00\n        /* \"#utility.yul\":689:692   */\n      dup3\n        /* \"#utility.yul\":682:686   */\n      0x1f\n        /* \"#utility.yul\":674:680   */\n      dup4\n        /* \"#utility.yul\":670:687   */\n      add\n        /* \"#utility.yul\":666:693   */\n      slt\n        /* \"#utility.yul\":656:778   */\n      tag_167\n      jumpi\n        /* \"#utility.yul\":697:776   */\n      tag_168\n      tag_169\n      jump\t// in\n    tag_168:\n        /* \"#utility.yul\":656:778   */\n    tag_167:\n        /* \"#utility.yul\":814:820   */\n      dup2\n        /* \"#utility.yul\":801:821   */\n      calldataload\n        /* \"#utility.yul\":839:918   */\n      tag_170\n        /* \"#utility.yul\":914:917   */\n      dup5\n        /* \"#utility.yul\":906:912   */\n      dup3\n        /* \"#utility.yul\":899:903   */\n      0x20\n        /* \"#utility.yul\":891:897   */\n      dup7\n        /* \"#utility.yul\":887:904   */\n      add\n        /* \"#utility.yul\":839:918   */\n      tag_150\n      jump\t// in\n    tag_170:\n        /* \"#utility.yul\":830:918   */\n      swap2\n      pop\n        /* \"#utility.yul\":646:924   */\n      pop\n        /* \"#utility.yul\":584:924   */\n      swap3\n      swap2\n      pop\n      pop\n      jump\t// out\n        /* \"#utility.yul\":930:1069   */\n    tag_171:\n        /* \"#utility.yul\":976:981   */\n      0x00\n        /* \"#utility.yul\":1014:1020   */\n      dup2\n        /* \"#utility.yul\":1001:1021   */\n      calldataload\n        /* \"#utility.yul\":992:1021   */\n      swap1\n      pop\n        /* \"#utility.yul\":1030:1063   */\n      tag_173\n        /* \"#utility.yul\":1057:1062   */\n      dup2\n        /* \"#utility.yul\":1030:1063   */\n      tag_174\n      jump\t// in\n    tag_173:\n        /* \"#utility.yul\":930:1069   */\n      swap3\n      swap2\n      pop\n      pop\n      jump\t// out\n        /* \"#utility.yul\":1075:1212   */\n    tag_175:\n        /* \"#utility.yul\":1120:1125   */\n      0x00\n        /* \"#utility.yul\":1158:1164   */\n      dup2\n        /* \"#utility.yul\":1145:1165   */\n      calldataload\n        /* \"#utility.yul\":1136:1165   */\n      swap1\n      pop\n        /* \"#utility.yul\":1174:1206   */\n      tag_177\n        /* \"#utility.yul\":1200:1205   */\n      dup2\n        /* \"#utility.yul\":1174:1206   */\n      tag_178\n      jump\t// in\n    tag_177:\n        /* \"#utility.yul\":1075:1212   */\n      swap3\n      swap2\n      pop\n      pop\n      jump\t// out\n        /* \"#utility.yul\":1218:1547   */\n    tag_31:\n        /* \"#utility.yul\":1277:1283   */\n      0x00\n        /* \"#utility.yul\":1326:1328   */\n      0x20\n        /* \"#utility.yul\":1314:1323   */\n      dup3\n        /* \"#utility.yul\":1305:1312   */\n      dup5\n        /* \"#utility.yul\":1301:1324   */\n      sub\n        /* \"#utility.yul\":1297:1329   */\n      slt\n        /* \"#utility.yul\":1294:1413   */\n      iszero\n      tag_180\n      jumpi\n        /* \"#utility.yul\":1332:1411   */\n      tag_181\n      tag_182\n      jump\t// in\n    tag_181:\n        /* \"#utility.yul\":1294:1413   */\n    tag_180:\n        /* \"#utility.yul\":1452:1453   */\n      0x00\n        /* \"#utility.yul\":1477:1530   */\n      tag_183\n        /* \"#utility.yul\":1522:1529   */\n      dup5\n        /* \"#utility.yul\":1513:1519   */\n      dup3\n        /* \"#utility.yul\":1502:1511   */\n      dup6\n        /* \"#utility.yul\":1498:1520   */\n      add\n        /* \"#utility.yul\":1477:1530   */\n      tag_161\n      jump\t// in\n    tag_183:\n        /* \"#utility.yul\":1467:1530   */\n      swap2\n      pop\n        /* \"#utility.yul\":1423:1540   */\n      pop\n        /* \"#utility.yul\":1218:1547   */\n      swap3\n      swap2\n      pop\n      pop\n      jump\t// out\n        /* \"#utility.yul\":1553:1882   */\n    tag_14:\n        /* \"#utility.yul\":1612:1618   */\n      0x00\n        /* \"#utility.yul\":1661:1663   */\n      0x20\n        /* \"#utility.yul\":1649:1658   */\n      dup3\n        /* \"#utility.yul\":1640:1647   */\n      dup5\n        /* \"#utility.yul\":1636:1659   */\n      sub\n        /* \"#utility.yul\":1632:1664   */\n      slt\n        /* \"#utility.yul\":1629:1748   */\n      iszero\n      tag_185\n      jumpi\n        /* \"#utility.yul\":1667:1746   */\n      tag_186\n      tag_182\n      jump\t// in\n    tag_186:\n        /* \"#utility.yul\":1629:1748   */\n    tag_185:\n        /* \"#utility.yul\":1787:1788   */\n      0x00\n        /* \"#utility.yul\":1812:1865   */\n      tag_187\n        /* \"#utility.yul\":1857:1864   */\n      dup5\n        /* \"#utility.yul\":1848:1854   */\n      dup3\n        /* \"#utility.yul\":1837:1846   */\n      dup6\n        /* \"#utility.yul\":1833:1855   */\n      add\n        /* \"#utility.yul\":1812:1865   */\n      tag_171\n      jump\t// in\n    tag_187:\n        /* \"#utility.yul\":1802:1865   */\n      swap2\n      pop\n        /* \"#utility.yul\":1758:1875   */\n      pop\n        /* \"#utility.yul\":1553:1882   */\n      swap3\n      swap2\n      pop\n      pop\n      jump\t// out\n        /* \"#utility.yul\":1888:2685   */\n    tag_23:\n        /* \"#utility.yul\":1974:1980   */\n      0x00\n        /* \"#utility.yul\":1982:1988   */\n      dup1\n        /* \"#utility.yul\":1990:1996   */\n      0x00\n        /* \"#utility.yul\":2039:2041   */\n      0x60\n        /* \"#utility.yul\":2027:2036   */\n      dup5\n        /* \"#utility.yul\":2018:2025   */\n      dup7\n        /* \"#utility.yul\":2014:2037   */\n      sub\n        /* \"#utility.yul\":2010:2042   */\n      slt\n        /* \"#utility.yul\":2007:2126   */\n      iszero\n      tag_189\n      jumpi\n        /* \"#utility.yul\":2045:2124   */\n      tag_190\n      tag_182\n      jump\t// in\n    tag_190:\n        /* \"#utility.yul\":2007:2126   */\n    tag_189:\n        /* \"#utility.yul\":2165:2166   */\n      0x00\n        /* \"#utility.yul\":2190:2243   */\n      tag_191\n        /* \"#utility.yul\":2235:2242   */\n      dup7\n        /* \"#utility.yul\":2226:2232   */\n      dup3\n        /* \"#utility.yul\":2215:2224   */\n      dup8\n        /* \"#utility.yul\":2211:2233   */\n      add\n        /* \"#utility.yul\":2190:2243   */\n      tag_171\n      jump\t// in\n    tag_191:\n        /* \"#utility.yul\":2180:2243   */\n      swap4\n      pop\n        /* \"#utility.yul\":2136:2253   */\n      pop\n        /* \"#utility.yul\":2320:2322   */\n      0x20\n        /* \"#utility.yul\":2309:2318   */\n      dup5\n        /* \"#utility.yul\":2305:2323   */\n      add\n        /* \"#utility.yul\":2292:2324   */\n      calldataload\n        /* \"#utility.yul\":2351:2369   */\n      0xffffffffffffffff\n        /* \"#utility.yul\":2343:2349   */\n      dup2\n        /* \"#utility.yul\":2340:2370   */\n      gt\n        /* \"#utility.yul\":2337:2454   */\n      iszero\n      tag_192\n      jumpi\n        /* \"#utility.yul\":2373:2452   */\n      tag_193\n      tag_194\n      jump\t// in\n    tag_193:\n        /* \"#utility.yul\":2337:2454   */\n    tag_192:\n        /* \"#utility.yul\":2478:2541   */\n      tag_195\n        /* \"#utility.yul\":2533:2540   */\n      dup7\n        /* \"#utility.yul\":2524:2530   */\n      dup3\n        /* \"#utility.yul\":2513:2522   */\n      dup8\n        /* \"#utility.yul\":2509:2531   */\n      add\n        /* \"#utility.yul\":2478:2541   */\n      tag_165\n      jump\t// in\n    tag_195:\n        /* \"#utility.yul\":2468:2541   */\n      swap3\n      pop\n        /* \"#utility.yul\":2263:2551   */\n      pop\n        /* \"#utility.yul\":2590:2592   */\n      0x40\n        /* \"#utility.yul\":2616:2668   */\n      tag_196\n        /* \"#utility.yul\":2660:2667   */\n      dup7\n        /* \"#utility.yul\":2651:2657   */\n      dup3\n        /* \"#utility.yul\":2640:2649   */\n      dup8\n        /* \"#utility.yul\":2636:2658   */\n      add\n        /* \"#utility.yul\":2616:2668   */\n      tag_175\n      jump\t// in\n    tag_196:\n        /* \"#utility.yul\":2606:2668   */\n      swap2\n      pop\n        /* \"#utility.yul\":2561:2678   */\n      pop\n        /* \"#utility.yul\":1888:2685   */\n      swap3\n      pop\n      swap3\n      pop\n      swap3\n      jump\t// out\n        /* \"#utility.yul\":2691:2931   */\n    tag_197:\n        /* \"#utility.yul\":2802:2812   */\n      0x00\n        /* \"#utility.yul\":2837:2925   */\n      tag_199\n        /* \"#utility.yul\":2921:2924   */\n      dup4\n        /* \"#utility.yul\":2913:2919   */\n      dup4\n        /* \"#utility.yul\":2837:2925   */\n      tag_200\n      jump\t// in\n    tag_199:\n        /* \"#utility.yul\":2823:2925   */\n      swap1\n      pop\n        /* \"#utility.yul\":2691:2931   */\n      swap3\n      swap2\n      pop\n      pop\n      jump\t// out\n        /* \"#utility.yul\":2937:3171   */\n    tag_201:\n        /* \"#utility.yul\":3045:3055   */\n      0x00\n        /* \"#utility.yul\":3080:3165   */\n      tag_203\n        /* \"#utility.yul\":3161:3164   */\n      dup4\n        /* \"#utility.yul\":3153:3159   */\n      dup4\n        /* \"#utility.yul\":3080:3165   */\n      tag_204\n      jump\t// in\n    tag_203:\n        /* \"#utility.yul\":3066:3165   */\n      swap1\n      pop\n        /* \"#utility.yul\":2937:3171   */\n      swap3\n      swap2\n      pop\n      pop\n      jump\t// out\n        /* \"#utility.yul\":3177:3285   */\n    tag_205:\n        /* \"#utility.yul\":3254:3278   */\n      tag_207\n        /* \"#utility.yul\":3272:3277   */\n      dup2\n        /* \"#utility.yul\":3254:3278   */\n      tag_208\n      jump\t// in\n    tag_207:\n        /* \"#utility.yul\":3249:3252   */\n      dup3\n        /* \"#utility.yul\":3242:3279   */\n      mstore\n        /* \"#utility.yul\":3177:3285   */\n      pop\n      pop\n      jump\t// out\n        /* \"#utility.yul\":3291:3409   */\n    tag_209:\n        /* \"#utility.yul\":3378:3402   */\n      tag_211\n        /* \"#utility.yul\":3396:3401   */\n      dup2\n        /* \"#utility.yul\":3378:3402   */\n      tag_208\n      jump\t// in\n    tag_211:\n        /* \"#utility.yul\":3373:3376   */\n      dup3\n        /* \"#utility.yul\":3366:3403   */\n      mstore\n        /* \"#utility.yul\":3291:3409   */\n      pop\n      pop\n      jump\t// out\n        /* \"#utility.yul\":3471:4550   */\n    tag_212:\n        /* \"#utility.yul\":3632:3635   */\n      0x00\n        /* \"#utility.yul\":3661:3736   */\n      tag_214\n        /* \"#utility.yul\":3730:3735   */\n      dup3\n        /* \"#utility.yul\":3661:3736   */\n      tag_215\n      jump\t// in\n    tag_214:\n        /* \"#utility.yul\":3752:3859   */\n      tag_216\n        /* \"#utility.yul\":3852:3858   */\n      dup2\n        /* \"#utility.yul\":3847:3850   */\n      dup6\n        /* \"#utility.yul\":3752:3859   */\n      tag_217\n      jump\t// in\n    tag_216:\n        /* \"#utility.yul\":3745:3859   */\n      swap4\n      pop\n        /* \"#utility.yul\":3885:3888   */\n      dup4\n        /* \"#utility.yul\":3930:3934   */\n      0x20\n        /* \"#utility.yul\":3922:3928   */\n      dup3\n        /* \"#utility.yul\":3918:3935   */\n      mul\n        /* \"#utility.yul\":3913:3916   */\n      dup6\n        /* \"#utility.yul\":3909:3936   */\n      add\n        /* \"#utility.yul\":3960:4037   */\n      tag_218\n        /* \"#utility.yul\":4031:4036   */\n      dup6\n        /* \"#utility.yul\":3960:4037   */\n      tag_219\n      jump\t// in\n    tag_218:\n        /* \"#utility.yul\":4060:4067   */\n      dup1\n        /* \"#utility.yul\":4091:4092   */\n      0x00\n        /* \"#utility.yul\":4076:4505   */\n    tag_220:\n        /* \"#utility.yul\":4101:4107   */\n      dup6\n        /* \"#utility.yul\":4098:4099   */\n      dup2\n        /* \"#utility.yul\":4095:4108   */\n      lt\n        /* \"#utility.yul\":4076:4505   */\n      iszero\n      tag_222\n      jumpi\n        /* \"#utility.yul\":4172:4181   */\n      dup5\n        /* \"#utility.yul\":4166:4170   */\n      dup5\n        /* \"#utility.yul\":4162:4182   */\n      sub\n        /* \"#utility.yul\":4157:4160   */\n      dup10\n        /* \"#utility.yul\":4150:4183   */\n      mstore\n        /* \"#utility.yul\":4223:4229   */\n      dup2\n        /* \"#utility.yul\":4217:4230   */\n      mload\n        /* \"#utility.yul\":4251:4357   */\n      tag_223\n        /* \"#utility.yul\":4352:4356   */\n      dup6\n        /* \"#utility.yul\":4337:4350   */\n      dup3\n        /* \"#utility.yul\":4251:4357   */\n      tag_197\n      jump\t// in\n    tag_223:\n        /* \"#utility.yul\":4243:4357   */\n      swap5\n      pop\n        /* \"#utility.yul\":4380:4461   */\n      tag_224\n        /* \"#utility.yul\":4454:4460   */\n      dup4\n        /* \"#utility.yul\":4380:4461   */\n      tag_225\n      jump\t// in\n    tag_224:\n        /* \"#utility.yul\":4370:4461   */\n      swap3\n      pop\n        /* \"#utility.yul\":4490:4494   */\n      0x20\n        /* \"#utility.yul\":4485:4488   */\n      dup11\n        /* \"#utility.yul\":4481:4495   */\n      add\n        /* \"#utility.yul\":4474:4495   */\n      swap10\n      pop\n        /* \"#utility.yul\":4136:4505   */\n      pop\n        /* \"#utility.yul\":4123:4124   */\n      0x01\n        /* \"#utility.yul\":4120:4121   */\n      dup2\n        /* \"#utility.yul\":4116:4125   */\n      add\n        /* \"#utility.yul\":4111:4125   */\n      swap1\n      pop\n        /* \"#utility.yul\":4076:4505   */\n      jump(tag_220)\n    tag_222:\n        /* \"#utility.yul\":4080:4094   */\n      pop\n        /* \"#utility.yul\":4521:4525   */\n      dup3\n        /* \"#utility.yul\":4514:4525   */\n      swap8\n      pop\n        /* \"#utility.yul\":4541:4544   */\n      dup8\n        /* \"#utility.yul\":4534:4544   */\n      swap6\n      pop\n        /* \"#utility.yul\":3637:4550   */\n      pop\n      pop\n      pop\n      pop\n      pop\n        /* \"#utility.yul\":3471:4550   */\n      swap3\n      swap2\n      pop\n      pop\n      jump\t// out\n        /* \"#utility.yul\":4612:5657   */\n    tag_226:\n        /* \"#utility.yul\":4767:4770   */\n      0x00\n        /* \"#utility.yul\":4796:4865   */\n      tag_228\n        /* \"#utility.yul\":4859:4864   */\n      dup3\n        /* \"#utility.yul\":4796:4865   */\n      tag_229\n      jump\t// in\n    tag_228:\n        /* \"#utility.yul\":4881:4988   */\n      tag_230\n        /* \"#utility.yul\":4981:4987   */\n      dup2\n        /* \"#utility.yul\":4976:4979   */\n      dup6\n        /* \"#utility.yul\":4881:4988   */\n      tag_217\n      jump\t// in\n    tag_230:\n        /* \"#utility.yul\":4874:4988   */\n      swap4\n      pop\n        /* \"#utility.yul\":5014:5017   */\n      dup4\n        /* \"#utility.yul\":5059:5063   */\n      0x20\n        /* \"#utility.yul\":5051:5057   */\n      dup3\n        /* \"#utility.yul\":5047:5064   */\n      mul\n        /* \"#utility.yul\":5042:5045   */\n      dup6\n        /* \"#utility.yul\":5038:5065   */\n      add\n        /* \"#utility.yul\":5089:5160   */\n      tag_231\n        /* \"#utility.yul\":5154:5159   */\n      dup6\n        /* \"#utility.yul\":5089:5160   */\n      tag_232\n      jump\t// in\n    tag_231:\n        /* \"#utility.yul\":5183:5190   */\n      dup1\n        /* \"#utility.yul\":5214:5215   */\n      0x00\n        /* \"#utility.yul\":5199:5612   */\n    tag_233:\n        /* \"#utility.yul\":5224:5230   */\n      dup6\n        /* \"#utility.yul\":5221:5222   */\n      dup2\n        /* \"#utility.yul\":5218:5231   */\n      lt\n        /* \"#utility.yul\":5199:5612   */\n      iszero\n      tag_235\n      jumpi\n        /* \"#utility.yul\":5295:5304   */\n      dup5\n        /* \"#utility.yul\":5289:5293   */\n      dup5\n        /* \"#utility.yul\":5285:5305   */\n      sub\n        /* \"#utility.yul\":5280:5283   */\n      dup10\n        /* \"#utility.yul\":5273:5306   */\n      mstore\n        /* \"#utility.yul\":5340:5346   */\n      dup2\n        /* \"#utility.yul\":5367:5470   */\n      tag_236\n        /* \"#utility.yul\":5465:5469   */\n      dup6\n        /* \"#utility.yul\":5450:5463   */\n      dup3\n        /* \"#utility.yul\":5367:5470   */\n      tag_201\n      jump\t// in\n    tag_236:\n        /* \"#utility.yul\":5359:5470   */\n      swap5\n      pop\n        /* \"#utility.yul\":5493:5568   */\n      tag_237\n        /* \"#utility.yul\":5561:5567   */\n      dup4\n        /* \"#utility.yul\":5493:5568   */\n      tag_238\n      jump\t// in\n    tag_237:\n        /* \"#utility.yul\":5483:5568   */\n      swap3\n      pop\n        /* \"#utility.yul\":5597:5601   */\n      0x20\n        /* \"#utility.yul\":5592:5595   */\n      dup11\n        /* \"#utility.yul\":5588:5602   */\n      add\n        /* \"#utility.yul\":5581:5602   */\n      swap10\n      pop\n        /* \"#utility.yul\":5259:5612   */\n      pop\n        /* \"#utility.yul\":5246:5247   */\n      0x01\n        /* \"#utility.yul\":5243:5244   */\n      dup2\n        /* \"#utility.yul\":5239:5248   */\n      add\n        /* \"#utility.yul\":5234:5248   */\n      swap1\n      pop\n        /* \"#utility.yul\":5199:5612   */\n      jump(tag_233)\n    tag_235:\n        /* \"#utility.yul\":5203:5217   */\n      pop\n        /* \"#utility.yul\":5628:5632   */\n      dup3\n        /* \"#utility.yul\":5621:5632   */\n      swap8\n      pop\n        /* \"#utility.yul\":5648:5651   */\n      dup8\n        /* \"#utility.yul\":5641:5651   */\n      swap6\n      pop\n        /* \"#utility.yul\":4772:5657   */\n      pop\n      pop\n      pop\n      pop\n      pop\n        /* \"#utility.yul\":4612:5657   */\n      swap3\n      swap2\n      pop\n      pop\n      jump\t// out\n        /* \"#utility.yul\":5663:5822   */\n    tag_239:\n        /* \"#utility.yul\":5764:5815   */\n      tag_241\n        /* \"#utility.yul\":5809:5814   */\n      dup2\n        /* \"#utility.yul\":5764:5815   */\n      tag_242\n      jump\t// in\n    tag_241:\n        /* \"#utility.yul\":5759:5762   */\n      dup3\n        /* \"#utility.yul\":5752:5816   */\n      mstore\n        /* \"#utility.yul\":5663:5822   */\n      pop\n      pop\n      jump\t// out\n        /* \"#utility.yul\":5828:6172   */\n    tag_243:\n        /* \"#utility.yul\":5906:5909   */\n      0x00\n        /* \"#utility.yul\":5934:5973   */\n      tag_245\n        /* \"#utility.yul\":5967:5972   */\n      dup3\n        /* \"#utility.yul\":5934:5973   */\n      tag_246\n      jump\t// in\n    tag_245:\n        /* \"#utility.yul\":5989:6050   */\n      tag_247\n        /* \"#utility.yul\":6043:6049   */\n      dup2\n        /* \"#utility.yul\":6038:6041   */\n      dup6\n        /* \"#utility.yul\":5989:6050   */\n      tag_248\n      jump\t// in\n    tag_247:\n        /* \"#utility.yul\":5982:6050   */\n      swap4\n      pop\n        /* \"#utility.yul\":6059:6111   */\n      tag_249\n        /* \"#utility.yul\":6104:6110   */\n      dup2\n        /* \"#utility.yul\":6099:6102   */\n      dup6\n        /* \"#utility.yul\":6092:6096   */\n      0x20\n        /* \"#utility.yul\":6085:6090   */\n      dup7\n        /* \"#utility.yul\":6081:6097   */\n      add\n        /* \"#utility.yul\":6059:6111   */\n      tag_250\n      jump\t// in\n    tag_249:\n        /* \"#utility.yul\":6136:6165   */\n      tag_251\n        /* \"#utility.yul\":6158:6164   */\n      dup2\n        /* \"#utility.yul\":6136:6165   */\n      tag_252\n      jump\t// in\n    tag_251:\n        /* \"#utility.yul\":6131:6134   */\n      dup5\n        /* \"#utility.yul\":6127:6166   */\n      add\n        /* \"#utility.yul\":6120:6166   */\n      swap2\n      pop\n        /* \"#utility.yul\":5910:6172   */\n      pop\n        /* \"#utility.yul\":5828:6172   */\n      swap3\n      swap2\n      pop\n      pop\n      jump\t// out\n        /* \"#utility.yul\":6178:6542   */\n    tag_253:\n        /* \"#utility.yul\":6266:6269   */\n      0x00\n        /* \"#utility.yul\":6294:6333   */\n      tag_255\n        /* \"#utility.yul\":6327:6332   */\n      dup3\n        /* \"#utility.yul\":6294:6333   */\n      tag_246\n      jump\t// in\n    tag_255:\n        /* \"#utility.yul\":6349:6420   */\n      tag_256\n        /* \"#utility.yul\":6413:6419   */\n      dup2\n        /* \"#utility.yul\":6408:6411   */\n      dup6\n        /* \"#utility.yul\":6349:6420   */\n      tag_257\n      jump\t// in\n    tag_256:\n        /* \"#utility.yul\":6342:6420   */\n      swap4\n      pop\n        /* \"#utility.yul\":6429:6481   */\n      tag_258\n        /* \"#utility.yul\":6474:6480   */\n      dup2\n        /* \"#utility.yul\":6469:6472   */\n      dup6\n        /* \"#utility.yul\":6462:6466   */\n      0x20\n        /* \"#utility.yul\":6455:6460   */\n      dup7\n        /* \"#utility.yul\":6451:6467   */\n      add\n        /* \"#utility.yul\":6429:6481   */\n      tag_250\n      jump\t// in\n    tag_258:\n        /* \"#utility.yul\":6506:6535   */\n      tag_259\n        /* \"#utility.yul\":6528:6534   */\n      dup2\n        /* \"#utility.yul\":6506:6535   */\n      tag_252\n      jump\t// in\n    tag_259:\n        /* \"#utility.yul\":6501:6504   */\n      dup5\n        /* \"#utility.yul\":6497:6536   */\n      add\n        /* \"#utility.yul\":6490:6536   */\n      swap2\n      pop\n        /* \"#utility.yul\":6270:6542   */\n      pop\n        /* \"#utility.yul\":6178:6542   */\n      swap3\n      swap2\n      pop\n      pop\n      jump\t// out\n        /* \"#utility.yul\":6572:7354   */\n    tag_260:\n        /* \"#utility.yul\":6647:6650   */\n      0x00\n        /* \"#utility.yul\":6684:6689   */\n      dup2\n        /* \"#utility.yul\":6678:6690   */\n      sload\n        /* \"#utility.yul\":6713:6749   */\n      tag_262\n        /* \"#utility.yul\":6739:6748   */\n      dup2\n        /* \"#utility.yul\":6713:6749   */\n      tag_58\n      jump\t// in\n    tag_262:\n        /* \"#utility.yul\":6765:6826   */\n      tag_263\n        /* \"#utility.yul\":6819:6825   */\n      dup2\n        /* \"#utility.yul\":6814:6817   */\n      dup7\n        /* \"#utility.yul\":6765:6826   */\n      tag_248\n      jump\t// in\n    tag_263:\n        /* \"#utility.yul\":6758:6826   */\n      swap5\n      pop\n        /* \"#utility.yul\":6857:6858   */\n      0x01\n        /* \"#utility.yul\":6846:6855   */\n      dup3\n        /* \"#utility.yul\":6842:6859   */\n      and\n        /* \"#utility.yul\":6873:6874   */\n      0x00\n        /* \"#utility.yul\":6868:7003   */\n      dup2\n      eq\n      tag_265\n      jumpi\n        /* \"#utility.yul\":7017:7018   */\n      0x01\n        /* \"#utility.yul\":7012:7348   */\n      dup2\n      eq\n      tag_266\n      jumpi\n        /* \"#utility.yul\":6835:7348   */\n      jump(tag_264)\n        /* \"#utility.yul\":6868:7003   */\n    tag_265:\n        /* \"#utility.yul\":6952:6956   */\n      0xff\n        /* \"#utility.yul\":6948:6957   */\n      not\n        /* \"#utility.yul\":6937:6946   */\n      dup4\n        /* \"#utility.yul\":6933:6958   */\n      and\n        /* \"#utility.yul\":6928:6931   */\n      dup7\n        /* \"#utility.yul\":6921:6959   */\n      mstore\n        /* \"#utility.yul\":6988:6992   */\n      0x20\n        /* \"#utility.yul\":6983:6986   */\n      dup7\n        /* \"#utility.yul\":6979:6993   */\n      add\n        /* \"#utility.yul\":6972:6993   */\n      swap4\n      pop\n        /* \"#utility.yul\":6868:7003   */\n      jump(tag_264)\n        /* \"#utility.yul\":7012:7348   */\n    tag_266:\n        /* \"#utility.yul\":7079:7117   */\n      tag_267\n        /* \"#utility.yul\":7111:7116   */\n      dup6\n        /* \"#utility.yul\":7079:7117   */\n      tag_268\n      jump\t// in\n    tag_267:\n        /* \"#utility.yul\":7139:7140   */\n      0x00\n        /* \"#utility.yul\":7153:7307   */\n    tag_269:\n        /* \"#utility.yul\":7167:7173   */\n      dup4\n        /* \"#utility.yul\":7164:7165   */\n      dup2\n        /* \"#utility.yul\":7161:7174   */\n      lt\n        /* \"#utility.yul\":7153:7307   */\n      iszero\n      tag_271\n      jumpi\n        /* \"#utility.yul\":7241:7248   */\n      dup2\n        /* \"#utility.yul\":7235:7249   */\n      sload\n        /* \"#utility.yul\":7231:7232   */\n      dup2\n        /* \"#utility.yul\":7226:7229   */\n      dup10\n        /* \"#utility.yul\":7222:7233   */\n      add\n        /* \"#utility.yul\":7215:7250   */\n      mstore\n        /* \"#utility.yul\":7291:7292   */\n      0x01\n        /* \"#utility.yul\":7282:7289   */\n      dup3\n        /* \"#utility.yul\":7278:7293   */\n      add\n        /* \"#utility.yul\":7267:7293   */\n      swap2\n      pop\n        /* \"#utility.yul\":7189:7193   */\n      0x20\n        /* \"#utility.yul\":7186:7187   */\n      dup2\n        /* \"#utility.yul\":7182:7194   */\n      add\n        /* \"#utility.yul\":7177:7194   */\n      swap1\n      pop\n        /* \"#utility.yul\":7153:7307   */\n      jump(tag_269)\n    tag_271:\n        /* \"#utility.yul\":7336:7337   */\n      dup1\n        /* \"#utility.yul\":7331:7334   */\n      dup9\n        /* \"#utility.yul\":7327:7338   */\n      add\n        /* \"#utility.yul\":7320:7338   */\n      swap6\n      pop\n        /* \"#utility.yul\":7019:7348   */\n      pop\n      pop\n        /* \"#utility.yul\":6835:7348   */\n    tag_264:\n      pop\n        /* \"#utility.yul\":6651:7354   */\n      pop\n      pop\n        /* \"#utility.yul\":6572:7354   */\n      swap3\n      swap2\n      pop\n      pop\n      jump\t// out\n        /* \"#utility.yul\":7360:7726   */\n    tag_272:\n        /* \"#utility.yul\":7502:7505   */\n      0x00\n        /* \"#utility.yul\":7523:7590   */\n      tag_274\n        /* \"#utility.yul\":7587:7589   */\n      0x22\n        /* \"#utility.yul\":7582:7585   */\n      dup4\n        /* \"#utility.yul\":7523:7590   */\n      tag_257\n      jump\t// in\n    tag_274:\n        /* \"#utility.yul\":7516:7590   */\n      swap2\n      pop\n        /* \"#utility.yul\":7599:7692   */\n      tag_275\n        /* \"#utility.yul\":7688:7691   */\n      dup3\n        /* \"#utility.yul\":7599:7692   */\n      tag_276\n      jump\t// in\n    tag_275:\n        /* \"#utility.yul\":7717:7719   */\n      0x40\n        /* \"#utility.yul\":7712:7715   */\n      dup3\n        /* \"#utility.yul\":7708:7720   */\n      add\n        /* \"#utility.yul\":7701:7720   */\n      swap1\n      pop\n        /* \"#utility.yul\":7360:7726   */\n      swap2\n      swap1\n      pop\n      jump\t// out\n        /* \"#utility.yul\":7732:8098   */\n    tag_277:\n        /* \"#utility.yul\":7874:7877   */\n      0x00\n        /* \"#utility.yul\":7895:7962   */\n      tag_279\n        /* \"#utility.yul\":7959:7961   */\n      0x1d\n        /* \"#utility.yul\":7954:7957   */\n      dup4\n        /* \"#utility.yul\":7895:7962   */\n      tag_257\n      jump\t// in\n    tag_279:\n        /* \"#utility.yul\":7888:7962   */\n      swap2\n      pop\n        /* \"#utility.yul\":7971:8064   */\n      tag_280\n        /* \"#utility.yul\":8060:8063   */\n      dup3\n        /* \"#utility.yul\":7971:8064   */\n      tag_281\n      jump\t// in\n    tag_280:\n        /* \"#utility.yul\":8089:8091   */\n      0x20\n        /* \"#utility.yul\":8084:8087   */\n      dup3\n        /* \"#utility.yul\":8080:8092   */\n      add\n        /* \"#utility.yul\":8073:8092   */\n      swap1\n      pop\n        /* \"#utility.yul\":7732:8098   */\n      swap2\n      swap1\n      pop\n      jump\t// out\n        /* \"#utility.yul\":8156:9451   */\n    tag_200:\n        /* \"#utility.yul\":8257:8260   */\n      0x00\n        /* \"#utility.yul\":8293:8297   */\n      0xc0\n        /* \"#utility.yul\":8288:8291   */\n      dup4\n        /* \"#utility.yul\":8284:8298   */\n      add\n        /* \"#utility.yul\":8382:8386   */\n      0x00\n        /* \"#utility.yul\":8375:8380   */\n      dup4\n        /* \"#utility.yul\":8371:8387   */\n      add\n        /* \"#utility.yul\":8365:8388   */\n      mload\n        /* \"#utility.yul\":8401:8464   */\n      tag_283\n        /* \"#utility.yul\":8458:8462   */\n      0x00\n        /* \"#utility.yul\":8453:8456   */\n      dup7\n        /* \"#utility.yul\":8449:8463   */\n      add\n        /* \"#utility.yul\":8435:8447   */\n      dup3\n        /* \"#utility.yul\":8401:8464   */\n      tag_284\n      jump\t// in\n    tag_283:\n        /* \"#utility.yul\":8308:8474   */\n      pop\n        /* \"#utility.yul\":8561:8565   */\n      0x20\n        /* \"#utility.yul\":8554:8559   */\n      dup4\n        /* \"#utility.yul\":8550:8566   */\n      add\n        /* \"#utility.yul\":8544:8567   */\n      mload\n        /* \"#utility.yul\":8614:8617   */\n      dup5\n        /* \"#utility.yul\":8608:8612   */\n      dup3\n        /* \"#utility.yul\":8604:8618   */\n      sub\n        /* \"#utility.yul\":8597:8601   */\n      0x20\n        /* \"#utility.yul\":8592:8595   */\n      dup7\n        /* \"#utility.yul\":8588:8602   */\n      add\n        /* \"#utility.yul\":8581:8619   */\n      mstore\n        /* \"#utility.yul\":8640:8713   */\n      tag_285\n        /* \"#utility.yul\":8708:8712   */\n      dup3\n        /* \"#utility.yul\":8694:8706   */\n      dup3\n        /* \"#utility.yul\":8640:8713   */\n      tag_243\n      jump\t// in\n    tag_285:\n        /* \"#utility.yul\":8632:8713   */\n      swap2\n      pop\n        /* \"#utility.yul\":8484:8724   */\n      pop\n        /* \"#utility.yul\":8806:8810   */\n      0x40\n        /* \"#utility.yul\":8799:8804   */\n      dup4\n        /* \"#utility.yul\":8795:8811   */\n      add\n        /* \"#utility.yul\":8789:8812   */\n      mload\n        /* \"#utility.yul\":8825:8888   */\n      tag_286\n        /* \"#utility.yul\":8882:8886   */\n      0x40\n        /* \"#utility.yul\":8877:8880   */\n      dup7\n        /* \"#utility.yul\":8873:8887   */\n      add\n        /* \"#utility.yul\":8859:8871   */\n      dup3\n        /* \"#utility.yul\":8825:8888   */\n      tag_284\n      jump\t// in\n    tag_286:\n        /* \"#utility.yul\":8734:8898   */\n      pop\n        /* \"#utility.yul\":8982:8986   */\n      0x60\n        /* \"#utility.yul\":8975:8980   */\n      dup4\n        /* \"#utility.yul\":8971:8987   */\n      add\n        /* \"#utility.yul\":8965:8988   */\n      mload\n        /* \"#utility.yul\":9001:9064   */\n      tag_287\n        /* \"#utility.yul\":9058:9062   */\n      0x60\n        /* \"#utility.yul\":9053:9056   */\n      dup7\n        /* \"#utility.yul\":9049:9063   */\n      add\n        /* \"#utility.yul\":9035:9047   */\n      dup3\n        /* \"#utility.yul\":9001:9064   */\n      tag_205\n      jump\t// in\n    tag_287:\n        /* \"#utility.yul\":8908:9074   */\n      pop\n        /* \"#utility.yul\":9157:9161   */\n      0x80\n        /* \"#utility.yul\":9150:9155   */\n      dup4\n        /* \"#utility.yul\":9146:9162   */\n      add\n        /* \"#utility.yul\":9140:9163   */\n      mload\n        /* \"#utility.yul\":9176:9239   */\n      tag_288\n        /* \"#utility.yul\":9233:9237   */\n      0x80\n        /* \"#utility.yul\":9228:9231   */\n      dup7\n        /* \"#utility.yul\":9224:9238   */\n      add\n        /* \"#utility.yul\":9210:9222   */\n      dup3\n        /* \"#utility.yul\":9176:9239   */\n      tag_284\n      jump\t// in\n    tag_288:\n        /* \"#utility.yul\":9084:9249   */\n      pop\n        /* \"#utility.yul\":9334:9338   */\n      0xa0\n        /* \"#utility.yul\":9327:9332   */\n      dup4\n        /* \"#utility.yul\":9323:9339   */\n      add\n        /* \"#utility.yul\":9317:9340   */\n      mload\n        /* \"#utility.yul\":9353:9414   */\n      tag_289\n        /* \"#utility.yul\":9408:9412   */\n      0xa0\n        /* \"#utility.yul\":9403:9406   */\n      dup7\n        /* \"#utility.yul\":9399:9413   */\n      add\n        /* \"#utility.yul\":9385:9397   */\n      dup3\n        /* \"#utility.yul\":9353:9414   */\n      tag_290\n      jump\t// in\n    tag_289:\n        /* \"#utility.yul\":9259:9424   */\n      pop\n        /* \"#utility.yul\":9441:9445   */\n      dup1\n        /* \"#utility.yul\":9434:9445   */\n      swap2\n      pop\n        /* \"#utility.yul\":8262:9451   */\n      pop\n        /* \"#utility.yul\":8156:9451   */\n      swap3\n      swap2\n      pop\n      pop\n      jump\t// out\n        /* \"#utility.yul\":9509:10814   */\n    tag_291:\n        /* \"#utility.yul\":9620:9623   */\n      0x00\n        /* \"#utility.yul\":9656:9660   */\n      0xc0\n        /* \"#utility.yul\":9651:9654   */\n      dup4\n        /* \"#utility.yul\":9647:9661   */\n      add\n        /* \"#utility.yul\":9745:9749   */\n      0x00\n        /* \"#utility.yul\":9738:9743   */\n      dup4\n        /* \"#utility.yul\":9734:9750   */\n      add\n        /* \"#utility.yul\":9728:9751   */\n      mload\n        /* \"#utility.yul\":9764:9827   */\n      tag_293\n        /* \"#utility.yul\":9821:9825   */\n      0x00\n        /* \"#utility.yul\":9816:9819   */\n      dup7\n        /* \"#utility.yul\":9812:9826   */\n      add\n        /* \"#utility.yul\":9798:9810   */\n      dup3\n        /* \"#utility.yul\":9764:9827   */\n      tag_284\n      jump\t// in\n    tag_293:\n        /* \"#utility.yul\":9671:9837   */\n      pop\n        /* \"#utility.yul\":9924:9928   */\n      0x20\n        /* \"#utility.yul\":9917:9922   */\n      dup4\n        /* \"#utility.yul\":9913:9929   */\n      add\n        /* \"#utility.yul\":9907:9930   */\n      mload\n        /* \"#utility.yul\":9977:9980   */\n      dup5\n        /* \"#utility.yul\":9971:9975   */\n      dup3\n        /* \"#utility.yul\":9967:9981   */\n      sub\n        /* \"#utility.yul\":9960:9964   */\n      0x20\n        /* \"#utility.yul\":9955:9958   */\n      dup7\n        /* \"#utility.yul\":9951:9965   */\n      add\n        /* \"#utility.yul\":9944:9982   */\n      mstore\n        /* \"#utility.yul\":10003:10076   */\n      tag_294\n        /* \"#utility.yul\":10071:10075   */\n      dup3\n        /* \"#utility.yul\":10057:10069   */\n      dup3\n        /* \"#utility.yul\":10003:10076   */\n      tag_243\n      jump\t// in\n    tag_294:\n        /* \"#utility.yul\":9995:10076   */\n      swap2\n      pop\n        /* \"#utility.yul\":9847:10087   */\n      pop\n        /* \"#utility.yul\":10169:10173   */\n      0x40\n        /* \"#utility.yul\":10162:10167   */\n      dup4\n        /* \"#utility.yul\":10158:10174   */\n      add\n        /* \"#utility.yul\":10152:10175   */\n      mload\n        /* \"#utility.yul\":10188:10251   */\n      tag_295\n        /* \"#utility.yul\":10245:10249   */\n      0x40\n        /* \"#utility.yul\":10240:10243   */\n      dup7\n        /* \"#utility.yul\":10236:10250   */\n      add\n        /* \"#utility.yul\":10222:10234   */\n      dup3\n        /* \"#utility.yul\":10188:10251   */\n      tag_284\n      jump\t// in\n    tag_295:\n        /* \"#utility.yul\":10097:10261   */\n      pop\n        /* \"#utility.yul\":10345:10349   */\n      0x60\n        /* \"#utility.yul\":10338:10343   */\n      dup4\n        /* \"#utility.yul\":10334:10350   */\n      add\n        /* \"#utility.yul\":10328:10351   */\n      mload\n        /* \"#utility.yul\":10364:10427   */\n      tag_296\n        /* \"#utility.yul\":10421:10425   */\n      0x60\n        /* \"#utility.yul\":10416:10419   */\n      dup7\n        /* \"#utility.yul\":10412:10426   */\n      add\n        /* \"#utility.yul\":10398:10410   */\n      dup3\n        /* \"#utility.yul\":10364:10427   */\n      tag_205\n      jump\t// in\n    tag_296:\n        /* \"#utility.yul\":10271:10437   */\n      pop\n        /* \"#utility.yul\":10520:10524   */\n      0x80\n        /* \"#utility.yul\":10513:10518   */\n      dup4\n        /* \"#utility.yul\":10509:10525   */\n      add\n        /* \"#utility.yul\":10503:10526   */\n      mload\n        /* \"#utility.yul\":10539:10602   */\n      tag_297\n        /* \"#utility.yul\":10596:10600   */\n      0x80\n        /* \"#utility.yul\":10591:10594   */\n      dup7\n        /* \"#utility.yul\":10587:10601   */\n      add\n        /* \"#utility.yul\":10573:10585   */\n      dup3\n        /* \"#utility.yul\":10539:10602   */\n      tag_284\n      jump\t// in\n    tag_297:\n        /* \"#utility.yul\":10447:10612   */\n      pop\n        /* \"#utility.yul\":10697:10701   */\n      0xa0\n        /* \"#utility.yul\":10690:10695   */\n      dup4\n        /* \"#utility.yul\":10686:10702   */\n      add\n        /* \"#utility.yul\":10680:10703   */\n      mload\n        /* \"#utility.yul\":10716:10777   */\n      tag_298\n        /* \"#utility.yul\":10771:10775   */\n      0xa0\n        /* \"#utility.yul\":10766:10769   */\n      dup7\n        /* \"#utility.yul\":10762:10776   */\n      add\n        /* \"#utility.yul\":10748:10760   */\n      dup3\n        /* \"#utility.yul\":10716:10777   */\n      tag_290\n      jump\t// in\n    tag_298:\n        /* \"#utility.yul\":10622:10787   */\n      pop\n        /* \"#utility.yul\":10804:10808   */\n      dup1\n        /* \"#utility.yul\":10797:10808   */\n      swap2\n      pop\n        /* \"#utility.yul\":9625:10814   */\n      pop\n        /* \"#utility.yul\":9509:10814   */\n      swap3\n      swap2\n      pop\n      pop\n      jump\t// out\n        /* \"#utility.yul\":10872:12580   */\n    tag_204:\n        /* \"#utility.yul\":10970:10973   */\n      0x00\n        /* \"#utility.yul\":11006:11010   */\n      0xc0\n        /* \"#utility.yul\":11001:11004   */\n      dup4\n        /* \"#utility.yul\":10997:11011   */\n      add\n        /* \"#utility.yul\":11037:11038   */\n      0x00\n        /* \"#utility.yul\":11114:11118   */\n      dup1\n        /* \"#utility.yul\":11107:11112   */\n      dup5\n        /* \"#utility.yul\":11103:11119   */\n      add\n        /* \"#utility.yul\":11097:11120   */\n      sload\n        /* \"#utility.yul\":11084:11120   */\n      swap1\n      pop\n        /* \"#utility.yul\":11153:11208   */\n      tag_300\n        /* \"#utility.yul\":11198:11207   */\n      dup2\n        /* \"#utility.yul\":11153:11208   */\n      tag_301\n      jump\t// in\n    tag_300:\n        /* \"#utility.yul\":11221:11284   */\n      tag_302\n        /* \"#utility.yul\":11278:11282   */\n      0x00\n        /* \"#utility.yul\":11273:11276   */\n      dup8\n        /* \"#utility.yul\":11269:11283   */\n      add\n        /* \"#utility.yul\":11255:11267   */\n      dup3\n        /* \"#utility.yul\":11221:11284   */\n      tag_284\n      jump\t// in\n    tag_302:\n        /* \"#utility.yul\":11048:11294   */\n      pop\n        /* \"#utility.yul\":11375:11379   */\n      0x01\n        /* \"#utility.yul\":11368:11373   */\n      dup5\n        /* \"#utility.yul\":11364:11380   */\n      add\n        /* \"#utility.yul\":11427:11430   */\n      dup6\n        /* \"#utility.yul\":11421:11425   */\n      dup4\n        /* \"#utility.yul\":11417:11431   */\n      sub\n        /* \"#utility.yul\":11410:11414   */\n      0x20\n        /* \"#utility.yul\":11405:11408   */\n      dup8\n        /* \"#utility.yul\":11401:11415   */\n      add\n        /* \"#utility.yul\":11394:11432   */\n      mstore\n        /* \"#utility.yul\":11453:11523   */\n      tag_303\n        /* \"#utility.yul\":11518:11522   */\n      dup4\n        /* \"#utility.yul\":11504:11516   */\n      dup3\n        /* \"#utility.yul\":11453:11523   */\n      tag_260\n      jump\t// in\n    tag_303:\n        /* \"#utility.yul\":11445:11523   */\n      swap3\n      pop\n        /* \"#utility.yul\":11304:11534   */\n      pop\n        /* \"#utility.yul\":11608:11612   */\n      0x02\n        /* \"#utility.yul\":11601:11606   */\n      dup5\n        /* \"#utility.yul\":11597:11613   */\n      add\n        /* \"#utility.yul\":11591:11614   */\n      sload\n        /* \"#utility.yul\":11578:11614   */\n      swap1\n      pop\n        /* \"#utility.yul\":11647:11702   */\n      tag_304\n        /* \"#utility.yul\":11692:11701   */\n      dup2\n        /* \"#utility.yul\":11647:11702   */\n      tag_301\n      jump\t// in\n    tag_304:\n        /* \"#utility.yul\":11715:11778   */\n      tag_305\n        /* \"#utility.yul\":11772:11776   */\n      0x40\n        /* \"#utility.yul\":11767:11770   */\n      dup8\n        /* \"#utility.yul\":11763:11777   */\n      add\n        /* \"#utility.yul\":11749:11761   */\n      dup3\n        /* \"#utility.yul\":11715:11778   */\n      tag_284\n      jump\t// in\n    tag_305:\n        /* \"#utility.yul\":11544:11788   */\n      pop\n        /* \"#utility.yul\":11864:11868   */\n      0x03\n        /* \"#utility.yul\":11857:11862   */\n      dup5\n        /* \"#utility.yul\":11853:11869   */\n      add\n        /* \"#utility.yul\":11847:11870   */\n      sload\n        /* \"#utility.yul\":11834:11870   */\n      swap1\n      pop\n        /* \"#utility.yul\":11903:11958   */\n      tag_306\n        /* \"#utility.yul\":11948:11957   */\n      dup2\n        /* \"#utility.yul\":11903:11958   */\n      tag_307\n      jump\t// in\n    tag_306:\n        /* \"#utility.yul\":11971:12034   */\n      tag_308\n        /* \"#utility.yul\":12028:12032   */\n      0x60\n        /* \"#utility.yul\":12023:12026   */\n      dup8\n        /* \"#utility.yul\":12019:12033   */\n      add\n        /* \"#utility.yul\":12005:12017   */\n      dup3\n        /* \"#utility.yul\":11971:12034   */\n      tag_205\n      jump\t// in\n    tag_308:\n        /* \"#utility.yul\":11798:12044   */\n      pop\n        /* \"#utility.yul\":12119:12123   */\n      0x04\n        /* \"#utility.yul\":12112:12117   */\n      dup5\n        /* \"#utility.yul\":12108:12124   */\n      add\n        /* \"#utility.yul\":12102:12125   */\n      sload\n        /* \"#utility.yul\":12089:12125   */\n      swap1\n      pop\n        /* \"#utility.yul\":12158:12213   */\n      tag_309\n        /* \"#utility.yul\":12203:12212   */\n      dup2\n        /* \"#utility.yul\":12158:12213   */\n      tag_301\n      jump\t// in\n    tag_309:\n        /* \"#utility.yul\":12226:12289   */\n      tag_310\n        /* \"#utility.yul\":12283:12287   */\n      0x80\n        /* \"#utility.yul\":12278:12281   */\n      dup8\n        /* \"#utility.yul\":12274:12288   */\n      add\n        /* \"#utility.yul\":12260:12272   */\n      dup3\n        /* \"#utility.yul\":12226:12289   */\n      tag_284\n      jump\t// in\n    tag_310:\n        /* \"#utility.yul\":12054:12299   */\n      pop\n        /* \"#utility.yul\":12376:12380   */\n      0x05\n        /* \"#utility.yul\":12369:12374   */\n      dup5\n        /* \"#utility.yul\":12365:12381   */\n      add\n        /* \"#utility.yul\":12359:12382   */\n      sload\n        /* \"#utility.yul\":12346:12382   */\n      swap1\n      pop\n        /* \"#utility.yul\":12415:12469   */\n      tag_311\n        /* \"#utility.yul\":12459:12468   */\n      dup2\n        /* \"#utility.yul\":12415:12469   */\n      tag_312\n      jump\t// in\n    tag_311:\n        /* \"#utility.yul\":12482:12543   */\n      tag_313\n        /* \"#utility.yul\":12537:12541   */\n      0xa0\n        /* \"#utility.yul\":12532:12535   */\n      dup8\n        /* \"#utility.yul\":12528:12542   */\n      add\n        /* \"#utility.yul\":12514:12526   */\n      dup3\n        /* \"#utility.yul\":12482:12543   */\n      tag_290\n      jump\t// in\n    tag_313:\n        /* \"#utility.yul\":12309:12553   */\n      pop\n        /* \"#utility.yul\":12570:12574   */\n      dup2\n        /* \"#utility.yul\":12563:12574   */\n      swap3\n      pop\n        /* \"#utility.yul\":10975:12580   */\n      pop\n      pop\n        /* \"#utility.yul\":10872:12580   */\n      swap3\n      swap2\n      pop\n      pop\n      jump\t// out\n        /* \"#utility.yul\":12586:12694   */\n    tag_284:\n        /* \"#utility.yul\":12663:12687   */\n      tag_315\n        /* \"#utility.yul\":12681:12686   */\n      dup2\n        /* \"#utility.yul\":12663:12687   */\n      tag_316\n      jump\t// in\n    tag_315:\n        /* \"#utility.yul\":12658:12661   */\n      dup3\n        /* \"#utility.yul\":12651:12688   */\n      mstore\n        /* \"#utility.yul\":12586:12694   */\n      pop\n      pop\n      jump\t// out\n        /* \"#utility.yul\":12700:12818   */\n    tag_317:\n        /* \"#utility.yul\":12787:12811   */\n      tag_319\n        /* \"#utility.yul\":12805:12810   */\n      dup2\n        /* \"#utility.yul\":12787:12811   */\n      tag_316\n      jump\t// in\n    tag_319:\n        /* \"#utility.yul\":12782:12785   */\n      dup3\n        /* \"#utility.yul\":12775:12812   */\n      mstore\n        /* \"#utility.yul\":12700:12818   */\n      pop\n      pop\n      jump\t// out\n        /* \"#utility.yul\":12824:12929   */\n    tag_290:\n        /* \"#utility.yul\":12899:12922   */\n      tag_321\n        /* \"#utility.yul\":12916:12921   */\n      dup2\n        /* \"#utility.yul\":12899:12922   */\n      tag_322\n      jump\t// in\n    tag_321:\n        /* \"#utility.yul\":12894:12897   */\n      dup3\n        /* \"#utility.yul\":12887:12923   */\n      mstore\n        /* \"#utility.yul\":12824:12929   */\n      pop\n      pop\n      jump\t// out\n        /* \"#utility.yul\":12935:13050   */\n    tag_323:\n        /* \"#utility.yul\":13020:13043   */\n      tag_325\n        /* \"#utility.yul\":13037:13042   */\n      dup2\n        /* \"#utility.yul\":13020:13043   */\n      tag_322\n      jump\t// in\n    tag_325:\n        /* \"#utility.yul\":13015:13018   */\n      dup3\n        /* \"#utility.yul\":13008:13044   */\n      mstore\n        /* \"#utility.yul\":12935:13050   */\n      pop\n      pop\n      jump\t// out\n        /* \"#utility.yul\":13056:13513   */\n    tag_28:\n        /* \"#utility.yul\":13241:13245   */\n      0x00\n        /* \"#utility.yul\":13279:13281   */\n      0x20\n        /* \"#utility.yul\":13268:13277   */\n      dup3\n        /* \"#utility.yul\":13264:13282   */\n      add\n        /* \"#utility.yul\":13256:13282   */\n      swap1\n      pop\n        /* \"#utility.yul\":13328:13337   */\n      dup2\n        /* \"#utility.yul\":13322:13326   */\n      dup2\n        /* \"#utility.yul\":13318:13338   */\n      sub\n        /* \"#utility.yul\":13314:13315   */\n      0x00\n        /* \"#utility.yul\":13303:13312   */\n      dup4\n        /* \"#utility.yul\":13299:13316   */\n      add\n        /* \"#utility.yul\":13292:13339   */\n      mstore\n        /* \"#utility.yul\":13356:13506   */\n      tag_327\n        /* \"#utility.yul\":13501:13505   */\n      dup2\n        /* \"#utility.yul\":13492:13498   */\n      dup5\n        /* \"#utility.yul\":13356:13506   */\n      tag_212\n      jump\t// in\n    tag_327:\n        /* \"#utility.yul\":13348:13506   */\n      swap1\n      pop\n        /* \"#utility.yul\":13056:13513   */\n      swap3\n      swap2\n      pop\n      pop\n      jump\t// out\n        /* \"#utility.yul\":13519:13964   */\n    tag_93:\n        /* \"#utility.yul\":13698:13702   */\n      0x00\n        /* \"#utility.yul\":13736:13738   */\n      0x20\n        /* \"#utility.yul\":13725:13734   */\n      dup3\n        /* \"#utility.yul\":13721:13739   */\n      add\n        /* \"#utility.yul\":13713:13739   */\n      swap1\n      pop\n        /* \"#utility.yul\":13785:13794   */\n      dup2\n        /* \"#utility.yul\":13779:13783   */\n      dup2\n        /* \"#utility.yul\":13775:13795   */\n      sub\n        /* \"#utility.yul\":13771:13772   */\n      0x00\n        /* \"#utility.yul\":13760:13769   */\n      dup4\n        /* \"#utility.yul\":13756:13773   */\n      add\n        /* \"#utility.yul\":13749:13796   */\n      mstore\n        /* \"#utility.yul\":13813:13957   */\n      tag_329\n        /* \"#utility.yul\":13952:13956   */\n      dup2\n        /* \"#utility.yul\":13943:13949   */\n      dup5\n        /* \"#utility.yul\":13813:13957   */\n      tag_226\n      jump\t// in\n    tag_329:\n        /* \"#utility.yul\":13805:13957   */\n      swap1\n      pop\n        /* \"#utility.yul\":13519:13964   */\n      swap3\n      swap2\n      pop\n      pop\n      jump\t// out\n        /* \"#utility.yul\":13970:14220   */\n    tag_47:\n        /* \"#utility.yul\":14077:14081   */\n      0x00\n        /* \"#utility.yul\":14115:14117   */\n      0x20\n        /* \"#utility.yul\":14104:14113   */\n      dup3\n        /* \"#utility.yul\":14100:14118   */\n      add\n        /* \"#utility.yul\":14092:14118   */\n      swap1\n      pop\n        /* \"#utility.yul\":14128:14213   */\n      tag_331\n        /* \"#utility.yul\":14210:14211   */\n      0x00\n        /* \"#utility.yul\":14199:14208   */\n      dup4\n        /* \"#utility.yul\":14195:14212   */\n      add\n        /* \"#utility.yul\":14186:14192   */\n      dup5\n        /* \"#utility.yul\":14128:14213   */\n      tag_239\n      jump\t// in\n    tag_331:\n        /* \"#utility.yul\":13970:14220   */\n      swap3\n      swap2\n      pop\n      pop\n      jump\t// out\n        /* \"#utility.yul\":14226:14645   */\n    tag_90:\n        /* \"#utility.yul\":14392:14396   */\n      0x00\n        /* \"#utility.yul\":14430:14432   */\n      0x20\n        /* \"#utility.yul\":14419:14428   */\n      dup3\n        /* \"#utility.yul\":14415:14433   */\n      add\n        /* \"#utility.yul\":14407:14433   */\n      swap1\n      pop\n        /* \"#utility.yul\":14479:14488   */\n      dup2\n        /* \"#utility.yul\":14473:14477   */\n      dup2\n        /* \"#utility.yul\":14469:14489   */\n      sub\n        /* \"#utility.yul\":14465:14466   */\n      0x00\n        /* \"#utility.yul\":14454:14463   */\n      dup4\n        /* \"#utility.yul\":14450:14467   */\n      add\n        /* \"#utility.yul\":14443:14490   */\n      mstore\n        /* \"#utility.yul\":14507:14638   */\n      tag_333\n        /* \"#utility.yul\":14633:14637   */\n      dup2\n        /* \"#utility.yul\":14507:14638   */\n      tag_272\n      jump\t// in\n    tag_333:\n        /* \"#utility.yul\":14499:14638   */\n      swap1\n      pop\n        /* \"#utility.yul\":14226:14645   */\n      swap2\n      swap1\n      pop\n      jump\t// out\n        /* \"#utility.yul\":14651:15070   */\n    tag_123:\n        /* \"#utility.yul\":14817:14821   */\n      0x00\n        /* \"#utility.yul\":14855:14857   */\n      0x20\n        /* \"#utility.yul\":14844:14853   */\n      dup3\n        /* \"#utility.yul\":14840:14858   */\n      add\n        /* \"#utility.yul\":14832:14858   */\n      swap1\n      pop\n        /* \"#utility.yul\":14904:14913   */\n      dup2\n        /* \"#utility.yul\":14898:14902   */\n      dup2\n        /* \"#utility.yul\":14894:14914   */\n      sub\n        /* \"#utility.yul\":14890:14891   */\n      0x00\n        /* \"#utility.yul\":14879:14888   */\n      dup4\n        /* \"#utility.yul\":14875:14892   */\n      add\n        /* \"#utility.yul\":14868:14915   */\n      mstore\n        /* \"#utility.yul\":14932:15063   */\n      tag_335\n        /* \"#utility.yul\":15058:15062   */\n      dup2\n        /* \"#utility.yul\":14932:15063   */\n      tag_277\n      jump\t// in\n    tag_335:\n        /* \"#utility.yul\":14924:15063   */\n      swap1\n      pop\n        /* \"#utility.yul\":14651:15070   */\n      swap2\n      swap1\n      pop\n      jump\t// out\n        /* \"#utility.yul\":15076:15433   */\n    tag_43:\n        /* \"#utility.yul\":15211:15215   */\n      0x00\n        /* \"#utility.yul\":15249:15251   */\n      0x20\n        /* \"#utility.yul\":15238:15247   */\n      dup3\n        /* \"#utility.yul\":15234:15252   */\n      add\n        /* \"#utility.yul\":15226:15252   */\n      swap1\n      pop\n        /* \"#utility.yul\":15298:15307   */\n      dup2\n        /* \"#utility.yul\":15292:15296   */\n      dup2\n        /* \"#utility.yul\":15288:15308   */\n      sub\n        /* \"#utility.yul\":15284:15285   */\n      0x00\n        /* \"#utility.yul\":15273:15282   */\n      dup4\n        /* \"#utility.yul\":15269:15286   */\n      add\n        /* \"#utility.yul\":15262:15309   */\n      mstore\n        /* \"#utility.yul\":15326:15426   */\n      tag_337\n        /* \"#utility.yul\":15421:15425   */\n      dup2\n        /* \"#utility.yul\":15412:15418   */\n      dup5\n        /* \"#utility.yul\":15326:15426   */\n      tag_291\n      jump\t// in\n    tag_337:\n        /* \"#utility.yul\":15318:15426   */\n      swap1\n      pop\n        /* \"#utility.yul\":15076:15433   */\n      swap3\n      swap2\n      pop\n      pop\n      jump\t// out\n        /* \"#utility.yul\":15439:16174   */\n    tag_34:\n        /* \"#utility.yul\":15656:15660   */\n      0x00\n        /* \"#utility.yul\":15694:15697   */\n      0x80\n        /* \"#utility.yul\":15683:15692   */\n      dup3\n        /* \"#utility.yul\":15679:15698   */\n      add\n        /* \"#utility.yul\":15671:15698   */\n      swap1\n      pop\n        /* \"#utility.yul\":15708:15779   */\n      tag_339\n        /* \"#utility.yul\":15776:15777   */\n      0x00\n        /* \"#utility.yul\":15765:15774   */\n      dup4\n        /* \"#utility.yul\":15761:15778   */\n      add\n        /* \"#utility.yul\":15752:15758   */\n      dup8\n        /* \"#utility.yul\":15708:15779   */\n      tag_317\n      jump\t// in\n    tag_339:\n        /* \"#utility.yul\":15826:15835   */\n      dup2\n        /* \"#utility.yul\":15820:15824   */\n      dup2\n        /* \"#utility.yul\":15816:15836   */\n      sub\n        /* \"#utility.yul\":15811:15813   */\n      0x20\n        /* \"#utility.yul\":15800:15809   */\n      dup4\n        /* \"#utility.yul\":15796:15814   */\n      add\n        /* \"#utility.yul\":15789:15837   */\n      mstore\n        /* \"#utility.yul\":15854:15932   */\n      tag_340\n        /* \"#utility.yul\":15927:15931   */\n      dup2\n        /* \"#utility.yul\":15918:15924   */\n      dup7\n        /* \"#utility.yul\":15854:15932   */\n      tag_253\n      jump\t// in\n    tag_340:\n        /* \"#utility.yul\":15846:15932   */\n      swap1\n      pop\n        /* \"#utility.yul\":15979:15988   */\n      dup2\n        /* \"#utility.yul\":15973:15977   */\n      dup2\n        /* \"#utility.yul\":15969:15989   */\n      sub\n        /* \"#utility.yul\":15964:15966   */\n      0x40\n        /* \"#utility.yul\":15953:15962   */\n      dup4\n        /* \"#utility.yul\":15949:15967   */\n      add\n        /* \"#utility.yul\":15942:15990   */\n      mstore\n        /* \"#utility.yul\":16007:16085   */\n      tag_341\n        /* \"#utility.yul\":16080:16084   */\n      dup2\n        /* \"#utility.yul\":16071:16077   */\n      dup6\n        /* \"#utility.yul\":16007:16085   */\n      tag_253\n      jump\t// in\n    tag_341:\n        /* \"#utility.yul\":15999:16085   */\n      swap1\n      pop\n        /* \"#utility.yul\":16095:16167   */\n      tag_342\n        /* \"#utility.yul\":16163:16165   */\n      0x60\n        /* \"#utility.yul\":16152:16161   */\n      dup4\n        /* \"#utility.yul\":16148:16166   */\n      add\n        /* \"#utility.yul\":16139:16145   */\n      dup5\n        /* \"#utility.yul\":16095:16167   */\n      tag_317\n      jump\t// in\n    tag_342:\n        /* \"#utility.yul\":15439:16174   */\n      swap6\n      swap5\n      pop\n      pop\n      pop\n      pop\n      pop\n      jump\t// out\n        /* \"#utility.yul\":16180:17042   */\n    tag_20:\n        /* \"#utility.yul\":16431:16435   */\n      0x00\n        /* \"#utility.yul\":16469:16472   */\n      0xc0\n        /* \"#utility.yul\":16458:16467   */\n      dup3\n        /* \"#utility.yul\":16454:16473   */\n      add\n        /* \"#utility.yul\":16446:16473   */\n      swap1\n      pop\n        /* \"#utility.yul\":16483:16554   */\n      tag_344\n        /* \"#utility.yul\":16551:16552   */\n      0x00\n        /* \"#utility.yul\":16540:16549   */\n      dup4\n        /* \"#utility.yul\":16536:16553   */\n      add\n        /* \"#utility.yul\":16527:16533   */\n      dup10\n        /* \"#utility.yul\":16483:16554   */\n      tag_317\n      jump\t// in\n    tag_344:\n        /* \"#utility.yul\":16601:16610   */\n      dup2\n        /* \"#utility.yul\":16595:16599   */\n      dup2\n        /* \"#utility.yul\":16591:16611   */\n      sub\n        /* \"#utility.yul\":16586:16588   */\n      0x20\n        /* \"#utility.yul\":16575:16584   */\n      dup4\n        /* \"#utility.yul\":16571:16589   */\n      add\n        /* \"#utility.yul\":16564:16612   */\n      mstore\n        /* \"#utility.yul\":16629:16707   */\n      tag_345\n        /* \"#utility.yul\":16702:16706   */\n      dup2\n        /* \"#utility.yul\":16693:16699   */\n      dup9\n        /* \"#utility.yul\":16629:16707   */\n      tag_253\n      jump\t// in\n    tag_345:\n        /* \"#utility.yul\":16621:16707   */\n      swap1\n      pop\n        /* \"#utility.yul\":16717:16789   */\n      tag_346\n        /* \"#utility.yul\":16785:16787   */\n      0x40\n        /* \"#utility.yul\":16774:16783   */\n      dup4\n        /* \"#utility.yul\":16770:16788   */\n      add\n        /* \"#utility.yul\":16761:16767   */\n      dup8\n        /* \"#utility.yul\":16717:16789   */\n      tag_317\n      jump\t// in\n    tag_346:\n        /* \"#utility.yul\":16799:16871   */\n      tag_347\n        /* \"#utility.yul\":16867:16869   */\n      0x60\n        /* \"#utility.yul\":16856:16865   */\n      dup4\n        /* \"#utility.yul\":16852:16870   */\n      add\n        /* \"#utility.yul\":16843:16849   */\n      dup7\n        /* \"#utility.yul\":16799:16871   */\n      tag_209\n      jump\t// in\n    tag_347:\n        /* \"#utility.yul\":16881:16954   */\n      tag_348\n        /* \"#utility.yul\":16949:16952   */\n      0x80\n        /* \"#utility.yul\":16938:16947   */\n      dup4\n        /* \"#utility.yul\":16934:16953   */\n      add\n        /* \"#utility.yul\":16925:16931   */\n      dup6\n        /* \"#utility.yul\":16881:16954   */\n      tag_317\n      jump\t// in\n    tag_348:\n        /* \"#utility.yul\":16964:17035   */\n      tag_349\n        /* \"#utility.yul\":17030:17033   */\n      0xa0\n        /* \"#utility.yul\":17019:17028   */\n      dup4\n        /* \"#utility.yul\":17015:17034   */\n      add\n        /* \"#utility.yul\":17006:17012   */\n      dup5\n        /* \"#utility.yul\":16964:17035   */\n      tag_323\n      jump\t// in\n    tag_349:\n        /* \"#utility.yul\":16180:17042   */\n      swap8\n      swap7\n      pop\n      pop\n      pop\n      pop\n      pop\n      pop\n      pop\n      jump\t// out\n        /* \"#utility.yul\":17048:17380   */\n    tag_54:\n        /* \"#utility.yul\":17169:17173   */\n      0x00\n        /* \"#utility.yul\":17207:17209   */\n      0x40\n        /* \"#utility.yul\":17196:17205   */\n      dup3\n        /* \"#utility.yul\":17192:17210   */\n      add\n        /* \"#utility.yul\":17184:17210   */\n      swap1\n      pop\n        /* \"#utility.yul\":17220:17291   */\n      tag_351\n        /* \"#utility.yul\":17288:17289   */\n      0x00\n        /* \"#utility.yul\":17277:17286   */\n      dup4\n        /* \"#utility.yul\":17273:17290   */\n      add\n        /* \"#utility.yul\":17264:17270   */\n      dup6\n        /* \"#utility.yul\":17220:17291   */\n      tag_317\n      jump\t// in\n    tag_351:\n        /* \"#utility.yul\":17301:17373   */\n      tag_352\n        /* \"#utility.yul\":17369:17371   */\n      0x20\n        /* \"#utility.yul\":17358:17367   */\n      dup4\n        /* \"#utility.yul\":17354:17372   */\n      add\n        /* \"#utility.yul\":17345:17351   */\n      dup5\n        /* \"#utility.yul\":17301:17373   */\n      tag_317\n      jump\t// in\n    tag_352:\n        /* \"#utility.yul\":17048:17380   */\n      swap4\n      swap3\n      pop\n      pop\n      pop\n      jump\t// out\n        /* \"#utility.yul\":17386:18137   */\n    tag_85:\n        /* \"#utility.yul\":17609:17613   */\n      0x00\n        /* \"#utility.yul\":17647:17650   */\n      0xa0\n        /* \"#utility.yul\":17636:17645   */\n      dup3\n        /* \"#utility.yul\":17632:17651   */\n      add\n        /* \"#utility.yul\":17624:17651   */\n      swap1\n      pop\n        /* \"#utility.yul\":17661:17732   */\n      tag_354\n        /* \"#utility.yul\":17729:17730   */\n      0x00\n        /* \"#utility.yul\":17718:17727   */\n      dup4\n        /* \"#utility.yul\":17714:17731   */\n      add\n        /* \"#utility.yul\":17705:17711   */\n      dup9\n        /* \"#utility.yul\":17661:17732   */\n      tag_317\n      jump\t// in\n    tag_354:\n        /* \"#utility.yul\":17742:17814   */\n      tag_355\n        /* \"#utility.yul\":17810:17812   */\n      0x20\n        /* \"#utility.yul\":17799:17808   */\n      dup4\n        /* \"#utility.yul\":17795:17813   */\n      add\n        /* \"#utility.yul\":17786:17792   */\n      dup8\n        /* \"#utility.yul\":17742:17814   */\n      tag_317\n      jump\t// in\n    tag_355:\n        /* \"#utility.yul\":17861:17870   */\n      dup2\n        /* \"#utility.yul\":17855:17859   */\n      dup2\n        /* \"#utility.yul\":17851:17871   */\n      sub\n        /* \"#utility.yul\":17846:17848   */\n      0x40\n        /* \"#utility.yul\":17835:17844   */\n      dup4\n        /* \"#utility.yul\":17831:17849   */\n      add\n        /* \"#utility.yul\":17824:17872   */\n      mstore\n        /* \"#utility.yul\":17889:17967   */\n      tag_356\n        /* \"#utility.yul\":17962:17966   */\n      dup2\n        /* \"#utility.yul\":17953:17959   */\n      dup7\n        /* \"#utility.yul\":17889:17967   */\n      tag_253\n      jump\t// in\n    tag_356:\n        /* \"#utility.yul\":17881:17967   */\n      swap1\n      pop\n        /* \"#utility.yul\":17977:18047   */\n      tag_357\n        /* \"#utility.yul\":18043:18045   */\n      0x60\n        /* \"#utility.yul\":18032:18041   */\n      dup4\n        /* \"#utility.yul\":18028:18046   */\n      add\n        /* \"#utility.yul\":18019:18025   */\n      dup6\n        /* \"#utility.yul\":17977:18047   */\n      tag_323\n      jump\t// in\n    tag_357:\n        /* \"#utility.yul\":18057:18130   */\n      tag_358\n        /* \"#utility.yul\":18125:18128   */\n      0x80\n        /* \"#utility.yul\":18114:18123   */\n      dup4\n        /* \"#utility.yul\":18110:18129   */\n      add\n        /* \"#utility.yul\":18101:18107   */\n      dup5\n        /* \"#utility.yul\":18057:18130   */\n      tag_317\n      jump\t// in\n    tag_358:\n        /* \"#utility.yul\":17386:18137   */\n      swap7\n      swap6\n      pop\n      pop\n      pop\n      pop\n      pop\n      pop\n      jump\t// out\n        /* \"#utility.yul\":18143:18272   */\n    tag_155:\n        /* \"#utility.yul\":18177:18183   */\n      0x00\n        /* \"#utility.yul\":18204:18224   */\n      tag_360\n      tag_361\n      jump\t// in\n    tag_360:\n        /* \"#utility.yul\":18194:18224   */\n      swap1\n      pop\n        /* \"#utility.yul\":18233:18266   */\n      tag_362\n        /* \"#utility.yul\":18261:18265   */\n      dup3\n        /* \"#utility.yul\":18253:18259   */\n      dup3\n        /* \"#utility.yul\":18233:18266   */\n      tag_363\n      jump\t// in\n    tag_362:\n        /* \"#utility.yul\":18143:18272   */\n      swap2\n      swap1\n      pop\n      jump\t// out\n        /* \"#utility.yul\":18278:18353   */\n    tag_361:\n        /* \"#utility.yul\":18311:18317   */\n      0x00\n        /* \"#utility.yul\":18344:18346   */\n      0x40\n        /* \"#utility.yul\":18338:18347   */\n      mload\n        /* \"#utility.yul\":18328:18347   */\n      swap1\n      pop\n        /* \"#utility.yul\":18278:18353   */\n      swap1\n      jump\t// out\n        /* \"#utility.yul\":18359:18667   */\n    tag_154:\n        /* \"#utility.yul\":18421:18425   */\n      0x00\n        /* \"#utility.yul\":18511:18529   */\n      0xffffffffffffffff\n        /* \"#utility.yul\":18503:18509   */\n      dup3\n        /* \"#utility.yul\":18500:18530   */\n      gt\n        /* \"#utility.yul\":18497:18553   */\n      iszero\n      tag_366\n      jumpi\n        /* \"#utility.yul\":18533:18551   */\n      tag_367\n      tag_368\n      jump\t// in\n    tag_367:\n        /* \"#utility.yul\":18497:18553   */\n    tag_366:\n        /* \"#utility.yul\":18571:18600   */\n      tag_369\n        /* \"#utility.yul\":18593:18599   */\n      dup3\n        /* \"#utility.yul\":18571:18600   */\n      tag_252\n      jump\t// in\n    tag_369:\n        /* \"#utility.yul\":18563:18600   */\n      swap1\n      pop\n        /* \"#utility.yul\":18655:18659   */\n      0x20\n        /* \"#utility.yul\":18649:18653   */\n      dup2\n        /* \"#utility.yul\":18645:18660   */\n      add\n        /* \"#utility.yul\":18637:18660   */\n      swap1\n      pop\n        /* \"#utility.yul\":18359:18667   */\n      swap2\n      swap1\n      pop\n      jump\t// out\n        /* \"#utility.yul\":18673:18826   */\n    tag_219:\n        /* \"#utility.yul\":18761:18765   */\n      0x00\n        /* \"#utility.yul\":18784:18787   */\n      dup2\n        /* \"#utility.yul\":18776:18787   */\n      swap1\n      pop\n        /* \"#utility.yul\":18814:18818   */\n      0x20\n        /* \"#utility.yul\":18809:18812   */\n      dup3\n        /* \"#utility.yul\":18805:18819   */\n      add\n        /* \"#utility.yul\":18797:18819   */\n      swap1\n      pop\n        /* \"#utility.yul\":18673:18826   */\n      swap2\n      swap1\n      pop\n      jump\t// out\n        /* \"#utility.yul\":18832:19006   */\n    tag_232:\n        /* \"#utility.yul\":18914:18918   */\n      0x00\n        /* \"#utility.yul\":18937:18940   */\n      dup2\n        /* \"#utility.yul\":18929:18940   */\n      swap1\n      pop\n        /* \"#utility.yul\":18960:18963   */\n      dup2\n        /* \"#utility.yul\":18957:18958   */\n      0x00\n        /* \"#utility.yul\":18950:18964   */\n      mstore\n        /* \"#utility.yul\":18994:18998   */\n      0x20\n        /* \"#utility.yul\":18991:18992   */\n      0x00\n        /* \"#utility.yul\":18981:18999   */\n      keccak256\n        /* \"#utility.yul\":18973:18999   */\n      swap1\n      pop\n        /* \"#utility.yul\":18832:19006   */\n      swap2\n      swap1\n      pop\n      jump\t// out\n        /* \"#utility.yul\":19012:19153   */\n    tag_268:\n        /* \"#utility.yul\":19061:19065   */\n      0x00\n        /* \"#utility.yul\":19084:19087   */\n      dup2\n        /* \"#utility.yul\":19076:19087   */\n      swap1\n      pop\n        /* \"#utility.yul\":19107:19110   */\n      dup2\n        /* \"#utility.yul\":19104:19105   */\n      0x00\n        /* \"#utility.yul\":19097:19111   */\n      mstore\n        /* \"#utility.yul\":19141:19145   */\n      0x20\n        /* \"#utility.yul\":19138:19139   */\n      0x00\n        /* \"#utility.yul\":19128:19146   */\n      keccak256\n        /* \"#utility.yul\":19120:19146   */\n      swap1\n      pop\n        /* \"#utility.yul\":19012:19153   */\n      swap2\n      swap1\n      pop\n      jump\t// out\n        /* \"#utility.yul\":19159:19294   */\n    tag_215:\n        /* \"#utility.yul\":19247:19253   */\n      0x00\n        /* \"#utility.yul\":19281:19286   */\n      dup2\n        /* \"#utility.yul\":19275:19287   */\n      mload\n        /* \"#utility.yul\":19265:19287   */\n      swap1\n      pop\n        /* \"#utility.yul\":19159:19294   */\n      swap2\n      swap1\n      pop\n      jump\t// out\n        /* \"#utility.yul\":19300:19429   */\n    tag_229:\n        /* \"#utility.yul\":19382:19388   */\n      0x00\n        /* \"#utility.yul\":19416:19421   */\n      dup2\n        /* \"#utility.yul\":19410:19422   */\n      sload\n        /* \"#utility.yul\":19400:19422   */\n      swap1\n      pop\n        /* \"#utility.yul\":19300:19429   */\n      swap2\n      swap1\n      pop\n      jump\t// out\n        /* \"#utility.yul\":19435:19534   */\n    tag_246:\n        /* \"#utility.yul\":19487:19493   */\n      0x00\n        /* \"#utility.yul\":19521:19526   */\n      dup2\n        /* \"#utility.yul\":19515:19527   */\n      mload\n        /* \"#utility.yul\":19505:19527   */\n      swap1\n      pop\n        /* \"#utility.yul\":19435:19534   */\n      swap2\n      swap1\n      pop\n      jump\t// out\n        /* \"#utility.yul\":19540:19674   */\n    tag_225:\n        /* \"#utility.yul\":19631:19635   */\n      0x00\n        /* \"#utility.yul\":19663:19667   */\n      0x20\n        /* \"#utility.yul\":19658:19661   */\n      dup3\n        /* \"#utility.yul\":19654:19668   */\n      add\n        /* \"#utility.yul\":19646:19668   */\n      swap1\n      pop\n        /* \"#utility.yul\":19540:19674   */\n      swap2\n      swap1\n      pop\n      jump\t// out\n        /* \"#utility.yul\":19680:19808   */\n    tag_238:\n        /* \"#utility.yul\":19765:19769   */\n      0x00\n        /* \"#utility.yul\":19797:19801   */\n      0x06\n        /* \"#utility.yul\":19792:19795   */\n      dup3\n        /* \"#utility.yul\":19788:19802   */\n      add\n        /* \"#utility.yul\":19780:19802   */\n      swap1\n      pop\n        /* \"#utility.yul\":19680:19808   */\n      swap2\n      swap1\n      pop\n      jump\t// out\n        /* \"#utility.yul\":19814:20019   */\n    tag_217:\n        /* \"#utility.yul\":19934:19945   */\n      0x00\n        /* \"#utility.yul\":19968:19974   */\n      dup3\n        /* \"#utility.yul\":19963:19966   */\n      dup3\n        /* \"#utility.yul\":19956:19975   */\n      mstore\n        /* \"#utility.yul\":20008:20012   */\n      0x20\n        /* \"#utility.yul\":20003:20006   */\n      dup3\n        /* \"#utility.yul\":19999:20013   */\n      add\n        /* \"#utility.yul\":19984:20013   */\n      swap1\n      pop\n        /* \"#utility.yul\":19814:20019   */\n      swap3\n      swap2\n      pop\n      pop\n      jump\t// out\n        /* \"#utility.yul\":20025:20184   */\n    tag_248:\n        /* \"#utility.yul\":20099:20110   */\n      0x00\n        /* \"#utility.yul\":20133:20139   */\n      dup3\n        /* \"#utility.yul\":20128:20131   */\n      dup3\n        /* \"#utility.yul\":20121:20140   */\n      mstore\n        /* \"#utility.yul\":20173:20177   */\n      0x20\n        /* \"#utility.yul\":20168:20171   */\n      dup3\n        /* \"#utility.yul\":20164:20178   */\n      add\n        /* \"#utility.yul\":20149:20178   */\n      swap1\n      pop\n        /* \"#utility.yul\":20025:20184   */\n      swap3\n      swap2\n      pop\n      pop\n      jump\t// out\n        /* \"#utility.yul\":20190:20359   */\n    tag_257:\n        /* \"#utility.yul\":20274:20285   */\n      0x00\n        /* \"#utility.yul\":20308:20314   */\n      dup3\n        /* \"#utility.yul\":20303:20306   */\n      dup3\n        /* \"#utility.yul\":20296:20315   */\n      mstore\n        /* \"#utility.yul\":20348:20352   */\n      0x20\n        /* \"#utility.yul\":20343:20346   */\n      dup3\n        /* \"#utility.yul\":20339:20353   */\n      add\n        /* \"#utility.yul\":20324:20353   */\n      swap1\n      pop\n        /* \"#utility.yul\":20190:20359   */\n      swap3\n      swap2\n      pop\n      pop\n      jump\t// out\n        /* \"#utility.yul\":20365:20504   */\n    tag_381:\n        /* \"#utility.yul\":20415:20422   */\n      0x00\n        /* \"#utility.yul\":20455:20497   */\n      0xffffffffffffffffffffffffffffffffffffffff\n        /* \"#utility.yul\":20448:20453   */\n      dup3\n        /* \"#utility.yul\":20444:20498   */\n      and\n        /* \"#utility.yul\":20433:20498   */\n      swap1\n      pop\n        /* \"#utility.yul\":20365:20504   */\n      swap2\n      swap1\n      pop\n      jump\t// out\n        /* \"#utility.yul\":20510:20600   */\n    tag_383:\n        /* \"#utility.yul\":20560:20567   */\n      0x00\n        /* \"#utility.yul\":20589:20594   */\n      dup2\n        /* \"#utility.yul\":20578:20594   */\n      swap1\n      pop\n        /* \"#utility.yul\":20510:20600   */\n      swap2\n      swap1\n      pop\n      jump\t// out\n        /* \"#utility.yul\":20606:20712   */\n    tag_385:\n        /* \"#utility.yul\":20655:20662   */\n      0x00\n        /* \"#utility.yul\":20695:20705   */\n      0xffffffff\n        /* \"#utility.yul\":20688:20693   */\n      dup3\n        /* \"#utility.yul\":20684:20706   */\n      and\n        /* \"#utility.yul\":20673:20706   */\n      swap1\n      pop\n        /* \"#utility.yul\":20606:20712   */\n      swap2\n      swap1\n      pop\n      jump\t// out\n        /* \"#utility.yul\":20718:20814   */\n    tag_208:\n        /* \"#utility.yul\":20755:20762   */\n      0x00\n        /* \"#utility.yul\":20784:20808   */\n      tag_388\n        /* \"#utility.yul\":20802:20807   */\n      dup3\n        /* \"#utility.yul\":20784:20808   */\n      tag_389\n      jump\t// in\n    tag_388:\n        /* \"#utility.yul\":20773:20808   */\n      swap1\n      pop\n        /* \"#utility.yul\":20718:20814   */\n      swap2\n      swap1\n      pop\n      jump\t// out\n        /* \"#utility.yul\":20820:20946   */\n    tag_389:\n        /* \"#utility.yul\":20857:20864   */\n      0x00\n        /* \"#utility.yul\":20897:20939   */\n      0xffffffffffffffffffffffffffffffffffffffff\n        /* \"#utility.yul\":20890:20895   */\n      dup3\n        /* \"#utility.yul\":20886:20940   */\n      and\n        /* \"#utility.yul\":20875:20940   */\n      swap1\n      pop\n        /* \"#utility.yul\":20820:20946   */\n      swap2\n      swap1\n      pop\n      jump\t// out\n        /* \"#utility.yul\":20952:21029   */\n    tag_316:\n        /* \"#utility.yul\":20989:20996   */\n      0x00\n        /* \"#utility.yul\":21018:21023   */\n      dup2\n        /* \"#utility.yul\":21007:21023   */\n      swap1\n      pop\n        /* \"#utility.yul\":20952:21029   */\n      swap2\n      swap1\n      pop\n      jump\t// out\n        /* \"#utility.yul\":21035:21128   */\n    tag_322:\n        /* \"#utility.yul\":21071:21078   */\n      0x00\n        /* \"#utility.yul\":21111:21121   */\n      0xffffffff\n        /* \"#utility.yul\":21104:21109   */\n      dup3\n        /* \"#utility.yul\":21100:21122   */\n      and\n        /* \"#utility.yul\":21089:21122   */\n      swap1\n      pop\n        /* \"#utility.yul\":21035:21128   */\n      swap2\n      swap1\n      pop\n      jump\t// out\n        /* \"#utility.yul\":21134:21274   */\n    tag_242:\n        /* \"#utility.yul\":21198:21207   */\n      0x00\n        /* \"#utility.yul\":21231:21268   */\n      tag_394\n        /* \"#utility.yul\":21262:21267   */\n      dup3\n        /* \"#utility.yul\":21231:21268   */\n      tag_395\n      jump\t// in\n    tag_394:\n        /* \"#utility.yul\":21218:21268   */\n      swap1\n      pop\n        /* \"#utility.yul\":21134:21274   */\n      swap2\n      swap1\n      pop\n      jump\t// out\n        /* \"#utility.yul\":21280:21406   */\n    tag_395:\n        /* \"#utility.yul\":21330:21339   */\n      0x00\n        /* \"#utility.yul\":21363:21400   */\n      tag_397\n        /* \"#utility.yul\":21394:21399   */\n      dup3\n        /* \"#utility.yul\":21363:21400   */\n      tag_398\n      jump\t// in\n    tag_397:\n        /* \"#utility.yul\":21350:21400   */\n      swap1\n      pop\n        /* \"#utility.yul\":21280:21406   */\n      swap2\n      swap1\n      pop\n      jump\t// out\n        /* \"#utility.yul\":21412:21525   */\n    tag_398:\n        /* \"#utility.yul\":21462:21471   */\n      0x00\n        /* \"#utility.yul\":21495:21519   */\n      tag_400\n        /* \"#utility.yul\":21513:21518   */\n      dup3\n        /* \"#utility.yul\":21495:21519   */\n      tag_389\n      jump\t// in\n    tag_400:\n        /* \"#utility.yul\":21482:21519   */\n      swap1\n      pop\n        /* \"#utility.yul\":21412:21525   */\n      swap2\n      swap1\n      pop\n      jump\t// out\n        /* \"#utility.yul\":21531:21685   */\n    tag_160:\n        /* \"#utility.yul\":21615:21621   */\n      dup3\n        /* \"#utility.yul\":21610:21613   */\n      dup2\n        /* \"#utility.yul\":21605:21608   */\n      dup4\n        /* \"#utility.yul\":21592:21622   */\n      calldatacopy\n        /* \"#utility.yul\":21677:21678   */\n      0x00\n        /* \"#utility.yul\":21668:21674   */\n      dup4\n        /* \"#utility.yul\":21663:21666   */\n      dup4\n        /* \"#utility.yul\":21659:21675   */\n      add\n        /* \"#utility.yul\":21652:21679   */\n      mstore\n        /* \"#utility.yul\":21531:21685   */\n      pop\n      pop\n      pop\n      jump\t// out\n        /* \"#utility.yul\":21691:21998   */\n    tag_250:\n        /* \"#utility.yul\":21759:21760   */\n      0x00\n        /* \"#utility.yul\":21769:21882   */\n    tag_403:\n        /* \"#utility.yul\":21783:21789   */\n      dup4\n        /* \"#utility.yul\":21780:21781   */\n      dup2\n        /* \"#utility.yul\":21777:21790   */\n      lt\n        /* \"#utility.yul\":21769:21882   */\n      iszero\n      tag_405\n      jumpi\n        /* \"#utility.yul\":21868:21869   */\n      dup1\n        /* \"#utility.yul\":21863:21866   */\n      dup3\n        /* \"#utility.yul\":21859:21870   */\n      add\n        /* \"#utility.yul\":21853:21871   */\n      mload\n        /* \"#utility.yul\":21849:21850   */\n      dup2\n        /* \"#utility.yul\":21844:21847   */\n      dup5\n        /* \"#utility.yul\":21840:21851   */\n      add\n        /* \"#utility.yul\":21833:21872   */\n      mstore\n        /* \"#utility.yul\":21805:21807   */\n      0x20\n        /* \"#utility.yul\":21802:21803   */\n      dup2\n        /* \"#utility.yul\":21798:21808   */\n      add\n        /* \"#utility.yul\":21793:21808   */\n      swap1\n      pop\n        /* \"#utility.yul\":21769:21882   */\n      jump(tag_403)\n    tag_405:\n        /* \"#utility.yul\":21900:21906   */\n      dup4\n        /* \"#utility.yul\":21897:21898   */\n      dup2\n        /* \"#utility.yul\":21894:21907   */\n      gt\n        /* \"#utility.yul\":21891:21992   */\n      iszero\n      tag_406\n      jumpi\n        /* \"#utility.yul\":21980:21981   */\n      0x00\n        /* \"#utility.yul\":21971:21977   */\n      dup5\n        /* \"#utility.yul\":21966:21969   */\n      dup5\n        /* \"#utility.yul\":21962:21978   */\n      add\n        /* \"#utility.yul\":21955:21982   */\n      mstore\n        /* \"#utility.yul\":21891:21992   */\n    tag_406:\n        /* \"#utility.yul\":21740:21998   */\n      pop\n        /* \"#utility.yul\":21691:21998   */\n      pop\n      pop\n      pop\n      jump\t// out\n        /* \"#utility.yul\":22004:22324   */\n    tag_58:\n        /* \"#utility.yul\":22048:22054   */\n      0x00\n        /* \"#utility.yul\":22085:22086   */\n      0x02\n        /* \"#utility.yul\":22079:22083   */\n      dup3\n        /* \"#utility.yul\":22075:22087   */\n      div\n        /* \"#utility.yul\":22065:22087   */\n      swap1\n      pop\n        /* \"#utility.yul\":22132:22133   */\n      0x01\n        /* \"#utility.yul\":22126:22130   */\n      dup3\n        /* \"#utility.yul\":22122:22134   */\n      and\n        /* \"#utility.yul\":22153:22171   */\n      dup1\n        /* \"#utility.yul\":22143:22224   */\n      tag_408\n      jumpi\n        /* \"#utility.yul\":22209:22213   */\n      0x7f\n        /* \"#utility.yul\":22201:22207   */\n      dup3\n        /* \"#utility.yul\":22197:22214   */\n      and\n        /* \"#utility.yul\":22187:22214   */\n      swap2\n      pop\n        /* \"#utility.yul\":22143:22224   */\n    tag_408:\n        /* \"#utility.yul\":22271:22273   */\n      0x20\n        /* \"#utility.yul\":22263:22269   */\n      dup3\n        /* \"#utility.yul\":22260:22274   */\n      lt\n        /* \"#utility.yul\":22240:22258   */\n      dup2\n        /* \"#utility.yul\":22237:22275   */\n      eq\n        /* \"#utility.yul\":22234:22318   */\n      iszero\n      tag_409\n      jumpi\n        /* \"#utility.yul\":22290:22308   */\n      tag_410\n      tag_411\n      jump\t// in\n    tag_410:\n        /* \"#utility.yul\":22234:22318   */\n    tag_409:\n        /* \"#utility.yul\":22055:22324   */\n      pop\n        /* \"#utility.yul\":22004:22324   */\n      swap2\n      swap1\n      pop\n      jump\t// out\n        /* \"#utility.yul\":22330:22496   */\n    tag_307:\n        /* \"#utility.yul\":22399:22404   */\n      0x00\n        /* \"#utility.yul\":22424:22490   */\n      tag_413\n        /* \"#utility.yul\":22455:22489   */\n      tag_414\n        /* \"#utility.yul\":22478:22488   */\n      dup4\n        /* \"#utility.yul\":22455:22489   */\n      tag_415\n      jump\t// in\n    tag_414:\n        /* \"#utility.yul\":22424:22490   */\n      tag_381\n      jump\t// in\n    tag_413:\n        /* \"#utility.yul\":22415:22490   */\n      swap1\n      pop\n        /* \"#utility.yul\":22330:22496   */\n      swap2\n      swap1\n      pop\n      jump\t// out\n        /* \"#utility.yul\":22502:22668   */\n    tag_301:\n        /* \"#utility.yul\":22571:22576   */\n      0x00\n        /* \"#utility.yul\":22596:22662   */\n      tag_417\n        /* \"#utility.yul\":22627:22661   */\n      tag_418\n        /* \"#utility.yul\":22650:22660   */\n      dup4\n        /* \"#utility.yul\":22627:22661   */\n      tag_415\n      jump\t// in\n    tag_418:\n        /* \"#utility.yul\":22596:22662   */\n      tag_383\n      jump\t// in\n    tag_417:\n        /* \"#utility.yul\":22587:22662   */\n      swap1\n      pop\n        /* \"#utility.yul\":22502:22668   */\n      swap2\n      swap1\n      pop\n      jump\t// out\n        /* \"#utility.yul\":22674:22838   */\n    tag_312:\n        /* \"#utility.yul\":22742:22747   */\n      0x00\n        /* \"#utility.yul\":22767:22832   */\n      tag_420\n        /* \"#utility.yul\":22797:22831   */\n      tag_421\n        /* \"#utility.yul\":22820:22830   */\n      dup4\n        /* \"#utility.yul\":22797:22831   */\n      tag_415\n      jump\t// in\n    tag_421:\n        /* \"#utility.yul\":22767:22832   */\n      tag_385\n      jump\t// in\n    tag_420:\n        /* \"#utility.yul\":22758:22832   */\n      swap1\n      pop\n        /* \"#utility.yul\":22674:22838   */\n      swap2\n      swap1\n      pop\n      jump\t// out\n        /* \"#utility.yul\":22844:23125   */\n    tag_363:\n        /* \"#utility.yul\":22927:22954   */\n      tag_423\n        /* \"#utility.yul\":22949:22953   */\n      dup3\n        /* \"#utility.yul\":22927:22954   */\n      tag_252\n      jump\t// in\n    tag_423:\n        /* \"#utility.yul\":22919:22925   */\n      dup2\n        /* \"#utility.yul\":22915:22955   */\n      add\n        /* \"#utility.yul\":23057:23063   */\n      dup2\n        /* \"#utility.yul\":23045:23055   */\n      dup2\n        /* \"#utility.yul\":23042:23064   */\n      lt\n        /* \"#utility.yul\":23021:23039   */\n      0xffffffffffffffff\n        /* \"#utility.yul\":23009:23019   */\n      dup3\n        /* \"#utility.yul\":23006:23040   */\n      gt\n        /* \"#utility.yul\":23003:23065   */\n      or\n        /* \"#utility.yul\":23000:23088   */\n      iszero\n      tag_424\n      jumpi\n        /* \"#utility.yul\":23068:23086   */\n      tag_425\n      tag_368\n      jump\t// in\n    tag_425:\n        /* \"#utility.yul\":23000:23088   */\n    tag_424:\n        /* \"#utility.yul\":23108:23118   */\n      dup1\n        /* \"#utility.yul\":23104:23106   */\n      0x40\n        /* \"#utility.yul\":23097:23119   */\n      mstore\n        /* \"#utility.yul\":22887:23125   */\n      pop\n        /* \"#utility.yul\":22844:23125   */\n      pop\n      pop\n      jump\t// out\n        /* \"#utility.yul\":23131:23364   */\n    tag_52:\n        /* \"#utility.yul\":23170:23173   */\n      0x00\n        /* \"#utility.yul\":23193:23217   */\n      tag_427\n        /* \"#utility.yul\":23211:23216   */\n      dup3\n        /* \"#utility.yul\":23193:23217   */\n      tag_316\n      jump\t// in\n    tag_427:\n        /* \"#utility.yul\":23184:23217   */\n      swap2\n      pop\n        /* \"#utility.yul\":23239:23305   */\n      0xffffffffffffffffffffffffffffffffffffffffffffffffffffffffffffffff\n        /* \"#utility.yul\":23232:23237   */\n      dup3\n        /* \"#utility.yul\":23229:23306   */\n      eq\n        /* \"#utility.yul\":23226:23329   */\n      iszero\n      tag_428\n      jumpi\n        /* \"#utility.yul\":23309:23327   */\n      tag_429\n      tag_430\n      jump\t// in\n    tag_429:\n        /* \"#utility.yul\":23226:23329   */\n    tag_428:\n        /* \"#utility.yul\":23356:23357   */\n      0x01\n        /* \"#utility.yul\":23349:23354   */\n      dup3\n        /* \"#utility.yul\":23345:23358   */\n      add\n        /* \"#utility.yul\":23338:23358   */\n      swap1\n      pop\n        /* \"#utility.yul\":23131:23364   */\n      swap2\n      swap1\n      pop\n      jump\t// out\n        /* \"#utility.yul\":23370:23550   */\n    tag_430:\n        /* \"#utility.yul\":23418:23495   */\n      0x4e487b7100000000000000000000000000000000000000000000000000000000\n        /* \"#utility.yul\":23415:23416   */\n      0x00\n        /* \"#utility.yul\":23408:23496   */\n      mstore\n        /* \"#utility.yul\":23515:23519   */\n      0x11\n        /* \"#utility.yul\":23512:23513   */\n      0x04\n        /* \"#utility.yul\":23505:23520   */\n      mstore\n        /* \"#utility.yul\":23539:23543   */\n      0x24\n        /* \"#utility.yul\":23536:23537   */\n      0x00\n        /* \"#utility.yul\":23529:23544   */\n      revert\n        /* \"#utility.yul\":23556:23736   */\n    tag_411:\n        /* \"#utility.yul\":23604:23681   */\n      0x4e487b7100000000000000000000000000000000000000000000000000000000\n        /* \"#utility.yul\":23601:23602   */\n      0x00\n        /* \"#utility.yul\":23594:23682   */\n      mstore\n        /* \"#utility.yul\":23701:23705   */\n      0x22\n        /* \"#utility.yul\":23698:23699   */\n      0x04\n        /* \"#utility.yul\":23691:23706   */\n      mstore\n        /* \"#utility.yul\":23725:23729   */\n      0x24\n        /* \"#utility.yul\":23722:23723   */\n      0x00\n        /* \"#utility.yul\":23715:23730   */\n      revert\n        /* \"#utility.yul\":23742:23922   */\n    tag_368:\n        /* \"#utility.yul\":23790:23867   */\n      0x4e487b7100000000000000000000000000000000000000000000000000000000\n        /* \"#utility.yul\":23787:23788   */\n      0x00\n        /* \"#utility.yul\":23780:23868   */\n      mstore\n        /* \"#utility.yul\":23887:23891   */\n      0x41\n        /* \"#utility.yul\":23884:23885   */\n      0x04\n        /* \"#utility.yul\":23877:23892   */\n      mstore\n        /* \"#utility.yul\":23911:23915   */\n      0x24\n        /* \"#utility.yul\":23908:23909   */\n      0x00\n        /* \"#utility.yul\":23901:23916   */\n      revert\n        /* \"#utility.yul\":23928:24045   */\n    tag_169:\n        /* \"#utility.yul\":24037:24038   */\n      0x00\n        /* \"#utility.yul\":24034:24035   */\n      dup1\n        /* \"#utility.yul\":24027:24039   */\n      revert\n        /* \"#utility.yul\":24051:24168   */\n    tag_158:\n        /* \"#utility.yul\":24160:24161   */\n      0x00\n        /* \"#utility.yul\":24157:24158   */\n      dup1\n        /* \"#utility.yul\":24150:24162   */\n      revert\n        /* \"#utility.yul\":24174:24291   */\n    tag_194:\n        /* \"#utility.yul\":24283:24284   */\n      0x00\n        /* \"#utility.yul\":24280:24281   */\n      dup1\n        /* \"#utility.yul\":24273:24285   */\n      revert\n        /* \"#utility.yul\":24297:24414   */\n    tag_182:\n        /* \"#utility.yul\":24406:24407   */\n      0x00\n        /* \"#utility.yul\":24403:24404   */\n      dup1\n        /* \"#utility.yul\":24396:24408   */\n      revert\n        /* \"#utility.yul\":24420:24522   */\n    tag_252:\n        /* \"#utility.yul\":24461:24467   */\n      0x00\n        /* \"#utility.yul\":24512:24514   */\n      0x1f\n        /* \"#utility.yul\":24508:24515   */\n      not\n        /* \"#utility.yul\":24503:24505   */\n      0x1f\n        /* \"#utility.yul\":24496:24501   */\n      dup4\n        /* \"#utility.yul\":24492:24506   */\n      add\n        /* \"#utility.yul\":24488:24516   */\n      and\n        /* \"#utility.yul\":24478:24516   */\n      swap1\n      pop\n        /* \"#utility.yul\":24420:24522   */\n      swap2\n      swap1\n      pop\n      jump\t// out\n        /* \"#utility.yul\":24528:24630   */\n    tag_415:\n        /* \"#utility.yul\":24570:24578   */\n      0x00\n        /* \"#utility.yul\":24617:24622   */\n      dup2\n        /* \"#utility.yul\":24614:24615   */\n      0x00\n        /* \"#utility.yul\":24610:24623   */\n      shr\n        /* \"#utility.yul\":24589:24623   */\n      swap1\n      pop\n        /* \"#utility.yul\":24528:24630   */\n      swap2\n      swap1\n      pop\n      jump\t// out\n        /* \"#utility.yul\":24636:24857   */\n    tag_276:\n        /* \"#utility.yul\":24776:24810   */\n      0x546865726520617265206e6f2070726f647563747320746f206c697374207965\n        /* \"#utility.yul\":24772:24773   */\n      0x00\n        /* \"#utility.yul\":24764:24770   */\n      dup3\n        /* \"#utility.yul\":24760:24774   */\n      add\n        /* \"#utility.yul\":24753:24811   */\n      mstore\n        /* \"#utility.yul\":24845:24849   */\n      0x7421000000000000000000000000000000000000000000000000000000000000\n        /* \"#utility.yul\":24840:24842   */\n      0x20\n        /* \"#utility.yul\":24832:24838   */\n      dup3\n        /* \"#utility.yul\":24828:24843   */\n      add\n        /* \"#utility.yul\":24821:24850   */\n      mstore\n        /* \"#utility.yul\":24636:24857   */\n      pop\n      jump\t// out\n        /* \"#utility.yul\":24863:25042   */\n    tag_281:\n        /* \"#utility.yul\":25003:25034   */\n      0x5468657265206973206e6f2073756368206974656d207265636f726421000000\n        /* \"#utility.yul\":24999:25000   */\n      0x00\n        /* \"#utility.yul\":24991:24997   */\n      dup3\n        /* \"#utility.yul\":24987:25001   */\n      add\n        /* \"#utility.yul\":24980:25035   */\n      mstore\n        /* \"#utility.yul\":24863:25042   */\n      pop\n      jump\t// out\n        /* \"#utility.yul\":25048:25170   */\n    tag_164:\n        /* \"#utility.yul\":25121:25145   */\n      tag_443\n        /* \"#utility.yul\":25139:25144   */\n      dup2\n        /* \"#utility.yul\":25121:25145   */\n      tag_208\n      jump\t// in\n    tag_443:\n        /* \"#utility.yul\":25114:25119   */\n      dup2\n        /* \"#utility.yul\":25111:25146   */\n      eq\n        /* \"#utility.yul\":25101:25164   */\n      tag_444\n      jumpi\n        /* \"#utility.yul\":25160:25161   */\n      0x00\n        /* \"#utility.yul\":25157:25158   */\n      dup1\n        /* \"#utility.yul\":25150:25162   */\n      revert\n        /* \"#utility.yul\":25101:25164   */\n    tag_444:\n        /* \"#utility.yul\":25048:25170   */\n      pop\n      jump\t// out\n        /* \"#utility.yul\":25176:25298   */\n    tag_174:\n        /* \"#utility.yul\":25249:25273   */\n      tag_446\n        /* \"#utility.yul\":25267:25272   */\n      dup2\n        /* \"#utility.yul\":25249:25273   */\n      tag_316\n      jump\t// in\n    tag_446:\n        /* \"#utility.yul\":25242:25247   */\n      dup2\n        /* \"#utility.yul\":25239:25274   */\n      eq\n        /* \"#utility.yul\":25229:25292   */\n      tag_447\n      jumpi\n        /* \"#utility.yul\":25288:25289   */\n      0x00\n        /* \"#utility.yul\":25285:25286   */\n      dup1\n        /* \"#utility.yul\":25278:25290   */\n      revert\n        /* \"#utility.yul\":25229:25292   */\n    tag_447:\n        /* \"#utility.yul\":25176:25298   */\n      pop\n      jump\t// out\n        /* \"#utility.yul\":25304:25424   */\n    tag_178:\n        /* \"#utility.yul\":25376:25399   */\n      tag_449\n        /* \"#utility.yul\":25393:25398   */\n      dup2\n        /* \"#utility.yul\":25376:25399   */\n      tag_322\n      jump\t// in\n    tag_449:\n        /* \"#utility.yul\":25369:25374   */\n      dup2\n        /* \"#utility.yul\":25366:25400   */\n      eq\n        /* \"#utility.yul\":25356:25418   */\n      tag_450\n      jumpi\n        /* \"#utility.yul\":25414:25415   */\n      0x00\n        /* \"#utility.yul\":25411:25412   */\n      dup1\n        /* \"#utility.yul\":25404:25416   */\n      revert\n        /* \"#utility.yul\":25356:25418   */\n    tag_450:\n        /* \"#utility.yul\":25304:25424   */\n      pop\n      jump\t// out\n\n    auxdata: 0xa26469706673582212209f5183a86c9a3a4689bcfaff815a14387f2d933ec6368834cd3f7370a182858964736f6c63430008070033\n}\n",
				"bytecode": {
					"linkReferences": {},
					"object": "60806040523480156200001157600080fd5b5060405162001ddd38038062001ddd833981810160405281019062000037919062000095565b806000806101000a81548173ffffffffffffffffffffffffffffffffffffffff021916908373ffffffffffffffffffffffffffffffffffffffff160217905550506200011a565b6000815190506200008f8162000100565b92915050565b600060208284031215620000ae57620000ad620000fb565b5b6000620000be848285016200007e565b91505092915050565b6000620000d482620000db565b9050919050565b600073ffffffffffffffffffffffffffffffffffffffff82169050919050565b600080fd5b6200010b81620000c7565b81146200011757600080fd5b50565b611cb3806200012a6000396000f3fe608060405234801561001057600080fd5b50600436106100885760003560e01c8063a87430ba1161005b578063a87430ba14610118578063bfb231d21461014b578063cd2f071014610180578063fc0c546a146101b057610088565b806301750e741461008d5780633d4d3600146100a95780634efd1797146100de5780635d9eb55c146100fa575b600080fd5b6100a760048036038101906100a291906110eb565b6101ce565b005b6100c360048036038101906100be91906110eb565b6102d4565b6040516100d596959493929190611720565b60405180910390f35b6100f860048036038101906100f39190611118565b6103d8565b005b610102610844565b60405161010f919061160c565b60405180910390f35b610132600480360381019061012d91906110be565b610a6a565b60405161014294939291906116cd565b60405180910390f35b610165600480360381019061016091906110eb565b610baa565b60405161017796959493929190611720565b60405180910390f35b61019a600480360381019061019591906110eb565b610c9e565b6040516101a791906116ab565b60405180910390f35b6101b8610e45565b6040516101c59190611650565b60405180910390f35b6003600082815260200190815260200160002060030160009054906101000a900473ffffffffffffffffffffffffffffffffffffffff168073ffffffffffffffffffffffffffffffffffffffff163373ffffffffffffffffffffffffffffffffffffffff16141561023e57600080fd5b60036000838152602001908152602001600020600201600081548092919061026590611ab8565b91905055503373ffffffffffffffffffffffffffffffffffffffff167f1ed364e6f46a455fac23816d3700669ff134c7a5fbe0240f52d932f8341024628360036000868152602001908152602001600020600201546040516102c8929190611788565b60405180910390a25050565b600181815481106102e457600080fd5b906000526020600020906006020160009150905080600001549080600101805461030d90611a07565b80601f016020809104026020016040519081016040528092919081815260200182805461033990611a07565b80156103865780601f1061035b57610100808354040283529160200191610386565b820191906000526020600020905b81548152906001019060200180831161036957829003601f168201915b5050505050908060020154908060030160009054906101000a900473ffffffffffffffffffffffffffffffffffffffff16908060040154908060050160009054906101000a900463ffffffff16905086565b338073ffffffffffffffffffffffffffffffffffffffff163373ffffffffffffffffffffffffffffffffffffffff161461041157600080fd5b6040518060c001604052806104266004610e69565b8152602001848152602001600081526020013373ffffffffffffffffffffffffffffffffffffffff1681526020018581526020018363ffffffff16815250600360006104726004610e69565b81526020019081526020016000206000820151816000015560208201518160010190805190602001906104a6929190610e8d565b506040820151816002015560608201518160030160006101000a81548173ffffffffffffffffffffffffffffffffffffffff021916908373ffffffffffffffffffffffffffffffffffffffff1602179055506080820151816004015560a08201518160050160006101000a81548163ffffffff021916908363ffffffff160217905550905050600260003373ffffffffffffffffffffffffffffffffffffffff1673ffffffffffffffffffffffffffffffffffffffff1681526020019081526020016000206004016003600061057c6004610e69565b815260200190815260200160002090806001815401808255809150506001900390600052602060002090600602016000909190919091506000820154816000015560018201816001019080546105d190611a07565b6105dc929190610f13565b50600282015481600201556003820160009054906101000a900473ffffffffffffffffffffffffffffffffffffffff168160030160006101000a81548173ffffffffffffffffffffffffffffffffffffffff021916908373ffffffffffffffffffffffffffffffffffffffff160217905550600482015481600401556005820160009054906101000a900463ffffffff168160050160006101000a81548163ffffffff021916908363ffffffff16021790555050506001600360006106a16004610e69565b815260200190815260200160002090806001815401808255809150506001900390600052602060002090600602016000909190919091506000820154816000015560018201816001019080546106f690611a07565b610701929190610f13565b50600282015481600201556003820160009054906101000a900473ffffffffffffffffffffffffffffffffffffffff168160030160006101000a81548173ffffffffffffffffffffffffffffffffffffffff021916908373ffffffffffffffffffffffffffffffffffffffff160217905550600482015481600401556005820160009054906101000a900463ffffffff168160050160006101000a81548163ffffffff021916908363ffffffff16021790555050506107c06004610e77565b3373ffffffffffffffffffffffffffffffffffffffff167f9a5b8b5cb7f9c536ea5db1a94142c9f716fb3a8698a9c70a5b8bfad3922cb06c6108026004610e69565b868686600360006108136004610e69565b8152602001908152602001600020600201546040516108369594939291906117b1565b60405180910390a250505050565b606060006108526004610e69565b11610892576040517f08c379a00000000000000000000000000000000000000000000000000000000081526004016108899061166b565b60405180910390fd5b3373ffffffffffffffffffffffffffffffffffffffff167f440c078a5e11bff85c6b6d7c52f378c8220355bd3331ec889638c0eca883670c60016040516108d9919061162e565b60405180910390a26001805480602002602001604051908101604052809291908181526020016000905b82821015610a6157838290600052602060002090600602016040518060c00160405290816000820154815260200160018201805461094090611a07565b80601f016020809104026020016040519081016040528092919081815260200182805461096c90611a07565b80156109b95780601f1061098e576101008083540402835291602001916109b9565b820191906000526020600020905b81548152906001019060200180831161099c57829003601f168201915b50505050508152602001600282015481526020016003820160009054906101000a900473ffffffffffffffffffffffffffffffffffffffff1673ffffffffffffffffffffffffffffffffffffffff1673ffffffffffffffffffffffffffffffffffffffff168152602001600482015481526020016005820160009054906101000a900463ffffffff1663ffffffff1663ffffffff168152505081526020019060010190610903565b50505050905090565b6002602052806000526040600020600091509050806000015490806001018054610a9390611a07565b80601f0160208091040260200160405190810160405280929190818152602001828054610abf90611a07565b8015610b0c5780601f10610ae157610100808354040283529160200191610b0c565b820191906000526020600020905b815481529060010190602001808311610aef57829003601f168201915b505050505090806002018054610b2190611a07565b80601f0160208091040260200160405190810160405280929190818152602001828054610b4d90611a07565b8015610b9a5780601f10610b6f57610100808354040283529160200191610b9a565b820191906000526020600020905b815481529060010190602001808311610b7d57829003601f168201915b5050505050908060050154905084565b6003602052806000526040600020600091509050806000015490806001018054610bd390611a07565b80601f0160208091040260200160405190810160405280929190818152602001828054610bff90611a07565b8015610c4c5780601f10610c2157610100808354040283529160200191610c4c565b820191906000526020600020905b815481529060010190602001808311610c2f57829003601f168201915b5050505050908060020154908060030160009054906101000a900473ffffffffffffffffffffffffffffffffffffffff16908060040154908060050160009054906101000a900463ffffffff16905086565b610ca6610fa0565b81610cb16004610e69565b811115610cf3576040517f08c379a0000000000000000000000000000000000000000000000000000000008152600401610cea9061168b565b60405180910390fd5b600360008481526020019081526020016000206040518060c001604052908160008201548152602001600182018054610d2b90611a07565b80601f0160208091040260200160405190810160405280929190818152602001828054610d5790611a07565b8015610da45780601f10610d7957610100808354040283529160200191610da4565b820191906000526020600020905b815481529060010190602001808311610d8757829003601f168201915b50505050508152602001600282015481526020016003820160009054906101000a900473ffffffffffffffffffffffffffffffffffffffff1673ffffffffffffffffffffffffffffffffffffffff1673ffffffffffffffffffffffffffffffffffffffff168152602001600482015481526020016005820160009054906101000a900463ffffffff1663ffffffff1663ffffffff1681525050915050919050565b60008054906101000a900473ffffffffffffffffffffffffffffffffffffffff1681565b600081600001549050919050565b6001816000016000828254019250508190555050565b828054610e9990611a07565b90600052602060002090601f016020900481019282610ebb5760008555610f02565b82601f10610ed457805160ff1916838001178555610f02565b82800160010185558215610f02579182015b82811115610f01578251825591602001919060010190610ee6565b5b509050610f0f9190610ff2565b5090565b828054610f1f90611a07565b90600052602060002090601f016020900481019282610f415760008555610f8f565b82601f10610f525780548555610f8f565b82800160010185558215610f8f57600052602060002091601f016020900482015b82811115610f8e578254825591600101919060010190610f73565b5b509050610f9c9190610ff2565b5090565b6040518060c00160405280600081526020016060815260200160008152602001600073ffffffffffffffffffffffffffffffffffffffff16815260200160008152602001600063ffffffff1681525090565b5b8082111561100b576000816000905550600101610ff3565b5090565b600061102261101d84611830565b61180b565b90508281526020810184848401111561103e5761103d611b93565b5b6110498482856119c5565b509392505050565b60008135905061106081611c38565b92915050565b600082601f83011261107b5761107a611b8e565b5b813561108b84826020860161100f565b91505092915050565b6000813590506110a381611c4f565b92915050565b6000813590506110b881611c66565b92915050565b6000602082840312156110d4576110d3611b9d565b5b60006110e284828501611051565b91505092915050565b60006020828403121561110157611100611b9d565b5b600061110f84828501611094565b91505092915050565b60008060006060848603121561113157611130611b9d565b5b600061113f86828701611094565b935050602084013567ffffffffffffffff8111156111605761115f611b98565b5b61116c86828701611066565b925050604061117d868287016110a9565b9150509250925092565b600061119383836113fd565b905092915050565b60006111a7838361150f565b905092915050565b6111b881611943565b82525050565b6111c781611943565b82525050565b60006111d88261189b565b6111e281856118d6565b9350836020820285016111f485611861565b8060005b8581101561123057848403895281516112118582611187565b945061121c836118bc565b925060208a019950506001810190506111f8565b50829750879550505050505092915050565b600061124d826118a6565b61125781856118d6565b93508360208202850161126985611871565b8060005b858110156112a457848403895281611285858261119b565b9450611290836118c9565b925060208a0199505060018101905061126d565b50829750879550505050505092915050565b6112bf8161198f565b82525050565b60006112d0826118b1565b6112da81856118e7565b93506112ea8185602086016119d4565b6112f381611ba2565b840191505092915050565b6000611309826118b1565b61131381856118f8565b93506113238185602086016119d4565b61132c81611ba2565b840191505092915050565b6000815461134481611a07565b61134e81866118e7565b94506001821660008114611369576001811461137b576113ae565b60ff19831686526020860193506113ae565b61138485611886565b60005b838110156113a657815481890152600182019150602081019050611387565b808801955050505b50505092915050565b60006113c46022836118f8565b91506113cf82611bc0565b604082019050919050565b60006113e7601d836118f8565b91506113f282611c0f565b602082019050919050565b600060c08301600083015161141560008601826115d0565b506020830151848203602086015261142d82826112c5565b915050604083015161144260408601826115d0565b50606083015161145560608601826111af565b50608083015161146860808601826115d0565b5060a083015161147b60a08601826115ee565b508091505092915050565b600060c08301600083015161149e60008601826115d0565b50602083015184820360208601526114b682826112c5565b91505060408301516114cb60408601826115d0565b5060608301516114de60608601826111af565b5060808301516114f160808601826115d0565b5060a083015161150460a08601826115ee565b508091505092915050565b600060c08301600080840154905061152681611a53565b61153360008701826115d0565b5060018401858303602087015261154a8382611337565b9250506002840154905061155d81611a53565b61156a60408701826115d0565b506003840154905061157b81611a39565b61158860608701826111af565b506004840154905061159981611a53565b6115a660808701826115d0565b50600584015490506115b781611a6d565b6115c460a08701826115ee565b50819250505092915050565b6115d981611975565b82525050565b6115e881611975565b82525050565b6115f78161197f565b82525050565b6116068161197f565b82525050565b6000602082019050818103600083015261162681846111cd565b905092915050565b600060208201905081810360008301526116488184611242565b905092915050565b600060208201905061166560008301846112b6565b92915050565b60006020820190508181036000830152611684816113b7565b9050919050565b600060208201905081810360008301526116a4816113da565b9050919050565b600060208201905081810360008301526116c58184611486565b905092915050565b60006080820190506116e260008301876115df565b81810360208301526116f481866112fe565b9050818103604083015261170881856112fe565b905061171760608301846115df565b95945050505050565b600060c08201905061173560008301896115df565b818103602083015261174781886112fe565b905061175660408301876115df565b61176360608301866111be565b61177060808301856115df565b61177d60a08301846115fd565b979650505050505050565b600060408201905061179d60008301856115df565b6117aa60208301846115df565b9392505050565b600060a0820190506117c660008301886115df565b6117d360208301876115df565b81810360408301526117e581866112fe565b90506117f460608301856115fd565b61180160808301846115df565b9695505050505050565b6000611815611826565b90506118218282611a87565b919050565b6000604051905090565b600067ffffffffffffffff82111561184b5761184a611b5f565b5b61185482611ba2565b9050602081019050919050565b6000819050602082019050919050565b60008190508160005260206000209050919050565b60008190508160005260206000209050919050565b600081519050919050565b600081549050919050565b600081519050919050565b6000602082019050919050565b6000600682019050919050565b600082825260208201905092915050565b600082825260208201905092915050565b600082825260208201905092915050565b600073ffffffffffffffffffffffffffffffffffffffff82169050919050565b6000819050919050565b600063ffffffff82169050919050565b600061194e82611955565b9050919050565b600073ffffffffffffffffffffffffffffffffffffffff82169050919050565b6000819050919050565b600063ffffffff82169050919050565b600061199a826119a1565b9050919050565b60006119ac826119b3565b9050919050565b60006119be82611955565b9050919050565b82818337600083830152505050565b60005b838110156119f25780820151818401526020810190506119d7565b83811115611a01576000848401525b50505050565b60006002820490506001821680611a1f57607f821691505b60208210811415611a3357611a32611b30565b5b50919050565b6000611a4c611a4783611bb3565b611909565b9050919050565b6000611a66611a6183611bb3565b611929565b9050919050565b6000611a80611a7b83611bb3565b611933565b9050919050565b611a9082611ba2565b810181811067ffffffffffffffff82111715611aaf57611aae611b5f565b5b80604052505050565b6000611ac382611975565b91507fffffffffffffffffffffffffffffffffffffffffffffffffffffffffffffffff821415611af657611af5611b01565b5b600182019050919050565b7f4e487b7100000000000000000000000000000000000000000000000000000000600052601160045260246000fd5b7f4e487b7100000000000000000000000000000000000000000000000000000000600052602260045260246000fd5b7f4e487b7100000000000000000000000000000000000000000000000000000000600052604160045260246000fd5b600080fd5b600080fd5b600080fd5b600080fd5b6000601f19601f8301169050919050565b60008160001c9050919050565b7f546865726520617265206e6f2070726f647563747320746f206c69737420796560008201527f7421000000000000000000000000000000000000000000000000000000000000602082015250565b7f5468657265206973206e6f2073756368206974656d207265636f726421000000600082015250565b611c4181611943565b8114611c4c57600080fd5b50565b611c5881611975565b8114611c6357600080fd5b50565b611c6f8161197f565b8114611c7a57600080fd5b5056fea26469706673582212209f5183a86c9a3a4689bcfaff815a14387f2d933ec6368834cd3f7370a182858964736f6c63430008070033",
					"opcodes": "PUSH1 0x80 PUSH1 0x40 MSTORE CALLVALUE DUP1 ISZERO PUSH3 0x11 JUMPI PUSH1 0x0 DUP1 REVERT JUMPDEST POP PUSH1 0x40 MLOAD PUSH3 0x1DDD CODESIZE SUB DUP1 PUSH3 0x1DDD DUP4 CODECOPY DUP2 DUP2 ADD PUSH1 0x40 MSTORE DUP2 ADD SWAP1 PUSH3 0x37 SWAP2 SWAP1 PUSH3 0x95 JUMP JUMPDEST DUP1 PUSH1 0x0 DUP1 PUSH2 0x100 EXP DUP2 SLOAD DUP2 PUSH20 0xFFFFFFFFFFFFFFFFFFFFFFFFFFFFFFFFFFFFFFFF MUL NOT AND SWAP1 DUP4 PUSH20 0xFFFFFFFFFFFFFFFFFFFFFFFFFFFFFFFFFFFFFFFF AND MUL OR SWAP1 SSTORE POP POP PUSH3 0x11A JUMP JUMPDEST PUSH1 0x0 DUP2 MLOAD SWAP1 POP PUSH3 0x8F DUP2 PUSH3 0x100 JUMP JUMPDEST SWAP3 SWAP2 POP POP JUMP JUMPDEST PUSH1 0x0 PUSH1 0x20 DUP3 DUP5 SUB SLT ISZERO PUSH3 0xAE JUMPI PUSH3 0xAD PUSH3 0xFB JUMP JUMPDEST JUMPDEST PUSH1 0x0 PUSH3 0xBE DUP5 DUP3 DUP6 ADD PUSH3 0x7E JUMP JUMPDEST SWAP2 POP POP SWAP3 SWAP2 POP POP JUMP JUMPDEST PUSH1 0x0 PUSH3 0xD4 DUP3 PUSH3 0xDB JUMP JUMPDEST SWAP1 POP SWAP2 SWAP1 POP JUMP JUMPDEST PUSH1 0x0 PUSH20 0xFFFFFFFFFFFFFFFFFFFFFFFFFFFFFFFFFFFFFFFF DUP3 AND SWAP1 POP SWAP2 SWAP1 POP JUMP JUMPDEST PUSH1 0x0 DUP1 REVERT JUMPDEST PUSH3 0x10B DUP2 PUSH3 0xC7 JUMP JUMPDEST DUP2 EQ PUSH3 0x117 JUMPI PUSH1 0x0 DUP1 REVERT JUMPDEST POP JUMP JUMPDEST PUSH2 0x1CB3 DUP1 PUSH3 0x12A PUSH1 0x0 CODECOPY PUSH1 0x0 RETURN INVALID PUSH1 0x80 PUSH1 0x40 MSTORE CALLVALUE DUP1 ISZERO PUSH2 0x10 JUMPI PUSH1 0x0 DUP1 REVERT JUMPDEST POP PUSH1 0x4 CALLDATASIZE LT PUSH2 0x88 JUMPI PUSH1 0x0 CALLDATALOAD PUSH1 0xE0 SHR DUP1 PUSH4 0xA87430BA GT PUSH2 0x5B JUMPI DUP1 PUSH4 0xA87430BA EQ PUSH2 0x118 JUMPI DUP1 PUSH4 0xBFB231D2 EQ PUSH2 0x14B JUMPI DUP1 PUSH4 0xCD2F0710 EQ PUSH2 0x180 JUMPI DUP1 PUSH4 0xFC0C546A EQ PUSH2 0x1B0 JUMPI PUSH2 0x88 JUMP JUMPDEST DUP1 PUSH4 0x1750E74 EQ PUSH2 0x8D JUMPI DUP1 PUSH4 0x3D4D3600 EQ PUSH2 0xA9 JUMPI DUP1 PUSH4 0x4EFD1797 EQ PUSH2 0xDE JUMPI DUP1 PUSH4 0x5D9EB55C EQ PUSH2 0xFA JUMPI JUMPDEST PUSH1 0x0 DUP1 REVERT JUMPDEST PUSH2 0xA7 PUSH1 0x4 DUP1 CALLDATASIZE SUB DUP2 ADD SWAP1 PUSH2 0xA2 SWAP2 SWAP1 PUSH2 0x10EB JUMP JUMPDEST PUSH2 0x1CE JUMP JUMPDEST STOP JUMPDEST PUSH2 0xC3 PUSH1 0x4 DUP1 CALLDATASIZE SUB DUP2 ADD SWAP1 PUSH2 0xBE SWAP2 SWAP1 PUSH2 0x10EB JUMP JUMPDEST PUSH2 0x2D4 JUMP JUMPDEST PUSH1 0x40 MLOAD PUSH2 0xD5 SWAP7 SWAP6 SWAP5 SWAP4 SWAP3 SWAP2 SWAP1 PUSH2 0x1720 JUMP JUMPDEST PUSH1 0x40 MLOAD DUP1 SWAP2 SUB SWAP1 RETURN JUMPDEST PUSH2 0xF8 PUSH1 0x4 DUP1 CALLDATASIZE SUB DUP2 ADD SWAP1 PUSH2 0xF3 SWAP2 SWAP1 PUSH2 0x1118 JUMP JUMPDEST PUSH2 0x3D8 JUMP JUMPDEST STOP JUMPDEST PUSH2 0x102 PUSH2 0x844 JUMP JUMPDEST PUSH1 0x40 MLOAD PUSH2 0x10F SWAP2 SWAP1 PUSH2 0x160C JUMP JUMPDEST PUSH1 0x40 MLOAD DUP1 SWAP2 SUB SWAP1 RETURN JUMPDEST PUSH2 0x132 PUSH1 0x4 DUP1 CALLDATASIZE SUB DUP2 ADD SWAP1 PUSH2 0x12D SWAP2 SWAP1 PUSH2 0x10BE JUMP JUMPDEST PUSH2 0xA6A JUMP JUMPDEST PUSH1 0x40 MLOAD PUSH2 0x142 SWAP5 SWAP4 SWAP3 SWAP2 SWAP1 PUSH2 0x16CD JUMP JUMPDEST PUSH1 0x40 MLOAD DUP1 SWAP2 SUB SWAP1 RETURN JUMPDEST PUSH2 0x165 PUSH1 0x4 DUP1 CALLDATASIZE SUB DUP2 ADD SWAP1 PUSH2 0x160 SWAP2 SWAP1 PUSH2 0x10EB JUMP JUMPDEST PUSH2 0xBAA JUMP JUMPDEST PUSH1 0x40 MLOAD PUSH2 0x177 SWAP7 SWAP6 SWAP5 SWAP4 SWAP3 SWAP2 SWAP1 PUSH2 0x1720 JUMP JUMPDEST PUSH1 0x40 MLOAD DUP1 SWAP2 SUB SWAP1 RETURN JUMPDEST PUSH2 0x19A PUSH1 0x4 DUP1 CALLDATASIZE SUB DUP2 ADD SWAP1 PUSH2 0x195 SWAP2 SWAP1 PUSH2 0x10EB JUMP JUMPDEST PUSH2 0xC9E JUMP JUMPDEST PUSH1 0x40 MLOAD PUSH2 0x1A7 SWAP2 SWAP1 PUSH2 0x16AB JUMP JUMPDEST PUSH1 0x40 MLOAD DUP1 SWAP2 SUB SWAP1 RETURN JUMPDEST PUSH2 0x1B8 PUSH2 0xE45 JUMP JUMPDEST PUSH1 0x40 MLOAD PUSH2 0x1C5 SWAP2 SWAP1 PUSH2 0x1650 JUMP JUMPDEST PUSH1 0x40 MLOAD DUP1 SWAP2 SUB SWAP1 RETURN JUMPDEST PUSH1 0x3 PUSH1 0x0 DUP3 DUP2 MSTORE PUSH1 0x20 ADD SWAP1 DUP2 MSTORE PUSH1 0x20 ADD PUSH1 0x0 KECCAK256 PUSH1 0x3 ADD PUSH1 0x0 SWAP1 SLOAD SWAP1 PUSH2 0x100 EXP SWAP1 DIV PUSH20 0xFFFFFFFFFFFFFFFFFFFFFFFFFFFFFFFFFFFFFFFF AND DUP1 PUSH20 0xFFFFFFFFFFFFFFFFFFFFFFFFFFFFFFFFFFFFFFFF AND CALLER PUSH20 0xFFFFFFFFFFFFFFFFFFFFFFFFFFFFFFFFFFFFFFFF AND EQ ISZERO PUSH2 0x23E JUMPI PUSH1 0x0 DUP1 REVERT JUMPDEST PUSH1 0x3 PUSH1 0x0 DUP4 DUP2 MSTORE PUSH1 0x20 ADD SWAP1 DUP2 MSTORE PUSH1 0x20 ADD PUSH1 0x0 KECCAK256 PUSH1 0x2 ADD PUSH1 0x0 DUP2 SLOAD DUP1 SWAP3 SWAP2 SWAP1 PUSH2 0x265 SWAP1 PUSH2 0x1AB8 JUMP JUMPDEST SWAP2 SWAP1 POP SSTORE POP CALLER PUSH20 0xFFFFFFFFFFFFFFFFFFFFFFFFFFFFFFFFFFFFFFFF AND PUSH32 0x1ED364E6F46A455FAC23816D3700669FF134C7A5FBE0240F52D932F834102462 DUP4 PUSH1 0x3 PUSH1 0x0 DUP7 DUP2 MSTORE PUSH1 0x20 ADD SWAP1 DUP2 MSTORE PUSH1 0x20 ADD PUSH1 0x0 KECCAK256 PUSH1 0x2 ADD SLOAD PUSH1 0x40 MLOAD PUSH2 0x2C8 SWAP3 SWAP2 SWAP1 PUSH2 0x1788 JUMP JUMPDEST PUSH1 0x40 MLOAD DUP1 SWAP2 SUB SWAP1 LOG2 POP POP JUMP JUMPDEST PUSH1 0x1 DUP2 DUP2 SLOAD DUP2 LT PUSH2 0x2E4 JUMPI PUSH1 0x0 DUP1 REVERT JUMPDEST SWAP1 PUSH1 0x0 MSTORE PUSH1 0x20 PUSH1 0x0 KECCAK256 SWAP1 PUSH1 0x6 MUL ADD PUSH1 0x0 SWAP2 POP SWAP1 POP DUP1 PUSH1 0x0 ADD SLOAD SWAP1 DUP1 PUSH1 0x1 ADD DUP1 SLOAD PUSH2 0x30D SWAP1 PUSH2 0x1A07 JUMP JUMPDEST DUP1 PUSH1 0x1F ADD PUSH1 0x20 DUP1 SWAP2 DIV MUL PUSH1 0x20 ADD PUSH1 0x40 MLOAD SWAP1 DUP2 ADD PUSH1 0x40 MSTORE DUP1 SWAP3 SWAP2 SWAP1 DUP2 DUP2 MSTORE PUSH1 0x20 ADD DUP3 DUP1 SLOAD PUSH2 0x339 SWAP1 PUSH2 0x1A07 JUMP JUMPDEST DUP1 ISZERO PUSH2 0x386 JUMPI DUP1 PUSH1 0x1F LT PUSH2 0x35B JUMPI PUSH2 0x100 DUP1 DUP4 SLOAD DIV MUL DUP4 MSTORE SWAP2 PUSH1 0x20 ADD SWAP2 PUSH2 0x386 JUMP JUMPDEST DUP3 ADD SWAP2 SWAP1 PUSH1 0x0 MSTORE PUSH1 0x20 PUSH1 0x0 KECCAK256 SWAP1 JUMPDEST DUP2 SLOAD DUP2 MSTORE SWAP1 PUSH1 0x1 ADD SWAP1 PUSH1 0x20 ADD DUP1 DUP4 GT PUSH2 0x369 JUMPI DUP3 SWAP1 SUB PUSH1 0x1F AND DUP3 ADD SWAP2 JUMPDEST POP POP POP POP POP SWAP1 DUP1 PUSH1 0x2 ADD SLOAD SWAP1 DUP1 PUSH1 0x3 ADD PUSH1 0x0 SWAP1 SLOAD SWAP1 PUSH2 0x100 EXP SWAP1 DIV PUSH20 0xFFFFFFFFFFFFFFFFFFFFFFFFFFFFFFFFFFFFFFFF AND SWAP1 DUP1 PUSH1 0x4 ADD SLOAD SWAP1 DUP1 PUSH1 0x5 ADD PUSH1 0x0 SWAP1 SLOAD SWAP1 PUSH2 0x100 EXP SWAP1 DIV PUSH4 0xFFFFFFFF AND SWAP1 POP DUP7 JUMP JUMPDEST CALLER DUP1 PUSH20 0xFFFFFFFFFFFFFFFFFFFFFFFFFFFFFFFFFFFFFFFF AND CALLER PUSH20 0xFFFFFFFFFFFFFFFFFFFFFFFFFFFFFFFFFFFFFFFF AND EQ PUSH2 0x411 JUMPI PUSH1 0x0 DUP1 REVERT JUMPDEST PUSH1 0x40 MLOAD DUP1 PUSH1 0xC0 ADD PUSH1 0x40 MSTORE DUP1 PUSH2 0x426 PUSH1 0x4 PUSH2 0xE69 JUMP JUMPDEST DUP2 MSTORE PUSH1 0x20 ADD DUP5 DUP2 MSTORE PUSH1 0x20 ADD PUSH1 0x0 DUP2 MSTORE PUSH1 0x20 ADD CALLER PUSH20 0xFFFFFFFFFFFFFFFFFFFFFFFFFFFFFFFFFFFFFFFF AND DUP2 MSTORE PUSH1 0x20 ADD DUP6 DUP2 MSTORE PUSH1 0x20 ADD DUP4 PUSH4 0xFFFFFFFF AND DUP2 MSTORE POP PUSH1 0x3 PUSH1 0x0 PUSH2 0x472 PUSH1 0x4 PUSH2 0xE69 JUMP JUMPDEST DUP2 MSTORE PUSH1 0x20 ADD SWAP1 DUP2 MSTORE PUSH1 0x20 ADD PUSH1 0x0 KECCAK256 PUSH1 0x0 DUP3 ADD MLOAD DUP2 PUSH1 0x0 ADD SSTORE PUSH1 0x20 DUP3 ADD MLOAD DUP2 PUSH1 0x1 ADD SWAP1 DUP1 MLOAD SWAP1 PUSH1 0x20 ADD SWAP1 PUSH2 0x4A6 SWAP3 SWAP2 SWAP1 PUSH2 0xE8D JUMP JUMPDEST POP PUSH1 0x40 DUP3 ADD MLOAD DUP2 PUSH1 0x2 ADD SSTORE PUSH1 0x60 DUP3 ADD MLOAD DUP2 PUSH1 0x3 ADD PUSH1 0x0 PUSH2 0x100 EXP DUP2 SLOAD DUP2 PUSH20 0xFFFFFFFFFFFFFFFFFFFFFFFFFFFFFFFFFFFFFFFF MUL NOT AND SWAP1 DUP4 PUSH20 0xFFFFFFFFFFFFFFFFFFFFFFFFFFFFFFFFFFFFFFFF AND MUL OR SWAP1 SSTORE POP PUSH1 0x80 DUP3 ADD MLOAD DUP2 PUSH1 0x4 ADD SSTORE PUSH1 0xA0 DUP3 ADD MLOAD DUP2 PUSH1 0x5 ADD PUSH1 0x0 PUSH2 0x100 EXP DUP2 SLOAD DUP2 PUSH4 0xFFFFFFFF MUL NOT AND SWAP1 DUP4 PUSH4 0xFFFFFFFF AND MUL OR SWAP1 SSTORE POP SWAP1 POP POP PUSH1 0x2 PUSH1 0x0 CALLER PUSH20 0xFFFFFFFFFFFFFFFFFFFFFFFFFFFFFFFFFFFFFFFF AND PUSH20 0xFFFFFFFFFFFFFFFFFFFFFFFFFFFFFFFFFFFFFFFF AND DUP2 MSTORE PUSH1 0x20 ADD SWAP1 DUP2 MSTORE PUSH1 0x20 ADD PUSH1 0x0 KECCAK256 PUSH1 0x4 ADD PUSH1 0x3 PUSH1 0x0 PUSH2 0x57C PUSH1 0x4 PUSH2 0xE69 JUMP JUMPDEST DUP2 MSTORE PUSH1 0x20 ADD SWAP1 DUP2 MSTORE PUSH1 0x20 ADD PUSH1 0x0 KECCAK256 SWAP1 DUP1 PUSH1 0x1 DUP2 SLOAD ADD DUP1 DUP3 SSTORE DUP1 SWAP2 POP POP PUSH1 0x1 SWAP1 SUB SWAP1 PUSH1 0x0 MSTORE PUSH1 0x20 PUSH1 0x0 KECCAK256 SWAP1 PUSH1 0x6 MUL ADD PUSH1 0x0 SWAP1 SWAP2 SWAP1 SWAP2 SWAP1 SWAP2 POP PUSH1 0x0 DUP3 ADD SLOAD DUP2 PUSH1 0x0 ADD SSTORE PUSH1 0x1 DUP3 ADD DUP2 PUSH1 0x1 ADD SWAP1 DUP1 SLOAD PUSH2 0x5D1 SWAP1 PUSH2 0x1A07 JUMP JUMPDEST PUSH2 0x5DC SWAP3 SWAP2 SWAP1 PUSH2 0xF13 JUMP JUMPDEST POP PUSH1 0x2 DUP3 ADD SLOAD DUP2 PUSH1 0x2 ADD SSTORE PUSH1 0x3 DUP3 ADD PUSH1 0x0 SWAP1 SLOAD SWAP1 PUSH2 0x100 EXP SWAP1 DIV PUSH20 0xFFFFFFFFFFFFFFFFFFFFFFFFFFFFFFFFFFFFFFFF AND DUP2 PUSH1 0x3 ADD PUSH1 0x0 PUSH2 0x100 EXP DUP2 SLOAD DUP2 PUSH20 0xFFFFFFFFFFFFFFFFFFFFFFFFFFFFFFFFFFFFFFFF MUL NOT AND SWAP1 DUP4 PUSH20 0xFFFFFFFFFFFFFFFFFFFFFFFFFFFFFFFFFFFFFFFF AND MUL OR SWAP1 SSTORE POP PUSH1 0x4 DUP3 ADD SLOAD DUP2 PUSH1 0x4 ADD SSTORE PUSH1 0x5 DUP3 ADD PUSH1 0x0 SWAP1 SLOAD SWAP1 PUSH2 0x100 EXP SWAP1 DIV PUSH4 0xFFFFFFFF AND DUP2 PUSH1 0x5 ADD PUSH1 0x0 PUSH2 0x100 EXP DUP2 SLOAD DUP2 PUSH4 0xFFFFFFFF MUL NOT AND SWAP1 DUP4 PUSH4 0xFFFFFFFF AND MUL OR SWAP1 SSTORE POP POP POP PUSH1 0x1 PUSH1 0x3 PUSH1 0x0 PUSH2 0x6A1 PUSH1 0x4 PUSH2 0xE69 JUMP JUMPDEST DUP2 MSTORE PUSH1 0x20 ADD SWAP1 DUP2 MSTORE PUSH1 0x20 ADD PUSH1 0x0 KECCAK256 SWAP1 DUP1 PUSH1 0x1 DUP2 SLOAD ADD DUP1 DUP3 SSTORE DUP1 SWAP2 POP POP PUSH1 0x1 SWAP1 SUB SWAP1 PUSH1 0x0 MSTORE PUSH1 0x20 PUSH1 0x0 KECCAK256 SWAP1 PUSH1 0x6 MUL ADD PUSH1 0x0 SWAP1 SWAP2 SWAP1 SWAP2 SWAP1 SWAP2 POP PUSH1 0x0 DUP3 ADD SLOAD DUP2 PUSH1 0x0 ADD SSTORE PUSH1 0x1 DUP3 ADD DUP2 PUSH1 0x1 ADD SWAP1 DUP1 SLOAD PUSH2 0x6F6 SWAP1 PUSH2 0x1A07 JUMP JUMPDEST PUSH2 0x701 SWAP3 SWAP2 SWAP1 PUSH2 0xF13 JUMP JUMPDEST POP PUSH1 0x2 DUP3 ADD SLOAD DUP2 PUSH1 0x2 ADD SSTORE PUSH1 0x3 DUP3 ADD PUSH1 0x0 SWAP1 SLOAD SWAP1 PUSH2 0x100 EXP SWAP1 DIV PUSH20 0xFFFFFFFFFFFFFFFFFFFFFFFFFFFFFFFFFFFFFFFF AND DUP2 PUSH1 0x3 ADD PUSH1 0x0 PUSH2 0x100 EXP DUP2 SLOAD DUP2 PUSH20 0xFFFFFFFFFFFFFFFFFFFFFFFFFFFFFFFFFFFFFFFF MUL NOT AND SWAP1 DUP4 PUSH20 0xFFFFFFFFFFFFFFFFFFFFFFFFFFFFFFFFFFFFFFFF AND MUL OR SWAP1 SSTORE POP PUSH1 0x4 DUP3 ADD SLOAD DUP2 PUSH1 0x4 ADD SSTORE PUSH1 0x5 DUP3 ADD PUSH1 0x0 SWAP1 SLOAD SWAP1 PUSH2 0x100 EXP SWAP1 DIV PUSH4 0xFFFFFFFF AND DUP2 PUSH1 0x5 ADD PUSH1 0x0 PUSH2 0x100 EXP DUP2 SLOAD DUP2 PUSH4 0xFFFFFFFF MUL NOT AND SWAP1 DUP4 PUSH4 0xFFFFFFFF AND MUL OR SWAP1 SSTORE POP POP POP PUSH2 0x7C0 PUSH1 0x4 PUSH2 0xE77 JUMP JUMPDEST CALLER PUSH20 0xFFFFFFFFFFFFFFFFFFFFFFFFFFFFFFFFFFFFFFFF AND PUSH32 0x9A5B8B5CB7F9C536EA5DB1A94142C9F716FB3A8698A9C70A5B8BFAD3922CB06C PUSH2 0x802 PUSH1 0x4 PUSH2 0xE69 JUMP JUMPDEST DUP7 DUP7 DUP7 PUSH1 0x3 PUSH1 0x0 PUSH2 0x813 PUSH1 0x4 PUSH2 0xE69 JUMP JUMPDEST DUP2 MSTORE PUSH1 0x20 ADD SWAP1 DUP2 MSTORE PUSH1 0x20 ADD PUSH1 0x0 KECCAK256 PUSH1 0x2 ADD SLOAD PUSH1 0x40 MLOAD PUSH2 0x836 SWAP6 SWAP5 SWAP4 SWAP3 SWAP2 SWAP1 PUSH2 0x17B1 JUMP JUMPDEST PUSH1 0x40 MLOAD DUP1 SWAP2 SUB SWAP1 LOG2 POP POP POP POP JUMP JUMPDEST PUSH1 0x60 PUSH1 0x0 PUSH2 0x852 PUSH1 0x4 PUSH2 0xE69 JUMP JUMPDEST GT PUSH2 0x892 JUMPI PUSH1 0x40 MLOAD PUSH32 0x8C379A000000000000000000000000000000000000000000000000000000000 DUP2 MSTORE PUSH1 0x4 ADD PUSH2 0x889 SWAP1 PUSH2 0x166B JUMP JUMPDEST PUSH1 0x40 MLOAD DUP1 SWAP2 SUB SWAP1 REVERT JUMPDEST CALLER PUSH20 0xFFFFFFFFFFFFFFFFFFFFFFFFFFFFFFFFFFFFFFFF AND PUSH32 0x440C078A5E11BFF85C6B6D7C52F378C8220355BD3331EC889638C0ECA883670C PUSH1 0x1 PUSH1 0x40 MLOAD PUSH2 0x8D9 SWAP2 SWAP1 PUSH2 0x162E JUMP JUMPDEST PUSH1 0x40 MLOAD DUP1 SWAP2 SUB SWAP1 LOG2 PUSH1 0x1 DUP1 SLOAD DUP1 PUSH1 0x20 MUL PUSH1 0x20 ADD PUSH1 0x40 MLOAD SWAP1 DUP2 ADD PUSH1 0x40 MSTORE DUP1 SWAP3 SWAP2 SWAP1 DUP2 DUP2 MSTORE PUSH1 0x20 ADD PUSH1 0x0 SWAP1 JUMPDEST DUP3 DUP3 LT ISZERO PUSH2 0xA61 JUMPI DUP4 DUP3 SWAP1 PUSH1 0x0 MSTORE PUSH1 0x20 PUSH1 0x0 KECCAK256 SWAP1 PUSH1 0x6 MUL ADD PUSH1 0x40 MLOAD DUP1 PUSH1 0xC0 ADD PUSH1 0x40 MSTORE SWAP1 DUP2 PUSH1 0x0 DUP3 ADD SLOAD DUP2 MSTORE PUSH1 0x20 ADD PUSH1 0x1 DUP3 ADD DUP1 SLOAD PUSH2 0x940 SWAP1 PUSH2 0x1A07 JUMP JUMPDEST DUP1 PUSH1 0x1F ADD PUSH1 0x20 DUP1 SWAP2 DIV MUL PUSH1 0x20 ADD PUSH1 0x40 MLOAD SWAP1 DUP2 ADD PUSH1 0x40 MSTORE DUP1 SWAP3 SWAP2 SWAP1 DUP2 DUP2 MSTORE PUSH1 0x20 ADD DUP3 DUP1 SLOAD PUSH2 0x96C SWAP1 PUSH2 0x1A07 JUMP JUMPDEST DUP1 ISZERO PUSH2 0x9B9 JUMPI DUP1 PUSH1 0x1F LT PUSH2 0x98E JUMPI PUSH2 0x100 DUP1 DUP4 SLOAD DIV MUL DUP4 MSTORE SWAP2 PUSH1 0x20 ADD SWAP2 PUSH2 0x9B9 JUMP JUMPDEST DUP3 ADD SWAP2 SWAP1 PUSH1 0x0 MSTORE PUSH1 0x20 PUSH1 0x0 KECCAK256 SWAP1 JUMPDEST DUP2 SLOAD DUP2 MSTORE SWAP1 PUSH1 0x1 ADD SWAP1 PUSH1 0x20 ADD DUP1 DUP4 GT PUSH2 0x99C JUMPI DUP3 SWAP1 SUB PUSH1 0x1F AND DUP3 ADD SWAP2 JUMPDEST POP POP POP POP POP DUP2 MSTORE PUSH1 0x20 ADD PUSH1 0x2 DUP3 ADD SLOAD DUP2 MSTORE PUSH1 0x20 ADD PUSH1 0x3 DUP3 ADD PUSH1 0x0 SWAP1 SLOAD SWAP1 PUSH2 0x100 EXP SWAP1 DIV PUSH20 0xFFFFFFFFFFFFFFFFFFFFFFFFFFFFFFFFFFFFFFFF AND PUSH20 0xFFFFFFFFFFFFFFFFFFFFFFFFFFFFFFFFFFFFFFFF AND PUSH20 0xFFFFFFFFFFFFFFFFFFFFFFFFFFFFFFFFFFFFFFFF AND DUP2 MSTORE PUSH1 0x20 ADD PUSH1 0x4 DUP3 ADD SLOAD DUP2 MSTORE PUSH1 0x20 ADD PUSH1 0x5 DUP3 ADD PUSH1 0x0 SWAP1 SLOAD SWAP1 PUSH2 0x100 EXP SWAP1 DIV PUSH4 0xFFFFFFFF AND PUSH4 0xFFFFFFFF AND PUSH4 0xFFFFFFFF AND DUP2 MSTORE POP POP DUP2 MSTORE PUSH1 0x20 ADD SWAP1 PUSH1 0x1 ADD SWAP1 PUSH2 0x903 JUMP JUMPDEST POP POP POP POP SWAP1 POP SWAP1 JUMP JUMPDEST PUSH1 0x2 PUSH1 0x20 MSTORE DUP1 PUSH1 0x0 MSTORE PUSH1 0x40 PUSH1 0x0 KECCAK256 PUSH1 0x0 SWAP2 POP SWAP1 POP DUP1 PUSH1 0x0 ADD SLOAD SWAP1 DUP1 PUSH1 0x1 ADD DUP1 SLOAD PUSH2 0xA93 SWAP1 PUSH2 0x1A07 JUMP JUMPDEST DUP1 PUSH1 0x1F ADD PUSH1 0x20 DUP1 SWAP2 DIV MUL PUSH1 0x20 ADD PUSH1 0x40 MLOAD SWAP1 DUP2 ADD PUSH1 0x40 MSTORE DUP1 SWAP3 SWAP2 SWAP1 DUP2 DUP2 MSTORE PUSH1 0x20 ADD DUP3 DUP1 SLOAD PUSH2 0xABF SWAP1 PUSH2 0x1A07 JUMP JUMPDEST DUP1 ISZERO PUSH2 0xB0C JUMPI DUP1 PUSH1 0x1F LT PUSH2 0xAE1 JUMPI PUSH2 0x100 DUP1 DUP4 SLOAD DIV MUL DUP4 MSTORE SWAP2 PUSH1 0x20 ADD SWAP2 PUSH2 0xB0C JUMP JUMPDEST DUP3 ADD SWAP2 SWAP1 PUSH1 0x0 MSTORE PUSH1 0x20 PUSH1 0x0 KECCAK256 SWAP1 JUMPDEST DUP2 SLOAD DUP2 MSTORE SWAP1 PUSH1 0x1 ADD SWAP1 PUSH1 0x20 ADD DUP1 DUP4 GT PUSH2 0xAEF JUMPI DUP3 SWAP1 SUB PUSH1 0x1F AND DUP3 ADD SWAP2 JUMPDEST POP POP POP POP POP SWAP1 DUP1 PUSH1 0x2 ADD DUP1 SLOAD PUSH2 0xB21 SWAP1 PUSH2 0x1A07 JUMP JUMPDEST DUP1 PUSH1 0x1F ADD PUSH1 0x20 DUP1 SWAP2 DIV MUL PUSH1 0x20 ADD PUSH1 0x40 MLOAD SWAP1 DUP2 ADD PUSH1 0x40 MSTORE DUP1 SWAP3 SWAP2 SWAP1 DUP2 DUP2 MSTORE PUSH1 0x20 ADD DUP3 DUP1 SLOAD PUSH2 0xB4D SWAP1 PUSH2 0x1A07 JUMP JUMPDEST DUP1 ISZERO PUSH2 0xB9A JUMPI DUP1 PUSH1 0x1F LT PUSH2 0xB6F JUMPI PUSH2 0x100 DUP1 DUP4 SLOAD DIV MUL DUP4 MSTORE SWAP2 PUSH1 0x20 ADD SWAP2 PUSH2 0xB9A JUMP JUMPDEST DUP3 ADD SWAP2 SWAP1 PUSH1 0x0 MSTORE PUSH1 0x20 PUSH1 0x0 KECCAK256 SWAP1 JUMPDEST DUP2 SLOAD DUP2 MSTORE SWAP1 PUSH1 0x1 ADD SWAP1 PUSH1 0x20 ADD DUP1 DUP4 GT PUSH2 0xB7D JUMPI DUP3 SWAP1 SUB PUSH1 0x1F AND DUP3 ADD SWAP2 JUMPDEST POP POP POP POP POP SWAP1 DUP1 PUSH1 0x5 ADD SLOAD SWAP1 POP DUP5 JUMP JUMPDEST PUSH1 0x3 PUSH1 0x20 MSTORE DUP1 PUSH1 0x0 MSTORE PUSH1 0x40 PUSH1 0x0 KECCAK256 PUSH1 0x0 SWAP2 POP SWAP1 POP DUP1 PUSH1 0x0 ADD SLOAD SWAP1 DUP1 PUSH1 0x1 ADD DUP1 SLOAD PUSH2 0xBD3 SWAP1 PUSH2 0x1A07 JUMP JUMPDEST DUP1 PUSH1 0x1F ADD PUSH1 0x20 DUP1 SWAP2 DIV MUL PUSH1 0x20 ADD PUSH1 0x40 MLOAD SWAP1 DUP2 ADD PUSH1 0x40 MSTORE DUP1 SWAP3 SWAP2 SWAP1 DUP2 DUP2 MSTORE PUSH1 0x20 ADD DUP3 DUP1 SLOAD PUSH2 0xBFF SWAP1 PUSH2 0x1A07 JUMP JUMPDEST DUP1 ISZERO PUSH2 0xC4C JUMPI DUP1 PUSH1 0x1F LT PUSH2 0xC21 JUMPI PUSH2 0x100 DUP1 DUP4 SLOAD DIV MUL DUP4 MSTORE SWAP2 PUSH1 0x20 ADD SWAP2 PUSH2 0xC4C JUMP JUMPDEST DUP3 ADD SWAP2 SWAP1 PUSH1 0x0 MSTORE PUSH1 0x20 PUSH1 0x0 KECCAK256 SWAP1 JUMPDEST DUP2 SLOAD DUP2 MSTORE SWAP1 PUSH1 0x1 ADD SWAP1 PUSH1 0x20 ADD DUP1 DUP4 GT PUSH2 0xC2F JUMPI DUP3 SWAP1 SUB PUSH1 0x1F AND DUP3 ADD SWAP2 JUMPDEST POP POP POP POP POP SWAP1 DUP1 PUSH1 0x2 ADD SLOAD SWAP1 DUP1 PUSH1 0x3 ADD PUSH1 0x0 SWAP1 SLOAD SWAP1 PUSH2 0x100 EXP SWAP1 DIV PUSH20 0xFFFFFFFFFFFFFFFFFFFFFFFFFFFFFFFFFFFFFFFF AND SWAP1 DUP1 PUSH1 0x4 ADD SLOAD SWAP1 DUP1 PUSH1 0x5 ADD PUSH1 0x0 SWAP1 SLOAD SWAP1 PUSH2 0x100 EXP SWAP1 DIV PUSH4 0xFFFFFFFF AND SWAP1 POP DUP7 JUMP JUMPDEST PUSH2 0xCA6 PUSH2 0xFA0 JUMP JUMPDEST DUP2 PUSH2 0xCB1 PUSH1 0x4 PUSH2 0xE69 JUMP JUMPDEST DUP2 GT ISZERO PUSH2 0xCF3 JUMPI PUSH1 0x40 MLOAD PUSH32 0x8C379A000000000000000000000000000000000000000000000000000000000 DUP2 MSTORE PUSH1 0x4 ADD PUSH2 0xCEA SWAP1 PUSH2 0x168B JUMP JUMPDEST PUSH1 0x40 MLOAD DUP1 SWAP2 SUB SWAP1 REVERT JUMPDEST PUSH1 0x3 PUSH1 0x0 DUP5 DUP2 MSTORE PUSH1 0x20 ADD SWAP1 DUP2 MSTORE PUSH1 0x20 ADD PUSH1 0x0 KECCAK256 PUSH1 0x40 MLOAD DUP1 PUSH1 0xC0 ADD PUSH1 0x40 MSTORE SWAP1 DUP2 PUSH1 0x0 DUP3 ADD SLOAD DUP2 MSTORE PUSH1 0x20 ADD PUSH1 0x1 DUP3 ADD DUP1 SLOAD PUSH2 0xD2B SWAP1 PUSH2 0x1A07 JUMP JUMPDEST DUP1 PUSH1 0x1F ADD PUSH1 0x20 DUP1 SWAP2 DIV MUL PUSH1 0x20 ADD PUSH1 0x40 MLOAD SWAP1 DUP2 ADD PUSH1 0x40 MSTORE DUP1 SWAP3 SWAP2 SWAP1 DUP2 DUP2 MSTORE PUSH1 0x20 ADD DUP3 DUP1 SLOAD PUSH2 0xD57 SWAP1 PUSH2 0x1A07 JUMP JUMPDEST DUP1 ISZERO PUSH2 0xDA4 JUMPI DUP1 PUSH1 0x1F LT PUSH2 0xD79 JUMPI PUSH2 0x100 DUP1 DUP4 SLOAD DIV MUL DUP4 MSTORE SWAP2 PUSH1 0x20 ADD SWAP2 PUSH2 0xDA4 JUMP JUMPDEST DUP3 ADD SWAP2 SWAP1 PUSH1 0x0 MSTORE PUSH1 0x20 PUSH1 0x0 KECCAK256 SWAP1 JUMPDEST DUP2 SLOAD DUP2 MSTORE SWAP1 PUSH1 0x1 ADD SWAP1 PUSH1 0x20 ADD DUP1 DUP4 GT PUSH2 0xD87 JUMPI DUP3 SWAP1 SUB PUSH1 0x1F AND DUP3 ADD SWAP2 JUMPDEST POP POP POP POP POP DUP2 MSTORE PUSH1 0x20 ADD PUSH1 0x2 DUP3 ADD SLOAD DUP2 MSTORE PUSH1 0x20 ADD PUSH1 0x3 DUP3 ADD PUSH1 0x0 SWAP1 SLOAD SWAP1 PUSH2 0x100 EXP SWAP1 DIV PUSH20 0xFFFFFFFFFFFFFFFFFFFFFFFFFFFFFFFFFFFFFFFF AND PUSH20 0xFFFFFFFFFFFFFFFFFFFFFFFFFFFFFFFFFFFFFFFF AND PUSH20 0xFFFFFFFFFFFFFFFFFFFFFFFFFFFFFFFFFFFFFFFF AND DUP2 MSTORE PUSH1 0x20 ADD PUSH1 0x4 DUP3 ADD SLOAD DUP2 MSTORE PUSH1 0x20 ADD PUSH1 0x5 DUP3 ADD PUSH1 0x0 SWAP1 SLOAD SWAP1 PUSH2 0x100 EXP SWAP1 DIV PUSH4 0xFFFFFFFF AND PUSH4 0xFFFFFFFF AND PUSH4 0xFFFFFFFF AND DUP2 MSTORE POP POP SWAP2 POP POP SWAP2 SWAP1 POP JUMP JUMPDEST PUSH1 0x0 DUP1 SLOAD SWAP1 PUSH2 0x100 EXP SWAP1 DIV PUSH20 0xFFFFFFFFFFFFFFFFFFFFFFFFFFFFFFFFFFFFFFFF AND DUP2 JUMP JUMPDEST PUSH1 0x0 DUP2 PUSH1 0x0 ADD SLOAD SWAP1 POP SWAP2 SWAP1 POP JUMP JUMPDEST PUSH1 0x1 DUP2 PUSH1 0x0 ADD PUSH1 0x0 DUP3 DUP3 SLOAD ADD SWAP3 POP POP DUP2 SWAP1 SSTORE POP POP JUMP JUMPDEST DUP3 DUP1 SLOAD PUSH2 0xE99 SWAP1 PUSH2 0x1A07 JUMP JUMPDEST SWAP1 PUSH1 0x0 MSTORE PUSH1 0x20 PUSH1 0x0 KECCAK256 SWAP1 PUSH1 0x1F ADD PUSH1 0x20 SWAP1 DIV DUP2 ADD SWAP3 DUP3 PUSH2 0xEBB JUMPI PUSH1 0x0 DUP6 SSTORE PUSH2 0xF02 JUMP JUMPDEST DUP3 PUSH1 0x1F LT PUSH2 0xED4 JUMPI DUP1 MLOAD PUSH1 0xFF NOT AND DUP4 DUP1 ADD OR DUP6 SSTORE PUSH2 0xF02 JUMP JUMPDEST DUP3 DUP1 ADD PUSH1 0x1 ADD DUP6 SSTORE DUP3 ISZERO PUSH2 0xF02 JUMPI SWAP2 DUP3 ADD JUMPDEST DUP3 DUP2 GT ISZERO PUSH2 0xF01 JUMPI DUP3 MLOAD DUP3 SSTORE SWAP2 PUSH1 0x20 ADD SWAP2 SWAP1 PUSH1 0x1 ADD SWAP1 PUSH2 0xEE6 JUMP JUMPDEST JUMPDEST POP SWAP1 POP PUSH2 0xF0F SWAP2 SWAP1 PUSH2 0xFF2 JUMP JUMPDEST POP SWAP1 JUMP JUMPDEST DUP3 DUP1 SLOAD PUSH2 0xF1F SWAP1 PUSH2 0x1A07 JUMP JUMPDEST SWAP1 PUSH1 0x0 MSTORE PUSH1 0x20 PUSH1 0x0 KECCAK256 SWAP1 PUSH1 0x1F ADD PUSH1 0x20 SWAP1 DIV DUP2 ADD SWAP3 DUP3 PUSH2 0xF41 JUMPI PUSH1 0x0 DUP6 SSTORE PUSH2 0xF8F JUMP JUMPDEST DUP3 PUSH1 0x1F LT PUSH2 0xF52 JUMPI DUP1 SLOAD DUP6 SSTORE PUSH2 0xF8F JUMP JUMPDEST DUP3 DUP1 ADD PUSH1 0x1 ADD DUP6 SSTORE DUP3 ISZERO PUSH2 0xF8F JUMPI PUSH1 0x0 MSTORE PUSH1 0x20 PUSH1 0x0 KECCAK256 SWAP2 PUSH1 0x1F ADD PUSH1 0x20 SWAP1 DIV DUP3 ADD JUMPDEST DUP3 DUP2 GT ISZERO PUSH2 0xF8E JUMPI DUP3 SLOAD DUP3 SSTORE SWAP2 PUSH1 0x1 ADD SWAP2 SWAP1 PUSH1 0x1 ADD SWAP1 PUSH2 0xF73 JUMP JUMPDEST JUMPDEST POP SWAP1 POP PUSH2 0xF9C SWAP2 SWAP1 PUSH2 0xFF2 JUMP JUMPDEST POP SWAP1 JUMP JUMPDEST PUSH1 0x40 MLOAD DUP1 PUSH1 0xC0 ADD PUSH1 0x40 MSTORE DUP1 PUSH1 0x0 DUP2 MSTORE PUSH1 0x20 ADD PUSH1 0x60 DUP2 MSTORE PUSH1 0x20 ADD PUSH1 0x0 DUP2 MSTORE PUSH1 0x20 ADD PUSH1 0x0 PUSH20 0xFFFFFFFFFFFFFFFFFFFFFFFFFFFFFFFFFFFFFFFF AND DUP2 MSTORE PUSH1 0x20 ADD PUSH1 0x0 DUP2 MSTORE PUSH1 0x20 ADD PUSH1 0x0 PUSH4 0xFFFFFFFF AND DUP2 MSTORE POP SWAP1 JUMP JUMPDEST JUMPDEST DUP1 DUP3 GT ISZERO PUSH2 0x100B JUMPI PUSH1 0x0 DUP2 PUSH1 0x0 SWAP1 SSTORE POP PUSH1 0x1 ADD PUSH2 0xFF3 JUMP JUMPDEST POP SWAP1 JUMP JUMPDEST PUSH1 0x0 PUSH2 0x1022 PUSH2 0x101D DUP5 PUSH2 0x1830 JUMP JUMPDEST PUSH2 0x180B JUMP JUMPDEST SWAP1 POP DUP3 DUP2 MSTORE PUSH1 0x20 DUP2 ADD DUP5 DUP5 DUP5 ADD GT ISZERO PUSH2 0x103E JUMPI PUSH2 0x103D PUSH2 0x1B93 JUMP JUMPDEST JUMPDEST PUSH2 0x1049 DUP5 DUP3 DUP6 PUSH2 0x19C5 JUMP JUMPDEST POP SWAP4 SWAP3 POP POP POP JUMP JUMPDEST PUSH1 0x0 DUP2 CALLDATALOAD SWAP1 POP PUSH2 0x1060 DUP2 PUSH2 0x1C38 JUMP JUMPDEST SWAP3 SWAP2 POP POP JUMP JUMPDEST PUSH1 0x0 DUP3 PUSH1 0x1F DUP4 ADD SLT PUSH2 0x107B JUMPI PUSH2 0x107A PUSH2 0x1B8E JUMP JUMPDEST JUMPDEST DUP2 CALLDATALOAD PUSH2 0x108B DUP5 DUP3 PUSH1 0x20 DUP7 ADD PUSH2 0x100F JUMP JUMPDEST SWAP2 POP POP SWAP3 SWAP2 POP POP JUMP JUMPDEST PUSH1 0x0 DUP2 CALLDATALOAD SWAP1 POP PUSH2 0x10A3 DUP2 PUSH2 0x1C4F JUMP JUMPDEST SWAP3 SWAP2 POP POP JUMP JUMPDEST PUSH1 0x0 DUP2 CALLDATALOAD SWAP1 POP PUSH2 0x10B8 DUP2 PUSH2 0x1C66 JUMP JUMPDEST SWAP3 SWAP2 POP POP JUMP JUMPDEST PUSH1 0x0 PUSH1 0x20 DUP3 DUP5 SUB SLT ISZERO PUSH2 0x10D4 JUMPI PUSH2 0x10D3 PUSH2 0x1B9D JUMP JUMPDEST JUMPDEST PUSH1 0x0 PUSH2 0x10E2 DUP5 DUP3 DUP6 ADD PUSH2 0x1051 JUMP JUMPDEST SWAP2 POP POP SWAP3 SWAP2 POP POP JUMP JUMPDEST PUSH1 0x0 PUSH1 0x20 DUP3 DUP5 SUB SLT ISZERO PUSH2 0x1101 JUMPI PUSH2 0x1100 PUSH2 0x1B9D JUMP JUMPDEST JUMPDEST PUSH1 0x0 PUSH2 0x110F DUP5 DUP3 DUP6 ADD PUSH2 0x1094 JUMP JUMPDEST SWAP2 POP POP SWAP3 SWAP2 POP POP JUMP JUMPDEST PUSH1 0x0 DUP1 PUSH1 0x0 PUSH1 0x60 DUP5 DUP7 SUB SLT ISZERO PUSH2 0x1131 JUMPI PUSH2 0x1130 PUSH2 0x1B9D JUMP JUMPDEST JUMPDEST PUSH1 0x0 PUSH2 0x113F DUP7 DUP3 DUP8 ADD PUSH2 0x1094 JUMP JUMPDEST SWAP4 POP POP PUSH1 0x20 DUP5 ADD CALLDATALOAD PUSH8 0xFFFFFFFFFFFFFFFF DUP2 GT ISZERO PUSH2 0x1160 JUMPI PUSH2 0x115F PUSH2 0x1B98 JUMP JUMPDEST JUMPDEST PUSH2 0x116C DUP7 DUP3 DUP8 ADD PUSH2 0x1066 JUMP JUMPDEST SWAP3 POP POP PUSH1 0x40 PUSH2 0x117D DUP7 DUP3 DUP8 ADD PUSH2 0x10A9 JUMP JUMPDEST SWAP2 POP POP SWAP3 POP SWAP3 POP SWAP3 JUMP JUMPDEST PUSH1 0x0 PUSH2 0x1193 DUP4 DUP4 PUSH2 0x13FD JUMP JUMPDEST SWAP1 POP SWAP3 SWAP2 POP POP JUMP JUMPDEST PUSH1 0x0 PUSH2 0x11A7 DUP4 DUP4 PUSH2 0x150F JUMP JUMPDEST SWAP1 POP SWAP3 SWAP2 POP POP JUMP JUMPDEST PUSH2 0x11B8 DUP2 PUSH2 0x1943 JUMP JUMPDEST DUP3 MSTORE POP POP JUMP JUMPDEST PUSH2 0x11C7 DUP2 PUSH2 0x1943 JUMP JUMPDEST DUP3 MSTORE POP POP JUMP JUMPDEST PUSH1 0x0 PUSH2 0x11D8 DUP3 PUSH2 0x189B JUMP JUMPDEST PUSH2 0x11E2 DUP2 DUP6 PUSH2 0x18D6 JUMP JUMPDEST SWAP4 POP DUP4 PUSH1 0x20 DUP3 MUL DUP6 ADD PUSH2 0x11F4 DUP6 PUSH2 0x1861 JUMP JUMPDEST DUP1 PUSH1 0x0 JUMPDEST DUP6 DUP2 LT ISZERO PUSH2 0x1230 JUMPI DUP5 DUP5 SUB DUP10 MSTORE DUP2 MLOAD PUSH2 0x1211 DUP6 DUP3 PUSH2 0x1187 JUMP JUMPDEST SWAP5 POP PUSH2 0x121C DUP4 PUSH2 0x18BC JUMP JUMPDEST SWAP3 POP PUSH1 0x20 DUP11 ADD SWAP10 POP POP PUSH1 0x1 DUP2 ADD SWAP1 POP PUSH2 0x11F8 JUMP JUMPDEST POP DUP3 SWAP8 POP DUP8 SWAP6 POP POP POP POP POP POP SWAP3 SWAP2 POP POP JUMP JUMPDEST PUSH1 0x0 PUSH2 0x124D DUP3 PUSH2 0x18A6 JUMP JUMPDEST PUSH2 0x1257 DUP2 DUP6 PUSH2 0x18D6 JUMP JUMPDEST SWAP4 POP DUP4 PUSH1 0x20 DUP3 MUL DUP6 ADD PUSH2 0x1269 DUP6 PUSH2 0x1871 JUMP JUMPDEST DUP1 PUSH1 0x0 JUMPDEST DUP6 DUP2 LT ISZERO PUSH2 0x12A4 JUMPI DUP5 DUP5 SUB DUP10 MSTORE DUP2 PUSH2 0x1285 DUP6 DUP3 PUSH2 0x119B JUMP JUMPDEST SWAP5 POP PUSH2 0x1290 DUP4 PUSH2 0x18C9 JUMP JUMPDEST SWAP3 POP PUSH1 0x20 DUP11 ADD SWAP10 POP POP PUSH1 0x1 DUP2 ADD SWAP1 POP PUSH2 0x126D JUMP JUMPDEST POP DUP3 SWAP8 POP DUP8 SWAP6 POP POP POP POP POP POP SWAP3 SWAP2 POP POP JUMP JUMPDEST PUSH2 0x12BF DUP2 PUSH2 0x198F JUMP JUMPDEST DUP3 MSTORE POP POP JUMP JUMPDEST PUSH1 0x0 PUSH2 0x12D0 DUP3 PUSH2 0x18B1 JUMP JUMPDEST PUSH2 0x12DA DUP2 DUP6 PUSH2 0x18E7 JUMP JUMPDEST SWAP4 POP PUSH2 0x12EA DUP2 DUP6 PUSH1 0x20 DUP7 ADD PUSH2 0x19D4 JUMP JUMPDEST PUSH2 0x12F3 DUP2 PUSH2 0x1BA2 JUMP JUMPDEST DUP5 ADD SWAP2 POP POP SWAP3 SWAP2 POP POP JUMP JUMPDEST PUSH1 0x0 PUSH2 0x1309 DUP3 PUSH2 0x18B1 JUMP JUMPDEST PUSH2 0x1313 DUP2 DUP6 PUSH2 0x18F8 JUMP JUMPDEST SWAP4 POP PUSH2 0x1323 DUP2 DUP6 PUSH1 0x20 DUP7 ADD PUSH2 0x19D4 JUMP JUMPDEST PUSH2 0x132C DUP2 PUSH2 0x1BA2 JUMP JUMPDEST DUP5 ADD SWAP2 POP POP SWAP3 SWAP2 POP POP JUMP JUMPDEST PUSH1 0x0 DUP2 SLOAD PUSH2 0x1344 DUP2 PUSH2 0x1A07 JUMP JUMPDEST PUSH2 0x134E DUP2 DUP7 PUSH2 0x18E7 JUMP JUMPDEST SWAP5 POP PUSH1 0x1 DUP3 AND PUSH1 0x0 DUP2 EQ PUSH2 0x1369 JUMPI PUSH1 0x1 DUP2 EQ PUSH2 0x137B JUMPI PUSH2 0x13AE JUMP JUMPDEST PUSH1 0xFF NOT DUP4 AND DUP7 MSTORE PUSH1 0x20 DUP7 ADD SWAP4 POP PUSH2 0x13AE JUMP JUMPDEST PUSH2 0x1384 DUP6 PUSH2 0x1886 JUMP JUMPDEST PUSH1 0x0 JUMPDEST DUP4 DUP2 LT ISZERO PUSH2 0x13A6 JUMPI DUP2 SLOAD DUP2 DUP10 ADD MSTORE PUSH1 0x1 DUP3 ADD SWAP2 POP PUSH1 0x20 DUP2 ADD SWAP1 POP PUSH2 0x1387 JUMP JUMPDEST DUP1 DUP9 ADD SWAP6 POP POP POP JUMPDEST POP POP POP SWAP3 SWAP2 POP POP JUMP JUMPDEST PUSH1 0x0 PUSH2 0x13C4 PUSH1 0x22 DUP4 PUSH2 0x18F8 JUMP JUMPDEST SWAP2 POP PUSH2 0x13CF DUP3 PUSH2 0x1BC0 JUMP JUMPDEST PUSH1 0x40 DUP3 ADD SWAP1 POP SWAP2 SWAP1 POP JUMP JUMPDEST PUSH1 0x0 PUSH2 0x13E7 PUSH1 0x1D DUP4 PUSH2 0x18F8 JUMP JUMPDEST SWAP2 POP PUSH2 0x13F2 DUP3 PUSH2 0x1C0F JUMP JUMPDEST PUSH1 0x20 DUP3 ADD SWAP1 POP SWAP2 SWAP1 POP JUMP JUMPDEST PUSH1 0x0 PUSH1 0xC0 DUP4 ADD PUSH1 0x0 DUP4 ADD MLOAD PUSH2 0x1415 PUSH1 0x0 DUP7 ADD DUP3 PUSH2 0x15D0 JUMP JUMPDEST POP PUSH1 0x20 DUP4 ADD MLOAD DUP5 DUP3 SUB PUSH1 0x20 DUP7 ADD MSTORE PUSH2 0x142D DUP3 DUP3 PUSH2 0x12C5 JUMP JUMPDEST SWAP2 POP POP PUSH1 0x40 DUP4 ADD MLOAD PUSH2 0x1442 PUSH1 0x40 DUP7 ADD DUP3 PUSH2 0x15D0 JUMP JUMPDEST POP PUSH1 0x60 DUP4 ADD MLOAD PUSH2 0x1455 PUSH1 0x60 DUP7 ADD DUP3 PUSH2 0x11AF JUMP JUMPDEST POP PUSH1 0x80 DUP4 ADD MLOAD PUSH2 0x1468 PUSH1 0x80 DUP7 ADD DUP3 PUSH2 0x15D0 JUMP JUMPDEST POP PUSH1 0xA0 DUP4 ADD MLOAD PUSH2 0x147B PUSH1 0xA0 DUP7 ADD DUP3 PUSH2 0x15EE JUMP JUMPDEST POP DUP1 SWAP2 POP POP SWAP3 SWAP2 POP POP JUMP JUMPDEST PUSH1 0x0 PUSH1 0xC0 DUP4 ADD PUSH1 0x0 DUP4 ADD MLOAD PUSH2 0x149E PUSH1 0x0 DUP7 ADD DUP3 PUSH2 0x15D0 JUMP JUMPDEST POP PUSH1 0x20 DUP4 ADD MLOAD DUP5 DUP3 SUB PUSH1 0x20 DUP7 ADD MSTORE PUSH2 0x14B6 DUP3 DUP3 PUSH2 0x12C5 JUMP JUMPDEST SWAP2 POP POP PUSH1 0x40 DUP4 ADD MLOAD PUSH2 0x14CB PUSH1 0x40 DUP7 ADD DUP3 PUSH2 0x15D0 JUMP JUMPDEST POP PUSH1 0x60 DUP4 ADD MLOAD PUSH2 0x14DE PUSH1 0x60 DUP7 ADD DUP3 PUSH2 0x11AF JUMP JUMPDEST POP PUSH1 0x80 DUP4 ADD MLOAD PUSH2 0x14F1 PUSH1 0x80 DUP7 ADD DUP3 PUSH2 0x15D0 JUMP JUMPDEST POP PUSH1 0xA0 DUP4 ADD MLOAD PUSH2 0x1504 PUSH1 0xA0 DUP7 ADD DUP3 PUSH2 0x15EE JUMP JUMPDEST POP DUP1 SWAP2 POP POP SWAP3 SWAP2 POP POP JUMP JUMPDEST PUSH1 0x0 PUSH1 0xC0 DUP4 ADD PUSH1 0x0 DUP1 DUP5 ADD SLOAD SWAP1 POP PUSH2 0x1526 DUP2 PUSH2 0x1A53 JUMP JUMPDEST PUSH2 0x1533 PUSH1 0x0 DUP8 ADD DUP3 PUSH2 0x15D0 JUMP JUMPDEST POP PUSH1 0x1 DUP5 ADD DUP6 DUP4 SUB PUSH1 0x20 DUP8 ADD MSTORE PUSH2 0x154A DUP4 DUP3 PUSH2 0x1337 JUMP JUMPDEST SWAP3 POP POP PUSH1 0x2 DUP5 ADD SLOAD SWAP1 POP PUSH2 0x155D DUP2 PUSH2 0x1A53 JUMP JUMPDEST PUSH2 0x156A PUSH1 0x40 DUP8 ADD DUP3 PUSH2 0x15D0 JUMP JUMPDEST POP PUSH1 0x3 DUP5 ADD SLOAD SWAP1 POP PUSH2 0x157B DUP2 PUSH2 0x1A39 JUMP JUMPDEST PUSH2 0x1588 PUSH1 0x60 DUP8 ADD DUP3 PUSH2 0x11AF JUMP JUMPDEST POP PUSH1 0x4 DUP5 ADD SLOAD SWAP1 POP PUSH2 0x1599 DUP2 PUSH2 0x1A53 JUMP JUMPDEST PUSH2 0x15A6 PUSH1 0x80 DUP8 ADD DUP3 PUSH2 0x15D0 JUMP JUMPDEST POP PUSH1 0x5 DUP5 ADD SLOAD SWAP1 POP PUSH2 0x15B7 DUP2 PUSH2 0x1A6D JUMP JUMPDEST PUSH2 0x15C4 PUSH1 0xA0 DUP8 ADD DUP3 PUSH2 0x15EE JUMP JUMPDEST POP DUP2 SWAP3 POP POP POP SWAP3 SWAP2 POP POP JUMP JUMPDEST PUSH2 0x15D9 DUP2 PUSH2 0x1975 JUMP JUMPDEST DUP3 MSTORE POP POP JUMP JUMPDEST PUSH2 0x15E8 DUP2 PUSH2 0x1975 JUMP JUMPDEST DUP3 MSTORE POP POP JUMP JUMPDEST PUSH2 0x15F7 DUP2 PUSH2 0x197F JUMP JUMPDEST DUP3 MSTORE POP POP JUMP JUMPDEST PUSH2 0x1606 DUP2 PUSH2 0x197F JUMP JUMPDEST DUP3 MSTORE POP POP JUMP JUMPDEST PUSH1 0x0 PUSH1 0x20 DUP3 ADD SWAP1 POP DUP2 DUP2 SUB PUSH1 0x0 DUP4 ADD MSTORE PUSH2 0x1626 DUP2 DUP5 PUSH2 0x11CD JUMP JUMPDEST SWAP1 POP SWAP3 SWAP2 POP POP JUMP JUMPDEST PUSH1 0x0 PUSH1 0x20 DUP3 ADD SWAP1 POP DUP2 DUP2 SUB PUSH1 0x0 DUP4 ADD MSTORE PUSH2 0x1648 DUP2 DUP5 PUSH2 0x1242 JUMP JUMPDEST SWAP1 POP SWAP3 SWAP2 POP POP JUMP JUMPDEST PUSH1 0x0 PUSH1 0x20 DUP3 ADD SWAP1 POP PUSH2 0x1665 PUSH1 0x0 DUP4 ADD DUP5 PUSH2 0x12B6 JUMP JUMPDEST SWAP3 SWAP2 POP POP JUMP JUMPDEST PUSH1 0x0 PUSH1 0x20 DUP3 ADD SWAP1 POP DUP2 DUP2 SUB PUSH1 0x0 DUP4 ADD MSTORE PUSH2 0x1684 DUP2 PUSH2 0x13B7 JUMP JUMPDEST SWAP1 POP SWAP2 SWAP1 POP JUMP JUMPDEST PUSH1 0x0 PUSH1 0x20 DUP3 ADD SWAP1 POP DUP2 DUP2 SUB PUSH1 0x0 DUP4 ADD MSTORE PUSH2 0x16A4 DUP2 PUSH2 0x13DA JUMP JUMPDEST SWAP1 POP SWAP2 SWAP1 POP JUMP JUMPDEST PUSH1 0x0 PUSH1 0x20 DUP3 ADD SWAP1 POP DUP2 DUP2 SUB PUSH1 0x0 DUP4 ADD MSTORE PUSH2 0x16C5 DUP2 DUP5 PUSH2 0x1486 JUMP JUMPDEST SWAP1 POP SWAP3 SWAP2 POP POP JUMP JUMPDEST PUSH1 0x0 PUSH1 0x80 DUP3 ADD SWAP1 POP PUSH2 0x16E2 PUSH1 0x0 DUP4 ADD DUP8 PUSH2 0x15DF JUMP JUMPDEST DUP2 DUP2 SUB PUSH1 0x20 DUP4 ADD MSTORE PUSH2 0x16F4 DUP2 DUP7 PUSH2 0x12FE JUMP JUMPDEST SWAP1 POP DUP2 DUP2 SUB PUSH1 0x40 DUP4 ADD MSTORE PUSH2 0x1708 DUP2 DUP6 PUSH2 0x12FE JUMP JUMPDEST SWAP1 POP PUSH2 0x1717 PUSH1 0x60 DUP4 ADD DUP5 PUSH2 0x15DF JUMP JUMPDEST SWAP6 SWAP5 POP POP POP POP POP JUMP JUMPDEST PUSH1 0x0 PUSH1 0xC0 DUP3 ADD SWAP1 POP PUSH2 0x1735 PUSH1 0x0 DUP4 ADD DUP10 PUSH2 0x15DF JUMP JUMPDEST DUP2 DUP2 SUB PUSH1 0x20 DUP4 ADD MSTORE PUSH2 0x1747 DUP2 DUP9 PUSH2 0x12FE JUMP JUMPDEST SWAP1 POP PUSH2 0x1756 PUSH1 0x40 DUP4 ADD DUP8 PUSH2 0x15DF JUMP JUMPDEST PUSH2 0x1763 PUSH1 0x60 DUP4 ADD DUP7 PUSH2 0x11BE JUMP JUMPDEST PUSH2 0x1770 PUSH1 0x80 DUP4 ADD DUP6 PUSH2 0x15DF JUMP JUMPDEST PUSH2 0x177D PUSH1 0xA0 DUP4 ADD DUP5 PUSH2 0x15FD JUMP JUMPDEST SWAP8 SWAP7 POP POP POP POP POP POP POP JUMP JUMPDEST PUSH1 0x0 PUSH1 0x40 DUP3 ADD SWAP1 POP PUSH2 0x179D PUSH1 0x0 DUP4 ADD DUP6 PUSH2 0x15DF JUMP JUMPDEST PUSH2 0x17AA PUSH1 0x20 DUP4 ADD DUP5 PUSH2 0x15DF JUMP JUMPDEST SWAP4 SWAP3 POP POP POP JUMP JUMPDEST PUSH1 0x0 PUSH1 0xA0 DUP3 ADD SWAP1 POP PUSH2 0x17C6 PUSH1 0x0 DUP4 ADD DUP9 PUSH2 0x15DF JUMP JUMPDEST PUSH2 0x17D3 PUSH1 0x20 DUP4 ADD DUP8 PUSH2 0x15DF JUMP JUMPDEST DUP2 DUP2 SUB PUSH1 0x40 DUP4 ADD MSTORE PUSH2 0x17E5 DUP2 DUP7 PUSH2 0x12FE JUMP JUMPDEST SWAP1 POP PUSH2 0x17F4 PUSH1 0x60 DUP4 ADD DUP6 PUSH2 0x15FD JUMP JUMPDEST PUSH2 0x1801 PUSH1 0x80 DUP4 ADD DUP5 PUSH2 0x15DF JUMP JUMPDEST SWAP7 SWAP6 POP POP POP POP POP POP JUMP JUMPDEST PUSH1 0x0 PUSH2 0x1815 PUSH2 0x1826 JUMP JUMPDEST SWAP1 POP PUSH2 0x1821 DUP3 DUP3 PUSH2 0x1A87 JUMP JUMPDEST SWAP2 SWAP1 POP JUMP JUMPDEST PUSH1 0x0 PUSH1 0x40 MLOAD SWAP1 POP SWAP1 JUMP JUMPDEST PUSH1 0x0 PUSH8 0xFFFFFFFFFFFFFFFF DUP3 GT ISZERO PUSH2 0x184B JUMPI PUSH2 0x184A PUSH2 0x1B5F JUMP JUMPDEST JUMPDEST PUSH2 0x1854 DUP3 PUSH2 0x1BA2 JUMP JUMPDEST SWAP1 POP PUSH1 0x20 DUP2 ADD SWAP1 POP SWAP2 SWAP1 POP JUMP JUMPDEST PUSH1 0x0 DUP2 SWAP1 POP PUSH1 0x20 DUP3 ADD SWAP1 POP SWAP2 SWAP1 POP JUMP JUMPDEST PUSH1 0x0 DUP2 SWAP1 POP DUP2 PUSH1 0x0 MSTORE PUSH1 0x20 PUSH1 0x0 KECCAK256 SWAP1 POP SWAP2 SWAP1 POP JUMP JUMPDEST PUSH1 0x0 DUP2 SWAP1 POP DUP2 PUSH1 0x0 MSTORE PUSH1 0x20 PUSH1 0x0 KECCAK256 SWAP1 POP SWAP2 SWAP1 POP JUMP JUMPDEST PUSH1 0x0 DUP2 MLOAD SWAP1 POP SWAP2 SWAP1 POP JUMP JUMPDEST PUSH1 0x0 DUP2 SLOAD SWAP1 POP SWAP2 SWAP1 POP JUMP JUMPDEST PUSH1 0x0 DUP2 MLOAD SWAP1 POP SWAP2 SWAP1 POP JUMP JUMPDEST PUSH1 0x0 PUSH1 0x20 DUP3 ADD SWAP1 POP SWAP2 SWAP1 POP JUMP JUMPDEST PUSH1 0x0 PUSH1 0x6 DUP3 ADD SWAP1 POP SWAP2 SWAP1 POP JUMP JUMPDEST PUSH1 0x0 DUP3 DUP3 MSTORE PUSH1 0x20 DUP3 ADD SWAP1 POP SWAP3 SWAP2 POP POP JUMP JUMPDEST PUSH1 0x0 DUP3 DUP3 MSTORE PUSH1 0x20 DUP3 ADD SWAP1 POP SWAP3 SWAP2 POP POP JUMP JUMPDEST PUSH1 0x0 DUP3 DUP3 MSTORE PUSH1 0x20 DUP3 ADD SWAP1 POP SWAP3 SWAP2 POP POP JUMP JUMPDEST PUSH1 0x0 PUSH20 0xFFFFFFFFFFFFFFFFFFFFFFFFFFFFFFFFFFFFFFFF DUP3 AND SWAP1 POP SWAP2 SWAP1 POP JUMP JUMPDEST PUSH1 0x0 DUP2 SWAP1 POP SWAP2 SWAP1 POP JUMP JUMPDEST PUSH1 0x0 PUSH4 0xFFFFFFFF DUP3 AND SWAP1 POP SWAP2 SWAP1 POP JUMP JUMPDEST PUSH1 0x0 PUSH2 0x194E DUP3 PUSH2 0x1955 JUMP JUMPDEST SWAP1 POP SWAP2 SWAP1 POP JUMP JUMPDEST PUSH1 0x0 PUSH20 0xFFFFFFFFFFFFFFFFFFFFFFFFFFFFFFFFFFFFFFFF DUP3 AND SWAP1 POP SWAP2 SWAP1 POP JUMP JUMPDEST PUSH1 0x0 DUP2 SWAP1 POP SWAP2 SWAP1 POP JUMP JUMPDEST PUSH1 0x0 PUSH4 0xFFFFFFFF DUP3 AND SWAP1 POP SWAP2 SWAP1 POP JUMP JUMPDEST PUSH1 0x0 PUSH2 0x199A DUP3 PUSH2 0x19A1 JUMP JUMPDEST SWAP1 POP SWAP2 SWAP1 POP JUMP JUMPDEST PUSH1 0x0 PUSH2 0x19AC DUP3 PUSH2 0x19B3 JUMP JUMPDEST SWAP1 POP SWAP2 SWAP1 POP JUMP JUMPDEST PUSH1 0x0 PUSH2 0x19BE DUP3 PUSH2 0x1955 JUMP JUMPDEST SWAP1 POP SWAP2 SWAP1 POP JUMP JUMPDEST DUP3 DUP2 DUP4 CALLDATACOPY PUSH1 0x0 DUP4 DUP4 ADD MSTORE POP POP POP JUMP JUMPDEST PUSH1 0x0 JUMPDEST DUP4 DUP2 LT ISZERO PUSH2 0x19F2 JUMPI DUP1 DUP3 ADD MLOAD DUP2 DUP5 ADD MSTORE PUSH1 0x20 DUP2 ADD SWAP1 POP PUSH2 0x19D7 JUMP JUMPDEST DUP4 DUP2 GT ISZERO PUSH2 0x1A01 JUMPI PUSH1 0x0 DUP5 DUP5 ADD MSTORE JUMPDEST POP POP POP POP JUMP JUMPDEST PUSH1 0x0 PUSH1 0x2 DUP3 DIV SWAP1 POP PUSH1 0x1 DUP3 AND DUP1 PUSH2 0x1A1F JUMPI PUSH1 0x7F DUP3 AND SWAP2 POP JUMPDEST PUSH1 0x20 DUP3 LT DUP2 EQ ISZERO PUSH2 0x1A33 JUMPI PUSH2 0x1A32 PUSH2 0x1B30 JUMP JUMPDEST JUMPDEST POP SWAP2 SWAP1 POP JUMP JUMPDEST PUSH1 0x0 PUSH2 0x1A4C PUSH2 0x1A47 DUP4 PUSH2 0x1BB3 JUMP JUMPDEST PUSH2 0x1909 JUMP JUMPDEST SWAP1 POP SWAP2 SWAP1 POP JUMP JUMPDEST PUSH1 0x0 PUSH2 0x1A66 PUSH2 0x1A61 DUP4 PUSH2 0x1BB3 JUMP JUMPDEST PUSH2 0x1929 JUMP JUMPDEST SWAP1 POP SWAP2 SWAP1 POP JUMP JUMPDEST PUSH1 0x0 PUSH2 0x1A80 PUSH2 0x1A7B DUP4 PUSH2 0x1BB3 JUMP JUMPDEST PUSH2 0x1933 JUMP JUMPDEST SWAP1 POP SWAP2 SWAP1 POP JUMP JUMPDEST PUSH2 0x1A90 DUP3 PUSH2 0x1BA2 JUMP JUMPDEST DUP2 ADD DUP2 DUP2 LT PUSH8 0xFFFFFFFFFFFFFFFF DUP3 GT OR ISZERO PUSH2 0x1AAF JUMPI PUSH2 0x1AAE PUSH2 0x1B5F JUMP JUMPDEST JUMPDEST DUP1 PUSH1 0x40 MSTORE POP POP POP JUMP JUMPDEST PUSH1 0x0 PUSH2 0x1AC3 DUP3 PUSH2 0x1975 JUMP JUMPDEST SWAP2 POP PUSH32 0xFFFFFFFFFFFFFFFFFFFFFFFFFFFFFFFFFFFFFFFFFFFFFFFFFFFFFFFFFFFFFFFF DUP3 EQ ISZERO PUSH2 0x1AF6 JUMPI PUSH2 0x1AF5 PUSH2 0x1B01 JUMP JUMPDEST JUMPDEST PUSH1 0x1 DUP3 ADD SWAP1 POP SWAP2 SWAP1 POP JUMP JUMPDEST PUSH32 0x4E487B7100000000000000000000000000000000000000000000000000000000 PUSH1 0x0 MSTORE PUSH1 0x11 PUSH1 0x4 MSTORE PUSH1 0x24 PUSH1 0x0 REVERT JUMPDEST PUSH32 0x4E487B7100000000000000000000000000000000000000000000000000000000 PUSH1 0x0 MSTORE PUSH1 0x22 PUSH1 0x4 MSTORE PUSH1 0x24 PUSH1 0x0 REVERT JUMPDEST PUSH32 0x4E487B7100000000000000000000000000000000000000000000000000000000 PUSH1 0x0 MSTORE PUSH1 0x41 PUSH1 0x4 MSTORE PUSH1 0x24 PUSH1 0x0 REVERT JUMPDEST PUSH1 0x0 DUP1 REVERT JUMPDEST PUSH1 0x0 DUP1 REVERT JUMPDEST PUSH1 0x0 DUP1 REVERT JUMPDEST PUSH1 0x0 DUP1 REVERT JUMPDEST PUSH1 0x0 PUSH1 0x1F NOT PUSH1 0x1F DUP4 ADD AND SWAP1 POP SWAP2 SWAP1 POP JUMP JUMPDEST PUSH1 0x0 DUP2 PUSH1 0x0 SHR SWAP1 POP SWAP2 SWAP1 POP JUMP JUMPDEST PUSH32 0x546865726520617265206E6F2070726F647563747320746F206C697374207965 PUSH1 0x0 DUP3 ADD MSTORE PUSH32 0x7421000000000000000000000000000000000000000000000000000000000000 PUSH1 0x20 DUP3 ADD MSTORE POP JUMP JUMPDEST PUSH32 0x5468657265206973206E6F2073756368206974656D207265636F726421000000 PUSH1 0x0 DUP3 ADD MSTORE POP JUMP JUMPDEST PUSH2 0x1C41 DUP2 PUSH2 0x1943 JUMP JUMPDEST DUP2 EQ PUSH2 0x1C4C JUMPI PUSH1 0x0 DUP1 REVERT JUMPDEST POP JUMP JUMPDEST PUSH2 0x1C58 DUP2 PUSH2 0x1975 JUMP JUMPDEST DUP2 EQ PUSH2 0x1C63 JUMPI PUSH1 0x0 DUP1 REVERT JUMPDEST POP JUMP JUMPDEST PUSH2 0x1C6F DUP2 PUSH2 0x197F JUMP JUMPDEST DUP2 EQ PUSH2 0x1C7A JUMPI PUSH1 0x0 DUP1 REVERT JUMPDEST POP JUMP INVALID LOG2 PUSH5 0x6970667358 0x22 SLT KECCAK256 SWAP16 MLOAD DUP4 0xA8 PUSH13 0x9A3A4689BCFAFF815A14387F2D SWAP4 RETURNDATACOPY 0xC6 CALLDATASIZE DUP9 CALLVALUE 0xCD EXTCODEHASH PUSH20 0x70A182858964736F6C6343000807003300000000 "
				},
				"gasEstimates": {
					"creation": {
						"codeDepositCost": "1469400",
						"executionCost": "infinite",
						"totalCost": "infinite"
					},
					"external": {
						"addStar(uint256)": "infinite",
						"createSaleAdvert(uint256,string,uint32)": "infinite",
						"getEntireItems()": "infinite",
						"getItemById(uint256)": "infinite",
						"itemList(uint256)": "infinite",
						"items(uint256)": "infinite",
						"token()": "2663",
						"users(address)": "infinite"
					}
				},
				"methodIdentifiers": {
					"addStar(uint256)": "01750e74",
					"createSaleAdvert(uint256,string,uint32)": "4efd1797",
					"getEntireItems()": "5d9eb55c",
					"getItemById(uint256)": "cd2f0710",
					"itemList(uint256)": "3d4d3600",
					"items(uint256)": "bfb231d2",
					"token()": "fc0c546a",
					"users(address)": "a87430ba"
				}
			},
			"storageLayout": {
				"storage": [
					{
						"astId": 821,
						"contract": "contracts/SwapCart.sol:SwapCart",
						"label": "token",
						"offset": 0,
						"slot": "0",
						"type": "t_contract(IERC20)663"
					},
					{
						"astId": 825,
						"contract": "contracts/SwapCart.sol:SwapCart",
						"label": "itemList",
						"offset": 0,
						"slot": "1",
						"type": "t_array(t_struct(Item)801_storage)dyn_storage"
					},
					{
						"astId": 830,
						"contract": "contracts/SwapCart.sol:SwapCart",
						"label": "users",
						"offset": 0,
						"slot": "2",
						"type": "t_mapping(t_address,t_struct(User)818_storage)"
					},
					{
						"astId": 835,
						"contract": "contracts/SwapCart.sol:SwapCart",
						"label": "items",
						"offset": 0,
						"slot": "3",
						"type": "t_mapping(t_uint256,t_struct(Item)801_storage)"
					},
					{
						"astId": 842,
						"contract": "contracts/SwapCart.sol:SwapCart",
						"label": "itemCounter",
						"offset": 0,
						"slot": "4",
						"type": "t_struct(Counter)716_storage"
					}
				],
				"types": {
					"t_address": {
						"encoding": "inplace",
						"label": "address",
						"numberOfBytes": "20"
					},
					"t_array(t_struct(Item)801_storage)dyn_storage": {
						"base": "t_struct(Item)801_storage",
						"encoding": "dynamic_array",
						"label": "struct SwapCart.Item[]",
						"numberOfBytes": "32"
					},
					"t_contract(IERC20)663": {
						"encoding": "inplace",
						"label": "contract IERC20",
						"numberOfBytes": "20"
					},
					"t_mapping(t_address,t_struct(User)818_storage)": {
						"encoding": "mapping",
						"key": "t_address",
						"label": "mapping(address => struct SwapCart.User)",
						"numberOfBytes": "32",
						"value": "t_struct(User)818_storage"
					},
					"t_mapping(t_uint256,t_struct(Item)801_storage)": {
						"encoding": "mapping",
						"key": "t_uint256",
						"label": "mapping(uint256 => struct SwapCart.Item)",
						"numberOfBytes": "32",
						"value": "t_struct(Item)801_storage"
					},
					"t_string_storage": {
						"encoding": "bytes",
						"label": "string",
						"numberOfBytes": "32"
					},
					"t_struct(Counter)716_storage": {
						"encoding": "inplace",
						"label": "struct Counters.Counter",
						"members": [
							{
								"astId": 715,
								"contract": "contracts/SwapCart.sol:SwapCart",
								"label": "_value",
								"offset": 0,
								"slot": "0",
								"type": "t_uint256"
							}
						],
						"numberOfBytes": "32"
					},
					"t_struct(Item)801_storage": {
						"encoding": "inplace",
						"label": "struct SwapCart.Item",
						"members": [
							{
								"astId": 790,
								"contract": "contracts/SwapCart.sol:SwapCart",
								"label": "itemId",
								"offset": 0,
								"slot": "0",
								"type": "t_uint256"
							},
							{
								"astId": 792,
								"contract": "contracts/SwapCart.sol:SwapCart",
								"label": "itemImage",
								"offset": 0,
								"slot": "1",
								"type": "t_string_storage"
							},
							{
								"astId": 794,
								"contract": "contracts/SwapCart.sol:SwapCart",
								"label": "star",
								"offset": 0,
								"slot": "2",
								"type": "t_uint256"
							},
							{
								"astId": 796,
								"contract": "contracts/SwapCart.sol:SwapCart",
								"label": "seller",
								"offset": 0,
								"slot": "3",
								"type": "t_address"
							},
							{
								"astId": 798,
								"contract": "contracts/SwapCart.sol:SwapCart",
								"label": "price",
								"offset": 0,
								"slot": "4",
								"type": "t_uint256"
							},
							{
								"astId": 800,
								"contract": "contracts/SwapCart.sol:SwapCart",
								"label": "dueDate",
								"offset": 0,
								"slot": "5",
								"type": "t_uint32"
							}
						],
						"numberOfBytes": "192"
					},
					"t_struct(User)818_storage": {
						"encoding": "inplace",
						"label": "struct SwapCart.User",
						"members": [
							{
								"astId": 803,
								"contract": "contracts/SwapCart.sol:SwapCart",
								"label": "userID",
								"offset": 0,
								"slot": "0",
								"type": "t_uint256"
							},
							{
								"astId": 805,
								"contract": "contracts/SwapCart.sol:SwapCart",
								"label": "userName",
								"offset": 0,
								"slot": "1",
								"type": "t_string_storage"
							},
							{
								"astId": 807,
								"contract": "contracts/SwapCart.sol:SwapCart",
								"label": "deliveryAddress",
								"offset": 0,
								"slot": "2",
								"type": "t_string_storage"
							},
							{
								"astId": 811,
								"contract": "contracts/SwapCart.sol:SwapCart",
								"label": "cart",
								"offset": 0,
								"slot": "3",
								"type": "t_array(t_struct(Item)801_storage)dyn_storage"
							},
							{
								"astId": 815,
								"contract": "contracts/SwapCart.sol:SwapCart",
								"label": "inventory",
								"offset": 0,
								"slot": "4",
								"type": "t_array(t_struct(Item)801_storage)dyn_storage"
							},
							{
								"astId": 817,
								"contract": "contracts/SwapCart.sol:SwapCart",
								"label": "balance",
								"offset": 0,
								"slot": "5",
								"type": "t_uint256"
							}
						],
						"numberOfBytes": "192"
					},
					"t_uint256": {
						"encoding": "inplace",
						"label": "uint256",
						"numberOfBytes": "32"
					},
					"t_uint32": {
						"encoding": "inplace",
						"label": "uint32",
						"numberOfBytes": "4"
					}
				}
			},
			"userdoc": {
				"kind": "user",
				"methods": {},
				"version": 1
			}
		}
	}
}