{
	"contracts/SwapCart.sol": {
		"SwapCart": {
			"abi": [
				{
					"inputs": [
						{
							"internalType": "address",
							"name": "_token",
							"type": "address"
						}
					],
					"stateMutability": "nonpayable",
					"type": "constructor"
				},
				{
					"anonymous": false,
					"inputs": [
						{
							"indexed": false,
							"internalType": "uint256",
							"name": "itmId",
							"type": "uint256"
						},
						{
							"indexed": false,
							"internalType": "uint256",
							"name": "itmStar",
							"type": "uint256"
						},
						{
							"indexed": true,
							"internalType": "address",
							"name": "caller",
							"type": "address"
						}
					],
					"name": "AddStar",
					"type": "event"
				},
				{
					"anonymous": false,
					"inputs": [
						{
							"indexed": false,
							"internalType": "uint256",
							"name": "id",
							"type": "uint256"
						},
						{
							"indexed": false,
							"internalType": "uint256",
							"name": "price",
							"type": "uint256"
						},
						{
							"indexed": false,
							"internalType": "string",
							"name": "image",
							"type": "string"
						},
						{
							"indexed": false,
							"internalType": "uint32",
							"name": "dueDate",
							"type": "uint32"
						},
						{
							"indexed": false,
							"internalType": "uint256",
							"name": "star",
							"type": "uint256"
						},
						{
							"indexed": true,
							"internalType": "address",
							"name": "seller",
							"type": "address"
						}
					],
					"name": "CreateSaleAdvert",
					"type": "event"
				},
				{
					"anonymous": false,
					"inputs": [
						{
							"components": [
								{
									"internalType": "uint256",
									"name": "itemId",
									"type": "uint256"
								},
								{
									"internalType": "string",
									"name": "itemImage",
									"type": "string"
								},
								{
									"internalType": "uint256",
									"name": "star",
									"type": "uint256"
								},
								{
									"internalType": "address",
									"name": "seller",
									"type": "address"
								},
								{
									"internalType": "uint256",
									"name": "price",
									"type": "uint256"
								},
								{
									"internalType": "uint32",
									"name": "dueDate",
									"type": "uint32"
								}
							],
							"indexed": false,
							"internalType": "struct SwapCart.Item[]",
							"name": "listOfItems",
							"type": "tuple[]"
						},
						{
							"indexed": true,
							"internalType": "address",
							"name": "caller",
							"type": "address"
						}
					],
					"name": "GetEntireItems",
					"type": "event"
				},
				{
					"inputs": [
						{
							"internalType": "uint256",
							"name": "itmId",
							"type": "uint256"
						}
					],
					"name": "addStar",
					"outputs": [],
					"stateMutability": "nonpayable",
					"type": "function"
				},
				{
					"inputs": [
						{
							"internalType": "uint256",
							"name": "itmPrice",
							"type": "uint256"
						},
						{
							"internalType": "string",
							"name": "itmImage",
							"type": "string"
						},
						{
							"internalType": "uint32",
							"name": "itmDueDate",
							"type": "uint32"
						}
					],
					"name": "createSaleAdvert",
					"outputs": [],
					"stateMutability": "nonpayable",
					"type": "function"
				},
				{
					"inputs": [],
					"name": "getEntireItems",
					"outputs": [
						{
							"components": [
								{
									"internalType": "uint256",
									"name": "itemId",
									"type": "uint256"
								},
								{
									"internalType": "string",
									"name": "itemImage",
									"type": "string"
								},
								{
									"internalType": "uint256",
									"name": "star",
									"type": "uint256"
								},
								{
									"internalType": "address",
									"name": "seller",
									"type": "address"
								},
								{
									"internalType": "uint256",
									"name": "price",
									"type": "uint256"
								},
								{
									"internalType": "uint32",
									"name": "dueDate",
									"type": "uint32"
								}
							],
							"internalType": "struct SwapCart.Item[]",
							"name": "",
							"type": "tuple[]"
						}
					],
					"stateMutability": "nonpayable",
					"type": "function"
				},
				{
					"inputs": [
						{
							"internalType": "uint256",
							"name": "itmId",
							"type": "uint256"
						}
					],
					"name": "getItemById",
					"outputs": [
						{
							"components": [
								{
									"internalType": "uint256",
									"name": "itemId",
									"type": "uint256"
								},
								{
									"internalType": "string",
									"name": "itemImage",
									"type": "string"
								},
								{
									"internalType": "uint256",
									"name": "star",
									"type": "uint256"
								},
								{
									"internalType": "address",
									"name": "seller",
									"type": "address"
								},
								{
									"internalType": "uint256",
									"name": "price",
									"type": "uint256"
								},
								{
									"internalType": "uint32",
									"name": "dueDate",
									"type": "uint32"
								}
							],
							"internalType": "struct SwapCart.Item",
							"name": "",
							"type": "tuple"
						}
					],
					"stateMutability": "view",
					"type": "function"
				},
				{
					"inputs": [
						{
							"internalType": "uint256",
							"name": "",
							"type": "uint256"
						}
					],
					"name": "itemList",
					"outputs": [
						{
							"internalType": "uint256",
							"name": "itemId",
							"type": "uint256"
						},
						{
							"internalType": "string",
							"name": "itemImage",
							"type": "string"
						},
						{
							"internalType": "uint256",
							"name": "star",
							"type": "uint256"
						},
						{
							"internalType": "address",
							"name": "seller",
							"type": "address"
						},
						{
							"internalType": "uint256",
							"name": "price",
							"type": "uint256"
						},
						{
							"internalType": "uint32",
							"name": "dueDate",
							"type": "uint32"
						}
					],
					"stateMutability": "view",
					"type": "function"
				},
				{
					"inputs": [
						{
							"internalType": "uint256",
							"name": "",
							"type": "uint256"
						}
					],
					"name": "items",
					"outputs": [
						{
							"internalType": "uint256",
							"name": "itemId",
							"type": "uint256"
						},
						{
							"internalType": "string",
							"name": "itemImage",
							"type": "string"
						},
						{
							"internalType": "uint256",
							"name": "star",
							"type": "uint256"
						},
						{
							"internalType": "address",
							"name": "seller",
							"type": "address"
						},
						{
							"internalType": "uint256",
							"name": "price",
							"type": "uint256"
						},
						{
							"internalType": "uint32",
							"name": "dueDate",
							"type": "uint32"
						}
					],
					"stateMutability": "view",
					"type": "function"
				},
				{
					"inputs": [],
					"name": "token",
					"outputs": [
						{
							"internalType": "contract IERC20",
							"name": "",
							"type": "address"
						}
					],
					"stateMutability": "view",
					"type": "function"
				},
				{
					"inputs": [
						{
							"internalType": "address",
							"name": "",
							"type": "address"
						}
					],
					"name": "users",
					"outputs": [
						{
							"internalType": "uint256",
							"name": "userID",
							"type": "uint256"
						},
						{
							"internalType": "string",
							"name": "userName",
							"type": "string"
						},
						{
							"internalType": "string",
							"name": "deliveryAddress",
							"type": "string"
						},
						{
							"internalType": "uint256",
							"name": "balance",
							"type": "uint256"
						}
					],
					"stateMutability": "view",
					"type": "function"
				}
			],
			"devdoc": {
				"kind": "dev",
				"methods": {},
				"version": 1
			},
			"evm": {
				"assembly": "    /* \"contracts/SwapCart.sol\":172:3880  contract SwapCart{\r... */\n  mstore(0x40, 0x80)\n    /* \"contracts/SwapCart.sol\":783:851  constructor(address _token){\r... */\n  callvalue\n  dup1\n  iszero\n  tag_1\n  jumpi\n  0x00\n  dup1\n  revert\ntag_1:\n  pop\n  mload(0x40)\n  sub(codesize, bytecodeSize)\n  dup1\n  bytecodeSize\n  dup4\n  codecopy\n  dup2\n  dup2\n  add\n  0x40\n  mstore\n  dup2\n  add\n  swap1\n  tag_2\n  swap2\n  swap1\n  tag_3\n  jump\t// in\ntag_2:\n    /* \"contracts/SwapCart.sol\":836:842  _token */\n  dup1\n    /* \"contracts/SwapCart.sol\":821:826  token */\n  0x00\n  dup1\n    /* \"contracts/SwapCart.sol\":821:843  token = IERC20(_token) */\n  0x0100\n  exp\n  dup2\n  sload\n  dup2\n  0xffffffffffffffffffffffffffffffffffffffff\n  mul\n  not\n  and\n  swap1\n  dup4\n  0xffffffffffffffffffffffffffffffffffffffff\n  and\n  mul\n  or\n  swap1\n  sstore\n  pop\n    /* \"contracts/SwapCart.sol\":783:851  constructor(address _token){\r... */\n  pop\n    /* \"contracts/SwapCart.sol\":172:3880  contract SwapCart{\r... */\n  jump(tag_6)\n    /* \"#utility.yul\":7:150   */\ntag_8:\n    /* \"#utility.yul\":64:69   */\n  0x00\n    /* \"#utility.yul\":95:101   */\n  dup2\n    /* \"#utility.yul\":89:102   */\n  mload\n    /* \"#utility.yul\":80:102   */\n  swap1\n  pop\n    /* \"#utility.yul\":111:144   */\n  tag_10\n    /* \"#utility.yul\":138:143   */\n  dup2\n    /* \"#utility.yul\":111:144   */\n  tag_11\n  jump\t// in\ntag_10:\n    /* \"#utility.yul\":7:150   */\n  swap3\n  swap2\n  pop\n  pop\n  jump\t// out\n    /* \"#utility.yul\":156:507   */\ntag_3:\n    /* \"#utility.yul\":226:232   */\n  0x00\n    /* \"#utility.yul\":275:277   */\n  0x20\n    /* \"#utility.yul\":263:272   */\n  dup3\n    /* \"#utility.yul\":254:261   */\n  dup5\n    /* \"#utility.yul\":250:273   */\n  sub\n    /* \"#utility.yul\":246:278   */\n  slt\n    /* \"#utility.yul\":243:362   */\n  iszero\n  tag_13\n  jumpi\n    /* \"#utility.yul\":281:360   */\n  tag_14\n  tag_15\n  jump\t// in\ntag_14:\n    /* \"#utility.yul\":243:362   */\ntag_13:\n    /* \"#utility.yul\":401:402   */\n  0x00\n    /* \"#utility.yul\":426:490   */\n  tag_16\n    /* \"#utility.yul\":482:489   */\n  dup5\n    /* \"#utility.yul\":473:479   */\n  dup3\n    /* \"#utility.yul\":462:471   */\n  dup6\n    /* \"#utility.yul\":458:480   */\n  add\n    /* \"#utility.yul\":426:490   */\n  tag_8\n  jump\t// in\ntag_16:\n    /* \"#utility.yul\":416:490   */\n  swap2\n  pop\n    /* \"#utility.yul\":372:500   */\n  pop\n    /* \"#utility.yul\":156:507   */\n  swap3\n  swap2\n  pop\n  pop\n  jump\t// out\n    /* \"#utility.yul\":594:690   */\ntag_19:\n    /* \"#utility.yul\":631:638   */\n  0x00\n    /* \"#utility.yul\":660:684   */\n  tag_21\n    /* \"#utility.yul\":678:683   */\n  dup3\n    /* \"#utility.yul\":660:684   */\n  tag_22\n  jump\t// in\ntag_21:\n    /* \"#utility.yul\":649:684   */\n  swap1\n  pop\n    /* \"#utility.yul\":594:690   */\n  swap2\n  swap1\n  pop\n  jump\t// out\n    /* \"#utility.yul\":696:822   */\ntag_22:\n    /* \"#utility.yul\":733:740   */\n  0x00\n    /* \"#utility.yul\":773:815   */\n  0xffffffffffffffffffffffffffffffffffffffff\n    /* \"#utility.yul\":766:771   */\n  dup3\n    /* \"#utility.yul\":762:816   */\n  and\n    /* \"#utility.yul\":751:816   */\n  swap1\n  pop\n    /* \"#utility.yul\":696:822   */\n  swap2\n  swap1\n  pop\n  jump\t// out\n    /* \"#utility.yul\":951:1068   */\ntag_15:\n    /* \"#utility.yul\":1060:1061   */\n  0x00\n    /* \"#utility.yul\":1057:1058   */\n  dup1\n    /* \"#utility.yul\":1050:1062   */\n  revert\n    /* \"#utility.yul\":1074:1196   */\ntag_11:\n    /* \"#utility.yul\":1147:1171   */\n  tag_28\n    /* \"#utility.yul\":1165:1170   */\n  dup2\n    /* \"#utility.yul\":1147:1171   */\n  tag_19\n  jump\t// in\ntag_28:\n    /* \"#utility.yul\":1140:1145   */\n  dup2\n    /* \"#utility.yul\":1137:1172   */\n  eq\n    /* \"#utility.yul\":1127:1190   */\n  tag_29\n  jumpi\n    /* \"#utility.yul\":1186:1187   */\n  0x00\n    /* \"#utility.yul\":1183:1184   */\n  dup1\n    /* \"#utility.yul\":1176:1188   */\n  revert\n    /* \"#utility.yul\":1127:1190   */\ntag_29:\n    /* \"#utility.yul\":1074:1196   */\n  pop\n  jump\t// out\n    /* \"contracts/SwapCart.sol\":172:3880  contract SwapCart{\r... */\ntag_6:\n  dataSize(sub_0)\n  dup1\n  dataOffset(sub_0)\n  0x00\n  codecopy\n  0x00\n  return\nstop\n\nsub_0: assembly {\n        /* \"contracts/SwapCart.sol\":172:3880  contract SwapCart{\r... */\n      mstore(0x40, 0x80)\n      callvalue\n      dup1\n      iszero\n      tag_1\n      jumpi\n      0x00\n      dup1\n      revert\n    tag_1:\n      pop\n      jumpi(tag_2, lt(calldatasize, 0x04))\n      shr(0xe0, calldataload(0x00))\n      dup1\n      0xa87430ba\n      gt\n      tag_11\n      jumpi\n      dup1\n      0xa87430ba\n      eq\n      tag_7\n      jumpi\n      dup1\n      0xbfb231d2\n      eq\n      tag_8\n      jumpi\n      dup1\n      0xcd2f0710\n      eq\n      tag_9\n      jumpi\n      dup1\n      0xfc0c546a\n      eq\n      tag_10\n      jumpi\n      jump(tag_2)\n    tag_11:\n      dup1\n      0x01750e74\n      eq\n      tag_3\n      jumpi\n      dup1\n      0x3d4d3600\n      eq\n      tag_4\n      jumpi\n      dup1\n      0x4efd1797\n      eq\n      tag_5\n      jumpi\n      dup1\n      0x5d9eb55c\n      eq\n      tag_6\n      jumpi\n    tag_2:\n      0x00\n      dup1\n      revert\n        /* \"contracts/SwapCart.sol\":3600:3764  function addStar(uint itmId) public buyerCheck(items[itmId].seller){\r... */\n    tag_3:\n      tag_12\n      0x04\n      dup1\n      calldatasize\n      sub\n      dup2\n      add\n      swap1\n      tag_13\n      swap2\n      swap1\n      tag_14\n      jump\t// in\n    tag_13:\n      tag_15\n      jump\t// in\n    tag_12:\n      stop\n        /* \"contracts/SwapCart.sol\":575:597  Item[] public itemList */\n    tag_4:\n      tag_16\n      0x04\n      dup1\n      calldatasize\n      sub\n      dup2\n      add\n      swap1\n      tag_17\n      swap2\n      swap1\n      tag_14\n      jump\t// in\n    tag_17:\n      tag_18\n      jump\t// in\n    tag_16:\n      mload(0x40)\n      tag_19\n      swap7\n      swap6\n      swap5\n      swap4\n      swap3\n      swap2\n      swap1\n      tag_20\n      jump\t// in\n    tag_19:\n      mload(0x40)\n      dup1\n      swap2\n      sub\n      swap1\n      return\n        /* \"contracts/SwapCart.sol\":2759:3428  function createSaleAdvert(uint itmPrice, string memory itmImage, uint32 itmDueDate) external ownerCheck(msg.sender){\r... */\n    tag_5:\n      tag_21\n      0x04\n      dup1\n      calldatasize\n      sub\n      dup2\n      add\n      swap1\n      tag_22\n      swap2\n      swap1\n      tag_23\n      jump\t// in\n    tag_22:\n      tag_24\n      jump\t// in\n    tag_21:\n      stop\n        /* \"contracts/SwapCart.sol\":3436:3592  function getEntireItems() public listSizeCheck returns (Item[] memory) {\r... */\n    tag_6:\n      tag_25\n      tag_26\n      jump\t// in\n    tag_25:\n      mload(0x40)\n      tag_27\n      swap2\n      swap1\n      tag_28\n      jump\t// in\n    tag_27:\n      mload(0x40)\n      dup1\n      swap2\n      sub\n      swap1\n      return\n        /* \"contracts/SwapCart.sol\":606:643  mapping(address => User) public users */\n    tag_7:\n      tag_29\n      0x04\n      dup1\n      calldatasize\n      sub\n      dup2\n      add\n      swap1\n      tag_30\n      swap2\n      swap1\n      tag_31\n      jump\t// in\n    tag_30:\n      tag_32\n      jump\t// in\n    tag_29:\n      mload(0x40)\n      tag_33\n      swap5\n      swap4\n      swap3\n      swap2\n      swap1\n      tag_34\n      jump\t// in\n    tag_33:\n      mload(0x40)\n      dup1\n      swap2\n      sub\n      swap1\n      return\n        /* \"contracts/SwapCart.sol\":650:687  mapping(uint256 => Item) public items */\n    tag_8:\n      tag_35\n      0x04\n      dup1\n      calldatasize\n      sub\n      dup2\n      add\n      swap1\n      tag_36\n      swap2\n      swap1\n      tag_14\n      jump\t// in\n    tag_36:\n      tag_37\n      jump\t// in\n    tag_35:\n      mload(0x40)\n      tag_38\n      swap7\n      swap6\n      swap5\n      swap4\n      swap3\n      swap2\n      swap1\n      tag_20\n      jump\t// in\n    tag_38:\n      mload(0x40)\n      dup1\n      swap2\n      sub\n      swap1\n      return\n        /* \"contracts/SwapCart.sol\":3772:3877  function getItemById(uint itmId) public view returns (Item memory) {\r... */\n    tag_9:\n      tag_39\n      0x04\n      dup1\n      calldatasize\n      sub\n      dup2\n      add\n      swap1\n      tag_40\n      swap2\n      swap1\n      tag_14\n      jump\t// in\n    tag_40:\n      tag_41\n      jump\t// in\n    tag_39:\n      mload(0x40)\n      tag_42\n      swap2\n      swap1\n      tag_43\n      jump\t// in\n    tag_42:\n      mload(0x40)\n      dup1\n      swap2\n      sub\n      swap1\n      return\n        /* \"contracts/SwapCart.sol\":549:568  IERC20 public token */\n    tag_10:\n      tag_44\n      tag_45\n      jump\t// in\n    tag_44:\n      mload(0x40)\n      tag_46\n      swap2\n      swap1\n      tag_47\n      jump\t// in\n    tag_46:\n      mload(0x40)\n      dup1\n      swap2\n      sub\n      swap1\n      return\n        /* \"contracts/SwapCart.sol\":3600:3764  function addStar(uint itmId) public buyerCheck(items[itmId].seller){\r... */\n    tag_15:\n        /* \"contracts/SwapCart.sol\":3647:3652  items */\n      0x03\n        /* \"contracts/SwapCart.sol\":3647:3659  items[itmId] */\n      0x00\n        /* \"contracts/SwapCart.sol\":3653:3658  itmId */\n      dup3\n        /* \"contracts/SwapCart.sol\":3647:3659  items[itmId] */\n      dup2\n      mstore\n      0x20\n      add\n      swap1\n      dup2\n      mstore\n      0x20\n      add\n      0x00\n      keccak256\n        /* \"contracts/SwapCart.sol\":3647:3666  items[itmId].seller */\n      0x03\n      add\n      0x00\n      swap1\n      sload\n      swap1\n      0x0100\n      exp\n      swap1\n      div\n      0xffffffffffffffffffffffffffffffffffffffff\n      and\n        /* \"contracts/SwapCart.sol\":1305:1314  itmSeller */\n      dup1\n        /* \"contracts/SwapCart.sol\":1291:1314  msg.sender != itmSeller */\n      0xffffffffffffffffffffffffffffffffffffffff\n      and\n        /* \"contracts/SwapCart.sol\":1291:1301  msg.sender */\n      caller\n        /* \"contracts/SwapCart.sol\":1291:1314  msg.sender != itmSeller */\n      0xffffffffffffffffffffffffffffffffffffffff\n      and\n      eq\n      iszero\n        /* \"contracts/SwapCart.sol\":1283:1315  require(msg.sender != itmSeller) */\n      tag_49\n      jumpi\n      0x00\n      dup1\n      revert\n    tag_49:\n        /* \"contracts/SwapCart.sol\":3678:3683  items */\n      0x03\n        /* \"contracts/SwapCart.sol\":3678:3690  items[itmId] */\n      0x00\n        /* \"contracts/SwapCart.sol\":3684:3689  itmId */\n      dup4\n        /* \"contracts/SwapCart.sol\":3678:3690  items[itmId] */\n      dup2\n      mstore\n      0x20\n      add\n      swap1\n      dup2\n      mstore\n      0x20\n      add\n      0x00\n      keccak256\n        /* \"contracts/SwapCart.sol\":3678:3695  items[itmId].star */\n      0x02\n      add\n      0x00\n        /* \"contracts/SwapCart.sol\":3678:3697  items[itmId].star++ */\n      dup2\n      sload\n      dup1\n      swap3\n      swap2\n      swap1\n      tag_51\n      swap1\n      tag_52\n      jump\t// in\n    tag_51:\n      swap2\n      swap1\n      pop\n      sstore\n      pop\n        /* \"contracts/SwapCart.sol\":3745:3755  msg.sender */\n      caller\n        /* \"contracts/SwapCart.sol\":3713:3756  AddStar(itmId,items[itmId].star,msg.sender) */\n      0xffffffffffffffffffffffffffffffffffffffff\n      and\n      0x1ed364e6f46a455fac23816d3700669ff134c7a5fbe0240f52d932f834102462\n        /* \"contracts/SwapCart.sol\":3721:3726  itmId */\n      dup4\n        /* \"contracts/SwapCart.sol\":3727:3732  items */\n      0x03\n        /* \"contracts/SwapCart.sol\":3727:3739  items[itmId] */\n      0x00\n        /* \"contracts/SwapCart.sol\":3733:3738  itmId */\n      dup7\n        /* \"contracts/SwapCart.sol\":3727:3739  items[itmId] */\n      dup2\n      mstore\n      0x20\n      add\n      swap1\n      dup2\n      mstore\n      0x20\n      add\n      0x00\n      keccak256\n        /* \"contracts/SwapCart.sol\":3727:3744  items[itmId].star */\n      0x02\n      add\n      sload\n        /* \"contracts/SwapCart.sol\":3713:3756  AddStar(itmId,items[itmId].star,msg.sender) */\n      mload(0x40)\n      tag_53\n      swap3\n      swap2\n      swap1\n      tag_54\n      jump\t// in\n    tag_53:\n      mload(0x40)\n      dup1\n      swap2\n      sub\n      swap1\n      log2\n        /* \"contracts/SwapCart.sol\":3600:3764  function addStar(uint itmId) public buyerCheck(items[itmId].seller){\r... */\n      pop\n      pop\n      jump\t// out\n        /* \"contracts/SwapCart.sol\":575:597  Item[] public itemList */\n    tag_18:\n      0x01\n      dup2\n      dup2\n      sload\n      dup2\n      lt\n      tag_55\n      jumpi\n      0x00\n      dup1\n      revert\n    tag_55:\n      swap1\n      0x00\n      mstore\n      keccak256(0x00, 0x20)\n      swap1\n      0x06\n      mul\n      add\n      0x00\n      swap2\n      pop\n      swap1\n      pop\n      dup1\n      0x00\n      add\n      sload\n      swap1\n      dup1\n      0x01\n      add\n      dup1\n      sload\n      tag_57\n      swap1\n      tag_58\n      jump\t// in\n    tag_57:\n      dup1\n      0x1f\n      add\n      0x20\n      dup1\n      swap2\n      div\n      mul\n      0x20\n      add\n      mload(0x40)\n      swap1\n      dup2\n      add\n      0x40\n      mstore\n      dup1\n      swap3\n      swap2\n      swap1\n      dup2\n      dup2\n      mstore\n      0x20\n      add\n      dup3\n      dup1\n      sload\n      tag_59\n      swap1\n      tag_58\n      jump\t// in\n    tag_59:\n      dup1\n      iszero\n      tag_60\n      jumpi\n      dup1\n      0x1f\n      lt\n      tag_61\n      jumpi\n      0x0100\n      dup1\n      dup4\n      sload\n      div\n      mul\n      dup4\n      mstore\n      swap2\n      0x20\n      add\n      swap2\n      jump(tag_60)\n    tag_61:\n      dup3\n      add\n      swap2\n      swap1\n      0x00\n      mstore\n      keccak256(0x00, 0x20)\n      swap1\n    tag_62:\n      dup2\n      sload\n      dup2\n      mstore\n      swap1\n      0x01\n      add\n      swap1\n      0x20\n      add\n      dup1\n      dup4\n      gt\n      tag_62\n      jumpi\n      dup3\n      swap1\n      sub\n      0x1f\n      and\n      dup3\n      add\n      swap2\n    tag_60:\n      pop\n      pop\n      pop\n      pop\n      pop\n      swap1\n      dup1\n      0x02\n      add\n      sload\n      swap1\n      dup1\n      0x03\n      add\n      0x00\n      swap1\n      sload\n      swap1\n      0x0100\n      exp\n      swap1\n      div\n      0xffffffffffffffffffffffffffffffffffffffff\n      and\n      swap1\n      dup1\n      0x04\n      add\n      sload\n      swap1\n      dup1\n      0x05\n      add\n      0x00\n      swap1\n      sload\n      swap1\n      0x0100\n      exp\n      swap1\n      div\n      0xffffffff\n      and\n      swap1\n      pop\n      dup7\n      jump\t// out\n        /* \"contracts/SwapCart.sol\":2759:3428  function createSaleAdvert(uint itmPrice, string memory itmImage, uint32 itmDueDate) external ownerCheck(msg.sender){\r... */\n    tag_24:\n        /* \"contracts/SwapCart.sol\":2863:2873  msg.sender */\n      caller\n        /* \"contracts/SwapCart.sol\":1057:1066  itmSeller */\n      dup1\n        /* \"contracts/SwapCart.sol\":1043:1066  msg.sender == itmSeller */\n      0xffffffffffffffffffffffffffffffffffffffff\n      and\n        /* \"contracts/SwapCart.sol\":1043:1053  msg.sender */\n      caller\n        /* \"contracts/SwapCart.sol\":1043:1066  msg.sender == itmSeller */\n      0xffffffffffffffffffffffffffffffffffffffff\n      and\n      eq\n        /* \"contracts/SwapCart.sol\":1035:1067  require(msg.sender == itmSeller) */\n      tag_64\n      jumpi\n      0x00\n      dup1\n      revert\n    tag_64:\n        /* \"contracts/SwapCart.sol\":2918:3126  Item({\r... */\n      mload(0x40)\n      dup1\n      0xc0\n      add\n      0x40\n      mstore\n      dup1\n        /* \"contracts/SwapCart.sol\":2945:2966  itemCounter.current() */\n      tag_66\n        /* \"contracts/SwapCart.sol\":2945:2956  itemCounter */\n      0x04\n        /* \"contracts/SwapCart.sol\":2945:2964  itemCounter.current */\n      tag_67\n        /* \"contracts/SwapCart.sol\":2945:2966  itemCounter.current() */\n      jump\t// in\n    tag_66:\n        /* \"contracts/SwapCart.sol\":2918:3126  Item({\r... */\n      dup2\n      mstore\n      0x20\n      add\n        /* \"contracts/SwapCart.sol\":3020:3028  itmImage */\n      dup5\n        /* \"contracts/SwapCart.sol\":2918:3126  Item({\r... */\n      dup2\n      mstore\n      0x20\n      add\n        /* \"contracts/SwapCart.sol\":3081:3082  0 */\n      0x00\n        /* \"contracts/SwapCart.sol\":2918:3126  Item({\r... */\n      dup2\n      mstore\n      0x20\n      add\n        /* \"contracts/SwapCart.sol\":3104:3114  msg.sender */\n      caller\n        /* \"contracts/SwapCart.sol\":2918:3126  Item({\r... */\n      0xffffffffffffffffffffffffffffffffffffffff\n      and\n      dup2\n      mstore\n      0x20\n      add\n        /* \"contracts/SwapCart.sol\":2987:2995  itmPrice */\n      dup6\n        /* \"contracts/SwapCart.sol\":2918:3126  Item({\r... */\n      dup2\n      mstore\n      0x20\n      add\n        /* \"contracts/SwapCart.sol\":3051:3061  itmDueDate */\n      dup4\n        /* \"contracts/SwapCart.sol\":2918:3126  Item({\r... */\n      0xffffffff\n      and\n      dup2\n      mstore\n      pop\n        /* \"contracts/SwapCart.sol\":2887:2892  items */\n      0x03\n        /* \"contracts/SwapCart.sol\":2887:2915  items[itemCounter.current()] */\n      0x00\n        /* \"contracts/SwapCart.sol\":2893:2914  itemCounter.current() */\n      tag_68\n        /* \"contracts/SwapCart.sol\":2893:2904  itemCounter */\n      0x04\n        /* \"contracts/SwapCart.sol\":2893:2912  itemCounter.current */\n      tag_67\n        /* \"contracts/SwapCart.sol\":2893:2914  itemCounter.current() */\n      jump\t// in\n    tag_68:\n        /* \"contracts/SwapCart.sol\":2887:2915  items[itemCounter.current()] */\n      dup2\n      mstore\n      0x20\n      add\n      swap1\n      dup2\n      mstore\n      0x20\n      add\n      0x00\n      keccak256\n        /* \"contracts/SwapCart.sol\":2887:3126  items[itemCounter.current()] = Item({\r... */\n      0x00\n      dup3\n      add\n      mload\n      dup2\n      0x00\n      add\n      sstore\n      0x20\n      dup3\n      add\n      mload\n      dup2\n      0x01\n      add\n      swap1\n      dup1\n      mload\n      swap1\n      0x20\n      add\n      swap1\n      tag_69\n      swap3\n      swap2\n      swap1\n      tag_70\n      jump\t// in\n    tag_69:\n      pop\n      0x40\n      dup3\n      add\n      mload\n      dup2\n      0x02\n      add\n      sstore\n      0x60\n      dup3\n      add\n      mload\n      dup2\n      0x03\n      add\n      exp(0x0100, 0x00)\n      dup2\n      sload\n      dup2\n      0xffffffffffffffffffffffffffffffffffffffff\n      mul\n      not\n      and\n      swap1\n      dup4\n      0xffffffffffffffffffffffffffffffffffffffff\n      and\n      mul\n      or\n      swap1\n      sstore\n      pop\n      0x80\n      dup3\n      add\n      mload\n      dup2\n      0x04\n      add\n      sstore\n      0xa0\n      dup3\n      add\n      mload\n      dup2\n      0x05\n      add\n      exp(0x0100, 0x00)\n      dup2\n      sload\n      dup2\n      0xffffffff\n      mul\n      not\n      and\n      swap1\n      dup4\n      0xffffffff\n      and\n      mul\n      or\n      swap1\n      sstore\n      pop\n      swap1\n      pop\n      pop\n        /* \"contracts/SwapCart.sol\":3139:3144  users */\n      0x02\n        /* \"contracts/SwapCart.sol\":3139:3156  users[msg.sender] */\n      0x00\n        /* \"contracts/SwapCart.sol\":3145:3155  msg.sender */\n      caller\n        /* \"contracts/SwapCart.sol\":3139:3156  users[msg.sender] */\n      0xffffffffffffffffffffffffffffffffffffffff\n      and\n      0xffffffffffffffffffffffffffffffffffffffff\n      and\n      dup2\n      mstore\n      0x20\n      add\n      swap1\n      dup2\n      mstore\n      0x20\n      add\n      0x00\n      keccak256\n        /* \"contracts/SwapCart.sol\":3139:3166  users[msg.sender].inventory */\n      0x04\n      add\n        /* \"contracts/SwapCart.sol\":3172:3177  items */\n      0x03\n        /* \"contracts/SwapCart.sol\":3172:3200  items[itemCounter.current()] */\n      0x00\n        /* \"contracts/SwapCart.sol\":3178:3199  itemCounter.current() */\n      tag_71\n        /* \"contracts/SwapCart.sol\":3178:3189  itemCounter */\n      0x04\n        /* \"contracts/SwapCart.sol\":3178:3197  itemCounter.current */\n      tag_67\n        /* \"contracts/SwapCart.sol\":3178:3199  itemCounter.current() */\n      jump\t// in\n    tag_71:\n        /* \"contracts/SwapCart.sol\":3172:3200  items[itemCounter.current()] */\n      dup2\n      mstore\n      0x20\n      add\n      swap1\n      dup2\n      mstore\n      0x20\n      add\n      0x00\n      keccak256\n        /* \"contracts/SwapCart.sol\":3139:3201  users[msg.sender].inventory.push(items[itemCounter.current()]) */\n      swap1\n      dup1\n      0x01\n      dup2\n      sload\n      add\n      dup1\n      dup3\n      sstore\n      dup1\n      swap2\n      pop\n      pop\n      0x01\n      swap1\n      sub\n      swap1\n      0x00\n      mstore\n      keccak256(0x00, 0x20)\n      swap1\n      0x06\n      mul\n      add\n      0x00\n      swap1\n      swap2\n      swap1\n      swap2\n      swap1\n      swap2\n      pop\n      0x00\n      dup3\n      add\n      sload\n      dup2\n      0x00\n      add\n      sstore\n      0x01\n      dup3\n      add\n      dup2\n      0x01\n      add\n      swap1\n      dup1\n      sload\n      tag_73\n      swap1\n      tag_58\n      jump\t// in\n    tag_73:\n      tag_74\n      swap3\n      swap2\n      swap1\n      tag_75\n      jump\t// in\n    tag_74:\n      pop\n      0x02\n      dup3\n      add\n      sload\n      dup2\n      0x02\n      add\n      sstore\n      0x03\n      dup3\n      add\n      0x00\n      swap1\n      sload\n      swap1\n      0x0100\n      exp\n      swap1\n      div\n      0xffffffffffffffffffffffffffffffffffffffff\n      and\n      dup2\n      0x03\n      add\n      exp(0x0100, 0x00)\n      dup2\n      sload\n      dup2\n      0xffffffffffffffffffffffffffffffffffffffff\n      mul\n      not\n      and\n      swap1\n      dup4\n      0xffffffffffffffffffffffffffffffffffffffff\n      and\n      mul\n      or\n      swap1\n      sstore\n      pop\n      0x04\n      dup3\n      add\n      sload\n      dup2\n      0x04\n      add\n      sstore\n      0x05\n      dup3\n      add\n      0x00\n      swap1\n      sload\n      swap1\n      0x0100\n      exp\n      swap1\n      div\n      0xffffffff\n      and\n      dup2\n      0x05\n      add\n      exp(0x0100, 0x00)\n      dup2\n      sload\n      dup2\n      0xffffffff\n      mul\n      not\n      and\n      swap1\n      dup4\n      0xffffffff\n      and\n      mul\n      or\n      swap1\n      sstore\n      pop\n      pop\n      pop\n        /* \"contracts/SwapCart.sol\":3212:3220  itemList */\n      0x01\n        /* \"contracts/SwapCart.sol\":3226:3231  items */\n      0x03\n        /* \"contracts/SwapCart.sol\":3226:3254  items[itemCounter.current()] */\n      0x00\n        /* \"contracts/SwapCart.sol\":3232:3253  itemCounter.current() */\n      tag_76\n        /* \"contracts/SwapCart.sol\":3232:3243  itemCounter */\n      0x04\n        /* \"contracts/SwapCart.sol\":3232:3251  itemCounter.current */\n      tag_67\n        /* \"contracts/SwapCart.sol\":3232:3253  itemCounter.current() */\n      jump\t// in\n    tag_76:\n        /* \"contracts/SwapCart.sol\":3226:3254  items[itemCounter.current()] */\n      dup2\n      mstore\n      0x20\n      add\n      swap1\n      dup2\n      mstore\n      0x20\n      add\n      0x00\n      keccak256\n        /* \"contracts/SwapCart.sol\":3212:3255  itemList.push(items[itemCounter.current()]) */\n      swap1\n      dup1\n      0x01\n      dup2\n      sload\n      add\n      dup1\n      dup3\n      sstore\n      dup1\n      swap2\n      pop\n      pop\n      0x01\n      swap1\n      sub\n      swap1\n      0x00\n      mstore\n      keccak256(0x00, 0x20)\n      swap1\n      0x06\n      mul\n      add\n      0x00\n      swap1\n      swap2\n      swap1\n      swap2\n      swap1\n      swap2\n      pop\n      0x00\n      dup3\n      add\n      sload\n      dup2\n      0x00\n      add\n      sstore\n      0x01\n      dup3\n      add\n      dup2\n      0x01\n      add\n      swap1\n      dup1\n      sload\n      tag_78\n      swap1\n      tag_58\n      jump\t// in\n    tag_78:\n      tag_79\n      swap3\n      swap2\n      swap1\n      tag_75\n      jump\t// in\n    tag_79:\n      pop\n      0x02\n      dup3\n      add\n      sload\n      dup2\n      0x02\n      add\n      sstore\n      0x03\n      dup3\n      add\n      0x00\n      swap1\n      sload\n      swap1\n      0x0100\n      exp\n      swap1\n      div\n      0xffffffffffffffffffffffffffffffffffffffff\n      and\n      dup2\n      0x03\n      add\n      exp(0x0100, 0x00)\n      dup2\n      sload\n      dup2\n      0xffffffffffffffffffffffffffffffffffffffff\n      mul\n      not\n      and\n      swap1\n      dup4\n      0xffffffffffffffffffffffffffffffffffffffff\n      and\n      mul\n      or\n      swap1\n      sstore\n      pop\n      0x04\n      dup3\n      add\n      sload\n      dup2\n      0x04\n      add\n      sstore\n      0x05\n      dup3\n      add\n      0x00\n      swap1\n      sload\n      swap1\n      0x0100\n      exp\n      swap1\n      div\n      0xffffffff\n      and\n      dup2\n      0x05\n      add\n      exp(0x0100, 0x00)\n      dup2\n      sload\n      dup2\n      0xffffffff\n      mul\n      not\n      and\n      swap1\n      dup4\n      0xffffffff\n      and\n      mul\n      or\n      swap1\n      sstore\n      pop\n      pop\n      pop\n        /* \"contracts/SwapCart.sol\":3266:3289  itemCounter.increment() */\n      tag_80\n        /* \"contracts/SwapCart.sol\":3266:3277  itemCounter */\n      0x04\n        /* \"contracts/SwapCart.sol\":3266:3287  itemCounter.increment */\n      tag_81\n        /* \"contracts/SwapCart.sol\":3266:3289  itemCounter.increment() */\n      jump\t// in\n    tag_80:\n        /* \"contracts/SwapCart.sol\":3409:3419  msg.sender */\n      caller\n        /* \"contracts/SwapCart.sol\":3307:3420  CreateSaleAdvert(itemCounter.current(),itmPrice,itmImage,itmDueDate,items[itemCounter.current()].star,msg.sender) */\n      0xffffffffffffffffffffffffffffffffffffffff\n      and\n      0x9a5b8b5cb7f9c536ea5db1a94142c9f716fb3a8698a9c70a5b8bfad3922cb06c\n        /* \"contracts/SwapCart.sol\":3324:3345  itemCounter.current() */\n      tag_82\n        /* \"contracts/SwapCart.sol\":3324:3335  itemCounter */\n      0x04\n        /* \"contracts/SwapCart.sol\":3324:3343  itemCounter.current */\n      tag_67\n        /* \"contracts/SwapCart.sol\":3324:3345  itemCounter.current() */\n      jump\t// in\n    tag_82:\n        /* \"contracts/SwapCart.sol\":3346:3354  itmPrice */\n      dup7\n        /* \"contracts/SwapCart.sol\":3355:3363  itmImage */\n      dup7\n        /* \"contracts/SwapCart.sol\":3364:3374  itmDueDate */\n      dup7\n        /* \"contracts/SwapCart.sol\":3375:3380  items */\n      0x03\n        /* \"contracts/SwapCart.sol\":3375:3403  items[itemCounter.current()] */\n      0x00\n        /* \"contracts/SwapCart.sol\":3381:3402  itemCounter.current() */\n      tag_83\n        /* \"contracts/SwapCart.sol\":3381:3392  itemCounter */\n      0x04\n        /* \"contracts/SwapCart.sol\":3381:3400  itemCounter.current */\n      tag_67\n        /* \"contracts/SwapCart.sol\":3381:3402  itemCounter.current() */\n      jump\t// in\n    tag_83:\n        /* \"contracts/SwapCart.sol\":3375:3403  items[itemCounter.current()] */\n      dup2\n      mstore\n      0x20\n      add\n      swap1\n      dup2\n      mstore\n      0x20\n      add\n      0x00\n      keccak256\n        /* \"contracts/SwapCart.sol\":3375:3408  items[itemCounter.current()].star */\n      0x02\n      add\n      sload\n        /* \"contracts/SwapCart.sol\":3307:3420  CreateSaleAdvert(itemCounter.current(),itmPrice,itmImage,itmDueDate,items[itemCounter.current()].star,msg.sender) */\n      mload(0x40)\n      tag_84\n      swap6\n      swap5\n      swap4\n      swap3\n      swap2\n      swap1\n      tag_85\n      jump\t// in\n    tag_84:\n      mload(0x40)\n      dup1\n      swap2\n      sub\n      swap1\n      log2\n        /* \"contracts/SwapCart.sol\":2759:3428  function createSaleAdvert(uint itmPrice, string memory itmImage, uint32 itmDueDate) external ownerCheck(msg.sender){\r... */\n      pop\n      pop\n      pop\n      pop\n      jump\t// out\n        /* \"contracts/SwapCart.sol\":3436:3592  function getEntireItems() public listSizeCheck returns (Item[] memory) {\r... */\n    tag_26:\n        /* \"contracts/SwapCart.sol\":3492:3505  Item[] memory */\n      0x60\n        /* \"contracts/SwapCart.sol\":1901:1902  0 */\n      0x00\n        /* \"contracts/SwapCart.sol\":1877:1898  itemCounter.current() */\n      tag_87\n        /* \"contracts/SwapCart.sol\":1877:1888  itemCounter */\n      0x04\n        /* \"contracts/SwapCart.sol\":1877:1896  itemCounter.current */\n      tag_67\n        /* \"contracts/SwapCart.sol\":1877:1898  itemCounter.current() */\n      jump\t// in\n    tag_87:\n        /* \"contracts/SwapCart.sol\":1877:1902  itemCounter.current() > 0 */\n      gt\n        /* \"contracts/SwapCart.sol\":1869:1941  require(itemCounter.current() > 0, \"There are no products to list yet!\") */\n      tag_88\n      jumpi\n      mload(0x40)\n      0x08c379a000000000000000000000000000000000000000000000000000000000\n      dup2\n      mstore\n      0x04\n      add\n      tag_89\n      swap1\n      tag_90\n      jump\t// in\n    tag_89:\n      mload(0x40)\n      dup1\n      swap2\n      sub\n      swap1\n      revert\n    tag_88:\n        /* \"contracts/SwapCart.sol\":3547:3557  msg.sender */\n      caller\n        /* \"contracts/SwapCart.sol\":3523:3558  GetEntireItems(itemList,msg.sender) */\n      0xffffffffffffffffffffffffffffffffffffffff\n      and\n      0x440c078a5e11bff85c6b6d7c52f378c8220355bd3331ec889638c0eca883670c\n        /* \"contracts/SwapCart.sol\":3538:3546  itemList */\n      0x01\n        /* \"contracts/SwapCart.sol\":3523:3558  GetEntireItems(itemList,msg.sender) */\n      mload(0x40)\n      tag_92\n      swap2\n      swap1\n      tag_93\n      jump\t// in\n    tag_92:\n      mload(0x40)\n      dup1\n      swap2\n      sub\n      swap1\n      log2\n        /* \"contracts/SwapCart.sol\":3576:3584  itemList */\n      0x01\n        /* \"contracts/SwapCart.sol\":3569:3584  return itemList */\n      dup1\n      sload\n      dup1\n      0x20\n      mul\n      0x20\n      add\n      mload(0x40)\n      swap1\n      dup2\n      add\n      0x40\n      mstore\n      dup1\n      swap3\n      swap2\n      swap1\n      dup2\n      dup2\n      mstore\n      0x20\n      add\n      0x00\n      swap1\n    tag_94:\n      dup3\n      dup3\n      lt\n      iszero\n      tag_95\n      jumpi\n      dup4\n      dup3\n      swap1\n      0x00\n      mstore\n      keccak256(0x00, 0x20)\n      swap1\n      0x06\n      mul\n      add\n      mload(0x40)\n      dup1\n      0xc0\n      add\n      0x40\n      mstore\n      swap1\n      dup2\n      0x00\n      dup3\n      add\n      sload\n      dup2\n      mstore\n      0x20\n      add\n      0x01\n      dup3\n      add\n      dup1\n      sload\n      tag_97\n      swap1\n      tag_58\n      jump\t// in\n    tag_97:\n      dup1\n      0x1f\n      add\n      0x20\n      dup1\n      swap2\n      div\n      mul\n      0x20\n      add\n      mload(0x40)\n      swap1\n      dup2\n      add\n      0x40\n      mstore\n      dup1\n      swap3\n      swap2\n      swap1\n      dup2\n      dup2\n      mstore\n      0x20\n      add\n      dup3\n      dup1\n      sload\n      tag_98\n      swap1\n      tag_58\n      jump\t// in\n    tag_98:\n      dup1\n      iszero\n      tag_99\n      jumpi\n      dup1\n      0x1f\n      lt\n      tag_100\n      jumpi\n      0x0100\n      dup1\n      dup4\n      sload\n      div\n      mul\n      dup4\n      mstore\n      swap2\n      0x20\n      add\n      swap2\n      jump(tag_99)\n    tag_100:\n      dup3\n      add\n      swap2\n      swap1\n      0x00\n      mstore\n      keccak256(0x00, 0x20)\n      swap1\n    tag_101:\n      dup2\n      sload\n      dup2\n      mstore\n      swap1\n      0x01\n      add\n      swap1\n      0x20\n      add\n      dup1\n      dup4\n      gt\n      tag_101\n      jumpi\n      dup3\n      swap1\n      sub\n      0x1f\n      and\n      dup3\n      add\n      swap2\n    tag_99:\n      pop\n      pop\n      pop\n      pop\n      pop\n      dup2\n      mstore\n      0x20\n      add\n      0x02\n      dup3\n      add\n      sload\n      dup2\n      mstore\n      0x20\n      add\n      0x03\n      dup3\n      add\n      0x00\n      swap1\n      sload\n      swap1\n      0x0100\n      exp\n      swap1\n      div\n      0xffffffffffffffffffffffffffffffffffffffff\n      and\n      0xffffffffffffffffffffffffffffffffffffffff\n      and\n      0xffffffffffffffffffffffffffffffffffffffff\n      and\n      dup2\n      mstore\n      0x20\n      add\n      0x04\n      dup3\n      add\n      sload\n      dup2\n      mstore\n      0x20\n      add\n      0x05\n      dup3\n      add\n      0x00\n      swap1\n      sload\n      swap1\n      0x0100\n      exp\n      swap1\n      div\n      0xffffffff\n      and\n      0xffffffff\n      and\n      0xffffffff\n      and\n      dup2\n      mstore\n      pop\n      pop\n      dup2\n      mstore\n      0x20\n      add\n      swap1\n      0x01\n      add\n      swap1\n      jump(tag_94)\n    tag_95:\n      pop\n      pop\n      pop\n      pop\n      swap1\n      pop\n        /* \"contracts/SwapCart.sol\":3436:3592  function getEntireItems() public listSizeCheck returns (Item[] memory) {\r... */\n      swap1\n      jump\t// out\n        /* \"contracts/SwapCart.sol\":606:643  mapping(address => User) public users */\n    tag_32:\n      mstore(0x20, 0x02)\n      dup1\n      0x00\n      mstore\n      keccak256(0x00, 0x40)\n      0x00\n      swap2\n      pop\n      swap1\n      pop\n      dup1\n      0x00\n      add\n      sload\n      swap1\n      dup1\n      0x01\n      add\n      dup1\n      sload\n      tag_102\n      swap1\n      tag_58\n      jump\t// in\n    tag_102:\n      dup1\n      0x1f\n      add\n      0x20\n      dup1\n      swap2\n      div\n      mul\n      0x20\n      add\n      mload(0x40)\n      swap1\n      dup2\n      add\n      0x40\n      mstore\n      dup1\n      swap3\n      swap2\n      swap1\n      dup2\n      dup2\n      mstore\n      0x20\n      add\n      dup3\n      dup1\n      sload\n      tag_103\n      swap1\n      tag_58\n      jump\t// in\n    tag_103:\n      dup1\n      iszero\n      tag_104\n      jumpi\n      dup1\n      0x1f\n      lt\n      tag_105\n      jumpi\n      0x0100\n      dup1\n      dup4\n      sload\n      div\n      mul\n      dup4\n      mstore\n      swap2\n      0x20\n      add\n      swap2\n      jump(tag_104)\n    tag_105:\n      dup3\n      add\n      swap2\n      swap1\n      0x00\n      mstore\n      keccak256(0x00, 0x20)\n      swap1\n    tag_106:\n      dup2\n      sload\n      dup2\n      mstore\n      swap1\n      0x01\n      add\n      swap1\n      0x20\n      add\n      dup1\n      dup4\n      gt\n      tag_106\n      jumpi\n      dup3\n      swap1\n      sub\n      0x1f\n      and\n      dup3\n      add\n      swap2\n    tag_104:\n      pop\n      pop\n      pop\n      pop\n      pop\n      swap1\n      dup1\n      0x02\n      add\n      dup1\n      sload\n      tag_107\n      swap1\n      tag_58\n      jump\t// in\n    tag_107:\n      dup1\n      0x1f\n      add\n      0x20\n      dup1\n      swap2\n      div\n      mul\n      0x20\n      add\n      mload(0x40)\n      swap1\n      dup2\n      add\n      0x40\n      mstore\n      dup1\n      swap3\n      swap2\n      swap1\n      dup2\n      dup2\n      mstore\n      0x20\n      add\n      dup3\n      dup1\n      sload\n      tag_108\n      swap1\n      tag_58\n      jump\t// in\n    tag_108:\n      dup1\n      iszero\n      tag_109\n      jumpi\n      dup1\n      0x1f\n      lt\n      tag_110\n      jumpi\n      0x0100\n      dup1\n      dup4\n      sload\n      div\n      mul\n      dup4\n      mstore\n      swap2\n      0x20\n      add\n      swap2\n      jump(tag_109)\n    tag_110:\n      dup3\n      add\n      swap2\n      swap1\n      0x00\n      mstore\n      keccak256(0x00, 0x20)\n      swap1\n    tag_111:\n      dup2\n      sload\n      dup2\n      mstore\n      swap1\n      0x01\n      add\n      swap1\n      0x20\n      add\n      dup1\n      dup4\n      gt\n      tag_111\n      jumpi\n      dup3\n      swap1\n      sub\n      0x1f\n      and\n      dup3\n      add\n      swap2\n    tag_109:\n      pop\n      pop\n      pop\n      pop\n      pop\n      swap1\n      dup1\n      0x05\n      add\n      sload\n      swap1\n      pop\n      dup5\n      jump\t// out\n        /* \"contracts/SwapCart.sol\":650:687  mapping(uint256 => Item) public items */\n    tag_37:\n      mstore(0x20, 0x03)\n      dup1\n      0x00\n      mstore\n      keccak256(0x00, 0x40)\n      0x00\n      swap2\n      pop\n      swap1\n      pop\n      dup1\n      0x00\n      add\n      sload\n      swap1\n      dup1\n      0x01\n      add\n      dup1\n      sload\n      tag_112\n      swap1\n      tag_58\n      jump\t// in\n    tag_112:\n      dup1\n      0x1f\n      add\n      0x20\n      dup1\n      swap2\n      div\n      mul\n      0x20\n      add\n      mload(0x40)\n      swap1\n      dup2\n      add\n      0x40\n      mstore\n      dup1\n      swap3\n      swap2\n      swap1\n      dup2\n      dup2\n      mstore\n      0x20\n      add\n      dup3\n      dup1\n      sload\n      tag_113\n      swap1\n      tag_58\n      jump\t// in\n    tag_113:\n      dup1\n      iszero\n      tag_114\n      jumpi\n      dup1\n      0x1f\n      lt\n      tag_115\n      jumpi\n      0x0100\n      dup1\n      dup4\n      sload\n      div\n      mul\n      dup4\n      mstore\n      swap2\n      0x20\n      add\n      swap2\n      jump(tag_114)\n    tag_115:\n      dup3\n      add\n      swap2\n      swap1\n      0x00\n      mstore\n      keccak256(0x00, 0x20)\n      swap1\n    tag_116:\n      dup2\n      sload\n      dup2\n      mstore\n      swap1\n      0x01\n      add\n      swap1\n      0x20\n      add\n      dup1\n      dup4\n      gt\n      tag_116\n      jumpi\n      dup3\n      swap1\n      sub\n      0x1f\n      and\n      dup3\n      add\n      swap2\n    tag_114:\n      pop\n      pop\n      pop\n      pop\n      pop\n      swap1\n      dup1\n      0x02\n      add\n      sload\n      swap1\n      dup1\n      0x03\n      add\n      0x00\n      swap1\n      sload\n      swap1\n      0x0100\n      exp\n      swap1\n      div\n      0xffffffffffffffffffffffffffffffffffffffff\n      and\n      swap1\n      dup1\n      0x04\n      add\n      sload\n      swap1\n      dup1\n      0x05\n      add\n      0x00\n      swap1\n      sload\n      swap1\n      0x0100\n      exp\n      swap1\n      div\n      0xffffffff\n      and\n      swap1\n      pop\n      dup7\n      jump\t// out\n        /* \"contracts/SwapCart.sol\":3772:3877  function getItemById(uint itmId) public view returns (Item memory) {\r... */\n    tag_41:\n        /* \"contracts/SwapCart.sol\":3826:3837  Item memory */\n      tag_117\n      tag_118\n      jump\t// in\n    tag_117:\n        /* \"contracts/SwapCart.sol\":3857:3862  items */\n      0x03\n        /* \"contracts/SwapCart.sol\":3857:3869  items[itmId] */\n      0x00\n        /* \"contracts/SwapCart.sol\":3863:3868  itmId */\n      dup4\n        /* \"contracts/SwapCart.sol\":3857:3869  items[itmId] */\n      dup2\n      mstore\n      0x20\n      add\n      swap1\n      dup2\n      mstore\n      0x20\n      add\n      0x00\n      keccak256\n        /* \"contracts/SwapCart.sol\":3850:3869  return items[itmId] */\n      mload(0x40)\n      dup1\n      0xc0\n      add\n      0x40\n      mstore\n      swap1\n      dup2\n      0x00\n      dup3\n      add\n      sload\n      dup2\n      mstore\n      0x20\n      add\n      0x01\n      dup3\n      add\n      dup1\n      sload\n      tag_120\n      swap1\n      tag_58\n      jump\t// in\n    tag_120:\n      dup1\n      0x1f\n      add\n      0x20\n      dup1\n      swap2\n      div\n      mul\n      0x20\n      add\n      mload(0x40)\n      swap1\n      dup2\n      add\n      0x40\n      mstore\n      dup1\n      swap3\n      swap2\n      swap1\n      dup2\n      dup2\n      mstore\n      0x20\n      add\n      dup3\n      dup1\n      sload\n      tag_121\n      swap1\n      tag_58\n      jump\t// in\n    tag_121:\n      dup1\n      iszero\n      tag_122\n      jumpi\n      dup1\n      0x1f\n      lt\n      tag_123\n      jumpi\n      0x0100\n      dup1\n      dup4\n      sload\n      div\n      mul\n      dup4\n      mstore\n      swap2\n      0x20\n      add\n      swap2\n      jump(tag_122)\n    tag_123:\n      dup3\n      add\n      swap2\n      swap1\n      0x00\n      mstore\n      keccak256(0x00, 0x20)\n      swap1\n    tag_124:\n      dup2\n      sload\n      dup2\n      mstore\n      swap1\n      0x01\n      add\n      swap1\n      0x20\n      add\n      dup1\n      dup4\n      gt\n      tag_124\n      jumpi\n      dup3\n      swap1\n      sub\n      0x1f\n      and\n      dup3\n      add\n      swap2\n    tag_122:\n      pop\n      pop\n      pop\n      pop\n      pop\n      dup2\n      mstore\n      0x20\n      add\n      0x02\n      dup3\n      add\n      sload\n      dup2\n      mstore\n      0x20\n      add\n      0x03\n      dup3\n      add\n      0x00\n      swap1\n      sload\n      swap1\n      0x0100\n      exp\n      swap1\n      div\n      0xffffffffffffffffffffffffffffffffffffffff\n      and\n      0xffffffffffffffffffffffffffffffffffffffff\n      and\n      0xffffffffffffffffffffffffffffffffffffffff\n      and\n      dup2\n      mstore\n      0x20\n      add\n      0x04\n      dup3\n      add\n      sload\n      dup2\n      mstore\n      0x20\n      add\n      0x05\n      dup3\n      add\n      0x00\n      swap1\n      sload\n      swap1\n      0x0100\n      exp\n      swap1\n      div\n      0xffffffff\n      and\n      0xffffffff\n      and\n      0xffffffff\n      and\n      dup2\n      mstore\n      pop\n      pop\n      swap1\n      pop\n        /* \"contracts/SwapCart.sol\":3772:3877  function getItemById(uint itmId) public view returns (Item memory) {\r... */\n      swap2\n      swap1\n      pop\n      jump\t// out\n        /* \"contracts/SwapCart.sol\":549:568  IERC20 public token */\n    tag_45:\n      0x00\n      dup1\n      sload\n      swap1\n      0x0100\n      exp\n      swap1\n      div\n      0xffffffffffffffffffffffffffffffffffffffff\n      and\n      dup2\n      jump\t// out\n        /* \"@openzeppelin/contracts/utils/Counters.sol\":827:939  function current(Counter storage counter) internal view returns (uint256) {... */\n    tag_67:\n        /* \"@openzeppelin/contracts/utils/Counters.sol\":892:899  uint256 */\n      0x00\n        /* \"@openzeppelin/contracts/utils/Counters.sol\":918:925  counter */\n      dup2\n        /* \"@openzeppelin/contracts/utils/Counters.sol\":918:932  counter._value */\n      0x00\n      add\n      sload\n        /* \"@openzeppelin/contracts/utils/Counters.sol\":911:932  return counter._value */\n      swap1\n      pop\n        /* \"@openzeppelin/contracts/utils/Counters.sol\":827:939  function current(Counter storage counter) internal view returns (uint256) {... */\n      swap2\n      swap1\n      pop\n      jump\t// out\n        /* \"@openzeppelin/contracts/utils/Counters.sol\":945:1068  function increment(Counter storage counter) internal {... */\n    tag_81:\n        /* \"@openzeppelin/contracts/utils/Counters.sol\":1050:1051  1 */\n      0x01\n        /* \"@openzeppelin/contracts/utils/Counters.sol\":1032:1039  counter */\n      dup2\n        /* \"@openzeppelin/contracts/utils/Counters.sol\":1032:1046  counter._value */\n      0x00\n      add\n      0x00\n        /* \"@openzeppelin/contracts/utils/Counters.sol\":1032:1051  counter._value += 1 */\n      dup3\n      dup3\n      sload\n      add\n      swap3\n      pop\n      pop\n      dup2\n      swap1\n      sstore\n      pop\n        /* \"@openzeppelin/contracts/utils/Counters.sol\":945:1068  function increment(Counter storage counter) internal {... */\n      pop\n      jump\t// out\n    tag_70:\n      dup3\n      dup1\n      sload\n      tag_127\n      swap1\n      tag_58\n      jump\t// in\n    tag_127:\n      swap1\n      0x00\n      mstore\n      keccak256(0x00, 0x20)\n      swap1\n      0x1f\n      add\n      0x20\n      swap1\n      div\n      dup2\n      add\n      swap3\n      dup3\n      tag_129\n      jumpi\n      0x00\n      dup6\n      sstore\n      jump(tag_128)\n    tag_129:\n      dup3\n      0x1f\n      lt\n      tag_130\n      jumpi\n      dup1\n      mload\n      not(0xff)\n      and\n      dup4\n      dup1\n      add\n      or\n      dup6\n      sstore\n      jump(tag_128)\n    tag_130:\n      dup3\n      dup1\n      add\n      0x01\n      add\n      dup6\n      sstore\n      dup3\n      iszero\n      tag_128\n      jumpi\n      swap2\n      dup3\n      add\n    tag_131:\n      dup3\n      dup2\n      gt\n      iszero\n      tag_132\n      jumpi\n      dup3\n      mload\n      dup3\n      sstore\n      swap2\n      0x20\n      add\n      swap2\n      swap1\n      0x01\n      add\n      swap1\n      jump(tag_131)\n    tag_132:\n    tag_128:\n      pop\n      swap1\n      pop\n      tag_133\n      swap2\n      swap1\n      tag_134\n      jump\t// in\n    tag_133:\n      pop\n      swap1\n      jump\t// out\n    tag_75:\n      dup3\n      dup1\n      sload\n      tag_135\n      swap1\n      tag_58\n      jump\t// in\n    tag_135:\n      swap1\n      0x00\n      mstore\n      keccak256(0x00, 0x20)\n      swap1\n      0x1f\n      add\n      0x20\n      swap1\n      div\n      dup2\n      add\n      swap3\n      dup3\n      tag_137\n      jumpi\n      0x00\n      dup6\n      sstore\n      jump(tag_136)\n    tag_137:\n      dup3\n      0x1f\n      lt\n      tag_138\n      jumpi\n      dup1\n      sload\n      dup6\n      sstore\n      jump(tag_136)\n    tag_138:\n      dup3\n      dup1\n      add\n      0x01\n      add\n      dup6\n      sstore\n      dup3\n      iszero\n      tag_136\n      jumpi\n      0x00\n      mstore\n      keccak256(0x00, 0x20)\n      swap2\n      0x1f\n      add\n      0x20\n      swap1\n      div\n      dup3\n      add\n    tag_139:\n      dup3\n      dup2\n      gt\n      iszero\n      tag_140\n      jumpi\n      dup3\n      sload\n      dup3\n      sstore\n      swap2\n      0x01\n      add\n      swap2\n      swap1\n      0x01\n      add\n      swap1\n      jump(tag_139)\n    tag_140:\n    tag_136:\n      pop\n      swap1\n      pop\n      tag_141\n      swap2\n      swap1\n      tag_134\n      jump\t// in\n    tag_141:\n      pop\n      swap1\n      jump\t// out\n    tag_118:\n      mload(0x40)\n      dup1\n      0xc0\n      add\n      0x40\n      mstore\n      dup1\n      0x00\n      dup2\n      mstore\n      0x20\n      add\n      0x60\n      dup2\n      mstore\n      0x20\n      add\n      0x00\n      dup2\n      mstore\n      0x20\n      add\n      and(0xffffffffffffffffffffffffffffffffffffffff, 0x00)\n      dup2\n      mstore\n      0x20\n      add\n      0x00\n      dup2\n      mstore\n      0x20\n      add\n      and(0xffffffff, 0x00)\n      dup2\n      mstore\n      pop\n      swap1\n      jump\t// out\n    tag_134:\n    tag_142:\n      dup1\n      dup3\n      gt\n      iszero\n      tag_143\n      jumpi\n      0x00\n      dup2\n      0x00\n      swap1\n      sstore\n      pop\n      0x01\n      add\n      jump(tag_142)\n    tag_143:\n      pop\n      swap1\n      jump\t// out\n        /* \"#utility.yul\":7:419   */\n    tag_145:\n        /* \"#utility.yul\":85:90   */\n      0x00\n        /* \"#utility.yul\":110:176   */\n      tag_147\n        /* \"#utility.yul\":126:175   */\n      tag_148\n        /* \"#utility.yul\":168:174   */\n      dup5\n        /* \"#utility.yul\":126:175   */\n      tag_149\n      jump\t// in\n    tag_148:\n        /* \"#utility.yul\":110:176   */\n      tag_150\n      jump\t// in\n    tag_147:\n        /* \"#utility.yul\":101:176   */\n      swap1\n      pop\n        /* \"#utility.yul\":199:205   */\n      dup3\n        /* \"#utility.yul\":192:197   */\n      dup2\n        /* \"#utility.yul\":185:206   */\n      mstore\n        /* \"#utility.yul\":237:241   */\n      0x20\n        /* \"#utility.yul\":230:235   */\n      dup2\n        /* \"#utility.yul\":226:242   */\n      add\n        /* \"#utility.yul\":275:278   */\n      dup5\n        /* \"#utility.yul\":266:272   */\n      dup5\n        /* \"#utility.yul\":261:264   */\n      dup5\n        /* \"#utility.yul\":257:273   */\n      add\n        /* \"#utility.yul\":254:279   */\n      gt\n        /* \"#utility.yul\":251:363   */\n      iszero\n      tag_151\n      jumpi\n        /* \"#utility.yul\":282:361   */\n      tag_152\n      tag_153\n      jump\t// in\n    tag_152:\n        /* \"#utility.yul\":251:363   */\n    tag_151:\n        /* \"#utility.yul\":372:413   */\n      tag_154\n        /* \"#utility.yul\":406:412   */\n      dup5\n        /* \"#utility.yul\":401:404   */\n      dup3\n        /* \"#utility.yul\":396:399   */\n      dup6\n        /* \"#utility.yul\":372:413   */\n      tag_155\n      jump\t// in\n    tag_154:\n        /* \"#utility.yul\":91:419   */\n      pop\n        /* \"#utility.yul\":7:419   */\n      swap4\n      swap3\n      pop\n      pop\n      pop\n      jump\t// out\n        /* \"#utility.yul\":425:564   */\n    tag_156:\n        /* \"#utility.yul\":471:476   */\n      0x00\n        /* \"#utility.yul\":509:515   */\n      dup2\n        /* \"#utility.yul\":496:516   */\n      calldataload\n        /* \"#utility.yul\":487:516   */\n      swap1\n      pop\n        /* \"#utility.yul\":525:558   */\n      tag_158\n        /* \"#utility.yul\":552:557   */\n      dup2\n        /* \"#utility.yul\":525:558   */\n      tag_159\n      jump\t// in\n    tag_158:\n        /* \"#utility.yul\":425:564   */\n      swap3\n      swap2\n      pop\n      pop\n      jump\t// out\n        /* \"#utility.yul\":584:924   */\n    tag_160:\n        /* \"#utility.yul\":640:645   */\n      0x00\n        /* \"#utility.yul\":689:692   */\n      dup3\n        /* \"#utility.yul\":682:686   */\n      0x1f\n        /* \"#utility.yul\":674:680   */\n      dup4\n        /* \"#utility.yul\":670:687   */\n      add\n        /* \"#utility.yul\":666:693   */\n      slt\n        /* \"#utility.yul\":656:778   */\n      tag_162\n      jumpi\n        /* \"#utility.yul\":697:776   */\n      tag_163\n      tag_164\n      jump\t// in\n    tag_163:\n        /* \"#utility.yul\":656:778   */\n    tag_162:\n        /* \"#utility.yul\":814:820   */\n      dup2\n        /* \"#utility.yul\":801:821   */\n      calldataload\n        /* \"#utility.yul\":839:918   */\n      tag_165\n        /* \"#utility.yul\":914:917   */\n      dup5\n        /* \"#utility.yul\":906:912   */\n      dup3\n        /* \"#utility.yul\":899:903   */\n      0x20\n        /* \"#utility.yul\":891:897   */\n      dup7\n        /* \"#utility.yul\":887:904   */\n      add\n        /* \"#utility.yul\":839:918   */\n      tag_145\n      jump\t// in\n    tag_165:\n        /* \"#utility.yul\":830:918   */\n      swap2\n      pop\n        /* \"#utility.yul\":646:924   */\n      pop\n        /* \"#utility.yul\":584:924   */\n      swap3\n      swap2\n      pop\n      pop\n      jump\t// out\n        /* \"#utility.yul\":930:1069   */\n    tag_166:\n        /* \"#utility.yul\":976:981   */\n      0x00\n        /* \"#utility.yul\":1014:1020   */\n      dup2\n        /* \"#utility.yul\":1001:1021   */\n      calldataload\n        /* \"#utility.yul\":992:1021   */\n      swap1\n      pop\n        /* \"#utility.yul\":1030:1063   */\n      tag_168\n        /* \"#utility.yul\":1057:1062   */\n      dup2\n        /* \"#utility.yul\":1030:1063   */\n      tag_169\n      jump\t// in\n    tag_168:\n        /* \"#utility.yul\":930:1069   */\n      swap3\n      swap2\n      pop\n      pop\n      jump\t// out\n        /* \"#utility.yul\":1075:1212   */\n    tag_170:\n        /* \"#utility.yul\":1120:1125   */\n      0x00\n        /* \"#utility.yul\":1158:1164   */\n      dup2\n        /* \"#utility.yul\":1145:1165   */\n      calldataload\n        /* \"#utility.yul\":1136:1165   */\n      swap1\n      pop\n        /* \"#utility.yul\":1174:1206   */\n      tag_172\n        /* \"#utility.yul\":1200:1205   */\n      dup2\n        /* \"#utility.yul\":1174:1206   */\n      tag_173\n      jump\t// in\n    tag_172:\n        /* \"#utility.yul\":1075:1212   */\n      swap3\n      swap2\n      pop\n      pop\n      jump\t// out\n        /* \"#utility.yul\":1218:1547   */\n    tag_31:\n        /* \"#utility.yul\":1277:1283   */\n      0x00\n        /* \"#utility.yul\":1326:1328   */\n      0x20\n        /* \"#utility.yul\":1314:1323   */\n      dup3\n        /* \"#utility.yul\":1305:1312   */\n      dup5\n        /* \"#utility.yul\":1301:1324   */\n      sub\n        /* \"#utility.yul\":1297:1329   */\n      slt\n        /* \"#utility.yul\":1294:1413   */\n      iszero\n      tag_175\n      jumpi\n        /* \"#utility.yul\":1332:1411   */\n      tag_176\n      tag_177\n      jump\t// in\n    tag_176:\n        /* \"#utility.yul\":1294:1413   */\n    tag_175:\n        /* \"#utility.yul\":1452:1453   */\n      0x00\n        /* \"#utility.yul\":1477:1530   */\n      tag_178\n        /* \"#utility.yul\":1522:1529   */\n      dup5\n        /* \"#utility.yul\":1513:1519   */\n      dup3\n        /* \"#utility.yul\":1502:1511   */\n      dup6\n        /* \"#utility.yul\":1498:1520   */\n      add\n        /* \"#utility.yul\":1477:1530   */\n      tag_156\n      jump\t// in\n    tag_178:\n        /* \"#utility.yul\":1467:1530   */\n      swap2\n      pop\n        /* \"#utility.yul\":1423:1540   */\n      pop\n        /* \"#utility.yul\":1218:1547   */\n      swap3\n      swap2\n      pop\n      pop\n      jump\t// out\n        /* \"#utility.yul\":1553:1882   */\n    tag_14:\n        /* \"#utility.yul\":1612:1618   */\n      0x00\n        /* \"#utility.yul\":1661:1663   */\n      0x20\n        /* \"#utility.yul\":1649:1658   */\n      dup3\n        /* \"#utility.yul\":1640:1647   */\n      dup5\n        /* \"#utility.yul\":1636:1659   */\n      sub\n        /* \"#utility.yul\":1632:1664   */\n      slt\n        /* \"#utility.yul\":1629:1748   */\n      iszero\n      tag_180\n      jumpi\n        /* \"#utility.yul\":1667:1746   */\n      tag_181\n      tag_177\n      jump\t// in\n    tag_181:\n        /* \"#utility.yul\":1629:1748   */\n    tag_180:\n        /* \"#utility.yul\":1787:1788   */\n      0x00\n        /* \"#utility.yul\":1812:1865   */\n      tag_182\n        /* \"#utility.yul\":1857:1864   */\n      dup5\n        /* \"#utility.yul\":1848:1854   */\n      dup3\n        /* \"#utility.yul\":1837:1846   */\n      dup6\n        /* \"#utility.yul\":1833:1855   */\n      add\n        /* \"#utility.yul\":1812:1865   */\n      tag_166\n      jump\t// in\n    tag_182:\n        /* \"#utility.yul\":1802:1865   */\n      swap2\n      pop\n        /* \"#utility.yul\":1758:1875   */\n      pop\n        /* \"#utility.yul\":1553:1882   */\n      swap3\n      swap2\n      pop\n      pop\n      jump\t// out\n        /* \"#utility.yul\":1888:2685   */\n    tag_23:\n        /* \"#utility.yul\":1974:1980   */\n      0x00\n        /* \"#utility.yul\":1982:1988   */\n      dup1\n        /* \"#utility.yul\":1990:1996   */\n      0x00\n        /* \"#utility.yul\":2039:2041   */\n      0x60\n        /* \"#utility.yul\":2027:2036   */\n      dup5\n        /* \"#utility.yul\":2018:2025   */\n      dup7\n        /* \"#utility.yul\":2014:2037   */\n      sub\n        /* \"#utility.yul\":2010:2042   */\n      slt\n        /* \"#utility.yul\":2007:2126   */\n      iszero\n      tag_184\n      jumpi\n        /* \"#utility.yul\":2045:2124   */\n      tag_185\n      tag_177\n      jump\t// in\n    tag_185:\n        /* \"#utility.yul\":2007:2126   */\n    tag_184:\n        /* \"#utility.yul\":2165:2166   */\n      0x00\n        /* \"#utility.yul\":2190:2243   */\n      tag_186\n        /* \"#utility.yul\":2235:2242   */\n      dup7\n        /* \"#utility.yul\":2226:2232   */\n      dup3\n        /* \"#utility.yul\":2215:2224   */\n      dup8\n        /* \"#utility.yul\":2211:2233   */\n      add\n        /* \"#utility.yul\":2190:2243   */\n      tag_166\n      jump\t// in\n    tag_186:\n        /* \"#utility.yul\":2180:2243   */\n      swap4\n      pop\n        /* \"#utility.yul\":2136:2253   */\n      pop\n        /* \"#utility.yul\":2320:2322   */\n      0x20\n        /* \"#utility.yul\":2309:2318   */\n      dup5\n        /* \"#utility.yul\":2305:2323   */\n      add\n        /* \"#utility.yul\":2292:2324   */\n      calldataload\n        /* \"#utility.yul\":2351:2369   */\n      0xffffffffffffffff\n        /* \"#utility.yul\":2343:2349   */\n      dup2\n        /* \"#utility.yul\":2340:2370   */\n      gt\n        /* \"#utility.yul\":2337:2454   */\n      iszero\n      tag_187\n      jumpi\n        /* \"#utility.yul\":2373:2452   */\n      tag_188\n      tag_189\n      jump\t// in\n    tag_188:\n        /* \"#utility.yul\":2337:2454   */\n    tag_187:\n        /* \"#utility.yul\":2478:2541   */\n      tag_190\n        /* \"#utility.yul\":2533:2540   */\n      dup7\n        /* \"#utility.yul\":2524:2530   */\n      dup3\n        /* \"#utility.yul\":2513:2522   */\n      dup8\n        /* \"#utility.yul\":2509:2531   */\n      add\n        /* \"#utility.yul\":2478:2541   */\n      tag_160\n      jump\t// in\n    tag_190:\n        /* \"#utility.yul\":2468:2541   */\n      swap3\n      pop\n        /* \"#utility.yul\":2263:2551   */\n      pop\n        /* \"#utility.yul\":2590:2592   */\n      0x40\n        /* \"#utility.yul\":2616:2668   */\n      tag_191\n        /* \"#utility.yul\":2660:2667   */\n      dup7\n        /* \"#utility.yul\":2651:2657   */\n      dup3\n        /* \"#utility.yul\":2640:2649   */\n      dup8\n        /* \"#utility.yul\":2636:2658   */\n      add\n        /* \"#utility.yul\":2616:2668   */\n      tag_170\n      jump\t// in\n    tag_191:\n        /* \"#utility.yul\":2606:2668   */\n      swap2\n      pop\n        /* \"#utility.yul\":2561:2678   */\n      pop\n        /* \"#utility.yul\":1888:2685   */\n      swap3\n      pop\n      swap3\n      pop\n      swap3\n      jump\t// out\n        /* \"#utility.yul\":2691:2931   */\n    tag_192:\n        /* \"#utility.yul\":2802:2812   */\n      0x00\n        /* \"#utility.yul\":2837:2925   */\n      tag_194\n        /* \"#utility.yul\":2921:2924   */\n      dup4\n        /* \"#utility.yul\":2913:2919   */\n      dup4\n        /* \"#utility.yul\":2837:2925   */\n      tag_195\n      jump\t// in\n    tag_194:\n        /* \"#utility.yul\":2823:2925   */\n      swap1\n      pop\n        /* \"#utility.yul\":2691:2931   */\n      swap3\n      swap2\n      pop\n      pop\n      jump\t// out\n        /* \"#utility.yul\":2937:3171   */\n    tag_196:\n        /* \"#utility.yul\":3045:3055   */\n      0x00\n        /* \"#utility.yul\":3080:3165   */\n      tag_198\n        /* \"#utility.yul\":3161:3164   */\n      dup4\n        /* \"#utility.yul\":3153:3159   */\n      dup4\n        /* \"#utility.yul\":3080:3165   */\n      tag_199\n      jump\t// in\n    tag_198:\n        /* \"#utility.yul\":3066:3165   */\n      swap1\n      pop\n        /* \"#utility.yul\":2937:3171   */\n      swap3\n      swap2\n      pop\n      pop\n      jump\t// out\n        /* \"#utility.yul\":3177:3285   */\n    tag_200:\n        /* \"#utility.yul\":3254:3278   */\n      tag_202\n        /* \"#utility.yul\":3272:3277   */\n      dup2\n        /* \"#utility.yul\":3254:3278   */\n      tag_203\n      jump\t// in\n    tag_202:\n        /* \"#utility.yul\":3249:3252   */\n      dup3\n        /* \"#utility.yul\":3242:3279   */\n      mstore\n        /* \"#utility.yul\":3177:3285   */\n      pop\n      pop\n      jump\t// out\n        /* \"#utility.yul\":3291:3409   */\n    tag_204:\n        /* \"#utility.yul\":3378:3402   */\n      tag_206\n        /* \"#utility.yul\":3396:3401   */\n      dup2\n        /* \"#utility.yul\":3378:3402   */\n      tag_203\n      jump\t// in\n    tag_206:\n        /* \"#utility.yul\":3373:3376   */\n      dup3\n        /* \"#utility.yul\":3366:3403   */\n      mstore\n        /* \"#utility.yul\":3291:3409   */\n      pop\n      pop\n      jump\t// out\n        /* \"#utility.yul\":3471:4550   */\n    tag_207:\n        /* \"#utility.yul\":3632:3635   */\n      0x00\n        /* \"#utility.yul\":3661:3736   */\n      tag_209\n        /* \"#utility.yul\":3730:3735   */\n      dup3\n        /* \"#utility.yul\":3661:3736   */\n      tag_210\n      jump\t// in\n    tag_209:\n        /* \"#utility.yul\":3752:3859   */\n      tag_211\n        /* \"#utility.yul\":3852:3858   */\n      dup2\n        /* \"#utility.yul\":3847:3850   */\n      dup6\n        /* \"#utility.yul\":3752:3859   */\n      tag_212\n      jump\t// in\n    tag_211:\n        /* \"#utility.yul\":3745:3859   */\n      swap4\n      pop\n        /* \"#utility.yul\":3885:3888   */\n      dup4\n        /* \"#utility.yul\":3930:3934   */\n      0x20\n        /* \"#utility.yul\":3922:3928   */\n      dup3\n        /* \"#utility.yul\":3918:3935   */\n      mul\n        /* \"#utility.yul\":3913:3916   */\n      dup6\n        /* \"#utility.yul\":3909:3936   */\n      add\n        /* \"#utility.yul\":3960:4037   */\n      tag_213\n        /* \"#utility.yul\":4031:4036   */\n      dup6\n        /* \"#utility.yul\":3960:4037   */\n      tag_214\n      jump\t// in\n    tag_213:\n        /* \"#utility.yul\":4060:4067   */\n      dup1\n        /* \"#utility.yul\":4091:4092   */\n      0x00\n        /* \"#utility.yul\":4076:4505   */\n    tag_215:\n        /* \"#utility.yul\":4101:4107   */\n      dup6\n        /* \"#utility.yul\":4098:4099   */\n      dup2\n        /* \"#utility.yul\":4095:4108   */\n      lt\n        /* \"#utility.yul\":4076:4505   */\n      iszero\n      tag_217\n      jumpi\n        /* \"#utility.yul\":4172:4181   */\n      dup5\n        /* \"#utility.yul\":4166:4170   */\n      dup5\n        /* \"#utility.yul\":4162:4182   */\n      sub\n        /* \"#utility.yul\":4157:4160   */\n      dup10\n        /* \"#utility.yul\":4150:4183   */\n      mstore\n        /* \"#utility.yul\":4223:4229   */\n      dup2\n        /* \"#utility.yul\":4217:4230   */\n      mload\n        /* \"#utility.yul\":4251:4357   */\n      tag_218\n        /* \"#utility.yul\":4352:4356   */\n      dup6\n        /* \"#utility.yul\":4337:4350   */\n      dup3\n        /* \"#utility.yul\":4251:4357   */\n      tag_192\n      jump\t// in\n    tag_218:\n        /* \"#utility.yul\":4243:4357   */\n      swap5\n      pop\n        /* \"#utility.yul\":4380:4461   */\n      tag_219\n        /* \"#utility.yul\":4454:4460   */\n      dup4\n        /* \"#utility.yul\":4380:4461   */\n      tag_220\n      jump\t// in\n    tag_219:\n        /* \"#utility.yul\":4370:4461   */\n      swap3\n      pop\n        /* \"#utility.yul\":4490:4494   */\n      0x20\n        /* \"#utility.yul\":4485:4488   */\n      dup11\n        /* \"#utility.yul\":4481:4495   */\n      add\n        /* \"#utility.yul\":4474:4495   */\n      swap10\n      pop\n        /* \"#utility.yul\":4136:4505   */\n      pop\n        /* \"#utility.yul\":4123:4124   */\n      0x01\n        /* \"#utility.yul\":4120:4121   */\n      dup2\n        /* \"#utility.yul\":4116:4125   */\n      add\n        /* \"#utility.yul\":4111:4125   */\n      swap1\n      pop\n        /* \"#utility.yul\":4076:4505   */\n      jump(tag_215)\n    tag_217:\n        /* \"#utility.yul\":4080:4094   */\n      pop\n        /* \"#utility.yul\":4521:4525   */\n      dup3\n        /* \"#utility.yul\":4514:4525   */\n      swap8\n      pop\n        /* \"#utility.yul\":4541:4544   */\n      dup8\n        /* \"#utility.yul\":4534:4544   */\n      swap6\n      pop\n        /* \"#utility.yul\":3637:4550   */\n      pop\n      pop\n      pop\n      pop\n      pop\n        /* \"#utility.yul\":3471:4550   */\n      swap3\n      swap2\n      pop\n      pop\n      jump\t// out\n        /* \"#utility.yul\":4612:5657   */\n    tag_221:\n        /* \"#utility.yul\":4767:4770   */\n      0x00\n        /* \"#utility.yul\":4796:4865   */\n      tag_223\n        /* \"#utility.yul\":4859:4864   */\n      dup3\n        /* \"#utility.yul\":4796:4865   */\n      tag_224\n      jump\t// in\n    tag_223:\n        /* \"#utility.yul\":4881:4988   */\n      tag_225\n        /* \"#utility.yul\":4981:4987   */\n      dup2\n        /* \"#utility.yul\":4976:4979   */\n      dup6\n        /* \"#utility.yul\":4881:4988   */\n      tag_212\n      jump\t// in\n    tag_225:\n        /* \"#utility.yul\":4874:4988   */\n      swap4\n      pop\n        /* \"#utility.yul\":5014:5017   */\n      dup4\n        /* \"#utility.yul\":5059:5063   */\n      0x20\n        /* \"#utility.yul\":5051:5057   */\n      dup3\n        /* \"#utility.yul\":5047:5064   */\n      mul\n        /* \"#utility.yul\":5042:5045   */\n      dup6\n        /* \"#utility.yul\":5038:5065   */\n      add\n        /* \"#utility.yul\":5089:5160   */\n      tag_226\n        /* \"#utility.yul\":5154:5159   */\n      dup6\n        /* \"#utility.yul\":5089:5160   */\n      tag_227\n      jump\t// in\n    tag_226:\n        /* \"#utility.yul\":5183:5190   */\n      dup1\n        /* \"#utility.yul\":5214:5215   */\n      0x00\n        /* \"#utility.yul\":5199:5612   */\n    tag_228:\n        /* \"#utility.yul\":5224:5230   */\n      dup6\n        /* \"#utility.yul\":5221:5222   */\n      dup2\n        /* \"#utility.yul\":5218:5231   */\n      lt\n        /* \"#utility.yul\":5199:5612   */\n      iszero\n      tag_230\n      jumpi\n        /* \"#utility.yul\":5295:5304   */\n      dup5\n        /* \"#utility.yul\":5289:5293   */\n      dup5\n        /* \"#utility.yul\":5285:5305   */\n      sub\n        /* \"#utility.yul\":5280:5283   */\n      dup10\n        /* \"#utility.yul\":5273:5306   */\n      mstore\n        /* \"#utility.yul\":5340:5346   */\n      dup2\n        /* \"#utility.yul\":5367:5470   */\n      tag_231\n        /* \"#utility.yul\":5465:5469   */\n      dup6\n        /* \"#utility.yul\":5450:5463   */\n      dup3\n        /* \"#utility.yul\":5367:5470   */\n      tag_196\n      jump\t// in\n    tag_231:\n        /* \"#utility.yul\":5359:5470   */\n      swap5\n      pop\n        /* \"#utility.yul\":5493:5568   */\n      tag_232\n        /* \"#utility.yul\":5561:5567   */\n      dup4\n        /* \"#utility.yul\":5493:5568   */\n      tag_233\n      jump\t// in\n    tag_232:\n        /* \"#utility.yul\":5483:5568   */\n      swap3\n      pop\n        /* \"#utility.yul\":5597:5601   */\n      0x20\n        /* \"#utility.yul\":5592:5595   */\n      dup11\n        /* \"#utility.yul\":5588:5602   */\n      add\n        /* \"#utility.yul\":5581:5602   */\n      swap10\n      pop\n        /* \"#utility.yul\":5259:5612   */\n      pop\n        /* \"#utility.yul\":5246:5247   */\n      0x01\n        /* \"#utility.yul\":5243:5244   */\n      dup2\n        /* \"#utility.yul\":5239:5248   */\n      add\n        /* \"#utility.yul\":5234:5248   */\n      swap1\n      pop\n        /* \"#utility.yul\":5199:5612   */\n      jump(tag_228)\n    tag_230:\n        /* \"#utility.yul\":5203:5217   */\n      pop\n        /* \"#utility.yul\":5628:5632   */\n      dup3\n        /* \"#utility.yul\":5621:5632   */\n      swap8\n      pop\n        /* \"#utility.yul\":5648:5651   */\n      dup8\n        /* \"#utility.yul\":5641:5651   */\n      swap6\n      pop\n        /* \"#utility.yul\":4772:5657   */\n      pop\n      pop\n      pop\n      pop\n      pop\n        /* \"#utility.yul\":4612:5657   */\n      swap3\n      swap2\n      pop\n      pop\n      jump\t// out\n        /* \"#utility.yul\":5663:5822   */\n    tag_234:\n        /* \"#utility.yul\":5764:5815   */\n      tag_236\n        /* \"#utility.yul\":5809:5814   */\n      dup2\n        /* \"#utility.yul\":5764:5815   */\n      tag_237\n      jump\t// in\n    tag_236:\n        /* \"#utility.yul\":5759:5762   */\n      dup3\n        /* \"#utility.yul\":5752:5816   */\n      mstore\n        /* \"#utility.yul\":5663:5822   */\n      pop\n      pop\n      jump\t// out\n        /* \"#utility.yul\":5828:6172   */\n    tag_238:\n        /* \"#utility.yul\":5906:5909   */\n      0x00\n        /* \"#utility.yul\":5934:5973   */\n      tag_240\n        /* \"#utility.yul\":5967:5972   */\n      dup3\n        /* \"#utility.yul\":5934:5973   */\n      tag_241\n      jump\t// in\n    tag_240:\n        /* \"#utility.yul\":5989:6050   */\n      tag_242\n        /* \"#utility.yul\":6043:6049   */\n      dup2\n        /* \"#utility.yul\":6038:6041   */\n      dup6\n        /* \"#utility.yul\":5989:6050   */\n      tag_243\n      jump\t// in\n    tag_242:\n        /* \"#utility.yul\":5982:6050   */\n      swap4\n      pop\n        /* \"#utility.yul\":6059:6111   */\n      tag_244\n        /* \"#utility.yul\":6104:6110   */\n      dup2\n        /* \"#utility.yul\":6099:6102   */\n      dup6\n        /* \"#utility.yul\":6092:6096   */\n      0x20\n        /* \"#utility.yul\":6085:6090   */\n      dup7\n        /* \"#utility.yul\":6081:6097   */\n      add\n        /* \"#utility.yul\":6059:6111   */\n      tag_245\n      jump\t// in\n    tag_244:\n        /* \"#utility.yul\":6136:6165   */\n      tag_246\n        /* \"#utility.yul\":6158:6164   */\n      dup2\n        /* \"#utility.yul\":6136:6165   */\n      tag_247\n      jump\t// in\n    tag_246:\n        /* \"#utility.yul\":6131:6134   */\n      dup5\n        /* \"#utility.yul\":6127:6166   */\n      add\n        /* \"#utility.yul\":6120:6166   */\n      swap2\n      pop\n        /* \"#utility.yul\":5910:6172   */\n      pop\n        /* \"#utility.yul\":5828:6172   */\n      swap3\n      swap2\n      pop\n      pop\n      jump\t// out\n        /* \"#utility.yul\":6178:6542   */\n    tag_248:\n        /* \"#utility.yul\":6266:6269   */\n      0x00\n        /* \"#utility.yul\":6294:6333   */\n      tag_250\n        /* \"#utility.yul\":6327:6332   */\n      dup3\n        /* \"#utility.yul\":6294:6333   */\n      tag_241\n      jump\t// in\n    tag_250:\n        /* \"#utility.yul\":6349:6420   */\n      tag_251\n        /* \"#utility.yul\":6413:6419   */\n      dup2\n        /* \"#utility.yul\":6408:6411   */\n      dup6\n        /* \"#utility.yul\":6349:6420   */\n      tag_252\n      jump\t// in\n    tag_251:\n        /* \"#utility.yul\":6342:6420   */\n      swap4\n      pop\n        /* \"#utility.yul\":6429:6481   */\n      tag_253\n        /* \"#utility.yul\":6474:6480   */\n      dup2\n        /* \"#utility.yul\":6469:6472   */\n      dup6\n        /* \"#utility.yul\":6462:6466   */\n      0x20\n        /* \"#utility.yul\":6455:6460   */\n      dup7\n        /* \"#utility.yul\":6451:6467   */\n      add\n        /* \"#utility.yul\":6429:6481   */\n      tag_245\n      jump\t// in\n    tag_253:\n        /* \"#utility.yul\":6506:6535   */\n      tag_254\n        /* \"#utility.yul\":6528:6534   */\n      dup2\n        /* \"#utility.yul\":6506:6535   */\n      tag_247\n      jump\t// in\n    tag_254:\n        /* \"#utility.yul\":6501:6504   */\n      dup5\n        /* \"#utility.yul\":6497:6536   */\n      add\n        /* \"#utility.yul\":6490:6536   */\n      swap2\n      pop\n        /* \"#utility.yul\":6270:6542   */\n      pop\n        /* \"#utility.yul\":6178:6542   */\n      swap3\n      swap2\n      pop\n      pop\n      jump\t// out\n        /* \"#utility.yul\":6572:7354   */\n    tag_255:\n        /* \"#utility.yul\":6647:6650   */\n      0x00\n        /* \"#utility.yul\":6684:6689   */\n      dup2\n        /* \"#utility.yul\":6678:6690   */\n      sload\n        /* \"#utility.yul\":6713:6749   */\n      tag_257\n        /* \"#utility.yul\":6739:6748   */\n      dup2\n        /* \"#utility.yul\":6713:6749   */\n      tag_58\n      jump\t// in\n    tag_257:\n        /* \"#utility.yul\":6765:6826   */\n      tag_258\n        /* \"#utility.yul\":6819:6825   */\n      dup2\n        /* \"#utility.yul\":6814:6817   */\n      dup7\n        /* \"#utility.yul\":6765:6826   */\n      tag_243\n      jump\t// in\n    tag_258:\n        /* \"#utility.yul\":6758:6826   */\n      swap5\n      pop\n        /* \"#utility.yul\":6857:6858   */\n      0x01\n        /* \"#utility.yul\":6846:6855   */\n      dup3\n        /* \"#utility.yul\":6842:6859   */\n      and\n        /* \"#utility.yul\":6873:6874   */\n      0x00\n        /* \"#utility.yul\":6868:7003   */\n      dup2\n      eq\n      tag_260\n      jumpi\n        /* \"#utility.yul\":7017:7018   */\n      0x01\n        /* \"#utility.yul\":7012:7348   */\n      dup2\n      eq\n      tag_261\n      jumpi\n        /* \"#utility.yul\":6835:7348   */\n      jump(tag_259)\n        /* \"#utility.yul\":6868:7003   */\n    tag_260:\n        /* \"#utility.yul\":6952:6956   */\n      0xff\n        /* \"#utility.yul\":6948:6957   */\n      not\n        /* \"#utility.yul\":6937:6946   */\n      dup4\n        /* \"#utility.yul\":6933:6958   */\n      and\n        /* \"#utility.yul\":6928:6931   */\n      dup7\n        /* \"#utility.yul\":6921:6959   */\n      mstore\n        /* \"#utility.yul\":6988:6992   */\n      0x20\n        /* \"#utility.yul\":6983:6986   */\n      dup7\n        /* \"#utility.yul\":6979:6993   */\n      add\n        /* \"#utility.yul\":6972:6993   */\n      swap4\n      pop\n        /* \"#utility.yul\":6868:7003   */\n      jump(tag_259)\n        /* \"#utility.yul\":7012:7348   */\n    tag_261:\n        /* \"#utility.yul\":7079:7117   */\n      tag_262\n        /* \"#utility.yul\":7111:7116   */\n      dup6\n        /* \"#utility.yul\":7079:7117   */\n      tag_263\n      jump\t// in\n    tag_262:\n        /* \"#utility.yul\":7139:7140   */\n      0x00\n        /* \"#utility.yul\":7153:7307   */\n    tag_264:\n        /* \"#utility.yul\":7167:7173   */\n      dup4\n        /* \"#utility.yul\":7164:7165   */\n      dup2\n        /* \"#utility.yul\":7161:7174   */\n      lt\n        /* \"#utility.yul\":7153:7307   */\n      iszero\n      tag_266\n      jumpi\n        /* \"#utility.yul\":7241:7248   */\n      dup2\n        /* \"#utility.yul\":7235:7249   */\n      sload\n        /* \"#utility.yul\":7231:7232   */\n      dup2\n        /* \"#utility.yul\":7226:7229   */\n      dup10\n        /* \"#utility.yul\":7222:7233   */\n      add\n        /* \"#utility.yul\":7215:7250   */\n      mstore\n        /* \"#utility.yul\":7291:7292   */\n      0x01\n        /* \"#utility.yul\":7282:7289   */\n      dup3\n        /* \"#utility.yul\":7278:7293   */\n      add\n        /* \"#utility.yul\":7267:7293   */\n      swap2\n      pop\n        /* \"#utility.yul\":7189:7193   */\n      0x20\n        /* \"#utility.yul\":7186:7187   */\n      dup2\n        /* \"#utility.yul\":7182:7194   */\n      add\n        /* \"#utility.yul\":7177:7194   */\n      swap1\n      pop\n        /* \"#utility.yul\":7153:7307   */\n      jump(tag_264)\n    tag_266:\n        /* \"#utility.yul\":7336:7337   */\n      dup1\n        /* \"#utility.yul\":7331:7334   */\n      dup9\n        /* \"#utility.yul\":7327:7338   */\n      add\n        /* \"#utility.yul\":7320:7338   */\n      swap6\n      pop\n        /* \"#utility.yul\":7019:7348   */\n      pop\n      pop\n        /* \"#utility.yul\":6835:7348   */\n    tag_259:\n      pop\n        /* \"#utility.yul\":6651:7354   */\n      pop\n      pop\n        /* \"#utility.yul\":6572:7354   */\n      swap3\n      swap2\n      pop\n      pop\n      jump\t// out\n        /* \"#utility.yul\":7360:7726   */\n    tag_267:\n        /* \"#utility.yul\":7502:7505   */\n      0x00\n        /* \"#utility.yul\":7523:7590   */\n      tag_269\n        /* \"#utility.yul\":7587:7589   */\n      0x22\n        /* \"#utility.yul\":7582:7585   */\n      dup4\n        /* \"#utility.yul\":7523:7590   */\n      tag_252\n      jump\t// in\n    tag_269:\n        /* \"#utility.yul\":7516:7590   */\n      swap2\n      pop\n        /* \"#utility.yul\":7599:7692   */\n      tag_270\n        /* \"#utility.yul\":7688:7691   */\n      dup3\n        /* \"#utility.yul\":7599:7692   */\n      tag_271\n      jump\t// in\n    tag_270:\n        /* \"#utility.yul\":7717:7719   */\n      0x40\n        /* \"#utility.yul\":7712:7715   */\n      dup3\n        /* \"#utility.yul\":7708:7720   */\n      add\n        /* \"#utility.yul\":7701:7720   */\n      swap1\n      pop\n        /* \"#utility.yul\":7360:7726   */\n      swap2\n      swap1\n      pop\n      jump\t// out\n        /* \"#utility.yul\":7784:9079   */\n    tag_195:\n        /* \"#utility.yul\":7885:7888   */\n      0x00\n        /* \"#utility.yul\":7921:7925   */\n      0xc0\n        /* \"#utility.yul\":7916:7919   */\n      dup4\n        /* \"#utility.yul\":7912:7926   */\n      add\n        /* \"#utility.yul\":8010:8014   */\n      0x00\n        /* \"#utility.yul\":8003:8008   */\n      dup4\n        /* \"#utility.yul\":7999:8015   */\n      add\n        /* \"#utility.yul\":7993:8016   */\n      mload\n        /* \"#utility.yul\":8029:8092   */\n      tag_273\n        /* \"#utility.yul\":8086:8090   */\n      0x00\n        /* \"#utility.yul\":8081:8084   */\n      dup7\n        /* \"#utility.yul\":8077:8091   */\n      add\n        /* \"#utility.yul\":8063:8075   */\n      dup3\n        /* \"#utility.yul\":8029:8092   */\n      tag_274\n      jump\t// in\n    tag_273:\n        /* \"#utility.yul\":7936:8102   */\n      pop\n        /* \"#utility.yul\":8189:8193   */\n      0x20\n        /* \"#utility.yul\":8182:8187   */\n      dup4\n        /* \"#utility.yul\":8178:8194   */\n      add\n        /* \"#utility.yul\":8172:8195   */\n      mload\n        /* \"#utility.yul\":8242:8245   */\n      dup5\n        /* \"#utility.yul\":8236:8240   */\n      dup3\n        /* \"#utility.yul\":8232:8246   */\n      sub\n        /* \"#utility.yul\":8225:8229   */\n      0x20\n        /* \"#utility.yul\":8220:8223   */\n      dup7\n        /* \"#utility.yul\":8216:8230   */\n      add\n        /* \"#utility.yul\":8209:8247   */\n      mstore\n        /* \"#utility.yul\":8268:8341   */\n      tag_275\n        /* \"#utility.yul\":8336:8340   */\n      dup3\n        /* \"#utility.yul\":8322:8334   */\n      dup3\n        /* \"#utility.yul\":8268:8341   */\n      tag_238\n      jump\t// in\n    tag_275:\n        /* \"#utility.yul\":8260:8341   */\n      swap2\n      pop\n        /* \"#utility.yul\":8112:8352   */\n      pop\n        /* \"#utility.yul\":8434:8438   */\n      0x40\n        /* \"#utility.yul\":8427:8432   */\n      dup4\n        /* \"#utility.yul\":8423:8439   */\n      add\n        /* \"#utility.yul\":8417:8440   */\n      mload\n        /* \"#utility.yul\":8453:8516   */\n      tag_276\n        /* \"#utility.yul\":8510:8514   */\n      0x40\n        /* \"#utility.yul\":8505:8508   */\n      dup7\n        /* \"#utility.yul\":8501:8515   */\n      add\n        /* \"#utility.yul\":8487:8499   */\n      dup3\n        /* \"#utility.yul\":8453:8516   */\n      tag_274\n      jump\t// in\n    tag_276:\n        /* \"#utility.yul\":8362:8526   */\n      pop\n        /* \"#utility.yul\":8610:8614   */\n      0x60\n        /* \"#utility.yul\":8603:8608   */\n      dup4\n        /* \"#utility.yul\":8599:8615   */\n      add\n        /* \"#utility.yul\":8593:8616   */\n      mload\n        /* \"#utility.yul\":8629:8692   */\n      tag_277\n        /* \"#utility.yul\":8686:8690   */\n      0x60\n        /* \"#utility.yul\":8681:8684   */\n      dup7\n        /* \"#utility.yul\":8677:8691   */\n      add\n        /* \"#utility.yul\":8663:8675   */\n      dup3\n        /* \"#utility.yul\":8629:8692   */\n      tag_200\n      jump\t// in\n    tag_277:\n        /* \"#utility.yul\":8536:8702   */\n      pop\n        /* \"#utility.yul\":8785:8789   */\n      0x80\n        /* \"#utility.yul\":8778:8783   */\n      dup4\n        /* \"#utility.yul\":8774:8790   */\n      add\n        /* \"#utility.yul\":8768:8791   */\n      mload\n        /* \"#utility.yul\":8804:8867   */\n      tag_278\n        /* \"#utility.yul\":8861:8865   */\n      0x80\n        /* \"#utility.yul\":8856:8859   */\n      dup7\n        /* \"#utility.yul\":8852:8866   */\n      add\n        /* \"#utility.yul\":8838:8850   */\n      dup3\n        /* \"#utility.yul\":8804:8867   */\n      tag_274\n      jump\t// in\n    tag_278:\n        /* \"#utility.yul\":8712:8877   */\n      pop\n        /* \"#utility.yul\":8962:8966   */\n      0xa0\n        /* \"#utility.yul\":8955:8960   */\n      dup4\n        /* \"#utility.yul\":8951:8967   */\n      add\n        /* \"#utility.yul\":8945:8968   */\n      mload\n        /* \"#utility.yul\":8981:9042   */\n      tag_279\n        /* \"#utility.yul\":9036:9040   */\n      0xa0\n        /* \"#utility.yul\":9031:9034   */\n      dup7\n        /* \"#utility.yul\":9027:9041   */\n      add\n        /* \"#utility.yul\":9013:9025   */\n      dup3\n        /* \"#utility.yul\":8981:9042   */\n      tag_280\n      jump\t// in\n    tag_279:\n        /* \"#utility.yul\":8887:9052   */\n      pop\n        /* \"#utility.yul\":9069:9073   */\n      dup1\n        /* \"#utility.yul\":9062:9073   */\n      swap2\n      pop\n        /* \"#utility.yul\":7890:9079   */\n      pop\n        /* \"#utility.yul\":7784:9079   */\n      swap3\n      swap2\n      pop\n      pop\n      jump\t// out\n        /* \"#utility.yul\":9137:10442   */\n    tag_281:\n        /* \"#utility.yul\":9248:9251   */\n      0x00\n        /* \"#utility.yul\":9284:9288   */\n      0xc0\n        /* \"#utility.yul\":9279:9282   */\n      dup4\n        /* \"#utility.yul\":9275:9289   */\n      add\n        /* \"#utility.yul\":9373:9377   */\n      0x00\n        /* \"#utility.yul\":9366:9371   */\n      dup4\n        /* \"#utility.yul\":9362:9378   */\n      add\n        /* \"#utility.yul\":9356:9379   */\n      mload\n        /* \"#utility.yul\":9392:9455   */\n      tag_283\n        /* \"#utility.yul\":9449:9453   */\n      0x00\n        /* \"#utility.yul\":9444:9447   */\n      dup7\n        /* \"#utility.yul\":9440:9454   */\n      add\n        /* \"#utility.yul\":9426:9438   */\n      dup3\n        /* \"#utility.yul\":9392:9455   */\n      tag_274\n      jump\t// in\n    tag_283:\n        /* \"#utility.yul\":9299:9465   */\n      pop\n        /* \"#utility.yul\":9552:9556   */\n      0x20\n        /* \"#utility.yul\":9545:9550   */\n      dup4\n        /* \"#utility.yul\":9541:9557   */\n      add\n        /* \"#utility.yul\":9535:9558   */\n      mload\n        /* \"#utility.yul\":9605:9608   */\n      dup5\n        /* \"#utility.yul\":9599:9603   */\n      dup3\n        /* \"#utility.yul\":9595:9609   */\n      sub\n        /* \"#utility.yul\":9588:9592   */\n      0x20\n        /* \"#utility.yul\":9583:9586   */\n      dup7\n        /* \"#utility.yul\":9579:9593   */\n      add\n        /* \"#utility.yul\":9572:9610   */\n      mstore\n        /* \"#utility.yul\":9631:9704   */\n      tag_284\n        /* \"#utility.yul\":9699:9703   */\n      dup3\n        /* \"#utility.yul\":9685:9697   */\n      dup3\n        /* \"#utility.yul\":9631:9704   */\n      tag_238\n      jump\t// in\n    tag_284:\n        /* \"#utility.yul\":9623:9704   */\n      swap2\n      pop\n        /* \"#utility.yul\":9475:9715   */\n      pop\n        /* \"#utility.yul\":9797:9801   */\n      0x40\n        /* \"#utility.yul\":9790:9795   */\n      dup4\n        /* \"#utility.yul\":9786:9802   */\n      add\n        /* \"#utility.yul\":9780:9803   */\n      mload\n        /* \"#utility.yul\":9816:9879   */\n      tag_285\n        /* \"#utility.yul\":9873:9877   */\n      0x40\n        /* \"#utility.yul\":9868:9871   */\n      dup7\n        /* \"#utility.yul\":9864:9878   */\n      add\n        /* \"#utility.yul\":9850:9862   */\n      dup3\n        /* \"#utility.yul\":9816:9879   */\n      tag_274\n      jump\t// in\n    tag_285:\n        /* \"#utility.yul\":9725:9889   */\n      pop\n        /* \"#utility.yul\":9973:9977   */\n      0x60\n        /* \"#utility.yul\":9966:9971   */\n      dup4\n        /* \"#utility.yul\":9962:9978   */\n      add\n        /* \"#utility.yul\":9956:9979   */\n      mload\n        /* \"#utility.yul\":9992:10055   */\n      tag_286\n        /* \"#utility.yul\":10049:10053   */\n      0x60\n        /* \"#utility.yul\":10044:10047   */\n      dup7\n        /* \"#utility.yul\":10040:10054   */\n      add\n        /* \"#utility.yul\":10026:10038   */\n      dup3\n        /* \"#utility.yul\":9992:10055   */\n      tag_200\n      jump\t// in\n    tag_286:\n        /* \"#utility.yul\":9899:10065   */\n      pop\n        /* \"#utility.yul\":10148:10152   */\n      0x80\n        /* \"#utility.yul\":10141:10146   */\n      dup4\n        /* \"#utility.yul\":10137:10153   */\n      add\n        /* \"#utility.yul\":10131:10154   */\n      mload\n        /* \"#utility.yul\":10167:10230   */\n      tag_287\n        /* \"#utility.yul\":10224:10228   */\n      0x80\n        /* \"#utility.yul\":10219:10222   */\n      dup7\n        /* \"#utility.yul\":10215:10229   */\n      add\n        /* \"#utility.yul\":10201:10213   */\n      dup3\n        /* \"#utility.yul\":10167:10230   */\n      tag_274\n      jump\t// in\n    tag_287:\n        /* \"#utility.yul\":10075:10240   */\n      pop\n        /* \"#utility.yul\":10325:10329   */\n      0xa0\n        /* \"#utility.yul\":10318:10323   */\n      dup4\n        /* \"#utility.yul\":10314:10330   */\n      add\n        /* \"#utility.yul\":10308:10331   */\n      mload\n        /* \"#utility.yul\":10344:10405   */\n      tag_288\n        /* \"#utility.yul\":10399:10403   */\n      0xa0\n        /* \"#utility.yul\":10394:10397   */\n      dup7\n        /* \"#utility.yul\":10390:10404   */\n      add\n        /* \"#utility.yul\":10376:10388   */\n      dup3\n        /* \"#utility.yul\":10344:10405   */\n      tag_280\n      jump\t// in\n    tag_288:\n        /* \"#utility.yul\":10250:10415   */\n      pop\n        /* \"#utility.yul\":10432:10436   */\n      dup1\n        /* \"#utility.yul\":10425:10436   */\n      swap2\n      pop\n        /* \"#utility.yul\":9253:10442   */\n      pop\n        /* \"#utility.yul\":9137:10442   */\n      swap3\n      swap2\n      pop\n      pop\n      jump\t// out\n        /* \"#utility.yul\":10500:12208   */\n    tag_199:\n        /* \"#utility.yul\":10598:10601   */\n      0x00\n        /* \"#utility.yul\":10634:10638   */\n      0xc0\n        /* \"#utility.yul\":10629:10632   */\n      dup4\n        /* \"#utility.yul\":10625:10639   */\n      add\n        /* \"#utility.yul\":10665:10666   */\n      0x00\n        /* \"#utility.yul\":10742:10746   */\n      dup1\n        /* \"#utility.yul\":10735:10740   */\n      dup5\n        /* \"#utility.yul\":10731:10747   */\n      add\n        /* \"#utility.yul\":10725:10748   */\n      sload\n        /* \"#utility.yul\":10712:10748   */\n      swap1\n      pop\n        /* \"#utility.yul\":10781:10836   */\n      tag_290\n        /* \"#utility.yul\":10826:10835   */\n      dup2\n        /* \"#utility.yul\":10781:10836   */\n      tag_291\n      jump\t// in\n    tag_290:\n        /* \"#utility.yul\":10849:10912   */\n      tag_292\n        /* \"#utility.yul\":10906:10910   */\n      0x00\n        /* \"#utility.yul\":10901:10904   */\n      dup8\n        /* \"#utility.yul\":10897:10911   */\n      add\n        /* \"#utility.yul\":10883:10895   */\n      dup3\n        /* \"#utility.yul\":10849:10912   */\n      tag_274\n      jump\t// in\n    tag_292:\n        /* \"#utility.yul\":10676:10922   */\n      pop\n        /* \"#utility.yul\":11003:11007   */\n      0x01\n        /* \"#utility.yul\":10996:11001   */\n      dup5\n        /* \"#utility.yul\":10992:11008   */\n      add\n        /* \"#utility.yul\":11055:11058   */\n      dup6\n        /* \"#utility.yul\":11049:11053   */\n      dup4\n        /* \"#utility.yul\":11045:11059   */\n      sub\n        /* \"#utility.yul\":11038:11042   */\n      0x20\n        /* \"#utility.yul\":11033:11036   */\n      dup8\n        /* \"#utility.yul\":11029:11043   */\n      add\n        /* \"#utility.yul\":11022:11060   */\n      mstore\n        /* \"#utility.yul\":11081:11151   */\n      tag_293\n        /* \"#utility.yul\":11146:11150   */\n      dup4\n        /* \"#utility.yul\":11132:11144   */\n      dup3\n        /* \"#utility.yul\":11081:11151   */\n      tag_255\n      jump\t// in\n    tag_293:\n        /* \"#utility.yul\":11073:11151   */\n      swap3\n      pop\n        /* \"#utility.yul\":10932:11162   */\n      pop\n        /* \"#utility.yul\":11236:11240   */\n      0x02\n        /* \"#utility.yul\":11229:11234   */\n      dup5\n        /* \"#utility.yul\":11225:11241   */\n      add\n        /* \"#utility.yul\":11219:11242   */\n      sload\n        /* \"#utility.yul\":11206:11242   */\n      swap1\n      pop\n        /* \"#utility.yul\":11275:11330   */\n      tag_294\n        /* \"#utility.yul\":11320:11329   */\n      dup2\n        /* \"#utility.yul\":11275:11330   */\n      tag_291\n      jump\t// in\n    tag_294:\n        /* \"#utility.yul\":11343:11406   */\n      tag_295\n        /* \"#utility.yul\":11400:11404   */\n      0x40\n        /* \"#utility.yul\":11395:11398   */\n      dup8\n        /* \"#utility.yul\":11391:11405   */\n      add\n        /* \"#utility.yul\":11377:11389   */\n      dup3\n        /* \"#utility.yul\":11343:11406   */\n      tag_274\n      jump\t// in\n    tag_295:\n        /* \"#utility.yul\":11172:11416   */\n      pop\n        /* \"#utility.yul\":11492:11496   */\n      0x03\n        /* \"#utility.yul\":11485:11490   */\n      dup5\n        /* \"#utility.yul\":11481:11497   */\n      add\n        /* \"#utility.yul\":11475:11498   */\n      sload\n        /* \"#utility.yul\":11462:11498   */\n      swap1\n      pop\n        /* \"#utility.yul\":11531:11586   */\n      tag_296\n        /* \"#utility.yul\":11576:11585   */\n      dup2\n        /* \"#utility.yul\":11531:11586   */\n      tag_297\n      jump\t// in\n    tag_296:\n        /* \"#utility.yul\":11599:11662   */\n      tag_298\n        /* \"#utility.yul\":11656:11660   */\n      0x60\n        /* \"#utility.yul\":11651:11654   */\n      dup8\n        /* \"#utility.yul\":11647:11661   */\n      add\n        /* \"#utility.yul\":11633:11645   */\n      dup3\n        /* \"#utility.yul\":11599:11662   */\n      tag_200\n      jump\t// in\n    tag_298:\n        /* \"#utility.yul\":11426:11672   */\n      pop\n        /* \"#utility.yul\":11747:11751   */\n      0x04\n        /* \"#utility.yul\":11740:11745   */\n      dup5\n        /* \"#utility.yul\":11736:11752   */\n      add\n        /* \"#utility.yul\":11730:11753   */\n      sload\n        /* \"#utility.yul\":11717:11753   */\n      swap1\n      pop\n        /* \"#utility.yul\":11786:11841   */\n      tag_299\n        /* \"#utility.yul\":11831:11840   */\n      dup2\n        /* \"#utility.yul\":11786:11841   */\n      tag_291\n      jump\t// in\n    tag_299:\n        /* \"#utility.yul\":11854:11917   */\n      tag_300\n        /* \"#utility.yul\":11911:11915   */\n      0x80\n        /* \"#utility.yul\":11906:11909   */\n      dup8\n        /* \"#utility.yul\":11902:11916   */\n      add\n        /* \"#utility.yul\":11888:11900   */\n      dup3\n        /* \"#utility.yul\":11854:11917   */\n      tag_274\n      jump\t// in\n    tag_300:\n        /* \"#utility.yul\":11682:11927   */\n      pop\n        /* \"#utility.yul\":12004:12008   */\n      0x05\n        /* \"#utility.yul\":11997:12002   */\n      dup5\n        /* \"#utility.yul\":11993:12009   */\n      add\n        /* \"#utility.yul\":11987:12010   */\n      sload\n        /* \"#utility.yul\":11974:12010   */\n      swap1\n      pop\n        /* \"#utility.yul\":12043:12097   */\n      tag_301\n        /* \"#utility.yul\":12087:12096   */\n      dup2\n        /* \"#utility.yul\":12043:12097   */\n      tag_302\n      jump\t// in\n    tag_301:\n        /* \"#utility.yul\":12110:12171   */\n      tag_303\n        /* \"#utility.yul\":12165:12169   */\n      0xa0\n        /* \"#utility.yul\":12160:12163   */\n      dup8\n        /* \"#utility.yul\":12156:12170   */\n      add\n        /* \"#utility.yul\":12142:12154   */\n      dup3\n        /* \"#utility.yul\":12110:12171   */\n      tag_280\n      jump\t// in\n    tag_303:\n        /* \"#utility.yul\":11937:12181   */\n      pop\n        /* \"#utility.yul\":12198:12202   */\n      dup2\n        /* \"#utility.yul\":12191:12202   */\n      swap3\n      pop\n        /* \"#utility.yul\":10603:12208   */\n      pop\n      pop\n        /* \"#utility.yul\":10500:12208   */\n      swap3\n      swap2\n      pop\n      pop\n      jump\t// out\n        /* \"#utility.yul\":12214:12322   */\n    tag_274:\n        /* \"#utility.yul\":12291:12315   */\n      tag_305\n        /* \"#utility.yul\":12309:12314   */\n      dup2\n        /* \"#utility.yul\":12291:12315   */\n      tag_306\n      jump\t// in\n    tag_305:\n        /* \"#utility.yul\":12286:12289   */\n      dup3\n        /* \"#utility.yul\":12279:12316   */\n      mstore\n        /* \"#utility.yul\":12214:12322   */\n      pop\n      pop\n      jump\t// out\n        /* \"#utility.yul\":12328:12446   */\n    tag_307:\n        /* \"#utility.yul\":12415:12439   */\n      tag_309\n        /* \"#utility.yul\":12433:12438   */\n      dup2\n        /* \"#utility.yul\":12415:12439   */\n      tag_306\n      jump\t// in\n    tag_309:\n        /* \"#utility.yul\":12410:12413   */\n      dup3\n        /* \"#utility.yul\":12403:12440   */\n      mstore\n        /* \"#utility.yul\":12328:12446   */\n      pop\n      pop\n      jump\t// out\n        /* \"#utility.yul\":12452:12557   */\n    tag_280:\n        /* \"#utility.yul\":12527:12550   */\n      tag_311\n        /* \"#utility.yul\":12544:12549   */\n      dup2\n        /* \"#utility.yul\":12527:12550   */\n      tag_312\n      jump\t// in\n    tag_311:\n        /* \"#utility.yul\":12522:12525   */\n      dup3\n        /* \"#utility.yul\":12515:12551   */\n      mstore\n        /* \"#utility.yul\":12452:12557   */\n      pop\n      pop\n      jump\t// out\n        /* \"#utility.yul\":12563:12678   */\n    tag_313:\n        /* \"#utility.yul\":12648:12671   */\n      tag_315\n        /* \"#utility.yul\":12665:12670   */\n      dup2\n        /* \"#utility.yul\":12648:12671   */\n      tag_312\n      jump\t// in\n    tag_315:\n        /* \"#utility.yul\":12643:12646   */\n      dup3\n        /* \"#utility.yul\":12636:12672   */\n      mstore\n        /* \"#utility.yul\":12563:12678   */\n      pop\n      pop\n      jump\t// out\n        /* \"#utility.yul\":12684:13141   */\n    tag_28:\n        /* \"#utility.yul\":12869:12873   */\n      0x00\n        /* \"#utility.yul\":12907:12909   */\n      0x20\n        /* \"#utility.yul\":12896:12905   */\n      dup3\n        /* \"#utility.yul\":12892:12910   */\n      add\n        /* \"#utility.yul\":12884:12910   */\n      swap1\n      pop\n        /* \"#utility.yul\":12956:12965   */\n      dup2\n        /* \"#utility.yul\":12950:12954   */\n      dup2\n        /* \"#utility.yul\":12946:12966   */\n      sub\n        /* \"#utility.yul\":12942:12943   */\n      0x00\n        /* \"#utility.yul\":12931:12940   */\n      dup4\n        /* \"#utility.yul\":12927:12944   */\n      add\n        /* \"#utility.yul\":12920:12967   */\n      mstore\n        /* \"#utility.yul\":12984:13134   */\n      tag_317\n        /* \"#utility.yul\":13129:13133   */\n      dup2\n        /* \"#utility.yul\":13120:13126   */\n      dup5\n        /* \"#utility.yul\":12984:13134   */\n      tag_207\n      jump\t// in\n    tag_317:\n        /* \"#utility.yul\":12976:13134   */\n      swap1\n      pop\n        /* \"#utility.yul\":12684:13141   */\n      swap3\n      swap2\n      pop\n      pop\n      jump\t// out\n        /* \"#utility.yul\":13147:13592   */\n    tag_93:\n        /* \"#utility.yul\":13326:13330   */\n      0x00\n        /* \"#utility.yul\":13364:13366   */\n      0x20\n        /* \"#utility.yul\":13353:13362   */\n      dup3\n        /* \"#utility.yul\":13349:13367   */\n      add\n        /* \"#utility.yul\":13341:13367   */\n      swap1\n      pop\n        /* \"#utility.yul\":13413:13422   */\n      dup2\n        /* \"#utility.yul\":13407:13411   */\n      dup2\n        /* \"#utility.yul\":13403:13423   */\n      sub\n        /* \"#utility.yul\":13399:13400   */\n      0x00\n        /* \"#utility.yul\":13388:13397   */\n      dup4\n        /* \"#utility.yul\":13384:13401   */\n      add\n        /* \"#utility.yul\":13377:13424   */\n      mstore\n        /* \"#utility.yul\":13441:13585   */\n      tag_319\n        /* \"#utility.yul\":13580:13584   */\n      dup2\n        /* \"#utility.yul\":13571:13577   */\n      dup5\n        /* \"#utility.yul\":13441:13585   */\n      tag_221\n      jump\t// in\n    tag_319:\n        /* \"#utility.yul\":13433:13585   */\n      swap1\n      pop\n        /* \"#utility.yul\":13147:13592   */\n      swap3\n      swap2\n      pop\n      pop\n      jump\t// out\n        /* \"#utility.yul\":13598:13848   */\n    tag_47:\n        /* \"#utility.yul\":13705:13709   */\n      0x00\n        /* \"#utility.yul\":13743:13745   */\n      0x20\n        /* \"#utility.yul\":13732:13741   */\n      dup3\n        /* \"#utility.yul\":13728:13746   */\n      add\n        /* \"#utility.yul\":13720:13746   */\n      swap1\n      pop\n        /* \"#utility.yul\":13756:13841   */\n      tag_321\n        /* \"#utility.yul\":13838:13839   */\n      0x00\n        /* \"#utility.yul\":13827:13836   */\n      dup4\n        /* \"#utility.yul\":13823:13840   */\n      add\n        /* \"#utility.yul\":13814:13820   */\n      dup5\n        /* \"#utility.yul\":13756:13841   */\n      tag_234\n      jump\t// in\n    tag_321:\n        /* \"#utility.yul\":13598:13848   */\n      swap3\n      swap2\n      pop\n      pop\n      jump\t// out\n        /* \"#utility.yul\":13854:14273   */\n    tag_90:\n        /* \"#utility.yul\":14020:14024   */\n      0x00\n        /* \"#utility.yul\":14058:14060   */\n      0x20\n        /* \"#utility.yul\":14047:14056   */\n      dup3\n        /* \"#utility.yul\":14043:14061   */\n      add\n        /* \"#utility.yul\":14035:14061   */\n      swap1\n      pop\n        /* \"#utility.yul\":14107:14116   */\n      dup2\n        /* \"#utility.yul\":14101:14105   */\n      dup2\n        /* \"#utility.yul\":14097:14117   */\n      sub\n        /* \"#utility.yul\":14093:14094   */\n      0x00\n        /* \"#utility.yul\":14082:14091   */\n      dup4\n        /* \"#utility.yul\":14078:14095   */\n      add\n        /* \"#utility.yul\":14071:14118   */\n      mstore\n        /* \"#utility.yul\":14135:14266   */\n      tag_323\n        /* \"#utility.yul\":14261:14265   */\n      dup2\n        /* \"#utility.yul\":14135:14266   */\n      tag_267\n      jump\t// in\n    tag_323:\n        /* \"#utility.yul\":14127:14266   */\n      swap1\n      pop\n        /* \"#utility.yul\":13854:14273   */\n      swap2\n      swap1\n      pop\n      jump\t// out\n        /* \"#utility.yul\":14279:14636   */\n    tag_43:\n        /* \"#utility.yul\":14414:14418   */\n      0x00\n        /* \"#utility.yul\":14452:14454   */\n      0x20\n        /* \"#utility.yul\":14441:14450   */\n      dup3\n        /* \"#utility.yul\":14437:14455   */\n      add\n        /* \"#utility.yul\":14429:14455   */\n      swap1\n      pop\n        /* \"#utility.yul\":14501:14510   */\n      dup2\n        /* \"#utility.yul\":14495:14499   */\n      dup2\n        /* \"#utility.yul\":14491:14511   */\n      sub\n        /* \"#utility.yul\":14487:14488   */\n      0x00\n        /* \"#utility.yul\":14476:14485   */\n      dup4\n        /* \"#utility.yul\":14472:14489   */\n      add\n        /* \"#utility.yul\":14465:14512   */\n      mstore\n        /* \"#utility.yul\":14529:14629   */\n      tag_325\n        /* \"#utility.yul\":14624:14628   */\n      dup2\n        /* \"#utility.yul\":14615:14621   */\n      dup5\n        /* \"#utility.yul\":14529:14629   */\n      tag_281\n      jump\t// in\n    tag_325:\n        /* \"#utility.yul\":14521:14629   */\n      swap1\n      pop\n        /* \"#utility.yul\":14279:14636   */\n      swap3\n      swap2\n      pop\n      pop\n      jump\t// out\n        /* \"#utility.yul\":14642:15377   */\n    tag_34:\n        /* \"#utility.yul\":14859:14863   */\n      0x00\n        /* \"#utility.yul\":14897:14900   */\n      0x80\n        /* \"#utility.yul\":14886:14895   */\n      dup3\n        /* \"#utility.yul\":14882:14901   */\n      add\n        /* \"#utility.yul\":14874:14901   */\n      swap1\n      pop\n        /* \"#utility.yul\":14911:14982   */\n      tag_327\n        /* \"#utility.yul\":14979:14980   */\n      0x00\n        /* \"#utility.yul\":14968:14977   */\n      dup4\n        /* \"#utility.yul\":14964:14981   */\n      add\n        /* \"#utility.yul\":14955:14961   */\n      dup8\n        /* \"#utility.yul\":14911:14982   */\n      tag_307\n      jump\t// in\n    tag_327:\n        /* \"#utility.yul\":15029:15038   */\n      dup2\n        /* \"#utility.yul\":15023:15027   */\n      dup2\n        /* \"#utility.yul\":15019:15039   */\n      sub\n        /* \"#utility.yul\":15014:15016   */\n      0x20\n        /* \"#utility.yul\":15003:15012   */\n      dup4\n        /* \"#utility.yul\":14999:15017   */\n      add\n        /* \"#utility.yul\":14992:15040   */\n      mstore\n        /* \"#utility.yul\":15057:15135   */\n      tag_328\n        /* \"#utility.yul\":15130:15134   */\n      dup2\n        /* \"#utility.yul\":15121:15127   */\n      dup7\n        /* \"#utility.yul\":15057:15135   */\n      tag_248\n      jump\t// in\n    tag_328:\n        /* \"#utility.yul\":15049:15135   */\n      swap1\n      pop\n        /* \"#utility.yul\":15182:15191   */\n      dup2\n        /* \"#utility.yul\":15176:15180   */\n      dup2\n        /* \"#utility.yul\":15172:15192   */\n      sub\n        /* \"#utility.yul\":15167:15169   */\n      0x40\n        /* \"#utility.yul\":15156:15165   */\n      dup4\n        /* \"#utility.yul\":15152:15170   */\n      add\n        /* \"#utility.yul\":15145:15193   */\n      mstore\n        /* \"#utility.yul\":15210:15288   */\n      tag_329\n        /* \"#utility.yul\":15283:15287   */\n      dup2\n        /* \"#utility.yul\":15274:15280   */\n      dup6\n        /* \"#utility.yul\":15210:15288   */\n      tag_248\n      jump\t// in\n    tag_329:\n        /* \"#utility.yul\":15202:15288   */\n      swap1\n      pop\n        /* \"#utility.yul\":15298:15370   */\n      tag_330\n        /* \"#utility.yul\":15366:15368   */\n      0x60\n        /* \"#utility.yul\":15355:15364   */\n      dup4\n        /* \"#utility.yul\":15351:15369   */\n      add\n        /* \"#utility.yul\":15342:15348   */\n      dup5\n        /* \"#utility.yul\":15298:15370   */\n      tag_307\n      jump\t// in\n    tag_330:\n        /* \"#utility.yul\":14642:15377   */\n      swap6\n      swap5\n      pop\n      pop\n      pop\n      pop\n      pop\n      jump\t// out\n        /* \"#utility.yul\":15383:16245   */\n    tag_20:\n        /* \"#utility.yul\":15634:15638   */\n      0x00\n        /* \"#utility.yul\":15672:15675   */\n      0xc0\n        /* \"#utility.yul\":15661:15670   */\n      dup3\n        /* \"#utility.yul\":15657:15676   */\n      add\n        /* \"#utility.yul\":15649:15676   */\n      swap1\n      pop\n        /* \"#utility.yul\":15686:15757   */\n      tag_332\n        /* \"#utility.yul\":15754:15755   */\n      0x00\n        /* \"#utility.yul\":15743:15752   */\n      dup4\n        /* \"#utility.yul\":15739:15756   */\n      add\n        /* \"#utility.yul\":15730:15736   */\n      dup10\n        /* \"#utility.yul\":15686:15757   */\n      tag_307\n      jump\t// in\n    tag_332:\n        /* \"#utility.yul\":15804:15813   */\n      dup2\n        /* \"#utility.yul\":15798:15802   */\n      dup2\n        /* \"#utility.yul\":15794:15814   */\n      sub\n        /* \"#utility.yul\":15789:15791   */\n      0x20\n        /* \"#utility.yul\":15778:15787   */\n      dup4\n        /* \"#utility.yul\":15774:15792   */\n      add\n        /* \"#utility.yul\":15767:15815   */\n      mstore\n        /* \"#utility.yul\":15832:15910   */\n      tag_333\n        /* \"#utility.yul\":15905:15909   */\n      dup2\n        /* \"#utility.yul\":15896:15902   */\n      dup9\n        /* \"#utility.yul\":15832:15910   */\n      tag_248\n      jump\t// in\n    tag_333:\n        /* \"#utility.yul\":15824:15910   */\n      swap1\n      pop\n        /* \"#utility.yul\":15920:15992   */\n      tag_334\n        /* \"#utility.yul\":15988:15990   */\n      0x40\n        /* \"#utility.yul\":15977:15986   */\n      dup4\n        /* \"#utility.yul\":15973:15991   */\n      add\n        /* \"#utility.yul\":15964:15970   */\n      dup8\n        /* \"#utility.yul\":15920:15992   */\n      tag_307\n      jump\t// in\n    tag_334:\n        /* \"#utility.yul\":16002:16074   */\n      tag_335\n        /* \"#utility.yul\":16070:16072   */\n      0x60\n        /* \"#utility.yul\":16059:16068   */\n      dup4\n        /* \"#utility.yul\":16055:16073   */\n      add\n        /* \"#utility.yul\":16046:16052   */\n      dup7\n        /* \"#utility.yul\":16002:16074   */\n      tag_204\n      jump\t// in\n    tag_335:\n        /* \"#utility.yul\":16084:16157   */\n      tag_336\n        /* \"#utility.yul\":16152:16155   */\n      0x80\n        /* \"#utility.yul\":16141:16150   */\n      dup4\n        /* \"#utility.yul\":16137:16156   */\n      add\n        /* \"#utility.yul\":16128:16134   */\n      dup6\n        /* \"#utility.yul\":16084:16157   */\n      tag_307\n      jump\t// in\n    tag_336:\n        /* \"#utility.yul\":16167:16238   */\n      tag_337\n        /* \"#utility.yul\":16233:16236   */\n      0xa0\n        /* \"#utility.yul\":16222:16231   */\n      dup4\n        /* \"#utility.yul\":16218:16237   */\n      add\n        /* \"#utility.yul\":16209:16215   */\n      dup5\n        /* \"#utility.yul\":16167:16238   */\n      tag_313\n      jump\t// in\n    tag_337:\n        /* \"#utility.yul\":15383:16245   */\n      swap8\n      swap7\n      pop\n      pop\n      pop\n      pop\n      pop\n      pop\n      pop\n      jump\t// out\n        /* \"#utility.yul\":16251:16583   */\n    tag_54:\n        /* \"#utility.yul\":16372:16376   */\n      0x00\n        /* \"#utility.yul\":16410:16412   */\n      0x40\n        /* \"#utility.yul\":16399:16408   */\n      dup3\n        /* \"#utility.yul\":16395:16413   */\n      add\n        /* \"#utility.yul\":16387:16413   */\n      swap1\n      pop\n        /* \"#utility.yul\":16423:16494   */\n      tag_339\n        /* \"#utility.yul\":16491:16492   */\n      0x00\n        /* \"#utility.yul\":16480:16489   */\n      dup4\n        /* \"#utility.yul\":16476:16493   */\n      add\n        /* \"#utility.yul\":16467:16473   */\n      dup6\n        /* \"#utility.yul\":16423:16494   */\n      tag_307\n      jump\t// in\n    tag_339:\n        /* \"#utility.yul\":16504:16576   */\n      tag_340\n        /* \"#utility.yul\":16572:16574   */\n      0x20\n        /* \"#utility.yul\":16561:16570   */\n      dup4\n        /* \"#utility.yul\":16557:16575   */\n      add\n        /* \"#utility.yul\":16548:16554   */\n      dup5\n        /* \"#utility.yul\":16504:16576   */\n      tag_307\n      jump\t// in\n    tag_340:\n        /* \"#utility.yul\":16251:16583   */\n      swap4\n      swap3\n      pop\n      pop\n      pop\n      jump\t// out\n        /* \"#utility.yul\":16589:17340   */\n    tag_85:\n        /* \"#utility.yul\":16812:16816   */\n      0x00\n        /* \"#utility.yul\":16850:16853   */\n      0xa0\n        /* \"#utility.yul\":16839:16848   */\n      dup3\n        /* \"#utility.yul\":16835:16854   */\n      add\n        /* \"#utility.yul\":16827:16854   */\n      swap1\n      pop\n        /* \"#utility.yul\":16864:16935   */\n      tag_342\n        /* \"#utility.yul\":16932:16933   */\n      0x00\n        /* \"#utility.yul\":16921:16930   */\n      dup4\n        /* \"#utility.yul\":16917:16934   */\n      add\n        /* \"#utility.yul\":16908:16914   */\n      dup9\n        /* \"#utility.yul\":16864:16935   */\n      tag_307\n      jump\t// in\n    tag_342:\n        /* \"#utility.yul\":16945:17017   */\n      tag_343\n        /* \"#utility.yul\":17013:17015   */\n      0x20\n        /* \"#utility.yul\":17002:17011   */\n      dup4\n        /* \"#utility.yul\":16998:17016   */\n      add\n        /* \"#utility.yul\":16989:16995   */\n      dup8\n        /* \"#utility.yul\":16945:17017   */\n      tag_307\n      jump\t// in\n    tag_343:\n        /* \"#utility.yul\":17064:17073   */\n      dup2\n        /* \"#utility.yul\":17058:17062   */\n      dup2\n        /* \"#utility.yul\":17054:17074   */\n      sub\n        /* \"#utility.yul\":17049:17051   */\n      0x40\n        /* \"#utility.yul\":17038:17047   */\n      dup4\n        /* \"#utility.yul\":17034:17052   */\n      add\n        /* \"#utility.yul\":17027:17075   */\n      mstore\n        /* \"#utility.yul\":17092:17170   */\n      tag_344\n        /* \"#utility.yul\":17165:17169   */\n      dup2\n        /* \"#utility.yul\":17156:17162   */\n      dup7\n        /* \"#utility.yul\":17092:17170   */\n      tag_248\n      jump\t// in\n    tag_344:\n        /* \"#utility.yul\":17084:17170   */\n      swap1\n      pop\n        /* \"#utility.yul\":17180:17250   */\n      tag_345\n        /* \"#utility.yul\":17246:17248   */\n      0x60\n        /* \"#utility.yul\":17235:17244   */\n      dup4\n        /* \"#utility.yul\":17231:17249   */\n      add\n        /* \"#utility.yul\":17222:17228   */\n      dup6\n        /* \"#utility.yul\":17180:17250   */\n      tag_313\n      jump\t// in\n    tag_345:\n        /* \"#utility.yul\":17260:17333   */\n      tag_346\n        /* \"#utility.yul\":17328:17331   */\n      0x80\n        /* \"#utility.yul\":17317:17326   */\n      dup4\n        /* \"#utility.yul\":17313:17332   */\n      add\n        /* \"#utility.yul\":17304:17310   */\n      dup5\n        /* \"#utility.yul\":17260:17333   */\n      tag_307\n      jump\t// in\n    tag_346:\n        /* \"#utility.yul\":16589:17340   */\n      swap7\n      swap6\n      pop\n      pop\n      pop\n      pop\n      pop\n      pop\n      jump\t// out\n        /* \"#utility.yul\":17346:17475   */\n    tag_150:\n        /* \"#utility.yul\":17380:17386   */\n      0x00\n        /* \"#utility.yul\":17407:17427   */\n      tag_348\n      tag_349\n      jump\t// in\n    tag_348:\n        /* \"#utility.yul\":17397:17427   */\n      swap1\n      pop\n        /* \"#utility.yul\":17436:17469   */\n      tag_350\n        /* \"#utility.yul\":17464:17468   */\n      dup3\n        /* \"#utility.yul\":17456:17462   */\n      dup3\n        /* \"#utility.yul\":17436:17469   */\n      tag_351\n      jump\t// in\n    tag_350:\n        /* \"#utility.yul\":17346:17475   */\n      swap2\n      swap1\n      pop\n      jump\t// out\n        /* \"#utility.yul\":17481:17556   */\n    tag_349:\n        /* \"#utility.yul\":17514:17520   */\n      0x00\n        /* \"#utility.yul\":17547:17549   */\n      0x40\n        /* \"#utility.yul\":17541:17550   */\n      mload\n        /* \"#utility.yul\":17531:17550   */\n      swap1\n      pop\n        /* \"#utility.yul\":17481:17556   */\n      swap1\n      jump\t// out\n        /* \"#utility.yul\":17562:17870   */\n    tag_149:\n        /* \"#utility.yul\":17624:17628   */\n      0x00\n        /* \"#utility.yul\":17714:17732   */\n      0xffffffffffffffff\n        /* \"#utility.yul\":17706:17712   */\n      dup3\n        /* \"#utility.yul\":17703:17733   */\n      gt\n        /* \"#utility.yul\":17700:17756   */\n      iszero\n      tag_354\n      jumpi\n        /* \"#utility.yul\":17736:17754   */\n      tag_355\n      tag_356\n      jump\t// in\n    tag_355:\n        /* \"#utility.yul\":17700:17756   */\n    tag_354:\n        /* \"#utility.yul\":17774:17803   */\n      tag_357\n        /* \"#utility.yul\":17796:17802   */\n      dup3\n        /* \"#utility.yul\":17774:17803   */\n      tag_247\n      jump\t// in\n    tag_357:\n        /* \"#utility.yul\":17766:17803   */\n      swap1\n      pop\n        /* \"#utility.yul\":17858:17862   */\n      0x20\n        /* \"#utility.yul\":17852:17856   */\n      dup2\n        /* \"#utility.yul\":17848:17863   */\n      add\n        /* \"#utility.yul\":17840:17863   */\n      swap1\n      pop\n        /* \"#utility.yul\":17562:17870   */\n      swap2\n      swap1\n      pop\n      jump\t// out\n        /* \"#utility.yul\":17876:18029   */\n    tag_214:\n        /* \"#utility.yul\":17964:17968   */\n      0x00\n        /* \"#utility.yul\":17987:17990   */\n      dup2\n        /* \"#utility.yul\":17979:17990   */\n      swap1\n      pop\n        /* \"#utility.yul\":18017:18021   */\n      0x20\n        /* \"#utility.yul\":18012:18015   */\n      dup3\n        /* \"#utility.yul\":18008:18022   */\n      add\n        /* \"#utility.yul\":18000:18022   */\n      swap1\n      pop\n        /* \"#utility.yul\":17876:18029   */\n      swap2\n      swap1\n      pop\n      jump\t// out\n        /* \"#utility.yul\":18035:18209   */\n    tag_227:\n        /* \"#utility.yul\":18117:18121   */\n      0x00\n        /* \"#utility.yul\":18140:18143   */\n      dup2\n        /* \"#utility.yul\":18132:18143   */\n      swap1\n      pop\n        /* \"#utility.yul\":18163:18166   */\n      dup2\n        /* \"#utility.yul\":18160:18161   */\n      0x00\n        /* \"#utility.yul\":18153:18167   */\n      mstore\n        /* \"#utility.yul\":18197:18201   */\n      0x20\n        /* \"#utility.yul\":18194:18195   */\n      0x00\n        /* \"#utility.yul\":18184:18202   */\n      keccak256\n        /* \"#utility.yul\":18176:18202   */\n      swap1\n      pop\n        /* \"#utility.yul\":18035:18209   */\n      swap2\n      swap1\n      pop\n      jump\t// out\n        /* \"#utility.yul\":18215:18356   */\n    tag_263:\n        /* \"#utility.yul\":18264:18268   */\n      0x00\n        /* \"#utility.yul\":18287:18290   */\n      dup2\n        /* \"#utility.yul\":18279:18290   */\n      swap1\n      pop\n        /* \"#utility.yul\":18310:18313   */\n      dup2\n        /* \"#utility.yul\":18307:18308   */\n      0x00\n        /* \"#utility.yul\":18300:18314   */\n      mstore\n        /* \"#utility.yul\":18344:18348   */\n      0x20\n        /* \"#utility.yul\":18341:18342   */\n      0x00\n        /* \"#utility.yul\":18331:18349   */\n      keccak256\n        /* \"#utility.yul\":18323:18349   */\n      swap1\n      pop\n        /* \"#utility.yul\":18215:18356   */\n      swap2\n      swap1\n      pop\n      jump\t// out\n        /* \"#utility.yul\":18362:18497   */\n    tag_210:\n        /* \"#utility.yul\":18450:18456   */\n      0x00\n        /* \"#utility.yul\":18484:18489   */\n      dup2\n        /* \"#utility.yul\":18478:18490   */\n      mload\n        /* \"#utility.yul\":18468:18490   */\n      swap1\n      pop\n        /* \"#utility.yul\":18362:18497   */\n      swap2\n      swap1\n      pop\n      jump\t// out\n        /* \"#utility.yul\":18503:18632   */\n    tag_224:\n        /* \"#utility.yul\":18585:18591   */\n      0x00\n        /* \"#utility.yul\":18619:18624   */\n      dup2\n        /* \"#utility.yul\":18613:18625   */\n      sload\n        /* \"#utility.yul\":18603:18625   */\n      swap1\n      pop\n        /* \"#utility.yul\":18503:18632   */\n      swap2\n      swap1\n      pop\n      jump\t// out\n        /* \"#utility.yul\":18638:18737   */\n    tag_241:\n        /* \"#utility.yul\":18690:18696   */\n      0x00\n        /* \"#utility.yul\":18724:18729   */\n      dup2\n        /* \"#utility.yul\":18718:18730   */\n      mload\n        /* \"#utility.yul\":18708:18730   */\n      swap1\n      pop\n        /* \"#utility.yul\":18638:18737   */\n      swap2\n      swap1\n      pop\n      jump\t// out\n        /* \"#utility.yul\":18743:18877   */\n    tag_220:\n        /* \"#utility.yul\":18834:18838   */\n      0x00\n        /* \"#utility.yul\":18866:18870   */\n      0x20\n        /* \"#utility.yul\":18861:18864   */\n      dup3\n        /* \"#utility.yul\":18857:18871   */\n      add\n        /* \"#utility.yul\":18849:18871   */\n      swap1\n      pop\n        /* \"#utility.yul\":18743:18877   */\n      swap2\n      swap1\n      pop\n      jump\t// out\n        /* \"#utility.yul\":18883:19011   */\n    tag_233:\n        /* \"#utility.yul\":18968:18972   */\n      0x00\n        /* \"#utility.yul\":19000:19004   */\n      0x06\n        /* \"#utility.yul\":18995:18998   */\n      dup3\n        /* \"#utility.yul\":18991:19005   */\n      add\n        /* \"#utility.yul\":18983:19005   */\n      swap1\n      pop\n        /* \"#utility.yul\":18883:19011   */\n      swap2\n      swap1\n      pop\n      jump\t// out\n        /* \"#utility.yul\":19017:19222   */\n    tag_212:\n        /* \"#utility.yul\":19137:19148   */\n      0x00\n        /* \"#utility.yul\":19171:19177   */\n      dup3\n        /* \"#utility.yul\":19166:19169   */\n      dup3\n        /* \"#utility.yul\":19159:19178   */\n      mstore\n        /* \"#utility.yul\":19211:19215   */\n      0x20\n        /* \"#utility.yul\":19206:19209   */\n      dup3\n        /* \"#utility.yul\":19202:19216   */\n      add\n        /* \"#utility.yul\":19187:19216   */\n      swap1\n      pop\n        /* \"#utility.yul\":19017:19222   */\n      swap3\n      swap2\n      pop\n      pop\n      jump\t// out\n        /* \"#utility.yul\":19228:19387   */\n    tag_243:\n        /* \"#utility.yul\":19302:19313   */\n      0x00\n        /* \"#utility.yul\":19336:19342   */\n      dup3\n        /* \"#utility.yul\":19331:19334   */\n      dup3\n        /* \"#utility.yul\":19324:19343   */\n      mstore\n        /* \"#utility.yul\":19376:19380   */\n      0x20\n        /* \"#utility.yul\":19371:19374   */\n      dup3\n        /* \"#utility.yul\":19367:19381   */\n      add\n        /* \"#utility.yul\":19352:19381   */\n      swap1\n      pop\n        /* \"#utility.yul\":19228:19387   */\n      swap3\n      swap2\n      pop\n      pop\n      jump\t// out\n        /* \"#utility.yul\":19393:19562   */\n    tag_252:\n        /* \"#utility.yul\":19477:19488   */\n      0x00\n        /* \"#utility.yul\":19511:19517   */\n      dup3\n        /* \"#utility.yul\":19506:19509   */\n      dup3\n        /* \"#utility.yul\":19499:19518   */\n      mstore\n        /* \"#utility.yul\":19551:19555   */\n      0x20\n        /* \"#utility.yul\":19546:19549   */\n      dup3\n        /* \"#utility.yul\":19542:19556   */\n      add\n        /* \"#utility.yul\":19527:19556   */\n      swap1\n      pop\n        /* \"#utility.yul\":19393:19562   */\n      swap3\n      swap2\n      pop\n      pop\n      jump\t// out\n        /* \"#utility.yul\":19568:19707   */\n    tag_369:\n        /* \"#utility.yul\":19618:19625   */\n      0x00\n        /* \"#utility.yul\":19658:19700   */\n      0xffffffffffffffffffffffffffffffffffffffff\n        /* \"#utility.yul\":19651:19656   */\n      dup3\n        /* \"#utility.yul\":19647:19701   */\n      and\n        /* \"#utility.yul\":19636:19701   */\n      swap1\n      pop\n        /* \"#utility.yul\":19568:19707   */\n      swap2\n      swap1\n      pop\n      jump\t// out\n        /* \"#utility.yul\":19713:19803   */\n    tag_371:\n        /* \"#utility.yul\":19763:19770   */\n      0x00\n        /* \"#utility.yul\":19792:19797   */\n      dup2\n        /* \"#utility.yul\":19781:19797   */\n      swap1\n      pop\n        /* \"#utility.yul\":19713:19803   */\n      swap2\n      swap1\n      pop\n      jump\t// out\n        /* \"#utility.yul\":19809:19915   */\n    tag_373:\n        /* \"#utility.yul\":19858:19865   */\n      0x00\n        /* \"#utility.yul\":19898:19908   */\n      0xffffffff\n        /* \"#utility.yul\":19891:19896   */\n      dup3\n        /* \"#utility.yul\":19887:19909   */\n      and\n        /* \"#utility.yul\":19876:19909   */\n      swap1\n      pop\n        /* \"#utility.yul\":19809:19915   */\n      swap2\n      swap1\n      pop\n      jump\t// out\n        /* \"#utility.yul\":19921:20017   */\n    tag_203:\n        /* \"#utility.yul\":19958:19965   */\n      0x00\n        /* \"#utility.yul\":19987:20011   */\n      tag_376\n        /* \"#utility.yul\":20005:20010   */\n      dup3\n        /* \"#utility.yul\":19987:20011   */\n      tag_377\n      jump\t// in\n    tag_376:\n        /* \"#utility.yul\":19976:20011   */\n      swap1\n      pop\n        /* \"#utility.yul\":19921:20017   */\n      swap2\n      swap1\n      pop\n      jump\t// out\n        /* \"#utility.yul\":20023:20149   */\n    tag_377:\n        /* \"#utility.yul\":20060:20067   */\n      0x00\n        /* \"#utility.yul\":20100:20142   */\n      0xffffffffffffffffffffffffffffffffffffffff\n        /* \"#utility.yul\":20093:20098   */\n      dup3\n        /* \"#utility.yul\":20089:20143   */\n      and\n        /* \"#utility.yul\":20078:20143   */\n      swap1\n      pop\n        /* \"#utility.yul\":20023:20149   */\n      swap2\n      swap1\n      pop\n      jump\t// out\n        /* \"#utility.yul\":20155:20232   */\n    tag_306:\n        /* \"#utility.yul\":20192:20199   */\n      0x00\n        /* \"#utility.yul\":20221:20226   */\n      dup2\n        /* \"#utility.yul\":20210:20226   */\n      swap1\n      pop\n        /* \"#utility.yul\":20155:20232   */\n      swap2\n      swap1\n      pop\n      jump\t// out\n        /* \"#utility.yul\":20238:20331   */\n    tag_312:\n        /* \"#utility.yul\":20274:20281   */\n      0x00\n        /* \"#utility.yul\":20314:20324   */\n      0xffffffff\n        /* \"#utility.yul\":20307:20312   */\n      dup3\n        /* \"#utility.yul\":20303:20325   */\n      and\n        /* \"#utility.yul\":20292:20325   */\n      swap1\n      pop\n        /* \"#utility.yul\":20238:20331   */\n      swap2\n      swap1\n      pop\n      jump\t// out\n        /* \"#utility.yul\":20337:20477   */\n    tag_237:\n        /* \"#utility.yul\":20401:20410   */\n      0x00\n        /* \"#utility.yul\":20434:20471   */\n      tag_382\n        /* \"#utility.yul\":20465:20470   */\n      dup3\n        /* \"#utility.yul\":20434:20471   */\n      tag_383\n      jump\t// in\n    tag_382:\n        /* \"#utility.yul\":20421:20471   */\n      swap1\n      pop\n        /* \"#utility.yul\":20337:20477   */\n      swap2\n      swap1\n      pop\n      jump\t// out\n        /* \"#utility.yul\":20483:20609   */\n    tag_383:\n        /* \"#utility.yul\":20533:20542   */\n      0x00\n        /* \"#utility.yul\":20566:20603   */\n      tag_385\n        /* \"#utility.yul\":20597:20602   */\n      dup3\n        /* \"#utility.yul\":20566:20603   */\n      tag_386\n      jump\t// in\n    tag_385:\n        /* \"#utility.yul\":20553:20603   */\n      swap1\n      pop\n        /* \"#utility.yul\":20483:20609   */\n      swap2\n      swap1\n      pop\n      jump\t// out\n        /* \"#utility.yul\":20615:20728   */\n    tag_386:\n        /* \"#utility.yul\":20665:20674   */\n      0x00\n        /* \"#utility.yul\":20698:20722   */\n      tag_388\n        /* \"#utility.yul\":20716:20721   */\n      dup3\n        /* \"#utility.yul\":20698:20722   */\n      tag_377\n      jump\t// in\n    tag_388:\n        /* \"#utility.yul\":20685:20722   */\n      swap1\n      pop\n        /* \"#utility.yul\":20615:20728   */\n      swap2\n      swap1\n      pop\n      jump\t// out\n        /* \"#utility.yul\":20734:20888   */\n    tag_155:\n        /* \"#utility.yul\":20818:20824   */\n      dup3\n        /* \"#utility.yul\":20813:20816   */\n      dup2\n        /* \"#utility.yul\":20808:20811   */\n      dup4\n        /* \"#utility.yul\":20795:20825   */\n      calldatacopy\n        /* \"#utility.yul\":20880:20881   */\n      0x00\n        /* \"#utility.yul\":20871:20877   */\n      dup4\n        /* \"#utility.yul\":20866:20869   */\n      dup4\n        /* \"#utility.yul\":20862:20878   */\n      add\n        /* \"#utility.yul\":20855:20882   */\n      mstore\n        /* \"#utility.yul\":20734:20888   */\n      pop\n      pop\n      pop\n      jump\t// out\n        /* \"#utility.yul\":20894:21201   */\n    tag_245:\n        /* \"#utility.yul\":20962:20963   */\n      0x00\n        /* \"#utility.yul\":20972:21085   */\n    tag_391:\n        /* \"#utility.yul\":20986:20992   */\n      dup4\n        /* \"#utility.yul\":20983:20984   */\n      dup2\n        /* \"#utility.yul\":20980:20993   */\n      lt\n        /* \"#utility.yul\":20972:21085   */\n      iszero\n      tag_393\n      jumpi\n        /* \"#utility.yul\":21071:21072   */\n      dup1\n        /* \"#utility.yul\":21066:21069   */\n      dup3\n        /* \"#utility.yul\":21062:21073   */\n      add\n        /* \"#utility.yul\":21056:21074   */\n      mload\n        /* \"#utility.yul\":21052:21053   */\n      dup2\n        /* \"#utility.yul\":21047:21050   */\n      dup5\n        /* \"#utility.yul\":21043:21054   */\n      add\n        /* \"#utility.yul\":21036:21075   */\n      mstore\n        /* \"#utility.yul\":21008:21010   */\n      0x20\n        /* \"#utility.yul\":21005:21006   */\n      dup2\n        /* \"#utility.yul\":21001:21011   */\n      add\n        /* \"#utility.yul\":20996:21011   */\n      swap1\n      pop\n        /* \"#utility.yul\":20972:21085   */\n      jump(tag_391)\n    tag_393:\n        /* \"#utility.yul\":21103:21109   */\n      dup4\n        /* \"#utility.yul\":21100:21101   */\n      dup2\n        /* \"#utility.yul\":21097:21110   */\n      gt\n        /* \"#utility.yul\":21094:21195   */\n      iszero\n      tag_394\n      jumpi\n        /* \"#utility.yul\":21183:21184   */\n      0x00\n        /* \"#utility.yul\":21174:21180   */\n      dup5\n        /* \"#utility.yul\":21169:21172   */\n      dup5\n        /* \"#utility.yul\":21165:21181   */\n      add\n        /* \"#utility.yul\":21158:21185   */\n      mstore\n        /* \"#utility.yul\":21094:21195   */\n    tag_394:\n        /* \"#utility.yul\":20943:21201   */\n      pop\n        /* \"#utility.yul\":20894:21201   */\n      pop\n      pop\n      pop\n      jump\t// out\n        /* \"#utility.yul\":21207:21527   */\n    tag_58:\n        /* \"#utility.yul\":21251:21257   */\n      0x00\n        /* \"#utility.yul\":21288:21289   */\n      0x02\n        /* \"#utility.yul\":21282:21286   */\n      dup3\n        /* \"#utility.yul\":21278:21290   */\n      div\n        /* \"#utility.yul\":21268:21290   */\n      swap1\n      pop\n        /* \"#utility.yul\":21335:21336   */\n      0x01\n        /* \"#utility.yul\":21329:21333   */\n      dup3\n        /* \"#utility.yul\":21325:21337   */\n      and\n        /* \"#utility.yul\":21356:21374   */\n      dup1\n        /* \"#utility.yul\":21346:21427   */\n      tag_396\n      jumpi\n        /* \"#utility.yul\":21412:21416   */\n      0x7f\n        /* \"#utility.yul\":21404:21410   */\n      dup3\n        /* \"#utility.yul\":21400:21417   */\n      and\n        /* \"#utility.yul\":21390:21417   */\n      swap2\n      pop\n        /* \"#utility.yul\":21346:21427   */\n    tag_396:\n        /* \"#utility.yul\":21474:21476   */\n      0x20\n        /* \"#utility.yul\":21466:21472   */\n      dup3\n        /* \"#utility.yul\":21463:21477   */\n      lt\n        /* \"#utility.yul\":21443:21461   */\n      dup2\n        /* \"#utility.yul\":21440:21478   */\n      eq\n        /* \"#utility.yul\":21437:21521   */\n      iszero\n      tag_397\n      jumpi\n        /* \"#utility.yul\":21493:21511   */\n      tag_398\n      tag_399\n      jump\t// in\n    tag_398:\n        /* \"#utility.yul\":21437:21521   */\n    tag_397:\n        /* \"#utility.yul\":21258:21527   */\n      pop\n        /* \"#utility.yul\":21207:21527   */\n      swap2\n      swap1\n      pop\n      jump\t// out\n        /* \"#utility.yul\":21533:21699   */\n    tag_297:\n        /* \"#utility.yul\":21602:21607   */\n      0x00\n        /* \"#utility.yul\":21627:21693   */\n      tag_401\n        /* \"#utility.yul\":21658:21692   */\n      tag_402\n        /* \"#utility.yul\":21681:21691   */\n      dup4\n        /* \"#utility.yul\":21658:21692   */\n      tag_403\n      jump\t// in\n    tag_402:\n        /* \"#utility.yul\":21627:21693   */\n      tag_369\n      jump\t// in\n    tag_401:\n        /* \"#utility.yul\":21618:21693   */\n      swap1\n      pop\n        /* \"#utility.yul\":21533:21699   */\n      swap2\n      swap1\n      pop\n      jump\t// out\n        /* \"#utility.yul\":21705:21871   */\n    tag_291:\n        /* \"#utility.yul\":21774:21779   */\n      0x00\n        /* \"#utility.yul\":21799:21865   */\n      tag_405\n        /* \"#utility.yul\":21830:21864   */\n      tag_406\n        /* \"#utility.yul\":21853:21863   */\n      dup4\n        /* \"#utility.yul\":21830:21864   */\n      tag_403\n      jump\t// in\n    tag_406:\n        /* \"#utility.yul\":21799:21865   */\n      tag_371\n      jump\t// in\n    tag_405:\n        /* \"#utility.yul\":21790:21865   */\n      swap1\n      pop\n        /* \"#utility.yul\":21705:21871   */\n      swap2\n      swap1\n      pop\n      jump\t// out\n        /* \"#utility.yul\":21877:22041   */\n    tag_302:\n        /* \"#utility.yul\":21945:21950   */\n      0x00\n        /* \"#utility.yul\":21970:22035   */\n      tag_408\n        /* \"#utility.yul\":22000:22034   */\n      tag_409\n        /* \"#utility.yul\":22023:22033   */\n      dup4\n        /* \"#utility.yul\":22000:22034   */\n      tag_403\n      jump\t// in\n    tag_409:\n        /* \"#utility.yul\":21970:22035   */\n      tag_373\n      jump\t// in\n    tag_408:\n        /* \"#utility.yul\":21961:22035   */\n      swap1\n      pop\n        /* \"#utility.yul\":21877:22041   */\n      swap2\n      swap1\n      pop\n      jump\t// out\n        /* \"#utility.yul\":22047:22328   */\n    tag_351:\n        /* \"#utility.yul\":22130:22157   */\n      tag_411\n        /* \"#utility.yul\":22152:22156   */\n      dup3\n        /* \"#utility.yul\":22130:22157   */\n      tag_247\n      jump\t// in\n    tag_411:\n        /* \"#utility.yul\":22122:22128   */\n      dup2\n        /* \"#utility.yul\":22118:22158   */\n      add\n        /* \"#utility.yul\":22260:22266   */\n      dup2\n        /* \"#utility.yul\":22248:22258   */\n      dup2\n        /* \"#utility.yul\":22245:22267   */\n      lt\n        /* \"#utility.yul\":22224:22242   */\n      0xffffffffffffffff\n        /* \"#utility.yul\":22212:22222   */\n      dup3\n        /* \"#utility.yul\":22209:22243   */\n      gt\n        /* \"#utility.yul\":22206:22268   */\n      or\n        /* \"#utility.yul\":22203:22291   */\n      iszero\n      tag_412\n      jumpi\n        /* \"#utility.yul\":22271:22289   */\n      tag_413\n      tag_356\n      jump\t// in\n    tag_413:\n        /* \"#utility.yul\":22203:22291   */\n    tag_412:\n        /* \"#utility.yul\":22311:22321   */\n      dup1\n        /* \"#utility.yul\":22307:22309   */\n      0x40\n        /* \"#utility.yul\":22300:22322   */\n      mstore\n        /* \"#utility.yul\":22090:22328   */\n      pop\n        /* \"#utility.yul\":22047:22328   */\n      pop\n      pop\n      jump\t// out\n        /* \"#utility.yul\":22334:22567   */\n    tag_52:\n        /* \"#utility.yul\":22373:22376   */\n      0x00\n        /* \"#utility.yul\":22396:22420   */\n      tag_415\n        /* \"#utility.yul\":22414:22419   */\n      dup3\n        /* \"#utility.yul\":22396:22420   */\n      tag_306\n      jump\t// in\n    tag_415:\n        /* \"#utility.yul\":22387:22420   */\n      swap2\n      pop\n        /* \"#utility.yul\":22442:22508   */\n      0xffffffffffffffffffffffffffffffffffffffffffffffffffffffffffffffff\n        /* \"#utility.yul\":22435:22440   */\n      dup3\n        /* \"#utility.yul\":22432:22509   */\n      eq\n        /* \"#utility.yul\":22429:22532   */\n      iszero\n      tag_416\n      jumpi\n        /* \"#utility.yul\":22512:22530   */\n      tag_417\n      tag_418\n      jump\t// in\n    tag_417:\n        /* \"#utility.yul\":22429:22532   */\n    tag_416:\n        /* \"#utility.yul\":22559:22560   */\n      0x01\n        /* \"#utility.yul\":22552:22557   */\n      dup3\n        /* \"#utility.yul\":22548:22561   */\n      add\n        /* \"#utility.yul\":22541:22561   */\n      swap1\n      pop\n        /* \"#utility.yul\":22334:22567   */\n      swap2\n      swap1\n      pop\n      jump\t// out\n        /* \"#utility.yul\":22573:22753   */\n    tag_418:\n        /* \"#utility.yul\":22621:22698   */\n      0x4e487b7100000000000000000000000000000000000000000000000000000000\n        /* \"#utility.yul\":22618:22619   */\n      0x00\n        /* \"#utility.yul\":22611:22699   */\n      mstore\n        /* \"#utility.yul\":22718:22722   */\n      0x11\n        /* \"#utility.yul\":22715:22716   */\n      0x04\n        /* \"#utility.yul\":22708:22723   */\n      mstore\n        /* \"#utility.yul\":22742:22746   */\n      0x24\n        /* \"#utility.yul\":22739:22740   */\n      0x00\n        /* \"#utility.yul\":22732:22747   */\n      revert\n        /* \"#utility.yul\":22759:22939   */\n    tag_399:\n        /* \"#utility.yul\":22807:22884   */\n      0x4e487b7100000000000000000000000000000000000000000000000000000000\n        /* \"#utility.yul\":22804:22805   */\n      0x00\n        /* \"#utility.yul\":22797:22885   */\n      mstore\n        /* \"#utility.yul\":22904:22908   */\n      0x22\n        /* \"#utility.yul\":22901:22902   */\n      0x04\n        /* \"#utility.yul\":22894:22909   */\n      mstore\n        /* \"#utility.yul\":22928:22932   */\n      0x24\n        /* \"#utility.yul\":22925:22926   */\n      0x00\n        /* \"#utility.yul\":22918:22933   */\n      revert\n        /* \"#utility.yul\":22945:23125   */\n    tag_356:\n        /* \"#utility.yul\":22993:23070   */\n      0x4e487b7100000000000000000000000000000000000000000000000000000000\n        /* \"#utility.yul\":22990:22991   */\n      0x00\n        /* \"#utility.yul\":22983:23071   */\n      mstore\n        /* \"#utility.yul\":23090:23094   */\n      0x41\n        /* \"#utility.yul\":23087:23088   */\n      0x04\n        /* \"#utility.yul\":23080:23095   */\n      mstore\n        /* \"#utility.yul\":23114:23118   */\n      0x24\n        /* \"#utility.yul\":23111:23112   */\n      0x00\n        /* \"#utility.yul\":23104:23119   */\n      revert\n        /* \"#utility.yul\":23131:23248   */\n    tag_164:\n        /* \"#utility.yul\":23240:23241   */\n      0x00\n        /* \"#utility.yul\":23237:23238   */\n      dup1\n        /* \"#utility.yul\":23230:23242   */\n      revert\n        /* \"#utility.yul\":23254:23371   */\n    tag_153:\n        /* \"#utility.yul\":23363:23364   */\n      0x00\n        /* \"#utility.yul\":23360:23361   */\n      dup1\n        /* \"#utility.yul\":23353:23365   */\n      revert\n        /* \"#utility.yul\":23377:23494   */\n    tag_189:\n        /* \"#utility.yul\":23486:23487   */\n      0x00\n        /* \"#utility.yul\":23483:23484   */\n      dup1\n        /* \"#utility.yul\":23476:23488   */\n      revert\n        /* \"#utility.yul\":23500:23617   */\n    tag_177:\n        /* \"#utility.yul\":23609:23610   */\n      0x00\n        /* \"#utility.yul\":23606:23607   */\n      dup1\n        /* \"#utility.yul\":23599:23611   */\n      revert\n        /* \"#utility.yul\":23623:23725   */\n    tag_247:\n        /* \"#utility.yul\":23664:23670   */\n      0x00\n        /* \"#utility.yul\":23715:23717   */\n      0x1f\n        /* \"#utility.yul\":23711:23718   */\n      not\n        /* \"#utility.yul\":23706:23708   */\n      0x1f\n        /* \"#utility.yul\":23699:23704   */\n      dup4\n        /* \"#utility.yul\":23695:23709   */\n      add\n        /* \"#utility.yul\":23691:23719   */\n      and\n        /* \"#utility.yul\":23681:23719   */\n      swap1\n      pop\n        /* \"#utility.yul\":23623:23725   */\n      swap2\n      swap1\n      pop\n      jump\t// out\n        /* \"#utility.yul\":23731:23833   */\n    tag_403:\n        /* \"#utility.yul\":23773:23781   */\n      0x00\n        /* \"#utility.yul\":23820:23825   */\n      dup2\n        /* \"#utility.yul\":23817:23818   */\n      0x00\n        /* \"#utility.yul\":23813:23826   */\n      shr\n        /* \"#utility.yul\":23792:23826   */\n      swap1\n      pop\n        /* \"#utility.yul\":23731:23833   */\n      swap2\n      swap1\n      pop\n      jump\t// out\n        /* \"#utility.yul\":23839:24060   */\n    tag_271:\n        /* \"#utility.yul\":23979:24013   */\n      0x546865726520617265206e6f2070726f647563747320746f206c697374207965\n        /* \"#utility.yul\":23975:23976   */\n      0x00\n        /* \"#utility.yul\":23967:23973   */\n      dup3\n        /* \"#utility.yul\":23963:23977   */\n      add\n        /* \"#utility.yul\":23956:24014   */\n      mstore\n        /* \"#utility.yul\":24048:24052   */\n      0x7421000000000000000000000000000000000000000000000000000000000000\n        /* \"#utility.yul\":24043:24045   */\n      0x20\n        /* \"#utility.yul\":24035:24041   */\n      dup3\n        /* \"#utility.yul\":24031:24046   */\n      add\n        /* \"#utility.yul\":24024:24053   */\n      mstore\n        /* \"#utility.yul\":23839:24060   */\n      pop\n      jump\t// out\n        /* \"#utility.yul\":24066:24188   */\n    tag_159:\n        /* \"#utility.yul\":24139:24163   */\n      tag_430\n        /* \"#utility.yul\":24157:24162   */\n      dup2\n        /* \"#utility.yul\":24139:24163   */\n      tag_203\n      jump\t// in\n    tag_430:\n        /* \"#utility.yul\":24132:24137   */\n      dup2\n        /* \"#utility.yul\":24129:24164   */\n      eq\n        /* \"#utility.yul\":24119:24182   */\n      tag_431\n      jumpi\n        /* \"#utility.yul\":24178:24179   */\n      0x00\n        /* \"#utility.yul\":24175:24176   */\n      dup1\n        /* \"#utility.yul\":24168:24180   */\n      revert\n        /* \"#utility.yul\":24119:24182   */\n    tag_431:\n        /* \"#utility.yul\":24066:24188   */\n      pop\n      jump\t// out\n        /* \"#utility.yul\":24194:24316   */\n    tag_169:\n        /* \"#utility.yul\":24267:24291   */\n      tag_433\n        /* \"#utility.yul\":24285:24290   */\n      dup2\n        /* \"#utility.yul\":24267:24291   */\n      tag_306\n      jump\t// in\n    tag_433:\n        /* \"#utility.yul\":24260:24265   */\n      dup2\n        /* \"#utility.yul\":24257:24292   */\n      eq\n        /* \"#utility.yul\":24247:24310   */\n      tag_434\n      jumpi\n        /* \"#utility.yul\":24306:24307   */\n      0x00\n        /* \"#utility.yul\":24303:24304   */\n      dup1\n        /* \"#utility.yul\":24296:24308   */\n      revert\n        /* \"#utility.yul\":24247:24310   */\n    tag_434:\n        /* \"#utility.yul\":24194:24316   */\n      pop\n      jump\t// out\n        /* \"#utility.yul\":24322:24442   */\n    tag_173:\n        /* \"#utility.yul\":24394:24417   */\n      tag_436\n        /* \"#utility.yul\":24411:24416   */\n      dup2\n        /* \"#utility.yul\":24394:24417   */\n      tag_312\n      jump\t// in\n    tag_436:\n        /* \"#utility.yul\":24387:24392   */\n      dup2\n        /* \"#utility.yul\":24384:24418   */\n      eq\n        /* \"#utility.yul\":24374:24436   */\n      tag_437\n      jumpi\n        /* \"#utility.yul\":24432:24433   */\n      0x00\n        /* \"#utility.yul\":24429:24430   */\n      dup1\n        /* \"#utility.yul\":24422:24434   */\n      revert\n        /* \"#utility.yul\":24374:24436   */\n    tag_437:\n        /* \"#utility.yul\":24322:24442   */\n      pop\n      jump\t// out\n\n    auxdata: 0xa26469706673582212205e463b0bc407a51c2b9da2c11b8604e90ad60b93a7b970cc4d8dade9649b44eb64736f6c63430008070033\n}\n",
				"bytecode": {
					"linkReferences": {},
					"object": "60806040523480156200001157600080fd5b5060405162001d2338038062001d23833981810160405281019062000037919062000095565b806000806101000a81548173ffffffffffffffffffffffffffffffffffffffff021916908373ffffffffffffffffffffffffffffffffffffffff160217905550506200011a565b6000815190506200008f8162000100565b92915050565b600060208284031215620000ae57620000ad620000fb565b5b6000620000be848285016200007e565b91505092915050565b6000620000d482620000db565b9050919050565b600073ffffffffffffffffffffffffffffffffffffffff82169050919050565b600080fd5b6200010b81620000c7565b81146200011757600080fd5b50565b611bf9806200012a6000396000f3fe608060405234801561001057600080fd5b50600436106100885760003560e01c8063a87430ba1161005b578063a87430ba14610118578063bfb231d21461014b578063cd2f071014610180578063fc0c546a146101b057610088565b806301750e741461008d5780633d4d3600146100a95780634efd1797146100de5780635d9eb55c146100fa575b600080fd5b6100a760048036038101906100a2919061109d565b6101ce565b005b6100c360048036038101906100be919061109d565b6102d4565b6040516100d59695949392919061168f565b60405180910390f35b6100f860048036038101906100f391906110ca565b6103d8565b005b610102610844565b60405161010f919061159b565b60405180910390f35b610132600480360381019061012d9190611070565b610a6a565b604051610142949392919061163c565b60405180910390f35b6101656004803603810190610160919061109d565b610baa565b6040516101779695949392919061168f565b60405180910390f35b61019a6004803603810190610195919061109d565b610c9e565b6040516101a7919061161a565b60405180910390f35b6101b8610df7565b6040516101c591906115df565b60405180910390f35b6003600082815260200190815260200160002060030160009054906101000a900473ffffffffffffffffffffffffffffffffffffffff168073ffffffffffffffffffffffffffffffffffffffff163373ffffffffffffffffffffffffffffffffffffffff16141561023e57600080fd5b60036000838152602001908152602001600020600201600081548092919061026590611a27565b91905055503373ffffffffffffffffffffffffffffffffffffffff167f1ed364e6f46a455fac23816d3700669ff134c7a5fbe0240f52d932f8341024628360036000868152602001908152602001600020600201546040516102c89291906116f7565b60405180910390a25050565b600181815481106102e457600080fd5b906000526020600020906006020160009150905080600001549080600101805461030d90611976565b80601f016020809104026020016040519081016040528092919081815260200182805461033990611976565b80156103865780601f1061035b57610100808354040283529160200191610386565b820191906000526020600020905b81548152906001019060200180831161036957829003601f168201915b5050505050908060020154908060030160009054906101000a900473ffffffffffffffffffffffffffffffffffffffff16908060040154908060050160009054906101000a900463ffffffff16905086565b338073ffffffffffffffffffffffffffffffffffffffff163373ffffffffffffffffffffffffffffffffffffffff161461041157600080fd5b6040518060c001604052806104266004610e1b565b8152602001848152602001600081526020013373ffffffffffffffffffffffffffffffffffffffff1681526020018581526020018363ffffffff16815250600360006104726004610e1b565b81526020019081526020016000206000820151816000015560208201518160010190805190602001906104a6929190610e3f565b506040820151816002015560608201518160030160006101000a81548173ffffffffffffffffffffffffffffffffffffffff021916908373ffffffffffffffffffffffffffffffffffffffff1602179055506080820151816004015560a08201518160050160006101000a81548163ffffffff021916908363ffffffff160217905550905050600260003373ffffffffffffffffffffffffffffffffffffffff1673ffffffffffffffffffffffffffffffffffffffff1681526020019081526020016000206004016003600061057c6004610e1b565b815260200190815260200160002090806001815401808255809150506001900390600052602060002090600602016000909190919091506000820154816000015560018201816001019080546105d190611976565b6105dc929190610ec5565b50600282015481600201556003820160009054906101000a900473ffffffffffffffffffffffffffffffffffffffff168160030160006101000a81548173ffffffffffffffffffffffffffffffffffffffff021916908373ffffffffffffffffffffffffffffffffffffffff160217905550600482015481600401556005820160009054906101000a900463ffffffff168160050160006101000a81548163ffffffff021916908363ffffffff16021790555050506001600360006106a16004610e1b565b815260200190815260200160002090806001815401808255809150506001900390600052602060002090600602016000909190919091506000820154816000015560018201816001019080546106f690611976565b610701929190610ec5565b50600282015481600201556003820160009054906101000a900473ffffffffffffffffffffffffffffffffffffffff168160030160006101000a81548173ffffffffffffffffffffffffffffffffffffffff021916908373ffffffffffffffffffffffffffffffffffffffff160217905550600482015481600401556005820160009054906101000a900463ffffffff168160050160006101000a81548163ffffffff021916908363ffffffff16021790555050506107c06004610e29565b3373ffffffffffffffffffffffffffffffffffffffff167f9a5b8b5cb7f9c536ea5db1a94142c9f716fb3a8698a9c70a5b8bfad3922cb06c6108026004610e1b565b868686600360006108136004610e1b565b815260200190815260200160002060020154604051610836959493929190611720565b60405180910390a250505050565b606060006108526004610e1b565b11610892576040517f08c379a0000000000000000000000000000000000000000000000000000000008152600401610889906115fa565b60405180910390fd5b3373ffffffffffffffffffffffffffffffffffffffff167f440c078a5e11bff85c6b6d7c52f378c8220355bd3331ec889638c0eca883670c60016040516108d991906115bd565b60405180910390a26001805480602002602001604051908101604052809291908181526020016000905b82821015610a6157838290600052602060002090600602016040518060c00160405290816000820154815260200160018201805461094090611976565b80601f016020809104026020016040519081016040528092919081815260200182805461096c90611976565b80156109b95780601f1061098e576101008083540402835291602001916109b9565b820191906000526020600020905b81548152906001019060200180831161099c57829003601f168201915b50505050508152602001600282015481526020016003820160009054906101000a900473ffffffffffffffffffffffffffffffffffffffff1673ffffffffffffffffffffffffffffffffffffffff1673ffffffffffffffffffffffffffffffffffffffff168152602001600482015481526020016005820160009054906101000a900463ffffffff1663ffffffff1663ffffffff168152505081526020019060010190610903565b50505050905090565b6002602052806000526040600020600091509050806000015490806001018054610a9390611976565b80601f0160208091040260200160405190810160405280929190818152602001828054610abf90611976565b8015610b0c5780601f10610ae157610100808354040283529160200191610b0c565b820191906000526020600020905b815481529060010190602001808311610aef57829003601f168201915b505050505090806002018054610b2190611976565b80601f0160208091040260200160405190810160405280929190818152602001828054610b4d90611976565b8015610b9a5780601f10610b6f57610100808354040283529160200191610b9a565b820191906000526020600020905b815481529060010190602001808311610b7d57829003601f168201915b5050505050908060050154905084565b6003602052806000526040600020600091509050806000015490806001018054610bd390611976565b80601f0160208091040260200160405190810160405280929190818152602001828054610bff90611976565b8015610c4c5780601f10610c2157610100808354040283529160200191610c4c565b820191906000526020600020905b815481529060010190602001808311610c2f57829003601f168201915b5050505050908060020154908060030160009054906101000a900473ffffffffffffffffffffffffffffffffffffffff16908060040154908060050160009054906101000a900463ffffffff16905086565b610ca6610f52565b600360008381526020019081526020016000206040518060c001604052908160008201548152602001600182018054610cde90611976565b80601f0160208091040260200160405190810160405280929190818152602001828054610d0a90611976565b8015610d575780601f10610d2c57610100808354040283529160200191610d57565b820191906000526020600020905b815481529060010190602001808311610d3a57829003601f168201915b50505050508152602001600282015481526020016003820160009054906101000a900473ffffffffffffffffffffffffffffffffffffffff1673ffffffffffffffffffffffffffffffffffffffff1673ffffffffffffffffffffffffffffffffffffffff168152602001600482015481526020016005820160009054906101000a900463ffffffff1663ffffffff1663ffffffff16815250509050919050565b60008054906101000a900473ffffffffffffffffffffffffffffffffffffffff1681565b600081600001549050919050565b6001816000016000828254019250508190555050565b828054610e4b90611976565b90600052602060002090601f016020900481019282610e6d5760008555610eb4565b82601f10610e8657805160ff1916838001178555610eb4565b82800160010185558215610eb4579182015b82811115610eb3578251825591602001919060010190610e98565b5b509050610ec19190610fa4565b5090565b828054610ed190611976565b90600052602060002090601f016020900481019282610ef35760008555610f41565b82601f10610f045780548555610f41565b82800160010185558215610f4157600052602060002091601f016020900482015b82811115610f40578254825591600101919060010190610f25565b5b509050610f4e9190610fa4565b5090565b6040518060c00160405280600081526020016060815260200160008152602001600073ffffffffffffffffffffffffffffffffffffffff16815260200160008152602001600063ffffffff1681525090565b5b80821115610fbd576000816000905550600101610fa5565b5090565b6000610fd4610fcf8461179f565b61177a565b905082815260208101848484011115610ff057610fef611b02565b5b610ffb848285611934565b509392505050565b60008135905061101281611b7e565b92915050565b600082601f83011261102d5761102c611afd565b5b813561103d848260208601610fc1565b91505092915050565b60008135905061105581611b95565b92915050565b60008135905061106a81611bac565b92915050565b60006020828403121561108657611085611b0c565b5b600061109484828501611003565b91505092915050565b6000602082840312156110b3576110b2611b0c565b5b60006110c184828501611046565b91505092915050565b6000806000606084860312156110e3576110e2611b0c565b5b60006110f186828701611046565b935050602084013567ffffffffffffffff81111561111257611111611b07565b5b61111e86828701611018565b925050604061112f8682870161105b565b9150509250925092565b6000611145838361138c565b905092915050565b6000611159838361149e565b905092915050565b61116a816118b2565b82525050565b611179816118b2565b82525050565b600061118a8261180a565b6111948185611845565b9350836020820285016111a6856117d0565b8060005b858110156111e257848403895281516111c38582611139565b94506111ce8361182b565b925060208a019950506001810190506111aa565b50829750879550505050505092915050565b60006111ff82611815565b6112098185611845565b93508360208202850161121b856117e0565b8060005b8581101561125657848403895281611237858261114d565b945061124283611838565b925060208a0199505060018101905061121f565b50829750879550505050505092915050565b611271816118fe565b82525050565b600061128282611820565b61128c8185611856565b935061129c818560208601611943565b6112a581611b11565b840191505092915050565b60006112bb82611820565b6112c58185611867565b93506112d5818560208601611943565b6112de81611b11565b840191505092915050565b600081546112f681611976565b6113008186611856565b9450600182166000811461131b576001811461132d57611360565b60ff1983168652602086019350611360565b611336856117f5565b60005b8381101561135857815481890152600182019150602081019050611339565b808801955050505b50505092915050565b6000611376602283611867565b915061138182611b2f565b604082019050919050565b600060c0830160008301516113a4600086018261155f565b50602083015184820360208601526113bc8282611277565b91505060408301516113d1604086018261155f565b5060608301516113e46060860182611161565b5060808301516113f7608086018261155f565b5060a083015161140a60a086018261157d565b508091505092915050565b600060c08301600083015161142d600086018261155f565b50602083015184820360208601526114458282611277565b915050604083015161145a604086018261155f565b50606083015161146d6060860182611161565b506080830151611480608086018261155f565b5060a083015161149360a086018261157d565b508091505092915050565b600060c0830160008084015490506114b5816119c2565b6114c2600087018261155f565b506001840185830360208701526114d983826112e9565b925050600284015490506114ec816119c2565b6114f9604087018261155f565b506003840154905061150a816119a8565b6115176060870182611161565b5060048401549050611528816119c2565b611535608087018261155f565b5060058401549050611546816119dc565b61155360a087018261157d565b50819250505092915050565b611568816118e4565b82525050565b611577816118e4565b82525050565b611586816118ee565b82525050565b611595816118ee565b82525050565b600060208201905081810360008301526115b5818461117f565b905092915050565b600060208201905081810360008301526115d781846111f4565b905092915050565b60006020820190506115f46000830184611268565b92915050565b6000602082019050818103600083015261161381611369565b9050919050565b600060208201905081810360008301526116348184611415565b905092915050565b6000608082019050611651600083018761156e565b818103602083015261166381866112b0565b9050818103604083015261167781856112b0565b9050611686606083018461156e565b95945050505050565b600060c0820190506116a4600083018961156e565b81810360208301526116b681886112b0565b90506116c5604083018761156e565b6116d26060830186611170565b6116df608083018561156e565b6116ec60a083018461158c565b979650505050505050565b600060408201905061170c600083018561156e565b611719602083018461156e565b9392505050565b600060a082019050611735600083018861156e565b611742602083018761156e565b818103604083015261175481866112b0565b9050611763606083018561158c565b611770608083018461156e565b9695505050505050565b6000611784611795565b905061179082826119f6565b919050565b6000604051905090565b600067ffffffffffffffff8211156117ba576117b9611ace565b5b6117c382611b11565b9050602081019050919050565b6000819050602082019050919050565b60008190508160005260206000209050919050565b60008190508160005260206000209050919050565b600081519050919050565b600081549050919050565b600081519050919050565b6000602082019050919050565b6000600682019050919050565b600082825260208201905092915050565b600082825260208201905092915050565b600082825260208201905092915050565b600073ffffffffffffffffffffffffffffffffffffffff82169050919050565b6000819050919050565b600063ffffffff82169050919050565b60006118bd826118c4565b9050919050565b600073ffffffffffffffffffffffffffffffffffffffff82169050919050565b6000819050919050565b600063ffffffff82169050919050565b600061190982611910565b9050919050565b600061191b82611922565b9050919050565b600061192d826118c4565b9050919050565b82818337600083830152505050565b60005b83811015611961578082015181840152602081019050611946565b83811115611970576000848401525b50505050565b6000600282049050600182168061198e57607f821691505b602082108114156119a2576119a1611a9f565b5b50919050565b60006119bb6119b683611b22565b611878565b9050919050565b60006119d56119d083611b22565b611898565b9050919050565b60006119ef6119ea83611b22565b6118a2565b9050919050565b6119ff82611b11565b810181811067ffffffffffffffff82111715611a1e57611a1d611ace565b5b80604052505050565b6000611a32826118e4565b91507fffffffffffffffffffffffffffffffffffffffffffffffffffffffffffffffff821415611a6557611a64611a70565b5b600182019050919050565b7f4e487b7100000000000000000000000000000000000000000000000000000000600052601160045260246000fd5b7f4e487b7100000000000000000000000000000000000000000000000000000000600052602260045260246000fd5b7f4e487b7100000000000000000000000000000000000000000000000000000000600052604160045260246000fd5b600080fd5b600080fd5b600080fd5b600080fd5b6000601f19601f8301169050919050565b60008160001c9050919050565b7f546865726520617265206e6f2070726f647563747320746f206c69737420796560008201527f7421000000000000000000000000000000000000000000000000000000000000602082015250565b611b87816118b2565b8114611b9257600080fd5b50565b611b9e816118e4565b8114611ba957600080fd5b50565b611bb5816118ee565b8114611bc057600080fd5b5056fea26469706673582212205e463b0bc407a51c2b9da2c11b8604e90ad60b93a7b970cc4d8dade9649b44eb64736f6c63430008070033",
					"opcodes": "PUSH1 0x80 PUSH1 0x40 MSTORE CALLVALUE DUP1 ISZERO PUSH3 0x11 JUMPI PUSH1 0x0 DUP1 REVERT JUMPDEST POP PUSH1 0x40 MLOAD PUSH3 0x1D23 CODESIZE SUB DUP1 PUSH3 0x1D23 DUP4 CODECOPY DUP2 DUP2 ADD PUSH1 0x40 MSTORE DUP2 ADD SWAP1 PUSH3 0x37 SWAP2 SWAP1 PUSH3 0x95 JUMP JUMPDEST DUP1 PUSH1 0x0 DUP1 PUSH2 0x100 EXP DUP2 SLOAD DUP2 PUSH20 0xFFFFFFFFFFFFFFFFFFFFFFFFFFFFFFFFFFFFFFFF MUL NOT AND SWAP1 DUP4 PUSH20 0xFFFFFFFFFFFFFFFFFFFFFFFFFFFFFFFFFFFFFFFF AND MUL OR SWAP1 SSTORE POP POP PUSH3 0x11A JUMP JUMPDEST PUSH1 0x0 DUP2 MLOAD SWAP1 POP PUSH3 0x8F DUP2 PUSH3 0x100 JUMP JUMPDEST SWAP3 SWAP2 POP POP JUMP JUMPDEST PUSH1 0x0 PUSH1 0x20 DUP3 DUP5 SUB SLT ISZERO PUSH3 0xAE JUMPI PUSH3 0xAD PUSH3 0xFB JUMP JUMPDEST JUMPDEST PUSH1 0x0 PUSH3 0xBE DUP5 DUP3 DUP6 ADD PUSH3 0x7E JUMP JUMPDEST SWAP2 POP POP SWAP3 SWAP2 POP POP JUMP JUMPDEST PUSH1 0x0 PUSH3 0xD4 DUP3 PUSH3 0xDB JUMP JUMPDEST SWAP1 POP SWAP2 SWAP1 POP JUMP JUMPDEST PUSH1 0x0 PUSH20 0xFFFFFFFFFFFFFFFFFFFFFFFFFFFFFFFFFFFFFFFF DUP3 AND SWAP1 POP SWAP2 SWAP1 POP JUMP JUMPDEST PUSH1 0x0 DUP1 REVERT JUMPDEST PUSH3 0x10B DUP2 PUSH3 0xC7 JUMP JUMPDEST DUP2 EQ PUSH3 0x117 JUMPI PUSH1 0x0 DUP1 REVERT JUMPDEST POP JUMP JUMPDEST PUSH2 0x1BF9 DUP1 PUSH3 0x12A PUSH1 0x0 CODECOPY PUSH1 0x0 RETURN INVALID PUSH1 0x80 PUSH1 0x40 MSTORE CALLVALUE DUP1 ISZERO PUSH2 0x10 JUMPI PUSH1 0x0 DUP1 REVERT JUMPDEST POP PUSH1 0x4 CALLDATASIZE LT PUSH2 0x88 JUMPI PUSH1 0x0 CALLDATALOAD PUSH1 0xE0 SHR DUP1 PUSH4 0xA87430BA GT PUSH2 0x5B JUMPI DUP1 PUSH4 0xA87430BA EQ PUSH2 0x118 JUMPI DUP1 PUSH4 0xBFB231D2 EQ PUSH2 0x14B JUMPI DUP1 PUSH4 0xCD2F0710 EQ PUSH2 0x180 JUMPI DUP1 PUSH4 0xFC0C546A EQ PUSH2 0x1B0 JUMPI PUSH2 0x88 JUMP JUMPDEST DUP1 PUSH4 0x1750E74 EQ PUSH2 0x8D JUMPI DUP1 PUSH4 0x3D4D3600 EQ PUSH2 0xA9 JUMPI DUP1 PUSH4 0x4EFD1797 EQ PUSH2 0xDE JUMPI DUP1 PUSH4 0x5D9EB55C EQ PUSH2 0xFA JUMPI JUMPDEST PUSH1 0x0 DUP1 REVERT JUMPDEST PUSH2 0xA7 PUSH1 0x4 DUP1 CALLDATASIZE SUB DUP2 ADD SWAP1 PUSH2 0xA2 SWAP2 SWAP1 PUSH2 0x109D JUMP JUMPDEST PUSH2 0x1CE JUMP JUMPDEST STOP JUMPDEST PUSH2 0xC3 PUSH1 0x4 DUP1 CALLDATASIZE SUB DUP2 ADD SWAP1 PUSH2 0xBE SWAP2 SWAP1 PUSH2 0x109D JUMP JUMPDEST PUSH2 0x2D4 JUMP JUMPDEST PUSH1 0x40 MLOAD PUSH2 0xD5 SWAP7 SWAP6 SWAP5 SWAP4 SWAP3 SWAP2 SWAP1 PUSH2 0x168F JUMP JUMPDEST PUSH1 0x40 MLOAD DUP1 SWAP2 SUB SWAP1 RETURN JUMPDEST PUSH2 0xF8 PUSH1 0x4 DUP1 CALLDATASIZE SUB DUP2 ADD SWAP1 PUSH2 0xF3 SWAP2 SWAP1 PUSH2 0x10CA JUMP JUMPDEST PUSH2 0x3D8 JUMP JUMPDEST STOP JUMPDEST PUSH2 0x102 PUSH2 0x844 JUMP JUMPDEST PUSH1 0x40 MLOAD PUSH2 0x10F SWAP2 SWAP1 PUSH2 0x159B JUMP JUMPDEST PUSH1 0x40 MLOAD DUP1 SWAP2 SUB SWAP1 RETURN JUMPDEST PUSH2 0x132 PUSH1 0x4 DUP1 CALLDATASIZE SUB DUP2 ADD SWAP1 PUSH2 0x12D SWAP2 SWAP1 PUSH2 0x1070 JUMP JUMPDEST PUSH2 0xA6A JUMP JUMPDEST PUSH1 0x40 MLOAD PUSH2 0x142 SWAP5 SWAP4 SWAP3 SWAP2 SWAP1 PUSH2 0x163C JUMP JUMPDEST PUSH1 0x40 MLOAD DUP1 SWAP2 SUB SWAP1 RETURN JUMPDEST PUSH2 0x165 PUSH1 0x4 DUP1 CALLDATASIZE SUB DUP2 ADD SWAP1 PUSH2 0x160 SWAP2 SWAP1 PUSH2 0x109D JUMP JUMPDEST PUSH2 0xBAA JUMP JUMPDEST PUSH1 0x40 MLOAD PUSH2 0x177 SWAP7 SWAP6 SWAP5 SWAP4 SWAP3 SWAP2 SWAP1 PUSH2 0x168F JUMP JUMPDEST PUSH1 0x40 MLOAD DUP1 SWAP2 SUB SWAP1 RETURN JUMPDEST PUSH2 0x19A PUSH1 0x4 DUP1 CALLDATASIZE SUB DUP2 ADD SWAP1 PUSH2 0x195 SWAP2 SWAP1 PUSH2 0x109D JUMP JUMPDEST PUSH2 0xC9E JUMP JUMPDEST PUSH1 0x40 MLOAD PUSH2 0x1A7 SWAP2 SWAP1 PUSH2 0x161A JUMP JUMPDEST PUSH1 0x40 MLOAD DUP1 SWAP2 SUB SWAP1 RETURN JUMPDEST PUSH2 0x1B8 PUSH2 0xDF7 JUMP JUMPDEST PUSH1 0x40 MLOAD PUSH2 0x1C5 SWAP2 SWAP1 PUSH2 0x15DF JUMP JUMPDEST PUSH1 0x40 MLOAD DUP1 SWAP2 SUB SWAP1 RETURN JUMPDEST PUSH1 0x3 PUSH1 0x0 DUP3 DUP2 MSTORE PUSH1 0x20 ADD SWAP1 DUP2 MSTORE PUSH1 0x20 ADD PUSH1 0x0 KECCAK256 PUSH1 0x3 ADD PUSH1 0x0 SWAP1 SLOAD SWAP1 PUSH2 0x100 EXP SWAP1 DIV PUSH20 0xFFFFFFFFFFFFFFFFFFFFFFFFFFFFFFFFFFFFFFFF AND DUP1 PUSH20 0xFFFFFFFFFFFFFFFFFFFFFFFFFFFFFFFFFFFFFFFF AND CALLER PUSH20 0xFFFFFFFFFFFFFFFFFFFFFFFFFFFFFFFFFFFFFFFF AND EQ ISZERO PUSH2 0x23E JUMPI PUSH1 0x0 DUP1 REVERT JUMPDEST PUSH1 0x3 PUSH1 0x0 DUP4 DUP2 MSTORE PUSH1 0x20 ADD SWAP1 DUP2 MSTORE PUSH1 0x20 ADD PUSH1 0x0 KECCAK256 PUSH1 0x2 ADD PUSH1 0x0 DUP2 SLOAD DUP1 SWAP3 SWAP2 SWAP1 PUSH2 0x265 SWAP1 PUSH2 0x1A27 JUMP JUMPDEST SWAP2 SWAP1 POP SSTORE POP CALLER PUSH20 0xFFFFFFFFFFFFFFFFFFFFFFFFFFFFFFFFFFFFFFFF AND PUSH32 0x1ED364E6F46A455FAC23816D3700669FF134C7A5FBE0240F52D932F834102462 DUP4 PUSH1 0x3 PUSH1 0x0 DUP7 DUP2 MSTORE PUSH1 0x20 ADD SWAP1 DUP2 MSTORE PUSH1 0x20 ADD PUSH1 0x0 KECCAK256 PUSH1 0x2 ADD SLOAD PUSH1 0x40 MLOAD PUSH2 0x2C8 SWAP3 SWAP2 SWAP1 PUSH2 0x16F7 JUMP JUMPDEST PUSH1 0x40 MLOAD DUP1 SWAP2 SUB SWAP1 LOG2 POP POP JUMP JUMPDEST PUSH1 0x1 DUP2 DUP2 SLOAD DUP2 LT PUSH2 0x2E4 JUMPI PUSH1 0x0 DUP1 REVERT JUMPDEST SWAP1 PUSH1 0x0 MSTORE PUSH1 0x20 PUSH1 0x0 KECCAK256 SWAP1 PUSH1 0x6 MUL ADD PUSH1 0x0 SWAP2 POP SWAP1 POP DUP1 PUSH1 0x0 ADD SLOAD SWAP1 DUP1 PUSH1 0x1 ADD DUP1 SLOAD PUSH2 0x30D SWAP1 PUSH2 0x1976 JUMP JUMPDEST DUP1 PUSH1 0x1F ADD PUSH1 0x20 DUP1 SWAP2 DIV MUL PUSH1 0x20 ADD PUSH1 0x40 MLOAD SWAP1 DUP2 ADD PUSH1 0x40 MSTORE DUP1 SWAP3 SWAP2 SWAP1 DUP2 DUP2 MSTORE PUSH1 0x20 ADD DUP3 DUP1 SLOAD PUSH2 0x339 SWAP1 PUSH2 0x1976 JUMP JUMPDEST DUP1 ISZERO PUSH2 0x386 JUMPI DUP1 PUSH1 0x1F LT PUSH2 0x35B JUMPI PUSH2 0x100 DUP1 DUP4 SLOAD DIV MUL DUP4 MSTORE SWAP2 PUSH1 0x20 ADD SWAP2 PUSH2 0x386 JUMP JUMPDEST DUP3 ADD SWAP2 SWAP1 PUSH1 0x0 MSTORE PUSH1 0x20 PUSH1 0x0 KECCAK256 SWAP1 JUMPDEST DUP2 SLOAD DUP2 MSTORE SWAP1 PUSH1 0x1 ADD SWAP1 PUSH1 0x20 ADD DUP1 DUP4 GT PUSH2 0x369 JUMPI DUP3 SWAP1 SUB PUSH1 0x1F AND DUP3 ADD SWAP2 JUMPDEST POP POP POP POP POP SWAP1 DUP1 PUSH1 0x2 ADD SLOAD SWAP1 DUP1 PUSH1 0x3 ADD PUSH1 0x0 SWAP1 SLOAD SWAP1 PUSH2 0x100 EXP SWAP1 DIV PUSH20 0xFFFFFFFFFFFFFFFFFFFFFFFFFFFFFFFFFFFFFFFF AND SWAP1 DUP1 PUSH1 0x4 ADD SLOAD SWAP1 DUP1 PUSH1 0x5 ADD PUSH1 0x0 SWAP1 SLOAD SWAP1 PUSH2 0x100 EXP SWAP1 DIV PUSH4 0xFFFFFFFF AND SWAP1 POP DUP7 JUMP JUMPDEST CALLER DUP1 PUSH20 0xFFFFFFFFFFFFFFFFFFFFFFFFFFFFFFFFFFFFFFFF AND CALLER PUSH20 0xFFFFFFFFFFFFFFFFFFFFFFFFFFFFFFFFFFFFFFFF AND EQ PUSH2 0x411 JUMPI PUSH1 0x0 DUP1 REVERT JUMPDEST PUSH1 0x40 MLOAD DUP1 PUSH1 0xC0 ADD PUSH1 0x40 MSTORE DUP1 PUSH2 0x426 PUSH1 0x4 PUSH2 0xE1B JUMP JUMPDEST DUP2 MSTORE PUSH1 0x20 ADD DUP5 DUP2 MSTORE PUSH1 0x20 ADD PUSH1 0x0 DUP2 MSTORE PUSH1 0x20 ADD CALLER PUSH20 0xFFFFFFFFFFFFFFFFFFFFFFFFFFFFFFFFFFFFFFFF AND DUP2 MSTORE PUSH1 0x20 ADD DUP6 DUP2 MSTORE PUSH1 0x20 ADD DUP4 PUSH4 0xFFFFFFFF AND DUP2 MSTORE POP PUSH1 0x3 PUSH1 0x0 PUSH2 0x472 PUSH1 0x4 PUSH2 0xE1B JUMP JUMPDEST DUP2 MSTORE PUSH1 0x20 ADD SWAP1 DUP2 MSTORE PUSH1 0x20 ADD PUSH1 0x0 KECCAK256 PUSH1 0x0 DUP3 ADD MLOAD DUP2 PUSH1 0x0 ADD SSTORE PUSH1 0x20 DUP3 ADD MLOAD DUP2 PUSH1 0x1 ADD SWAP1 DUP1 MLOAD SWAP1 PUSH1 0x20 ADD SWAP1 PUSH2 0x4A6 SWAP3 SWAP2 SWAP1 PUSH2 0xE3F JUMP JUMPDEST POP PUSH1 0x40 DUP3 ADD MLOAD DUP2 PUSH1 0x2 ADD SSTORE PUSH1 0x60 DUP3 ADD MLOAD DUP2 PUSH1 0x3 ADD PUSH1 0x0 PUSH2 0x100 EXP DUP2 SLOAD DUP2 PUSH20 0xFFFFFFFFFFFFFFFFFFFFFFFFFFFFFFFFFFFFFFFF MUL NOT AND SWAP1 DUP4 PUSH20 0xFFFFFFFFFFFFFFFFFFFFFFFFFFFFFFFFFFFFFFFF AND MUL OR SWAP1 SSTORE POP PUSH1 0x80 DUP3 ADD MLOAD DUP2 PUSH1 0x4 ADD SSTORE PUSH1 0xA0 DUP3 ADD MLOAD DUP2 PUSH1 0x5 ADD PUSH1 0x0 PUSH2 0x100 EXP DUP2 SLOAD DUP2 PUSH4 0xFFFFFFFF MUL NOT AND SWAP1 DUP4 PUSH4 0xFFFFFFFF AND MUL OR SWAP1 SSTORE POP SWAP1 POP POP PUSH1 0x2 PUSH1 0x0 CALLER PUSH20 0xFFFFFFFFFFFFFFFFFFFFFFFFFFFFFFFFFFFFFFFF AND PUSH20 0xFFFFFFFFFFFFFFFFFFFFFFFFFFFFFFFFFFFFFFFF AND DUP2 MSTORE PUSH1 0x20 ADD SWAP1 DUP2 MSTORE PUSH1 0x20 ADD PUSH1 0x0 KECCAK256 PUSH1 0x4 ADD PUSH1 0x3 PUSH1 0x0 PUSH2 0x57C PUSH1 0x4 PUSH2 0xE1B JUMP JUMPDEST DUP2 MSTORE PUSH1 0x20 ADD SWAP1 DUP2 MSTORE PUSH1 0x20 ADD PUSH1 0x0 KECCAK256 SWAP1 DUP1 PUSH1 0x1 DUP2 SLOAD ADD DUP1 DUP3 SSTORE DUP1 SWAP2 POP POP PUSH1 0x1 SWAP1 SUB SWAP1 PUSH1 0x0 MSTORE PUSH1 0x20 PUSH1 0x0 KECCAK256 SWAP1 PUSH1 0x6 MUL ADD PUSH1 0x0 SWAP1 SWAP2 SWAP1 SWAP2 SWAP1 SWAP2 POP PUSH1 0x0 DUP3 ADD SLOAD DUP2 PUSH1 0x0 ADD SSTORE PUSH1 0x1 DUP3 ADD DUP2 PUSH1 0x1 ADD SWAP1 DUP1 SLOAD PUSH2 0x5D1 SWAP1 PUSH2 0x1976 JUMP JUMPDEST PUSH2 0x5DC SWAP3 SWAP2 SWAP1 PUSH2 0xEC5 JUMP JUMPDEST POP PUSH1 0x2 DUP3 ADD SLOAD DUP2 PUSH1 0x2 ADD SSTORE PUSH1 0x3 DUP3 ADD PUSH1 0x0 SWAP1 SLOAD SWAP1 PUSH2 0x100 EXP SWAP1 DIV PUSH20 0xFFFFFFFFFFFFFFFFFFFFFFFFFFFFFFFFFFFFFFFF AND DUP2 PUSH1 0x3 ADD PUSH1 0x0 PUSH2 0x100 EXP DUP2 SLOAD DUP2 PUSH20 0xFFFFFFFFFFFFFFFFFFFFFFFFFFFFFFFFFFFFFFFF MUL NOT AND SWAP1 DUP4 PUSH20 0xFFFFFFFFFFFFFFFFFFFFFFFFFFFFFFFFFFFFFFFF AND MUL OR SWAP1 SSTORE POP PUSH1 0x4 DUP3 ADD SLOAD DUP2 PUSH1 0x4 ADD SSTORE PUSH1 0x5 DUP3 ADD PUSH1 0x0 SWAP1 SLOAD SWAP1 PUSH2 0x100 EXP SWAP1 DIV PUSH4 0xFFFFFFFF AND DUP2 PUSH1 0x5 ADD PUSH1 0x0 PUSH2 0x100 EXP DUP2 SLOAD DUP2 PUSH4 0xFFFFFFFF MUL NOT AND SWAP1 DUP4 PUSH4 0xFFFFFFFF AND MUL OR SWAP1 SSTORE POP POP POP PUSH1 0x1 PUSH1 0x3 PUSH1 0x0 PUSH2 0x6A1 PUSH1 0x4 PUSH2 0xE1B JUMP JUMPDEST DUP2 MSTORE PUSH1 0x20 ADD SWAP1 DUP2 MSTORE PUSH1 0x20 ADD PUSH1 0x0 KECCAK256 SWAP1 DUP1 PUSH1 0x1 DUP2 SLOAD ADD DUP1 DUP3 SSTORE DUP1 SWAP2 POP POP PUSH1 0x1 SWAP1 SUB SWAP1 PUSH1 0x0 MSTORE PUSH1 0x20 PUSH1 0x0 KECCAK256 SWAP1 PUSH1 0x6 MUL ADD PUSH1 0x0 SWAP1 SWAP2 SWAP1 SWAP2 SWAP1 SWAP2 POP PUSH1 0x0 DUP3 ADD SLOAD DUP2 PUSH1 0x0 ADD SSTORE PUSH1 0x1 DUP3 ADD DUP2 PUSH1 0x1 ADD SWAP1 DUP1 SLOAD PUSH2 0x6F6 SWAP1 PUSH2 0x1976 JUMP JUMPDEST PUSH2 0x701 SWAP3 SWAP2 SWAP1 PUSH2 0xEC5 JUMP JUMPDEST POP PUSH1 0x2 DUP3 ADD SLOAD DUP2 PUSH1 0x2 ADD SSTORE PUSH1 0x3 DUP3 ADD PUSH1 0x0 SWAP1 SLOAD SWAP1 PUSH2 0x100 EXP SWAP1 DIV PUSH20 0xFFFFFFFFFFFFFFFFFFFFFFFFFFFFFFFFFFFFFFFF AND DUP2 PUSH1 0x3 ADD PUSH1 0x0 PUSH2 0x100 EXP DUP2 SLOAD DUP2 PUSH20 0xFFFFFFFFFFFFFFFFFFFFFFFFFFFFFFFFFFFFFFFF MUL NOT AND SWAP1 DUP4 PUSH20 0xFFFFFFFFFFFFFFFFFFFFFFFFFFFFFFFFFFFFFFFF AND MUL OR SWAP1 SSTORE POP PUSH1 0x4 DUP3 ADD SLOAD DUP2 PUSH1 0x4 ADD SSTORE PUSH1 0x5 DUP3 ADD PUSH1 0x0 SWAP1 SLOAD SWAP1 PUSH2 0x100 EXP SWAP1 DIV PUSH4 0xFFFFFFFF AND DUP2 PUSH1 0x5 ADD PUSH1 0x0 PUSH2 0x100 EXP DUP2 SLOAD DUP2 PUSH4 0xFFFFFFFF MUL NOT AND SWAP1 DUP4 PUSH4 0xFFFFFFFF AND MUL OR SWAP1 SSTORE POP POP POP PUSH2 0x7C0 PUSH1 0x4 PUSH2 0xE29 JUMP JUMPDEST CALLER PUSH20 0xFFFFFFFFFFFFFFFFFFFFFFFFFFFFFFFFFFFFFFFF AND PUSH32 0x9A5B8B5CB7F9C536EA5DB1A94142C9F716FB3A8698A9C70A5B8BFAD3922CB06C PUSH2 0x802 PUSH1 0x4 PUSH2 0xE1B JUMP JUMPDEST DUP7 DUP7 DUP7 PUSH1 0x3 PUSH1 0x0 PUSH2 0x813 PUSH1 0x4 PUSH2 0xE1B JUMP JUMPDEST DUP2 MSTORE PUSH1 0x20 ADD SWAP1 DUP2 MSTORE PUSH1 0x20 ADD PUSH1 0x0 KECCAK256 PUSH1 0x2 ADD SLOAD PUSH1 0x40 MLOAD PUSH2 0x836 SWAP6 SWAP5 SWAP4 SWAP3 SWAP2 SWAP1 PUSH2 0x1720 JUMP JUMPDEST PUSH1 0x40 MLOAD DUP1 SWAP2 SUB SWAP1 LOG2 POP POP POP POP JUMP JUMPDEST PUSH1 0x60 PUSH1 0x0 PUSH2 0x852 PUSH1 0x4 PUSH2 0xE1B JUMP JUMPDEST GT PUSH2 0x892 JUMPI PUSH1 0x40 MLOAD PUSH32 0x8C379A000000000000000000000000000000000000000000000000000000000 DUP2 MSTORE PUSH1 0x4 ADD PUSH2 0x889 SWAP1 PUSH2 0x15FA JUMP JUMPDEST PUSH1 0x40 MLOAD DUP1 SWAP2 SUB SWAP1 REVERT JUMPDEST CALLER PUSH20 0xFFFFFFFFFFFFFFFFFFFFFFFFFFFFFFFFFFFFFFFF AND PUSH32 0x440C078A5E11BFF85C6B6D7C52F378C8220355BD3331EC889638C0ECA883670C PUSH1 0x1 PUSH1 0x40 MLOAD PUSH2 0x8D9 SWAP2 SWAP1 PUSH2 0x15BD JUMP JUMPDEST PUSH1 0x40 MLOAD DUP1 SWAP2 SUB SWAP1 LOG2 PUSH1 0x1 DUP1 SLOAD DUP1 PUSH1 0x20 MUL PUSH1 0x20 ADD PUSH1 0x40 MLOAD SWAP1 DUP2 ADD PUSH1 0x40 MSTORE DUP1 SWAP3 SWAP2 SWAP1 DUP2 DUP2 MSTORE PUSH1 0x20 ADD PUSH1 0x0 SWAP1 JUMPDEST DUP3 DUP3 LT ISZERO PUSH2 0xA61 JUMPI DUP4 DUP3 SWAP1 PUSH1 0x0 MSTORE PUSH1 0x20 PUSH1 0x0 KECCAK256 SWAP1 PUSH1 0x6 MUL ADD PUSH1 0x40 MLOAD DUP1 PUSH1 0xC0 ADD PUSH1 0x40 MSTORE SWAP1 DUP2 PUSH1 0x0 DUP3 ADD SLOAD DUP2 MSTORE PUSH1 0x20 ADD PUSH1 0x1 DUP3 ADD DUP1 SLOAD PUSH2 0x940 SWAP1 PUSH2 0x1976 JUMP JUMPDEST DUP1 PUSH1 0x1F ADD PUSH1 0x20 DUP1 SWAP2 DIV MUL PUSH1 0x20 ADD PUSH1 0x40 MLOAD SWAP1 DUP2 ADD PUSH1 0x40 MSTORE DUP1 SWAP3 SWAP2 SWAP1 DUP2 DUP2 MSTORE PUSH1 0x20 ADD DUP3 DUP1 SLOAD PUSH2 0x96C SWAP1 PUSH2 0x1976 JUMP JUMPDEST DUP1 ISZERO PUSH2 0x9B9 JUMPI DUP1 PUSH1 0x1F LT PUSH2 0x98E JUMPI PUSH2 0x100 DUP1 DUP4 SLOAD DIV MUL DUP4 MSTORE SWAP2 PUSH1 0x20 ADD SWAP2 PUSH2 0x9B9 JUMP JUMPDEST DUP3 ADD SWAP2 SWAP1 PUSH1 0x0 MSTORE PUSH1 0x20 PUSH1 0x0 KECCAK256 SWAP1 JUMPDEST DUP2 SLOAD DUP2 MSTORE SWAP1 PUSH1 0x1 ADD SWAP1 PUSH1 0x20 ADD DUP1 DUP4 GT PUSH2 0x99C JUMPI DUP3 SWAP1 SUB PUSH1 0x1F AND DUP3 ADD SWAP2 JUMPDEST POP POP POP POP POP DUP2 MSTORE PUSH1 0x20 ADD PUSH1 0x2 DUP3 ADD SLOAD DUP2 MSTORE PUSH1 0x20 ADD PUSH1 0x3 DUP3 ADD PUSH1 0x0 SWAP1 SLOAD SWAP1 PUSH2 0x100 EXP SWAP1 DIV PUSH20 0xFFFFFFFFFFFFFFFFFFFFFFFFFFFFFFFFFFFFFFFF AND PUSH20 0xFFFFFFFFFFFFFFFFFFFFFFFFFFFFFFFFFFFFFFFF AND PUSH20 0xFFFFFFFFFFFFFFFFFFFFFFFFFFFFFFFFFFFFFFFF AND DUP2 MSTORE PUSH1 0x20 ADD PUSH1 0x4 DUP3 ADD SLOAD DUP2 MSTORE PUSH1 0x20 ADD PUSH1 0x5 DUP3 ADD PUSH1 0x0 SWAP1 SLOAD SWAP1 PUSH2 0x100 EXP SWAP1 DIV PUSH4 0xFFFFFFFF AND PUSH4 0xFFFFFFFF AND PUSH4 0xFFFFFFFF AND DUP2 MSTORE POP POP DUP2 MSTORE PUSH1 0x20 ADD SWAP1 PUSH1 0x1 ADD SWAP1 PUSH2 0x903 JUMP JUMPDEST POP POP POP POP SWAP1 POP SWAP1 JUMP JUMPDEST PUSH1 0x2 PUSH1 0x20 MSTORE DUP1 PUSH1 0x0 MSTORE PUSH1 0x40 PUSH1 0x0 KECCAK256 PUSH1 0x0 SWAP2 POP SWAP1 POP DUP1 PUSH1 0x0 ADD SLOAD SWAP1 DUP1 PUSH1 0x1 ADD DUP1 SLOAD PUSH2 0xA93 SWAP1 PUSH2 0x1976 JUMP JUMPDEST DUP1 PUSH1 0x1F ADD PUSH1 0x20 DUP1 SWAP2 DIV MUL PUSH1 0x20 ADD PUSH1 0x40 MLOAD SWAP1 DUP2 ADD PUSH1 0x40 MSTORE DUP1 SWAP3 SWAP2 SWAP1 DUP2 DUP2 MSTORE PUSH1 0x20 ADD DUP3 DUP1 SLOAD PUSH2 0xABF SWAP1 PUSH2 0x1976 JUMP JUMPDEST DUP1 ISZERO PUSH2 0xB0C JUMPI DUP1 PUSH1 0x1F LT PUSH2 0xAE1 JUMPI PUSH2 0x100 DUP1 DUP4 SLOAD DIV MUL DUP4 MSTORE SWAP2 PUSH1 0x20 ADD SWAP2 PUSH2 0xB0C JUMP JUMPDEST DUP3 ADD SWAP2 SWAP1 PUSH1 0x0 MSTORE PUSH1 0x20 PUSH1 0x0 KECCAK256 SWAP1 JUMPDEST DUP2 SLOAD DUP2 MSTORE SWAP1 PUSH1 0x1 ADD SWAP1 PUSH1 0x20 ADD DUP1 DUP4 GT PUSH2 0xAEF JUMPI DUP3 SWAP1 SUB PUSH1 0x1F AND DUP3 ADD SWAP2 JUMPDEST POP POP POP POP POP SWAP1 DUP1 PUSH1 0x2 ADD DUP1 SLOAD PUSH2 0xB21 SWAP1 PUSH2 0x1976 JUMP JUMPDEST DUP1 PUSH1 0x1F ADD PUSH1 0x20 DUP1 SWAP2 DIV MUL PUSH1 0x20 ADD PUSH1 0x40 MLOAD SWAP1 DUP2 ADD PUSH1 0x40 MSTORE DUP1 SWAP3 SWAP2 SWAP1 DUP2 DUP2 MSTORE PUSH1 0x20 ADD DUP3 DUP1 SLOAD PUSH2 0xB4D SWAP1 PUSH2 0x1976 JUMP JUMPDEST DUP1 ISZERO PUSH2 0xB9A JUMPI DUP1 PUSH1 0x1F LT PUSH2 0xB6F JUMPI PUSH2 0x100 DUP1 DUP4 SLOAD DIV MUL DUP4 MSTORE SWAP2 PUSH1 0x20 ADD SWAP2 PUSH2 0xB9A JUMP JUMPDEST DUP3 ADD SWAP2 SWAP1 PUSH1 0x0 MSTORE PUSH1 0x20 PUSH1 0x0 KECCAK256 SWAP1 JUMPDEST DUP2 SLOAD DUP2 MSTORE SWAP1 PUSH1 0x1 ADD SWAP1 PUSH1 0x20 ADD DUP1 DUP4 GT PUSH2 0xB7D JUMPI DUP3 SWAP1 SUB PUSH1 0x1F AND DUP3 ADD SWAP2 JUMPDEST POP POP POP POP POP SWAP1 DUP1 PUSH1 0x5 ADD SLOAD SWAP1 POP DUP5 JUMP JUMPDEST PUSH1 0x3 PUSH1 0x20 MSTORE DUP1 PUSH1 0x0 MSTORE PUSH1 0x40 PUSH1 0x0 KECCAK256 PUSH1 0x0 SWAP2 POP SWAP1 POP DUP1 PUSH1 0x0 ADD SLOAD SWAP1 DUP1 PUSH1 0x1 ADD DUP1 SLOAD PUSH2 0xBD3 SWAP1 PUSH2 0x1976 JUMP JUMPDEST DUP1 PUSH1 0x1F ADD PUSH1 0x20 DUP1 SWAP2 DIV MUL PUSH1 0x20 ADD PUSH1 0x40 MLOAD SWAP1 DUP2 ADD PUSH1 0x40 MSTORE DUP1 SWAP3 SWAP2 SWAP1 DUP2 DUP2 MSTORE PUSH1 0x20 ADD DUP3 DUP1 SLOAD PUSH2 0xBFF SWAP1 PUSH2 0x1976 JUMP JUMPDEST DUP1 ISZERO PUSH2 0xC4C JUMPI DUP1 PUSH1 0x1F LT PUSH2 0xC21 JUMPI PUSH2 0x100 DUP1 DUP4 SLOAD DIV MUL DUP4 MSTORE SWAP2 PUSH1 0x20 ADD SWAP2 PUSH2 0xC4C JUMP JUMPDEST DUP3 ADD SWAP2 SWAP1 PUSH1 0x0 MSTORE PUSH1 0x20 PUSH1 0x0 KECCAK256 SWAP1 JUMPDEST DUP2 SLOAD DUP2 MSTORE SWAP1 PUSH1 0x1 ADD SWAP1 PUSH1 0x20 ADD DUP1 DUP4 GT PUSH2 0xC2F JUMPI DUP3 SWAP1 SUB PUSH1 0x1F AND DUP3 ADD SWAP2 JUMPDEST POP POP POP POP POP SWAP1 DUP1 PUSH1 0x2 ADD SLOAD SWAP1 DUP1 PUSH1 0x3 ADD PUSH1 0x0 SWAP1 SLOAD SWAP1 PUSH2 0x100 EXP SWAP1 DIV PUSH20 0xFFFFFFFFFFFFFFFFFFFFFFFFFFFFFFFFFFFFFFFF AND SWAP1 DUP1 PUSH1 0x4 ADD SLOAD SWAP1 DUP1 PUSH1 0x5 ADD PUSH1 0x0 SWAP1 SLOAD SWAP1 PUSH2 0x100 EXP SWAP1 DIV PUSH4 0xFFFFFFFF AND SWAP1 POP DUP7 JUMP JUMPDEST PUSH2 0xCA6 PUSH2 0xF52 JUMP JUMPDEST PUSH1 0x3 PUSH1 0x0 DUP4 DUP2 MSTORE PUSH1 0x20 ADD SWAP1 DUP2 MSTORE PUSH1 0x20 ADD PUSH1 0x0 KECCAK256 PUSH1 0x40 MLOAD DUP1 PUSH1 0xC0 ADD PUSH1 0x40 MSTORE SWAP1 DUP2 PUSH1 0x0 DUP3 ADD SLOAD DUP2 MSTORE PUSH1 0x20 ADD PUSH1 0x1 DUP3 ADD DUP1 SLOAD PUSH2 0xCDE SWAP1 PUSH2 0x1976 JUMP JUMPDEST DUP1 PUSH1 0x1F ADD PUSH1 0x20 DUP1 SWAP2 DIV MUL PUSH1 0x20 ADD PUSH1 0x40 MLOAD SWAP1 DUP2 ADD PUSH1 0x40 MSTORE DUP1 SWAP3 SWAP2 SWAP1 DUP2 DUP2 MSTORE PUSH1 0x20 ADD DUP3 DUP1 SLOAD PUSH2 0xD0A SWAP1 PUSH2 0x1976 JUMP JUMPDEST DUP1 ISZERO PUSH2 0xD57 JUMPI DUP1 PUSH1 0x1F LT PUSH2 0xD2C JUMPI PUSH2 0x100 DUP1 DUP4 SLOAD DIV MUL DUP4 MSTORE SWAP2 PUSH1 0x20 ADD SWAP2 PUSH2 0xD57 JUMP JUMPDEST DUP3 ADD SWAP2 SWAP1 PUSH1 0x0 MSTORE PUSH1 0x20 PUSH1 0x0 KECCAK256 SWAP1 JUMPDEST DUP2 SLOAD DUP2 MSTORE SWAP1 PUSH1 0x1 ADD SWAP1 PUSH1 0x20 ADD DUP1 DUP4 GT PUSH2 0xD3A JUMPI DUP3 SWAP1 SUB PUSH1 0x1F AND DUP3 ADD SWAP2 JUMPDEST POP POP POP POP POP DUP2 MSTORE PUSH1 0x20 ADD PUSH1 0x2 DUP3 ADD SLOAD DUP2 MSTORE PUSH1 0x20 ADD PUSH1 0x3 DUP3 ADD PUSH1 0x0 SWAP1 SLOAD SWAP1 PUSH2 0x100 EXP SWAP1 DIV PUSH20 0xFFFFFFFFFFFFFFFFFFFFFFFFFFFFFFFFFFFFFFFF AND PUSH20 0xFFFFFFFFFFFFFFFFFFFFFFFFFFFFFFFFFFFFFFFF AND PUSH20 0xFFFFFFFFFFFFFFFFFFFFFFFFFFFFFFFFFFFFFFFF AND DUP2 MSTORE PUSH1 0x20 ADD PUSH1 0x4 DUP3 ADD SLOAD DUP2 MSTORE PUSH1 0x20 ADD PUSH1 0x5 DUP3 ADD PUSH1 0x0 SWAP1 SLOAD SWAP1 PUSH2 0x100 EXP SWAP1 DIV PUSH4 0xFFFFFFFF AND PUSH4 0xFFFFFFFF AND PUSH4 0xFFFFFFFF AND DUP2 MSTORE POP POP SWAP1 POP SWAP2 SWAP1 POP JUMP JUMPDEST PUSH1 0x0 DUP1 SLOAD SWAP1 PUSH2 0x100 EXP SWAP1 DIV PUSH20 0xFFFFFFFFFFFFFFFFFFFFFFFFFFFFFFFFFFFFFFFF AND DUP2 JUMP JUMPDEST PUSH1 0x0 DUP2 PUSH1 0x0 ADD SLOAD SWAP1 POP SWAP2 SWAP1 POP JUMP JUMPDEST PUSH1 0x1 DUP2 PUSH1 0x0 ADD PUSH1 0x0 DUP3 DUP3 SLOAD ADD SWAP3 POP POP DUP2 SWAP1 SSTORE POP POP JUMP JUMPDEST DUP3 DUP1 SLOAD PUSH2 0xE4B SWAP1 PUSH2 0x1976 JUMP JUMPDEST SWAP1 PUSH1 0x0 MSTORE PUSH1 0x20 PUSH1 0x0 KECCAK256 SWAP1 PUSH1 0x1F ADD PUSH1 0x20 SWAP1 DIV DUP2 ADD SWAP3 DUP3 PUSH2 0xE6D JUMPI PUSH1 0x0 DUP6 SSTORE PUSH2 0xEB4 JUMP JUMPDEST DUP3 PUSH1 0x1F LT PUSH2 0xE86 JUMPI DUP1 MLOAD PUSH1 0xFF NOT AND DUP4 DUP1 ADD OR DUP6 SSTORE PUSH2 0xEB4 JUMP JUMPDEST DUP3 DUP1 ADD PUSH1 0x1 ADD DUP6 SSTORE DUP3 ISZERO PUSH2 0xEB4 JUMPI SWAP2 DUP3 ADD JUMPDEST DUP3 DUP2 GT ISZERO PUSH2 0xEB3 JUMPI DUP3 MLOAD DUP3 SSTORE SWAP2 PUSH1 0x20 ADD SWAP2 SWAP1 PUSH1 0x1 ADD SWAP1 PUSH2 0xE98 JUMP JUMPDEST JUMPDEST POP SWAP1 POP PUSH2 0xEC1 SWAP2 SWAP1 PUSH2 0xFA4 JUMP JUMPDEST POP SWAP1 JUMP JUMPDEST DUP3 DUP1 SLOAD PUSH2 0xED1 SWAP1 PUSH2 0x1976 JUMP JUMPDEST SWAP1 PUSH1 0x0 MSTORE PUSH1 0x20 PUSH1 0x0 KECCAK256 SWAP1 PUSH1 0x1F ADD PUSH1 0x20 SWAP1 DIV DUP2 ADD SWAP3 DUP3 PUSH2 0xEF3 JUMPI PUSH1 0x0 DUP6 SSTORE PUSH2 0xF41 JUMP JUMPDEST DUP3 PUSH1 0x1F LT PUSH2 0xF04 JUMPI DUP1 SLOAD DUP6 SSTORE PUSH2 0xF41 JUMP JUMPDEST DUP3 DUP1 ADD PUSH1 0x1 ADD DUP6 SSTORE DUP3 ISZERO PUSH2 0xF41 JUMPI PUSH1 0x0 MSTORE PUSH1 0x20 PUSH1 0x0 KECCAK256 SWAP2 PUSH1 0x1F ADD PUSH1 0x20 SWAP1 DIV DUP3 ADD JUMPDEST DUP3 DUP2 GT ISZERO PUSH2 0xF40 JUMPI DUP3 SLOAD DUP3 SSTORE SWAP2 PUSH1 0x1 ADD SWAP2 SWAP1 PUSH1 0x1 ADD SWAP1 PUSH2 0xF25 JUMP JUMPDEST JUMPDEST POP SWAP1 POP PUSH2 0xF4E SWAP2 SWAP1 PUSH2 0xFA4 JUMP JUMPDEST POP SWAP1 JUMP JUMPDEST PUSH1 0x40 MLOAD DUP1 PUSH1 0xC0 ADD PUSH1 0x40 MSTORE DUP1 PUSH1 0x0 DUP2 MSTORE PUSH1 0x20 ADD PUSH1 0x60 DUP2 MSTORE PUSH1 0x20 ADD PUSH1 0x0 DUP2 MSTORE PUSH1 0x20 ADD PUSH1 0x0 PUSH20 0xFFFFFFFFFFFFFFFFFFFFFFFFFFFFFFFFFFFFFFFF AND DUP2 MSTORE PUSH1 0x20 ADD PUSH1 0x0 DUP2 MSTORE PUSH1 0x20 ADD PUSH1 0x0 PUSH4 0xFFFFFFFF AND DUP2 MSTORE POP SWAP1 JUMP JUMPDEST JUMPDEST DUP1 DUP3 GT ISZERO PUSH2 0xFBD JUMPI PUSH1 0x0 DUP2 PUSH1 0x0 SWAP1 SSTORE POP PUSH1 0x1 ADD PUSH2 0xFA5 JUMP JUMPDEST POP SWAP1 JUMP JUMPDEST PUSH1 0x0 PUSH2 0xFD4 PUSH2 0xFCF DUP5 PUSH2 0x179F JUMP JUMPDEST PUSH2 0x177A JUMP JUMPDEST SWAP1 POP DUP3 DUP2 MSTORE PUSH1 0x20 DUP2 ADD DUP5 DUP5 DUP5 ADD GT ISZERO PUSH2 0xFF0 JUMPI PUSH2 0xFEF PUSH2 0x1B02 JUMP JUMPDEST JUMPDEST PUSH2 0xFFB DUP5 DUP3 DUP6 PUSH2 0x1934 JUMP JUMPDEST POP SWAP4 SWAP3 POP POP POP JUMP JUMPDEST PUSH1 0x0 DUP2 CALLDATALOAD SWAP1 POP PUSH2 0x1012 DUP2 PUSH2 0x1B7E JUMP JUMPDEST SWAP3 SWAP2 POP POP JUMP JUMPDEST PUSH1 0x0 DUP3 PUSH1 0x1F DUP4 ADD SLT PUSH2 0x102D JUMPI PUSH2 0x102C PUSH2 0x1AFD JUMP JUMPDEST JUMPDEST DUP2 CALLDATALOAD PUSH2 0x103D DUP5 DUP3 PUSH1 0x20 DUP7 ADD PUSH2 0xFC1 JUMP JUMPDEST SWAP2 POP POP SWAP3 SWAP2 POP POP JUMP JUMPDEST PUSH1 0x0 DUP2 CALLDATALOAD SWAP1 POP PUSH2 0x1055 DUP2 PUSH2 0x1B95 JUMP JUMPDEST SWAP3 SWAP2 POP POP JUMP JUMPDEST PUSH1 0x0 DUP2 CALLDATALOAD SWAP1 POP PUSH2 0x106A DUP2 PUSH2 0x1BAC JUMP JUMPDEST SWAP3 SWAP2 POP POP JUMP JUMPDEST PUSH1 0x0 PUSH1 0x20 DUP3 DUP5 SUB SLT ISZERO PUSH2 0x1086 JUMPI PUSH2 0x1085 PUSH2 0x1B0C JUMP JUMPDEST JUMPDEST PUSH1 0x0 PUSH2 0x1094 DUP5 DUP3 DUP6 ADD PUSH2 0x1003 JUMP JUMPDEST SWAP2 POP POP SWAP3 SWAP2 POP POP JUMP JUMPDEST PUSH1 0x0 PUSH1 0x20 DUP3 DUP5 SUB SLT ISZERO PUSH2 0x10B3 JUMPI PUSH2 0x10B2 PUSH2 0x1B0C JUMP JUMPDEST JUMPDEST PUSH1 0x0 PUSH2 0x10C1 DUP5 DUP3 DUP6 ADD PUSH2 0x1046 JUMP JUMPDEST SWAP2 POP POP SWAP3 SWAP2 POP POP JUMP JUMPDEST PUSH1 0x0 DUP1 PUSH1 0x0 PUSH1 0x60 DUP5 DUP7 SUB SLT ISZERO PUSH2 0x10E3 JUMPI PUSH2 0x10E2 PUSH2 0x1B0C JUMP JUMPDEST JUMPDEST PUSH1 0x0 PUSH2 0x10F1 DUP7 DUP3 DUP8 ADD PUSH2 0x1046 JUMP JUMPDEST SWAP4 POP POP PUSH1 0x20 DUP5 ADD CALLDATALOAD PUSH8 0xFFFFFFFFFFFFFFFF DUP2 GT ISZERO PUSH2 0x1112 JUMPI PUSH2 0x1111 PUSH2 0x1B07 JUMP JUMPDEST JUMPDEST PUSH2 0x111E DUP7 DUP3 DUP8 ADD PUSH2 0x1018 JUMP JUMPDEST SWAP3 POP POP PUSH1 0x40 PUSH2 0x112F DUP7 DUP3 DUP8 ADD PUSH2 0x105B JUMP JUMPDEST SWAP2 POP POP SWAP3 POP SWAP3 POP SWAP3 JUMP JUMPDEST PUSH1 0x0 PUSH2 0x1145 DUP4 DUP4 PUSH2 0x138C JUMP JUMPDEST SWAP1 POP SWAP3 SWAP2 POP POP JUMP JUMPDEST PUSH1 0x0 PUSH2 0x1159 DUP4 DUP4 PUSH2 0x149E JUMP JUMPDEST SWAP1 POP SWAP3 SWAP2 POP POP JUMP JUMPDEST PUSH2 0x116A DUP2 PUSH2 0x18B2 JUMP JUMPDEST DUP3 MSTORE POP POP JUMP JUMPDEST PUSH2 0x1179 DUP2 PUSH2 0x18B2 JUMP JUMPDEST DUP3 MSTORE POP POP JUMP JUMPDEST PUSH1 0x0 PUSH2 0x118A DUP3 PUSH2 0x180A JUMP JUMPDEST PUSH2 0x1194 DUP2 DUP6 PUSH2 0x1845 JUMP JUMPDEST SWAP4 POP DUP4 PUSH1 0x20 DUP3 MUL DUP6 ADD PUSH2 0x11A6 DUP6 PUSH2 0x17D0 JUMP JUMPDEST DUP1 PUSH1 0x0 JUMPDEST DUP6 DUP2 LT ISZERO PUSH2 0x11E2 JUMPI DUP5 DUP5 SUB DUP10 MSTORE DUP2 MLOAD PUSH2 0x11C3 DUP6 DUP3 PUSH2 0x1139 JUMP JUMPDEST SWAP5 POP PUSH2 0x11CE DUP4 PUSH2 0x182B JUMP JUMPDEST SWAP3 POP PUSH1 0x20 DUP11 ADD SWAP10 POP POP PUSH1 0x1 DUP2 ADD SWAP1 POP PUSH2 0x11AA JUMP JUMPDEST POP DUP3 SWAP8 POP DUP8 SWAP6 POP POP POP POP POP POP SWAP3 SWAP2 POP POP JUMP JUMPDEST PUSH1 0x0 PUSH2 0x11FF DUP3 PUSH2 0x1815 JUMP JUMPDEST PUSH2 0x1209 DUP2 DUP6 PUSH2 0x1845 JUMP JUMPDEST SWAP4 POP DUP4 PUSH1 0x20 DUP3 MUL DUP6 ADD PUSH2 0x121B DUP6 PUSH2 0x17E0 JUMP JUMPDEST DUP1 PUSH1 0x0 JUMPDEST DUP6 DUP2 LT ISZERO PUSH2 0x1256 JUMPI DUP5 DUP5 SUB DUP10 MSTORE DUP2 PUSH2 0x1237 DUP6 DUP3 PUSH2 0x114D JUMP JUMPDEST SWAP5 POP PUSH2 0x1242 DUP4 PUSH2 0x1838 JUMP JUMPDEST SWAP3 POP PUSH1 0x20 DUP11 ADD SWAP10 POP POP PUSH1 0x1 DUP2 ADD SWAP1 POP PUSH2 0x121F JUMP JUMPDEST POP DUP3 SWAP8 POP DUP8 SWAP6 POP POP POP POP POP POP SWAP3 SWAP2 POP POP JUMP JUMPDEST PUSH2 0x1271 DUP2 PUSH2 0x18FE JUMP JUMPDEST DUP3 MSTORE POP POP JUMP JUMPDEST PUSH1 0x0 PUSH2 0x1282 DUP3 PUSH2 0x1820 JUMP JUMPDEST PUSH2 0x128C DUP2 DUP6 PUSH2 0x1856 JUMP JUMPDEST SWAP4 POP PUSH2 0x129C DUP2 DUP6 PUSH1 0x20 DUP7 ADD PUSH2 0x1943 JUMP JUMPDEST PUSH2 0x12A5 DUP2 PUSH2 0x1B11 JUMP JUMPDEST DUP5 ADD SWAP2 POP POP SWAP3 SWAP2 POP POP JUMP JUMPDEST PUSH1 0x0 PUSH2 0x12BB DUP3 PUSH2 0x1820 JUMP JUMPDEST PUSH2 0x12C5 DUP2 DUP6 PUSH2 0x1867 JUMP JUMPDEST SWAP4 POP PUSH2 0x12D5 DUP2 DUP6 PUSH1 0x20 DUP7 ADD PUSH2 0x1943 JUMP JUMPDEST PUSH2 0x12DE DUP2 PUSH2 0x1B11 JUMP JUMPDEST DUP5 ADD SWAP2 POP POP SWAP3 SWAP2 POP POP JUMP JUMPDEST PUSH1 0x0 DUP2 SLOAD PUSH2 0x12F6 DUP2 PUSH2 0x1976 JUMP JUMPDEST PUSH2 0x1300 DUP2 DUP7 PUSH2 0x1856 JUMP JUMPDEST SWAP5 POP PUSH1 0x1 DUP3 AND PUSH1 0x0 DUP2 EQ PUSH2 0x131B JUMPI PUSH1 0x1 DUP2 EQ PUSH2 0x132D JUMPI PUSH2 0x1360 JUMP JUMPDEST PUSH1 0xFF NOT DUP4 AND DUP7 MSTORE PUSH1 0x20 DUP7 ADD SWAP4 POP PUSH2 0x1360 JUMP JUMPDEST PUSH2 0x1336 DUP6 PUSH2 0x17F5 JUMP JUMPDEST PUSH1 0x0 JUMPDEST DUP4 DUP2 LT ISZERO PUSH2 0x1358 JUMPI DUP2 SLOAD DUP2 DUP10 ADD MSTORE PUSH1 0x1 DUP3 ADD SWAP2 POP PUSH1 0x20 DUP2 ADD SWAP1 POP PUSH2 0x1339 JUMP JUMPDEST DUP1 DUP9 ADD SWAP6 POP POP POP JUMPDEST POP POP POP SWAP3 SWAP2 POP POP JUMP JUMPDEST PUSH1 0x0 PUSH2 0x1376 PUSH1 0x22 DUP4 PUSH2 0x1867 JUMP JUMPDEST SWAP2 POP PUSH2 0x1381 DUP3 PUSH2 0x1B2F JUMP JUMPDEST PUSH1 0x40 DUP3 ADD SWAP1 POP SWAP2 SWAP1 POP JUMP JUMPDEST PUSH1 0x0 PUSH1 0xC0 DUP4 ADD PUSH1 0x0 DUP4 ADD MLOAD PUSH2 0x13A4 PUSH1 0x0 DUP7 ADD DUP3 PUSH2 0x155F JUMP JUMPDEST POP PUSH1 0x20 DUP4 ADD MLOAD DUP5 DUP3 SUB PUSH1 0x20 DUP7 ADD MSTORE PUSH2 0x13BC DUP3 DUP3 PUSH2 0x1277 JUMP JUMPDEST SWAP2 POP POP PUSH1 0x40 DUP4 ADD MLOAD PUSH2 0x13D1 PUSH1 0x40 DUP7 ADD DUP3 PUSH2 0x155F JUMP JUMPDEST POP PUSH1 0x60 DUP4 ADD MLOAD PUSH2 0x13E4 PUSH1 0x60 DUP7 ADD DUP3 PUSH2 0x1161 JUMP JUMPDEST POP PUSH1 0x80 DUP4 ADD MLOAD PUSH2 0x13F7 PUSH1 0x80 DUP7 ADD DUP3 PUSH2 0x155F JUMP JUMPDEST POP PUSH1 0xA0 DUP4 ADD MLOAD PUSH2 0x140A PUSH1 0xA0 DUP7 ADD DUP3 PUSH2 0x157D JUMP JUMPDEST POP DUP1 SWAP2 POP POP SWAP3 SWAP2 POP POP JUMP JUMPDEST PUSH1 0x0 PUSH1 0xC0 DUP4 ADD PUSH1 0x0 DUP4 ADD MLOAD PUSH2 0x142D PUSH1 0x0 DUP7 ADD DUP3 PUSH2 0x155F JUMP JUMPDEST POP PUSH1 0x20 DUP4 ADD MLOAD DUP5 DUP3 SUB PUSH1 0x20 DUP7 ADD MSTORE PUSH2 0x1445 DUP3 DUP3 PUSH2 0x1277 JUMP JUMPDEST SWAP2 POP POP PUSH1 0x40 DUP4 ADD MLOAD PUSH2 0x145A PUSH1 0x40 DUP7 ADD DUP3 PUSH2 0x155F JUMP JUMPDEST POP PUSH1 0x60 DUP4 ADD MLOAD PUSH2 0x146D PUSH1 0x60 DUP7 ADD DUP3 PUSH2 0x1161 JUMP JUMPDEST POP PUSH1 0x80 DUP4 ADD MLOAD PUSH2 0x1480 PUSH1 0x80 DUP7 ADD DUP3 PUSH2 0x155F JUMP JUMPDEST POP PUSH1 0xA0 DUP4 ADD MLOAD PUSH2 0x1493 PUSH1 0xA0 DUP7 ADD DUP3 PUSH2 0x157D JUMP JUMPDEST POP DUP1 SWAP2 POP POP SWAP3 SWAP2 POP POP JUMP JUMPDEST PUSH1 0x0 PUSH1 0xC0 DUP4 ADD PUSH1 0x0 DUP1 DUP5 ADD SLOAD SWAP1 POP PUSH2 0x14B5 DUP2 PUSH2 0x19C2 JUMP JUMPDEST PUSH2 0x14C2 PUSH1 0x0 DUP8 ADD DUP3 PUSH2 0x155F JUMP JUMPDEST POP PUSH1 0x1 DUP5 ADD DUP6 DUP4 SUB PUSH1 0x20 DUP8 ADD MSTORE PUSH2 0x14D9 DUP4 DUP3 PUSH2 0x12E9 JUMP JUMPDEST SWAP3 POP POP PUSH1 0x2 DUP5 ADD SLOAD SWAP1 POP PUSH2 0x14EC DUP2 PUSH2 0x19C2 JUMP JUMPDEST PUSH2 0x14F9 PUSH1 0x40 DUP8 ADD DUP3 PUSH2 0x155F JUMP JUMPDEST POP PUSH1 0x3 DUP5 ADD SLOAD SWAP1 POP PUSH2 0x150A DUP2 PUSH2 0x19A8 JUMP JUMPDEST PUSH2 0x1517 PUSH1 0x60 DUP8 ADD DUP3 PUSH2 0x1161 JUMP JUMPDEST POP PUSH1 0x4 DUP5 ADD SLOAD SWAP1 POP PUSH2 0x1528 DUP2 PUSH2 0x19C2 JUMP JUMPDEST PUSH2 0x1535 PUSH1 0x80 DUP8 ADD DUP3 PUSH2 0x155F JUMP JUMPDEST POP PUSH1 0x5 DUP5 ADD SLOAD SWAP1 POP PUSH2 0x1546 DUP2 PUSH2 0x19DC JUMP JUMPDEST PUSH2 0x1553 PUSH1 0xA0 DUP8 ADD DUP3 PUSH2 0x157D JUMP JUMPDEST POP DUP2 SWAP3 POP POP POP SWAP3 SWAP2 POP POP JUMP JUMPDEST PUSH2 0x1568 DUP2 PUSH2 0x18E4 JUMP JUMPDEST DUP3 MSTORE POP POP JUMP JUMPDEST PUSH2 0x1577 DUP2 PUSH2 0x18E4 JUMP JUMPDEST DUP3 MSTORE POP POP JUMP JUMPDEST PUSH2 0x1586 DUP2 PUSH2 0x18EE JUMP JUMPDEST DUP3 MSTORE POP POP JUMP JUMPDEST PUSH2 0x1595 DUP2 PUSH2 0x18EE JUMP JUMPDEST DUP3 MSTORE POP POP JUMP JUMPDEST PUSH1 0x0 PUSH1 0x20 DUP3 ADD SWAP1 POP DUP2 DUP2 SUB PUSH1 0x0 DUP4 ADD MSTORE PUSH2 0x15B5 DUP2 DUP5 PUSH2 0x117F JUMP JUMPDEST SWAP1 POP SWAP3 SWAP2 POP POP JUMP JUMPDEST PUSH1 0x0 PUSH1 0x20 DUP3 ADD SWAP1 POP DUP2 DUP2 SUB PUSH1 0x0 DUP4 ADD MSTORE PUSH2 0x15D7 DUP2 DUP5 PUSH2 0x11F4 JUMP JUMPDEST SWAP1 POP SWAP3 SWAP2 POP POP JUMP JUMPDEST PUSH1 0x0 PUSH1 0x20 DUP3 ADD SWAP1 POP PUSH2 0x15F4 PUSH1 0x0 DUP4 ADD DUP5 PUSH2 0x1268 JUMP JUMPDEST SWAP3 SWAP2 POP POP JUMP JUMPDEST PUSH1 0x0 PUSH1 0x20 DUP3 ADD SWAP1 POP DUP2 DUP2 SUB PUSH1 0x0 DUP4 ADD MSTORE PUSH2 0x1613 DUP2 PUSH2 0x1369 JUMP JUMPDEST SWAP1 POP SWAP2 SWAP1 POP JUMP JUMPDEST PUSH1 0x0 PUSH1 0x20 DUP3 ADD SWAP1 POP DUP2 DUP2 SUB PUSH1 0x0 DUP4 ADD MSTORE PUSH2 0x1634 DUP2 DUP5 PUSH2 0x1415 JUMP JUMPDEST SWAP1 POP SWAP3 SWAP2 POP POP JUMP JUMPDEST PUSH1 0x0 PUSH1 0x80 DUP3 ADD SWAP1 POP PUSH2 0x1651 PUSH1 0x0 DUP4 ADD DUP8 PUSH2 0x156E JUMP JUMPDEST DUP2 DUP2 SUB PUSH1 0x20 DUP4 ADD MSTORE PUSH2 0x1663 DUP2 DUP7 PUSH2 0x12B0 JUMP JUMPDEST SWAP1 POP DUP2 DUP2 SUB PUSH1 0x40 DUP4 ADD MSTORE PUSH2 0x1677 DUP2 DUP6 PUSH2 0x12B0 JUMP JUMPDEST SWAP1 POP PUSH2 0x1686 PUSH1 0x60 DUP4 ADD DUP5 PUSH2 0x156E JUMP JUMPDEST SWAP6 SWAP5 POP POP POP POP POP JUMP JUMPDEST PUSH1 0x0 PUSH1 0xC0 DUP3 ADD SWAP1 POP PUSH2 0x16A4 PUSH1 0x0 DUP4 ADD DUP10 PUSH2 0x156E JUMP JUMPDEST DUP2 DUP2 SUB PUSH1 0x20 DUP4 ADD MSTORE PUSH2 0x16B6 DUP2 DUP9 PUSH2 0x12B0 JUMP JUMPDEST SWAP1 POP PUSH2 0x16C5 PUSH1 0x40 DUP4 ADD DUP8 PUSH2 0x156E JUMP JUMPDEST PUSH2 0x16D2 PUSH1 0x60 DUP4 ADD DUP7 PUSH2 0x1170 JUMP JUMPDEST PUSH2 0x16DF PUSH1 0x80 DUP4 ADD DUP6 PUSH2 0x156E JUMP JUMPDEST PUSH2 0x16EC PUSH1 0xA0 DUP4 ADD DUP5 PUSH2 0x158C JUMP JUMPDEST SWAP8 SWAP7 POP POP POP POP POP POP POP JUMP JUMPDEST PUSH1 0x0 PUSH1 0x40 DUP3 ADD SWAP1 POP PUSH2 0x170C PUSH1 0x0 DUP4 ADD DUP6 PUSH2 0x156E JUMP JUMPDEST PUSH2 0x1719 PUSH1 0x20 DUP4 ADD DUP5 PUSH2 0x156E JUMP JUMPDEST SWAP4 SWAP3 POP POP POP JUMP JUMPDEST PUSH1 0x0 PUSH1 0xA0 DUP3 ADD SWAP1 POP PUSH2 0x1735 PUSH1 0x0 DUP4 ADD DUP9 PUSH2 0x156E JUMP JUMPDEST PUSH2 0x1742 PUSH1 0x20 DUP4 ADD DUP8 PUSH2 0x156E JUMP JUMPDEST DUP2 DUP2 SUB PUSH1 0x40 DUP4 ADD MSTORE PUSH2 0x1754 DUP2 DUP7 PUSH2 0x12B0 JUMP JUMPDEST SWAP1 POP PUSH2 0x1763 PUSH1 0x60 DUP4 ADD DUP6 PUSH2 0x158C JUMP JUMPDEST PUSH2 0x1770 PUSH1 0x80 DUP4 ADD DUP5 PUSH2 0x156E JUMP JUMPDEST SWAP7 SWAP6 POP POP POP POP POP POP JUMP JUMPDEST PUSH1 0x0 PUSH2 0x1784 PUSH2 0x1795 JUMP JUMPDEST SWAP1 POP PUSH2 0x1790 DUP3 DUP3 PUSH2 0x19F6 JUMP JUMPDEST SWAP2 SWAP1 POP JUMP JUMPDEST PUSH1 0x0 PUSH1 0x40 MLOAD SWAP1 POP SWAP1 JUMP JUMPDEST PUSH1 0x0 PUSH8 0xFFFFFFFFFFFFFFFF DUP3 GT ISZERO PUSH2 0x17BA JUMPI PUSH2 0x17B9 PUSH2 0x1ACE JUMP JUMPDEST JUMPDEST PUSH2 0x17C3 DUP3 PUSH2 0x1B11 JUMP JUMPDEST SWAP1 POP PUSH1 0x20 DUP2 ADD SWAP1 POP SWAP2 SWAP1 POP JUMP JUMPDEST PUSH1 0x0 DUP2 SWAP1 POP PUSH1 0x20 DUP3 ADD SWAP1 POP SWAP2 SWAP1 POP JUMP JUMPDEST PUSH1 0x0 DUP2 SWAP1 POP DUP2 PUSH1 0x0 MSTORE PUSH1 0x20 PUSH1 0x0 KECCAK256 SWAP1 POP SWAP2 SWAP1 POP JUMP JUMPDEST PUSH1 0x0 DUP2 SWAP1 POP DUP2 PUSH1 0x0 MSTORE PUSH1 0x20 PUSH1 0x0 KECCAK256 SWAP1 POP SWAP2 SWAP1 POP JUMP JUMPDEST PUSH1 0x0 DUP2 MLOAD SWAP1 POP SWAP2 SWAP1 POP JUMP JUMPDEST PUSH1 0x0 DUP2 SLOAD SWAP1 POP SWAP2 SWAP1 POP JUMP JUMPDEST PUSH1 0x0 DUP2 MLOAD SWAP1 POP SWAP2 SWAP1 POP JUMP JUMPDEST PUSH1 0x0 PUSH1 0x20 DUP3 ADD SWAP1 POP SWAP2 SWAP1 POP JUMP JUMPDEST PUSH1 0x0 PUSH1 0x6 DUP3 ADD SWAP1 POP SWAP2 SWAP1 POP JUMP JUMPDEST PUSH1 0x0 DUP3 DUP3 MSTORE PUSH1 0x20 DUP3 ADD SWAP1 POP SWAP3 SWAP2 POP POP JUMP JUMPDEST PUSH1 0x0 DUP3 DUP3 MSTORE PUSH1 0x20 DUP3 ADD SWAP1 POP SWAP3 SWAP2 POP POP JUMP JUMPDEST PUSH1 0x0 DUP3 DUP3 MSTORE PUSH1 0x20 DUP3 ADD SWAP1 POP SWAP3 SWAP2 POP POP JUMP JUMPDEST PUSH1 0x0 PUSH20 0xFFFFFFFFFFFFFFFFFFFFFFFFFFFFFFFFFFFFFFFF DUP3 AND SWAP1 POP SWAP2 SWAP1 POP JUMP JUMPDEST PUSH1 0x0 DUP2 SWAP1 POP SWAP2 SWAP1 POP JUMP JUMPDEST PUSH1 0x0 PUSH4 0xFFFFFFFF DUP3 AND SWAP1 POP SWAP2 SWAP1 POP JUMP JUMPDEST PUSH1 0x0 PUSH2 0x18BD DUP3 PUSH2 0x18C4 JUMP JUMPDEST SWAP1 POP SWAP2 SWAP1 POP JUMP JUMPDEST PUSH1 0x0 PUSH20 0xFFFFFFFFFFFFFFFFFFFFFFFFFFFFFFFFFFFFFFFF DUP3 AND SWAP1 POP SWAP2 SWAP1 POP JUMP JUMPDEST PUSH1 0x0 DUP2 SWAP1 POP SWAP2 SWAP1 POP JUMP JUMPDEST PUSH1 0x0 PUSH4 0xFFFFFFFF DUP3 AND SWAP1 POP SWAP2 SWAP1 POP JUMP JUMPDEST PUSH1 0x0 PUSH2 0x1909 DUP3 PUSH2 0x1910 JUMP JUMPDEST SWAP1 POP SWAP2 SWAP1 POP JUMP JUMPDEST PUSH1 0x0 PUSH2 0x191B DUP3 PUSH2 0x1922 JUMP JUMPDEST SWAP1 POP SWAP2 SWAP1 POP JUMP JUMPDEST PUSH1 0x0 PUSH2 0x192D DUP3 PUSH2 0x18C4 JUMP JUMPDEST SWAP1 POP SWAP2 SWAP1 POP JUMP JUMPDEST DUP3 DUP2 DUP4 CALLDATACOPY PUSH1 0x0 DUP4 DUP4 ADD MSTORE POP POP POP JUMP JUMPDEST PUSH1 0x0 JUMPDEST DUP4 DUP2 LT ISZERO PUSH2 0x1961 JUMPI DUP1 DUP3 ADD MLOAD DUP2 DUP5 ADD MSTORE PUSH1 0x20 DUP2 ADD SWAP1 POP PUSH2 0x1946 JUMP JUMPDEST DUP4 DUP2 GT ISZERO PUSH2 0x1970 JUMPI PUSH1 0x0 DUP5 DUP5 ADD MSTORE JUMPDEST POP POP POP POP JUMP JUMPDEST PUSH1 0x0 PUSH1 0x2 DUP3 DIV SWAP1 POP PUSH1 0x1 DUP3 AND DUP1 PUSH2 0x198E JUMPI PUSH1 0x7F DUP3 AND SWAP2 POP JUMPDEST PUSH1 0x20 DUP3 LT DUP2 EQ ISZERO PUSH2 0x19A2 JUMPI PUSH2 0x19A1 PUSH2 0x1A9F JUMP JUMPDEST JUMPDEST POP SWAP2 SWAP1 POP JUMP JUMPDEST PUSH1 0x0 PUSH2 0x19BB PUSH2 0x19B6 DUP4 PUSH2 0x1B22 JUMP JUMPDEST PUSH2 0x1878 JUMP JUMPDEST SWAP1 POP SWAP2 SWAP1 POP JUMP JUMPDEST PUSH1 0x0 PUSH2 0x19D5 PUSH2 0x19D0 DUP4 PUSH2 0x1B22 JUMP JUMPDEST PUSH2 0x1898 JUMP JUMPDEST SWAP1 POP SWAP2 SWAP1 POP JUMP JUMPDEST PUSH1 0x0 PUSH2 0x19EF PUSH2 0x19EA DUP4 PUSH2 0x1B22 JUMP JUMPDEST PUSH2 0x18A2 JUMP JUMPDEST SWAP1 POP SWAP2 SWAP1 POP JUMP JUMPDEST PUSH2 0x19FF DUP3 PUSH2 0x1B11 JUMP JUMPDEST DUP2 ADD DUP2 DUP2 LT PUSH8 0xFFFFFFFFFFFFFFFF DUP3 GT OR ISZERO PUSH2 0x1A1E JUMPI PUSH2 0x1A1D PUSH2 0x1ACE JUMP JUMPDEST JUMPDEST DUP1 PUSH1 0x40 MSTORE POP POP POP JUMP JUMPDEST PUSH1 0x0 PUSH2 0x1A32 DUP3 PUSH2 0x18E4 JUMP JUMPDEST SWAP2 POP PUSH32 0xFFFFFFFFFFFFFFFFFFFFFFFFFFFFFFFFFFFFFFFFFFFFFFFFFFFFFFFFFFFFFFFF DUP3 EQ ISZERO PUSH2 0x1A65 JUMPI PUSH2 0x1A64 PUSH2 0x1A70 JUMP JUMPDEST JUMPDEST PUSH1 0x1 DUP3 ADD SWAP1 POP SWAP2 SWAP1 POP JUMP JUMPDEST PUSH32 0x4E487B7100000000000000000000000000000000000000000000000000000000 PUSH1 0x0 MSTORE PUSH1 0x11 PUSH1 0x4 MSTORE PUSH1 0x24 PUSH1 0x0 REVERT JUMPDEST PUSH32 0x4E487B7100000000000000000000000000000000000000000000000000000000 PUSH1 0x0 MSTORE PUSH1 0x22 PUSH1 0x4 MSTORE PUSH1 0x24 PUSH1 0x0 REVERT JUMPDEST PUSH32 0x4E487B7100000000000000000000000000000000000000000000000000000000 PUSH1 0x0 MSTORE PUSH1 0x41 PUSH1 0x4 MSTORE PUSH1 0x24 PUSH1 0x0 REVERT JUMPDEST PUSH1 0x0 DUP1 REVERT JUMPDEST PUSH1 0x0 DUP1 REVERT JUMPDEST PUSH1 0x0 DUP1 REVERT JUMPDEST PUSH1 0x0 DUP1 REVERT JUMPDEST PUSH1 0x0 PUSH1 0x1F NOT PUSH1 0x1F DUP4 ADD AND SWAP1 POP SWAP2 SWAP1 POP JUMP JUMPDEST PUSH1 0x0 DUP2 PUSH1 0x0 SHR SWAP1 POP SWAP2 SWAP1 POP JUMP JUMPDEST PUSH32 0x546865726520617265206E6F2070726F647563747320746F206C697374207965 PUSH1 0x0 DUP3 ADD MSTORE PUSH32 0x7421000000000000000000000000000000000000000000000000000000000000 PUSH1 0x20 DUP3 ADD MSTORE POP JUMP JUMPDEST PUSH2 0x1B87 DUP2 PUSH2 0x18B2 JUMP JUMPDEST DUP2 EQ PUSH2 0x1B92 JUMPI PUSH1 0x0 DUP1 REVERT JUMPDEST POP JUMP JUMPDEST PUSH2 0x1B9E DUP2 PUSH2 0x18E4 JUMP JUMPDEST DUP2 EQ PUSH2 0x1BA9 JUMPI PUSH1 0x0 DUP1 REVERT JUMPDEST POP JUMP JUMPDEST PUSH2 0x1BB5 DUP2 PUSH2 0x18EE JUMP JUMPDEST DUP2 EQ PUSH2 0x1BC0 JUMPI PUSH1 0x0 DUP1 REVERT JUMPDEST POP JUMP INVALID LOG2 PUSH5 0x6970667358 0x22 SLT KECCAK256 0x5E CHAINID EXTCODESIZE SIGNEXTEND 0xC4 SMOD 0xA5 SHR 0x2B SWAP14 LOG2 0xC1 SHL DUP7 DIV 0xE9 EXP 0xD6 SIGNEXTEND SWAP4 0xA7 0xB9 PUSH17 0xCC4D8DADE9649B44EB64736F6C63430008 SMOD STOP CALLER "
				},
				"gasEstimates": {
					"creation": {
						"codeDepositCost": "1432200",
						"executionCost": "infinite",
						"totalCost": "infinite"
					},
					"external": {
						"addStar(uint256)": "infinite",
						"createSaleAdvert(uint256,string,uint32)": "infinite",
						"getEntireItems()": "infinite",
						"getItemById(uint256)": "infinite",
						"itemList(uint256)": "infinite",
						"items(uint256)": "infinite",
						"token()": "2663",
						"users(address)": "infinite"
					}
				},
				"methodIdentifiers": {
					"addStar(uint256)": "01750e74",
					"createSaleAdvert(uint256,string,uint32)": "4efd1797",
					"getEntireItems()": "5d9eb55c",
					"getItemById(uint256)": "cd2f0710",
					"itemList(uint256)": "3d4d3600",
					"items(uint256)": "bfb231d2",
					"token()": "fc0c546a",
					"users(address)": "a87430ba"
				}
			},
			"storageLayout": {
				"storage": [
					{
						"astId": 821,
						"contract": "contracts/SwapCart.sol:SwapCart",
						"label": "token",
						"offset": 0,
						"slot": "0",
						"type": "t_contract(IERC20)663"
					},
					{
						"astId": 825,
						"contract": "contracts/SwapCart.sol:SwapCart",
						"label": "itemList",
						"offset": 0,
						"slot": "1",
						"type": "t_array(t_struct(Item)801_storage)dyn_storage"
					},
					{
						"astId": 830,
						"contract": "contracts/SwapCart.sol:SwapCart",
						"label": "users",
						"offset": 0,
						"slot": "2",
						"type": "t_mapping(t_address,t_struct(User)818_storage)"
					},
					{
						"astId": 835,
						"contract": "contracts/SwapCart.sol:SwapCart",
						"label": "items",
						"offset": 0,
						"slot": "3",
						"type": "t_mapping(t_uint256,t_struct(Item)801_storage)"
					},
					{
						"astId": 842,
						"contract": "contracts/SwapCart.sol:SwapCart",
						"label": "itemCounter",
						"offset": 0,
						"slot": "4",
						"type": "t_struct(Counter)716_storage"
					}
				],
				"types": {
					"t_address": {
						"encoding": "inplace",
						"label": "address",
						"numberOfBytes": "20"
					},
					"t_array(t_struct(Item)801_storage)dyn_storage": {
						"base": "t_struct(Item)801_storage",
						"encoding": "dynamic_array",
						"label": "struct SwapCart.Item[]",
						"numberOfBytes": "32"
					},
					"t_contract(IERC20)663": {
						"encoding": "inplace",
						"label": "contract IERC20",
						"numberOfBytes": "20"
					},
					"t_mapping(t_address,t_struct(User)818_storage)": {
						"encoding": "mapping",
						"key": "t_address",
						"label": "mapping(address => struct SwapCart.User)",
						"numberOfBytes": "32",
						"value": "t_struct(User)818_storage"
					},
					"t_mapping(t_uint256,t_struct(Item)801_storage)": {
						"encoding": "mapping",
						"key": "t_uint256",
						"label": "mapping(uint256 => struct SwapCart.Item)",
						"numberOfBytes": "32",
						"value": "t_struct(Item)801_storage"
					},
					"t_string_storage": {
						"encoding": "bytes",
						"label": "string",
						"numberOfBytes": "32"
					},
					"t_struct(Counter)716_storage": {
						"encoding": "inplace",
						"label": "struct Counters.Counter",
						"members": [
							{
								"astId": 715,
								"contract": "contracts/SwapCart.sol:SwapCart",
								"label": "_value",
								"offset": 0,
								"slot": "0",
								"type": "t_uint256"
							}
						],
						"numberOfBytes": "32"
					},
					"t_struct(Item)801_storage": {
						"encoding": "inplace",
						"label": "struct SwapCart.Item",
						"members": [
							{
								"astId": 790,
								"contract": "contracts/SwapCart.sol:SwapCart",
								"label": "itemId",
								"offset": 0,
								"slot": "0",
								"type": "t_uint256"
							},
							{
								"astId": 792,
								"contract": "contracts/SwapCart.sol:SwapCart",
								"label": "itemImage",
								"offset": 0,
								"slot": "1",
								"type": "t_string_storage"
							},
							{
								"astId": 794,
								"contract": "contracts/SwapCart.sol:SwapCart",
								"label": "star",
								"offset": 0,
								"slot": "2",
								"type": "t_uint256"
							},
							{
								"astId": 796,
								"contract": "contracts/SwapCart.sol:SwapCart",
								"label": "seller",
								"offset": 0,
								"slot": "3",
								"type": "t_address"
							},
							{
								"astId": 798,
								"contract": "contracts/SwapCart.sol:SwapCart",
								"label": "price",
								"offset": 0,
								"slot": "4",
								"type": "t_uint256"
							},
							{
								"astId": 800,
								"contract": "contracts/SwapCart.sol:SwapCart",
								"label": "dueDate",
								"offset": 0,
								"slot": "5",
								"type": "t_uint32"
							}
						],
						"numberOfBytes": "192"
					},
					"t_struct(User)818_storage": {
						"encoding": "inplace",
						"label": "struct SwapCart.User",
						"members": [
							{
								"astId": 803,
								"contract": "contracts/SwapCart.sol:SwapCart",
								"label": "userID",
								"offset": 0,
								"slot": "0",
								"type": "t_uint256"
							},
							{
								"astId": 805,
								"contract": "contracts/SwapCart.sol:SwapCart",
								"label": "userName",
								"offset": 0,
								"slot": "1",
								"type": "t_string_storage"
							},
							{
								"astId": 807,
								"contract": "contracts/SwapCart.sol:SwapCart",
								"label": "deliveryAddress",
								"offset": 0,
								"slot": "2",
								"type": "t_string_storage"
							},
							{
								"astId": 811,
								"contract": "contracts/SwapCart.sol:SwapCart",
								"label": "cart",
								"offset": 0,
								"slot": "3",
								"type": "t_array(t_struct(Item)801_storage)dyn_storage"
							},
							{
								"astId": 815,
								"contract": "contracts/SwapCart.sol:SwapCart",
								"label": "inventory",
								"offset": 0,
								"slot": "4",
								"type": "t_array(t_struct(Item)801_storage)dyn_storage"
							},
							{
								"astId": 817,
								"contract": "contracts/SwapCart.sol:SwapCart",
								"label": "balance",
								"offset": 0,
								"slot": "5",
								"type": "t_uint256"
							}
						],
						"numberOfBytes": "192"
					},
					"t_uint256": {
						"encoding": "inplace",
						"label": "uint256",
						"numberOfBytes": "32"
					},
					"t_uint32": {
						"encoding": "inplace",
						"label": "uint32",
						"numberOfBytes": "4"
					}
				}
			},
			"userdoc": {
				"kind": "user",
				"methods": {},
				"version": 1
			}
		}
	}
}