{
	"contracts/SwapCart.sol": {
		"SwapCart": {
			"abi": [
				{
					"inputs": [
						{
							"internalType": "address",
							"name": "_token",
							"type": "address"
						}
					],
					"stateMutability": "nonpayable",
					"type": "constructor"
				},
				{
					"anonymous": false,
					"inputs": [
						{
							"indexed": false,
							"internalType": "uint256",
							"name": "itmId",
							"type": "uint256"
						},
						{
							"indexed": false,
							"internalType": "uint256",
							"name": "itmStar",
							"type": "uint256"
						},
						{
							"indexed": true,
							"internalType": "address",
							"name": "caller",
							"type": "address"
						}
					],
					"name": "AddStar",
					"type": "event"
				},
				{
					"anonymous": false,
					"inputs": [
						{
							"indexed": false,
							"internalType": "uint256",
							"name": "id",
							"type": "uint256"
						},
						{
							"indexed": false,
							"internalType": "uint256",
							"name": "price",
							"type": "uint256"
						},
						{
							"indexed": false,
							"internalType": "string",
							"name": "image",
							"type": "string"
						},
						{
							"indexed": false,
							"internalType": "uint32",
							"name": "dueDate",
							"type": "uint32"
						},
						{
							"indexed": false,
							"internalType": "uint256",
							"name": "star",
							"type": "uint256"
						},
						{
							"indexed": true,
							"internalType": "address",
							"name": "seller",
							"type": "address"
						}
					],
					"name": "CreateSaleAdvert",
					"type": "event"
				},
				{
					"anonymous": false,
					"inputs": [
						{
							"components": [
								{
									"internalType": "uint256",
									"name": "itemId",
									"type": "uint256"
								},
								{
									"internalType": "string",
									"name": "itemImage",
									"type": "string"
								},
								{
									"internalType": "uint256",
									"name": "star",
									"type": "uint256"
								},
								{
									"internalType": "address",
									"name": "seller",
									"type": "address"
								},
								{
									"internalType": "uint256",
									"name": "price",
									"type": "uint256"
								},
								{
									"internalType": "uint32",
									"name": "dueDate",
									"type": "uint32"
								}
							],
							"indexed": false,
							"internalType": "struct SwapCart.Item[]",
							"name": "listOfItems",
							"type": "tuple[]"
						},
						{
							"indexed": true,
							"internalType": "address",
							"name": "caller",
							"type": "address"
						}
					],
					"name": "GetEntireItems",
					"type": "event"
				},
				{
					"inputs": [
						{
							"internalType": "uint256",
							"name": "itmId",
							"type": "uint256"
						}
					],
					"name": "addStar",
					"outputs": [],
					"stateMutability": "nonpayable",
					"type": "function"
				},
				{
					"inputs": [
						{
							"internalType": "uint256",
							"name": "itmPrice",
							"type": "uint256"
						},
						{
							"internalType": "string",
							"name": "itmImage",
							"type": "string"
						},
						{
							"internalType": "uint32",
							"name": "itmDueDate",
							"type": "uint32"
						}
					],
					"name": "createSaleAdvert",
					"outputs": [],
					"stateMutability": "nonpayable",
					"type": "function"
				},
				{
					"inputs": [],
					"name": "getEntireItems",
					"outputs": [
						{
							"components": [
								{
									"internalType": "uint256",
									"name": "itemId",
									"type": "uint256"
								},
								{
									"internalType": "string",
									"name": "itemImage",
									"type": "string"
								},
								{
									"internalType": "uint256",
									"name": "star",
									"type": "uint256"
								},
								{
									"internalType": "address",
									"name": "seller",
									"type": "address"
								},
								{
									"internalType": "uint256",
									"name": "price",
									"type": "uint256"
								},
								{
									"internalType": "uint32",
									"name": "dueDate",
									"type": "uint32"
								}
							],
							"internalType": "struct SwapCart.Item[]",
							"name": "",
							"type": "tuple[]"
						}
					],
					"stateMutability": "nonpayable",
					"type": "function"
				},
				{
					"inputs": [
						{
							"internalType": "uint256",
							"name": "",
							"type": "uint256"
						}
					],
					"name": "itemList",
					"outputs": [
						{
							"internalType": "uint256",
							"name": "itemId",
							"type": "uint256"
						},
						{
							"internalType": "string",
							"name": "itemImage",
							"type": "string"
						},
						{
							"internalType": "uint256",
							"name": "star",
							"type": "uint256"
						},
						{
							"internalType": "address",
							"name": "seller",
							"type": "address"
						},
						{
							"internalType": "uint256",
							"name": "price",
							"type": "uint256"
						},
						{
							"internalType": "uint32",
							"name": "dueDate",
							"type": "uint32"
						}
					],
					"stateMutability": "view",
					"type": "function"
				},
				{
					"inputs": [
						{
							"internalType": "uint256",
							"name": "",
							"type": "uint256"
						}
					],
					"name": "items",
					"outputs": [
						{
							"internalType": "uint256",
							"name": "itemId",
							"type": "uint256"
						},
						{
							"internalType": "string",
							"name": "itemImage",
							"type": "string"
						},
						{
							"internalType": "uint256",
							"name": "star",
							"type": "uint256"
						},
						{
							"internalType": "address",
							"name": "seller",
							"type": "address"
						},
						{
							"internalType": "uint256",
							"name": "price",
							"type": "uint256"
						},
						{
							"internalType": "uint32",
							"name": "dueDate",
							"type": "uint32"
						}
					],
					"stateMutability": "view",
					"type": "function"
				},
				{
					"inputs": [],
					"name": "token",
					"outputs": [
						{
							"internalType": "contract IERC20",
							"name": "",
							"type": "address"
						}
					],
					"stateMutability": "view",
					"type": "function"
				},
				{
					"inputs": [
						{
							"internalType": "address",
							"name": "",
							"type": "address"
						}
					],
					"name": "users",
					"outputs": [
						{
							"internalType": "uint256",
							"name": "userID",
							"type": "uint256"
						},
						{
							"internalType": "string",
							"name": "userName",
							"type": "string"
						},
						{
							"internalType": "string",
							"name": "deliveryAddress",
							"type": "string"
						},
						{
							"internalType": "uint256",
							"name": "balance",
							"type": "uint256"
						}
					],
					"stateMutability": "view",
					"type": "function"
				}
			],
			"devdoc": {
				"kind": "dev",
				"methods": {},
				"version": 1
			},
			"evm": {
				"assembly": "    /* \"contracts/SwapCart.sol\":172:3618  contract SwapCart{\r... */\n  mstore(0x40, 0x80)\n    /* \"contracts/SwapCart.sol\":783:851  constructor(address _token){\r... */\n  callvalue\n  dup1\n  iszero\n  tag_1\n  jumpi\n  0x00\n  dup1\n  revert\ntag_1:\n  pop\n  mload(0x40)\n  sub(codesize, bytecodeSize)\n  dup1\n  bytecodeSize\n  dup4\n  codecopy\n  dup2\n  dup2\n  add\n  0x40\n  mstore\n  dup2\n  add\n  swap1\n  tag_2\n  swap2\n  swap1\n  tag_3\n  jump\t// in\ntag_2:\n    /* \"contracts/SwapCart.sol\":836:842  _token */\n  dup1\n    /* \"contracts/SwapCart.sol\":821:826  token */\n  0x00\n  dup1\n    /* \"contracts/SwapCart.sol\":821:843  token = IERC20(_token) */\n  0x0100\n  exp\n  dup2\n  sload\n  dup2\n  0xffffffffffffffffffffffffffffffffffffffff\n  mul\n  not\n  and\n  swap1\n  dup4\n  0xffffffffffffffffffffffffffffffffffffffff\n  and\n  mul\n  or\n  swap1\n  sstore\n  pop\n    /* \"contracts/SwapCart.sol\":783:851  constructor(address _token){\r... */\n  pop\n    /* \"contracts/SwapCart.sol\":172:3618  contract SwapCart{\r... */\n  jump(tag_6)\n    /* \"#utility.yul\":7:150   */\ntag_8:\n    /* \"#utility.yul\":64:69   */\n  0x00\n    /* \"#utility.yul\":95:101   */\n  dup2\n    /* \"#utility.yul\":89:102   */\n  mload\n    /* \"#utility.yul\":80:102   */\n  swap1\n  pop\n    /* \"#utility.yul\":111:144   */\n  tag_10\n    /* \"#utility.yul\":138:143   */\n  dup2\n    /* \"#utility.yul\":111:144   */\n  tag_11\n  jump\t// in\ntag_10:\n    /* \"#utility.yul\":7:150   */\n  swap3\n  swap2\n  pop\n  pop\n  jump\t// out\n    /* \"#utility.yul\":156:507   */\ntag_3:\n    /* \"#utility.yul\":226:232   */\n  0x00\n    /* \"#utility.yul\":275:277   */\n  0x20\n    /* \"#utility.yul\":263:272   */\n  dup3\n    /* \"#utility.yul\":254:261   */\n  dup5\n    /* \"#utility.yul\":250:273   */\n  sub\n    /* \"#utility.yul\":246:278   */\n  slt\n    /* \"#utility.yul\":243:362   */\n  iszero\n  tag_13\n  jumpi\n    /* \"#utility.yul\":281:360   */\n  tag_14\n  tag_15\n  jump\t// in\ntag_14:\n    /* \"#utility.yul\":243:362   */\ntag_13:\n    /* \"#utility.yul\":401:402   */\n  0x00\n    /* \"#utility.yul\":426:490   */\n  tag_16\n    /* \"#utility.yul\":482:489   */\n  dup5\n    /* \"#utility.yul\":473:479   */\n  dup3\n    /* \"#utility.yul\":462:471   */\n  dup6\n    /* \"#utility.yul\":458:480   */\n  add\n    /* \"#utility.yul\":426:490   */\n  tag_8\n  jump\t// in\ntag_16:\n    /* \"#utility.yul\":416:490   */\n  swap2\n  pop\n    /* \"#utility.yul\":372:500   */\n  pop\n    /* \"#utility.yul\":156:507   */\n  swap3\n  swap2\n  pop\n  pop\n  jump\t// out\n    /* \"#utility.yul\":594:690   */\ntag_19:\n    /* \"#utility.yul\":631:638   */\n  0x00\n    /* \"#utility.yul\":660:684   */\n  tag_21\n    /* \"#utility.yul\":678:683   */\n  dup3\n    /* \"#utility.yul\":660:684   */\n  tag_22\n  jump\t// in\ntag_21:\n    /* \"#utility.yul\":649:684   */\n  swap1\n  pop\n    /* \"#utility.yul\":594:690   */\n  swap2\n  swap1\n  pop\n  jump\t// out\n    /* \"#utility.yul\":696:822   */\ntag_22:\n    /* \"#utility.yul\":733:740   */\n  0x00\n    /* \"#utility.yul\":773:815   */\n  0xffffffffffffffffffffffffffffffffffffffff\n    /* \"#utility.yul\":766:771   */\n  dup3\n    /* \"#utility.yul\":762:816   */\n  and\n    /* \"#utility.yul\":751:816   */\n  swap1\n  pop\n    /* \"#utility.yul\":696:822   */\n  swap2\n  swap1\n  pop\n  jump\t// out\n    /* \"#utility.yul\":951:1068   */\ntag_15:\n    /* \"#utility.yul\":1060:1061   */\n  0x00\n    /* \"#utility.yul\":1057:1058   */\n  dup1\n    /* \"#utility.yul\":1050:1062   */\n  revert\n    /* \"#utility.yul\":1074:1196   */\ntag_11:\n    /* \"#utility.yul\":1147:1171   */\n  tag_28\n    /* \"#utility.yul\":1165:1170   */\n  dup2\n    /* \"#utility.yul\":1147:1171   */\n  tag_19\n  jump\t// in\ntag_28:\n    /* \"#utility.yul\":1140:1145   */\n  dup2\n    /* \"#utility.yul\":1137:1172   */\n  eq\n    /* \"#utility.yul\":1127:1190   */\n  tag_29\n  jumpi\n    /* \"#utility.yul\":1186:1187   */\n  0x00\n    /* \"#utility.yul\":1183:1184   */\n  dup1\n    /* \"#utility.yul\":1176:1188   */\n  revert\n    /* \"#utility.yul\":1127:1190   */\ntag_29:\n    /* \"#utility.yul\":1074:1196   */\n  pop\n  jump\t// out\n    /* \"contracts/SwapCart.sol\":172:3618  contract SwapCart{\r... */\ntag_6:\n  dataSize(sub_0)\n  dup1\n  dataOffset(sub_0)\n  0x00\n  codecopy\n  0x00\n  return\nstop\n\nsub_0: assembly {\n        /* \"contracts/SwapCart.sol\":172:3618  contract SwapCart{\r... */\n      mstore(0x40, 0x80)\n      callvalue\n      dup1\n      iszero\n      tag_1\n      jumpi\n      0x00\n      dup1\n      revert\n    tag_1:\n      pop\n      jumpi(tag_2, lt(calldatasize, 0x04))\n      shr(0xe0, calldataload(0x00))\n      dup1\n      0x5d9eb55c\n      gt\n      tag_10\n      jumpi\n      dup1\n      0x5d9eb55c\n      eq\n      tag_6\n      jumpi\n      dup1\n      0xa87430ba\n      eq\n      tag_7\n      jumpi\n      dup1\n      0xbfb231d2\n      eq\n      tag_8\n      jumpi\n      dup1\n      0xfc0c546a\n      eq\n      tag_9\n      jumpi\n      jump(tag_2)\n    tag_10:\n      dup1\n      0x01750e74\n      eq\n      tag_3\n      jumpi\n      dup1\n      0x3d4d3600\n      eq\n      tag_4\n      jumpi\n      dup1\n      0x4efd1797\n      eq\n      tag_5\n      jumpi\n    tag_2:\n      0x00\n      dup1\n      revert\n        /* \"contracts/SwapCart.sol\":3449:3613  function addStar(uint itmId) public buyerCheck(items[itmId].seller){\r... */\n    tag_3:\n      tag_11\n      0x04\n      dup1\n      calldatasize\n      sub\n      dup2\n      add\n      swap1\n      tag_12\n      swap2\n      swap1\n      tag_13\n      jump\t// in\n    tag_12:\n      tag_14\n      jump\t// in\n    tag_11:\n      stop\n        /* \"contracts/SwapCart.sol\":575:597  Item[] public itemList */\n    tag_4:\n      tag_15\n      0x04\n      dup1\n      calldatasize\n      sub\n      dup2\n      add\n      swap1\n      tag_16\n      swap2\n      swap1\n      tag_13\n      jump\t// in\n    tag_16:\n      tag_17\n      jump\t// in\n    tag_15:\n      mload(0x40)\n      tag_18\n      swap7\n      swap6\n      swap5\n      swap4\n      swap3\n      swap2\n      swap1\n      tag_19\n      jump\t// in\n    tag_18:\n      mload(0x40)\n      dup1\n      swap2\n      sub\n      swap1\n      return\n        /* \"contracts/SwapCart.sol\":2608:3277  function createSaleAdvert(uint itmPrice, string memory itmImage, uint32 itmDueDate) external ownerCheck(msg.sender){\r... */\n    tag_5:\n      tag_20\n      0x04\n      dup1\n      calldatasize\n      sub\n      dup2\n      add\n      swap1\n      tag_21\n      swap2\n      swap1\n      tag_22\n      jump\t// in\n    tag_21:\n      tag_23\n      jump\t// in\n    tag_20:\n      stop\n        /* \"contracts/SwapCart.sol\":3285:3441  function getEntireItems() public listSizeCheck returns (Item[] memory) {\r... */\n    tag_6:\n      tag_24\n      tag_25\n      jump\t// in\n    tag_24:\n      mload(0x40)\n      tag_26\n      swap2\n      swap1\n      tag_27\n      jump\t// in\n    tag_26:\n      mload(0x40)\n      dup1\n      swap2\n      sub\n      swap1\n      return\n        /* \"contracts/SwapCart.sol\":606:643  mapping(address => User) public users */\n    tag_7:\n      tag_28\n      0x04\n      dup1\n      calldatasize\n      sub\n      dup2\n      add\n      swap1\n      tag_29\n      swap2\n      swap1\n      tag_30\n      jump\t// in\n    tag_29:\n      tag_31\n      jump\t// in\n    tag_28:\n      mload(0x40)\n      tag_32\n      swap5\n      swap4\n      swap3\n      swap2\n      swap1\n      tag_33\n      jump\t// in\n    tag_32:\n      mload(0x40)\n      dup1\n      swap2\n      sub\n      swap1\n      return\n        /* \"contracts/SwapCart.sol\":650:687  mapping(uint256 => Item) public items */\n    tag_8:\n      tag_34\n      0x04\n      dup1\n      calldatasize\n      sub\n      dup2\n      add\n      swap1\n      tag_35\n      swap2\n      swap1\n      tag_13\n      jump\t// in\n    tag_35:\n      tag_36\n      jump\t// in\n    tag_34:\n      mload(0x40)\n      tag_37\n      swap7\n      swap6\n      swap5\n      swap4\n      swap3\n      swap2\n      swap1\n      tag_19\n      jump\t// in\n    tag_37:\n      mload(0x40)\n      dup1\n      swap2\n      sub\n      swap1\n      return\n        /* \"contracts/SwapCart.sol\":549:568  IERC20 public token */\n    tag_9:\n      tag_38\n      tag_39\n      jump\t// in\n    tag_38:\n      mload(0x40)\n      tag_40\n      swap2\n      swap1\n      tag_41\n      jump\t// in\n    tag_40:\n      mload(0x40)\n      dup1\n      swap2\n      sub\n      swap1\n      return\n        /* \"contracts/SwapCart.sol\":3449:3613  function addStar(uint itmId) public buyerCheck(items[itmId].seller){\r... */\n    tag_14:\n        /* \"contracts/SwapCart.sol\":3496:3501  items */\n      0x03\n        /* \"contracts/SwapCart.sol\":3496:3508  items[itmId] */\n      0x00\n        /* \"contracts/SwapCart.sol\":3502:3507  itmId */\n      dup3\n        /* \"contracts/SwapCart.sol\":3496:3508  items[itmId] */\n      dup2\n      mstore\n      0x20\n      add\n      swap1\n      dup2\n      mstore\n      0x20\n      add\n      0x00\n      keccak256\n        /* \"contracts/SwapCart.sol\":3496:3515  items[itmId].seller */\n      0x03\n      add\n      0x00\n      swap1\n      sload\n      swap1\n      0x0100\n      exp\n      swap1\n      div\n      0xffffffffffffffffffffffffffffffffffffffff\n      and\n        /* \"contracts/SwapCart.sol\":1305:1314  itmSeller */\n      dup1\n        /* \"contracts/SwapCart.sol\":1291:1314  msg.sender != itmSeller */\n      0xffffffffffffffffffffffffffffffffffffffff\n      and\n        /* \"contracts/SwapCart.sol\":1291:1301  msg.sender */\n      caller\n        /* \"contracts/SwapCart.sol\":1291:1314  msg.sender != itmSeller */\n      0xffffffffffffffffffffffffffffffffffffffff\n      and\n      eq\n      iszero\n        /* \"contracts/SwapCart.sol\":1283:1315  require(msg.sender != itmSeller) */\n      tag_43\n      jumpi\n      0x00\n      dup1\n      revert\n    tag_43:\n        /* \"contracts/SwapCart.sol\":3527:3532  items */\n      0x03\n        /* \"contracts/SwapCart.sol\":3527:3539  items[itmId] */\n      0x00\n        /* \"contracts/SwapCart.sol\":3533:3538  itmId */\n      dup4\n        /* \"contracts/SwapCart.sol\":3527:3539  items[itmId] */\n      dup2\n      mstore\n      0x20\n      add\n      swap1\n      dup2\n      mstore\n      0x20\n      add\n      0x00\n      keccak256\n        /* \"contracts/SwapCart.sol\":3527:3544  items[itmId].star */\n      0x02\n      add\n      0x00\n        /* \"contracts/SwapCart.sol\":3527:3546  items[itmId].star++ */\n      dup2\n      sload\n      dup1\n      swap3\n      swap2\n      swap1\n      tag_45\n      swap1\n      tag_46\n      jump\t// in\n    tag_45:\n      swap2\n      swap1\n      pop\n      sstore\n      pop\n        /* \"contracts/SwapCart.sol\":3594:3604  msg.sender */\n      caller\n        /* \"contracts/SwapCart.sol\":3562:3605  AddStar(itmId,items[itmId].star,msg.sender) */\n      0xffffffffffffffffffffffffffffffffffffffff\n      and\n      0x1ed364e6f46a455fac23816d3700669ff134c7a5fbe0240f52d932f834102462\n        /* \"contracts/SwapCart.sol\":3570:3575  itmId */\n      dup4\n        /* \"contracts/SwapCart.sol\":3576:3581  items */\n      0x03\n        /* \"contracts/SwapCart.sol\":3576:3588  items[itmId] */\n      0x00\n        /* \"contracts/SwapCart.sol\":3582:3587  itmId */\n      dup7\n        /* \"contracts/SwapCart.sol\":3576:3588  items[itmId] */\n      dup2\n      mstore\n      0x20\n      add\n      swap1\n      dup2\n      mstore\n      0x20\n      add\n      0x00\n      keccak256\n        /* \"contracts/SwapCart.sol\":3576:3593  items[itmId].star */\n      0x02\n      add\n      sload\n        /* \"contracts/SwapCart.sol\":3562:3605  AddStar(itmId,items[itmId].star,msg.sender) */\n      mload(0x40)\n      tag_47\n      swap3\n      swap2\n      swap1\n      tag_48\n      jump\t// in\n    tag_47:\n      mload(0x40)\n      dup1\n      swap2\n      sub\n      swap1\n      log2\n        /* \"contracts/SwapCart.sol\":3449:3613  function addStar(uint itmId) public buyerCheck(items[itmId].seller){\r... */\n      pop\n      pop\n      jump\t// out\n        /* \"contracts/SwapCart.sol\":575:597  Item[] public itemList */\n    tag_17:\n      0x01\n      dup2\n      dup2\n      sload\n      dup2\n      lt\n      tag_49\n      jumpi\n      0x00\n      dup1\n      revert\n    tag_49:\n      swap1\n      0x00\n      mstore\n      keccak256(0x00, 0x20)\n      swap1\n      0x06\n      mul\n      add\n      0x00\n      swap2\n      pop\n      swap1\n      pop\n      dup1\n      0x00\n      add\n      sload\n      swap1\n      dup1\n      0x01\n      add\n      dup1\n      sload\n      tag_51\n      swap1\n      tag_52\n      jump\t// in\n    tag_51:\n      dup1\n      0x1f\n      add\n      0x20\n      dup1\n      swap2\n      div\n      mul\n      0x20\n      add\n      mload(0x40)\n      swap1\n      dup2\n      add\n      0x40\n      mstore\n      dup1\n      swap3\n      swap2\n      swap1\n      dup2\n      dup2\n      mstore\n      0x20\n      add\n      dup3\n      dup1\n      sload\n      tag_53\n      swap1\n      tag_52\n      jump\t// in\n    tag_53:\n      dup1\n      iszero\n      tag_54\n      jumpi\n      dup1\n      0x1f\n      lt\n      tag_55\n      jumpi\n      0x0100\n      dup1\n      dup4\n      sload\n      div\n      mul\n      dup4\n      mstore\n      swap2\n      0x20\n      add\n      swap2\n      jump(tag_54)\n    tag_55:\n      dup3\n      add\n      swap2\n      swap1\n      0x00\n      mstore\n      keccak256(0x00, 0x20)\n      swap1\n    tag_56:\n      dup2\n      sload\n      dup2\n      mstore\n      swap1\n      0x01\n      add\n      swap1\n      0x20\n      add\n      dup1\n      dup4\n      gt\n      tag_56\n      jumpi\n      dup3\n      swap1\n      sub\n      0x1f\n      and\n      dup3\n      add\n      swap2\n    tag_54:\n      pop\n      pop\n      pop\n      pop\n      pop\n      swap1\n      dup1\n      0x02\n      add\n      sload\n      swap1\n      dup1\n      0x03\n      add\n      0x00\n      swap1\n      sload\n      swap1\n      0x0100\n      exp\n      swap1\n      div\n      0xffffffffffffffffffffffffffffffffffffffff\n      and\n      swap1\n      dup1\n      0x04\n      add\n      sload\n      swap1\n      dup1\n      0x05\n      add\n      0x00\n      swap1\n      sload\n      swap1\n      0x0100\n      exp\n      swap1\n      div\n      0xffffffff\n      and\n      swap1\n      pop\n      dup7\n      jump\t// out\n        /* \"contracts/SwapCart.sol\":2608:3277  function createSaleAdvert(uint itmPrice, string memory itmImage, uint32 itmDueDate) external ownerCheck(msg.sender){\r... */\n    tag_23:\n        /* \"contracts/SwapCart.sol\":2712:2722  msg.sender */\n      caller\n        /* \"contracts/SwapCart.sol\":1057:1066  itmSeller */\n      dup1\n        /* \"contracts/SwapCart.sol\":1043:1066  msg.sender == itmSeller */\n      0xffffffffffffffffffffffffffffffffffffffff\n      and\n        /* \"contracts/SwapCart.sol\":1043:1053  msg.sender */\n      caller\n        /* \"contracts/SwapCart.sol\":1043:1066  msg.sender == itmSeller */\n      0xffffffffffffffffffffffffffffffffffffffff\n      and\n      eq\n        /* \"contracts/SwapCart.sol\":1035:1067  require(msg.sender == itmSeller) */\n      tag_58\n      jumpi\n      0x00\n      dup1\n      revert\n    tag_58:\n        /* \"contracts/SwapCart.sol\":2767:2975  Item({\r... */\n      mload(0x40)\n      dup1\n      0xc0\n      add\n      0x40\n      mstore\n      dup1\n        /* \"contracts/SwapCart.sol\":2794:2815  itemCounter.current() */\n      tag_60\n        /* \"contracts/SwapCart.sol\":2794:2805  itemCounter */\n      0x04\n        /* \"contracts/SwapCart.sol\":2794:2813  itemCounter.current */\n      tag_61\n        /* \"contracts/SwapCart.sol\":2794:2815  itemCounter.current() */\n      jump\t// in\n    tag_60:\n        /* \"contracts/SwapCart.sol\":2767:2975  Item({\r... */\n      dup2\n      mstore\n      0x20\n      add\n        /* \"contracts/SwapCart.sol\":2869:2877  itmImage */\n      dup5\n        /* \"contracts/SwapCart.sol\":2767:2975  Item({\r... */\n      dup2\n      mstore\n      0x20\n      add\n        /* \"contracts/SwapCart.sol\":2930:2931  0 */\n      0x00\n        /* \"contracts/SwapCart.sol\":2767:2975  Item({\r... */\n      dup2\n      mstore\n      0x20\n      add\n        /* \"contracts/SwapCart.sol\":2953:2963  msg.sender */\n      caller\n        /* \"contracts/SwapCart.sol\":2767:2975  Item({\r... */\n      0xffffffffffffffffffffffffffffffffffffffff\n      and\n      dup2\n      mstore\n      0x20\n      add\n        /* \"contracts/SwapCart.sol\":2836:2844  itmPrice */\n      dup6\n        /* \"contracts/SwapCart.sol\":2767:2975  Item({\r... */\n      dup2\n      mstore\n      0x20\n      add\n        /* \"contracts/SwapCart.sol\":2900:2910  itmDueDate */\n      dup4\n        /* \"contracts/SwapCart.sol\":2767:2975  Item({\r... */\n      0xffffffff\n      and\n      dup2\n      mstore\n      pop\n        /* \"contracts/SwapCart.sol\":2736:2741  items */\n      0x03\n        /* \"contracts/SwapCart.sol\":2736:2764  items[itemCounter.current()] */\n      0x00\n        /* \"contracts/SwapCart.sol\":2742:2763  itemCounter.current() */\n      tag_62\n        /* \"contracts/SwapCart.sol\":2742:2753  itemCounter */\n      0x04\n        /* \"contracts/SwapCart.sol\":2742:2761  itemCounter.current */\n      tag_61\n        /* \"contracts/SwapCart.sol\":2742:2763  itemCounter.current() */\n      jump\t// in\n    tag_62:\n        /* \"contracts/SwapCart.sol\":2736:2764  items[itemCounter.current()] */\n      dup2\n      mstore\n      0x20\n      add\n      swap1\n      dup2\n      mstore\n      0x20\n      add\n      0x00\n      keccak256\n        /* \"contracts/SwapCart.sol\":2736:2975  items[itemCounter.current()] = Item({\r... */\n      0x00\n      dup3\n      add\n      mload\n      dup2\n      0x00\n      add\n      sstore\n      0x20\n      dup3\n      add\n      mload\n      dup2\n      0x01\n      add\n      swap1\n      dup1\n      mload\n      swap1\n      0x20\n      add\n      swap1\n      tag_63\n      swap3\n      swap2\n      swap1\n      tag_64\n      jump\t// in\n    tag_63:\n      pop\n      0x40\n      dup3\n      add\n      mload\n      dup2\n      0x02\n      add\n      sstore\n      0x60\n      dup3\n      add\n      mload\n      dup2\n      0x03\n      add\n      exp(0x0100, 0x00)\n      dup2\n      sload\n      dup2\n      0xffffffffffffffffffffffffffffffffffffffff\n      mul\n      not\n      and\n      swap1\n      dup4\n      0xffffffffffffffffffffffffffffffffffffffff\n      and\n      mul\n      or\n      swap1\n      sstore\n      pop\n      0x80\n      dup3\n      add\n      mload\n      dup2\n      0x04\n      add\n      sstore\n      0xa0\n      dup3\n      add\n      mload\n      dup2\n      0x05\n      add\n      exp(0x0100, 0x00)\n      dup2\n      sload\n      dup2\n      0xffffffff\n      mul\n      not\n      and\n      swap1\n      dup4\n      0xffffffff\n      and\n      mul\n      or\n      swap1\n      sstore\n      pop\n      swap1\n      pop\n      pop\n        /* \"contracts/SwapCart.sol\":2988:2993  users */\n      0x02\n        /* \"contracts/SwapCart.sol\":2988:3005  users[msg.sender] */\n      0x00\n        /* \"contracts/SwapCart.sol\":2994:3004  msg.sender */\n      caller\n        /* \"contracts/SwapCart.sol\":2988:3005  users[msg.sender] */\n      0xffffffffffffffffffffffffffffffffffffffff\n      and\n      0xffffffffffffffffffffffffffffffffffffffff\n      and\n      dup2\n      mstore\n      0x20\n      add\n      swap1\n      dup2\n      mstore\n      0x20\n      add\n      0x00\n      keccak256\n        /* \"contracts/SwapCart.sol\":2988:3015  users[msg.sender].inventory */\n      0x04\n      add\n        /* \"contracts/SwapCart.sol\":3021:3026  items */\n      0x03\n        /* \"contracts/SwapCart.sol\":3021:3049  items[itemCounter.current()] */\n      0x00\n        /* \"contracts/SwapCart.sol\":3027:3048  itemCounter.current() */\n      tag_65\n        /* \"contracts/SwapCart.sol\":3027:3038  itemCounter */\n      0x04\n        /* \"contracts/SwapCart.sol\":3027:3046  itemCounter.current */\n      tag_61\n        /* \"contracts/SwapCart.sol\":3027:3048  itemCounter.current() */\n      jump\t// in\n    tag_65:\n        /* \"contracts/SwapCart.sol\":3021:3049  items[itemCounter.current()] */\n      dup2\n      mstore\n      0x20\n      add\n      swap1\n      dup2\n      mstore\n      0x20\n      add\n      0x00\n      keccak256\n        /* \"contracts/SwapCart.sol\":2988:3050  users[msg.sender].inventory.push(items[itemCounter.current()]) */\n      swap1\n      dup1\n      0x01\n      dup2\n      sload\n      add\n      dup1\n      dup3\n      sstore\n      dup1\n      swap2\n      pop\n      pop\n      0x01\n      swap1\n      sub\n      swap1\n      0x00\n      mstore\n      keccak256(0x00, 0x20)\n      swap1\n      0x06\n      mul\n      add\n      0x00\n      swap1\n      swap2\n      swap1\n      swap2\n      swap1\n      swap2\n      pop\n      0x00\n      dup3\n      add\n      sload\n      dup2\n      0x00\n      add\n      sstore\n      0x01\n      dup3\n      add\n      dup2\n      0x01\n      add\n      swap1\n      dup1\n      sload\n      tag_67\n      swap1\n      tag_52\n      jump\t// in\n    tag_67:\n      tag_68\n      swap3\n      swap2\n      swap1\n      tag_69\n      jump\t// in\n    tag_68:\n      pop\n      0x02\n      dup3\n      add\n      sload\n      dup2\n      0x02\n      add\n      sstore\n      0x03\n      dup3\n      add\n      0x00\n      swap1\n      sload\n      swap1\n      0x0100\n      exp\n      swap1\n      div\n      0xffffffffffffffffffffffffffffffffffffffff\n      and\n      dup2\n      0x03\n      add\n      exp(0x0100, 0x00)\n      dup2\n      sload\n      dup2\n      0xffffffffffffffffffffffffffffffffffffffff\n      mul\n      not\n      and\n      swap1\n      dup4\n      0xffffffffffffffffffffffffffffffffffffffff\n      and\n      mul\n      or\n      swap1\n      sstore\n      pop\n      0x04\n      dup3\n      add\n      sload\n      dup2\n      0x04\n      add\n      sstore\n      0x05\n      dup3\n      add\n      0x00\n      swap1\n      sload\n      swap1\n      0x0100\n      exp\n      swap1\n      div\n      0xffffffff\n      and\n      dup2\n      0x05\n      add\n      exp(0x0100, 0x00)\n      dup2\n      sload\n      dup2\n      0xffffffff\n      mul\n      not\n      and\n      swap1\n      dup4\n      0xffffffff\n      and\n      mul\n      or\n      swap1\n      sstore\n      pop\n      pop\n      pop\n        /* \"contracts/SwapCart.sol\":3061:3069  itemList */\n      0x01\n        /* \"contracts/SwapCart.sol\":3075:3080  items */\n      0x03\n        /* \"contracts/SwapCart.sol\":3075:3103  items[itemCounter.current()] */\n      0x00\n        /* \"contracts/SwapCart.sol\":3081:3102  itemCounter.current() */\n      tag_70\n        /* \"contracts/SwapCart.sol\":3081:3092  itemCounter */\n      0x04\n        /* \"contracts/SwapCart.sol\":3081:3100  itemCounter.current */\n      tag_61\n        /* \"contracts/SwapCart.sol\":3081:3102  itemCounter.current() */\n      jump\t// in\n    tag_70:\n        /* \"contracts/SwapCart.sol\":3075:3103  items[itemCounter.current()] */\n      dup2\n      mstore\n      0x20\n      add\n      swap1\n      dup2\n      mstore\n      0x20\n      add\n      0x00\n      keccak256\n        /* \"contracts/SwapCart.sol\":3061:3104  itemList.push(items[itemCounter.current()]) */\n      swap1\n      dup1\n      0x01\n      dup2\n      sload\n      add\n      dup1\n      dup3\n      sstore\n      dup1\n      swap2\n      pop\n      pop\n      0x01\n      swap1\n      sub\n      swap1\n      0x00\n      mstore\n      keccak256(0x00, 0x20)\n      swap1\n      0x06\n      mul\n      add\n      0x00\n      swap1\n      swap2\n      swap1\n      swap2\n      swap1\n      swap2\n      pop\n      0x00\n      dup3\n      add\n      sload\n      dup2\n      0x00\n      add\n      sstore\n      0x01\n      dup3\n      add\n      dup2\n      0x01\n      add\n      swap1\n      dup1\n      sload\n      tag_72\n      swap1\n      tag_52\n      jump\t// in\n    tag_72:\n      tag_73\n      swap3\n      swap2\n      swap1\n      tag_69\n      jump\t// in\n    tag_73:\n      pop\n      0x02\n      dup3\n      add\n      sload\n      dup2\n      0x02\n      add\n      sstore\n      0x03\n      dup3\n      add\n      0x00\n      swap1\n      sload\n      swap1\n      0x0100\n      exp\n      swap1\n      div\n      0xffffffffffffffffffffffffffffffffffffffff\n      and\n      dup2\n      0x03\n      add\n      exp(0x0100, 0x00)\n      dup2\n      sload\n      dup2\n      0xffffffffffffffffffffffffffffffffffffffff\n      mul\n      not\n      and\n      swap1\n      dup4\n      0xffffffffffffffffffffffffffffffffffffffff\n      and\n      mul\n      or\n      swap1\n      sstore\n      pop\n      0x04\n      dup3\n      add\n      sload\n      dup2\n      0x04\n      add\n      sstore\n      0x05\n      dup3\n      add\n      0x00\n      swap1\n      sload\n      swap1\n      0x0100\n      exp\n      swap1\n      div\n      0xffffffff\n      and\n      dup2\n      0x05\n      add\n      exp(0x0100, 0x00)\n      dup2\n      sload\n      dup2\n      0xffffffff\n      mul\n      not\n      and\n      swap1\n      dup4\n      0xffffffff\n      and\n      mul\n      or\n      swap1\n      sstore\n      pop\n      pop\n      pop\n        /* \"contracts/SwapCart.sol\":3115:3138  itemCounter.increment() */\n      tag_74\n        /* \"contracts/SwapCart.sol\":3115:3126  itemCounter */\n      0x04\n        /* \"contracts/SwapCart.sol\":3115:3136  itemCounter.increment */\n      tag_75\n        /* \"contracts/SwapCart.sol\":3115:3138  itemCounter.increment() */\n      jump\t// in\n    tag_74:\n        /* \"contracts/SwapCart.sol\":3258:3268  msg.sender */\n      caller\n        /* \"contracts/SwapCart.sol\":3156:3269  CreateSaleAdvert(itemCounter.current(),itmPrice,itmImage,itmDueDate,items[itemCounter.current()].star,msg.sender) */\n      0xffffffffffffffffffffffffffffffffffffffff\n      and\n      0x9a5b8b5cb7f9c536ea5db1a94142c9f716fb3a8698a9c70a5b8bfad3922cb06c\n        /* \"contracts/SwapCart.sol\":3173:3194  itemCounter.current() */\n      tag_76\n        /* \"contracts/SwapCart.sol\":3173:3184  itemCounter */\n      0x04\n        /* \"contracts/SwapCart.sol\":3173:3192  itemCounter.current */\n      tag_61\n        /* \"contracts/SwapCart.sol\":3173:3194  itemCounter.current() */\n      jump\t// in\n    tag_76:\n        /* \"contracts/SwapCart.sol\":3195:3203  itmPrice */\n      dup7\n        /* \"contracts/SwapCart.sol\":3204:3212  itmImage */\n      dup7\n        /* \"contracts/SwapCart.sol\":3213:3223  itmDueDate */\n      dup7\n        /* \"contracts/SwapCart.sol\":3224:3229  items */\n      0x03\n        /* \"contracts/SwapCart.sol\":3224:3252  items[itemCounter.current()] */\n      0x00\n        /* \"contracts/SwapCart.sol\":3230:3251  itemCounter.current() */\n      tag_77\n        /* \"contracts/SwapCart.sol\":3230:3241  itemCounter */\n      0x04\n        /* \"contracts/SwapCart.sol\":3230:3249  itemCounter.current */\n      tag_61\n        /* \"contracts/SwapCart.sol\":3230:3251  itemCounter.current() */\n      jump\t// in\n    tag_77:\n        /* \"contracts/SwapCart.sol\":3224:3252  items[itemCounter.current()] */\n      dup2\n      mstore\n      0x20\n      add\n      swap1\n      dup2\n      mstore\n      0x20\n      add\n      0x00\n      keccak256\n        /* \"contracts/SwapCart.sol\":3224:3257  items[itemCounter.current()].star */\n      0x02\n      add\n      sload\n        /* \"contracts/SwapCart.sol\":3156:3269  CreateSaleAdvert(itemCounter.current(),itmPrice,itmImage,itmDueDate,items[itemCounter.current()].star,msg.sender) */\n      mload(0x40)\n      tag_78\n      swap6\n      swap5\n      swap4\n      swap3\n      swap2\n      swap1\n      tag_79\n      jump\t// in\n    tag_78:\n      mload(0x40)\n      dup1\n      swap2\n      sub\n      swap1\n      log2\n        /* \"contracts/SwapCart.sol\":2608:3277  function createSaleAdvert(uint itmPrice, string memory itmImage, uint32 itmDueDate) external ownerCheck(msg.sender){\r... */\n      pop\n      pop\n      pop\n      pop\n      jump\t// out\n        /* \"contracts/SwapCart.sol\":3285:3441  function getEntireItems() public listSizeCheck returns (Item[] memory) {\r... */\n    tag_25:\n        /* \"contracts/SwapCart.sol\":3341:3354  Item[] memory */\n      0x60\n        /* \"contracts/SwapCart.sol\":1901:1902  0 */\n      0x00\n        /* \"contracts/SwapCart.sol\":1877:1898  itemCounter.current() */\n      tag_81\n        /* \"contracts/SwapCart.sol\":1877:1888  itemCounter */\n      0x04\n        /* \"contracts/SwapCart.sol\":1877:1896  itemCounter.current */\n      tag_61\n        /* \"contracts/SwapCart.sol\":1877:1898  itemCounter.current() */\n      jump\t// in\n    tag_81:\n        /* \"contracts/SwapCart.sol\":1877:1902  itemCounter.current() > 0 */\n      gt\n        /* \"contracts/SwapCart.sol\":1869:1941  require(itemCounter.current() > 0, \"There are no products to list yet!\") */\n      tag_82\n      jumpi\n      mload(0x40)\n      0x08c379a000000000000000000000000000000000000000000000000000000000\n      dup2\n      mstore\n      0x04\n      add\n      tag_83\n      swap1\n      tag_84\n      jump\t// in\n    tag_83:\n      mload(0x40)\n      dup1\n      swap2\n      sub\n      swap1\n      revert\n    tag_82:\n        /* \"contracts/SwapCart.sol\":3396:3406  msg.sender */\n      caller\n        /* \"contracts/SwapCart.sol\":3372:3407  GetEntireItems(itemList,msg.sender) */\n      0xffffffffffffffffffffffffffffffffffffffff\n      and\n      0x440c078a5e11bff85c6b6d7c52f378c8220355bd3331ec889638c0eca883670c\n        /* \"contracts/SwapCart.sol\":3387:3395  itemList */\n      0x01\n        /* \"contracts/SwapCart.sol\":3372:3407  GetEntireItems(itemList,msg.sender) */\n      mload(0x40)\n      tag_86\n      swap2\n      swap1\n      tag_87\n      jump\t// in\n    tag_86:\n      mload(0x40)\n      dup1\n      swap2\n      sub\n      swap1\n      log2\n        /* \"contracts/SwapCart.sol\":3425:3433  itemList */\n      0x01\n        /* \"contracts/SwapCart.sol\":3418:3433  return itemList */\n      dup1\n      sload\n      dup1\n      0x20\n      mul\n      0x20\n      add\n      mload(0x40)\n      swap1\n      dup2\n      add\n      0x40\n      mstore\n      dup1\n      swap3\n      swap2\n      swap1\n      dup2\n      dup2\n      mstore\n      0x20\n      add\n      0x00\n      swap1\n    tag_88:\n      dup3\n      dup3\n      lt\n      iszero\n      tag_89\n      jumpi\n      dup4\n      dup3\n      swap1\n      0x00\n      mstore\n      keccak256(0x00, 0x20)\n      swap1\n      0x06\n      mul\n      add\n      mload(0x40)\n      dup1\n      0xc0\n      add\n      0x40\n      mstore\n      swap1\n      dup2\n      0x00\n      dup3\n      add\n      sload\n      dup2\n      mstore\n      0x20\n      add\n      0x01\n      dup3\n      add\n      dup1\n      sload\n      tag_91\n      swap1\n      tag_52\n      jump\t// in\n    tag_91:\n      dup1\n      0x1f\n      add\n      0x20\n      dup1\n      swap2\n      div\n      mul\n      0x20\n      add\n      mload(0x40)\n      swap1\n      dup2\n      add\n      0x40\n      mstore\n      dup1\n      swap3\n      swap2\n      swap1\n      dup2\n      dup2\n      mstore\n      0x20\n      add\n      dup3\n      dup1\n      sload\n      tag_92\n      swap1\n      tag_52\n      jump\t// in\n    tag_92:\n      dup1\n      iszero\n      tag_93\n      jumpi\n      dup1\n      0x1f\n      lt\n      tag_94\n      jumpi\n      0x0100\n      dup1\n      dup4\n      sload\n      div\n      mul\n      dup4\n      mstore\n      swap2\n      0x20\n      add\n      swap2\n      jump(tag_93)\n    tag_94:\n      dup3\n      add\n      swap2\n      swap1\n      0x00\n      mstore\n      keccak256(0x00, 0x20)\n      swap1\n    tag_95:\n      dup2\n      sload\n      dup2\n      mstore\n      swap1\n      0x01\n      add\n      swap1\n      0x20\n      add\n      dup1\n      dup4\n      gt\n      tag_95\n      jumpi\n      dup3\n      swap1\n      sub\n      0x1f\n      and\n      dup3\n      add\n      swap2\n    tag_93:\n      pop\n      pop\n      pop\n      pop\n      pop\n      dup2\n      mstore\n      0x20\n      add\n      0x02\n      dup3\n      add\n      sload\n      dup2\n      mstore\n      0x20\n      add\n      0x03\n      dup3\n      add\n      0x00\n      swap1\n      sload\n      swap1\n      0x0100\n      exp\n      swap1\n      div\n      0xffffffffffffffffffffffffffffffffffffffff\n      and\n      0xffffffffffffffffffffffffffffffffffffffff\n      and\n      0xffffffffffffffffffffffffffffffffffffffff\n      and\n      dup2\n      mstore\n      0x20\n      add\n      0x04\n      dup3\n      add\n      sload\n      dup2\n      mstore\n      0x20\n      add\n      0x05\n      dup3\n      add\n      0x00\n      swap1\n      sload\n      swap1\n      0x0100\n      exp\n      swap1\n      div\n      0xffffffff\n      and\n      0xffffffff\n      and\n      0xffffffff\n      and\n      dup2\n      mstore\n      pop\n      pop\n      dup2\n      mstore\n      0x20\n      add\n      swap1\n      0x01\n      add\n      swap1\n      jump(tag_88)\n    tag_89:\n      pop\n      pop\n      pop\n      pop\n      swap1\n      pop\n        /* \"contracts/SwapCart.sol\":3285:3441  function getEntireItems() public listSizeCheck returns (Item[] memory) {\r... */\n      swap1\n      jump\t// out\n        /* \"contracts/SwapCart.sol\":606:643  mapping(address => User) public users */\n    tag_31:\n      mstore(0x20, 0x02)\n      dup1\n      0x00\n      mstore\n      keccak256(0x00, 0x40)\n      0x00\n      swap2\n      pop\n      swap1\n      pop\n      dup1\n      0x00\n      add\n      sload\n      swap1\n      dup1\n      0x01\n      add\n      dup1\n      sload\n      tag_96\n      swap1\n      tag_52\n      jump\t// in\n    tag_96:\n      dup1\n      0x1f\n      add\n      0x20\n      dup1\n      swap2\n      div\n      mul\n      0x20\n      add\n      mload(0x40)\n      swap1\n      dup2\n      add\n      0x40\n      mstore\n      dup1\n      swap3\n      swap2\n      swap1\n      dup2\n      dup2\n      mstore\n      0x20\n      add\n      dup3\n      dup1\n      sload\n      tag_97\n      swap1\n      tag_52\n      jump\t// in\n    tag_97:\n      dup1\n      iszero\n      tag_98\n      jumpi\n      dup1\n      0x1f\n      lt\n      tag_99\n      jumpi\n      0x0100\n      dup1\n      dup4\n      sload\n      div\n      mul\n      dup4\n      mstore\n      swap2\n      0x20\n      add\n      swap2\n      jump(tag_98)\n    tag_99:\n      dup3\n      add\n      swap2\n      swap1\n      0x00\n      mstore\n      keccak256(0x00, 0x20)\n      swap1\n    tag_100:\n      dup2\n      sload\n      dup2\n      mstore\n      swap1\n      0x01\n      add\n      swap1\n      0x20\n      add\n      dup1\n      dup4\n      gt\n      tag_100\n      jumpi\n      dup3\n      swap1\n      sub\n      0x1f\n      and\n      dup3\n      add\n      swap2\n    tag_98:\n      pop\n      pop\n      pop\n      pop\n      pop\n      swap1\n      dup1\n      0x02\n      add\n      dup1\n      sload\n      tag_101\n      swap1\n      tag_52\n      jump\t// in\n    tag_101:\n      dup1\n      0x1f\n      add\n      0x20\n      dup1\n      swap2\n      div\n      mul\n      0x20\n      add\n      mload(0x40)\n      swap1\n      dup2\n      add\n      0x40\n      mstore\n      dup1\n      swap3\n      swap2\n      swap1\n      dup2\n      dup2\n      mstore\n      0x20\n      add\n      dup3\n      dup1\n      sload\n      tag_102\n      swap1\n      tag_52\n      jump\t// in\n    tag_102:\n      dup1\n      iszero\n      tag_103\n      jumpi\n      dup1\n      0x1f\n      lt\n      tag_104\n      jumpi\n      0x0100\n      dup1\n      dup4\n      sload\n      div\n      mul\n      dup4\n      mstore\n      swap2\n      0x20\n      add\n      swap2\n      jump(tag_103)\n    tag_104:\n      dup3\n      add\n      swap2\n      swap1\n      0x00\n      mstore\n      keccak256(0x00, 0x20)\n      swap1\n    tag_105:\n      dup2\n      sload\n      dup2\n      mstore\n      swap1\n      0x01\n      add\n      swap1\n      0x20\n      add\n      dup1\n      dup4\n      gt\n      tag_105\n      jumpi\n      dup3\n      swap1\n      sub\n      0x1f\n      and\n      dup3\n      add\n      swap2\n    tag_103:\n      pop\n      pop\n      pop\n      pop\n      pop\n      swap1\n      dup1\n      0x05\n      add\n      sload\n      swap1\n      pop\n      dup5\n      jump\t// out\n        /* \"contracts/SwapCart.sol\":650:687  mapping(uint256 => Item) public items */\n    tag_36:\n      mstore(0x20, 0x03)\n      dup1\n      0x00\n      mstore\n      keccak256(0x00, 0x40)\n      0x00\n      swap2\n      pop\n      swap1\n      pop\n      dup1\n      0x00\n      add\n      sload\n      swap1\n      dup1\n      0x01\n      add\n      dup1\n      sload\n      tag_106\n      swap1\n      tag_52\n      jump\t// in\n    tag_106:\n      dup1\n      0x1f\n      add\n      0x20\n      dup1\n      swap2\n      div\n      mul\n      0x20\n      add\n      mload(0x40)\n      swap1\n      dup2\n      add\n      0x40\n      mstore\n      dup1\n      swap3\n      swap2\n      swap1\n      dup2\n      dup2\n      mstore\n      0x20\n      add\n      dup3\n      dup1\n      sload\n      tag_107\n      swap1\n      tag_52\n      jump\t// in\n    tag_107:\n      dup1\n      iszero\n      tag_108\n      jumpi\n      dup1\n      0x1f\n      lt\n      tag_109\n      jumpi\n      0x0100\n      dup1\n      dup4\n      sload\n      div\n      mul\n      dup4\n      mstore\n      swap2\n      0x20\n      add\n      swap2\n      jump(tag_108)\n    tag_109:\n      dup3\n      add\n      swap2\n      swap1\n      0x00\n      mstore\n      keccak256(0x00, 0x20)\n      swap1\n    tag_110:\n      dup2\n      sload\n      dup2\n      mstore\n      swap1\n      0x01\n      add\n      swap1\n      0x20\n      add\n      dup1\n      dup4\n      gt\n      tag_110\n      jumpi\n      dup3\n      swap1\n      sub\n      0x1f\n      and\n      dup3\n      add\n      swap2\n    tag_108:\n      pop\n      pop\n      pop\n      pop\n      pop\n      swap1\n      dup1\n      0x02\n      add\n      sload\n      swap1\n      dup1\n      0x03\n      add\n      0x00\n      swap1\n      sload\n      swap1\n      0x0100\n      exp\n      swap1\n      div\n      0xffffffffffffffffffffffffffffffffffffffff\n      and\n      swap1\n      dup1\n      0x04\n      add\n      sload\n      swap1\n      dup1\n      0x05\n      add\n      0x00\n      swap1\n      sload\n      swap1\n      0x0100\n      exp\n      swap1\n      div\n      0xffffffff\n      and\n      swap1\n      pop\n      dup7\n      jump\t// out\n        /* \"contracts/SwapCart.sol\":549:568  IERC20 public token */\n    tag_39:\n      0x00\n      dup1\n      sload\n      swap1\n      0x0100\n      exp\n      swap1\n      div\n      0xffffffffffffffffffffffffffffffffffffffff\n      and\n      dup2\n      jump\t// out\n        /* \"@openzeppelin/contracts/utils/Counters.sol\":827:939  function current(Counter storage counter) internal view returns (uint256) {... */\n    tag_61:\n        /* \"@openzeppelin/contracts/utils/Counters.sol\":892:899  uint256 */\n      0x00\n        /* \"@openzeppelin/contracts/utils/Counters.sol\":918:925  counter */\n      dup2\n        /* \"@openzeppelin/contracts/utils/Counters.sol\":918:932  counter._value */\n      0x00\n      add\n      sload\n        /* \"@openzeppelin/contracts/utils/Counters.sol\":911:932  return counter._value */\n      swap1\n      pop\n        /* \"@openzeppelin/contracts/utils/Counters.sol\":827:939  function current(Counter storage counter) internal view returns (uint256) {... */\n      swap2\n      swap1\n      pop\n      jump\t// out\n        /* \"@openzeppelin/contracts/utils/Counters.sol\":945:1068  function increment(Counter storage counter) internal {... */\n    tag_75:\n        /* \"@openzeppelin/contracts/utils/Counters.sol\":1050:1051  1 */\n      0x01\n        /* \"@openzeppelin/contracts/utils/Counters.sol\":1032:1039  counter */\n      dup2\n        /* \"@openzeppelin/contracts/utils/Counters.sol\":1032:1046  counter._value */\n      0x00\n      add\n      0x00\n        /* \"@openzeppelin/contracts/utils/Counters.sol\":1032:1051  counter._value += 1 */\n      dup3\n      dup3\n      sload\n      add\n      swap3\n      pop\n      pop\n      dup2\n      swap1\n      sstore\n      pop\n        /* \"@openzeppelin/contracts/utils/Counters.sol\":945:1068  function increment(Counter storage counter) internal {... */\n      pop\n      jump\t// out\n    tag_64:\n      dup3\n      dup1\n      sload\n      tag_113\n      swap1\n      tag_52\n      jump\t// in\n    tag_113:\n      swap1\n      0x00\n      mstore\n      keccak256(0x00, 0x20)\n      swap1\n      0x1f\n      add\n      0x20\n      swap1\n      div\n      dup2\n      add\n      swap3\n      dup3\n      tag_115\n      jumpi\n      0x00\n      dup6\n      sstore\n      jump(tag_114)\n    tag_115:\n      dup3\n      0x1f\n      lt\n      tag_116\n      jumpi\n      dup1\n      mload\n      not(0xff)\n      and\n      dup4\n      dup1\n      add\n      or\n      dup6\n      sstore\n      jump(tag_114)\n    tag_116:\n      dup3\n      dup1\n      add\n      0x01\n      add\n      dup6\n      sstore\n      dup3\n      iszero\n      tag_114\n      jumpi\n      swap2\n      dup3\n      add\n    tag_117:\n      dup3\n      dup2\n      gt\n      iszero\n      tag_118\n      jumpi\n      dup3\n      mload\n      dup3\n      sstore\n      swap2\n      0x20\n      add\n      swap2\n      swap1\n      0x01\n      add\n      swap1\n      jump(tag_117)\n    tag_118:\n    tag_114:\n      pop\n      swap1\n      pop\n      tag_119\n      swap2\n      swap1\n      tag_120\n      jump\t// in\n    tag_119:\n      pop\n      swap1\n      jump\t// out\n    tag_69:\n      dup3\n      dup1\n      sload\n      tag_121\n      swap1\n      tag_52\n      jump\t// in\n    tag_121:\n      swap1\n      0x00\n      mstore\n      keccak256(0x00, 0x20)\n      swap1\n      0x1f\n      add\n      0x20\n      swap1\n      div\n      dup2\n      add\n      swap3\n      dup3\n      tag_123\n      jumpi\n      0x00\n      dup6\n      sstore\n      jump(tag_122)\n    tag_123:\n      dup3\n      0x1f\n      lt\n      tag_124\n      jumpi\n      dup1\n      sload\n      dup6\n      sstore\n      jump(tag_122)\n    tag_124:\n      dup3\n      dup1\n      add\n      0x01\n      add\n      dup6\n      sstore\n      dup3\n      iszero\n      tag_122\n      jumpi\n      0x00\n      mstore\n      keccak256(0x00, 0x20)\n      swap2\n      0x1f\n      add\n      0x20\n      swap1\n      div\n      dup3\n      add\n    tag_125:\n      dup3\n      dup2\n      gt\n      iszero\n      tag_126\n      jumpi\n      dup3\n      sload\n      dup3\n      sstore\n      swap2\n      0x01\n      add\n      swap2\n      swap1\n      0x01\n      add\n      swap1\n      jump(tag_125)\n    tag_126:\n    tag_122:\n      pop\n      swap1\n      pop\n      tag_127\n      swap2\n      swap1\n      tag_120\n      jump\t// in\n    tag_127:\n      pop\n      swap1\n      jump\t// out\n    tag_120:\n    tag_128:\n      dup1\n      dup3\n      gt\n      iszero\n      tag_129\n      jumpi\n      0x00\n      dup2\n      0x00\n      swap1\n      sstore\n      pop\n      0x01\n      add\n      jump(tag_128)\n    tag_129:\n      pop\n      swap1\n      jump\t// out\n        /* \"#utility.yul\":7:419   */\n    tag_131:\n        /* \"#utility.yul\":85:90   */\n      0x00\n        /* \"#utility.yul\":110:176   */\n      tag_133\n        /* \"#utility.yul\":126:175   */\n      tag_134\n        /* \"#utility.yul\":168:174   */\n      dup5\n        /* \"#utility.yul\":126:175   */\n      tag_135\n      jump\t// in\n    tag_134:\n        /* \"#utility.yul\":110:176   */\n      tag_136\n      jump\t// in\n    tag_133:\n        /* \"#utility.yul\":101:176   */\n      swap1\n      pop\n        /* \"#utility.yul\":199:205   */\n      dup3\n        /* \"#utility.yul\":192:197   */\n      dup2\n        /* \"#utility.yul\":185:206   */\n      mstore\n        /* \"#utility.yul\":237:241   */\n      0x20\n        /* \"#utility.yul\":230:235   */\n      dup2\n        /* \"#utility.yul\":226:242   */\n      add\n        /* \"#utility.yul\":275:278   */\n      dup5\n        /* \"#utility.yul\":266:272   */\n      dup5\n        /* \"#utility.yul\":261:264   */\n      dup5\n        /* \"#utility.yul\":257:273   */\n      add\n        /* \"#utility.yul\":254:279   */\n      gt\n        /* \"#utility.yul\":251:363   */\n      iszero\n      tag_137\n      jumpi\n        /* \"#utility.yul\":282:361   */\n      tag_138\n      tag_139\n      jump\t// in\n    tag_138:\n        /* \"#utility.yul\":251:363   */\n    tag_137:\n        /* \"#utility.yul\":372:413   */\n      tag_140\n        /* \"#utility.yul\":406:412   */\n      dup5\n        /* \"#utility.yul\":401:404   */\n      dup3\n        /* \"#utility.yul\":396:399   */\n      dup6\n        /* \"#utility.yul\":372:413   */\n      tag_141\n      jump\t// in\n    tag_140:\n        /* \"#utility.yul\":91:419   */\n      pop\n        /* \"#utility.yul\":7:419   */\n      swap4\n      swap3\n      pop\n      pop\n      pop\n      jump\t// out\n        /* \"#utility.yul\":425:564   */\n    tag_142:\n        /* \"#utility.yul\":471:476   */\n      0x00\n        /* \"#utility.yul\":509:515   */\n      dup2\n        /* \"#utility.yul\":496:516   */\n      calldataload\n        /* \"#utility.yul\":487:516   */\n      swap1\n      pop\n        /* \"#utility.yul\":525:558   */\n      tag_144\n        /* \"#utility.yul\":552:557   */\n      dup2\n        /* \"#utility.yul\":525:558   */\n      tag_145\n      jump\t// in\n    tag_144:\n        /* \"#utility.yul\":425:564   */\n      swap3\n      swap2\n      pop\n      pop\n      jump\t// out\n        /* \"#utility.yul\":584:924   */\n    tag_146:\n        /* \"#utility.yul\":640:645   */\n      0x00\n        /* \"#utility.yul\":689:692   */\n      dup3\n        /* \"#utility.yul\":682:686   */\n      0x1f\n        /* \"#utility.yul\":674:680   */\n      dup4\n        /* \"#utility.yul\":670:687   */\n      add\n        /* \"#utility.yul\":666:693   */\n      slt\n        /* \"#utility.yul\":656:778   */\n      tag_148\n      jumpi\n        /* \"#utility.yul\":697:776   */\n      tag_149\n      tag_150\n      jump\t// in\n    tag_149:\n        /* \"#utility.yul\":656:778   */\n    tag_148:\n        /* \"#utility.yul\":814:820   */\n      dup2\n        /* \"#utility.yul\":801:821   */\n      calldataload\n        /* \"#utility.yul\":839:918   */\n      tag_151\n        /* \"#utility.yul\":914:917   */\n      dup5\n        /* \"#utility.yul\":906:912   */\n      dup3\n        /* \"#utility.yul\":899:903   */\n      0x20\n        /* \"#utility.yul\":891:897   */\n      dup7\n        /* \"#utility.yul\":887:904   */\n      add\n        /* \"#utility.yul\":839:918   */\n      tag_131\n      jump\t// in\n    tag_151:\n        /* \"#utility.yul\":830:918   */\n      swap2\n      pop\n        /* \"#utility.yul\":646:924   */\n      pop\n        /* \"#utility.yul\":584:924   */\n      swap3\n      swap2\n      pop\n      pop\n      jump\t// out\n        /* \"#utility.yul\":930:1069   */\n    tag_152:\n        /* \"#utility.yul\":976:981   */\n      0x00\n        /* \"#utility.yul\":1014:1020   */\n      dup2\n        /* \"#utility.yul\":1001:1021   */\n      calldataload\n        /* \"#utility.yul\":992:1021   */\n      swap1\n      pop\n        /* \"#utility.yul\":1030:1063   */\n      tag_154\n        /* \"#utility.yul\":1057:1062   */\n      dup2\n        /* \"#utility.yul\":1030:1063   */\n      tag_155\n      jump\t// in\n    tag_154:\n        /* \"#utility.yul\":930:1069   */\n      swap3\n      swap2\n      pop\n      pop\n      jump\t// out\n        /* \"#utility.yul\":1075:1212   */\n    tag_156:\n        /* \"#utility.yul\":1120:1125   */\n      0x00\n        /* \"#utility.yul\":1158:1164   */\n      dup2\n        /* \"#utility.yul\":1145:1165   */\n      calldataload\n        /* \"#utility.yul\":1136:1165   */\n      swap1\n      pop\n        /* \"#utility.yul\":1174:1206   */\n      tag_158\n        /* \"#utility.yul\":1200:1205   */\n      dup2\n        /* \"#utility.yul\":1174:1206   */\n      tag_159\n      jump\t// in\n    tag_158:\n        /* \"#utility.yul\":1075:1212   */\n      swap3\n      swap2\n      pop\n      pop\n      jump\t// out\n        /* \"#utility.yul\":1218:1547   */\n    tag_30:\n        /* \"#utility.yul\":1277:1283   */\n      0x00\n        /* \"#utility.yul\":1326:1328   */\n      0x20\n        /* \"#utility.yul\":1314:1323   */\n      dup3\n        /* \"#utility.yul\":1305:1312   */\n      dup5\n        /* \"#utility.yul\":1301:1324   */\n      sub\n        /* \"#utility.yul\":1297:1329   */\n      slt\n        /* \"#utility.yul\":1294:1413   */\n      iszero\n      tag_161\n      jumpi\n        /* \"#utility.yul\":1332:1411   */\n      tag_162\n      tag_163\n      jump\t// in\n    tag_162:\n        /* \"#utility.yul\":1294:1413   */\n    tag_161:\n        /* \"#utility.yul\":1452:1453   */\n      0x00\n        /* \"#utility.yul\":1477:1530   */\n      tag_164\n        /* \"#utility.yul\":1522:1529   */\n      dup5\n        /* \"#utility.yul\":1513:1519   */\n      dup3\n        /* \"#utility.yul\":1502:1511   */\n      dup6\n        /* \"#utility.yul\":1498:1520   */\n      add\n        /* \"#utility.yul\":1477:1530   */\n      tag_142\n      jump\t// in\n    tag_164:\n        /* \"#utility.yul\":1467:1530   */\n      swap2\n      pop\n        /* \"#utility.yul\":1423:1540   */\n      pop\n        /* \"#utility.yul\":1218:1547   */\n      swap3\n      swap2\n      pop\n      pop\n      jump\t// out\n        /* \"#utility.yul\":1553:1882   */\n    tag_13:\n        /* \"#utility.yul\":1612:1618   */\n      0x00\n        /* \"#utility.yul\":1661:1663   */\n      0x20\n        /* \"#utility.yul\":1649:1658   */\n      dup3\n        /* \"#utility.yul\":1640:1647   */\n      dup5\n        /* \"#utility.yul\":1636:1659   */\n      sub\n        /* \"#utility.yul\":1632:1664   */\n      slt\n        /* \"#utility.yul\":1629:1748   */\n      iszero\n      tag_166\n      jumpi\n        /* \"#utility.yul\":1667:1746   */\n      tag_167\n      tag_163\n      jump\t// in\n    tag_167:\n        /* \"#utility.yul\":1629:1748   */\n    tag_166:\n        /* \"#utility.yul\":1787:1788   */\n      0x00\n        /* \"#utility.yul\":1812:1865   */\n      tag_168\n        /* \"#utility.yul\":1857:1864   */\n      dup5\n        /* \"#utility.yul\":1848:1854   */\n      dup3\n        /* \"#utility.yul\":1837:1846   */\n      dup6\n        /* \"#utility.yul\":1833:1855   */\n      add\n        /* \"#utility.yul\":1812:1865   */\n      tag_152\n      jump\t// in\n    tag_168:\n        /* \"#utility.yul\":1802:1865   */\n      swap2\n      pop\n        /* \"#utility.yul\":1758:1875   */\n      pop\n        /* \"#utility.yul\":1553:1882   */\n      swap3\n      swap2\n      pop\n      pop\n      jump\t// out\n        /* \"#utility.yul\":1888:2685   */\n    tag_22:\n        /* \"#utility.yul\":1974:1980   */\n      0x00\n        /* \"#utility.yul\":1982:1988   */\n      dup1\n        /* \"#utility.yul\":1990:1996   */\n      0x00\n        /* \"#utility.yul\":2039:2041   */\n      0x60\n        /* \"#utility.yul\":2027:2036   */\n      dup5\n        /* \"#utility.yul\":2018:2025   */\n      dup7\n        /* \"#utility.yul\":2014:2037   */\n      sub\n        /* \"#utility.yul\":2010:2042   */\n      slt\n        /* \"#utility.yul\":2007:2126   */\n      iszero\n      tag_170\n      jumpi\n        /* \"#utility.yul\":2045:2124   */\n      tag_171\n      tag_163\n      jump\t// in\n    tag_171:\n        /* \"#utility.yul\":2007:2126   */\n    tag_170:\n        /* \"#utility.yul\":2165:2166   */\n      0x00\n        /* \"#utility.yul\":2190:2243   */\n      tag_172\n        /* \"#utility.yul\":2235:2242   */\n      dup7\n        /* \"#utility.yul\":2226:2232   */\n      dup3\n        /* \"#utility.yul\":2215:2224   */\n      dup8\n        /* \"#utility.yul\":2211:2233   */\n      add\n        /* \"#utility.yul\":2190:2243   */\n      tag_152\n      jump\t// in\n    tag_172:\n        /* \"#utility.yul\":2180:2243   */\n      swap4\n      pop\n        /* \"#utility.yul\":2136:2253   */\n      pop\n        /* \"#utility.yul\":2320:2322   */\n      0x20\n        /* \"#utility.yul\":2309:2318   */\n      dup5\n        /* \"#utility.yul\":2305:2323   */\n      add\n        /* \"#utility.yul\":2292:2324   */\n      calldataload\n        /* \"#utility.yul\":2351:2369   */\n      0xffffffffffffffff\n        /* \"#utility.yul\":2343:2349   */\n      dup2\n        /* \"#utility.yul\":2340:2370   */\n      gt\n        /* \"#utility.yul\":2337:2454   */\n      iszero\n      tag_173\n      jumpi\n        /* \"#utility.yul\":2373:2452   */\n      tag_174\n      tag_175\n      jump\t// in\n    tag_174:\n        /* \"#utility.yul\":2337:2454   */\n    tag_173:\n        /* \"#utility.yul\":2478:2541   */\n      tag_176\n        /* \"#utility.yul\":2533:2540   */\n      dup7\n        /* \"#utility.yul\":2524:2530   */\n      dup3\n        /* \"#utility.yul\":2513:2522   */\n      dup8\n        /* \"#utility.yul\":2509:2531   */\n      add\n        /* \"#utility.yul\":2478:2541   */\n      tag_146\n      jump\t// in\n    tag_176:\n        /* \"#utility.yul\":2468:2541   */\n      swap3\n      pop\n        /* \"#utility.yul\":2263:2551   */\n      pop\n        /* \"#utility.yul\":2590:2592   */\n      0x40\n        /* \"#utility.yul\":2616:2668   */\n      tag_177\n        /* \"#utility.yul\":2660:2667   */\n      dup7\n        /* \"#utility.yul\":2651:2657   */\n      dup3\n        /* \"#utility.yul\":2640:2649   */\n      dup8\n        /* \"#utility.yul\":2636:2658   */\n      add\n        /* \"#utility.yul\":2616:2668   */\n      tag_156\n      jump\t// in\n    tag_177:\n        /* \"#utility.yul\":2606:2668   */\n      swap2\n      pop\n        /* \"#utility.yul\":2561:2678   */\n      pop\n        /* \"#utility.yul\":1888:2685   */\n      swap3\n      pop\n      swap3\n      pop\n      swap3\n      jump\t// out\n        /* \"#utility.yul\":2691:2931   */\n    tag_178:\n        /* \"#utility.yul\":2802:2812   */\n      0x00\n        /* \"#utility.yul\":2837:2925   */\n      tag_180\n        /* \"#utility.yul\":2921:2924   */\n      dup4\n        /* \"#utility.yul\":2913:2919   */\n      dup4\n        /* \"#utility.yul\":2837:2925   */\n      tag_181\n      jump\t// in\n    tag_180:\n        /* \"#utility.yul\":2823:2925   */\n      swap1\n      pop\n        /* \"#utility.yul\":2691:2931   */\n      swap3\n      swap2\n      pop\n      pop\n      jump\t// out\n        /* \"#utility.yul\":2937:3171   */\n    tag_182:\n        /* \"#utility.yul\":3045:3055   */\n      0x00\n        /* \"#utility.yul\":3080:3165   */\n      tag_184\n        /* \"#utility.yul\":3161:3164   */\n      dup4\n        /* \"#utility.yul\":3153:3159   */\n      dup4\n        /* \"#utility.yul\":3080:3165   */\n      tag_185\n      jump\t// in\n    tag_184:\n        /* \"#utility.yul\":3066:3165   */\n      swap1\n      pop\n        /* \"#utility.yul\":2937:3171   */\n      swap3\n      swap2\n      pop\n      pop\n      jump\t// out\n        /* \"#utility.yul\":3177:3285   */\n    tag_186:\n        /* \"#utility.yul\":3254:3278   */\n      tag_188\n        /* \"#utility.yul\":3272:3277   */\n      dup2\n        /* \"#utility.yul\":3254:3278   */\n      tag_189\n      jump\t// in\n    tag_188:\n        /* \"#utility.yul\":3249:3252   */\n      dup3\n        /* \"#utility.yul\":3242:3279   */\n      mstore\n        /* \"#utility.yul\":3177:3285   */\n      pop\n      pop\n      jump\t// out\n        /* \"#utility.yul\":3291:3409   */\n    tag_190:\n        /* \"#utility.yul\":3378:3402   */\n      tag_192\n        /* \"#utility.yul\":3396:3401   */\n      dup2\n        /* \"#utility.yul\":3378:3402   */\n      tag_189\n      jump\t// in\n    tag_192:\n        /* \"#utility.yul\":3373:3376   */\n      dup3\n        /* \"#utility.yul\":3366:3403   */\n      mstore\n        /* \"#utility.yul\":3291:3409   */\n      pop\n      pop\n      jump\t// out\n        /* \"#utility.yul\":3471:4550   */\n    tag_193:\n        /* \"#utility.yul\":3632:3635   */\n      0x00\n        /* \"#utility.yul\":3661:3736   */\n      tag_195\n        /* \"#utility.yul\":3730:3735   */\n      dup3\n        /* \"#utility.yul\":3661:3736   */\n      tag_196\n      jump\t// in\n    tag_195:\n        /* \"#utility.yul\":3752:3859   */\n      tag_197\n        /* \"#utility.yul\":3852:3858   */\n      dup2\n        /* \"#utility.yul\":3847:3850   */\n      dup6\n        /* \"#utility.yul\":3752:3859   */\n      tag_198\n      jump\t// in\n    tag_197:\n        /* \"#utility.yul\":3745:3859   */\n      swap4\n      pop\n        /* \"#utility.yul\":3885:3888   */\n      dup4\n        /* \"#utility.yul\":3930:3934   */\n      0x20\n        /* \"#utility.yul\":3922:3928   */\n      dup3\n        /* \"#utility.yul\":3918:3935   */\n      mul\n        /* \"#utility.yul\":3913:3916   */\n      dup6\n        /* \"#utility.yul\":3909:3936   */\n      add\n        /* \"#utility.yul\":3960:4037   */\n      tag_199\n        /* \"#utility.yul\":4031:4036   */\n      dup6\n        /* \"#utility.yul\":3960:4037   */\n      tag_200\n      jump\t// in\n    tag_199:\n        /* \"#utility.yul\":4060:4067   */\n      dup1\n        /* \"#utility.yul\":4091:4092   */\n      0x00\n        /* \"#utility.yul\":4076:4505   */\n    tag_201:\n        /* \"#utility.yul\":4101:4107   */\n      dup6\n        /* \"#utility.yul\":4098:4099   */\n      dup2\n        /* \"#utility.yul\":4095:4108   */\n      lt\n        /* \"#utility.yul\":4076:4505   */\n      iszero\n      tag_203\n      jumpi\n        /* \"#utility.yul\":4172:4181   */\n      dup5\n        /* \"#utility.yul\":4166:4170   */\n      dup5\n        /* \"#utility.yul\":4162:4182   */\n      sub\n        /* \"#utility.yul\":4157:4160   */\n      dup10\n        /* \"#utility.yul\":4150:4183   */\n      mstore\n        /* \"#utility.yul\":4223:4229   */\n      dup2\n        /* \"#utility.yul\":4217:4230   */\n      mload\n        /* \"#utility.yul\":4251:4357   */\n      tag_204\n        /* \"#utility.yul\":4352:4356   */\n      dup6\n        /* \"#utility.yul\":4337:4350   */\n      dup3\n        /* \"#utility.yul\":4251:4357   */\n      tag_178\n      jump\t// in\n    tag_204:\n        /* \"#utility.yul\":4243:4357   */\n      swap5\n      pop\n        /* \"#utility.yul\":4380:4461   */\n      tag_205\n        /* \"#utility.yul\":4454:4460   */\n      dup4\n        /* \"#utility.yul\":4380:4461   */\n      tag_206\n      jump\t// in\n    tag_205:\n        /* \"#utility.yul\":4370:4461   */\n      swap3\n      pop\n        /* \"#utility.yul\":4490:4494   */\n      0x20\n        /* \"#utility.yul\":4485:4488   */\n      dup11\n        /* \"#utility.yul\":4481:4495   */\n      add\n        /* \"#utility.yul\":4474:4495   */\n      swap10\n      pop\n        /* \"#utility.yul\":4136:4505   */\n      pop\n        /* \"#utility.yul\":4123:4124   */\n      0x01\n        /* \"#utility.yul\":4120:4121   */\n      dup2\n        /* \"#utility.yul\":4116:4125   */\n      add\n        /* \"#utility.yul\":4111:4125   */\n      swap1\n      pop\n        /* \"#utility.yul\":4076:4505   */\n      jump(tag_201)\n    tag_203:\n        /* \"#utility.yul\":4080:4094   */\n      pop\n        /* \"#utility.yul\":4521:4525   */\n      dup3\n        /* \"#utility.yul\":4514:4525   */\n      swap8\n      pop\n        /* \"#utility.yul\":4541:4544   */\n      dup8\n        /* \"#utility.yul\":4534:4544   */\n      swap6\n      pop\n        /* \"#utility.yul\":3637:4550   */\n      pop\n      pop\n      pop\n      pop\n      pop\n        /* \"#utility.yul\":3471:4550   */\n      swap3\n      swap2\n      pop\n      pop\n      jump\t// out\n        /* \"#utility.yul\":4612:5657   */\n    tag_207:\n        /* \"#utility.yul\":4767:4770   */\n      0x00\n        /* \"#utility.yul\":4796:4865   */\n      tag_209\n        /* \"#utility.yul\":4859:4864   */\n      dup3\n        /* \"#utility.yul\":4796:4865   */\n      tag_210\n      jump\t// in\n    tag_209:\n        /* \"#utility.yul\":4881:4988   */\n      tag_211\n        /* \"#utility.yul\":4981:4987   */\n      dup2\n        /* \"#utility.yul\":4976:4979   */\n      dup6\n        /* \"#utility.yul\":4881:4988   */\n      tag_198\n      jump\t// in\n    tag_211:\n        /* \"#utility.yul\":4874:4988   */\n      swap4\n      pop\n        /* \"#utility.yul\":5014:5017   */\n      dup4\n        /* \"#utility.yul\":5059:5063   */\n      0x20\n        /* \"#utility.yul\":5051:5057   */\n      dup3\n        /* \"#utility.yul\":5047:5064   */\n      mul\n        /* \"#utility.yul\":5042:5045   */\n      dup6\n        /* \"#utility.yul\":5038:5065   */\n      add\n        /* \"#utility.yul\":5089:5160   */\n      tag_212\n        /* \"#utility.yul\":5154:5159   */\n      dup6\n        /* \"#utility.yul\":5089:5160   */\n      tag_213\n      jump\t// in\n    tag_212:\n        /* \"#utility.yul\":5183:5190   */\n      dup1\n        /* \"#utility.yul\":5214:5215   */\n      0x00\n        /* \"#utility.yul\":5199:5612   */\n    tag_214:\n        /* \"#utility.yul\":5224:5230   */\n      dup6\n        /* \"#utility.yul\":5221:5222   */\n      dup2\n        /* \"#utility.yul\":5218:5231   */\n      lt\n        /* \"#utility.yul\":5199:5612   */\n      iszero\n      tag_216\n      jumpi\n        /* \"#utility.yul\":5295:5304   */\n      dup5\n        /* \"#utility.yul\":5289:5293   */\n      dup5\n        /* \"#utility.yul\":5285:5305   */\n      sub\n        /* \"#utility.yul\":5280:5283   */\n      dup10\n        /* \"#utility.yul\":5273:5306   */\n      mstore\n        /* \"#utility.yul\":5340:5346   */\n      dup2\n        /* \"#utility.yul\":5367:5470   */\n      tag_217\n        /* \"#utility.yul\":5465:5469   */\n      dup6\n        /* \"#utility.yul\":5450:5463   */\n      dup3\n        /* \"#utility.yul\":5367:5470   */\n      tag_182\n      jump\t// in\n    tag_217:\n        /* \"#utility.yul\":5359:5470   */\n      swap5\n      pop\n        /* \"#utility.yul\":5493:5568   */\n      tag_218\n        /* \"#utility.yul\":5561:5567   */\n      dup4\n        /* \"#utility.yul\":5493:5568   */\n      tag_219\n      jump\t// in\n    tag_218:\n        /* \"#utility.yul\":5483:5568   */\n      swap3\n      pop\n        /* \"#utility.yul\":5597:5601   */\n      0x20\n        /* \"#utility.yul\":5592:5595   */\n      dup11\n        /* \"#utility.yul\":5588:5602   */\n      add\n        /* \"#utility.yul\":5581:5602   */\n      swap10\n      pop\n        /* \"#utility.yul\":5259:5612   */\n      pop\n        /* \"#utility.yul\":5246:5247   */\n      0x01\n        /* \"#utility.yul\":5243:5244   */\n      dup2\n        /* \"#utility.yul\":5239:5248   */\n      add\n        /* \"#utility.yul\":5234:5248   */\n      swap1\n      pop\n        /* \"#utility.yul\":5199:5612   */\n      jump(tag_214)\n    tag_216:\n        /* \"#utility.yul\":5203:5217   */\n      pop\n        /* \"#utility.yul\":5628:5632   */\n      dup3\n        /* \"#utility.yul\":5621:5632   */\n      swap8\n      pop\n        /* \"#utility.yul\":5648:5651   */\n      dup8\n        /* \"#utility.yul\":5641:5651   */\n      swap6\n      pop\n        /* \"#utility.yul\":4772:5657   */\n      pop\n      pop\n      pop\n      pop\n      pop\n        /* \"#utility.yul\":4612:5657   */\n      swap3\n      swap2\n      pop\n      pop\n      jump\t// out\n        /* \"#utility.yul\":5663:5822   */\n    tag_220:\n        /* \"#utility.yul\":5764:5815   */\n      tag_222\n        /* \"#utility.yul\":5809:5814   */\n      dup2\n        /* \"#utility.yul\":5764:5815   */\n      tag_223\n      jump\t// in\n    tag_222:\n        /* \"#utility.yul\":5759:5762   */\n      dup3\n        /* \"#utility.yul\":5752:5816   */\n      mstore\n        /* \"#utility.yul\":5663:5822   */\n      pop\n      pop\n      jump\t// out\n        /* \"#utility.yul\":5828:6172   */\n    tag_224:\n        /* \"#utility.yul\":5906:5909   */\n      0x00\n        /* \"#utility.yul\":5934:5973   */\n      tag_226\n        /* \"#utility.yul\":5967:5972   */\n      dup3\n        /* \"#utility.yul\":5934:5973   */\n      tag_227\n      jump\t// in\n    tag_226:\n        /* \"#utility.yul\":5989:6050   */\n      tag_228\n        /* \"#utility.yul\":6043:6049   */\n      dup2\n        /* \"#utility.yul\":6038:6041   */\n      dup6\n        /* \"#utility.yul\":5989:6050   */\n      tag_229\n      jump\t// in\n    tag_228:\n        /* \"#utility.yul\":5982:6050   */\n      swap4\n      pop\n        /* \"#utility.yul\":6059:6111   */\n      tag_230\n        /* \"#utility.yul\":6104:6110   */\n      dup2\n        /* \"#utility.yul\":6099:6102   */\n      dup6\n        /* \"#utility.yul\":6092:6096   */\n      0x20\n        /* \"#utility.yul\":6085:6090   */\n      dup7\n        /* \"#utility.yul\":6081:6097   */\n      add\n        /* \"#utility.yul\":6059:6111   */\n      tag_231\n      jump\t// in\n    tag_230:\n        /* \"#utility.yul\":6136:6165   */\n      tag_232\n        /* \"#utility.yul\":6158:6164   */\n      dup2\n        /* \"#utility.yul\":6136:6165   */\n      tag_233\n      jump\t// in\n    tag_232:\n        /* \"#utility.yul\":6131:6134   */\n      dup5\n        /* \"#utility.yul\":6127:6166   */\n      add\n        /* \"#utility.yul\":6120:6166   */\n      swap2\n      pop\n        /* \"#utility.yul\":5910:6172   */\n      pop\n        /* \"#utility.yul\":5828:6172   */\n      swap3\n      swap2\n      pop\n      pop\n      jump\t// out\n        /* \"#utility.yul\":6178:6542   */\n    tag_234:\n        /* \"#utility.yul\":6266:6269   */\n      0x00\n        /* \"#utility.yul\":6294:6333   */\n      tag_236\n        /* \"#utility.yul\":6327:6332   */\n      dup3\n        /* \"#utility.yul\":6294:6333   */\n      tag_227\n      jump\t// in\n    tag_236:\n        /* \"#utility.yul\":6349:6420   */\n      tag_237\n        /* \"#utility.yul\":6413:6419   */\n      dup2\n        /* \"#utility.yul\":6408:6411   */\n      dup6\n        /* \"#utility.yul\":6349:6420   */\n      tag_238\n      jump\t// in\n    tag_237:\n        /* \"#utility.yul\":6342:6420   */\n      swap4\n      pop\n        /* \"#utility.yul\":6429:6481   */\n      tag_239\n        /* \"#utility.yul\":6474:6480   */\n      dup2\n        /* \"#utility.yul\":6469:6472   */\n      dup6\n        /* \"#utility.yul\":6462:6466   */\n      0x20\n        /* \"#utility.yul\":6455:6460   */\n      dup7\n        /* \"#utility.yul\":6451:6467   */\n      add\n        /* \"#utility.yul\":6429:6481   */\n      tag_231\n      jump\t// in\n    tag_239:\n        /* \"#utility.yul\":6506:6535   */\n      tag_240\n        /* \"#utility.yul\":6528:6534   */\n      dup2\n        /* \"#utility.yul\":6506:6535   */\n      tag_233\n      jump\t// in\n    tag_240:\n        /* \"#utility.yul\":6501:6504   */\n      dup5\n        /* \"#utility.yul\":6497:6536   */\n      add\n        /* \"#utility.yul\":6490:6536   */\n      swap2\n      pop\n        /* \"#utility.yul\":6270:6542   */\n      pop\n        /* \"#utility.yul\":6178:6542   */\n      swap3\n      swap2\n      pop\n      pop\n      jump\t// out\n        /* \"#utility.yul\":6572:7354   */\n    tag_241:\n        /* \"#utility.yul\":6647:6650   */\n      0x00\n        /* \"#utility.yul\":6684:6689   */\n      dup2\n        /* \"#utility.yul\":6678:6690   */\n      sload\n        /* \"#utility.yul\":6713:6749   */\n      tag_243\n        /* \"#utility.yul\":6739:6748   */\n      dup2\n        /* \"#utility.yul\":6713:6749   */\n      tag_52\n      jump\t// in\n    tag_243:\n        /* \"#utility.yul\":6765:6826   */\n      tag_244\n        /* \"#utility.yul\":6819:6825   */\n      dup2\n        /* \"#utility.yul\":6814:6817   */\n      dup7\n        /* \"#utility.yul\":6765:6826   */\n      tag_229\n      jump\t// in\n    tag_244:\n        /* \"#utility.yul\":6758:6826   */\n      swap5\n      pop\n        /* \"#utility.yul\":6857:6858   */\n      0x01\n        /* \"#utility.yul\":6846:6855   */\n      dup3\n        /* \"#utility.yul\":6842:6859   */\n      and\n        /* \"#utility.yul\":6873:6874   */\n      0x00\n        /* \"#utility.yul\":6868:7003   */\n      dup2\n      eq\n      tag_246\n      jumpi\n        /* \"#utility.yul\":7017:7018   */\n      0x01\n        /* \"#utility.yul\":7012:7348   */\n      dup2\n      eq\n      tag_247\n      jumpi\n        /* \"#utility.yul\":6835:7348   */\n      jump(tag_245)\n        /* \"#utility.yul\":6868:7003   */\n    tag_246:\n        /* \"#utility.yul\":6952:6956   */\n      0xff\n        /* \"#utility.yul\":6948:6957   */\n      not\n        /* \"#utility.yul\":6937:6946   */\n      dup4\n        /* \"#utility.yul\":6933:6958   */\n      and\n        /* \"#utility.yul\":6928:6931   */\n      dup7\n        /* \"#utility.yul\":6921:6959   */\n      mstore\n        /* \"#utility.yul\":6988:6992   */\n      0x20\n        /* \"#utility.yul\":6983:6986   */\n      dup7\n        /* \"#utility.yul\":6979:6993   */\n      add\n        /* \"#utility.yul\":6972:6993   */\n      swap4\n      pop\n        /* \"#utility.yul\":6868:7003   */\n      jump(tag_245)\n        /* \"#utility.yul\":7012:7348   */\n    tag_247:\n        /* \"#utility.yul\":7079:7117   */\n      tag_248\n        /* \"#utility.yul\":7111:7116   */\n      dup6\n        /* \"#utility.yul\":7079:7117   */\n      tag_249\n      jump\t// in\n    tag_248:\n        /* \"#utility.yul\":7139:7140   */\n      0x00\n        /* \"#utility.yul\":7153:7307   */\n    tag_250:\n        /* \"#utility.yul\":7167:7173   */\n      dup4\n        /* \"#utility.yul\":7164:7165   */\n      dup2\n        /* \"#utility.yul\":7161:7174   */\n      lt\n        /* \"#utility.yul\":7153:7307   */\n      iszero\n      tag_252\n      jumpi\n        /* \"#utility.yul\":7241:7248   */\n      dup2\n        /* \"#utility.yul\":7235:7249   */\n      sload\n        /* \"#utility.yul\":7231:7232   */\n      dup2\n        /* \"#utility.yul\":7226:7229   */\n      dup10\n        /* \"#utility.yul\":7222:7233   */\n      add\n        /* \"#utility.yul\":7215:7250   */\n      mstore\n        /* \"#utility.yul\":7291:7292   */\n      0x01\n        /* \"#utility.yul\":7282:7289   */\n      dup3\n        /* \"#utility.yul\":7278:7293   */\n      add\n        /* \"#utility.yul\":7267:7293   */\n      swap2\n      pop\n        /* \"#utility.yul\":7189:7193   */\n      0x20\n        /* \"#utility.yul\":7186:7187   */\n      dup2\n        /* \"#utility.yul\":7182:7194   */\n      add\n        /* \"#utility.yul\":7177:7194   */\n      swap1\n      pop\n        /* \"#utility.yul\":7153:7307   */\n      jump(tag_250)\n    tag_252:\n        /* \"#utility.yul\":7336:7337   */\n      dup1\n        /* \"#utility.yul\":7331:7334   */\n      dup9\n        /* \"#utility.yul\":7327:7338   */\n      add\n        /* \"#utility.yul\":7320:7338   */\n      swap6\n      pop\n        /* \"#utility.yul\":7019:7348   */\n      pop\n      pop\n        /* \"#utility.yul\":6835:7348   */\n    tag_245:\n      pop\n        /* \"#utility.yul\":6651:7354   */\n      pop\n      pop\n        /* \"#utility.yul\":6572:7354   */\n      swap3\n      swap2\n      pop\n      pop\n      jump\t// out\n        /* \"#utility.yul\":7360:7726   */\n    tag_253:\n        /* \"#utility.yul\":7502:7505   */\n      0x00\n        /* \"#utility.yul\":7523:7590   */\n      tag_255\n        /* \"#utility.yul\":7587:7589   */\n      0x22\n        /* \"#utility.yul\":7582:7585   */\n      dup4\n        /* \"#utility.yul\":7523:7590   */\n      tag_238\n      jump\t// in\n    tag_255:\n        /* \"#utility.yul\":7516:7590   */\n      swap2\n      pop\n        /* \"#utility.yul\":7599:7692   */\n      tag_256\n        /* \"#utility.yul\":7688:7691   */\n      dup3\n        /* \"#utility.yul\":7599:7692   */\n      tag_257\n      jump\t// in\n    tag_256:\n        /* \"#utility.yul\":7717:7719   */\n      0x40\n        /* \"#utility.yul\":7712:7715   */\n      dup3\n        /* \"#utility.yul\":7708:7720   */\n      add\n        /* \"#utility.yul\":7701:7720   */\n      swap1\n      pop\n        /* \"#utility.yul\":7360:7726   */\n      swap2\n      swap1\n      pop\n      jump\t// out\n        /* \"#utility.yul\":7784:9079   */\n    tag_181:\n        /* \"#utility.yul\":7885:7888   */\n      0x00\n        /* \"#utility.yul\":7921:7925   */\n      0xc0\n        /* \"#utility.yul\":7916:7919   */\n      dup4\n        /* \"#utility.yul\":7912:7926   */\n      add\n        /* \"#utility.yul\":8010:8014   */\n      0x00\n        /* \"#utility.yul\":8003:8008   */\n      dup4\n        /* \"#utility.yul\":7999:8015   */\n      add\n        /* \"#utility.yul\":7993:8016   */\n      mload\n        /* \"#utility.yul\":8029:8092   */\n      tag_259\n        /* \"#utility.yul\":8086:8090   */\n      0x00\n        /* \"#utility.yul\":8081:8084   */\n      dup7\n        /* \"#utility.yul\":8077:8091   */\n      add\n        /* \"#utility.yul\":8063:8075   */\n      dup3\n        /* \"#utility.yul\":8029:8092   */\n      tag_260\n      jump\t// in\n    tag_259:\n        /* \"#utility.yul\":7936:8102   */\n      pop\n        /* \"#utility.yul\":8189:8193   */\n      0x20\n        /* \"#utility.yul\":8182:8187   */\n      dup4\n        /* \"#utility.yul\":8178:8194   */\n      add\n        /* \"#utility.yul\":8172:8195   */\n      mload\n        /* \"#utility.yul\":8242:8245   */\n      dup5\n        /* \"#utility.yul\":8236:8240   */\n      dup3\n        /* \"#utility.yul\":8232:8246   */\n      sub\n        /* \"#utility.yul\":8225:8229   */\n      0x20\n        /* \"#utility.yul\":8220:8223   */\n      dup7\n        /* \"#utility.yul\":8216:8230   */\n      add\n        /* \"#utility.yul\":8209:8247   */\n      mstore\n        /* \"#utility.yul\":8268:8341   */\n      tag_261\n        /* \"#utility.yul\":8336:8340   */\n      dup3\n        /* \"#utility.yul\":8322:8334   */\n      dup3\n        /* \"#utility.yul\":8268:8341   */\n      tag_224\n      jump\t// in\n    tag_261:\n        /* \"#utility.yul\":8260:8341   */\n      swap2\n      pop\n        /* \"#utility.yul\":8112:8352   */\n      pop\n        /* \"#utility.yul\":8434:8438   */\n      0x40\n        /* \"#utility.yul\":8427:8432   */\n      dup4\n        /* \"#utility.yul\":8423:8439   */\n      add\n        /* \"#utility.yul\":8417:8440   */\n      mload\n        /* \"#utility.yul\":8453:8516   */\n      tag_262\n        /* \"#utility.yul\":8510:8514   */\n      0x40\n        /* \"#utility.yul\":8505:8508   */\n      dup7\n        /* \"#utility.yul\":8501:8515   */\n      add\n        /* \"#utility.yul\":8487:8499   */\n      dup3\n        /* \"#utility.yul\":8453:8516   */\n      tag_260\n      jump\t// in\n    tag_262:\n        /* \"#utility.yul\":8362:8526   */\n      pop\n        /* \"#utility.yul\":8610:8614   */\n      0x60\n        /* \"#utility.yul\":8603:8608   */\n      dup4\n        /* \"#utility.yul\":8599:8615   */\n      add\n        /* \"#utility.yul\":8593:8616   */\n      mload\n        /* \"#utility.yul\":8629:8692   */\n      tag_263\n        /* \"#utility.yul\":8686:8690   */\n      0x60\n        /* \"#utility.yul\":8681:8684   */\n      dup7\n        /* \"#utility.yul\":8677:8691   */\n      add\n        /* \"#utility.yul\":8663:8675   */\n      dup3\n        /* \"#utility.yul\":8629:8692   */\n      tag_186\n      jump\t// in\n    tag_263:\n        /* \"#utility.yul\":8536:8702   */\n      pop\n        /* \"#utility.yul\":8785:8789   */\n      0x80\n        /* \"#utility.yul\":8778:8783   */\n      dup4\n        /* \"#utility.yul\":8774:8790   */\n      add\n        /* \"#utility.yul\":8768:8791   */\n      mload\n        /* \"#utility.yul\":8804:8867   */\n      tag_264\n        /* \"#utility.yul\":8861:8865   */\n      0x80\n        /* \"#utility.yul\":8856:8859   */\n      dup7\n        /* \"#utility.yul\":8852:8866   */\n      add\n        /* \"#utility.yul\":8838:8850   */\n      dup3\n        /* \"#utility.yul\":8804:8867   */\n      tag_260\n      jump\t// in\n    tag_264:\n        /* \"#utility.yul\":8712:8877   */\n      pop\n        /* \"#utility.yul\":8962:8966   */\n      0xa0\n        /* \"#utility.yul\":8955:8960   */\n      dup4\n        /* \"#utility.yul\":8951:8967   */\n      add\n        /* \"#utility.yul\":8945:8968   */\n      mload\n        /* \"#utility.yul\":8981:9042   */\n      tag_265\n        /* \"#utility.yul\":9036:9040   */\n      0xa0\n        /* \"#utility.yul\":9031:9034   */\n      dup7\n        /* \"#utility.yul\":9027:9041   */\n      add\n        /* \"#utility.yul\":9013:9025   */\n      dup3\n        /* \"#utility.yul\":8981:9042   */\n      tag_266\n      jump\t// in\n    tag_265:\n        /* \"#utility.yul\":8887:9052   */\n      pop\n        /* \"#utility.yul\":9069:9073   */\n      dup1\n        /* \"#utility.yul\":9062:9073   */\n      swap2\n      pop\n        /* \"#utility.yul\":7890:9079   */\n      pop\n        /* \"#utility.yul\":7784:9079   */\n      swap3\n      swap2\n      pop\n      pop\n      jump\t// out\n        /* \"#utility.yul\":9137:10845   */\n    tag_185:\n        /* \"#utility.yul\":9235:9238   */\n      0x00\n        /* \"#utility.yul\":9271:9275   */\n      0xc0\n        /* \"#utility.yul\":9266:9269   */\n      dup4\n        /* \"#utility.yul\":9262:9276   */\n      add\n        /* \"#utility.yul\":9302:9303   */\n      0x00\n        /* \"#utility.yul\":9379:9383   */\n      dup1\n        /* \"#utility.yul\":9372:9377   */\n      dup5\n        /* \"#utility.yul\":9368:9384   */\n      add\n        /* \"#utility.yul\":9362:9385   */\n      sload\n        /* \"#utility.yul\":9349:9385   */\n      swap1\n      pop\n        /* \"#utility.yul\":9418:9473   */\n      tag_268\n        /* \"#utility.yul\":9463:9472   */\n      dup2\n        /* \"#utility.yul\":9418:9473   */\n      tag_269\n      jump\t// in\n    tag_268:\n        /* \"#utility.yul\":9486:9549   */\n      tag_270\n        /* \"#utility.yul\":9543:9547   */\n      0x00\n        /* \"#utility.yul\":9538:9541   */\n      dup8\n        /* \"#utility.yul\":9534:9548   */\n      add\n        /* \"#utility.yul\":9520:9532   */\n      dup3\n        /* \"#utility.yul\":9486:9549   */\n      tag_260\n      jump\t// in\n    tag_270:\n        /* \"#utility.yul\":9313:9559   */\n      pop\n        /* \"#utility.yul\":9640:9644   */\n      0x01\n        /* \"#utility.yul\":9633:9638   */\n      dup5\n        /* \"#utility.yul\":9629:9645   */\n      add\n        /* \"#utility.yul\":9692:9695   */\n      dup6\n        /* \"#utility.yul\":9686:9690   */\n      dup4\n        /* \"#utility.yul\":9682:9696   */\n      sub\n        /* \"#utility.yul\":9675:9679   */\n      0x20\n        /* \"#utility.yul\":9670:9673   */\n      dup8\n        /* \"#utility.yul\":9666:9680   */\n      add\n        /* \"#utility.yul\":9659:9697   */\n      mstore\n        /* \"#utility.yul\":9718:9788   */\n      tag_271\n        /* \"#utility.yul\":9783:9787   */\n      dup4\n        /* \"#utility.yul\":9769:9781   */\n      dup3\n        /* \"#utility.yul\":9718:9788   */\n      tag_241\n      jump\t// in\n    tag_271:\n        /* \"#utility.yul\":9710:9788   */\n      swap3\n      pop\n        /* \"#utility.yul\":9569:9799   */\n      pop\n        /* \"#utility.yul\":9873:9877   */\n      0x02\n        /* \"#utility.yul\":9866:9871   */\n      dup5\n        /* \"#utility.yul\":9862:9878   */\n      add\n        /* \"#utility.yul\":9856:9879   */\n      sload\n        /* \"#utility.yul\":9843:9879   */\n      swap1\n      pop\n        /* \"#utility.yul\":9912:9967   */\n      tag_272\n        /* \"#utility.yul\":9957:9966   */\n      dup2\n        /* \"#utility.yul\":9912:9967   */\n      tag_269\n      jump\t// in\n    tag_272:\n        /* \"#utility.yul\":9980:10043   */\n      tag_273\n        /* \"#utility.yul\":10037:10041   */\n      0x40\n        /* \"#utility.yul\":10032:10035   */\n      dup8\n        /* \"#utility.yul\":10028:10042   */\n      add\n        /* \"#utility.yul\":10014:10026   */\n      dup3\n        /* \"#utility.yul\":9980:10043   */\n      tag_260\n      jump\t// in\n    tag_273:\n        /* \"#utility.yul\":9809:10053   */\n      pop\n        /* \"#utility.yul\":10129:10133   */\n      0x03\n        /* \"#utility.yul\":10122:10127   */\n      dup5\n        /* \"#utility.yul\":10118:10134   */\n      add\n        /* \"#utility.yul\":10112:10135   */\n      sload\n        /* \"#utility.yul\":10099:10135   */\n      swap1\n      pop\n        /* \"#utility.yul\":10168:10223   */\n      tag_274\n        /* \"#utility.yul\":10213:10222   */\n      dup2\n        /* \"#utility.yul\":10168:10223   */\n      tag_275\n      jump\t// in\n    tag_274:\n        /* \"#utility.yul\":10236:10299   */\n      tag_276\n        /* \"#utility.yul\":10293:10297   */\n      0x60\n        /* \"#utility.yul\":10288:10291   */\n      dup8\n        /* \"#utility.yul\":10284:10298   */\n      add\n        /* \"#utility.yul\":10270:10282   */\n      dup3\n        /* \"#utility.yul\":10236:10299   */\n      tag_186\n      jump\t// in\n    tag_276:\n        /* \"#utility.yul\":10063:10309   */\n      pop\n        /* \"#utility.yul\":10384:10388   */\n      0x04\n        /* \"#utility.yul\":10377:10382   */\n      dup5\n        /* \"#utility.yul\":10373:10389   */\n      add\n        /* \"#utility.yul\":10367:10390   */\n      sload\n        /* \"#utility.yul\":10354:10390   */\n      swap1\n      pop\n        /* \"#utility.yul\":10423:10478   */\n      tag_277\n        /* \"#utility.yul\":10468:10477   */\n      dup2\n        /* \"#utility.yul\":10423:10478   */\n      tag_269\n      jump\t// in\n    tag_277:\n        /* \"#utility.yul\":10491:10554   */\n      tag_278\n        /* \"#utility.yul\":10548:10552   */\n      0x80\n        /* \"#utility.yul\":10543:10546   */\n      dup8\n        /* \"#utility.yul\":10539:10553   */\n      add\n        /* \"#utility.yul\":10525:10537   */\n      dup3\n        /* \"#utility.yul\":10491:10554   */\n      tag_260\n      jump\t// in\n    tag_278:\n        /* \"#utility.yul\":10319:10564   */\n      pop\n        /* \"#utility.yul\":10641:10645   */\n      0x05\n        /* \"#utility.yul\":10634:10639   */\n      dup5\n        /* \"#utility.yul\":10630:10646   */\n      add\n        /* \"#utility.yul\":10624:10647   */\n      sload\n        /* \"#utility.yul\":10611:10647   */\n      swap1\n      pop\n        /* \"#utility.yul\":10680:10734   */\n      tag_279\n        /* \"#utility.yul\":10724:10733   */\n      dup2\n        /* \"#utility.yul\":10680:10734   */\n      tag_280\n      jump\t// in\n    tag_279:\n        /* \"#utility.yul\":10747:10808   */\n      tag_281\n        /* \"#utility.yul\":10802:10806   */\n      0xa0\n        /* \"#utility.yul\":10797:10800   */\n      dup8\n        /* \"#utility.yul\":10793:10807   */\n      add\n        /* \"#utility.yul\":10779:10791   */\n      dup3\n        /* \"#utility.yul\":10747:10808   */\n      tag_266\n      jump\t// in\n    tag_281:\n        /* \"#utility.yul\":10574:10818   */\n      pop\n        /* \"#utility.yul\":10835:10839   */\n      dup2\n        /* \"#utility.yul\":10828:10839   */\n      swap3\n      pop\n        /* \"#utility.yul\":9240:10845   */\n      pop\n      pop\n        /* \"#utility.yul\":9137:10845   */\n      swap3\n      swap2\n      pop\n      pop\n      jump\t// out\n        /* \"#utility.yul\":10851:10959   */\n    tag_260:\n        /* \"#utility.yul\":10928:10952   */\n      tag_283\n        /* \"#utility.yul\":10946:10951   */\n      dup2\n        /* \"#utility.yul\":10928:10952   */\n      tag_284\n      jump\t// in\n    tag_283:\n        /* \"#utility.yul\":10923:10926   */\n      dup3\n        /* \"#utility.yul\":10916:10953   */\n      mstore\n        /* \"#utility.yul\":10851:10959   */\n      pop\n      pop\n      jump\t// out\n        /* \"#utility.yul\":10965:11083   */\n    tag_285:\n        /* \"#utility.yul\":11052:11076   */\n      tag_287\n        /* \"#utility.yul\":11070:11075   */\n      dup2\n        /* \"#utility.yul\":11052:11076   */\n      tag_284\n      jump\t// in\n    tag_287:\n        /* \"#utility.yul\":11047:11050   */\n      dup3\n        /* \"#utility.yul\":11040:11077   */\n      mstore\n        /* \"#utility.yul\":10965:11083   */\n      pop\n      pop\n      jump\t// out\n        /* \"#utility.yul\":11089:11194   */\n    tag_266:\n        /* \"#utility.yul\":11164:11187   */\n      tag_289\n        /* \"#utility.yul\":11181:11186   */\n      dup2\n        /* \"#utility.yul\":11164:11187   */\n      tag_290\n      jump\t// in\n    tag_289:\n        /* \"#utility.yul\":11159:11162   */\n      dup3\n        /* \"#utility.yul\":11152:11188   */\n      mstore\n        /* \"#utility.yul\":11089:11194   */\n      pop\n      pop\n      jump\t// out\n        /* \"#utility.yul\":11200:11315   */\n    tag_291:\n        /* \"#utility.yul\":11285:11308   */\n      tag_293\n        /* \"#utility.yul\":11302:11307   */\n      dup2\n        /* \"#utility.yul\":11285:11308   */\n      tag_290\n      jump\t// in\n    tag_293:\n        /* \"#utility.yul\":11280:11283   */\n      dup3\n        /* \"#utility.yul\":11273:11309   */\n      mstore\n        /* \"#utility.yul\":11200:11315   */\n      pop\n      pop\n      jump\t// out\n        /* \"#utility.yul\":11321:11778   */\n    tag_27:\n        /* \"#utility.yul\":11506:11510   */\n      0x00\n        /* \"#utility.yul\":11544:11546   */\n      0x20\n        /* \"#utility.yul\":11533:11542   */\n      dup3\n        /* \"#utility.yul\":11529:11547   */\n      add\n        /* \"#utility.yul\":11521:11547   */\n      swap1\n      pop\n        /* \"#utility.yul\":11593:11602   */\n      dup2\n        /* \"#utility.yul\":11587:11591   */\n      dup2\n        /* \"#utility.yul\":11583:11603   */\n      sub\n        /* \"#utility.yul\":11579:11580   */\n      0x00\n        /* \"#utility.yul\":11568:11577   */\n      dup4\n        /* \"#utility.yul\":11564:11581   */\n      add\n        /* \"#utility.yul\":11557:11604   */\n      mstore\n        /* \"#utility.yul\":11621:11771   */\n      tag_295\n        /* \"#utility.yul\":11766:11770   */\n      dup2\n        /* \"#utility.yul\":11757:11763   */\n      dup5\n        /* \"#utility.yul\":11621:11771   */\n      tag_193\n      jump\t// in\n    tag_295:\n        /* \"#utility.yul\":11613:11771   */\n      swap1\n      pop\n        /* \"#utility.yul\":11321:11778   */\n      swap3\n      swap2\n      pop\n      pop\n      jump\t// out\n        /* \"#utility.yul\":11784:12229   */\n    tag_87:\n        /* \"#utility.yul\":11963:11967   */\n      0x00\n        /* \"#utility.yul\":12001:12003   */\n      0x20\n        /* \"#utility.yul\":11990:11999   */\n      dup3\n        /* \"#utility.yul\":11986:12004   */\n      add\n        /* \"#utility.yul\":11978:12004   */\n      swap1\n      pop\n        /* \"#utility.yul\":12050:12059   */\n      dup2\n        /* \"#utility.yul\":12044:12048   */\n      dup2\n        /* \"#utility.yul\":12040:12060   */\n      sub\n        /* \"#utility.yul\":12036:12037   */\n      0x00\n        /* \"#utility.yul\":12025:12034   */\n      dup4\n        /* \"#utility.yul\":12021:12038   */\n      add\n        /* \"#utility.yul\":12014:12061   */\n      mstore\n        /* \"#utility.yul\":12078:12222   */\n      tag_297\n        /* \"#utility.yul\":12217:12221   */\n      dup2\n        /* \"#utility.yul\":12208:12214   */\n      dup5\n        /* \"#utility.yul\":12078:12222   */\n      tag_207\n      jump\t// in\n    tag_297:\n        /* \"#utility.yul\":12070:12222   */\n      swap1\n      pop\n        /* \"#utility.yul\":11784:12229   */\n      swap3\n      swap2\n      pop\n      pop\n      jump\t// out\n        /* \"#utility.yul\":12235:12485   */\n    tag_41:\n        /* \"#utility.yul\":12342:12346   */\n      0x00\n        /* \"#utility.yul\":12380:12382   */\n      0x20\n        /* \"#utility.yul\":12369:12378   */\n      dup3\n        /* \"#utility.yul\":12365:12383   */\n      add\n        /* \"#utility.yul\":12357:12383   */\n      swap1\n      pop\n        /* \"#utility.yul\":12393:12478   */\n      tag_299\n        /* \"#utility.yul\":12475:12476   */\n      0x00\n        /* \"#utility.yul\":12464:12473   */\n      dup4\n        /* \"#utility.yul\":12460:12477   */\n      add\n        /* \"#utility.yul\":12451:12457   */\n      dup5\n        /* \"#utility.yul\":12393:12478   */\n      tag_220\n      jump\t// in\n    tag_299:\n        /* \"#utility.yul\":12235:12485   */\n      swap3\n      swap2\n      pop\n      pop\n      jump\t// out\n        /* \"#utility.yul\":12491:12910   */\n    tag_84:\n        /* \"#utility.yul\":12657:12661   */\n      0x00\n        /* \"#utility.yul\":12695:12697   */\n      0x20\n        /* \"#utility.yul\":12684:12693   */\n      dup3\n        /* \"#utility.yul\":12680:12698   */\n      add\n        /* \"#utility.yul\":12672:12698   */\n      swap1\n      pop\n        /* \"#utility.yul\":12744:12753   */\n      dup2\n        /* \"#utility.yul\":12738:12742   */\n      dup2\n        /* \"#utility.yul\":12734:12754   */\n      sub\n        /* \"#utility.yul\":12730:12731   */\n      0x00\n        /* \"#utility.yul\":12719:12728   */\n      dup4\n        /* \"#utility.yul\":12715:12732   */\n      add\n        /* \"#utility.yul\":12708:12755   */\n      mstore\n        /* \"#utility.yul\":12772:12903   */\n      tag_301\n        /* \"#utility.yul\":12898:12902   */\n      dup2\n        /* \"#utility.yul\":12772:12903   */\n      tag_253\n      jump\t// in\n    tag_301:\n        /* \"#utility.yul\":12764:12903   */\n      swap1\n      pop\n        /* \"#utility.yul\":12491:12910   */\n      swap2\n      swap1\n      pop\n      jump\t// out\n        /* \"#utility.yul\":12916:13651   */\n    tag_33:\n        /* \"#utility.yul\":13133:13137   */\n      0x00\n        /* \"#utility.yul\":13171:13174   */\n      0x80\n        /* \"#utility.yul\":13160:13169   */\n      dup3\n        /* \"#utility.yul\":13156:13175   */\n      add\n        /* \"#utility.yul\":13148:13175   */\n      swap1\n      pop\n        /* \"#utility.yul\":13185:13256   */\n      tag_303\n        /* \"#utility.yul\":13253:13254   */\n      0x00\n        /* \"#utility.yul\":13242:13251   */\n      dup4\n        /* \"#utility.yul\":13238:13255   */\n      add\n        /* \"#utility.yul\":13229:13235   */\n      dup8\n        /* \"#utility.yul\":13185:13256   */\n      tag_285\n      jump\t// in\n    tag_303:\n        /* \"#utility.yul\":13303:13312   */\n      dup2\n        /* \"#utility.yul\":13297:13301   */\n      dup2\n        /* \"#utility.yul\":13293:13313   */\n      sub\n        /* \"#utility.yul\":13288:13290   */\n      0x20\n        /* \"#utility.yul\":13277:13286   */\n      dup4\n        /* \"#utility.yul\":13273:13291   */\n      add\n        /* \"#utility.yul\":13266:13314   */\n      mstore\n        /* \"#utility.yul\":13331:13409   */\n      tag_304\n        /* \"#utility.yul\":13404:13408   */\n      dup2\n        /* \"#utility.yul\":13395:13401   */\n      dup7\n        /* \"#utility.yul\":13331:13409   */\n      tag_234\n      jump\t// in\n    tag_304:\n        /* \"#utility.yul\":13323:13409   */\n      swap1\n      pop\n        /* \"#utility.yul\":13456:13465   */\n      dup2\n        /* \"#utility.yul\":13450:13454   */\n      dup2\n        /* \"#utility.yul\":13446:13466   */\n      sub\n        /* \"#utility.yul\":13441:13443   */\n      0x40\n        /* \"#utility.yul\":13430:13439   */\n      dup4\n        /* \"#utility.yul\":13426:13444   */\n      add\n        /* \"#utility.yul\":13419:13467   */\n      mstore\n        /* \"#utility.yul\":13484:13562   */\n      tag_305\n        /* \"#utility.yul\":13557:13561   */\n      dup2\n        /* \"#utility.yul\":13548:13554   */\n      dup6\n        /* \"#utility.yul\":13484:13562   */\n      tag_234\n      jump\t// in\n    tag_305:\n        /* \"#utility.yul\":13476:13562   */\n      swap1\n      pop\n        /* \"#utility.yul\":13572:13644   */\n      tag_306\n        /* \"#utility.yul\":13640:13642   */\n      0x60\n        /* \"#utility.yul\":13629:13638   */\n      dup4\n        /* \"#utility.yul\":13625:13643   */\n      add\n        /* \"#utility.yul\":13616:13622   */\n      dup5\n        /* \"#utility.yul\":13572:13644   */\n      tag_285\n      jump\t// in\n    tag_306:\n        /* \"#utility.yul\":12916:13651   */\n      swap6\n      swap5\n      pop\n      pop\n      pop\n      pop\n      pop\n      jump\t// out\n        /* \"#utility.yul\":13657:14519   */\n    tag_19:\n        /* \"#utility.yul\":13908:13912   */\n      0x00\n        /* \"#utility.yul\":13946:13949   */\n      0xc0\n        /* \"#utility.yul\":13935:13944   */\n      dup3\n        /* \"#utility.yul\":13931:13950   */\n      add\n        /* \"#utility.yul\":13923:13950   */\n      swap1\n      pop\n        /* \"#utility.yul\":13960:14031   */\n      tag_308\n        /* \"#utility.yul\":14028:14029   */\n      0x00\n        /* \"#utility.yul\":14017:14026   */\n      dup4\n        /* \"#utility.yul\":14013:14030   */\n      add\n        /* \"#utility.yul\":14004:14010   */\n      dup10\n        /* \"#utility.yul\":13960:14031   */\n      tag_285\n      jump\t// in\n    tag_308:\n        /* \"#utility.yul\":14078:14087   */\n      dup2\n        /* \"#utility.yul\":14072:14076   */\n      dup2\n        /* \"#utility.yul\":14068:14088   */\n      sub\n        /* \"#utility.yul\":14063:14065   */\n      0x20\n        /* \"#utility.yul\":14052:14061   */\n      dup4\n        /* \"#utility.yul\":14048:14066   */\n      add\n        /* \"#utility.yul\":14041:14089   */\n      mstore\n        /* \"#utility.yul\":14106:14184   */\n      tag_309\n        /* \"#utility.yul\":14179:14183   */\n      dup2\n        /* \"#utility.yul\":14170:14176   */\n      dup9\n        /* \"#utility.yul\":14106:14184   */\n      tag_234\n      jump\t// in\n    tag_309:\n        /* \"#utility.yul\":14098:14184   */\n      swap1\n      pop\n        /* \"#utility.yul\":14194:14266   */\n      tag_310\n        /* \"#utility.yul\":14262:14264   */\n      0x40\n        /* \"#utility.yul\":14251:14260   */\n      dup4\n        /* \"#utility.yul\":14247:14265   */\n      add\n        /* \"#utility.yul\":14238:14244   */\n      dup8\n        /* \"#utility.yul\":14194:14266   */\n      tag_285\n      jump\t// in\n    tag_310:\n        /* \"#utility.yul\":14276:14348   */\n      tag_311\n        /* \"#utility.yul\":14344:14346   */\n      0x60\n        /* \"#utility.yul\":14333:14342   */\n      dup4\n        /* \"#utility.yul\":14329:14347   */\n      add\n        /* \"#utility.yul\":14320:14326   */\n      dup7\n        /* \"#utility.yul\":14276:14348   */\n      tag_190\n      jump\t// in\n    tag_311:\n        /* \"#utility.yul\":14358:14431   */\n      tag_312\n        /* \"#utility.yul\":14426:14429   */\n      0x80\n        /* \"#utility.yul\":14415:14424   */\n      dup4\n        /* \"#utility.yul\":14411:14430   */\n      add\n        /* \"#utility.yul\":14402:14408   */\n      dup6\n        /* \"#utility.yul\":14358:14431   */\n      tag_285\n      jump\t// in\n    tag_312:\n        /* \"#utility.yul\":14441:14512   */\n      tag_313\n        /* \"#utility.yul\":14507:14510   */\n      0xa0\n        /* \"#utility.yul\":14496:14505   */\n      dup4\n        /* \"#utility.yul\":14492:14511   */\n      add\n        /* \"#utility.yul\":14483:14489   */\n      dup5\n        /* \"#utility.yul\":14441:14512   */\n      tag_291\n      jump\t// in\n    tag_313:\n        /* \"#utility.yul\":13657:14519   */\n      swap8\n      swap7\n      pop\n      pop\n      pop\n      pop\n      pop\n      pop\n      pop\n      jump\t// out\n        /* \"#utility.yul\":14525:14857   */\n    tag_48:\n        /* \"#utility.yul\":14646:14650   */\n      0x00\n        /* \"#utility.yul\":14684:14686   */\n      0x40\n        /* \"#utility.yul\":14673:14682   */\n      dup3\n        /* \"#utility.yul\":14669:14687   */\n      add\n        /* \"#utility.yul\":14661:14687   */\n      swap1\n      pop\n        /* \"#utility.yul\":14697:14768   */\n      tag_315\n        /* \"#utility.yul\":14765:14766   */\n      0x00\n        /* \"#utility.yul\":14754:14763   */\n      dup4\n        /* \"#utility.yul\":14750:14767   */\n      add\n        /* \"#utility.yul\":14741:14747   */\n      dup6\n        /* \"#utility.yul\":14697:14768   */\n      tag_285\n      jump\t// in\n    tag_315:\n        /* \"#utility.yul\":14778:14850   */\n      tag_316\n        /* \"#utility.yul\":14846:14848   */\n      0x20\n        /* \"#utility.yul\":14835:14844   */\n      dup4\n        /* \"#utility.yul\":14831:14849   */\n      add\n        /* \"#utility.yul\":14822:14828   */\n      dup5\n        /* \"#utility.yul\":14778:14850   */\n      tag_285\n      jump\t// in\n    tag_316:\n        /* \"#utility.yul\":14525:14857   */\n      swap4\n      swap3\n      pop\n      pop\n      pop\n      jump\t// out\n        /* \"#utility.yul\":14863:15614   */\n    tag_79:\n        /* \"#utility.yul\":15086:15090   */\n      0x00\n        /* \"#utility.yul\":15124:15127   */\n      0xa0\n        /* \"#utility.yul\":15113:15122   */\n      dup3\n        /* \"#utility.yul\":15109:15128   */\n      add\n        /* \"#utility.yul\":15101:15128   */\n      swap1\n      pop\n        /* \"#utility.yul\":15138:15209   */\n      tag_318\n        /* \"#utility.yul\":15206:15207   */\n      0x00\n        /* \"#utility.yul\":15195:15204   */\n      dup4\n        /* \"#utility.yul\":15191:15208   */\n      add\n        /* \"#utility.yul\":15182:15188   */\n      dup9\n        /* \"#utility.yul\":15138:15209   */\n      tag_285\n      jump\t// in\n    tag_318:\n        /* \"#utility.yul\":15219:15291   */\n      tag_319\n        /* \"#utility.yul\":15287:15289   */\n      0x20\n        /* \"#utility.yul\":15276:15285   */\n      dup4\n        /* \"#utility.yul\":15272:15290   */\n      add\n        /* \"#utility.yul\":15263:15269   */\n      dup8\n        /* \"#utility.yul\":15219:15291   */\n      tag_285\n      jump\t// in\n    tag_319:\n        /* \"#utility.yul\":15338:15347   */\n      dup2\n        /* \"#utility.yul\":15332:15336   */\n      dup2\n        /* \"#utility.yul\":15328:15348   */\n      sub\n        /* \"#utility.yul\":15323:15325   */\n      0x40\n        /* \"#utility.yul\":15312:15321   */\n      dup4\n        /* \"#utility.yul\":15308:15326   */\n      add\n        /* \"#utility.yul\":15301:15349   */\n      mstore\n        /* \"#utility.yul\":15366:15444   */\n      tag_320\n        /* \"#utility.yul\":15439:15443   */\n      dup2\n        /* \"#utility.yul\":15430:15436   */\n      dup7\n        /* \"#utility.yul\":15366:15444   */\n      tag_234\n      jump\t// in\n    tag_320:\n        /* \"#utility.yul\":15358:15444   */\n      swap1\n      pop\n        /* \"#utility.yul\":15454:15524   */\n      tag_321\n        /* \"#utility.yul\":15520:15522   */\n      0x60\n        /* \"#utility.yul\":15509:15518   */\n      dup4\n        /* \"#utility.yul\":15505:15523   */\n      add\n        /* \"#utility.yul\":15496:15502   */\n      dup6\n        /* \"#utility.yul\":15454:15524   */\n      tag_291\n      jump\t// in\n    tag_321:\n        /* \"#utility.yul\":15534:15607   */\n      tag_322\n        /* \"#utility.yul\":15602:15605   */\n      0x80\n        /* \"#utility.yul\":15591:15600   */\n      dup4\n        /* \"#utility.yul\":15587:15606   */\n      add\n        /* \"#utility.yul\":15578:15584   */\n      dup5\n        /* \"#utility.yul\":15534:15607   */\n      tag_285\n      jump\t// in\n    tag_322:\n        /* \"#utility.yul\":14863:15614   */\n      swap7\n      swap6\n      pop\n      pop\n      pop\n      pop\n      pop\n      pop\n      jump\t// out\n        /* \"#utility.yul\":15620:15749   */\n    tag_136:\n        /* \"#utility.yul\":15654:15660   */\n      0x00\n        /* \"#utility.yul\":15681:15701   */\n      tag_324\n      tag_325\n      jump\t// in\n    tag_324:\n        /* \"#utility.yul\":15671:15701   */\n      swap1\n      pop\n        /* \"#utility.yul\":15710:15743   */\n      tag_326\n        /* \"#utility.yul\":15738:15742   */\n      dup3\n        /* \"#utility.yul\":15730:15736   */\n      dup3\n        /* \"#utility.yul\":15710:15743   */\n      tag_327\n      jump\t// in\n    tag_326:\n        /* \"#utility.yul\":15620:15749   */\n      swap2\n      swap1\n      pop\n      jump\t// out\n        /* \"#utility.yul\":15755:15830   */\n    tag_325:\n        /* \"#utility.yul\":15788:15794   */\n      0x00\n        /* \"#utility.yul\":15821:15823   */\n      0x40\n        /* \"#utility.yul\":15815:15824   */\n      mload\n        /* \"#utility.yul\":15805:15824   */\n      swap1\n      pop\n        /* \"#utility.yul\":15755:15830   */\n      swap1\n      jump\t// out\n        /* \"#utility.yul\":15836:16144   */\n    tag_135:\n        /* \"#utility.yul\":15898:15902   */\n      0x00\n        /* \"#utility.yul\":15988:16006   */\n      0xffffffffffffffff\n        /* \"#utility.yul\":15980:15986   */\n      dup3\n        /* \"#utility.yul\":15977:16007   */\n      gt\n        /* \"#utility.yul\":15974:16030   */\n      iszero\n      tag_330\n      jumpi\n        /* \"#utility.yul\":16010:16028   */\n      tag_331\n      tag_332\n      jump\t// in\n    tag_331:\n        /* \"#utility.yul\":15974:16030   */\n    tag_330:\n        /* \"#utility.yul\":16048:16077   */\n      tag_333\n        /* \"#utility.yul\":16070:16076   */\n      dup3\n        /* \"#utility.yul\":16048:16077   */\n      tag_233\n      jump\t// in\n    tag_333:\n        /* \"#utility.yul\":16040:16077   */\n      swap1\n      pop\n        /* \"#utility.yul\":16132:16136   */\n      0x20\n        /* \"#utility.yul\":16126:16130   */\n      dup2\n        /* \"#utility.yul\":16122:16137   */\n      add\n        /* \"#utility.yul\":16114:16137   */\n      swap1\n      pop\n        /* \"#utility.yul\":15836:16144   */\n      swap2\n      swap1\n      pop\n      jump\t// out\n        /* \"#utility.yul\":16150:16303   */\n    tag_200:\n        /* \"#utility.yul\":16238:16242   */\n      0x00\n        /* \"#utility.yul\":16261:16264   */\n      dup2\n        /* \"#utility.yul\":16253:16264   */\n      swap1\n      pop\n        /* \"#utility.yul\":16291:16295   */\n      0x20\n        /* \"#utility.yul\":16286:16289   */\n      dup3\n        /* \"#utility.yul\":16282:16296   */\n      add\n        /* \"#utility.yul\":16274:16296   */\n      swap1\n      pop\n        /* \"#utility.yul\":16150:16303   */\n      swap2\n      swap1\n      pop\n      jump\t// out\n        /* \"#utility.yul\":16309:16483   */\n    tag_213:\n        /* \"#utility.yul\":16391:16395   */\n      0x00\n        /* \"#utility.yul\":16414:16417   */\n      dup2\n        /* \"#utility.yul\":16406:16417   */\n      swap1\n      pop\n        /* \"#utility.yul\":16437:16440   */\n      dup2\n        /* \"#utility.yul\":16434:16435   */\n      0x00\n        /* \"#utility.yul\":16427:16441   */\n      mstore\n        /* \"#utility.yul\":16471:16475   */\n      0x20\n        /* \"#utility.yul\":16468:16469   */\n      0x00\n        /* \"#utility.yul\":16458:16476   */\n      keccak256\n        /* \"#utility.yul\":16450:16476   */\n      swap1\n      pop\n        /* \"#utility.yul\":16309:16483   */\n      swap2\n      swap1\n      pop\n      jump\t// out\n        /* \"#utility.yul\":16489:16630   */\n    tag_249:\n        /* \"#utility.yul\":16538:16542   */\n      0x00\n        /* \"#utility.yul\":16561:16564   */\n      dup2\n        /* \"#utility.yul\":16553:16564   */\n      swap1\n      pop\n        /* \"#utility.yul\":16584:16587   */\n      dup2\n        /* \"#utility.yul\":16581:16582   */\n      0x00\n        /* \"#utility.yul\":16574:16588   */\n      mstore\n        /* \"#utility.yul\":16618:16622   */\n      0x20\n        /* \"#utility.yul\":16615:16616   */\n      0x00\n        /* \"#utility.yul\":16605:16623   */\n      keccak256\n        /* \"#utility.yul\":16597:16623   */\n      swap1\n      pop\n        /* \"#utility.yul\":16489:16630   */\n      swap2\n      swap1\n      pop\n      jump\t// out\n        /* \"#utility.yul\":16636:16771   */\n    tag_196:\n        /* \"#utility.yul\":16724:16730   */\n      0x00\n        /* \"#utility.yul\":16758:16763   */\n      dup2\n        /* \"#utility.yul\":16752:16764   */\n      mload\n        /* \"#utility.yul\":16742:16764   */\n      swap1\n      pop\n        /* \"#utility.yul\":16636:16771   */\n      swap2\n      swap1\n      pop\n      jump\t// out\n        /* \"#utility.yul\":16777:16906   */\n    tag_210:\n        /* \"#utility.yul\":16859:16865   */\n      0x00\n        /* \"#utility.yul\":16893:16898   */\n      dup2\n        /* \"#utility.yul\":16887:16899   */\n      sload\n        /* \"#utility.yul\":16877:16899   */\n      swap1\n      pop\n        /* \"#utility.yul\":16777:16906   */\n      swap2\n      swap1\n      pop\n      jump\t// out\n        /* \"#utility.yul\":16912:17011   */\n    tag_227:\n        /* \"#utility.yul\":16964:16970   */\n      0x00\n        /* \"#utility.yul\":16998:17003   */\n      dup2\n        /* \"#utility.yul\":16992:17004   */\n      mload\n        /* \"#utility.yul\":16982:17004   */\n      swap1\n      pop\n        /* \"#utility.yul\":16912:17011   */\n      swap2\n      swap1\n      pop\n      jump\t// out\n        /* \"#utility.yul\":17017:17151   */\n    tag_206:\n        /* \"#utility.yul\":17108:17112   */\n      0x00\n        /* \"#utility.yul\":17140:17144   */\n      0x20\n        /* \"#utility.yul\":17135:17138   */\n      dup3\n        /* \"#utility.yul\":17131:17145   */\n      add\n        /* \"#utility.yul\":17123:17145   */\n      swap1\n      pop\n        /* \"#utility.yul\":17017:17151   */\n      swap2\n      swap1\n      pop\n      jump\t// out\n        /* \"#utility.yul\":17157:17285   */\n    tag_219:\n        /* \"#utility.yul\":17242:17246   */\n      0x00\n        /* \"#utility.yul\":17274:17278   */\n      0x06\n        /* \"#utility.yul\":17269:17272   */\n      dup3\n        /* \"#utility.yul\":17265:17279   */\n      add\n        /* \"#utility.yul\":17257:17279   */\n      swap1\n      pop\n        /* \"#utility.yul\":17157:17285   */\n      swap2\n      swap1\n      pop\n      jump\t// out\n        /* \"#utility.yul\":17291:17496   */\n    tag_198:\n        /* \"#utility.yul\":17411:17422   */\n      0x00\n        /* \"#utility.yul\":17445:17451   */\n      dup3\n        /* \"#utility.yul\":17440:17443   */\n      dup3\n        /* \"#utility.yul\":17433:17452   */\n      mstore\n        /* \"#utility.yul\":17485:17489   */\n      0x20\n        /* \"#utility.yul\":17480:17483   */\n      dup3\n        /* \"#utility.yul\":17476:17490   */\n      add\n        /* \"#utility.yul\":17461:17490   */\n      swap1\n      pop\n        /* \"#utility.yul\":17291:17496   */\n      swap3\n      swap2\n      pop\n      pop\n      jump\t// out\n        /* \"#utility.yul\":17502:17661   */\n    tag_229:\n        /* \"#utility.yul\":17576:17587   */\n      0x00\n        /* \"#utility.yul\":17610:17616   */\n      dup3\n        /* \"#utility.yul\":17605:17608   */\n      dup3\n        /* \"#utility.yul\":17598:17617   */\n      mstore\n        /* \"#utility.yul\":17650:17654   */\n      0x20\n        /* \"#utility.yul\":17645:17648   */\n      dup3\n        /* \"#utility.yul\":17641:17655   */\n      add\n        /* \"#utility.yul\":17626:17655   */\n      swap1\n      pop\n        /* \"#utility.yul\":17502:17661   */\n      swap3\n      swap2\n      pop\n      pop\n      jump\t// out\n        /* \"#utility.yul\":17667:17836   */\n    tag_238:\n        /* \"#utility.yul\":17751:17762   */\n      0x00\n        /* \"#utility.yul\":17785:17791   */\n      dup3\n        /* \"#utility.yul\":17780:17783   */\n      dup3\n        /* \"#utility.yul\":17773:17792   */\n      mstore\n        /* \"#utility.yul\":17825:17829   */\n      0x20\n        /* \"#utility.yul\":17820:17823   */\n      dup3\n        /* \"#utility.yul\":17816:17830   */\n      add\n        /* \"#utility.yul\":17801:17830   */\n      swap1\n      pop\n        /* \"#utility.yul\":17667:17836   */\n      swap3\n      swap2\n      pop\n      pop\n      jump\t// out\n        /* \"#utility.yul\":17842:17981   */\n    tag_345:\n        /* \"#utility.yul\":17892:17899   */\n      0x00\n        /* \"#utility.yul\":17932:17974   */\n      0xffffffffffffffffffffffffffffffffffffffff\n        /* \"#utility.yul\":17925:17930   */\n      dup3\n        /* \"#utility.yul\":17921:17975   */\n      and\n        /* \"#utility.yul\":17910:17975   */\n      swap1\n      pop\n        /* \"#utility.yul\":17842:17981   */\n      swap2\n      swap1\n      pop\n      jump\t// out\n        /* \"#utility.yul\":17987:18077   */\n    tag_347:\n        /* \"#utility.yul\":18037:18044   */\n      0x00\n        /* \"#utility.yul\":18066:18071   */\n      dup2\n        /* \"#utility.yul\":18055:18071   */\n      swap1\n      pop\n        /* \"#utility.yul\":17987:18077   */\n      swap2\n      swap1\n      pop\n      jump\t// out\n        /* \"#utility.yul\":18083:18189   */\n    tag_349:\n        /* \"#utility.yul\":18132:18139   */\n      0x00\n        /* \"#utility.yul\":18172:18182   */\n      0xffffffff\n        /* \"#utility.yul\":18165:18170   */\n      dup3\n        /* \"#utility.yul\":18161:18183   */\n      and\n        /* \"#utility.yul\":18150:18183   */\n      swap1\n      pop\n        /* \"#utility.yul\":18083:18189   */\n      swap2\n      swap1\n      pop\n      jump\t// out\n        /* \"#utility.yul\":18195:18291   */\n    tag_189:\n        /* \"#utility.yul\":18232:18239   */\n      0x00\n        /* \"#utility.yul\":18261:18285   */\n      tag_352\n        /* \"#utility.yul\":18279:18284   */\n      dup3\n        /* \"#utility.yul\":18261:18285   */\n      tag_353\n      jump\t// in\n    tag_352:\n        /* \"#utility.yul\":18250:18285   */\n      swap1\n      pop\n        /* \"#utility.yul\":18195:18291   */\n      swap2\n      swap1\n      pop\n      jump\t// out\n        /* \"#utility.yul\":18297:18423   */\n    tag_353:\n        /* \"#utility.yul\":18334:18341   */\n      0x00\n        /* \"#utility.yul\":18374:18416   */\n      0xffffffffffffffffffffffffffffffffffffffff\n        /* \"#utility.yul\":18367:18372   */\n      dup3\n        /* \"#utility.yul\":18363:18417   */\n      and\n        /* \"#utility.yul\":18352:18417   */\n      swap1\n      pop\n        /* \"#utility.yul\":18297:18423   */\n      swap2\n      swap1\n      pop\n      jump\t// out\n        /* \"#utility.yul\":18429:18506   */\n    tag_284:\n        /* \"#utility.yul\":18466:18473   */\n      0x00\n        /* \"#utility.yul\":18495:18500   */\n      dup2\n        /* \"#utility.yul\":18484:18500   */\n      swap1\n      pop\n        /* \"#utility.yul\":18429:18506   */\n      swap2\n      swap1\n      pop\n      jump\t// out\n        /* \"#utility.yul\":18512:18605   */\n    tag_290:\n        /* \"#utility.yul\":18548:18555   */\n      0x00\n        /* \"#utility.yul\":18588:18598   */\n      0xffffffff\n        /* \"#utility.yul\":18581:18586   */\n      dup3\n        /* \"#utility.yul\":18577:18599   */\n      and\n        /* \"#utility.yul\":18566:18599   */\n      swap1\n      pop\n        /* \"#utility.yul\":18512:18605   */\n      swap2\n      swap1\n      pop\n      jump\t// out\n        /* \"#utility.yul\":18611:18751   */\n    tag_223:\n        /* \"#utility.yul\":18675:18684   */\n      0x00\n        /* \"#utility.yul\":18708:18745   */\n      tag_358\n        /* \"#utility.yul\":18739:18744   */\n      dup3\n        /* \"#utility.yul\":18708:18745   */\n      tag_359\n      jump\t// in\n    tag_358:\n        /* \"#utility.yul\":18695:18745   */\n      swap1\n      pop\n        /* \"#utility.yul\":18611:18751   */\n      swap2\n      swap1\n      pop\n      jump\t// out\n        /* \"#utility.yul\":18757:18883   */\n    tag_359:\n        /* \"#utility.yul\":18807:18816   */\n      0x00\n        /* \"#utility.yul\":18840:18877   */\n      tag_361\n        /* \"#utility.yul\":18871:18876   */\n      dup3\n        /* \"#utility.yul\":18840:18877   */\n      tag_362\n      jump\t// in\n    tag_361:\n        /* \"#utility.yul\":18827:18877   */\n      swap1\n      pop\n        /* \"#utility.yul\":18757:18883   */\n      swap2\n      swap1\n      pop\n      jump\t// out\n        /* \"#utility.yul\":18889:19002   */\n    tag_362:\n        /* \"#utility.yul\":18939:18948   */\n      0x00\n        /* \"#utility.yul\":18972:18996   */\n      tag_364\n        /* \"#utility.yul\":18990:18995   */\n      dup3\n        /* \"#utility.yul\":18972:18996   */\n      tag_353\n      jump\t// in\n    tag_364:\n        /* \"#utility.yul\":18959:18996   */\n      swap1\n      pop\n        /* \"#utility.yul\":18889:19002   */\n      swap2\n      swap1\n      pop\n      jump\t// out\n        /* \"#utility.yul\":19008:19162   */\n    tag_141:\n        /* \"#utility.yul\":19092:19098   */\n      dup3\n        /* \"#utility.yul\":19087:19090   */\n      dup2\n        /* \"#utility.yul\":19082:19085   */\n      dup4\n        /* \"#utility.yul\":19069:19099   */\n      calldatacopy\n        /* \"#utility.yul\":19154:19155   */\n      0x00\n        /* \"#utility.yul\":19145:19151   */\n      dup4\n        /* \"#utility.yul\":19140:19143   */\n      dup4\n        /* \"#utility.yul\":19136:19152   */\n      add\n        /* \"#utility.yul\":19129:19156   */\n      mstore\n        /* \"#utility.yul\":19008:19162   */\n      pop\n      pop\n      pop\n      jump\t// out\n        /* \"#utility.yul\":19168:19475   */\n    tag_231:\n        /* \"#utility.yul\":19236:19237   */\n      0x00\n        /* \"#utility.yul\":19246:19359   */\n    tag_367:\n        /* \"#utility.yul\":19260:19266   */\n      dup4\n        /* \"#utility.yul\":19257:19258   */\n      dup2\n        /* \"#utility.yul\":19254:19267   */\n      lt\n        /* \"#utility.yul\":19246:19359   */\n      iszero\n      tag_369\n      jumpi\n        /* \"#utility.yul\":19345:19346   */\n      dup1\n        /* \"#utility.yul\":19340:19343   */\n      dup3\n        /* \"#utility.yul\":19336:19347   */\n      add\n        /* \"#utility.yul\":19330:19348   */\n      mload\n        /* \"#utility.yul\":19326:19327   */\n      dup2\n        /* \"#utility.yul\":19321:19324   */\n      dup5\n        /* \"#utility.yul\":19317:19328   */\n      add\n        /* \"#utility.yul\":19310:19349   */\n      mstore\n        /* \"#utility.yul\":19282:19284   */\n      0x20\n        /* \"#utility.yul\":19279:19280   */\n      dup2\n        /* \"#utility.yul\":19275:19285   */\n      add\n        /* \"#utility.yul\":19270:19285   */\n      swap1\n      pop\n        /* \"#utility.yul\":19246:19359   */\n      jump(tag_367)\n    tag_369:\n        /* \"#utility.yul\":19377:19383   */\n      dup4\n        /* \"#utility.yul\":19374:19375   */\n      dup2\n        /* \"#utility.yul\":19371:19384   */\n      gt\n        /* \"#utility.yul\":19368:19469   */\n      iszero\n      tag_370\n      jumpi\n        /* \"#utility.yul\":19457:19458   */\n      0x00\n        /* \"#utility.yul\":19448:19454   */\n      dup5\n        /* \"#utility.yul\":19443:19446   */\n      dup5\n        /* \"#utility.yul\":19439:19455   */\n      add\n        /* \"#utility.yul\":19432:19459   */\n      mstore\n        /* \"#utility.yul\":19368:19469   */\n    tag_370:\n        /* \"#utility.yul\":19217:19475   */\n      pop\n        /* \"#utility.yul\":19168:19475   */\n      pop\n      pop\n      pop\n      jump\t// out\n        /* \"#utility.yul\":19481:19801   */\n    tag_52:\n        /* \"#utility.yul\":19525:19531   */\n      0x00\n        /* \"#utility.yul\":19562:19563   */\n      0x02\n        /* \"#utility.yul\":19556:19560   */\n      dup3\n        /* \"#utility.yul\":19552:19564   */\n      div\n        /* \"#utility.yul\":19542:19564   */\n      swap1\n      pop\n        /* \"#utility.yul\":19609:19610   */\n      0x01\n        /* \"#utility.yul\":19603:19607   */\n      dup3\n        /* \"#utility.yul\":19599:19611   */\n      and\n        /* \"#utility.yul\":19630:19648   */\n      dup1\n        /* \"#utility.yul\":19620:19701   */\n      tag_372\n      jumpi\n        /* \"#utility.yul\":19686:19690   */\n      0x7f\n        /* \"#utility.yul\":19678:19684   */\n      dup3\n        /* \"#utility.yul\":19674:19691   */\n      and\n        /* \"#utility.yul\":19664:19691   */\n      swap2\n      pop\n        /* \"#utility.yul\":19620:19701   */\n    tag_372:\n        /* \"#utility.yul\":19748:19750   */\n      0x20\n        /* \"#utility.yul\":19740:19746   */\n      dup3\n        /* \"#utility.yul\":19737:19751   */\n      lt\n        /* \"#utility.yul\":19717:19735   */\n      dup2\n        /* \"#utility.yul\":19714:19752   */\n      eq\n        /* \"#utility.yul\":19711:19795   */\n      iszero\n      tag_373\n      jumpi\n        /* \"#utility.yul\":19767:19785   */\n      tag_374\n      tag_375\n      jump\t// in\n    tag_374:\n        /* \"#utility.yul\":19711:19795   */\n    tag_373:\n        /* \"#utility.yul\":19532:19801   */\n      pop\n        /* \"#utility.yul\":19481:19801   */\n      swap2\n      swap1\n      pop\n      jump\t// out\n        /* \"#utility.yul\":19807:19973   */\n    tag_275:\n        /* \"#utility.yul\":19876:19881   */\n      0x00\n        /* \"#utility.yul\":19901:19967   */\n      tag_377\n        /* \"#utility.yul\":19932:19966   */\n      tag_378\n        /* \"#utility.yul\":19955:19965   */\n      dup4\n        /* \"#utility.yul\":19932:19966   */\n      tag_379\n      jump\t// in\n    tag_378:\n        /* \"#utility.yul\":19901:19967   */\n      tag_345\n      jump\t// in\n    tag_377:\n        /* \"#utility.yul\":19892:19967   */\n      swap1\n      pop\n        /* \"#utility.yul\":19807:19973   */\n      swap2\n      swap1\n      pop\n      jump\t// out\n        /* \"#utility.yul\":19979:20145   */\n    tag_269:\n        /* \"#utility.yul\":20048:20053   */\n      0x00\n        /* \"#utility.yul\":20073:20139   */\n      tag_381\n        /* \"#utility.yul\":20104:20138   */\n      tag_382\n        /* \"#utility.yul\":20127:20137   */\n      dup4\n        /* \"#utility.yul\":20104:20138   */\n      tag_379\n      jump\t// in\n    tag_382:\n        /* \"#utility.yul\":20073:20139   */\n      tag_347\n      jump\t// in\n    tag_381:\n        /* \"#utility.yul\":20064:20139   */\n      swap1\n      pop\n        /* \"#utility.yul\":19979:20145   */\n      swap2\n      swap1\n      pop\n      jump\t// out\n        /* \"#utility.yul\":20151:20315   */\n    tag_280:\n        /* \"#utility.yul\":20219:20224   */\n      0x00\n        /* \"#utility.yul\":20244:20309   */\n      tag_384\n        /* \"#utility.yul\":20274:20308   */\n      tag_385\n        /* \"#utility.yul\":20297:20307   */\n      dup4\n        /* \"#utility.yul\":20274:20308   */\n      tag_379\n      jump\t// in\n    tag_385:\n        /* \"#utility.yul\":20244:20309   */\n      tag_349\n      jump\t// in\n    tag_384:\n        /* \"#utility.yul\":20235:20309   */\n      swap1\n      pop\n        /* \"#utility.yul\":20151:20315   */\n      swap2\n      swap1\n      pop\n      jump\t// out\n        /* \"#utility.yul\":20321:20602   */\n    tag_327:\n        /* \"#utility.yul\":20404:20431   */\n      tag_387\n        /* \"#utility.yul\":20426:20430   */\n      dup3\n        /* \"#utility.yul\":20404:20431   */\n      tag_233\n      jump\t// in\n    tag_387:\n        /* \"#utility.yul\":20396:20402   */\n      dup2\n        /* \"#utility.yul\":20392:20432   */\n      add\n        /* \"#utility.yul\":20534:20540   */\n      dup2\n        /* \"#utility.yul\":20522:20532   */\n      dup2\n        /* \"#utility.yul\":20519:20541   */\n      lt\n        /* \"#utility.yul\":20498:20516   */\n      0xffffffffffffffff\n        /* \"#utility.yul\":20486:20496   */\n      dup3\n        /* \"#utility.yul\":20483:20517   */\n      gt\n        /* \"#utility.yul\":20480:20542   */\n      or\n        /* \"#utility.yul\":20477:20565   */\n      iszero\n      tag_388\n      jumpi\n        /* \"#utility.yul\":20545:20563   */\n      tag_389\n      tag_332\n      jump\t// in\n    tag_389:\n        /* \"#utility.yul\":20477:20565   */\n    tag_388:\n        /* \"#utility.yul\":20585:20595   */\n      dup1\n        /* \"#utility.yul\":20581:20583   */\n      0x40\n        /* \"#utility.yul\":20574:20596   */\n      mstore\n        /* \"#utility.yul\":20364:20602   */\n      pop\n        /* \"#utility.yul\":20321:20602   */\n      pop\n      pop\n      jump\t// out\n        /* \"#utility.yul\":20608:20841   */\n    tag_46:\n        /* \"#utility.yul\":20647:20650   */\n      0x00\n        /* \"#utility.yul\":20670:20694   */\n      tag_391\n        /* \"#utility.yul\":20688:20693   */\n      dup3\n        /* \"#utility.yul\":20670:20694   */\n      tag_284\n      jump\t// in\n    tag_391:\n        /* \"#utility.yul\":20661:20694   */\n      swap2\n      pop\n        /* \"#utility.yul\":20716:20782   */\n      0xffffffffffffffffffffffffffffffffffffffffffffffffffffffffffffffff\n        /* \"#utility.yul\":20709:20714   */\n      dup3\n        /* \"#utility.yul\":20706:20783   */\n      eq\n        /* \"#utility.yul\":20703:20806   */\n      iszero\n      tag_392\n      jumpi\n        /* \"#utility.yul\":20786:20804   */\n      tag_393\n      tag_394\n      jump\t// in\n    tag_393:\n        /* \"#utility.yul\":20703:20806   */\n    tag_392:\n        /* \"#utility.yul\":20833:20834   */\n      0x01\n        /* \"#utility.yul\":20826:20831   */\n      dup3\n        /* \"#utility.yul\":20822:20835   */\n      add\n        /* \"#utility.yul\":20815:20835   */\n      swap1\n      pop\n        /* \"#utility.yul\":20608:20841   */\n      swap2\n      swap1\n      pop\n      jump\t// out\n        /* \"#utility.yul\":20847:21027   */\n    tag_394:\n        /* \"#utility.yul\":20895:20972   */\n      0x4e487b7100000000000000000000000000000000000000000000000000000000\n        /* \"#utility.yul\":20892:20893   */\n      0x00\n        /* \"#utility.yul\":20885:20973   */\n      mstore\n        /* \"#utility.yul\":20992:20996   */\n      0x11\n        /* \"#utility.yul\":20989:20990   */\n      0x04\n        /* \"#utility.yul\":20982:20997   */\n      mstore\n        /* \"#utility.yul\":21016:21020   */\n      0x24\n        /* \"#utility.yul\":21013:21014   */\n      0x00\n        /* \"#utility.yul\":21006:21021   */\n      revert\n        /* \"#utility.yul\":21033:21213   */\n    tag_375:\n        /* \"#utility.yul\":21081:21158   */\n      0x4e487b7100000000000000000000000000000000000000000000000000000000\n        /* \"#utility.yul\":21078:21079   */\n      0x00\n        /* \"#utility.yul\":21071:21159   */\n      mstore\n        /* \"#utility.yul\":21178:21182   */\n      0x22\n        /* \"#utility.yul\":21175:21176   */\n      0x04\n        /* \"#utility.yul\":21168:21183   */\n      mstore\n        /* \"#utility.yul\":21202:21206   */\n      0x24\n        /* \"#utility.yul\":21199:21200   */\n      0x00\n        /* \"#utility.yul\":21192:21207   */\n      revert\n        /* \"#utility.yul\":21219:21399   */\n    tag_332:\n        /* \"#utility.yul\":21267:21344   */\n      0x4e487b7100000000000000000000000000000000000000000000000000000000\n        /* \"#utility.yul\":21264:21265   */\n      0x00\n        /* \"#utility.yul\":21257:21345   */\n      mstore\n        /* \"#utility.yul\":21364:21368   */\n      0x41\n        /* \"#utility.yul\":21361:21362   */\n      0x04\n        /* \"#utility.yul\":21354:21369   */\n      mstore\n        /* \"#utility.yul\":21388:21392   */\n      0x24\n        /* \"#utility.yul\":21385:21386   */\n      0x00\n        /* \"#utility.yul\":21378:21393   */\n      revert\n        /* \"#utility.yul\":21405:21522   */\n    tag_150:\n        /* \"#utility.yul\":21514:21515   */\n      0x00\n        /* \"#utility.yul\":21511:21512   */\n      dup1\n        /* \"#utility.yul\":21504:21516   */\n      revert\n        /* \"#utility.yul\":21528:21645   */\n    tag_139:\n        /* \"#utility.yul\":21637:21638   */\n      0x00\n        /* \"#utility.yul\":21634:21635   */\n      dup1\n        /* \"#utility.yul\":21627:21639   */\n      revert\n        /* \"#utility.yul\":21651:21768   */\n    tag_175:\n        /* \"#utility.yul\":21760:21761   */\n      0x00\n        /* \"#utility.yul\":21757:21758   */\n      dup1\n        /* \"#utility.yul\":21750:21762   */\n      revert\n        /* \"#utility.yul\":21774:21891   */\n    tag_163:\n        /* \"#utility.yul\":21883:21884   */\n      0x00\n        /* \"#utility.yul\":21880:21881   */\n      dup1\n        /* \"#utility.yul\":21873:21885   */\n      revert\n        /* \"#utility.yul\":21897:21999   */\n    tag_233:\n        /* \"#utility.yul\":21938:21944   */\n      0x00\n        /* \"#utility.yul\":21989:21991   */\n      0x1f\n        /* \"#utility.yul\":21985:21992   */\n      not\n        /* \"#utility.yul\":21980:21982   */\n      0x1f\n        /* \"#utility.yul\":21973:21978   */\n      dup4\n        /* \"#utility.yul\":21969:21983   */\n      add\n        /* \"#utility.yul\":21965:21993   */\n      and\n        /* \"#utility.yul\":21955:21993   */\n      swap1\n      pop\n        /* \"#utility.yul\":21897:21999   */\n      swap2\n      swap1\n      pop\n      jump\t// out\n        /* \"#utility.yul\":22005:22107   */\n    tag_379:\n        /* \"#utility.yul\":22047:22055   */\n      0x00\n        /* \"#utility.yul\":22094:22099   */\n      dup2\n        /* \"#utility.yul\":22091:22092   */\n      0x00\n        /* \"#utility.yul\":22087:22100   */\n      shr\n        /* \"#utility.yul\":22066:22100   */\n      swap1\n      pop\n        /* \"#utility.yul\":22005:22107   */\n      swap2\n      swap1\n      pop\n      jump\t// out\n        /* \"#utility.yul\":22113:22334   */\n    tag_257:\n        /* \"#utility.yul\":22253:22287   */\n      0x546865726520617265206e6f2070726f647563747320746f206c697374207965\n        /* \"#utility.yul\":22249:22250   */\n      0x00\n        /* \"#utility.yul\":22241:22247   */\n      dup3\n        /* \"#utility.yul\":22237:22251   */\n      add\n        /* \"#utility.yul\":22230:22288   */\n      mstore\n        /* \"#utility.yul\":22322:22326   */\n      0x7421000000000000000000000000000000000000000000000000000000000000\n        /* \"#utility.yul\":22317:22319   */\n      0x20\n        /* \"#utility.yul\":22309:22315   */\n      dup3\n        /* \"#utility.yul\":22305:22320   */\n      add\n        /* \"#utility.yul\":22298:22327   */\n      mstore\n        /* \"#utility.yul\":22113:22334   */\n      pop\n      jump\t// out\n        /* \"#utility.yul\":22340:22462   */\n    tag_145:\n        /* \"#utility.yul\":22413:22437   */\n      tag_406\n        /* \"#utility.yul\":22431:22436   */\n      dup2\n        /* \"#utility.yul\":22413:22437   */\n      tag_189\n      jump\t// in\n    tag_406:\n        /* \"#utility.yul\":22406:22411   */\n      dup2\n        /* \"#utility.yul\":22403:22438   */\n      eq\n        /* \"#utility.yul\":22393:22456   */\n      tag_407\n      jumpi\n        /* \"#utility.yul\":22452:22453   */\n      0x00\n        /* \"#utility.yul\":22449:22450   */\n      dup1\n        /* \"#utility.yul\":22442:22454   */\n      revert\n        /* \"#utility.yul\":22393:22456   */\n    tag_407:\n        /* \"#utility.yul\":22340:22462   */\n      pop\n      jump\t// out\n        /* \"#utility.yul\":22468:22590   */\n    tag_155:\n        /* \"#utility.yul\":22541:22565   */\n      tag_409\n        /* \"#utility.yul\":22559:22564   */\n      dup2\n        /* \"#utility.yul\":22541:22565   */\n      tag_284\n      jump\t// in\n    tag_409:\n        /* \"#utility.yul\":22534:22539   */\n      dup2\n        /* \"#utility.yul\":22531:22566   */\n      eq\n        /* \"#utility.yul\":22521:22584   */\n      tag_410\n      jumpi\n        /* \"#utility.yul\":22580:22581   */\n      0x00\n        /* \"#utility.yul\":22577:22578   */\n      dup1\n        /* \"#utility.yul\":22570:22582   */\n      revert\n        /* \"#utility.yul\":22521:22584   */\n    tag_410:\n        /* \"#utility.yul\":22468:22590   */\n      pop\n      jump\t// out\n        /* \"#utility.yul\":22596:22716   */\n    tag_159:\n        /* \"#utility.yul\":22668:22691   */\n      tag_412\n        /* \"#utility.yul\":22685:22690   */\n      dup2\n        /* \"#utility.yul\":22668:22691   */\n      tag_290\n      jump\t// in\n    tag_412:\n        /* \"#utility.yul\":22661:22666   */\n      dup2\n        /* \"#utility.yul\":22658:22692   */\n      eq\n        /* \"#utility.yul\":22648:22710   */\n      tag_413\n      jumpi\n        /* \"#utility.yul\":22706:22707   */\n      0x00\n        /* \"#utility.yul\":22703:22704   */\n      dup1\n        /* \"#utility.yul\":22696:22708   */\n      revert\n        /* \"#utility.yul\":22648:22710   */\n    tag_413:\n        /* \"#utility.yul\":22596:22716   */\n      pop\n      jump\t// out\n\n    auxdata: 0xa2646970667358221220325812bb2e8179c11694edf79408277c9dbae749f0c62c752c669193bf46d22764736f6c63430008070033\n}\n",
				"bytecode": {
					"linkReferences": {},
					"object": "60806040523480156200001157600080fd5b5060405162001a9238038062001a92833981810160405281019062000037919062000095565b806000806101000a81548173ffffffffffffffffffffffffffffffffffffffff021916908373ffffffffffffffffffffffffffffffffffffffff160217905550506200011a565b6000815190506200008f8162000100565b92915050565b600060208284031215620000ae57620000ad620000fb565b5b6000620000be848285016200007e565b91505092915050565b6000620000d482620000db565b9050919050565b600073ffffffffffffffffffffffffffffffffffffffff82169050919050565b600080fd5b6200010b81620000c7565b81146200011757600080fd5b50565b611968806200012a6000396000f3fe608060405234801561001057600080fd5b506004361061007d5760003560e01c80635d9eb55c1161005b5780635d9eb55c146100ef578063a87430ba1461010d578063bfb231d214610140578063fc0c546a146101755761007d565b806301750e74146100825780633d4d36001461009e5780634efd1797146100d3575b600080fd5b61009c60048036038101906100979190610eb7565b610193565b005b6100b860048036038101906100b39190610eb7565b610299565b6040516100ca969594939291906113fe565b60405180910390f35b6100ed60048036038101906100e89190610ee4565b61039d565b005b6100f7610809565b604051610104919061132c565b60405180910390f35b61012760048036038101906101229190610e8a565b610a2f565b60405161013794939291906113ab565b60405180910390f35b61015a60048036038101906101559190610eb7565b610b6f565b60405161016c969594939291906113fe565b60405180910390f35b61017d610c63565b60405161018a9190611370565b60405180910390f35b6003600082815260200190815260200160002060030160009054906101000a900473ffffffffffffffffffffffffffffffffffffffff168073ffffffffffffffffffffffffffffffffffffffff163373ffffffffffffffffffffffffffffffffffffffff16141561020357600080fd5b60036000838152602001908152602001600020600201600081548092919061022a90611796565b91905055503373ffffffffffffffffffffffffffffffffffffffff167f1ed364e6f46a455fac23816d3700669ff134c7a5fbe0240f52d932f83410246283600360008681526020019081526020016000206002015460405161028d929190611466565b60405180910390a25050565b600181815481106102a957600080fd5b90600052602060002090600602016000915090508060000154908060010180546102d2906116e5565b80601f01602080910402602001604051908101604052809291908181526020018280546102fe906116e5565b801561034b5780601f106103205761010080835404028352916020019161034b565b820191906000526020600020905b81548152906001019060200180831161032e57829003601f168201915b5050505050908060020154908060030160009054906101000a900473ffffffffffffffffffffffffffffffffffffffff16908060040154908060050160009054906101000a900463ffffffff16905086565b338073ffffffffffffffffffffffffffffffffffffffff163373ffffffffffffffffffffffffffffffffffffffff16146103d657600080fd5b6040518060c001604052806103eb6004610c87565b8152602001848152602001600081526020013373ffffffffffffffffffffffffffffffffffffffff1681526020018581526020018363ffffffff16815250600360006104376004610c87565b815260200190815260200160002060008201518160000155602082015181600101908051906020019061046b929190610cab565b506040820151816002015560608201518160030160006101000a81548173ffffffffffffffffffffffffffffffffffffffff021916908373ffffffffffffffffffffffffffffffffffffffff1602179055506080820151816004015560a08201518160050160006101000a81548163ffffffff021916908363ffffffff160217905550905050600260003373ffffffffffffffffffffffffffffffffffffffff1673ffffffffffffffffffffffffffffffffffffffff168152602001908152602001600020600401600360006105416004610c87565b81526020019081526020016000209080600181540180825580915050600190039060005260206000209060060201600090919091909150600082015481600001556001820181600101908054610596906116e5565b6105a1929190610d31565b50600282015481600201556003820160009054906101000a900473ffffffffffffffffffffffffffffffffffffffff168160030160006101000a81548173ffffffffffffffffffffffffffffffffffffffff021916908373ffffffffffffffffffffffffffffffffffffffff160217905550600482015481600401556005820160009054906101000a900463ffffffff168160050160006101000a81548163ffffffff021916908363ffffffff16021790555050506001600360006106666004610c87565b815260200190815260200160002090806001815401808255809150506001900390600052602060002090600602016000909190919091506000820154816000015560018201816001019080546106bb906116e5565b6106c6929190610d31565b50600282015481600201556003820160009054906101000a900473ffffffffffffffffffffffffffffffffffffffff168160030160006101000a81548173ffffffffffffffffffffffffffffffffffffffff021916908373ffffffffffffffffffffffffffffffffffffffff160217905550600482015481600401556005820160009054906101000a900463ffffffff168160050160006101000a81548163ffffffff021916908363ffffffff16021790555050506107856004610c95565b3373ffffffffffffffffffffffffffffffffffffffff167f9a5b8b5cb7f9c536ea5db1a94142c9f716fb3a8698a9c70a5b8bfad3922cb06c6107c76004610c87565b868686600360006107d86004610c87565b8152602001908152602001600020600201546040516107fb95949392919061148f565b60405180910390a250505050565b606060006108176004610c87565b11610857576040517f08c379a000000000000000000000000000000000000000000000000000000000815260040161084e9061138b565b60405180910390fd5b3373ffffffffffffffffffffffffffffffffffffffff167f440c078a5e11bff85c6b6d7c52f378c8220355bd3331ec889638c0eca883670c600160405161089e919061134e565b60405180910390a26001805480602002602001604051908101604052809291908181526020016000905b82821015610a2657838290600052602060002090600602016040518060c001604052908160008201548152602001600182018054610905906116e5565b80601f0160208091040260200160405190810160405280929190818152602001828054610931906116e5565b801561097e5780601f106109535761010080835404028352916020019161097e565b820191906000526020600020905b81548152906001019060200180831161096157829003601f168201915b50505050508152602001600282015481526020016003820160009054906101000a900473ffffffffffffffffffffffffffffffffffffffff1673ffffffffffffffffffffffffffffffffffffffff1673ffffffffffffffffffffffffffffffffffffffff168152602001600482015481526020016005820160009054906101000a900463ffffffff1663ffffffff1663ffffffff1681525050815260200190600101906108c8565b50505050905090565b6002602052806000526040600020600091509050806000015490806001018054610a58906116e5565b80601f0160208091040260200160405190810160405280929190818152602001828054610a84906116e5565b8015610ad15780601f10610aa657610100808354040283529160200191610ad1565b820191906000526020600020905b815481529060010190602001808311610ab457829003601f168201915b505050505090806002018054610ae6906116e5565b80601f0160208091040260200160405190810160405280929190818152602001828054610b12906116e5565b8015610b5f5780601f10610b3457610100808354040283529160200191610b5f565b820191906000526020600020905b815481529060010190602001808311610b4257829003601f168201915b5050505050908060050154905084565b6003602052806000526040600020600091509050806000015490806001018054610b98906116e5565b80601f0160208091040260200160405190810160405280929190818152602001828054610bc4906116e5565b8015610c115780601f10610be657610100808354040283529160200191610c11565b820191906000526020600020905b815481529060010190602001808311610bf457829003601f168201915b5050505050908060020154908060030160009054906101000a900473ffffffffffffffffffffffffffffffffffffffff16908060040154908060050160009054906101000a900463ffffffff16905086565b60008054906101000a900473ffffffffffffffffffffffffffffffffffffffff1681565b600081600001549050919050565b6001816000016000828254019250508190555050565b828054610cb7906116e5565b90600052602060002090601f016020900481019282610cd95760008555610d20565b82601f10610cf257805160ff1916838001178555610d20565b82800160010185558215610d20579182015b82811115610d1f578251825591602001919060010190610d04565b5b509050610d2d9190610dbe565b5090565b828054610d3d906116e5565b90600052602060002090601f016020900481019282610d5f5760008555610dad565b82601f10610d705780548555610dad565b82800160010185558215610dad57600052602060002091601f016020900482015b82811115610dac578254825591600101919060010190610d91565b5b509050610dba9190610dbe565b5090565b5b80821115610dd7576000816000905550600101610dbf565b5090565b6000610dee610de98461150e565b6114e9565b905082815260208101848484011115610e0a57610e09611871565b5b610e158482856116a3565b509392505050565b600081359050610e2c816118ed565b92915050565b600082601f830112610e4757610e4661186c565b5b8135610e57848260208601610ddb565b91505092915050565b600081359050610e6f81611904565b92915050565b600081359050610e848161191b565b92915050565b600060208284031215610ea057610e9f61187b565b5b6000610eae84828501610e1d565b91505092915050565b600060208284031215610ecd57610ecc61187b565b5b6000610edb84828501610e60565b91505092915050565b600080600060608486031215610efd57610efc61187b565b5b6000610f0b86828701610e60565b935050602084013567ffffffffffffffff811115610f2c57610f2b611876565b5b610f3886828701610e32565b9250506040610f4986828701610e75565b9150509250925092565b6000610f5f83836111a6565b905092915050565b6000610f73838361122f565b905092915050565b610f8481611621565b82525050565b610f9381611621565b82525050565b6000610fa482611579565b610fae81856115b4565b935083602082028501610fc08561153f565b8060005b85811015610ffc5784840389528151610fdd8582610f53565b9450610fe88361159a565b925060208a01995050600181019050610fc4565b50829750879550505050505092915050565b600061101982611584565b61102381856115b4565b9350836020820285016110358561154f565b8060005b85811015611070578484038952816110518582610f67565b945061105c836115a7565b925060208a01995050600181019050611039565b50829750879550505050505092915050565b61108b8161166d565b82525050565b600061109c8261158f565b6110a681856115c5565b93506110b68185602086016116b2565b6110bf81611880565b840191505092915050565b60006110d58261158f565b6110df81856115d6565b93506110ef8185602086016116b2565b6110f881611880565b840191505092915050565b60008154611110816116e5565b61111a81866115c5565b9450600182166000811461113557600181146111475761117a565b60ff198316865260208601935061117a565b61115085611564565b60005b8381101561117257815481890152600182019150602081019050611153565b808801955050505b50505092915050565b60006111906022836115d6565b915061119b8261189e565b604082019050919050565b600060c0830160008301516111be60008601826112f0565b50602083015184820360208601526111d68282611091565b91505060408301516111eb60408601826112f0565b5060608301516111fe6060860182610f7b565b50608083015161121160808601826112f0565b5060a083015161122460a086018261130e565b508091505092915050565b600060c08301600080840154905061124681611731565b61125360008701826112f0565b5060018401858303602087015261126a8382611103565b9250506002840154905061127d81611731565b61128a60408701826112f0565b506003840154905061129b81611717565b6112a86060870182610f7b565b50600484015490506112b981611731565b6112c660808701826112f0565b50600584015490506112d78161174b565b6112e460a087018261130e565b50819250505092915050565b6112f981611653565b82525050565b61130881611653565b82525050565b6113178161165d565b82525050565b6113268161165d565b82525050565b600060208201905081810360008301526113468184610f99565b905092915050565b60006020820190508181036000830152611368818461100e565b905092915050565b60006020820190506113856000830184611082565b92915050565b600060208201905081810360008301526113a481611183565b9050919050565b60006080820190506113c060008301876112ff565b81810360208301526113d281866110ca565b905081810360408301526113e681856110ca565b90506113f560608301846112ff565b95945050505050565b600060c08201905061141360008301896112ff565b818103602083015261142581886110ca565b905061143460408301876112ff565b6114416060830186610f8a565b61144e60808301856112ff565b61145b60a083018461131d565b979650505050505050565b600060408201905061147b60008301856112ff565b61148860208301846112ff565b9392505050565b600060a0820190506114a460008301886112ff565b6114b160208301876112ff565b81810360408301526114c381866110ca565b90506114d2606083018561131d565b6114df60808301846112ff565b9695505050505050565b60006114f3611504565b90506114ff8282611765565b919050565b6000604051905090565b600067ffffffffffffffff8211156115295761152861183d565b5b61153282611880565b9050602081019050919050565b6000819050602082019050919050565b60008190508160005260206000209050919050565b60008190508160005260206000209050919050565b600081519050919050565b600081549050919050565b600081519050919050565b6000602082019050919050565b6000600682019050919050565b600082825260208201905092915050565b600082825260208201905092915050565b600082825260208201905092915050565b600073ffffffffffffffffffffffffffffffffffffffff82169050919050565b6000819050919050565b600063ffffffff82169050919050565b600061162c82611633565b9050919050565b600073ffffffffffffffffffffffffffffffffffffffff82169050919050565b6000819050919050565b600063ffffffff82169050919050565b60006116788261167f565b9050919050565b600061168a82611691565b9050919050565b600061169c82611633565b9050919050565b82818337600083830152505050565b60005b838110156116d05780820151818401526020810190506116b5565b838111156116df576000848401525b50505050565b600060028204905060018216806116fd57607f821691505b602082108114156117115761171061180e565b5b50919050565b600061172a61172583611891565b6115e7565b9050919050565b600061174461173f83611891565b611607565b9050919050565b600061175e61175983611891565b611611565b9050919050565b61176e82611880565b810181811067ffffffffffffffff8211171561178d5761178c61183d565b5b80604052505050565b60006117a182611653565b91507fffffffffffffffffffffffffffffffffffffffffffffffffffffffffffffffff8214156117d4576117d36117df565b5b600182019050919050565b7f4e487b7100000000000000000000000000000000000000000000000000000000600052601160045260246000fd5b7f4e487b7100000000000000000000000000000000000000000000000000000000600052602260045260246000fd5b7f4e487b7100000000000000000000000000000000000000000000000000000000600052604160045260246000fd5b600080fd5b600080fd5b600080fd5b600080fd5b6000601f19601f8301169050919050565b60008160001c9050919050565b7f546865726520617265206e6f2070726f647563747320746f206c69737420796560008201527f7421000000000000000000000000000000000000000000000000000000000000602082015250565b6118f681611621565b811461190157600080fd5b50565b61190d81611653565b811461191857600080fd5b50565b6119248161165d565b811461192f57600080fd5b5056fea2646970667358221220325812bb2e8179c11694edf79408277c9dbae749f0c62c752c669193bf46d22764736f6c63430008070033",
					"opcodes": "PUSH1 0x80 PUSH1 0x40 MSTORE CALLVALUE DUP1 ISZERO PUSH3 0x11 JUMPI PUSH1 0x0 DUP1 REVERT JUMPDEST POP PUSH1 0x40 MLOAD PUSH3 0x1A92 CODESIZE SUB DUP1 PUSH3 0x1A92 DUP4 CODECOPY DUP2 DUP2 ADD PUSH1 0x40 MSTORE DUP2 ADD SWAP1 PUSH3 0x37 SWAP2 SWAP1 PUSH3 0x95 JUMP JUMPDEST DUP1 PUSH1 0x0 DUP1 PUSH2 0x100 EXP DUP2 SLOAD DUP2 PUSH20 0xFFFFFFFFFFFFFFFFFFFFFFFFFFFFFFFFFFFFFFFF MUL NOT AND SWAP1 DUP4 PUSH20 0xFFFFFFFFFFFFFFFFFFFFFFFFFFFFFFFFFFFFFFFF AND MUL OR SWAP1 SSTORE POP POP PUSH3 0x11A JUMP JUMPDEST PUSH1 0x0 DUP2 MLOAD SWAP1 POP PUSH3 0x8F DUP2 PUSH3 0x100 JUMP JUMPDEST SWAP3 SWAP2 POP POP JUMP JUMPDEST PUSH1 0x0 PUSH1 0x20 DUP3 DUP5 SUB SLT ISZERO PUSH3 0xAE JUMPI PUSH3 0xAD PUSH3 0xFB JUMP JUMPDEST JUMPDEST PUSH1 0x0 PUSH3 0xBE DUP5 DUP3 DUP6 ADD PUSH3 0x7E JUMP JUMPDEST SWAP2 POP POP SWAP3 SWAP2 POP POP JUMP JUMPDEST PUSH1 0x0 PUSH3 0xD4 DUP3 PUSH3 0xDB JUMP JUMPDEST SWAP1 POP SWAP2 SWAP1 POP JUMP JUMPDEST PUSH1 0x0 PUSH20 0xFFFFFFFFFFFFFFFFFFFFFFFFFFFFFFFFFFFFFFFF DUP3 AND SWAP1 POP SWAP2 SWAP1 POP JUMP JUMPDEST PUSH1 0x0 DUP1 REVERT JUMPDEST PUSH3 0x10B DUP2 PUSH3 0xC7 JUMP JUMPDEST DUP2 EQ PUSH3 0x117 JUMPI PUSH1 0x0 DUP1 REVERT JUMPDEST POP JUMP JUMPDEST PUSH2 0x1968 DUP1 PUSH3 0x12A PUSH1 0x0 CODECOPY PUSH1 0x0 RETURN INVALID PUSH1 0x80 PUSH1 0x40 MSTORE CALLVALUE DUP1 ISZERO PUSH2 0x10 JUMPI PUSH1 0x0 DUP1 REVERT JUMPDEST POP PUSH1 0x4 CALLDATASIZE LT PUSH2 0x7D JUMPI PUSH1 0x0 CALLDATALOAD PUSH1 0xE0 SHR DUP1 PUSH4 0x5D9EB55C GT PUSH2 0x5B JUMPI DUP1 PUSH4 0x5D9EB55C EQ PUSH2 0xEF JUMPI DUP1 PUSH4 0xA87430BA EQ PUSH2 0x10D JUMPI DUP1 PUSH4 0xBFB231D2 EQ PUSH2 0x140 JUMPI DUP1 PUSH4 0xFC0C546A EQ PUSH2 0x175 JUMPI PUSH2 0x7D JUMP JUMPDEST DUP1 PUSH4 0x1750E74 EQ PUSH2 0x82 JUMPI DUP1 PUSH4 0x3D4D3600 EQ PUSH2 0x9E JUMPI DUP1 PUSH4 0x4EFD1797 EQ PUSH2 0xD3 JUMPI JUMPDEST PUSH1 0x0 DUP1 REVERT JUMPDEST PUSH2 0x9C PUSH1 0x4 DUP1 CALLDATASIZE SUB DUP2 ADD SWAP1 PUSH2 0x97 SWAP2 SWAP1 PUSH2 0xEB7 JUMP JUMPDEST PUSH2 0x193 JUMP JUMPDEST STOP JUMPDEST PUSH2 0xB8 PUSH1 0x4 DUP1 CALLDATASIZE SUB DUP2 ADD SWAP1 PUSH2 0xB3 SWAP2 SWAP1 PUSH2 0xEB7 JUMP JUMPDEST PUSH2 0x299 JUMP JUMPDEST PUSH1 0x40 MLOAD PUSH2 0xCA SWAP7 SWAP6 SWAP5 SWAP4 SWAP3 SWAP2 SWAP1 PUSH2 0x13FE JUMP JUMPDEST PUSH1 0x40 MLOAD DUP1 SWAP2 SUB SWAP1 RETURN JUMPDEST PUSH2 0xED PUSH1 0x4 DUP1 CALLDATASIZE SUB DUP2 ADD SWAP1 PUSH2 0xE8 SWAP2 SWAP1 PUSH2 0xEE4 JUMP JUMPDEST PUSH2 0x39D JUMP JUMPDEST STOP JUMPDEST PUSH2 0xF7 PUSH2 0x809 JUMP JUMPDEST PUSH1 0x40 MLOAD PUSH2 0x104 SWAP2 SWAP1 PUSH2 0x132C JUMP JUMPDEST PUSH1 0x40 MLOAD DUP1 SWAP2 SUB SWAP1 RETURN JUMPDEST PUSH2 0x127 PUSH1 0x4 DUP1 CALLDATASIZE SUB DUP2 ADD SWAP1 PUSH2 0x122 SWAP2 SWAP1 PUSH2 0xE8A JUMP JUMPDEST PUSH2 0xA2F JUMP JUMPDEST PUSH1 0x40 MLOAD PUSH2 0x137 SWAP5 SWAP4 SWAP3 SWAP2 SWAP1 PUSH2 0x13AB JUMP JUMPDEST PUSH1 0x40 MLOAD DUP1 SWAP2 SUB SWAP1 RETURN JUMPDEST PUSH2 0x15A PUSH1 0x4 DUP1 CALLDATASIZE SUB DUP2 ADD SWAP1 PUSH2 0x155 SWAP2 SWAP1 PUSH2 0xEB7 JUMP JUMPDEST PUSH2 0xB6F JUMP JUMPDEST PUSH1 0x40 MLOAD PUSH2 0x16C SWAP7 SWAP6 SWAP5 SWAP4 SWAP3 SWAP2 SWAP1 PUSH2 0x13FE JUMP JUMPDEST PUSH1 0x40 MLOAD DUP1 SWAP2 SUB SWAP1 RETURN JUMPDEST PUSH2 0x17D PUSH2 0xC63 JUMP JUMPDEST PUSH1 0x40 MLOAD PUSH2 0x18A SWAP2 SWAP1 PUSH2 0x1370 JUMP JUMPDEST PUSH1 0x40 MLOAD DUP1 SWAP2 SUB SWAP1 RETURN JUMPDEST PUSH1 0x3 PUSH1 0x0 DUP3 DUP2 MSTORE PUSH1 0x20 ADD SWAP1 DUP2 MSTORE PUSH1 0x20 ADD PUSH1 0x0 KECCAK256 PUSH1 0x3 ADD PUSH1 0x0 SWAP1 SLOAD SWAP1 PUSH2 0x100 EXP SWAP1 DIV PUSH20 0xFFFFFFFFFFFFFFFFFFFFFFFFFFFFFFFFFFFFFFFF AND DUP1 PUSH20 0xFFFFFFFFFFFFFFFFFFFFFFFFFFFFFFFFFFFFFFFF AND CALLER PUSH20 0xFFFFFFFFFFFFFFFFFFFFFFFFFFFFFFFFFFFFFFFF AND EQ ISZERO PUSH2 0x203 JUMPI PUSH1 0x0 DUP1 REVERT JUMPDEST PUSH1 0x3 PUSH1 0x0 DUP4 DUP2 MSTORE PUSH1 0x20 ADD SWAP1 DUP2 MSTORE PUSH1 0x20 ADD PUSH1 0x0 KECCAK256 PUSH1 0x2 ADD PUSH1 0x0 DUP2 SLOAD DUP1 SWAP3 SWAP2 SWAP1 PUSH2 0x22A SWAP1 PUSH2 0x1796 JUMP JUMPDEST SWAP2 SWAP1 POP SSTORE POP CALLER PUSH20 0xFFFFFFFFFFFFFFFFFFFFFFFFFFFFFFFFFFFFFFFF AND PUSH32 0x1ED364E6F46A455FAC23816D3700669FF134C7A5FBE0240F52D932F834102462 DUP4 PUSH1 0x3 PUSH1 0x0 DUP7 DUP2 MSTORE PUSH1 0x20 ADD SWAP1 DUP2 MSTORE PUSH1 0x20 ADD PUSH1 0x0 KECCAK256 PUSH1 0x2 ADD SLOAD PUSH1 0x40 MLOAD PUSH2 0x28D SWAP3 SWAP2 SWAP1 PUSH2 0x1466 JUMP JUMPDEST PUSH1 0x40 MLOAD DUP1 SWAP2 SUB SWAP1 LOG2 POP POP JUMP JUMPDEST PUSH1 0x1 DUP2 DUP2 SLOAD DUP2 LT PUSH2 0x2A9 JUMPI PUSH1 0x0 DUP1 REVERT JUMPDEST SWAP1 PUSH1 0x0 MSTORE PUSH1 0x20 PUSH1 0x0 KECCAK256 SWAP1 PUSH1 0x6 MUL ADD PUSH1 0x0 SWAP2 POP SWAP1 POP DUP1 PUSH1 0x0 ADD SLOAD SWAP1 DUP1 PUSH1 0x1 ADD DUP1 SLOAD PUSH2 0x2D2 SWAP1 PUSH2 0x16E5 JUMP JUMPDEST DUP1 PUSH1 0x1F ADD PUSH1 0x20 DUP1 SWAP2 DIV MUL PUSH1 0x20 ADD PUSH1 0x40 MLOAD SWAP1 DUP2 ADD PUSH1 0x40 MSTORE DUP1 SWAP3 SWAP2 SWAP1 DUP2 DUP2 MSTORE PUSH1 0x20 ADD DUP3 DUP1 SLOAD PUSH2 0x2FE SWAP1 PUSH2 0x16E5 JUMP JUMPDEST DUP1 ISZERO PUSH2 0x34B JUMPI DUP1 PUSH1 0x1F LT PUSH2 0x320 JUMPI PUSH2 0x100 DUP1 DUP4 SLOAD DIV MUL DUP4 MSTORE SWAP2 PUSH1 0x20 ADD SWAP2 PUSH2 0x34B JUMP JUMPDEST DUP3 ADD SWAP2 SWAP1 PUSH1 0x0 MSTORE PUSH1 0x20 PUSH1 0x0 KECCAK256 SWAP1 JUMPDEST DUP2 SLOAD DUP2 MSTORE SWAP1 PUSH1 0x1 ADD SWAP1 PUSH1 0x20 ADD DUP1 DUP4 GT PUSH2 0x32E JUMPI DUP3 SWAP1 SUB PUSH1 0x1F AND DUP3 ADD SWAP2 JUMPDEST POP POP POP POP POP SWAP1 DUP1 PUSH1 0x2 ADD SLOAD SWAP1 DUP1 PUSH1 0x3 ADD PUSH1 0x0 SWAP1 SLOAD SWAP1 PUSH2 0x100 EXP SWAP1 DIV PUSH20 0xFFFFFFFFFFFFFFFFFFFFFFFFFFFFFFFFFFFFFFFF AND SWAP1 DUP1 PUSH1 0x4 ADD SLOAD SWAP1 DUP1 PUSH1 0x5 ADD PUSH1 0x0 SWAP1 SLOAD SWAP1 PUSH2 0x100 EXP SWAP1 DIV PUSH4 0xFFFFFFFF AND SWAP1 POP DUP7 JUMP JUMPDEST CALLER DUP1 PUSH20 0xFFFFFFFFFFFFFFFFFFFFFFFFFFFFFFFFFFFFFFFF AND CALLER PUSH20 0xFFFFFFFFFFFFFFFFFFFFFFFFFFFFFFFFFFFFFFFF AND EQ PUSH2 0x3D6 JUMPI PUSH1 0x0 DUP1 REVERT JUMPDEST PUSH1 0x40 MLOAD DUP1 PUSH1 0xC0 ADD PUSH1 0x40 MSTORE DUP1 PUSH2 0x3EB PUSH1 0x4 PUSH2 0xC87 JUMP JUMPDEST DUP2 MSTORE PUSH1 0x20 ADD DUP5 DUP2 MSTORE PUSH1 0x20 ADD PUSH1 0x0 DUP2 MSTORE PUSH1 0x20 ADD CALLER PUSH20 0xFFFFFFFFFFFFFFFFFFFFFFFFFFFFFFFFFFFFFFFF AND DUP2 MSTORE PUSH1 0x20 ADD DUP6 DUP2 MSTORE PUSH1 0x20 ADD DUP4 PUSH4 0xFFFFFFFF AND DUP2 MSTORE POP PUSH1 0x3 PUSH1 0x0 PUSH2 0x437 PUSH1 0x4 PUSH2 0xC87 JUMP JUMPDEST DUP2 MSTORE PUSH1 0x20 ADD SWAP1 DUP2 MSTORE PUSH1 0x20 ADD PUSH1 0x0 KECCAK256 PUSH1 0x0 DUP3 ADD MLOAD DUP2 PUSH1 0x0 ADD SSTORE PUSH1 0x20 DUP3 ADD MLOAD DUP2 PUSH1 0x1 ADD SWAP1 DUP1 MLOAD SWAP1 PUSH1 0x20 ADD SWAP1 PUSH2 0x46B SWAP3 SWAP2 SWAP1 PUSH2 0xCAB JUMP JUMPDEST POP PUSH1 0x40 DUP3 ADD MLOAD DUP2 PUSH1 0x2 ADD SSTORE PUSH1 0x60 DUP3 ADD MLOAD DUP2 PUSH1 0x3 ADD PUSH1 0x0 PUSH2 0x100 EXP DUP2 SLOAD DUP2 PUSH20 0xFFFFFFFFFFFFFFFFFFFFFFFFFFFFFFFFFFFFFFFF MUL NOT AND SWAP1 DUP4 PUSH20 0xFFFFFFFFFFFFFFFFFFFFFFFFFFFFFFFFFFFFFFFF AND MUL OR SWAP1 SSTORE POP PUSH1 0x80 DUP3 ADD MLOAD DUP2 PUSH1 0x4 ADD SSTORE PUSH1 0xA0 DUP3 ADD MLOAD DUP2 PUSH1 0x5 ADD PUSH1 0x0 PUSH2 0x100 EXP DUP2 SLOAD DUP2 PUSH4 0xFFFFFFFF MUL NOT AND SWAP1 DUP4 PUSH4 0xFFFFFFFF AND MUL OR SWAP1 SSTORE POP SWAP1 POP POP PUSH1 0x2 PUSH1 0x0 CALLER PUSH20 0xFFFFFFFFFFFFFFFFFFFFFFFFFFFFFFFFFFFFFFFF AND PUSH20 0xFFFFFFFFFFFFFFFFFFFFFFFFFFFFFFFFFFFFFFFF AND DUP2 MSTORE PUSH1 0x20 ADD SWAP1 DUP2 MSTORE PUSH1 0x20 ADD PUSH1 0x0 KECCAK256 PUSH1 0x4 ADD PUSH1 0x3 PUSH1 0x0 PUSH2 0x541 PUSH1 0x4 PUSH2 0xC87 JUMP JUMPDEST DUP2 MSTORE PUSH1 0x20 ADD SWAP1 DUP2 MSTORE PUSH1 0x20 ADD PUSH1 0x0 KECCAK256 SWAP1 DUP1 PUSH1 0x1 DUP2 SLOAD ADD DUP1 DUP3 SSTORE DUP1 SWAP2 POP POP PUSH1 0x1 SWAP1 SUB SWAP1 PUSH1 0x0 MSTORE PUSH1 0x20 PUSH1 0x0 KECCAK256 SWAP1 PUSH1 0x6 MUL ADD PUSH1 0x0 SWAP1 SWAP2 SWAP1 SWAP2 SWAP1 SWAP2 POP PUSH1 0x0 DUP3 ADD SLOAD DUP2 PUSH1 0x0 ADD SSTORE PUSH1 0x1 DUP3 ADD DUP2 PUSH1 0x1 ADD SWAP1 DUP1 SLOAD PUSH2 0x596 SWAP1 PUSH2 0x16E5 JUMP JUMPDEST PUSH2 0x5A1 SWAP3 SWAP2 SWAP1 PUSH2 0xD31 JUMP JUMPDEST POP PUSH1 0x2 DUP3 ADD SLOAD DUP2 PUSH1 0x2 ADD SSTORE PUSH1 0x3 DUP3 ADD PUSH1 0x0 SWAP1 SLOAD SWAP1 PUSH2 0x100 EXP SWAP1 DIV PUSH20 0xFFFFFFFFFFFFFFFFFFFFFFFFFFFFFFFFFFFFFFFF AND DUP2 PUSH1 0x3 ADD PUSH1 0x0 PUSH2 0x100 EXP DUP2 SLOAD DUP2 PUSH20 0xFFFFFFFFFFFFFFFFFFFFFFFFFFFFFFFFFFFFFFFF MUL NOT AND SWAP1 DUP4 PUSH20 0xFFFFFFFFFFFFFFFFFFFFFFFFFFFFFFFFFFFFFFFF AND MUL OR SWAP1 SSTORE POP PUSH1 0x4 DUP3 ADD SLOAD DUP2 PUSH1 0x4 ADD SSTORE PUSH1 0x5 DUP3 ADD PUSH1 0x0 SWAP1 SLOAD SWAP1 PUSH2 0x100 EXP SWAP1 DIV PUSH4 0xFFFFFFFF AND DUP2 PUSH1 0x5 ADD PUSH1 0x0 PUSH2 0x100 EXP DUP2 SLOAD DUP2 PUSH4 0xFFFFFFFF MUL NOT AND SWAP1 DUP4 PUSH4 0xFFFFFFFF AND MUL OR SWAP1 SSTORE POP POP POP PUSH1 0x1 PUSH1 0x3 PUSH1 0x0 PUSH2 0x666 PUSH1 0x4 PUSH2 0xC87 JUMP JUMPDEST DUP2 MSTORE PUSH1 0x20 ADD SWAP1 DUP2 MSTORE PUSH1 0x20 ADD PUSH1 0x0 KECCAK256 SWAP1 DUP1 PUSH1 0x1 DUP2 SLOAD ADD DUP1 DUP3 SSTORE DUP1 SWAP2 POP POP PUSH1 0x1 SWAP1 SUB SWAP1 PUSH1 0x0 MSTORE PUSH1 0x20 PUSH1 0x0 KECCAK256 SWAP1 PUSH1 0x6 MUL ADD PUSH1 0x0 SWAP1 SWAP2 SWAP1 SWAP2 SWAP1 SWAP2 POP PUSH1 0x0 DUP3 ADD SLOAD DUP2 PUSH1 0x0 ADD SSTORE PUSH1 0x1 DUP3 ADD DUP2 PUSH1 0x1 ADD SWAP1 DUP1 SLOAD PUSH2 0x6BB SWAP1 PUSH2 0x16E5 JUMP JUMPDEST PUSH2 0x6C6 SWAP3 SWAP2 SWAP1 PUSH2 0xD31 JUMP JUMPDEST POP PUSH1 0x2 DUP3 ADD SLOAD DUP2 PUSH1 0x2 ADD SSTORE PUSH1 0x3 DUP3 ADD PUSH1 0x0 SWAP1 SLOAD SWAP1 PUSH2 0x100 EXP SWAP1 DIV PUSH20 0xFFFFFFFFFFFFFFFFFFFFFFFFFFFFFFFFFFFFFFFF AND DUP2 PUSH1 0x3 ADD PUSH1 0x0 PUSH2 0x100 EXP DUP2 SLOAD DUP2 PUSH20 0xFFFFFFFFFFFFFFFFFFFFFFFFFFFFFFFFFFFFFFFF MUL NOT AND SWAP1 DUP4 PUSH20 0xFFFFFFFFFFFFFFFFFFFFFFFFFFFFFFFFFFFFFFFF AND MUL OR SWAP1 SSTORE POP PUSH1 0x4 DUP3 ADD SLOAD DUP2 PUSH1 0x4 ADD SSTORE PUSH1 0x5 DUP3 ADD PUSH1 0x0 SWAP1 SLOAD SWAP1 PUSH2 0x100 EXP SWAP1 DIV PUSH4 0xFFFFFFFF AND DUP2 PUSH1 0x5 ADD PUSH1 0x0 PUSH2 0x100 EXP DUP2 SLOAD DUP2 PUSH4 0xFFFFFFFF MUL NOT AND SWAP1 DUP4 PUSH4 0xFFFFFFFF AND MUL OR SWAP1 SSTORE POP POP POP PUSH2 0x785 PUSH1 0x4 PUSH2 0xC95 JUMP JUMPDEST CALLER PUSH20 0xFFFFFFFFFFFFFFFFFFFFFFFFFFFFFFFFFFFFFFFF AND PUSH32 0x9A5B8B5CB7F9C536EA5DB1A94142C9F716FB3A8698A9C70A5B8BFAD3922CB06C PUSH2 0x7C7 PUSH1 0x4 PUSH2 0xC87 JUMP JUMPDEST DUP7 DUP7 DUP7 PUSH1 0x3 PUSH1 0x0 PUSH2 0x7D8 PUSH1 0x4 PUSH2 0xC87 JUMP JUMPDEST DUP2 MSTORE PUSH1 0x20 ADD SWAP1 DUP2 MSTORE PUSH1 0x20 ADD PUSH1 0x0 KECCAK256 PUSH1 0x2 ADD SLOAD PUSH1 0x40 MLOAD PUSH2 0x7FB SWAP6 SWAP5 SWAP4 SWAP3 SWAP2 SWAP1 PUSH2 0x148F JUMP JUMPDEST PUSH1 0x40 MLOAD DUP1 SWAP2 SUB SWAP1 LOG2 POP POP POP POP JUMP JUMPDEST PUSH1 0x60 PUSH1 0x0 PUSH2 0x817 PUSH1 0x4 PUSH2 0xC87 JUMP JUMPDEST GT PUSH2 0x857 JUMPI PUSH1 0x40 MLOAD PUSH32 0x8C379A000000000000000000000000000000000000000000000000000000000 DUP2 MSTORE PUSH1 0x4 ADD PUSH2 0x84E SWAP1 PUSH2 0x138B JUMP JUMPDEST PUSH1 0x40 MLOAD DUP1 SWAP2 SUB SWAP1 REVERT JUMPDEST CALLER PUSH20 0xFFFFFFFFFFFFFFFFFFFFFFFFFFFFFFFFFFFFFFFF AND PUSH32 0x440C078A5E11BFF85C6B6D7C52F378C8220355BD3331EC889638C0ECA883670C PUSH1 0x1 PUSH1 0x40 MLOAD PUSH2 0x89E SWAP2 SWAP1 PUSH2 0x134E JUMP JUMPDEST PUSH1 0x40 MLOAD DUP1 SWAP2 SUB SWAP1 LOG2 PUSH1 0x1 DUP1 SLOAD DUP1 PUSH1 0x20 MUL PUSH1 0x20 ADD PUSH1 0x40 MLOAD SWAP1 DUP2 ADD PUSH1 0x40 MSTORE DUP1 SWAP3 SWAP2 SWAP1 DUP2 DUP2 MSTORE PUSH1 0x20 ADD PUSH1 0x0 SWAP1 JUMPDEST DUP3 DUP3 LT ISZERO PUSH2 0xA26 JUMPI DUP4 DUP3 SWAP1 PUSH1 0x0 MSTORE PUSH1 0x20 PUSH1 0x0 KECCAK256 SWAP1 PUSH1 0x6 MUL ADD PUSH1 0x40 MLOAD DUP1 PUSH1 0xC0 ADD PUSH1 0x40 MSTORE SWAP1 DUP2 PUSH1 0x0 DUP3 ADD SLOAD DUP2 MSTORE PUSH1 0x20 ADD PUSH1 0x1 DUP3 ADD DUP1 SLOAD PUSH2 0x905 SWAP1 PUSH2 0x16E5 JUMP JUMPDEST DUP1 PUSH1 0x1F ADD PUSH1 0x20 DUP1 SWAP2 DIV MUL PUSH1 0x20 ADD PUSH1 0x40 MLOAD SWAP1 DUP2 ADD PUSH1 0x40 MSTORE DUP1 SWAP3 SWAP2 SWAP1 DUP2 DUP2 MSTORE PUSH1 0x20 ADD DUP3 DUP1 SLOAD PUSH2 0x931 SWAP1 PUSH2 0x16E5 JUMP JUMPDEST DUP1 ISZERO PUSH2 0x97E JUMPI DUP1 PUSH1 0x1F LT PUSH2 0x953 JUMPI PUSH2 0x100 DUP1 DUP4 SLOAD DIV MUL DUP4 MSTORE SWAP2 PUSH1 0x20 ADD SWAP2 PUSH2 0x97E JUMP JUMPDEST DUP3 ADD SWAP2 SWAP1 PUSH1 0x0 MSTORE PUSH1 0x20 PUSH1 0x0 KECCAK256 SWAP1 JUMPDEST DUP2 SLOAD DUP2 MSTORE SWAP1 PUSH1 0x1 ADD SWAP1 PUSH1 0x20 ADD DUP1 DUP4 GT PUSH2 0x961 JUMPI DUP3 SWAP1 SUB PUSH1 0x1F AND DUP3 ADD SWAP2 JUMPDEST POP POP POP POP POP DUP2 MSTORE PUSH1 0x20 ADD PUSH1 0x2 DUP3 ADD SLOAD DUP2 MSTORE PUSH1 0x20 ADD PUSH1 0x3 DUP3 ADD PUSH1 0x0 SWAP1 SLOAD SWAP1 PUSH2 0x100 EXP SWAP1 DIV PUSH20 0xFFFFFFFFFFFFFFFFFFFFFFFFFFFFFFFFFFFFFFFF AND PUSH20 0xFFFFFFFFFFFFFFFFFFFFFFFFFFFFFFFFFFFFFFFF AND PUSH20 0xFFFFFFFFFFFFFFFFFFFFFFFFFFFFFFFFFFFFFFFF AND DUP2 MSTORE PUSH1 0x20 ADD PUSH1 0x4 DUP3 ADD SLOAD DUP2 MSTORE PUSH1 0x20 ADD PUSH1 0x5 DUP3 ADD PUSH1 0x0 SWAP1 SLOAD SWAP1 PUSH2 0x100 EXP SWAP1 DIV PUSH4 0xFFFFFFFF AND PUSH4 0xFFFFFFFF AND PUSH4 0xFFFFFFFF AND DUP2 MSTORE POP POP DUP2 MSTORE PUSH1 0x20 ADD SWAP1 PUSH1 0x1 ADD SWAP1 PUSH2 0x8C8 JUMP JUMPDEST POP POP POP POP SWAP1 POP SWAP1 JUMP JUMPDEST PUSH1 0x2 PUSH1 0x20 MSTORE DUP1 PUSH1 0x0 MSTORE PUSH1 0x40 PUSH1 0x0 KECCAK256 PUSH1 0x0 SWAP2 POP SWAP1 POP DUP1 PUSH1 0x0 ADD SLOAD SWAP1 DUP1 PUSH1 0x1 ADD DUP1 SLOAD PUSH2 0xA58 SWAP1 PUSH2 0x16E5 JUMP JUMPDEST DUP1 PUSH1 0x1F ADD PUSH1 0x20 DUP1 SWAP2 DIV MUL PUSH1 0x20 ADD PUSH1 0x40 MLOAD SWAP1 DUP2 ADD PUSH1 0x40 MSTORE DUP1 SWAP3 SWAP2 SWAP1 DUP2 DUP2 MSTORE PUSH1 0x20 ADD DUP3 DUP1 SLOAD PUSH2 0xA84 SWAP1 PUSH2 0x16E5 JUMP JUMPDEST DUP1 ISZERO PUSH2 0xAD1 JUMPI DUP1 PUSH1 0x1F LT PUSH2 0xAA6 JUMPI PUSH2 0x100 DUP1 DUP4 SLOAD DIV MUL DUP4 MSTORE SWAP2 PUSH1 0x20 ADD SWAP2 PUSH2 0xAD1 JUMP JUMPDEST DUP3 ADD SWAP2 SWAP1 PUSH1 0x0 MSTORE PUSH1 0x20 PUSH1 0x0 KECCAK256 SWAP1 JUMPDEST DUP2 SLOAD DUP2 MSTORE SWAP1 PUSH1 0x1 ADD SWAP1 PUSH1 0x20 ADD DUP1 DUP4 GT PUSH2 0xAB4 JUMPI DUP3 SWAP1 SUB PUSH1 0x1F AND DUP3 ADD SWAP2 JUMPDEST POP POP POP POP POP SWAP1 DUP1 PUSH1 0x2 ADD DUP1 SLOAD PUSH2 0xAE6 SWAP1 PUSH2 0x16E5 JUMP JUMPDEST DUP1 PUSH1 0x1F ADD PUSH1 0x20 DUP1 SWAP2 DIV MUL PUSH1 0x20 ADD PUSH1 0x40 MLOAD SWAP1 DUP2 ADD PUSH1 0x40 MSTORE DUP1 SWAP3 SWAP2 SWAP1 DUP2 DUP2 MSTORE PUSH1 0x20 ADD DUP3 DUP1 SLOAD PUSH2 0xB12 SWAP1 PUSH2 0x16E5 JUMP JUMPDEST DUP1 ISZERO PUSH2 0xB5F JUMPI DUP1 PUSH1 0x1F LT PUSH2 0xB34 JUMPI PUSH2 0x100 DUP1 DUP4 SLOAD DIV MUL DUP4 MSTORE SWAP2 PUSH1 0x20 ADD SWAP2 PUSH2 0xB5F JUMP JUMPDEST DUP3 ADD SWAP2 SWAP1 PUSH1 0x0 MSTORE PUSH1 0x20 PUSH1 0x0 KECCAK256 SWAP1 JUMPDEST DUP2 SLOAD DUP2 MSTORE SWAP1 PUSH1 0x1 ADD SWAP1 PUSH1 0x20 ADD DUP1 DUP4 GT PUSH2 0xB42 JUMPI DUP3 SWAP1 SUB PUSH1 0x1F AND DUP3 ADD SWAP2 JUMPDEST POP POP POP POP POP SWAP1 DUP1 PUSH1 0x5 ADD SLOAD SWAP1 POP DUP5 JUMP JUMPDEST PUSH1 0x3 PUSH1 0x20 MSTORE DUP1 PUSH1 0x0 MSTORE PUSH1 0x40 PUSH1 0x0 KECCAK256 PUSH1 0x0 SWAP2 POP SWAP1 POP DUP1 PUSH1 0x0 ADD SLOAD SWAP1 DUP1 PUSH1 0x1 ADD DUP1 SLOAD PUSH2 0xB98 SWAP1 PUSH2 0x16E5 JUMP JUMPDEST DUP1 PUSH1 0x1F ADD PUSH1 0x20 DUP1 SWAP2 DIV MUL PUSH1 0x20 ADD PUSH1 0x40 MLOAD SWAP1 DUP2 ADD PUSH1 0x40 MSTORE DUP1 SWAP3 SWAP2 SWAP1 DUP2 DUP2 MSTORE PUSH1 0x20 ADD DUP3 DUP1 SLOAD PUSH2 0xBC4 SWAP1 PUSH2 0x16E5 JUMP JUMPDEST DUP1 ISZERO PUSH2 0xC11 JUMPI DUP1 PUSH1 0x1F LT PUSH2 0xBE6 JUMPI PUSH2 0x100 DUP1 DUP4 SLOAD DIV MUL DUP4 MSTORE SWAP2 PUSH1 0x20 ADD SWAP2 PUSH2 0xC11 JUMP JUMPDEST DUP3 ADD SWAP2 SWAP1 PUSH1 0x0 MSTORE PUSH1 0x20 PUSH1 0x0 KECCAK256 SWAP1 JUMPDEST DUP2 SLOAD DUP2 MSTORE SWAP1 PUSH1 0x1 ADD SWAP1 PUSH1 0x20 ADD DUP1 DUP4 GT PUSH2 0xBF4 JUMPI DUP3 SWAP1 SUB PUSH1 0x1F AND DUP3 ADD SWAP2 JUMPDEST POP POP POP POP POP SWAP1 DUP1 PUSH1 0x2 ADD SLOAD SWAP1 DUP1 PUSH1 0x3 ADD PUSH1 0x0 SWAP1 SLOAD SWAP1 PUSH2 0x100 EXP SWAP1 DIV PUSH20 0xFFFFFFFFFFFFFFFFFFFFFFFFFFFFFFFFFFFFFFFF AND SWAP1 DUP1 PUSH1 0x4 ADD SLOAD SWAP1 DUP1 PUSH1 0x5 ADD PUSH1 0x0 SWAP1 SLOAD SWAP1 PUSH2 0x100 EXP SWAP1 DIV PUSH4 0xFFFFFFFF AND SWAP1 POP DUP7 JUMP JUMPDEST PUSH1 0x0 DUP1 SLOAD SWAP1 PUSH2 0x100 EXP SWAP1 DIV PUSH20 0xFFFFFFFFFFFFFFFFFFFFFFFFFFFFFFFFFFFFFFFF AND DUP2 JUMP JUMPDEST PUSH1 0x0 DUP2 PUSH1 0x0 ADD SLOAD SWAP1 POP SWAP2 SWAP1 POP JUMP JUMPDEST PUSH1 0x1 DUP2 PUSH1 0x0 ADD PUSH1 0x0 DUP3 DUP3 SLOAD ADD SWAP3 POP POP DUP2 SWAP1 SSTORE POP POP JUMP JUMPDEST DUP3 DUP1 SLOAD PUSH2 0xCB7 SWAP1 PUSH2 0x16E5 JUMP JUMPDEST SWAP1 PUSH1 0x0 MSTORE PUSH1 0x20 PUSH1 0x0 KECCAK256 SWAP1 PUSH1 0x1F ADD PUSH1 0x20 SWAP1 DIV DUP2 ADD SWAP3 DUP3 PUSH2 0xCD9 JUMPI PUSH1 0x0 DUP6 SSTORE PUSH2 0xD20 JUMP JUMPDEST DUP3 PUSH1 0x1F LT PUSH2 0xCF2 JUMPI DUP1 MLOAD PUSH1 0xFF NOT AND DUP4 DUP1 ADD OR DUP6 SSTORE PUSH2 0xD20 JUMP JUMPDEST DUP3 DUP1 ADD PUSH1 0x1 ADD DUP6 SSTORE DUP3 ISZERO PUSH2 0xD20 JUMPI SWAP2 DUP3 ADD JUMPDEST DUP3 DUP2 GT ISZERO PUSH2 0xD1F JUMPI DUP3 MLOAD DUP3 SSTORE SWAP2 PUSH1 0x20 ADD SWAP2 SWAP1 PUSH1 0x1 ADD SWAP1 PUSH2 0xD04 JUMP JUMPDEST JUMPDEST POP SWAP1 POP PUSH2 0xD2D SWAP2 SWAP1 PUSH2 0xDBE JUMP JUMPDEST POP SWAP1 JUMP JUMPDEST DUP3 DUP1 SLOAD PUSH2 0xD3D SWAP1 PUSH2 0x16E5 JUMP JUMPDEST SWAP1 PUSH1 0x0 MSTORE PUSH1 0x20 PUSH1 0x0 KECCAK256 SWAP1 PUSH1 0x1F ADD PUSH1 0x20 SWAP1 DIV DUP2 ADD SWAP3 DUP3 PUSH2 0xD5F JUMPI PUSH1 0x0 DUP6 SSTORE PUSH2 0xDAD JUMP JUMPDEST DUP3 PUSH1 0x1F LT PUSH2 0xD70 JUMPI DUP1 SLOAD DUP6 SSTORE PUSH2 0xDAD JUMP JUMPDEST DUP3 DUP1 ADD PUSH1 0x1 ADD DUP6 SSTORE DUP3 ISZERO PUSH2 0xDAD JUMPI PUSH1 0x0 MSTORE PUSH1 0x20 PUSH1 0x0 KECCAK256 SWAP2 PUSH1 0x1F ADD PUSH1 0x20 SWAP1 DIV DUP3 ADD JUMPDEST DUP3 DUP2 GT ISZERO PUSH2 0xDAC JUMPI DUP3 SLOAD DUP3 SSTORE SWAP2 PUSH1 0x1 ADD SWAP2 SWAP1 PUSH1 0x1 ADD SWAP1 PUSH2 0xD91 JUMP JUMPDEST JUMPDEST POP SWAP1 POP PUSH2 0xDBA SWAP2 SWAP1 PUSH2 0xDBE JUMP JUMPDEST POP SWAP1 JUMP JUMPDEST JUMPDEST DUP1 DUP3 GT ISZERO PUSH2 0xDD7 JUMPI PUSH1 0x0 DUP2 PUSH1 0x0 SWAP1 SSTORE POP PUSH1 0x1 ADD PUSH2 0xDBF JUMP JUMPDEST POP SWAP1 JUMP JUMPDEST PUSH1 0x0 PUSH2 0xDEE PUSH2 0xDE9 DUP5 PUSH2 0x150E JUMP JUMPDEST PUSH2 0x14E9 JUMP JUMPDEST SWAP1 POP DUP3 DUP2 MSTORE PUSH1 0x20 DUP2 ADD DUP5 DUP5 DUP5 ADD GT ISZERO PUSH2 0xE0A JUMPI PUSH2 0xE09 PUSH2 0x1871 JUMP JUMPDEST JUMPDEST PUSH2 0xE15 DUP5 DUP3 DUP6 PUSH2 0x16A3 JUMP JUMPDEST POP SWAP4 SWAP3 POP POP POP JUMP JUMPDEST PUSH1 0x0 DUP2 CALLDATALOAD SWAP1 POP PUSH2 0xE2C DUP2 PUSH2 0x18ED JUMP JUMPDEST SWAP3 SWAP2 POP POP JUMP JUMPDEST PUSH1 0x0 DUP3 PUSH1 0x1F DUP4 ADD SLT PUSH2 0xE47 JUMPI PUSH2 0xE46 PUSH2 0x186C JUMP JUMPDEST JUMPDEST DUP2 CALLDATALOAD PUSH2 0xE57 DUP5 DUP3 PUSH1 0x20 DUP7 ADD PUSH2 0xDDB JUMP JUMPDEST SWAP2 POP POP SWAP3 SWAP2 POP POP JUMP JUMPDEST PUSH1 0x0 DUP2 CALLDATALOAD SWAP1 POP PUSH2 0xE6F DUP2 PUSH2 0x1904 JUMP JUMPDEST SWAP3 SWAP2 POP POP JUMP JUMPDEST PUSH1 0x0 DUP2 CALLDATALOAD SWAP1 POP PUSH2 0xE84 DUP2 PUSH2 0x191B JUMP JUMPDEST SWAP3 SWAP2 POP POP JUMP JUMPDEST PUSH1 0x0 PUSH1 0x20 DUP3 DUP5 SUB SLT ISZERO PUSH2 0xEA0 JUMPI PUSH2 0xE9F PUSH2 0x187B JUMP JUMPDEST JUMPDEST PUSH1 0x0 PUSH2 0xEAE DUP5 DUP3 DUP6 ADD PUSH2 0xE1D JUMP JUMPDEST SWAP2 POP POP SWAP3 SWAP2 POP POP JUMP JUMPDEST PUSH1 0x0 PUSH1 0x20 DUP3 DUP5 SUB SLT ISZERO PUSH2 0xECD JUMPI PUSH2 0xECC PUSH2 0x187B JUMP JUMPDEST JUMPDEST PUSH1 0x0 PUSH2 0xEDB DUP5 DUP3 DUP6 ADD PUSH2 0xE60 JUMP JUMPDEST SWAP2 POP POP SWAP3 SWAP2 POP POP JUMP JUMPDEST PUSH1 0x0 DUP1 PUSH1 0x0 PUSH1 0x60 DUP5 DUP7 SUB SLT ISZERO PUSH2 0xEFD JUMPI PUSH2 0xEFC PUSH2 0x187B JUMP JUMPDEST JUMPDEST PUSH1 0x0 PUSH2 0xF0B DUP7 DUP3 DUP8 ADD PUSH2 0xE60 JUMP JUMPDEST SWAP4 POP POP PUSH1 0x20 DUP5 ADD CALLDATALOAD PUSH8 0xFFFFFFFFFFFFFFFF DUP2 GT ISZERO PUSH2 0xF2C JUMPI PUSH2 0xF2B PUSH2 0x1876 JUMP JUMPDEST JUMPDEST PUSH2 0xF38 DUP7 DUP3 DUP8 ADD PUSH2 0xE32 JUMP JUMPDEST SWAP3 POP POP PUSH1 0x40 PUSH2 0xF49 DUP7 DUP3 DUP8 ADD PUSH2 0xE75 JUMP JUMPDEST SWAP2 POP POP SWAP3 POP SWAP3 POP SWAP3 JUMP JUMPDEST PUSH1 0x0 PUSH2 0xF5F DUP4 DUP4 PUSH2 0x11A6 JUMP JUMPDEST SWAP1 POP SWAP3 SWAP2 POP POP JUMP JUMPDEST PUSH1 0x0 PUSH2 0xF73 DUP4 DUP4 PUSH2 0x122F JUMP JUMPDEST SWAP1 POP SWAP3 SWAP2 POP POP JUMP JUMPDEST PUSH2 0xF84 DUP2 PUSH2 0x1621 JUMP JUMPDEST DUP3 MSTORE POP POP JUMP JUMPDEST PUSH2 0xF93 DUP2 PUSH2 0x1621 JUMP JUMPDEST DUP3 MSTORE POP POP JUMP JUMPDEST PUSH1 0x0 PUSH2 0xFA4 DUP3 PUSH2 0x1579 JUMP JUMPDEST PUSH2 0xFAE DUP2 DUP6 PUSH2 0x15B4 JUMP JUMPDEST SWAP4 POP DUP4 PUSH1 0x20 DUP3 MUL DUP6 ADD PUSH2 0xFC0 DUP6 PUSH2 0x153F JUMP JUMPDEST DUP1 PUSH1 0x0 JUMPDEST DUP6 DUP2 LT ISZERO PUSH2 0xFFC JUMPI DUP5 DUP5 SUB DUP10 MSTORE DUP2 MLOAD PUSH2 0xFDD DUP6 DUP3 PUSH2 0xF53 JUMP JUMPDEST SWAP5 POP PUSH2 0xFE8 DUP4 PUSH2 0x159A JUMP JUMPDEST SWAP3 POP PUSH1 0x20 DUP11 ADD SWAP10 POP POP PUSH1 0x1 DUP2 ADD SWAP1 POP PUSH2 0xFC4 JUMP JUMPDEST POP DUP3 SWAP8 POP DUP8 SWAP6 POP POP POP POP POP POP SWAP3 SWAP2 POP POP JUMP JUMPDEST PUSH1 0x0 PUSH2 0x1019 DUP3 PUSH2 0x1584 JUMP JUMPDEST PUSH2 0x1023 DUP2 DUP6 PUSH2 0x15B4 JUMP JUMPDEST SWAP4 POP DUP4 PUSH1 0x20 DUP3 MUL DUP6 ADD PUSH2 0x1035 DUP6 PUSH2 0x154F JUMP JUMPDEST DUP1 PUSH1 0x0 JUMPDEST DUP6 DUP2 LT ISZERO PUSH2 0x1070 JUMPI DUP5 DUP5 SUB DUP10 MSTORE DUP2 PUSH2 0x1051 DUP6 DUP3 PUSH2 0xF67 JUMP JUMPDEST SWAP5 POP PUSH2 0x105C DUP4 PUSH2 0x15A7 JUMP JUMPDEST SWAP3 POP PUSH1 0x20 DUP11 ADD SWAP10 POP POP PUSH1 0x1 DUP2 ADD SWAP1 POP PUSH2 0x1039 JUMP JUMPDEST POP DUP3 SWAP8 POP DUP8 SWAP6 POP POP POP POP POP POP SWAP3 SWAP2 POP POP JUMP JUMPDEST PUSH2 0x108B DUP2 PUSH2 0x166D JUMP JUMPDEST DUP3 MSTORE POP POP JUMP JUMPDEST PUSH1 0x0 PUSH2 0x109C DUP3 PUSH2 0x158F JUMP JUMPDEST PUSH2 0x10A6 DUP2 DUP6 PUSH2 0x15C5 JUMP JUMPDEST SWAP4 POP PUSH2 0x10B6 DUP2 DUP6 PUSH1 0x20 DUP7 ADD PUSH2 0x16B2 JUMP JUMPDEST PUSH2 0x10BF DUP2 PUSH2 0x1880 JUMP JUMPDEST DUP5 ADD SWAP2 POP POP SWAP3 SWAP2 POP POP JUMP JUMPDEST PUSH1 0x0 PUSH2 0x10D5 DUP3 PUSH2 0x158F JUMP JUMPDEST PUSH2 0x10DF DUP2 DUP6 PUSH2 0x15D6 JUMP JUMPDEST SWAP4 POP PUSH2 0x10EF DUP2 DUP6 PUSH1 0x20 DUP7 ADD PUSH2 0x16B2 JUMP JUMPDEST PUSH2 0x10F8 DUP2 PUSH2 0x1880 JUMP JUMPDEST DUP5 ADD SWAP2 POP POP SWAP3 SWAP2 POP POP JUMP JUMPDEST PUSH1 0x0 DUP2 SLOAD PUSH2 0x1110 DUP2 PUSH2 0x16E5 JUMP JUMPDEST PUSH2 0x111A DUP2 DUP7 PUSH2 0x15C5 JUMP JUMPDEST SWAP5 POP PUSH1 0x1 DUP3 AND PUSH1 0x0 DUP2 EQ PUSH2 0x1135 JUMPI PUSH1 0x1 DUP2 EQ PUSH2 0x1147 JUMPI PUSH2 0x117A JUMP JUMPDEST PUSH1 0xFF NOT DUP4 AND DUP7 MSTORE PUSH1 0x20 DUP7 ADD SWAP4 POP PUSH2 0x117A JUMP JUMPDEST PUSH2 0x1150 DUP6 PUSH2 0x1564 JUMP JUMPDEST PUSH1 0x0 JUMPDEST DUP4 DUP2 LT ISZERO PUSH2 0x1172 JUMPI DUP2 SLOAD DUP2 DUP10 ADD MSTORE PUSH1 0x1 DUP3 ADD SWAP2 POP PUSH1 0x20 DUP2 ADD SWAP1 POP PUSH2 0x1153 JUMP JUMPDEST DUP1 DUP9 ADD SWAP6 POP POP POP JUMPDEST POP POP POP SWAP3 SWAP2 POP POP JUMP JUMPDEST PUSH1 0x0 PUSH2 0x1190 PUSH1 0x22 DUP4 PUSH2 0x15D6 JUMP JUMPDEST SWAP2 POP PUSH2 0x119B DUP3 PUSH2 0x189E JUMP JUMPDEST PUSH1 0x40 DUP3 ADD SWAP1 POP SWAP2 SWAP1 POP JUMP JUMPDEST PUSH1 0x0 PUSH1 0xC0 DUP4 ADD PUSH1 0x0 DUP4 ADD MLOAD PUSH2 0x11BE PUSH1 0x0 DUP7 ADD DUP3 PUSH2 0x12F0 JUMP JUMPDEST POP PUSH1 0x20 DUP4 ADD MLOAD DUP5 DUP3 SUB PUSH1 0x20 DUP7 ADD MSTORE PUSH2 0x11D6 DUP3 DUP3 PUSH2 0x1091 JUMP JUMPDEST SWAP2 POP POP PUSH1 0x40 DUP4 ADD MLOAD PUSH2 0x11EB PUSH1 0x40 DUP7 ADD DUP3 PUSH2 0x12F0 JUMP JUMPDEST POP PUSH1 0x60 DUP4 ADD MLOAD PUSH2 0x11FE PUSH1 0x60 DUP7 ADD DUP3 PUSH2 0xF7B JUMP JUMPDEST POP PUSH1 0x80 DUP4 ADD MLOAD PUSH2 0x1211 PUSH1 0x80 DUP7 ADD DUP3 PUSH2 0x12F0 JUMP JUMPDEST POP PUSH1 0xA0 DUP4 ADD MLOAD PUSH2 0x1224 PUSH1 0xA0 DUP7 ADD DUP3 PUSH2 0x130E JUMP JUMPDEST POP DUP1 SWAP2 POP POP SWAP3 SWAP2 POP POP JUMP JUMPDEST PUSH1 0x0 PUSH1 0xC0 DUP4 ADD PUSH1 0x0 DUP1 DUP5 ADD SLOAD SWAP1 POP PUSH2 0x1246 DUP2 PUSH2 0x1731 JUMP JUMPDEST PUSH2 0x1253 PUSH1 0x0 DUP8 ADD DUP3 PUSH2 0x12F0 JUMP JUMPDEST POP PUSH1 0x1 DUP5 ADD DUP6 DUP4 SUB PUSH1 0x20 DUP8 ADD MSTORE PUSH2 0x126A DUP4 DUP3 PUSH2 0x1103 JUMP JUMPDEST SWAP3 POP POP PUSH1 0x2 DUP5 ADD SLOAD SWAP1 POP PUSH2 0x127D DUP2 PUSH2 0x1731 JUMP JUMPDEST PUSH2 0x128A PUSH1 0x40 DUP8 ADD DUP3 PUSH2 0x12F0 JUMP JUMPDEST POP PUSH1 0x3 DUP5 ADD SLOAD SWAP1 POP PUSH2 0x129B DUP2 PUSH2 0x1717 JUMP JUMPDEST PUSH2 0x12A8 PUSH1 0x60 DUP8 ADD DUP3 PUSH2 0xF7B JUMP JUMPDEST POP PUSH1 0x4 DUP5 ADD SLOAD SWAP1 POP PUSH2 0x12B9 DUP2 PUSH2 0x1731 JUMP JUMPDEST PUSH2 0x12C6 PUSH1 0x80 DUP8 ADD DUP3 PUSH2 0x12F0 JUMP JUMPDEST POP PUSH1 0x5 DUP5 ADD SLOAD SWAP1 POP PUSH2 0x12D7 DUP2 PUSH2 0x174B JUMP JUMPDEST PUSH2 0x12E4 PUSH1 0xA0 DUP8 ADD DUP3 PUSH2 0x130E JUMP JUMPDEST POP DUP2 SWAP3 POP POP POP SWAP3 SWAP2 POP POP JUMP JUMPDEST PUSH2 0x12F9 DUP2 PUSH2 0x1653 JUMP JUMPDEST DUP3 MSTORE POP POP JUMP JUMPDEST PUSH2 0x1308 DUP2 PUSH2 0x1653 JUMP JUMPDEST DUP3 MSTORE POP POP JUMP JUMPDEST PUSH2 0x1317 DUP2 PUSH2 0x165D JUMP JUMPDEST DUP3 MSTORE POP POP JUMP JUMPDEST PUSH2 0x1326 DUP2 PUSH2 0x165D JUMP JUMPDEST DUP3 MSTORE POP POP JUMP JUMPDEST PUSH1 0x0 PUSH1 0x20 DUP3 ADD SWAP1 POP DUP2 DUP2 SUB PUSH1 0x0 DUP4 ADD MSTORE PUSH2 0x1346 DUP2 DUP5 PUSH2 0xF99 JUMP JUMPDEST SWAP1 POP SWAP3 SWAP2 POP POP JUMP JUMPDEST PUSH1 0x0 PUSH1 0x20 DUP3 ADD SWAP1 POP DUP2 DUP2 SUB PUSH1 0x0 DUP4 ADD MSTORE PUSH2 0x1368 DUP2 DUP5 PUSH2 0x100E JUMP JUMPDEST SWAP1 POP SWAP3 SWAP2 POP POP JUMP JUMPDEST PUSH1 0x0 PUSH1 0x20 DUP3 ADD SWAP1 POP PUSH2 0x1385 PUSH1 0x0 DUP4 ADD DUP5 PUSH2 0x1082 JUMP JUMPDEST SWAP3 SWAP2 POP POP JUMP JUMPDEST PUSH1 0x0 PUSH1 0x20 DUP3 ADD SWAP1 POP DUP2 DUP2 SUB PUSH1 0x0 DUP4 ADD MSTORE PUSH2 0x13A4 DUP2 PUSH2 0x1183 JUMP JUMPDEST SWAP1 POP SWAP2 SWAP1 POP JUMP JUMPDEST PUSH1 0x0 PUSH1 0x80 DUP3 ADD SWAP1 POP PUSH2 0x13C0 PUSH1 0x0 DUP4 ADD DUP8 PUSH2 0x12FF JUMP JUMPDEST DUP2 DUP2 SUB PUSH1 0x20 DUP4 ADD MSTORE PUSH2 0x13D2 DUP2 DUP7 PUSH2 0x10CA JUMP JUMPDEST SWAP1 POP DUP2 DUP2 SUB PUSH1 0x40 DUP4 ADD MSTORE PUSH2 0x13E6 DUP2 DUP6 PUSH2 0x10CA JUMP JUMPDEST SWAP1 POP PUSH2 0x13F5 PUSH1 0x60 DUP4 ADD DUP5 PUSH2 0x12FF JUMP JUMPDEST SWAP6 SWAP5 POP POP POP POP POP JUMP JUMPDEST PUSH1 0x0 PUSH1 0xC0 DUP3 ADD SWAP1 POP PUSH2 0x1413 PUSH1 0x0 DUP4 ADD DUP10 PUSH2 0x12FF JUMP JUMPDEST DUP2 DUP2 SUB PUSH1 0x20 DUP4 ADD MSTORE PUSH2 0x1425 DUP2 DUP9 PUSH2 0x10CA JUMP JUMPDEST SWAP1 POP PUSH2 0x1434 PUSH1 0x40 DUP4 ADD DUP8 PUSH2 0x12FF JUMP JUMPDEST PUSH2 0x1441 PUSH1 0x60 DUP4 ADD DUP7 PUSH2 0xF8A JUMP JUMPDEST PUSH2 0x144E PUSH1 0x80 DUP4 ADD DUP6 PUSH2 0x12FF JUMP JUMPDEST PUSH2 0x145B PUSH1 0xA0 DUP4 ADD DUP5 PUSH2 0x131D JUMP JUMPDEST SWAP8 SWAP7 POP POP POP POP POP POP POP JUMP JUMPDEST PUSH1 0x0 PUSH1 0x40 DUP3 ADD SWAP1 POP PUSH2 0x147B PUSH1 0x0 DUP4 ADD DUP6 PUSH2 0x12FF JUMP JUMPDEST PUSH2 0x1488 PUSH1 0x20 DUP4 ADD DUP5 PUSH2 0x12FF JUMP JUMPDEST SWAP4 SWAP3 POP POP POP JUMP JUMPDEST PUSH1 0x0 PUSH1 0xA0 DUP3 ADD SWAP1 POP PUSH2 0x14A4 PUSH1 0x0 DUP4 ADD DUP9 PUSH2 0x12FF JUMP JUMPDEST PUSH2 0x14B1 PUSH1 0x20 DUP4 ADD DUP8 PUSH2 0x12FF JUMP JUMPDEST DUP2 DUP2 SUB PUSH1 0x40 DUP4 ADD MSTORE PUSH2 0x14C3 DUP2 DUP7 PUSH2 0x10CA JUMP JUMPDEST SWAP1 POP PUSH2 0x14D2 PUSH1 0x60 DUP4 ADD DUP6 PUSH2 0x131D JUMP JUMPDEST PUSH2 0x14DF PUSH1 0x80 DUP4 ADD DUP5 PUSH2 0x12FF JUMP JUMPDEST SWAP7 SWAP6 POP POP POP POP POP POP JUMP JUMPDEST PUSH1 0x0 PUSH2 0x14F3 PUSH2 0x1504 JUMP JUMPDEST SWAP1 POP PUSH2 0x14FF DUP3 DUP3 PUSH2 0x1765 JUMP JUMPDEST SWAP2 SWAP1 POP JUMP JUMPDEST PUSH1 0x0 PUSH1 0x40 MLOAD SWAP1 POP SWAP1 JUMP JUMPDEST PUSH1 0x0 PUSH8 0xFFFFFFFFFFFFFFFF DUP3 GT ISZERO PUSH2 0x1529 JUMPI PUSH2 0x1528 PUSH2 0x183D JUMP JUMPDEST JUMPDEST PUSH2 0x1532 DUP3 PUSH2 0x1880 JUMP JUMPDEST SWAP1 POP PUSH1 0x20 DUP2 ADD SWAP1 POP SWAP2 SWAP1 POP JUMP JUMPDEST PUSH1 0x0 DUP2 SWAP1 POP PUSH1 0x20 DUP3 ADD SWAP1 POP SWAP2 SWAP1 POP JUMP JUMPDEST PUSH1 0x0 DUP2 SWAP1 POP DUP2 PUSH1 0x0 MSTORE PUSH1 0x20 PUSH1 0x0 KECCAK256 SWAP1 POP SWAP2 SWAP1 POP JUMP JUMPDEST PUSH1 0x0 DUP2 SWAP1 POP DUP2 PUSH1 0x0 MSTORE PUSH1 0x20 PUSH1 0x0 KECCAK256 SWAP1 POP SWAP2 SWAP1 POP JUMP JUMPDEST PUSH1 0x0 DUP2 MLOAD SWAP1 POP SWAP2 SWAP1 POP JUMP JUMPDEST PUSH1 0x0 DUP2 SLOAD SWAP1 POP SWAP2 SWAP1 POP JUMP JUMPDEST PUSH1 0x0 DUP2 MLOAD SWAP1 POP SWAP2 SWAP1 POP JUMP JUMPDEST PUSH1 0x0 PUSH1 0x20 DUP3 ADD SWAP1 POP SWAP2 SWAP1 POP JUMP JUMPDEST PUSH1 0x0 PUSH1 0x6 DUP3 ADD SWAP1 POP SWAP2 SWAP1 POP JUMP JUMPDEST PUSH1 0x0 DUP3 DUP3 MSTORE PUSH1 0x20 DUP3 ADD SWAP1 POP SWAP3 SWAP2 POP POP JUMP JUMPDEST PUSH1 0x0 DUP3 DUP3 MSTORE PUSH1 0x20 DUP3 ADD SWAP1 POP SWAP3 SWAP2 POP POP JUMP JUMPDEST PUSH1 0x0 DUP3 DUP3 MSTORE PUSH1 0x20 DUP3 ADD SWAP1 POP SWAP3 SWAP2 POP POP JUMP JUMPDEST PUSH1 0x0 PUSH20 0xFFFFFFFFFFFFFFFFFFFFFFFFFFFFFFFFFFFFFFFF DUP3 AND SWAP1 POP SWAP2 SWAP1 POP JUMP JUMPDEST PUSH1 0x0 DUP2 SWAP1 POP SWAP2 SWAP1 POP JUMP JUMPDEST PUSH1 0x0 PUSH4 0xFFFFFFFF DUP3 AND SWAP1 POP SWAP2 SWAP1 POP JUMP JUMPDEST PUSH1 0x0 PUSH2 0x162C DUP3 PUSH2 0x1633 JUMP JUMPDEST SWAP1 POP SWAP2 SWAP1 POP JUMP JUMPDEST PUSH1 0x0 PUSH20 0xFFFFFFFFFFFFFFFFFFFFFFFFFFFFFFFFFFFFFFFF DUP3 AND SWAP1 POP SWAP2 SWAP1 POP JUMP JUMPDEST PUSH1 0x0 DUP2 SWAP1 POP SWAP2 SWAP1 POP JUMP JUMPDEST PUSH1 0x0 PUSH4 0xFFFFFFFF DUP3 AND SWAP1 POP SWAP2 SWAP1 POP JUMP JUMPDEST PUSH1 0x0 PUSH2 0x1678 DUP3 PUSH2 0x167F JUMP JUMPDEST SWAP1 POP SWAP2 SWAP1 POP JUMP JUMPDEST PUSH1 0x0 PUSH2 0x168A DUP3 PUSH2 0x1691 JUMP JUMPDEST SWAP1 POP SWAP2 SWAP1 POP JUMP JUMPDEST PUSH1 0x0 PUSH2 0x169C DUP3 PUSH2 0x1633 JUMP JUMPDEST SWAP1 POP SWAP2 SWAP1 POP JUMP JUMPDEST DUP3 DUP2 DUP4 CALLDATACOPY PUSH1 0x0 DUP4 DUP4 ADD MSTORE POP POP POP JUMP JUMPDEST PUSH1 0x0 JUMPDEST DUP4 DUP2 LT ISZERO PUSH2 0x16D0 JUMPI DUP1 DUP3 ADD MLOAD DUP2 DUP5 ADD MSTORE PUSH1 0x20 DUP2 ADD SWAP1 POP PUSH2 0x16B5 JUMP JUMPDEST DUP4 DUP2 GT ISZERO PUSH2 0x16DF JUMPI PUSH1 0x0 DUP5 DUP5 ADD MSTORE JUMPDEST POP POP POP POP JUMP JUMPDEST PUSH1 0x0 PUSH1 0x2 DUP3 DIV SWAP1 POP PUSH1 0x1 DUP3 AND DUP1 PUSH2 0x16FD JUMPI PUSH1 0x7F DUP3 AND SWAP2 POP JUMPDEST PUSH1 0x20 DUP3 LT DUP2 EQ ISZERO PUSH2 0x1711 JUMPI PUSH2 0x1710 PUSH2 0x180E JUMP JUMPDEST JUMPDEST POP SWAP2 SWAP1 POP JUMP JUMPDEST PUSH1 0x0 PUSH2 0x172A PUSH2 0x1725 DUP4 PUSH2 0x1891 JUMP JUMPDEST PUSH2 0x15E7 JUMP JUMPDEST SWAP1 POP SWAP2 SWAP1 POP JUMP JUMPDEST PUSH1 0x0 PUSH2 0x1744 PUSH2 0x173F DUP4 PUSH2 0x1891 JUMP JUMPDEST PUSH2 0x1607 JUMP JUMPDEST SWAP1 POP SWAP2 SWAP1 POP JUMP JUMPDEST PUSH1 0x0 PUSH2 0x175E PUSH2 0x1759 DUP4 PUSH2 0x1891 JUMP JUMPDEST PUSH2 0x1611 JUMP JUMPDEST SWAP1 POP SWAP2 SWAP1 POP JUMP JUMPDEST PUSH2 0x176E DUP3 PUSH2 0x1880 JUMP JUMPDEST DUP2 ADD DUP2 DUP2 LT PUSH8 0xFFFFFFFFFFFFFFFF DUP3 GT OR ISZERO PUSH2 0x178D JUMPI PUSH2 0x178C PUSH2 0x183D JUMP JUMPDEST JUMPDEST DUP1 PUSH1 0x40 MSTORE POP POP POP JUMP JUMPDEST PUSH1 0x0 PUSH2 0x17A1 DUP3 PUSH2 0x1653 JUMP JUMPDEST SWAP2 POP PUSH32 0xFFFFFFFFFFFFFFFFFFFFFFFFFFFFFFFFFFFFFFFFFFFFFFFFFFFFFFFFFFFFFFFF DUP3 EQ ISZERO PUSH2 0x17D4 JUMPI PUSH2 0x17D3 PUSH2 0x17DF JUMP JUMPDEST JUMPDEST PUSH1 0x1 DUP3 ADD SWAP1 POP SWAP2 SWAP1 POP JUMP JUMPDEST PUSH32 0x4E487B7100000000000000000000000000000000000000000000000000000000 PUSH1 0x0 MSTORE PUSH1 0x11 PUSH1 0x4 MSTORE PUSH1 0x24 PUSH1 0x0 REVERT JUMPDEST PUSH32 0x4E487B7100000000000000000000000000000000000000000000000000000000 PUSH1 0x0 MSTORE PUSH1 0x22 PUSH1 0x4 MSTORE PUSH1 0x24 PUSH1 0x0 REVERT JUMPDEST PUSH32 0x4E487B7100000000000000000000000000000000000000000000000000000000 PUSH1 0x0 MSTORE PUSH1 0x41 PUSH1 0x4 MSTORE PUSH1 0x24 PUSH1 0x0 REVERT JUMPDEST PUSH1 0x0 DUP1 REVERT JUMPDEST PUSH1 0x0 DUP1 REVERT JUMPDEST PUSH1 0x0 DUP1 REVERT JUMPDEST PUSH1 0x0 DUP1 REVERT JUMPDEST PUSH1 0x0 PUSH1 0x1F NOT PUSH1 0x1F DUP4 ADD AND SWAP1 POP SWAP2 SWAP1 POP JUMP JUMPDEST PUSH1 0x0 DUP2 PUSH1 0x0 SHR SWAP1 POP SWAP2 SWAP1 POP JUMP JUMPDEST PUSH32 0x546865726520617265206E6F2070726F647563747320746F206C697374207965 PUSH1 0x0 DUP3 ADD MSTORE PUSH32 0x7421000000000000000000000000000000000000000000000000000000000000 PUSH1 0x20 DUP3 ADD MSTORE POP JUMP JUMPDEST PUSH2 0x18F6 DUP2 PUSH2 0x1621 JUMP JUMPDEST DUP2 EQ PUSH2 0x1901 JUMPI PUSH1 0x0 DUP1 REVERT JUMPDEST POP JUMP JUMPDEST PUSH2 0x190D DUP2 PUSH2 0x1653 JUMP JUMPDEST DUP2 EQ PUSH2 0x1918 JUMPI PUSH1 0x0 DUP1 REVERT JUMPDEST POP JUMP JUMPDEST PUSH2 0x1924 DUP2 PUSH2 0x165D JUMP JUMPDEST DUP2 EQ PUSH2 0x192F JUMPI PUSH1 0x0 DUP1 REVERT JUMPDEST POP JUMP INVALID LOG2 PUSH5 0x6970667358 0x22 SLT KECCAK256 ORIGIN PC SLT 0xBB 0x2E DUP2 PUSH26 0xC11694EDF79408277C9DBAE749F0C62C752C669193BF46D22764 PUSH20 0x6F6C634300080700330000000000000000000000 "
				},
				"gasEstimates": {
					"creation": {
						"codeDepositCost": "1300800",
						"executionCost": "infinite",
						"totalCost": "infinite"
					},
					"external": {
						"addStar(uint256)": "infinite",
						"createSaleAdvert(uint256,string,uint32)": "infinite",
						"getEntireItems()": "infinite",
						"itemList(uint256)": "infinite",
						"items(uint256)": "infinite",
						"token()": "2663",
						"users(address)": "infinite"
					}
				},
				"methodIdentifiers": {
					"addStar(uint256)": "01750e74",
					"createSaleAdvert(uint256,string,uint32)": "4efd1797",
					"getEntireItems()": "5d9eb55c",
					"itemList(uint256)": "3d4d3600",
					"items(uint256)": "bfb231d2",
					"token()": "fc0c546a",
					"users(address)": "a87430ba"
				}
			},
			"storageLayout": {
				"storage": [
					{
						"astId": 821,
						"contract": "contracts/SwapCart.sol:SwapCart",
						"label": "token",
						"offset": 0,
						"slot": "0",
						"type": "t_contract(IERC20)663"
					},
					{
						"astId": 825,
						"contract": "contracts/SwapCart.sol:SwapCart",
						"label": "itemList",
						"offset": 0,
						"slot": "1",
						"type": "t_array(t_struct(Item)801_storage)dyn_storage"
					},
					{
						"astId": 830,
						"contract": "contracts/SwapCart.sol:SwapCart",
						"label": "users",
						"offset": 0,
						"slot": "2",
						"type": "t_mapping(t_address,t_struct(User)818_storage)"
					},
					{
						"astId": 835,
						"contract": "contracts/SwapCart.sol:SwapCart",
						"label": "items",
						"offset": 0,
						"slot": "3",
						"type": "t_mapping(t_uint256,t_struct(Item)801_storage)"
					},
					{
						"astId": 842,
						"contract": "contracts/SwapCart.sol:SwapCart",
						"label": "itemCounter",
						"offset": 0,
						"slot": "4",
						"type": "t_struct(Counter)716_storage"
					}
				],
				"types": {
					"t_address": {
						"encoding": "inplace",
						"label": "address",
						"numberOfBytes": "20"
					},
					"t_array(t_struct(Item)801_storage)dyn_storage": {
						"base": "t_struct(Item)801_storage",
						"encoding": "dynamic_array",
						"label": "struct SwapCart.Item[]",
						"numberOfBytes": "32"
					},
					"t_contract(IERC20)663": {
						"encoding": "inplace",
						"label": "contract IERC20",
						"numberOfBytes": "20"
					},
					"t_mapping(t_address,t_struct(User)818_storage)": {
						"encoding": "mapping",
						"key": "t_address",
						"label": "mapping(address => struct SwapCart.User)",
						"numberOfBytes": "32",
						"value": "t_struct(User)818_storage"
					},
					"t_mapping(t_uint256,t_struct(Item)801_storage)": {
						"encoding": "mapping",
						"key": "t_uint256",
						"label": "mapping(uint256 => struct SwapCart.Item)",
						"numberOfBytes": "32",
						"value": "t_struct(Item)801_storage"
					},
					"t_string_storage": {
						"encoding": "bytes",
						"label": "string",
						"numberOfBytes": "32"
					},
					"t_struct(Counter)716_storage": {
						"encoding": "inplace",
						"label": "struct Counters.Counter",
						"members": [
							{
								"astId": 715,
								"contract": "contracts/SwapCart.sol:SwapCart",
								"label": "_value",
								"offset": 0,
								"slot": "0",
								"type": "t_uint256"
							}
						],
						"numberOfBytes": "32"
					},
					"t_struct(Item)801_storage": {
						"encoding": "inplace",
						"label": "struct SwapCart.Item",
						"members": [
							{
								"astId": 790,
								"contract": "contracts/SwapCart.sol:SwapCart",
								"label": "itemId",
								"offset": 0,
								"slot": "0",
								"type": "t_uint256"
							},
							{
								"astId": 792,
								"contract": "contracts/SwapCart.sol:SwapCart",
								"label": "itemImage",
								"offset": 0,
								"slot": "1",
								"type": "t_string_storage"
							},
							{
								"astId": 794,
								"contract": "contracts/SwapCart.sol:SwapCart",
								"label": "star",
								"offset": 0,
								"slot": "2",
								"type": "t_uint256"
							},
							{
								"astId": 796,
								"contract": "contracts/SwapCart.sol:SwapCart",
								"label": "seller",
								"offset": 0,
								"slot": "3",
								"type": "t_address"
							},
							{
								"astId": 798,
								"contract": "contracts/SwapCart.sol:SwapCart",
								"label": "price",
								"offset": 0,
								"slot": "4",
								"type": "t_uint256"
							},
							{
								"astId": 800,
								"contract": "contracts/SwapCart.sol:SwapCart",
								"label": "dueDate",
								"offset": 0,
								"slot": "5",
								"type": "t_uint32"
							}
						],
						"numberOfBytes": "192"
					},
					"t_struct(User)818_storage": {
						"encoding": "inplace",
						"label": "struct SwapCart.User",
						"members": [
							{
								"astId": 803,
								"contract": "contracts/SwapCart.sol:SwapCart",
								"label": "userID",
								"offset": 0,
								"slot": "0",
								"type": "t_uint256"
							},
							{
								"astId": 805,
								"contract": "contracts/SwapCart.sol:SwapCart",
								"label": "userName",
								"offset": 0,
								"slot": "1",
								"type": "t_string_storage"
							},
							{
								"astId": 807,
								"contract": "contracts/SwapCart.sol:SwapCart",
								"label": "deliveryAddress",
								"offset": 0,
								"slot": "2",
								"type": "t_string_storage"
							},
							{
								"astId": 811,
								"contract": "contracts/SwapCart.sol:SwapCart",
								"label": "cart",
								"offset": 0,
								"slot": "3",
								"type": "t_array(t_struct(Item)801_storage)dyn_storage"
							},
							{
								"astId": 815,
								"contract": "contracts/SwapCart.sol:SwapCart",
								"label": "inventory",
								"offset": 0,
								"slot": "4",
								"type": "t_array(t_struct(Item)801_storage)dyn_storage"
							},
							{
								"astId": 817,
								"contract": "contracts/SwapCart.sol:SwapCart",
								"label": "balance",
								"offset": 0,
								"slot": "5",
								"type": "t_uint256"
							}
						],
						"numberOfBytes": "192"
					},
					"t_uint256": {
						"encoding": "inplace",
						"label": "uint256",
						"numberOfBytes": "32"
					},
					"t_uint32": {
						"encoding": "inplace",
						"label": "uint32",
						"numberOfBytes": "4"
					}
				}
			},
			"userdoc": {
				"kind": "user",
				"methods": {},
				"version": 1
			}
		}
	}
}