{
	"data": {
		"bytecode": {
			"linkReferences": {},
			"object": "60a06040523480156200001157600080fd5b5060405162002f5538038062002f5583398181016040528101906200003791906200008c565b8073ffffffffffffffffffffffffffffffffffffffff1660808173ffffffffffffffffffffffffffffffffffffffff1660601b815250505062000111565b6000815190506200008681620000f7565b92915050565b600060208284031215620000a557620000a4620000f2565b5b6000620000b58482850162000075565b91505092915050565b6000620000cb82620000d2565b9050919050565b600073ffffffffffffffffffffffffffffffffffffffff82169050919050565b600080fd5b6200010281620000be565b81146200010e57600080fd5b50565b60805160601c612e176200013e6000396000818161092201528181611a690152611b920152612e176000f3fe608060405234801561001057600080fd5b50600436106100b45760003560e01c8063bfb231d211610071578063bfb231d214610193578063ca095a83146101c8578063cd2f0710146101e4578063de59c32214610214578063e2870aa914610230578063fc0c546a14610260576100b4565b806301750e74146100b95780632f63147f146100d55780633d4d3600146100f15780634efd1797146101265780635d9eb55c14610142578063a87430ba14610160575b600080fd5b6100d360048036038101906100ce9190611eb8565b61027e565b005b6100ef60048036038101906100ea9190611f94565b6104a1565b005b61010b60048036038101906101069190611eb8565b610a4d565b60405161011d9695949392919061272f565b60405180910390f35b610140600480360381019061013b9190611f25565b610b51565b005b61014a610e8f565b60405161015791906125c0565b60405180910390f35b61017a60048036038101906101759190611e5e565b6110b5565b60405161018a94939291906126dc565b60405180910390f35b6101ad60048036038101906101a89190611eb8565b6111f5565b6040516101bf9695949392919061272f565b60405180910390f35b6101e260048036038101906101dd9190611eb8565b6112e9565b005b6101fe60048036038101906101f99190611eb8565b6115bc565b60405161020b919061269f565b60405180910390f35b61022e60048036038101906102299190611f94565b6117c5565b005b61024a60048036038101906102459190611ee5565b611b6b565b60405161025791906126c1565b60405180910390f35b610268611b90565b6040516102759190612604565b60405180910390f35b806000600260008381526020019081526020016000206040518060c0016040529081600082015481526020016001820180546102b990612adc565b80601f01602080910402602001604051908101604052809291908181526020018280546102e590612adc565b80156103325780601f1061030757610100808354040283529160200191610332565b820191906000526020600020905b81548152906001019060200180831161031557829003601f168201915b50505050508152602001600282015481526020016003820160009054906101000a900473ffffffffffffffffffffffffffffffffffffffff1673ffffffffffffffffffffffffffffffffffffffff1673ffffffffffffffffffffffffffffffffffffffff168152602001600482015481526020016005820160009054906101000a900463ffffffff1663ffffffff1663ffffffff16815250509050806060015173ffffffffffffffffffffffffffffffffffffffff163373ffffffffffffffffffffffffffffffffffffffff16141561040a57600080fd5b60026000848152602001908152602001600020600201600081548092919061043190612b8d565b91905055503373ffffffffffffffffffffffffffffffffffffffff167f1ed364e6f46a455fac23816d3700669ff134c7a5fbe0240f52d932f8341024628460026000878152602001908152602001600020600201546040516104949291906127c7565b60405180910390a2505050565b816000600260008381526020019081526020016000206040518060c0016040529081600082015481526020016001820180546104dc90612adc565b80601f016020809104026020016040519081016040528092919081815260200182805461050890612adc565b80156105555780601f1061052a57610100808354040283529160200191610555565b820191906000526020600020905b81548152906001019060200180831161053857829003601f168201915b50505050508152602001600282015481526020016003820160009054906101000a900473ffffffffffffffffffffffffffffffffffffffff1673ffffffffffffffffffffffffffffffffffffffff1673ffffffffffffffffffffffffffffffffffffffff168152602001600482015481526020016005820160009054906101000a900463ffffffff1663ffffffff1663ffffffff16815250509050428160a0015163ffffffff16101561063d576040517f08c379a00000000000000000000000000000000000000000000000000000000081526004016106349061265f565b60405180910390fd5b836000600260008381526020019081526020016000206040518060c00160405290816000820154815260200160018201805461067890612adc565b80601f01602080910402602001604051908101604052809291908181526020018280546106a490612adc565b80156106f15780601f106106c6576101008083540402835291602001916106f1565b820191906000526020600020905b8154815290600101906020018083116106d457829003601f168201915b50505050508152602001600282015481526020016003820160009054906101000a900473ffffffffffffffffffffffffffffffffffffffff1673ffffffffffffffffffffffffffffffffffffffff1673ffffffffffffffffffffffffffffffffffffffff168152602001600482015481526020016005820160009054906101000a900463ffffffff1663ffffffff1663ffffffff16815250509050600160003373ffffffffffffffffffffffffffffffffffffffff1673ffffffffffffffffffffffffffffffffffffffff1681526020019081526020016000206004015481608001511115610815576040517f08c379a000000000000000000000000000000000000000000000000000000000815260040161080c9061267f565b60405180910390fd5b600060026000888152602001908152602001600020905060016003600089815260200190815260200160002060003373ffffffffffffffffffffffffffffffffffffffff1673ffffffffffffffffffffffffffffffffffffffff168152602001908152602001600020600082825461088d9190612948565b9250508190555060016003600089815260200190815260200160002060008360030160009054906101000a900473ffffffffffffffffffffffffffffffffffffffff1673ffffffffffffffffffffffffffffffffffffffff1673ffffffffffffffffffffffffffffffffffffffff1681526020019081526020016000206000828254610919919061299e565b925050819055507f000000000000000000000000000000000000000000000000000000000000000073ffffffffffffffffffffffffffffffffffffffff166323b872dd338360030160009054906101000a900473ffffffffffffffffffffffffffffffffffffffff16896040518463ffffffff1660e01b81526004016109a193929190612560565b602060405180830381600087803b1580156109bb57600080fd5b505af11580156109cf573d6000803e3d6000fd5b505050506040513d601f19601f820116820180604052508101906109f39190611e8b565b503373ffffffffffffffffffffffffffffffffffffffff167fdef0dd1961901757e759c1e3e1ced766d61d989aa5030414848dae6bac75cbdd8888604051610a3c9291906127c7565b60405180910390a250505050505050565b60008181548110610a5d57600080fd5b9060005260206000209060060201600091509050806000015490806001018054610a8690612adc565b80601f0160208091040260200160405190810160405280929190818152602001828054610ab290612adc565b8015610aff5780601f10610ad457610100808354040283529160200191610aff565b820191906000526020600020905b815481529060010190602001808311610ae257829003601f168201915b5050505050908060020154908060030160009054906101000a900473ffffffffffffffffffffffffffffffffffffffff16908060040154908060050160009054906101000a900463ffffffff16905086565b610b5b6004611bb4565b6040518060c00160405280610b706004611bca565b8152602001838152602001600081526020013373ffffffffffffffffffffffffffffffffffffffff1681526020018481526020018263ffffffff1681525060026000610bbc6004611bca565b8152602001908152602001600020600082015181600001556020820151816001019080519060200190610bf0929190611bd8565b506040820151816002015560608201518160030160006101000a81548173ffffffffffffffffffffffffffffffffffffffff021916908373ffffffffffffffffffffffffffffffffffffffff1602179055506080820151816004015560a08201518160050160006101000a81548163ffffffff021916908363ffffffff160217905550905050600160036000610c866004611bca565b815260200190815260200160002060003373ffffffffffffffffffffffffffffffffffffffff1673ffffffffffffffffffffffffffffffffffffffff1681526020019081526020016000206000828254610ce09190612948565b92505081905550600060026000610cf76004611bca565b81526020019081526020016000209080600181540180825580915050600190039060005260206000209060060201600090919091909150600082015481600001556001820181600101908054610d4c90612adc565b610d57929190611c5e565b50600282015481600201556003820160009054906101000a900473ffffffffffffffffffffffffffffffffffffffff168160030160006101000a81548173ffffffffffffffffffffffffffffffffffffffff021916908373ffffffffffffffffffffffffffffffffffffffff160217905550600482015481600401556005820160009054906101000a900463ffffffff168160050160006101000a81548163ffffffff021916908363ffffffff16021790555050503373ffffffffffffffffffffffffffffffffffffffff167f9a5b8b5cb7f9c536ea5db1a94142c9f716fb3a8698a9c70a5b8bfad3922cb06c610e4e6004611bca565b85858560026000610e5f6004611bca565b815260200190815260200160002060020154604051610e829594939291906127f0565b60405180910390a2505050565b60606000610e9d6004611bca565b11610edd576040517f08c379a0000000000000000000000000000000000000000000000000000000008152600401610ed49061261f565b60405180910390fd5b3373ffffffffffffffffffffffffffffffffffffffff167f440c078a5e11bff85c6b6d7c52f378c8220355bd3331ec889638c0eca883670c6000604051610f2491906125e2565b60405180910390a26000805480602002602001604051908101604052809291908181526020016000905b828210156110ac57838290600052602060002090600602016040518060c001604052908160008201548152602001600182018054610f8b90612adc565b80601f0160208091040260200160405190810160405280929190818152602001828054610fb790612adc565b80156110045780601f10610fd957610100808354040283529160200191611004565b820191906000526020600020905b815481529060010190602001808311610fe757829003601f168201915b50505050508152602001600282015481526020016003820160009054906101000a900473ffffffffffffffffffffffffffffffffffffffff1673ffffffffffffffffffffffffffffffffffffffff1673ffffffffffffffffffffffffffffffffffffffff168152602001600482015481526020016005820160009054906101000a900463ffffffff1663ffffffff1663ffffffff168152505081526020019060010190610f4e565b50505050905090565b60016020528060005260406000206000915090508060000154908060010180546110de90612adc565b80601f016020809104026020016040519081016040528092919081815260200182805461110a90612adc565b80156111575780601f1061112c57610100808354040283529160200191611157565b820191906000526020600020905b81548152906001019060200180831161113a57829003601f168201915b50505050509080600201805461116c90612adc565b80601f016020809104026020016040519081016040528092919081815260200182805461119890612adc565b80156111e55780601f106111ba576101008083540402835291602001916111e5565b820191906000526020600020905b8154815290600101906020018083116111c857829003601f168201915b5050505050908060040154905084565b600260205280600052604060002060009150905080600001549080600101805461121e90612adc565b80601f016020809104026020016040519081016040528092919081815260200182805461124a90612adc565b80156112975780601f1061126c57610100808354040283529160200191611297565b820191906000526020600020905b81548152906001019060200180831161127a57829003601f168201915b5050505050908060020154908060030160009054906101000a900473ffffffffffffffffffffffffffffffffffffffff16908060040154908060050160009054906101000a900463ffffffff16905086565b806000600260008381526020019081526020016000206040518060c00160405290816000820154815260200160018201805461132490612adc565b80601f016020809104026020016040519081016040528092919081815260200182805461135090612adc565b801561139d5780601f106113725761010080835404028352916020019161139d565b820191906000526020600020905b81548152906001019060200180831161138057829003601f168201915b50505050508152602001600282015481526020016003820160009054906101000a900473ffffffffffffffffffffffffffffffffffffffff1673ffffffffffffffffffffffffffffffffffffffff1673ffffffffffffffffffffffffffffffffffffffff168152602001600482015481526020016005820160009054906101000a900463ffffffff1663ffffffff1663ffffffff16815250509050428160a0015163ffffffff161015611485576040517f08c379a000000000000000000000000000000000000000000000000000000000815260040161147c9061265f565b60405180910390fd5b60016003600085815260200190815260200160002060003373ffffffffffffffffffffffffffffffffffffffff1673ffffffffffffffffffffffffffffffffffffffff16815260200190815260200160002060008282546114e6919061299e565b92505081905550600260008481526020019081526020016000206000808201600090556001820160006115199190611ceb565b60028201600090556003820160006101000a81549073ffffffffffffffffffffffffffffffffffffffff021916905560048201600090556005820160006101000a81549063ffffffff021916905550503373ffffffffffffffffffffffffffffffffffffffff167f45e4102cd0468b42f71c0179aa78051418c31c018e07a5091eb13b97fadbab5e846040516115af91906126c1565b60405180910390a2505050565b6115c4611d2b565b816115cf6004611bca565b811115611611576040517f08c379a00000000000000000000000000000000000000000000000000000000081526004016116089061263f565b60405180910390fd5b3373ffffffffffffffffffffffffffffffffffffffff167fcb718ffb18411374498c1cd31cb4d4c8068af3c5b1546205f14c72bcd20f21ba846002600087815260200190815260200160002060405161166b929190612797565b60405180910390a2600260008481526020019081526020016000206040518060c0016040529081600082015481526020016001820180546116ab90612adc565b80601f01602080910402602001604051908101604052809291908181526020018280546116d790612adc565b80156117245780601f106116f957610100808354040283529160200191611724565b820191906000526020600020905b81548152906001019060200180831161170757829003601f168201915b50505050508152602001600282015481526020016003820160009054906101000a900473ffffffffffffffffffffffffffffffffffffffff1673ffffffffffffffffffffffffffffffffffffffff1673ffffffffffffffffffffffffffffffffffffffff168152602001600482015481526020016005820160009054906101000a900463ffffffff1663ffffffff1663ffffffff1681525050915050919050565b816000600260008381526020019081526020016000206040518060c00160405290816000820154815260200160018201805461180090612adc565b80601f016020809104026020016040519081016040528092919081815260200182805461182c90612adc565b80156118795780601f1061184e57610100808354040283529160200191611879565b820191906000526020600020905b81548152906001019060200180831161185c57829003601f168201915b50505050508152602001600282015481526020016003820160009054906101000a900473ffffffffffffffffffffffffffffffffffffffff1673ffffffffffffffffffffffffffffffffffffffff1673ffffffffffffffffffffffffffffffffffffffff168152602001600482015481526020016005820160009054906101000a900463ffffffff1663ffffffff1663ffffffff16815250509050428160a0015163ffffffff161015611961576040517f08c379a00000000000000000000000000000000000000000000000000000000081526004016119589061265f565b60405180910390fd5b60016003600086815260200190815260200160002060003373ffffffffffffffffffffffffffffffffffffffff1673ffffffffffffffffffffffffffffffffffffffff16815260200190815260200160002060008282546119c2919061299e565b9250508190555060016003600086815260200190815260200160002060006002600088815260200190815260200160002060030160009054906101000a900473ffffffffffffffffffffffffffffffffffffffff1673ffffffffffffffffffffffffffffffffffffffff1673ffffffffffffffffffffffffffffffffffffffff1681526020019081526020016000206000828254611a609190612948565b925050819055507f000000000000000000000000000000000000000000000000000000000000000073ffffffffffffffffffffffffffffffffffffffff1663a9059cbb33856040518363ffffffff1660e01b8152600401611ac2929190612597565b602060405180830381600087803b158015611adc57600080fd5b505af1158015611af0573d6000803e3d6000fd5b505050506040513d601f19601f82011682018060405250810190611b149190611e8b565b503373ffffffffffffffffffffffffffffffffffffffff167f1a90dd2f61a315b1c8b148815876bd3a4ca3fce701f7d94d7396b584f64444de8585604051611b5d9291906127c7565b60405180910390a250505050565b6003602052816000526040600020602052806000526040600020600091509150505481565b7f000000000000000000000000000000000000000000000000000000000000000081565b6001816000016000828254019250508190555050565b600081600001549050919050565b828054611be490612adc565b90600052602060002090601f016020900481019282611c065760008555611c4d565b82601f10611c1f57805160ff1916838001178555611c4d565b82800160010185558215611c4d579182015b82811115611c4c578251825591602001919060010190611c31565b5b509050611c5a9190611d7d565b5090565b828054611c6a90612adc565b90600052602060002090601f016020900481019282611c8c5760008555611cda565b82601f10611c9d5780548555611cda565b82800160010185558215611cda57600052602060002091601f016020900482015b82811115611cd9578254825591600101919060010190611cbe565b5b509050611ce79190611d7d565b5090565b508054611cf790612adc565b6000825580601f10611d095750611d28565b601f016020900490600052602060002090810190611d279190611d7d565b5b50565b6040518060c00160405280600081526020016060815260200160008152602001600073ffffffffffffffffffffffffffffffffffffffff16815260200160008152602001600063ffffffff1681525090565b5b80821115611d96576000816000905550600101611d7e565b5090565b6000611dad611da88461286f565b61284a565b905082815260208101848484011115611dc957611dc8612c68565b5b611dd4848285612a9a565b509392505050565b600081359050611deb81612d85565b92915050565b600081519050611e0081612d9c565b92915050565b600082601f830112611e1b57611e1a612c63565b5b8135611e2b848260208601611d9a565b91505092915050565b600081359050611e4381612db3565b92915050565b600081359050611e5881612dca565b92915050565b600060208284031215611e7457611e73612c72565b5b6000611e8284828501611ddc565b91505092915050565b600060208284031215611ea157611ea0612c72565b5b6000611eaf84828501611df1565b91505092915050565b600060208284031215611ece57611ecd612c72565b5b6000611edc84828501611e34565b91505092915050565b60008060408385031215611efc57611efb612c72565b5b6000611f0a85828601611e34565b9250506020611f1b85828601611ddc565b9150509250929050565b600080600060608486031215611f3e57611f3d612c72565b5b6000611f4c86828701611e34565b935050602084013567ffffffffffffffff811115611f6d57611f6c612c6d565b5b611f7986828701611e06565b9250506040611f8a86828701611e49565b9150509250925092565b60008060408385031215611fab57611faa612c72565b5b6000611fb985828601611e34565b9250506020611fca85828601611e34565b9150509250929050565b6000611fe08383612290565b905092915050565b6000611ff483836123a2565b905092915050565b61200581612a0c565b82525050565b61201481612a0c565b82525050565b6000612025826128da565b61202f8185612915565b935083602082028501612041856128a0565b8060005b8581101561207d578484038952815161205e8582611fd4565b9450612069836128fb565b925060208a01995050600181019050612045565b50829750879550505050505092915050565b600061209a826128e5565b6120a48185612915565b9350836020820285016120b6856128b0565b8060005b858110156120f1578484038952816120d28582611fe8565b94506120dd83612908565b925060208a019950506001810190506120ba565b50829750879550505050505092915050565b61210c81612a64565b82525050565b600061211d826128f0565b6121278185612926565b9350612137818560208601612aa9565b61214081612c77565b840191505092915050565b6000612156826128f0565b6121608185612937565b9350612170818560208601612aa9565b61217981612c77565b840191505092915050565b6000815461219181612adc565b61219b8186612926565b945060018216600081146121b657600181146121c8576121fb565b60ff19831686526020860193506121fb565b6121d1856128c5565b60005b838110156121f3578154818901526001820191506020810190506121d4565b808801955050505b50505092915050565b6000612211602283612937565b915061221c82612c95565b604082019050919050565b6000612234601d83612937565b915061223f82612ce4565b602082019050919050565b6000612257601583612937565b915061226282612d0d565b602082019050919050565b600061227a602c83612937565b915061228582612d36565b604082019050919050565b600060c0830160008301516122a86000860182612524565b50602083015184820360208601526122c08282612112565b91505060408301516122d56040860182612524565b5060608301516122e86060860182611ffc565b5060808301516122fb6080860182612524565b5060a083015161230e60a0860182612542565b508091505092915050565b600060c0830160008301516123316000860182612524565b50602083015184820360208601526123498282612112565b915050604083015161235e6040860182612524565b5060608301516123716060860182611ffc565b5060808301516123846080860182612524565b5060a083015161239760a0860182612542565b508091505092915050565b600060c0830160008084015490506123b981612b28565b6123c66000870182612524565b506001840185830360208701526123dd8382612184565b925050600284015490506123f081612b28565b6123fd6040870182612524565b506003840154905061240e81612b0e565b61241b6060870182611ffc565b506004840154905061242c81612b28565b6124396080870182612524565b506005840154905061244a81612b42565b61245760a0870182612542565b50819250505092915050565b600060c08301600080840154905061247a81612b28565b6124876000870182612524565b5060018401858303602087015261249e8382612184565b925050600284015490506124b181612b28565b6124be6040870182612524565b50600384015490506124cf81612b0e565b6124dc6060870182611ffc565b50600484015490506124ed81612b28565b6124fa6080870182612524565b506005840154905061250b81612b42565b61251860a0870182612542565b50819250505092915050565b61252d81612a4a565b82525050565b61253c81612a4a565b82525050565b61254b81612a54565b82525050565b61255a81612a54565b82525050565b6000606082019050612575600083018661200b565b612582602083018561200b565b61258f6040830184612533565b949350505050565b60006040820190506125ac600083018561200b565b6125b96020830184612533565b9392505050565b600060208201905081810360008301526125da818461201a565b905092915050565b600060208201905081810360008301526125fc818461208f565b905092915050565b60006020820190506126196000830184612103565b92915050565b6000602082019050818103600083015261263881612204565b9050919050565b6000602082019050818103600083015261265881612227565b9050919050565b600060208201905081810360008301526126788161224a565b9050919050565b600060208201905081810360008301526126988161226d565b9050919050565b600060208201905081810360008301526126b98184612319565b905092915050565b60006020820190506126d66000830184612533565b92915050565b60006080820190506126f16000830187612533565b8181036020830152612703818661214b565b90508181036040830152612717818561214b565b90506127266060830184612533565b95945050505050565b600060c0820190506127446000830189612533565b8181036020830152612756818861214b565b90506127656040830187612533565b612772606083018661200b565b61277f6080830185612533565b61278c60a0830184612551565b979650505050505050565b60006040820190506127ac6000830185612533565b81810360208301526127be8184612463565b90509392505050565b60006040820190506127dc6000830185612533565b6127e96020830184612533565b9392505050565b600060a0820190506128056000830188612533565b6128126020830187612533565b8181036040830152612824818661214b565b90506128336060830185612551565b6128406080830184612533565b9695505050505050565b6000612854612865565b90506128608282612b5c565b919050565b6000604051905090565b600067ffffffffffffffff82111561288a57612889612c34565b5b61289382612c77565b9050602081019050919050565b6000819050602082019050919050565b60008190508160005260206000209050919050565b60008190508160005260206000209050919050565b600081519050919050565b600081549050919050565b600081519050919050565b6000602082019050919050565b6000600682019050919050565b600082825260208201905092915050565b600082825260208201905092915050565b600082825260208201905092915050565b600061295382612a4a565b915061295e83612a4a565b9250827fffffffffffffffffffffffffffffffffffffffffffffffffffffffffffffffff0382111561299357612992612bd6565b5b828201905092915050565b60006129a982612a4a565b91506129b483612a4a565b9250828210156129c7576129c6612bd6565b5b828203905092915050565b600073ffffffffffffffffffffffffffffffffffffffff82169050919050565b6000819050919050565b600063ffffffff82169050919050565b6000612a1782612a2a565b9050919050565b60008115159050919050565b600073ffffffffffffffffffffffffffffffffffffffff82169050919050565b6000819050919050565b600063ffffffff82169050919050565b6000612a6f82612a76565b9050919050565b6000612a8182612a88565b9050919050565b6000612a9382612a2a565b9050919050565b82818337600083830152505050565b60005b83811015612ac7578082015181840152602081019050612aac565b83811115612ad6576000848401525b50505050565b60006002820490506001821680612af457607f821691505b60208210811415612b0857612b07612c05565b5b50919050565b6000612b21612b1c83612c88565b6129d2565b9050919050565b6000612b3b612b3683612c88565b6129f2565b9050919050565b6000612b55612b5083612c88565b6129fc565b9050919050565b612b6582612c77565b810181811067ffffffffffffffff82111715612b8457612b83612c34565b5b80604052505050565b6000612b9882612a4a565b91507fffffffffffffffffffffffffffffffffffffffffffffffffffffffffffffffff821415612bcb57612bca612bd6565b5b600182019050919050565b7f4e487b7100000000000000000000000000000000000000000000000000000000600052601160045260246000fd5b7f4e487b7100000000000000000000000000000000000000000000000000000000600052602260045260246000fd5b7f4e487b7100000000000000000000000000000000000000000000000000000000600052604160045260246000fd5b600080fd5b600080fd5b600080fd5b600080fd5b6000601f19601f8301169050919050565b60008160001c9050919050565b7f546865726520617265206e6f2070726f647563747320746f206c69737420796560008201527f7421000000000000000000000000000000000000000000000000000000000000602082015250565b7f5468657265206973206e6f2073756368206974656d207265636f726421000000600082015250565b7f5468652073616c65206861732065787069726564210000000000000000000000600082015250565b7f5468657265206973206e6f7420656e6f7567682062616c616e636520696e207960008201527f6f7572206163636f756e74210000000000000000000000000000000000000000602082015250565b612d8e81612a0c565b8114612d9957600080fd5b50565b612da581612a1e565b8114612db057600080fd5b50565b612dbc81612a4a565b8114612dc757600080fd5b50565b612dd381612a54565b8114612dde57600080fd5b5056fea26469706673582212206b36d7b52203330b8ffcf521c410011efb0707ddd9a567d2a91be1eff8b2cac664736f6c63430008070033",
			"opcodes": "PUSH1 0xA0 PUSH1 0x40 MSTORE CALLVALUE DUP1 ISZERO PUSH3 0x11 JUMPI PUSH1 0x0 DUP1 REVERT JUMPDEST POP PUSH1 0x40 MLOAD PUSH3 0x2F55 CODESIZE SUB DUP1 PUSH3 0x2F55 DUP4 CODECOPY DUP2 DUP2 ADD PUSH1 0x40 MSTORE DUP2 ADD SWAP1 PUSH3 0x37 SWAP2 SWAP1 PUSH3 0x8C JUMP JUMPDEST DUP1 PUSH20 0xFFFFFFFFFFFFFFFFFFFFFFFFFFFFFFFFFFFFFFFF AND PUSH1 0x80 DUP2 PUSH20 0xFFFFFFFFFFFFFFFFFFFFFFFFFFFFFFFFFFFFFFFF AND PUSH1 0x60 SHL DUP2 MSTORE POP POP POP PUSH3 0x111 JUMP JUMPDEST PUSH1 0x0 DUP2 MLOAD SWAP1 POP PUSH3 0x86 DUP2 PUSH3 0xF7 JUMP JUMPDEST SWAP3 SWAP2 POP POP JUMP JUMPDEST PUSH1 0x0 PUSH1 0x20 DUP3 DUP5 SUB SLT ISZERO PUSH3 0xA5 JUMPI PUSH3 0xA4 PUSH3 0xF2 JUMP JUMPDEST JUMPDEST PUSH1 0x0 PUSH3 0xB5 DUP5 DUP3 DUP6 ADD PUSH3 0x75 JUMP JUMPDEST SWAP2 POP POP SWAP3 SWAP2 POP POP JUMP JUMPDEST PUSH1 0x0 PUSH3 0xCB DUP3 PUSH3 0xD2 JUMP JUMPDEST SWAP1 POP SWAP2 SWAP1 POP JUMP JUMPDEST PUSH1 0x0 PUSH20 0xFFFFFFFFFFFFFFFFFFFFFFFFFFFFFFFFFFFFFFFF DUP3 AND SWAP1 POP SWAP2 SWAP1 POP JUMP JUMPDEST PUSH1 0x0 DUP1 REVERT JUMPDEST PUSH3 0x102 DUP2 PUSH3 0xBE JUMP JUMPDEST DUP2 EQ PUSH3 0x10E JUMPI PUSH1 0x0 DUP1 REVERT JUMPDEST POP JUMP JUMPDEST PUSH1 0x80 MLOAD PUSH1 0x60 SHR PUSH2 0x2E17 PUSH3 0x13E PUSH1 0x0 CODECOPY PUSH1 0x0 DUP2 DUP2 PUSH2 0x922 ADD MSTORE DUP2 DUP2 PUSH2 0x1A69 ADD MSTORE PUSH2 0x1B92 ADD MSTORE PUSH2 0x2E17 PUSH1 0x0 RETURN INVALID PUSH1 0x80 PUSH1 0x40 MSTORE CALLVALUE DUP1 ISZERO PUSH2 0x10 JUMPI PUSH1 0x0 DUP1 REVERT JUMPDEST POP PUSH1 0x4 CALLDATASIZE LT PUSH2 0xB4 JUMPI PUSH1 0x0 CALLDATALOAD PUSH1 0xE0 SHR DUP1 PUSH4 0xBFB231D2 GT PUSH2 0x71 JUMPI DUP1 PUSH4 0xBFB231D2 EQ PUSH2 0x193 JUMPI DUP1 PUSH4 0xCA095A83 EQ PUSH2 0x1C8 JUMPI DUP1 PUSH4 0xCD2F0710 EQ PUSH2 0x1E4 JUMPI DUP1 PUSH4 0xDE59C322 EQ PUSH2 0x214 JUMPI DUP1 PUSH4 0xE2870AA9 EQ PUSH2 0x230 JUMPI DUP1 PUSH4 0xFC0C546A EQ PUSH2 0x260 JUMPI PUSH2 0xB4 JUMP JUMPDEST DUP1 PUSH4 0x1750E74 EQ PUSH2 0xB9 JUMPI DUP1 PUSH4 0x2F63147F EQ PUSH2 0xD5 JUMPI DUP1 PUSH4 0x3D4D3600 EQ PUSH2 0xF1 JUMPI DUP1 PUSH4 0x4EFD1797 EQ PUSH2 0x126 JUMPI DUP1 PUSH4 0x5D9EB55C EQ PUSH2 0x142 JUMPI DUP1 PUSH4 0xA87430BA EQ PUSH2 0x160 JUMPI JUMPDEST PUSH1 0x0 DUP1 REVERT JUMPDEST PUSH2 0xD3 PUSH1 0x4 DUP1 CALLDATASIZE SUB DUP2 ADD SWAP1 PUSH2 0xCE SWAP2 SWAP1 PUSH2 0x1EB8 JUMP JUMPDEST PUSH2 0x27E JUMP JUMPDEST STOP JUMPDEST PUSH2 0xEF PUSH1 0x4 DUP1 CALLDATASIZE SUB DUP2 ADD SWAP1 PUSH2 0xEA SWAP2 SWAP1 PUSH2 0x1F94 JUMP JUMPDEST PUSH2 0x4A1 JUMP JUMPDEST STOP JUMPDEST PUSH2 0x10B PUSH1 0x4 DUP1 CALLDATASIZE SUB DUP2 ADD SWAP1 PUSH2 0x106 SWAP2 SWAP1 PUSH2 0x1EB8 JUMP JUMPDEST PUSH2 0xA4D JUMP JUMPDEST PUSH1 0x40 MLOAD PUSH2 0x11D SWAP7 SWAP6 SWAP5 SWAP4 SWAP3 SWAP2 SWAP1 PUSH2 0x272F JUMP JUMPDEST PUSH1 0x40 MLOAD DUP1 SWAP2 SUB SWAP1 RETURN JUMPDEST PUSH2 0x140 PUSH1 0x4 DUP1 CALLDATASIZE SUB DUP2 ADD SWAP1 PUSH2 0x13B SWAP2 SWAP1 PUSH2 0x1F25 JUMP JUMPDEST PUSH2 0xB51 JUMP JUMPDEST STOP JUMPDEST PUSH2 0x14A PUSH2 0xE8F JUMP JUMPDEST PUSH1 0x40 MLOAD PUSH2 0x157 SWAP2 SWAP1 PUSH2 0x25C0 JUMP JUMPDEST PUSH1 0x40 MLOAD DUP1 SWAP2 SUB SWAP1 RETURN JUMPDEST PUSH2 0x17A PUSH1 0x4 DUP1 CALLDATASIZE SUB DUP2 ADD SWAP1 PUSH2 0x175 SWAP2 SWAP1 PUSH2 0x1E5E JUMP JUMPDEST PUSH2 0x10B5 JUMP JUMPDEST PUSH1 0x40 MLOAD PUSH2 0x18A SWAP5 SWAP4 SWAP3 SWAP2 SWAP1 PUSH2 0x26DC JUMP JUMPDEST PUSH1 0x40 MLOAD DUP1 SWAP2 SUB SWAP1 RETURN JUMPDEST PUSH2 0x1AD PUSH1 0x4 DUP1 CALLDATASIZE SUB DUP2 ADD SWAP1 PUSH2 0x1A8 SWAP2 SWAP1 PUSH2 0x1EB8 JUMP JUMPDEST PUSH2 0x11F5 JUMP JUMPDEST PUSH1 0x40 MLOAD PUSH2 0x1BF SWAP7 SWAP6 SWAP5 SWAP4 SWAP3 SWAP2 SWAP1 PUSH2 0x272F JUMP JUMPDEST PUSH1 0x40 MLOAD DUP1 SWAP2 SUB SWAP1 RETURN JUMPDEST PUSH2 0x1E2 PUSH1 0x4 DUP1 CALLDATASIZE SUB DUP2 ADD SWAP1 PUSH2 0x1DD SWAP2 SWAP1 PUSH2 0x1EB8 JUMP JUMPDEST PUSH2 0x12E9 JUMP JUMPDEST STOP JUMPDEST PUSH2 0x1FE PUSH1 0x4 DUP1 CALLDATASIZE SUB DUP2 ADD SWAP1 PUSH2 0x1F9 SWAP2 SWAP1 PUSH2 0x1EB8 JUMP JUMPDEST PUSH2 0x15BC JUMP JUMPDEST PUSH1 0x40 MLOAD PUSH2 0x20B SWAP2 SWAP1 PUSH2 0x269F JUMP JUMPDEST PUSH1 0x40 MLOAD DUP1 SWAP2 SUB SWAP1 RETURN JUMPDEST PUSH2 0x22E PUSH1 0x4 DUP1 CALLDATASIZE SUB DUP2 ADD SWAP1 PUSH2 0x229 SWAP2 SWAP1 PUSH2 0x1F94 JUMP JUMPDEST PUSH2 0x17C5 JUMP JUMPDEST STOP JUMPDEST PUSH2 0x24A PUSH1 0x4 DUP1 CALLDATASIZE SUB DUP2 ADD SWAP1 PUSH2 0x245 SWAP2 SWAP1 PUSH2 0x1EE5 JUMP JUMPDEST PUSH2 0x1B6B JUMP JUMPDEST PUSH1 0x40 MLOAD PUSH2 0x257 SWAP2 SWAP1 PUSH2 0x26C1 JUMP JUMPDEST PUSH1 0x40 MLOAD DUP1 SWAP2 SUB SWAP1 RETURN JUMPDEST PUSH2 0x268 PUSH2 0x1B90 JUMP JUMPDEST PUSH1 0x40 MLOAD PUSH2 0x275 SWAP2 SWAP1 PUSH2 0x2604 JUMP JUMPDEST PUSH1 0x40 MLOAD DUP1 SWAP2 SUB SWAP1 RETURN JUMPDEST DUP1 PUSH1 0x0 PUSH1 0x2 PUSH1 0x0 DUP4 DUP2 MSTORE PUSH1 0x20 ADD SWAP1 DUP2 MSTORE PUSH1 0x20 ADD PUSH1 0x0 KECCAK256 PUSH1 0x40 MLOAD DUP1 PUSH1 0xC0 ADD PUSH1 0x40 MSTORE SWAP1 DUP2 PUSH1 0x0 DUP3 ADD SLOAD DUP2 MSTORE PUSH1 0x20 ADD PUSH1 0x1 DUP3 ADD DUP1 SLOAD PUSH2 0x2B9 SWAP1 PUSH2 0x2ADC JUMP JUMPDEST DUP1 PUSH1 0x1F ADD PUSH1 0x20 DUP1 SWAP2 DIV MUL PUSH1 0x20 ADD PUSH1 0x40 MLOAD SWAP1 DUP2 ADD PUSH1 0x40 MSTORE DUP1 SWAP3 SWAP2 SWAP1 DUP2 DUP2 MSTORE PUSH1 0x20 ADD DUP3 DUP1 SLOAD PUSH2 0x2E5 SWAP1 PUSH2 0x2ADC JUMP JUMPDEST DUP1 ISZERO PUSH2 0x332 JUMPI DUP1 PUSH1 0x1F LT PUSH2 0x307 JUMPI PUSH2 0x100 DUP1 DUP4 SLOAD DIV MUL DUP4 MSTORE SWAP2 PUSH1 0x20 ADD SWAP2 PUSH2 0x332 JUMP JUMPDEST DUP3 ADD SWAP2 SWAP1 PUSH1 0x0 MSTORE PUSH1 0x20 PUSH1 0x0 KECCAK256 SWAP1 JUMPDEST DUP2 SLOAD DUP2 MSTORE SWAP1 PUSH1 0x1 ADD SWAP1 PUSH1 0x20 ADD DUP1 DUP4 GT PUSH2 0x315 JUMPI DUP3 SWAP1 SUB PUSH1 0x1F AND DUP3 ADD SWAP2 JUMPDEST POP POP POP POP POP DUP2 MSTORE PUSH1 0x20 ADD PUSH1 0x2 DUP3 ADD SLOAD DUP2 MSTORE PUSH1 0x20 ADD PUSH1 0x3 DUP3 ADD PUSH1 0x0 SWAP1 SLOAD SWAP1 PUSH2 0x100 EXP SWAP1 DIV PUSH20 0xFFFFFFFFFFFFFFFFFFFFFFFFFFFFFFFFFFFFFFFF AND PUSH20 0xFFFFFFFFFFFFFFFFFFFFFFFFFFFFFFFFFFFFFFFF AND PUSH20 0xFFFFFFFFFFFFFFFFFFFFFFFFFFFFFFFFFFFFFFFF AND DUP2 MSTORE PUSH1 0x20 ADD PUSH1 0x4 DUP3 ADD SLOAD DUP2 MSTORE PUSH1 0x20 ADD PUSH1 0x5 DUP3 ADD PUSH1 0x0 SWAP1 SLOAD SWAP1 PUSH2 0x100 EXP SWAP1 DIV PUSH4 0xFFFFFFFF AND PUSH4 0xFFFFFFFF AND PUSH4 0xFFFFFFFF AND DUP2 MSTORE POP POP SWAP1 POP DUP1 PUSH1 0x60 ADD MLOAD PUSH20 0xFFFFFFFFFFFFFFFFFFFFFFFFFFFFFFFFFFFFFFFF AND CALLER PUSH20 0xFFFFFFFFFFFFFFFFFFFFFFFFFFFFFFFFFFFFFFFF AND EQ ISZERO PUSH2 0x40A JUMPI PUSH1 0x0 DUP1 REVERT JUMPDEST PUSH1 0x2 PUSH1 0x0 DUP5 DUP2 MSTORE PUSH1 0x20 ADD SWAP1 DUP2 MSTORE PUSH1 0x20 ADD PUSH1 0x0 KECCAK256 PUSH1 0x2 ADD PUSH1 0x0 DUP2 SLOAD DUP1 SWAP3 SWAP2 SWAP1 PUSH2 0x431 SWAP1 PUSH2 0x2B8D JUMP JUMPDEST SWAP2 SWAP1 POP SSTORE POP CALLER PUSH20 0xFFFFFFFFFFFFFFFFFFFFFFFFFFFFFFFFFFFFFFFF AND PUSH32 0x1ED364E6F46A455FAC23816D3700669FF134C7A5FBE0240F52D932F834102462 DUP5 PUSH1 0x2 PUSH1 0x0 DUP8 DUP2 MSTORE PUSH1 0x20 ADD SWAP1 DUP2 MSTORE PUSH1 0x20 ADD PUSH1 0x0 KECCAK256 PUSH1 0x2 ADD SLOAD PUSH1 0x40 MLOAD PUSH2 0x494 SWAP3 SWAP2 SWAP1 PUSH2 0x27C7 JUMP JUMPDEST PUSH1 0x40 MLOAD DUP1 SWAP2 SUB SWAP1 LOG2 POP POP POP JUMP JUMPDEST DUP2 PUSH1 0x0 PUSH1 0x2 PUSH1 0x0 DUP4 DUP2 MSTORE PUSH1 0x20 ADD SWAP1 DUP2 MSTORE PUSH1 0x20 ADD PUSH1 0x0 KECCAK256 PUSH1 0x40 MLOAD DUP1 PUSH1 0xC0 ADD PUSH1 0x40 MSTORE SWAP1 DUP2 PUSH1 0x0 DUP3 ADD SLOAD DUP2 MSTORE PUSH1 0x20 ADD PUSH1 0x1 DUP3 ADD DUP1 SLOAD PUSH2 0x4DC SWAP1 PUSH2 0x2ADC JUMP JUMPDEST DUP1 PUSH1 0x1F ADD PUSH1 0x20 DUP1 SWAP2 DIV MUL PUSH1 0x20 ADD PUSH1 0x40 MLOAD SWAP1 DUP2 ADD PUSH1 0x40 MSTORE DUP1 SWAP3 SWAP2 SWAP1 DUP2 DUP2 MSTORE PUSH1 0x20 ADD DUP3 DUP1 SLOAD PUSH2 0x508 SWAP1 PUSH2 0x2ADC JUMP JUMPDEST DUP1 ISZERO PUSH2 0x555 JUMPI DUP1 PUSH1 0x1F LT PUSH2 0x52A JUMPI PUSH2 0x100 DUP1 DUP4 SLOAD DIV MUL DUP4 MSTORE SWAP2 PUSH1 0x20 ADD SWAP2 PUSH2 0x555 JUMP JUMPDEST DUP3 ADD SWAP2 SWAP1 PUSH1 0x0 MSTORE PUSH1 0x20 PUSH1 0x0 KECCAK256 SWAP1 JUMPDEST DUP2 SLOAD DUP2 MSTORE SWAP1 PUSH1 0x1 ADD SWAP1 PUSH1 0x20 ADD DUP1 DUP4 GT PUSH2 0x538 JUMPI DUP3 SWAP1 SUB PUSH1 0x1F AND DUP3 ADD SWAP2 JUMPDEST POP POP POP POP POP DUP2 MSTORE PUSH1 0x20 ADD PUSH1 0x2 DUP3 ADD SLOAD DUP2 MSTORE PUSH1 0x20 ADD PUSH1 0x3 DUP3 ADD PUSH1 0x0 SWAP1 SLOAD SWAP1 PUSH2 0x100 EXP SWAP1 DIV PUSH20 0xFFFFFFFFFFFFFFFFFFFFFFFFFFFFFFFFFFFFFFFF AND PUSH20 0xFFFFFFFFFFFFFFFFFFFFFFFFFFFFFFFFFFFFFFFF AND PUSH20 0xFFFFFFFFFFFFFFFFFFFFFFFFFFFFFFFFFFFFFFFF AND DUP2 MSTORE PUSH1 0x20 ADD PUSH1 0x4 DUP3 ADD SLOAD DUP2 MSTORE PUSH1 0x20 ADD PUSH1 0x5 DUP3 ADD PUSH1 0x0 SWAP1 SLOAD SWAP1 PUSH2 0x100 EXP SWAP1 DIV PUSH4 0xFFFFFFFF AND PUSH4 0xFFFFFFFF AND PUSH4 0xFFFFFFFF AND DUP2 MSTORE POP POP SWAP1 POP TIMESTAMP DUP2 PUSH1 0xA0 ADD MLOAD PUSH4 0xFFFFFFFF AND LT ISZERO PUSH2 0x63D JUMPI PUSH1 0x40 MLOAD PUSH32 0x8C379A000000000000000000000000000000000000000000000000000000000 DUP2 MSTORE PUSH1 0x4 ADD PUSH2 0x634 SWAP1 PUSH2 0x265F JUMP JUMPDEST PUSH1 0x40 MLOAD DUP1 SWAP2 SUB SWAP1 REVERT JUMPDEST DUP4 PUSH1 0x0 PUSH1 0x2 PUSH1 0x0 DUP4 DUP2 MSTORE PUSH1 0x20 ADD SWAP1 DUP2 MSTORE PUSH1 0x20 ADD PUSH1 0x0 KECCAK256 PUSH1 0x40 MLOAD DUP1 PUSH1 0xC0 ADD PUSH1 0x40 MSTORE SWAP1 DUP2 PUSH1 0x0 DUP3 ADD SLOAD DUP2 MSTORE PUSH1 0x20 ADD PUSH1 0x1 DUP3 ADD DUP1 SLOAD PUSH2 0x678 SWAP1 PUSH2 0x2ADC JUMP JUMPDEST DUP1 PUSH1 0x1F ADD PUSH1 0x20 DUP1 SWAP2 DIV MUL PUSH1 0x20 ADD PUSH1 0x40 MLOAD SWAP1 DUP2 ADD PUSH1 0x40 MSTORE DUP1 SWAP3 SWAP2 SWAP1 DUP2 DUP2 MSTORE PUSH1 0x20 ADD DUP3 DUP1 SLOAD PUSH2 0x6A4 SWAP1 PUSH2 0x2ADC JUMP JUMPDEST DUP1 ISZERO PUSH2 0x6F1 JUMPI DUP1 PUSH1 0x1F LT PUSH2 0x6C6 JUMPI PUSH2 0x100 DUP1 DUP4 SLOAD DIV MUL DUP4 MSTORE SWAP2 PUSH1 0x20 ADD SWAP2 PUSH2 0x6F1 JUMP JUMPDEST DUP3 ADD SWAP2 SWAP1 PUSH1 0x0 MSTORE PUSH1 0x20 PUSH1 0x0 KECCAK256 SWAP1 JUMPDEST DUP2 SLOAD DUP2 MSTORE SWAP1 PUSH1 0x1 ADD SWAP1 PUSH1 0x20 ADD DUP1 DUP4 GT PUSH2 0x6D4 JUMPI DUP3 SWAP1 SUB PUSH1 0x1F AND DUP3 ADD SWAP2 JUMPDEST POP POP POP POP POP DUP2 MSTORE PUSH1 0x20 ADD PUSH1 0x2 DUP3 ADD SLOAD DUP2 MSTORE PUSH1 0x20 ADD PUSH1 0x3 DUP3 ADD PUSH1 0x0 SWAP1 SLOAD SWAP1 PUSH2 0x100 EXP SWAP1 DIV PUSH20 0xFFFFFFFFFFFFFFFFFFFFFFFFFFFFFFFFFFFFFFFF AND PUSH20 0xFFFFFFFFFFFFFFFFFFFFFFFFFFFFFFFFFFFFFFFF AND PUSH20 0xFFFFFFFFFFFFFFFFFFFFFFFFFFFFFFFFFFFFFFFF AND DUP2 MSTORE PUSH1 0x20 ADD PUSH1 0x4 DUP3 ADD SLOAD DUP2 MSTORE PUSH1 0x20 ADD PUSH1 0x5 DUP3 ADD PUSH1 0x0 SWAP1 SLOAD SWAP1 PUSH2 0x100 EXP SWAP1 DIV PUSH4 0xFFFFFFFF AND PUSH4 0xFFFFFFFF AND PUSH4 0xFFFFFFFF AND DUP2 MSTORE POP POP SWAP1 POP PUSH1 0x1 PUSH1 0x0 CALLER PUSH20 0xFFFFFFFFFFFFFFFFFFFFFFFFFFFFFFFFFFFFFFFF AND PUSH20 0xFFFFFFFFFFFFFFFFFFFFFFFFFFFFFFFFFFFFFFFF AND DUP2 MSTORE PUSH1 0x20 ADD SWAP1 DUP2 MSTORE PUSH1 0x20 ADD PUSH1 0x0 KECCAK256 PUSH1 0x4 ADD SLOAD DUP2 PUSH1 0x80 ADD MLOAD GT ISZERO PUSH2 0x815 JUMPI PUSH1 0x40 MLOAD PUSH32 0x8C379A000000000000000000000000000000000000000000000000000000000 DUP2 MSTORE PUSH1 0x4 ADD PUSH2 0x80C SWAP1 PUSH2 0x267F JUMP JUMPDEST PUSH1 0x40 MLOAD DUP1 SWAP2 SUB SWAP1 REVERT JUMPDEST PUSH1 0x0 PUSH1 0x2 PUSH1 0x0 DUP9 DUP2 MSTORE PUSH1 0x20 ADD SWAP1 DUP2 MSTORE PUSH1 0x20 ADD PUSH1 0x0 KECCAK256 SWAP1 POP PUSH1 0x1 PUSH1 0x3 PUSH1 0x0 DUP10 DUP2 MSTORE PUSH1 0x20 ADD SWAP1 DUP2 MSTORE PUSH1 0x20 ADD PUSH1 0x0 KECCAK256 PUSH1 0x0 CALLER PUSH20 0xFFFFFFFFFFFFFFFFFFFFFFFFFFFFFFFFFFFFFFFF AND PUSH20 0xFFFFFFFFFFFFFFFFFFFFFFFFFFFFFFFFFFFFFFFF AND DUP2 MSTORE PUSH1 0x20 ADD SWAP1 DUP2 MSTORE PUSH1 0x20 ADD PUSH1 0x0 KECCAK256 PUSH1 0x0 DUP3 DUP3 SLOAD PUSH2 0x88D SWAP2 SWAP1 PUSH2 0x2948 JUMP JUMPDEST SWAP3 POP POP DUP2 SWAP1 SSTORE POP PUSH1 0x1 PUSH1 0x3 PUSH1 0x0 DUP10 DUP2 MSTORE PUSH1 0x20 ADD SWAP1 DUP2 MSTORE PUSH1 0x20 ADD PUSH1 0x0 KECCAK256 PUSH1 0x0 DUP4 PUSH1 0x3 ADD PUSH1 0x0 SWAP1 SLOAD SWAP1 PUSH2 0x100 EXP SWAP1 DIV PUSH20 0xFFFFFFFFFFFFFFFFFFFFFFFFFFFFFFFFFFFFFFFF AND PUSH20 0xFFFFFFFFFFFFFFFFFFFFFFFFFFFFFFFFFFFFFFFF AND PUSH20 0xFFFFFFFFFFFFFFFFFFFFFFFFFFFFFFFFFFFFFFFF AND DUP2 MSTORE PUSH1 0x20 ADD SWAP1 DUP2 MSTORE PUSH1 0x20 ADD PUSH1 0x0 KECCAK256 PUSH1 0x0 DUP3 DUP3 SLOAD PUSH2 0x919 SWAP2 SWAP1 PUSH2 0x299E JUMP JUMPDEST SWAP3 POP POP DUP2 SWAP1 SSTORE POP PUSH32 0x0 PUSH20 0xFFFFFFFFFFFFFFFFFFFFFFFFFFFFFFFFFFFFFFFF AND PUSH4 0x23B872DD CALLER DUP4 PUSH1 0x3 ADD PUSH1 0x0 SWAP1 SLOAD SWAP1 PUSH2 0x100 EXP SWAP1 DIV PUSH20 0xFFFFFFFFFFFFFFFFFFFFFFFFFFFFFFFFFFFFFFFF AND DUP10 PUSH1 0x40 MLOAD DUP5 PUSH4 0xFFFFFFFF AND PUSH1 0xE0 SHL DUP2 MSTORE PUSH1 0x4 ADD PUSH2 0x9A1 SWAP4 SWAP3 SWAP2 SWAP1 PUSH2 0x2560 JUMP JUMPDEST PUSH1 0x20 PUSH1 0x40 MLOAD DUP1 DUP4 SUB DUP2 PUSH1 0x0 DUP8 DUP1 EXTCODESIZE ISZERO DUP1 ISZERO PUSH2 0x9BB JUMPI PUSH1 0x0 DUP1 REVERT JUMPDEST POP GAS CALL ISZERO DUP1 ISZERO PUSH2 0x9CF JUMPI RETURNDATASIZE PUSH1 0x0 DUP1 RETURNDATACOPY RETURNDATASIZE PUSH1 0x0 REVERT JUMPDEST POP POP POP POP PUSH1 0x40 MLOAD RETURNDATASIZE PUSH1 0x1F NOT PUSH1 0x1F DUP3 ADD AND DUP3 ADD DUP1 PUSH1 0x40 MSTORE POP DUP2 ADD SWAP1 PUSH2 0x9F3 SWAP2 SWAP1 PUSH2 0x1E8B JUMP JUMPDEST POP CALLER PUSH20 0xFFFFFFFFFFFFFFFFFFFFFFFFFFFFFFFFFFFFFFFF AND PUSH32 0xDEF0DD1961901757E759C1E3E1CED766D61D989AA5030414848DAE6BAC75CBDD DUP9 DUP9 PUSH1 0x40 MLOAD PUSH2 0xA3C SWAP3 SWAP2 SWAP1 PUSH2 0x27C7 JUMP JUMPDEST PUSH1 0x40 MLOAD DUP1 SWAP2 SUB SWAP1 LOG2 POP POP POP POP POP POP POP JUMP JUMPDEST PUSH1 0x0 DUP2 DUP2 SLOAD DUP2 LT PUSH2 0xA5D JUMPI PUSH1 0x0 DUP1 REVERT JUMPDEST SWAP1 PUSH1 0x0 MSTORE PUSH1 0x20 PUSH1 0x0 KECCAK256 SWAP1 PUSH1 0x6 MUL ADD PUSH1 0x0 SWAP2 POP SWAP1 POP DUP1 PUSH1 0x0 ADD SLOAD SWAP1 DUP1 PUSH1 0x1 ADD DUP1 SLOAD PUSH2 0xA86 SWAP1 PUSH2 0x2ADC JUMP JUMPDEST DUP1 PUSH1 0x1F ADD PUSH1 0x20 DUP1 SWAP2 DIV MUL PUSH1 0x20 ADD PUSH1 0x40 MLOAD SWAP1 DUP2 ADD PUSH1 0x40 MSTORE DUP1 SWAP3 SWAP2 SWAP1 DUP2 DUP2 MSTORE PUSH1 0x20 ADD DUP3 DUP1 SLOAD PUSH2 0xAB2 SWAP1 PUSH2 0x2ADC JUMP JUMPDEST DUP1 ISZERO PUSH2 0xAFF JUMPI DUP1 PUSH1 0x1F LT PUSH2 0xAD4 JUMPI PUSH2 0x100 DUP1 DUP4 SLOAD DIV MUL DUP4 MSTORE SWAP2 PUSH1 0x20 ADD SWAP2 PUSH2 0xAFF JUMP JUMPDEST DUP3 ADD SWAP2 SWAP1 PUSH1 0x0 MSTORE PUSH1 0x20 PUSH1 0x0 KECCAK256 SWAP1 JUMPDEST DUP2 SLOAD DUP2 MSTORE SWAP1 PUSH1 0x1 ADD SWAP1 PUSH1 0x20 ADD DUP1 DUP4 GT PUSH2 0xAE2 JUMPI DUP3 SWAP1 SUB PUSH1 0x1F AND DUP3 ADD SWAP2 JUMPDEST POP POP POP POP POP SWAP1 DUP1 PUSH1 0x2 ADD SLOAD SWAP1 DUP1 PUSH1 0x3 ADD PUSH1 0x0 SWAP1 SLOAD SWAP1 PUSH2 0x100 EXP SWAP1 DIV PUSH20 0xFFFFFFFFFFFFFFFFFFFFFFFFFFFFFFFFFFFFFFFF AND SWAP1 DUP1 PUSH1 0x4 ADD SLOAD SWAP1 DUP1 PUSH1 0x5 ADD PUSH1 0x0 SWAP1 SLOAD SWAP1 PUSH2 0x100 EXP SWAP1 DIV PUSH4 0xFFFFFFFF AND SWAP1 POP DUP7 JUMP JUMPDEST PUSH2 0xB5B PUSH1 0x4 PUSH2 0x1BB4 JUMP JUMPDEST PUSH1 0x40 MLOAD DUP1 PUSH1 0xC0 ADD PUSH1 0x40 MSTORE DUP1 PUSH2 0xB70 PUSH1 0x4 PUSH2 0x1BCA JUMP JUMPDEST DUP2 MSTORE PUSH1 0x20 ADD DUP4 DUP2 MSTORE PUSH1 0x20 ADD PUSH1 0x0 DUP2 MSTORE PUSH1 0x20 ADD CALLER PUSH20 0xFFFFFFFFFFFFFFFFFFFFFFFFFFFFFFFFFFFFFFFF AND DUP2 MSTORE PUSH1 0x20 ADD DUP5 DUP2 MSTORE PUSH1 0x20 ADD DUP3 PUSH4 0xFFFFFFFF AND DUP2 MSTORE POP PUSH1 0x2 PUSH1 0x0 PUSH2 0xBBC PUSH1 0x4 PUSH2 0x1BCA JUMP JUMPDEST DUP2 MSTORE PUSH1 0x20 ADD SWAP1 DUP2 MSTORE PUSH1 0x20 ADD PUSH1 0x0 KECCAK256 PUSH1 0x0 DUP3 ADD MLOAD DUP2 PUSH1 0x0 ADD SSTORE PUSH1 0x20 DUP3 ADD MLOAD DUP2 PUSH1 0x1 ADD SWAP1 DUP1 MLOAD SWAP1 PUSH1 0x20 ADD SWAP1 PUSH2 0xBF0 SWAP3 SWAP2 SWAP1 PUSH2 0x1BD8 JUMP JUMPDEST POP PUSH1 0x40 DUP3 ADD MLOAD DUP2 PUSH1 0x2 ADD SSTORE PUSH1 0x60 DUP3 ADD MLOAD DUP2 PUSH1 0x3 ADD PUSH1 0x0 PUSH2 0x100 EXP DUP2 SLOAD DUP2 PUSH20 0xFFFFFFFFFFFFFFFFFFFFFFFFFFFFFFFFFFFFFFFF MUL NOT AND SWAP1 DUP4 PUSH20 0xFFFFFFFFFFFFFFFFFFFFFFFFFFFFFFFFFFFFFFFF AND MUL OR SWAP1 SSTORE POP PUSH1 0x80 DUP3 ADD MLOAD DUP2 PUSH1 0x4 ADD SSTORE PUSH1 0xA0 DUP3 ADD MLOAD DUP2 PUSH1 0x5 ADD PUSH1 0x0 PUSH2 0x100 EXP DUP2 SLOAD DUP2 PUSH4 0xFFFFFFFF MUL NOT AND SWAP1 DUP4 PUSH4 0xFFFFFFFF AND MUL OR SWAP1 SSTORE POP SWAP1 POP POP PUSH1 0x1 PUSH1 0x3 PUSH1 0x0 PUSH2 0xC86 PUSH1 0x4 PUSH2 0x1BCA JUMP JUMPDEST DUP2 MSTORE PUSH1 0x20 ADD SWAP1 DUP2 MSTORE PUSH1 0x20 ADD PUSH1 0x0 KECCAK256 PUSH1 0x0 CALLER PUSH20 0xFFFFFFFFFFFFFFFFFFFFFFFFFFFFFFFFFFFFFFFF AND PUSH20 0xFFFFFFFFFFFFFFFFFFFFFFFFFFFFFFFFFFFFFFFF AND DUP2 MSTORE PUSH1 0x20 ADD SWAP1 DUP2 MSTORE PUSH1 0x20 ADD PUSH1 0x0 KECCAK256 PUSH1 0x0 DUP3 DUP3 SLOAD PUSH2 0xCE0 SWAP2 SWAP1 PUSH2 0x2948 JUMP JUMPDEST SWAP3 POP POP DUP2 SWAP1 SSTORE POP PUSH1 0x0 PUSH1 0x2 PUSH1 0x0 PUSH2 0xCF7 PUSH1 0x4 PUSH2 0x1BCA JUMP JUMPDEST DUP2 MSTORE PUSH1 0x20 ADD SWAP1 DUP2 MSTORE PUSH1 0x20 ADD PUSH1 0x0 KECCAK256 SWAP1 DUP1 PUSH1 0x1 DUP2 SLOAD ADD DUP1 DUP3 SSTORE DUP1 SWAP2 POP POP PUSH1 0x1 SWAP1 SUB SWAP1 PUSH1 0x0 MSTORE PUSH1 0x20 PUSH1 0x0 KECCAK256 SWAP1 PUSH1 0x6 MUL ADD PUSH1 0x0 SWAP1 SWAP2 SWAP1 SWAP2 SWAP1 SWAP2 POP PUSH1 0x0 DUP3 ADD SLOAD DUP2 PUSH1 0x0 ADD SSTORE PUSH1 0x1 DUP3 ADD DUP2 PUSH1 0x1 ADD SWAP1 DUP1 SLOAD PUSH2 0xD4C SWAP1 PUSH2 0x2ADC JUMP JUMPDEST PUSH2 0xD57 SWAP3 SWAP2 SWAP1 PUSH2 0x1C5E JUMP JUMPDEST POP PUSH1 0x2 DUP3 ADD SLOAD DUP2 PUSH1 0x2 ADD SSTORE PUSH1 0x3 DUP3 ADD PUSH1 0x0 SWAP1 SLOAD SWAP1 PUSH2 0x100 EXP SWAP1 DIV PUSH20 0xFFFFFFFFFFFFFFFFFFFFFFFFFFFFFFFFFFFFFFFF AND DUP2 PUSH1 0x3 ADD PUSH1 0x0 PUSH2 0x100 EXP DUP2 SLOAD DUP2 PUSH20 0xFFFFFFFFFFFFFFFFFFFFFFFFFFFFFFFFFFFFFFFF MUL NOT AND SWAP1 DUP4 PUSH20 0xFFFFFFFFFFFFFFFFFFFFFFFFFFFFFFFFFFFFFFFF AND MUL OR SWAP1 SSTORE POP PUSH1 0x4 DUP3 ADD SLOAD DUP2 PUSH1 0x4 ADD SSTORE PUSH1 0x5 DUP3 ADD PUSH1 0x0 SWAP1 SLOAD SWAP1 PUSH2 0x100 EXP SWAP1 DIV PUSH4 0xFFFFFFFF AND DUP2 PUSH1 0x5 ADD PUSH1 0x0 PUSH2 0x100 EXP DUP2 SLOAD DUP2 PUSH4 0xFFFFFFFF MUL NOT AND SWAP1 DUP4 PUSH4 0xFFFFFFFF AND MUL OR SWAP1 SSTORE POP POP POP CALLER PUSH20 0xFFFFFFFFFFFFFFFFFFFFFFFFFFFFFFFFFFFFFFFF AND PUSH32 0x9A5B8B5CB7F9C536EA5DB1A94142C9F716FB3A8698A9C70A5B8BFAD3922CB06C PUSH2 0xE4E PUSH1 0x4 PUSH2 0x1BCA JUMP JUMPDEST DUP6 DUP6 DUP6 PUSH1 0x2 PUSH1 0x0 PUSH2 0xE5F PUSH1 0x4 PUSH2 0x1BCA JUMP JUMPDEST DUP2 MSTORE PUSH1 0x20 ADD SWAP1 DUP2 MSTORE PUSH1 0x20 ADD PUSH1 0x0 KECCAK256 PUSH1 0x2 ADD SLOAD PUSH1 0x40 MLOAD PUSH2 0xE82 SWAP6 SWAP5 SWAP4 SWAP3 SWAP2 SWAP1 PUSH2 0x27F0 JUMP JUMPDEST PUSH1 0x40 MLOAD DUP1 SWAP2 SUB SWAP1 LOG2 POP POP POP JUMP JUMPDEST PUSH1 0x60 PUSH1 0x0 PUSH2 0xE9D PUSH1 0x4 PUSH2 0x1BCA JUMP JUMPDEST GT PUSH2 0xEDD JUMPI PUSH1 0x40 MLOAD PUSH32 0x8C379A000000000000000000000000000000000000000000000000000000000 DUP2 MSTORE PUSH1 0x4 ADD PUSH2 0xED4 SWAP1 PUSH2 0x261F JUMP JUMPDEST PUSH1 0x40 MLOAD DUP1 SWAP2 SUB SWAP1 REVERT JUMPDEST CALLER PUSH20 0xFFFFFFFFFFFFFFFFFFFFFFFFFFFFFFFFFFFFFFFF AND PUSH32 0x440C078A5E11BFF85C6B6D7C52F378C8220355BD3331EC889638C0ECA883670C PUSH1 0x0 PUSH1 0x40 MLOAD PUSH2 0xF24 SWAP2 SWAP1 PUSH2 0x25E2 JUMP JUMPDEST PUSH1 0x40 MLOAD DUP1 SWAP2 SUB SWAP1 LOG2 PUSH1 0x0 DUP1 SLOAD DUP1 PUSH1 0x20 MUL PUSH1 0x20 ADD PUSH1 0x40 MLOAD SWAP1 DUP2 ADD PUSH1 0x40 MSTORE DUP1 SWAP3 SWAP2 SWAP1 DUP2 DUP2 MSTORE PUSH1 0x20 ADD PUSH1 0x0 SWAP1 JUMPDEST DUP3 DUP3 LT ISZERO PUSH2 0x10AC JUMPI DUP4 DUP3 SWAP1 PUSH1 0x0 MSTORE PUSH1 0x20 PUSH1 0x0 KECCAK256 SWAP1 PUSH1 0x6 MUL ADD PUSH1 0x40 MLOAD DUP1 PUSH1 0xC0 ADD PUSH1 0x40 MSTORE SWAP1 DUP2 PUSH1 0x0 DUP3 ADD SLOAD DUP2 MSTORE PUSH1 0x20 ADD PUSH1 0x1 DUP3 ADD DUP1 SLOAD PUSH2 0xF8B SWAP1 PUSH2 0x2ADC JUMP JUMPDEST DUP1 PUSH1 0x1F ADD PUSH1 0x20 DUP1 SWAP2 DIV MUL PUSH1 0x20 ADD PUSH1 0x40 MLOAD SWAP1 DUP2 ADD PUSH1 0x40 MSTORE DUP1 SWAP3 SWAP2 SWAP1 DUP2 DUP2 MSTORE PUSH1 0x20 ADD DUP3 DUP1 SLOAD PUSH2 0xFB7 SWAP1 PUSH2 0x2ADC JUMP JUMPDEST DUP1 ISZERO PUSH2 0x1004 JUMPI DUP1 PUSH1 0x1F LT PUSH2 0xFD9 JUMPI PUSH2 0x100 DUP1 DUP4 SLOAD DIV MUL DUP4 MSTORE SWAP2 PUSH1 0x20 ADD SWAP2 PUSH2 0x1004 JUMP JUMPDEST DUP3 ADD SWAP2 SWAP1 PUSH1 0x0 MSTORE PUSH1 0x20 PUSH1 0x0 KECCAK256 SWAP1 JUMPDEST DUP2 SLOAD DUP2 MSTORE SWAP1 PUSH1 0x1 ADD SWAP1 PUSH1 0x20 ADD DUP1 DUP4 GT PUSH2 0xFE7 JUMPI DUP3 SWAP1 SUB PUSH1 0x1F AND DUP3 ADD SWAP2 JUMPDEST POP POP POP POP POP DUP2 MSTORE PUSH1 0x20 ADD PUSH1 0x2 DUP3 ADD SLOAD DUP2 MSTORE PUSH1 0x20 ADD PUSH1 0x3 DUP3 ADD PUSH1 0x0 SWAP1 SLOAD SWAP1 PUSH2 0x100 EXP SWAP1 DIV PUSH20 0xFFFFFFFFFFFFFFFFFFFFFFFFFFFFFFFFFFFFFFFF AND PUSH20 0xFFFFFFFFFFFFFFFFFFFFFFFFFFFFFFFFFFFFFFFF AND PUSH20 0xFFFFFFFFFFFFFFFFFFFFFFFFFFFFFFFFFFFFFFFF AND DUP2 MSTORE PUSH1 0x20 ADD PUSH1 0x4 DUP3 ADD SLOAD DUP2 MSTORE PUSH1 0x20 ADD PUSH1 0x5 DUP3 ADD PUSH1 0x0 SWAP1 SLOAD SWAP1 PUSH2 0x100 EXP SWAP1 DIV PUSH4 0xFFFFFFFF AND PUSH4 0xFFFFFFFF AND PUSH4 0xFFFFFFFF AND DUP2 MSTORE POP POP DUP2 MSTORE PUSH1 0x20 ADD SWAP1 PUSH1 0x1 ADD SWAP1 PUSH2 0xF4E JUMP JUMPDEST POP POP POP POP SWAP1 POP SWAP1 JUMP JUMPDEST PUSH1 0x1 PUSH1 0x20 MSTORE DUP1 PUSH1 0x0 MSTORE PUSH1 0x40 PUSH1 0x0 KECCAK256 PUSH1 0x0 SWAP2 POP SWAP1 POP DUP1 PUSH1 0x0 ADD SLOAD SWAP1 DUP1 PUSH1 0x1 ADD DUP1 SLOAD PUSH2 0x10DE SWAP1 PUSH2 0x2ADC JUMP JUMPDEST DUP1 PUSH1 0x1F ADD PUSH1 0x20 DUP1 SWAP2 DIV MUL PUSH1 0x20 ADD PUSH1 0x40 MLOAD SWAP1 DUP2 ADD PUSH1 0x40 MSTORE DUP1 SWAP3 SWAP2 SWAP1 DUP2 DUP2 MSTORE PUSH1 0x20 ADD DUP3 DUP1 SLOAD PUSH2 0x110A SWAP1 PUSH2 0x2ADC JUMP JUMPDEST DUP1 ISZERO PUSH2 0x1157 JUMPI DUP1 PUSH1 0x1F LT PUSH2 0x112C JUMPI PUSH2 0x100 DUP1 DUP4 SLOAD DIV MUL DUP4 MSTORE SWAP2 PUSH1 0x20 ADD SWAP2 PUSH2 0x1157 JUMP JUMPDEST DUP3 ADD SWAP2 SWAP1 PUSH1 0x0 MSTORE PUSH1 0x20 PUSH1 0x0 KECCAK256 SWAP1 JUMPDEST DUP2 SLOAD DUP2 MSTORE SWAP1 PUSH1 0x1 ADD SWAP1 PUSH1 0x20 ADD DUP1 DUP4 GT PUSH2 0x113A JUMPI DUP3 SWAP1 SUB PUSH1 0x1F AND DUP3 ADD SWAP2 JUMPDEST POP POP POP POP POP SWAP1 DUP1 PUSH1 0x2 ADD DUP1 SLOAD PUSH2 0x116C SWAP1 PUSH2 0x2ADC JUMP JUMPDEST DUP1 PUSH1 0x1F ADD PUSH1 0x20 DUP1 SWAP2 DIV MUL PUSH1 0x20 ADD PUSH1 0x40 MLOAD SWAP1 DUP2 ADD PUSH1 0x40 MSTORE DUP1 SWAP3 SWAP2 SWAP1 DUP2 DUP2 MSTORE PUSH1 0x20 ADD DUP3 DUP1 SLOAD PUSH2 0x1198 SWAP1 PUSH2 0x2ADC JUMP JUMPDEST DUP1 ISZERO PUSH2 0x11E5 JUMPI DUP1 PUSH1 0x1F LT PUSH2 0x11BA JUMPI PUSH2 0x100 DUP1 DUP4 SLOAD DIV MUL DUP4 MSTORE SWAP2 PUSH1 0x20 ADD SWAP2 PUSH2 0x11E5 JUMP JUMPDEST DUP3 ADD SWAP2 SWAP1 PUSH1 0x0 MSTORE PUSH1 0x20 PUSH1 0x0 KECCAK256 SWAP1 JUMPDEST DUP2 SLOAD DUP2 MSTORE SWAP1 PUSH1 0x1 ADD SWAP1 PUSH1 0x20 ADD DUP1 DUP4 GT PUSH2 0x11C8 JUMPI DUP3 SWAP1 SUB PUSH1 0x1F AND DUP3 ADD SWAP2 JUMPDEST POP POP POP POP POP SWAP1 DUP1 PUSH1 0x4 ADD SLOAD SWAP1 POP DUP5 JUMP JUMPDEST PUSH1 0x2 PUSH1 0x20 MSTORE DUP1 PUSH1 0x0 MSTORE PUSH1 0x40 PUSH1 0x0 KECCAK256 PUSH1 0x0 SWAP2 POP SWAP1 POP DUP1 PUSH1 0x0 ADD SLOAD SWAP1 DUP1 PUSH1 0x1 ADD DUP1 SLOAD PUSH2 0x121E SWAP1 PUSH2 0x2ADC JUMP JUMPDEST DUP1 PUSH1 0x1F ADD PUSH1 0x20 DUP1 SWAP2 DIV MUL PUSH1 0x20 ADD PUSH1 0x40 MLOAD SWAP1 DUP2 ADD PUSH1 0x40 MSTORE DUP1 SWAP3 SWAP2 SWAP1 DUP2 DUP2 MSTORE PUSH1 0x20 ADD DUP3 DUP1 SLOAD PUSH2 0x124A SWAP1 PUSH2 0x2ADC JUMP JUMPDEST DUP1 ISZERO PUSH2 0x1297 JUMPI DUP1 PUSH1 0x1F LT PUSH2 0x126C JUMPI PUSH2 0x100 DUP1 DUP4 SLOAD DIV MUL DUP4 MSTORE SWAP2 PUSH1 0x20 ADD SWAP2 PUSH2 0x1297 JUMP JUMPDEST DUP3 ADD SWAP2 SWAP1 PUSH1 0x0 MSTORE PUSH1 0x20 PUSH1 0x0 KECCAK256 SWAP1 JUMPDEST DUP2 SLOAD DUP2 MSTORE SWAP1 PUSH1 0x1 ADD SWAP1 PUSH1 0x20 ADD DUP1 DUP4 GT PUSH2 0x127A JUMPI DUP3 SWAP1 SUB PUSH1 0x1F AND DUP3 ADD SWAP2 JUMPDEST POP POP POP POP POP SWAP1 DUP1 PUSH1 0x2 ADD SLOAD SWAP1 DUP1 PUSH1 0x3 ADD PUSH1 0x0 SWAP1 SLOAD SWAP1 PUSH2 0x100 EXP SWAP1 DIV PUSH20 0xFFFFFFFFFFFFFFFFFFFFFFFFFFFFFFFFFFFFFFFF AND SWAP1 DUP1 PUSH1 0x4 ADD SLOAD SWAP1 DUP1 PUSH1 0x5 ADD PUSH1 0x0 SWAP1 SLOAD SWAP1 PUSH2 0x100 EXP SWAP1 DIV PUSH4 0xFFFFFFFF AND SWAP1 POP DUP7 JUMP JUMPDEST DUP1 PUSH1 0x0 PUSH1 0x2 PUSH1 0x0 DUP4 DUP2 MSTORE PUSH1 0x20 ADD SWAP1 DUP2 MSTORE PUSH1 0x20 ADD PUSH1 0x0 KECCAK256 PUSH1 0x40 MLOAD DUP1 PUSH1 0xC0 ADD PUSH1 0x40 MSTORE SWAP1 DUP2 PUSH1 0x0 DUP3 ADD SLOAD DUP2 MSTORE PUSH1 0x20 ADD PUSH1 0x1 DUP3 ADD DUP1 SLOAD PUSH2 0x1324 SWAP1 PUSH2 0x2ADC JUMP JUMPDEST DUP1 PUSH1 0x1F ADD PUSH1 0x20 DUP1 SWAP2 DIV MUL PUSH1 0x20 ADD PUSH1 0x40 MLOAD SWAP1 DUP2 ADD PUSH1 0x40 MSTORE DUP1 SWAP3 SWAP2 SWAP1 DUP2 DUP2 MSTORE PUSH1 0x20 ADD DUP3 DUP1 SLOAD PUSH2 0x1350 SWAP1 PUSH2 0x2ADC JUMP JUMPDEST DUP1 ISZERO PUSH2 0x139D JUMPI DUP1 PUSH1 0x1F LT PUSH2 0x1372 JUMPI PUSH2 0x100 DUP1 DUP4 SLOAD DIV MUL DUP4 MSTORE SWAP2 PUSH1 0x20 ADD SWAP2 PUSH2 0x139D JUMP JUMPDEST DUP3 ADD SWAP2 SWAP1 PUSH1 0x0 MSTORE PUSH1 0x20 PUSH1 0x0 KECCAK256 SWAP1 JUMPDEST DUP2 SLOAD DUP2 MSTORE SWAP1 PUSH1 0x1 ADD SWAP1 PUSH1 0x20 ADD DUP1 DUP4 GT PUSH2 0x1380 JUMPI DUP3 SWAP1 SUB PUSH1 0x1F AND DUP3 ADD SWAP2 JUMPDEST POP POP POP POP POP DUP2 MSTORE PUSH1 0x20 ADD PUSH1 0x2 DUP3 ADD SLOAD DUP2 MSTORE PUSH1 0x20 ADD PUSH1 0x3 DUP3 ADD PUSH1 0x0 SWAP1 SLOAD SWAP1 PUSH2 0x100 EXP SWAP1 DIV PUSH20 0xFFFFFFFFFFFFFFFFFFFFFFFFFFFFFFFFFFFFFFFF AND PUSH20 0xFFFFFFFFFFFFFFFFFFFFFFFFFFFFFFFFFFFFFFFF AND PUSH20 0xFFFFFFFFFFFFFFFFFFFFFFFFFFFFFFFFFFFFFFFF AND DUP2 MSTORE PUSH1 0x20 ADD PUSH1 0x4 DUP3 ADD SLOAD DUP2 MSTORE PUSH1 0x20 ADD PUSH1 0x5 DUP3 ADD PUSH1 0x0 SWAP1 SLOAD SWAP1 PUSH2 0x100 EXP SWAP1 DIV PUSH4 0xFFFFFFFF AND PUSH4 0xFFFFFFFF AND PUSH4 0xFFFFFFFF AND DUP2 MSTORE POP POP SWAP1 POP TIMESTAMP DUP2 PUSH1 0xA0 ADD MLOAD PUSH4 0xFFFFFFFF AND LT ISZERO PUSH2 0x1485 JUMPI PUSH1 0x40 MLOAD PUSH32 0x8C379A000000000000000000000000000000000000000000000000000000000 DUP2 MSTORE PUSH1 0x4 ADD PUSH2 0x147C SWAP1 PUSH2 0x265F JUMP JUMPDEST PUSH1 0x40 MLOAD DUP1 SWAP2 SUB SWAP1 REVERT JUMPDEST PUSH1 0x1 PUSH1 0x3 PUSH1 0x0 DUP6 DUP2 MSTORE PUSH1 0x20 ADD SWAP1 DUP2 MSTORE PUSH1 0x20 ADD PUSH1 0x0 KECCAK256 PUSH1 0x0 CALLER PUSH20 0xFFFFFFFFFFFFFFFFFFFFFFFFFFFFFFFFFFFFFFFF AND PUSH20 0xFFFFFFFFFFFFFFFFFFFFFFFFFFFFFFFFFFFFFFFF AND DUP2 MSTORE PUSH1 0x20 ADD SWAP1 DUP2 MSTORE PUSH1 0x20 ADD PUSH1 0x0 KECCAK256 PUSH1 0x0 DUP3 DUP3 SLOAD PUSH2 0x14E6 SWAP2 SWAP1 PUSH2 0x299E JUMP JUMPDEST SWAP3 POP POP DUP2 SWAP1 SSTORE POP PUSH1 0x2 PUSH1 0x0 DUP5 DUP2 MSTORE PUSH1 0x20 ADD SWAP1 DUP2 MSTORE PUSH1 0x20 ADD PUSH1 0x0 KECCAK256 PUSH1 0x0 DUP1 DUP3 ADD PUSH1 0x0 SWAP1 SSTORE PUSH1 0x1 DUP3 ADD PUSH1 0x0 PUSH2 0x1519 SWAP2 SWAP1 PUSH2 0x1CEB JUMP JUMPDEST PUSH1 0x2 DUP3 ADD PUSH1 0x0 SWAP1 SSTORE PUSH1 0x3 DUP3 ADD PUSH1 0x0 PUSH2 0x100 EXP DUP2 SLOAD SWAP1 PUSH20 0xFFFFFFFFFFFFFFFFFFFFFFFFFFFFFFFFFFFFFFFF MUL NOT AND SWAP1 SSTORE PUSH1 0x4 DUP3 ADD PUSH1 0x0 SWAP1 SSTORE PUSH1 0x5 DUP3 ADD PUSH1 0x0 PUSH2 0x100 EXP DUP2 SLOAD SWAP1 PUSH4 0xFFFFFFFF MUL NOT AND SWAP1 SSTORE POP POP CALLER PUSH20 0xFFFFFFFFFFFFFFFFFFFFFFFFFFFFFFFFFFFFFFFF AND PUSH32 0x45E4102CD0468B42F71C0179AA78051418C31C018E07A5091EB13B97FADBAB5E DUP5 PUSH1 0x40 MLOAD PUSH2 0x15AF SWAP2 SWAP1 PUSH2 0x26C1 JUMP JUMPDEST PUSH1 0x40 MLOAD DUP1 SWAP2 SUB SWAP1 LOG2 POP POP POP JUMP JUMPDEST PUSH2 0x15C4 PUSH2 0x1D2B JUMP JUMPDEST DUP2 PUSH2 0x15CF PUSH1 0x4 PUSH2 0x1BCA JUMP JUMPDEST DUP2 GT ISZERO PUSH2 0x1611 JUMPI PUSH1 0x40 MLOAD PUSH32 0x8C379A000000000000000000000000000000000000000000000000000000000 DUP2 MSTORE PUSH1 0x4 ADD PUSH2 0x1608 SWAP1 PUSH2 0x263F JUMP JUMPDEST PUSH1 0x40 MLOAD DUP1 SWAP2 SUB SWAP1 REVERT JUMPDEST CALLER PUSH20 0xFFFFFFFFFFFFFFFFFFFFFFFFFFFFFFFFFFFFFFFF AND PUSH32 0xCB718FFB18411374498C1CD31CB4D4C8068AF3C5B1546205F14C72BCD20F21BA DUP5 PUSH1 0x2 PUSH1 0x0 DUP8 DUP2 MSTORE PUSH1 0x20 ADD SWAP1 DUP2 MSTORE PUSH1 0x20 ADD PUSH1 0x0 KECCAK256 PUSH1 0x40 MLOAD PUSH2 0x166B SWAP3 SWAP2 SWAP1 PUSH2 0x2797 JUMP JUMPDEST PUSH1 0x40 MLOAD DUP1 SWAP2 SUB SWAP1 LOG2 PUSH1 0x2 PUSH1 0x0 DUP5 DUP2 MSTORE PUSH1 0x20 ADD SWAP1 DUP2 MSTORE PUSH1 0x20 ADD PUSH1 0x0 KECCAK256 PUSH1 0x40 MLOAD DUP1 PUSH1 0xC0 ADD PUSH1 0x40 MSTORE SWAP1 DUP2 PUSH1 0x0 DUP3 ADD SLOAD DUP2 MSTORE PUSH1 0x20 ADD PUSH1 0x1 DUP3 ADD DUP1 SLOAD PUSH2 0x16AB SWAP1 PUSH2 0x2ADC JUMP JUMPDEST DUP1 PUSH1 0x1F ADD PUSH1 0x20 DUP1 SWAP2 DIV MUL PUSH1 0x20 ADD PUSH1 0x40 MLOAD SWAP1 DUP2 ADD PUSH1 0x40 MSTORE DUP1 SWAP3 SWAP2 SWAP1 DUP2 DUP2 MSTORE PUSH1 0x20 ADD DUP3 DUP1 SLOAD PUSH2 0x16D7 SWAP1 PUSH2 0x2ADC JUMP JUMPDEST DUP1 ISZERO PUSH2 0x1724 JUMPI DUP1 PUSH1 0x1F LT PUSH2 0x16F9 JUMPI PUSH2 0x100 DUP1 DUP4 SLOAD DIV MUL DUP4 MSTORE SWAP2 PUSH1 0x20 ADD SWAP2 PUSH2 0x1724 JUMP JUMPDEST DUP3 ADD SWAP2 SWAP1 PUSH1 0x0 MSTORE PUSH1 0x20 PUSH1 0x0 KECCAK256 SWAP1 JUMPDEST DUP2 SLOAD DUP2 MSTORE SWAP1 PUSH1 0x1 ADD SWAP1 PUSH1 0x20 ADD DUP1 DUP4 GT PUSH2 0x1707 JUMPI DUP3 SWAP1 SUB PUSH1 0x1F AND DUP3 ADD SWAP2 JUMPDEST POP POP POP POP POP DUP2 MSTORE PUSH1 0x20 ADD PUSH1 0x2 DUP3 ADD SLOAD DUP2 MSTORE PUSH1 0x20 ADD PUSH1 0x3 DUP3 ADD PUSH1 0x0 SWAP1 SLOAD SWAP1 PUSH2 0x100 EXP SWAP1 DIV PUSH20 0xFFFFFFFFFFFFFFFFFFFFFFFFFFFFFFFFFFFFFFFF AND PUSH20 0xFFFFFFFFFFFFFFFFFFFFFFFFFFFFFFFFFFFFFFFF AND PUSH20 0xFFFFFFFFFFFFFFFFFFFFFFFFFFFFFFFFFFFFFFFF AND DUP2 MSTORE PUSH1 0x20 ADD PUSH1 0x4 DUP3 ADD SLOAD DUP2 MSTORE PUSH1 0x20 ADD PUSH1 0x5 DUP3 ADD PUSH1 0x0 SWAP1 SLOAD SWAP1 PUSH2 0x100 EXP SWAP1 DIV PUSH4 0xFFFFFFFF AND PUSH4 0xFFFFFFFF AND PUSH4 0xFFFFFFFF AND DUP2 MSTORE POP POP SWAP2 POP POP SWAP2 SWAP1 POP JUMP JUMPDEST DUP2 PUSH1 0x0 PUSH1 0x2 PUSH1 0x0 DUP4 DUP2 MSTORE PUSH1 0x20 ADD SWAP1 DUP2 MSTORE PUSH1 0x20 ADD PUSH1 0x0 KECCAK256 PUSH1 0x40 MLOAD DUP1 PUSH1 0xC0 ADD PUSH1 0x40 MSTORE SWAP1 DUP2 PUSH1 0x0 DUP3 ADD SLOAD DUP2 MSTORE PUSH1 0x20 ADD PUSH1 0x1 DUP3 ADD DUP1 SLOAD PUSH2 0x1800 SWAP1 PUSH2 0x2ADC JUMP JUMPDEST DUP1 PUSH1 0x1F ADD PUSH1 0x20 DUP1 SWAP2 DIV MUL PUSH1 0x20 ADD PUSH1 0x40 MLOAD SWAP1 DUP2 ADD PUSH1 0x40 MSTORE DUP1 SWAP3 SWAP2 SWAP1 DUP2 DUP2 MSTORE PUSH1 0x20 ADD DUP3 DUP1 SLOAD PUSH2 0x182C SWAP1 PUSH2 0x2ADC JUMP JUMPDEST DUP1 ISZERO PUSH2 0x1879 JUMPI DUP1 PUSH1 0x1F LT PUSH2 0x184E JUMPI PUSH2 0x100 DUP1 DUP4 SLOAD DIV MUL DUP4 MSTORE SWAP2 PUSH1 0x20 ADD SWAP2 PUSH2 0x1879 JUMP JUMPDEST DUP3 ADD SWAP2 SWAP1 PUSH1 0x0 MSTORE PUSH1 0x20 PUSH1 0x0 KECCAK256 SWAP1 JUMPDEST DUP2 SLOAD DUP2 MSTORE SWAP1 PUSH1 0x1 ADD SWAP1 PUSH1 0x20 ADD DUP1 DUP4 GT PUSH2 0x185C JUMPI DUP3 SWAP1 SUB PUSH1 0x1F AND DUP3 ADD SWAP2 JUMPDEST POP POP POP POP POP DUP2 MSTORE PUSH1 0x20 ADD PUSH1 0x2 DUP3 ADD SLOAD DUP2 MSTORE PUSH1 0x20 ADD PUSH1 0x3 DUP3 ADD PUSH1 0x0 SWAP1 SLOAD SWAP1 PUSH2 0x100 EXP SWAP1 DIV PUSH20 0xFFFFFFFFFFFFFFFFFFFFFFFFFFFFFFFFFFFFFFFF AND PUSH20 0xFFFFFFFFFFFFFFFFFFFFFFFFFFFFFFFFFFFFFFFF AND PUSH20 0xFFFFFFFFFFFFFFFFFFFFFFFFFFFFFFFFFFFFFFFF AND DUP2 MSTORE PUSH1 0x20 ADD PUSH1 0x4 DUP3 ADD SLOAD DUP2 MSTORE PUSH1 0x20 ADD PUSH1 0x5 DUP3 ADD PUSH1 0x0 SWAP1 SLOAD SWAP1 PUSH2 0x100 EXP SWAP1 DIV PUSH4 0xFFFFFFFF AND PUSH4 0xFFFFFFFF AND PUSH4 0xFFFFFFFF AND DUP2 MSTORE POP POP SWAP1 POP TIMESTAMP DUP2 PUSH1 0xA0 ADD MLOAD PUSH4 0xFFFFFFFF AND LT ISZERO PUSH2 0x1961 JUMPI PUSH1 0x40 MLOAD PUSH32 0x8C379A000000000000000000000000000000000000000000000000000000000 DUP2 MSTORE PUSH1 0x4 ADD PUSH2 0x1958 SWAP1 PUSH2 0x265F JUMP JUMPDEST PUSH1 0x40 MLOAD DUP1 SWAP2 SUB SWAP1 REVERT JUMPDEST PUSH1 0x1 PUSH1 0x3 PUSH1 0x0 DUP7 DUP2 MSTORE PUSH1 0x20 ADD SWAP1 DUP2 MSTORE PUSH1 0x20 ADD PUSH1 0x0 KECCAK256 PUSH1 0x0 CALLER PUSH20 0xFFFFFFFFFFFFFFFFFFFFFFFFFFFFFFFFFFFFFFFF AND PUSH20 0xFFFFFFFFFFFFFFFFFFFFFFFFFFFFFFFFFFFFFFFF AND DUP2 MSTORE PUSH1 0x20 ADD SWAP1 DUP2 MSTORE PUSH1 0x20 ADD PUSH1 0x0 KECCAK256 PUSH1 0x0 DUP3 DUP3 SLOAD PUSH2 0x19C2 SWAP2 SWAP1 PUSH2 0x299E JUMP JUMPDEST SWAP3 POP POP DUP2 SWAP1 SSTORE POP PUSH1 0x1 PUSH1 0x3 PUSH1 0x0 DUP7 DUP2 MSTORE PUSH1 0x20 ADD SWAP1 DUP2 MSTORE PUSH1 0x20 ADD PUSH1 0x0 KECCAK256 PUSH1 0x0 PUSH1 0x2 PUSH1 0x0 DUP9 DUP2 MSTORE PUSH1 0x20 ADD SWAP1 DUP2 MSTORE PUSH1 0x20 ADD PUSH1 0x0 KECCAK256 PUSH1 0x3 ADD PUSH1 0x0 SWAP1 SLOAD SWAP1 PUSH2 0x100 EXP SWAP1 DIV PUSH20 0xFFFFFFFFFFFFFFFFFFFFFFFFFFFFFFFFFFFFFFFF AND PUSH20 0xFFFFFFFFFFFFFFFFFFFFFFFFFFFFFFFFFFFFFFFF AND PUSH20 0xFFFFFFFFFFFFFFFFFFFFFFFFFFFFFFFFFFFFFFFF AND DUP2 MSTORE PUSH1 0x20 ADD SWAP1 DUP2 MSTORE PUSH1 0x20 ADD PUSH1 0x0 KECCAK256 PUSH1 0x0 DUP3 DUP3 SLOAD PUSH2 0x1A60 SWAP2 SWAP1 PUSH2 0x2948 JUMP JUMPDEST SWAP3 POP POP DUP2 SWAP1 SSTORE POP PUSH32 0x0 PUSH20 0xFFFFFFFFFFFFFFFFFFFFFFFFFFFFFFFFFFFFFFFF AND PUSH4 0xA9059CBB CALLER DUP6 PUSH1 0x40 MLOAD DUP4 PUSH4 0xFFFFFFFF AND PUSH1 0xE0 SHL DUP2 MSTORE PUSH1 0x4 ADD PUSH2 0x1AC2 SWAP3 SWAP2 SWAP1 PUSH2 0x2597 JUMP JUMPDEST PUSH1 0x20 PUSH1 0x40 MLOAD DUP1 DUP4 SUB DUP2 PUSH1 0x0 DUP8 DUP1 EXTCODESIZE ISZERO DUP1 ISZERO PUSH2 0x1ADC JUMPI PUSH1 0x0 DUP1 REVERT JUMPDEST POP GAS CALL ISZERO DUP1 ISZERO PUSH2 0x1AF0 JUMPI RETURNDATASIZE PUSH1 0x0 DUP1 RETURNDATACOPY RETURNDATASIZE PUSH1 0x0 REVERT JUMPDEST POP POP POP POP PUSH1 0x40 MLOAD RETURNDATASIZE PUSH1 0x1F NOT PUSH1 0x1F DUP3 ADD AND DUP3 ADD DUP1 PUSH1 0x40 MSTORE POP DUP2 ADD SWAP1 PUSH2 0x1B14 SWAP2 SWAP1 PUSH2 0x1E8B JUMP JUMPDEST POP CALLER PUSH20 0xFFFFFFFFFFFFFFFFFFFFFFFFFFFFFFFFFFFFFFFF AND PUSH32 0x1A90DD2F61A315B1C8B148815876BD3A4CA3FCE701F7D94D7396B584F64444DE DUP6 DUP6 PUSH1 0x40 MLOAD PUSH2 0x1B5D SWAP3 SWAP2 SWAP1 PUSH2 0x27C7 JUMP JUMPDEST PUSH1 0x40 MLOAD DUP1 SWAP2 SUB SWAP1 LOG2 POP POP POP POP JUMP JUMPDEST PUSH1 0x3 PUSH1 0x20 MSTORE DUP2 PUSH1 0x0 MSTORE PUSH1 0x40 PUSH1 0x0 KECCAK256 PUSH1 0x20 MSTORE DUP1 PUSH1 0x0 MSTORE PUSH1 0x40 PUSH1 0x0 KECCAK256 PUSH1 0x0 SWAP2 POP SWAP2 POP POP SLOAD DUP2 JUMP JUMPDEST PUSH32 0x0 DUP2 JUMP JUMPDEST PUSH1 0x1 DUP2 PUSH1 0x0 ADD PUSH1 0x0 DUP3 DUP3 SLOAD ADD SWAP3 POP POP DUP2 SWAP1 SSTORE POP POP JUMP JUMPDEST PUSH1 0x0 DUP2 PUSH1 0x0 ADD SLOAD SWAP1 POP SWAP2 SWAP1 POP JUMP JUMPDEST DUP3 DUP1 SLOAD PUSH2 0x1BE4 SWAP1 PUSH2 0x2ADC JUMP JUMPDEST SWAP1 PUSH1 0x0 MSTORE PUSH1 0x20 PUSH1 0x0 KECCAK256 SWAP1 PUSH1 0x1F ADD PUSH1 0x20 SWAP1 DIV DUP2 ADD SWAP3 DUP3 PUSH2 0x1C06 JUMPI PUSH1 0x0 DUP6 SSTORE PUSH2 0x1C4D JUMP JUMPDEST DUP3 PUSH1 0x1F LT PUSH2 0x1C1F JUMPI DUP1 MLOAD PUSH1 0xFF NOT AND DUP4 DUP1 ADD OR DUP6 SSTORE PUSH2 0x1C4D JUMP JUMPDEST DUP3 DUP1 ADD PUSH1 0x1 ADD DUP6 SSTORE DUP3 ISZERO PUSH2 0x1C4D JUMPI SWAP2 DUP3 ADD JUMPDEST DUP3 DUP2 GT ISZERO PUSH2 0x1C4C JUMPI DUP3 MLOAD DUP3 SSTORE SWAP2 PUSH1 0x20 ADD SWAP2 SWAP1 PUSH1 0x1 ADD SWAP1 PUSH2 0x1C31 JUMP JUMPDEST JUMPDEST POP SWAP1 POP PUSH2 0x1C5A SWAP2 SWAP1 PUSH2 0x1D7D JUMP JUMPDEST POP SWAP1 JUMP JUMPDEST DUP3 DUP1 SLOAD PUSH2 0x1C6A SWAP1 PUSH2 0x2ADC JUMP JUMPDEST SWAP1 PUSH1 0x0 MSTORE PUSH1 0x20 PUSH1 0x0 KECCAK256 SWAP1 PUSH1 0x1F ADD PUSH1 0x20 SWAP1 DIV DUP2 ADD SWAP3 DUP3 PUSH2 0x1C8C JUMPI PUSH1 0x0 DUP6 SSTORE PUSH2 0x1CDA JUMP JUMPDEST DUP3 PUSH1 0x1F LT PUSH2 0x1C9D JUMPI DUP1 SLOAD DUP6 SSTORE PUSH2 0x1CDA JUMP JUMPDEST DUP3 DUP1 ADD PUSH1 0x1 ADD DUP6 SSTORE DUP3 ISZERO PUSH2 0x1CDA JUMPI PUSH1 0x0 MSTORE PUSH1 0x20 PUSH1 0x0 KECCAK256 SWAP2 PUSH1 0x1F ADD PUSH1 0x20 SWAP1 DIV DUP3 ADD JUMPDEST DUP3 DUP2 GT ISZERO PUSH2 0x1CD9 JUMPI DUP3 SLOAD DUP3 SSTORE SWAP2 PUSH1 0x1 ADD SWAP2 SWAP1 PUSH1 0x1 ADD SWAP1 PUSH2 0x1CBE JUMP JUMPDEST JUMPDEST POP SWAP1 POP PUSH2 0x1CE7 SWAP2 SWAP1 PUSH2 0x1D7D JUMP JUMPDEST POP SWAP1 JUMP JUMPDEST POP DUP1 SLOAD PUSH2 0x1CF7 SWAP1 PUSH2 0x2ADC JUMP JUMPDEST PUSH1 0x0 DUP3 SSTORE DUP1 PUSH1 0x1F LT PUSH2 0x1D09 JUMPI POP PUSH2 0x1D28 JUMP JUMPDEST PUSH1 0x1F ADD PUSH1 0x20 SWAP1 DIV SWAP1 PUSH1 0x0 MSTORE PUSH1 0x20 PUSH1 0x0 KECCAK256 SWAP1 DUP2 ADD SWAP1 PUSH2 0x1D27 SWAP2 SWAP1 PUSH2 0x1D7D JUMP JUMPDEST JUMPDEST POP JUMP JUMPDEST PUSH1 0x40 MLOAD DUP1 PUSH1 0xC0 ADD PUSH1 0x40 MSTORE DUP1 PUSH1 0x0 DUP2 MSTORE PUSH1 0x20 ADD PUSH1 0x60 DUP2 MSTORE PUSH1 0x20 ADD PUSH1 0x0 DUP2 MSTORE PUSH1 0x20 ADD PUSH1 0x0 PUSH20 0xFFFFFFFFFFFFFFFFFFFFFFFFFFFFFFFFFFFFFFFF AND DUP2 MSTORE PUSH1 0x20 ADD PUSH1 0x0 DUP2 MSTORE PUSH1 0x20 ADD PUSH1 0x0 PUSH4 0xFFFFFFFF AND DUP2 MSTORE POP SWAP1 JUMP JUMPDEST JUMPDEST DUP1 DUP3 GT ISZERO PUSH2 0x1D96 JUMPI PUSH1 0x0 DUP2 PUSH1 0x0 SWAP1 SSTORE POP PUSH1 0x1 ADD PUSH2 0x1D7E JUMP JUMPDEST POP SWAP1 JUMP JUMPDEST PUSH1 0x0 PUSH2 0x1DAD PUSH2 0x1DA8 DUP5 PUSH2 0x286F JUMP JUMPDEST PUSH2 0x284A JUMP JUMPDEST SWAP1 POP DUP3 DUP2 MSTORE PUSH1 0x20 DUP2 ADD DUP5 DUP5 DUP5 ADD GT ISZERO PUSH2 0x1DC9 JUMPI PUSH2 0x1DC8 PUSH2 0x2C68 JUMP JUMPDEST JUMPDEST PUSH2 0x1DD4 DUP5 DUP3 DUP6 PUSH2 0x2A9A JUMP JUMPDEST POP SWAP4 SWAP3 POP POP POP JUMP JUMPDEST PUSH1 0x0 DUP2 CALLDATALOAD SWAP1 POP PUSH2 0x1DEB DUP2 PUSH2 0x2D85 JUMP JUMPDEST SWAP3 SWAP2 POP POP JUMP JUMPDEST PUSH1 0x0 DUP2 MLOAD SWAP1 POP PUSH2 0x1E00 DUP2 PUSH2 0x2D9C JUMP JUMPDEST SWAP3 SWAP2 POP POP JUMP JUMPDEST PUSH1 0x0 DUP3 PUSH1 0x1F DUP4 ADD SLT PUSH2 0x1E1B JUMPI PUSH2 0x1E1A PUSH2 0x2C63 JUMP JUMPDEST JUMPDEST DUP2 CALLDATALOAD PUSH2 0x1E2B DUP5 DUP3 PUSH1 0x20 DUP7 ADD PUSH2 0x1D9A JUMP JUMPDEST SWAP2 POP POP SWAP3 SWAP2 POP POP JUMP JUMPDEST PUSH1 0x0 DUP2 CALLDATALOAD SWAP1 POP PUSH2 0x1E43 DUP2 PUSH2 0x2DB3 JUMP JUMPDEST SWAP3 SWAP2 POP POP JUMP JUMPDEST PUSH1 0x0 DUP2 CALLDATALOAD SWAP1 POP PUSH2 0x1E58 DUP2 PUSH2 0x2DCA JUMP JUMPDEST SWAP3 SWAP2 POP POP JUMP JUMPDEST PUSH1 0x0 PUSH1 0x20 DUP3 DUP5 SUB SLT ISZERO PUSH2 0x1E74 JUMPI PUSH2 0x1E73 PUSH2 0x2C72 JUMP JUMPDEST JUMPDEST PUSH1 0x0 PUSH2 0x1E82 DUP5 DUP3 DUP6 ADD PUSH2 0x1DDC JUMP JUMPDEST SWAP2 POP POP SWAP3 SWAP2 POP POP JUMP JUMPDEST PUSH1 0x0 PUSH1 0x20 DUP3 DUP5 SUB SLT ISZERO PUSH2 0x1EA1 JUMPI PUSH2 0x1EA0 PUSH2 0x2C72 JUMP JUMPDEST JUMPDEST PUSH1 0x0 PUSH2 0x1EAF DUP5 DUP3 DUP6 ADD PUSH2 0x1DF1 JUMP JUMPDEST SWAP2 POP POP SWAP3 SWAP2 POP POP JUMP JUMPDEST PUSH1 0x0 PUSH1 0x20 DUP3 DUP5 SUB SLT ISZERO PUSH2 0x1ECE JUMPI PUSH2 0x1ECD PUSH2 0x2C72 JUMP JUMPDEST JUMPDEST PUSH1 0x0 PUSH2 0x1EDC DUP5 DUP3 DUP6 ADD PUSH2 0x1E34 JUMP JUMPDEST SWAP2 POP POP SWAP3 SWAP2 POP POP JUMP JUMPDEST PUSH1 0x0 DUP1 PUSH1 0x40 DUP4 DUP6 SUB SLT ISZERO PUSH2 0x1EFC JUMPI PUSH2 0x1EFB PUSH2 0x2C72 JUMP JUMPDEST JUMPDEST PUSH1 0x0 PUSH2 0x1F0A DUP6 DUP3 DUP7 ADD PUSH2 0x1E34 JUMP JUMPDEST SWAP3 POP POP PUSH1 0x20 PUSH2 0x1F1B DUP6 DUP3 DUP7 ADD PUSH2 0x1DDC JUMP JUMPDEST SWAP2 POP POP SWAP3 POP SWAP3 SWAP1 POP JUMP JUMPDEST PUSH1 0x0 DUP1 PUSH1 0x0 PUSH1 0x60 DUP5 DUP7 SUB SLT ISZERO PUSH2 0x1F3E JUMPI PUSH2 0x1F3D PUSH2 0x2C72 JUMP JUMPDEST JUMPDEST PUSH1 0x0 PUSH2 0x1F4C DUP7 DUP3 DUP8 ADD PUSH2 0x1E34 JUMP JUMPDEST SWAP4 POP POP PUSH1 0x20 DUP5 ADD CALLDATALOAD PUSH8 0xFFFFFFFFFFFFFFFF DUP2 GT ISZERO PUSH2 0x1F6D JUMPI PUSH2 0x1F6C PUSH2 0x2C6D JUMP JUMPDEST JUMPDEST PUSH2 0x1F79 DUP7 DUP3 DUP8 ADD PUSH2 0x1E06 JUMP JUMPDEST SWAP3 POP POP PUSH1 0x40 PUSH2 0x1F8A DUP7 DUP3 DUP8 ADD PUSH2 0x1E49 JUMP JUMPDEST SWAP2 POP POP SWAP3 POP SWAP3 POP SWAP3 JUMP JUMPDEST PUSH1 0x0 DUP1 PUSH1 0x40 DUP4 DUP6 SUB SLT ISZERO PUSH2 0x1FAB JUMPI PUSH2 0x1FAA PUSH2 0x2C72 JUMP JUMPDEST JUMPDEST PUSH1 0x0 PUSH2 0x1FB9 DUP6 DUP3 DUP7 ADD PUSH2 0x1E34 JUMP JUMPDEST SWAP3 POP POP PUSH1 0x20 PUSH2 0x1FCA DUP6 DUP3 DUP7 ADD PUSH2 0x1E34 JUMP JUMPDEST SWAP2 POP POP SWAP3 POP SWAP3 SWAP1 POP JUMP JUMPDEST PUSH1 0x0 PUSH2 0x1FE0 DUP4 DUP4 PUSH2 0x2290 JUMP JUMPDEST SWAP1 POP SWAP3 SWAP2 POP POP JUMP JUMPDEST PUSH1 0x0 PUSH2 0x1FF4 DUP4 DUP4 PUSH2 0x23A2 JUMP JUMPDEST SWAP1 POP SWAP3 SWAP2 POP POP JUMP JUMPDEST PUSH2 0x2005 DUP2 PUSH2 0x2A0C JUMP JUMPDEST DUP3 MSTORE POP POP JUMP JUMPDEST PUSH2 0x2014 DUP2 PUSH2 0x2A0C JUMP JUMPDEST DUP3 MSTORE POP POP JUMP JUMPDEST PUSH1 0x0 PUSH2 0x2025 DUP3 PUSH2 0x28DA JUMP JUMPDEST PUSH2 0x202F DUP2 DUP6 PUSH2 0x2915 JUMP JUMPDEST SWAP4 POP DUP4 PUSH1 0x20 DUP3 MUL DUP6 ADD PUSH2 0x2041 DUP6 PUSH2 0x28A0 JUMP JUMPDEST DUP1 PUSH1 0x0 JUMPDEST DUP6 DUP2 LT ISZERO PUSH2 0x207D JUMPI DUP5 DUP5 SUB DUP10 MSTORE DUP2 MLOAD PUSH2 0x205E DUP6 DUP3 PUSH2 0x1FD4 JUMP JUMPDEST SWAP5 POP PUSH2 0x2069 DUP4 PUSH2 0x28FB JUMP JUMPDEST SWAP3 POP PUSH1 0x20 DUP11 ADD SWAP10 POP POP PUSH1 0x1 DUP2 ADD SWAP1 POP PUSH2 0x2045 JUMP JUMPDEST POP DUP3 SWAP8 POP DUP8 SWAP6 POP POP POP POP POP POP SWAP3 SWAP2 POP POP JUMP JUMPDEST PUSH1 0x0 PUSH2 0x209A DUP3 PUSH2 0x28E5 JUMP JUMPDEST PUSH2 0x20A4 DUP2 DUP6 PUSH2 0x2915 JUMP JUMPDEST SWAP4 POP DUP4 PUSH1 0x20 DUP3 MUL DUP6 ADD PUSH2 0x20B6 DUP6 PUSH2 0x28B0 JUMP JUMPDEST DUP1 PUSH1 0x0 JUMPDEST DUP6 DUP2 LT ISZERO PUSH2 0x20F1 JUMPI DUP5 DUP5 SUB DUP10 MSTORE DUP2 PUSH2 0x20D2 DUP6 DUP3 PUSH2 0x1FE8 JUMP JUMPDEST SWAP5 POP PUSH2 0x20DD DUP4 PUSH2 0x2908 JUMP JUMPDEST SWAP3 POP PUSH1 0x20 DUP11 ADD SWAP10 POP POP PUSH1 0x1 DUP2 ADD SWAP1 POP PUSH2 0x20BA JUMP JUMPDEST POP DUP3 SWAP8 POP DUP8 SWAP6 POP POP POP POP POP POP SWAP3 SWAP2 POP POP JUMP JUMPDEST PUSH2 0x210C DUP2 PUSH2 0x2A64 JUMP JUMPDEST DUP3 MSTORE POP POP JUMP JUMPDEST PUSH1 0x0 PUSH2 0x211D DUP3 PUSH2 0x28F0 JUMP JUMPDEST PUSH2 0x2127 DUP2 DUP6 PUSH2 0x2926 JUMP JUMPDEST SWAP4 POP PUSH2 0x2137 DUP2 DUP6 PUSH1 0x20 DUP7 ADD PUSH2 0x2AA9 JUMP JUMPDEST PUSH2 0x2140 DUP2 PUSH2 0x2C77 JUMP JUMPDEST DUP5 ADD SWAP2 POP POP SWAP3 SWAP2 POP POP JUMP JUMPDEST PUSH1 0x0 PUSH2 0x2156 DUP3 PUSH2 0x28F0 JUMP JUMPDEST PUSH2 0x2160 DUP2 DUP6 PUSH2 0x2937 JUMP JUMPDEST SWAP4 POP PUSH2 0x2170 DUP2 DUP6 PUSH1 0x20 DUP7 ADD PUSH2 0x2AA9 JUMP JUMPDEST PUSH2 0x2179 DUP2 PUSH2 0x2C77 JUMP JUMPDEST DUP5 ADD SWAP2 POP POP SWAP3 SWAP2 POP POP JUMP JUMPDEST PUSH1 0x0 DUP2 SLOAD PUSH2 0x2191 DUP2 PUSH2 0x2ADC JUMP JUMPDEST PUSH2 0x219B DUP2 DUP7 PUSH2 0x2926 JUMP JUMPDEST SWAP5 POP PUSH1 0x1 DUP3 AND PUSH1 0x0 DUP2 EQ PUSH2 0x21B6 JUMPI PUSH1 0x1 DUP2 EQ PUSH2 0x21C8 JUMPI PUSH2 0x21FB JUMP JUMPDEST PUSH1 0xFF NOT DUP4 AND DUP7 MSTORE PUSH1 0x20 DUP7 ADD SWAP4 POP PUSH2 0x21FB JUMP JUMPDEST PUSH2 0x21D1 DUP6 PUSH2 0x28C5 JUMP JUMPDEST PUSH1 0x0 JUMPDEST DUP4 DUP2 LT ISZERO PUSH2 0x21F3 JUMPI DUP2 SLOAD DUP2 DUP10 ADD MSTORE PUSH1 0x1 DUP3 ADD SWAP2 POP PUSH1 0x20 DUP2 ADD SWAP1 POP PUSH2 0x21D4 JUMP JUMPDEST DUP1 DUP9 ADD SWAP6 POP POP POP JUMPDEST POP POP POP SWAP3 SWAP2 POP POP JUMP JUMPDEST PUSH1 0x0 PUSH2 0x2211 PUSH1 0x22 DUP4 PUSH2 0x2937 JUMP JUMPDEST SWAP2 POP PUSH2 0x221C DUP3 PUSH2 0x2C95 JUMP JUMPDEST PUSH1 0x40 DUP3 ADD SWAP1 POP SWAP2 SWAP1 POP JUMP JUMPDEST PUSH1 0x0 PUSH2 0x2234 PUSH1 0x1D DUP4 PUSH2 0x2937 JUMP JUMPDEST SWAP2 POP PUSH2 0x223F DUP3 PUSH2 0x2CE4 JUMP JUMPDEST PUSH1 0x20 DUP3 ADD SWAP1 POP SWAP2 SWAP1 POP JUMP JUMPDEST PUSH1 0x0 PUSH2 0x2257 PUSH1 0x15 DUP4 PUSH2 0x2937 JUMP JUMPDEST SWAP2 POP PUSH2 0x2262 DUP3 PUSH2 0x2D0D JUMP JUMPDEST PUSH1 0x20 DUP3 ADD SWAP1 POP SWAP2 SWAP1 POP JUMP JUMPDEST PUSH1 0x0 PUSH2 0x227A PUSH1 0x2C DUP4 PUSH2 0x2937 JUMP JUMPDEST SWAP2 POP PUSH2 0x2285 DUP3 PUSH2 0x2D36 JUMP JUMPDEST PUSH1 0x40 DUP3 ADD SWAP1 POP SWAP2 SWAP1 POP JUMP JUMPDEST PUSH1 0x0 PUSH1 0xC0 DUP4 ADD PUSH1 0x0 DUP4 ADD MLOAD PUSH2 0x22A8 PUSH1 0x0 DUP7 ADD DUP3 PUSH2 0x2524 JUMP JUMPDEST POP PUSH1 0x20 DUP4 ADD MLOAD DUP5 DUP3 SUB PUSH1 0x20 DUP7 ADD MSTORE PUSH2 0x22C0 DUP3 DUP3 PUSH2 0x2112 JUMP JUMPDEST SWAP2 POP POP PUSH1 0x40 DUP4 ADD MLOAD PUSH2 0x22D5 PUSH1 0x40 DUP7 ADD DUP3 PUSH2 0x2524 JUMP JUMPDEST POP PUSH1 0x60 DUP4 ADD MLOAD PUSH2 0x22E8 PUSH1 0x60 DUP7 ADD DUP3 PUSH2 0x1FFC JUMP JUMPDEST POP PUSH1 0x80 DUP4 ADD MLOAD PUSH2 0x22FB PUSH1 0x80 DUP7 ADD DUP3 PUSH2 0x2524 JUMP JUMPDEST POP PUSH1 0xA0 DUP4 ADD MLOAD PUSH2 0x230E PUSH1 0xA0 DUP7 ADD DUP3 PUSH2 0x2542 JUMP JUMPDEST POP DUP1 SWAP2 POP POP SWAP3 SWAP2 POP POP JUMP JUMPDEST PUSH1 0x0 PUSH1 0xC0 DUP4 ADD PUSH1 0x0 DUP4 ADD MLOAD PUSH2 0x2331 PUSH1 0x0 DUP7 ADD DUP3 PUSH2 0x2524 JUMP JUMPDEST POP PUSH1 0x20 DUP4 ADD MLOAD DUP5 DUP3 SUB PUSH1 0x20 DUP7 ADD MSTORE PUSH2 0x2349 DUP3 DUP3 PUSH2 0x2112 JUMP JUMPDEST SWAP2 POP POP PUSH1 0x40 DUP4 ADD MLOAD PUSH2 0x235E PUSH1 0x40 DUP7 ADD DUP3 PUSH2 0x2524 JUMP JUMPDEST POP PUSH1 0x60 DUP4 ADD MLOAD PUSH2 0x2371 PUSH1 0x60 DUP7 ADD DUP3 PUSH2 0x1FFC JUMP JUMPDEST POP PUSH1 0x80 DUP4 ADD MLOAD PUSH2 0x2384 PUSH1 0x80 DUP7 ADD DUP3 PUSH2 0x2524 JUMP JUMPDEST POP PUSH1 0xA0 DUP4 ADD MLOAD PUSH2 0x2397 PUSH1 0xA0 DUP7 ADD DUP3 PUSH2 0x2542 JUMP JUMPDEST POP DUP1 SWAP2 POP POP SWAP3 SWAP2 POP POP JUMP JUMPDEST PUSH1 0x0 PUSH1 0xC0 DUP4 ADD PUSH1 0x0 DUP1 DUP5 ADD SLOAD SWAP1 POP PUSH2 0x23B9 DUP2 PUSH2 0x2B28 JUMP JUMPDEST PUSH2 0x23C6 PUSH1 0x0 DUP8 ADD DUP3 PUSH2 0x2524 JUMP JUMPDEST POP PUSH1 0x1 DUP5 ADD DUP6 DUP4 SUB PUSH1 0x20 DUP8 ADD MSTORE PUSH2 0x23DD DUP4 DUP3 PUSH2 0x2184 JUMP JUMPDEST SWAP3 POP POP PUSH1 0x2 DUP5 ADD SLOAD SWAP1 POP PUSH2 0x23F0 DUP2 PUSH2 0x2B28 JUMP JUMPDEST PUSH2 0x23FD PUSH1 0x40 DUP8 ADD DUP3 PUSH2 0x2524 JUMP JUMPDEST POP PUSH1 0x3 DUP5 ADD SLOAD SWAP1 POP PUSH2 0x240E DUP2 PUSH2 0x2B0E JUMP JUMPDEST PUSH2 0x241B PUSH1 0x60 DUP8 ADD DUP3 PUSH2 0x1FFC JUMP JUMPDEST POP PUSH1 0x4 DUP5 ADD SLOAD SWAP1 POP PUSH2 0x242C DUP2 PUSH2 0x2B28 JUMP JUMPDEST PUSH2 0x2439 PUSH1 0x80 DUP8 ADD DUP3 PUSH2 0x2524 JUMP JUMPDEST POP PUSH1 0x5 DUP5 ADD SLOAD SWAP1 POP PUSH2 0x244A DUP2 PUSH2 0x2B42 JUMP JUMPDEST PUSH2 0x2457 PUSH1 0xA0 DUP8 ADD DUP3 PUSH2 0x2542 JUMP JUMPDEST POP DUP2 SWAP3 POP POP POP SWAP3 SWAP2 POP POP JUMP JUMPDEST PUSH1 0x0 PUSH1 0xC0 DUP4 ADD PUSH1 0x0 DUP1 DUP5 ADD SLOAD SWAP1 POP PUSH2 0x247A DUP2 PUSH2 0x2B28 JUMP JUMPDEST PUSH2 0x2487 PUSH1 0x0 DUP8 ADD DUP3 PUSH2 0x2524 JUMP JUMPDEST POP PUSH1 0x1 DUP5 ADD DUP6 DUP4 SUB PUSH1 0x20 DUP8 ADD MSTORE PUSH2 0x249E DUP4 DUP3 PUSH2 0x2184 JUMP JUMPDEST SWAP3 POP POP PUSH1 0x2 DUP5 ADD SLOAD SWAP1 POP PUSH2 0x24B1 DUP2 PUSH2 0x2B28 JUMP JUMPDEST PUSH2 0x24BE PUSH1 0x40 DUP8 ADD DUP3 PUSH2 0x2524 JUMP JUMPDEST POP PUSH1 0x3 DUP5 ADD SLOAD SWAP1 POP PUSH2 0x24CF DUP2 PUSH2 0x2B0E JUMP JUMPDEST PUSH2 0x24DC PUSH1 0x60 DUP8 ADD DUP3 PUSH2 0x1FFC JUMP JUMPDEST POP PUSH1 0x4 DUP5 ADD SLOAD SWAP1 POP PUSH2 0x24ED DUP2 PUSH2 0x2B28 JUMP JUMPDEST PUSH2 0x24FA PUSH1 0x80 DUP8 ADD DUP3 PUSH2 0x2524 JUMP JUMPDEST POP PUSH1 0x5 DUP5 ADD SLOAD SWAP1 POP PUSH2 0x250B DUP2 PUSH2 0x2B42 JUMP JUMPDEST PUSH2 0x2518 PUSH1 0xA0 DUP8 ADD DUP3 PUSH2 0x2542 JUMP JUMPDEST POP DUP2 SWAP3 POP POP POP SWAP3 SWAP2 POP POP JUMP JUMPDEST PUSH2 0x252D DUP2 PUSH2 0x2A4A JUMP JUMPDEST DUP3 MSTORE POP POP JUMP JUMPDEST PUSH2 0x253C DUP2 PUSH2 0x2A4A JUMP JUMPDEST DUP3 MSTORE POP POP JUMP JUMPDEST PUSH2 0x254B DUP2 PUSH2 0x2A54 JUMP JUMPDEST DUP3 MSTORE POP POP JUMP JUMPDEST PUSH2 0x255A DUP2 PUSH2 0x2A54 JUMP JUMPDEST DUP3 MSTORE POP POP JUMP JUMPDEST PUSH1 0x0 PUSH1 0x60 DUP3 ADD SWAP1 POP PUSH2 0x2575 PUSH1 0x0 DUP4 ADD DUP7 PUSH2 0x200B JUMP JUMPDEST PUSH2 0x2582 PUSH1 0x20 DUP4 ADD DUP6 PUSH2 0x200B JUMP JUMPDEST PUSH2 0x258F PUSH1 0x40 DUP4 ADD DUP5 PUSH2 0x2533 JUMP JUMPDEST SWAP5 SWAP4 POP POP POP POP JUMP JUMPDEST PUSH1 0x0 PUSH1 0x40 DUP3 ADD SWAP1 POP PUSH2 0x25AC PUSH1 0x0 DUP4 ADD DUP6 PUSH2 0x200B JUMP JUMPDEST PUSH2 0x25B9 PUSH1 0x20 DUP4 ADD DUP5 PUSH2 0x2533 JUMP JUMPDEST SWAP4 SWAP3 POP POP POP JUMP JUMPDEST PUSH1 0x0 PUSH1 0x20 DUP3 ADD SWAP1 POP DUP2 DUP2 SUB PUSH1 0x0 DUP4 ADD MSTORE PUSH2 0x25DA DUP2 DUP5 PUSH2 0x201A JUMP JUMPDEST SWAP1 POP SWAP3 SWAP2 POP POP JUMP JUMPDEST PUSH1 0x0 PUSH1 0x20 DUP3 ADD SWAP1 POP DUP2 DUP2 SUB PUSH1 0x0 DUP4 ADD MSTORE PUSH2 0x25FC DUP2 DUP5 PUSH2 0x208F JUMP JUMPDEST SWAP1 POP SWAP3 SWAP2 POP POP JUMP JUMPDEST PUSH1 0x0 PUSH1 0x20 DUP3 ADD SWAP1 POP PUSH2 0x2619 PUSH1 0x0 DUP4 ADD DUP5 PUSH2 0x2103 JUMP JUMPDEST SWAP3 SWAP2 POP POP JUMP JUMPDEST PUSH1 0x0 PUSH1 0x20 DUP3 ADD SWAP1 POP DUP2 DUP2 SUB PUSH1 0x0 DUP4 ADD MSTORE PUSH2 0x2638 DUP2 PUSH2 0x2204 JUMP JUMPDEST SWAP1 POP SWAP2 SWAP1 POP JUMP JUMPDEST PUSH1 0x0 PUSH1 0x20 DUP3 ADD SWAP1 POP DUP2 DUP2 SUB PUSH1 0x0 DUP4 ADD MSTORE PUSH2 0x2658 DUP2 PUSH2 0x2227 JUMP JUMPDEST SWAP1 POP SWAP2 SWAP1 POP JUMP JUMPDEST PUSH1 0x0 PUSH1 0x20 DUP3 ADD SWAP1 POP DUP2 DUP2 SUB PUSH1 0x0 DUP4 ADD MSTORE PUSH2 0x2678 DUP2 PUSH2 0x224A JUMP JUMPDEST SWAP1 POP SWAP2 SWAP1 POP JUMP JUMPDEST PUSH1 0x0 PUSH1 0x20 DUP3 ADD SWAP1 POP DUP2 DUP2 SUB PUSH1 0x0 DUP4 ADD MSTORE PUSH2 0x2698 DUP2 PUSH2 0x226D JUMP JUMPDEST SWAP1 POP SWAP2 SWAP1 POP JUMP JUMPDEST PUSH1 0x0 PUSH1 0x20 DUP3 ADD SWAP1 POP DUP2 DUP2 SUB PUSH1 0x0 DUP4 ADD MSTORE PUSH2 0x26B9 DUP2 DUP5 PUSH2 0x2319 JUMP JUMPDEST SWAP1 POP SWAP3 SWAP2 POP POP JUMP JUMPDEST PUSH1 0x0 PUSH1 0x20 DUP3 ADD SWAP1 POP PUSH2 0x26D6 PUSH1 0x0 DUP4 ADD DUP5 PUSH2 0x2533 JUMP JUMPDEST SWAP3 SWAP2 POP POP JUMP JUMPDEST PUSH1 0x0 PUSH1 0x80 DUP3 ADD SWAP1 POP PUSH2 0x26F1 PUSH1 0x0 DUP4 ADD DUP8 PUSH2 0x2533 JUMP JUMPDEST DUP2 DUP2 SUB PUSH1 0x20 DUP4 ADD MSTORE PUSH2 0x2703 DUP2 DUP7 PUSH2 0x214B JUMP JUMPDEST SWAP1 POP DUP2 DUP2 SUB PUSH1 0x40 DUP4 ADD MSTORE PUSH2 0x2717 DUP2 DUP6 PUSH2 0x214B JUMP JUMPDEST SWAP1 POP PUSH2 0x2726 PUSH1 0x60 DUP4 ADD DUP5 PUSH2 0x2533 JUMP JUMPDEST SWAP6 SWAP5 POP POP POP POP POP JUMP JUMPDEST PUSH1 0x0 PUSH1 0xC0 DUP3 ADD SWAP1 POP PUSH2 0x2744 PUSH1 0x0 DUP4 ADD DUP10 PUSH2 0x2533 JUMP JUMPDEST DUP2 DUP2 SUB PUSH1 0x20 DUP4 ADD MSTORE PUSH2 0x2756 DUP2 DUP9 PUSH2 0x214B JUMP JUMPDEST SWAP1 POP PUSH2 0x2765 PUSH1 0x40 DUP4 ADD DUP8 PUSH2 0x2533 JUMP JUMPDEST PUSH2 0x2772 PUSH1 0x60 DUP4 ADD DUP7 PUSH2 0x200B JUMP JUMPDEST PUSH2 0x277F PUSH1 0x80 DUP4 ADD DUP6 PUSH2 0x2533 JUMP JUMPDEST PUSH2 0x278C PUSH1 0xA0 DUP4 ADD DUP5 PUSH2 0x2551 JUMP JUMPDEST SWAP8 SWAP7 POP POP POP POP POP POP POP JUMP JUMPDEST PUSH1 0x0 PUSH1 0x40 DUP3 ADD SWAP1 POP PUSH2 0x27AC PUSH1 0x0 DUP4 ADD DUP6 PUSH2 0x2533 JUMP JUMPDEST DUP2 DUP2 SUB PUSH1 0x20 DUP4 ADD MSTORE PUSH2 0x27BE DUP2 DUP5 PUSH2 0x2463 JUMP JUMPDEST SWAP1 POP SWAP4 SWAP3 POP POP POP JUMP JUMPDEST PUSH1 0x0 PUSH1 0x40 DUP3 ADD SWAP1 POP PUSH2 0x27DC PUSH1 0x0 DUP4 ADD DUP6 PUSH2 0x2533 JUMP JUMPDEST PUSH2 0x27E9 PUSH1 0x20 DUP4 ADD DUP5 PUSH2 0x2533 JUMP JUMPDEST SWAP4 SWAP3 POP POP POP JUMP JUMPDEST PUSH1 0x0 PUSH1 0xA0 DUP3 ADD SWAP1 POP PUSH2 0x2805 PUSH1 0x0 DUP4 ADD DUP9 PUSH2 0x2533 JUMP JUMPDEST PUSH2 0x2812 PUSH1 0x20 DUP4 ADD DUP8 PUSH2 0x2533 JUMP JUMPDEST DUP2 DUP2 SUB PUSH1 0x40 DUP4 ADD MSTORE PUSH2 0x2824 DUP2 DUP7 PUSH2 0x214B JUMP JUMPDEST SWAP1 POP PUSH2 0x2833 PUSH1 0x60 DUP4 ADD DUP6 PUSH2 0x2551 JUMP JUMPDEST PUSH2 0x2840 PUSH1 0x80 DUP4 ADD DUP5 PUSH2 0x2533 JUMP JUMPDEST SWAP7 SWAP6 POP POP POP POP POP POP JUMP JUMPDEST PUSH1 0x0 PUSH2 0x2854 PUSH2 0x2865 JUMP JUMPDEST SWAP1 POP PUSH2 0x2860 DUP3 DUP3 PUSH2 0x2B5C JUMP JUMPDEST SWAP2 SWAP1 POP JUMP JUMPDEST PUSH1 0x0 PUSH1 0x40 MLOAD SWAP1 POP SWAP1 JUMP JUMPDEST PUSH1 0x0 PUSH8 0xFFFFFFFFFFFFFFFF DUP3 GT ISZERO PUSH2 0x288A JUMPI PUSH2 0x2889 PUSH2 0x2C34 JUMP JUMPDEST JUMPDEST PUSH2 0x2893 DUP3 PUSH2 0x2C77 JUMP JUMPDEST SWAP1 POP PUSH1 0x20 DUP2 ADD SWAP1 POP SWAP2 SWAP1 POP JUMP JUMPDEST PUSH1 0x0 DUP2 SWAP1 POP PUSH1 0x20 DUP3 ADD SWAP1 POP SWAP2 SWAP1 POP JUMP JUMPDEST PUSH1 0x0 DUP2 SWAP1 POP DUP2 PUSH1 0x0 MSTORE PUSH1 0x20 PUSH1 0x0 KECCAK256 SWAP1 POP SWAP2 SWAP1 POP JUMP JUMPDEST PUSH1 0x0 DUP2 SWAP1 POP DUP2 PUSH1 0x0 MSTORE PUSH1 0x20 PUSH1 0x0 KECCAK256 SWAP1 POP SWAP2 SWAP1 POP JUMP JUMPDEST PUSH1 0x0 DUP2 MLOAD SWAP1 POP SWAP2 SWAP1 POP JUMP JUMPDEST PUSH1 0x0 DUP2 SLOAD SWAP1 POP SWAP2 SWAP1 POP JUMP JUMPDEST PUSH1 0x0 DUP2 MLOAD SWAP1 POP SWAP2 SWAP1 POP JUMP JUMPDEST PUSH1 0x0 PUSH1 0x20 DUP3 ADD SWAP1 POP SWAP2 SWAP1 POP JUMP JUMPDEST PUSH1 0x0 PUSH1 0x6 DUP3 ADD SWAP1 POP SWAP2 SWAP1 POP JUMP JUMPDEST PUSH1 0x0 DUP3 DUP3 MSTORE PUSH1 0x20 DUP3 ADD SWAP1 POP SWAP3 SWAP2 POP POP JUMP JUMPDEST PUSH1 0x0 DUP3 DUP3 MSTORE PUSH1 0x20 DUP3 ADD SWAP1 POP SWAP3 SWAP2 POP POP JUMP JUMPDEST PUSH1 0x0 DUP3 DUP3 MSTORE PUSH1 0x20 DUP3 ADD SWAP1 POP SWAP3 SWAP2 POP POP JUMP JUMPDEST PUSH1 0x0 PUSH2 0x2953 DUP3 PUSH2 0x2A4A JUMP JUMPDEST SWAP2 POP PUSH2 0x295E DUP4 PUSH2 0x2A4A JUMP JUMPDEST SWAP3 POP DUP3 PUSH32 0xFFFFFFFFFFFFFFFFFFFFFFFFFFFFFFFFFFFFFFFFFFFFFFFFFFFFFFFFFFFFFFFF SUB DUP3 GT ISZERO PUSH2 0x2993 JUMPI PUSH2 0x2992 PUSH2 0x2BD6 JUMP JUMPDEST JUMPDEST DUP3 DUP3 ADD SWAP1 POP SWAP3 SWAP2 POP POP JUMP JUMPDEST PUSH1 0x0 PUSH2 0x29A9 DUP3 PUSH2 0x2A4A JUMP JUMPDEST SWAP2 POP PUSH2 0x29B4 DUP4 PUSH2 0x2A4A JUMP JUMPDEST SWAP3 POP DUP3 DUP3 LT ISZERO PUSH2 0x29C7 JUMPI PUSH2 0x29C6 PUSH2 0x2BD6 JUMP JUMPDEST JUMPDEST DUP3 DUP3 SUB SWAP1 POP SWAP3 SWAP2 POP POP JUMP JUMPDEST PUSH1 0x0 PUSH20 0xFFFFFFFFFFFFFFFFFFFFFFFFFFFFFFFFFFFFFFFF DUP3 AND SWAP1 POP SWAP2 SWAP1 POP JUMP JUMPDEST PUSH1 0x0 DUP2 SWAP1 POP SWAP2 SWAP1 POP JUMP JUMPDEST PUSH1 0x0 PUSH4 0xFFFFFFFF DUP3 AND SWAP1 POP SWAP2 SWAP1 POP JUMP JUMPDEST PUSH1 0x0 PUSH2 0x2A17 DUP3 PUSH2 0x2A2A JUMP JUMPDEST SWAP1 POP SWAP2 SWAP1 POP JUMP JUMPDEST PUSH1 0x0 DUP2 ISZERO ISZERO SWAP1 POP SWAP2 SWAP1 POP JUMP JUMPDEST PUSH1 0x0 PUSH20 0xFFFFFFFFFFFFFFFFFFFFFFFFFFFFFFFFFFFFFFFF DUP3 AND SWAP1 POP SWAP2 SWAP1 POP JUMP JUMPDEST PUSH1 0x0 DUP2 SWAP1 POP SWAP2 SWAP1 POP JUMP JUMPDEST PUSH1 0x0 PUSH4 0xFFFFFFFF DUP3 AND SWAP1 POP SWAP2 SWAP1 POP JUMP JUMPDEST PUSH1 0x0 PUSH2 0x2A6F DUP3 PUSH2 0x2A76 JUMP JUMPDEST SWAP1 POP SWAP2 SWAP1 POP JUMP JUMPDEST PUSH1 0x0 PUSH2 0x2A81 DUP3 PUSH2 0x2A88 JUMP JUMPDEST SWAP1 POP SWAP2 SWAP1 POP JUMP JUMPDEST PUSH1 0x0 PUSH2 0x2A93 DUP3 PUSH2 0x2A2A JUMP JUMPDEST SWAP1 POP SWAP2 SWAP1 POP JUMP JUMPDEST DUP3 DUP2 DUP4 CALLDATACOPY PUSH1 0x0 DUP4 DUP4 ADD MSTORE POP POP POP JUMP JUMPDEST PUSH1 0x0 JUMPDEST DUP4 DUP2 LT ISZERO PUSH2 0x2AC7 JUMPI DUP1 DUP3 ADD MLOAD DUP2 DUP5 ADD MSTORE PUSH1 0x20 DUP2 ADD SWAP1 POP PUSH2 0x2AAC JUMP JUMPDEST DUP4 DUP2 GT ISZERO PUSH2 0x2AD6 JUMPI PUSH1 0x0 DUP5 DUP5 ADD MSTORE JUMPDEST POP POP POP POP JUMP JUMPDEST PUSH1 0x0 PUSH1 0x2 DUP3 DIV SWAP1 POP PUSH1 0x1 DUP3 AND DUP1 PUSH2 0x2AF4 JUMPI PUSH1 0x7F DUP3 AND SWAP2 POP JUMPDEST PUSH1 0x20 DUP3 LT DUP2 EQ ISZERO PUSH2 0x2B08 JUMPI PUSH2 0x2B07 PUSH2 0x2C05 JUMP JUMPDEST JUMPDEST POP SWAP2 SWAP1 POP JUMP JUMPDEST PUSH1 0x0 PUSH2 0x2B21 PUSH2 0x2B1C DUP4 PUSH2 0x2C88 JUMP JUMPDEST PUSH2 0x29D2 JUMP JUMPDEST SWAP1 POP SWAP2 SWAP1 POP JUMP JUMPDEST PUSH1 0x0 PUSH2 0x2B3B PUSH2 0x2B36 DUP4 PUSH2 0x2C88 JUMP JUMPDEST PUSH2 0x29F2 JUMP JUMPDEST SWAP1 POP SWAP2 SWAP1 POP JUMP JUMPDEST PUSH1 0x0 PUSH2 0x2B55 PUSH2 0x2B50 DUP4 PUSH2 0x2C88 JUMP JUMPDEST PUSH2 0x29FC JUMP JUMPDEST SWAP1 POP SWAP2 SWAP1 POP JUMP JUMPDEST PUSH2 0x2B65 DUP3 PUSH2 0x2C77 JUMP JUMPDEST DUP2 ADD DUP2 DUP2 LT PUSH8 0xFFFFFFFFFFFFFFFF DUP3 GT OR ISZERO PUSH2 0x2B84 JUMPI PUSH2 0x2B83 PUSH2 0x2C34 JUMP JUMPDEST JUMPDEST DUP1 PUSH1 0x40 MSTORE POP POP POP JUMP JUMPDEST PUSH1 0x0 PUSH2 0x2B98 DUP3 PUSH2 0x2A4A JUMP JUMPDEST SWAP2 POP PUSH32 0xFFFFFFFFFFFFFFFFFFFFFFFFFFFFFFFFFFFFFFFFFFFFFFFFFFFFFFFFFFFFFFFF DUP3 EQ ISZERO PUSH2 0x2BCB JUMPI PUSH2 0x2BCA PUSH2 0x2BD6 JUMP JUMPDEST JUMPDEST PUSH1 0x1 DUP3 ADD SWAP1 POP SWAP2 SWAP1 POP JUMP JUMPDEST PUSH32 0x4E487B7100000000000000000000000000000000000000000000000000000000 PUSH1 0x0 MSTORE PUSH1 0x11 PUSH1 0x4 MSTORE PUSH1 0x24 PUSH1 0x0 REVERT JUMPDEST PUSH32 0x4E487B7100000000000000000000000000000000000000000000000000000000 PUSH1 0x0 MSTORE PUSH1 0x22 PUSH1 0x4 MSTORE PUSH1 0x24 PUSH1 0x0 REVERT JUMPDEST PUSH32 0x4E487B7100000000000000000000000000000000000000000000000000000000 PUSH1 0x0 MSTORE PUSH1 0x41 PUSH1 0x4 MSTORE PUSH1 0x24 PUSH1 0x0 REVERT JUMPDEST PUSH1 0x0 DUP1 REVERT JUMPDEST PUSH1 0x0 DUP1 REVERT JUMPDEST PUSH1 0x0 DUP1 REVERT JUMPDEST PUSH1 0x0 DUP1 REVERT JUMPDEST PUSH1 0x0 PUSH1 0x1F NOT PUSH1 0x1F DUP4 ADD AND SWAP1 POP SWAP2 SWAP1 POP JUMP JUMPDEST PUSH1 0x0 DUP2 PUSH1 0x0 SHR SWAP1 POP SWAP2 SWAP1 POP JUMP JUMPDEST PUSH32 0x546865726520617265206E6F2070726F647563747320746F206C697374207965 PUSH1 0x0 DUP3 ADD MSTORE PUSH32 0x7421000000000000000000000000000000000000000000000000000000000000 PUSH1 0x20 DUP3 ADD MSTORE POP JUMP JUMPDEST PUSH32 0x5468657265206973206E6F2073756368206974656D207265636F726421000000 PUSH1 0x0 DUP3 ADD MSTORE POP JUMP JUMPDEST PUSH32 0x5468652073616C65206861732065787069726564210000000000000000000000 PUSH1 0x0 DUP3 ADD MSTORE POP JUMP JUMPDEST PUSH32 0x5468657265206973206E6F7420656E6F7567682062616C616E636520696E2079 PUSH1 0x0 DUP3 ADD MSTORE PUSH32 0x6F7572206163636F756E74210000000000000000000000000000000000000000 PUSH1 0x20 DUP3 ADD MSTORE POP JUMP JUMPDEST PUSH2 0x2D8E DUP2 PUSH2 0x2A0C JUMP JUMPDEST DUP2 EQ PUSH2 0x2D99 JUMPI PUSH1 0x0 DUP1 REVERT JUMPDEST POP JUMP JUMPDEST PUSH2 0x2DA5 DUP2 PUSH2 0x2A1E JUMP JUMPDEST DUP2 EQ PUSH2 0x2DB0 JUMPI PUSH1 0x0 DUP1 REVERT JUMPDEST POP JUMP JUMPDEST PUSH2 0x2DBC DUP2 PUSH2 0x2A4A JUMP JUMPDEST DUP2 EQ PUSH2 0x2DC7 JUMPI PUSH1 0x0 DUP1 REVERT JUMPDEST POP JUMP JUMPDEST PUSH2 0x2DD3 DUP2 PUSH2 0x2A54 JUMP JUMPDEST DUP2 EQ PUSH2 0x2DDE JUMPI PUSH1 0x0 DUP1 REVERT JUMPDEST POP JUMP INVALID LOG2 PUSH5 0x6970667358 0x22 SLT KECCAK256 PUSH12 0x36D7B52203330B8FFCF521C4 LT ADD 0x1E 0xFB SMOD SMOD 0xDD 0xD9 0xA5 PUSH8 0xD2A91BE1EFF8B2CA 0xC6 PUSH5 0x736F6C6343 STOP ADDMOD SMOD STOP CALLER "
		},
		"gasEstimates": {
			"creation": {
				"codeDepositCost": "2359800",
				"executionCost": "infinite",
				"totalCost": "infinite"
			},
			"external": {
				"addStar(uint256)": "infinite",
				"cancelSaleAdvert(uint256)": "infinite",
				"createSaleAdvert(uint256,string,uint32)": "infinite",
				"getEntireItems()": "infinite",
				"getItemById(uint256)": "infinite",
				"itemList(uint256)": "infinite",
				"items(uint256)": "infinite",
				"itemsOfUsers(uint256,address)": "infinite",
				"payment(uint256,uint256)": "infinite",
				"returnItem(uint256,uint256)": "infinite",
				"token()": "infinite",
				"users(address)": "infinite"
			}
		},
		"methodIdentifiers": {
			"addStar(uint256)": "01750e74",
			"cancelSaleAdvert(uint256)": "ca095a83",
			"createSaleAdvert(uint256,string,uint32)": "4efd1797",
			"getEntireItems()": "5d9eb55c",
			"getItemById(uint256)": "cd2f0710",
			"itemList(uint256)": "3d4d3600",
			"items(uint256)": "bfb231d2",
			"itemsOfUsers(uint256,address)": "e2870aa9",
			"payment(uint256,uint256)": "2f63147f",
			"returnItem(uint256,uint256)": "de59c322",
			"token()": "fc0c546a",
			"users(address)": "a87430ba"
		}
	},
	"abi": [
		{
			"inputs": [
				{
					"internalType": "address",
					"name": "_token",
					"type": "address"
				}
			],
			"stateMutability": "nonpayable",
			"type": "constructor"
		},
		{
			"anonymous": false,
			"inputs": [
				{
					"indexed": false,
					"internalType": "uint256",
					"name": "itmId",
					"type": "uint256"
				},
				{
					"indexed": false,
					"internalType": "uint256",
					"name": "itmStar",
					"type": "uint256"
				},
				{
					"indexed": true,
					"internalType": "address",
					"name": "caller",
					"type": "address"
				}
			],
			"name": "AddStar",
			"type": "event"
		},
		{
			"anonymous": false,
			"inputs": [
				{
					"indexed": false,
					"internalType": "uint256",
					"name": "itmId",
					"type": "uint256"
				},
				{
					"indexed": true,
					"internalType": "address",
					"name": "caller",
					"type": "address"
				}
			],
			"name": "CancelSaleAdvert",
			"type": "event"
		},
		{
			"anonymous": false,
			"inputs": [
				{
					"indexed": false,
					"internalType": "uint256",
					"name": "id",
					"type": "uint256"
				},
				{
					"indexed": false,
					"internalType": "uint256",
					"name": "price",
					"type": "uint256"
				},
				{
					"indexed": false,
					"internalType": "string",
					"name": "image",
					"type": "string"
				},
				{
					"indexed": false,
					"internalType": "uint32",
					"name": "dueDate",
					"type": "uint32"
				},
				{
					"indexed": false,
					"internalType": "uint256",
					"name": "star",
					"type": "uint256"
				},
				{
					"indexed": true,
					"internalType": "address",
					"name": "seller",
					"type": "address"
				}
			],
			"name": "CreateSaleAdvert",
			"type": "event"
		},
		{
			"anonymous": false,
			"inputs": [
				{
					"components": [
						{
							"internalType": "uint256",
							"name": "itemId",
							"type": "uint256"
						},
						{
							"internalType": "string",
							"name": "itemImage",
							"type": "string"
						},
						{
							"internalType": "uint256",
							"name": "star",
							"type": "uint256"
						},
						{
							"internalType": "address",
							"name": "seller",
							"type": "address"
						},
						{
							"internalType": "uint256",
							"name": "price",
							"type": "uint256"
						},
						{
							"internalType": "uint32",
							"name": "dueDate",
							"type": "uint32"
						}
					],
					"indexed": false,
					"internalType": "struct SwapCart.Item[]",
					"name": "listOfItems",
					"type": "tuple[]"
				},
				{
					"indexed": true,
					"internalType": "address",
					"name": "caller",
					"type": "address"
				}
			],
			"name": "GetEntireItems",
			"type": "event"
		},
		{
			"anonymous": false,
			"inputs": [
				{
					"indexed": false,
					"internalType": "uint256",
					"name": "itmId",
					"type": "uint256"
				},
				{
					"components": [
						{
							"internalType": "uint256",
							"name": "itemId",
							"type": "uint256"
						},
						{
							"internalType": "string",
							"name": "itemImage",
							"type": "string"
						},
						{
							"internalType": "uint256",
							"name": "star",
							"type": "uint256"
						},
						{
							"internalType": "address",
							"name": "seller",
							"type": "address"
						},
						{
							"internalType": "uint256",
							"name": "price",
							"type": "uint256"
						},
						{
							"internalType": "uint32",
							"name": "dueDate",
							"type": "uint32"
						}
					],
					"indexed": false,
					"internalType": "struct SwapCart.Item",
					"name": "item",
					"type": "tuple"
				},
				{
					"indexed": true,
					"internalType": "address",
					"name": "caller",
					"type": "address"
				}
			],
			"name": "GetItemById",
			"type": "event"
		},
		{
			"anonymous": false,
			"inputs": [
				{
					"indexed": false,
					"internalType": "uint256",
					"name": "itmId",
					"type": "uint256"
				},
				{
					"indexed": true,
					"internalType": "address",
					"name": "caller",
					"type": "address"
				},
				{
					"indexed": false,
					"internalType": "uint256",
					"name": "amount",
					"type": "uint256"
				}
			],
			"name": "Payment",
			"type": "event"
		},
		{
			"anonymous": false,
			"inputs": [
				{
					"indexed": false,
					"internalType": "uint256",
					"name": "itmId",
					"type": "uint256"
				},
				{
					"indexed": true,
					"internalType": "address",
					"name": "caller",
					"type": "address"
				},
				{
					"indexed": false,
					"internalType": "uint256",
					"name": "amount",
					"type": "uint256"
				}
			],
			"name": "ReturnItem",
			"type": "event"
		},
		{
			"inputs": [
				{
					"internalType": "uint256",
					"name": "itmId",
					"type": "uint256"
				}
			],
			"name": "addStar",
			"outputs": [],
			"stateMutability": "nonpayable",
			"type": "function"
		},
		{
			"inputs": [
				{
					"internalType": "uint256",
					"name": "itmId",
					"type": "uint256"
				}
			],
			"name": "cancelSaleAdvert",
			"outputs": [],
			"stateMutability": "nonpayable",
			"type": "function"
		},
		{
			"inputs": [
				{
					"internalType": "uint256",
					"name": "itmPrice",
					"type": "uint256"
				},
				{
					"internalType": "string",
					"name": "itmImage",
					"type": "string"
				},
				{
					"internalType": "uint32",
					"name": "itmDueDate",
					"type": "uint32"
				}
			],
			"name": "createSaleAdvert",
			"outputs": [],
			"stateMutability": "nonpayable",
			"type": "function"
		},
		{
			"inputs": [],
			"name": "getEntireItems",
			"outputs": [
				{
					"components": [
						{
							"internalType": "uint256",
							"name": "itemId",
							"type": "uint256"
						},
						{
							"internalType": "string",
							"name": "itemImage",
							"type": "string"
						},
						{
							"internalType": "uint256",
							"name": "star",
							"type": "uint256"
						},
						{
							"internalType": "address",
							"name": "seller",
							"type": "address"
						},
						{
							"internalType": "uint256",
							"name": "price",
							"type": "uint256"
						},
						{
							"internalType": "uint32",
							"name": "dueDate",
							"type": "uint32"
						}
					],
					"internalType": "struct SwapCart.Item[]",
					"name": "",
					"type": "tuple[]"
				}
			],
			"stateMutability": "nonpayable",
			"type": "function"
		},
		{
			"inputs": [
				{
					"internalType": "uint256",
					"name": "itmId",
					"type": "uint256"
				}
			],
			"name": "getItemById",
			"outputs": [
				{
					"components": [
						{
							"internalType": "uint256",
							"name": "itemId",
							"type": "uint256"
						},
						{
							"internalType": "string",
							"name": "itemImage",
							"type": "string"
						},
						{
							"internalType": "uint256",
							"name": "star",
							"type": "uint256"
						},
						{
							"internalType": "address",
							"name": "seller",
							"type": "address"
						},
						{
							"internalType": "uint256",
							"name": "price",
							"type": "uint256"
						},
						{
							"internalType": "uint32",
							"name": "dueDate",
							"type": "uint32"
						}
					],
					"internalType": "struct SwapCart.Item",
					"name": "",
					"type": "tuple"
				}
			],
			"stateMutability": "nonpayable",
			"type": "function"
		},
		{
			"inputs": [
				{
					"internalType": "uint256",
					"name": "",
					"type": "uint256"
				}
			],
			"name": "itemList",
			"outputs": [
				{
					"internalType": "uint256",
					"name": "itemId",
					"type": "uint256"
				},
				{
					"internalType": "string",
					"name": "itemImage",
					"type": "string"
				},
				{
					"internalType": "uint256",
					"name": "star",
					"type": "uint256"
				},
				{
					"internalType": "address",
					"name": "seller",
					"type": "address"
				},
				{
					"internalType": "uint256",
					"name": "price",
					"type": "uint256"
				},
				{
					"internalType": "uint32",
					"name": "dueDate",
					"type": "uint32"
				}
			],
			"stateMutability": "view",
			"type": "function"
		},
		{
			"inputs": [
				{
					"internalType": "uint256",
					"name": "",
					"type": "uint256"
				}
			],
			"name": "items",
			"outputs": [
				{
					"internalType": "uint256",
					"name": "itemId",
					"type": "uint256"
				},
				{
					"internalType": "string",
					"name": "itemImage",
					"type": "string"
				},
				{
					"internalType": "uint256",
					"name": "star",
					"type": "uint256"
				},
				{
					"internalType": "address",
					"name": "seller",
					"type": "address"
				},
				{
					"internalType": "uint256",
					"name": "price",
					"type": "uint256"
				},
				{
					"internalType": "uint32",
					"name": "dueDate",
					"type": "uint32"
				}
			],
			"stateMutability": "view",
			"type": "function"
		},
		{
			"inputs": [
				{
					"internalType": "uint256",
					"name": "",
					"type": "uint256"
				},
				{
					"internalType": "address",
					"name": "",
					"type": "address"
				}
			],
			"name": "itemsOfUsers",
			"outputs": [
				{
					"internalType": "uint256",
					"name": "",
					"type": "uint256"
				}
			],
			"stateMutability": "view",
			"type": "function"
		},
		{
			"inputs": [
				{
					"internalType": "uint256",
					"name": "itmId",
					"type": "uint256"
				},
				{
					"internalType": "uint256",
					"name": "amount",
					"type": "uint256"
				}
			],
			"name": "payment",
			"outputs": [],
			"stateMutability": "nonpayable",
			"type": "function"
		},
		{
			"inputs": [
				{
					"internalType": "uint256",
					"name": "itmId",
					"type": "uint256"
				},
				{
					"internalType": "uint256",
					"name": "amount",
					"type": "uint256"
				}
			],
			"name": "returnItem",
			"outputs": [],
			"stateMutability": "nonpayable",
			"type": "function"
		},
		{
			"inputs": [],
			"name": "token",
			"outputs": [
				{
					"internalType": "contract IERC20",
					"name": "",
					"type": "address"
				}
			],
			"stateMutability": "view",
			"type": "function"
		},
		{
			"inputs": [
				{
					"internalType": "address",
					"name": "",
					"type": "address"
				}
			],
			"name": "users",
			"outputs": [
				{
					"internalType": "uint256",
					"name": "userID",
					"type": "uint256"
				},
				{
					"internalType": "string",
					"name": "userName",
					"type": "string"
				},
				{
					"internalType": "string",
					"name": "deliveryAddress",
					"type": "string"
				},
				{
					"internalType": "uint256",
					"name": "balance",
					"type": "uint256"
				}
			],
			"stateMutability": "view",
			"type": "function"
		}
	]
}